{"abi":[{"inputs":[{"internalType":"address","name":"_chef","type":"address"},{"internalType":"uint256","name":"_idoPrice","type":"uint256"},{"internalType":"address","name":"_nicePair","type":"address"},{"internalType":"address","name":"_bankroll","type":"address"},{"internalType":"address","name":"_lottery","type":"address"},{"internalType":"address","name":"_lock","type":"address"},{"internalType":"address","name":"_nice","type":"address"},{"internalType":"address","name":"_crush","type":"address"}],"stateMutability":"nonpayable","type":"constructor","name":"constructor"},{"anonymous":false,"inputs":[{"indexed":true,"internalType":"uint256","name":"_pid","type":"uint256"}],"name":"AddPoolFee","type":"event"},{"anonymous":false,"inputs":[{"indexed":true,"internalType":"uint256","name":"_pid","type":"uint256"},{"indexed":false,"internalType":"uint256","name":"bb","type":"uint256"},{"indexed":false,"internalType":"uint256","name":"liq","type":"uint256"},{"indexed":false,"internalType":"uint256","name":"team","type":"uint256"}],"name":"EditFee","type":"event"},{"anonymous":false,"inputs":[{"indexed":false,"internalType":"uint256","name":"amount","type":"uint256"},{"indexed":false,"internalType":"address","name":"_token","type":"address"}],"name":"FundsDistributed","type":"event"},{"anonymous":false,"inputs":[{"indexed":true,"internalType":"address","name":"previousOwner","type":"address"},{"indexed":true,"internalType":"address","name":"newOwner","type":"address"}],"name":"OwnershipTransferred","type":"event"},{"anonymous":false,"inputs":[{"indexed":false,"internalType":"bool","name":"_isOn","type":"bool"}],"name":"SeachForTarget","type":"event"},{"anonymous":false,"inputs":[{"indexed":false,"internalType":"bool","name":"_success","type":"bool"},{"indexed":false,"internalType":"uint256","name":"amount","type":"uint256"}],"name":"TeamFundsDistributed","type":"event"},{"anonymous":false,"inputs":[{"indexed":false,"internalType":"address","name":"_newLotteery","type":"address"},{"indexed":false,"internalType":"address","name":"_oldLottery","type":"address"}],"name":"UpdateLotteryAddress","type":"event"},{"anonymous":false,"inputs":[{"indexed":false,"internalType":"address","name":"_router","type":"address"}],"name":"UpdateMainRouter","type":"event"},{"anonymous":false,"inputs":[{"indexed":true,"internalType":"uint256","name":"_pid","type":"uint256"},{"indexed":false,"internalType":"address","name":"router","type":"address"}],"name":"UpdatePath","type":"event"},{"anonymous":false,"inputs":[{"indexed":true,"internalType":"uint256","name":"_pid","type":"uint256"},{"indexed":false,"internalType":"address","name":"router","type":"address"}],"name":"UpdateRouter","type":"event"},{"anonymous":false,"inputs":[{"indexed":false,"internalType":"uint256","name":"_target","type":"uint256"}],"name":"UpdateTargetPrice","type":"event"},{"anonymous":false,"inputs":[{"indexed":false,"internalType":"address","name":"_teamW","type":"address"}],"name":"UpdateTeamWallet","type":"event"},{"stateMutability":"payable","type":"fallback"},{"inputs":[],"name":"CRUSH","outputs":[{"internalType":"address","name":"","type":"address"}],"stateMutability":"view","type":"function"},{"inputs":[],"name":"DIVISOR","outputs":[{"internalType":"uint256","name":"","type":"uint256"}],"stateMutability":"view","type":"function"},{"inputs":[],"name":"NICE","outputs":[{"internalType":"address","name":"","type":"address"}],"stateMutability":"view","type":"function"},{"inputs":[{"internalType":"uint256","name":"_pid","type":"uint256"},{"internalType":"uint256[3]","name":"_niceFees","type":"uint256[3]"},{"internalType":"uint256[5]","name":"_crushFees","type":"uint256[5]"},{"internalType":"bool[3]","name":"hasFees","type":"bool[3]"},{"internalType":"address","name":"router","type":"address"},{"internalType":"address[]","name":"_tokens","type":"address[]"},{"internalType":"address[]","name":"_token0Path","type":"address[]"},{"internalType":"address[]","name":"_token1Path","type":"address[]"}],"name":"addorEditFee","outputs":[],"stateMutability":"nonpayable","type":"function"},{"inputs":[],"name":"bankroll","outputs":[{"internalType":"contract IBitcrushBankroll","name":"","type":"address"}],"stateMutability":"view","type":"function"},{"inputs":[],"name":"checkPrice","outputs":[{"internalType":"bool","name":"_belowIDO","type":"bool"}],"stateMutability":"view","type":"function"},{"inputs":[],"name":"chef","outputs":[{"internalType":"contract GalacticChef","name":"","type":"address"}],"stateMutability":"view","type":"function"},{"inputs":[],"name":"deadWallet","outputs":[{"internalType":"address","name":"","type":"address"}],"stateMutability":"view","type":"function"},{"inputs":[{"internalType":"uint256","name":"_pid","type":"uint256"}],"name":"distribute","outputs":[],"stateMutability":"nonpayable","type":"function"},{"inputs":[{"internalType":"bool","name":"_enable","type":"bool"}],"name":"enableTargetSearch","outputs":[],"stateMutability":"nonpayable","type":"function"},{"inputs":[{"internalType":"uint256","name":"","type":"uint256"}],"name":"feeData","outputs":[{"internalType":"bool","name":"initialized","type":"bool"},{"internalType":"bool","name":"hasFees","type":"bool"},{"internalType":"bool","name":"token0Fees","type":"bool"},{"internalType":"bool","name":"token1Fees","type":"bool"},{"internalType":"contract IPancakeRouter","name":"router","type":"address"}],"stateMutability":"view","type":"function"},{"inputs":[{"internalType":"uint256","name":"_pid","type":"uint256"}],"name":"getFees","outputs":[{"internalType":"uint256[3]","name":"_niceFees","type":"uint256[3]"},{"internalType":"uint256[5]","name":"_crushFees","type":"uint256[5]"}],"stateMutability":"view","type":"function"},{"inputs":[],"name":"idoPrice","outputs":[{"internalType":"uint256","name":"","type":"uint256"}],"stateMutability":"view","type":"function"},{"inputs":[],"name":"lock","outputs":[{"internalType":"address","name":"","type":"address"}],"stateMutability":"view","type":"function"},{"inputs":[],"name":"lottery","outputs":[{"internalType":"contract IBitcrushLottery","name":"","type":"address"}],"stateMutability":"view","type":"function"},{"inputs":[],"name":"niceLiquidity","outputs":[{"internalType":"address","name":"","type":"address"}],"stateMutability":"view","type":"function"},{"inputs":[],"name":"owner","outputs":[{"internalType":"address","name":"","type":"address"}],"stateMutability":"view","type":"function"},{"inputs":[],"name":"reachForIdo","outputs":[{"internalType":"bool","name":"","type":"bool"}],"stateMutability":"view","type":"function"},{"inputs":[{"internalType":"uint256","name":"_pid","type":"uint256"},{"internalType":"uint256","name":"_amount","type":"uint256"}],"name":"receiveFees","outputs":[],"stateMutability":"nonpayable","type":"function"},{"inputs":[],"name":"renounceOwnership","outputs":[],"stateMutability":"nonpayable","type":"function"},{"inputs":[{"internalType":"address","name":"_newRouter","type":"address"}],"name":"setBaseRouter","outputs":[],"stateMutability":"nonpayable","type":"function"},{"inputs":[{"internalType":"address payable","name":"_newTeamW","type":"address"}],"name":"setTeamWallet","outputs":[],"stateMutability":"nonpayable","type":"function"},{"inputs":[],"name":"teamWallet","outputs":[{"internalType":"address","name":"","type":"address"}],"stateMutability":"view","type":"function"},{"inputs":[{"internalType":"uint256","name":"","type":"uint256"},{"internalType":"uint256","name":"","type":"uint256"}],"name":"token0Path","outputs":[{"internalType":"address","name":"","type":"address"}],"stateMutability":"view","type":"function"},{"inputs":[{"internalType":"uint256","name":"","type":"uint256"},{"internalType":"uint256","name":"","type":"uint256"}],"name":"token1Path","outputs":[{"internalType":"address","name":"","type":"address"}],"stateMutability":"view","type":"function"},{"inputs":[{"internalType":"uint256","name":"","type":"uint256"},{"internalType":"uint256","name":"","type":"uint256"}],"name":"tokenPath","outputs":[{"internalType":"address","name":"","type":"address"}],"stateMutability":"view","type":"function"},{"inputs":[],"name":"tokenRouter","outputs":[{"internalType":"contract IPancakeRouter","name":"","type":"address"}],"stateMutability":"view","type":"function"},{"inputs":[{"internalType":"address","name":"newOwner","type":"address"}],"name":"transferOwnership","outputs":[],"stateMutability":"nonpayable","type":"function"},{"inputs":[{"internalType":"uint256","name":"_price","type":"uint256"}],"name":"updateIdoTarget","outputs":[],"stateMutability":"nonpayable","type":"function"},{"inputs":[{"internalType":"address","name":"_nLottery","type":"address"}],"name":"updateLottery","outputs":[],"stateMutability":"nonpayable","type":"function"},{"inputs":[{"internalType":"uint256","name":"id","type":"uint256"},{"internalType":"address[]","name":"_path","type":"address[]"},{"internalType":"address[]","name":"_path1","type":"address[]"},{"internalType":"address[]","name":"_path2","type":"address[]"}],"name":"updatePaths","outputs":[],"stateMutability":"nonpayable","type":"function"},{"stateMutability":"payable","type":"receive"}],"bytecode":"61010060405261dead60c0523480156200001857600080fd5b5060405162003e0c38038062003e0c8339810160408190526200003b916200016e565b620000463362000101565b6001600160a01b038816620000905760405162461bcd60e51b815260206004820152600c60248201526b5a65726f206164647265737360a01b604482015260640160405180910390fd5b600780546001600160a01b03998a166001600160a01b031991821617909155600480548216331790556003979097556006805460028054988b16989099169790971790975593871660e0529186166001600160a81b0319909416939093179093558316608052501660a0526200020d565b600080546001600160a01b038381166001600160a01b0319831681178455604051919092169283917f8be0079c531659141344cd1fd0a4f28419497f9722a3daafe3b4186f6b6457e09190a35050565b80516001600160a01b03811681146200016957600080fd5b919050565b600080600080600080600080610100898b0312156200018c57600080fd5b620001978962000151565b975060208901519650620001ae60408a0162000151565b9550620001be60608a0162000151565b9450620001ce60808a0162000151565b9350620001de60a08a0162000151565b9250620001ee60c08a0162000151565b9150620001fe60e08a0162000151565b90509295985092959890939650565b60805160a05160c05160e051613b8d6200027f6000396000818161021c01528181612aa50152612b550152600081816104fe0152612e900152600081816102c101528181610bfd015281816123fe01526124c30152600081816103b50152818161228001526123910152613b8d6000f3fe6080604052600436106101c45760003560e01c80637a254a41116100f6578063a562bdba1161008f578063d85539c611610061578063d85539c614610617578063f2fde38b14610637578063f83d08ba14610657578063f8b70f031461067757005b8063a562bdba14610593578063ba13a572146105b3578063cd80fe0d146105d3578063d5a06d4c146105e957005b80638da5cb5b116100c85780638da5cb5b146105205780638fc3047d1461053e57806391c05b0b14610553578063958bac5f1461057357005b80637a254a411461048c5780637ced15ef146104ac5780637d04feff146104cc57806385141a77146104ec57005b80633843418d11610168578063659f4bf91161013a578063659f4bf91461041757806367347c68146104375780636c7a8ee414610457578063715018a61461047757005b80633843418d1461030757806343f0a8e1146103a35780634f348758146103d757806359927044146103f757005b80631525ff7d116101a15780631525ff7d1461026f5780631fc8bc5d1461028f57806330926486146102af5780633410fe6e146102e357005b8063075b42ab146101cd5780630c657eb01461020a5780630fe344ed1461023e57005b366101cb57005b005b3480156101d957600080fd5b506002546101ed906001600160a01b031681565b6040516001600160a01b0390911681526020015b60405180910390f35b34801561021657600080fd5b506101ed7f000000000000000000000000000000000000000000000000000000000000000081565b34801561024a57600080fd5b5060065461025f90600160a01b900460ff1681565b6040519015158152602001610201565b34801561027b57600080fd5b506101cb61028a36600461334e565b610697565b34801561029b57600080fd5b506007546101ed906001600160a01b031681565b3480156102bb57600080fd5b506101ed7f000000000000000000000000000000000000000000000000000000000000000081565b3480156102ef57600080fd5b506102f961271081565b604051908152602001610201565b34801561031357600080fd5b5061036a61032236600461336b565b6008602081905260009182526040909120015460ff8082169161010081048216916201000082048116916301000000810490911690600160201b90046001600160a01b031685565b60408051951515865293151560208601529115159284019290925290151560608301526001600160a01b0316608082015260a001610201565b3480156103af57600080fd5b506101ed7f000000000000000000000000000000000000000000000000000000000000000081565b3480156103e357600080fd5b506101cb6103f2366004613384565b610762565b34801561040357600080fd5b506004546101ed906001600160a01b031681565b34801561042357600080fd5b506101ed610432366004613384565b610d15565b34801561044357600080fd5b506101cb6104523660046133b4565b610d4d565b34801561046357600080fd5b506101cb61047236600461344f565b610e18565b34801561048357600080fd5b506101cb6110eb565b34801561049857600080fd5b506101ed6104a7366004613384565b611121565b3480156104b857600080fd5b506101cb6104c736600461336b565b61113d565b3480156104d857600080fd5b506101ed6104e7366004613384565b6111dd565b3480156104f857600080fd5b506101ed7f000000000000000000000000000000000000000000000000000000000000000081565b34801561052c57600080fd5b506000546001600160a01b03166101ed565b34801561054a57600080fd5b5061025f6111f9565b34801561055f57600080fd5b506101cb61056e36600461336b565b6112c8565b34801561057f57600080fd5b506101cb61058e366004613547565b61132b565b34801561059f57600080fd5b506001546101ed906001600160a01b031681565b3480156105bf57600080fd5b506006546101ed906001600160a01b031681565b3480156105df57600080fd5b506102f960035481565b3480156105f557600080fd5b5061060961060436600461336b565b6113ac565b6040516102019291906135eb565b34801561062357600080fd5b506101cb61063236600461334e565b61143b565b34801561064357600080fd5b506101cb61065236600461334e565b61150e565b34801561066357600080fd5b506005546101ed906001600160a01b031681565b34801561068357600080fd5b506101cb61069236600461334e565b6115a9565b6000546001600160a01b031633146106ca5760405162461bcd60e51b81526004016106c190613648565b60405180910390fd5b6001600160a01b03811661070d5760405162461bcd60e51b815260206004820152600a602482015269043616e742070617920360b41b60448201526064016106c1565b600480546001600160a01b0319166001600160a01b0383169081179091556040519081527f88b8edda57af64d7425b090e9e8d925c96d2cc1360afdc15f0da29752103e705906020015b60405180910390a150565b6007546001600160a01b031633146107a75760405162461bcd60e51b815260206004820152600860248201526737b7363ca1b432b360c11b60448201526064016106c1565b60008281526008602081905260409091209081015460ff166107f65760405162461bcd60e51b8152602060048201526008602482015267139bdd081a5b9a5d60c21b60448201526064016106c1565b600754604051631526fe2760e01b81526004810185905260009182916001600160a01b0390911690631526fe279060240160e060405180830381865afa158015610844573d6000803e3d6000fd5b505050506040513d601f19601f82011682018060405250810190610868919061367d565b60075493985096506108919550506001600160a01b038088169450909116915030905087611661565b6040516370a0823160e01b815230600482015284906001600160a01b038416906370a0823190602401602060405180830381865afa1580156108d7573d6000803e3d6000fd5b505050506040513d601f19601f820116820180604052508101906108fb91906136f3565b10156109365760405162461bcd60e51b815260206004820152600a60248201526973656e642066756e647360b01b60448201526064016106c1565b60088301546001600160a01b038084169163095ea7b391600160201b90910416610961876002613722565b6040516001600160e01b031960e085901b1681526001600160a01b03909216600483015260248201526044016020604051808303816000875af11580156109ac573d6000803e3d6000fd5b505050506040513d601f19601f820116820180604052508101906109d09190613741565b5080156109e7576109e185856116c1565b50610b15565b6008830154610100900460ff1615610a7e57600883015460008681526009602052604090819020905163791ac94760e01b8152600160201b9092046001600160a01b03169163791ac94791610a47918891600191309042906004016137a7565b600060405180830381600087803b158015610a6157600080fd5b505af1158015610a75573d6000803e3d6000fd5b50505050610b15565b60088301546000868152600960205260409081902090516318cbafe560e01b8152600160201b9092046001600160a01b0316916318cbafe591610acc918891600191309042906004016137a7565b6000604051808303816000875af1158015610aeb573d6000803e3d6000fd5b505050506040513d6000823e601f3d908101601f19168201604052610b1391908101906137f9565b505b600654600160a01b900460ff168015610b315750610b316111f9565b15610cc457604080516002808252606082018352479260009291906020830190803683375050600154604080516315ab88c960e31b815290519394506001600160a01b039091169263ad5c4648925060048083019260209291908290030181865afa158015610ba4573d6000803e3d6000fd5b505050506040513d601f19601f82011682018060405250810190610bc891906138b7565b81600081518110610bdb57610bdb6138d4565b60200260200101906001600160a01b031690816001600160a01b0316815250507f000000000000000000000000000000000000000000000000000000000000000081600181518110610c2f57610c2f6138d4565b6001600160a01b039283166020918202929092010152600154604051637ff36ab560e01b8152911690637ff36ab5908490610c7590600090869082904290600401613923565b60006040518083038185885af1158015610c93573d6000803e3d6000fd5b50505050506040513d6000823e601f3d908101601f19168201604052610cbc91908101906137f9565b505050610ccd565b610ccd83612087565b604080518581526001600160a01b03841660208201527f195b26ced269c6da9f9a06d404cba065a0149c0c189719e0384e1beb79659da0910160405180910390a15050505050565b600a6020528160005260406000208181548110610d3157600080fd5b6000918252602090912001546001600160a01b03169150829050565b6000546001600160a01b03163314610d775760405162461bcd60e51b81526004016106c190613648565b60065460ff600160a01b9091041615158115151415610dcb5760405162461bcd60e51b815260206004820152601060248201526f416c726561647920696e20737461746560801b60448201526064016106c1565b60068054821515600160a01b0260ff60a01b199091161790556040517f7d703b166159e7b2e16b6550390cfdc4786dddf83c504aa32647e1da9127f2269061075790831515815260200190565b6000546001600160a01b03163314610e425760405162461bcd60e51b81526004016106c190613648565b612710610e4f8b8b612594565b1115610e9d5760405162461bcd60e51b815260206004820152601a60248201527f496e636f72726563742046656520646973747269627574696f6e00000000000060448201526064016106c1565b6001600160a01b038716610ee65760405162461bcd60e51b815260206004820152601060248201526f24b731b7b93932b1ba102937baba32b960811b60448201526064016106c1565b84610f295760405162461bcd60e51b81526020600482015260136024820152726e6565642061207061746820746f206261736560681b60448201526064016106c1565b6040805161014081019091528060e081018c60038282606080828437600092019190915250505081526040805160a0818101909252602090920191908c906005908390839080828437600092019190915250505081526001602080830191909152604090910190610f9c908b018b6133b4565b15158152602090810190610fb69060408c01908c016133b4565b15158152602001610fcd60608b0160408c016133b4565b151581526001600160a01b03891660209182015260008d81526008909152604090208151610ffe908290600361322a565b5060208201516110149060038301906005613268565b506040820151600890910180546060840151608085015160a086015160c0909601516001600160a01b0316600160201b02640100000000600160c01b031996151563010000000263ff0000001992151562010000029290921663ffff0000199315156101000261ff00199715159790971661ffff199095169490941795909517919091169190911717929092161790556110b38b87878787878761132b565b6040518b907ff7eb02141ad38ebc5b61e51e5bb0e913cea227b9dfc94ea034fb39a9f5fe809f90600090a25050505050505050505050565b6000546001600160a01b031633146111155760405162461bcd60e51b81526004016106c190613648565b61111f6000612611565b565b60096020528160005260406000208181548110610d3157600080fd5b6000546001600160a01b031633146111675760405162461bcd60e51b81526004016106c190613648565b600081116111a85760405162461bcd60e51b815260206004820152600e60248201526d125b9d985b1a59081d185c99d95d60921b60448201526064016106c1565b60038190556040518181527f145cc1d669b07469e4051f322247be4857ec7e59ae7dcd6e88057c181424d85890602001610757565b600b6020528160005260406000208181548110610d3157600080fd5b6000806000600260009054906101000a90046001600160a01b03166001600160a01b0316630902f1ac6040518163ffffffff1660e01b8152600401606060405180830381865afa158015611251573d6000803e3d6000fd5b505050506040513d601f19601f82011682018060405250810190611275919061396f565b506001600160701b031691506001600160701b031691506000811161129b57600161129d565b805b600354909150816112b684670de0b6b3a7640000613722565b6112c091906139bf565b109250505090565b60008181526008602081905260409091209081015460ff1661131e5760405162461bcd60e51b815260206004820152600f60248201526e139bdd081a5b9a5d1a585b1a5e9959608a1b60448201526064016106c1565b61132781612087565b5050565b6000546001600160a01b031633146113555760405162461bcd60e51b81526004016106c190613648565b600087815260096020526040902061136e908787613295565b506000878152600a60205260409020611388908585613295565b506000878152600b602052604090206113a2908383613295565b5050505050505050565b6113b46132e8565b6113bc613306565b60008381526008602052604090819020815160608101928390529160039082845b8154815260200190600101908083116113dd5750505060008681526008602052604090819020815160a081019283905294965060030192506005915082845b81548152602001906001019080831161141c5750505050509050915091565b6000546001600160a01b031633146114655760405162461bcd60e51b81526004016106c190613648565b6001600160a01b0381166114a55760405162461bcd60e51b81526020600482015260076024820152664e6f205a65726f60c81b60448201526064016106c1565b600654604080516001600160a01b03808516825290921660208301527f4088a686f46439872254e52412588879189d5d7ad58511047a6f308714e0a0fc910160405180910390a1600680546001600160a01b0319166001600160a01b0392909216919091179055565b6000546001600160a01b031633146115385760405162461bcd60e51b81526004016106c190613648565b6001600160a01b03811661159d5760405162461bcd60e51b815260206004820152602660248201527f4f776e61626c653a206e6577206f776e657220697320746865207a65726f206160448201526564647265737360d01b60648201526084016106c1565b6115a681612611565b50565b6000546001600160a01b031633146115d35760405162461bcd60e51b81526004016106c190613648565b6001600160a01b0381166116135760405162461bcd60e51b81526020600482015260076024820152664e6f207a65726f60c81b60448201526064016106c1565b600180546001600160a01b0319166001600160a01b0383169081179091556040519081527f2df9d602927cbee25f5ac348817e8312326c22c45d0afe91f8c3b5eb4fd6750890602001610757565b604080516001600160a01b0385811660248301528416604482015260648082018490528251808303909101815260849091019091526020810180516001600160e01b03166323b872dd60e01b1790526116bb908590612661565b50505050565b600082815260086020908152604080832060015482516315ab88c960e31b8152925191936001600160a01b039091169263ad5c464892600480830193928290030181865afa158015611717573d6000803e3d6000fd5b505050506040513d601f19601f8201168201806040525081019061173b91906138b7565b6001600160a01b031660096000868152602001908152602001600020600081548110611769576117696138d4565b6000918252602090912001546001600160a01b031614806118415750600160009054906101000a90046001600160a01b03166001600160a01b031663ad5c46486040518163ffffffff1660e01b8152600401602060405180830381865afa1580156117d8573d6000803e3d6000fd5b505050506040513d601f19601f820116820180604052508101906117fc91906138b7565b6001600160a01b03166009600086815260200190815260200160002060018154811061182a5761182a6138d4565b6000918252602090912001546001600160a01b0316145b15611b815760006060600061185587612738565b60088701549295509093509150610100900460ff16156118fb57600884015460405163af2979eb60e01b8152600160201b9091046001600160a01b03169063af2979eb906118b29086908a906000908190309042906004016139e1565b6020604051808303816000875af11580156118d1573d6000803e3d6000fd5b505050506040513d601f19601f820116820180604052508101906118f591906136f3565b50611982565b6008840154604051629d473b60e21b8152600160201b9091046001600160a01b0316906302751cec9061193d9086908a906000908190309042906004016139e1565b60408051808303816000875af115801561195b573d6000803e3d6000fd5b505050506040513d601f19601f8201168201806040525081019061197f9190613a1c565b50505b6040516370a0823160e01b81523060048201526000906001600160a01b038516906370a0823190602401602060405180830381865afa1580156119c9573d6000803e3d6000fd5b505050506040513d601f19601f820116820180604052508101906119ed91906136f3565b600886015460405163095ea7b360e01b81526001600160a01b03600160201b909204821660048201526024810183905291925085169063095ea7b3906044016020604051808303816000875af1158015611a4b573d6000803e3d6000fd5b505050506040513d601f19601f82011682018060405250810190611a6f9190613741565b508115611aee57600885015460405163791ac94760e01b8152600160201b9091046001600160a01b03169063791ac94790611ab7908490600090889030904290600401613a40565b600060405180830381600087803b158015611ad157600080fd5b505af1158015611ae5573d6000803e3d6000fd5b50505050611b78565b60088501546040516318cbafe560e01b8152600160201b9091046001600160a01b0316906318cbafe590611b2f908490600090889030904290600401613a40565b6000604051808303816000875af1158015611b4e573d6000803e3d6000fd5b505050506040513d6000823e601f3d908101601f19168201604052611b7691908101906137f9565b505b5050505061207f565b60088101546000858152600960205260408120805491928392600160201b9091046001600160a01b03169163baa2abde918490611bc057611bc06138d4565b60009182526020808320909101548a83526009909152604090912080546001600160a01b03909216916001908110611bfa57611bfa6138d4565b600091825260208220015460405160e085901b6001600160e01b03191681526001600160a01b03938416600482015292166024830152604482018990526064820181905260848201523060a48201524260c482015260e40160408051808303816000875af1158015611c70573d6000803e3d6000fd5b505050506040513d601f19601f82011682018060405250810190611c949190613a1c565b600088815260096020526040812080549395509193509091611cb857611cb86138d4565b60009182526020909120015460088401546001600160a01b039182169163095ea7b391600160201b900416611cee856002613722565b6040516001600160e01b031960e085901b1681526001600160a01b03909216600483015260248201526044016020604051808303816000875af1158015611d39573d6000803e3d6000fd5b505050506040513d601f19601f82011682018060405250810190611d5d9190613741565b50600086815260096020526040902080546001908110611d7f57611d7f6138d4565b60009182526020909120015460088401546001600160a01b039182169163095ea7b391600160201b900416611db5846002613722565b6040516001600160e01b031960e085901b1681526001600160a01b03909216600483015260248201526044016020604051808303816000875af1158015611e00573d6000803e3d6000fd5b505050506040513d601f19601f82011682018060405250810190611e249190613741565b50600883015462010000900460ff1615611eb95760088301546000878152600a6020526040808220905163791ac94760e01b8152600160201b9093046001600160a01b03169263791ac94792611e82928792309042906004016137a7565b600060405180830381600087803b158015611e9c57600080fd5b505af1158015611eb0573d6000803e3d6000fd5b50505050611f4c565b60088301546000878152600a602052604080822090516318cbafe560e01b8152600160201b9093046001600160a01b0316926318cbafe592611f03928792309042906004016137a7565b6000604051808303816000875af1158015611f22573d6000803e3d6000fd5b505050506040513d6000823e601f3d908101601f19168201604052611f4a91908101906137f9565b505b60088301546301000000900460ff1615611fe15760088301546000878152600b6020526040808220905163791ac94760e01b8152600160201b9093046001600160a01b03169263791ac94792611faa928692309042906004016137a7565b600060405180830381600087803b158015611fc457600080fd5b505af1158015611fd8573d6000803e3d6000fd5b50505050612074565b60088301546000878152600b602052604080822090516318cbafe560e01b8152600160201b9093046001600160a01b0316926318cbafe59261202b928692309042906004016137a7565b6000604051808303816000875af115801561204a573d6000803e3d6000fd5b505050506040513d6000823e601f3d908101601f1916820160405261207291908101906137f9565b505b479350505050612081565b505b92915050565b60008060008060008060008060005b60058160ff1610156121bc57896003018160ff16600581106120ba576120ba6138d4565b01546120c69088613a5f565b965060038160ff16106120fe5760028a6003018260ff16600581106120ed576120ed6138d4565b01546120f991906139bf565b612119565b896003018160ff1660058110612116576121166138d4565b01545b612123908a613a5f565b985060038160ff1610156121aa578960ff821660038110612146576121466138d4565b01546121529087613a5f565b955060ff8116156121855760028a60ff831660038110612174576121746138d4565b015461218091906139bf565b61219d565b8960ff82166003811061219a5761219a6138d4565b01545b6121a79089613a5f565b97505b806121b481613a77565b915050612096565b506040805160028082526060820183526000926020830190803683375050600154604080516315ab88c960e31b815290519394506001600160a01b039091169263ad5c4648925060048083019260209291908290030181865afa158015612227573d6000803e3d6000fd5b505050506040513d601f19601f8201168201806040525081019061224b91906138b7565b8160008151811061225e5761225e6138d4565b60200260200101906001600160a01b031690816001600160a01b0316815250507f0000000000000000000000000000000000000000000000000000000000000000816001815181106122b2576122b26138d4565b6001600160a01b039092166020928302919091019091015286156123ba576127106122dd8847613722565b6122e791906139bf565b9450866122f48a87613722565b6122fe91906139bf565b600154604051637ff36ab560e01b81529194506001600160a01b031690637ff36ab590859061233890600090869030904290600401613923565b60006040518083038185885af1158015612356573d6000803e3d6000fd5b50505050506040513d6000823e601f3d908101601f1916820160405261237f91908101906137f9565b5061238a8386613a97565b94506123ba7f00000000000000000000000000000000000000000000000000000000000000008b89600089612964565b85156124ec576127106123cd8747613722565b6123d791906139bf565b9350856123e48986613722565b6123ee91906139bf565b91506123fa8285613a97565b93507f000000000000000000000000000000000000000000000000000000000000000081600181518110612430576124306138d4565b6001600160a01b039283166020918202929092010152600154604051637ff36ab560e01b8152911690637ff36ab590849061247690600090869030904290600401613923565b60006040518083038185885af1158015612494573d6000803e3d6000fd5b50505050506040513d6000823e601f3d908101601f191682016040526124bd91908101906137f9565b506124ec7f00000000000000000000000000000000000000000000000000000000000000008b88600188612964565b478015612587576004546040516000916001600160a01b03169083908381818185875af1925050503d8060008114612540576040519150601f19603f3d011682016040523d82523d6000602084013e612545565b606091505b5050604080518215158152602081018590529192507f7526d8edf9d8774140eac835a1cec043d347db7c1c24c83a3449977a0c61ca5b910160405180910390a1505b5050505050505050505050565b6000805b60058160ff16101561207f57828160ff16600581106125b9576125b96138d4565b6020020135826125c99190613a5f565b915060038160ff1610156125ff57838160ff16600381106125ec576125ec6138d4565b6020020135826125fc9190613a5f565b91505b8061260981613a77565b915050612598565b600080546001600160a01b038381166001600160a01b0319831681178455604051919092169283917f8be0079c531659141344cd1fd0a4f28419497f9722a3daafe3b4186f6b6457e09190a35050565b60006126b6826040518060400160405280602081526020017f5361666545524332303a206c6f772d6c6576656c2063616c6c206661696c6564815250856001600160a01b03166130719092919063ffffffff16565b80519091501561273357808060200190518101906126d49190613741565b6127335760405162461bcd60e51b815260206004820152602a60248201527f5361666545524332303a204552433230206f7065726174696f6e20646964206e6044820152691bdd081cdd58d8d9595960b21b60648201526084016106c1565b505050565b600060606000600160009054906101000a90046001600160a01b03166001600160a01b031663ad5c46486040518163ffffffff1660e01b8152600401602060405180830381865afa158015612791573d6000803e3d6000fd5b505050506040513d601f19601f820116820180604052508101906127b591906138b7565b6001600160a01b0316600960008681526020019081526020016000206000815481106127e3576127e36138d4565b6000918252602090912001546001600160a01b0316146128c1576000848152600960205260408120805490919061281c5761281c6138d4565b6000918252602080832090910154868352600a825260409283902080548451818502810185019095528085526001600160a01b0390921696509183018282801561288f57602002820191906000526020600020905b81546001600160a01b03168152600190910190602001808311612871575b505050505091506008600085815260200190815260200160002060080160029054906101000a900460ff16905061295d565b6000848152600960205260409020805460019081106128e2576128e26138d4565b6000918252602080832090910154868352600b825260409283902080548451818502810185019095528085526001600160a01b0390921696509183018282801561295557602002820191906000526020600020905b81546001600160a01b03168152600190910190602001808311612937575b505050505091505b9193909250565b6040516370a0823160e01b815230600482015285906000906001600160a01b038316906370a0823190602401602060405180830381865afa1580156129ad573d6000803e3d6000fd5b505050506040513d601f19601f820116820180604052508101906129d191906136f3565b90506000846129e45760038701546129e7565b86545b90506000866129f68385613722565b612a0091906139bf565b90508015612a6357604051630852cd8d60e31b8152600481018290526001600160a01b038516906342966c6890602401600060405180830381600087803b158015612a4a57600080fd5b505af1158015612a5e573d6000803e3d6000fd5b505050505b85612a72576004880154612a75565b60005b915086612a828385613722565b612a8c91906139bf565b90508015612bba576001600160a01b03841663095ea7b37f0000000000000000000000000000000000000000000000000000000000000000612acf846002613722565b6040516001600160e01b031960e085901b1681526001600160a01b03909216600483015260248201526044016020604051808303816000875af1158015612b1a573d6000803e3d6000fd5b505050506040513d601f19601f82011682018060405250810190612b3e9190613741565b50604051636172858b60e11b8152600481018290527f00000000000000000000000000000000000000000000000000000000000000006001600160a01b03169063c2e50b1690602401600060405180830381600087803b158015612ba157600080fd5b505af1158015612bb5573d6000803e3d6000fd5b505050505b85612bc9576005880154612bcc565b60005b915086612bd98385613722565b612be391906139bf565b90508015612cdb576006546001600160a01b038086169163095ea7b39116612c0c846002613722565b6040516001600160e01b031960e085901b1681526001600160a01b03909216600483015260248201526044016020604051808303816000875af1158015612c57573d6000803e3d6000fd5b505050506040513d601f19601f82011682018060405250810190612c7b9190613741565b50600654604051631c5fc48360e01b8152600481018390526001600160a01b0390911690631c5fc48390602401600060405180830381600087803b158015612cc257600080fd5b505af1158015612cd6573d6000803e3d6000fd5b505050505b6040516370a0823160e01b81523060048201526001600160a01b038516906370a0823190602401602060405180830381865afa158015612d1f573d6000803e3d6000fd5b505050506040513d601f19601f82011682018060405250810190612d4391906136f3565b92508515612d6057612d58886003810161308a565b509650612d71565b612d6d886003810161308a565b9750505b86612d7f575050505061306a565b85612d8e576006880154612d94565b87600101545b915086612da18385613722565b612dab91906139bf565b9050600087612dba8488613722565b612dc491906139bf565b90508115612f01576001546001600160a01b038087169163095ea7b39116612ded856002613722565b6040516001600160e01b031960e085901b1681526001600160a01b03909216600483015260248201526044016020604051808303816000875af1158015612e38573d6000803e3d6000fd5b505050506040513d601f19601f82011682018060405250810190612e5c9190613741565b5060015460405163f305d71960e01b81526001600160a01b039091169063f305d719908390612eba908990879060009081907f00000000000000000000000000000000000000000000000000000000000000009042906004016139e1565b60606040518083038185885af1158015612ed8573d6000803e3d6000fd5b50505050506040513d601f19601f82011682018060405250810190612efd9190613aae565b5050505b86612f10576007890154612f16565b88600201545b925087612f238486613722565b612f2d91906139bf565b915087612f3a8488613722565b612f4491906139bf565b90508115613064576001546001600160a01b038087169163095ea7b39116612f6d856002613722565b6040516001600160e01b031960e085901b1681526001600160a01b03909216600483015260248201526044016020604051808303816000875af1158015612fb8573d6000803e3d6000fd5b505050506040513d601f19601f82011682018060405250810190612fdc9190613741565b5060015460055460405163f305d71960e01b81526001600160a01b039283169263f305d71992859261301d928b9289926000928392169042906004016139e1565b60606040518083038185885af115801561303b573d6000803e3d6000fd5b50505050506040513d601f19601f820116820180604052508101906130609190613aae565b5050505b50505050505b5050505050565b606061308084846000856130c0565b90505b9392505050565b600080836002015484600101546130a19190613a5f565b9150826004015483600301546130b79190613a5f565b90509250929050565b6060824710156131215760405162461bcd60e51b815260206004820152602660248201527f416464726573733a20696e73756666696369656e742062616c616e636520666f6044820152651c8818d85b1b60d21b60648201526084016106c1565b6001600160a01b0385163b6131785760405162461bcd60e51b815260206004820152601d60248201527f416464726573733a2063616c6c20746f206e6f6e2d636f6e747261637400000060448201526064016106c1565b600080866001600160a01b031685876040516131949190613b08565b60006040518083038185875af1925050503d80600081146131d1576040519150601f19603f3d011682016040523d82523d6000602084013e6131d6565b606091505b50915091506131e68282866131f1565b979650505050505050565b60608315613200575081613083565b8251156132105782518084602001fd5b8160405162461bcd60e51b81526004016106c19190613b24565b8260038101928215613258579160200282015b8281111561325857825182559160200191906001019061323d565b50613264929150613324565b5090565b8260058101928215613258579160200282018281111561325857825182559160200191906001019061323d565b828054828255906000526020600020908101928215613258579160200282015b828111156132585781546001600160a01b0319166001600160a01b038435161782556020909201916001909101906132b5565b60405180606001604052806003906020820280368337509192915050565b6040518060a001604052806005906020820280368337509192915050565b5b808211156132645760008155600101613325565b6001600160a01b03811681146115a657600080fd5b60006020828403121561336057600080fd5b813561308381613339565b60006020828403121561337d57600080fd5b5035919050565b6000806040838503121561339757600080fd5b50508035926020909101359150565b80151581146115a657600080fd5b6000602082840312156133c657600080fd5b8135613083816133a6565b806060810183101561208157600080fd5b8060a0810183101561208157600080fd5b80356133fe81613339565b919050565b60008083601f84011261341557600080fd5b50813567ffffffffffffffff81111561342d57600080fd5b6020830191508360208260051b850101111561344857600080fd5b9250929050565b60008060008060008060008060008060006102008c8e03121561347157600080fd5b8b359a506134828d60208e016133d1565b99506134918d60808e016133e2565b98506134a18d6101208e016133d1565b97506134b06101808d016133f3565b965067ffffffffffffffff806101a08e013511156134cd57600080fd5b6134de8e6101a08f01358f01613403565b90975095506101c08d01358110156134f557600080fd5b6135068e6101c08f01358f01613403565b90955093506101e08d013581101561351d57600080fd5b5061352f8d6101e08e01358e01613403565b81935080925050509295989b509295989b9093969950565b60008060008060008060006080888a03121561356257600080fd5b87359650602088013567ffffffffffffffff8082111561358157600080fd5b61358d8b838c01613403565b909850965060408a01359150808211156135a657600080fd5b6135b28b838c01613403565b909650945060608a01359150808211156135cb57600080fd5b506135d88a828b01613403565b989b979a50959850939692959293505050565b6101008101818460005b60038110156136145781518352602092830192909101906001016135f5565b505050606082018360005b600581101561363e57815183526020928301929091019060010161361f565b5050509392505050565b6020808252818101527f4f776e61626c653a2063616c6c6572206973206e6f7420746865206f776e6572604082015260600190565b600080600080600080600060e0888a03121561369857600080fd5b87516136a3816133a6565b80975050602088015195506040880151945060608801516136c381613339565b809450506080880151925060a0880151915060c08801516136e3816133a6565b8091505092959891949750929550565b60006020828403121561370557600080fd5b5051919050565b634e487b7160e01b600052601160045260246000fd5b600081600019048311821515161561373c5761373c61370c565b500290565b60006020828403121561375357600080fd5b8151613083816133a6565b6000815480845260208085019450836000528060002060005b8381101561379c5781546001600160a01b031687529582019560019182019101613777565b509495945050505050565b85815284602082015260a0604082015260006137c660a083018661375e565b6001600160a01b0394909416606083015250608001529392505050565b634e487b7160e01b600052604160045260246000fd5b6000602080838503121561380c57600080fd5b825167ffffffffffffffff8082111561382457600080fd5b818501915085601f83011261383857600080fd5b81518181111561384a5761384a6137e3565b8060051b604051601f19603f8301168101818110858211171561386f5761386f6137e3565b60405291825284820192508381018501918883111561388d57600080fd5b938501935b828510156138ab57845184529385019392850192613892565b98975050505050505050565b6000602082840312156138c957600080fd5b815161308381613339565b634e487b7160e01b600052603260045260246000fd5b600081518084526020808501945080840160005b8381101561379c5781516001600160a01b0316875295820195908201906001016138fe565b84815260806020820152600061393c60808301866138ea565b6001600160a01b03949094166040830152506060015292915050565b80516001600160701b03811681146133fe57600080fd5b60008060006060848603121561398457600080fd5b61398d84613958565b925061399b60208501613958565b9150604084015163ffffffff811681146139b457600080fd5b809150509250925092565b6000826139dc57634e487b7160e01b600052601260045260246000fd5b500490565b6001600160a01b039687168152602081019590955260408501939093526060840191909152909216608082015260a081019190915260c00190565b60008060408385031215613a2f57600080fd5b505080516020909101519092909150565b85815284602082015260a0604082015260006137c660a08301866138ea565b60008219821115613a7257613a7261370c565b500190565b600060ff821660ff811415613a8e57613a8e61370c565b60010192915050565b600082821015613aa957613aa961370c565b500390565b600080600060608486031215613ac357600080fd5b8351925060208401519150604084015190509250925092565b60005b83811015613af7578181015183820152602001613adf565b838111156116bb5750506000910152565b60008251613b1a818460208701613adc565b9190910192915050565b6020815260008251806020840152613b43816040850160208701613adc565b601f01601f1916919091016040019291505056fea2646970667358221220f6b22016523ce15290c5b937d5bef93fe093627546ae359a5381cdeb49871ce664736f6c634300080c0033","bytecodeSha1":"5aa3196b74b6f364d543211ca0121d7e8e7baac7","compiler":{"evm_version":"istanbul","optimizer":{"enabled":true,"runs":200},"version":"0.8.12+commit.f00d7308"},"contractName":"FeeDistributorV2","language":"Solidity","natspec":{"details":"use interface IFeeDistributor","kind":"dev","methods":{"checkPrice()":{"details":"get IDO price for NICE","notice":"Check that current Nice Price is above IDO"},"distribute(uint256)":{"notice":"external distribute. This is used for testing"},"enableTargetSearch(bool)":{"notice":"Toggle between enabling and disabling NICE target price Search"},"owner()":{"details":"Returns the address of the current owner."},"receiveFees(uint256,uint256)":{"details":"This function requires funds to be sent beforehand to this contract","notice":"Function that distributes fees to the respective flows"},"renounceOwnership()":{"details":"Leaves the contract without owner. It will not be possible to call `onlyOwner` functions anymore. Can only be called by the current owner. NOTE: Renouncing ownership will leave the contract without an owner, thereby removing any functionality that is only available to the owner."},"setBaseRouter(address)":{"details":"Requires the router to exist","notice":"Update the main router used to spread liquidity","params":{"_newRouter":"address of the router to migrate to"}},"setTeamWallet(address)":{"details":"requires address to be payable since it'll receive BNB(ETH) directly","notice":"Update the Marketing Wallet","params":{"_newTeamW":"address to send funds to"}},"transferOwnership(address)":{"details":"Transfers ownership of the contract to a new account (`newOwner`). Can only be called by the current owner."},"updateIdoTarget(uint256)":{"notice":"Update the Target Price to compare to for NICE buy back and burn only.","params":{"_price":"new Target price to attempt to reach"}},"updatePaths(uint256,address[],address[],address[])":{"notice":"Update the paths used for a specific pool","params":{"_path":"path of the token, if LP, tokens that comprise it, else route to ETH","_path1":"if LP, token0 path to ETH, else empty;","_path2":"if LP, token1 path to ETH, else empty;","id":"the Pool ID"}}},"version":1},"opcodes":"PUSH1 0x80 PUSH1 0x40 MSTORE PUSH1 0x4 CALLDATASIZE LT PUSH2 0x1C4 JUMPI PUSH1 0x0 CALLDATALOAD PUSH1 0xE0 SHR DUP1 PUSH4 0x7A254A41 GT PUSH2 0xF6 JUMPI DUP1 PUSH4 0xA562BDBA GT PUSH2 0x8F JUMPI DUP1 PUSH4 0xD85539C6 GT PUSH2 0x61 JUMPI DUP1 PUSH4 0xD85539C6 EQ PUSH2 0x617 JUMPI DUP1 PUSH4 0xF2FDE38B EQ PUSH2 0x637 JUMPI DUP1 PUSH4 0xF83D08BA EQ PUSH2 0x657 JUMPI DUP1 PUSH4 0xF8B70F03 EQ PUSH2 0x677 JUMPI STOP JUMPDEST DUP1 PUSH4 0xA562BDBA EQ PUSH2 0x593 JUMPI DUP1 PUSH4 0xBA13A572 EQ PUSH2 0x5B3 JUMPI DUP1 PUSH4 0xCD80FE0D EQ PUSH2 0x5D3 JUMPI DUP1 PUSH4 0xD5A06D4C EQ PUSH2 0x5E9 JUMPI STOP JUMPDEST DUP1 PUSH4 0x8DA5CB5B GT PUSH2 0xC8 JUMPI DUP1 PUSH4 0x8DA5CB5B EQ PUSH2 0x520 JUMPI DUP1 PUSH4 0x8FC3047D EQ PUSH2 0x53E JUMPI DUP1 PUSH4 0x91C05B0B EQ PUSH2 0x553 JUMPI DUP1 PUSH4 0x958BAC5F EQ PUSH2 0x573 JUMPI STOP JUMPDEST DUP1 PUSH4 0x7A254A41 EQ PUSH2 0x48C JUMPI DUP1 PUSH4 0x7CED15EF EQ PUSH2 0x4AC JUMPI DUP1 PUSH4 0x7D04FEFF EQ PUSH2 0x4CC JUMPI DUP1 PUSH4 0x85141A77 EQ PUSH2 0x4EC JUMPI STOP JUMPDEST DUP1 PUSH4 0x3843418D GT PUSH2 0x168 JUMPI DUP1 PUSH4 0x659F4BF9 GT PUSH2 0x13A JUMPI DUP1 PUSH4 0x659F4BF9 EQ PUSH2 0x417 JUMPI DUP1 PUSH4 0x67347C68 EQ PUSH2 0x437 JUMPI DUP1 PUSH4 0x6C7A8EE4 EQ PUSH2 0x457 JUMPI DUP1 PUSH4 0x715018A6 EQ PUSH2 0x477 JUMPI STOP JUMPDEST DUP1 PUSH4 0x3843418D EQ PUSH2 0x307 JUMPI DUP1 PUSH4 0x43F0A8E1 EQ PUSH2 0x3A3 JUMPI DUP1 PUSH4 0x4F348758 EQ PUSH2 0x3D7 JUMPI DUP1 PUSH4 0x59927044 EQ PUSH2 0x3F7 JUMPI STOP JUMPDEST DUP1 PUSH4 0x1525FF7D GT PUSH2 0x1A1 JUMPI DUP1 PUSH4 0x1525FF7D EQ PUSH2 0x26F JUMPI DUP1 PUSH4 0x1FC8BC5D EQ PUSH2 0x28F JUMPI DUP1 PUSH4 0x30926486 EQ PUSH2 0x2AF JUMPI DUP1 PUSH4 0x3410FE6E EQ PUSH2 0x2E3 JUMPI STOP JUMPDEST DUP1 PUSH4 0x75B42AB EQ PUSH2 0x1CD JUMPI DUP1 PUSH4 0xC657EB0 EQ PUSH2 0x20A JUMPI DUP1 PUSH4 0xFE344ED EQ PUSH2 0x23E JUMPI STOP JUMPDEST CALLDATASIZE PUSH2 0x1CB JUMPI STOP JUMPDEST STOP JUMPDEST CALLVALUE DUP1 ISZERO PUSH2 0x1D9 JUMPI PUSH1 0x0 DUP1 REVERT JUMPDEST POP PUSH1 0x2 SLOAD PUSH2 0x1ED SWAP1 PUSH1 0x1 PUSH1 0x1 PUSH1 0xA0 SHL SUB AND DUP2 JUMP JUMPDEST PUSH1 0x40 MLOAD PUSH1 0x1 PUSH1 0x1 PUSH1 0xA0 SHL SUB SWAP1 SWAP2 AND DUP2 MSTORE PUSH1 0x20 ADD JUMPDEST PUSH1 0x40 MLOAD DUP1 SWAP2 SUB SWAP1 RETURN JUMPDEST CALLVALUE DUP1 ISZERO PUSH2 0x216 JUMPI PUSH1 0x0 DUP1 REVERT JUMPDEST POP PUSH2 0x1ED PUSH32 0x0 DUP2 JUMP JUMPDEST CALLVALUE DUP1 ISZERO PUSH2 0x24A JUMPI PUSH1 0x0 DUP1 REVERT JUMPDEST POP PUSH1 0x6 SLOAD PUSH2 0x25F SWAP1 PUSH1 0x1 PUSH1 0xA0 SHL SWAP1 DIV PUSH1 0xFF AND DUP2 JUMP JUMPDEST PUSH1 0x40 MLOAD SWAP1 ISZERO ISZERO DUP2 MSTORE PUSH1 0x20 ADD PUSH2 0x201 JUMP JUMPDEST CALLVALUE DUP1 ISZERO PUSH2 0x27B JUMPI PUSH1 0x0 DUP1 REVERT JUMPDEST POP PUSH2 0x1CB PUSH2 0x28A CALLDATASIZE PUSH1 0x4 PUSH2 0x334E JUMP JUMPDEST PUSH2 0x697 JUMP JUMPDEST CALLVALUE DUP1 ISZERO PUSH2 0x29B JUMPI PUSH1 0x0 DUP1 REVERT JUMPDEST POP PUSH1 0x7 SLOAD PUSH2 0x1ED SWAP1 PUSH1 0x1 PUSH1 0x1 PUSH1 0xA0 SHL SUB AND DUP2 JUMP JUMPDEST CALLVALUE DUP1 ISZERO PUSH2 0x2BB JUMPI PUSH1 0x0 DUP1 REVERT JUMPDEST POP PUSH2 0x1ED PUSH32 0x0 DUP2 JUMP JUMPDEST CALLVALUE DUP1 ISZERO PUSH2 0x2EF JUMPI PUSH1 0x0 DUP1 REVERT JUMPDEST POP PUSH2 0x2F9 PUSH2 0x2710 DUP2 JUMP JUMPDEST PUSH1 0x40 MLOAD SWAP1 DUP2 MSTORE PUSH1 0x20 ADD PUSH2 0x201 JUMP JUMPDEST CALLVALUE DUP1 ISZERO PUSH2 0x313 JUMPI PUSH1 0x0 DUP1 REVERT JUMPDEST POP PUSH2 0x36A PUSH2 0x322 CALLDATASIZE PUSH1 0x4 PUSH2 0x336B JUMP JUMPDEST PUSH1 0x8 PUSH1 0x20 DUP2 SWAP1 MSTORE PUSH1 0x0 SWAP2 DUP3 MSTORE PUSH1 0x40 SWAP1 SWAP2 KECCAK256 ADD SLOAD PUSH1 0xFF DUP1 DUP3 AND SWAP2 PUSH2 0x100 DUP2 DIV DUP3 AND SWAP2 PUSH3 0x10000 DUP3 DIV DUP2 AND SWAP2 PUSH4 0x1000000 DUP2 DIV SWAP1 SWAP2 AND SWAP1 PUSH1 0x1 PUSH1 0x20 SHL SWAP1 DIV PUSH1 0x1 PUSH1 0x1 PUSH1 0xA0 SHL SUB AND DUP6 JUMP JUMPDEST PUSH1 0x40 DUP1 MLOAD SWAP6 ISZERO ISZERO DUP7 MSTORE SWAP4 ISZERO ISZERO PUSH1 0x20 DUP7 ADD MSTORE SWAP2 ISZERO ISZERO SWAP3 DUP5 ADD SWAP3 SWAP1 SWAP3 MSTORE SWAP1 ISZERO ISZERO PUSH1 0x60 DUP4 ADD MSTORE PUSH1 0x1 PUSH1 0x1 PUSH1 0xA0 SHL SUB AND PUSH1 0x80 DUP3 ADD MSTORE PUSH1 0xA0 ADD PUSH2 0x201 JUMP JUMPDEST CALLVALUE DUP1 ISZERO PUSH2 0x3AF JUMPI PUSH1 0x0 DUP1 REVERT JUMPDEST POP PUSH2 0x1ED PUSH32 0x0 DUP2 JUMP JUMPDEST CALLVALUE DUP1 ISZERO PUSH2 0x3E3 JUMPI PUSH1 0x0 DUP1 REVERT JUMPDEST POP PUSH2 0x1CB PUSH2 0x3F2 CALLDATASIZE PUSH1 0x4 PUSH2 0x3384 JUMP JUMPDEST PUSH2 0x762 JUMP JUMPDEST CALLVALUE DUP1 ISZERO PUSH2 0x403 JUMPI PUSH1 0x0 DUP1 REVERT JUMPDEST POP PUSH1 0x4 SLOAD PUSH2 0x1ED SWAP1 PUSH1 0x1 PUSH1 0x1 PUSH1 0xA0 SHL SUB AND DUP2 JUMP JUMPDEST CALLVALUE DUP1 ISZERO PUSH2 0x423 JUMPI PUSH1 0x0 DUP1 REVERT JUMPDEST POP PUSH2 0x1ED PUSH2 0x432 CALLDATASIZE PUSH1 0x4 PUSH2 0x3384 JUMP JUMPDEST PUSH2 0xD15 JUMP JUMPDEST CALLVALUE DUP1 ISZERO PUSH2 0x443 JUMPI PUSH1 0x0 DUP1 REVERT JUMPDEST POP PUSH2 0x1CB PUSH2 0x452 CALLDATASIZE PUSH1 0x4 PUSH2 0x33B4 JUMP JUMPDEST PUSH2 0xD4D JUMP JUMPDEST CALLVALUE DUP1 ISZERO PUSH2 0x463 JUMPI PUSH1 0x0 DUP1 REVERT JUMPDEST POP PUSH2 0x1CB PUSH2 0x472 CALLDATASIZE PUSH1 0x4 PUSH2 0x344F JUMP JUMPDEST PUSH2 0xE18 JUMP JUMPDEST CALLVALUE DUP1 ISZERO PUSH2 0x483 JUMPI PUSH1 0x0 DUP1 REVERT JUMPDEST POP PUSH2 0x1CB PUSH2 0x10EB JUMP JUMPDEST CALLVALUE DUP1 ISZERO PUSH2 0x498 JUMPI PUSH1 0x0 DUP1 REVERT JUMPDEST POP PUSH2 0x1ED PUSH2 0x4A7 CALLDATASIZE PUSH1 0x4 PUSH2 0x3384 JUMP JUMPDEST PUSH2 0x1121 JUMP JUMPDEST CALLVALUE DUP1 ISZERO PUSH2 0x4B8 JUMPI PUSH1 0x0 DUP1 REVERT JUMPDEST POP PUSH2 0x1CB PUSH2 0x4C7 CALLDATASIZE PUSH1 0x4 PUSH2 0x336B JUMP JUMPDEST PUSH2 0x113D JUMP JUMPDEST CALLVALUE DUP1 ISZERO PUSH2 0x4D8 JUMPI PUSH1 0x0 DUP1 REVERT JUMPDEST POP PUSH2 0x1ED PUSH2 0x4E7 CALLDATASIZE PUSH1 0x4 PUSH2 0x3384 JUMP JUMPDEST PUSH2 0x11DD JUMP JUMPDEST CALLVALUE DUP1 ISZERO PUSH2 0x4F8 JUMPI PUSH1 0x0 DUP1 REVERT JUMPDEST POP PUSH2 0x1ED PUSH32 0x0 DUP2 JUMP JUMPDEST CALLVALUE DUP1 ISZERO PUSH2 0x52C JUMPI PUSH1 0x0 DUP1 REVERT JUMPDEST POP PUSH1 0x0 SLOAD PUSH1 0x1 PUSH1 0x1 PUSH1 0xA0 SHL SUB AND PUSH2 0x1ED JUMP JUMPDEST CALLVALUE DUP1 ISZERO PUSH2 0x54A JUMPI PUSH1 0x0 DUP1 REVERT JUMPDEST POP PUSH2 0x25F PUSH2 0x11F9 JUMP JUMPDEST CALLVALUE DUP1 ISZERO PUSH2 0x55F JUMPI PUSH1 0x0 DUP1 REVERT JUMPDEST POP PUSH2 0x1CB PUSH2 0x56E CALLDATASIZE PUSH1 0x4 PUSH2 0x336B JUMP JUMPDEST PUSH2 0x12C8 JUMP JUMPDEST CALLVALUE DUP1 ISZERO PUSH2 0x57F JUMPI PUSH1 0x0 DUP1 REVERT JUMPDEST POP PUSH2 0x1CB PUSH2 0x58E CALLDATASIZE PUSH1 0x4 PUSH2 0x3547 JUMP JUMPDEST PUSH2 0x132B JUMP JUMPDEST CALLVALUE DUP1 ISZERO PUSH2 0x59F JUMPI PUSH1 0x0 DUP1 REVERT JUMPDEST POP PUSH1 0x1 SLOAD PUSH2 0x1ED SWAP1 PUSH1 0x1 PUSH1 0x1 PUSH1 0xA0 SHL SUB AND DUP2 JUMP JUMPDEST CALLVALUE DUP1 ISZERO PUSH2 0x5BF JUMPI PUSH1 0x0 DUP1 REVERT JUMPDEST POP PUSH1 0x6 SLOAD PUSH2 0x1ED SWAP1 PUSH1 0x1 PUSH1 0x1 PUSH1 0xA0 SHL SUB AND DUP2 JUMP JUMPDEST CALLVALUE DUP1 ISZERO PUSH2 0x5DF JUMPI PUSH1 0x0 DUP1 REVERT JUMPDEST POP PUSH2 0x2F9 PUSH1 0x3 SLOAD DUP2 JUMP JUMPDEST CALLVALUE DUP1 ISZERO PUSH2 0x5F5 JUMPI PUSH1 0x0 DUP1 REVERT JUMPDEST POP PUSH2 0x609 PUSH2 0x604 CALLDATASIZE PUSH1 0x4 PUSH2 0x336B JUMP JUMPDEST PUSH2 0x13AC JUMP JUMPDEST PUSH1 0x40 MLOAD PUSH2 0x201 SWAP3 SWAP2 SWAP1 PUSH2 0x35EB JUMP JUMPDEST CALLVALUE DUP1 ISZERO PUSH2 0x623 JUMPI PUSH1 0x0 DUP1 REVERT JUMPDEST POP PUSH2 0x1CB PUSH2 0x632 CALLDATASIZE PUSH1 0x4 PUSH2 0x334E JUMP JUMPDEST PUSH2 0x143B JUMP JUMPDEST CALLVALUE DUP1 ISZERO PUSH2 0x643 JUMPI PUSH1 0x0 DUP1 REVERT JUMPDEST POP PUSH2 0x1CB PUSH2 0x652 CALLDATASIZE PUSH1 0x4 PUSH2 0x334E JUMP JUMPDEST PUSH2 0x150E JUMP JUMPDEST CALLVALUE DUP1 ISZERO PUSH2 0x663 JUMPI PUSH1 0x0 DUP1 REVERT JUMPDEST POP PUSH1 0x5 SLOAD PUSH2 0x1ED SWAP1 PUSH1 0x1 PUSH1 0x1 PUSH1 0xA0 SHL SUB AND DUP2 JUMP JUMPDEST CALLVALUE DUP1 ISZERO PUSH2 0x683 JUMPI PUSH1 0x0 DUP1 REVERT JUMPDEST POP PUSH2 0x1CB PUSH2 0x692 CALLDATASIZE PUSH1 0x4 PUSH2 0x334E JUMP JUMPDEST PUSH2 0x15A9 JUMP JUMPDEST PUSH1 0x0 SLOAD PUSH1 0x1 PUSH1 0x1 PUSH1 0xA0 SHL SUB AND CALLER EQ PUSH2 0x6CA JUMPI PUSH1 0x40 MLOAD PUSH3 0x461BCD PUSH1 0xE5 SHL DUP2 MSTORE PUSH1 0x4 ADD PUSH2 0x6C1 SWAP1 PUSH2 0x3648 JUMP JUMPDEST PUSH1 0x40 MLOAD DUP1 SWAP2 SUB SWAP1 REVERT JUMPDEST PUSH1 0x1 PUSH1 0x1 PUSH1 0xA0 SHL SUB DUP2 AND PUSH2 0x70D JUMPI PUSH1 0x40 MLOAD PUSH3 0x461BCD PUSH1 0xE5 SHL DUP2 MSTORE PUSH1 0x20 PUSH1 0x4 DUP3 ADD MSTORE PUSH1 0xA PUSH1 0x24 DUP3 ADD MSTORE PUSH10 0x43616E7420706179203 PUSH1 0xB4 SHL PUSH1 0x44 DUP3 ADD MSTORE PUSH1 0x64 ADD PUSH2 0x6C1 JUMP JUMPDEST PUSH1 0x4 DUP1 SLOAD PUSH1 0x1 PUSH1 0x1 PUSH1 0xA0 SHL SUB NOT AND PUSH1 0x1 PUSH1 0x1 PUSH1 0xA0 SHL SUB DUP4 AND SWAP1 DUP2 OR SWAP1 SWAP2 SSTORE PUSH1 0x40 MLOAD SWAP1 DUP2 MSTORE PUSH32 0x88B8EDDA57AF64D7425B090E9E8D925C96D2CC1360AFDC15F0DA29752103E705 SWAP1 PUSH1 0x20 ADD JUMPDEST PUSH1 0x40 MLOAD DUP1 SWAP2 SUB SWAP1 LOG1 POP JUMP JUMPDEST PUSH1 0x7 SLOAD PUSH1 0x1 PUSH1 0x1 PUSH1 0xA0 SHL SUB AND CALLER EQ PUSH2 0x7A7 JUMPI PUSH1 0x40 MLOAD PUSH3 0x461BCD PUSH1 0xE5 SHL DUP2 MSTORE PUSH1 0x20 PUSH1 0x4 DUP3 ADD MSTORE PUSH1 0x8 PUSH1 0x24 DUP3 ADD MSTORE PUSH8 0x37B7363CA1B432B3 PUSH1 0xC1 SHL PUSH1 0x44 DUP3 ADD MSTORE PUSH1 0x64 ADD PUSH2 0x6C1 JUMP JUMPDEST PUSH1 0x0 DUP3 DUP2 MSTORE PUSH1 0x8 PUSH1 0x20 DUP2 SWAP1 MSTORE PUSH1 0x40 SWAP1 SWAP2 KECCAK256 SWAP1 DUP2 ADD SLOAD PUSH1 0xFF AND PUSH2 0x7F6 JUMPI PUSH1 0x40 MLOAD PUSH3 0x461BCD PUSH1 0xE5 SHL DUP2 MSTORE PUSH1 0x20 PUSH1 0x4 DUP3 ADD MSTORE PUSH1 0x8 PUSH1 0x24 DUP3 ADD MSTORE PUSH8 0x139BDD081A5B9A5D PUSH1 0xC2 SHL PUSH1 0x44 DUP3 ADD MSTORE PUSH1 0x64 ADD PUSH2 0x6C1 JUMP JUMPDEST PUSH1 0x7 SLOAD PUSH1 0x40 MLOAD PUSH4 0x1526FE27 PUSH1 0xE0 SHL DUP2 MSTORE PUSH1 0x4 DUP2 ADD DUP6 SWAP1 MSTORE PUSH1 0x0 SWAP2 DUP3 SWAP2 PUSH1 0x1 PUSH1 0x1 PUSH1 0xA0 SHL SUB SWAP1 SWAP2 AND SWAP1 PUSH4 0x1526FE27 SWAP1 PUSH1 0x24 ADD PUSH1 0xE0 PUSH1 0x40 MLOAD DUP1 DUP4 SUB DUP2 DUP7 GAS STATICCALL ISZERO DUP1 ISZERO PUSH2 0x844 JUMPI RETURNDATASIZE PUSH1 0x0 DUP1 RETURNDATACOPY RETURNDATASIZE PUSH1 0x0 REVERT JUMPDEST POP POP POP POP PUSH1 0x40 MLOAD RETURNDATASIZE PUSH1 0x1F NOT PUSH1 0x1F DUP3 ADD AND DUP3 ADD DUP1 PUSH1 0x40 MSTORE POP DUP2 ADD SWAP1 PUSH2 0x868 SWAP2 SWAP1 PUSH2 0x367D JUMP JUMPDEST PUSH1 0x7 SLOAD SWAP4 SWAP9 POP SWAP7 POP PUSH2 0x891 SWAP6 POP POP PUSH1 0x1 PUSH1 0x1 PUSH1 0xA0 SHL SUB DUP1 DUP9 AND SWAP5 POP SWAP1 SWAP2 AND SWAP2 POP ADDRESS SWAP1 POP DUP8 PUSH2 0x1661 JUMP JUMPDEST PUSH1 0x40 MLOAD PUSH4 0x70A08231 PUSH1 0xE0 SHL DUP2 MSTORE ADDRESS PUSH1 0x4 DUP3 ADD MSTORE DUP5 SWAP1 PUSH1 0x1 PUSH1 0x1 PUSH1 0xA0 SHL SUB DUP5 AND SWAP1 PUSH4 0x70A08231 SWAP1 PUSH1 0x24 ADD PUSH1 0x20 PUSH1 0x40 MLOAD DUP1 DUP4 SUB DUP2 DUP7 GAS STATICCALL ISZERO DUP1 ISZERO PUSH2 0x8D7 JUMPI RETURNDATASIZE PUSH1 0x0 DUP1 RETURNDATACOPY RETURNDATASIZE PUSH1 0x0 REVERT JUMPDEST POP POP POP POP PUSH1 0x40 MLOAD RETURNDATASIZE PUSH1 0x1F NOT PUSH1 0x1F DUP3 ADD AND DUP3 ADD DUP1 PUSH1 0x40 MSTORE POP DUP2 ADD SWAP1 PUSH2 0x8FB SWAP2 SWAP1 PUSH2 0x36F3 JUMP JUMPDEST LT ISZERO PUSH2 0x936 JUMPI PUSH1 0x40 MLOAD PUSH3 0x461BCD PUSH1 0xE5 SHL DUP2 MSTORE PUSH1 0x20 PUSH1 0x4 DUP3 ADD MSTORE PUSH1 0xA PUSH1 0x24 DUP3 ADD MSTORE PUSH10 0x73656E642066756E6473 PUSH1 0xB0 SHL PUSH1 0x44 DUP3 ADD MSTORE PUSH1 0x64 ADD PUSH2 0x6C1 JUMP JUMPDEST PUSH1 0x8 DUP4 ADD SLOAD PUSH1 0x1 PUSH1 0x1 PUSH1 0xA0 SHL SUB DUP1 DUP5 AND SWAP2 PUSH4 0x95EA7B3 SWAP2 PUSH1 0x1 PUSH1 0x20 SHL SWAP1 SWAP2 DIV AND PUSH2 0x961 DUP8 PUSH1 0x2 PUSH2 0x3722 JUMP JUMPDEST PUSH1 0x40 MLOAD PUSH1 0x1 PUSH1 0x1 PUSH1 0xE0 SHL SUB NOT PUSH1 0xE0 DUP6 SWAP1 SHL AND DUP2 MSTORE PUSH1 0x1 PUSH1 0x1 PUSH1 0xA0 SHL SUB SWAP1 SWAP3 AND PUSH1 0x4 DUP4 ADD MSTORE PUSH1 0x24 DUP3 ADD MSTORE PUSH1 0x44 ADD PUSH1 0x20 PUSH1 0x40 MLOAD DUP1 DUP4 SUB DUP2 PUSH1 0x0 DUP8 GAS CALL ISZERO DUP1 ISZERO PUSH2 0x9AC JUMPI RETURNDATASIZE PUSH1 0x0 DUP1 RETURNDATACOPY RETURNDATASIZE PUSH1 0x0 REVERT JUMPDEST POP POP POP POP PUSH1 0x40 MLOAD RETURNDATASIZE PUSH1 0x1F NOT PUSH1 0x1F DUP3 ADD AND DUP3 ADD DUP1 PUSH1 0x40 MSTORE POP DUP2 ADD SWAP1 PUSH2 0x9D0 SWAP2 SWAP1 PUSH2 0x3741 JUMP JUMPDEST POP DUP1 ISZERO PUSH2 0x9E7 JUMPI PUSH2 0x9E1 DUP6 DUP6 PUSH2 0x16C1 JUMP JUMPDEST POP PUSH2 0xB15 JUMP JUMPDEST PUSH1 0x8 DUP4 ADD SLOAD PUSH2 0x100 SWAP1 DIV PUSH1 0xFF AND ISZERO PUSH2 0xA7E JUMPI PUSH1 0x8 DUP4 ADD SLOAD PUSH1 0x0 DUP7 DUP2 MSTORE PUSH1 0x9 PUSH1 0x20 MSTORE PUSH1 0x40 SWAP1 DUP2 SWAP1 KECCAK256 SWAP1 MLOAD PUSH4 0x791AC947 PUSH1 0xE0 SHL DUP2 MSTORE PUSH1 0x1 PUSH1 0x20 SHL SWAP1 SWAP3 DIV PUSH1 0x1 PUSH1 0x1 PUSH1 0xA0 SHL SUB AND SWAP2 PUSH4 0x791AC947 SWAP2 PUSH2 0xA47 SWAP2 DUP9 SWAP2 PUSH1 0x1 SWAP2 ADDRESS SWAP1 TIMESTAMP SWAP1 PUSH1 0x4 ADD PUSH2 0x37A7 JUMP JUMPDEST PUSH1 0x0 PUSH1 0x40 MLOAD DUP1 DUP4 SUB DUP2 PUSH1 0x0 DUP8 DUP1 EXTCODESIZE ISZERO DUP1 ISZERO PUSH2 0xA61 JUMPI PUSH1 0x0 DUP1 REVERT JUMPDEST POP GAS CALL ISZERO DUP1 ISZERO PUSH2 0xA75 JUMPI RETURNDATASIZE PUSH1 0x0 DUP1 RETURNDATACOPY RETURNDATASIZE PUSH1 0x0 REVERT JUMPDEST POP POP POP POP PUSH2 0xB15 JUMP JUMPDEST PUSH1 0x8 DUP4 ADD SLOAD PUSH1 0x0 DUP7 DUP2 MSTORE PUSH1 0x9 PUSH1 0x20 MSTORE PUSH1 0x40 SWAP1 DUP2 SWAP1 KECCAK256 SWAP1 MLOAD PUSH4 0x18CBAFE5 PUSH1 0xE0 SHL DUP2 MSTORE PUSH1 0x1 PUSH1 0x20 SHL SWAP1 SWAP3 DIV PUSH1 0x1 PUSH1 0x1 PUSH1 0xA0 SHL SUB AND SWAP2 PUSH4 0x18CBAFE5 SWAP2 PUSH2 0xACC SWAP2 DUP9 SWAP2 PUSH1 0x1 SWAP2 ADDRESS SWAP1 TIMESTAMP SWAP1 PUSH1 0x4 ADD PUSH2 0x37A7 JUMP JUMPDEST PUSH1 0x0 PUSH1 0x40 MLOAD DUP1 DUP4 SUB DUP2 PUSH1 0x0 DUP8 GAS CALL ISZERO DUP1 ISZERO PUSH2 0xAEB JUMPI RETURNDATASIZE PUSH1 0x0 DUP1 RETURNDATACOPY RETURNDATASIZE PUSH1 0x0 REVERT JUMPDEST POP POP POP POP PUSH1 0x40 MLOAD RETURNDATASIZE PUSH1 0x0 DUP3 RETURNDATACOPY PUSH1 0x1F RETURNDATASIZE SWAP1 DUP2 ADD PUSH1 0x1F NOT AND DUP3 ADD PUSH1 0x40 MSTORE PUSH2 0xB13 SWAP2 SWAP1 DUP2 ADD SWAP1 PUSH2 0x37F9 JUMP JUMPDEST POP JUMPDEST PUSH1 0x6 SLOAD PUSH1 0x1 PUSH1 0xA0 SHL SWAP1 DIV PUSH1 0xFF AND DUP1 ISZERO PUSH2 0xB31 JUMPI POP PUSH2 0xB31 PUSH2 0x11F9 JUMP JUMPDEST ISZERO PUSH2 0xCC4 JUMPI PUSH1 0x40 DUP1 MLOAD PUSH1 0x2 DUP1 DUP3 MSTORE PUSH1 0x60 DUP3 ADD DUP4 MSTORE SELFBALANCE SWAP3 PUSH1 0x0 SWAP3 SWAP2 SWAP1 PUSH1 0x20 DUP4 ADD SWAP1 DUP1 CALLDATASIZE DUP4 CALLDATACOPY POP POP PUSH1 0x1 SLOAD PUSH1 0x40 DUP1 MLOAD PUSH4 0x15AB88C9 PUSH1 0xE3 SHL DUP2 MSTORE SWAP1 MLOAD SWAP4 SWAP5 POP PUSH1 0x1 PUSH1 0x1 PUSH1 0xA0 SHL SUB SWAP1 SWAP2 AND SWAP3 PUSH4 0xAD5C4648 SWAP3 POP PUSH1 0x4 DUP1 DUP4 ADD SWAP3 PUSH1 0x20 SWAP3 SWAP2 SWAP1 DUP3 SWAP1 SUB ADD DUP2 DUP7 GAS STATICCALL ISZERO DUP1 ISZERO PUSH2 0xBA4 JUMPI RETURNDATASIZE PUSH1 0x0 DUP1 RETURNDATACOPY RETURNDATASIZE PUSH1 0x0 REVERT JUMPDEST POP POP POP POP PUSH1 0x40 MLOAD RETURNDATASIZE PUSH1 0x1F NOT PUSH1 0x1F DUP3 ADD AND DUP3 ADD DUP1 PUSH1 0x40 MSTORE POP DUP2 ADD SWAP1 PUSH2 0xBC8 SWAP2 SWAP1 PUSH2 0x38B7 JUMP JUMPDEST DUP2 PUSH1 0x0 DUP2 MLOAD DUP2 LT PUSH2 0xBDB JUMPI PUSH2 0xBDB PUSH2 0x38D4 JUMP JUMPDEST PUSH1 0x20 MUL PUSH1 0x20 ADD ADD SWAP1 PUSH1 0x1 PUSH1 0x1 PUSH1 0xA0 SHL SUB AND SWAP1 DUP2 PUSH1 0x1 PUSH1 0x1 PUSH1 0xA0 SHL SUB AND DUP2 MSTORE POP POP PUSH32 0x0 DUP2 PUSH1 0x1 DUP2 MLOAD DUP2 LT PUSH2 0xC2F JUMPI PUSH2 0xC2F PUSH2 0x38D4 JUMP JUMPDEST PUSH1 0x1 PUSH1 0x1 PUSH1 0xA0 SHL SUB SWAP3 DUP4 AND PUSH1 0x20 SWAP2 DUP3 MUL SWAP3 SWAP1 SWAP3 ADD ADD MSTORE PUSH1 0x1 SLOAD PUSH1 0x40 MLOAD PUSH4 0x7FF36AB5 PUSH1 0xE0 SHL DUP2 MSTORE SWAP2 AND SWAP1 PUSH4 0x7FF36AB5 SWAP1 DUP5 SWAP1 PUSH2 0xC75 SWAP1 PUSH1 0x0 SWAP1 DUP7 SWAP1 DUP3 SWAP1 TIMESTAMP SWAP1 PUSH1 0x4 ADD PUSH2 0x3923 JUMP JUMPDEST PUSH1 0x0 PUSH1 0x40 MLOAD DUP1 DUP4 SUB DUP2 DUP6 DUP9 GAS CALL ISZERO DUP1 ISZERO PUSH2 0xC93 JUMPI RETURNDATASIZE PUSH1 0x0 DUP1 RETURNDATACOPY RETURNDATASIZE PUSH1 0x0 REVERT JUMPDEST POP POP POP POP POP PUSH1 0x40 MLOAD RETURNDATASIZE PUSH1 0x0 DUP3 RETURNDATACOPY PUSH1 0x1F RETURNDATASIZE SWAP1 DUP2 ADD PUSH1 0x1F NOT AND DUP3 ADD PUSH1 0x40 MSTORE PUSH2 0xCBC SWAP2 SWAP1 DUP2 ADD SWAP1 PUSH2 0x37F9 JUMP JUMPDEST POP POP POP PUSH2 0xCCD JUMP JUMPDEST PUSH2 0xCCD DUP4 PUSH2 0x2087 JUMP JUMPDEST PUSH1 0x40 DUP1 MLOAD DUP6 DUP2 MSTORE PUSH1 0x1 PUSH1 0x1 PUSH1 0xA0 SHL SUB DUP5 AND PUSH1 0x20 DUP3 ADD MSTORE PUSH32 0x195B26CED269C6DA9F9A06D404CBA065A0149C0C189719E0384E1BEB79659DA0 SWAP2 ADD PUSH1 0x40 MLOAD DUP1 SWAP2 SUB SWAP1 LOG1 POP POP POP POP POP JUMP JUMPDEST PUSH1 0xA PUSH1 0x20 MSTORE DUP2 PUSH1 0x0 MSTORE PUSH1 0x40 PUSH1 0x0 KECCAK256 DUP2 DUP2 SLOAD DUP2 LT PUSH2 0xD31 JUMPI PUSH1 0x0 DUP1 REVERT JUMPDEST PUSH1 0x0 SWAP2 DUP3 MSTORE PUSH1 0x20 SWAP1 SWAP2 KECCAK256 ADD SLOAD PUSH1 0x1 PUSH1 0x1 PUSH1 0xA0 SHL SUB AND SWAP2 POP DUP3 SWAP1 POP JUMP JUMPDEST PUSH1 0x0 SLOAD PUSH1 0x1 PUSH1 0x1 PUSH1 0xA0 SHL SUB AND CALLER EQ PUSH2 0xD77 JUMPI PUSH1 0x40 MLOAD PUSH3 0x461BCD PUSH1 0xE5 SHL DUP2 MSTORE PUSH1 0x4 ADD PUSH2 0x6C1 SWAP1 PUSH2 0x3648 JUMP JUMPDEST PUSH1 0x6 SLOAD PUSH1 0xFF PUSH1 0x1 PUSH1 0xA0 SHL SWAP1 SWAP2 DIV AND ISZERO ISZERO DUP2 ISZERO ISZERO EQ ISZERO PUSH2 0xDCB JUMPI PUSH1 0x40 MLOAD PUSH3 0x461BCD PUSH1 0xE5 SHL DUP2 MSTORE PUSH1 0x20 PUSH1 0x4 DUP3 ADD MSTORE PUSH1 0x10 PUSH1 0x24 DUP3 ADD MSTORE PUSH16 0x416C726561647920696E207374617465 PUSH1 0x80 SHL PUSH1 0x44 DUP3 ADD MSTORE PUSH1 0x64 ADD PUSH2 0x6C1 JUMP JUMPDEST PUSH1 0x6 DUP1 SLOAD DUP3 ISZERO ISZERO PUSH1 0x1 PUSH1 0xA0 SHL MUL PUSH1 0xFF PUSH1 0xA0 SHL NOT SWAP1 SWAP2 AND OR SWAP1 SSTORE PUSH1 0x40 MLOAD PUSH32 0x7D703B166159E7B2E16B6550390CFDC4786DDDF83C504AA32647E1DA9127F226 SWAP1 PUSH2 0x757 SWAP1 DUP4 ISZERO ISZERO DUP2 MSTORE PUSH1 0x20 ADD SWAP1 JUMP JUMPDEST PUSH1 0x0 SLOAD PUSH1 0x1 PUSH1 0x1 PUSH1 0xA0 SHL SUB AND CALLER EQ PUSH2 0xE42 JUMPI PUSH1 0x40 MLOAD PUSH3 0x461BCD PUSH1 0xE5 SHL DUP2 MSTORE PUSH1 0x4 ADD PUSH2 0x6C1 SWAP1 PUSH2 0x3648 JUMP JUMPDEST PUSH2 0x2710 PUSH2 0xE4F DUP12 DUP12 PUSH2 0x2594 JUMP JUMPDEST GT ISZERO PUSH2 0xE9D JUMPI PUSH1 0x40 MLOAD PUSH3 0x461BCD PUSH1 0xE5 SHL DUP2 MSTORE PUSH1 0x20 PUSH1 0x4 DUP3 ADD MSTORE PUSH1 0x1A PUSH1 0x24 DUP3 ADD MSTORE PUSH32 0x496E636F72726563742046656520646973747269627574696F6E000000000000 PUSH1 0x44 DUP3 ADD MSTORE PUSH1 0x64 ADD PUSH2 0x6C1 JUMP JUMPDEST PUSH1 0x1 PUSH1 0x1 PUSH1 0xA0 SHL SUB DUP8 AND PUSH2 0xEE6 JUMPI PUSH1 0x40 MLOAD PUSH3 0x461BCD PUSH1 0xE5 SHL DUP2 MSTORE PUSH1 0x20 PUSH1 0x4 DUP3 ADD MSTORE PUSH1 0x10 PUSH1 0x24 DUP3 ADD MSTORE PUSH16 0x24B731B7B93932B1BA102937BABA32B9 PUSH1 0x81 SHL PUSH1 0x44 DUP3 ADD MSTORE PUSH1 0x64 ADD PUSH2 0x6C1 JUMP JUMPDEST DUP5 PUSH2 0xF29 JUMPI PUSH1 0x40 MLOAD PUSH3 0x461BCD PUSH1 0xE5 SHL DUP2 MSTORE PUSH1 0x20 PUSH1 0x4 DUP3 ADD MSTORE PUSH1 0x13 PUSH1 0x24 DUP3 ADD MSTORE PUSH19 0x6E6565642061207061746820746F2062617365 PUSH1 0x68 SHL PUSH1 0x44 DUP3 ADD MSTORE PUSH1 0x64 ADD PUSH2 0x6C1 JUMP JUMPDEST PUSH1 0x40 DUP1 MLOAD PUSH2 0x140 DUP2 ADD SWAP1 SWAP2 MSTORE DUP1 PUSH1 0xE0 DUP2 ADD DUP13 PUSH1 0x3 DUP3 DUP3 PUSH1 0x60 DUP1 DUP3 DUP5 CALLDATACOPY PUSH1 0x0 SWAP3 ADD SWAP2 SWAP1 SWAP2 MSTORE POP POP POP DUP2 MSTORE PUSH1 0x40 DUP1 MLOAD PUSH1 0xA0 DUP2 DUP2 ADD SWAP1 SWAP3 MSTORE PUSH1 0x20 SWAP1 SWAP3 ADD SWAP2 SWAP1 DUP13 SWAP1 PUSH1 0x5 SWAP1 DUP4 SWAP1 DUP4 SWAP1 DUP1 DUP3 DUP5 CALLDATACOPY PUSH1 0x0 SWAP3 ADD SWAP2 SWAP1 SWAP2 MSTORE POP POP POP DUP2 MSTORE PUSH1 0x1 PUSH1 0x20 DUP1 DUP4 ADD SWAP2 SWAP1 SWAP2 MSTORE PUSH1 0x40 SWAP1 SWAP2 ADD SWAP1 PUSH2 0xF9C SWAP1 DUP12 ADD DUP12 PUSH2 0x33B4 JUMP JUMPDEST ISZERO ISZERO DUP2 MSTORE PUSH1 0x20 SWAP1 DUP2 ADD SWAP1 PUSH2 0xFB6 SWAP1 PUSH1 0x40 DUP13 ADD SWAP1 DUP13 ADD PUSH2 0x33B4 JUMP JUMPDEST ISZERO ISZERO DUP2 MSTORE PUSH1 0x20 ADD PUSH2 0xFCD PUSH1 0x60 DUP12 ADD PUSH1 0x40 DUP13 ADD PUSH2 0x33B4 JUMP JUMPDEST ISZERO ISZERO DUP2 MSTORE PUSH1 0x1 PUSH1 0x1 PUSH1 0xA0 SHL SUB DUP10 AND PUSH1 0x20 SWAP2 DUP3 ADD MSTORE PUSH1 0x0 DUP14 DUP2 MSTORE PUSH1 0x8 SWAP1 SWAP2 MSTORE PUSH1 0x40 SWAP1 KECCAK256 DUP2 MLOAD PUSH2 0xFFE SWAP1 DUP3 SWAP1 PUSH1 0x3 PUSH2 0x322A JUMP JUMPDEST POP PUSH1 0x20 DUP3 ADD MLOAD PUSH2 0x1014 SWAP1 PUSH1 0x3 DUP4 ADD SWAP1 PUSH1 0x5 PUSH2 0x3268 JUMP JUMPDEST POP PUSH1 0x40 DUP3 ADD MLOAD PUSH1 0x8 SWAP1 SWAP2 ADD DUP1 SLOAD PUSH1 0x60 DUP5 ADD MLOAD PUSH1 0x80 DUP6 ADD MLOAD PUSH1 0xA0 DUP7 ADD MLOAD PUSH1 0xC0 SWAP1 SWAP7 ADD MLOAD PUSH1 0x1 PUSH1 0x1 PUSH1 0xA0 SHL SUB AND PUSH1 0x1 PUSH1 0x20 SHL MUL PUSH5 0x100000000 PUSH1 0x1 PUSH1 0xC0 SHL SUB NOT SWAP7 ISZERO ISZERO PUSH4 0x1000000 MUL PUSH4 0xFF000000 NOT SWAP3 ISZERO ISZERO PUSH3 0x10000 MUL SWAP3 SWAP1 SWAP3 AND PUSH4 0xFFFF0000 NOT SWAP4 ISZERO ISZERO PUSH2 0x100 MUL PUSH2 0xFF00 NOT SWAP8 ISZERO ISZERO SWAP8 SWAP1 SWAP8 AND PUSH2 0xFFFF NOT SWAP1 SWAP6 AND SWAP5 SWAP1 SWAP5 OR SWAP6 SWAP1 SWAP6 OR SWAP2 SWAP1 SWAP2 AND SWAP2 SWAP1 SWAP2 OR OR SWAP3 SWAP1 SWAP3 AND OR SWAP1 SSTORE PUSH2 0x10B3 DUP12 DUP8 DUP8 DUP8 DUP8 DUP8 DUP8 PUSH2 0x132B JUMP JUMPDEST PUSH1 0x40 MLOAD DUP12 SWAP1 PUSH32 0xF7EB02141AD38EBC5B61E51E5BB0E913CEA227B9DFC94EA034FB39A9F5FE809F SWAP1 PUSH1 0x0 SWAP1 LOG2 POP POP POP POP POP POP POP POP POP POP POP JUMP JUMPDEST PUSH1 0x0 SLOAD PUSH1 0x1 PUSH1 0x1 PUSH1 0xA0 SHL SUB AND CALLER EQ PUSH2 0x1115 JUMPI PUSH1 0x40 MLOAD PUSH3 0x461BCD PUSH1 0xE5 SHL DUP2 MSTORE PUSH1 0x4 ADD PUSH2 0x6C1 SWAP1 PUSH2 0x3648 JUMP JUMPDEST PUSH2 0x111F PUSH1 0x0 PUSH2 0x2611 JUMP JUMPDEST JUMP JUMPDEST PUSH1 0x9 PUSH1 0x20 MSTORE DUP2 PUSH1 0x0 MSTORE PUSH1 0x40 PUSH1 0x0 KECCAK256 DUP2 DUP2 SLOAD DUP2 LT PUSH2 0xD31 JUMPI PUSH1 0x0 DUP1 REVERT JUMPDEST PUSH1 0x0 SLOAD PUSH1 0x1 PUSH1 0x1 PUSH1 0xA0 SHL SUB AND CALLER EQ PUSH2 0x1167 JUMPI PUSH1 0x40 MLOAD PUSH3 0x461BCD PUSH1 0xE5 SHL DUP2 MSTORE PUSH1 0x4 ADD PUSH2 0x6C1 SWAP1 PUSH2 0x3648 JUMP JUMPDEST PUSH1 0x0 DUP2 GT PUSH2 0x11A8 JUMPI PUSH1 0x40 MLOAD PUSH3 0x461BCD PUSH1 0xE5 SHL DUP2 MSTORE PUSH1 0x20 PUSH1 0x4 DUP3 ADD MSTORE PUSH1 0xE PUSH1 0x24 DUP3 ADD MSTORE PUSH14 0x125B9D985B1A59081D185C99D95D PUSH1 0x92 SHL PUSH1 0x44 DUP3 ADD MSTORE PUSH1 0x64 ADD PUSH2 0x6C1 JUMP JUMPDEST PUSH1 0x3 DUP2 SWAP1 SSTORE PUSH1 0x40 MLOAD DUP2 DUP2 MSTORE PUSH32 0x145CC1D669B07469E4051F322247BE4857EC7E59AE7DCD6E88057C181424D858 SWAP1 PUSH1 0x20 ADD PUSH2 0x757 JUMP JUMPDEST PUSH1 0xB PUSH1 0x20 MSTORE DUP2 PUSH1 0x0 MSTORE PUSH1 0x40 PUSH1 0x0 KECCAK256 DUP2 DUP2 SLOAD DUP2 LT PUSH2 0xD31 JUMPI PUSH1 0x0 DUP1 REVERT JUMPDEST PUSH1 0x0 DUP1 PUSH1 0x0 PUSH1 0x2 PUSH1 0x0 SWAP1 SLOAD SWAP1 PUSH2 0x100 EXP SWAP1 DIV PUSH1 0x1 PUSH1 0x1 PUSH1 0xA0 SHL SUB AND PUSH1 0x1 PUSH1 0x1 PUSH1 0xA0 SHL SUB AND PUSH4 0x902F1AC PUSH1 0x40 MLOAD DUP2 PUSH4 0xFFFFFFFF AND PUSH1 0xE0 SHL DUP2 MSTORE PUSH1 0x4 ADD PUSH1 0x60 PUSH1 0x40 MLOAD DUP1 DUP4 SUB DUP2 DUP7 GAS STATICCALL ISZERO DUP1 ISZERO PUSH2 0x1251 JUMPI RETURNDATASIZE PUSH1 0x0 DUP1 RETURNDATACOPY RETURNDATASIZE PUSH1 0x0 REVERT JUMPDEST POP POP POP POP PUSH1 0x40 MLOAD RETURNDATASIZE PUSH1 0x1F NOT PUSH1 0x1F DUP3 ADD AND DUP3 ADD DUP1 PUSH1 0x40 MSTORE POP DUP2 ADD SWAP1 PUSH2 0x1275 SWAP2 SWAP1 PUSH2 0x396F JUMP JUMPDEST POP PUSH1 0x1 PUSH1 0x1 PUSH1 0x70 SHL SUB AND SWAP2 POP PUSH1 0x1 PUSH1 0x1 PUSH1 0x70 SHL SUB AND SWAP2 POP PUSH1 0x0 DUP2 GT PUSH2 0x129B JUMPI PUSH1 0x1 PUSH2 0x129D JUMP JUMPDEST DUP1 JUMPDEST PUSH1 0x3 SLOAD SWAP1 SWAP2 POP DUP2 PUSH2 0x12B6 DUP5 PUSH8 0xDE0B6B3A7640000 PUSH2 0x3722 JUMP JUMPDEST PUSH2 0x12C0 SWAP2 SWAP1 PUSH2 0x39BF JUMP JUMPDEST LT SWAP3 POP POP POP SWAP1 JUMP JUMPDEST PUSH1 0x0 DUP2 DUP2 MSTORE PUSH1 0x8 PUSH1 0x20 DUP2 SWAP1 MSTORE PUSH1 0x40 SWAP1 SWAP2 KECCAK256 SWAP1 DUP2 ADD SLOAD PUSH1 0xFF AND PUSH2 0x131E JUMPI PUSH1 0x40 MLOAD PUSH3 0x461BCD PUSH1 0xE5 SHL DUP2 MSTORE PUSH1 0x20 PUSH1 0x4 DUP3 ADD MSTORE PUSH1 0xF PUSH1 0x24 DUP3 ADD MSTORE PUSH15 0x139BDD081A5B9A5D1A585B1A5E9959 PUSH1 0x8A SHL PUSH1 0x44 DUP3 ADD MSTORE PUSH1 0x64 ADD PUSH2 0x6C1 JUMP JUMPDEST PUSH2 0x1327 DUP2 PUSH2 0x2087 JUMP JUMPDEST POP POP JUMP JUMPDEST PUSH1 0x0 SLOAD PUSH1 0x1 PUSH1 0x1 PUSH1 0xA0 SHL SUB AND CALLER EQ PUSH2 0x1355 JUMPI PUSH1 0x40 MLOAD PUSH3 0x461BCD PUSH1 0xE5 SHL DUP2 MSTORE PUSH1 0x4 ADD PUSH2 0x6C1 SWAP1 PUSH2 0x3648 JUMP JUMPDEST PUSH1 0x0 DUP8 DUP2 MSTORE PUSH1 0x9 PUSH1 0x20 MSTORE PUSH1 0x40 SWAP1 KECCAK256 PUSH2 0x136E SWAP1 DUP8 DUP8 PUSH2 0x3295 JUMP JUMPDEST POP PUSH1 0x0 DUP8 DUP2 MSTORE PUSH1 0xA PUSH1 0x20 MSTORE PUSH1 0x40 SWAP1 KECCAK256 PUSH2 0x1388 SWAP1 DUP6 DUP6 PUSH2 0x3295 JUMP JUMPDEST POP PUSH1 0x0 DUP8 DUP2 MSTORE PUSH1 0xB PUSH1 0x20 MSTORE PUSH1 0x40 SWAP1 KECCAK256 PUSH2 0x13A2 SWAP1 DUP4 DUP4 PUSH2 0x3295 JUMP JUMPDEST POP POP POP POP POP POP POP POP JUMP JUMPDEST PUSH2 0x13B4 PUSH2 0x32E8 JUMP JUMPDEST PUSH2 0x13BC PUSH2 0x3306 JUMP JUMPDEST PUSH1 0x0 DUP4 DUP2 MSTORE PUSH1 0x8 PUSH1 0x20 MSTORE PUSH1 0x40 SWAP1 DUP2 SWAP1 KECCAK256 DUP2 MLOAD PUSH1 0x60 DUP2 ADD SWAP3 DUP4 SWAP1 MSTORE SWAP2 PUSH1 0x3 SWAP1 DUP3 DUP5 JUMPDEST DUP2 SLOAD DUP2 MSTORE PUSH1 0x20 ADD SWAP1 PUSH1 0x1 ADD SWAP1 DUP1 DUP4 GT PUSH2 0x13DD JUMPI POP POP POP PUSH1 0x0 DUP7 DUP2 MSTORE PUSH1 0x8 PUSH1 0x20 MSTORE PUSH1 0x40 SWAP1 DUP2 SWAP1 KECCAK256 DUP2 MLOAD PUSH1 0xA0 DUP2 ADD SWAP3 DUP4 SWAP1 MSTORE SWAP5 SWAP7 POP PUSH1 0x3 ADD SWAP3 POP PUSH1 0x5 SWAP2 POP DUP3 DUP5 JUMPDEST DUP2 SLOAD DUP2 MSTORE PUSH1 0x20 ADD SWAP1 PUSH1 0x1 ADD SWAP1 DUP1 DUP4 GT PUSH2 0x141C JUMPI POP POP POP POP POP SWAP1 POP SWAP2 POP SWAP2 JUMP JUMPDEST PUSH1 0x0 SLOAD PUSH1 0x1 PUSH1 0x1 PUSH1 0xA0 SHL SUB AND CALLER EQ PUSH2 0x1465 JUMPI PUSH1 0x40 MLOAD PUSH3 0x461BCD PUSH1 0xE5 SHL DUP2 MSTORE PUSH1 0x4 ADD PUSH2 0x6C1 SWAP1 PUSH2 0x3648 JUMP JUMPDEST PUSH1 0x1 PUSH1 0x1 PUSH1 0xA0 SHL SUB DUP2 AND PUSH2 0x14A5 JUMPI PUSH1 0x40 MLOAD PUSH3 0x461BCD PUSH1 0xE5 SHL DUP2 MSTORE PUSH1 0x20 PUSH1 0x4 DUP3 ADD MSTORE PUSH1 0x7 PUSH1 0x24 DUP3 ADD MSTORE PUSH7 0x4E6F205A65726F PUSH1 0xC8 SHL PUSH1 0x44 DUP3 ADD MSTORE PUSH1 0x64 ADD PUSH2 0x6C1 JUMP JUMPDEST PUSH1 0x6 SLOAD PUSH1 0x40 DUP1 MLOAD PUSH1 0x1 PUSH1 0x1 PUSH1 0xA0 SHL SUB DUP1 DUP6 AND DUP3 MSTORE SWAP1 SWAP3 AND PUSH1 0x20 DUP4 ADD MSTORE PUSH32 0x4088A686F46439872254E52412588879189D5D7AD58511047A6F308714E0A0FC SWAP2 ADD PUSH1 0x40 MLOAD DUP1 SWAP2 SUB SWAP1 LOG1 PUSH1 0x6 DUP1 SLOAD PUSH1 0x1 PUSH1 0x1 PUSH1 0xA0 SHL SUB NOT AND PUSH1 0x1 PUSH1 0x1 PUSH1 0xA0 SHL SUB SWAP3 SWAP1 SWAP3 AND SWAP2 SWAP1 SWAP2 OR SWAP1 SSTORE JUMP JUMPDEST PUSH1 0x0 SLOAD PUSH1 0x1 PUSH1 0x1 PUSH1 0xA0 SHL SUB AND CALLER EQ PUSH2 0x1538 JUMPI PUSH1 0x40 MLOAD PUSH3 0x461BCD PUSH1 0xE5 SHL DUP2 MSTORE PUSH1 0x4 ADD PUSH2 0x6C1 SWAP1 PUSH2 0x3648 JUMP JUMPDEST PUSH1 0x1 PUSH1 0x1 PUSH1 0xA0 SHL SUB DUP2 AND PUSH2 0x159D JUMPI PUSH1 0x40 MLOAD PUSH3 0x461BCD PUSH1 0xE5 SHL DUP2 MSTORE PUSH1 0x20 PUSH1 0x4 DUP3 ADD MSTORE PUSH1 0x26 PUSH1 0x24 DUP3 ADD MSTORE PUSH32 0x4F776E61626C653A206E6577206F776E657220697320746865207A65726F2061 PUSH1 0x44 DUP3 ADD MSTORE PUSH6 0x646472657373 PUSH1 0xD0 SHL PUSH1 0x64 DUP3 ADD MSTORE PUSH1 0x84 ADD PUSH2 0x6C1 JUMP JUMPDEST PUSH2 0x15A6 DUP2 PUSH2 0x2611 JUMP JUMPDEST POP JUMP JUMPDEST PUSH1 0x0 SLOAD PUSH1 0x1 PUSH1 0x1 PUSH1 0xA0 SHL SUB AND CALLER EQ PUSH2 0x15D3 JUMPI PUSH1 0x40 MLOAD PUSH3 0x461BCD PUSH1 0xE5 SHL DUP2 MSTORE PUSH1 0x4 ADD PUSH2 0x6C1 SWAP1 PUSH2 0x3648 JUMP JUMPDEST PUSH1 0x1 PUSH1 0x1 PUSH1 0xA0 SHL SUB DUP2 AND PUSH2 0x1613 JUMPI PUSH1 0x40 MLOAD PUSH3 0x461BCD PUSH1 0xE5 SHL DUP2 MSTORE PUSH1 0x20 PUSH1 0x4 DUP3 ADD MSTORE PUSH1 0x7 PUSH1 0x24 DUP3 ADD MSTORE PUSH7 0x4E6F207A65726F PUSH1 0xC8 SHL PUSH1 0x44 DUP3 ADD MSTORE PUSH1 0x64 ADD PUSH2 0x6C1 JUMP JUMPDEST PUSH1 0x1 DUP1 SLOAD PUSH1 0x1 PUSH1 0x1 PUSH1 0xA0 SHL SUB NOT AND PUSH1 0x1 PUSH1 0x1 PUSH1 0xA0 SHL SUB DUP4 AND SWAP1 DUP2 OR SWAP1 SWAP2 SSTORE PUSH1 0x40 MLOAD SWAP1 DUP2 MSTORE PUSH32 0x2DF9D602927CBEE25F5AC348817E8312326C22C45D0AFE91F8C3B5EB4FD67508 SWAP1 PUSH1 0x20 ADD PUSH2 0x757 JUMP JUMPDEST PUSH1 0x40 DUP1 MLOAD PUSH1 0x1 PUSH1 0x1 PUSH1 0xA0 SHL SUB DUP6 DUP2 AND PUSH1 0x24 DUP4 ADD MSTORE DUP5 AND PUSH1 0x44 DUP3 ADD MSTORE PUSH1 0x64 DUP1 DUP3 ADD DUP5 SWAP1 MSTORE DUP3 MLOAD DUP1 DUP4 SUB SWAP1 SWAP2 ADD DUP2 MSTORE PUSH1 0x84 SWAP1 SWAP2 ADD SWAP1 SWAP2 MSTORE PUSH1 0x20 DUP2 ADD DUP1 MLOAD PUSH1 0x1 PUSH1 0x1 PUSH1 0xE0 SHL SUB AND PUSH4 0x23B872DD PUSH1 0xE0 SHL OR SWAP1 MSTORE PUSH2 0x16BB SWAP1 DUP6 SWAP1 PUSH2 0x2661 JUMP JUMPDEST POP POP POP POP JUMP JUMPDEST PUSH1 0x0 DUP3 DUP2 MSTORE PUSH1 0x8 PUSH1 0x20 SWAP1 DUP2 MSTORE PUSH1 0x40 DUP1 DUP4 KECCAK256 PUSH1 0x1 SLOAD DUP3 MLOAD PUSH4 0x15AB88C9 PUSH1 0xE3 SHL DUP2 MSTORE SWAP3 MLOAD SWAP2 SWAP4 PUSH1 0x1 PUSH1 0x1 PUSH1 0xA0 SHL SUB SWAP1 SWAP2 AND SWAP3 PUSH4 0xAD5C4648 SWAP3 PUSH1 0x4 DUP1 DUP4 ADD SWAP4 SWAP3 DUP3 SWAP1 SUB ADD DUP2 DUP7 GAS STATICCALL ISZERO DUP1 ISZERO PUSH2 0x1717 JUMPI RETURNDATASIZE PUSH1 0x0 DUP1 RETURNDATACOPY RETURNDATASIZE PUSH1 0x0 REVERT JUMPDEST POP POP POP POP PUSH1 0x40 MLOAD RETURNDATASIZE PUSH1 0x1F NOT PUSH1 0x1F DUP3 ADD AND DUP3 ADD DUP1 PUSH1 0x40 MSTORE POP DUP2 ADD SWAP1 PUSH2 0x173B SWAP2 SWAP1 PUSH2 0x38B7 JUMP JUMPDEST PUSH1 0x1 PUSH1 0x1 PUSH1 0xA0 SHL SUB AND PUSH1 0x9 PUSH1 0x0 DUP7 DUP2 MSTORE PUSH1 0x20 ADD SWAP1 DUP2 MSTORE PUSH1 0x20 ADD PUSH1 0x0 KECCAK256 PUSH1 0x0 DUP2 SLOAD DUP2 LT PUSH2 0x1769 JUMPI PUSH2 0x1769 PUSH2 0x38D4 JUMP JUMPDEST PUSH1 0x0 SWAP2 DUP3 MSTORE PUSH1 0x20 SWAP1 SWAP2 KECCAK256 ADD SLOAD PUSH1 0x1 PUSH1 0x1 PUSH1 0xA0 SHL SUB AND EQ DUP1 PUSH2 0x1841 JUMPI POP PUSH1 0x1 PUSH1 0x0 SWAP1 SLOAD SWAP1 PUSH2 0x100 EXP SWAP1 DIV PUSH1 0x1 PUSH1 0x1 PUSH1 0xA0 SHL SUB AND PUSH1 0x1 PUSH1 0x1 PUSH1 0xA0 SHL SUB AND PUSH4 0xAD5C4648 PUSH1 0x40 MLOAD DUP2 PUSH4 0xFFFFFFFF AND PUSH1 0xE0 SHL DUP2 MSTORE PUSH1 0x4 ADD PUSH1 0x20 PUSH1 0x40 MLOAD DUP1 DUP4 SUB DUP2 DUP7 GAS STATICCALL ISZERO DUP1 ISZERO PUSH2 0x17D8 JUMPI RETURNDATASIZE PUSH1 0x0 DUP1 RETURNDATACOPY RETURNDATASIZE PUSH1 0x0 REVERT JUMPDEST POP POP POP POP PUSH1 0x40 MLOAD RETURNDATASIZE PUSH1 0x1F NOT PUSH1 0x1F DUP3 ADD AND DUP3 ADD DUP1 PUSH1 0x40 MSTORE POP DUP2 ADD SWAP1 PUSH2 0x17FC SWAP2 SWAP1 PUSH2 0x38B7 JUMP JUMPDEST PUSH1 0x1 PUSH1 0x1 PUSH1 0xA0 SHL SUB AND PUSH1 0x9 PUSH1 0x0 DUP7 DUP2 MSTORE PUSH1 0x20 ADD SWAP1 DUP2 MSTORE PUSH1 0x20 ADD PUSH1 0x0 KECCAK256 PUSH1 0x1 DUP2 SLOAD DUP2 LT PUSH2 0x182A JUMPI PUSH2 0x182A PUSH2 0x38D4 JUMP JUMPDEST PUSH1 0x0 SWAP2 DUP3 MSTORE PUSH1 0x20 SWAP1 SWAP2 KECCAK256 ADD SLOAD PUSH1 0x1 PUSH1 0x1 PUSH1 0xA0 SHL SUB AND EQ JUMPDEST ISZERO PUSH2 0x1B81 JUMPI PUSH1 0x0 PUSH1 0x60 PUSH1 0x0 PUSH2 0x1855 DUP8 PUSH2 0x2738 JUMP JUMPDEST PUSH1 0x8 DUP8 ADD SLOAD SWAP3 SWAP6 POP SWAP1 SWAP4 POP SWAP2 POP PUSH2 0x100 SWAP1 DIV PUSH1 0xFF AND ISZERO PUSH2 0x18FB JUMPI PUSH1 0x8 DUP5 ADD SLOAD PUSH1 0x40 MLOAD PUSH4 0xAF2979EB PUSH1 0xE0 SHL DUP2 MSTORE PUSH1 0x1 PUSH1 0x20 SHL SWAP1 SWAP2 DIV PUSH1 0x1 PUSH1 0x1 PUSH1 0xA0 SHL SUB AND SWAP1 PUSH4 0xAF2979EB SWAP1 PUSH2 0x18B2 SWAP1 DUP7 SWAP1 DUP11 SWAP1 PUSH1 0x0 SWAP1 DUP2 SWAP1 ADDRESS SWAP1 TIMESTAMP SWAP1 PUSH1 0x4 ADD PUSH2 0x39E1 JUMP JUMPDEST PUSH1 0x20 PUSH1 0x40 MLOAD DUP1 DUP4 SUB DUP2 PUSH1 0x0 DUP8 GAS CALL ISZERO DUP1 ISZERO PUSH2 0x18D1 JUMPI RETURNDATASIZE PUSH1 0x0 DUP1 RETURNDATACOPY RETURNDATASIZE PUSH1 0x0 REVERT JUMPDEST POP POP POP POP PUSH1 0x40 MLOAD RETURNDATASIZE PUSH1 0x1F NOT PUSH1 0x1F DUP3 ADD AND DUP3 ADD DUP1 PUSH1 0x40 MSTORE POP DUP2 ADD SWAP1 PUSH2 0x18F5 SWAP2 SWAP1 PUSH2 0x36F3 JUMP JUMPDEST POP PUSH2 0x1982 JUMP JUMPDEST PUSH1 0x8 DUP5 ADD SLOAD PUSH1 0x40 MLOAD PUSH3 0x9D473B PUSH1 0xE2 SHL DUP2 MSTORE PUSH1 0x1 PUSH1 0x20 SHL SWAP1 SWAP2 DIV PUSH1 0x1 PUSH1 0x1 PUSH1 0xA0 SHL SUB AND SWAP1 PUSH4 0x2751CEC SWAP1 PUSH2 0x193D SWAP1 DUP7 SWAP1 DUP11 SWAP1 PUSH1 0x0 SWAP1 DUP2 SWAP1 ADDRESS SWAP1 TIMESTAMP SWAP1 PUSH1 0x4 ADD PUSH2 0x39E1 JUMP JUMPDEST PUSH1 0x40 DUP1 MLOAD DUP1 DUP4 SUB DUP2 PUSH1 0x0 DUP8 GAS CALL ISZERO DUP1 ISZERO PUSH2 0x195B JUMPI RETURNDATASIZE PUSH1 0x0 DUP1 RETURNDATACOPY RETURNDATASIZE PUSH1 0x0 REVERT JUMPDEST POP POP POP POP PUSH1 0x40 MLOAD RETURNDATASIZE PUSH1 0x1F NOT PUSH1 0x1F DUP3 ADD AND DUP3 ADD DUP1 PUSH1 0x40 MSTORE POP DUP2 ADD SWAP1 PUSH2 0x197F SWAP2 SWAP1 PUSH2 0x3A1C JUMP JUMPDEST POP POP JUMPDEST PUSH1 0x40 MLOAD PUSH4 0x70A08231 PUSH1 0xE0 SHL DUP2 MSTORE ADDRESS PUSH1 0x4 DUP3 ADD MSTORE PUSH1 0x0 SWAP1 PUSH1 0x1 PUSH1 0x1 PUSH1 0xA0 SHL SUB DUP6 AND SWAP1 PUSH4 0x70A08231 SWAP1 PUSH1 0x24 ADD PUSH1 0x20 PUSH1 0x40 MLOAD DUP1 DUP4 SUB DUP2 DUP7 GAS STATICCALL ISZERO DUP1 ISZERO PUSH2 0x19C9 JUMPI RETURNDATASIZE PUSH1 0x0 DUP1 RETURNDATACOPY RETURNDATASIZE PUSH1 0x0 REVERT JUMPDEST POP POP POP POP PUSH1 0x40 MLOAD RETURNDATASIZE PUSH1 0x1F NOT PUSH1 0x1F DUP3 ADD AND DUP3 ADD DUP1 PUSH1 0x40 MSTORE POP DUP2 ADD SWAP1 PUSH2 0x19ED SWAP2 SWAP1 PUSH2 0x36F3 JUMP JUMPDEST PUSH1 0x8 DUP7 ADD SLOAD PUSH1 0x40 MLOAD PUSH4 0x95EA7B3 PUSH1 0xE0 SHL DUP2 MSTORE PUSH1 0x1 PUSH1 0x1 PUSH1 0xA0 SHL SUB PUSH1 0x1 PUSH1 0x20 SHL SWAP1 SWAP3 DIV DUP3 AND PUSH1 0x4 DUP3 ADD MSTORE PUSH1 0x24 DUP2 ADD DUP4 SWAP1 MSTORE SWAP2 SWAP3 POP DUP6 AND SWAP1 PUSH4 0x95EA7B3 SWAP1 PUSH1 0x44 ADD PUSH1 0x20 PUSH1 0x40 MLOAD DUP1 DUP4 SUB DUP2 PUSH1 0x0 DUP8 GAS CALL ISZERO DUP1 ISZERO PUSH2 0x1A4B JUMPI RETURNDATASIZE PUSH1 0x0 DUP1 RETURNDATACOPY RETURNDATASIZE PUSH1 0x0 REVERT JUMPDEST POP POP POP POP PUSH1 0x40 MLOAD RETURNDATASIZE PUSH1 0x1F NOT PUSH1 0x1F DUP3 ADD AND DUP3 ADD DUP1 PUSH1 0x40 MSTORE POP DUP2 ADD SWAP1 PUSH2 0x1A6F SWAP2 SWAP1 PUSH2 0x3741 JUMP JUMPDEST POP DUP2 ISZERO PUSH2 0x1AEE JUMPI PUSH1 0x8 DUP6 ADD SLOAD PUSH1 0x40 MLOAD PUSH4 0x791AC947 PUSH1 0xE0 SHL DUP2 MSTORE PUSH1 0x1 PUSH1 0x20 SHL SWAP1 SWAP2 DIV PUSH1 0x1 PUSH1 0x1 PUSH1 0xA0 SHL SUB AND SWAP1 PUSH4 0x791AC947 SWAP1 PUSH2 0x1AB7 SWAP1 DUP5 SWAP1 PUSH1 0x0 SWAP1 DUP9 SWAP1 ADDRESS SWAP1 TIMESTAMP SWAP1 PUSH1 0x4 ADD PUSH2 0x3A40 JUMP JUMPDEST PUSH1 0x0 PUSH1 0x40 MLOAD DUP1 DUP4 SUB DUP2 PUSH1 0x0 DUP8 DUP1 EXTCODESIZE ISZERO DUP1 ISZERO PUSH2 0x1AD1 JUMPI PUSH1 0x0 DUP1 REVERT JUMPDEST POP GAS CALL ISZERO DUP1 ISZERO PUSH2 0x1AE5 JUMPI RETURNDATASIZE PUSH1 0x0 DUP1 RETURNDATACOPY RETURNDATASIZE PUSH1 0x0 REVERT JUMPDEST POP POP POP POP PUSH2 0x1B78 JUMP JUMPDEST PUSH1 0x8 DUP6 ADD SLOAD PUSH1 0x40 MLOAD PUSH4 0x18CBAFE5 PUSH1 0xE0 SHL DUP2 MSTORE PUSH1 0x1 PUSH1 0x20 SHL SWAP1 SWAP2 DIV PUSH1 0x1 PUSH1 0x1 PUSH1 0xA0 SHL SUB AND SWAP1 PUSH4 0x18CBAFE5 SWAP1 PUSH2 0x1B2F SWAP1 DUP5 SWAP1 PUSH1 0x0 SWAP1 DUP9 SWAP1 ADDRESS SWAP1 TIMESTAMP SWAP1 PUSH1 0x4 ADD PUSH2 0x3A40 JUMP JUMPDEST PUSH1 0x0 PUSH1 0x40 MLOAD DUP1 DUP4 SUB DUP2 PUSH1 0x0 DUP8 GAS CALL ISZERO DUP1 ISZERO PUSH2 0x1B4E JUMPI RETURNDATASIZE PUSH1 0x0 DUP1 RETURNDATACOPY RETURNDATASIZE PUSH1 0x0 REVERT JUMPDEST POP POP POP POP PUSH1 0x40 MLOAD RETURNDATASIZE PUSH1 0x0 DUP3 RETURNDATACOPY PUSH1 0x1F RETURNDATASIZE SWAP1 DUP2 ADD PUSH1 0x1F NOT AND DUP3 ADD PUSH1 0x40 MSTORE PUSH2 0x1B76 SWAP2 SWAP1 DUP2 ADD SWAP1 PUSH2 0x37F9 JUMP JUMPDEST POP JUMPDEST POP POP POP POP PUSH2 0x207F JUMP JUMPDEST PUSH1 0x8 DUP2 ADD SLOAD PUSH1 0x0 DUP6 DUP2 MSTORE PUSH1 0x9 PUSH1 0x20 MSTORE PUSH1 0x40 DUP2 KECCAK256 DUP1 SLOAD SWAP2 SWAP3 DUP4 SWAP3 PUSH1 0x1 PUSH1 0x20 SHL SWAP1 SWAP2 DIV PUSH1 0x1 PUSH1 0x1 PUSH1 0xA0 SHL SUB AND SWAP2 PUSH4 0xBAA2ABDE SWAP2 DUP5 SWAP1 PUSH2 0x1BC0 JUMPI PUSH2 0x1BC0 PUSH2 0x38D4 JUMP JUMPDEST PUSH1 0x0 SWAP2 DUP3 MSTORE PUSH1 0x20 DUP1 DUP4 KECCAK256 SWAP1 SWAP2 ADD SLOAD DUP11 DUP4 MSTORE PUSH1 0x9 SWAP1 SWAP2 MSTORE PUSH1 0x40 SWAP1 SWAP2 KECCAK256 DUP1 SLOAD PUSH1 0x1 PUSH1 0x1 PUSH1 0xA0 SHL SUB SWAP1 SWAP3 AND SWAP2 PUSH1 0x1 SWAP1 DUP2 LT PUSH2 0x1BFA JUMPI PUSH2 0x1BFA PUSH2 0x38D4 JUMP JUMPDEST PUSH1 0x0 SWAP2 DUP3 MSTORE PUSH1 0x20 DUP3 KECCAK256 ADD SLOAD PUSH1 0x40 MLOAD PUSH1 0xE0 DUP6 SWAP1 SHL PUSH1 0x1 PUSH1 0x1 PUSH1 0xE0 SHL SUB NOT AND DUP2 MSTORE PUSH1 0x1 PUSH1 0x1 PUSH1 0xA0 SHL SUB SWAP4 DUP5 AND PUSH1 0x4 DUP3 ADD MSTORE SWAP3 AND PUSH1 0x24 DUP4 ADD MSTORE PUSH1 0x44 DUP3 ADD DUP10 SWAP1 MSTORE PUSH1 0x64 DUP3 ADD DUP2 SWAP1 MSTORE PUSH1 0x84 DUP3 ADD MSTORE ADDRESS PUSH1 0xA4 DUP3 ADD MSTORE TIMESTAMP PUSH1 0xC4 DUP3 ADD MSTORE PUSH1 0xE4 ADD PUSH1 0x40 DUP1 MLOAD DUP1 DUP4 SUB DUP2 PUSH1 0x0 DUP8 GAS CALL ISZERO DUP1 ISZERO PUSH2 0x1C70 JUMPI RETURNDATASIZE PUSH1 0x0 DUP1 RETURNDATACOPY RETURNDATASIZE PUSH1 0x0 REVERT JUMPDEST POP POP POP POP PUSH1 0x40 MLOAD RETURNDATASIZE PUSH1 0x1F NOT PUSH1 0x1F DUP3 ADD AND DUP3 ADD DUP1 PUSH1 0x40 MSTORE POP DUP2 ADD SWAP1 PUSH2 0x1C94 SWAP2 SWAP1 PUSH2 0x3A1C JUMP JUMPDEST PUSH1 0x0 DUP9 DUP2 MSTORE PUSH1 0x9 PUSH1 0x20 MSTORE PUSH1 0x40 DUP2 KECCAK256 DUP1 SLOAD SWAP4 SWAP6 POP SWAP2 SWAP4 POP SWAP1 SWAP2 PUSH2 0x1CB8 JUMPI PUSH2 0x1CB8 PUSH2 0x38D4 JUMP JUMPDEST PUSH1 0x0 SWAP2 DUP3 MSTORE PUSH1 0x20 SWAP1 SWAP2 KECCAK256 ADD SLOAD PUSH1 0x8 DUP5 ADD SLOAD PUSH1 0x1 PUSH1 0x1 PUSH1 0xA0 SHL SUB SWAP2 DUP3 AND SWAP2 PUSH4 0x95EA7B3 SWAP2 PUSH1 0x1 PUSH1 0x20 SHL SWAP1 DIV AND PUSH2 0x1CEE DUP6 PUSH1 0x2 PUSH2 0x3722 JUMP JUMPDEST PUSH1 0x40 MLOAD PUSH1 0x1 PUSH1 0x1 PUSH1 0xE0 SHL SUB NOT PUSH1 0xE0 DUP6 SWAP1 SHL AND DUP2 MSTORE PUSH1 0x1 PUSH1 0x1 PUSH1 0xA0 SHL SUB SWAP1 SWAP3 AND PUSH1 0x4 DUP4 ADD MSTORE PUSH1 0x24 DUP3 ADD MSTORE PUSH1 0x44 ADD PUSH1 0x20 PUSH1 0x40 MLOAD DUP1 DUP4 SUB DUP2 PUSH1 0x0 DUP8 GAS CALL ISZERO DUP1 ISZERO PUSH2 0x1D39 JUMPI RETURNDATASIZE PUSH1 0x0 DUP1 RETURNDATACOPY RETURNDATASIZE PUSH1 0x0 REVERT JUMPDEST POP POP POP POP PUSH1 0x40 MLOAD RETURNDATASIZE PUSH1 0x1F NOT PUSH1 0x1F DUP3 ADD AND DUP3 ADD DUP1 PUSH1 0x40 MSTORE POP DUP2 ADD SWAP1 PUSH2 0x1D5D SWAP2 SWAP1 PUSH2 0x3741 JUMP JUMPDEST POP PUSH1 0x0 DUP7 DUP2 MSTORE PUSH1 0x9 PUSH1 0x20 MSTORE PUSH1 0x40 SWAP1 KECCAK256 DUP1 SLOAD PUSH1 0x1 SWAP1 DUP2 LT PUSH2 0x1D7F JUMPI PUSH2 0x1D7F PUSH2 0x38D4 JUMP JUMPDEST PUSH1 0x0 SWAP2 DUP3 MSTORE PUSH1 0x20 SWAP1 SWAP2 KECCAK256 ADD SLOAD PUSH1 0x8 DUP5 ADD SLOAD PUSH1 0x1 PUSH1 0x1 PUSH1 0xA0 SHL SUB SWAP2 DUP3 AND SWAP2 PUSH4 0x95EA7B3 SWAP2 PUSH1 0x1 PUSH1 0x20 SHL SWAP1 DIV AND PUSH2 0x1DB5 DUP5 PUSH1 0x2 PUSH2 0x3722 JUMP JUMPDEST PUSH1 0x40 MLOAD PUSH1 0x1 PUSH1 0x1 PUSH1 0xE0 SHL SUB NOT PUSH1 0xE0 DUP6 SWAP1 SHL AND DUP2 MSTORE PUSH1 0x1 PUSH1 0x1 PUSH1 0xA0 SHL SUB SWAP1 SWAP3 AND PUSH1 0x4 DUP4 ADD MSTORE PUSH1 0x24 DUP3 ADD MSTORE PUSH1 0x44 ADD PUSH1 0x20 PUSH1 0x40 MLOAD DUP1 DUP4 SUB DUP2 PUSH1 0x0 DUP8 GAS CALL ISZERO DUP1 ISZERO PUSH2 0x1E00 JUMPI RETURNDATASIZE PUSH1 0x0 DUP1 RETURNDATACOPY RETURNDATASIZE PUSH1 0x0 REVERT JUMPDEST POP POP POP POP PUSH1 0x40 MLOAD RETURNDATASIZE PUSH1 0x1F NOT PUSH1 0x1F DUP3 ADD AND DUP3 ADD DUP1 PUSH1 0x40 MSTORE POP DUP2 ADD SWAP1 PUSH2 0x1E24 SWAP2 SWAP1 PUSH2 0x3741 JUMP JUMPDEST POP PUSH1 0x8 DUP4 ADD SLOAD PUSH3 0x10000 SWAP1 DIV PUSH1 0xFF AND ISZERO PUSH2 0x1EB9 JUMPI PUSH1 0x8 DUP4 ADD SLOAD PUSH1 0x0 DUP8 DUP2 MSTORE PUSH1 0xA PUSH1 0x20 MSTORE PUSH1 0x40 DUP1 DUP3 KECCAK256 SWAP1 MLOAD PUSH4 0x791AC947 PUSH1 0xE0 SHL DUP2 MSTORE PUSH1 0x1 PUSH1 0x20 SHL SWAP1 SWAP4 DIV PUSH1 0x1 PUSH1 0x1 PUSH1 0xA0 SHL SUB AND SWAP3 PUSH4 0x791AC947 SWAP3 PUSH2 0x1E82 SWAP3 DUP8 SWAP3 ADDRESS SWAP1 TIMESTAMP SWAP1 PUSH1 0x4 ADD PUSH2 0x37A7 JUMP JUMPDEST PUSH1 0x0 PUSH1 0x40 MLOAD DUP1 DUP4 SUB DUP2 PUSH1 0x0 DUP8 DUP1 EXTCODESIZE ISZERO DUP1 ISZERO PUSH2 0x1E9C JUMPI PUSH1 0x0 DUP1 REVERT JUMPDEST POP GAS CALL ISZERO DUP1 ISZERO PUSH2 0x1EB0 JUMPI RETURNDATASIZE PUSH1 0x0 DUP1 RETURNDATACOPY RETURNDATASIZE PUSH1 0x0 REVERT JUMPDEST POP POP POP POP PUSH2 0x1F4C JUMP JUMPDEST PUSH1 0x8 DUP4 ADD SLOAD PUSH1 0x0 DUP8 DUP2 MSTORE PUSH1 0xA PUSH1 0x20 MSTORE PUSH1 0x40 DUP1 DUP3 KECCAK256 SWAP1 MLOAD PUSH4 0x18CBAFE5 PUSH1 0xE0 SHL DUP2 MSTORE PUSH1 0x1 PUSH1 0x20 SHL SWAP1 SWAP4 DIV PUSH1 0x1 PUSH1 0x1 PUSH1 0xA0 SHL SUB AND SWAP3 PUSH4 0x18CBAFE5 SWAP3 PUSH2 0x1F03 SWAP3 DUP8 SWAP3 ADDRESS SWAP1 TIMESTAMP SWAP1 PUSH1 0x4 ADD PUSH2 0x37A7 JUMP JUMPDEST PUSH1 0x0 PUSH1 0x40 MLOAD DUP1 DUP4 SUB DUP2 PUSH1 0x0 DUP8 GAS CALL ISZERO DUP1 ISZERO PUSH2 0x1F22 JUMPI RETURNDATASIZE PUSH1 0x0 DUP1 RETURNDATACOPY RETURNDATASIZE PUSH1 0x0 REVERT JUMPDEST POP POP POP POP PUSH1 0x40 MLOAD RETURNDATASIZE PUSH1 0x0 DUP3 RETURNDATACOPY PUSH1 0x1F RETURNDATASIZE SWAP1 DUP2 ADD PUSH1 0x1F NOT AND DUP3 ADD PUSH1 0x40 MSTORE PUSH2 0x1F4A SWAP2 SWAP1 DUP2 ADD SWAP1 PUSH2 0x37F9 JUMP JUMPDEST POP JUMPDEST PUSH1 0x8 DUP4 ADD SLOAD PUSH4 0x1000000 SWAP1 DIV PUSH1 0xFF AND ISZERO PUSH2 0x1FE1 JUMPI PUSH1 0x8 DUP4 ADD SLOAD PUSH1 0x0 DUP8 DUP2 MSTORE PUSH1 0xB PUSH1 0x20 MSTORE PUSH1 0x40 DUP1 DUP3 KECCAK256 SWAP1 MLOAD PUSH4 0x791AC947 PUSH1 0xE0 SHL DUP2 MSTORE PUSH1 0x1 PUSH1 0x20 SHL SWAP1 SWAP4 DIV PUSH1 0x1 PUSH1 0x1 PUSH1 0xA0 SHL SUB AND SWAP3 PUSH4 0x791AC947 SWAP3 PUSH2 0x1FAA SWAP3 DUP7 SWAP3 ADDRESS SWAP1 TIMESTAMP SWAP1 PUSH1 0x4 ADD PUSH2 0x37A7 JUMP JUMPDEST PUSH1 0x0 PUSH1 0x40 MLOAD DUP1 DUP4 SUB DUP2 PUSH1 0x0 DUP8 DUP1 EXTCODESIZE ISZERO DUP1 ISZERO PUSH2 0x1FC4 JUMPI PUSH1 0x0 DUP1 REVERT JUMPDEST POP GAS CALL ISZERO DUP1 ISZERO PUSH2 0x1FD8 JUMPI RETURNDATASIZE PUSH1 0x0 DUP1 RETURNDATACOPY RETURNDATASIZE PUSH1 0x0 REVERT JUMPDEST POP POP POP POP PUSH2 0x2074 JUMP JUMPDEST PUSH1 0x8 DUP4 ADD SLOAD PUSH1 0x0 DUP8 DUP2 MSTORE PUSH1 0xB PUSH1 0x20 MSTORE PUSH1 0x40 DUP1 DUP3 KECCAK256 SWAP1 MLOAD PUSH4 0x18CBAFE5 PUSH1 0xE0 SHL DUP2 MSTORE PUSH1 0x1 PUSH1 0x20 SHL SWAP1 SWAP4 DIV PUSH1 0x1 PUSH1 0x1 PUSH1 0xA0 SHL SUB AND SWAP3 PUSH4 0x18CBAFE5 SWAP3 PUSH2 0x202B SWAP3 DUP7 SWAP3 ADDRESS SWAP1 TIMESTAMP SWAP1 PUSH1 0x4 ADD PUSH2 0x37A7 JUMP JUMPDEST PUSH1 0x0 PUSH1 0x40 MLOAD DUP1 DUP4 SUB DUP2 PUSH1 0x0 DUP8 GAS CALL ISZERO DUP1 ISZERO PUSH2 0x204A JUMPI RETURNDATASIZE PUSH1 0x0 DUP1 RETURNDATACOPY RETURNDATASIZE PUSH1 0x0 REVERT JUMPDEST POP POP POP POP PUSH1 0x40 MLOAD RETURNDATASIZE PUSH1 0x0 DUP3 RETURNDATACOPY PUSH1 0x1F RETURNDATASIZE SWAP1 DUP2 ADD PUSH1 0x1F NOT AND DUP3 ADD PUSH1 0x40 MSTORE PUSH2 0x2072 SWAP2 SWAP1 DUP2 ADD SWAP1 PUSH2 0x37F9 JUMP JUMPDEST POP JUMPDEST SELFBALANCE SWAP4 POP POP POP POP PUSH2 0x2081 JUMP JUMPDEST POP JUMPDEST SWAP3 SWAP2 POP POP JUMP JUMPDEST PUSH1 0x0 DUP1 PUSH1 0x0 DUP1 PUSH1 0x0 DUP1 PUSH1 0x0 DUP1 PUSH1 0x0 JUMPDEST PUSH1 0x5 DUP2 PUSH1 0xFF AND LT ISZERO PUSH2 0x21BC JUMPI DUP10 PUSH1 0x3 ADD DUP2 PUSH1 0xFF AND PUSH1 0x5 DUP2 LT PUSH2 0x20BA JUMPI PUSH2 0x20BA PUSH2 0x38D4 JUMP JUMPDEST ADD SLOAD PUSH2 0x20C6 SWAP1 DUP9 PUSH2 0x3A5F JUMP JUMPDEST SWAP7 POP PUSH1 0x3 DUP2 PUSH1 0xFF AND LT PUSH2 0x20FE JUMPI PUSH1 0x2 DUP11 PUSH1 0x3 ADD DUP3 PUSH1 0xFF AND PUSH1 0x5 DUP2 LT PUSH2 0x20ED JUMPI PUSH2 0x20ED PUSH2 0x38D4 JUMP JUMPDEST ADD SLOAD PUSH2 0x20F9 SWAP2 SWAP1 PUSH2 0x39BF JUMP JUMPDEST PUSH2 0x2119 JUMP JUMPDEST DUP10 PUSH1 0x3 ADD DUP2 PUSH1 0xFF AND PUSH1 0x5 DUP2 LT PUSH2 0x2116 JUMPI PUSH2 0x2116 PUSH2 0x38D4 JUMP JUMPDEST ADD SLOAD JUMPDEST PUSH2 0x2123 SWAP1 DUP11 PUSH2 0x3A5F JUMP JUMPDEST SWAP9 POP PUSH1 0x3 DUP2 PUSH1 0xFF AND LT ISZERO PUSH2 0x21AA JUMPI DUP10 PUSH1 0xFF DUP3 AND PUSH1 0x3 DUP2 LT PUSH2 0x2146 JUMPI PUSH2 0x2146 PUSH2 0x38D4 JUMP JUMPDEST ADD SLOAD PUSH2 0x2152 SWAP1 DUP8 PUSH2 0x3A5F JUMP JUMPDEST SWAP6 POP PUSH1 0xFF DUP2 AND ISZERO PUSH2 0x2185 JUMPI PUSH1 0x2 DUP11 PUSH1 0xFF DUP4 AND PUSH1 0x3 DUP2 LT PUSH2 0x2174 JUMPI PUSH2 0x2174 PUSH2 0x38D4 JUMP JUMPDEST ADD SLOAD PUSH2 0x2180 SWAP2 SWAP1 PUSH2 0x39BF JUMP JUMPDEST PUSH2 0x219D JUMP JUMPDEST DUP10 PUSH1 0xFF DUP3 AND PUSH1 0x3 DUP2 LT PUSH2 0x219A JUMPI PUSH2 0x219A PUSH2 0x38D4 JUMP JUMPDEST ADD SLOAD JUMPDEST PUSH2 0x21A7 SWAP1 DUP10 PUSH2 0x3A5F JUMP JUMPDEST SWAP8 POP JUMPDEST DUP1 PUSH2 0x21B4 DUP2 PUSH2 0x3A77 JUMP JUMPDEST SWAP2 POP POP PUSH2 0x2096 JUMP JUMPDEST POP PUSH1 0x40 DUP1 MLOAD PUSH1 0x2 DUP1 DUP3 MSTORE PUSH1 0x60 DUP3 ADD DUP4 MSTORE PUSH1 0x0 SWAP3 PUSH1 0x20 DUP4 ADD SWAP1 DUP1 CALLDATASIZE DUP4 CALLDATACOPY POP POP PUSH1 0x1 SLOAD PUSH1 0x40 DUP1 MLOAD PUSH4 0x15AB88C9 PUSH1 0xE3 SHL DUP2 MSTORE SWAP1 MLOAD SWAP4 SWAP5 POP PUSH1 0x1 PUSH1 0x1 PUSH1 0xA0 SHL SUB SWAP1 SWAP2 AND SWAP3 PUSH4 0xAD5C4648 SWAP3 POP PUSH1 0x4 DUP1 DUP4 ADD SWAP3 PUSH1 0x20 SWAP3 SWAP2 SWAP1 DUP3 SWAP1 SUB ADD DUP2 DUP7 GAS STATICCALL ISZERO DUP1 ISZERO PUSH2 0x2227 JUMPI RETURNDATASIZE PUSH1 0x0 DUP1 RETURNDATACOPY RETURNDATASIZE PUSH1 0x0 REVERT JUMPDEST POP POP POP POP PUSH1 0x40 MLOAD RETURNDATASIZE PUSH1 0x1F NOT PUSH1 0x1F DUP3 ADD AND DUP3 ADD DUP1 PUSH1 0x40 MSTORE POP DUP2 ADD SWAP1 PUSH2 0x224B SWAP2 SWAP1 PUSH2 0x38B7 JUMP JUMPDEST DUP2 PUSH1 0x0 DUP2 MLOAD DUP2 LT PUSH2 0x225E JUMPI PUSH2 0x225E PUSH2 0x38D4 JUMP JUMPDEST PUSH1 0x20 MUL PUSH1 0x20 ADD ADD SWAP1 PUSH1 0x1 PUSH1 0x1 PUSH1 0xA0 SHL SUB AND SWAP1 DUP2 PUSH1 0x1 PUSH1 0x1 PUSH1 0xA0 SHL SUB AND DUP2 MSTORE POP POP PUSH32 0x0 DUP2 PUSH1 0x1 DUP2 MLOAD DUP2 LT PUSH2 0x22B2 JUMPI PUSH2 0x22B2 PUSH2 0x38D4 JUMP JUMPDEST PUSH1 0x1 PUSH1 0x1 PUSH1 0xA0 SHL SUB SWAP1 SWAP3 AND PUSH1 0x20 SWAP3 DUP4 MUL SWAP2 SWAP1 SWAP2 ADD SWAP1 SWAP2 ADD MSTORE DUP7 ISZERO PUSH2 0x23BA JUMPI PUSH2 0x2710 PUSH2 0x22DD DUP9 SELFBALANCE PUSH2 0x3722 JUMP JUMPDEST PUSH2 0x22E7 SWAP2 SWAP1 PUSH2 0x39BF JUMP JUMPDEST SWAP5 POP DUP7 PUSH2 0x22F4 DUP11 DUP8 PUSH2 0x3722 JUMP JUMPDEST PUSH2 0x22FE SWAP2 SWAP1 PUSH2 0x39BF JUMP JUMPDEST PUSH1 0x1 SLOAD PUSH1 0x40 MLOAD PUSH4 0x7FF36AB5 PUSH1 0xE0 SHL DUP2 MSTORE SWAP2 SWAP5 POP PUSH1 0x1 PUSH1 0x1 PUSH1 0xA0 SHL SUB AND SWAP1 PUSH4 0x7FF36AB5 SWAP1 DUP6 SWAP1 PUSH2 0x2338 SWAP1 PUSH1 0x0 SWAP1 DUP7 SWAP1 ADDRESS SWAP1 TIMESTAMP SWAP1 PUSH1 0x4 ADD PUSH2 0x3923 JUMP JUMPDEST PUSH1 0x0 PUSH1 0x40 MLOAD DUP1 DUP4 SUB DUP2 DUP6 DUP9 GAS CALL ISZERO DUP1 ISZERO PUSH2 0x2356 JUMPI RETURNDATASIZE PUSH1 0x0 DUP1 RETURNDATACOPY RETURNDATASIZE PUSH1 0x0 REVERT JUMPDEST POP POP POP POP POP PUSH1 0x40 MLOAD RETURNDATASIZE PUSH1 0x0 DUP3 RETURNDATACOPY PUSH1 0x1F RETURNDATASIZE SWAP1 DUP2 ADD PUSH1 0x1F NOT AND DUP3 ADD PUSH1 0x40 MSTORE PUSH2 0x237F SWAP2 SWAP1 DUP2 ADD SWAP1 PUSH2 0x37F9 JUMP JUMPDEST POP PUSH2 0x238A DUP4 DUP7 PUSH2 0x3A97 JUMP JUMPDEST SWAP5 POP PUSH2 0x23BA PUSH32 0x0 DUP12 DUP10 PUSH1 0x0 DUP10 PUSH2 0x2964 JUMP JUMPDEST DUP6 ISZERO PUSH2 0x24EC JUMPI PUSH2 0x2710 PUSH2 0x23CD DUP8 SELFBALANCE PUSH2 0x3722 JUMP JUMPDEST PUSH2 0x23D7 SWAP2 SWAP1 PUSH2 0x39BF JUMP JUMPDEST SWAP4 POP DUP6 PUSH2 0x23E4 DUP10 DUP7 PUSH2 0x3722 JUMP JUMPDEST PUSH2 0x23EE SWAP2 SWAP1 PUSH2 0x39BF JUMP JUMPDEST SWAP2 POP PUSH2 0x23FA DUP3 DUP6 PUSH2 0x3A97 JUMP JUMPDEST SWAP4 POP PUSH32 0x0 DUP2 PUSH1 0x1 DUP2 MLOAD DUP2 LT PUSH2 0x2430 JUMPI PUSH2 0x2430 PUSH2 0x38D4 JUMP JUMPDEST PUSH1 0x1 PUSH1 0x1 PUSH1 0xA0 SHL SUB SWAP3 DUP4 AND PUSH1 0x20 SWAP2 DUP3 MUL SWAP3 SWAP1 SWAP3 ADD ADD MSTORE PUSH1 0x1 SLOAD PUSH1 0x40 MLOAD PUSH4 0x7FF36AB5 PUSH1 0xE0 SHL DUP2 MSTORE SWAP2 AND SWAP1 PUSH4 0x7FF36AB5 SWAP1 DUP5 SWAP1 PUSH2 0x2476 SWAP1 PUSH1 0x0 SWAP1 DUP7 SWAP1 ADDRESS SWAP1 TIMESTAMP SWAP1 PUSH1 0x4 ADD PUSH2 0x3923 JUMP JUMPDEST PUSH1 0x0 PUSH1 0x40 MLOAD DUP1 DUP4 SUB DUP2 DUP6 DUP9 GAS CALL ISZERO DUP1 ISZERO PUSH2 0x2494 JUMPI RETURNDATASIZE PUSH1 0x0 DUP1 RETURNDATACOPY RETURNDATASIZE PUSH1 0x0 REVERT JUMPDEST POP POP POP POP POP PUSH1 0x40 MLOAD RETURNDATASIZE PUSH1 0x0 DUP3 RETURNDATACOPY PUSH1 0x1F RETURNDATASIZE SWAP1 DUP2 ADD PUSH1 0x1F NOT AND DUP3 ADD PUSH1 0x40 MSTORE PUSH2 0x24BD SWAP2 SWAP1 DUP2 ADD SWAP1 PUSH2 0x37F9 JUMP JUMPDEST POP PUSH2 0x24EC PUSH32 0x0 DUP12 DUP9 PUSH1 0x1 DUP9 PUSH2 0x2964 JUMP JUMPDEST SELFBALANCE DUP1 ISZERO PUSH2 0x2587 JUMPI PUSH1 0x4 SLOAD PUSH1 0x40 MLOAD PUSH1 0x0 SWAP2 PUSH1 0x1 PUSH1 0x1 PUSH1 0xA0 SHL SUB AND SWAP1 DUP4 SWAP1 DUP4 DUP2 DUP2 DUP2 DUP6 DUP8 GAS CALL SWAP3 POP POP POP RETURNDATASIZE DUP1 PUSH1 0x0 DUP2 EQ PUSH2 0x2540 JUMPI PUSH1 0x40 MLOAD SWAP2 POP PUSH1 0x1F NOT PUSH1 0x3F RETURNDATASIZE ADD AND DUP3 ADD PUSH1 0x40 MSTORE RETURNDATASIZE DUP3 MSTORE RETURNDATASIZE PUSH1 0x0 PUSH1 0x20 DUP5 ADD RETURNDATACOPY PUSH2 0x2545 JUMP JUMPDEST PUSH1 0x60 SWAP2 POP JUMPDEST POP POP PUSH1 0x40 DUP1 MLOAD DUP3 ISZERO ISZERO DUP2 MSTORE PUSH1 0x20 DUP2 ADD DUP6 SWAP1 MSTORE SWAP2 SWAP3 POP PUSH32 0x7526D8EDF9D8774140EAC835A1CEC043D347DB7C1C24C83A3449977A0C61CA5B SWAP2 ADD PUSH1 0x40 MLOAD DUP1 SWAP2 SUB SWAP1 LOG1 POP JUMPDEST POP POP POP POP POP POP POP POP POP POP POP JUMP JUMPDEST PUSH1 0x0 DUP1 JUMPDEST PUSH1 0x5 DUP2 PUSH1 0xFF AND LT ISZERO PUSH2 0x207F JUMPI DUP3 DUP2 PUSH1 0xFF AND PUSH1 0x5 DUP2 LT PUSH2 0x25B9 JUMPI PUSH2 0x25B9 PUSH2 0x38D4 JUMP JUMPDEST PUSH1 0x20 MUL ADD CALLDATALOAD DUP3 PUSH2 0x25C9 SWAP2 SWAP1 PUSH2 0x3A5F JUMP JUMPDEST SWAP2 POP PUSH1 0x3 DUP2 PUSH1 0xFF AND LT ISZERO PUSH2 0x25FF JUMPI DUP4 DUP2 PUSH1 0xFF AND PUSH1 0x3 DUP2 LT PUSH2 0x25EC JUMPI PUSH2 0x25EC PUSH2 0x38D4 JUMP JUMPDEST PUSH1 0x20 MUL ADD CALLDATALOAD DUP3 PUSH2 0x25FC SWAP2 SWAP1 PUSH2 0x3A5F JUMP JUMPDEST SWAP2 POP JUMPDEST DUP1 PUSH2 0x2609 DUP2 PUSH2 0x3A77 JUMP JUMPDEST SWAP2 POP POP PUSH2 0x2598 JUMP JUMPDEST PUSH1 0x0 DUP1 SLOAD PUSH1 0x1 PUSH1 0x1 PUSH1 0xA0 SHL SUB DUP4 DUP2 AND PUSH1 0x1 PUSH1 0x1 PUSH1 0xA0 SHL SUB NOT DUP4 AND DUP2 OR DUP5 SSTORE PUSH1 0x40 MLOAD SWAP2 SWAP1 SWAP3 AND SWAP3 DUP4 SWAP2 PUSH32 0x8BE0079C531659141344CD1FD0A4F28419497F9722A3DAAFE3B4186F6B6457E0 SWAP2 SWAP1 LOG3 POP POP JUMP JUMPDEST PUSH1 0x0 PUSH2 0x26B6 DUP3 PUSH1 0x40 MLOAD DUP1 PUSH1 0x40 ADD PUSH1 0x40 MSTORE DUP1 PUSH1 0x20 DUP2 MSTORE PUSH1 0x20 ADD PUSH32 0x5361666545524332303A206C6F772D6C6576656C2063616C6C206661696C6564 DUP2 MSTORE POP DUP6 PUSH1 0x1 PUSH1 0x1 PUSH1 0xA0 SHL SUB AND PUSH2 0x3071 SWAP1 SWAP3 SWAP2 SWAP1 PUSH4 0xFFFFFFFF AND JUMP JUMPDEST DUP1 MLOAD SWAP1 SWAP2 POP ISZERO PUSH2 0x2733 JUMPI DUP1 DUP1 PUSH1 0x20 ADD SWAP1 MLOAD DUP2 ADD SWAP1 PUSH2 0x26D4 SWAP2 SWAP1 PUSH2 0x3741 JUMP JUMPDEST PUSH2 0x2733 JUMPI PUSH1 0x40 MLOAD PUSH3 0x461BCD PUSH1 0xE5 SHL DUP2 MSTORE PUSH1 0x20 PUSH1 0x4 DUP3 ADD MSTORE PUSH1 0x2A PUSH1 0x24 DUP3 ADD MSTORE PUSH32 0x5361666545524332303A204552433230206F7065726174696F6E20646964206E PUSH1 0x44 DUP3 ADD MSTORE PUSH10 0x1BDD081CDD58D8D95959 PUSH1 0xB2 SHL PUSH1 0x64 DUP3 ADD MSTORE PUSH1 0x84 ADD PUSH2 0x6C1 JUMP JUMPDEST POP POP POP JUMP JUMPDEST PUSH1 0x0 PUSH1 0x60 PUSH1 0x0 PUSH1 0x1 PUSH1 0x0 SWAP1 SLOAD SWAP1 PUSH2 0x100 EXP SWAP1 DIV PUSH1 0x1 PUSH1 0x1 PUSH1 0xA0 SHL SUB AND PUSH1 0x1 PUSH1 0x1 PUSH1 0xA0 SHL SUB AND PUSH4 0xAD5C4648 PUSH1 0x40 MLOAD DUP2 PUSH4 0xFFFFFFFF AND PUSH1 0xE0 SHL DUP2 MSTORE PUSH1 0x4 ADD PUSH1 0x20 PUSH1 0x40 MLOAD DUP1 DUP4 SUB DUP2 DUP7 GAS STATICCALL ISZERO DUP1 ISZERO PUSH2 0x2791 JUMPI RETURNDATASIZE PUSH1 0x0 DUP1 RETURNDATACOPY RETURNDATASIZE PUSH1 0x0 REVERT JUMPDEST POP POP POP POP PUSH1 0x40 MLOAD RETURNDATASIZE PUSH1 0x1F NOT PUSH1 0x1F DUP3 ADD AND DUP3 ADD DUP1 PUSH1 0x40 MSTORE POP DUP2 ADD SWAP1 PUSH2 0x27B5 SWAP2 SWAP1 PUSH2 0x38B7 JUMP JUMPDEST PUSH1 0x1 PUSH1 0x1 PUSH1 0xA0 SHL SUB AND PUSH1 0x9 PUSH1 0x0 DUP7 DUP2 MSTORE PUSH1 0x20 ADD SWAP1 DUP2 MSTORE PUSH1 0x20 ADD PUSH1 0x0 KECCAK256 PUSH1 0x0 DUP2 SLOAD DUP2 LT PUSH2 0x27E3 JUMPI PUSH2 0x27E3 PUSH2 0x38D4 JUMP JUMPDEST PUSH1 0x0 SWAP2 DUP3 MSTORE PUSH1 0x20 SWAP1 SWAP2 KECCAK256 ADD SLOAD PUSH1 0x1 PUSH1 0x1 PUSH1 0xA0 SHL SUB AND EQ PUSH2 0x28C1 JUMPI PUSH1 0x0 DUP5 DUP2 MSTORE PUSH1 0x9 PUSH1 0x20 MSTORE PUSH1 0x40 DUP2 KECCAK256 DUP1 SLOAD SWAP1 SWAP2 SWAP1 PUSH2 0x281C JUMPI PUSH2 0x281C PUSH2 0x38D4 JUMP JUMPDEST PUSH1 0x0 SWAP2 DUP3 MSTORE PUSH1 0x20 DUP1 DUP4 KECCAK256 SWAP1 SWAP2 ADD SLOAD DUP7 DUP4 MSTORE PUSH1 0xA DUP3 MSTORE PUSH1 0x40 SWAP3 DUP4 SWAP1 KECCAK256 DUP1 SLOAD DUP5 MLOAD DUP2 DUP6 MUL DUP2 ADD DUP6 ADD SWAP1 SWAP6 MSTORE DUP1 DUP6 MSTORE PUSH1 0x1 PUSH1 0x1 PUSH1 0xA0 SHL SUB SWAP1 SWAP3 AND SWAP7 POP SWAP2 DUP4 ADD DUP3 DUP3 DUP1 ISZERO PUSH2 0x288F JUMPI PUSH1 0x20 MUL DUP3 ADD SWAP2 SWAP1 PUSH1 0x0 MSTORE PUSH1 0x20 PUSH1 0x0 KECCAK256 SWAP1 JUMPDEST DUP2 SLOAD PUSH1 0x1 PUSH1 0x1 PUSH1 0xA0 SHL SUB AND DUP2 MSTORE PUSH1 0x1 SWAP1 SWAP2 ADD SWAP1 PUSH1 0x20 ADD DUP1 DUP4 GT PUSH2 0x2871 JUMPI JUMPDEST POP POP POP POP POP SWAP2 POP PUSH1 0x8 PUSH1 0x0 DUP6 DUP2 MSTORE PUSH1 0x20 ADD SWAP1 DUP2 MSTORE PUSH1 0x20 ADD PUSH1 0x0 KECCAK256 PUSH1 0x8 ADD PUSH1 0x2 SWAP1 SLOAD SWAP1 PUSH2 0x100 EXP SWAP1 DIV PUSH1 0xFF AND SWAP1 POP PUSH2 0x295D JUMP JUMPDEST PUSH1 0x0 DUP5 DUP2 MSTORE PUSH1 0x9 PUSH1 0x20 MSTORE PUSH1 0x40 SWAP1 KECCAK256 DUP1 SLOAD PUSH1 0x1 SWAP1 DUP2 LT PUSH2 0x28E2 JUMPI PUSH2 0x28E2 PUSH2 0x38D4 JUMP JUMPDEST PUSH1 0x0 SWAP2 DUP3 MSTORE PUSH1 0x20 DUP1 DUP4 KECCAK256 SWAP1 SWAP2 ADD SLOAD DUP7 DUP4 MSTORE PUSH1 0xB DUP3 MSTORE PUSH1 0x40 SWAP3 DUP4 SWAP1 KECCAK256 DUP1 SLOAD DUP5 MLOAD DUP2 DUP6 MUL DUP2 ADD DUP6 ADD SWAP1 SWAP6 MSTORE DUP1 DUP6 MSTORE PUSH1 0x1 PUSH1 0x1 PUSH1 0xA0 SHL SUB SWAP1 SWAP3 AND SWAP7 POP SWAP2 DUP4 ADD DUP3 DUP3 DUP1 ISZERO PUSH2 0x2955 JUMPI PUSH1 0x20 MUL DUP3 ADD SWAP2 SWAP1 PUSH1 0x0 MSTORE PUSH1 0x20 PUSH1 0x0 KECCAK256 SWAP1 JUMPDEST DUP2 SLOAD PUSH1 0x1 PUSH1 0x1 PUSH1 0xA0 SHL SUB AND DUP2 MSTORE PUSH1 0x1 SWAP1 SWAP2 ADD SWAP1 PUSH1 0x20 ADD DUP1 DUP4 GT PUSH2 0x2937 JUMPI JUMPDEST POP POP POP POP POP SWAP2 POP JUMPDEST SWAP2 SWAP4 SWAP1 SWAP3 POP JUMP JUMPDEST PUSH1 0x40 MLOAD PUSH4 0x70A08231 PUSH1 0xE0 SHL DUP2 MSTORE ADDRESS PUSH1 0x4 DUP3 ADD MSTORE DUP6 SWAP1 PUSH1 0x0 SWAP1 PUSH1 0x1 PUSH1 0x1 PUSH1 0xA0 SHL SUB DUP4 AND SWAP1 PUSH4 0x70A08231 SWAP1 PUSH1 0x24 ADD PUSH1 0x20 PUSH1 0x40 MLOAD DUP1 DUP4 SUB DUP2 DUP7 GAS STATICCALL ISZERO DUP1 ISZERO PUSH2 0x29AD JUMPI RETURNDATASIZE PUSH1 0x0 DUP1 RETURNDATACOPY RETURNDATASIZE PUSH1 0x0 REVERT JUMPDEST POP POP POP POP PUSH1 0x40 MLOAD RETURNDATASIZE PUSH1 0x1F NOT PUSH1 0x1F DUP3 ADD AND DUP3 ADD DUP1 PUSH1 0x40 MSTORE POP DUP2 ADD SWAP1 PUSH2 0x29D1 SWAP2 SWAP1 PUSH2 0x36F3 JUMP JUMPDEST SWAP1 POP PUSH1 0x0 DUP5 PUSH2 0x29E4 JUMPI PUSH1 0x3 DUP8 ADD SLOAD PUSH2 0x29E7 JUMP JUMPDEST DUP7 SLOAD JUMPDEST SWAP1 POP PUSH1 0x0 DUP7 PUSH2 0x29F6 DUP4 DUP6 PUSH2 0x3722 JUMP JUMPDEST PUSH2 0x2A00 SWAP2 SWAP1 PUSH2 0x39BF JUMP JUMPDEST SWAP1 POP DUP1 ISZERO PUSH2 0x2A63 JUMPI PUSH1 0x40 MLOAD PUSH4 0x852CD8D PUSH1 0xE3 SHL DUP2 MSTORE PUSH1 0x4 DUP2 ADD DUP3 SWAP1 MSTORE PUSH1 0x1 PUSH1 0x1 PUSH1 0xA0 SHL SUB DUP6 AND SWAP1 PUSH4 0x42966C68 SWAP1 PUSH1 0x24 ADD PUSH1 0x0 PUSH1 0x40 MLOAD DUP1 DUP4 SUB DUP2 PUSH1 0x0 DUP8 DUP1 EXTCODESIZE ISZERO DUP1 ISZERO PUSH2 0x2A4A JUMPI PUSH1 0x0 DUP1 REVERT JUMPDEST POP GAS CALL ISZERO DUP1 ISZERO PUSH2 0x2A5E JUMPI RETURNDATASIZE PUSH1 0x0 DUP1 RETURNDATACOPY RETURNDATASIZE PUSH1 0x0 REVERT JUMPDEST POP POP POP POP JUMPDEST DUP6 PUSH2 0x2A72 JUMPI PUSH1 0x4 DUP9 ADD SLOAD PUSH2 0x2A75 JUMP JUMPDEST PUSH1 0x0 JUMPDEST SWAP2 POP DUP7 PUSH2 0x2A82 DUP4 DUP6 PUSH2 0x3722 JUMP JUMPDEST PUSH2 0x2A8C SWAP2 SWAP1 PUSH2 0x39BF JUMP JUMPDEST SWAP1 POP DUP1 ISZERO PUSH2 0x2BBA JUMPI PUSH1 0x1 PUSH1 0x1 PUSH1 0xA0 SHL SUB DUP5 AND PUSH4 0x95EA7B3 PUSH32 0x0 PUSH2 0x2ACF DUP5 PUSH1 0x2 PUSH2 0x3722 JUMP JUMPDEST PUSH1 0x40 MLOAD PUSH1 0x1 PUSH1 0x1 PUSH1 0xE0 SHL SUB NOT PUSH1 0xE0 DUP6 SWAP1 SHL AND DUP2 MSTORE PUSH1 0x1 PUSH1 0x1 PUSH1 0xA0 SHL SUB SWAP1 SWAP3 AND PUSH1 0x4 DUP4 ADD MSTORE PUSH1 0x24 DUP3 ADD MSTORE PUSH1 0x44 ADD PUSH1 0x20 PUSH1 0x40 MLOAD DUP1 DUP4 SUB DUP2 PUSH1 0x0 DUP8 GAS CALL ISZERO DUP1 ISZERO PUSH2 0x2B1A JUMPI RETURNDATASIZE PUSH1 0x0 DUP1 RETURNDATACOPY RETURNDATASIZE PUSH1 0x0 REVERT JUMPDEST POP POP POP POP PUSH1 0x40 MLOAD RETURNDATASIZE PUSH1 0x1F NOT PUSH1 0x1F DUP3 ADD AND DUP3 ADD DUP1 PUSH1 0x40 MSTORE POP DUP2 ADD SWAP1 PUSH2 0x2B3E SWAP2 SWAP1 PUSH2 0x3741 JUMP JUMPDEST POP PUSH1 0x40 MLOAD PUSH4 0x6172858B PUSH1 0xE1 SHL DUP2 MSTORE PUSH1 0x4 DUP2 ADD DUP3 SWAP1 MSTORE PUSH32 0x0 PUSH1 0x1 PUSH1 0x1 PUSH1 0xA0 SHL SUB AND SWAP1 PUSH4 0xC2E50B16 SWAP1 PUSH1 0x24 ADD PUSH1 0x0 PUSH1 0x40 MLOAD DUP1 DUP4 SUB DUP2 PUSH1 0x0 DUP8 DUP1 EXTCODESIZE ISZERO DUP1 ISZERO PUSH2 0x2BA1 JUMPI PUSH1 0x0 DUP1 REVERT JUMPDEST POP GAS CALL ISZERO DUP1 ISZERO PUSH2 0x2BB5 JUMPI RETURNDATASIZE PUSH1 0x0 DUP1 RETURNDATACOPY RETURNDATASIZE PUSH1 0x0 REVERT JUMPDEST POP POP POP POP JUMPDEST DUP6 PUSH2 0x2BC9 JUMPI PUSH1 0x5 DUP9 ADD SLOAD PUSH2 0x2BCC JUMP JUMPDEST PUSH1 0x0 JUMPDEST SWAP2 POP DUP7 PUSH2 0x2BD9 DUP4 DUP6 PUSH2 0x3722 JUMP JUMPDEST PUSH2 0x2BE3 SWAP2 SWAP1 PUSH2 0x39BF JUMP JUMPDEST SWAP1 POP DUP1 ISZERO PUSH2 0x2CDB JUMPI PUSH1 0x6 SLOAD PUSH1 0x1 PUSH1 0x1 PUSH1 0xA0 SHL SUB DUP1 DUP7 AND SWAP2 PUSH4 0x95EA7B3 SWAP2 AND PUSH2 0x2C0C DUP5 PUSH1 0x2 PUSH2 0x3722 JUMP JUMPDEST PUSH1 0x40 MLOAD PUSH1 0x1 PUSH1 0x1 PUSH1 0xE0 SHL SUB NOT PUSH1 0xE0 DUP6 SWAP1 SHL AND DUP2 MSTORE PUSH1 0x1 PUSH1 0x1 PUSH1 0xA0 SHL SUB SWAP1 SWAP3 AND PUSH1 0x4 DUP4 ADD MSTORE PUSH1 0x24 DUP3 ADD MSTORE PUSH1 0x44 ADD PUSH1 0x20 PUSH1 0x40 MLOAD DUP1 DUP4 SUB DUP2 PUSH1 0x0 DUP8 GAS CALL ISZERO DUP1 ISZERO PUSH2 0x2C57 JUMPI RETURNDATASIZE PUSH1 0x0 DUP1 RETURNDATACOPY RETURNDATASIZE PUSH1 0x0 REVERT JUMPDEST POP POP POP POP PUSH1 0x40 MLOAD RETURNDATASIZE PUSH1 0x1F NOT PUSH1 0x1F DUP3 ADD AND DUP3 ADD DUP1 PUSH1 0x40 MSTORE POP DUP2 ADD SWAP1 PUSH2 0x2C7B SWAP2 SWAP1 PUSH2 0x3741 JUMP JUMPDEST POP PUSH1 0x6 SLOAD PUSH1 0x40 MLOAD PUSH4 0x1C5FC483 PUSH1 0xE0 SHL DUP2 MSTORE PUSH1 0x4 DUP2 ADD DUP4 SWAP1 MSTORE PUSH1 0x1 PUSH1 0x1 PUSH1 0xA0 SHL SUB SWAP1 SWAP2 AND SWAP1 PUSH4 0x1C5FC483 SWAP1 PUSH1 0x24 ADD PUSH1 0x0 PUSH1 0x40 MLOAD DUP1 DUP4 SUB DUP2 PUSH1 0x0 DUP8 DUP1 EXTCODESIZE ISZERO DUP1 ISZERO PUSH2 0x2CC2 JUMPI PUSH1 0x0 DUP1 REVERT JUMPDEST POP GAS CALL ISZERO DUP1 ISZERO PUSH2 0x2CD6 JUMPI RETURNDATASIZE PUSH1 0x0 DUP1 RETURNDATACOPY RETURNDATASIZE PUSH1 0x0 REVERT JUMPDEST POP POP POP POP JUMPDEST PUSH1 0x40 MLOAD PUSH4 0x70A08231 PUSH1 0xE0 SHL DUP2 MSTORE ADDRESS PUSH1 0x4 DUP3 ADD MSTORE PUSH1 0x1 PUSH1 0x1 PUSH1 0xA0 SHL SUB DUP6 AND SWAP1 PUSH4 0x70A08231 SWAP1 PUSH1 0x24 ADD PUSH1 0x20 PUSH1 0x40 MLOAD DUP1 DUP4 SUB DUP2 DUP7 GAS STATICCALL ISZERO DUP1 ISZERO PUSH2 0x2D1F JUMPI RETURNDATASIZE PUSH1 0x0 DUP1 RETURNDATACOPY RETURNDATASIZE PUSH1 0x0 REVERT JUMPDEST POP POP POP POP PUSH1 0x40 MLOAD RETURNDATASIZE PUSH1 0x1F NOT PUSH1 0x1F DUP3 ADD AND DUP3 ADD DUP1 PUSH1 0x40 MSTORE POP DUP2 ADD SWAP1 PUSH2 0x2D43 SWAP2 SWAP1 PUSH2 0x36F3 JUMP JUMPDEST SWAP3 POP DUP6 ISZERO PUSH2 0x2D60 JUMPI PUSH2 0x2D58 DUP9 PUSH1 0x3 DUP2 ADD PUSH2 0x308A JUMP JUMPDEST POP SWAP7 POP PUSH2 0x2D71 JUMP JUMPDEST PUSH2 0x2D6D DUP9 PUSH1 0x3 DUP2 ADD PUSH2 0x308A JUMP JUMPDEST SWAP8 POP POP JUMPDEST DUP7 PUSH2 0x2D7F JUMPI POP POP POP POP PUSH2 0x306A JUMP JUMPDEST DUP6 PUSH2 0x2D8E JUMPI PUSH1 0x6 DUP9 ADD SLOAD PUSH2 0x2D94 JUMP JUMPDEST DUP8 PUSH1 0x1 ADD SLOAD JUMPDEST SWAP2 POP DUP7 PUSH2 0x2DA1 DUP4 DUP6 PUSH2 0x3722 JUMP JUMPDEST PUSH2 0x2DAB SWAP2 SWAP1 PUSH2 0x39BF JUMP JUMPDEST SWAP1 POP PUSH1 0x0 DUP8 PUSH2 0x2DBA DUP5 DUP9 PUSH2 0x3722 JUMP JUMPDEST PUSH2 0x2DC4 SWAP2 SWAP1 PUSH2 0x39BF JUMP JUMPDEST SWAP1 POP DUP2 ISZERO PUSH2 0x2F01 JUMPI PUSH1 0x1 SLOAD PUSH1 0x1 PUSH1 0x1 PUSH1 0xA0 SHL SUB DUP1 DUP8 AND SWAP2 PUSH4 0x95EA7B3 SWAP2 AND PUSH2 0x2DED DUP6 PUSH1 0x2 PUSH2 0x3722 JUMP JUMPDEST PUSH1 0x40 MLOAD PUSH1 0x1 PUSH1 0x1 PUSH1 0xE0 SHL SUB NOT PUSH1 0xE0 DUP6 SWAP1 SHL AND DUP2 MSTORE PUSH1 0x1 PUSH1 0x1 PUSH1 0xA0 SHL SUB SWAP1 SWAP3 AND PUSH1 0x4 DUP4 ADD MSTORE PUSH1 0x24 DUP3 ADD MSTORE PUSH1 0x44 ADD PUSH1 0x20 PUSH1 0x40 MLOAD DUP1 DUP4 SUB DUP2 PUSH1 0x0 DUP8 GAS CALL ISZERO DUP1 ISZERO PUSH2 0x2E38 JUMPI RETURNDATASIZE PUSH1 0x0 DUP1 RETURNDATACOPY RETURNDATASIZE PUSH1 0x0 REVERT JUMPDEST POP POP POP POP PUSH1 0x40 MLOAD RETURNDATASIZE PUSH1 0x1F NOT PUSH1 0x1F DUP3 ADD AND DUP3 ADD DUP1 PUSH1 0x40 MSTORE POP DUP2 ADD SWAP1 PUSH2 0x2E5C SWAP2 SWAP1 PUSH2 0x3741 JUMP JUMPDEST POP PUSH1 0x1 SLOAD PUSH1 0x40 MLOAD PUSH4 0xF305D719 PUSH1 0xE0 SHL DUP2 MSTORE PUSH1 0x1 PUSH1 0x1 PUSH1 0xA0 SHL SUB SWAP1 SWAP2 AND SWAP1 PUSH4 0xF305D719 SWAP1 DUP4 SWAP1 PUSH2 0x2EBA SWAP1 DUP10 SWAP1 DUP8 SWAP1 PUSH1 0x0 SWAP1 DUP2 SWAP1 PUSH32 0x0 SWAP1 TIMESTAMP SWAP1 PUSH1 0x4 ADD PUSH2 0x39E1 JUMP JUMPDEST PUSH1 0x60 PUSH1 0x40 MLOAD DUP1 DUP4 SUB DUP2 DUP6 DUP9 GAS CALL ISZERO DUP1 ISZERO PUSH2 0x2ED8 JUMPI RETURNDATASIZE PUSH1 0x0 DUP1 RETURNDATACOPY RETURNDATASIZE PUSH1 0x0 REVERT JUMPDEST POP POP POP POP POP PUSH1 0x40 MLOAD RETURNDATASIZE PUSH1 0x1F NOT PUSH1 0x1F DUP3 ADD AND DUP3 ADD DUP1 PUSH1 0x40 MSTORE POP DUP2 ADD SWAP1 PUSH2 0x2EFD SWAP2 SWAP1 PUSH2 0x3AAE JUMP JUMPDEST POP POP POP JUMPDEST DUP7 PUSH2 0x2F10 JUMPI PUSH1 0x7 DUP10 ADD SLOAD PUSH2 0x2F16 JUMP JUMPDEST DUP9 PUSH1 0x2 ADD SLOAD JUMPDEST SWAP3 POP DUP8 PUSH2 0x2F23 DUP5 DUP7 PUSH2 0x3722 JUMP JUMPDEST PUSH2 0x2F2D SWAP2 SWAP1 PUSH2 0x39BF JUMP JUMPDEST SWAP2 POP DUP8 PUSH2 0x2F3A DUP5 DUP9 PUSH2 0x3722 JUMP JUMPDEST PUSH2 0x2F44 SWAP2 SWAP1 PUSH2 0x39BF JUMP JUMPDEST SWAP1 POP DUP2 ISZERO PUSH2 0x3064 JUMPI PUSH1 0x1 SLOAD PUSH1 0x1 PUSH1 0x1 PUSH1 0xA0 SHL SUB DUP1 DUP8 AND SWAP2 PUSH4 0x95EA7B3 SWAP2 AND PUSH2 0x2F6D DUP6 PUSH1 0x2 PUSH2 0x3722 JUMP JUMPDEST PUSH1 0x40 MLOAD PUSH1 0x1 PUSH1 0x1 PUSH1 0xE0 SHL SUB NOT PUSH1 0xE0 DUP6 SWAP1 SHL AND DUP2 MSTORE PUSH1 0x1 PUSH1 0x1 PUSH1 0xA0 SHL SUB SWAP1 SWAP3 AND PUSH1 0x4 DUP4 ADD MSTORE PUSH1 0x24 DUP3 ADD MSTORE PUSH1 0x44 ADD PUSH1 0x20 PUSH1 0x40 MLOAD DUP1 DUP4 SUB DUP2 PUSH1 0x0 DUP8 GAS CALL ISZERO DUP1 ISZERO PUSH2 0x2FB8 JUMPI RETURNDATASIZE PUSH1 0x0 DUP1 RETURNDATACOPY RETURNDATASIZE PUSH1 0x0 REVERT JUMPDEST POP POP POP POP PUSH1 0x40 MLOAD RETURNDATASIZE PUSH1 0x1F NOT PUSH1 0x1F DUP3 ADD AND DUP3 ADD DUP1 PUSH1 0x40 MSTORE POP DUP2 ADD SWAP1 PUSH2 0x2FDC SWAP2 SWAP1 PUSH2 0x3741 JUMP JUMPDEST POP PUSH1 0x1 SLOAD PUSH1 0x5 SLOAD PUSH1 0x40 MLOAD PUSH4 0xF305D719 PUSH1 0xE0 SHL DUP2 MSTORE PUSH1 0x1 PUSH1 0x1 PUSH1 0xA0 SHL SUB SWAP3 DUP4 AND SWAP3 PUSH4 0xF305D719 SWAP3 DUP6 SWAP3 PUSH2 0x301D SWAP3 DUP12 SWAP3 DUP10 SWAP3 PUSH1 0x0 SWAP3 DUP4 SWAP3 AND SWAP1 TIMESTAMP SWAP1 PUSH1 0x4 ADD PUSH2 0x39E1 JUMP JUMPDEST PUSH1 0x60 PUSH1 0x40 MLOAD DUP1 DUP4 SUB DUP2 DUP6 DUP9 GAS CALL ISZERO DUP1 ISZERO PUSH2 0x303B JUMPI RETURNDATASIZE PUSH1 0x0 DUP1 RETURNDATACOPY RETURNDATASIZE PUSH1 0x0 REVERT JUMPDEST POP POP POP POP POP PUSH1 0x40 MLOAD RETURNDATASIZE PUSH1 0x1F NOT PUSH1 0x1F DUP3 ADD AND DUP3 ADD DUP1 PUSH1 0x40 MSTORE POP DUP2 ADD SWAP1 PUSH2 0x3060 SWAP2 SWAP1 PUSH2 0x3AAE JUMP JUMPDEST POP POP POP JUMPDEST POP POP POP POP POP JUMPDEST POP POP POP POP POP JUMP JUMPDEST PUSH1 0x60 PUSH2 0x3080 DUP5 DUP5 PUSH1 0x0 DUP6 PUSH2 0x30C0 JUMP JUMPDEST SWAP1 POP JUMPDEST SWAP4 SWAP3 POP POP POP JUMP JUMPDEST PUSH1 0x0 DUP1 DUP4 PUSH1 0x2 ADD SLOAD DUP5 PUSH1 0x1 ADD SLOAD PUSH2 0x30A1 SWAP2 SWAP1 PUSH2 0x3A5F JUMP JUMPDEST SWAP2 POP DUP3 PUSH1 0x4 ADD SLOAD DUP4 PUSH1 0x3 ADD SLOAD PUSH2 0x30B7 SWAP2 SWAP1 PUSH2 0x3A5F JUMP JUMPDEST SWAP1 POP SWAP3 POP SWAP3 SWAP1 POP JUMP JUMPDEST PUSH1 0x60 DUP3 SELFBALANCE LT ISZERO PUSH2 0x3121 JUMPI PUSH1 0x40 MLOAD PUSH3 0x461BCD PUSH1 0xE5 SHL DUP2 MSTORE PUSH1 0x20 PUSH1 0x4 DUP3 ADD MSTORE PUSH1 0x26 PUSH1 0x24 DUP3 ADD MSTORE PUSH32 0x416464726573733A20696E73756666696369656E742062616C616E636520666F PUSH1 0x44 DUP3 ADD MSTORE PUSH6 0x1C8818D85B1B PUSH1 0xD2 SHL PUSH1 0x64 DUP3 ADD MSTORE PUSH1 0x84 ADD PUSH2 0x6C1 JUMP JUMPDEST PUSH1 0x1 PUSH1 0x1 PUSH1 0xA0 SHL SUB DUP6 AND EXTCODESIZE PUSH2 0x3178 JUMPI PUSH1 0x40 MLOAD PUSH3 0x461BCD PUSH1 0xE5 SHL DUP2 MSTORE PUSH1 0x20 PUSH1 0x4 DUP3 ADD MSTORE PUSH1 0x1D PUSH1 0x24 DUP3 ADD MSTORE PUSH32 0x416464726573733A2063616C6C20746F206E6F6E2D636F6E7472616374000000 PUSH1 0x44 DUP3 ADD MSTORE PUSH1 0x64 ADD PUSH2 0x6C1 JUMP JUMPDEST PUSH1 0x0 DUP1 DUP7 PUSH1 0x1 PUSH1 0x1 PUSH1 0xA0 SHL SUB AND DUP6 DUP8 PUSH1 0x40 MLOAD PUSH2 0x3194 SWAP2 SWAP1 PUSH2 0x3B08 JUMP JUMPDEST PUSH1 0x0 PUSH1 0x40 MLOAD DUP1 DUP4 SUB DUP2 DUP6 DUP8 GAS CALL SWAP3 POP POP POP RETURNDATASIZE DUP1 PUSH1 0x0 DUP2 EQ PUSH2 0x31D1 JUMPI PUSH1 0x40 MLOAD SWAP2 POP PUSH1 0x1F NOT PUSH1 0x3F RETURNDATASIZE ADD AND DUP3 ADD PUSH1 0x40 MSTORE RETURNDATASIZE DUP3 MSTORE RETURNDATASIZE PUSH1 0x0 PUSH1 0x20 DUP5 ADD RETURNDATACOPY PUSH2 0x31D6 JUMP JUMPDEST PUSH1 0x60 SWAP2 POP JUMPDEST POP SWAP2 POP SWAP2 POP PUSH2 0x31E6 DUP3 DUP3 DUP7 PUSH2 0x31F1 JUMP JUMPDEST SWAP8 SWAP7 POP POP POP POP POP POP POP JUMP JUMPDEST PUSH1 0x60 DUP4 ISZERO PUSH2 0x3200 JUMPI POP DUP2 PUSH2 0x3083 JUMP JUMPDEST DUP3 MLOAD ISZERO PUSH2 0x3210 JUMPI DUP3 MLOAD DUP1 DUP5 PUSH1 0x20 ADD REVERT JUMPDEST DUP2 PUSH1 0x40 MLOAD PUSH3 0x461BCD PUSH1 0xE5 SHL DUP2 MSTORE PUSH1 0x4 ADD PUSH2 0x6C1 SWAP2 SWAP1 PUSH2 0x3B24 JUMP JUMPDEST DUP3 PUSH1 0x3 DUP2 ADD SWAP3 DUP3 ISZERO PUSH2 0x3258 JUMPI SWAP2 PUSH1 0x20 MUL DUP3 ADD JUMPDEST DUP3 DUP2 GT ISZERO PUSH2 0x3258 JUMPI DUP3 MLOAD DUP3 SSTORE SWAP2 PUSH1 0x20 ADD SWAP2 SWAP1 PUSH1 0x1 ADD SWAP1 PUSH2 0x323D JUMP JUMPDEST POP PUSH2 0x3264 SWAP3 SWAP2 POP PUSH2 0x3324 JUMP JUMPDEST POP SWAP1 JUMP JUMPDEST DUP3 PUSH1 0x5 DUP2 ADD SWAP3 DUP3 ISZERO PUSH2 0x3258 JUMPI SWAP2 PUSH1 0x20 MUL DUP3 ADD DUP3 DUP2 GT ISZERO PUSH2 0x3258 JUMPI DUP3 MLOAD DUP3 SSTORE SWAP2 PUSH1 0x20 ADD SWAP2 SWAP1 PUSH1 0x1 ADD SWAP1 PUSH2 0x323D JUMP JUMPDEST DUP3 DUP1 SLOAD DUP3 DUP3 SSTORE SWAP1 PUSH1 0x0 MSTORE PUSH1 0x20 PUSH1 0x0 KECCAK256 SWAP1 DUP2 ADD SWAP3 DUP3 ISZERO PUSH2 0x3258 JUMPI SWAP2 PUSH1 0x20 MUL DUP3 ADD JUMPDEST DUP3 DUP2 GT ISZERO PUSH2 0x3258 JUMPI DUP2 SLOAD PUSH1 0x1 PUSH1 0x1 PUSH1 0xA0 SHL SUB NOT AND PUSH1 0x1 PUSH1 0x1 PUSH1 0xA0 SHL SUB DUP5 CALLDATALOAD AND OR DUP3 SSTORE PUSH1 0x20 SWAP1 SWAP3 ADD SWAP2 PUSH1 0x1 SWAP1 SWAP2 ADD SWAP1 PUSH2 0x32B5 JUMP JUMPDEST PUSH1 0x40 MLOAD DUP1 PUSH1 0x60 ADD PUSH1 0x40 MSTORE DUP1 PUSH1 0x3 SWAP1 PUSH1 0x20 DUP3 MUL DUP1 CALLDATASIZE DUP4 CALLDATACOPY POP SWAP2 SWAP3 SWAP2 POP POP JUMP JUMPDEST PUSH1 0x40 MLOAD DUP1 PUSH1 0xA0 ADD PUSH1 0x40 MSTORE DUP1 PUSH1 0x5 SWAP1 PUSH1 0x20 DUP3 MUL DUP1 CALLDATASIZE DUP4 CALLDATACOPY POP SWAP2 SWAP3 SWAP2 POP POP JUMP JUMPDEST JUMPDEST DUP1 DUP3 GT ISZERO PUSH2 0x3264 JUMPI PUSH1 0x0 DUP2 SSTORE PUSH1 0x1 ADD PUSH2 0x3325 JUMP JUMPDEST PUSH1 0x1 PUSH1 0x1 PUSH1 0xA0 SHL SUB DUP2 AND DUP2 EQ PUSH2 0x15A6 JUMPI PUSH1 0x0 DUP1 REVERT JUMPDEST PUSH1 0x0 PUSH1 0x20 DUP3 DUP5 SUB SLT ISZERO PUSH2 0x3360 JUMPI PUSH1 0x0 DUP1 REVERT JUMPDEST DUP2 CALLDATALOAD PUSH2 0x3083 DUP2 PUSH2 0x3339 JUMP JUMPDEST PUSH1 0x0 PUSH1 0x20 DUP3 DUP5 SUB SLT ISZERO PUSH2 0x337D JUMPI PUSH1 0x0 DUP1 REVERT JUMPDEST POP CALLDATALOAD SWAP2 SWAP1 POP JUMP JUMPDEST PUSH1 0x0 DUP1 PUSH1 0x40 DUP4 DUP6 SUB SLT ISZERO PUSH2 0x3397 JUMPI PUSH1 0x0 DUP1 REVERT JUMPDEST POP POP DUP1 CALLDATALOAD SWAP3 PUSH1 0x20 SWAP1 SWAP2 ADD CALLDATALOAD SWAP2 POP JUMP JUMPDEST DUP1 ISZERO ISZERO DUP2 EQ PUSH2 0x15A6 JUMPI PUSH1 0x0 DUP1 REVERT JUMPDEST PUSH1 0x0 PUSH1 0x20 DUP3 DUP5 SUB SLT ISZERO PUSH2 0x33C6 JUMPI PUSH1 0x0 DUP1 REVERT JUMPDEST DUP2 CALLDATALOAD PUSH2 0x3083 DUP2 PUSH2 0x33A6 JUMP JUMPDEST DUP1 PUSH1 0x60 DUP2 ADD DUP4 LT ISZERO PUSH2 0x2081 JUMPI PUSH1 0x0 DUP1 REVERT JUMPDEST DUP1 PUSH1 0xA0 DUP2 ADD DUP4 LT ISZERO PUSH2 0x2081 JUMPI PUSH1 0x0 DUP1 REVERT JUMPDEST DUP1 CALLDATALOAD PUSH2 0x33FE DUP2 PUSH2 0x3339 JUMP JUMPDEST SWAP2 SWAP1 POP JUMP JUMPDEST PUSH1 0x0 DUP1 DUP4 PUSH1 0x1F DUP5 ADD SLT PUSH2 0x3415 JUMPI PUSH1 0x0 DUP1 REVERT JUMPDEST POP DUP2 CALLDATALOAD PUSH8 0xFFFFFFFFFFFFFFFF DUP2 GT ISZERO PUSH2 0x342D JUMPI PUSH1 0x0 DUP1 REVERT JUMPDEST PUSH1 0x20 DUP4 ADD SWAP2 POP DUP4 PUSH1 0x20 DUP3 PUSH1 0x5 SHL DUP6 ADD ADD GT ISZERO PUSH2 0x3448 JUMPI PUSH1 0x0 DUP1 REVERT JUMPDEST SWAP3 POP SWAP3 SWAP1 POP JUMP JUMPDEST PUSH1 0x0 DUP1 PUSH1 0x0 DUP1 PUSH1 0x0 DUP1 PUSH1 0x0 DUP1 PUSH1 0x0 DUP1 PUSH1 0x0 PUSH2 0x200 DUP13 DUP15 SUB SLT ISZERO PUSH2 0x3471 JUMPI PUSH1 0x0 DUP1 REVERT JUMPDEST DUP12 CALLDATALOAD SWAP11 POP PUSH2 0x3482 DUP14 PUSH1 0x20 DUP15 ADD PUSH2 0x33D1 JUMP JUMPDEST SWAP10 POP PUSH2 0x3491 DUP14 PUSH1 0x80 DUP15 ADD PUSH2 0x33E2 JUMP JUMPDEST SWAP9 POP PUSH2 0x34A1 DUP14 PUSH2 0x120 DUP15 ADD PUSH2 0x33D1 JUMP JUMPDEST SWAP8 POP PUSH2 0x34B0 PUSH2 0x180 DUP14 ADD PUSH2 0x33F3 JUMP JUMPDEST SWAP7 POP PUSH8 0xFFFFFFFFFFFFFFFF DUP1 PUSH2 0x1A0 DUP15 ADD CALLDATALOAD GT ISZERO PUSH2 0x34CD JUMPI PUSH1 0x0 DUP1 REVERT JUMPDEST PUSH2 0x34DE DUP15 PUSH2 0x1A0 DUP16 ADD CALLDATALOAD DUP16 ADD PUSH2 0x3403 JUMP JUMPDEST SWAP1 SWAP8 POP SWAP6 POP PUSH2 0x1C0 DUP14 ADD CALLDATALOAD DUP2 LT ISZERO PUSH2 0x34F5 JUMPI PUSH1 0x0 DUP1 REVERT JUMPDEST PUSH2 0x3506 DUP15 PUSH2 0x1C0 DUP16 ADD CALLDATALOAD DUP16 ADD PUSH2 0x3403 JUMP JUMPDEST SWAP1 SWAP6 POP SWAP4 POP PUSH2 0x1E0 DUP14 ADD CALLDATALOAD DUP2 LT ISZERO PUSH2 0x351D JUMPI PUSH1 0x0 DUP1 REVERT JUMPDEST POP PUSH2 0x352F DUP14 PUSH2 0x1E0 DUP15 ADD CALLDATALOAD DUP15 ADD PUSH2 0x3403 JUMP JUMPDEST DUP2 SWAP4 POP DUP1 SWAP3 POP POP POP SWAP3 SWAP6 SWAP9 SWAP12 POP SWAP3 SWAP6 SWAP9 SWAP12 SWAP1 SWAP4 SWAP7 SWAP10 POP JUMP JUMPDEST PUSH1 0x0 DUP1 PUSH1 0x0 DUP1 PUSH1 0x0 DUP1 PUSH1 0x0 PUSH1 0x80 DUP9 DUP11 SUB SLT ISZERO PUSH2 0x3562 JUMPI PUSH1 0x0 DUP1 REVERT JUMPDEST DUP8 CALLDATALOAD SWAP7 POP PUSH1 0x20 DUP9 ADD CALLDATALOAD PUSH8 0xFFFFFFFFFFFFFFFF DUP1 DUP3 GT ISZERO PUSH2 0x3581 JUMPI PUSH1 0x0 DUP1 REVERT JUMPDEST PUSH2 0x358D DUP12 DUP4 DUP13 ADD PUSH2 0x3403 JUMP JUMPDEST SWAP1 SWAP9 POP SWAP7 POP PUSH1 0x40 DUP11 ADD CALLDATALOAD SWAP2 POP DUP1 DUP3 GT ISZERO PUSH2 0x35A6 JUMPI PUSH1 0x0 DUP1 REVERT JUMPDEST PUSH2 0x35B2 DUP12 DUP4 DUP13 ADD PUSH2 0x3403 JUMP JUMPDEST SWAP1 SWAP7 POP SWAP5 POP PUSH1 0x60 DUP11 ADD CALLDATALOAD SWAP2 POP DUP1 DUP3 GT ISZERO PUSH2 0x35CB JUMPI PUSH1 0x0 DUP1 REVERT JUMPDEST POP PUSH2 0x35D8 DUP11 DUP3 DUP12 ADD PUSH2 0x3403 JUMP JUMPDEST SWAP9 SWAP12 SWAP8 SWAP11 POP SWAP6 SWAP9 POP SWAP4 SWAP7 SWAP3 SWAP6 SWAP3 SWAP4 POP POP POP JUMP JUMPDEST PUSH2 0x100 DUP2 ADD DUP2 DUP5 PUSH1 0x0 JUMPDEST PUSH1 0x3 DUP2 LT ISZERO PUSH2 0x3614 JUMPI DUP2 MLOAD DUP4 MSTORE PUSH1 0x20 SWAP3 DUP4 ADD SWAP3 SWAP1 SWAP2 ADD SWAP1 PUSH1 0x1 ADD PUSH2 0x35F5 JUMP JUMPDEST POP POP POP PUSH1 0x60 DUP3 ADD DUP4 PUSH1 0x0 JUMPDEST PUSH1 0x5 DUP2 LT ISZERO PUSH2 0x363E JUMPI DUP2 MLOAD DUP4 MSTORE PUSH1 0x20 SWAP3 DUP4 ADD SWAP3 SWAP1 SWAP2 ADD SWAP1 PUSH1 0x1 ADD PUSH2 0x361F JUMP JUMPDEST POP POP POP SWAP4 SWAP3 POP POP POP JUMP JUMPDEST PUSH1 0x20 DUP1 DUP3 MSTORE DUP2 DUP2 ADD MSTORE PUSH32 0x4F776E61626C653A2063616C6C6572206973206E6F7420746865206F776E6572 PUSH1 0x40 DUP3 ADD MSTORE PUSH1 0x60 ADD SWAP1 JUMP JUMPDEST PUSH1 0x0 DUP1 PUSH1 0x0 DUP1 PUSH1 0x0 DUP1 PUSH1 0x0 PUSH1 0xE0 DUP9 DUP11 SUB SLT ISZERO PUSH2 0x3698 JUMPI PUSH1 0x0 DUP1 REVERT JUMPDEST DUP8 MLOAD PUSH2 0x36A3 DUP2 PUSH2 0x33A6 JUMP JUMPDEST DUP1 SWAP8 POP POP PUSH1 0x20 DUP9 ADD MLOAD SWAP6 POP PUSH1 0x40 DUP9 ADD MLOAD SWAP5 POP PUSH1 0x60 DUP9 ADD MLOAD PUSH2 0x36C3 DUP2 PUSH2 0x3339 JUMP JUMPDEST DUP1 SWAP5 POP POP PUSH1 0x80 DUP9 ADD MLOAD SWAP3 POP PUSH1 0xA0 DUP9 ADD MLOAD SWAP2 POP PUSH1 0xC0 DUP9 ADD MLOAD PUSH2 0x36E3 DUP2 PUSH2 0x33A6 JUMP JUMPDEST DUP1 SWAP2 POP POP SWAP3 SWAP6 SWAP9 SWAP2 SWAP5 SWAP8 POP SWAP3 SWAP6 POP JUMP JUMPDEST PUSH1 0x0 PUSH1 0x20 DUP3 DUP5 SUB SLT ISZERO PUSH2 0x3705 JUMPI PUSH1 0x0 DUP1 REVERT JUMPDEST POP MLOAD SWAP2 SWAP1 POP JUMP JUMPDEST PUSH4 0x4E487B71 PUSH1 0xE0 SHL PUSH1 0x0 MSTORE PUSH1 0x11 PUSH1 0x4 MSTORE PUSH1 0x24 PUSH1 0x0 REVERT JUMPDEST PUSH1 0x0 DUP2 PUSH1 0x0 NOT DIV DUP4 GT DUP3 ISZERO ISZERO AND ISZERO PUSH2 0x373C JUMPI PUSH2 0x373C PUSH2 0x370C JUMP JUMPDEST POP MUL SWAP1 JUMP JUMPDEST PUSH1 0x0 PUSH1 0x20 DUP3 DUP5 SUB SLT ISZERO PUSH2 0x3753 JUMPI PUSH1 0x0 DUP1 REVERT JUMPDEST DUP2 MLOAD PUSH2 0x3083 DUP2 PUSH2 0x33A6 JUMP JUMPDEST PUSH1 0x0 DUP2 SLOAD DUP1 DUP5 MSTORE PUSH1 0x20 DUP1 DUP6 ADD SWAP5 POP DUP4 PUSH1 0x0 MSTORE DUP1 PUSH1 0x0 KECCAK256 PUSH1 0x0 JUMPDEST DUP4 DUP2 LT ISZERO PUSH2 0x379C JUMPI DUP2 SLOAD PUSH1 0x1 PUSH1 0x1 PUSH1 0xA0 SHL SUB AND DUP8 MSTORE SWAP6 DUP3 ADD SWAP6 PUSH1 0x1 SWAP2 DUP3 ADD SWAP2 ADD PUSH2 0x3777 JUMP JUMPDEST POP SWAP5 SWAP6 SWAP5 POP POP POP POP POP JUMP JUMPDEST DUP6 DUP2 MSTORE DUP5 PUSH1 0x20 DUP3 ADD MSTORE PUSH1 0xA0 PUSH1 0x40 DUP3 ADD MSTORE PUSH1 0x0 PUSH2 0x37C6 PUSH1 0xA0 DUP4 ADD DUP7 PUSH2 0x375E JUMP JUMPDEST PUSH1 0x1 PUSH1 0x1 PUSH1 0xA0 SHL SUB SWAP5 SWAP1 SWAP5 AND PUSH1 0x60 DUP4 ADD MSTORE POP PUSH1 0x80 ADD MSTORE SWAP4 SWAP3 POP POP POP JUMP JUMPDEST PUSH4 0x4E487B71 PUSH1 0xE0 SHL PUSH1 0x0 MSTORE PUSH1 0x41 PUSH1 0x4 MSTORE PUSH1 0x24 PUSH1 0x0 REVERT JUMPDEST PUSH1 0x0 PUSH1 0x20 DUP1 DUP4 DUP6 SUB SLT ISZERO PUSH2 0x380C JUMPI PUSH1 0x0 DUP1 REVERT JUMPDEST DUP3 MLOAD PUSH8 0xFFFFFFFFFFFFFFFF DUP1 DUP3 GT ISZERO PUSH2 0x3824 JUMPI PUSH1 0x0 DUP1 REVERT JUMPDEST DUP2 DUP6 ADD SWAP2 POP DUP6 PUSH1 0x1F DUP4 ADD SLT PUSH2 0x3838 JUMPI PUSH1 0x0 DUP1 REVERT JUMPDEST DUP2 MLOAD DUP2 DUP2 GT ISZERO PUSH2 0x384A JUMPI PUSH2 0x384A PUSH2 0x37E3 JUMP JUMPDEST DUP1 PUSH1 0x5 SHL PUSH1 0x40 MLOAD PUSH1 0x1F NOT PUSH1 0x3F DUP4 ADD AND DUP2 ADD DUP2 DUP2 LT DUP6 DUP3 GT OR ISZERO PUSH2 0x386F JUMPI PUSH2 0x386F PUSH2 0x37E3 JUMP JUMPDEST PUSH1 0x40 MSTORE SWAP2 DUP3 MSTORE DUP5 DUP3 ADD SWAP3 POP DUP4 DUP2 ADD DUP6 ADD SWAP2 DUP9 DUP4 GT ISZERO PUSH2 0x388D JUMPI PUSH1 0x0 DUP1 REVERT JUMPDEST SWAP4 DUP6 ADD SWAP4 JUMPDEST DUP3 DUP6 LT ISZERO PUSH2 0x38AB JUMPI DUP5 MLOAD DUP5 MSTORE SWAP4 DUP6 ADD SWAP4 SWAP3 DUP6 ADD SWAP3 PUSH2 0x3892 JUMP JUMPDEST SWAP9 SWAP8 POP POP POP POP POP POP POP POP JUMP JUMPDEST PUSH1 0x0 PUSH1 0x20 DUP3 DUP5 SUB SLT ISZERO PUSH2 0x38C9 JUMPI PUSH1 0x0 DUP1 REVERT JUMPDEST DUP2 MLOAD PUSH2 0x3083 DUP2 PUSH2 0x3339 JUMP JUMPDEST PUSH4 0x4E487B71 PUSH1 0xE0 SHL PUSH1 0x0 MSTORE PUSH1 0x32 PUSH1 0x4 MSTORE PUSH1 0x24 PUSH1 0x0 REVERT JUMPDEST PUSH1 0x0 DUP2 MLOAD DUP1 DUP5 MSTORE PUSH1 0x20 DUP1 DUP6 ADD SWAP5 POP DUP1 DUP5 ADD PUSH1 0x0 JUMPDEST DUP4 DUP2 LT ISZERO PUSH2 0x379C JUMPI DUP2 MLOAD PUSH1 0x1 PUSH1 0x1 PUSH1 0xA0 SHL SUB AND DUP8 MSTORE SWAP6 DUP3 ADD SWAP6 SWAP1 DUP3 ADD SWAP1 PUSH1 0x1 ADD PUSH2 0x38FE JUMP JUMPDEST DUP5 DUP2 MSTORE PUSH1 0x80 PUSH1 0x20 DUP3 ADD MSTORE PUSH1 0x0 PUSH2 0x393C PUSH1 0x80 DUP4 ADD DUP7 PUSH2 0x38EA JUMP JUMPDEST PUSH1 0x1 PUSH1 0x1 PUSH1 0xA0 SHL SUB SWAP5 SWAP1 SWAP5 AND PUSH1 0x40 DUP4 ADD MSTORE POP PUSH1 0x60 ADD MSTORE SWAP3 SWAP2 POP POP JUMP JUMPDEST DUP1 MLOAD PUSH1 0x1 PUSH1 0x1 PUSH1 0x70 SHL SUB DUP2 AND DUP2 EQ PUSH2 0x33FE JUMPI PUSH1 0x0 DUP1 REVERT JUMPDEST PUSH1 0x0 DUP1 PUSH1 0x0 PUSH1 0x60 DUP5 DUP7 SUB SLT ISZERO PUSH2 0x3984 JUMPI PUSH1 0x0 DUP1 REVERT JUMPDEST PUSH2 0x398D DUP5 PUSH2 0x3958 JUMP JUMPDEST SWAP3 POP PUSH2 0x399B PUSH1 0x20 DUP6 ADD PUSH2 0x3958 JUMP JUMPDEST SWAP2 POP PUSH1 0x40 DUP5 ADD MLOAD PUSH4 0xFFFFFFFF DUP2 AND DUP2 EQ PUSH2 0x39B4 JUMPI PUSH1 0x0 DUP1 REVERT JUMPDEST DUP1 SWAP2 POP POP SWAP3 POP SWAP3 POP SWAP3 JUMP JUMPDEST PUSH1 0x0 DUP3 PUSH2 0x39DC JUMPI PUSH4 0x4E487B71 PUSH1 0xE0 SHL PUSH1 0x0 MSTORE PUSH1 0x12 PUSH1 0x4 MSTORE PUSH1 0x24 PUSH1 0x0 REVERT JUMPDEST POP DIV SWAP1 JUMP JUMPDEST PUSH1 0x1 PUSH1 0x1 PUSH1 0xA0 SHL SUB SWAP7 DUP8 AND DUP2 MSTORE PUSH1 0x20 DUP2 ADD SWAP6 SWAP1 SWAP6 MSTORE PUSH1 0x40 DUP6 ADD SWAP4 SWAP1 SWAP4 MSTORE PUSH1 0x60 DUP5 ADD SWAP2 SWAP1 SWAP2 MSTORE SWAP1 SWAP3 AND PUSH1 0x80 DUP3 ADD MSTORE PUSH1 0xA0 DUP2 ADD SWAP2 SWAP1 SWAP2 MSTORE PUSH1 0xC0 ADD SWAP1 JUMP JUMPDEST PUSH1 0x0 DUP1 PUSH1 0x40 DUP4 DUP6 SUB SLT ISZERO PUSH2 0x3A2F JUMPI PUSH1 0x0 DUP1 REVERT JUMPDEST POP POP DUP1 MLOAD PUSH1 0x20 SWAP1 SWAP2 ADD MLOAD SWAP1 SWAP3 SWAP1 SWAP2 POP JUMP JUMPDEST DUP6 DUP2 MSTORE DUP5 PUSH1 0x20 DUP3 ADD MSTORE PUSH1 0xA0 PUSH1 0x40 DUP3 ADD MSTORE PUSH1 0x0 PUSH2 0x37C6 PUSH1 0xA0 DUP4 ADD DUP7 PUSH2 0x38EA JUMP JUMPDEST PUSH1 0x0 DUP3 NOT DUP3 GT ISZERO PUSH2 0x3A72 JUMPI PUSH2 0x3A72 PUSH2 0x370C JUMP JUMPDEST POP ADD SWAP1 JUMP JUMPDEST PUSH1 0x0 PUSH1 0xFF DUP3 AND PUSH1 0xFF DUP2 EQ ISZERO PUSH2 0x3A8E JUMPI PUSH2 0x3A8E PUSH2 0x370C JUMP JUMPDEST PUSH1 0x1 ADD SWAP3 SWAP2 POP POP JUMP JUMPDEST PUSH1 0x0 DUP3 DUP3 LT ISZERO PUSH2 0x3AA9 JUMPI PUSH2 0x3AA9 PUSH2 0x370C JUMP JUMPDEST POP SUB SWAP1 JUMP JUMPDEST PUSH1 0x0 DUP1 PUSH1 0x0 PUSH1 0x60 DUP5 DUP7 SUB SLT ISZERO PUSH2 0x3AC3 JUMPI PUSH1 0x0 DUP1 REVERT JUMPDEST DUP4 MLOAD SWAP3 POP PUSH1 0x20 DUP5 ADD MLOAD SWAP2 POP PUSH1 0x40 DUP5 ADD MLOAD SWAP1 POP SWAP3 POP SWAP3 POP SWAP3 JUMP JUMPDEST PUSH1 0x0 JUMPDEST DUP4 DUP2 LT ISZERO PUSH2 0x3AF7 JUMPI DUP2 DUP2 ADD MLOAD DUP4 DUP3 ADD MSTORE PUSH1 0x20 ADD PUSH2 0x3ADF JUMP JUMPDEST DUP4 DUP2 GT ISZERO PUSH2 0x16BB JUMPI POP POP PUSH1 0x0 SWAP2 ADD MSTORE JUMP JUMPDEST PUSH1 0x0 DUP3 MLOAD PUSH2 0x3B1A DUP2 DUP5 PUSH1 0x20 DUP8 ADD PUSH2 0x3ADC JUMP JUMPDEST SWAP2 SWAP1 SWAP2 ADD SWAP3 SWAP2 POP POP JUMP JUMPDEST PUSH1 0x20 DUP2 MSTORE PUSH1 0x0 DUP3 MLOAD DUP1 PUSH1 0x20 DUP5 ADD MSTORE PUSH2 0x3B43 DUP2 PUSH1 0x40 DUP6 ADD PUSH1 0x20 DUP8 ADD PUSH2 0x3ADC JUMP JUMPDEST PUSH1 0x1F ADD PUSH1 0x1F NOT AND SWAP2 SWAP1 SWAP2 ADD PUSH1 0x40 ADD SWAP3 SWAP2 POP POP JUMP INVALID LOG2 PUSH5 0x6970667358 0x22 SLT KECCAK256 0xF6 0xB2 KECCAK256 AND MSTORE EXTCODECOPY 0xE1 MSTORE SWAP1 0xC5 0xB9 CALLDATACOPY 0xD5 0xBE 0xF9 EXTCODEHASH 0xE0 SWAP4 PUSH3 0x7546AE CALLDATALOAD SWAP11 MSTORE8 DUP2 0xCD 0xEB 0x49 DUP8 SHR 0xE6 PUSH5 0x736F6C6343 STOP ADDMOD 0xC STOP CALLER ","sha1":"c6827a5ca576aff60a0d81d9fc0c447f82cf1cc1","source":"// SPDX-License-Identifier: MIT\npragma solidity 0.8.12;\n\nimport \"@openzeppelin/contracts/access/Ownable.sol\";\nimport \"@openzeppelin/contracts/token/ERC20/IERC20.sol\";\nimport \"@openzeppelin/contracts/token/ERC20/extensions/ERC20Burnable.sol\";\nimport \"@openzeppelin/contracts/token/ERC20/utils/SafeERC20.sol\";\nimport \"./GalacticChef.sol\";\nimport \"../interfaces/IPancakePair.sol\";\nimport \"../interfaces/IPancakeRouter.sol\";\nimport \"../interfaces/IBankroll.sol\";\nimport \"../interfaces/ILottery.sol\";\n\n//import \"../interfaces/IFeeDistributor.sol\";\n///@dev use interface IFeeDistributor\n\ncontract FeeDistributorV2 is Ownable {\n    using SafeERC20 for ERC20Burnable;\n    using SafeERC20 for IERC20;\n\n    struct FeeData {\n        /** Fees in array are as follows [CRUSH] [NICE]\n         * [0][0](bbb) Buy back and Burn (NICE | CRUSH) CHECK THAT SELECTED TOKEN HAS BEEN BURNED IN TOKEN CONTRACT REVISAR TOTAL SUPPLY\n         * [1](bbd) Buy back and DISTRIBUTE (CRUSH) SENDS CRUSH TO BANKSTAKING\n         * [2](bbl) Buy back and LOTTERY (CRUSH) SENDS CRUSH TO LOTTERY POOL\n         * [3][1](lqPermanent) PERMANENT LIQUIDITY (NICE | CRUSH)/BNB\n         * [4][2](lqLock) LOCKED LIQUIDITY (NICE | CRUSH)/BNB\n         * 0-4 need to be <= 100% Whatever is left, we send to marketing wallet\n         * REST - MARKETING FUNDS -> BNB\n         **/\n        uint256[3] niceFees;\n        uint256[5] crushFees;\n        bool initialized; // Fail transactions where fees have not been added\n        bool hasFees; // If token charges fees on transfers need to use swapTokensForEthSupportingFeesOnTransferToken function instead\n        bool token0Fees; // FOR LP IN CASE IT HAS FEES\n        bool token1Fees; // FOR LP IN CASE ITS TOKEN HAS FEES\n        /**\n            if it's an LP token we need to remove that Liquidity\n            else it's a Single asset token and have to swap it for core ETH (BNB)\n            before buying anything else.\n        **/\n        IPancakeRouter router; // main router for this token\n    }\n    address public immutable CRUSH;\n    address public immutable NICE;\n    address public immutable deadWallet =\n        0x000000000000000000000000000000000000dEaD;\n    IPancakeRouter public tokenRouter; //used for CRUSH and NICE\n    address public niceLiquidity;\n    uint256 public idoPrice;\n    address public teamWallet;\n    address public lock;\n    IBitcrushBankroll public immutable bankroll;\n    IBitcrushLottery public lottery;\n\n    bool public reachForIdo;\n\n    uint256 public constant DIVISOR = 10000; // 100.00%\n    GalacticChef public chef;\n\n    mapping(uint256 => FeeData) public feeData;\n    mapping(uint256 => address[]) public tokenPath; // RECEIVED TOKEN TO WBNB\n    mapping(uint256 => address[]) public token0Path; // LP TOKEN 0 TO WBNB\n    mapping(uint256 => address[]) public token1Path; // LP TOKEN 1 TO WBNB\n\n    event AddPoolFee(uint256 indexed _pid);\n    event EditFee(uint256 indexed _pid, uint256 bb, uint256 liq, uint256 team);\n    event UpdateRouter(uint256 indexed _pid, address router);\n    event UpdatePath(uint256 indexed _pid, address router);\n    event UpdateTeamWallet(address _teamW);\n    event UpdateMainRouter(address _router);\n    event FundsDistributed(uint256 amount, address _token);\n    event TeamFundsDistributed(bool _success, uint256 amount);\n    event UpdateTargetPrice(uint256 _target);\n    event UpdateLotteryAddress(address _newLotteery, address _oldLottery);\n    event SeachForTarget(bool _isOn);\n\n    modifier onlyChef() {\n        require(msg.sender == address(chef), \"onlyChef\");\n        _;\n    }\n\n    constructor(\n        address _chef,\n        uint256 _idoPrice,\n        address _nicePair,\n        address _bankroll,\n        address _lottery,\n        address _lock,\n        address _nice,\n        address _crush\n    ) {\n        require(_chef != address(0), \"Zero address\");\n        chef = GalacticChef(_chef);\n        teamWallet = msg.sender;\n        // _idoPrice must be NICE/BNB NOT BNB/NICE\n        idoPrice = _idoPrice;\n        reachForIdo = false;\n        niceLiquidity = _nicePair;\n        // DISTRIBUTE CRUSH\n        bankroll = IBitcrushBankroll(_bankroll);\n        lottery = IBitcrushLottery(_lottery);\n        CRUSH = _crush;\n        NICE = _nice;\n    }\n\n    /*********************************\n     *      INITIALIZE FEE POOL      *\n     *********************************/\n\n    function addorEditFee(\n        uint256 _pid, //ID TO ADD/EDIT\n        uint256[3] calldata _niceFees, // 0 buyback BURN, 1 buyback DISTRIBUTE, 2 buyback LOTTERY, 3 liquidity PERMANENT, 4 liquidity LOCK\n        uint256[5] calldata _crushFees, // 0 buyback BURN, 1 buyback DISTRIBUTE, 2 buyback LOTTERY, 3 liquidity PERMANENT, 4 liquidity LOCK\n        bool[3] calldata hasFees, // 0 token has Fees, 1 token0 has fees, 2 token1 has fees\n        address router, //swap router address\n        // If is LP -> tokenAddresses that compose the pair CRUSH/BUSD -> [ CRUSH_ADDRESS, BUSD_ADDRESS]\n        // If ERC20 token [ CRUSH_ADDRESS, wBNB] -> Path to ETH\n        address[] calldata _tokens,\n        address[] calldata _token0Path, // LP TOKEN 0 PATH TO wBNB\n        address[] calldata _token1Path // LP TOKEN 1 PATH to wBNB\n    ) external onlyOwner {\n        require(\n            addArrays(_niceFees, _crushFees) <= DIVISOR,\n            \"Incorrect Fee distribution\"\n        );\n        require(router != address(0), \"Incorrect Router\");\n        require(_tokens.length > 0, \"need a path to base\");\n        feeData[_pid] = FeeData(\n            _niceFees,\n            _crushFees,\n            true,\n            hasFees[0],\n            hasFees[1],\n            hasFees[2],\n            IPancakeRouter(router)\n        );\n        updatePaths(_pid, _tokens, _token0Path, _token1Path);\n        emit AddPoolFee(_pid);\n    }\n\n    /******************************\n     *      FEE DISTRIBUTION      *\n     ******************************/\n    receive() external payable {}\n\n    fallback() external payable {}\n\n    /// @notice Function that distributes fees to the respective flows\n    /// @dev This function requires funds to be sent beforehand to this contract\n    function receiveFees(uint256 _pid, uint256 _amount) external onlyChef {\n        FeeData storage feeInfo = feeData[_pid];\n        require(feeInfo.initialized, \"Not init\");\n        (, , , IERC20 token, , , bool isLP) = chef.poolInfo(_pid);\n        token.safeTransferFrom(address(chef), address(this), _amount);\n        // Check if token was received\n        require(token.balanceOf(address(this)) >= _amount, \"send funds\");\n        // REQUIRE THAT FEES ARE NEEDED TO BE TAKEN, ELSE TRANSFER TO OWNER\n        // IS LP TOKEN ?\n        token.approve(address(feeInfo.router), _amount * 2);\n        if (isLP) {\n            // remove liquidity\n            removeLiquidityAndSwapETH(_pid, _amount);\n        } else {\n            // NO SWAP ERC FLOW\n            if (feeInfo.hasFees)\n                feeInfo\n                    .router\n                    .swapExactTokensForETHSupportingFeeOnTransferTokens(\n                        _amount,\n                        1, // We get what we can\n                        tokenPath[_pid], // Token PATH of ERC is already path to WETH\n                        address(this),\n                        block.timestamp\n                    );\n            else\n                feeInfo.router.swapExactTokensForETH(\n                    _amount,\n                    1, // We get what we can\n                    tokenPath[_pid], // Token PATH of ERC is already path to WETH\n                    address(this),\n                    block.timestamp\n                );\n        }\n        if (reachForIdo && checkPrice()) {\n            // only buy back and burn NICE\n            uint256 currentETH = address(this).balance;\n            address[] memory nicePath = new address[](2);\n            nicePath[0] = tokenRouter.WETH();\n            nicePath[1] = NICE;\n            tokenRouter.swapExactETHForTokens{value: currentETH}(\n                0,\n                nicePath,\n                address(0),\n                block.timestamp\n            );\n        } else {\n            // With the ETH distribute AMOUNTS\n            distributeFees(feeInfo);\n        }\n        emit FundsDistributed(_amount, address(token));\n    }\n\n    /// @notice external distribute. This is used for testing\n    function distribute(uint256 _pid) external {\n        FeeData storage feeInfo = feeData[_pid];\n        require(feeInfo.initialized, \"Not initialized\");\n        distributeFees(feeInfo);\n    }\n\n    /// @notice Check that current Nice Price is above IDO\n    /// @dev get IDO price for NICE\n    function checkPrice() public view returns (bool _belowIDO) {\n        (uint256 reserve0, uint256 reserve1, ) = IPancakePair(niceLiquidity)\n            .getReserves();\n        reserve1 = reserve1 > 0 ? reserve1 : 1; //just in case\n        _belowIDO = ((reserve0 * 1 ether) / reserve1) < idoPrice;\n    }\n\n    /// @notice from the POOL ID check which token is wETH and return the other one\n    /// @param _pid the Pool ID token path to check\n    function getNotEthToken(uint256 _pid)\n        internal\n        view\n        returns (\n            IERC20 token,\n            address[] memory path,\n            bool hasFees\n        )\n    {\n        if (tokenPath[_pid][0] != tokenRouter.WETH()) {\n            token = IERC20(tokenPath[_pid][0]);\n            path = token0Path[_pid];\n            hasFees = feeData[_pid].token0Fees;\n        } else {\n            token = IERC20(tokenPath[_pid][1]);\n            path = token1Path[_pid];\n        }\n    }\n\n    /// @notice Remove Liquidity from pair token and swap for ETH\n    /// @param _pid Pool ID  to get token Path\n    function removeLiquidityAndSwapETH(uint256 _pid, uint256 amount)\n        internal\n        returns (uint256)\n    {\n        FeeData storage feeInfo = feeData[_pid];\n        // SWAP WITH ONE TOKEN ALREADY WETH\n        if (\n            tokenPath[_pid][0] == tokenRouter.WETH() ||\n            tokenPath[_pid][1] == tokenRouter.WETH()\n        ) {\n            IERC20 nonEthToken;\n            address[] memory path;\n            bool tokenFees;\n            (nonEthToken, path, tokenFees) = getNotEthToken(_pid);\n            if (feeInfo.hasFees)\n                feeInfo.router.removeLiquidityETHSupportingFeeOnTransferTokens(\n                    address(nonEthToken),\n                    amount,\n                    0,\n                    0,\n                    address(this),\n                    block.timestamp\n                );\n            else\n                feeInfo.router.removeLiquidityETH(\n                    address(nonEthToken),\n                    amount,\n                    0,\n                    0,\n                    address(this),\n                    block.timestamp\n                );\n            uint256 tokensLeft = nonEthToken.balanceOf(address(this));\n            nonEthToken.approve(address(feeInfo.router), tokensLeft);\n            if (tokenFees) {\n                feeInfo\n                    .router\n                    .swapExactTokensForETHSupportingFeeOnTransferTokens(\n                        tokensLeft,\n                        0,\n                        path,\n                        address(this),\n                        block.timestamp\n                    );\n            } else {\n                feeInfo.router.swapExactTokensForETH(\n                    tokensLeft,\n                    0,\n                    path,\n                    address(this),\n                    block.timestamp\n                );\n            }\n        }\n        // SWAP WITH NO TOKENS BEING WETH\n        else {\n            (uint256 tokenA, uint256 tokenB) = feeInfo.router.removeLiquidity(\n                tokenPath[_pid][0],\n                tokenPath[_pid][1],\n                amount,\n                0,\n                0,\n                address(this),\n                block.timestamp\n            );\n            // Approve tokens for swap\n            IERC20(tokenPath[_pid][0]).approve(\n                address(feeInfo.router),\n                tokenA * 2\n            );\n            IERC20(tokenPath[_pid][1]).approve(\n                address(feeInfo.router),\n                tokenB * 2\n            );\n            // Swap token A\n            if (feeInfo.token0Fees)\n                feeInfo\n                    .router\n                    .swapExactTokensForETHSupportingFeeOnTransferTokens(\n                        tokenA,\n                        0,\n                        token0Path[_pid],\n                        address(this),\n                        block.timestamp\n                    );\n            else\n                feeInfo.router.swapExactTokensForETH(\n                    tokenA,\n                    0,\n                    token0Path[_pid],\n                    address(this),\n                    block.timestamp\n                );\n            // Swap token B\n            if (feeInfo.token1Fees)\n                feeInfo\n                    .router\n                    .swapExactTokensForETHSupportingFeeOnTransferTokens(\n                        tokenB,\n                        0,\n                        token1Path[_pid],\n                        address(this),\n                        block.timestamp\n                    );\n            else\n                feeInfo.router.swapExactTokensForETH(\n                    tokenB,\n                    0,\n                    token1Path[_pid],\n                    address(this),\n                    block.timestamp\n                );\n            //Returns total ETH got\n            return address(this).balance;\n        }\n    }\n\n    function distributeFees(FeeData storage feeInfo) internal {\n        uint256 totalCrush;\n        uint256 totalNice;\n        uint256 crushFees;\n        uint256 niceFees;\n        uint256 bnbForCrush;\n        uint256 bnbForNice;\n        uint256 swapAmountCrush;\n        uint256 swapAmountNice;\n\n        for (uint8 x = 0; x < 5; x++) {\n            crushFees += feeInfo.crushFees[x];\n            totalCrush += x < 3\n                ? feeInfo.crushFees[x]\n                : feeInfo.crushFees[x] / 2;\n            if (x < 3) {\n                niceFees += feeInfo.niceFees[x];\n                totalNice += x == 0\n                    ? feeInfo.niceFees[x]\n                    : feeInfo.niceFees[x] / 2;\n            }\n        }\n        address[] memory path = new address[](2);\n        path[0] = tokenRouter.WETH();\n        path[1] = CRUSH;\n        if (crushFees > 0) {\n            bnbForCrush = (address(this).balance * crushFees) / DIVISOR;\n            swapAmountCrush = (bnbForCrush * totalCrush) / crushFees;\n            // Swap for CRUSH\n            tokenRouter.swapExactETHForTokens{value: swapAmountCrush}(\n                0,\n                path,\n                address(this),\n                block.timestamp\n            );\n            bnbForCrush -= swapAmountCrush;\n            tokenAndLiquidityDistribution(\n                CRUSH,\n                feeInfo,\n                crushFees,\n                false,\n                bnbForCrush\n            );\n        }\n        if (niceFees > 0) {\n            bnbForNice = (address(this).balance * niceFees) / DIVISOR;\n            swapAmountNice = (bnbForNice * totalNice) / niceFees;\n            bnbForNice -= swapAmountNice;\n            // Swap for NICE\n            path[1] = NICE;\n            tokenRouter.swapExactETHForTokens{value: swapAmountNice}(\n                0,\n                path,\n                address(this),\n                block.timestamp\n            );\n            tokenAndLiquidityDistribution(\n                NICE,\n                feeInfo,\n                niceFees,\n                true,\n                bnbForNice\n            );\n        }\n\n        // If there's some ETH left, send to marketing wallet\n        uint256 ethBal = address(this).balance;\n        if (ethBal > 0) {\n            (bool success, ) = payable(teamWallet).call{value: ethBal}(\"\");\n            emit TeamFundsDistributed(success, ethBal);\n        }\n    }\n\n    function tokenAndLiquidityDistribution(\n        address token,\n        FeeData storage feeInfo,\n        uint256 totalFees,\n        bool isNice,\n        uint256 liquidityETH\n    ) internal {\n        ERC20Burnable mainToken = ERC20Burnable(token);\n        uint256 currentBalance = mainToken.balanceOf(address(this));\n        // BUYBACK AND BURN\n        uint256 usedFee = isNice ? feeInfo.niceFees[0] : feeInfo.crushFees[0];\n        uint256 amountToUse = (currentBalance * usedFee) / totalFees;\n        if (amountToUse > 0) mainToken.burn(amountToUse);\n        // BUYBACK AND DISTRIBUTE TO STAKING POOL\n        usedFee = isNice ? 0 : feeInfo.crushFees[1];\n        amountToUse = (currentBalance * usedFee) / totalFees;\n        if (amountToUse > 0) {\n            mainToken.approve(address(bankroll), amountToUse * 2);\n            bankroll.addUserLoss(amountToUse);\n        }\n        // BUYBACK AND LOTTERY\n        usedFee = isNice ? 0 : feeInfo.crushFees[2];\n        amountToUse = (currentBalance * usedFee) / totalFees;\n        if (amountToUse > 0) {\n            mainToken.approve(address(lottery), amountToUse * 2);\n            lottery.addToPool(amountToUse);\n        }\n        // Since we'll send liquidity straight to the required addresses, addLiquidity needs to happen twice\\\n        currentBalance = mainToken.balanceOf(address(this));\n        if (isNice)\n            (totalFees, ) = liquidityFeeTotal(\n                feeInfo.niceFees,\n                feeInfo.crushFees\n            );\n        else\n            (, totalFees) = liquidityFeeTotal(\n                feeInfo.niceFees,\n                feeInfo.crushFees\n            );\n        if (totalFees == 0) return;\n        // PERMANENT LIQUIDITY\n        usedFee = isNice ? feeInfo.niceFees[1] : feeInfo.crushFees[3];\n        amountToUse = (currentBalance * usedFee) / totalFees;\n        uint256 ethToUse = (liquidityETH * usedFee) / totalFees;\n        if (amountToUse > 0) {\n            mainToken.approve(address(tokenRouter), amountToUse * 2);\n            tokenRouter.addLiquidityETH{value: ethToUse}(\n                address(mainToken),\n                amountToUse,\n                0,\n                0,\n                deadWallet, // \"burn\" immediately\n                block.timestamp\n            );\n        }\n        // LOCK LIQUIDITY\n        usedFee = isNice ? feeInfo.niceFees[2] : feeInfo.crushFees[4];\n        amountToUse = (currentBalance * usedFee) / totalFees;\n        ethToUse = (liquidityETH * usedFee) / totalFees;\n        if (amountToUse > 0) {\n            mainToken.approve(address(tokenRouter), amountToUse * 2);\n            tokenRouter.addLiquidityETH{value: ethToUse}(\n                address(mainToken),\n                amountToUse,\n                0,\n                0,\n                lock, // send Tokens to LOCK contract\n                block.timestamp\n            );\n        }\n    }\n\n    /*************************\n     *        GETTERS        *\n     *************************/\n    function getFees(uint256 _pid)\n        external\n        view\n        returns (uint256[3] memory _niceFees, uint256[5] memory _crushFees)\n    {\n        _niceFees = feeData[_pid].niceFees;\n        _crushFees = feeData[_pid].crushFees;\n    }\n\n    /*************************\n     *        SETTERS        *\n     *************************/\n    /// @notice Update the main router used to spread liquidity\n    /// @param _newRouter address of the router to migrate to\n    /// @dev Requires the router to exist\n    function setBaseRouter(address _newRouter) external onlyOwner {\n        require(_newRouter != address(0), \"No zero\");\n        tokenRouter = IPancakeRouter(_newRouter);\n        emit UpdateMainRouter(_newRouter);\n    }\n\n    /// @notice Update the Marketing Wallet\n    /// @param _newTeamW address to send funds to\n    /// @dev requires address to be payable since it'll receive BNB(ETH) directly\n    function setTeamWallet(address payable _newTeamW) external onlyOwner {\n        require(_newTeamW != address(0), \"Cant pay 0\");\n        teamWallet = _newTeamW;\n        emit UpdateTeamWallet(_newTeamW);\n    }\n\n    /// @notice Update the paths used for a specific pool\n    /// @param id the Pool ID\n    /// @param _path path of the token, if LP, tokens that comprise it, else route to ETH\n    /// @param _path1 if LP, token0 path to ETH, else empty;\n    /// @param _path2 if LP, token1 path to ETH, else empty;\n    function updatePaths(\n        uint256 id,\n        address[] calldata _path,\n        address[] calldata _path1,\n        address[] calldata _path2\n    ) public onlyOwner {\n        tokenPath[id] = _path;\n        token0Path[id] = _path1;\n        token1Path[id] = _path2;\n    }\n\n    /// @notice Update the Target Price to compare to for NICE buy back and burn only.\n    /// @param _price new Target price to attempt to reach\n    function updateIdoTarget(uint256 _price) external onlyOwner {\n        require(_price > 0, \"Invalid target\");\n        idoPrice = _price;\n        emit UpdateTargetPrice(_price);\n    }\n\n    /// @notice Toggle between enabling and disabling NICE target price Search\n    function enableTargetSearch(bool _enable) external onlyOwner {\n        require(reachForIdo != _enable, \"Already in state\");\n        reachForIdo = _enable;\n        emit SeachForTarget(_enable);\n    }\n\n    function updateLottery(address _nLottery) external onlyOwner {\n        require(_nLottery != address(0), \"No Zero\");\n        emit UpdateLotteryAddress(_nLottery, address(lottery));\n        lottery = IBitcrushLottery(_nLottery);\n    }\n\n    /*************************\n     *      Calculations     *\n     *************************/\n    function liquidityFeeTotal(uint256[3] storage _ar1, uint256[5] storage _ar2)\n        internal\n        view\n        returns (uint256 _liquidityNice, uint256 _liquidityCrush)\n    {\n        _liquidityNice = _ar1[1] + _ar1[2];\n        _liquidityCrush = _ar2[3] + _ar2[4];\n    }\n\n    function addArrays(uint256[3] calldata _ar1, uint256[5] calldata _ar2)\n        internal\n        pure\n        returns (uint256 _result)\n    {\n        for (uint8 i = 0; i < 5; i++) {\n            _result += _ar2[i];\n            if (i < 3) {\n                _result += _ar1[i];\n            }\n        }\n    }\n}\n","sourcePath":"contracts/FeeDistributorv2.sol","type":"contract","deployment":{"address":"0x01FC3DA9Ba76cF66a33AFBf32f6738aEDDeCfecd","chainid":"97","blockHeight":17760904}}