{"abi":[{"inputs":[{"internalType":"address","name":"_staked","type":"address"},{"internalType":"address","name":"_rewarded","type":"address"},{"internalType":"address","name":"_feeAddress","type":"address"},{"internalType":"uint256","name":"_rewardPerBlock","type":"uint256"},{"internalType":"uint256","name":"_startBlock","type":"uint256"},{"internalType":"uint256","name":"_poolLimit","type":"uint256"},{"internalType":"uint256","name":"rewardAmount","type":"uint256"},{"internalType":"uint256","name":"_fee","type":"uint256"}],"stateMutability":"nonpayable","type":"constructor","name":"constructor"},{"anonymous":false,"inputs":[{"indexed":true,"internalType":"address","name":"_token","type":"address"},{"indexed":false,"internalType":"uint256","name":"amount","type":"uint256"}],"name":"AdminTokenRecovery","type":"event"},{"anonymous":false,"inputs":[{"indexed":true,"internalType":"address","name":"_user","type":"address"},{"indexed":false,"internalType":"uint256","name":"amount","type":"uint256"}],"name":"Deposit","type":"event"},{"anonymous":false,"inputs":[{"indexed":true,"internalType":"address","name":"_user","type":"address"},{"indexed":false,"internalType":"uint256","name":"amount","type":"uint256"}],"name":"EmergencyWithdraw","type":"event"},{"anonymous":false,"inputs":[{"indexed":true,"internalType":"address","name":"previousOwner","type":"address"},{"indexed":true,"internalType":"address","name":"newOwner","type":"address"}],"name":"OwnershipTransferred","type":"event"},{"anonymous":false,"inputs":[{"indexed":false,"internalType":"address","name":"_new","type":"address"},{"indexed":false,"internalType":"address","name":"_old","type":"address"}],"name":"UpdateFeeDistributor","type":"event"},{"anonymous":false,"inputs":[{"indexed":false,"internalType":"uint256","name":"_new","type":"uint256"},{"indexed":false,"internalType":"uint256","name":"_old","type":"uint256"}],"name":"UpdateFees","type":"event"},{"anonymous":false,"inputs":[{"indexed":false,"internalType":"uint256","name":"_limit","type":"uint256"}],"name":"UpdateLimit","type":"event"},{"anonymous":false,"inputs":[{"indexed":false,"internalType":"uint256","name":"_newRewardPerBlock","type":"uint256"}],"name":"UpdateRewardPerBlock","type":"event"},{"anonymous":false,"inputs":[{"indexed":true,"internalType":"address","name":"_user","type":"address"},{"indexed":false,"internalType":"uint256","name":"amount","type":"uint256"}],"name":"Withdraw","type":"event"},{"inputs":[],"name":"DIVISOR","outputs":[{"internalType":"uint256","name":"","type":"uint256"}],"stateMutability":"view","type":"function"},{"inputs":[],"name":"PRECISION_FACTOR","outputs":[{"internalType":"uint256","name":"","type":"uint256"}],"stateMutability":"view","type":"function"},{"inputs":[],"name":"accRewardPerShare","outputs":[{"internalType":"uint256","name":"","type":"uint256"}],"stateMutability":"view","type":"function"},{"inputs":[{"internalType":"uint256","name":"_amount","type":"uint256"}],"name":"deposit","outputs":[],"stateMutability":"nonpayable","type":"function"},{"inputs":[],"name":"emergencyWithdraw","outputs":[],"stateMutability":"nonpayable","type":"function"},{"inputs":[],"name":"fee","outputs":[{"internalType":"uint256","name":"","type":"uint256"}],"stateMutability":"view","type":"function"},{"inputs":[],"name":"feeAddress","outputs":[{"internalType":"address","name":"","type":"address"}],"stateMutability":"view","type":"function"},{"inputs":[],"name":"lastRewardBlock","outputs":[{"internalType":"uint256","name":"","type":"uint256"}],"stateMutability":"view","type":"function"},{"inputs":[],"name":"owner","outputs":[{"internalType":"address","name":"","type":"address"}],"stateMutability":"view","type":"function"},{"inputs":[{"internalType":"address","name":"_user","type":"address"}],"name":"pendingReward","outputs":[{"internalType":"uint256","name":"_reward","type":"uint256"}],"stateMutability":"view","type":"function"},{"inputs":[],"name":"poolLimit","outputs":[{"internalType":"uint256","name":"","type":"uint256"}],"stateMutability":"view","type":"function"},{"inputs":[],"name":"prevLimit","outputs":[{"internalType":"uint256","name":"","type":"uint256"}],"stateMutability":"view","type":"function"},{"inputs":[{"internalType":"address","name":"_tokenAddress","type":"address"},{"internalType":"uint256","name":"_tokenAmount","type":"uint256"}],"name":"recoverWrongTokens","outputs":[],"stateMutability":"nonpayable","type":"function"},{"inputs":[],"name":"renounceOwnership","outputs":[],"stateMutability":"nonpayable","type":"function"},{"inputs":[],"name":"rewardEnd","outputs":[{"internalType":"uint256","name":"","type":"uint256"}],"stateMutability":"view","type":"function"},{"inputs":[],"name":"rewardPerBlock","outputs":[{"internalType":"uint256","name":"","type":"uint256"}],"stateMutability":"view","type":"function"},{"inputs":[],"name":"rewardToken","outputs":[{"internalType":"contract IERC20","name":"","type":"address"}],"stateMutability":"view","type":"function"},{"inputs":[],"name":"stakeToken","outputs":[{"internalType":"contract IERC20","name":"","type":"address"}],"stateMutability":"view","type":"function"},{"inputs":[],"name":"startBlock","outputs":[{"internalType":"uint256","name":"","type":"uint256"}],"stateMutability":"view","type":"function"},{"inputs":[{"internalType":"address","name":"newOwner","type":"address"}],"name":"transferOwnership","outputs":[],"stateMutability":"nonpayable","type":"function"},{"inputs":[{"internalType":"uint256","name":"_newFee","type":"uint256"}],"name":"updateFee","outputs":[],"stateMutability":"nonpayable","type":"function"},{"inputs":[{"internalType":"address","name":"_feeAddress","type":"address"}],"name":"updateFeeDistributor","outputs":[],"stateMutability":"nonpayable","type":"function"},{"inputs":[{"internalType":"uint256","name":"_newLimit","type":"uint256"}],"name":"updatePoolLimitPerUser","outputs":[],"stateMutability":"nonpayable","type":"function"},{"inputs":[{"internalType":"uint256","name":"_rewardPerBlock","type":"uint256"}],"name":"updateRewardPerBlock","outputs":[],"stateMutability":"nonpayable","type":"function"},{"inputs":[{"internalType":"address","name":"","type":"address"}],"name":"userInfo","outputs":[{"internalType":"uint256","name":"amount","type":"uint256"},{"internalType":"uint256","name":"accReward","type":"uint256"}],"stateMutability":"view","type":"function"},{"inputs":[{"internalType":"uint256","name":"_amount","type":"uint256"}],"name":"withdraw","outputs":[],"stateMutability":"nonpayable","type":"function"}],"bytecode":"60c06040523480156200001157600080fd5b5060405162001977380380620019778339810160408190526200003491620001a0565b6200003f3362000133565b600180556001600160a01b038816158015906200006457506001600160a01b03871615155b80156200007957506001600160a01b03861615155b620000bc5760405162461bcd60e51b815260206004820152600f60248201526e496e76616c6964206164647265737360881b604482015260640160405180910390fd5b6001600160a01b03808916608052871660a052600485905560058490556006839055600783905583620000f086846200021b565b620000fc91906200023e565b600355600b80546001600160a01b0319166001600160a01b039790971696909617909555505050600a919091555062000265915050565b600080546001600160a01b038381166001600160a01b0319831681178455604051919092169283917f8be0079c531659141344cd1fd0a4f28419497f9722a3daafe3b4186f6b6457e09190a35050565b80516001600160a01b03811681146200019b57600080fd5b919050565b600080600080600080600080610100898b031215620001be57600080fd5b620001c98962000183565b9750620001d960208a0162000183565b9650620001e960408a0162000183565b9550606089015194506080890151935060a0890151925060c0890151915060e089015190509295985092959890939650565b6000826200023957634e487b7160e01b600052601260045260246000fd5b500490565b600082198211156200026057634e487b7160e01b600052601160045260246000fd5b500190565b60805160a0516116a6620002d16000396000818161036401528181610620015281816107a10152610c6b0152600081816102680152818161053f0152818161072601528181610d9201528181610e9b0152818161101d015281816111e4015261136701526116a66000f3fe608060405234801561001057600080fd5b506004361061018e5760003560e01c80638da5cb5b116100de578063ccd34cd511610097578063ddca3f4311610071578063ddca3f4314610330578063f2fde38b14610339578063f40f0f521461034c578063f7c618c11461035f57600080fd5b8063ccd34cd514610313578063d59baa031461031f578063db2e21bc1461032857600080fd5b80638da5cb5b146102c15780639012c4a8146102d2578063939d6237146102e5578063a9f8d181146102ee578063b6b55f25146102f7578063c1e534aa1461030a57600080fd5b8063412753581161014b57806360c73bf21161012557806360c73bf21461028a5780636945cae41461029d578063715018a6146102b05780638ae39cac146102b857600080fd5b8063412753581461022f57806348cd4cb11461025a57806351ed6a301461026357600080fd5b806301f8a976146101935780631959a002146101a8578063295cb80d146101e95780632e1a7d4d146102005780633410fe6e146102135780633f138d4b1461021c575b600080fd5b6101a66101a13660046114c2565b610386565b005b6101cf6101b63660046114f7565b6002602052600090815260409020805460019091015482565b604080519283526020830191909152015b60405180910390f35b6101f260075481565b6040519081526020016101e0565b6101a661020e3660046114c2565b610439565b6101f261271081565b6101a661022a366004611519565b6106fa565b600b54610242906001600160a01b031681565b6040516001600160a01b0390911681526020016101e0565b6101f260055481565b6102427f000000000000000000000000000000000000000000000000000000000000000081565b6101a66102983660046114f7565b6108d3565b6101a66102ab3660046114c2565b6109ca565b6101a6610a92565b6101f260045481565b6000546001600160a01b0316610242565b6101a66102e03660046114c2565b610ac8565b6101f260085481565b6101f260095481565b6101a66103053660046114c2565b610b74565b6101f260035481565b6101f264e8d4a5100081565b6101f260065481565b6101a6610fb2565b6101f2600a5481565b6101a66103473660046114f7565b611115565b6101f261035a3660046114f7565b6111b0565b6102427f000000000000000000000000000000000000000000000000000000000000000081565b6000546001600160a01b031633146103b95760405162461bcd60e51b81526004016103b090611543565b60405180910390fd5b60055443106103fd5760405162461bcd60e51b815260206004820152601060248201526f141bdbdb081a185cc81cdd185c9d195960821b60448201526064016103b0565b60048190556040518181527fc606f355efeddd89e42e997e575220501445590def6dd71bf081c2c51d6c0a4d906020015b60405180910390a150565b6002600154141561045c5760405162461bcd60e51b81526004016103b090611578565b600260018190553360009081526020919091526040902080548211156104c45760405162461bcd60e51b815260206004820152601b60248201527f416d6f756e7420746f20776974686472617720746f6f2068696768000000000060448201526064016103b0565b6104cc611344565b6000816001015464e8d4a5100060085484600001546104eb91906115c5565b6104f591906115e4565b6104ff9190611606565b905082156105fb578282600001600082825461051b9190611606565b909155505060405163a9059cbb60e01b8152336004820152602481018490526000907f00000000000000000000000000000000000000000000000000000000000000006001600160a01b03169063a9059cbb906044016020604051808303816000875af1158015610590573d6000803e3d6000fd5b505050506040513d601f19601f820116820180604052508101906105b4919061161d565b9050806105f95760405162461bcd60e51b815260206004820152601360248201527214dd185ad948151c985b9cd9995c8811985a5b606a1b60448201526064016103b0565b505b80156106985760405163a9059cbb60e01b8152336004820152602481018290526000907f00000000000000000000000000000000000000000000000000000000000000006001600160a01b03169063a9059cbb906044016020604051808303816000875af1158015610671573d6000803e3d6000fd5b505050506040513d601f19601f82011682018060405250810190610695919061161d565b50505b600854825464e8d4a51000916106ad916115c5565b6106b791906115e4565b600183015560405183815233907f884edad9ce6fa2440d8a54cc123490eb96d2768479d49ff9c7366125a94243649060200160405180910390a250506001805550565b6000546001600160a01b031633146107245760405162461bcd60e51b81526004016103b090611543565b7f00000000000000000000000000000000000000000000000000000000000000006001600160a01b0316826001600160a01b0316141561079f5760405162461bcd60e51b815260206004820152601660248201527521b0b73737ba1031329039ba30b5b2b2103a37b5b2b760511b60448201526064016103b0565b7f00000000000000000000000000000000000000000000000000000000000000006001600160a01b0316826001600160a01b0316141561081a5760405162461bcd60e51b815260206004820152601660248201527521b0b73737ba103132903932bbb0b932103a37b5b2b760511b60448201526064016103b0565b60405163a9059cbb60e01b8152336004820152602481018290526001600160a01b0383169063a9059cbb906044016020604051808303816000875af1158015610867573d6000803e3d6000fd5b505050506040513d601f19601f8201168201806040525081019061088b919061161d565b50816001600160a01b03167f74545154aac348a3eac92596bd1971957ca94795f4e954ec5f613b55fab78129826040516108c791815260200190565b60405180910390a25050565b6000546001600160a01b031633146108fd5760405162461bcd60e51b81526004016103b090611543565b6001600160a01b038116158015906109235750600b546001600160a01b03828116911614155b6109615760405162461bcd60e51b815260206004820152600f60248201526e496e76616c6964204164647265737360881b60448201526064016103b0565b600b54604080516001600160a01b03808516825290921660208301527f4f817e2483680b2978ed4abb61da6716fbf93eb7df1416708da08b9be32d49ff910160405180910390a1600b80546001600160a01b0319166001600160a01b0392909216919091179055565b6000546001600160a01b031633146109f45760405162461bcd60e51b81526004016103b090611543565b600754811180610a02575080155b610a4e5760405162461bcd60e51b815260206004820152601d60248201527f496e637265617365206f722072656d6f7665206c696d6974206f6e6c7900000060448201526064016103b0565b60068190558015610a5f5760078190555b7fa498daefca172c7ebb28b62db707445296cb78b1be0c15afe0b4d9096335b75a60065460405161042e91815260200190565b6000546001600160a01b03163314610abc5760405162461bcd60e51b81526004016103b090611543565b610ac66000611472565b565b6000546001600160a01b03163314610af25760405162461bcd60e51b81526004016103b090611543565b6109c4811115610b325760405162461bcd60e51b815260206004820152600b60248201526a496e76616c69642046656560a81b60448201526064016103b0565b600a546040805183815260208101929092527f53482196ef67ac615caab1c3eca2c270acbfdcd75e57c5f24c1b98b10c8e6e04910160405180910390a1600a55565b60026001541415610b975760405162461bcd60e51b81526004016103b090611578565b600260018190553360009081526020919091526040902060065415610c02576006548154610bc690849061163f565b1115610c025760405162461bcd60e51b815260206004820152600b60248201526a10589bdd9948131a5b5a5d60aa1b60448201526064016103b0565b610c0a611344565b805415610d26576000816001015464e8d4a510006008548460000154610c3091906115c5565b610c3a91906115e4565b610c449190611606565b90508015610d245760405163a9059cbb60e01b8152336004820152602481018290526000907f00000000000000000000000000000000000000000000000000000000000000006001600160a01b03169063a9059cbb906044016020604051808303816000875af1158015610cbc573d6000803e3d6000fd5b505050506040513d601f19601f82011682018060405250810190610ce0919061161d565b905080610d225760405162461bcd60e51b815260206004820152601060248201526f11985a5b1959081d1bc814995dd85c9960821b60448201526064016103b0565b505b505b8115610f5057600a5415610e5d576000612710600a5484610d4791906115c5565b610d5191906115e4565b9050610d5d8184611606565b600b546040516323b872dd60e01b81523360048201526001600160a01b039182166024820152604481018490529194506000917f0000000000000000000000000000000000000000000000000000000000000000909116906323b872dd906064016020604051808303816000875af1158015610ddd573d6000803e3d6000fd5b505050506040513d601f19601f82011682018060405250810190610e01919061161d565b905080610e5a5760405162461bcd60e51b815260206004820152602160248201527f556e61626c6520746f207472616e7366657220746f20666565204164647265736044820152607360f81b60648201526084016103b0565b50505b81816000016000828254610e71919061163f565b90915550506040516323b872dd60e01b8152336004820152306024820152604481018390526000907f00000000000000000000000000000000000000000000000000000000000000006001600160a01b0316906323b872dd906064016020604051808303816000875af1158015610eec573d6000803e3d6000fd5b505050506040513d601f19601f82011682018060405250810190610f10919061161d565b905080610f4e5760405162461bcd60e51b815260206004820152600c60248201526b10d85b9d0819195c1bdcda5d60a21b60448201526064016103b0565b505b600854815464e8d4a5100091610f65916115c5565b610f6f91906115e4565b600182015560405182815233907fe1fffcc4923d04b559f4d29a8bfc6cda04eb5b0d3c460751c2402c5c5cc9109c906020015b60405180910390a2505060018055565b60026001541415610fd55760405162461bcd60e51b81526004016103b090611578565b600260018181553360009081526020929092526040822080548382559181019290925580156110e35760405163a9059cbb60e01b8152336004820152602481018290526000907f00000000000000000000000000000000000000000000000000000000000000006001600160a01b03169063a9059cbb906044016020604051808303816000875af115801561106e573d6000803e3d6000fd5b505050506040513d601f19601f82011682018060405250810190611092919061161d565b9050806110e15760405162461bcd60e51b815260206004820152601760248201527f456d657267656e63792043616e7420776974686472617700000000000000000060448201526064016103b0565b505b60405181815233907f5fafa99d0643513820be26656b45130b01e1c03062e1266bf36f88cbd3bd969590602001610fa2565b6000546001600160a01b0316331461113f5760405162461bcd60e51b81526004016103b090611543565b6001600160a01b0381166111a45760405162461bcd60e51b815260206004820152602660248201527f4f776e61626c653a206e6577206f776e657220697320746865207a65726f206160448201526564647265737360d01b60648201526084016103b0565b6111ad81611472565b50565b6001600160a01b0381811660009081526002602052604080822090516370a0823160e01b81523060048201529192909183917f000000000000000000000000000000000000000000000000000000000000000016906370a0823190602401602060405180830381865afa15801561122b573d6000803e3d6000fd5b505050506040513d601f19601f8201168201806040525081019061124f9190611657565b9050600954431180156112625750600081115b1561130c57600060035443111561128a576009546003546112839190611606565b905061129a565b6009546112979043611606565b90505b6004546112a790826115c5565b90506000826112bb64e8d4a51000846115c5565b6112c591906115e4565b6008546112d2919061163f565b9050836001015464e8d4a510008560000154836112ef91906115c5565b6112f991906115e4565b6113039190611606565b9450505061133d565b6001820154600854835464e8d4a5100091611326916115c5565b61133091906115e4565b61133a9190611606565b92505b5050919050565b600954431161134f57565b6040516370a0823160e01b81523060048201526000907f00000000000000000000000000000000000000000000000000000000000000006001600160a01b0316906370a0823190602401602060405180830381865afa1580156113b6573d6000803e3d6000fd5b505050506040513d601f19601f820116820180604052508101906113da9190611657565b90508015806113ec5750600354600954115b156113f8575043600955565b600060035443111561141b576009546003546114149190611606565b905061142b565b6009546114289043611606565b90505b60045461143890826115c5565b90508161144a64e8d4a51000836115c5565b61145491906115e4565b60086000828254611465919061163f565b9091555050436009555050565b600080546001600160a01b038381166001600160a01b0319831681178455604051919092169283917f8be0079c531659141344cd1fd0a4f28419497f9722a3daafe3b4186f6b6457e09190a35050565b6000602082840312156114d457600080fd5b5035919050565b80356001600160a01b03811681146114f257600080fd5b919050565b60006020828403121561150957600080fd5b611512826114db565b9392505050565b6000806040838503121561152c57600080fd5b611535836114db565b946020939093013593505050565b6020808252818101527f4f776e61626c653a2063616c6c6572206973206e6f7420746865206f776e6572604082015260600190565b6020808252601f908201527f5265656e7472616e637947756172643a207265656e7472616e742063616c6c00604082015260600190565b634e487b7160e01b600052601160045260246000fd5b60008160001904831182151516156115df576115df6115af565b500290565b60008261160157634e487b7160e01b600052601260045260246000fd5b500490565b600082821015611618576116186115af565b500390565b60006020828403121561162f57600080fd5b8151801515811461151257600080fd5b60008219821115611652576116526115af565b500190565b60006020828403121561166957600080fd5b505191905056fea26469706673582212204afcc24136c1e720821a0f83a50e5cb571bf4834819c5d4e00e8fdaba12188c464736f6c634300080c0033","bytecodeSha1":"7dae8f1c96d408f47747d7d69765f411408ef292","compiler":{"evm_version":"istanbul","optimizer":{"enabled":true,"runs":200},"version":"0.8.12+commit.f00d7308"},"contractName":"InvaderPool","language":"Solidity","natspec":{"kind":"dev","methods":{"constructor":{"details":"Please add funds before startBlock is reached.","notice":"Constructor, set startBlock at least 2 - 3 hours before actual launch time."},"deposit(uint256)":{"details":"updates the pool reward to give through time.","notice":"withdraw stake tokens from pool back to user.","params":{"_amount":"the amount to deposit... Amount must be lower than limit"}},"emergencyWithdraw()":{"notice":"Allows users to withdraw their funds without any rewards"},"owner()":{"details":"Returns the address of the current owner."},"pendingReward(address)":{"notice":"give pending reward back from having the user account","params":{"_user":"The user address to check"},"returns":{"_reward":"The reward amount for the timeframe"}},"recoverWrongTokens(address,uint256)":{"details":"This function is only callable by admin.","notice":"It allows the admin to recover wrong tokens sent to the contract","params":{"_tokenAddress":": the address of the token to withdraw","_tokenAmount":": the number of tokens to withdraw"}},"renounceOwnership()":{"details":"Leaves the contract without owner. It will not be possible to call `onlyOwner` functions anymore. Can only be called by the current owner. NOTE: Renouncing ownership will leave the contract without an owner, thereby removing any functionality that is only available to the owner."},"transferOwnership(address)":{"details":"Transfers ownership of the contract to a new account (`newOwner`). Can only be called by the current owner."},"updatePoolLimitPerUser(uint256)":{"details":"Only callable by owner.if _newLimit is 0 then limit is removed","notice":"Update pool limit per user","params":{"_newLimit":": enforce limit only by number... new Limit must be higher or ZERO"}},"updateRewardPerBlock(uint256)":{"details":"Only callable by owner.","notice":"Update reward per block","params":{"_rewardPerBlock":": the reward per block"}},"withdraw(uint256)":{"details":"updates the pool reward to give through time.","notice":"withdraw stake tokens from pool back to user.","params":{"_amount":"the amount to withdraw... Amount must be the staked amount MAX"}}},"version":1},"opcodes":"PUSH1 0x80 PUSH1 0x40 MSTORE CALLVALUE DUP1 ISZERO PUSH2 0x10 JUMPI PUSH1 0x0 DUP1 REVERT JUMPDEST POP PUSH1 0x4 CALLDATASIZE LT PUSH2 0x18E JUMPI PUSH1 0x0 CALLDATALOAD PUSH1 0xE0 SHR DUP1 PUSH4 0x8DA5CB5B GT PUSH2 0xDE JUMPI DUP1 PUSH4 0xCCD34CD5 GT PUSH2 0x97 JUMPI DUP1 PUSH4 0xDDCA3F43 GT PUSH2 0x71 JUMPI DUP1 PUSH4 0xDDCA3F43 EQ PUSH2 0x330 JUMPI DUP1 PUSH4 0xF2FDE38B EQ PUSH2 0x339 JUMPI DUP1 PUSH4 0xF40F0F52 EQ PUSH2 0x34C JUMPI DUP1 PUSH4 0xF7C618C1 EQ PUSH2 0x35F JUMPI PUSH1 0x0 DUP1 REVERT JUMPDEST DUP1 PUSH4 0xCCD34CD5 EQ PUSH2 0x313 JUMPI DUP1 PUSH4 0xD59BAA03 EQ PUSH2 0x31F JUMPI DUP1 PUSH4 0xDB2E21BC EQ PUSH2 0x328 JUMPI PUSH1 0x0 DUP1 REVERT JUMPDEST DUP1 PUSH4 0x8DA5CB5B EQ PUSH2 0x2C1 JUMPI DUP1 PUSH4 0x9012C4A8 EQ PUSH2 0x2D2 JUMPI DUP1 PUSH4 0x939D6237 EQ PUSH2 0x2E5 JUMPI DUP1 PUSH4 0xA9F8D181 EQ PUSH2 0x2EE JUMPI DUP1 PUSH4 0xB6B55F25 EQ PUSH2 0x2F7 JUMPI DUP1 PUSH4 0xC1E534AA EQ PUSH2 0x30A JUMPI PUSH1 0x0 DUP1 REVERT JUMPDEST DUP1 PUSH4 0x41275358 GT PUSH2 0x14B JUMPI DUP1 PUSH4 0x60C73BF2 GT PUSH2 0x125 JUMPI DUP1 PUSH4 0x60C73BF2 EQ PUSH2 0x28A JUMPI DUP1 PUSH4 0x6945CAE4 EQ PUSH2 0x29D JUMPI DUP1 PUSH4 0x715018A6 EQ PUSH2 0x2B0 JUMPI DUP1 PUSH4 0x8AE39CAC EQ PUSH2 0x2B8 JUMPI PUSH1 0x0 DUP1 REVERT JUMPDEST DUP1 PUSH4 0x41275358 EQ PUSH2 0x22F JUMPI DUP1 PUSH4 0x48CD4CB1 EQ PUSH2 0x25A JUMPI DUP1 PUSH4 0x51ED6A30 EQ PUSH2 0x263 JUMPI PUSH1 0x0 DUP1 REVERT JUMPDEST DUP1 PUSH4 0x1F8A976 EQ PUSH2 0x193 JUMPI DUP1 PUSH4 0x1959A002 EQ PUSH2 0x1A8 JUMPI DUP1 PUSH4 0x295CB80D EQ PUSH2 0x1E9 JUMPI DUP1 PUSH4 0x2E1A7D4D EQ PUSH2 0x200 JUMPI DUP1 PUSH4 0x3410FE6E EQ PUSH2 0x213 JUMPI DUP1 PUSH4 0x3F138D4B EQ PUSH2 0x21C JUMPI JUMPDEST PUSH1 0x0 DUP1 REVERT JUMPDEST PUSH2 0x1A6 PUSH2 0x1A1 CALLDATASIZE PUSH1 0x4 PUSH2 0x14C2 JUMP JUMPDEST PUSH2 0x386 JUMP JUMPDEST STOP JUMPDEST PUSH2 0x1CF PUSH2 0x1B6 CALLDATASIZE PUSH1 0x4 PUSH2 0x14F7 JUMP JUMPDEST PUSH1 0x2 PUSH1 0x20 MSTORE PUSH1 0x0 SWAP1 DUP2 MSTORE PUSH1 0x40 SWAP1 KECCAK256 DUP1 SLOAD PUSH1 0x1 SWAP1 SWAP2 ADD SLOAD DUP3 JUMP JUMPDEST PUSH1 0x40 DUP1 MLOAD SWAP3 DUP4 MSTORE PUSH1 0x20 DUP4 ADD SWAP2 SWAP1 SWAP2 MSTORE ADD JUMPDEST PUSH1 0x40 MLOAD DUP1 SWAP2 SUB SWAP1 RETURN JUMPDEST PUSH2 0x1F2 PUSH1 0x7 SLOAD DUP2 JUMP JUMPDEST PUSH1 0x40 MLOAD SWAP1 DUP2 MSTORE PUSH1 0x20 ADD PUSH2 0x1E0 JUMP JUMPDEST PUSH2 0x1A6 PUSH2 0x20E CALLDATASIZE PUSH1 0x4 PUSH2 0x14C2 JUMP JUMPDEST PUSH2 0x439 JUMP JUMPDEST PUSH2 0x1F2 PUSH2 0x2710 DUP2 JUMP JUMPDEST PUSH2 0x1A6 PUSH2 0x22A CALLDATASIZE PUSH1 0x4 PUSH2 0x1519 JUMP JUMPDEST PUSH2 0x6FA JUMP JUMPDEST PUSH1 0xB SLOAD PUSH2 0x242 SWAP1 PUSH1 0x1 PUSH1 0x1 PUSH1 0xA0 SHL SUB AND DUP2 JUMP JUMPDEST PUSH1 0x40 MLOAD PUSH1 0x1 PUSH1 0x1 PUSH1 0xA0 SHL SUB SWAP1 SWAP2 AND DUP2 MSTORE PUSH1 0x20 ADD PUSH2 0x1E0 JUMP JUMPDEST PUSH2 0x1F2 PUSH1 0x5 SLOAD DUP2 JUMP JUMPDEST PUSH2 0x242 PUSH32 0x0 DUP2 JUMP JUMPDEST PUSH2 0x1A6 PUSH2 0x298 CALLDATASIZE PUSH1 0x4 PUSH2 0x14F7 JUMP JUMPDEST PUSH2 0x8D3 JUMP JUMPDEST PUSH2 0x1A6 PUSH2 0x2AB CALLDATASIZE PUSH1 0x4 PUSH2 0x14C2 JUMP JUMPDEST PUSH2 0x9CA JUMP JUMPDEST PUSH2 0x1A6 PUSH2 0xA92 JUMP JUMPDEST PUSH2 0x1F2 PUSH1 0x4 SLOAD DUP2 JUMP JUMPDEST PUSH1 0x0 SLOAD PUSH1 0x1 PUSH1 0x1 PUSH1 0xA0 SHL SUB AND PUSH2 0x242 JUMP JUMPDEST PUSH2 0x1A6 PUSH2 0x2E0 CALLDATASIZE PUSH1 0x4 PUSH2 0x14C2 JUMP JUMPDEST PUSH2 0xAC8 JUMP JUMPDEST PUSH2 0x1F2 PUSH1 0x8 SLOAD DUP2 JUMP JUMPDEST PUSH2 0x1F2 PUSH1 0x9 SLOAD DUP2 JUMP JUMPDEST PUSH2 0x1A6 PUSH2 0x305 CALLDATASIZE PUSH1 0x4 PUSH2 0x14C2 JUMP JUMPDEST PUSH2 0xB74 JUMP JUMPDEST PUSH2 0x1F2 PUSH1 0x3 SLOAD DUP2 JUMP JUMPDEST PUSH2 0x1F2 PUSH5 0xE8D4A51000 DUP2 JUMP JUMPDEST PUSH2 0x1F2 PUSH1 0x6 SLOAD DUP2 JUMP JUMPDEST PUSH2 0x1A6 PUSH2 0xFB2 JUMP JUMPDEST PUSH2 0x1F2 PUSH1 0xA SLOAD DUP2 JUMP JUMPDEST PUSH2 0x1A6 PUSH2 0x347 CALLDATASIZE PUSH1 0x4 PUSH2 0x14F7 JUMP JUMPDEST PUSH2 0x1115 JUMP JUMPDEST PUSH2 0x1F2 PUSH2 0x35A CALLDATASIZE PUSH1 0x4 PUSH2 0x14F7 JUMP JUMPDEST PUSH2 0x11B0 JUMP JUMPDEST PUSH2 0x242 PUSH32 0x0 DUP2 JUMP JUMPDEST PUSH1 0x0 SLOAD PUSH1 0x1 PUSH1 0x1 PUSH1 0xA0 SHL SUB AND CALLER EQ PUSH2 0x3B9 JUMPI PUSH1 0x40 MLOAD PUSH3 0x461BCD PUSH1 0xE5 SHL DUP2 MSTORE PUSH1 0x4 ADD PUSH2 0x3B0 SWAP1 PUSH2 0x1543 JUMP JUMPDEST PUSH1 0x40 MLOAD DUP1 SWAP2 SUB SWAP1 REVERT JUMPDEST PUSH1 0x5 SLOAD NUMBER LT PUSH2 0x3FD JUMPI PUSH1 0x40 MLOAD PUSH3 0x461BCD PUSH1 0xE5 SHL DUP2 MSTORE PUSH1 0x20 PUSH1 0x4 DUP3 ADD MSTORE PUSH1 0x10 PUSH1 0x24 DUP3 ADD MSTORE PUSH16 0x141BDBDB081A185CC81CDD185C9D1959 PUSH1 0x82 SHL PUSH1 0x44 DUP3 ADD MSTORE PUSH1 0x64 ADD PUSH2 0x3B0 JUMP JUMPDEST PUSH1 0x4 DUP2 SWAP1 SSTORE PUSH1 0x40 MLOAD DUP2 DUP2 MSTORE PUSH32 0xC606F355EFEDDD89E42E997E575220501445590DEF6DD71BF081C2C51D6C0A4D SWAP1 PUSH1 0x20 ADD JUMPDEST PUSH1 0x40 MLOAD DUP1 SWAP2 SUB SWAP1 LOG1 POP JUMP JUMPDEST PUSH1 0x2 PUSH1 0x1 SLOAD EQ ISZERO PUSH2 0x45C JUMPI PUSH1 0x40 MLOAD PUSH3 0x461BCD PUSH1 0xE5 SHL DUP2 MSTORE PUSH1 0x4 ADD PUSH2 0x3B0 SWAP1 PUSH2 0x1578 JUMP JUMPDEST PUSH1 0x2 PUSH1 0x1 DUP2 SWAP1 SSTORE CALLER PUSH1 0x0 SWAP1 DUP2 MSTORE PUSH1 0x20 SWAP2 SWAP1 SWAP2 MSTORE PUSH1 0x40 SWAP1 KECCAK256 DUP1 SLOAD DUP3 GT ISZERO PUSH2 0x4C4 JUMPI PUSH1 0x40 MLOAD PUSH3 0x461BCD PUSH1 0xE5 SHL DUP2 MSTORE PUSH1 0x20 PUSH1 0x4 DUP3 ADD MSTORE PUSH1 0x1B PUSH1 0x24 DUP3 ADD MSTORE PUSH32 0x416D6F756E7420746F20776974686472617720746F6F20686967680000000000 PUSH1 0x44 DUP3 ADD MSTORE PUSH1 0x64 ADD PUSH2 0x3B0 JUMP JUMPDEST PUSH2 0x4CC PUSH2 0x1344 JUMP JUMPDEST PUSH1 0x0 DUP2 PUSH1 0x1 ADD SLOAD PUSH5 0xE8D4A51000 PUSH1 0x8 SLOAD DUP5 PUSH1 0x0 ADD SLOAD PUSH2 0x4EB SWAP2 SWAP1 PUSH2 0x15C5 JUMP JUMPDEST PUSH2 0x4F5 SWAP2 SWAP1 PUSH2 0x15E4 JUMP JUMPDEST PUSH2 0x4FF SWAP2 SWAP1 PUSH2 0x1606 JUMP JUMPDEST SWAP1 POP DUP3 ISZERO PUSH2 0x5FB JUMPI DUP3 DUP3 PUSH1 0x0 ADD PUSH1 0x0 DUP3 DUP3 SLOAD PUSH2 0x51B SWAP2 SWAP1 PUSH2 0x1606 JUMP JUMPDEST SWAP1 SWAP2 SSTORE POP POP PUSH1 0x40 MLOAD PUSH4 0xA9059CBB PUSH1 0xE0 SHL DUP2 MSTORE CALLER PUSH1 0x4 DUP3 ADD MSTORE PUSH1 0x24 DUP2 ADD DUP5 SWAP1 MSTORE PUSH1 0x0 SWAP1 PUSH32 0x0 PUSH1 0x1 PUSH1 0x1 PUSH1 0xA0 SHL SUB AND SWAP1 PUSH4 0xA9059CBB SWAP1 PUSH1 0x44 ADD PUSH1 0x20 PUSH1 0x40 MLOAD DUP1 DUP4 SUB DUP2 PUSH1 0x0 DUP8 GAS CALL ISZERO DUP1 ISZERO PUSH2 0x590 JUMPI RETURNDATASIZE PUSH1 0x0 DUP1 RETURNDATACOPY RETURNDATASIZE PUSH1 0x0 REVERT JUMPDEST POP POP POP POP PUSH1 0x40 MLOAD RETURNDATASIZE PUSH1 0x1F NOT PUSH1 0x1F DUP3 ADD AND DUP3 ADD DUP1 PUSH1 0x40 MSTORE POP DUP2 ADD SWAP1 PUSH2 0x5B4 SWAP2 SWAP1 PUSH2 0x161D JUMP JUMPDEST SWAP1 POP DUP1 PUSH2 0x5F9 JUMPI PUSH1 0x40 MLOAD PUSH3 0x461BCD PUSH1 0xE5 SHL DUP2 MSTORE PUSH1 0x20 PUSH1 0x4 DUP3 ADD MSTORE PUSH1 0x13 PUSH1 0x24 DUP3 ADD MSTORE PUSH19 0x14DD185AD948151C985B9CD9995C8811985A5B PUSH1 0x6A SHL PUSH1 0x44 DUP3 ADD MSTORE PUSH1 0x64 ADD PUSH2 0x3B0 JUMP JUMPDEST POP JUMPDEST DUP1 ISZERO PUSH2 0x698 JUMPI PUSH1 0x40 MLOAD PUSH4 0xA9059CBB PUSH1 0xE0 SHL DUP2 MSTORE CALLER PUSH1 0x4 DUP3 ADD MSTORE PUSH1 0x24 DUP2 ADD DUP3 SWAP1 MSTORE PUSH1 0x0 SWAP1 PUSH32 0x0 PUSH1 0x1 PUSH1 0x1 PUSH1 0xA0 SHL SUB AND SWAP1 PUSH4 0xA9059CBB SWAP1 PUSH1 0x44 ADD PUSH1 0x20 PUSH1 0x40 MLOAD DUP1 DUP4 SUB DUP2 PUSH1 0x0 DUP8 GAS CALL ISZERO DUP1 ISZERO PUSH2 0x671 JUMPI RETURNDATASIZE PUSH1 0x0 DUP1 RETURNDATACOPY RETURNDATASIZE PUSH1 0x0 REVERT JUMPDEST POP POP POP POP PUSH1 0x40 MLOAD RETURNDATASIZE PUSH1 0x1F NOT PUSH1 0x1F DUP3 ADD AND DUP3 ADD DUP1 PUSH1 0x40 MSTORE POP DUP2 ADD SWAP1 PUSH2 0x695 SWAP2 SWAP1 PUSH2 0x161D JUMP JUMPDEST POP POP JUMPDEST PUSH1 0x8 SLOAD DUP3 SLOAD PUSH5 0xE8D4A51000 SWAP2 PUSH2 0x6AD SWAP2 PUSH2 0x15C5 JUMP JUMPDEST PUSH2 0x6B7 SWAP2 SWAP1 PUSH2 0x15E4 JUMP JUMPDEST PUSH1 0x1 DUP4 ADD SSTORE PUSH1 0x40 MLOAD DUP4 DUP2 MSTORE CALLER SWAP1 PUSH32 0x884EDAD9CE6FA2440D8A54CC123490EB96D2768479D49FF9C7366125A9424364 SWAP1 PUSH1 0x20 ADD PUSH1 0x40 MLOAD DUP1 SWAP2 SUB SWAP1 LOG2 POP POP PUSH1 0x1 DUP1 SSTORE POP JUMP JUMPDEST PUSH1 0x0 SLOAD PUSH1 0x1 PUSH1 0x1 PUSH1 0xA0 SHL SUB AND CALLER EQ PUSH2 0x724 JUMPI PUSH1 0x40 MLOAD PUSH3 0x461BCD PUSH1 0xE5 SHL DUP2 MSTORE PUSH1 0x4 ADD PUSH2 0x3B0 SWAP1 PUSH2 0x1543 JUMP JUMPDEST PUSH32 0x0 PUSH1 0x1 PUSH1 0x1 PUSH1 0xA0 SHL SUB AND DUP3 PUSH1 0x1 PUSH1 0x1 PUSH1 0xA0 SHL SUB AND EQ ISZERO PUSH2 0x79F JUMPI PUSH1 0x40 MLOAD PUSH3 0x461BCD PUSH1 0xE5 SHL DUP2 MSTORE PUSH1 0x20 PUSH1 0x4 DUP3 ADD MSTORE PUSH1 0x16 PUSH1 0x24 DUP3 ADD MSTORE PUSH22 0x21B0B73737BA1031329039BA30B5B2B2103A37B5B2B7 PUSH1 0x51 SHL PUSH1 0x44 DUP3 ADD MSTORE PUSH1 0x64 ADD PUSH2 0x3B0 JUMP JUMPDEST PUSH32 0x0 PUSH1 0x1 PUSH1 0x1 PUSH1 0xA0 SHL SUB AND DUP3 PUSH1 0x1 PUSH1 0x1 PUSH1 0xA0 SHL SUB AND EQ ISZERO PUSH2 0x81A JUMPI PUSH1 0x40 MLOAD PUSH3 0x461BCD PUSH1 0xE5 SHL DUP2 MSTORE PUSH1 0x20 PUSH1 0x4 DUP3 ADD MSTORE PUSH1 0x16 PUSH1 0x24 DUP3 ADD MSTORE PUSH22 0x21B0B73737BA103132903932BBB0B932103A37B5B2B7 PUSH1 0x51 SHL PUSH1 0x44 DUP3 ADD MSTORE PUSH1 0x64 ADD PUSH2 0x3B0 JUMP JUMPDEST PUSH1 0x40 MLOAD PUSH4 0xA9059CBB PUSH1 0xE0 SHL DUP2 MSTORE CALLER PUSH1 0x4 DUP3 ADD MSTORE PUSH1 0x24 DUP2 ADD DUP3 SWAP1 MSTORE PUSH1 0x1 PUSH1 0x1 PUSH1 0xA0 SHL SUB DUP4 AND SWAP1 PUSH4 0xA9059CBB SWAP1 PUSH1 0x44 ADD PUSH1 0x20 PUSH1 0x40 MLOAD DUP1 DUP4 SUB DUP2 PUSH1 0x0 DUP8 GAS CALL ISZERO DUP1 ISZERO PUSH2 0x867 JUMPI RETURNDATASIZE PUSH1 0x0 DUP1 RETURNDATACOPY RETURNDATASIZE PUSH1 0x0 REVERT JUMPDEST POP POP POP POP PUSH1 0x40 MLOAD RETURNDATASIZE PUSH1 0x1F NOT PUSH1 0x1F DUP3 ADD AND DUP3 ADD DUP1 PUSH1 0x40 MSTORE POP DUP2 ADD SWAP1 PUSH2 0x88B SWAP2 SWAP1 PUSH2 0x161D JUMP JUMPDEST POP DUP2 PUSH1 0x1 PUSH1 0x1 PUSH1 0xA0 SHL SUB AND PUSH32 0x74545154AAC348A3EAC92596BD1971957CA94795F4E954EC5F613B55FAB78129 DUP3 PUSH1 0x40 MLOAD PUSH2 0x8C7 SWAP2 DUP2 MSTORE PUSH1 0x20 ADD SWAP1 JUMP JUMPDEST PUSH1 0x40 MLOAD DUP1 SWAP2 SUB SWAP1 LOG2 POP POP JUMP JUMPDEST PUSH1 0x0 SLOAD PUSH1 0x1 PUSH1 0x1 PUSH1 0xA0 SHL SUB AND CALLER EQ PUSH2 0x8FD JUMPI PUSH1 0x40 MLOAD PUSH3 0x461BCD PUSH1 0xE5 SHL DUP2 MSTORE PUSH1 0x4 ADD PUSH2 0x3B0 SWAP1 PUSH2 0x1543 JUMP JUMPDEST PUSH1 0x1 PUSH1 0x1 PUSH1 0xA0 SHL SUB DUP2 AND ISZERO DUP1 ISZERO SWAP1 PUSH2 0x923 JUMPI POP PUSH1 0xB SLOAD PUSH1 0x1 PUSH1 0x1 PUSH1 0xA0 SHL SUB DUP3 DUP2 AND SWAP2 AND EQ ISZERO JUMPDEST PUSH2 0x961 JUMPI PUSH1 0x40 MLOAD PUSH3 0x461BCD PUSH1 0xE5 SHL DUP2 MSTORE PUSH1 0x20 PUSH1 0x4 DUP3 ADD MSTORE PUSH1 0xF PUSH1 0x24 DUP3 ADD MSTORE PUSH15 0x496E76616C69642041646472657373 PUSH1 0x88 SHL PUSH1 0x44 DUP3 ADD MSTORE PUSH1 0x64 ADD PUSH2 0x3B0 JUMP JUMPDEST PUSH1 0xB SLOAD PUSH1 0x40 DUP1 MLOAD PUSH1 0x1 PUSH1 0x1 PUSH1 0xA0 SHL SUB DUP1 DUP6 AND DUP3 MSTORE SWAP1 SWAP3 AND PUSH1 0x20 DUP4 ADD MSTORE PUSH32 0x4F817E2483680B2978ED4ABB61DA6716FBF93EB7DF1416708DA08B9BE32D49FF SWAP2 ADD PUSH1 0x40 MLOAD DUP1 SWAP2 SUB SWAP1 LOG1 PUSH1 0xB DUP1 SLOAD PUSH1 0x1 PUSH1 0x1 PUSH1 0xA0 SHL SUB NOT AND PUSH1 0x1 PUSH1 0x1 PUSH1 0xA0 SHL SUB SWAP3 SWAP1 SWAP3 AND SWAP2 SWAP1 SWAP2 OR SWAP1 SSTORE JUMP JUMPDEST PUSH1 0x0 SLOAD PUSH1 0x1 PUSH1 0x1 PUSH1 0xA0 SHL SUB AND CALLER EQ PUSH2 0x9F4 JUMPI PUSH1 0x40 MLOAD PUSH3 0x461BCD PUSH1 0xE5 SHL DUP2 MSTORE PUSH1 0x4 ADD PUSH2 0x3B0 SWAP1 PUSH2 0x1543 JUMP JUMPDEST PUSH1 0x7 SLOAD DUP2 GT DUP1 PUSH2 0xA02 JUMPI POP DUP1 ISZERO JUMPDEST PUSH2 0xA4E JUMPI PUSH1 0x40 MLOAD PUSH3 0x461BCD PUSH1 0xE5 SHL DUP2 MSTORE PUSH1 0x20 PUSH1 0x4 DUP3 ADD MSTORE PUSH1 0x1D PUSH1 0x24 DUP3 ADD MSTORE PUSH32 0x496E637265617365206F722072656D6F7665206C696D6974206F6E6C79000000 PUSH1 0x44 DUP3 ADD MSTORE PUSH1 0x64 ADD PUSH2 0x3B0 JUMP JUMPDEST PUSH1 0x6 DUP2 SWAP1 SSTORE DUP1 ISZERO PUSH2 0xA5F JUMPI PUSH1 0x7 DUP2 SWAP1 SSTORE JUMPDEST PUSH32 0xA498DAEFCA172C7EBB28B62DB707445296CB78B1BE0C15AFE0B4D9096335B75A PUSH1 0x6 SLOAD PUSH1 0x40 MLOAD PUSH2 0x42E SWAP2 DUP2 MSTORE PUSH1 0x20 ADD SWAP1 JUMP JUMPDEST PUSH1 0x0 SLOAD PUSH1 0x1 PUSH1 0x1 PUSH1 0xA0 SHL SUB AND CALLER EQ PUSH2 0xABC JUMPI PUSH1 0x40 MLOAD PUSH3 0x461BCD PUSH1 0xE5 SHL DUP2 MSTORE PUSH1 0x4 ADD PUSH2 0x3B0 SWAP1 PUSH2 0x1543 JUMP JUMPDEST PUSH2 0xAC6 PUSH1 0x0 PUSH2 0x1472 JUMP JUMPDEST JUMP JUMPDEST PUSH1 0x0 SLOAD PUSH1 0x1 PUSH1 0x1 PUSH1 0xA0 SHL SUB AND CALLER EQ PUSH2 0xAF2 JUMPI PUSH1 0x40 MLOAD PUSH3 0x461BCD PUSH1 0xE5 SHL DUP2 MSTORE PUSH1 0x4 ADD PUSH2 0x3B0 SWAP1 PUSH2 0x1543 JUMP JUMPDEST PUSH2 0x9C4 DUP2 GT ISZERO PUSH2 0xB32 JUMPI PUSH1 0x40 MLOAD PUSH3 0x461BCD PUSH1 0xE5 SHL DUP2 MSTORE PUSH1 0x20 PUSH1 0x4 DUP3 ADD MSTORE PUSH1 0xB PUSH1 0x24 DUP3 ADD MSTORE PUSH11 0x496E76616C696420466565 PUSH1 0xA8 SHL PUSH1 0x44 DUP3 ADD MSTORE PUSH1 0x64 ADD PUSH2 0x3B0 JUMP JUMPDEST PUSH1 0xA SLOAD PUSH1 0x40 DUP1 MLOAD DUP4 DUP2 MSTORE PUSH1 0x20 DUP2 ADD SWAP3 SWAP1 SWAP3 MSTORE PUSH32 0x53482196EF67AC615CAAB1C3ECA2C270ACBFDCD75E57C5F24C1B98B10C8E6E04 SWAP2 ADD PUSH1 0x40 MLOAD DUP1 SWAP2 SUB SWAP1 LOG1 PUSH1 0xA SSTORE JUMP JUMPDEST PUSH1 0x2 PUSH1 0x1 SLOAD EQ ISZERO PUSH2 0xB97 JUMPI PUSH1 0x40 MLOAD PUSH3 0x461BCD PUSH1 0xE5 SHL DUP2 MSTORE PUSH1 0x4 ADD PUSH2 0x3B0 SWAP1 PUSH2 0x1578 JUMP JUMPDEST PUSH1 0x2 PUSH1 0x1 DUP2 SWAP1 SSTORE CALLER PUSH1 0x0 SWAP1 DUP2 MSTORE PUSH1 0x20 SWAP2 SWAP1 SWAP2 MSTORE PUSH1 0x40 SWAP1 KECCAK256 PUSH1 0x6 SLOAD ISZERO PUSH2 0xC02 JUMPI PUSH1 0x6 SLOAD DUP2 SLOAD PUSH2 0xBC6 SWAP1 DUP5 SWAP1 PUSH2 0x163F JUMP JUMPDEST GT ISZERO PUSH2 0xC02 JUMPI PUSH1 0x40 MLOAD PUSH3 0x461BCD PUSH1 0xE5 SHL DUP2 MSTORE PUSH1 0x20 PUSH1 0x4 DUP3 ADD MSTORE PUSH1 0xB PUSH1 0x24 DUP3 ADD MSTORE PUSH11 0x10589BDD9948131A5B5A5D PUSH1 0xAA SHL PUSH1 0x44 DUP3 ADD MSTORE PUSH1 0x64 ADD PUSH2 0x3B0 JUMP JUMPDEST PUSH2 0xC0A PUSH2 0x1344 JUMP JUMPDEST DUP1 SLOAD ISZERO PUSH2 0xD26 JUMPI PUSH1 0x0 DUP2 PUSH1 0x1 ADD SLOAD PUSH5 0xE8D4A51000 PUSH1 0x8 SLOAD DUP5 PUSH1 0x0 ADD SLOAD PUSH2 0xC30 SWAP2 SWAP1 PUSH2 0x15C5 JUMP JUMPDEST PUSH2 0xC3A SWAP2 SWAP1 PUSH2 0x15E4 JUMP JUMPDEST PUSH2 0xC44 SWAP2 SWAP1 PUSH2 0x1606 JUMP JUMPDEST SWAP1 POP DUP1 ISZERO PUSH2 0xD24 JUMPI PUSH1 0x40 MLOAD PUSH4 0xA9059CBB PUSH1 0xE0 SHL DUP2 MSTORE CALLER PUSH1 0x4 DUP3 ADD MSTORE PUSH1 0x24 DUP2 ADD DUP3 SWAP1 MSTORE PUSH1 0x0 SWAP1 PUSH32 0x0 PUSH1 0x1 PUSH1 0x1 PUSH1 0xA0 SHL SUB AND SWAP1 PUSH4 0xA9059CBB SWAP1 PUSH1 0x44 ADD PUSH1 0x20 PUSH1 0x40 MLOAD DUP1 DUP4 SUB DUP2 PUSH1 0x0 DUP8 GAS CALL ISZERO DUP1 ISZERO PUSH2 0xCBC JUMPI RETURNDATASIZE PUSH1 0x0 DUP1 RETURNDATACOPY RETURNDATASIZE PUSH1 0x0 REVERT JUMPDEST POP POP POP POP PUSH1 0x40 MLOAD RETURNDATASIZE PUSH1 0x1F NOT PUSH1 0x1F DUP3 ADD AND DUP3 ADD DUP1 PUSH1 0x40 MSTORE POP DUP2 ADD SWAP1 PUSH2 0xCE0 SWAP2 SWAP1 PUSH2 0x161D JUMP JUMPDEST SWAP1 POP DUP1 PUSH2 0xD22 JUMPI PUSH1 0x40 MLOAD PUSH3 0x461BCD PUSH1 0xE5 SHL DUP2 MSTORE PUSH1 0x20 PUSH1 0x4 DUP3 ADD MSTORE PUSH1 0x10 PUSH1 0x24 DUP3 ADD MSTORE PUSH16 0x11985A5B1959081D1BC814995DD85C99 PUSH1 0x82 SHL PUSH1 0x44 DUP3 ADD MSTORE PUSH1 0x64 ADD PUSH2 0x3B0 JUMP JUMPDEST POP JUMPDEST POP JUMPDEST DUP2 ISZERO PUSH2 0xF50 JUMPI PUSH1 0xA SLOAD ISZERO PUSH2 0xE5D JUMPI PUSH1 0x0 PUSH2 0x2710 PUSH1 0xA SLOAD DUP5 PUSH2 0xD47 SWAP2 SWAP1 PUSH2 0x15C5 JUMP JUMPDEST PUSH2 0xD51 SWAP2 SWAP1 PUSH2 0x15E4 JUMP JUMPDEST SWAP1 POP PUSH2 0xD5D DUP2 DUP5 PUSH2 0x1606 JUMP JUMPDEST PUSH1 0xB SLOAD PUSH1 0x40 MLOAD PUSH4 0x23B872DD PUSH1 0xE0 SHL DUP2 MSTORE CALLER PUSH1 0x4 DUP3 ADD MSTORE PUSH1 0x1 PUSH1 0x1 PUSH1 0xA0 SHL SUB SWAP2 DUP3 AND PUSH1 0x24 DUP3 ADD MSTORE PUSH1 0x44 DUP2 ADD DUP5 SWAP1 MSTORE SWAP2 SWAP5 POP PUSH1 0x0 SWAP2 PUSH32 0x0 SWAP1 SWAP2 AND SWAP1 PUSH4 0x23B872DD SWAP1 PUSH1 0x64 ADD PUSH1 0x20 PUSH1 0x40 MLOAD DUP1 DUP4 SUB DUP2 PUSH1 0x0 DUP8 GAS CALL ISZERO DUP1 ISZERO PUSH2 0xDDD JUMPI RETURNDATASIZE PUSH1 0x0 DUP1 RETURNDATACOPY RETURNDATASIZE PUSH1 0x0 REVERT JUMPDEST POP POP POP POP PUSH1 0x40 MLOAD RETURNDATASIZE PUSH1 0x1F NOT PUSH1 0x1F DUP3 ADD AND DUP3 ADD DUP1 PUSH1 0x40 MSTORE POP DUP2 ADD SWAP1 PUSH2 0xE01 SWAP2 SWAP1 PUSH2 0x161D JUMP JUMPDEST SWAP1 POP DUP1 PUSH2 0xE5A JUMPI PUSH1 0x40 MLOAD PUSH3 0x461BCD PUSH1 0xE5 SHL DUP2 MSTORE PUSH1 0x20 PUSH1 0x4 DUP3 ADD MSTORE PUSH1 0x21 PUSH1 0x24 DUP3 ADD MSTORE PUSH32 0x556E61626C6520746F207472616E7366657220746F2066656520416464726573 PUSH1 0x44 DUP3 ADD MSTORE PUSH1 0x73 PUSH1 0xF8 SHL PUSH1 0x64 DUP3 ADD MSTORE PUSH1 0x84 ADD PUSH2 0x3B0 JUMP JUMPDEST POP POP JUMPDEST DUP2 DUP2 PUSH1 0x0 ADD PUSH1 0x0 DUP3 DUP3 SLOAD PUSH2 0xE71 SWAP2 SWAP1 PUSH2 0x163F JUMP JUMPDEST SWAP1 SWAP2 SSTORE POP POP PUSH1 0x40 MLOAD PUSH4 0x23B872DD PUSH1 0xE0 SHL DUP2 MSTORE CALLER PUSH1 0x4 DUP3 ADD MSTORE ADDRESS PUSH1 0x24 DUP3 ADD MSTORE PUSH1 0x44 DUP2 ADD DUP4 SWAP1 MSTORE PUSH1 0x0 SWAP1 PUSH32 0x0 PUSH1 0x1 PUSH1 0x1 PUSH1 0xA0 SHL SUB AND SWAP1 PUSH4 0x23B872DD SWAP1 PUSH1 0x64 ADD PUSH1 0x20 PUSH1 0x40 MLOAD DUP1 DUP4 SUB DUP2 PUSH1 0x0 DUP8 GAS CALL ISZERO DUP1 ISZERO PUSH2 0xEEC JUMPI RETURNDATASIZE PUSH1 0x0 DUP1 RETURNDATACOPY RETURNDATASIZE PUSH1 0x0 REVERT JUMPDEST POP POP POP POP PUSH1 0x40 MLOAD RETURNDATASIZE PUSH1 0x1F NOT PUSH1 0x1F DUP3 ADD AND DUP3 ADD DUP1 PUSH1 0x40 MSTORE POP DUP2 ADD SWAP1 PUSH2 0xF10 SWAP2 SWAP1 PUSH2 0x161D JUMP JUMPDEST SWAP1 POP DUP1 PUSH2 0xF4E JUMPI PUSH1 0x40 MLOAD PUSH3 0x461BCD PUSH1 0xE5 SHL DUP2 MSTORE PUSH1 0x20 PUSH1 0x4 DUP3 ADD MSTORE PUSH1 0xC PUSH1 0x24 DUP3 ADD MSTORE PUSH12 0x10D85B9D0819195C1BDCDA5D PUSH1 0xA2 SHL PUSH1 0x44 DUP3 ADD MSTORE PUSH1 0x64 ADD PUSH2 0x3B0 JUMP JUMPDEST POP JUMPDEST PUSH1 0x8 SLOAD DUP2 SLOAD PUSH5 0xE8D4A51000 SWAP2 PUSH2 0xF65 SWAP2 PUSH2 0x15C5 JUMP JUMPDEST PUSH2 0xF6F SWAP2 SWAP1 PUSH2 0x15E4 JUMP JUMPDEST PUSH1 0x1 DUP3 ADD SSTORE PUSH1 0x40 MLOAD DUP3 DUP2 MSTORE CALLER SWAP1 PUSH32 0xE1FFFCC4923D04B559F4D29A8BFC6CDA04EB5B0D3C460751C2402C5C5CC9109C SWAP1 PUSH1 0x20 ADD JUMPDEST PUSH1 0x40 MLOAD DUP1 SWAP2 SUB SWAP1 LOG2 POP POP PUSH1 0x1 DUP1 SSTORE JUMP JUMPDEST PUSH1 0x2 PUSH1 0x1 SLOAD EQ ISZERO PUSH2 0xFD5 JUMPI PUSH1 0x40 MLOAD PUSH3 0x461BCD PUSH1 0xE5 SHL DUP2 MSTORE PUSH1 0x4 ADD PUSH2 0x3B0 SWAP1 PUSH2 0x1578 JUMP JUMPDEST PUSH1 0x2 PUSH1 0x1 DUP2 DUP2 SSTORE CALLER PUSH1 0x0 SWAP1 DUP2 MSTORE PUSH1 0x20 SWAP3 SWAP1 SWAP3 MSTORE PUSH1 0x40 DUP3 KECCAK256 DUP1 SLOAD DUP4 DUP3 SSTORE SWAP2 DUP2 ADD SWAP3 SWAP1 SWAP3 SSTORE DUP1 ISZERO PUSH2 0x10E3 JUMPI PUSH1 0x40 MLOAD PUSH4 0xA9059CBB PUSH1 0xE0 SHL DUP2 MSTORE CALLER PUSH1 0x4 DUP3 ADD MSTORE PUSH1 0x24 DUP2 ADD DUP3 SWAP1 MSTORE PUSH1 0x0 SWAP1 PUSH32 0x0 PUSH1 0x1 PUSH1 0x1 PUSH1 0xA0 SHL SUB AND SWAP1 PUSH4 0xA9059CBB SWAP1 PUSH1 0x44 ADD PUSH1 0x20 PUSH1 0x40 MLOAD DUP1 DUP4 SUB DUP2 PUSH1 0x0 DUP8 GAS CALL ISZERO DUP1 ISZERO PUSH2 0x106E JUMPI RETURNDATASIZE PUSH1 0x0 DUP1 RETURNDATACOPY RETURNDATASIZE PUSH1 0x0 REVERT JUMPDEST POP POP POP POP PUSH1 0x40 MLOAD RETURNDATASIZE PUSH1 0x1F NOT PUSH1 0x1F DUP3 ADD AND DUP3 ADD DUP1 PUSH1 0x40 MSTORE POP DUP2 ADD SWAP1 PUSH2 0x1092 SWAP2 SWAP1 PUSH2 0x161D JUMP JUMPDEST SWAP1 POP DUP1 PUSH2 0x10E1 JUMPI PUSH1 0x40 MLOAD PUSH3 0x461BCD PUSH1 0xE5 SHL DUP2 MSTORE PUSH1 0x20 PUSH1 0x4 DUP3 ADD MSTORE PUSH1 0x17 PUSH1 0x24 DUP3 ADD MSTORE PUSH32 0x456D657267656E63792043616E74207769746864726177000000000000000000 PUSH1 0x44 DUP3 ADD MSTORE PUSH1 0x64 ADD PUSH2 0x3B0 JUMP JUMPDEST POP JUMPDEST PUSH1 0x40 MLOAD DUP2 DUP2 MSTORE CALLER SWAP1 PUSH32 0x5FAFA99D0643513820BE26656B45130B01E1C03062E1266BF36F88CBD3BD9695 SWAP1 PUSH1 0x20 ADD PUSH2 0xFA2 JUMP JUMPDEST PUSH1 0x0 SLOAD PUSH1 0x1 PUSH1 0x1 PUSH1 0xA0 SHL SUB AND CALLER EQ PUSH2 0x113F JUMPI PUSH1 0x40 MLOAD PUSH3 0x461BCD PUSH1 0xE5 SHL DUP2 MSTORE PUSH1 0x4 ADD PUSH2 0x3B0 SWAP1 PUSH2 0x1543 JUMP JUMPDEST PUSH1 0x1 PUSH1 0x1 PUSH1 0xA0 SHL SUB DUP2 AND PUSH2 0x11A4 JUMPI PUSH1 0x40 MLOAD PUSH3 0x461BCD PUSH1 0xE5 SHL DUP2 MSTORE PUSH1 0x20 PUSH1 0x4 DUP3 ADD MSTORE PUSH1 0x26 PUSH1 0x24 DUP3 ADD MSTORE PUSH32 0x4F776E61626C653A206E6577206F776E657220697320746865207A65726F2061 PUSH1 0x44 DUP3 ADD MSTORE PUSH6 0x646472657373 PUSH1 0xD0 SHL PUSH1 0x64 DUP3 ADD MSTORE PUSH1 0x84 ADD PUSH2 0x3B0 JUMP JUMPDEST PUSH2 0x11AD DUP2 PUSH2 0x1472 JUMP JUMPDEST POP JUMP JUMPDEST PUSH1 0x1 PUSH1 0x1 PUSH1 0xA0 SHL SUB DUP2 DUP2 AND PUSH1 0x0 SWAP1 DUP2 MSTORE PUSH1 0x2 PUSH1 0x20 MSTORE PUSH1 0x40 DUP1 DUP3 KECCAK256 SWAP1 MLOAD PUSH4 0x70A08231 PUSH1 0xE0 SHL DUP2 MSTORE ADDRESS PUSH1 0x4 DUP3 ADD MSTORE SWAP2 SWAP3 SWAP1 SWAP2 DUP4 SWAP2 PUSH32 0x0 AND SWAP1 PUSH4 0x70A08231 SWAP1 PUSH1 0x24 ADD PUSH1 0x20 PUSH1 0x40 MLOAD DUP1 DUP4 SUB DUP2 DUP7 GAS STATICCALL ISZERO DUP1 ISZERO PUSH2 0x122B JUMPI RETURNDATASIZE PUSH1 0x0 DUP1 RETURNDATACOPY RETURNDATASIZE PUSH1 0x0 REVERT JUMPDEST POP POP POP POP PUSH1 0x40 MLOAD RETURNDATASIZE PUSH1 0x1F NOT PUSH1 0x1F DUP3 ADD AND DUP3 ADD DUP1 PUSH1 0x40 MSTORE POP DUP2 ADD SWAP1 PUSH2 0x124F SWAP2 SWAP1 PUSH2 0x1657 JUMP JUMPDEST SWAP1 POP PUSH1 0x9 SLOAD NUMBER GT DUP1 ISZERO PUSH2 0x1262 JUMPI POP PUSH1 0x0 DUP2 GT JUMPDEST ISZERO PUSH2 0x130C JUMPI PUSH1 0x0 PUSH1 0x3 SLOAD NUMBER GT ISZERO PUSH2 0x128A JUMPI PUSH1 0x9 SLOAD PUSH1 0x3 SLOAD PUSH2 0x1283 SWAP2 SWAP1 PUSH2 0x1606 JUMP JUMPDEST SWAP1 POP PUSH2 0x129A JUMP JUMPDEST PUSH1 0x9 SLOAD PUSH2 0x1297 SWAP1 NUMBER PUSH2 0x1606 JUMP JUMPDEST SWAP1 POP JUMPDEST PUSH1 0x4 SLOAD PUSH2 0x12A7 SWAP1 DUP3 PUSH2 0x15C5 JUMP JUMPDEST SWAP1 POP PUSH1 0x0 DUP3 PUSH2 0x12BB PUSH5 0xE8D4A51000 DUP5 PUSH2 0x15C5 JUMP JUMPDEST PUSH2 0x12C5 SWAP2 SWAP1 PUSH2 0x15E4 JUMP JUMPDEST PUSH1 0x8 SLOAD PUSH2 0x12D2 SWAP2 SWAP1 PUSH2 0x163F JUMP JUMPDEST SWAP1 POP DUP4 PUSH1 0x1 ADD SLOAD PUSH5 0xE8D4A51000 DUP6 PUSH1 0x0 ADD SLOAD DUP4 PUSH2 0x12EF SWAP2 SWAP1 PUSH2 0x15C5 JUMP JUMPDEST PUSH2 0x12F9 SWAP2 SWAP1 PUSH2 0x15E4 JUMP JUMPDEST PUSH2 0x1303 SWAP2 SWAP1 PUSH2 0x1606 JUMP JUMPDEST SWAP5 POP POP POP PUSH2 0x133D JUMP JUMPDEST PUSH1 0x1 DUP3 ADD SLOAD PUSH1 0x8 SLOAD DUP4 SLOAD PUSH5 0xE8D4A51000 SWAP2 PUSH2 0x1326 SWAP2 PUSH2 0x15C5 JUMP JUMPDEST PUSH2 0x1330 SWAP2 SWAP1 PUSH2 0x15E4 JUMP JUMPDEST PUSH2 0x133A SWAP2 SWAP1 PUSH2 0x1606 JUMP JUMPDEST SWAP3 POP JUMPDEST POP POP SWAP2 SWAP1 POP JUMP JUMPDEST PUSH1 0x9 SLOAD NUMBER GT PUSH2 0x134F JUMPI JUMP JUMPDEST PUSH1 0x40 MLOAD PUSH4 0x70A08231 PUSH1 0xE0 SHL DUP2 MSTORE ADDRESS PUSH1 0x4 DUP3 ADD MSTORE PUSH1 0x0 SWAP1 PUSH32 0x0 PUSH1 0x1 PUSH1 0x1 PUSH1 0xA0 SHL SUB AND SWAP1 PUSH4 0x70A08231 SWAP1 PUSH1 0x24 ADD PUSH1 0x20 PUSH1 0x40 MLOAD DUP1 DUP4 SUB DUP2 DUP7 GAS STATICCALL ISZERO DUP1 ISZERO PUSH2 0x13B6 JUMPI RETURNDATASIZE PUSH1 0x0 DUP1 RETURNDATACOPY RETURNDATASIZE PUSH1 0x0 REVERT JUMPDEST POP POP POP POP PUSH1 0x40 MLOAD RETURNDATASIZE PUSH1 0x1F NOT PUSH1 0x1F DUP3 ADD AND DUP3 ADD DUP1 PUSH1 0x40 MSTORE POP DUP2 ADD SWAP1 PUSH2 0x13DA SWAP2 SWAP1 PUSH2 0x1657 JUMP JUMPDEST SWAP1 POP DUP1 ISZERO DUP1 PUSH2 0x13EC JUMPI POP PUSH1 0x3 SLOAD PUSH1 0x9 SLOAD GT JUMPDEST ISZERO PUSH2 0x13F8 JUMPI POP NUMBER PUSH1 0x9 SSTORE JUMP JUMPDEST PUSH1 0x0 PUSH1 0x3 SLOAD NUMBER GT ISZERO PUSH2 0x141B JUMPI PUSH1 0x9 SLOAD PUSH1 0x3 SLOAD PUSH2 0x1414 SWAP2 SWAP1 PUSH2 0x1606 JUMP JUMPDEST SWAP1 POP PUSH2 0x142B JUMP JUMPDEST PUSH1 0x9 SLOAD PUSH2 0x1428 SWAP1 NUMBER PUSH2 0x1606 JUMP JUMPDEST SWAP1 POP JUMPDEST PUSH1 0x4 SLOAD PUSH2 0x1438 SWAP1 DUP3 PUSH2 0x15C5 JUMP JUMPDEST SWAP1 POP DUP2 PUSH2 0x144A PUSH5 0xE8D4A51000 DUP4 PUSH2 0x15C5 JUMP JUMPDEST PUSH2 0x1454 SWAP2 SWAP1 PUSH2 0x15E4 JUMP JUMPDEST PUSH1 0x8 PUSH1 0x0 DUP3 DUP3 SLOAD PUSH2 0x1465 SWAP2 SWAP1 PUSH2 0x163F JUMP JUMPDEST SWAP1 SWAP2 SSTORE POP POP NUMBER PUSH1 0x9 SSTORE POP POP JUMP JUMPDEST PUSH1 0x0 DUP1 SLOAD PUSH1 0x1 PUSH1 0x1 PUSH1 0xA0 SHL SUB DUP4 DUP2 AND PUSH1 0x1 PUSH1 0x1 PUSH1 0xA0 SHL SUB NOT DUP4 AND DUP2 OR DUP5 SSTORE PUSH1 0x40 MLOAD SWAP2 SWAP1 SWAP3 AND SWAP3 DUP4 SWAP2 PUSH32 0x8BE0079C531659141344CD1FD0A4F28419497F9722A3DAAFE3B4186F6B6457E0 SWAP2 SWAP1 LOG3 POP POP JUMP JUMPDEST PUSH1 0x0 PUSH1 0x20 DUP3 DUP5 SUB SLT ISZERO PUSH2 0x14D4 JUMPI PUSH1 0x0 DUP1 REVERT JUMPDEST POP CALLDATALOAD SWAP2 SWAP1 POP JUMP JUMPDEST DUP1 CALLDATALOAD PUSH1 0x1 PUSH1 0x1 PUSH1 0xA0 SHL SUB DUP2 AND DUP2 EQ PUSH2 0x14F2 JUMPI PUSH1 0x0 DUP1 REVERT JUMPDEST SWAP2 SWAP1 POP JUMP JUMPDEST PUSH1 0x0 PUSH1 0x20 DUP3 DUP5 SUB SLT ISZERO PUSH2 0x1509 JUMPI PUSH1 0x0 DUP1 REVERT JUMPDEST PUSH2 0x1512 DUP3 PUSH2 0x14DB JUMP JUMPDEST SWAP4 SWAP3 POP POP POP JUMP JUMPDEST PUSH1 0x0 DUP1 PUSH1 0x40 DUP4 DUP6 SUB SLT ISZERO PUSH2 0x152C JUMPI PUSH1 0x0 DUP1 REVERT JUMPDEST PUSH2 0x1535 DUP4 PUSH2 0x14DB JUMP JUMPDEST SWAP5 PUSH1 0x20 SWAP4 SWAP1 SWAP4 ADD CALLDATALOAD SWAP4 POP POP POP JUMP JUMPDEST PUSH1 0x20 DUP1 DUP3 MSTORE DUP2 DUP2 ADD MSTORE PUSH32 0x4F776E61626C653A2063616C6C6572206973206E6F7420746865206F776E6572 PUSH1 0x40 DUP3 ADD MSTORE PUSH1 0x60 ADD SWAP1 JUMP JUMPDEST PUSH1 0x20 DUP1 DUP3 MSTORE PUSH1 0x1F SWAP1 DUP3 ADD MSTORE PUSH32 0x5265656E7472616E637947756172643A207265656E7472616E742063616C6C00 PUSH1 0x40 DUP3 ADD MSTORE PUSH1 0x60 ADD SWAP1 JUMP JUMPDEST PUSH4 0x4E487B71 PUSH1 0xE0 SHL PUSH1 0x0 MSTORE PUSH1 0x11 PUSH1 0x4 MSTORE PUSH1 0x24 PUSH1 0x0 REVERT JUMPDEST PUSH1 0x0 DUP2 PUSH1 0x0 NOT DIV DUP4 GT DUP3 ISZERO ISZERO AND ISZERO PUSH2 0x15DF JUMPI PUSH2 0x15DF PUSH2 0x15AF JUMP JUMPDEST POP MUL SWAP1 JUMP JUMPDEST PUSH1 0x0 DUP3 PUSH2 0x1601 JUMPI PUSH4 0x4E487B71 PUSH1 0xE0 SHL PUSH1 0x0 MSTORE PUSH1 0x12 PUSH1 0x4 MSTORE PUSH1 0x24 PUSH1 0x0 REVERT JUMPDEST POP DIV SWAP1 JUMP JUMPDEST PUSH1 0x0 DUP3 DUP3 LT ISZERO PUSH2 0x1618 JUMPI PUSH2 0x1618 PUSH2 0x15AF JUMP JUMPDEST POP SUB SWAP1 JUMP JUMPDEST PUSH1 0x0 PUSH1 0x20 DUP3 DUP5 SUB SLT ISZERO PUSH2 0x162F JUMPI PUSH1 0x0 DUP1 REVERT JUMPDEST DUP2 MLOAD DUP1 ISZERO ISZERO DUP2 EQ PUSH2 0x1512 JUMPI PUSH1 0x0 DUP1 REVERT JUMPDEST PUSH1 0x0 DUP3 NOT DUP3 GT ISZERO PUSH2 0x1652 JUMPI PUSH2 0x1652 PUSH2 0x15AF JUMP JUMPDEST POP ADD SWAP1 JUMP JUMPDEST PUSH1 0x0 PUSH1 0x20 DUP3 DUP5 SUB SLT ISZERO PUSH2 0x1669 JUMPI PUSH1 0x0 DUP1 REVERT JUMPDEST POP MLOAD SWAP2 SWAP1 POP JUMP INVALID LOG2 PUSH5 0x6970667358 0x22 SLT KECCAK256 0x4A 0xFC 0xC2 COINBASE CALLDATASIZE 0xC1 0xE7 KECCAK256 DUP3 BYTE 0xF DUP4 0xA5 0xE 0x5C 0xB5 PUSH18 0xBF4834819C5D4E00E8FDABA12188C464736F PUSH13 0x634300080C0033000000000000 ","sha1":"ee83ed5a9bda1bf49e5917cc26b4b978452d482b","source":"// SPDX-License-Identifier: MIT\n\npragma solidity 0.8.12;\n\nimport \"@openzeppelin/contracts/access/Ownable.sol\";\nimport \"@openzeppelin/contracts/token/ERC20/IERC20.sol\";\nimport \"@openzeppelin/contracts/security/ReentrancyGuard.sol\";\nimport \"../interfaces/IFeeDistributor.sol\";\n\ncontract InvaderPool is Ownable, ReentrancyGuard {\n    struct UserInfo {\n        uint256 amount;\n        uint256 accReward;\n    }\n\n    mapping(address => UserInfo) public userInfo;\n\n    IERC20 public immutable stakeToken;\n    IERC20 public immutable rewardToken;\n\n    uint256 public rewardEnd;\n    uint256 public rewardPerBlock;\n    uint256 public startBlock;\n    uint256 public poolLimit;\n    uint256 public prevLimit;\n    uint256 public accRewardPerShare;\n    uint256 public lastRewardBlock;\n    uint256 public fee;\n    uint256 public constant DIVISOR = 10000; //100.00\n\n    address public feeAddress;\n\n    uint256 public constant PRECISION_FACTOR = 1e12;\n\n    event Deposit(address indexed _user, uint256 amount);\n    event Withdraw(address indexed _user, uint256 amount);\n    event AdminTokenRecovery(address indexed _token, uint256 amount);\n    event EmergencyWithdraw(address indexed _user, uint256 amount);\n    event UpdateLimit(uint256 _limit);\n    event UpdateRewardPerBlock(uint256 _newRewardPerBlock);\n    event UpdateFeeDistributor(address _new, address _old);\n    event UpdateFees(uint256 _new, uint256 _old);\n\n    /// @notice Constructor, set startBlock at least 2 - 3 hours before actual launch time.\n    /// @dev Please add funds before startBlock is reached.\n    constructor(\n        address _staked,\n        address _rewarded,\n        address _feeAddress,\n        uint256 _rewardPerBlock,\n        uint256 _startBlock,\n        uint256 _poolLimit,\n        uint256 rewardAmount,\n        uint256 _fee\n    ) {\n        require(\n            _staked != address(0) &&\n                _rewarded != address(0) &&\n                _feeAddress != address(0),\n            \"Invalid address\"\n        );\n        stakeToken = IERC20(_staked);\n        rewardToken = IERC20(_rewarded);\n        rewardPerBlock = _rewardPerBlock;\n        startBlock = _startBlock;\n        poolLimit = _poolLimit;\n        prevLimit = _poolLimit;\n        rewardEnd = (rewardAmount / _rewardPerBlock) + _startBlock;\n        feeAddress = _feeAddress;\n        fee = _fee;\n    }\n\n    function _updateRewardPool() internal {\n        if (block.number <= lastRewardBlock) return;\n        uint256 stakedSupply = stakeToken.balanceOf(address(this));\n        if (stakedSupply == 0 || lastRewardBlock > rewardEnd) {\n            lastRewardBlock = block.number;\n            return;\n        }\n\n        uint256 reward;\n        if (block.number > rewardEnd) reward = rewardEnd - lastRewardBlock;\n        else reward = block.number - lastRewardBlock;\n\n        reward = reward * rewardPerBlock;\n        accRewardPerShare += (reward * PRECISION_FACTOR) / stakedSupply;\n        lastRewardBlock = block.number;\n    }\n\n    /// @notice withdraw stake tokens from pool back to user.\n    /// @dev updates the pool reward to give through time.\n    /// @param _amount the amount to deposit... Amount must be lower than limit\n    function deposit(uint256 _amount) external nonReentrant {\n        UserInfo storage user = userInfo[msg.sender];\n\n        if (poolLimit > 0) {\n            require(user.amount + _amount <= poolLimit, \"Above Limit\");\n        }\n\n        _updateRewardPool();\n        if (user.amount > 0) {\n            uint256 pending = ((user.amount * accRewardPerShare) /\n                PRECISION_FACTOR) - user.accReward;\n            if (pending > 0) {\n                bool success = rewardToken.transfer(msg.sender, pending);\n                require(success, \"Failed to Reward\");\n            }\n        }\n\n        if (_amount > 0) {\n            if (fee > 0) {\n                uint256 feeAmount = (_amount * fee) / DIVISOR;\n                _amount = _amount - feeAmount;\n                bool feeSuccess = stakeToken.transferFrom(\n                    msg.sender,\n                    feeAddress,\n                    feeAmount\n                );\n                require(feeSuccess, \"Unable to transfer to fee Address\");\n            }\n            user.amount += _amount;\n            bool success = stakeToken.transferFrom(\n                msg.sender,\n                address(this),\n                _amount\n            );\n            require(success, \"Cant deposit\");\n        }\n\n        user.accReward = (user.amount * accRewardPerShare) / PRECISION_FACTOR;\n\n        emit Deposit(msg.sender, _amount);\n    }\n\n    /// @notice withdraw stake tokens from pool back to user.\n    /// @dev updates the pool reward to give through time.\n    /// @param _amount the amount to withdraw... Amount must be the staked amount MAX\n    function withdraw(uint256 _amount) external nonReentrant {\n        UserInfo storage user = userInfo[msg.sender];\n        require(_amount <= user.amount, \"Amount to withdraw too high\");\n        _updateRewardPool();\n\n        uint256 pending = ((user.amount * accRewardPerShare) /\n            PRECISION_FACTOR) - user.accReward;\n        if (_amount > 0) {\n            user.amount -= _amount;\n            bool success = stakeToken.transfer(msg.sender, _amount);\n            require(success, \"Stake Transfer Fail\");\n        }\n        if (pending > 0) {\n            bool success = rewardToken.transfer(msg.sender, pending);\n        }\n        user.accReward = (user.amount * accRewardPerShare) / PRECISION_FACTOR;\n        emit Withdraw(msg.sender, _amount);\n    }\n\n    /// @notice Allows users to withdraw their funds without any rewards\n    function emergencyWithdraw() external nonReentrant {\n        UserInfo storage user = userInfo[msg.sender];\n        uint256 transferAmount = user.amount;\n        user.amount = 0;\n        user.accReward = 0;\n        if (transferAmount > 0) {\n            bool success = stakeToken.transfer(msg.sender, transferAmount);\n            require(success, \"Emergency Cant withdraw\");\n        }\n        emit EmergencyWithdraw(msg.sender, transferAmount);\n    }\n\n    /// @notice give pending reward back from having the user account\n    /// @param _user The user address to check\n    /// @return _reward The reward amount for the timeframe\n    function pendingReward(address _user)\n        external\n        view\n        returns (uint256 _reward)\n    {\n        UserInfo storage user = userInfo[_user];\n        uint256 totalSupply = stakeToken.balanceOf(address(this));\n        if (block.number > lastRewardBlock && totalSupply > 0) {\n            uint256 reward;\n            if (block.number > rewardEnd) reward = rewardEnd - lastRewardBlock;\n            else reward = block.number - lastRewardBlock;\n\n            reward = reward * rewardPerBlock;\n            uint256 adjustedPerShare = accRewardPerShare +\n                ((reward * PRECISION_FACTOR) / totalSupply);\n            _reward =\n                ((adjustedPerShare * user.amount) / PRECISION_FACTOR) -\n                user.accReward;\n        } else\n            _reward =\n                ((user.amount * accRewardPerShare) / PRECISION_FACTOR) -\n                user.accReward;\n    }\n\n    /// @notice It allows the admin to recover wrong tokens sent to the contract\n    /// @param _tokenAddress: the address of the token to withdraw\n    /// @param _tokenAmount: the number of tokens to withdraw\n    /// @dev This function is only callable by admin.\n    function recoverWrongTokens(address _tokenAddress, uint256 _tokenAmount)\n        external\n        onlyOwner\n    {\n        require(_tokenAddress != address(stakeToken), \"Cannot be staked token\");\n        require(\n            _tokenAddress != address(rewardToken),\n            \"Cannot be reward token\"\n        );\n\n        IERC20(_tokenAddress).transfer(msg.sender, _tokenAmount);\n\n        emit AdminTokenRecovery(_tokenAddress, _tokenAmount);\n    }\n\n    /// @notice Update pool limit per user\n    /// @dev Only callable by owner.\n    /// @param _newLimit: enforce limit only by number... new Limit must be higher or ZERO\n    /// @dev if _newLimit is 0 then limit is removed\n    function updatePoolLimitPerUser(uint256 _newLimit) external onlyOwner {\n        require(\n            _newLimit > prevLimit || _newLimit == 0,\n            \"Increase or remove limit only\"\n        );\n        poolLimit = _newLimit;\n        if (_newLimit != 0) prevLimit = _newLimit;\n        emit UpdateLimit(poolLimit);\n    }\n\n    /// @notice Update reward per block\n    /// @dev Only callable by owner.\n    /// @param _rewardPerBlock: the reward per block\n    function updateRewardPerBlock(uint256 _rewardPerBlock) external onlyOwner {\n        require(block.number < startBlock, \"Pool has started\");\n        rewardPerBlock = _rewardPerBlock;\n        emit UpdateRewardPerBlock(_rewardPerBlock);\n    }\n\n    function updateFeeDistributor(address _feeAddress) external onlyOwner {\n        require(\n            _feeAddress != address(0) && _feeAddress != feeAddress,\n            \"Invalid Address\"\n        ); // dev: Fee distributor can't be zero wallet\n        emit UpdateFeeDistributor(_feeAddress, feeAddress);\n        feeAddress = _feeAddress;\n    }\n\n    function updateFee(uint256 _newFee) external onlyOwner {\n        require(_newFee <= 2500, \"Invalid Fee\"); // Fee too high\n        emit UpdateFees(_newFee, fee);\n        fee = _newFee;\n    }\n}\n","sourcePath":"contracts/InvaderPool.sol","type":"contract","deployment":{"address":"0x087b1681b2b492309AcE1768604914cC32b6a647","chainid":"97","blockHeight":18222821}}