{"abi":[{"inputs":[{"internalType":"address","name":"_crush","type":"address"},{"internalType":"address","name":"_bankAddress","type":"address"}],"stateMutability":"nonpayable","type":"constructor","name":"constructor"},{"anonymous":false,"inputs":[{"indexed":true,"internalType":"uint256","name":"_round","type":"uint256"},{"indexed":false,"internalType":"uint256","name":"_amount","type":"uint256"}],"name":"FundPool","type":"event"},{"anonymous":false,"inputs":[{"indexed":true,"internalType":"address","name":"_partner","type":"address"},{"indexed":false,"internalType":"uint256","name":"_amount","type":"uint256"},{"indexed":false,"internalType":"uint256","name":"_startRound","type":"uint256"},{"indexed":false,"internalType":"uint256","name":"_numberOfRounds","type":"uint256"}],"name":"FundedBonusCoins","type":"event"},{"anonymous":false,"inputs":[{"indexed":false,"internalType":"uint256","name":"_data","type":"uint256"},{"indexed":false,"internalType":"string","name":"_annotation","type":"string"}],"name":"LogEvent","type":"event"},{"anonymous":false,"inputs":[{"indexed":true,"internalType":"address","name":"operators","type":"address"},{"indexed":false,"internalType":"bool","name":"active_status","type":"bool"}],"name":"OperatorChanged","type":"event"},{"anonymous":false,"inputs":[{"indexed":true,"internalType":"address","name":"previousOwner","type":"address"},{"indexed":true,"internalType":"address","name":"newOwner","type":"address"}],"name":"OwnershipTransferred","type":"event"},{"anonymous":false,"inputs":[{"indexed":true,"internalType":"address","name":"_partner","type":"address"}],"name":"PartnerUpdated","type":"event"},{"anonymous":false,"inputs":[{"indexed":true,"internalType":"address","name":"owner","type":"address"},{"indexed":false,"internalType":"string","name":"percentName","type":"string"},{"indexed":false,"internalType":"uint256","name":"newPercent","type":"uint256"}],"name":"PercentagesChanged","type":"event"},{"anonymous":false,"inputs":[{"indexed":true,"internalType":"uint256","name":"_round","type":"uint256"},{"indexed":true,"internalType":"address","name":"_starter","type":"address"},{"indexed":false,"internalType":"uint256","name":"_timestamp","type":"uint256"}],"name":"RoundStarted","type":"event"},{"anonymous":false,"inputs":[{"indexed":true,"internalType":"uint256","name":"_round","type":"uint256"},{"indexed":false,"internalType":"address","name":"_caller","type":"address"},{"indexed":false,"internalType":"bytes32","name":"_requestId","type":"bytes32"}],"name":"SelectionStarted","type":"event"},{"anonymous":false,"inputs":[{"indexed":true,"internalType":"uint256","name":"_round","type":"uint256"},{"indexed":true,"internalType":"address","name":"_user","type":"address"},{"indexed":false,"internalType":"uint256","name":"_ticketAmounts","type":"uint256"}],"name":"TicketBought","type":"event"},{"anonymous":false,"inputs":[{"indexed":false,"internalType":"address","name":"_rewardee","type":"address"},{"indexed":false,"internalType":"uint256","name":"_ticketAmount","type":"uint256"}],"name":"TicketsRewarded","type":"event"},{"anonymous":false,"inputs":[{"indexed":false,"internalType":"uint256","name":"_timeOfUpdate","type":"uint256"},{"indexed":false,"internalType":"uint256","name":"_newValue","type":"uint256"}],"name":"UpdateTicketValue","type":"event"},{"anonymous":false,"inputs":[{"indexed":true,"internalType":"uint256","name":"_round","type":"uint256"},{"indexed":false,"internalType":"uint256","name":"_winner","type":"uint256"},{"indexed":false,"internalType":"bytes32","name":"_requestId","type":"bytes32"}],"name":"WinnerPicked","type":"event"},{"inputs":[{"internalType":"uint256","name":"_amount","type":"uint256"}],"name":"addToPool","outputs":[],"stateMutability":"nonpayable","type":"function"},{"inputs":[],"name":"bankAddress","outputs":[{"internalType":"contract BitcrushBankroll","name":"","type":"address"}],"stateMutability":"view","type":"function"},{"inputs":[{"internalType":"uint256","name":"","type":"uint256"}],"name":"bonusAddresses","outputs":[{"internalType":"address","name":"","type":"address"}],"stateMutability":"view","type":"function"},{"inputs":[{"internalType":"uint256","name":"","type":"uint256"}],"name":"bonusCoins","outputs":[{"internalType":"address","name":"bonusToken","type":"address"},{"internalType":"uint256","name":"bonusAmount","type":"uint256"},{"internalType":"uint256","name":"bonusClaimed","type":"uint256"},{"internalType":"uint256","name":"bonusMaxPercent","type":"uint256"}],"stateMutability":"view","type":"function"},{"inputs":[{"internalType":"address","name":"","type":"address"}],"name":"bonusTokenIndex","outputs":[{"internalType":"uint256","name":"","type":"uint256"}],"stateMutability":"view","type":"function"},{"inputs":[],"name":"burn","outputs":[{"internalType":"uint256","name":"","type":"uint256"}],"stateMutability":"view","type":"function"},{"inputs":[],"name":"burnThreshold","outputs":[{"internalType":"uint256","name":"","type":"uint256"}],"stateMutability":"view","type":"function"},{"inputs":[{"internalType":"uint32[]","name":"_ticketNumbers","type":"uint32[]"},{"internalType":"uint256","name":"_partnerId","type":"uint256"}],"name":"buyTickets","outputs":[],"stateMutability":"nonpayable","type":"function"},{"inputs":[{"components":[{"internalType":"uint256","name":"roundId","type":"uint256"},{"internalType":"uint256","name":"nonWinners","type":"uint256"},{"internalType":"uint256","name":"winners","type":"uint256"}],"internalType":"struct BitcrushLottery.ClaimRounds[]","name":"_rounds","type":"tuple[]"},{"internalType":"uint256[]","name":"_ticketIds","type":"uint256[]"},{"internalType":"uint256[]","name":"_matches","type":"uint256[]"}],"name":"claimAllPendingTickets","outputs":[],"stateMutability":"nonpayable","type":"function"},{"inputs":[],"name":"claimFee","outputs":[{"internalType":"uint256","name":"","type":"uint256"}],"stateMutability":"view","type":"function"},{"inputs":[],"name":"crush","outputs":[{"internalType":"contract ERC20Burnable","name":"","type":"address"}],"stateMutability":"view","type":"function"},{"inputs":[],"name":"crushTheContract","outputs":[],"stateMutability":"nonpayable","type":"function"},{"inputs":[],"name":"currentIsActive","outputs":[{"internalType":"bool","name":"","type":"bool"}],"stateMutability":"view","type":"function"},{"inputs":[],"name":"currentRound","outputs":[{"internalType":"uint256","name":"","type":"uint256"}],"stateMutability":"view","type":"function"},{"inputs":[],"name":"devAddress","outputs":[{"internalType":"address","name":"","type":"address"}],"stateMutability":"view","type":"function"},{"inputs":[{"internalType":"address","name":"_partnerAddress","type":"address"},{"internalType":"uint8","name":"_split","type":"uint8"}],"name":"editPartner","outputs":[],"stateMutability":"nonpayable","type":"function"},{"inputs":[],"name":"endHourIndex","outputs":[{"internalType":"uint8","name":"","type":"uint8"}],"stateMutability":"view","type":"function"},{"inputs":[{"internalType":"uint256","name":"","type":"uint256"}],"name":"endHours","outputs":[{"internalType":"uint8","name":"","type":"uint8"}],"stateMutability":"view","type":"function"},{"inputs":[],"name":"endRound","outputs":[],"stateMutability":"nonpayable","type":"function"},{"inputs":[{"internalType":"uint32[]","name":"_ticketNumbers","type":"uint32[]"}],"name":"exchangeForTicket","outputs":[],"stateMutability":"nonpayable","type":"function"},{"inputs":[{"internalType":"address","name":"","type":"address"}],"name":"exchangeableTickets","outputs":[{"internalType":"uint256","name":"","type":"uint256"}],"stateMutability":"view","type":"function"},{"inputs":[],"name":"firstStart","outputs":[],"stateMutability":"nonpayable","type":"function"},{"inputs":[{"internalType":"address","name":"_checkAddress","type":"address"}],"name":"getProviderId","outputs":[{"internalType":"uint256","name":"_id","type":"uint256"}],"stateMutability":"view","type":"function"},{"inputs":[{"internalType":"uint256","name":"_round","type":"uint256"}],"name":"getRoundDistribution","outputs":[{"internalType":"uint256[7]","name":"distribution","type":"uint256[7]"}],"stateMutability":"view","type":"function"},{"inputs":[{"internalType":"uint256","name":"_round","type":"uint256"}],"name":"getRoundTickets","outputs":[{"components":[{"internalType":"uint32","name":"ticketNumber","type":"uint32"},{"internalType":"uint256","name":"round","type":"uint256"}],"internalType":"struct BitcrushLottery.NewTicket[]","name":"","type":"tuple[]"}],"stateMutability":"view","type":"function"},{"inputs":[{"internalType":"uint256","name":"","type":"uint256"},{"internalType":"uint256","name":"","type":"uint256"}],"name":"holders","outputs":[{"internalType":"uint256","name":"","type":"uint256"}],"stateMutability":"view","type":"function"},{"inputs":[{"internalType":"uint256","name":"_round","type":"uint256"},{"internalType":"uint32","name":"luckyTicket","type":"uint32"}],"name":"isNumberWinner","outputs":[{"internalType":"uint8","name":"_match","type":"uint8"}],"stateMutability":"view","type":"function"},{"inputs":[],"name":"match1","outputs":[{"internalType":"uint256","name":"","type":"uint256"}],"stateMutability":"view","type":"function"},{"inputs":[],"name":"match2","outputs":[{"internalType":"uint256","name":"","type":"uint256"}],"stateMutability":"view","type":"function"},{"inputs":[],"name":"match3","outputs":[{"internalType":"uint256","name":"","type":"uint256"}],"stateMutability":"view","type":"function"},{"inputs":[],"name":"match4","outputs":[{"internalType":"uint256","name":"","type":"uint256"}],"stateMutability":"view","type":"function"},{"inputs":[],"name":"match5","outputs":[{"internalType":"uint256","name":"","type":"uint256"}],"stateMutability":"view","type":"function"},{"inputs":[],"name":"match6","outputs":[{"internalType":"uint256","name":"","type":"uint256"}],"stateMutability":"view","type":"function"},{"inputs":[],"name":"noMatch","outputs":[{"internalType":"uint256","name":"","type":"uint256"}],"stateMutability":"view","type":"function"},{"inputs":[{"internalType":"address","name":"","type":"address"}],"name":"operators","outputs":[{"internalType":"bool","name":"","type":"bool"}],"stateMutability":"view","type":"function"},{"inputs":[],"name":"owner","outputs":[{"internalType":"address","name":"","type":"address"}],"stateMutability":"view","type":"function"},{"inputs":[{"internalType":"address","name":"","type":"address"}],"name":"partnerSplit","outputs":[{"internalType":"uint256","name":"spread","type":"uint256"},{"internalType":"uint256","name":"id","type":"uint256"},{"internalType":"bool","name":"set","type":"bool"}],"stateMutability":"view","type":"function"},{"inputs":[],"name":"pause","outputs":[{"internalType":"bool","name":"","type":"bool"}],"stateMutability":"view","type":"function"},{"inputs":[{"internalType":"bytes32","name":"requestId","type":"bytes32"},{"internalType":"uint256","name":"randomness","type":"uint256"}],"name":"rawFulfillRandomness","outputs":[],"stateMutability":"nonpayable","type":"function"},{"inputs":[],"name":"renounceOwnership","outputs":[],"stateMutability":"nonpayable","type":"function"},{"inputs":[{"internalType":"address","name":"_rewardee","type":"address"},{"internalType":"uint256","name":"ticketAmount","type":"uint256"}],"name":"rewardTicket","outputs":[],"stateMutability":"nonpayable","type":"function"},{"inputs":[],"name":"roundEnd","outputs":[{"internalType":"uint256","name":"","type":"uint256"}],"stateMutability":"view","type":"function"},{"inputs":[{"internalType":"uint256","name":"","type":"uint256"}],"name":"roundInfo","outputs":[{"internalType":"uint256","name":"totalTickets","type":"uint256"},{"internalType":"uint256","name":"ticketsClaimed","type":"uint256"},{"internalType":"uint32","name":"winnerNumber","type":"uint32"},{"internalType":"uint256","name":"pool","type":"uint256"},{"internalType":"uint256","name":"endTime","type":"uint256"},{"internalType":"uint256","name":"burn","type":"uint256"},{"internalType":"uint256","name":"totalWinners","type":"uint256"},{"internalType":"uint256","name":"ticketValue","type":"uint256"}],"stateMutability":"view","type":"function"},{"inputs":[{"internalType":"address","name":"_partnerToken","type":"address"},{"internalType":"uint256","name":"_amount","type":"uint256"},{"internalType":"uint256","name":"_round","type":"uint256"},{"internalType":"uint256","name":"_roundAmount","type":"uint256"}],"name":"setBonusCoin","outputs":[],"stateMutability":"nonpayable","type":"function"},{"inputs":[{"internalType":"uint256","name":"_threshold","type":"uint256"}],"name":"setBurnThreshold","outputs":[],"stateMutability":"nonpayable","type":"function"},{"inputs":[{"internalType":"uint256","name":"_fee","type":"uint256"}],"name":"setClaimerFee","outputs":[],"stateMutability":"nonpayable","type":"function"},{"inputs":[{"internalType":"uint256[]","name":"_newDistribution","type":"uint256[]"}],"name":"setDistributionPercentages","outputs":[],"stateMutability":"nonpayable","type":"function"},{"inputs":[{"internalType":"uint8[]","name":"_newTimes","type":"uint8[]"}],"name":"setEndHours","outputs":[],"stateMutability":"nonpayable","type":"function"},{"inputs":[{"internalType":"uint256","name":"_newValue","type":"uint256"}],"name":"setTicketValue","outputs":[],"stateMutability":"nonpayable","type":"function"},{"inputs":[],"name":"ticketValue","outputs":[{"internalType":"uint256","name":"","type":"uint256"}],"stateMutability":"view","type":"function"},{"inputs":[],"name":"ticketsToClaim","outputs":[{"components":[{"internalType":"uint256","name":"id","type":"uint256"},{"internalType":"uint256","name":"round","type":"uint256"},{"internalType":"uint256","name":"ticketNumber","type":"uint256"}],"internalType":"struct BitcrushLottery.TicketView[]","name":"","type":"tuple[]"}],"stateMutability":"view","type":"function"},{"inputs":[{"internalType":"address","name":"_operator","type":"address"}],"name":"toggleOperator","outputs":[],"stateMutability":"nonpayable","type":"function"},{"inputs":[],"name":"togglePauseStatus","outputs":[],"stateMutability":"nonpayable","type":"function"},{"inputs":[{"internalType":"address","name":"newOwner","type":"address"}],"name":"transferOwnership","outputs":[],"stateMutability":"nonpayable","type":"function"},{"inputs":[{"internalType":"address","name":"","type":"address"}],"name":"userLastTicketClaimed","outputs":[{"internalType":"uint256","name":"","type":"uint256"}],"stateMutability":"view","type":"function"},{"inputs":[{"internalType":"address","name":"","type":"address"},{"internalType":"uint256","name":"","type":"uint256"}],"name":"userNewTickets","outputs":[{"internalType":"uint32","name":"ticketNumber","type":"uint32"},{"internalType":"uint256","name":"round","type":"uint256"}],"stateMutability":"view","type":"function"},{"inputs":[{"internalType":"address","name":"","type":"address"},{"internalType":"uint256","name":"","type":"uint256"}],"name":"userRoundTickets","outputs":[{"internalType":"uint256","name":"totalTickets","type":"uint256"},{"internalType":"uint256","name":"firstTicketId","type":"uint256"}],"stateMutability":"view","type":"function"},{"inputs":[{"internalType":"address","name":"","type":"address"}],"name":"userTotalTickets","outputs":[{"internalType":"uint256","name":"","type":"uint256"}],"stateMutability":"view","type":"function"}],"bytecode":"6101006040526006805461ffff1916905560006007556801a055690d9db8000060095562000033633b9aca00600a62000350565b600a5562000047633b9aca00602862000350565b600b556200005b633b9aca00601462000350565b600c556200006f633b9aca00600a62000350565b600d5562000083633b9aca00600562000350565b600e5562000097633b9aca00600362000350565b600f55620000ab633b9aca00600262000350565b601055620000bf633b9aca00600262000350565b601155620000d3633b9aca00601262000350565b601255620000e662989680604b62000350565b601355604080516020810190915260128152620001089060229060016200028c565b503480156200011657600080fd5b5060405162005cdf38038062005cdf83398101604081905262000139916200039b565b73747973a5a2a4ae1d3a8fdf5479f1514f65db9c3160a05273404460c6a5ede2d891e8297795264fde62adbb7560805262000174336200023a565b600160028190557fc251acd21ec4fb7f31bb8868288bfdbaeb4fbfec2df3735ddbd4f7dc8d60103c6004556702c68af0bb1400006005556001600160a01b0392831660c081905260038054336001600160a01b031991821681179092556000918252601f60209081526040808420805460ff1916871790559590961660e0526021805494850190557f3a6357012c1a3ae0a17d304c9920310382d968ebcc4b1771f41c6b304205b570909301805490931682179092558152601d909252812055620003d3565b600180546001600160a01b038381166001600160a01b0319831681179093556040519116919082907f8be0079c531659141344cd1fd0a4f28419497f9722a3daafe3b4186f6b6457e090600090a35050565b82805482825590600052602060002090601f01602090048101928215620003275791602002820160005b83821115620002f657835183826101000a81548160ff021916908360ff1602179055509260200192600101602081600001049283019260010302620002b6565b8015620003255782816101000a81549060ff0219169055600101602081600001049283019260010302620002f6565b505b506200033592915062000339565b5090565b5b808211156200033557600081556001016200033a565b60008160001904831182151516156200037957634e487b7160e01b600052601160045260246000fd5b500290565b80516001600160a01b03811681146200039657600080fd5b919050565b60008060408385031215620003af57600080fd5b620003ba836200037e565b9150620003ca602084016200037e565b90509250929050565b60805160a05160c05160e0516158626200047d600039600081816106ee01528181614499015261454c01526000818161086b01528181610c4001528181610fd4015281816110120152818161110c015281816111e901528181612cb901528181612d2e015281816136d4015281816143f8015281816144c801526145e201526000818161285b0152613dd901526000818161208601528181612d780152613daa01526158626000f3fe608060405234801561001057600080fd5b506004361061038e5760003560e01c80638456cb59116101de578063af55019c1161010f578063dd54103e116100ad578063f27bdc691161007c578063f27bdc6914610943578063f2fde38b14610963578063fbd091d314610976578063fdaa90691461099657600080fd5b8063dd54103e146108c3578063e02dd6ec146108cc578063e8590f96146108df578063f009dad51461093657600080fd5b8063c02e580e116100e9578063c02e580e14610895578063c17648411461089e578063d1dec8aa146108a7578063dd3284ab146108b057600080fd5b8063af55019c14610846578063b359a9f914610866578063b7953ee61461088d57600080fd5b806399d32fc41161017c578063a1fe01db11610156578063a1fe01db146107ec578063a638f498146107ff578063acad054d14610808578063aed6176e1461081b57600080fd5b806399d32fc4146107bd5780639b944a65146107c65780639d6b5f21146107d957600080fd5b80638d2af580116101b85780638d2af5801461077e5780638da5cb5b14610786578063917356cb1461079757806394985ddd146107aa57600080fd5b80638456cb591461074357806388fdda9a146107555780638a19c8bc1461077557600080fd5b80633fe529f0116102c35780636177da4611610261578063749aa2d911610230578063749aa2d9146106e15780637822ed49146106e9578063798c3922146107105780638407ed7e1461072357600080fd5b80636177da4614610664578063662703f3146106775780636c8698db146106c6578063715018a6146106d957600080fd5b80634f6d38d01161029d5780634f6d38d014610633578063516b71191461063c57806355bb47b4146106445780635be81acf1461065757600080fd5b80633fe529f014610577578063427f0b001461058a57806344df8e701461062a57600080fd5b80631d9d4bc21161033057806332382d041161030a57806332382d041461053d5780633a156bcc146105465780633ad10ef61461054f5780633ee0d6a71461056257600080fd5b80631d9d4bc2146104be5780632394a242146104e3578063312fa87c146104f657600080fd5b80630a9f8e421161036c5780630a9f8e42146103f857806313e7c9d8146104615780631bc75123146104945780631c5fc483146104ab57600080fd5b8063032d476a1461039357806304ad675d146103c35780630a5f84fb146103e3575b600080fd5b6103a66103a1366004615002565b61099f565b6040516001600160a01b0390911681526020015b60405180910390f35b6103d66103d1366004615002565b6109c9565b6040516103ba919061501b565b6103f66103f13660046150bc565b610ae0565b005b610437610406366004615002565b60156020526000908152604090208054600182015460028301546003909301546001600160a01b0390921692909184565b604080516001600160a01b03909516855260208501939093529183015260608201526080016103ba565b61048461046f366004615124565b601f6020526000908152604090205460ff1681565b60405190151581526020016103ba565b61049d60115481565b6040519081526020016103ba565b6103f66104b9366004615002565b6110f4565b6104d16104cc366004615153565b61128c565b60405160ff90911681526020016103ba565b6103f66104f136600461517f565b6113a3565b6105286105043660046151c1565b601a6020908152600092835260408084209091529082529020805460019091015482565b604080519283526020830191909152016103ba565b61049d600d5481565b61049d60105481565b6003546103a6906001600160a01b031681565b61056a611561565b6040516103ba91906151eb565b6103f6610585366004615124565b611716565b6105e4610598366004615002565b601460208190526000918252604090912080546001820154600283015460038401546004850154600c860154600d87015496909701549496939563ffffffff9093169491939092909188565b60408051988952602089019790975263ffffffff909516958701959095526060860192909252608085015260a084015260c083019190915260e0820152610100016103ba565b61049d60125481565b61049d600a5481565b6103f661181c565b6103f661065236600461517f565b61197f565b6006546104849060ff1681565b6103f6610672366004615248565b611e38565b6106a9610685366004615124565b60186020526000908152604090208054600182015460029092015490919060ff1683565b6040805193845260208401929092521515908201526060016103ba565b61049d6106d4366004615124565b611fd2565b6103f6612038565b6103f661206e565b6103a67f000000000000000000000000000000000000000000000000000000000000000081565b6103f661071e366004615272565b6122dd565b61049d610731366004615124565b601b6020526000908152604090205481565b60065461048490610100900460ff1681565b61049d610763366004615124565b60176020526000908152604090205481565b61049d60075481565b6103f66126a9565b6001546001600160a01b03166103a6565b6103f66107a5366004615002565b612793565b6103f66107b83660046152ab565b612850565b61049d60135481565b6103f66107d43660046151c1565b6128d6565b6103f66107e7366004615002565b612992565b6104d16107fa366004615002565b612a10565b61049d60095481565b6103f661081636600461517f565b612a44565b61049d6108293660046152ab565b601660209081526000928352604080842090915290825290205481565b610859610854366004615002565b612b68565b6040516103ba91906152cd565b6103a67f000000000000000000000000000000000000000000000000000000000000000081565b6103f6612bd7565b61049d60085481565b61049d600e5481565b61049d600b5481565b6103f66108be3660046152fe565b612ec7565b61049d600c5481565b6103f66108da366004615002565b613871565b61091a6108ed3660046151c1565b60196020908152600092835260408084209091529082529020805460019091015463ffffffff9091169082565b6040805163ffffffff90931683526020830191909152016103ba565b6023546104d19060ff1681565b61049d610951366004615124565b601d6020526000908152604090205481565b6103f6610971366004615124565b61394c565b61049d610984366004615124565b601c6020526000908152604090205481565b61049d600f5481565b602181815481106109af57600080fd5b6000918252602090912001546001600160a01b0316905081565b336000908152601a60209081526040808320848452909152812080546060929067ffffffffffffffff811115610a0157610a016153c6565b604051908082528060200260200182016040528015610a4657816020015b6040805180820190915260008082526020820152815260200190600190039081610a1f5790505b50905060005b8254811015610ad8573360009081526019602052604081206001850154909190610a7690846139e7565b815260208082019290925260409081016000208151808301909252805463ffffffff16825260010154918101919091528251839083908110610aba57610aba6153dc565b60200260200101819052508080610ad090615408565b915050610a4c565b509392505050565b600280541415610b375760405162461bcd60e51b815260206004820152601f60248201527f5265656e7472616e637947756172643a207265656e7472616e742063616c6c0060448201526064015b60405180910390fd5b6002805581610b715760405162461bcd60e51b81526020600482015260066024820152654e656564203160d01b6044820152606401610b2e565b6064821115610bb55760405162461bcd60e51b815260206004820152601060248201526f06e6f206d6f7265207468616e203130360841b6044820152606401610b2e565b60065460ff161515600114610bff5760405162461bcd60e51b815260206004820152601060248201526f526f756e64206e6f742061637469766560801b6044820152606401610b2e565b600754600090815260146020819052604082200154610c1e90846139fa565b6040516370a0823160e01b815233600482015290915081906001600160a01b037f000000000000000000000000000000000000000000000000000000000000000016906370a0823190602401602060405180830381865afa158015610c87573d6000803e3d6000fd5b505050506040513d601f19601f82011682018060405250810190610cab9190615423565b1015610cea5760405162461bcd60e51b815260206004820152600e60248201526d43616e277420707572636861736560901b6044820152606401610b2e565b336000908152601a602090815260408083206007548452909152902060010154610d4a57336000908152601b6020526040902054610d299060016139e7565b336000908152601a6020908152604080832060075484529091529020600101555b60005b83811015610e3957610e2733868684818110610d6b57610d6b6153dc565b9050602002016020810190610d80919061543c565b6007546000928352601b6020908152604080852054601983528186206001918901820187528352818620620f42409586900690950180865594810184905592855260168252808520848652909152808420805483019055600a92839004808552818520805484019055839004808552818520805484019055839004808552818520805484019055839004808552818520805484019055929092048352912080549091019055565b80610e3181615408565b915050610d4d565b50336000908152601b6020526040902054610e5490846139e7565b336000908152601b6020526040812091909155610e8582610e7a633b9aca00600a615457565b64174876e800613a06565b9050610e946104b98383613a24565b821561100157602054831115610eec5760405162461bcd60e51b815260206004820152601860248201527f706172746e657220496420646f65736e277420657869737400000000000000006044820152606401610b2e565b60006018816020610efe600188615476565b81548110610f0e57610f0e6153dc565b60009182526020808320909101546001600160a01b031683528201929092526040019020600281015490915060ff16610f7d5760405162461bcd60e51b815260206004820152601160248201527014185c9d1b995c9cda1a5c08195b991959607a1b6044820152606401610b2e565b6000610f8f8383600001546064613a06565b9050610f9b8382613a24565b9250610ffe336020610fae600189615476565b81548110610fbe57610fbe6153dc565b6000918252602090912001546001600160a01b037f0000000000000000000000000000000000000000000000000000000000000000811692911684613a30565b50505b60035461103d906001600160a01b037f000000000000000000000000000000000000000000000000000000000000000081169133911684613a30565b60075460009081526014602052604090205461105990856139e7565b60078054600090815260146020908152604080832094909455338252601a81528382209254825291909152205461109090856139e7565b336000818152601a602090815260408083206007805485529083529281902094909455905492518781529192917f913d09b391f64143215d9312fd7e8ecaa06001c646789c9d2109dc515bc34fad910160405180910390a350506001600255505050565b6040516370a0823160e01b81523360048201526000907f00000000000000000000000000000000000000000000000000000000000000006001600160a01b0316906370a0823190602401602060405180830381865afa15801561115b573d6000803e3d6000fd5b505050506040513d601f19601f8201168201806040525081019061117f9190615423565b9050818110156111dc5760405162461bcd60e51b815260206004820152602260248201527f496e73756666696369656e742046756e647320746f2053656e6420746f20506f6044820152611bdb60f21b6064820152608401610b2e565b6112116001600160a01b037f000000000000000000000000000000000000000000000000000000000000000016333085613a30565b60075460009081526014602052604090206003015461123090836139e7565b601460006007548152602001908152602001600020600301819055506007547ffc555fb85f1f1dcf093e5fc8a8e343346bfd726e85d59ccd2be4846e98a81ab08360405161128091815260200190565b60405180910390a25050565b60008281526014602052604081206002015463ffffffff16806112f15760405162461bcd60e51b815260206004820152601960248201527f57696e6e6572206e6f74207965742064657465726d696e6564000000000000006044820152606401610b2e565b60009150600061130484620f4240613aa1565b63ffffffff169050600061131783613ab9565b9050600061132483613ab9565b905060005b60068160ff16101561139857818160ff166006811061134a5761134a6153dc565b6020020151838260ff1660068110611364576113646153dc565b602002015114156113815761137a81600161548d565b9550611386565b611398565b80611390816154b2565b915050611329565b505050505092915050565b336000908152601f602052604090205460ff161515600114806113d057506001546001600160a01b031633145b6113ec5760405162461bcd60e51b8152600401610b2e906154d2565b806114255760405162461bcd60e51b81526020600482015260096024820152686e6565642074696d6560b81b6044820152606401610b2e565b60005b8181101561154f576018838383818110611444576114446153dc565b90506020020160208101906114599190615500565b60ff16106114965760405162461bcd60e51b815260206004820152600a60248201526977726f6e672074696d6560b01b6044820152606401610b2e565b801561153d5782826114a9600184615476565b8181106114b8576114b86153dc565b90506020020160208101906114cd9190615500565b60ff168383838181106114e2576114e26153dc565b90506020020160208101906114f79190615500565b60ff161161153d5760405162461bcd60e51b815260206004820152601360248201527248656c70206f757420736f72742074696d657360681b6044820152606401610b2e565b8061154781615408565b915050611428565b5061155c60228383614ead565b505050565b336000908152601c6020908152604080832054601b9092528220546060929161158a9190613a24565b9050806115e55760408051600080825260208201909252906115de565b6115cb60405180606001604052806000815260200160008152602001600081525090565b8152602001906001900390816115a75790505b5091505090565b60008167ffffffffffffffff811115611600576116006153c6565b60405190808252806020026020018201604052801561165557816020015b61164260405180606001604052806000815260200160008152602001600081525090565b81526020019060019003908161161e5790505b50905060005b8281101561170f573360009081526019602052604081208161169761168185600161551b565b336000908152601c6020526040902054906139e7565b8152602001908152602001600020905060405180606001604052806116c2846001611681919061551b565b815260018301546020820152825463ffffffff1660409091015283518490849081106116f0576116f06153dc565b602002602001018190525050808061170790615408565b91505061165b565b5092915050565b336000908152601f602052604090205460ff1615156001148061174357506001546001600160a01b031633145b61175f5760405162461bcd60e51b8152600401610b2e906154d2565b6001600160a01b0381166000908152601f602052604090205460ff1680156117a6576001600160a01b0382166000908152601f60205260409020805460ff191690556117ca565b6001600160a01b0382166000908152601f60205260409020805460ff191660011790555b336000908152601f6020526040908190205490516001600160a01b038416917f193de8d500b5cb7b720089b258a39e9c1d0b840019a73ae7c51c3f9101732b02916112809160ff161515815260200190565b336000908152601f602052604090205460ff1615156001148061184957506001546001600160a01b031633145b6118655760405162461bcd60e51b8152600401610b2e906154d2565b600754156118a85760405162461bcd60e51b815260206004820152601060248201526f466972737420526f756e64206f6e6c7960801b6044820152606401610b2e565b6118b0613b25565b6118b8613be7565b601460208181527f4f26c3876aa9f4b92579780beea1161a61f87ebf1ec6ee865b299e447ecba99f546007805460009081526040808220600301939093556008548254825283822060040155825160e081018452601154815260105481860152600f5481850152600e546060820152600d546080820152600c5460a0820152600b5460c08201528254825294909352912061195892600590910191614f56565b50600954600754600090815260146020819052604090912001556006805461ff0019169055565b6001546001600160a01b031633146119a95760405162461bcd60e51b8152600401610b2e90615533565b6000828260078181106119be576119be6153dc565b905060200201351180156119d25750600881145b611a0e5760405162461bcd60e51b815260206004820152600d60248201526c57726f6e6720636f6e6669677360981b6044820152606401610b2e565b611a3d6298968083836000818110611a2857611a286153dc565b905060200201356139fa90919063ffffffff16565b600b55611a5a6298968083836001818110611a2857611a286153dc565b600c55611a776298968083836002818110611a2857611a286153dc565b600d55611a946298968083836003818110611a2857611a286153dc565b600e55611ab16298968083836004818110611a2857611a286153dc565b600f55611ace6298968083836005818110611a2857611a286153dc565b601055611aeb6298968083836006818110611a2857611a286153dc565b601155611b086298968083836007818110611a2857611a286153dc565b60128190555064174876e800611b55601254611b4f601154611b4f601054611b4f600f54611b4f600e54611b4f600d54611b4f600c54600b546139e790919063ffffffff16565b906139e7565b14611b995760405162461bcd60e51b815260206004820152601460248201527304e756d6265727320646f6e2774206164642075760641b6044820152606401610b2e565b336001600160a01b031660008051602061580d833981519152600b54604051611be691906040808252600790820152661a9858dadc1bdd60ca1b6060820152602081019190915260800190565b60405180910390a2336001600160a01b031660008051602061580d833981519152600c54604051611c3a91906040808252600690820152656d617463683560d01b6060820152602081019190915260800190565b60405180910390a2336001600160a01b031660008051602061580d833981519152600d54604051611c8e91906040808252600690820152651b585d18da0d60d21b6060820152602081019190915260800190565b60405180910390a2336001600160a01b031660008051602061580d833981519152600e54604051611ce291906040808252600690820152656d617463683360d01b6060820152602081019190915260800190565b60405180910390a2336001600160a01b031660008051602061580d833981519152600f54604051611d36919060408082526006908201526536b0ba31b41960d11b6060820152602081019190915260800190565b60405180910390a2336001600160a01b031660008051602061580d833981519152601054604051611d8a91906040808252600690820152656d617463683160d01b6060820152602081019190915260800190565b60405180910390a2336001600160a01b031660008051602061580d833981519152601154604051611ddf91906040808252600790820152660dcde9ac2e8c6d60cb1b6060820152602081019190915260800190565b60405180910390a2336001600160a01b031660008051602061580d83398151915260125460405161128091906040808252600b908201526a189d5c9b94195c98d95b9d60aa1b6060820152602081019190915260800190565b336000908152601f602052604090205460ff16151560011480611e6557506001546001600160a01b031633145b611e815760405162461bcd60e51b8152600401610b2e906154d2565b605a8160ff161115611ecd5760405162461bcd60e51b81526020600482015260156024820152744e6f206772656564796e6573732c207468616e6b7360581b6044820152606401610b2e565b6001600160a01b03821660009081526018602052604090206002015460ff16611f4e5760208054600180820183557fc97bfaf2f8ee708c303a06d134f5ecd8389ae0432af62dc132a24118292866bb90910180546001600160a01b0319166001600160a01b0386169081179091558254600091825260189093526040902001555b6001600160a01b038216600090815260186020526040902060ff82169081905515611f9a576001600160a01b0382166000908152601860205260409020600201805460ff191660011790555b6040516001600160a01b038316907f43d52c7feca0bee2d2104411b16386c7bd925bff71daefd2dabcc36d7c867ef590600090a25050565b6001600160a01b0381166000908152601860205260408120600281015460ff1661202e5760405162461bcd60e51b815260206004820152600d60248201526c2737ba1030903830b93a3732b960991b6044820152606401610b2e565b6001015492915050565b6001546001600160a01b031633146120625760405162461bcd60e51b8152600401610b2e90615533565b61206c6000613d54565b565b6005546040516370a0823160e01b81523060048201527f00000000000000000000000000000000000000000000000000000000000000006001600160a01b0316906370a0823190602401602060405180830381865afa1580156120d5573d6000803e3d6000fd5b505050506040513d601f19601f820116820180604052508101906120f99190615423565b101561216d5760405162461bcd60e51b815260206004820152603860248201527f4e6f7420656e6f756768204c494e4b202d20706c6561736520636f6e7461637460448201527f206d6f6420746f2066756e6420746f20636f6e747261637400000000000000006064820152608401610b2e565b60065460ff1615156001146121b45760405162461bcd60e51b815260206004820152600d60248201526c2937bab7321034b99037bb32b960991b6044820152606401610b2e565b60075460009081526014602052604090206004015442116122015760405162461bcd60e51b8152602060048201526007602482015266139bdd081e595d60ca1b6044820152606401610b2e565b612209613b25565b6006805460ff1916905560085460075460149060009061222a9060016139e7565b815260208082019290925260409081016000908120600490810194909455815180830183523381528084018281526007548352601e909452918120915182546001600160a01b0319166001600160a01b03909116178255915160019091015590546005546122989190613da6565b600754604080513381526020810184905292935090917fb7f621a422a46a7fd74f0befea928ccfb9b6f4431c80b4ecc61da03c86b1f06e91015b60405180910390a250565b336000908152601f602052604090205460ff1615156001148061230a57506001546001600160a01b031633145b6123265760405162461bcd60e51b8152600401610b2e906154d2565b600081116123685760405162461bcd60e51b815260206004820152600f60248201526e4e656564206174206c65617374203160881b6044820152606401610b2e565b60075482116123aa5760405162461bcd60e51b815260206004820152600e60248201526d4e6f207061737420726f756e647360901b6044820152606401610b2e565b6001600160a01b038416158015906123d757506000828152601560205260409020546001600160a01b0316155b6124185760405162461bcd60e51b815260206004820152601260248201527169737375652077697468206164647265737360701b6044820152606401610b2e565b6001600160a01b0384166000908152601d602052604090205461249257602180546001600160a01b0386166000818152601d60205260408120839055600183018455929092527f3a6357012c1a3ae0a17d304c9920310382d968ebcc4b1771f41c6b304205b5700180546001600160a01b03191690911790555b6040516370a0823160e01b8152336004820152849084906001600160a01b038316906370a0823190602401602060405180830381865afa1580156124da573d6000803e3d6000fd5b505050506040513d601f19601f820116820180604052508101906124fe9190615423565b101561253f5760405162461bcd60e51b815260206004820152601060248201526f119d5b991cc8185c99481b995959195960821b6044820152606401610b2e565b600061254b8584613f1d565b9050600061255982856139fa565b9050845b61256786866139e7565b81101561263e576000818152601560205260409020546001600160a01b0316156125c75760405162461bcd60e51b8152602060048201526011602482015270416c72656164792068617320626f6e757360781b6044820152606401610b2e565b604080516080810182526001600160a01b038a8116825260208083018781526000848601818152606086018281528883526015909452959020935184546001600160a01b0319169316929092178355905160018301559151600282015590516003909101558061263681615408565b91505061255d565b506126546001600160a01b038416333084613a30565b60408051878152602081018790529081018590526001600160a01b038816907fe2e5cb7d342324abb20da47b2770415b38cf6adb803b4aad4af65b8f526e6e1a9060600160405180910390a250505050505050565b6001546001600160a01b031633146126d35760405162461bcd60e51b8152600401610b2e90615533565b6006805460ff6101008083048216150261ff0019831681179093559182169116171580156127095750600654610100900460ff16155b1561271657612716613be7565b6006547f0d5a0dba7395a48387b3738f86b7958feb691d5f5db50749c87d270ba92ddadc90610100900460ff1661274e576000612751565b60015b6040805160ff9092168252602082018190526014908201527314185d5cd94814dd185d1d5cc810da185b99d95960621b606082015260800160405180910390a1565b6001546001600160a01b031633146127bd5760405162461bcd60e51b8152600401610b2e90615533565b68056bc75e2d63100000811080156127d55750600181115b61280f5760405162461bcd60e51b815260206004820152600b60248201526a0caf0c6cacac8e6409a82b60ab1b6044820152606401610b2e565b600981905560408051428152602081018390527fa6e5021ebad2c0ffe267590730e51b948aaabae022611d3933a89cb314a5f1c2910160405180910390a150565b336001600160a01b037f000000000000000000000000000000000000000000000000000000000000000016146128c85760405162461bcd60e51b815260206004820152601f60248201527f4f6e6c7920565246436f6f7264696e61746f722063616e2066756c66696c6c006044820152606401610b2e565b6128d28282613f29565b5050565b336000908152601f602052604090205460ff1615156001148061290357506001546001600160a01b031633145b61291f5760405162461bcd60e51b8152600401610b2e906154d2565b6001600160a01b0382166000908152601760205260408120805483929061294790849061551b565b9091555050604080516001600160a01b0384168152602081018390527f7f066478479faa2e851964186ad2982df0e99cef716c66915751a318deec9241910160405180910390a15050565b6001546001600160a01b031633146129bc5760405162461bcd60e51b8152600401610b2e90615533565b60328111156129fc5760405162461bcd60e51b815260206004820152600c60248201526b4f7574206f662072616e676560a01b6044820152606401610b2e565b612a0a633b9aca0082615457565b600a5550565b60228181548110612a2057600080fd5b9060005260206000209060209182820401919006915054906101000a900460ff1681565b60065460ff16612a8c5760405162461bcd60e51b8152602060048201526013602482015272726f756e64206973206e6f742061637469766560681b6044820152606401610b2e565b33600090815260176020526040902054811115612ae05760405162461bcd60e51b81526020600482015260126024820152716e6f7420656e6f756768207469636b65747360701b6044820152606401610b2e565b60005b81811015612b3957612b0133848484818110610d6b57610d6b6153dc565b336000908152601760205260408120805460019290612b21908490615476565b90915550819050612b3181615408565b915050612ae3565b50336000908152601b6020526040902054612b5490826139e7565b336000908152601b60205260409020555050565b612b70614f84565b600082815260146020818152604080842060058101548652600680820154878501526007820154928701929092526008810154606087015260098101546080870152600a81015460a087015293869052919052600b909101549082905b6020020152919050565b6001546001600160a01b03163314612c015760405162461bcd60e51b8152600401610b2e90615533565b600654610100900460ff16612c455760405162461bcd60e51b815260206004820152600a6024820152691b9bdd081c185d5cd95960b21b6044820152606401610b2e565b600854612c55906228206f6139e7565b4211612c965760405162461bcd60e51b815260206004820152601060248201526f57616974206e6f20616374697669747960801b6044820152606401610b2e565b6040516370a0823160e01b8152306004820152612d559033906001600160a01b037f000000000000000000000000000000000000000000000000000000000000000016906370a0823190602401602060405180830381865afa158015612d00573d6000803e3d6000fd5b505050506040513d601f19601f82011682018060405250810190612d249190615423565b6001600160a01b037f0000000000000000000000000000000000000000000000000000000000000000169190613fca565b6040516370a0823160e01b8152306004820152612dff9033906001600160a01b037f000000000000000000000000000000000000000000000000000000000000000016906370a0823190602401602060405180830381865afa158015612dbf573d6000803e3d6000fd5b505050506040513d601f19601f82011682018060405250810190612de39190615423565b73404460c6a5ede2d891e8297795264fde62adbb759190613fca565b60015b602154811015612ec357600060218281548110612e2157612e216153dc565b6000918252602090912001546040516370a0823160e01b81523060048201526001600160a01b039091169150612eb090339083906370a0823190602401602060405180830381865afa158015612e7b573d6000803e3d6000fd5b505050506040513d601f19601f82011682018060405250810190612e9f9190615423565b6001600160a01b0384169190613fca565b5080612ebb81615408565b915050612e02565b5033ff5b828114612f165760405162461bcd60e51b815260206004820152601a60248201527f417272617973206e65656420746f206265207468652073616d650000000000006044820152606401610b2e565b84612f635760405162461bcd60e51b815260206004820152601760248201527f4e65656420746f20636c61696d20736f6d657468696e670000000000000000006044820152606401610b2e565b336000908152601c60209081526040808320546019835281842081855290925282206001015490918890889081612f9c57612f9c6153dc565b9050606002016000013511612ff35760405162461bcd60e51b815260206004820152601760248201527f43616e277420636c61696d207061737420726f756e64730000000000000000006044820152606401610b2e565b602154600090819067ffffffffffffffff811115613013576130136153c6565b60405190808252806020026020018201604052801561303c578160200160208202803683370190505b50905060005b88811015613680576007548a8a8381811061305f5761305f6153dc565b90506060020160000135106130c05760405162461bcd60e51b815260206004820152602160248201527f43616e277420636c61696d2063757272656e7420726f756e64207469636b65746044820152607360f81b6064820152608401610b2e565b336000908152601a60205260408120908b8b848181106130e2576130e26153dc565b905060600201600001358152602001908152602001600020600001546131478b8b84818110613113576131136153dc565b905060600201604001358c8c8581811061312f5761312f6153dc565b905060600201602001356139e790919063ffffffff16565b146131a85760405162461bcd60e51b815260206004820152602b60248201527f4d697373696e67205469636b6574732c20616c6c20726f756e647320636c616960448201526a6d656420657175616c6c7960a81b6064820152608401610b2e565b868a8a838181106131bb576131bb6153dc565b90506060020160400135146132125760405162461bcd60e51b815260206004820152601b60248201527f726f756e64206d757374206861766520616c6c207469636b65747300000000006044820152606401610b2e565b60008a8a83818110613226576132266153dc565b90506060020160000135905060008b8b84818110613246576132466153dc565b90506060020160400135905060008c8c85818110613266576132666153dc565b6000868152601460209081526040808320601583529083206060909402959095010135945090915061329786613ffa565b905083156133cc576003830154613305906132dc906132b684886139fa565b600d87015487546132d79164174876e800916132d191613a24565b906139fa565b613a06565b896000815181106132ef576132ef6153dc565b60200260200101516139e790919063ffffffff16565b88600081518110613318576133186153dc565b602090810291909101015281546001600160a01b0316156133cc5761339261336561335e61335786600d01548760000154613a2490919063ffffffff16565b858561402e565b86906139fa565b83546001600160a01b03166000908152601d60205260409020548a518b919081106132ef576132ef6153dc565b82546001600160a01b03166000908152601d602052604090205489518a919081106133bf576133bf6153dc565b6020026020010181815250505b84156136575760005b858110156136495760008f8f6133eb8d8561551b565b8181106133fa576133fa6153dc565b90506020020135905081600014801561341157508a155b1561345e578b811161345e5760405162461bcd60e51b8152602060048201526016602482015275151a58dad95d08185b1c9958591e4818db185a5b595960521b6044820152606401610b2e565b600082118061346d575060008b115b156134ee578f8f60016134808e8661551b565b61348a9190615476565b818110613499576134996153dc565b9050602002013581116134ee5760405162461bcd60e51b815260206004820152601860248201527f736f7274207469636b6574732c20636c61696d206f6e636500000000000000006044820152606401610b2e565b60008e8e6134fc8e8661551b565b81811061350b5761350b6153dc565b9050602002013590506000613521838389614082565b905061353a818d6000815181106132ef576132ef6153dc565b8c60008151811061354d5761354d6153dc565b602090810291909101015285546001600160a01b0316156136335760008a81526016602052604081206135f9916135cc9190600e8b0161358e600188615476565b6006811061359e5761359e6153dc565b0154815260200190815260200160002054888a60050186600781106135c5576135c56153dc565b015461402e565b87546001600160a01b03166000908152601d60205260409020548e518f919081106132ef576132ef6153dc565b86546001600160a01b03166000908152601d60205260409020548d518e91908110613626576136266153dc565b6020026020010181815250505b505050808061364190615408565b9150506133d5565b5061365489866139e7565b98505b61366585611b4f8c876139e7565b9950505050505050808061367890615408565b915050613042565b50336000908152601c602052604081208490558151829082906136a5576136a56153dc565b6020026020010151111561370b5761370b33826000815181106136ca576136ca6153dc565b60200260200101517f00000000000000000000000000000000000000000000000000000000000000006001600160a01b0316613fca9092919063ffffffff16565b602154600110156138665760015b60215481101561386457818181518110613735576137356153dc565b60200260200101516000141561374a57613852565b60006021828154811061375f5761375f6153dc565b60009182526020822001546040516370a0823160e01b81523060048201526001600160a01b03909116925082906370a0823190602401602060405180830381865afa1580156137b2573d6000803e3d6000fd5b505050506040513d601f19601f820116820180604052508101906137d69190615423565b9050801561384f57808484815181106137f1576137f16153dc565b60200260200101511115613818576138136001600160a01b0383163383613fca565b61384f565b61384f3385858151811061382e5761382e6153dc565b6020026020010151846001600160a01b0316613fca9092919063ffffffff16565b50505b8061385c81615408565b915050613719565b505b505050505050505050565b6001546001600160a01b0316331461389b5760405162461bcd60e51b8152600401610b2e90615533565b6011546138ab82629896806139fa565b106138ed5760405162461bcd60e51b8152602060048201526012602482015271125b9d985b1a590819995948185b5bdd5b9d60721b6044820152606401610b2e565b6138fa81629896806139fa565b6013553360008051602061580d83398151915261391a83629896806139fa565b6040516122d29190604080825260089082015267636c61696d46656560c01b6060820152602081019190915260800190565b6001546001600160a01b031633146139765760405162461bcd60e51b8152600401610b2e90615533565b6001600160a01b0381166139db5760405162461bcd60e51b815260206004820152602660248201527f4f776e61626c653a206e6577206f776e657220697320746865207a65726f206160448201526564647265737360d01b6064820152608401610b2e565b6139e481613d54565b50565b60006139f3828461551b565b9392505050565b60006139f38284615457565b6000613a1c82613a1686866139fa565b90613f1d565b949350505050565b60006139f38284615476565b6040516001600160a01b0380851660248301528316604482015260648101829052613a9b9085906323b872dd60e01b906084015b60408051601f198184030181529190526020810180516001600160e01b03166001600160e01b03199093169290921790915261428b565b50505050565b60008082613aaf818661557e565b613a1c91906155a1565b613ac1614fa2565b613ace82620186a0613f1d565b8152613adc82612710613f1d565b6020820152613aed826103e8613f1d565b6040820152613afd826064613f1d565b6060820152613b0d82600a613f1d565b6080820152613b1d826001613f1d565b816005612bcd565b60085460235460ff1660015b428311613bcb57602254613b4683600161548d565b60ff161015613b5f57613b5a82600161548d565b613b62565b60005b9150613bb24260228460ff1681548110613b7e57613b7e6153dc565b60009182526020918290209181049091015460ff601f9092166101000a9004811690851615801590613bad5750835b61435d565b60225490935060ff83161415613bc6575060005b613b31565b506008919091556023805460ff191660ff909216919091179055565b60065460ff1615613c3a5760405162461bcd60e51b815260206004820152601960248201527f43757272656e7420526f756e64206973206e6f74206f766572000000000000006044820152606401610b2e565b600654610100900460ff1615613c865760405162461bcd60e51b8152602060048201526011602482015270131bdd1d195c9e481a5cc81c185d5cd959607a1b6044820152606401610b2e565b60078054906000613c9683615408565b90915550506006805460ff1916600117905560078054600090815260146020908152604091829020825160e081018452601154815260105492810192909252600f5492820192909252600e546060820152600d546080820152600c5460a0820152600b5460c08201529091613d0f916005840191614f56565b5060095460148201556007546040514281523391907f267568971e121f036018b6051ad06cb86ef7193917ad0508e6837af776d9043c9060200160405180910390a350565b600180546001600160a01b038381166001600160a01b0319831681179093556040519116919082907f8be0079c531659141344cd1fd0a4f28419497f9722a3daafe3b4186f6b6457e090600090a35050565b60007f00000000000000000000000000000000000000000000000000000000000000006001600160a01b0316634000aea07f000000000000000000000000000000000000000000000000000000000000000084866000604051602001613e16929190918252602082015260400190565b6040516020818303038152906040526040518463ffffffff1660e01b8152600401613e4393929190615621565b6020604051808303816000875af1158015613e62573d6000803e3d6000fd5b505050506040513d601f19601f82011682018060405250810190613e869190615651565b5060008381526020818152604080832054815180840188905280830185905230606082015260808082018390528351808303909101815260a090910190925281519183019190912086845292909152613ee090600161551b565b6000858152602081815260409182902092909255805180830187905280820184905281518082038301815260609091019091528051910120613a1c565b60006139f38284615673565b6007546000908152601460205260409020613f4782620f4240613aa1565b60028201805463ffffffff191663ffffffff92909216919091179055613f6b6143aa565b60075460028201546040805163ffffffff9092168252602082018690527fa9b89969f49e00ecb130cee5a9bc06c4c758fe74309bae2adf69c02883f1a1cb910160405180910390a2600654610100900460ff1661155c5761155c613be7565b6040516001600160a01b03831660248201526044810182905261155c90849063a9059cbb60e01b90606401613a64565b6000818152601e6020908152604080832060010154601490925282206140289190600501835b015490613a24565b92915050565b60008361403d575060006139f3565b82546001600160a01b031615614078578161405a575060006139f3565b61407184613a168560010154858760030154613a06565b90506139f3565b5060009392505050565b33600090815260196020908152604080832086845290915281205463ffffffff166140d95760405162461bcd60e51b81526020600482015260076024820152662165786973747360c81b6044820152606401610b2e565b6000831180156140e95750600783105b6141275760405162461bcd60e51b815260206004820152600f60248201526e6d696e696d756d206d61746368203160881b6044820152606401610b2e565b600282015461413b9063ffffffff16613ab9565b614146600185615476565b60068110614156576141566153dc565b6020908102919091015133600090815260198352604080822088835290935291909120546141899063ffffffff16613ab9565b614194600186615476565b600681106141a4576141a46153dc565b6020020151146141ed5760405162461bcd60e51b81526020600482015260146024820152734e6f74206f776e65727c77726f6e67206461746160601b6044820152606401610b2e565b6000826005018460078110614204576142046153dc565b015433600090815260196020908152604080832089845282528083206001908101548452601690925282209293509091908290600e8701906142469089615476565b60068110614256576142566153dc565b0154815260200190815260200160002054905061428181613a1686600301548564174876e800613a06565b9695505050505050565b60006142e0826040518060400160405280602081526020017f5361666545524332303a206c6f772d6c6576656c2063616c6c206661696c6564815250856001600160a01b031661467e9092919063ffffffff16565b80519091501561155c57808060200190518101906142fe9190615651565b61155c5760405162461bcd60e51b815260206004820152602a60248201527f5361666545524332303a204552433230206f7065726174696f6e20646964206e6044820152691bdd081cdd58d8d9595960b21b6064820152608401610b2e565b600080826143775761437262015180866139e7565b614379565b845b905060008060006143898461468d565b92509250925061439e8383838a6000806146b3565b98975050505050505050565b6007546000908152601460205260408120908080806143c761470f565b6007546000908152601e60205260409020939750919550935091508215614421578054614421906001600160a01b037f00000000000000000000000000000000000000000000000000000000000000008116911685613fca565b6007546000908152601560205260409020546001600160a01b03161561447c576007546000908152601560205260409020805482546001808501546001600160a01b039384169461447a9490931692612e9f929161402e565b505b81156145c65760405163095ea7b360e01b81526001600160a01b037f000000000000000000000000000000000000000000000000000000000000000081166004830152602482018490527f0000000000000000000000000000000000000000000000000000000000000000169063095ea7b3906044016020604051808303816000875af1158015614511573d6000803e3d6000fd5b505050506040513d601f19601f820116820180604052508101906145359190615651565b50604051636172858b60e11b8152600481018390527f00000000000000000000000000000000000000000000000000000000000000006001600160a01b03169063c2e50b1690602401600060405180830381600087803b15801561459857600080fd5b505af11580156145ac573d6000803e3d6000fd5b505050506145c38286613a2490919063ffffffff16565b94505b831561464e57604051630852cd8d60e31b8152600481018590527f00000000000000000000000000000000000000000000000000000000000000006001600160a01b0316906342966c6890602401600060405180830381600087803b15801561462e57600080fd5b505af1158015614642573d6000803e3d6000fd5b50505050600c86018490555b84601460006007546001614662919061551b565b8152602081019190915260400160002060030155505050505050565b6060613a1c8484600085614aa9565b600080806146a66146a16201518086615673565b614bcf565b9196909550909350915050565b6000816146c1603c85615457565b6146cd610e1087615457565b620151806146dc8b8b8b614d43565b6146e69190615457565b6146f0919061551b565b6146fa919061551b565b614704919061551b565b979650505050505050565b600754600090815260146020908152604080832060159092528220600282015483928392839283906147469063ffffffff16613ab9565b90506000805b60068160ff1610156148be57600083614766836005615687565b60ff1660068110614779576147796153dc565b602090810291909101516007546000908152601683526040808220838352909352919091205490915080156148635760ff83166147b8578093506147f0565b6147c28185613a24565b90506147ce84826139e7565b6007546000908152601660209081526040808320868452909152902082905593505b801561485e5761482460058801614808856006615687565b60ff166007811061481b5761481b6153dc565b01548a906139e7565b985061485860058801614838856006615687565b60ff166007811061484b5761484b6153dc565b01546003880154906139e7565b60038701555b6148a9565b6148a661489f88600301548960050186600661487f9190615687565b60ff1660078110614892576148926153dc565b015464174876e800613a06565b8c906139e7565b9a505b505080806148b6906154b2565b91505061474c565b506148ce633b9aca00600a615457565b861015614972576148e984600301548764174876e800613a06565b6014850154855491965061490f91614900916139fa565b610e7a633b9aca00600a615457565b8510156149695761493e85614938614900876014015488600001546139fa90919063ffffffff16565b90613a24565b945061496285614953633b9aca006005615457565b6132d7633b9aca00600a615457565b9450614977565b60009450614977565b600094505b61499564174876e800613a16601354896139fa90919063ffffffff16565b84549096506000906149a79083613a24565b600d860183905590506149bf600e8601846006614fc0565b50806149ef5760038501546149e8906149e190610e7a8a60058a016000614020565b8a906139e7565b9850614a08565b60058501546003850154614a02916139e7565b60038501555b60148501548554614a18916139fa565b614a2e8660030154600a5464174876e800613a06565b11614a5057614a49856003015460125464174876e800613a06565b9750614a70565b60009750614a6d6149e1866003015460125464174876e800613a06565b98505b6007546000908152601e602052604090206001018790556003850154614a9c908864174876e800613a06565b9650505050505090919293565b606082471015614b0a5760405162461bcd60e51b815260206004820152602660248201527f416464726573733a20696e73756666696369656e742062616c616e636520666f6044820152651c8818d85b1b60d21b6064820152608401610b2e565b6001600160a01b0385163b614b615760405162461bcd60e51b815260206004820152601d60248201527f416464726573733a2063616c6c20746f206e6f6e2d636f6e74726163740000006044820152606401610b2e565b600080866001600160a01b03168587604051614b7d91906156aa565b60006040518083038185875af1925050503d8060008114614bba576040519150601f19603f3d011682016040523d82523d6000602084013e614bbf565b606091505b5091509150614704828286614e74565b60008080838162253d8c614be68362010bd96156c6565b614bf091906156c6565b9050600062023ab1614c03836004615707565b614c0d919061578c565b90506004614c1e8262023ab1615707565b614c299060036156c6565b614c33919061578c565b614c3d90836157ba565b9150600062164b09614c508460016156c6565b614c5c90610fa0615707565b614c66919061578c565b90506004614c76826105b5615707565b614c80919061578c565b614c8a90846157ba565b614c9590601f6156c6565b9250600061098f614ca7856050615707565b614cb1919061578c565b905060006050614cc38361098f615707565b614ccd919061578c565b614cd790866157ba565b9050614ce4600b8361578c565b9450614cf185600c615707565b614cfc8360026156c6565b614d0691906157ba565b91508483614d156031876157ba565b614d20906064615707565b614d2a91906156c6565b614d3491906156c6565b9a919950975095505050505050565b60006107b2841015614d5457600080fd5b838383600062253d8c60046064600c614d6e600e886157ba565b614d78919061578c565b614d84886113246156c6565b614d8e91906156c6565b614d98919061578c565b614da3906003615707565b614dad919061578c565b600c80614dbb600e886157ba565b614dc5919061578c565b614dd090600c615707565b614ddb6002886157ba565b614de591906157ba565b614df19061016f615707565b614dfb919061578c565b6004600c614e0a600e896157ba565b614e14919061578c565b614e20896112c06156c6565b614e2a91906156c6565b614e36906105b5615707565b614e40919061578c565b614e4c617d4b876157ba565b614e5691906156c6565b614e6091906156c6565b614e6a91906157ba565b61439e91906157ba565b60608315614e835750816139f3565b825115614e935782518084602001fd5b8160405162461bcd60e51b8152600401610b2e91906157f9565b82805482825590600052602060002090601f01602090048101928215614f465791602002820160005b83821115614f1757833560ff1683826101000a81548160ff021916908360ff1602179055509260200192600101602081600001049283019260010302614ed6565b8015614f445782816101000a81549060ff0219169055600101602081600001049283019260010302614f17565b505b50614f52929150614fed565b5090565b8260078101928215614f46579160200282015b82811115614f46578251825591602001919060010190614f69565b6040518060e001604052806007906020820280368337509192915050565b6040518060c001604052806006906020820280368337509192915050565b8260068101928215614f465791602002820182811115614f46578251825591602001919060010190614f69565b5b80821115614f525760008155600101614fee565b60006020828403121561501457600080fd5b5035919050565b602080825282518282018190526000919060409081850190868401855b82811015615063578151805163ffffffff168552860151868501529284019290850190600101615038565b5091979650505050505050565b60008083601f84011261508257600080fd5b50813567ffffffffffffffff81111561509a57600080fd5b6020830191508360208260051b85010111156150b557600080fd5b9250929050565b6000806000604084860312156150d157600080fd5b833567ffffffffffffffff8111156150e857600080fd5b6150f486828701615070565b909790965060209590950135949350505050565b80356001600160a01b038116811461511f57600080fd5b919050565b60006020828403121561513657600080fd5b6139f382615108565b803563ffffffff8116811461511f57600080fd5b6000806040838503121561516657600080fd5b823591506151766020840161513f565b90509250929050565b6000806020838503121561519257600080fd5b823567ffffffffffffffff8111156151a957600080fd5b6151b585828601615070565b90969095509350505050565b600080604083850312156151d457600080fd5b6151dd83615108565b946020939093013593505050565b602080825282518282018190526000919060409081850190868401855b828110156150635781518051855286810151878601528501518585015260609093019290850190600101615208565b803560ff8116811461511f57600080fd5b6000806040838503121561525b57600080fd5b61526483615108565b915061517660208401615237565b6000806000806080858703121561528857600080fd5b61529185615108565b966020860135965060408601359560600135945092505050565b600080604083850312156152be57600080fd5b50508035926020909101359150565b60e08101818360005b60078110156152f55781518352602092830192909101906001016152d6565b50505092915050565b6000806000806000806060878903121561531757600080fd5b863567ffffffffffffffff8082111561532f57600080fd5b818901915089601f83011261534357600080fd5b81358181111561535257600080fd5b8a602060608302850101111561536757600080fd5b60209283019850965090880135908082111561538257600080fd5b61538e8a838b01615070565b909650945060408901359150808211156153a757600080fd5b506153b489828a01615070565b979a9699509497509295939492505050565b634e487b7160e01b600052604160045260246000fd5b634e487b7160e01b600052603260045260246000fd5b634e487b7160e01b600052601160045260246000fd5b600060001982141561541c5761541c6153f2565b5060010190565b60006020828403121561543557600080fd5b5051919050565b60006020828403121561544e57600080fd5b6139f38261513f565b6000816000190483118215151615615471576154716153f2565b500290565b600082821015615488576154886153f2565b500390565b600060ff821660ff84168060ff038211156154aa576154aa6153f2565b019392505050565b600060ff821660ff8114156154c9576154c96153f2565b60010192915050565b602080825260149082015273536f727279204f6e6c79204f70657261746f727360601b604082015260600190565b60006020828403121561551257600080fd5b6139f382615237565b6000821982111561552e5761552e6153f2565b500190565b6020808252818101527f4f776e61626c653a2063616c6c6572206973206e6f7420746865206f776e6572604082015260600190565b634e487b7160e01b600052601260045260246000fd5b600063ffffffff8084168061559557615595615568565b92169190910692915050565b600063ffffffff8083168185168083038211156155c0576155c06153f2565b01949350505050565b60005b838110156155e45781810151838201526020016155cc565b83811115613a9b5750506000910152565b6000815180845261560d8160208601602086016155c9565b601f01601f19169290920160200192915050565b60018060a01b038416815282602082015260606040820152600061564860608301846155f5565b95945050505050565b60006020828403121561566357600080fd5b815180151581146139f357600080fd5b60008261568257615682615568565b500490565b600060ff821660ff8416808210156156a1576156a16153f2565b90039392505050565b600082516156bc8184602087016155c9565b9190910192915050565b600080821280156001600160ff1b03849003851316156156e8576156e86153f2565b600160ff1b8390038412811615615701576157016153f2565b50500190565b60006001600160ff1b038184138284138082168684048611161561572d5761572d6153f2565b600160ff1b600087128281168783058912161561574c5761574c6153f2565b60008712925087820587128484161615615768576157686153f2565b8785058712818416161561577e5761577e6153f2565b505050929093029392505050565b60008261579b5761579b615568565b600160ff1b8214600019841416156157b5576157b56153f2565b500590565b60008083128015600160ff1b8501841216156157d8576157d86153f2565b6001600160ff1b03840183138116156157f3576157f36153f2565b50500390565b6020815260006139f360208301846155f556fe5af2934cde0e8f426137c5ac515de5964be4f4c54e457857099de07f6967f772a2646970667358221220cff40425a167d9872e91bdcb101b0703f25812aa7a807e120ee61a660e21e41c64736f6c634300080c0033","bytecodeSha1":"4377cdfc839d28eb57f9c2b2bc548a79b8639c5a","compiler":{"evm_version":"istanbul","optimizer":{"enabled":true,"runs":200},"version":"0.8.12+commit.f00d7308"},"contractName":"BitcrushLottery","language":"Solidity","natspec":{"author":"Bitcrush Devs","kind":"dev","methods":{"addToPool(uint256)":{"details":"Approve needs to be run beforehand so the transfer can succeed.","notice":"Add funds to pool directly, only applies funds to currentRound","params":{"_amount":"the amount of CRUSH to transfer from current account to current Round"}},"buyTickets(uint32[],uint256)":{"notice":"Buy Tickets to participate in current round from a partner","params":{"_partnerId":"the id of the partner to send the funds to if 0, no partner is checked.","_ticketNumbers":"takes in an array of uint values as the ticket number to buy"}},"claimAllPendingTickets((uint256,uint256,uint256)[],uint256[],uint256[])":{"details":"_ticketIds and _matches have to be same length since they are matched 1-to-1","notice":"Claim all tickets for selected Rounds","params":{"_matches":"array of match per ticket Id","_rounds":"the round info to look at","_ticketIds":"array of ticket Ids that will be claimed"}},"constructor":{"details":"Select the appropriate VRF Coordinator and LINK Token addresses"},"crushTheContract()":{"details":"This function is meant to retrieve funds in case of non usage and/or upgrading in the future.","notice":"Destroy contract and retrieve funds"},"editPartner(address,uint8)":{"details":"their ID doesn't change, nor is it removed once partnership ends.","notice":"add/remove/edit partners","params":{"_partnerAddress":"the address where funds will go to.","_split":"the negotiated split percentage. Value goes from 0 to 90."}},"endRound()":{"details":"WIP - the end of the round will always happen at set intervals","notice":"Ends current round"},"exchangeForTicket(uint32[])":{"notice":"Exchange awarded tickets for the current round","params":{"_ticketNumbers":"array of numbers to add to the caller as tickets"}},"firstStart()":{"notice":"Start of new Round. This function is only needed for the first round, next rounds will be automatically started once the winner number is received"},"getProviderId(address)":{"notice":"retrieve a provider wallet ID","params":{"_checkAddress":"the address to check"},"returns":{"_id":"the ID of the provider"}},"getRoundDistribution(uint256)":{"details":"this is necessary since solidity doesn't return the nested array in a struct when calling the variable containing the struct","notice":"Get a specific round's distribution percentages","params":{"_round":"the round to check"}},"getRoundTickets(uint256)":{"notice":"Get Tickets for the caller for during a specific round","params":{"_round":"The round to query"}},"isNumberWinner(uint256,uint32)":{"notice":"Check if number is the winning number","params":{"_round":"Round the requested ticket belongs to","luckyTicket":"ticket number to check"},"returns":{"_match":"Number of winning matches"}},"owner()":{"details":"Returns the address of the current owner."},"renounceOwnership()":{"details":"Leaves the contract without owner. It will not be possible to call `onlyOwner` functions anymore. Can only be called by the current owner. NOTE: Renouncing ownership will leave the contract without an owner, thereby removing any functionality that is only available to the owner."},"rewardTicket(address,uint256)":{"notice":"Give Redeemable Tickets to a particular user","params":{"_rewardee":"Address the tickets will be awarded to","ticketAmount":"number of tickets awarded"}},"setBonusCoin(address,uint256,uint256,uint256)":{"notice":"Set the token that will be used as a Bonus for a particular round","params":{"_partnerToken":"Token address","_round":"round where this token applies"}},"setBurnThreshold(uint256)":{"details":"setting the minimum threshold as 0 will always burn, setting max as 50","notice":"Setup the burn threshold","params":{"_threshold":"new threshold in percent amount"}},"setClaimerFee(uint256)":{"details":"Fee cannot be greater than noMatch percentage ( since noMatch percentage is the amount given out to nonWinners )","notice":"Change the claimer's fee","params":{"_fee":"the value of the new fee"}},"setDistributionPercentages(uint256[])":{"details":"we expect all values to sum 100 and that all items are given. The new distribution only applies to next roundsall values are in the one onehundreth percentile amount.expected order [ jackpot, match5, match4, match3, match2, match1, noMatch, burn]","notice":"Set the distribution percentage amounts... all amounts must be given for this to work","params":{"_newDistribution":"array of distribution amounts"}},"setEndHours(uint8[])":{"details":"adding a sorting algorithm would be nice but honestly we have too much going on to add that in. So help us out and add your times sorted","notice":"Edit the times array","params":{"_newTimes":"Array of hours when Lottery will end"}},"setTicketValue(uint256)":{"details":"Ticket value MUST BE IN WEI format, minimum is left as greater than 1 due to the deflationary nature of CRUSH","notice":"Set the ticket value","params":{"_newValue":"the new value of the ticket"}},"ticketsToClaim()":{"details":"this is specific to UI, returns ID and ROUND number in order to make the necessary calculations.","notice":"Get all Claimable Tickets","returns":{"_0":"TicketView array"}},"toggleOperator(address)":{"notice":"Add or remove operator","params":{"_operator":"address to add / remove operator"}},"togglePauseStatus()":{"details":"if the round is over and the lottery is unpaused then the round is started","notice":"toggle pause state of lottery"},"transferOwnership(address)":{"details":"Transfers ownership of the contract to a new account (`newOwner`). Can only be called by the current owner."}},"notice":"Simple Lottery contract, matches winning numbers from left to right.","stateVariables":{"match6":{"details":"these values are used with PERCENT_BASE as 100%"}},"title":"Bitcrush's lottery game","version":1},"opcodes":"PUSH1 0x80 PUSH1 0x40 MSTORE CALLVALUE DUP1 ISZERO PUSH2 0x10 JUMPI PUSH1 0x0 DUP1 REVERT JUMPDEST POP PUSH1 0x4 CALLDATASIZE LT PUSH2 0x38E JUMPI PUSH1 0x0 CALLDATALOAD PUSH1 0xE0 SHR DUP1 PUSH4 0x8456CB59 GT PUSH2 0x1DE JUMPI DUP1 PUSH4 0xAF55019C GT PUSH2 0x10F JUMPI DUP1 PUSH4 0xDD54103E GT PUSH2 0xAD JUMPI DUP1 PUSH4 0xF27BDC69 GT PUSH2 0x7C JUMPI DUP1 PUSH4 0xF27BDC69 EQ PUSH2 0x943 JUMPI DUP1 PUSH4 0xF2FDE38B EQ PUSH2 0x963 JUMPI DUP1 PUSH4 0xFBD091D3 EQ PUSH2 0x976 JUMPI DUP1 PUSH4 0xFDAA9069 EQ PUSH2 0x996 JUMPI PUSH1 0x0 DUP1 REVERT JUMPDEST DUP1 PUSH4 0xDD54103E EQ PUSH2 0x8C3 JUMPI DUP1 PUSH4 0xE02DD6EC EQ PUSH2 0x8CC JUMPI DUP1 PUSH4 0xE8590F96 EQ PUSH2 0x8DF JUMPI DUP1 PUSH4 0xF009DAD5 EQ PUSH2 0x936 JUMPI PUSH1 0x0 DUP1 REVERT JUMPDEST DUP1 PUSH4 0xC02E580E GT PUSH2 0xE9 JUMPI DUP1 PUSH4 0xC02E580E EQ PUSH2 0x895 JUMPI DUP1 PUSH4 0xC1764841 EQ PUSH2 0x89E JUMPI DUP1 PUSH4 0xD1DEC8AA EQ PUSH2 0x8A7 JUMPI DUP1 PUSH4 0xDD3284AB EQ PUSH2 0x8B0 JUMPI PUSH1 0x0 DUP1 REVERT JUMPDEST DUP1 PUSH4 0xAF55019C EQ PUSH2 0x846 JUMPI DUP1 PUSH4 0xB359A9F9 EQ PUSH2 0x866 JUMPI DUP1 PUSH4 0xB7953EE6 EQ PUSH2 0x88D JUMPI PUSH1 0x0 DUP1 REVERT JUMPDEST DUP1 PUSH4 0x99D32FC4 GT PUSH2 0x17C JUMPI DUP1 PUSH4 0xA1FE01DB GT PUSH2 0x156 JUMPI DUP1 PUSH4 0xA1FE01DB EQ PUSH2 0x7EC JUMPI DUP1 PUSH4 0xA638F498 EQ PUSH2 0x7FF JUMPI DUP1 PUSH4 0xACAD054D EQ PUSH2 0x808 JUMPI DUP1 PUSH4 0xAED6176E EQ PUSH2 0x81B JUMPI PUSH1 0x0 DUP1 REVERT JUMPDEST DUP1 PUSH4 0x99D32FC4 EQ PUSH2 0x7BD JUMPI DUP1 PUSH4 0x9B944A65 EQ PUSH2 0x7C6 JUMPI DUP1 PUSH4 0x9D6B5F21 EQ PUSH2 0x7D9 JUMPI PUSH1 0x0 DUP1 REVERT JUMPDEST DUP1 PUSH4 0x8D2AF580 GT PUSH2 0x1B8 JUMPI DUP1 PUSH4 0x8D2AF580 EQ PUSH2 0x77E JUMPI DUP1 PUSH4 0x8DA5CB5B EQ PUSH2 0x786 JUMPI DUP1 PUSH4 0x917356CB EQ PUSH2 0x797 JUMPI DUP1 PUSH4 0x94985DDD EQ PUSH2 0x7AA JUMPI PUSH1 0x0 DUP1 REVERT JUMPDEST DUP1 PUSH4 0x8456CB59 EQ PUSH2 0x743 JUMPI DUP1 PUSH4 0x88FDDA9A EQ PUSH2 0x755 JUMPI DUP1 PUSH4 0x8A19C8BC EQ PUSH2 0x775 JUMPI PUSH1 0x0 DUP1 REVERT JUMPDEST DUP1 PUSH4 0x3FE529F0 GT PUSH2 0x2C3 JUMPI DUP1 PUSH4 0x6177DA46 GT PUSH2 0x261 JUMPI DUP1 PUSH4 0x749AA2D9 GT PUSH2 0x230 JUMPI DUP1 PUSH4 0x749AA2D9 EQ PUSH2 0x6E1 JUMPI DUP1 PUSH4 0x7822ED49 EQ PUSH2 0x6E9 JUMPI DUP1 PUSH4 0x798C3922 EQ PUSH2 0x710 JUMPI DUP1 PUSH4 0x8407ED7E EQ PUSH2 0x723 JUMPI PUSH1 0x0 DUP1 REVERT JUMPDEST DUP1 PUSH4 0x6177DA46 EQ PUSH2 0x664 JUMPI DUP1 PUSH4 0x662703F3 EQ PUSH2 0x677 JUMPI DUP1 PUSH4 0x6C8698DB EQ PUSH2 0x6C6 JUMPI DUP1 PUSH4 0x715018A6 EQ PUSH2 0x6D9 JUMPI PUSH1 0x0 DUP1 REVERT JUMPDEST DUP1 PUSH4 0x4F6D38D0 GT PUSH2 0x29D JUMPI DUP1 PUSH4 0x4F6D38D0 EQ PUSH2 0x633 JUMPI DUP1 PUSH4 0x516B7119 EQ PUSH2 0x63C JUMPI DUP1 PUSH4 0x55BB47B4 EQ PUSH2 0x644 JUMPI DUP1 PUSH4 0x5BE81ACF EQ PUSH2 0x657 JUMPI PUSH1 0x0 DUP1 REVERT JUMPDEST DUP1 PUSH4 0x3FE529F0 EQ PUSH2 0x577 JUMPI DUP1 PUSH4 0x427F0B00 EQ PUSH2 0x58A JUMPI DUP1 PUSH4 0x44DF8E70 EQ PUSH2 0x62A JUMPI PUSH1 0x0 DUP1 REVERT JUMPDEST DUP1 PUSH4 0x1D9D4BC2 GT PUSH2 0x330 JUMPI DUP1 PUSH4 0x32382D04 GT PUSH2 0x30A JUMPI DUP1 PUSH4 0x32382D04 EQ PUSH2 0x53D JUMPI DUP1 PUSH4 0x3A156BCC EQ PUSH2 0x546 JUMPI DUP1 PUSH4 0x3AD10EF6 EQ PUSH2 0x54F JUMPI DUP1 PUSH4 0x3EE0D6A7 EQ PUSH2 0x562 JUMPI PUSH1 0x0 DUP1 REVERT JUMPDEST DUP1 PUSH4 0x1D9D4BC2 EQ PUSH2 0x4BE JUMPI DUP1 PUSH4 0x2394A242 EQ PUSH2 0x4E3 JUMPI DUP1 PUSH4 0x312FA87C EQ PUSH2 0x4F6 JUMPI PUSH1 0x0 DUP1 REVERT JUMPDEST DUP1 PUSH4 0xA9F8E42 GT PUSH2 0x36C JUMPI DUP1 PUSH4 0xA9F8E42 EQ PUSH2 0x3F8 JUMPI DUP1 PUSH4 0x13E7C9D8 EQ PUSH2 0x461 JUMPI DUP1 PUSH4 0x1BC75123 EQ PUSH2 0x494 JUMPI DUP1 PUSH4 0x1C5FC483 EQ PUSH2 0x4AB JUMPI PUSH1 0x0 DUP1 REVERT JUMPDEST DUP1 PUSH4 0x32D476A EQ PUSH2 0x393 JUMPI DUP1 PUSH4 0x4AD675D EQ PUSH2 0x3C3 JUMPI DUP1 PUSH4 0xA5F84FB EQ PUSH2 0x3E3 JUMPI JUMPDEST PUSH1 0x0 DUP1 REVERT JUMPDEST PUSH2 0x3A6 PUSH2 0x3A1 CALLDATASIZE PUSH1 0x4 PUSH2 0x5002 JUMP JUMPDEST PUSH2 0x99F JUMP JUMPDEST PUSH1 0x40 MLOAD PUSH1 0x1 PUSH1 0x1 PUSH1 0xA0 SHL SUB SWAP1 SWAP2 AND DUP2 MSTORE PUSH1 0x20 ADD JUMPDEST PUSH1 0x40 MLOAD DUP1 SWAP2 SUB SWAP1 RETURN JUMPDEST PUSH2 0x3D6 PUSH2 0x3D1 CALLDATASIZE PUSH1 0x4 PUSH2 0x5002 JUMP JUMPDEST PUSH2 0x9C9 JUMP JUMPDEST PUSH1 0x40 MLOAD PUSH2 0x3BA SWAP2 SWAP1 PUSH2 0x501B JUMP JUMPDEST PUSH2 0x3F6 PUSH2 0x3F1 CALLDATASIZE PUSH1 0x4 PUSH2 0x50BC JUMP JUMPDEST PUSH2 0xAE0 JUMP JUMPDEST STOP JUMPDEST PUSH2 0x437 PUSH2 0x406 CALLDATASIZE PUSH1 0x4 PUSH2 0x5002 JUMP JUMPDEST PUSH1 0x15 PUSH1 0x20 MSTORE PUSH1 0x0 SWAP1 DUP2 MSTORE PUSH1 0x40 SWAP1 KECCAK256 DUP1 SLOAD PUSH1 0x1 DUP3 ADD SLOAD PUSH1 0x2 DUP4 ADD SLOAD PUSH1 0x3 SWAP1 SWAP4 ADD SLOAD PUSH1 0x1 PUSH1 0x1 PUSH1 0xA0 SHL SUB SWAP1 SWAP3 AND SWAP3 SWAP1 SWAP2 DUP5 JUMP JUMPDEST PUSH1 0x40 DUP1 MLOAD PUSH1 0x1 PUSH1 0x1 PUSH1 0xA0 SHL SUB SWAP1 SWAP6 AND DUP6 MSTORE PUSH1 0x20 DUP6 ADD SWAP4 SWAP1 SWAP4 MSTORE SWAP2 DUP4 ADD MSTORE PUSH1 0x60 DUP3 ADD MSTORE PUSH1 0x80 ADD PUSH2 0x3BA JUMP JUMPDEST PUSH2 0x484 PUSH2 0x46F CALLDATASIZE PUSH1 0x4 PUSH2 0x5124 JUMP JUMPDEST PUSH1 0x1F PUSH1 0x20 MSTORE PUSH1 0x0 SWAP1 DUP2 MSTORE PUSH1 0x40 SWAP1 KECCAK256 SLOAD PUSH1 0xFF AND DUP2 JUMP JUMPDEST PUSH1 0x40 MLOAD SWAP1 ISZERO ISZERO DUP2 MSTORE PUSH1 0x20 ADD PUSH2 0x3BA JUMP JUMPDEST PUSH2 0x49D PUSH1 0x11 SLOAD DUP2 JUMP JUMPDEST PUSH1 0x40 MLOAD SWAP1 DUP2 MSTORE PUSH1 0x20 ADD PUSH2 0x3BA JUMP JUMPDEST PUSH2 0x3F6 PUSH2 0x4B9 CALLDATASIZE PUSH1 0x4 PUSH2 0x5002 JUMP JUMPDEST PUSH2 0x10F4 JUMP JUMPDEST PUSH2 0x4D1 PUSH2 0x4CC CALLDATASIZE PUSH1 0x4 PUSH2 0x5153 JUMP JUMPDEST PUSH2 0x128C JUMP JUMPDEST PUSH1 0x40 MLOAD PUSH1 0xFF SWAP1 SWAP2 AND DUP2 MSTORE PUSH1 0x20 ADD PUSH2 0x3BA JUMP JUMPDEST PUSH2 0x3F6 PUSH2 0x4F1 CALLDATASIZE PUSH1 0x4 PUSH2 0x517F JUMP JUMPDEST PUSH2 0x13A3 JUMP JUMPDEST PUSH2 0x528 PUSH2 0x504 CALLDATASIZE PUSH1 0x4 PUSH2 0x51C1 JUMP JUMPDEST PUSH1 0x1A PUSH1 0x20 SWAP1 DUP2 MSTORE PUSH1 0x0 SWAP3 DUP4 MSTORE PUSH1 0x40 DUP1 DUP5 KECCAK256 SWAP1 SWAP2 MSTORE SWAP1 DUP3 MSTORE SWAP1 KECCAK256 DUP1 SLOAD PUSH1 0x1 SWAP1 SWAP2 ADD SLOAD DUP3 JUMP JUMPDEST PUSH1 0x40 DUP1 MLOAD SWAP3 DUP4 MSTORE PUSH1 0x20 DUP4 ADD SWAP2 SWAP1 SWAP2 MSTORE ADD PUSH2 0x3BA JUMP JUMPDEST PUSH2 0x49D PUSH1 0xD SLOAD DUP2 JUMP JUMPDEST PUSH2 0x49D PUSH1 0x10 SLOAD DUP2 JUMP JUMPDEST PUSH1 0x3 SLOAD PUSH2 0x3A6 SWAP1 PUSH1 0x1 PUSH1 0x1 PUSH1 0xA0 SHL SUB AND DUP2 JUMP JUMPDEST PUSH2 0x56A PUSH2 0x1561 JUMP JUMPDEST PUSH1 0x40 MLOAD PUSH2 0x3BA SWAP2 SWAP1 PUSH2 0x51EB JUMP JUMPDEST PUSH2 0x3F6 PUSH2 0x585 CALLDATASIZE PUSH1 0x4 PUSH2 0x5124 JUMP JUMPDEST PUSH2 0x1716 JUMP JUMPDEST PUSH2 0x5E4 PUSH2 0x598 CALLDATASIZE PUSH1 0x4 PUSH2 0x5002 JUMP JUMPDEST PUSH1 0x14 PUSH1 0x20 DUP2 SWAP1 MSTORE PUSH1 0x0 SWAP2 DUP3 MSTORE PUSH1 0x40 SWAP1 SWAP2 KECCAK256 DUP1 SLOAD PUSH1 0x1 DUP3 ADD SLOAD PUSH1 0x2 DUP4 ADD SLOAD PUSH1 0x3 DUP5 ADD SLOAD PUSH1 0x4 DUP6 ADD SLOAD PUSH1 0xC DUP7 ADD SLOAD PUSH1 0xD DUP8 ADD SLOAD SWAP7 SWAP1 SWAP8 ADD SLOAD SWAP5 SWAP7 SWAP4 SWAP6 PUSH4 0xFFFFFFFF SWAP1 SWAP4 AND SWAP5 SWAP2 SWAP4 SWAP1 SWAP3 SWAP1 SWAP2 DUP9 JUMP JUMPDEST PUSH1 0x40 DUP1 MLOAD SWAP9 DUP10 MSTORE PUSH1 0x20 DUP10 ADD SWAP8 SWAP1 SWAP8 MSTORE PUSH4 0xFFFFFFFF SWAP1 SWAP6 AND SWAP6 DUP8 ADD SWAP6 SWAP1 SWAP6 MSTORE PUSH1 0x60 DUP7 ADD SWAP3 SWAP1 SWAP3 MSTORE PUSH1 0x80 DUP6 ADD MSTORE PUSH1 0xA0 DUP5 ADD MSTORE PUSH1 0xC0 DUP4 ADD SWAP2 SWAP1 SWAP2 MSTORE PUSH1 0xE0 DUP3 ADD MSTORE PUSH2 0x100 ADD PUSH2 0x3BA JUMP JUMPDEST PUSH2 0x49D PUSH1 0x12 SLOAD DUP2 JUMP JUMPDEST PUSH2 0x49D PUSH1 0xA SLOAD DUP2 JUMP JUMPDEST PUSH2 0x3F6 PUSH2 0x181C JUMP JUMPDEST PUSH2 0x3F6 PUSH2 0x652 CALLDATASIZE PUSH1 0x4 PUSH2 0x517F JUMP JUMPDEST PUSH2 0x197F JUMP JUMPDEST PUSH1 0x6 SLOAD PUSH2 0x484 SWAP1 PUSH1 0xFF AND DUP2 JUMP JUMPDEST PUSH2 0x3F6 PUSH2 0x672 CALLDATASIZE PUSH1 0x4 PUSH2 0x5248 JUMP JUMPDEST PUSH2 0x1E38 JUMP JUMPDEST PUSH2 0x6A9 PUSH2 0x685 CALLDATASIZE PUSH1 0x4 PUSH2 0x5124 JUMP JUMPDEST PUSH1 0x18 PUSH1 0x20 MSTORE PUSH1 0x0 SWAP1 DUP2 MSTORE PUSH1 0x40 SWAP1 KECCAK256 DUP1 SLOAD PUSH1 0x1 DUP3 ADD SLOAD PUSH1 0x2 SWAP1 SWAP3 ADD SLOAD SWAP1 SWAP2 SWAP1 PUSH1 0xFF AND DUP4 JUMP JUMPDEST PUSH1 0x40 DUP1 MLOAD SWAP4 DUP5 MSTORE PUSH1 0x20 DUP5 ADD SWAP3 SWAP1 SWAP3 MSTORE ISZERO ISZERO SWAP1 DUP3 ADD MSTORE PUSH1 0x60 ADD PUSH2 0x3BA JUMP JUMPDEST PUSH2 0x49D PUSH2 0x6D4 CALLDATASIZE PUSH1 0x4 PUSH2 0x5124 JUMP JUMPDEST PUSH2 0x1FD2 JUMP JUMPDEST PUSH2 0x3F6 PUSH2 0x2038 JUMP JUMPDEST PUSH2 0x3F6 PUSH2 0x206E JUMP JUMPDEST PUSH2 0x3A6 PUSH32 0x0 DUP2 JUMP JUMPDEST PUSH2 0x3F6 PUSH2 0x71E CALLDATASIZE PUSH1 0x4 PUSH2 0x5272 JUMP JUMPDEST PUSH2 0x22DD JUMP JUMPDEST PUSH2 0x49D PUSH2 0x731 CALLDATASIZE PUSH1 0x4 PUSH2 0x5124 JUMP JUMPDEST PUSH1 0x1B PUSH1 0x20 MSTORE PUSH1 0x0 SWAP1 DUP2 MSTORE PUSH1 0x40 SWAP1 KECCAK256 SLOAD DUP2 JUMP JUMPDEST PUSH1 0x6 SLOAD PUSH2 0x484 SWAP1 PUSH2 0x100 SWAP1 DIV PUSH1 0xFF AND DUP2 JUMP JUMPDEST PUSH2 0x49D PUSH2 0x763 CALLDATASIZE PUSH1 0x4 PUSH2 0x5124 JUMP JUMPDEST PUSH1 0x17 PUSH1 0x20 MSTORE PUSH1 0x0 SWAP1 DUP2 MSTORE PUSH1 0x40 SWAP1 KECCAK256 SLOAD DUP2 JUMP JUMPDEST PUSH2 0x49D PUSH1 0x7 SLOAD DUP2 JUMP JUMPDEST PUSH2 0x3F6 PUSH2 0x26A9 JUMP JUMPDEST PUSH1 0x1 SLOAD PUSH1 0x1 PUSH1 0x1 PUSH1 0xA0 SHL SUB AND PUSH2 0x3A6 JUMP JUMPDEST PUSH2 0x3F6 PUSH2 0x7A5 CALLDATASIZE PUSH1 0x4 PUSH2 0x5002 JUMP JUMPDEST PUSH2 0x2793 JUMP JUMPDEST PUSH2 0x3F6 PUSH2 0x7B8 CALLDATASIZE PUSH1 0x4 PUSH2 0x52AB JUMP JUMPDEST PUSH2 0x2850 JUMP JUMPDEST PUSH2 0x49D PUSH1 0x13 SLOAD DUP2 JUMP JUMPDEST PUSH2 0x3F6 PUSH2 0x7D4 CALLDATASIZE PUSH1 0x4 PUSH2 0x51C1 JUMP JUMPDEST PUSH2 0x28D6 JUMP JUMPDEST PUSH2 0x3F6 PUSH2 0x7E7 CALLDATASIZE PUSH1 0x4 PUSH2 0x5002 JUMP JUMPDEST PUSH2 0x2992 JUMP JUMPDEST PUSH2 0x4D1 PUSH2 0x7FA CALLDATASIZE PUSH1 0x4 PUSH2 0x5002 JUMP JUMPDEST PUSH2 0x2A10 JUMP JUMPDEST PUSH2 0x49D PUSH1 0x9 SLOAD DUP2 JUMP JUMPDEST PUSH2 0x3F6 PUSH2 0x816 CALLDATASIZE PUSH1 0x4 PUSH2 0x517F JUMP JUMPDEST PUSH2 0x2A44 JUMP JUMPDEST PUSH2 0x49D PUSH2 0x829 CALLDATASIZE PUSH1 0x4 PUSH2 0x52AB JUMP JUMPDEST PUSH1 0x16 PUSH1 0x20 SWAP1 DUP2 MSTORE PUSH1 0x0 SWAP3 DUP4 MSTORE PUSH1 0x40 DUP1 DUP5 KECCAK256 SWAP1 SWAP2 MSTORE SWAP1 DUP3 MSTORE SWAP1 KECCAK256 SLOAD DUP2 JUMP JUMPDEST PUSH2 0x859 PUSH2 0x854 CALLDATASIZE PUSH1 0x4 PUSH2 0x5002 JUMP JUMPDEST PUSH2 0x2B68 JUMP JUMPDEST PUSH1 0x40 MLOAD PUSH2 0x3BA SWAP2 SWAP1 PUSH2 0x52CD JUMP JUMPDEST PUSH2 0x3A6 PUSH32 0x0 DUP2 JUMP JUMPDEST PUSH2 0x3F6 PUSH2 0x2BD7 JUMP JUMPDEST PUSH2 0x49D PUSH1 0x8 SLOAD DUP2 JUMP JUMPDEST PUSH2 0x49D PUSH1 0xE SLOAD DUP2 JUMP JUMPDEST PUSH2 0x49D PUSH1 0xB SLOAD DUP2 JUMP JUMPDEST PUSH2 0x3F6 PUSH2 0x8BE CALLDATASIZE PUSH1 0x4 PUSH2 0x52FE JUMP JUMPDEST PUSH2 0x2EC7 JUMP JUMPDEST PUSH2 0x49D PUSH1 0xC SLOAD DUP2 JUMP JUMPDEST PUSH2 0x3F6 PUSH2 0x8DA CALLDATASIZE PUSH1 0x4 PUSH2 0x5002 JUMP JUMPDEST PUSH2 0x3871 JUMP JUMPDEST PUSH2 0x91A PUSH2 0x8ED CALLDATASIZE PUSH1 0x4 PUSH2 0x51C1 JUMP JUMPDEST PUSH1 0x19 PUSH1 0x20 SWAP1 DUP2 MSTORE PUSH1 0x0 SWAP3 DUP4 MSTORE PUSH1 0x40 DUP1 DUP5 KECCAK256 SWAP1 SWAP2 MSTORE SWAP1 DUP3 MSTORE SWAP1 KECCAK256 DUP1 SLOAD PUSH1 0x1 SWAP1 SWAP2 ADD SLOAD PUSH4 0xFFFFFFFF SWAP1 SWAP2 AND SWAP1 DUP3 JUMP JUMPDEST PUSH1 0x40 DUP1 MLOAD PUSH4 0xFFFFFFFF SWAP1 SWAP4 AND DUP4 MSTORE PUSH1 0x20 DUP4 ADD SWAP2 SWAP1 SWAP2 MSTORE ADD PUSH2 0x3BA JUMP JUMPDEST PUSH1 0x23 SLOAD PUSH2 0x4D1 SWAP1 PUSH1 0xFF AND DUP2 JUMP JUMPDEST PUSH2 0x49D PUSH2 0x951 CALLDATASIZE PUSH1 0x4 PUSH2 0x5124 JUMP JUMPDEST PUSH1 0x1D PUSH1 0x20 MSTORE PUSH1 0x0 SWAP1 DUP2 MSTORE PUSH1 0x40 SWAP1 KECCAK256 SLOAD DUP2 JUMP JUMPDEST PUSH2 0x3F6 PUSH2 0x971 CALLDATASIZE PUSH1 0x4 PUSH2 0x5124 JUMP JUMPDEST PUSH2 0x394C JUMP JUMPDEST PUSH2 0x49D PUSH2 0x984 CALLDATASIZE PUSH1 0x4 PUSH2 0x5124 JUMP JUMPDEST PUSH1 0x1C PUSH1 0x20 MSTORE PUSH1 0x0 SWAP1 DUP2 MSTORE PUSH1 0x40 SWAP1 KECCAK256 SLOAD DUP2 JUMP JUMPDEST PUSH2 0x49D PUSH1 0xF SLOAD DUP2 JUMP JUMPDEST PUSH1 0x21 DUP2 DUP2 SLOAD DUP2 LT PUSH2 0x9AF JUMPI PUSH1 0x0 DUP1 REVERT JUMPDEST PUSH1 0x0 SWAP2 DUP3 MSTORE PUSH1 0x20 SWAP1 SWAP2 KECCAK256 ADD SLOAD PUSH1 0x1 PUSH1 0x1 PUSH1 0xA0 SHL SUB AND SWAP1 POP DUP2 JUMP JUMPDEST CALLER PUSH1 0x0 SWAP1 DUP2 MSTORE PUSH1 0x1A PUSH1 0x20 SWAP1 DUP2 MSTORE PUSH1 0x40 DUP1 DUP4 KECCAK256 DUP5 DUP5 MSTORE SWAP1 SWAP2 MSTORE DUP2 KECCAK256 DUP1 SLOAD PUSH1 0x60 SWAP3 SWAP1 PUSH8 0xFFFFFFFFFFFFFFFF DUP2 GT ISZERO PUSH2 0xA01 JUMPI PUSH2 0xA01 PUSH2 0x53C6 JUMP JUMPDEST PUSH1 0x40 MLOAD SWAP1 DUP1 DUP3 MSTORE DUP1 PUSH1 0x20 MUL PUSH1 0x20 ADD DUP3 ADD PUSH1 0x40 MSTORE DUP1 ISZERO PUSH2 0xA46 JUMPI DUP2 PUSH1 0x20 ADD JUMPDEST PUSH1 0x40 DUP1 MLOAD DUP1 DUP3 ADD SWAP1 SWAP2 MSTORE PUSH1 0x0 DUP1 DUP3 MSTORE PUSH1 0x20 DUP3 ADD MSTORE DUP2 MSTORE PUSH1 0x20 ADD SWAP1 PUSH1 0x1 SWAP1 SUB SWAP1 DUP2 PUSH2 0xA1F JUMPI SWAP1 POP JUMPDEST POP SWAP1 POP PUSH1 0x0 JUMPDEST DUP3 SLOAD DUP2 LT ISZERO PUSH2 0xAD8 JUMPI CALLER PUSH1 0x0 SWAP1 DUP2 MSTORE PUSH1 0x19 PUSH1 0x20 MSTORE PUSH1 0x40 DUP2 KECCAK256 PUSH1 0x1 DUP6 ADD SLOAD SWAP1 SWAP2 SWAP1 PUSH2 0xA76 SWAP1 DUP5 PUSH2 0x39E7 JUMP JUMPDEST DUP2 MSTORE PUSH1 0x20 DUP1 DUP3 ADD SWAP3 SWAP1 SWAP3 MSTORE PUSH1 0x40 SWAP1 DUP2 ADD PUSH1 0x0 KECCAK256 DUP2 MLOAD DUP1 DUP4 ADD SWAP1 SWAP3 MSTORE DUP1 SLOAD PUSH4 0xFFFFFFFF AND DUP3 MSTORE PUSH1 0x1 ADD SLOAD SWAP2 DUP2 ADD SWAP2 SWAP1 SWAP2 MSTORE DUP3 MLOAD DUP4 SWAP1 DUP4 SWAP1 DUP2 LT PUSH2 0xABA JUMPI PUSH2 0xABA PUSH2 0x53DC JUMP JUMPDEST PUSH1 0x20 MUL PUSH1 0x20 ADD ADD DUP2 SWAP1 MSTORE POP DUP1 DUP1 PUSH2 0xAD0 SWAP1 PUSH2 0x5408 JUMP JUMPDEST SWAP2 POP POP PUSH2 0xA4C JUMP JUMPDEST POP SWAP4 SWAP3 POP POP POP JUMP JUMPDEST PUSH1 0x2 DUP1 SLOAD EQ ISZERO PUSH2 0xB37 JUMPI PUSH1 0x40 MLOAD PUSH3 0x461BCD PUSH1 0xE5 SHL DUP2 MSTORE PUSH1 0x20 PUSH1 0x4 DUP3 ADD MSTORE PUSH1 0x1F PUSH1 0x24 DUP3 ADD MSTORE PUSH32 0x5265656E7472616E637947756172643A207265656E7472616E742063616C6C00 PUSH1 0x44 DUP3 ADD MSTORE PUSH1 0x64 ADD JUMPDEST PUSH1 0x40 MLOAD DUP1 SWAP2 SUB SWAP1 REVERT JUMPDEST PUSH1 0x2 DUP1 SSTORE DUP2 PUSH2 0xB71 JUMPI PUSH1 0x40 MLOAD PUSH3 0x461BCD PUSH1 0xE5 SHL DUP2 MSTORE PUSH1 0x20 PUSH1 0x4 DUP3 ADD MSTORE PUSH1 0x6 PUSH1 0x24 DUP3 ADD MSTORE PUSH6 0x4E6565642031 PUSH1 0xD0 SHL PUSH1 0x44 DUP3 ADD MSTORE PUSH1 0x64 ADD PUSH2 0xB2E JUMP JUMPDEST PUSH1 0x64 DUP3 GT ISZERO PUSH2 0xBB5 JUMPI PUSH1 0x40 MLOAD PUSH3 0x461BCD PUSH1 0xE5 SHL DUP2 MSTORE PUSH1 0x20 PUSH1 0x4 DUP3 ADD MSTORE PUSH1 0x10 PUSH1 0x24 DUP3 ADD MSTORE PUSH16 0x6E6F206D6F7265207468616E2031303 PUSH1 0x84 SHL PUSH1 0x44 DUP3 ADD MSTORE PUSH1 0x64 ADD PUSH2 0xB2E JUMP JUMPDEST PUSH1 0x6 SLOAD PUSH1 0xFF AND ISZERO ISZERO PUSH1 0x1 EQ PUSH2 0xBFF JUMPI PUSH1 0x40 MLOAD PUSH3 0x461BCD PUSH1 0xE5 SHL DUP2 MSTORE PUSH1 0x20 PUSH1 0x4 DUP3 ADD MSTORE PUSH1 0x10 PUSH1 0x24 DUP3 ADD MSTORE PUSH16 0x526F756E64206E6F7420616374697665 PUSH1 0x80 SHL PUSH1 0x44 DUP3 ADD MSTORE PUSH1 0x64 ADD PUSH2 0xB2E JUMP JUMPDEST PUSH1 0x7 SLOAD PUSH1 0x0 SWAP1 DUP2 MSTORE PUSH1 0x14 PUSH1 0x20 DUP2 SWAP1 MSTORE PUSH1 0x40 DUP3 KECCAK256 ADD SLOAD PUSH2 0xC1E SWAP1 DUP5 PUSH2 0x39FA JUMP JUMPDEST PUSH1 0x40 MLOAD PUSH4 0x70A08231 PUSH1 0xE0 SHL DUP2 MSTORE CALLER PUSH1 0x4 DUP3 ADD MSTORE SWAP1 SWAP2 POP DUP2 SWAP1 PUSH1 0x1 PUSH1 0x1 PUSH1 0xA0 SHL SUB PUSH32 0x0 AND SWAP1 PUSH4 0x70A08231 SWAP1 PUSH1 0x24 ADD PUSH1 0x20 PUSH1 0x40 MLOAD DUP1 DUP4 SUB DUP2 DUP7 GAS STATICCALL ISZERO DUP1 ISZERO PUSH2 0xC87 JUMPI RETURNDATASIZE PUSH1 0x0 DUP1 RETURNDATACOPY RETURNDATASIZE PUSH1 0x0 REVERT JUMPDEST POP POP POP POP PUSH1 0x40 MLOAD RETURNDATASIZE PUSH1 0x1F NOT PUSH1 0x1F DUP3 ADD AND DUP3 ADD DUP1 PUSH1 0x40 MSTORE POP DUP2 ADD SWAP1 PUSH2 0xCAB SWAP2 SWAP1 PUSH2 0x5423 JUMP JUMPDEST LT ISZERO PUSH2 0xCEA JUMPI PUSH1 0x40 MLOAD PUSH3 0x461BCD PUSH1 0xE5 SHL DUP2 MSTORE PUSH1 0x20 PUSH1 0x4 DUP3 ADD MSTORE PUSH1 0xE PUSH1 0x24 DUP3 ADD MSTORE PUSH14 0x43616E2774207075726368617365 PUSH1 0x90 SHL PUSH1 0x44 DUP3 ADD MSTORE PUSH1 0x64 ADD PUSH2 0xB2E JUMP JUMPDEST CALLER PUSH1 0x0 SWAP1 DUP2 MSTORE PUSH1 0x1A PUSH1 0x20 SWAP1 DUP2 MSTORE PUSH1 0x40 DUP1 DUP4 KECCAK256 PUSH1 0x7 SLOAD DUP5 MSTORE SWAP1 SWAP2 MSTORE SWAP1 KECCAK256 PUSH1 0x1 ADD SLOAD PUSH2 0xD4A JUMPI CALLER PUSH1 0x0 SWAP1 DUP2 MSTORE PUSH1 0x1B PUSH1 0x20 MSTORE PUSH1 0x40 SWAP1 KECCAK256 SLOAD PUSH2 0xD29 SWAP1 PUSH1 0x1 PUSH2 0x39E7 JUMP JUMPDEST CALLER PUSH1 0x0 SWAP1 DUP2 MSTORE PUSH1 0x1A PUSH1 0x20 SWAP1 DUP2 MSTORE PUSH1 0x40 DUP1 DUP4 KECCAK256 PUSH1 0x7 SLOAD DUP5 MSTORE SWAP1 SWAP2 MSTORE SWAP1 KECCAK256 PUSH1 0x1 ADD SSTORE JUMPDEST PUSH1 0x0 JUMPDEST DUP4 DUP2 LT ISZERO PUSH2 0xE39 JUMPI PUSH2 0xE27 CALLER DUP7 DUP7 DUP5 DUP2 DUP2 LT PUSH2 0xD6B JUMPI PUSH2 0xD6B PUSH2 0x53DC JUMP JUMPDEST SWAP1 POP PUSH1 0x20 MUL ADD PUSH1 0x20 DUP2 ADD SWAP1 PUSH2 0xD80 SWAP2 SWAP1 PUSH2 0x543C JUMP JUMPDEST PUSH1 0x7 SLOAD PUSH1 0x0 SWAP3 DUP4 MSTORE PUSH1 0x1B PUSH1 0x20 SWAP1 DUP2 MSTORE PUSH1 0x40 DUP1 DUP6 KECCAK256 SLOAD PUSH1 0x19 DUP4 MSTORE DUP2 DUP7 KECCAK256 PUSH1 0x1 SWAP2 DUP10 ADD DUP3 ADD DUP8 MSTORE DUP4 MSTORE DUP2 DUP7 KECCAK256 PUSH3 0xF4240 SWAP6 DUP7 SWAP1 MOD SWAP1 SWAP6 ADD DUP1 DUP7 SSTORE SWAP5 DUP2 ADD DUP5 SWAP1 SSTORE SWAP3 DUP6 MSTORE PUSH1 0x16 DUP3 MSTORE DUP1 DUP6 KECCAK256 DUP5 DUP7 MSTORE SWAP1 SWAP2 MSTORE DUP1 DUP5 KECCAK256 DUP1 SLOAD DUP4 ADD SWAP1 SSTORE PUSH1 0xA SWAP3 DUP4 SWAP1 DIV DUP1 DUP6 MSTORE DUP2 DUP6 KECCAK256 DUP1 SLOAD DUP5 ADD SWAP1 SSTORE DUP4 SWAP1 DIV DUP1 DUP6 MSTORE DUP2 DUP6 KECCAK256 DUP1 SLOAD DUP5 ADD SWAP1 SSTORE DUP4 SWAP1 DIV DUP1 DUP6 MSTORE DUP2 DUP6 KECCAK256 DUP1 SLOAD DUP5 ADD SWAP1 SSTORE DUP4 SWAP1 DIV DUP1 DUP6 MSTORE DUP2 DUP6 KECCAK256 DUP1 SLOAD DUP5 ADD SWAP1 SSTORE SWAP3 SWAP1 SWAP3 DIV DUP4 MSTORE SWAP2 KECCAK256 DUP1 SLOAD SWAP1 SWAP2 ADD SWAP1 SSTORE JUMP JUMPDEST DUP1 PUSH2 0xE31 DUP2 PUSH2 0x5408 JUMP JUMPDEST SWAP2 POP POP PUSH2 0xD4D JUMP JUMPDEST POP CALLER PUSH1 0x0 SWAP1 DUP2 MSTORE PUSH1 0x1B PUSH1 0x20 MSTORE PUSH1 0x40 SWAP1 KECCAK256 SLOAD PUSH2 0xE54 SWAP1 DUP5 PUSH2 0x39E7 JUMP JUMPDEST CALLER PUSH1 0x0 SWAP1 DUP2 MSTORE PUSH1 0x1B PUSH1 0x20 MSTORE PUSH1 0x40 DUP2 KECCAK256 SWAP2 SWAP1 SWAP2 SSTORE PUSH2 0xE85 DUP3 PUSH2 0xE7A PUSH4 0x3B9ACA00 PUSH1 0xA PUSH2 0x5457 JUMP JUMPDEST PUSH5 0x174876E800 PUSH2 0x3A06 JUMP JUMPDEST SWAP1 POP PUSH2 0xE94 PUSH2 0x4B9 DUP4 DUP4 PUSH2 0x3A24 JUMP JUMPDEST DUP3 ISZERO PUSH2 0x1001 JUMPI PUSH1 0x20 SLOAD DUP4 GT ISZERO PUSH2 0xEEC JUMPI PUSH1 0x40 MLOAD PUSH3 0x461BCD PUSH1 0xE5 SHL DUP2 MSTORE PUSH1 0x20 PUSH1 0x4 DUP3 ADD MSTORE PUSH1 0x18 PUSH1 0x24 DUP3 ADD MSTORE PUSH32 0x706172746E657220496420646F65736E27742065786973740000000000000000 PUSH1 0x44 DUP3 ADD MSTORE PUSH1 0x64 ADD PUSH2 0xB2E JUMP JUMPDEST PUSH1 0x0 PUSH1 0x18 DUP2 PUSH1 0x20 PUSH2 0xEFE PUSH1 0x1 DUP9 PUSH2 0x5476 JUMP JUMPDEST DUP2 SLOAD DUP2 LT PUSH2 0xF0E JUMPI PUSH2 0xF0E PUSH2 0x53DC JUMP JUMPDEST PUSH1 0x0 SWAP2 DUP3 MSTORE PUSH1 0x20 DUP1 DUP4 KECCAK256 SWAP1 SWAP2 ADD SLOAD PUSH1 0x1 PUSH1 0x1 PUSH1 0xA0 SHL SUB AND DUP4 MSTORE DUP3 ADD SWAP3 SWAP1 SWAP3 MSTORE PUSH1 0x40 ADD SWAP1 KECCAK256 PUSH1 0x2 DUP2 ADD SLOAD SWAP1 SWAP2 POP PUSH1 0xFF AND PUSH2 0xF7D JUMPI PUSH1 0x40 MLOAD PUSH3 0x461BCD PUSH1 0xE5 SHL DUP2 MSTORE PUSH1 0x20 PUSH1 0x4 DUP3 ADD MSTORE PUSH1 0x11 PUSH1 0x24 DUP3 ADD MSTORE PUSH17 0x14185C9D1B995C9CDA1A5C08195B991959 PUSH1 0x7A SHL PUSH1 0x44 DUP3 ADD MSTORE PUSH1 0x64 ADD PUSH2 0xB2E JUMP JUMPDEST PUSH1 0x0 PUSH2 0xF8F DUP4 DUP4 PUSH1 0x0 ADD SLOAD PUSH1 0x64 PUSH2 0x3A06 JUMP JUMPDEST SWAP1 POP PUSH2 0xF9B DUP4 DUP3 PUSH2 0x3A24 JUMP JUMPDEST SWAP3 POP PUSH2 0xFFE CALLER PUSH1 0x20 PUSH2 0xFAE PUSH1 0x1 DUP10 PUSH2 0x5476 JUMP JUMPDEST DUP2 SLOAD DUP2 LT PUSH2 0xFBE JUMPI PUSH2 0xFBE PUSH2 0x53DC JUMP JUMPDEST PUSH1 0x0 SWAP2 DUP3 MSTORE PUSH1 0x20 SWAP1 SWAP2 KECCAK256 ADD SLOAD PUSH1 0x1 PUSH1 0x1 PUSH1 0xA0 SHL SUB PUSH32 0x0 DUP2 AND SWAP3 SWAP2 AND DUP5 PUSH2 0x3A30 JUMP JUMPDEST POP POP JUMPDEST PUSH1 0x3 SLOAD PUSH2 0x103D SWAP1 PUSH1 0x1 PUSH1 0x1 PUSH1 0xA0 SHL SUB PUSH32 0x0 DUP2 AND SWAP2 CALLER SWAP2 AND DUP5 PUSH2 0x3A30 JUMP JUMPDEST PUSH1 0x7 SLOAD PUSH1 0x0 SWAP1 DUP2 MSTORE PUSH1 0x14 PUSH1 0x20 MSTORE PUSH1 0x40 SWAP1 KECCAK256 SLOAD PUSH2 0x1059 SWAP1 DUP6 PUSH2 0x39E7 JUMP JUMPDEST PUSH1 0x7 DUP1 SLOAD PUSH1 0x0 SWAP1 DUP2 MSTORE PUSH1 0x14 PUSH1 0x20 SWAP1 DUP2 MSTORE PUSH1 0x40 DUP1 DUP4 KECCAK256 SWAP5 SWAP1 SWAP5 SSTORE CALLER DUP3 MSTORE PUSH1 0x1A DUP2 MSTORE DUP4 DUP3 KECCAK256 SWAP3 SLOAD DUP3 MSTORE SWAP2 SWAP1 SWAP2 MSTORE KECCAK256 SLOAD PUSH2 0x1090 SWAP1 DUP6 PUSH2 0x39E7 JUMP JUMPDEST CALLER PUSH1 0x0 DUP2 DUP2 MSTORE PUSH1 0x1A PUSH1 0x20 SWAP1 DUP2 MSTORE PUSH1 0x40 DUP1 DUP4 KECCAK256 PUSH1 0x7 DUP1 SLOAD DUP6 MSTORE SWAP1 DUP4 MSTORE SWAP3 DUP2 SWAP1 KECCAK256 SWAP5 SWAP1 SWAP5 SSTORE SWAP1 SLOAD SWAP3 MLOAD DUP8 DUP2 MSTORE SWAP2 SWAP3 SWAP2 PUSH32 0x913D09B391F64143215D9312FD7E8ECAA06001C646789C9D2109DC515BC34FAD SWAP2 ADD PUSH1 0x40 MLOAD DUP1 SWAP2 SUB SWAP1 LOG3 POP POP PUSH1 0x1 PUSH1 0x2 SSTORE POP POP POP JUMP JUMPDEST PUSH1 0x40 MLOAD PUSH4 0x70A08231 PUSH1 0xE0 SHL DUP2 MSTORE CALLER PUSH1 0x4 DUP3 ADD MSTORE PUSH1 0x0 SWAP1 PUSH32 0x0 PUSH1 0x1 PUSH1 0x1 PUSH1 0xA0 SHL SUB AND SWAP1 PUSH4 0x70A08231 SWAP1 PUSH1 0x24 ADD PUSH1 0x20 PUSH1 0x40 MLOAD DUP1 DUP4 SUB DUP2 DUP7 GAS STATICCALL ISZERO DUP1 ISZERO PUSH2 0x115B JUMPI RETURNDATASIZE PUSH1 0x0 DUP1 RETURNDATACOPY RETURNDATASIZE PUSH1 0x0 REVERT JUMPDEST POP POP POP POP PUSH1 0x40 MLOAD RETURNDATASIZE PUSH1 0x1F NOT PUSH1 0x1F DUP3 ADD AND DUP3 ADD DUP1 PUSH1 0x40 MSTORE POP DUP2 ADD SWAP1 PUSH2 0x117F SWAP2 SWAP1 PUSH2 0x5423 JUMP JUMPDEST SWAP1 POP DUP2 DUP2 LT ISZERO PUSH2 0x11DC JUMPI PUSH1 0x40 MLOAD PUSH3 0x461BCD PUSH1 0xE5 SHL DUP2 MSTORE PUSH1 0x20 PUSH1 0x4 DUP3 ADD MSTORE PUSH1 0x22 PUSH1 0x24 DUP3 ADD MSTORE PUSH32 0x496E73756666696369656E742046756E647320746F2053656E6420746F20506F PUSH1 0x44 DUP3 ADD MSTORE PUSH2 0x1BDB PUSH1 0xF2 SHL PUSH1 0x64 DUP3 ADD MSTORE PUSH1 0x84 ADD PUSH2 0xB2E JUMP JUMPDEST PUSH2 0x1211 PUSH1 0x1 PUSH1 0x1 PUSH1 0xA0 SHL SUB PUSH32 0x0 AND CALLER ADDRESS DUP6 PUSH2 0x3A30 JUMP JUMPDEST PUSH1 0x7 SLOAD PUSH1 0x0 SWAP1 DUP2 MSTORE PUSH1 0x14 PUSH1 0x20 MSTORE PUSH1 0x40 SWAP1 KECCAK256 PUSH1 0x3 ADD SLOAD PUSH2 0x1230 SWAP1 DUP4 PUSH2 0x39E7 JUMP JUMPDEST PUSH1 0x14 PUSH1 0x0 PUSH1 0x7 SLOAD DUP2 MSTORE PUSH1 0x20 ADD SWAP1 DUP2 MSTORE PUSH1 0x20 ADD PUSH1 0x0 KECCAK256 PUSH1 0x3 ADD DUP2 SWAP1 SSTORE POP PUSH1 0x7 SLOAD PUSH32 0xFC555FB85F1F1DCF093E5FC8A8E343346BFD726E85D59CCD2BE4846E98A81AB0 DUP4 PUSH1 0x40 MLOAD PUSH2 0x1280 SWAP2 DUP2 MSTORE PUSH1 0x20 ADD SWAP1 JUMP JUMPDEST PUSH1 0x40 MLOAD DUP1 SWAP2 SUB SWAP1 LOG2 POP POP JUMP JUMPDEST PUSH1 0x0 DUP3 DUP2 MSTORE PUSH1 0x14 PUSH1 0x20 MSTORE PUSH1 0x40 DUP2 KECCAK256 PUSH1 0x2 ADD SLOAD PUSH4 0xFFFFFFFF AND DUP1 PUSH2 0x12F1 JUMPI PUSH1 0x40 MLOAD PUSH3 0x461BCD PUSH1 0xE5 SHL DUP2 MSTORE PUSH1 0x20 PUSH1 0x4 DUP3 ADD MSTORE PUSH1 0x19 PUSH1 0x24 DUP3 ADD MSTORE PUSH32 0x57696E6E6572206E6F74207965742064657465726D696E656400000000000000 PUSH1 0x44 DUP3 ADD MSTORE PUSH1 0x64 ADD PUSH2 0xB2E JUMP JUMPDEST PUSH1 0x0 SWAP2 POP PUSH1 0x0 PUSH2 0x1304 DUP5 PUSH3 0xF4240 PUSH2 0x3AA1 JUMP JUMPDEST PUSH4 0xFFFFFFFF AND SWAP1 POP PUSH1 0x0 PUSH2 0x1317 DUP4 PUSH2 0x3AB9 JUMP JUMPDEST SWAP1 POP PUSH1 0x0 PUSH2 0x1324 DUP4 PUSH2 0x3AB9 JUMP JUMPDEST SWAP1 POP PUSH1 0x0 JUMPDEST PUSH1 0x6 DUP2 PUSH1 0xFF AND LT ISZERO PUSH2 0x1398 JUMPI DUP2 DUP2 PUSH1 0xFF AND PUSH1 0x6 DUP2 LT PUSH2 0x134A JUMPI PUSH2 0x134A PUSH2 0x53DC JUMP JUMPDEST PUSH1 0x20 MUL ADD MLOAD DUP4 DUP3 PUSH1 0xFF AND PUSH1 0x6 DUP2 LT PUSH2 0x1364 JUMPI PUSH2 0x1364 PUSH2 0x53DC JUMP JUMPDEST PUSH1 0x20 MUL ADD MLOAD EQ ISZERO PUSH2 0x1381 JUMPI PUSH2 0x137A DUP2 PUSH1 0x1 PUSH2 0x548D JUMP JUMPDEST SWAP6 POP PUSH2 0x1386 JUMP JUMPDEST PUSH2 0x1398 JUMP JUMPDEST DUP1 PUSH2 0x1390 DUP2 PUSH2 0x54B2 JUMP JUMPDEST SWAP2 POP POP PUSH2 0x1329 JUMP JUMPDEST POP POP POP POP POP SWAP3 SWAP2 POP POP JUMP JUMPDEST CALLER PUSH1 0x0 SWAP1 DUP2 MSTORE PUSH1 0x1F PUSH1 0x20 MSTORE PUSH1 0x40 SWAP1 KECCAK256 SLOAD PUSH1 0xFF AND ISZERO ISZERO PUSH1 0x1 EQ DUP1 PUSH2 0x13D0 JUMPI POP PUSH1 0x1 SLOAD PUSH1 0x1 PUSH1 0x1 PUSH1 0xA0 SHL SUB AND CALLER EQ JUMPDEST PUSH2 0x13EC JUMPI PUSH1 0x40 MLOAD PUSH3 0x461BCD PUSH1 0xE5 SHL DUP2 MSTORE PUSH1 0x4 ADD PUSH2 0xB2E SWAP1 PUSH2 0x54D2 JUMP JUMPDEST DUP1 PUSH2 0x1425 JUMPI PUSH1 0x40 MLOAD PUSH3 0x461BCD PUSH1 0xE5 SHL DUP2 MSTORE PUSH1 0x20 PUSH1 0x4 DUP3 ADD MSTORE PUSH1 0x9 PUSH1 0x24 DUP3 ADD MSTORE PUSH9 0x6E6565642074696D65 PUSH1 0xB8 SHL PUSH1 0x44 DUP3 ADD MSTORE PUSH1 0x64 ADD PUSH2 0xB2E JUMP JUMPDEST PUSH1 0x0 JUMPDEST DUP2 DUP2 LT ISZERO PUSH2 0x154F JUMPI PUSH1 0x18 DUP4 DUP4 DUP4 DUP2 DUP2 LT PUSH2 0x1444 JUMPI PUSH2 0x1444 PUSH2 0x53DC JUMP JUMPDEST SWAP1 POP PUSH1 0x20 MUL ADD PUSH1 0x20 DUP2 ADD SWAP1 PUSH2 0x1459 SWAP2 SWAP1 PUSH2 0x5500 JUMP JUMPDEST PUSH1 0xFF AND LT PUSH2 0x1496 JUMPI PUSH1 0x40 MLOAD PUSH3 0x461BCD PUSH1 0xE5 SHL DUP2 MSTORE PUSH1 0x20 PUSH1 0x4 DUP3 ADD MSTORE PUSH1 0xA PUSH1 0x24 DUP3 ADD MSTORE PUSH10 0x77726F6E672074696D65 PUSH1 0xB0 SHL PUSH1 0x44 DUP3 ADD MSTORE PUSH1 0x64 ADD PUSH2 0xB2E JUMP JUMPDEST DUP1 ISZERO PUSH2 0x153D JUMPI DUP3 DUP3 PUSH2 0x14A9 PUSH1 0x1 DUP5 PUSH2 0x5476 JUMP JUMPDEST DUP2 DUP2 LT PUSH2 0x14B8 JUMPI PUSH2 0x14B8 PUSH2 0x53DC JUMP JUMPDEST SWAP1 POP PUSH1 0x20 MUL ADD PUSH1 0x20 DUP2 ADD SWAP1 PUSH2 0x14CD SWAP2 SWAP1 PUSH2 0x5500 JUMP JUMPDEST PUSH1 0xFF AND DUP4 DUP4 DUP4 DUP2 DUP2 LT PUSH2 0x14E2 JUMPI PUSH2 0x14E2 PUSH2 0x53DC JUMP JUMPDEST SWAP1 POP PUSH1 0x20 MUL ADD PUSH1 0x20 DUP2 ADD SWAP1 PUSH2 0x14F7 SWAP2 SWAP1 PUSH2 0x5500 JUMP JUMPDEST PUSH1 0xFF AND GT PUSH2 0x153D JUMPI PUSH1 0x40 MLOAD PUSH3 0x461BCD PUSH1 0xE5 SHL DUP2 MSTORE PUSH1 0x20 PUSH1 0x4 DUP3 ADD MSTORE PUSH1 0x13 PUSH1 0x24 DUP3 ADD MSTORE PUSH19 0x48656C70206F757420736F72742074696D6573 PUSH1 0x68 SHL PUSH1 0x44 DUP3 ADD MSTORE PUSH1 0x64 ADD PUSH2 0xB2E JUMP JUMPDEST DUP1 PUSH2 0x1547 DUP2 PUSH2 0x5408 JUMP JUMPDEST SWAP2 POP POP PUSH2 0x1428 JUMP JUMPDEST POP PUSH2 0x155C PUSH1 0x22 DUP4 DUP4 PUSH2 0x4EAD JUMP JUMPDEST POP POP POP JUMP JUMPDEST CALLER PUSH1 0x0 SWAP1 DUP2 MSTORE PUSH1 0x1C PUSH1 0x20 SWAP1 DUP2 MSTORE PUSH1 0x40 DUP1 DUP4 KECCAK256 SLOAD PUSH1 0x1B SWAP1 SWAP3 MSTORE DUP3 KECCAK256 SLOAD PUSH1 0x60 SWAP3 SWAP2 PUSH2 0x158A SWAP2 SWAP1 PUSH2 0x3A24 JUMP JUMPDEST SWAP1 POP DUP1 PUSH2 0x15E5 JUMPI PUSH1 0x40 DUP1 MLOAD PUSH1 0x0 DUP1 DUP3 MSTORE PUSH1 0x20 DUP3 ADD SWAP1 SWAP3 MSTORE SWAP1 PUSH2 0x15DE JUMP JUMPDEST PUSH2 0x15CB PUSH1 0x40 MLOAD DUP1 PUSH1 0x60 ADD PUSH1 0x40 MSTORE DUP1 PUSH1 0x0 DUP2 MSTORE PUSH1 0x20 ADD PUSH1 0x0 DUP2 MSTORE PUSH1 0x20 ADD PUSH1 0x0 DUP2 MSTORE POP SWAP1 JUMP JUMPDEST DUP2 MSTORE PUSH1 0x20 ADD SWAP1 PUSH1 0x1 SWAP1 SUB SWAP1 DUP2 PUSH2 0x15A7 JUMPI SWAP1 POP JUMPDEST POP SWAP2 POP POP SWAP1 JUMP JUMPDEST PUSH1 0x0 DUP2 PUSH8 0xFFFFFFFFFFFFFFFF DUP2 GT ISZERO PUSH2 0x1600 JUMPI PUSH2 0x1600 PUSH2 0x53C6 JUMP JUMPDEST PUSH1 0x40 MLOAD SWAP1 DUP1 DUP3 MSTORE DUP1 PUSH1 0x20 MUL PUSH1 0x20 ADD DUP3 ADD PUSH1 0x40 MSTORE DUP1 ISZERO PUSH2 0x1655 JUMPI DUP2 PUSH1 0x20 ADD JUMPDEST PUSH2 0x1642 PUSH1 0x40 MLOAD DUP1 PUSH1 0x60 ADD PUSH1 0x40 MSTORE DUP1 PUSH1 0x0 DUP2 MSTORE PUSH1 0x20 ADD PUSH1 0x0 DUP2 MSTORE PUSH1 0x20 ADD PUSH1 0x0 DUP2 MSTORE POP SWAP1 JUMP JUMPDEST DUP2 MSTORE PUSH1 0x20 ADD SWAP1 PUSH1 0x1 SWAP1 SUB SWAP1 DUP2 PUSH2 0x161E JUMPI SWAP1 POP JUMPDEST POP SWAP1 POP PUSH1 0x0 JUMPDEST DUP3 DUP2 LT ISZERO PUSH2 0x170F JUMPI CALLER PUSH1 0x0 SWAP1 DUP2 MSTORE PUSH1 0x19 PUSH1 0x20 MSTORE PUSH1 0x40 DUP2 KECCAK256 DUP2 PUSH2 0x1697 PUSH2 0x1681 DUP6 PUSH1 0x1 PUSH2 0x551B JUMP JUMPDEST CALLER PUSH1 0x0 SWAP1 DUP2 MSTORE PUSH1 0x1C PUSH1 0x20 MSTORE PUSH1 0x40 SWAP1 KECCAK256 SLOAD SWAP1 PUSH2 0x39E7 JUMP JUMPDEST DUP2 MSTORE PUSH1 0x20 ADD SWAP1 DUP2 MSTORE PUSH1 0x20 ADD PUSH1 0x0 KECCAK256 SWAP1 POP PUSH1 0x40 MLOAD DUP1 PUSH1 0x60 ADD PUSH1 0x40 MSTORE DUP1 PUSH2 0x16C2 DUP5 PUSH1 0x1 PUSH2 0x1681 SWAP2 SWAP1 PUSH2 0x551B JUMP JUMPDEST DUP2 MSTORE PUSH1 0x1 DUP4 ADD SLOAD PUSH1 0x20 DUP3 ADD MSTORE DUP3 SLOAD PUSH4 0xFFFFFFFF AND PUSH1 0x40 SWAP1 SWAP2 ADD MSTORE DUP4 MLOAD DUP5 SWAP1 DUP5 SWAP1 DUP2 LT PUSH2 0x16F0 JUMPI PUSH2 0x16F0 PUSH2 0x53DC JUMP JUMPDEST PUSH1 0x20 MUL PUSH1 0x20 ADD ADD DUP2 SWAP1 MSTORE POP POP DUP1 DUP1 PUSH2 0x1707 SWAP1 PUSH2 0x5408 JUMP JUMPDEST SWAP2 POP POP PUSH2 0x165B JUMP JUMPDEST POP SWAP3 SWAP2 POP POP JUMP JUMPDEST CALLER PUSH1 0x0 SWAP1 DUP2 MSTORE PUSH1 0x1F PUSH1 0x20 MSTORE PUSH1 0x40 SWAP1 KECCAK256 SLOAD PUSH1 0xFF AND ISZERO ISZERO PUSH1 0x1 EQ DUP1 PUSH2 0x1743 JUMPI POP PUSH1 0x1 SLOAD PUSH1 0x1 PUSH1 0x1 PUSH1 0xA0 SHL SUB AND CALLER EQ JUMPDEST PUSH2 0x175F JUMPI PUSH1 0x40 MLOAD PUSH3 0x461BCD PUSH1 0xE5 SHL DUP2 MSTORE PUSH1 0x4 ADD PUSH2 0xB2E SWAP1 PUSH2 0x54D2 JUMP JUMPDEST PUSH1 0x1 PUSH1 0x1 PUSH1 0xA0 SHL SUB DUP2 AND PUSH1 0x0 SWAP1 DUP2 MSTORE PUSH1 0x1F PUSH1 0x20 MSTORE PUSH1 0x40 SWAP1 KECCAK256 SLOAD PUSH1 0xFF AND DUP1 ISZERO PUSH2 0x17A6 JUMPI PUSH1 0x1 PUSH1 0x1 PUSH1 0xA0 SHL SUB DUP3 AND PUSH1 0x0 SWAP1 DUP2 MSTORE PUSH1 0x1F PUSH1 0x20 MSTORE PUSH1 0x40 SWAP1 KECCAK256 DUP1 SLOAD PUSH1 0xFF NOT AND SWAP1 SSTORE PUSH2 0x17CA JUMP JUMPDEST PUSH1 0x1 PUSH1 0x1 PUSH1 0xA0 SHL SUB DUP3 AND PUSH1 0x0 SWAP1 DUP2 MSTORE PUSH1 0x1F PUSH1 0x20 MSTORE PUSH1 0x40 SWAP1 KECCAK256 DUP1 SLOAD PUSH1 0xFF NOT AND PUSH1 0x1 OR SWAP1 SSTORE JUMPDEST CALLER PUSH1 0x0 SWAP1 DUP2 MSTORE PUSH1 0x1F PUSH1 0x20 MSTORE PUSH1 0x40 SWAP1 DUP2 SWAP1 KECCAK256 SLOAD SWAP1 MLOAD PUSH1 0x1 PUSH1 0x1 PUSH1 0xA0 SHL SUB DUP5 AND SWAP2 PUSH32 0x193DE8D500B5CB7B720089B258A39E9C1D0B840019A73AE7C51C3F9101732B02 SWAP2 PUSH2 0x1280 SWAP2 PUSH1 0xFF AND ISZERO ISZERO DUP2 MSTORE PUSH1 0x20 ADD SWAP1 JUMP JUMPDEST CALLER PUSH1 0x0 SWAP1 DUP2 MSTORE PUSH1 0x1F PUSH1 0x20 MSTORE PUSH1 0x40 SWAP1 KECCAK256 SLOAD PUSH1 0xFF AND ISZERO ISZERO PUSH1 0x1 EQ DUP1 PUSH2 0x1849 JUMPI POP PUSH1 0x1 SLOAD PUSH1 0x1 PUSH1 0x1 PUSH1 0xA0 SHL SUB AND CALLER EQ JUMPDEST PUSH2 0x1865 JUMPI PUSH1 0x40 MLOAD PUSH3 0x461BCD PUSH1 0xE5 SHL DUP2 MSTORE PUSH1 0x4 ADD PUSH2 0xB2E SWAP1 PUSH2 0x54D2 JUMP JUMPDEST PUSH1 0x7 SLOAD ISZERO PUSH2 0x18A8 JUMPI PUSH1 0x40 MLOAD PUSH3 0x461BCD PUSH1 0xE5 SHL DUP2 MSTORE PUSH1 0x20 PUSH1 0x4 DUP3 ADD MSTORE PUSH1 0x10 PUSH1 0x24 DUP3 ADD MSTORE PUSH16 0x466972737420526F756E64206F6E6C79 PUSH1 0x80 SHL PUSH1 0x44 DUP3 ADD MSTORE PUSH1 0x64 ADD PUSH2 0xB2E JUMP JUMPDEST PUSH2 0x18B0 PUSH2 0x3B25 JUMP JUMPDEST PUSH2 0x18B8 PUSH2 0x3BE7 JUMP JUMPDEST PUSH1 0x14 PUSH1 0x20 DUP2 DUP2 MSTORE PUSH32 0x4F26C3876AA9F4B92579780BEEA1161A61F87EBF1EC6EE865B299E447ECBA99F SLOAD PUSH1 0x7 DUP1 SLOAD PUSH1 0x0 SWAP1 DUP2 MSTORE PUSH1 0x40 DUP1 DUP3 KECCAK256 PUSH1 0x3 ADD SWAP4 SWAP1 SWAP4 SSTORE PUSH1 0x8 SLOAD DUP3 SLOAD DUP3 MSTORE DUP4 DUP3 KECCAK256 PUSH1 0x4 ADD SSTORE DUP3 MLOAD PUSH1 0xE0 DUP2 ADD DUP5 MSTORE PUSH1 0x11 SLOAD DUP2 MSTORE PUSH1 0x10 SLOAD DUP2 DUP7 ADD MSTORE PUSH1 0xF SLOAD DUP2 DUP6 ADD MSTORE PUSH1 0xE SLOAD PUSH1 0x60 DUP3 ADD MSTORE PUSH1 0xD SLOAD PUSH1 0x80 DUP3 ADD MSTORE PUSH1 0xC SLOAD PUSH1 0xA0 DUP3 ADD MSTORE PUSH1 0xB SLOAD PUSH1 0xC0 DUP3 ADD MSTORE DUP3 SLOAD DUP3 MSTORE SWAP5 SWAP1 SWAP4 MSTORE SWAP2 KECCAK256 PUSH2 0x1958 SWAP3 PUSH1 0x5 SWAP1 SWAP2 ADD SWAP2 PUSH2 0x4F56 JUMP JUMPDEST POP PUSH1 0x9 SLOAD PUSH1 0x7 SLOAD PUSH1 0x0 SWAP1 DUP2 MSTORE PUSH1 0x14 PUSH1 0x20 DUP2 SWAP1 MSTORE PUSH1 0x40 SWAP1 SWAP2 KECCAK256 ADD SSTORE PUSH1 0x6 DUP1 SLOAD PUSH2 0xFF00 NOT AND SWAP1 SSTORE JUMP JUMPDEST PUSH1 0x1 SLOAD PUSH1 0x1 PUSH1 0x1 PUSH1 0xA0 SHL SUB AND CALLER EQ PUSH2 0x19A9 JUMPI PUSH1 0x40 MLOAD PUSH3 0x461BCD PUSH1 0xE5 SHL DUP2 MSTORE PUSH1 0x4 ADD PUSH2 0xB2E SWAP1 PUSH2 0x5533 JUMP JUMPDEST PUSH1 0x0 DUP3 DUP3 PUSH1 0x7 DUP2 DUP2 LT PUSH2 0x19BE JUMPI PUSH2 0x19BE PUSH2 0x53DC JUMP JUMPDEST SWAP1 POP PUSH1 0x20 MUL ADD CALLDATALOAD GT DUP1 ISZERO PUSH2 0x19D2 JUMPI POP PUSH1 0x8 DUP2 EQ JUMPDEST PUSH2 0x1A0E JUMPI PUSH1 0x40 MLOAD PUSH3 0x461BCD PUSH1 0xE5 SHL DUP2 MSTORE PUSH1 0x20 PUSH1 0x4 DUP3 ADD MSTORE PUSH1 0xD PUSH1 0x24 DUP3 ADD MSTORE PUSH13 0x57726F6E6720636F6E66696773 PUSH1 0x98 SHL PUSH1 0x44 DUP3 ADD MSTORE PUSH1 0x64 ADD PUSH2 0xB2E JUMP JUMPDEST PUSH2 0x1A3D PUSH3 0x989680 DUP4 DUP4 PUSH1 0x0 DUP2 DUP2 LT PUSH2 0x1A28 JUMPI PUSH2 0x1A28 PUSH2 0x53DC JUMP JUMPDEST SWAP1 POP PUSH1 0x20 MUL ADD CALLDATALOAD PUSH2 0x39FA SWAP1 SWAP2 SWAP1 PUSH4 0xFFFFFFFF AND JUMP JUMPDEST PUSH1 0xB SSTORE PUSH2 0x1A5A PUSH3 0x989680 DUP4 DUP4 PUSH1 0x1 DUP2 DUP2 LT PUSH2 0x1A28 JUMPI PUSH2 0x1A28 PUSH2 0x53DC JUMP JUMPDEST PUSH1 0xC SSTORE PUSH2 0x1A77 PUSH3 0x989680 DUP4 DUP4 PUSH1 0x2 DUP2 DUP2 LT PUSH2 0x1A28 JUMPI PUSH2 0x1A28 PUSH2 0x53DC JUMP JUMPDEST PUSH1 0xD SSTORE PUSH2 0x1A94 PUSH3 0x989680 DUP4 DUP4 PUSH1 0x3 DUP2 DUP2 LT PUSH2 0x1A28 JUMPI PUSH2 0x1A28 PUSH2 0x53DC JUMP JUMPDEST PUSH1 0xE SSTORE PUSH2 0x1AB1 PUSH3 0x989680 DUP4 DUP4 PUSH1 0x4 DUP2 DUP2 LT PUSH2 0x1A28 JUMPI PUSH2 0x1A28 PUSH2 0x53DC JUMP JUMPDEST PUSH1 0xF SSTORE PUSH2 0x1ACE PUSH3 0x989680 DUP4 DUP4 PUSH1 0x5 DUP2 DUP2 LT PUSH2 0x1A28 JUMPI PUSH2 0x1A28 PUSH2 0x53DC JUMP JUMPDEST PUSH1 0x10 SSTORE PUSH2 0x1AEB PUSH3 0x989680 DUP4 DUP4 PUSH1 0x6 DUP2 DUP2 LT PUSH2 0x1A28 JUMPI PUSH2 0x1A28 PUSH2 0x53DC JUMP JUMPDEST PUSH1 0x11 SSTORE PUSH2 0x1B08 PUSH3 0x989680 DUP4 DUP4 PUSH1 0x7 DUP2 DUP2 LT PUSH2 0x1A28 JUMPI PUSH2 0x1A28 PUSH2 0x53DC JUMP JUMPDEST PUSH1 0x12 DUP2 SWAP1 SSTORE POP PUSH5 0x174876E800 PUSH2 0x1B55 PUSH1 0x12 SLOAD PUSH2 0x1B4F PUSH1 0x11 SLOAD PUSH2 0x1B4F PUSH1 0x10 SLOAD PUSH2 0x1B4F PUSH1 0xF SLOAD PUSH2 0x1B4F PUSH1 0xE SLOAD PUSH2 0x1B4F PUSH1 0xD SLOAD PUSH2 0x1B4F PUSH1 0xC SLOAD PUSH1 0xB SLOAD PUSH2 0x39E7 SWAP1 SWAP2 SWAP1 PUSH4 0xFFFFFFFF AND JUMP JUMPDEST SWAP1 PUSH2 0x39E7 JUMP JUMPDEST EQ PUSH2 0x1B99 JUMPI PUSH1 0x40 MLOAD PUSH3 0x461BCD PUSH1 0xE5 SHL DUP2 MSTORE PUSH1 0x20 PUSH1 0x4 DUP3 ADD MSTORE PUSH1 0x14 PUSH1 0x24 DUP3 ADD MSTORE PUSH20 0x4E756D6265727320646F6E27742061646420757 PUSH1 0x64 SHL PUSH1 0x44 DUP3 ADD MSTORE PUSH1 0x64 ADD PUSH2 0xB2E JUMP JUMPDEST CALLER PUSH1 0x1 PUSH1 0x1 PUSH1 0xA0 SHL SUB AND PUSH1 0x0 DUP1 MLOAD PUSH1 0x20 PUSH2 0x580D DUP4 CODECOPY DUP2 MLOAD SWAP2 MSTORE PUSH1 0xB SLOAD PUSH1 0x40 MLOAD PUSH2 0x1BE6 SWAP2 SWAP1 PUSH1 0x40 DUP1 DUP3 MSTORE PUSH1 0x7 SWAP1 DUP3 ADD MSTORE PUSH7 0x1A9858DADC1BDD PUSH1 0xCA SHL PUSH1 0x60 DUP3 ADD MSTORE PUSH1 0x20 DUP2 ADD SWAP2 SWAP1 SWAP2 MSTORE PUSH1 0x80 ADD SWAP1 JUMP JUMPDEST PUSH1 0x40 MLOAD DUP1 SWAP2 SUB SWAP1 LOG2 CALLER PUSH1 0x1 PUSH1 0x1 PUSH1 0xA0 SHL SUB AND PUSH1 0x0 DUP1 MLOAD PUSH1 0x20 PUSH2 0x580D DUP4 CODECOPY DUP2 MLOAD SWAP2 MSTORE PUSH1 0xC SLOAD PUSH1 0x40 MLOAD PUSH2 0x1C3A SWAP2 SWAP1 PUSH1 0x40 DUP1 DUP3 MSTORE PUSH1 0x6 SWAP1 DUP3 ADD MSTORE PUSH6 0x6D6174636835 PUSH1 0xD0 SHL PUSH1 0x60 DUP3 ADD MSTORE PUSH1 0x20 DUP2 ADD SWAP2 SWAP1 SWAP2 MSTORE PUSH1 0x80 ADD SWAP1 JUMP JUMPDEST PUSH1 0x40 MLOAD DUP1 SWAP2 SUB SWAP1 LOG2 CALLER PUSH1 0x1 PUSH1 0x1 PUSH1 0xA0 SHL SUB AND PUSH1 0x0 DUP1 MLOAD PUSH1 0x20 PUSH2 0x580D DUP4 CODECOPY DUP2 MLOAD SWAP2 MSTORE PUSH1 0xD SLOAD PUSH1 0x40 MLOAD PUSH2 0x1C8E SWAP2 SWAP1 PUSH1 0x40 DUP1 DUP3 MSTORE PUSH1 0x6 SWAP1 DUP3 ADD MSTORE PUSH6 0x1B585D18DA0D PUSH1 0xD2 SHL PUSH1 0x60 DUP3 ADD MSTORE PUSH1 0x20 DUP2 ADD SWAP2 SWAP1 SWAP2 MSTORE PUSH1 0x80 ADD SWAP1 JUMP JUMPDEST PUSH1 0x40 MLOAD DUP1 SWAP2 SUB SWAP1 LOG2 CALLER PUSH1 0x1 PUSH1 0x1 PUSH1 0xA0 SHL SUB AND PUSH1 0x0 DUP1 MLOAD PUSH1 0x20 PUSH2 0x580D DUP4 CODECOPY DUP2 MLOAD SWAP2 MSTORE PUSH1 0xE SLOAD PUSH1 0x40 MLOAD PUSH2 0x1CE2 SWAP2 SWAP1 PUSH1 0x40 DUP1 DUP3 MSTORE PUSH1 0x6 SWAP1 DUP3 ADD MSTORE PUSH6 0x6D6174636833 PUSH1 0xD0 SHL PUSH1 0x60 DUP3 ADD MSTORE PUSH1 0x20 DUP2 ADD SWAP2 SWAP1 SWAP2 MSTORE PUSH1 0x80 ADD SWAP1 JUMP JUMPDEST PUSH1 0x40 MLOAD DUP1 SWAP2 SUB SWAP1 LOG2 CALLER PUSH1 0x1 PUSH1 0x1 PUSH1 0xA0 SHL SUB AND PUSH1 0x0 DUP1 MLOAD PUSH1 0x20 PUSH2 0x580D DUP4 CODECOPY DUP2 MLOAD SWAP2 MSTORE PUSH1 0xF SLOAD PUSH1 0x40 MLOAD PUSH2 0x1D36 SWAP2 SWAP1 PUSH1 0x40 DUP1 DUP3 MSTORE PUSH1 0x6 SWAP1 DUP3 ADD MSTORE PUSH6 0x36B0BA31B419 PUSH1 0xD1 SHL PUSH1 0x60 DUP3 ADD MSTORE PUSH1 0x20 DUP2 ADD SWAP2 SWAP1 SWAP2 MSTORE PUSH1 0x80 ADD SWAP1 JUMP JUMPDEST PUSH1 0x40 MLOAD DUP1 SWAP2 SUB SWAP1 LOG2 CALLER PUSH1 0x1 PUSH1 0x1 PUSH1 0xA0 SHL SUB AND PUSH1 0x0 DUP1 MLOAD PUSH1 0x20 PUSH2 0x580D DUP4 CODECOPY DUP2 MLOAD SWAP2 MSTORE PUSH1 0x10 SLOAD PUSH1 0x40 MLOAD PUSH2 0x1D8A SWAP2 SWAP1 PUSH1 0x40 DUP1 DUP3 MSTORE PUSH1 0x6 SWAP1 DUP3 ADD MSTORE PUSH6 0x6D6174636831 PUSH1 0xD0 SHL PUSH1 0x60 DUP3 ADD MSTORE PUSH1 0x20 DUP2 ADD SWAP2 SWAP1 SWAP2 MSTORE PUSH1 0x80 ADD SWAP1 JUMP JUMPDEST PUSH1 0x40 MLOAD DUP1 SWAP2 SUB SWAP1 LOG2 CALLER PUSH1 0x1 PUSH1 0x1 PUSH1 0xA0 SHL SUB AND PUSH1 0x0 DUP1 MLOAD PUSH1 0x20 PUSH2 0x580D DUP4 CODECOPY DUP2 MLOAD SWAP2 MSTORE PUSH1 0x11 SLOAD PUSH1 0x40 MLOAD PUSH2 0x1DDF SWAP2 SWAP1 PUSH1 0x40 DUP1 DUP3 MSTORE PUSH1 0x7 SWAP1 DUP3 ADD MSTORE PUSH7 0xDCDE9AC2E8C6D PUSH1 0xCB SHL PUSH1 0x60 DUP3 ADD MSTORE PUSH1 0x20 DUP2 ADD SWAP2 SWAP1 SWAP2 MSTORE PUSH1 0x80 ADD SWAP1 JUMP JUMPDEST PUSH1 0x40 MLOAD DUP1 SWAP2 SUB SWAP1 LOG2 CALLER PUSH1 0x1 PUSH1 0x1 PUSH1 0xA0 SHL SUB AND PUSH1 0x0 DUP1 MLOAD PUSH1 0x20 PUSH2 0x580D DUP4 CODECOPY DUP2 MLOAD SWAP2 MSTORE PUSH1 0x12 SLOAD PUSH1 0x40 MLOAD PUSH2 0x1280 SWAP2 SWAP1 PUSH1 0x40 DUP1 DUP3 MSTORE PUSH1 0xB SWAP1 DUP3 ADD MSTORE PUSH11 0x189D5C9B94195C98D95B9D PUSH1 0xAA SHL PUSH1 0x60 DUP3 ADD MSTORE PUSH1 0x20 DUP2 ADD SWAP2 SWAP1 SWAP2 MSTORE PUSH1 0x80 ADD SWAP1 JUMP JUMPDEST CALLER PUSH1 0x0 SWAP1 DUP2 MSTORE PUSH1 0x1F PUSH1 0x20 MSTORE PUSH1 0x40 SWAP1 KECCAK256 SLOAD PUSH1 0xFF AND ISZERO ISZERO PUSH1 0x1 EQ DUP1 PUSH2 0x1E65 JUMPI POP PUSH1 0x1 SLOAD PUSH1 0x1 PUSH1 0x1 PUSH1 0xA0 SHL SUB AND CALLER EQ JUMPDEST PUSH2 0x1E81 JUMPI PUSH1 0x40 MLOAD PUSH3 0x461BCD PUSH1 0xE5 SHL DUP2 MSTORE PUSH1 0x4 ADD PUSH2 0xB2E SWAP1 PUSH2 0x54D2 JUMP JUMPDEST PUSH1 0x5A DUP2 PUSH1 0xFF AND GT ISZERO PUSH2 0x1ECD JUMPI PUSH1 0x40 MLOAD PUSH3 0x461BCD PUSH1 0xE5 SHL DUP2 MSTORE PUSH1 0x20 PUSH1 0x4 DUP3 ADD MSTORE PUSH1 0x15 PUSH1 0x24 DUP3 ADD MSTORE PUSH21 0x4E6F206772656564796E6573732C207468616E6B73 PUSH1 0x58 SHL PUSH1 0x44 DUP3 ADD MSTORE PUSH1 0x64 ADD PUSH2 0xB2E JUMP JUMPDEST PUSH1 0x1 PUSH1 0x1 PUSH1 0xA0 SHL SUB DUP3 AND PUSH1 0x0 SWAP1 DUP2 MSTORE PUSH1 0x18 PUSH1 0x20 MSTORE PUSH1 0x40 SWAP1 KECCAK256 PUSH1 0x2 ADD SLOAD PUSH1 0xFF AND PUSH2 0x1F4E JUMPI PUSH1 0x20 DUP1 SLOAD PUSH1 0x1 DUP1 DUP3 ADD DUP4 SSTORE PUSH32 0xC97BFAF2F8EE708C303A06D134F5ECD8389AE0432AF62DC132A24118292866BB SWAP1 SWAP2 ADD DUP1 SLOAD PUSH1 0x1 PUSH1 0x1 PUSH1 0xA0 SHL SUB NOT AND PUSH1 0x1 PUSH1 0x1 PUSH1 0xA0 SHL SUB DUP7 AND SWAP1 DUP2 OR SWAP1 SWAP2 SSTORE DUP3 SLOAD PUSH1 0x0 SWAP2 DUP3 MSTORE PUSH1 0x18 SWAP1 SWAP4 MSTORE PUSH1 0x40 SWAP1 KECCAK256 ADD SSTORE JUMPDEST PUSH1 0x1 PUSH1 0x1 PUSH1 0xA0 SHL SUB DUP3 AND PUSH1 0x0 SWAP1 DUP2 MSTORE PUSH1 0x18 PUSH1 0x20 MSTORE PUSH1 0x40 SWAP1 KECCAK256 PUSH1 0xFF DUP3 AND SWAP1 DUP2 SWAP1 SSTORE ISZERO PUSH2 0x1F9A JUMPI PUSH1 0x1 PUSH1 0x1 PUSH1 0xA0 SHL SUB DUP3 AND PUSH1 0x0 SWAP1 DUP2 MSTORE PUSH1 0x18 PUSH1 0x20 MSTORE PUSH1 0x40 SWAP1 KECCAK256 PUSH1 0x2 ADD DUP1 SLOAD PUSH1 0xFF NOT AND PUSH1 0x1 OR SWAP1 SSTORE JUMPDEST PUSH1 0x40 MLOAD PUSH1 0x1 PUSH1 0x1 PUSH1 0xA0 SHL SUB DUP4 AND SWAP1 PUSH32 0x43D52C7FECA0BEE2D2104411B16386C7BD925BFF71DAEFD2DABCC36D7C867EF5 SWAP1 PUSH1 0x0 SWAP1 LOG2 POP POP JUMP JUMPDEST PUSH1 0x1 PUSH1 0x1 PUSH1 0xA0 SHL SUB DUP2 AND PUSH1 0x0 SWAP1 DUP2 MSTORE PUSH1 0x18 PUSH1 0x20 MSTORE PUSH1 0x40 DUP2 KECCAK256 PUSH1 0x2 DUP2 ADD SLOAD PUSH1 0xFF AND PUSH2 0x202E JUMPI PUSH1 0x40 MLOAD PUSH3 0x461BCD PUSH1 0xE5 SHL DUP2 MSTORE PUSH1 0x20 PUSH1 0x4 DUP3 ADD MSTORE PUSH1 0xD PUSH1 0x24 DUP3 ADD MSTORE PUSH13 0x2737BA1030903830B93A3732B9 PUSH1 0x99 SHL PUSH1 0x44 DUP3 ADD MSTORE PUSH1 0x64 ADD PUSH2 0xB2E JUMP JUMPDEST PUSH1 0x1 ADD SLOAD SWAP3 SWAP2 POP POP JUMP JUMPDEST PUSH1 0x1 SLOAD PUSH1 0x1 PUSH1 0x1 PUSH1 0xA0 SHL SUB AND CALLER EQ PUSH2 0x2062 JUMPI PUSH1 0x40 MLOAD PUSH3 0x461BCD PUSH1 0xE5 SHL DUP2 MSTORE PUSH1 0x4 ADD PUSH2 0xB2E SWAP1 PUSH2 0x5533 JUMP JUMPDEST PUSH2 0x206C PUSH1 0x0 PUSH2 0x3D54 JUMP JUMPDEST JUMP JUMPDEST PUSH1 0x5 SLOAD PUSH1 0x40 MLOAD PUSH4 0x70A08231 PUSH1 0xE0 SHL DUP2 MSTORE ADDRESS PUSH1 0x4 DUP3 ADD MSTORE PUSH32 0x0 PUSH1 0x1 PUSH1 0x1 PUSH1 0xA0 SHL SUB AND SWAP1 PUSH4 0x70A08231 SWAP1 PUSH1 0x24 ADD PUSH1 0x20 PUSH1 0x40 MLOAD DUP1 DUP4 SUB DUP2 DUP7 GAS STATICCALL ISZERO DUP1 ISZERO PUSH2 0x20D5 JUMPI RETURNDATASIZE PUSH1 0x0 DUP1 RETURNDATACOPY RETURNDATASIZE PUSH1 0x0 REVERT JUMPDEST POP POP POP POP PUSH1 0x40 MLOAD RETURNDATASIZE PUSH1 0x1F NOT PUSH1 0x1F DUP3 ADD AND DUP3 ADD DUP1 PUSH1 0x40 MSTORE POP DUP2 ADD SWAP1 PUSH2 0x20F9 SWAP2 SWAP1 PUSH2 0x5423 JUMP JUMPDEST LT ISZERO PUSH2 0x216D JUMPI PUSH1 0x40 MLOAD PUSH3 0x461BCD PUSH1 0xE5 SHL DUP2 MSTORE PUSH1 0x20 PUSH1 0x4 DUP3 ADD MSTORE PUSH1 0x38 PUSH1 0x24 DUP3 ADD MSTORE PUSH32 0x4E6F7420656E6F756768204C494E4B202D20706C6561736520636F6E74616374 PUSH1 0x44 DUP3 ADD MSTORE PUSH32 0x206D6F6420746F2066756E6420746F20636F6E74726163740000000000000000 PUSH1 0x64 DUP3 ADD MSTORE PUSH1 0x84 ADD PUSH2 0xB2E JUMP JUMPDEST PUSH1 0x6 SLOAD PUSH1 0xFF AND ISZERO ISZERO PUSH1 0x1 EQ PUSH2 0x21B4 JUMPI PUSH1 0x40 MLOAD PUSH3 0x461BCD PUSH1 0xE5 SHL DUP2 MSTORE PUSH1 0x20 PUSH1 0x4 DUP3 ADD MSTORE PUSH1 0xD PUSH1 0x24 DUP3 ADD MSTORE PUSH13 0x2937BAB7321034B99037BB32B9 PUSH1 0x99 SHL PUSH1 0x44 DUP3 ADD MSTORE PUSH1 0x64 ADD PUSH2 0xB2E JUMP JUMPDEST PUSH1 0x7 SLOAD PUSH1 0x0 SWAP1 DUP2 MSTORE PUSH1 0x14 PUSH1 0x20 MSTORE PUSH1 0x40 SWAP1 KECCAK256 PUSH1 0x4 ADD SLOAD TIMESTAMP GT PUSH2 0x2201 JUMPI PUSH1 0x40 MLOAD PUSH3 0x461BCD PUSH1 0xE5 SHL DUP2 MSTORE PUSH1 0x20 PUSH1 0x4 DUP3 ADD MSTORE PUSH1 0x7 PUSH1 0x24 DUP3 ADD MSTORE PUSH7 0x139BDD081E595D PUSH1 0xCA SHL PUSH1 0x44 DUP3 ADD MSTORE PUSH1 0x64 ADD PUSH2 0xB2E JUMP JUMPDEST PUSH2 0x2209 PUSH2 0x3B25 JUMP JUMPDEST PUSH1 0x6 DUP1 SLOAD PUSH1 0xFF NOT AND SWAP1 SSTORE PUSH1 0x8 SLOAD PUSH1 0x7 SLOAD PUSH1 0x14 SWAP1 PUSH1 0x0 SWAP1 PUSH2 0x222A SWAP1 PUSH1 0x1 PUSH2 0x39E7 JUMP JUMPDEST DUP2 MSTORE PUSH1 0x20 DUP1 DUP3 ADD SWAP3 SWAP1 SWAP3 MSTORE PUSH1 0x40 SWAP1 DUP2 ADD PUSH1 0x0 SWAP1 DUP2 KECCAK256 PUSH1 0x4 SWAP1 DUP2 ADD SWAP5 SWAP1 SWAP5 SSTORE DUP2 MLOAD DUP1 DUP4 ADD DUP4 MSTORE CALLER DUP2 MSTORE DUP1 DUP5 ADD DUP3 DUP2 MSTORE PUSH1 0x7 SLOAD DUP4 MSTORE PUSH1 0x1E SWAP1 SWAP5 MSTORE SWAP2 DUP2 KECCAK256 SWAP2 MLOAD DUP3 SLOAD PUSH1 0x1 PUSH1 0x1 PUSH1 0xA0 SHL SUB NOT AND PUSH1 0x1 PUSH1 0x1 PUSH1 0xA0 SHL SUB SWAP1 SWAP2 AND OR DUP3 SSTORE SWAP2 MLOAD PUSH1 0x1 SWAP1 SWAP2 ADD SSTORE SWAP1 SLOAD PUSH1 0x5 SLOAD PUSH2 0x2298 SWAP2 SWAP1 PUSH2 0x3DA6 JUMP JUMPDEST PUSH1 0x7 SLOAD PUSH1 0x40 DUP1 MLOAD CALLER DUP2 MSTORE PUSH1 0x20 DUP2 ADD DUP5 SWAP1 MSTORE SWAP3 SWAP4 POP SWAP1 SWAP2 PUSH32 0xB7F621A422A46A7FD74F0BEFEA928CCFB9B6F4431C80B4ECC61DA03C86B1F06E SWAP2 ADD JUMPDEST PUSH1 0x40 MLOAD DUP1 SWAP2 SUB SWAP1 LOG2 POP JUMP JUMPDEST CALLER PUSH1 0x0 SWAP1 DUP2 MSTORE PUSH1 0x1F PUSH1 0x20 MSTORE PUSH1 0x40 SWAP1 KECCAK256 SLOAD PUSH1 0xFF AND ISZERO ISZERO PUSH1 0x1 EQ DUP1 PUSH2 0x230A JUMPI POP PUSH1 0x1 SLOAD PUSH1 0x1 PUSH1 0x1 PUSH1 0xA0 SHL SUB AND CALLER EQ JUMPDEST PUSH2 0x2326 JUMPI PUSH1 0x40 MLOAD PUSH3 0x461BCD PUSH1 0xE5 SHL DUP2 MSTORE PUSH1 0x4 ADD PUSH2 0xB2E SWAP1 PUSH2 0x54D2 JUMP JUMPDEST PUSH1 0x0 DUP2 GT PUSH2 0x2368 JUMPI PUSH1 0x40 MLOAD PUSH3 0x461BCD PUSH1 0xE5 SHL DUP2 MSTORE PUSH1 0x20 PUSH1 0x4 DUP3 ADD MSTORE PUSH1 0xF PUSH1 0x24 DUP3 ADD MSTORE PUSH15 0x4E656564206174206C656173742031 PUSH1 0x88 SHL PUSH1 0x44 DUP3 ADD MSTORE PUSH1 0x64 ADD PUSH2 0xB2E JUMP JUMPDEST PUSH1 0x7 SLOAD DUP3 GT PUSH2 0x23AA JUMPI PUSH1 0x40 MLOAD PUSH3 0x461BCD PUSH1 0xE5 SHL DUP2 MSTORE PUSH1 0x20 PUSH1 0x4 DUP3 ADD MSTORE PUSH1 0xE PUSH1 0x24 DUP3 ADD MSTORE PUSH14 0x4E6F207061737420726F756E6473 PUSH1 0x90 SHL PUSH1 0x44 DUP3 ADD MSTORE PUSH1 0x64 ADD PUSH2 0xB2E JUMP JUMPDEST PUSH1 0x1 PUSH1 0x1 PUSH1 0xA0 SHL SUB DUP5 AND ISZERO DUP1 ISZERO SWAP1 PUSH2 0x23D7 JUMPI POP PUSH1 0x0 DUP3 DUP2 MSTORE PUSH1 0x15 PUSH1 0x20 MSTORE PUSH1 0x40 SWAP1 KECCAK256 SLOAD PUSH1 0x1 PUSH1 0x1 PUSH1 0xA0 SHL SUB AND ISZERO JUMPDEST PUSH2 0x2418 JUMPI PUSH1 0x40 MLOAD PUSH3 0x461BCD PUSH1 0xE5 SHL DUP2 MSTORE PUSH1 0x20 PUSH1 0x4 DUP3 ADD MSTORE PUSH1 0x12 PUSH1 0x24 DUP3 ADD MSTORE PUSH18 0x697373756520776974682061646472657373 PUSH1 0x70 SHL PUSH1 0x44 DUP3 ADD MSTORE PUSH1 0x64 ADD PUSH2 0xB2E JUMP JUMPDEST PUSH1 0x1 PUSH1 0x1 PUSH1 0xA0 SHL SUB DUP5 AND PUSH1 0x0 SWAP1 DUP2 MSTORE PUSH1 0x1D PUSH1 0x20 MSTORE PUSH1 0x40 SWAP1 KECCAK256 SLOAD PUSH2 0x2492 JUMPI PUSH1 0x21 DUP1 SLOAD PUSH1 0x1 PUSH1 0x1 PUSH1 0xA0 SHL SUB DUP7 AND PUSH1 0x0 DUP2 DUP2 MSTORE PUSH1 0x1D PUSH1 0x20 MSTORE PUSH1 0x40 DUP2 KECCAK256 DUP4 SWAP1 SSTORE PUSH1 0x1 DUP4 ADD DUP5 SSTORE SWAP3 SWAP1 SWAP3 MSTORE PUSH32 0x3A6357012C1A3AE0A17D304C9920310382D968EBCC4B1771F41C6B304205B570 ADD DUP1 SLOAD PUSH1 0x1 PUSH1 0x1 PUSH1 0xA0 SHL SUB NOT AND SWAP1 SWAP2 OR SWAP1 SSTORE JUMPDEST PUSH1 0x40 MLOAD PUSH4 0x70A08231 PUSH1 0xE0 SHL DUP2 MSTORE CALLER PUSH1 0x4 DUP3 ADD MSTORE DUP5 SWAP1 DUP5 SWAP1 PUSH1 0x1 PUSH1 0x1 PUSH1 0xA0 SHL SUB DUP4 AND SWAP1 PUSH4 0x70A08231 SWAP1 PUSH1 0x24 ADD PUSH1 0x20 PUSH1 0x40 MLOAD DUP1 DUP4 SUB DUP2 DUP7 GAS STATICCALL ISZERO DUP1 ISZERO PUSH2 0x24DA JUMPI RETURNDATASIZE PUSH1 0x0 DUP1 RETURNDATACOPY RETURNDATASIZE PUSH1 0x0 REVERT JUMPDEST POP POP POP POP PUSH1 0x40 MLOAD RETURNDATASIZE PUSH1 0x1F NOT PUSH1 0x1F DUP3 ADD AND DUP3 ADD DUP1 PUSH1 0x40 MSTORE POP DUP2 ADD SWAP1 PUSH2 0x24FE SWAP2 SWAP1 PUSH2 0x5423 JUMP JUMPDEST LT ISZERO PUSH2 0x253F JUMPI PUSH1 0x40 MLOAD PUSH3 0x461BCD PUSH1 0xE5 SHL DUP2 MSTORE PUSH1 0x20 PUSH1 0x4 DUP3 ADD MSTORE PUSH1 0x10 PUSH1 0x24 DUP3 ADD MSTORE PUSH16 0x119D5B991CC8185C99481B9959591959 PUSH1 0x82 SHL PUSH1 0x44 DUP3 ADD MSTORE PUSH1 0x64 ADD PUSH2 0xB2E JUMP JUMPDEST PUSH1 0x0 PUSH2 0x254B DUP6 DUP5 PUSH2 0x3F1D JUMP JUMPDEST SWAP1 POP PUSH1 0x0 PUSH2 0x2559 DUP3 DUP6 PUSH2 0x39FA JUMP JUMPDEST SWAP1 POP DUP5 JUMPDEST PUSH2 0x2567 DUP7 DUP7 PUSH2 0x39E7 JUMP JUMPDEST DUP2 LT ISZERO PUSH2 0x263E JUMPI PUSH1 0x0 DUP2 DUP2 MSTORE PUSH1 0x15 PUSH1 0x20 MSTORE PUSH1 0x40 SWAP1 KECCAK256 SLOAD PUSH1 0x1 PUSH1 0x1 PUSH1 0xA0 SHL SUB AND ISZERO PUSH2 0x25C7 JUMPI PUSH1 0x40 MLOAD PUSH3 0x461BCD PUSH1 0xE5 SHL DUP2 MSTORE PUSH1 0x20 PUSH1 0x4 DUP3 ADD MSTORE PUSH1 0x11 PUSH1 0x24 DUP3 ADD MSTORE PUSH17 0x416C72656164792068617320626F6E7573 PUSH1 0x78 SHL PUSH1 0x44 DUP3 ADD MSTORE PUSH1 0x64 ADD PUSH2 0xB2E JUMP JUMPDEST PUSH1 0x40 DUP1 MLOAD PUSH1 0x80 DUP2 ADD DUP3 MSTORE PUSH1 0x1 PUSH1 0x1 PUSH1 0xA0 SHL SUB DUP11 DUP2 AND DUP3 MSTORE PUSH1 0x20 DUP1 DUP4 ADD DUP8 DUP2 MSTORE PUSH1 0x0 DUP5 DUP7 ADD DUP2 DUP2 MSTORE PUSH1 0x60 DUP7 ADD DUP3 DUP2 MSTORE DUP9 DUP4 MSTORE PUSH1 0x15 SWAP1 SWAP5 MSTORE SWAP6 SWAP1 KECCAK256 SWAP4 MLOAD DUP5 SLOAD PUSH1 0x1 PUSH1 0x1 PUSH1 0xA0 SHL SUB NOT AND SWAP4 AND SWAP3 SWAP1 SWAP3 OR DUP4 SSTORE SWAP1 MLOAD PUSH1 0x1 DUP4 ADD SSTORE SWAP2 MLOAD PUSH1 0x2 DUP3 ADD SSTORE SWAP1 MLOAD PUSH1 0x3 SWAP1 SWAP2 ADD SSTORE DUP1 PUSH2 0x2636 DUP2 PUSH2 0x5408 JUMP JUMPDEST SWAP2 POP POP PUSH2 0x255D JUMP JUMPDEST POP PUSH2 0x2654 PUSH1 0x1 PUSH1 0x1 PUSH1 0xA0 SHL SUB DUP5 AND CALLER ADDRESS DUP5 PUSH2 0x3A30 JUMP JUMPDEST PUSH1 0x40 DUP1 MLOAD DUP8 DUP2 MSTORE PUSH1 0x20 DUP2 ADD DUP8 SWAP1 MSTORE SWAP1 DUP2 ADD DUP6 SWAP1 MSTORE PUSH1 0x1 PUSH1 0x1 PUSH1 0xA0 SHL SUB DUP9 AND SWAP1 PUSH32 0xE2E5CB7D342324ABB20DA47B2770415B38CF6ADB803B4AAD4AF65B8F526E6E1A SWAP1 PUSH1 0x60 ADD PUSH1 0x40 MLOAD DUP1 SWAP2 SUB SWAP1 LOG2 POP POP POP POP POP POP POP JUMP JUMPDEST PUSH1 0x1 SLOAD PUSH1 0x1 PUSH1 0x1 PUSH1 0xA0 SHL SUB AND CALLER EQ PUSH2 0x26D3 JUMPI PUSH1 0x40 MLOAD PUSH3 0x461BCD PUSH1 0xE5 SHL DUP2 MSTORE PUSH1 0x4 ADD PUSH2 0xB2E SWAP1 PUSH2 0x5533 JUMP JUMPDEST PUSH1 0x6 DUP1 SLOAD PUSH1 0xFF PUSH2 0x100 DUP1 DUP4 DIV DUP3 AND ISZERO MUL PUSH2 0xFF00 NOT DUP4 AND DUP2 OR SWAP1 SWAP4 SSTORE SWAP2 DUP3 AND SWAP2 AND OR ISZERO DUP1 ISZERO PUSH2 0x2709 JUMPI POP PUSH1 0x6 SLOAD PUSH2 0x100 SWAP1 DIV PUSH1 0xFF AND ISZERO JUMPDEST ISZERO PUSH2 0x2716 JUMPI PUSH2 0x2716 PUSH2 0x3BE7 JUMP JUMPDEST PUSH1 0x6 SLOAD PUSH32 0xD5A0DBA7395A48387B3738F86B7958FEB691D5F5DB50749C87D270BA92DDADC SWAP1 PUSH2 0x100 SWAP1 DIV PUSH1 0xFF AND PUSH2 0x274E JUMPI PUSH1 0x0 PUSH2 0x2751 JUMP JUMPDEST PUSH1 0x1 JUMPDEST PUSH1 0x40 DUP1 MLOAD PUSH1 0xFF SWAP1 SWAP3 AND DUP3 MSTORE PUSH1 0x20 DUP3 ADD DUP2 SWAP1 MSTORE PUSH1 0x14 SWAP1 DUP3 ADD MSTORE PUSH20 0x14185D5CD94814DD185D1D5CC810DA185B99D959 PUSH1 0x62 SHL PUSH1 0x60 DUP3 ADD MSTORE PUSH1 0x80 ADD PUSH1 0x40 MLOAD DUP1 SWAP2 SUB SWAP1 LOG1 JUMP JUMPDEST PUSH1 0x1 SLOAD PUSH1 0x1 PUSH1 0x1 PUSH1 0xA0 SHL SUB AND CALLER EQ PUSH2 0x27BD JUMPI PUSH1 0x40 MLOAD PUSH3 0x461BCD PUSH1 0xE5 SHL DUP2 MSTORE PUSH1 0x4 ADD PUSH2 0xB2E SWAP1 PUSH2 0x5533 JUMP JUMPDEST PUSH9 0x56BC75E2D63100000 DUP2 LT DUP1 ISZERO PUSH2 0x27D5 JUMPI POP PUSH1 0x1 DUP2 GT JUMPDEST PUSH2 0x280F JUMPI PUSH1 0x40 MLOAD PUSH3 0x461BCD PUSH1 0xE5 SHL DUP2 MSTORE PUSH1 0x20 PUSH1 0x4 DUP3 ADD MSTORE PUSH1 0xB PUSH1 0x24 DUP3 ADD MSTORE PUSH11 0xCAF0C6CACAC8E6409A82B PUSH1 0xAB SHL PUSH1 0x44 DUP3 ADD MSTORE PUSH1 0x64 ADD PUSH2 0xB2E JUMP JUMPDEST PUSH1 0x9 DUP2 SWAP1 SSTORE PUSH1 0x40 DUP1 MLOAD TIMESTAMP DUP2 MSTORE PUSH1 0x20 DUP2 ADD DUP4 SWAP1 MSTORE PUSH32 0xA6E5021EBAD2C0FFE267590730E51B948AAABAE022611D3933A89CB314A5F1C2 SWAP2 ADD PUSH1 0x40 MLOAD DUP1 SWAP2 SUB SWAP1 LOG1 POP JUMP JUMPDEST CALLER PUSH1 0x1 PUSH1 0x1 PUSH1 0xA0 SHL SUB PUSH32 0x0 AND EQ PUSH2 0x28C8 JUMPI PUSH1 0x40 MLOAD PUSH3 0x461BCD PUSH1 0xE5 SHL DUP2 MSTORE PUSH1 0x20 PUSH1 0x4 DUP3 ADD MSTORE PUSH1 0x1F PUSH1 0x24 DUP3 ADD MSTORE PUSH32 0x4F6E6C7920565246436F6F7264696E61746F722063616E2066756C66696C6C00 PUSH1 0x44 DUP3 ADD MSTORE PUSH1 0x64 ADD PUSH2 0xB2E JUMP JUMPDEST PUSH2 0x28D2 DUP3 DUP3 PUSH2 0x3F29 JUMP JUMPDEST POP POP JUMP JUMPDEST CALLER PUSH1 0x0 SWAP1 DUP2 MSTORE PUSH1 0x1F PUSH1 0x20 MSTORE PUSH1 0x40 SWAP1 KECCAK256 SLOAD PUSH1 0xFF AND ISZERO ISZERO PUSH1 0x1 EQ DUP1 PUSH2 0x2903 JUMPI POP PUSH1 0x1 SLOAD PUSH1 0x1 PUSH1 0x1 PUSH1 0xA0 SHL SUB AND CALLER EQ JUMPDEST PUSH2 0x291F JUMPI PUSH1 0x40 MLOAD PUSH3 0x461BCD PUSH1 0xE5 SHL DUP2 MSTORE PUSH1 0x4 ADD PUSH2 0xB2E SWAP1 PUSH2 0x54D2 JUMP JUMPDEST PUSH1 0x1 PUSH1 0x1 PUSH1 0xA0 SHL SUB DUP3 AND PUSH1 0x0 SWAP1 DUP2 MSTORE PUSH1 0x17 PUSH1 0x20 MSTORE PUSH1 0x40 DUP2 KECCAK256 DUP1 SLOAD DUP4 SWAP3 SWAP1 PUSH2 0x2947 SWAP1 DUP5 SWAP1 PUSH2 0x551B JUMP JUMPDEST SWAP1 SWAP2 SSTORE POP POP PUSH1 0x40 DUP1 MLOAD PUSH1 0x1 PUSH1 0x1 PUSH1 0xA0 SHL SUB DUP5 AND DUP2 MSTORE PUSH1 0x20 DUP2 ADD DUP4 SWAP1 MSTORE PUSH32 0x7F066478479FAA2E851964186AD2982DF0E99CEF716C66915751A318DEEC9241 SWAP2 ADD PUSH1 0x40 MLOAD DUP1 SWAP2 SUB SWAP1 LOG1 POP POP JUMP JUMPDEST PUSH1 0x1 SLOAD PUSH1 0x1 PUSH1 0x1 PUSH1 0xA0 SHL SUB AND CALLER EQ PUSH2 0x29BC JUMPI PUSH1 0x40 MLOAD PUSH3 0x461BCD PUSH1 0xE5 SHL DUP2 MSTORE PUSH1 0x4 ADD PUSH2 0xB2E SWAP1 PUSH2 0x5533 JUMP JUMPDEST PUSH1 0x32 DUP2 GT ISZERO PUSH2 0x29FC JUMPI PUSH1 0x40 MLOAD PUSH3 0x461BCD PUSH1 0xE5 SHL DUP2 MSTORE PUSH1 0x20 PUSH1 0x4 DUP3 ADD MSTORE PUSH1 0xC PUSH1 0x24 DUP3 ADD MSTORE PUSH12 0x4F7574206F662072616E6765 PUSH1 0xA0 SHL PUSH1 0x44 DUP3 ADD MSTORE PUSH1 0x64 ADD PUSH2 0xB2E JUMP JUMPDEST PUSH2 0x2A0A PUSH4 0x3B9ACA00 DUP3 PUSH2 0x5457 JUMP JUMPDEST PUSH1 0xA SSTORE POP JUMP JUMPDEST PUSH1 0x22 DUP2 DUP2 SLOAD DUP2 LT PUSH2 0x2A20 JUMPI PUSH1 0x0 DUP1 REVERT JUMPDEST SWAP1 PUSH1 0x0 MSTORE PUSH1 0x20 PUSH1 0x0 KECCAK256 SWAP1 PUSH1 0x20 SWAP2 DUP3 DUP3 DIV ADD SWAP2 SWAP1 MOD SWAP2 POP SLOAD SWAP1 PUSH2 0x100 EXP SWAP1 DIV PUSH1 0xFF AND DUP2 JUMP JUMPDEST PUSH1 0x6 SLOAD PUSH1 0xFF AND PUSH2 0x2A8C JUMPI PUSH1 0x40 MLOAD PUSH3 0x461BCD PUSH1 0xE5 SHL DUP2 MSTORE PUSH1 0x20 PUSH1 0x4 DUP3 ADD MSTORE PUSH1 0x13 PUSH1 0x24 DUP3 ADD MSTORE PUSH19 0x726F756E64206973206E6F7420616374697665 PUSH1 0x68 SHL PUSH1 0x44 DUP3 ADD MSTORE PUSH1 0x64 ADD PUSH2 0xB2E JUMP JUMPDEST CALLER PUSH1 0x0 SWAP1 DUP2 MSTORE PUSH1 0x17 PUSH1 0x20 MSTORE PUSH1 0x40 SWAP1 KECCAK256 SLOAD DUP2 GT ISZERO PUSH2 0x2AE0 JUMPI PUSH1 0x40 MLOAD PUSH3 0x461BCD PUSH1 0xE5 SHL DUP2 MSTORE PUSH1 0x20 PUSH1 0x4 DUP3 ADD MSTORE PUSH1 0x12 PUSH1 0x24 DUP3 ADD MSTORE PUSH18 0x6E6F7420656E6F756768207469636B657473 PUSH1 0x70 SHL PUSH1 0x44 DUP3 ADD MSTORE PUSH1 0x64 ADD PUSH2 0xB2E JUMP JUMPDEST PUSH1 0x0 JUMPDEST DUP2 DUP2 LT ISZERO PUSH2 0x2B39 JUMPI PUSH2 0x2B01 CALLER DUP5 DUP5 DUP5 DUP2 DUP2 LT PUSH2 0xD6B JUMPI PUSH2 0xD6B PUSH2 0x53DC JUMP JUMPDEST CALLER PUSH1 0x0 SWAP1 DUP2 MSTORE PUSH1 0x17 PUSH1 0x20 MSTORE PUSH1 0x40 DUP2 KECCAK256 DUP1 SLOAD PUSH1 0x1 SWAP3 SWAP1 PUSH2 0x2B21 SWAP1 DUP5 SWAP1 PUSH2 0x5476 JUMP JUMPDEST SWAP1 SWAP2 SSTORE POP DUP2 SWAP1 POP PUSH2 0x2B31 DUP2 PUSH2 0x5408 JUMP JUMPDEST SWAP2 POP POP PUSH2 0x2AE3 JUMP JUMPDEST POP CALLER PUSH1 0x0 SWAP1 DUP2 MSTORE PUSH1 0x1B PUSH1 0x20 MSTORE PUSH1 0x40 SWAP1 KECCAK256 SLOAD PUSH2 0x2B54 SWAP1 DUP3 PUSH2 0x39E7 JUMP JUMPDEST CALLER PUSH1 0x0 SWAP1 DUP2 MSTORE PUSH1 0x1B PUSH1 0x20 MSTORE PUSH1 0x40 SWAP1 KECCAK256 SSTORE POP POP JUMP JUMPDEST PUSH2 0x2B70 PUSH2 0x4F84 JUMP JUMPDEST PUSH1 0x0 DUP3 DUP2 MSTORE PUSH1 0x14 PUSH1 0x20 DUP2 DUP2 MSTORE PUSH1 0x40 DUP1 DUP5 KECCAK256 PUSH1 0x5 DUP2 ADD SLOAD DUP7 MSTORE PUSH1 0x6 DUP1 DUP3 ADD SLOAD DUP8 DUP6 ADD MSTORE PUSH1 0x7 DUP3 ADD SLOAD SWAP3 DUP8 ADD SWAP3 SWAP1 SWAP3 MSTORE PUSH1 0x8 DUP2 ADD SLOAD PUSH1 0x60 DUP8 ADD MSTORE PUSH1 0x9 DUP2 ADD SLOAD PUSH1 0x80 DUP8 ADD MSTORE PUSH1 0xA DUP2 ADD SLOAD PUSH1 0xA0 DUP8 ADD MSTORE SWAP4 DUP7 SWAP1 MSTORE SWAP2 SWAP1 MSTORE PUSH1 0xB SWAP1 SWAP2 ADD SLOAD SWAP1 DUP3 SWAP1 JUMPDEST PUSH1 0x20 MUL ADD MSTORE SWAP2 SWAP1 POP JUMP JUMPDEST PUSH1 0x1 SLOAD PUSH1 0x1 PUSH1 0x1 PUSH1 0xA0 SHL SUB AND CALLER EQ PUSH2 0x2C01 JUMPI PUSH1 0x40 MLOAD PUSH3 0x461BCD PUSH1 0xE5 SHL DUP2 MSTORE PUSH1 0x4 ADD PUSH2 0xB2E SWAP1 PUSH2 0x5533 JUMP JUMPDEST PUSH1 0x6 SLOAD PUSH2 0x100 SWAP1 DIV PUSH1 0xFF AND PUSH2 0x2C45 JUMPI PUSH1 0x40 MLOAD PUSH3 0x461BCD PUSH1 0xE5 SHL DUP2 MSTORE PUSH1 0x20 PUSH1 0x4 DUP3 ADD MSTORE PUSH1 0xA PUSH1 0x24 DUP3 ADD MSTORE PUSH10 0x1B9BDD081C185D5CD959 PUSH1 0xB2 SHL PUSH1 0x44 DUP3 ADD MSTORE PUSH1 0x64 ADD PUSH2 0xB2E JUMP JUMPDEST PUSH1 0x8 SLOAD PUSH2 0x2C55 SWAP1 PUSH3 0x28206F PUSH2 0x39E7 JUMP JUMPDEST TIMESTAMP GT PUSH2 0x2C96 JUMPI PUSH1 0x40 MLOAD PUSH3 0x461BCD PUSH1 0xE5 SHL DUP2 MSTORE PUSH1 0x20 PUSH1 0x4 DUP3 ADD MSTORE PUSH1 0x10 PUSH1 0x24 DUP3 ADD MSTORE PUSH16 0x57616974206E6F206163746976697479 PUSH1 0x80 SHL PUSH1 0x44 DUP3 ADD MSTORE PUSH1 0x64 ADD PUSH2 0xB2E JUMP JUMPDEST PUSH1 0x40 MLOAD PUSH4 0x70A08231 PUSH1 0xE0 SHL DUP2 MSTORE ADDRESS PUSH1 0x4 DUP3 ADD MSTORE PUSH2 0x2D55 SWAP1 CALLER SWAP1 PUSH1 0x1 PUSH1 0x1 PUSH1 0xA0 SHL SUB PUSH32 0x0 AND SWAP1 PUSH4 0x70A08231 SWAP1 PUSH1 0x24 ADD PUSH1 0x20 PUSH1 0x40 MLOAD DUP1 DUP4 SUB DUP2 DUP7 GAS STATICCALL ISZERO DUP1 ISZERO PUSH2 0x2D00 JUMPI RETURNDATASIZE PUSH1 0x0 DUP1 RETURNDATACOPY RETURNDATASIZE PUSH1 0x0 REVERT JUMPDEST POP POP POP POP PUSH1 0x40 MLOAD RETURNDATASIZE PUSH1 0x1F NOT PUSH1 0x1F DUP3 ADD AND DUP3 ADD DUP1 PUSH1 0x40 MSTORE POP DUP2 ADD SWAP1 PUSH2 0x2D24 SWAP2 SWAP1 PUSH2 0x5423 JUMP JUMPDEST PUSH1 0x1 PUSH1 0x1 PUSH1 0xA0 SHL SUB PUSH32 0x0 AND SWAP2 SWAP1 PUSH2 0x3FCA JUMP JUMPDEST PUSH1 0x40 MLOAD PUSH4 0x70A08231 PUSH1 0xE0 SHL DUP2 MSTORE ADDRESS PUSH1 0x4 DUP3 ADD MSTORE PUSH2 0x2DFF SWAP1 CALLER SWAP1 PUSH1 0x1 PUSH1 0x1 PUSH1 0xA0 SHL SUB PUSH32 0x0 AND SWAP1 PUSH4 0x70A08231 SWAP1 PUSH1 0x24 ADD PUSH1 0x20 PUSH1 0x40 MLOAD DUP1 DUP4 SUB DUP2 DUP7 GAS STATICCALL ISZERO DUP1 ISZERO PUSH2 0x2DBF JUMPI RETURNDATASIZE PUSH1 0x0 DUP1 RETURNDATACOPY RETURNDATASIZE PUSH1 0x0 REVERT JUMPDEST POP POP POP POP PUSH1 0x40 MLOAD RETURNDATASIZE PUSH1 0x1F NOT PUSH1 0x1F DUP3 ADD AND DUP3 ADD DUP1 PUSH1 0x40 MSTORE POP DUP2 ADD SWAP1 PUSH2 0x2DE3 SWAP2 SWAP1 PUSH2 0x5423 JUMP JUMPDEST PUSH20 0x404460C6A5EDE2D891E8297795264FDE62ADBB75 SWAP2 SWAP1 PUSH2 0x3FCA JUMP JUMPDEST PUSH1 0x1 JUMPDEST PUSH1 0x21 SLOAD DUP2 LT ISZERO PUSH2 0x2EC3 JUMPI PUSH1 0x0 PUSH1 0x21 DUP3 DUP2 SLOAD DUP2 LT PUSH2 0x2E21 JUMPI PUSH2 0x2E21 PUSH2 0x53DC JUMP JUMPDEST PUSH1 0x0 SWAP2 DUP3 MSTORE PUSH1 0x20 SWAP1 SWAP2 KECCAK256 ADD SLOAD PUSH1 0x40 MLOAD PUSH4 0x70A08231 PUSH1 0xE0 SHL DUP2 MSTORE ADDRESS PUSH1 0x4 DUP3 ADD MSTORE PUSH1 0x1 PUSH1 0x1 PUSH1 0xA0 SHL SUB SWAP1 SWAP2 AND SWAP2 POP PUSH2 0x2EB0 SWAP1 CALLER SWAP1 DUP4 SWAP1 PUSH4 0x70A08231 SWAP1 PUSH1 0x24 ADD PUSH1 0x20 PUSH1 0x40 MLOAD DUP1 DUP4 SUB DUP2 DUP7 GAS STATICCALL ISZERO DUP1 ISZERO PUSH2 0x2E7B JUMPI RETURNDATASIZE PUSH1 0x0 DUP1 RETURNDATACOPY RETURNDATASIZE PUSH1 0x0 REVERT JUMPDEST POP POP POP POP PUSH1 0x40 MLOAD RETURNDATASIZE PUSH1 0x1F NOT PUSH1 0x1F DUP3 ADD AND DUP3 ADD DUP1 PUSH1 0x40 MSTORE POP DUP2 ADD SWAP1 PUSH2 0x2E9F SWAP2 SWAP1 PUSH2 0x5423 JUMP JUMPDEST PUSH1 0x1 PUSH1 0x1 PUSH1 0xA0 SHL SUB DUP5 AND SWAP2 SWAP1 PUSH2 0x3FCA JUMP JUMPDEST POP DUP1 PUSH2 0x2EBB DUP2 PUSH2 0x5408 JUMP JUMPDEST SWAP2 POP POP PUSH2 0x2E02 JUMP JUMPDEST POP CALLER SELFDESTRUCT JUMPDEST DUP3 DUP2 EQ PUSH2 0x2F16 JUMPI PUSH1 0x40 MLOAD PUSH3 0x461BCD PUSH1 0xE5 SHL DUP2 MSTORE PUSH1 0x20 PUSH1 0x4 DUP3 ADD MSTORE PUSH1 0x1A PUSH1 0x24 DUP3 ADD MSTORE PUSH32 0x417272617973206E65656420746F206265207468652073616D65000000000000 PUSH1 0x44 DUP3 ADD MSTORE PUSH1 0x64 ADD PUSH2 0xB2E JUMP JUMPDEST DUP5 PUSH2 0x2F63 JUMPI PUSH1 0x40 MLOAD PUSH3 0x461BCD PUSH1 0xE5 SHL DUP2 MSTORE PUSH1 0x20 PUSH1 0x4 DUP3 ADD MSTORE PUSH1 0x17 PUSH1 0x24 DUP3 ADD MSTORE PUSH32 0x4E65656420746F20636C61696D20736F6D657468696E67000000000000000000 PUSH1 0x44 DUP3 ADD MSTORE PUSH1 0x64 ADD PUSH2 0xB2E JUMP JUMPDEST CALLER PUSH1 0x0 SWAP1 DUP2 MSTORE PUSH1 0x1C PUSH1 0x20 SWAP1 DUP2 MSTORE PUSH1 0x40 DUP1 DUP4 KECCAK256 SLOAD PUSH1 0x19 DUP4 MSTORE DUP2 DUP5 KECCAK256 DUP2 DUP6 MSTORE SWAP1 SWAP3 MSTORE DUP3 KECCAK256 PUSH1 0x1 ADD SLOAD SWAP1 SWAP2 DUP9 SWAP1 DUP9 SWAP1 DUP2 PUSH2 0x2F9C JUMPI PUSH2 0x2F9C PUSH2 0x53DC JUMP JUMPDEST SWAP1 POP PUSH1 0x60 MUL ADD PUSH1 0x0 ADD CALLDATALOAD GT PUSH2 0x2FF3 JUMPI PUSH1 0x40 MLOAD PUSH3 0x461BCD PUSH1 0xE5 SHL DUP2 MSTORE PUSH1 0x20 PUSH1 0x4 DUP3 ADD MSTORE PUSH1 0x17 PUSH1 0x24 DUP3 ADD MSTORE PUSH32 0x43616E277420636C61696D207061737420726F756E6473000000000000000000 PUSH1 0x44 DUP3 ADD MSTORE PUSH1 0x64 ADD PUSH2 0xB2E JUMP JUMPDEST PUSH1 0x21 SLOAD PUSH1 0x0 SWAP1 DUP2 SWAP1 PUSH8 0xFFFFFFFFFFFFFFFF DUP2 GT ISZERO PUSH2 0x3013 JUMPI PUSH2 0x3013 PUSH2 0x53C6 JUMP JUMPDEST PUSH1 0x40 MLOAD SWAP1 DUP1 DUP3 MSTORE DUP1 PUSH1 0x20 MUL PUSH1 0x20 ADD DUP3 ADD PUSH1 0x40 MSTORE DUP1 ISZERO PUSH2 0x303C JUMPI DUP2 PUSH1 0x20 ADD PUSH1 0x20 DUP3 MUL DUP1 CALLDATASIZE DUP4 CALLDATACOPY ADD SWAP1 POP JUMPDEST POP SWAP1 POP PUSH1 0x0 JUMPDEST DUP9 DUP2 LT ISZERO PUSH2 0x3680 JUMPI PUSH1 0x7 SLOAD DUP11 DUP11 DUP4 DUP2 DUP2 LT PUSH2 0x305F JUMPI PUSH2 0x305F PUSH2 0x53DC JUMP JUMPDEST SWAP1 POP PUSH1 0x60 MUL ADD PUSH1 0x0 ADD CALLDATALOAD LT PUSH2 0x30C0 JUMPI PUSH1 0x40 MLOAD PUSH3 0x461BCD PUSH1 0xE5 SHL DUP2 MSTORE PUSH1 0x20 PUSH1 0x4 DUP3 ADD MSTORE PUSH1 0x21 PUSH1 0x24 DUP3 ADD MSTORE PUSH32 0x43616E277420636C61696D2063757272656E7420726F756E64207469636B6574 PUSH1 0x44 DUP3 ADD MSTORE PUSH1 0x73 PUSH1 0xF8 SHL PUSH1 0x64 DUP3 ADD MSTORE PUSH1 0x84 ADD PUSH2 0xB2E JUMP JUMPDEST CALLER PUSH1 0x0 SWAP1 DUP2 MSTORE PUSH1 0x1A PUSH1 0x20 MSTORE PUSH1 0x40 DUP2 KECCAK256 SWAP1 DUP12 DUP12 DUP5 DUP2 DUP2 LT PUSH2 0x30E2 JUMPI PUSH2 0x30E2 PUSH2 0x53DC JUMP JUMPDEST SWAP1 POP PUSH1 0x60 MUL ADD PUSH1 0x0 ADD CALLDATALOAD DUP2 MSTORE PUSH1 0x20 ADD SWAP1 DUP2 MSTORE PUSH1 0x20 ADD PUSH1 0x0 KECCAK256 PUSH1 0x0 ADD SLOAD PUSH2 0x3147 DUP12 DUP12 DUP5 DUP2 DUP2 LT PUSH2 0x3113 JUMPI PUSH2 0x3113 PUSH2 0x53DC JUMP JUMPDEST SWAP1 POP PUSH1 0x60 MUL ADD PUSH1 0x40 ADD CALLDATALOAD DUP13 DUP13 DUP6 DUP2 DUP2 LT PUSH2 0x312F JUMPI PUSH2 0x312F PUSH2 0x53DC JUMP JUMPDEST SWAP1 POP PUSH1 0x60 MUL ADD PUSH1 0x20 ADD CALLDATALOAD PUSH2 0x39E7 SWAP1 SWAP2 SWAP1 PUSH4 0xFFFFFFFF AND JUMP JUMPDEST EQ PUSH2 0x31A8 JUMPI PUSH1 0x40 MLOAD PUSH3 0x461BCD PUSH1 0xE5 SHL DUP2 MSTORE PUSH1 0x20 PUSH1 0x4 DUP3 ADD MSTORE PUSH1 0x2B PUSH1 0x24 DUP3 ADD MSTORE PUSH32 0x4D697373696E67205469636B6574732C20616C6C20726F756E647320636C6169 PUSH1 0x44 DUP3 ADD MSTORE PUSH11 0x6D656420657175616C6C79 PUSH1 0xA8 SHL PUSH1 0x64 DUP3 ADD MSTORE PUSH1 0x84 ADD PUSH2 0xB2E JUMP JUMPDEST DUP7 DUP11 DUP11 DUP4 DUP2 DUP2 LT PUSH2 0x31BB JUMPI PUSH2 0x31BB PUSH2 0x53DC JUMP JUMPDEST SWAP1 POP PUSH1 0x60 MUL ADD PUSH1 0x40 ADD CALLDATALOAD EQ PUSH2 0x3212 JUMPI PUSH1 0x40 MLOAD PUSH3 0x461BCD PUSH1 0xE5 SHL DUP2 MSTORE PUSH1 0x20 PUSH1 0x4 DUP3 ADD MSTORE PUSH1 0x1B PUSH1 0x24 DUP3 ADD MSTORE PUSH32 0x726F756E64206D757374206861766520616C6C207469636B6574730000000000 PUSH1 0x44 DUP3 ADD MSTORE PUSH1 0x64 ADD PUSH2 0xB2E JUMP JUMPDEST PUSH1 0x0 DUP11 DUP11 DUP4 DUP2 DUP2 LT PUSH2 0x3226 JUMPI PUSH2 0x3226 PUSH2 0x53DC JUMP JUMPDEST SWAP1 POP PUSH1 0x60 MUL ADD PUSH1 0x0 ADD CALLDATALOAD SWAP1 POP PUSH1 0x0 DUP12 DUP12 DUP5 DUP2 DUP2 LT PUSH2 0x3246 JUMPI PUSH2 0x3246 PUSH2 0x53DC JUMP JUMPDEST SWAP1 POP PUSH1 0x60 MUL ADD PUSH1 0x40 ADD CALLDATALOAD SWAP1 POP PUSH1 0x0 DUP13 DUP13 DUP6 DUP2 DUP2 LT PUSH2 0x3266 JUMPI PUSH2 0x3266 PUSH2 0x53DC JUMP JUMPDEST PUSH1 0x0 DUP7 DUP2 MSTORE PUSH1 0x14 PUSH1 0x20 SWAP1 DUP2 MSTORE PUSH1 0x40 DUP1 DUP4 KECCAK256 PUSH1 0x15 DUP4 MSTORE SWAP1 DUP4 KECCAK256 PUSH1 0x60 SWAP1 SWAP5 MUL SWAP6 SWAP1 SWAP6 ADD ADD CALLDATALOAD SWAP5 POP SWAP1 SWAP2 POP PUSH2 0x3297 DUP7 PUSH2 0x3FFA JUMP JUMPDEST SWAP1 POP DUP4 ISZERO PUSH2 0x33CC JUMPI PUSH1 0x3 DUP4 ADD SLOAD PUSH2 0x3305 SWAP1 PUSH2 0x32DC SWAP1 PUSH2 0x32B6 DUP5 DUP9 PUSH2 0x39FA JUMP JUMPDEST PUSH1 0xD DUP8 ADD SLOAD DUP8 SLOAD PUSH2 0x32D7 SWAP2 PUSH5 0x174876E800 SWAP2 PUSH2 0x32D1 SWAP2 PUSH2 0x3A24 JUMP JUMPDEST SWAP1 PUSH2 0x39FA JUMP JUMPDEST PUSH2 0x3A06 JUMP JUMPDEST DUP10 PUSH1 0x0 DUP2 MLOAD DUP2 LT PUSH2 0x32EF JUMPI PUSH2 0x32EF PUSH2 0x53DC JUMP JUMPDEST PUSH1 0x20 MUL PUSH1 0x20 ADD ADD MLOAD PUSH2 0x39E7 SWAP1 SWAP2 SWAP1 PUSH4 0xFFFFFFFF AND JUMP JUMPDEST DUP9 PUSH1 0x0 DUP2 MLOAD DUP2 LT PUSH2 0x3318 JUMPI PUSH2 0x3318 PUSH2 0x53DC JUMP JUMPDEST PUSH1 0x20 SWAP1 DUP2 MUL SWAP2 SWAP1 SWAP2 ADD ADD MSTORE DUP2 SLOAD PUSH1 0x1 PUSH1 0x1 PUSH1 0xA0 SHL SUB AND ISZERO PUSH2 0x33CC JUMPI PUSH2 0x3392 PUSH2 0x3365 PUSH2 0x335E PUSH2 0x3357 DUP7 PUSH1 0xD ADD SLOAD DUP8 PUSH1 0x0 ADD SLOAD PUSH2 0x3A24 SWAP1 SWAP2 SWAP1 PUSH4 0xFFFFFFFF AND JUMP JUMPDEST DUP6 DUP6 PUSH2 0x402E JUMP JUMPDEST DUP7 SWAP1 PUSH2 0x39FA JUMP JUMPDEST DUP4 SLOAD PUSH1 0x1 PUSH1 0x1 PUSH1 0xA0 SHL SUB AND PUSH1 0x0 SWAP1 DUP2 MSTORE PUSH1 0x1D PUSH1 0x20 MSTORE PUSH1 0x40 SWAP1 KECCAK256 SLOAD DUP11 MLOAD DUP12 SWAP2 SWAP1 DUP2 LT PUSH2 0x32EF JUMPI PUSH2 0x32EF PUSH2 0x53DC JUMP JUMPDEST DUP3 SLOAD PUSH1 0x1 PUSH1 0x1 PUSH1 0xA0 SHL SUB AND PUSH1 0x0 SWAP1 DUP2 MSTORE PUSH1 0x1D PUSH1 0x20 MSTORE PUSH1 0x40 SWAP1 KECCAK256 SLOAD DUP10 MLOAD DUP11 SWAP2 SWAP1 DUP2 LT PUSH2 0x33BF JUMPI PUSH2 0x33BF PUSH2 0x53DC JUMP JUMPDEST PUSH1 0x20 MUL PUSH1 0x20 ADD ADD DUP2 DUP2 MSTORE POP POP JUMPDEST DUP5 ISZERO PUSH2 0x3657 JUMPI PUSH1 0x0 JUMPDEST DUP6 DUP2 LT ISZERO PUSH2 0x3649 JUMPI PUSH1 0x0 DUP16 DUP16 PUSH2 0x33EB DUP14 DUP6 PUSH2 0x551B JUMP JUMPDEST DUP2 DUP2 LT PUSH2 0x33FA JUMPI PUSH2 0x33FA PUSH2 0x53DC JUMP JUMPDEST SWAP1 POP PUSH1 0x20 MUL ADD CALLDATALOAD SWAP1 POP DUP2 PUSH1 0x0 EQ DUP1 ISZERO PUSH2 0x3411 JUMPI POP DUP11 ISZERO JUMPDEST ISZERO PUSH2 0x345E JUMPI DUP12 DUP2 GT PUSH2 0x345E JUMPI PUSH1 0x40 MLOAD PUSH3 0x461BCD PUSH1 0xE5 SHL DUP2 MSTORE PUSH1 0x20 PUSH1 0x4 DUP3 ADD MSTORE PUSH1 0x16 PUSH1 0x24 DUP3 ADD MSTORE PUSH22 0x151A58DAD95D08185B1C9958591E4818DB185A5B5959 PUSH1 0x52 SHL PUSH1 0x44 DUP3 ADD MSTORE PUSH1 0x64 ADD PUSH2 0xB2E JUMP JUMPDEST PUSH1 0x0 DUP3 GT DUP1 PUSH2 0x346D JUMPI POP PUSH1 0x0 DUP12 GT JUMPDEST ISZERO PUSH2 0x34EE JUMPI DUP16 DUP16 PUSH1 0x1 PUSH2 0x3480 DUP15 DUP7 PUSH2 0x551B JUMP JUMPDEST PUSH2 0x348A SWAP2 SWAP1 PUSH2 0x5476 JUMP JUMPDEST DUP2 DUP2 LT PUSH2 0x3499 JUMPI PUSH2 0x3499 PUSH2 0x53DC JUMP JUMPDEST SWAP1 POP PUSH1 0x20 MUL ADD CALLDATALOAD DUP2 GT PUSH2 0x34EE JUMPI PUSH1 0x40 MLOAD PUSH3 0x461BCD PUSH1 0xE5 SHL DUP2 MSTORE PUSH1 0x20 PUSH1 0x4 DUP3 ADD MSTORE PUSH1 0x18 PUSH1 0x24 DUP3 ADD MSTORE PUSH32 0x736F7274207469636B6574732C20636C61696D206F6E63650000000000000000 PUSH1 0x44 DUP3 ADD MSTORE PUSH1 0x64 ADD PUSH2 0xB2E JUMP JUMPDEST PUSH1 0x0 DUP15 DUP15 PUSH2 0x34FC DUP15 DUP7 PUSH2 0x551B JUMP JUMPDEST DUP2 DUP2 LT PUSH2 0x350B JUMPI PUSH2 0x350B PUSH2 0x53DC JUMP JUMPDEST SWAP1 POP PUSH1 0x20 MUL ADD CALLDATALOAD SWAP1 POP PUSH1 0x0 PUSH2 0x3521 DUP4 DUP4 DUP10 PUSH2 0x4082 JUMP JUMPDEST SWAP1 POP PUSH2 0x353A DUP2 DUP14 PUSH1 0x0 DUP2 MLOAD DUP2 LT PUSH2 0x32EF JUMPI PUSH2 0x32EF PUSH2 0x53DC JUMP JUMPDEST DUP13 PUSH1 0x0 DUP2 MLOAD DUP2 LT PUSH2 0x354D JUMPI PUSH2 0x354D PUSH2 0x53DC JUMP JUMPDEST PUSH1 0x20 SWAP1 DUP2 MUL SWAP2 SWAP1 SWAP2 ADD ADD MSTORE DUP6 SLOAD PUSH1 0x1 PUSH1 0x1 PUSH1 0xA0 SHL SUB AND ISZERO PUSH2 0x3633 JUMPI PUSH1 0x0 DUP11 DUP2 MSTORE PUSH1 0x16 PUSH1 0x20 MSTORE PUSH1 0x40 DUP2 KECCAK256 PUSH2 0x35F9 SWAP2 PUSH2 0x35CC SWAP2 SWAP1 PUSH1 0xE DUP12 ADD PUSH2 0x358E PUSH1 0x1 DUP9 PUSH2 0x5476 JUMP JUMPDEST PUSH1 0x6 DUP2 LT PUSH2 0x359E JUMPI PUSH2 0x359E PUSH2 0x53DC JUMP JUMPDEST ADD SLOAD DUP2 MSTORE PUSH1 0x20 ADD SWAP1 DUP2 MSTORE PUSH1 0x20 ADD PUSH1 0x0 KECCAK256 SLOAD DUP9 DUP11 PUSH1 0x5 ADD DUP7 PUSH1 0x7 DUP2 LT PUSH2 0x35C5 JUMPI PUSH2 0x35C5 PUSH2 0x53DC JUMP JUMPDEST ADD SLOAD PUSH2 0x402E JUMP JUMPDEST DUP8 SLOAD PUSH1 0x1 PUSH1 0x1 PUSH1 0xA0 SHL SUB AND PUSH1 0x0 SWAP1 DUP2 MSTORE PUSH1 0x1D PUSH1 0x20 MSTORE PUSH1 0x40 SWAP1 KECCAK256 SLOAD DUP15 MLOAD DUP16 SWAP2 SWAP1 DUP2 LT PUSH2 0x32EF JUMPI PUSH2 0x32EF PUSH2 0x53DC JUMP JUMPDEST DUP7 SLOAD PUSH1 0x1 PUSH1 0x1 PUSH1 0xA0 SHL SUB AND PUSH1 0x0 SWAP1 DUP2 MSTORE PUSH1 0x1D PUSH1 0x20 MSTORE PUSH1 0x40 SWAP1 KECCAK256 SLOAD DUP14 MLOAD DUP15 SWAP2 SWAP1 DUP2 LT PUSH2 0x3626 JUMPI PUSH2 0x3626 PUSH2 0x53DC JUMP JUMPDEST PUSH1 0x20 MUL PUSH1 0x20 ADD ADD DUP2 DUP2 MSTORE POP POP JUMPDEST POP POP POP DUP1 DUP1 PUSH2 0x3641 SWAP1 PUSH2 0x5408 JUMP JUMPDEST SWAP2 POP POP PUSH2 0x33D5 JUMP JUMPDEST POP PUSH2 0x3654 DUP10 DUP7 PUSH2 0x39E7 JUMP JUMPDEST SWAP9 POP JUMPDEST PUSH2 0x3665 DUP6 PUSH2 0x1B4F DUP13 DUP8 PUSH2 0x39E7 JUMP JUMPDEST SWAP10 POP POP POP POP POP POP POP DUP1 DUP1 PUSH2 0x3678 SWAP1 PUSH2 0x5408 JUMP JUMPDEST SWAP2 POP POP PUSH2 0x3042 JUMP JUMPDEST POP CALLER PUSH1 0x0 SWAP1 DUP2 MSTORE PUSH1 0x1C PUSH1 0x20 MSTORE PUSH1 0x40 DUP2 KECCAK256 DUP5 SWAP1 SSTORE DUP2 MLOAD DUP3 SWAP1 DUP3 SWAP1 PUSH2 0x36A5 JUMPI PUSH2 0x36A5 PUSH2 0x53DC JUMP JUMPDEST PUSH1 0x20 MUL PUSH1 0x20 ADD ADD MLOAD GT ISZERO PUSH2 0x370B JUMPI PUSH2 0x370B CALLER DUP3 PUSH1 0x0 DUP2 MLOAD DUP2 LT PUSH2 0x36CA JUMPI PUSH2 0x36CA PUSH2 0x53DC JUMP JUMPDEST PUSH1 0x20 MUL PUSH1 0x20 ADD ADD MLOAD PUSH32 0x0 PUSH1 0x1 PUSH1 0x1 PUSH1 0xA0 SHL SUB AND PUSH2 0x3FCA SWAP1 SWAP3 SWAP2 SWAP1 PUSH4 0xFFFFFFFF AND JUMP JUMPDEST PUSH1 0x21 SLOAD PUSH1 0x1 LT ISZERO PUSH2 0x3866 JUMPI PUSH1 0x1 JUMPDEST PUSH1 0x21 SLOAD DUP2 LT ISZERO PUSH2 0x3864 JUMPI DUP2 DUP2 DUP2 MLOAD DUP2 LT PUSH2 0x3735 JUMPI PUSH2 0x3735 PUSH2 0x53DC JUMP JUMPDEST PUSH1 0x20 MUL PUSH1 0x20 ADD ADD MLOAD PUSH1 0x0 EQ ISZERO PUSH2 0x374A JUMPI PUSH2 0x3852 JUMP JUMPDEST PUSH1 0x0 PUSH1 0x21 DUP3 DUP2 SLOAD DUP2 LT PUSH2 0x375F JUMPI PUSH2 0x375F PUSH2 0x53DC JUMP JUMPDEST PUSH1 0x0 SWAP2 DUP3 MSTORE PUSH1 0x20 DUP3 KECCAK256 ADD SLOAD PUSH1 0x40 MLOAD PUSH4 0x70A08231 PUSH1 0xE0 SHL DUP2 MSTORE ADDRESS PUSH1 0x4 DUP3 ADD MSTORE PUSH1 0x1 PUSH1 0x1 PUSH1 0xA0 SHL SUB SWAP1 SWAP2 AND SWAP3 POP DUP3 SWAP1 PUSH4 0x70A08231 SWAP1 PUSH1 0x24 ADD PUSH1 0x20 PUSH1 0x40 MLOAD DUP1 DUP4 SUB DUP2 DUP7 GAS STATICCALL ISZERO DUP1 ISZERO PUSH2 0x37B2 JUMPI RETURNDATASIZE PUSH1 0x0 DUP1 RETURNDATACOPY RETURNDATASIZE PUSH1 0x0 REVERT JUMPDEST POP POP POP POP PUSH1 0x40 MLOAD RETURNDATASIZE PUSH1 0x1F NOT PUSH1 0x1F DUP3 ADD AND DUP3 ADD DUP1 PUSH1 0x40 MSTORE POP DUP2 ADD SWAP1 PUSH2 0x37D6 SWAP2 SWAP1 PUSH2 0x5423 JUMP JUMPDEST SWAP1 POP DUP1 ISZERO PUSH2 0x384F JUMPI DUP1 DUP5 DUP5 DUP2 MLOAD DUP2 LT PUSH2 0x37F1 JUMPI PUSH2 0x37F1 PUSH2 0x53DC JUMP JUMPDEST PUSH1 0x20 MUL PUSH1 0x20 ADD ADD MLOAD GT ISZERO PUSH2 0x3818 JUMPI PUSH2 0x3813 PUSH1 0x1 PUSH1 0x1 PUSH1 0xA0 SHL SUB DUP4 AND CALLER DUP4 PUSH2 0x3FCA JUMP JUMPDEST PUSH2 0x384F JUMP JUMPDEST PUSH2 0x384F CALLER DUP6 DUP6 DUP2 MLOAD DUP2 LT PUSH2 0x382E JUMPI PUSH2 0x382E PUSH2 0x53DC JUMP JUMPDEST PUSH1 0x20 MUL PUSH1 0x20 ADD ADD MLOAD DUP5 PUSH1 0x1 PUSH1 0x1 PUSH1 0xA0 SHL SUB AND PUSH2 0x3FCA SWAP1 SWAP3 SWAP2 SWAP1 PUSH4 0xFFFFFFFF AND JUMP JUMPDEST POP POP JUMPDEST DUP1 PUSH2 0x385C DUP2 PUSH2 0x5408 JUMP JUMPDEST SWAP2 POP POP PUSH2 0x3719 JUMP JUMPDEST POP JUMPDEST POP POP POP POP POP POP POP POP POP JUMP JUMPDEST PUSH1 0x1 SLOAD PUSH1 0x1 PUSH1 0x1 PUSH1 0xA0 SHL SUB AND CALLER EQ PUSH2 0x389B JUMPI PUSH1 0x40 MLOAD PUSH3 0x461BCD PUSH1 0xE5 SHL DUP2 MSTORE PUSH1 0x4 ADD PUSH2 0xB2E SWAP1 PUSH2 0x5533 JUMP JUMPDEST PUSH1 0x11 SLOAD PUSH2 0x38AB DUP3 PUSH3 0x989680 PUSH2 0x39FA JUMP JUMPDEST LT PUSH2 0x38ED JUMPI PUSH1 0x40 MLOAD PUSH3 0x461BCD PUSH1 0xE5 SHL DUP2 MSTORE PUSH1 0x20 PUSH1 0x4 DUP3 ADD MSTORE PUSH1 0x12 PUSH1 0x24 DUP3 ADD MSTORE PUSH18 0x125B9D985B1A590819995948185B5BDD5B9D PUSH1 0x72 SHL PUSH1 0x44 DUP3 ADD MSTORE PUSH1 0x64 ADD PUSH2 0xB2E JUMP JUMPDEST PUSH2 0x38FA DUP2 PUSH3 0x989680 PUSH2 0x39FA JUMP JUMPDEST PUSH1 0x13 SSTORE CALLER PUSH1 0x0 DUP1 MLOAD PUSH1 0x20 PUSH2 0x580D DUP4 CODECOPY DUP2 MLOAD SWAP2 MSTORE PUSH2 0x391A DUP4 PUSH3 0x989680 PUSH2 0x39FA JUMP JUMPDEST PUSH1 0x40 MLOAD PUSH2 0x22D2 SWAP2 SWAP1 PUSH1 0x40 DUP1 DUP3 MSTORE PUSH1 0x8 SWAP1 DUP3 ADD MSTORE PUSH8 0x636C61696D466565 PUSH1 0xC0 SHL PUSH1 0x60 DUP3 ADD MSTORE PUSH1 0x20 DUP2 ADD SWAP2 SWAP1 SWAP2 MSTORE PUSH1 0x80 ADD SWAP1 JUMP JUMPDEST PUSH1 0x1 SLOAD PUSH1 0x1 PUSH1 0x1 PUSH1 0xA0 SHL SUB AND CALLER EQ PUSH2 0x3976 JUMPI PUSH1 0x40 MLOAD PUSH3 0x461BCD PUSH1 0xE5 SHL DUP2 MSTORE PUSH1 0x4 ADD PUSH2 0xB2E SWAP1 PUSH2 0x5533 JUMP JUMPDEST PUSH1 0x1 PUSH1 0x1 PUSH1 0xA0 SHL SUB DUP2 AND PUSH2 0x39DB JUMPI PUSH1 0x40 MLOAD PUSH3 0x461BCD PUSH1 0xE5 SHL DUP2 MSTORE PUSH1 0x20 PUSH1 0x4 DUP3 ADD MSTORE PUSH1 0x26 PUSH1 0x24 DUP3 ADD MSTORE PUSH32 0x4F776E61626C653A206E6577206F776E657220697320746865207A65726F2061 PUSH1 0x44 DUP3 ADD MSTORE PUSH6 0x646472657373 PUSH1 0xD0 SHL PUSH1 0x64 DUP3 ADD MSTORE PUSH1 0x84 ADD PUSH2 0xB2E JUMP JUMPDEST PUSH2 0x39E4 DUP2 PUSH2 0x3D54 JUMP JUMPDEST POP JUMP JUMPDEST PUSH1 0x0 PUSH2 0x39F3 DUP3 DUP5 PUSH2 0x551B JUMP JUMPDEST SWAP4 SWAP3 POP POP POP JUMP JUMPDEST PUSH1 0x0 PUSH2 0x39F3 DUP3 DUP5 PUSH2 0x5457 JUMP JUMPDEST PUSH1 0x0 PUSH2 0x3A1C DUP3 PUSH2 0x3A16 DUP7 DUP7 PUSH2 0x39FA JUMP JUMPDEST SWAP1 PUSH2 0x3F1D JUMP JUMPDEST SWAP5 SWAP4 POP POP POP POP JUMP JUMPDEST PUSH1 0x0 PUSH2 0x39F3 DUP3 DUP5 PUSH2 0x5476 JUMP JUMPDEST PUSH1 0x40 MLOAD PUSH1 0x1 PUSH1 0x1 PUSH1 0xA0 SHL SUB DUP1 DUP6 AND PUSH1 0x24 DUP4 ADD MSTORE DUP4 AND PUSH1 0x44 DUP3 ADD MSTORE PUSH1 0x64 DUP2 ADD DUP3 SWAP1 MSTORE PUSH2 0x3A9B SWAP1 DUP6 SWAP1 PUSH4 0x23B872DD PUSH1 0xE0 SHL SWAP1 PUSH1 0x84 ADD JUMPDEST PUSH1 0x40 DUP1 MLOAD PUSH1 0x1F NOT DUP2 DUP5 SUB ADD DUP2 MSTORE SWAP2 SWAP1 MSTORE PUSH1 0x20 DUP2 ADD DUP1 MLOAD PUSH1 0x1 PUSH1 0x1 PUSH1 0xE0 SHL SUB AND PUSH1 0x1 PUSH1 0x1 PUSH1 0xE0 SHL SUB NOT SWAP1 SWAP4 AND SWAP3 SWAP1 SWAP3 OR SWAP1 SWAP2 MSTORE PUSH2 0x428B JUMP JUMPDEST POP POP POP POP JUMP JUMPDEST PUSH1 0x0 DUP1 DUP3 PUSH2 0x3AAF DUP2 DUP7 PUSH2 0x557E JUMP JUMPDEST PUSH2 0x3A1C SWAP2 SWAP1 PUSH2 0x55A1 JUMP JUMPDEST PUSH2 0x3AC1 PUSH2 0x4FA2 JUMP JUMPDEST PUSH2 0x3ACE DUP3 PUSH3 0x186A0 PUSH2 0x3F1D JUMP JUMPDEST DUP2 MSTORE PUSH2 0x3ADC DUP3 PUSH2 0x2710 PUSH2 0x3F1D JUMP JUMPDEST PUSH1 0x20 DUP3 ADD MSTORE PUSH2 0x3AED DUP3 PUSH2 0x3E8 PUSH2 0x3F1D JUMP JUMPDEST PUSH1 0x40 DUP3 ADD MSTORE PUSH2 0x3AFD DUP3 PUSH1 0x64 PUSH2 0x3F1D JUMP JUMPDEST PUSH1 0x60 DUP3 ADD MSTORE PUSH2 0x3B0D DUP3 PUSH1 0xA PUSH2 0x3F1D JUMP JUMPDEST PUSH1 0x80 DUP3 ADD MSTORE PUSH2 0x3B1D DUP3 PUSH1 0x1 PUSH2 0x3F1D JUMP JUMPDEST DUP2 PUSH1 0x5 PUSH2 0x2BCD JUMP JUMPDEST PUSH1 0x8 SLOAD PUSH1 0x23 SLOAD PUSH1 0xFF AND PUSH1 0x1 JUMPDEST TIMESTAMP DUP4 GT PUSH2 0x3BCB JUMPI PUSH1 0x22 SLOAD PUSH2 0x3B46 DUP4 PUSH1 0x1 PUSH2 0x548D JUMP JUMPDEST PUSH1 0xFF AND LT ISZERO PUSH2 0x3B5F JUMPI PUSH2 0x3B5A DUP3 PUSH1 0x1 PUSH2 0x548D JUMP JUMPDEST PUSH2 0x3B62 JUMP JUMPDEST PUSH1 0x0 JUMPDEST SWAP2 POP PUSH2 0x3BB2 TIMESTAMP PUSH1 0x22 DUP5 PUSH1 0xFF AND DUP2 SLOAD DUP2 LT PUSH2 0x3B7E JUMPI PUSH2 0x3B7E PUSH2 0x53DC JUMP JUMPDEST PUSH1 0x0 SWAP2 DUP3 MSTORE PUSH1 0x20 SWAP2 DUP3 SWAP1 KECCAK256 SWAP2 DUP2 DIV SWAP1 SWAP2 ADD SLOAD PUSH1 0xFF PUSH1 0x1F SWAP1 SWAP3 AND PUSH2 0x100 EXP SWAP1 DIV DUP2 AND SWAP1 DUP6 AND ISZERO DUP1 ISZERO SWAP1 PUSH2 0x3BAD JUMPI POP DUP4 JUMPDEST PUSH2 0x435D JUMP JUMPDEST PUSH1 0x22 SLOAD SWAP1 SWAP4 POP PUSH1 0xFF DUP4 AND EQ ISZERO PUSH2 0x3BC6 JUMPI POP PUSH1 0x0 JUMPDEST PUSH2 0x3B31 JUMP JUMPDEST POP PUSH1 0x8 SWAP2 SWAP1 SWAP2 SSTORE PUSH1 0x23 DUP1 SLOAD PUSH1 0xFF NOT AND PUSH1 0xFF SWAP1 SWAP3 AND SWAP2 SWAP1 SWAP2 OR SWAP1 SSTORE JUMP JUMPDEST PUSH1 0x6 SLOAD PUSH1 0xFF AND ISZERO PUSH2 0x3C3A JUMPI PUSH1 0x40 MLOAD PUSH3 0x461BCD PUSH1 0xE5 SHL DUP2 MSTORE PUSH1 0x20 PUSH1 0x4 DUP3 ADD MSTORE PUSH1 0x19 PUSH1 0x24 DUP3 ADD MSTORE PUSH32 0x43757272656E7420526F756E64206973206E6F74206F76657200000000000000 PUSH1 0x44 DUP3 ADD MSTORE PUSH1 0x64 ADD PUSH2 0xB2E JUMP JUMPDEST PUSH1 0x6 SLOAD PUSH2 0x100 SWAP1 DIV PUSH1 0xFF AND ISZERO PUSH2 0x3C86 JUMPI PUSH1 0x40 MLOAD PUSH3 0x461BCD PUSH1 0xE5 SHL DUP2 MSTORE PUSH1 0x20 PUSH1 0x4 DUP3 ADD MSTORE PUSH1 0x11 PUSH1 0x24 DUP3 ADD MSTORE PUSH17 0x131BDD1D195C9E481A5CC81C185D5CD959 PUSH1 0x7A SHL PUSH1 0x44 DUP3 ADD MSTORE PUSH1 0x64 ADD PUSH2 0xB2E JUMP JUMPDEST PUSH1 0x7 DUP1 SLOAD SWAP1 PUSH1 0x0 PUSH2 0x3C96 DUP4 PUSH2 0x5408 JUMP JUMPDEST SWAP1 SWAP2 SSTORE POP POP PUSH1 0x6 DUP1 SLOAD PUSH1 0xFF NOT AND PUSH1 0x1 OR SWAP1 SSTORE PUSH1 0x7 DUP1 SLOAD PUSH1 0x0 SWAP1 DUP2 MSTORE PUSH1 0x14 PUSH1 0x20 SWAP1 DUP2 MSTORE PUSH1 0x40 SWAP2 DUP3 SWAP1 KECCAK256 DUP3 MLOAD PUSH1 0xE0 DUP2 ADD DUP5 MSTORE PUSH1 0x11 SLOAD DUP2 MSTORE PUSH1 0x10 SLOAD SWAP3 DUP2 ADD SWAP3 SWAP1 SWAP3 MSTORE PUSH1 0xF SLOAD SWAP3 DUP3 ADD SWAP3 SWAP1 SWAP3 MSTORE PUSH1 0xE SLOAD PUSH1 0x60 DUP3 ADD MSTORE PUSH1 0xD SLOAD PUSH1 0x80 DUP3 ADD MSTORE PUSH1 0xC SLOAD PUSH1 0xA0 DUP3 ADD MSTORE PUSH1 0xB SLOAD PUSH1 0xC0 DUP3 ADD MSTORE SWAP1 SWAP2 PUSH2 0x3D0F SWAP2 PUSH1 0x5 DUP5 ADD SWAP2 PUSH2 0x4F56 JUMP JUMPDEST POP PUSH1 0x9 SLOAD PUSH1 0x14 DUP3 ADD SSTORE PUSH1 0x7 SLOAD PUSH1 0x40 MLOAD TIMESTAMP DUP2 MSTORE CALLER SWAP2 SWAP1 PUSH32 0x267568971E121F036018B6051AD06CB86EF7193917AD0508E6837AF776D9043C SWAP1 PUSH1 0x20 ADD PUSH1 0x40 MLOAD DUP1 SWAP2 SUB SWAP1 LOG3 POP JUMP JUMPDEST PUSH1 0x1 DUP1 SLOAD PUSH1 0x1 PUSH1 0x1 PUSH1 0xA0 SHL SUB DUP4 DUP2 AND PUSH1 0x1 PUSH1 0x1 PUSH1 0xA0 SHL SUB NOT DUP4 AND DUP2 OR SWAP1 SWAP4 SSTORE PUSH1 0x40 MLOAD SWAP2 AND SWAP2 SWAP1 DUP3 SWAP1 PUSH32 0x8BE0079C531659141344CD1FD0A4F28419497F9722A3DAAFE3B4186F6B6457E0 SWAP1 PUSH1 0x0 SWAP1 LOG3 POP POP JUMP JUMPDEST PUSH1 0x0 PUSH32 0x0 PUSH1 0x1 PUSH1 0x1 PUSH1 0xA0 SHL SUB AND PUSH4 0x4000AEA0 PUSH32 0x0 DUP5 DUP7 PUSH1 0x0 PUSH1 0x40 MLOAD PUSH1 0x20 ADD PUSH2 0x3E16 SWAP3 SWAP2 SWAP1 SWAP2 DUP3 MSTORE PUSH1 0x20 DUP3 ADD MSTORE PUSH1 0x40 ADD SWAP1 JUMP JUMPDEST PUSH1 0x40 MLOAD PUSH1 0x20 DUP2 DUP4 SUB SUB DUP2 MSTORE SWAP1 PUSH1 0x40 MSTORE PUSH1 0x40 MLOAD DUP5 PUSH4 0xFFFFFFFF AND PUSH1 0xE0 SHL DUP2 MSTORE PUSH1 0x4 ADD PUSH2 0x3E43 SWAP4 SWAP3 SWAP2 SWAP1 PUSH2 0x5621 JUMP JUMPDEST PUSH1 0x20 PUSH1 0x40 MLOAD DUP1 DUP4 SUB DUP2 PUSH1 0x0 DUP8 GAS CALL ISZERO DUP1 ISZERO PUSH2 0x3E62 JUMPI RETURNDATASIZE PUSH1 0x0 DUP1 RETURNDATACOPY RETURNDATASIZE PUSH1 0x0 REVERT JUMPDEST POP POP POP POP PUSH1 0x40 MLOAD RETURNDATASIZE PUSH1 0x1F NOT PUSH1 0x1F DUP3 ADD AND DUP3 ADD DUP1 PUSH1 0x40 MSTORE POP DUP2 ADD SWAP1 PUSH2 0x3E86 SWAP2 SWAP1 PUSH2 0x5651 JUMP JUMPDEST POP PUSH1 0x0 DUP4 DUP2 MSTORE PUSH1 0x20 DUP2 DUP2 MSTORE PUSH1 0x40 DUP1 DUP4 KECCAK256 SLOAD DUP2 MLOAD DUP1 DUP5 ADD DUP9 SWAP1 MSTORE DUP1 DUP4 ADD DUP6 SWAP1 MSTORE ADDRESS PUSH1 0x60 DUP3 ADD MSTORE PUSH1 0x80 DUP1 DUP3 ADD DUP4 SWAP1 MSTORE DUP4 MLOAD DUP1 DUP4 SUB SWAP1 SWAP2 ADD DUP2 MSTORE PUSH1 0xA0 SWAP1 SWAP2 ADD SWAP1 SWAP3 MSTORE DUP2 MLOAD SWAP2 DUP4 ADD SWAP2 SWAP1 SWAP2 KECCAK256 DUP7 DUP5 MSTORE SWAP3 SWAP1 SWAP2 MSTORE PUSH2 0x3EE0 SWAP1 PUSH1 0x1 PUSH2 0x551B JUMP JUMPDEST PUSH1 0x0 DUP6 DUP2 MSTORE PUSH1 0x20 DUP2 DUP2 MSTORE PUSH1 0x40 SWAP2 DUP3 SWAP1 KECCAK256 SWAP3 SWAP1 SWAP3 SSTORE DUP1 MLOAD DUP1 DUP4 ADD DUP8 SWAP1 MSTORE DUP1 DUP3 ADD DUP5 SWAP1 MSTORE DUP2 MLOAD DUP1 DUP3 SUB DUP4 ADD DUP2 MSTORE PUSH1 0x60 SWAP1 SWAP2 ADD SWAP1 SWAP2 MSTORE DUP1 MLOAD SWAP2 ADD KECCAK256 PUSH2 0x3A1C JUMP JUMPDEST PUSH1 0x0 PUSH2 0x39F3 DUP3 DUP5 PUSH2 0x5673 JUMP JUMPDEST PUSH1 0x7 SLOAD PUSH1 0x0 SWAP1 DUP2 MSTORE PUSH1 0x14 PUSH1 0x20 MSTORE PUSH1 0x40 SWAP1 KECCAK256 PUSH2 0x3F47 DUP3 PUSH3 0xF4240 PUSH2 0x3AA1 JUMP JUMPDEST PUSH1 0x2 DUP3 ADD DUP1 SLOAD PUSH4 0xFFFFFFFF NOT AND PUSH4 0xFFFFFFFF SWAP3 SWAP1 SWAP3 AND SWAP2 SWAP1 SWAP2 OR SWAP1 SSTORE PUSH2 0x3F6B PUSH2 0x43AA JUMP JUMPDEST PUSH1 0x7 SLOAD PUSH1 0x2 DUP3 ADD SLOAD PUSH1 0x40 DUP1 MLOAD PUSH4 0xFFFFFFFF SWAP1 SWAP3 AND DUP3 MSTORE PUSH1 0x20 DUP3 ADD DUP7 SWAP1 MSTORE PUSH32 0xA9B89969F49E00ECB130CEE5A9BC06C4C758FE74309BAE2ADF69C02883F1A1CB SWAP2 ADD PUSH1 0x40 MLOAD DUP1 SWAP2 SUB SWAP1 LOG2 PUSH1 0x6 SLOAD PUSH2 0x100 SWAP1 DIV PUSH1 0xFF AND PUSH2 0x155C JUMPI PUSH2 0x155C PUSH2 0x3BE7 JUMP JUMPDEST PUSH1 0x40 MLOAD PUSH1 0x1 PUSH1 0x1 PUSH1 0xA0 SHL SUB DUP4 AND PUSH1 0x24 DUP3 ADD MSTORE PUSH1 0x44 DUP2 ADD DUP3 SWAP1 MSTORE PUSH2 0x155C SWAP1 DUP5 SWAP1 PUSH4 0xA9059CBB PUSH1 0xE0 SHL SWAP1 PUSH1 0x64 ADD PUSH2 0x3A64 JUMP JUMPDEST PUSH1 0x0 DUP2 DUP2 MSTORE PUSH1 0x1E PUSH1 0x20 SWAP1 DUP2 MSTORE PUSH1 0x40 DUP1 DUP4 KECCAK256 PUSH1 0x1 ADD SLOAD PUSH1 0x14 SWAP1 SWAP3 MSTORE DUP3 KECCAK256 PUSH2 0x4028 SWAP2 SWAP1 PUSH1 0x5 ADD DUP4 JUMPDEST ADD SLOAD SWAP1 PUSH2 0x3A24 JUMP JUMPDEST SWAP3 SWAP2 POP POP JUMP JUMPDEST PUSH1 0x0 DUP4 PUSH2 0x403D JUMPI POP PUSH1 0x0 PUSH2 0x39F3 JUMP JUMPDEST DUP3 SLOAD PUSH1 0x1 PUSH1 0x1 PUSH1 0xA0 SHL SUB AND ISZERO PUSH2 0x4078 JUMPI DUP2 PUSH2 0x405A JUMPI POP PUSH1 0x0 PUSH2 0x39F3 JUMP JUMPDEST PUSH2 0x4071 DUP5 PUSH2 0x3A16 DUP6 PUSH1 0x1 ADD SLOAD DUP6 DUP8 PUSH1 0x3 ADD SLOAD PUSH2 0x3A06 JUMP JUMPDEST SWAP1 POP PUSH2 0x39F3 JUMP JUMPDEST POP PUSH1 0x0 SWAP4 SWAP3 POP POP POP JUMP JUMPDEST CALLER PUSH1 0x0 SWAP1 DUP2 MSTORE PUSH1 0x19 PUSH1 0x20 SWAP1 DUP2 MSTORE PUSH1 0x40 DUP1 DUP4 KECCAK256 DUP7 DUP5 MSTORE SWAP1 SWAP2 MSTORE DUP2 KECCAK256 SLOAD PUSH4 0xFFFFFFFF AND PUSH2 0x40D9 JUMPI PUSH1 0x40 MLOAD PUSH3 0x461BCD PUSH1 0xE5 SHL DUP2 MSTORE PUSH1 0x20 PUSH1 0x4 DUP3 ADD MSTORE PUSH1 0x7 PUSH1 0x24 DUP3 ADD MSTORE PUSH7 0x21657869737473 PUSH1 0xC8 SHL PUSH1 0x44 DUP3 ADD MSTORE PUSH1 0x64 ADD PUSH2 0xB2E JUMP JUMPDEST PUSH1 0x0 DUP4 GT DUP1 ISZERO PUSH2 0x40E9 JUMPI POP PUSH1 0x7 DUP4 LT JUMPDEST PUSH2 0x4127 JUMPI PUSH1 0x40 MLOAD PUSH3 0x461BCD PUSH1 0xE5 SHL DUP2 MSTORE PUSH1 0x20 PUSH1 0x4 DUP3 ADD MSTORE PUSH1 0xF PUSH1 0x24 DUP3 ADD MSTORE PUSH15 0x6D696E696D756D206D617463682031 PUSH1 0x88 SHL PUSH1 0x44 DUP3 ADD MSTORE PUSH1 0x64 ADD PUSH2 0xB2E JUMP JUMPDEST PUSH1 0x2 DUP3 ADD SLOAD PUSH2 0x413B SWAP1 PUSH4 0xFFFFFFFF AND PUSH2 0x3AB9 JUMP JUMPDEST PUSH2 0x4146 PUSH1 0x1 DUP6 PUSH2 0x5476 JUMP JUMPDEST PUSH1 0x6 DUP2 LT PUSH2 0x4156 JUMPI PUSH2 0x4156 PUSH2 0x53DC JUMP JUMPDEST PUSH1 0x20 SWAP1 DUP2 MUL SWAP2 SWAP1 SWAP2 ADD MLOAD CALLER PUSH1 0x0 SWAP1 DUP2 MSTORE PUSH1 0x19 DUP4 MSTORE PUSH1 0x40 DUP1 DUP3 KECCAK256 DUP9 DUP4 MSTORE SWAP1 SWAP4 MSTORE SWAP2 SWAP1 SWAP2 KECCAK256 SLOAD PUSH2 0x4189 SWAP1 PUSH4 0xFFFFFFFF AND PUSH2 0x3AB9 JUMP JUMPDEST PUSH2 0x4194 PUSH1 0x1 DUP7 PUSH2 0x5476 JUMP JUMPDEST PUSH1 0x6 DUP2 LT PUSH2 0x41A4 JUMPI PUSH2 0x41A4 PUSH2 0x53DC JUMP JUMPDEST PUSH1 0x20 MUL ADD MLOAD EQ PUSH2 0x41ED JUMPI PUSH1 0x40 MLOAD PUSH3 0x461BCD PUSH1 0xE5 SHL DUP2 MSTORE PUSH1 0x20 PUSH1 0x4 DUP3 ADD MSTORE PUSH1 0x14 PUSH1 0x24 DUP3 ADD MSTORE PUSH20 0x4E6F74206F776E65727C77726F6E672064617461 PUSH1 0x60 SHL PUSH1 0x44 DUP3 ADD MSTORE PUSH1 0x64 ADD PUSH2 0xB2E JUMP JUMPDEST PUSH1 0x0 DUP3 PUSH1 0x5 ADD DUP5 PUSH1 0x7 DUP2 LT PUSH2 0x4204 JUMPI PUSH2 0x4204 PUSH2 0x53DC JUMP JUMPDEST ADD SLOAD CALLER PUSH1 0x0 SWAP1 DUP2 MSTORE PUSH1 0x19 PUSH1 0x20 SWAP1 DUP2 MSTORE PUSH1 0x40 DUP1 DUP4 KECCAK256 DUP10 DUP5 MSTORE DUP3 MSTORE DUP1 DUP4 KECCAK256 PUSH1 0x1 SWAP1 DUP2 ADD SLOAD DUP5 MSTORE PUSH1 0x16 SWAP1 SWAP3 MSTORE DUP3 KECCAK256 SWAP3 SWAP4 POP SWAP1 SWAP2 SWAP1 DUP3 SWAP1 PUSH1 0xE DUP8 ADD SWAP1 PUSH2 0x4246 SWAP1 DUP10 PUSH2 0x5476 JUMP JUMPDEST PUSH1 0x6 DUP2 LT PUSH2 0x4256 JUMPI PUSH2 0x4256 PUSH2 0x53DC JUMP JUMPDEST ADD SLOAD DUP2 MSTORE PUSH1 0x20 ADD SWAP1 DUP2 MSTORE PUSH1 0x20 ADD PUSH1 0x0 KECCAK256 SLOAD SWAP1 POP PUSH2 0x4281 DUP2 PUSH2 0x3A16 DUP7 PUSH1 0x3 ADD SLOAD DUP6 PUSH5 0x174876E800 PUSH2 0x3A06 JUMP JUMPDEST SWAP7 SWAP6 POP POP POP POP POP POP JUMP JUMPDEST PUSH1 0x0 PUSH2 0x42E0 DUP3 PUSH1 0x40 MLOAD DUP1 PUSH1 0x40 ADD PUSH1 0x40 MSTORE DUP1 PUSH1 0x20 DUP2 MSTORE PUSH1 0x20 ADD PUSH32 0x5361666545524332303A206C6F772D6C6576656C2063616C6C206661696C6564 DUP2 MSTORE POP DUP6 PUSH1 0x1 PUSH1 0x1 PUSH1 0xA0 SHL SUB AND PUSH2 0x467E SWAP1 SWAP3 SWAP2 SWAP1 PUSH4 0xFFFFFFFF AND JUMP JUMPDEST DUP1 MLOAD SWAP1 SWAP2 POP ISZERO PUSH2 0x155C JUMPI DUP1 DUP1 PUSH1 0x20 ADD SWAP1 MLOAD DUP2 ADD SWAP1 PUSH2 0x42FE SWAP2 SWAP1 PUSH2 0x5651 JUMP JUMPDEST PUSH2 0x155C JUMPI PUSH1 0x40 MLOAD PUSH3 0x461BCD PUSH1 0xE5 SHL DUP2 MSTORE PUSH1 0x20 PUSH1 0x4 DUP3 ADD MSTORE PUSH1 0x2A PUSH1 0x24 DUP3 ADD MSTORE PUSH32 0x5361666545524332303A204552433230206F7065726174696F6E20646964206E PUSH1 0x44 DUP3 ADD MSTORE PUSH10 0x1BDD081CDD58D8D95959 PUSH1 0xB2 SHL PUSH1 0x64 DUP3 ADD MSTORE PUSH1 0x84 ADD PUSH2 0xB2E JUMP JUMPDEST PUSH1 0x0 DUP1 DUP3 PUSH2 0x4377 JUMPI PUSH2 0x4372 PUSH3 0x15180 DUP7 PUSH2 0x39E7 JUMP JUMPDEST PUSH2 0x4379 JUMP JUMPDEST DUP5 JUMPDEST SWAP1 POP PUSH1 0x0 DUP1 PUSH1 0x0 PUSH2 0x4389 DUP5 PUSH2 0x468D JUMP JUMPDEST SWAP3 POP SWAP3 POP SWAP3 POP PUSH2 0x439E DUP4 DUP4 DUP4 DUP11 PUSH1 0x0 DUP1 PUSH2 0x46B3 JUMP JUMPDEST SWAP9 SWAP8 POP POP POP POP POP POP POP POP JUMP JUMPDEST PUSH1 0x7 SLOAD PUSH1 0x0 SWAP1 DUP2 MSTORE PUSH1 0x14 PUSH1 0x20 MSTORE PUSH1 0x40 DUP2 KECCAK256 SWAP1 DUP1 DUP1 DUP1 PUSH2 0x43C7 PUSH2 0x470F JUMP JUMPDEST PUSH1 0x7 SLOAD PUSH1 0x0 SWAP1 DUP2 MSTORE PUSH1 0x1E PUSH1 0x20 MSTORE PUSH1 0x40 SWAP1 KECCAK256 SWAP4 SWAP8 POP SWAP2 SWAP6 POP SWAP4 POP SWAP2 POP DUP3 ISZERO PUSH2 0x4421 JUMPI DUP1 SLOAD PUSH2 0x4421 SWAP1 PUSH1 0x1 PUSH1 0x1 PUSH1 0xA0 SHL SUB PUSH32 0x0 DUP2 AND SWAP2 AND DUP6 PUSH2 0x3FCA JUMP JUMPDEST PUSH1 0x7 SLOAD PUSH1 0x0 SWAP1 DUP2 MSTORE PUSH1 0x15 PUSH1 0x20 MSTORE PUSH1 0x40 SWAP1 KECCAK256 SLOAD PUSH1 0x1 PUSH1 0x1 PUSH1 0xA0 SHL SUB AND ISZERO PUSH2 0x447C JUMPI PUSH1 0x7 SLOAD PUSH1 0x0 SWAP1 DUP2 MSTORE PUSH1 0x15 PUSH1 0x20 MSTORE PUSH1 0x40 SWAP1 KECCAK256 DUP1 SLOAD DUP3 SLOAD PUSH1 0x1 DUP1 DUP6 ADD SLOAD PUSH1 0x1 PUSH1 0x1 PUSH1 0xA0 SHL SUB SWAP4 DUP5 AND SWAP5 PUSH2 0x447A SWAP5 SWAP1 SWAP4 AND SWAP3 PUSH2 0x2E9F SWAP3 SWAP2 PUSH2 0x402E JUMP JUMPDEST POP JUMPDEST DUP2 ISZERO PUSH2 0x45C6 JUMPI PUSH1 0x40 MLOAD PUSH4 0x95EA7B3 PUSH1 0xE0 SHL DUP2 MSTORE PUSH1 0x1 PUSH1 0x1 PUSH1 0xA0 SHL SUB PUSH32 0x0 DUP2 AND PUSH1 0x4 DUP4 ADD MSTORE PUSH1 0x24 DUP3 ADD DUP5 SWAP1 MSTORE PUSH32 0x0 AND SWAP1 PUSH4 0x95EA7B3 SWAP1 PUSH1 0x44 ADD PUSH1 0x20 PUSH1 0x40 MLOAD DUP1 DUP4 SUB DUP2 PUSH1 0x0 DUP8 GAS CALL ISZERO DUP1 ISZERO PUSH2 0x4511 JUMPI RETURNDATASIZE PUSH1 0x0 DUP1 RETURNDATACOPY RETURNDATASIZE PUSH1 0x0 REVERT JUMPDEST POP POP POP POP PUSH1 0x40 MLOAD RETURNDATASIZE PUSH1 0x1F NOT PUSH1 0x1F DUP3 ADD AND DUP3 ADD DUP1 PUSH1 0x40 MSTORE POP DUP2 ADD SWAP1 PUSH2 0x4535 SWAP2 SWAP1 PUSH2 0x5651 JUMP JUMPDEST POP PUSH1 0x40 MLOAD PUSH4 0x6172858B PUSH1 0xE1 SHL DUP2 MSTORE PUSH1 0x4 DUP2 ADD DUP4 SWAP1 MSTORE PUSH32 0x0 PUSH1 0x1 PUSH1 0x1 PUSH1 0xA0 SHL SUB AND SWAP1 PUSH4 0xC2E50B16 SWAP1 PUSH1 0x24 ADD PUSH1 0x0 PUSH1 0x40 MLOAD DUP1 DUP4 SUB DUP2 PUSH1 0x0 DUP8 DUP1 EXTCODESIZE ISZERO DUP1 ISZERO PUSH2 0x4598 JUMPI PUSH1 0x0 DUP1 REVERT JUMPDEST POP GAS CALL ISZERO DUP1 ISZERO PUSH2 0x45AC JUMPI RETURNDATASIZE PUSH1 0x0 DUP1 RETURNDATACOPY RETURNDATASIZE PUSH1 0x0 REVERT JUMPDEST POP POP POP POP PUSH2 0x45C3 DUP3 DUP7 PUSH2 0x3A24 SWAP1 SWAP2 SWAP1 PUSH4 0xFFFFFFFF AND JUMP JUMPDEST SWAP5 POP JUMPDEST DUP4 ISZERO PUSH2 0x464E JUMPI PUSH1 0x40 MLOAD PUSH4 0x852CD8D PUSH1 0xE3 SHL DUP2 MSTORE PUSH1 0x4 DUP2 ADD DUP6 SWAP1 MSTORE PUSH32 0x0 PUSH1 0x1 PUSH1 0x1 PUSH1 0xA0 SHL SUB AND SWAP1 PUSH4 0x42966C68 SWAP1 PUSH1 0x24 ADD PUSH1 0x0 PUSH1 0x40 MLOAD DUP1 DUP4 SUB DUP2 PUSH1 0x0 DUP8 DUP1 EXTCODESIZE ISZERO DUP1 ISZERO PUSH2 0x462E JUMPI PUSH1 0x0 DUP1 REVERT JUMPDEST POP GAS CALL ISZERO DUP1 ISZERO PUSH2 0x4642 JUMPI RETURNDATASIZE PUSH1 0x0 DUP1 RETURNDATACOPY RETURNDATASIZE PUSH1 0x0 REVERT JUMPDEST POP POP POP POP PUSH1 0xC DUP7 ADD DUP5 SWAP1 SSTORE JUMPDEST DUP5 PUSH1 0x14 PUSH1 0x0 PUSH1 0x7 SLOAD PUSH1 0x1 PUSH2 0x4662 SWAP2 SWAP1 PUSH2 0x551B JUMP JUMPDEST DUP2 MSTORE PUSH1 0x20 DUP2 ADD SWAP2 SWAP1 SWAP2 MSTORE PUSH1 0x40 ADD PUSH1 0x0 KECCAK256 PUSH1 0x3 ADD SSTORE POP POP POP POP POP POP JUMP JUMPDEST PUSH1 0x60 PUSH2 0x3A1C DUP5 DUP5 PUSH1 0x0 DUP6 PUSH2 0x4AA9 JUMP JUMPDEST PUSH1 0x0 DUP1 DUP1 PUSH2 0x46A6 PUSH2 0x46A1 PUSH3 0x15180 DUP7 PUSH2 0x5673 JUMP JUMPDEST PUSH2 0x4BCF JUMP JUMPDEST SWAP2 SWAP7 SWAP1 SWAP6 POP SWAP1 SWAP4 POP SWAP2 POP POP JUMP JUMPDEST PUSH1 0x0 DUP2 PUSH2 0x46C1 PUSH1 0x3C DUP6 PUSH2 0x5457 JUMP JUMPDEST PUSH2 0x46CD PUSH2 0xE10 DUP8 PUSH2 0x5457 JUMP JUMPDEST PUSH3 0x15180 PUSH2 0x46DC DUP12 DUP12 DUP12 PUSH2 0x4D43 JUMP JUMPDEST PUSH2 0x46E6 SWAP2 SWAP1 PUSH2 0x5457 JUMP JUMPDEST PUSH2 0x46F0 SWAP2 SWAP1 PUSH2 0x551B JUMP JUMPDEST PUSH2 0x46FA SWAP2 SWAP1 PUSH2 0x551B JUMP JUMPDEST PUSH2 0x4704 SWAP2 SWAP1 PUSH2 0x551B JUMP JUMPDEST SWAP8 SWAP7 POP POP POP POP POP POP POP JUMP JUMPDEST PUSH1 0x7 SLOAD PUSH1 0x0 SWAP1 DUP2 MSTORE PUSH1 0x14 PUSH1 0x20 SWAP1 DUP2 MSTORE PUSH1 0x40 DUP1 DUP4 KECCAK256 PUSH1 0x15 SWAP1 SWAP3 MSTORE DUP3 KECCAK256 PUSH1 0x2 DUP3 ADD SLOAD DUP4 SWAP3 DUP4 SWAP3 DUP4 SWAP3 DUP4 SWAP1 PUSH2 0x4746 SWAP1 PUSH4 0xFFFFFFFF AND PUSH2 0x3AB9 JUMP JUMPDEST SWAP1 POP PUSH1 0x0 DUP1 JUMPDEST PUSH1 0x6 DUP2 PUSH1 0xFF AND LT ISZERO PUSH2 0x48BE JUMPI PUSH1 0x0 DUP4 PUSH2 0x4766 DUP4 PUSH1 0x5 PUSH2 0x5687 JUMP JUMPDEST PUSH1 0xFF AND PUSH1 0x6 DUP2 LT PUSH2 0x4779 JUMPI PUSH2 0x4779 PUSH2 0x53DC JUMP JUMPDEST PUSH1 0x20 SWAP1 DUP2 MUL SWAP2 SWAP1 SWAP2 ADD MLOAD PUSH1 0x7 SLOAD PUSH1 0x0 SWAP1 DUP2 MSTORE PUSH1 0x16 DUP4 MSTORE PUSH1 0x40 DUP1 DUP3 KECCAK256 DUP4 DUP4 MSTORE SWAP1 SWAP4 MSTORE SWAP2 SWAP1 SWAP2 KECCAK256 SLOAD SWAP1 SWAP2 POP DUP1 ISZERO PUSH2 0x4863 JUMPI PUSH1 0xFF DUP4 AND PUSH2 0x47B8 JUMPI DUP1 SWAP4 POP PUSH2 0x47F0 JUMP JUMPDEST PUSH2 0x47C2 DUP2 DUP6 PUSH2 0x3A24 JUMP JUMPDEST SWAP1 POP PUSH2 0x47CE DUP5 DUP3 PUSH2 0x39E7 JUMP JUMPDEST PUSH1 0x7 SLOAD PUSH1 0x0 SWAP1 DUP2 MSTORE PUSH1 0x16 PUSH1 0x20 SWAP1 DUP2 MSTORE PUSH1 0x40 DUP1 DUP4 KECCAK256 DUP7 DUP5 MSTORE SWAP1 SWAP2 MSTORE SWAP1 KECCAK256 DUP3 SWAP1 SSTORE SWAP4 POP JUMPDEST DUP1 ISZERO PUSH2 0x485E JUMPI PUSH2 0x4824 PUSH1 0x5 DUP9 ADD PUSH2 0x4808 DUP6 PUSH1 0x6 PUSH2 0x5687 JUMP JUMPDEST PUSH1 0xFF AND PUSH1 0x7 DUP2 LT PUSH2 0x481B JUMPI PUSH2 0x481B PUSH2 0x53DC JUMP JUMPDEST ADD SLOAD DUP11 SWAP1 PUSH2 0x39E7 JUMP JUMPDEST SWAP9 POP PUSH2 0x4858 PUSH1 0x5 DUP9 ADD PUSH2 0x4838 DUP6 PUSH1 0x6 PUSH2 0x5687 JUMP JUMPDEST PUSH1 0xFF AND PUSH1 0x7 DUP2 LT PUSH2 0x484B JUMPI PUSH2 0x484B PUSH2 0x53DC JUMP JUMPDEST ADD SLOAD PUSH1 0x3 DUP9 ADD SLOAD SWAP1 PUSH2 0x39E7 JUMP JUMPDEST PUSH1 0x3 DUP8 ADD SSTORE JUMPDEST PUSH2 0x48A9 JUMP JUMPDEST PUSH2 0x48A6 PUSH2 0x489F DUP9 PUSH1 0x3 ADD SLOAD DUP10 PUSH1 0x5 ADD DUP7 PUSH1 0x6 PUSH2 0x487F SWAP2 SWAP1 PUSH2 0x5687 JUMP JUMPDEST PUSH1 0xFF AND PUSH1 0x7 DUP2 LT PUSH2 0x4892 JUMPI PUSH2 0x4892 PUSH2 0x53DC JUMP JUMPDEST ADD SLOAD PUSH5 0x174876E800 PUSH2 0x3A06 JUMP JUMPDEST DUP13 SWAP1 PUSH2 0x39E7 JUMP JUMPDEST SWAP11 POP JUMPDEST POP POP DUP1 DUP1 PUSH2 0x48B6 SWAP1 PUSH2 0x54B2 JUMP JUMPDEST SWAP2 POP POP PUSH2 0x474C JUMP JUMPDEST POP PUSH2 0x48CE PUSH4 0x3B9ACA00 PUSH1 0xA PUSH2 0x5457 JUMP JUMPDEST DUP7 LT ISZERO PUSH2 0x4972 JUMPI PUSH2 0x48E9 DUP5 PUSH1 0x3 ADD SLOAD DUP8 PUSH5 0x174876E800 PUSH2 0x3A06 JUMP JUMPDEST PUSH1 0x14 DUP6 ADD SLOAD DUP6 SLOAD SWAP2 SWAP7 POP PUSH2 0x490F SWAP2 PUSH2 0x4900 SWAP2 PUSH2 0x39FA JUMP JUMPDEST PUSH2 0xE7A PUSH4 0x3B9ACA00 PUSH1 0xA PUSH2 0x5457 JUMP JUMPDEST DUP6 LT ISZERO PUSH2 0x4969 JUMPI PUSH2 0x493E DUP6 PUSH2 0x4938 PUSH2 0x4900 DUP8 PUSH1 0x14 ADD SLOAD DUP9 PUSH1 0x0 ADD SLOAD PUSH2 0x39FA SWAP1 SWAP2 SWAP1 PUSH4 0xFFFFFFFF AND JUMP JUMPDEST SWAP1 PUSH2 0x3A24 JUMP JUMPDEST SWAP5 POP PUSH2 0x4962 DUP6 PUSH2 0x4953 PUSH4 0x3B9ACA00 PUSH1 0x5 PUSH2 0x5457 JUMP JUMPDEST PUSH2 0x32D7 PUSH4 0x3B9ACA00 PUSH1 0xA PUSH2 0x5457 JUMP JUMPDEST SWAP5 POP PUSH2 0x4977 JUMP JUMPDEST PUSH1 0x0 SWAP5 POP PUSH2 0x4977 JUMP JUMPDEST PUSH1 0x0 SWAP5 POP JUMPDEST PUSH2 0x4995 PUSH5 0x174876E800 PUSH2 0x3A16 PUSH1 0x13 SLOAD DUP10 PUSH2 0x39FA SWAP1 SWAP2 SWAP1 PUSH4 0xFFFFFFFF AND JUMP JUMPDEST DUP5 SLOAD SWAP1 SWAP7 POP PUSH1 0x0 SWAP1 PUSH2 0x49A7 SWAP1 DUP4 PUSH2 0x3A24 JUMP JUMPDEST PUSH1 0xD DUP7 ADD DUP4 SWAP1 SSTORE SWAP1 POP PUSH2 0x49BF PUSH1 0xE DUP7 ADD DUP5 PUSH1 0x6 PUSH2 0x4FC0 JUMP JUMPDEST POP DUP1 PUSH2 0x49EF JUMPI PUSH1 0x3 DUP6 ADD SLOAD PUSH2 0x49E8 SWAP1 PUSH2 0x49E1 SWAP1 PUSH2 0xE7A DUP11 PUSH1 0x5 DUP11 ADD PUSH1 0x0 PUSH2 0x4020 JUMP JUMPDEST DUP11 SWAP1 PUSH2 0x39E7 JUMP JUMPDEST SWAP9 POP PUSH2 0x4A08 JUMP JUMPDEST PUSH1 0x5 DUP6 ADD SLOAD PUSH1 0x3 DUP6 ADD SLOAD PUSH2 0x4A02 SWAP2 PUSH2 0x39E7 JUMP JUMPDEST PUSH1 0x3 DUP6 ADD SSTORE JUMPDEST PUSH1 0x14 DUP6 ADD SLOAD DUP6 SLOAD PUSH2 0x4A18 SWAP2 PUSH2 0x39FA JUMP JUMPDEST PUSH2 0x4A2E DUP7 PUSH1 0x3 ADD SLOAD PUSH1 0xA SLOAD PUSH5 0x174876E800 PUSH2 0x3A06 JUMP JUMPDEST GT PUSH2 0x4A50 JUMPI PUSH2 0x4A49 DUP6 PUSH1 0x3 ADD SLOAD PUSH1 0x12 SLOAD PUSH5 0x174876E800 PUSH2 0x3A06 JUMP JUMPDEST SWAP8 POP PUSH2 0x4A70 JUMP JUMPDEST PUSH1 0x0 SWAP8 POP PUSH2 0x4A6D PUSH2 0x49E1 DUP7 PUSH1 0x3 ADD SLOAD PUSH1 0x12 SLOAD PUSH5 0x174876E800 PUSH2 0x3A06 JUMP JUMPDEST SWAP9 POP JUMPDEST PUSH1 0x7 SLOAD PUSH1 0x0 SWAP1 DUP2 MSTORE PUSH1 0x1E PUSH1 0x20 MSTORE PUSH1 0x40 SWAP1 KECCAK256 PUSH1 0x1 ADD DUP8 SWAP1 SSTORE PUSH1 0x3 DUP6 ADD SLOAD PUSH2 0x4A9C SWAP1 DUP9 PUSH5 0x174876E800 PUSH2 0x3A06 JUMP JUMPDEST SWAP7 POP POP POP POP POP POP SWAP1 SWAP2 SWAP3 SWAP4 JUMP JUMPDEST PUSH1 0x60 DUP3 SELFBALANCE LT ISZERO PUSH2 0x4B0A JUMPI PUSH1 0x40 MLOAD PUSH3 0x461BCD PUSH1 0xE5 SHL DUP2 MSTORE PUSH1 0x20 PUSH1 0x4 DUP3 ADD MSTORE PUSH1 0x26 PUSH1 0x24 DUP3 ADD MSTORE PUSH32 0x416464726573733A20696E73756666696369656E742062616C616E636520666F PUSH1 0x44 DUP3 ADD MSTORE PUSH6 0x1C8818D85B1B PUSH1 0xD2 SHL PUSH1 0x64 DUP3 ADD MSTORE PUSH1 0x84 ADD PUSH2 0xB2E JUMP JUMPDEST PUSH1 0x1 PUSH1 0x1 PUSH1 0xA0 SHL SUB DUP6 AND EXTCODESIZE PUSH2 0x4B61 JUMPI PUSH1 0x40 MLOAD PUSH3 0x461BCD PUSH1 0xE5 SHL DUP2 MSTORE PUSH1 0x20 PUSH1 0x4 DUP3 ADD MSTORE PUSH1 0x1D PUSH1 0x24 DUP3 ADD MSTORE PUSH32 0x416464726573733A2063616C6C20746F206E6F6E2D636F6E7472616374000000 PUSH1 0x44 DUP3 ADD MSTORE PUSH1 0x64 ADD PUSH2 0xB2E JUMP JUMPDEST PUSH1 0x0 DUP1 DUP7 PUSH1 0x1 PUSH1 0x1 PUSH1 0xA0 SHL SUB AND DUP6 DUP8 PUSH1 0x40 MLOAD PUSH2 0x4B7D SWAP2 SWAP1 PUSH2 0x56AA JUMP JUMPDEST PUSH1 0x0 PUSH1 0x40 MLOAD DUP1 DUP4 SUB DUP2 DUP6 DUP8 GAS CALL SWAP3 POP POP POP RETURNDATASIZE DUP1 PUSH1 0x0 DUP2 EQ PUSH2 0x4BBA JUMPI PUSH1 0x40 MLOAD SWAP2 POP PUSH1 0x1F NOT PUSH1 0x3F RETURNDATASIZE ADD AND DUP3 ADD PUSH1 0x40 MSTORE RETURNDATASIZE DUP3 MSTORE RETURNDATASIZE PUSH1 0x0 PUSH1 0x20 DUP5 ADD RETURNDATACOPY PUSH2 0x4BBF JUMP JUMPDEST PUSH1 0x60 SWAP2 POP JUMPDEST POP SWAP2 POP SWAP2 POP PUSH2 0x4704 DUP3 DUP3 DUP7 PUSH2 0x4E74 JUMP JUMPDEST PUSH1 0x0 DUP1 DUP1 DUP4 DUP2 PUSH3 0x253D8C PUSH2 0x4BE6 DUP4 PUSH3 0x10BD9 PUSH2 0x56C6 JUMP JUMPDEST PUSH2 0x4BF0 SWAP2 SWAP1 PUSH2 0x56C6 JUMP JUMPDEST SWAP1 POP PUSH1 0x0 PUSH3 0x23AB1 PUSH2 0x4C03 DUP4 PUSH1 0x4 PUSH2 0x5707 JUMP JUMPDEST PUSH2 0x4C0D SWAP2 SWAP1 PUSH2 0x578C JUMP JUMPDEST SWAP1 POP PUSH1 0x4 PUSH2 0x4C1E DUP3 PUSH3 0x23AB1 PUSH2 0x5707 JUMP JUMPDEST PUSH2 0x4C29 SWAP1 PUSH1 0x3 PUSH2 0x56C6 JUMP JUMPDEST PUSH2 0x4C33 SWAP2 SWAP1 PUSH2 0x578C JUMP JUMPDEST PUSH2 0x4C3D SWAP1 DUP4 PUSH2 0x57BA JUMP JUMPDEST SWAP2 POP PUSH1 0x0 PUSH3 0x164B09 PUSH2 0x4C50 DUP5 PUSH1 0x1 PUSH2 0x56C6 JUMP JUMPDEST PUSH2 0x4C5C SWAP1 PUSH2 0xFA0 PUSH2 0x5707 JUMP JUMPDEST PUSH2 0x4C66 SWAP2 SWAP1 PUSH2 0x578C JUMP JUMPDEST SWAP1 POP PUSH1 0x4 PUSH2 0x4C76 DUP3 PUSH2 0x5B5 PUSH2 0x5707 JUMP JUMPDEST PUSH2 0x4C80 SWAP2 SWAP1 PUSH2 0x578C JUMP JUMPDEST PUSH2 0x4C8A SWAP1 DUP5 PUSH2 0x57BA JUMP JUMPDEST PUSH2 0x4C95 SWAP1 PUSH1 0x1F PUSH2 0x56C6 JUMP JUMPDEST SWAP3 POP PUSH1 0x0 PUSH2 0x98F PUSH2 0x4CA7 DUP6 PUSH1 0x50 PUSH2 0x5707 JUMP JUMPDEST PUSH2 0x4CB1 SWAP2 SWAP1 PUSH2 0x578C JUMP JUMPDEST SWAP1 POP PUSH1 0x0 PUSH1 0x50 PUSH2 0x4CC3 DUP4 PUSH2 0x98F PUSH2 0x5707 JUMP JUMPDEST PUSH2 0x4CCD SWAP2 SWAP1 PUSH2 0x578C JUMP JUMPDEST PUSH2 0x4CD7 SWAP1 DUP7 PUSH2 0x57BA JUMP JUMPDEST SWAP1 POP PUSH2 0x4CE4 PUSH1 0xB DUP4 PUSH2 0x578C JUMP JUMPDEST SWAP5 POP PUSH2 0x4CF1 DUP6 PUSH1 0xC PUSH2 0x5707 JUMP JUMPDEST PUSH2 0x4CFC DUP4 PUSH1 0x2 PUSH2 0x56C6 JUMP JUMPDEST PUSH2 0x4D06 SWAP2 SWAP1 PUSH2 0x57BA JUMP JUMPDEST SWAP2 POP DUP5 DUP4 PUSH2 0x4D15 PUSH1 0x31 DUP8 PUSH2 0x57BA JUMP JUMPDEST PUSH2 0x4D20 SWAP1 PUSH1 0x64 PUSH2 0x5707 JUMP JUMPDEST PUSH2 0x4D2A SWAP2 SWAP1 PUSH2 0x56C6 JUMP JUMPDEST PUSH2 0x4D34 SWAP2 SWAP1 PUSH2 0x56C6 JUMP JUMPDEST SWAP11 SWAP2 SWAP10 POP SWAP8 POP SWAP6 POP POP POP POP POP POP JUMP JUMPDEST PUSH1 0x0 PUSH2 0x7B2 DUP5 LT ISZERO PUSH2 0x4D54 JUMPI PUSH1 0x0 DUP1 REVERT JUMPDEST DUP4 DUP4 DUP4 PUSH1 0x0 PUSH3 0x253D8C PUSH1 0x4 PUSH1 0x64 PUSH1 0xC PUSH2 0x4D6E PUSH1 0xE DUP9 PUSH2 0x57BA JUMP JUMPDEST PUSH2 0x4D78 SWAP2 SWAP1 PUSH2 0x578C JUMP JUMPDEST PUSH2 0x4D84 DUP9 PUSH2 0x1324 PUSH2 0x56C6 JUMP JUMPDEST PUSH2 0x4D8E SWAP2 SWAP1 PUSH2 0x56C6 JUMP JUMPDEST PUSH2 0x4D98 SWAP2 SWAP1 PUSH2 0x578C JUMP JUMPDEST PUSH2 0x4DA3 SWAP1 PUSH1 0x3 PUSH2 0x5707 JUMP JUMPDEST PUSH2 0x4DAD SWAP2 SWAP1 PUSH2 0x578C JUMP JUMPDEST PUSH1 0xC DUP1 PUSH2 0x4DBB PUSH1 0xE DUP9 PUSH2 0x57BA JUMP JUMPDEST PUSH2 0x4DC5 SWAP2 SWAP1 PUSH2 0x578C JUMP JUMPDEST PUSH2 0x4DD0 SWAP1 PUSH1 0xC PUSH2 0x5707 JUMP JUMPDEST PUSH2 0x4DDB PUSH1 0x2 DUP9 PUSH2 0x57BA JUMP JUMPDEST PUSH2 0x4DE5 SWAP2 SWAP1 PUSH2 0x57BA JUMP JUMPDEST PUSH2 0x4DF1 SWAP1 PUSH2 0x16F PUSH2 0x5707 JUMP JUMPDEST PUSH2 0x4DFB SWAP2 SWAP1 PUSH2 0x578C JUMP JUMPDEST PUSH1 0x4 PUSH1 0xC PUSH2 0x4E0A PUSH1 0xE DUP10 PUSH2 0x57BA JUMP JUMPDEST PUSH2 0x4E14 SWAP2 SWAP1 PUSH2 0x578C JUMP JUMPDEST PUSH2 0x4E20 DUP10 PUSH2 0x12C0 PUSH2 0x56C6 JUMP JUMPDEST PUSH2 0x4E2A SWAP2 SWAP1 PUSH2 0x56C6 JUMP JUMPDEST PUSH2 0x4E36 SWAP1 PUSH2 0x5B5 PUSH2 0x5707 JUMP JUMPDEST PUSH2 0x4E40 SWAP2 SWAP1 PUSH2 0x578C JUMP JUMPDEST PUSH2 0x4E4C PUSH2 0x7D4B DUP8 PUSH2 0x57BA JUMP JUMPDEST PUSH2 0x4E56 SWAP2 SWAP1 PUSH2 0x56C6 JUMP JUMPDEST PUSH2 0x4E60 SWAP2 SWAP1 PUSH2 0x56C6 JUMP JUMPDEST PUSH2 0x4E6A SWAP2 SWAP1 PUSH2 0x57BA JUMP JUMPDEST PUSH2 0x439E SWAP2 SWAP1 PUSH2 0x57BA JUMP JUMPDEST PUSH1 0x60 DUP4 ISZERO PUSH2 0x4E83 JUMPI POP DUP2 PUSH2 0x39F3 JUMP JUMPDEST DUP3 MLOAD ISZERO PUSH2 0x4E93 JUMPI DUP3 MLOAD DUP1 DUP5 PUSH1 0x20 ADD REVERT JUMPDEST DUP2 PUSH1 0x40 MLOAD PUSH3 0x461BCD PUSH1 0xE5 SHL DUP2 MSTORE PUSH1 0x4 ADD PUSH2 0xB2E SWAP2 SWAP1 PUSH2 0x57F9 JUMP JUMPDEST DUP3 DUP1 SLOAD DUP3 DUP3 SSTORE SWAP1 PUSH1 0x0 MSTORE PUSH1 0x20 PUSH1 0x0 KECCAK256 SWAP1 PUSH1 0x1F ADD PUSH1 0x20 SWAP1 DIV DUP2 ADD SWAP3 DUP3 ISZERO PUSH2 0x4F46 JUMPI SWAP2 PUSH1 0x20 MUL DUP3 ADD PUSH1 0x0 JUMPDEST DUP4 DUP3 GT ISZERO PUSH2 0x4F17 JUMPI DUP4 CALLDATALOAD PUSH1 0xFF AND DUP4 DUP3 PUSH2 0x100 EXP DUP2 SLOAD DUP2 PUSH1 0xFF MUL NOT AND SWAP1 DUP4 PUSH1 0xFF AND MUL OR SWAP1 SSTORE POP SWAP3 PUSH1 0x20 ADD SWAP3 PUSH1 0x1 ADD PUSH1 0x20 DUP2 PUSH1 0x0 ADD DIV SWAP3 DUP4 ADD SWAP3 PUSH1 0x1 SUB MUL PUSH2 0x4ED6 JUMP JUMPDEST DUP1 ISZERO PUSH2 0x4F44 JUMPI DUP3 DUP2 PUSH2 0x100 EXP DUP2 SLOAD SWAP1 PUSH1 0xFF MUL NOT AND SWAP1 SSTORE PUSH1 0x1 ADD PUSH1 0x20 DUP2 PUSH1 0x0 ADD DIV SWAP3 DUP4 ADD SWAP3 PUSH1 0x1 SUB MUL PUSH2 0x4F17 JUMP JUMPDEST POP JUMPDEST POP PUSH2 0x4F52 SWAP3 SWAP2 POP PUSH2 0x4FED JUMP JUMPDEST POP SWAP1 JUMP JUMPDEST DUP3 PUSH1 0x7 DUP2 ADD SWAP3 DUP3 ISZERO PUSH2 0x4F46 JUMPI SWAP2 PUSH1 0x20 MUL DUP3 ADD JUMPDEST DUP3 DUP2 GT ISZERO PUSH2 0x4F46 JUMPI DUP3 MLOAD DUP3 SSTORE SWAP2 PUSH1 0x20 ADD SWAP2 SWAP1 PUSH1 0x1 ADD SWAP1 PUSH2 0x4F69 JUMP JUMPDEST PUSH1 0x40 MLOAD DUP1 PUSH1 0xE0 ADD PUSH1 0x40 MSTORE DUP1 PUSH1 0x7 SWAP1 PUSH1 0x20 DUP3 MUL DUP1 CALLDATASIZE DUP4 CALLDATACOPY POP SWAP2 SWAP3 SWAP2 POP POP JUMP JUMPDEST PUSH1 0x40 MLOAD DUP1 PUSH1 0xC0 ADD PUSH1 0x40 MSTORE DUP1 PUSH1 0x6 SWAP1 PUSH1 0x20 DUP3 MUL DUP1 CALLDATASIZE DUP4 CALLDATACOPY POP SWAP2 SWAP3 SWAP2 POP POP JUMP JUMPDEST DUP3 PUSH1 0x6 DUP2 ADD SWAP3 DUP3 ISZERO PUSH2 0x4F46 JUMPI SWAP2 PUSH1 0x20 MUL DUP3 ADD DUP3 DUP2 GT ISZERO PUSH2 0x4F46 JUMPI DUP3 MLOAD DUP3 SSTORE SWAP2 PUSH1 0x20 ADD SWAP2 SWAP1 PUSH1 0x1 ADD SWAP1 PUSH2 0x4F69 JUMP JUMPDEST JUMPDEST DUP1 DUP3 GT ISZERO PUSH2 0x4F52 JUMPI PUSH1 0x0 DUP2 SSTORE PUSH1 0x1 ADD PUSH2 0x4FEE JUMP JUMPDEST PUSH1 0x0 PUSH1 0x20 DUP3 DUP5 SUB SLT ISZERO PUSH2 0x5014 JUMPI PUSH1 0x0 DUP1 REVERT JUMPDEST POP CALLDATALOAD SWAP2 SWAP1 POP JUMP JUMPDEST PUSH1 0x20 DUP1 DUP3 MSTORE DUP3 MLOAD DUP3 DUP3 ADD DUP2 SWAP1 MSTORE PUSH1 0x0 SWAP2 SWAP1 PUSH1 0x40 SWAP1 DUP2 DUP6 ADD SWAP1 DUP7 DUP5 ADD DUP6 JUMPDEST DUP3 DUP2 LT ISZERO PUSH2 0x5063 JUMPI DUP2 MLOAD DUP1 MLOAD PUSH4 0xFFFFFFFF AND DUP6 MSTORE DUP7 ADD MLOAD DUP7 DUP6 ADD MSTORE SWAP3 DUP5 ADD SWAP3 SWAP1 DUP6 ADD SWAP1 PUSH1 0x1 ADD PUSH2 0x5038 JUMP JUMPDEST POP SWAP2 SWAP8 SWAP7 POP POP POP POP POP POP POP JUMP JUMPDEST PUSH1 0x0 DUP1 DUP4 PUSH1 0x1F DUP5 ADD SLT PUSH2 0x5082 JUMPI PUSH1 0x0 DUP1 REVERT JUMPDEST POP DUP2 CALLDATALOAD PUSH8 0xFFFFFFFFFFFFFFFF DUP2 GT ISZERO PUSH2 0x509A JUMPI PUSH1 0x0 DUP1 REVERT JUMPDEST PUSH1 0x20 DUP4 ADD SWAP2 POP DUP4 PUSH1 0x20 DUP3 PUSH1 0x5 SHL DUP6 ADD ADD GT ISZERO PUSH2 0x50B5 JUMPI PUSH1 0x0 DUP1 REVERT JUMPDEST SWAP3 POP SWAP3 SWAP1 POP JUMP JUMPDEST PUSH1 0x0 DUP1 PUSH1 0x0 PUSH1 0x40 DUP5 DUP7 SUB SLT ISZERO PUSH2 0x50D1 JUMPI PUSH1 0x0 DUP1 REVERT JUMPDEST DUP4 CALLDATALOAD PUSH8 0xFFFFFFFFFFFFFFFF DUP2 GT ISZERO PUSH2 0x50E8 JUMPI PUSH1 0x0 DUP1 REVERT JUMPDEST PUSH2 0x50F4 DUP7 DUP3 DUP8 ADD PUSH2 0x5070 JUMP JUMPDEST SWAP1 SWAP8 SWAP1 SWAP7 POP PUSH1 0x20 SWAP6 SWAP1 SWAP6 ADD CALLDATALOAD SWAP5 SWAP4 POP POP POP POP JUMP JUMPDEST DUP1 CALLDATALOAD PUSH1 0x1 PUSH1 0x1 PUSH1 0xA0 SHL SUB DUP2 AND DUP2 EQ PUSH2 0x511F JUMPI PUSH1 0x0 DUP1 REVERT JUMPDEST SWAP2 SWAP1 POP JUMP JUMPDEST PUSH1 0x0 PUSH1 0x20 DUP3 DUP5 SUB SLT ISZERO PUSH2 0x5136 JUMPI PUSH1 0x0 DUP1 REVERT JUMPDEST PUSH2 0x39F3 DUP3 PUSH2 0x5108 JUMP JUMPDEST DUP1 CALLDATALOAD PUSH4 0xFFFFFFFF DUP2 AND DUP2 EQ PUSH2 0x511F JUMPI PUSH1 0x0 DUP1 REVERT JUMPDEST PUSH1 0x0 DUP1 PUSH1 0x40 DUP4 DUP6 SUB SLT ISZERO PUSH2 0x5166 JUMPI PUSH1 0x0 DUP1 REVERT JUMPDEST DUP3 CALLDATALOAD SWAP2 POP PUSH2 0x5176 PUSH1 0x20 DUP5 ADD PUSH2 0x513F JUMP JUMPDEST SWAP1 POP SWAP3 POP SWAP3 SWAP1 POP JUMP JUMPDEST PUSH1 0x0 DUP1 PUSH1 0x20 DUP4 DUP6 SUB SLT ISZERO PUSH2 0x5192 JUMPI PUSH1 0x0 DUP1 REVERT JUMPDEST DUP3 CALLDATALOAD PUSH8 0xFFFFFFFFFFFFFFFF DUP2 GT ISZERO PUSH2 0x51A9 JUMPI PUSH1 0x0 DUP1 REVERT JUMPDEST PUSH2 0x51B5 DUP6 DUP3 DUP7 ADD PUSH2 0x5070 JUMP JUMPDEST SWAP1 SWAP7 SWAP1 SWAP6 POP SWAP4 POP POP POP POP JUMP JUMPDEST PUSH1 0x0 DUP1 PUSH1 0x40 DUP4 DUP6 SUB SLT ISZERO PUSH2 0x51D4 JUMPI PUSH1 0x0 DUP1 REVERT JUMPDEST PUSH2 0x51DD DUP4 PUSH2 0x5108 JUMP JUMPDEST SWAP5 PUSH1 0x20 SWAP4 SWAP1 SWAP4 ADD CALLDATALOAD SWAP4 POP POP POP JUMP JUMPDEST PUSH1 0x20 DUP1 DUP3 MSTORE DUP3 MLOAD DUP3 DUP3 ADD DUP2 SWAP1 MSTORE PUSH1 0x0 SWAP2 SWAP1 PUSH1 0x40 SWAP1 DUP2 DUP6 ADD SWAP1 DUP7 DUP5 ADD DUP6 JUMPDEST DUP3 DUP2 LT ISZERO PUSH2 0x5063 JUMPI DUP2 MLOAD DUP1 MLOAD DUP6 MSTORE DUP7 DUP2 ADD MLOAD DUP8 DUP7 ADD MSTORE DUP6 ADD MLOAD DUP6 DUP6 ADD MSTORE PUSH1 0x60 SWAP1 SWAP4 ADD SWAP3 SWAP1 DUP6 ADD SWAP1 PUSH1 0x1 ADD PUSH2 0x5208 JUMP JUMPDEST DUP1 CALLDATALOAD PUSH1 0xFF DUP2 AND DUP2 EQ PUSH2 0x511F JUMPI PUSH1 0x0 DUP1 REVERT JUMPDEST PUSH1 0x0 DUP1 PUSH1 0x40 DUP4 DUP6 SUB SLT ISZERO PUSH2 0x525B JUMPI PUSH1 0x0 DUP1 REVERT JUMPDEST PUSH2 0x5264 DUP4 PUSH2 0x5108 JUMP JUMPDEST SWAP2 POP PUSH2 0x5176 PUSH1 0x20 DUP5 ADD PUSH2 0x5237 JUMP JUMPDEST PUSH1 0x0 DUP1 PUSH1 0x0 DUP1 PUSH1 0x80 DUP6 DUP8 SUB SLT ISZERO PUSH2 0x5288 JUMPI PUSH1 0x0 DUP1 REVERT JUMPDEST PUSH2 0x5291 DUP6 PUSH2 0x5108 JUMP JUMPDEST SWAP7 PUSH1 0x20 DUP7 ADD CALLDATALOAD SWAP7 POP PUSH1 0x40 DUP7 ADD CALLDATALOAD SWAP6 PUSH1 0x60 ADD CALLDATALOAD SWAP5 POP SWAP3 POP POP POP JUMP JUMPDEST PUSH1 0x0 DUP1 PUSH1 0x40 DUP4 DUP6 SUB SLT ISZERO PUSH2 0x52BE JUMPI PUSH1 0x0 DUP1 REVERT JUMPDEST POP POP DUP1 CALLDATALOAD SWAP3 PUSH1 0x20 SWAP1 SWAP2 ADD CALLDATALOAD SWAP2 POP JUMP JUMPDEST PUSH1 0xE0 DUP2 ADD DUP2 DUP4 PUSH1 0x0 JUMPDEST PUSH1 0x7 DUP2 LT ISZERO PUSH2 0x52F5 JUMPI DUP2 MLOAD DUP4 MSTORE PUSH1 0x20 SWAP3 DUP4 ADD SWAP3 SWAP1 SWAP2 ADD SWAP1 PUSH1 0x1 ADD PUSH2 0x52D6 JUMP JUMPDEST POP POP POP SWAP3 SWAP2 POP POP JUMP JUMPDEST PUSH1 0x0 DUP1 PUSH1 0x0 DUP1 PUSH1 0x0 DUP1 PUSH1 0x60 DUP8 DUP10 SUB SLT ISZERO PUSH2 0x5317 JUMPI PUSH1 0x0 DUP1 REVERT JUMPDEST DUP7 CALLDATALOAD PUSH8 0xFFFFFFFFFFFFFFFF DUP1 DUP3 GT ISZERO PUSH2 0x532F JUMPI PUSH1 0x0 DUP1 REVERT JUMPDEST DUP2 DUP10 ADD SWAP2 POP DUP10 PUSH1 0x1F DUP4 ADD SLT PUSH2 0x5343 JUMPI PUSH1 0x0 DUP1 REVERT JUMPDEST DUP2 CALLDATALOAD DUP2 DUP2 GT ISZERO PUSH2 0x5352 JUMPI PUSH1 0x0 DUP1 REVERT JUMPDEST DUP11 PUSH1 0x20 PUSH1 0x60 DUP4 MUL DUP6 ADD ADD GT ISZERO PUSH2 0x5367 JUMPI PUSH1 0x0 DUP1 REVERT JUMPDEST PUSH1 0x20 SWAP3 DUP4 ADD SWAP9 POP SWAP7 POP SWAP1 DUP9 ADD CALLDATALOAD SWAP1 DUP1 DUP3 GT ISZERO PUSH2 0x5382 JUMPI PUSH1 0x0 DUP1 REVERT JUMPDEST PUSH2 0x538E DUP11 DUP4 DUP12 ADD PUSH2 0x5070 JUMP JUMPDEST SWAP1 SWAP7 POP SWAP5 POP PUSH1 0x40 DUP10 ADD CALLDATALOAD SWAP2 POP DUP1 DUP3 GT ISZERO PUSH2 0x53A7 JUMPI PUSH1 0x0 DUP1 REVERT JUMPDEST POP PUSH2 0x53B4 DUP10 DUP3 DUP11 ADD PUSH2 0x5070 JUMP JUMPDEST SWAP8 SWAP11 SWAP7 SWAP10 POP SWAP5 SWAP8 POP SWAP3 SWAP6 SWAP4 SWAP5 SWAP3 POP POP POP JUMP JUMPDEST PUSH4 0x4E487B71 PUSH1 0xE0 SHL PUSH1 0x0 MSTORE PUSH1 0x41 PUSH1 0x4 MSTORE PUSH1 0x24 PUSH1 0x0 REVERT JUMPDEST PUSH4 0x4E487B71 PUSH1 0xE0 SHL PUSH1 0x0 MSTORE PUSH1 0x32 PUSH1 0x4 MSTORE PUSH1 0x24 PUSH1 0x0 REVERT JUMPDEST PUSH4 0x4E487B71 PUSH1 0xE0 SHL PUSH1 0x0 MSTORE PUSH1 0x11 PUSH1 0x4 MSTORE PUSH1 0x24 PUSH1 0x0 REVERT JUMPDEST PUSH1 0x0 PUSH1 0x0 NOT DUP3 EQ ISZERO PUSH2 0x541C JUMPI PUSH2 0x541C PUSH2 0x53F2 JUMP JUMPDEST POP PUSH1 0x1 ADD SWAP1 JUMP JUMPDEST PUSH1 0x0 PUSH1 0x20 DUP3 DUP5 SUB SLT ISZERO PUSH2 0x5435 JUMPI PUSH1 0x0 DUP1 REVERT JUMPDEST POP MLOAD SWAP2 SWAP1 POP JUMP JUMPDEST PUSH1 0x0 PUSH1 0x20 DUP3 DUP5 SUB SLT ISZERO PUSH2 0x544E JUMPI PUSH1 0x0 DUP1 REVERT JUMPDEST PUSH2 0x39F3 DUP3 PUSH2 0x513F JUMP JUMPDEST PUSH1 0x0 DUP2 PUSH1 0x0 NOT DIV DUP4 GT DUP3 ISZERO ISZERO AND ISZERO PUSH2 0x5471 JUMPI PUSH2 0x5471 PUSH2 0x53F2 JUMP JUMPDEST POP MUL SWAP1 JUMP JUMPDEST PUSH1 0x0 DUP3 DUP3 LT ISZERO PUSH2 0x5488 JUMPI PUSH2 0x5488 PUSH2 0x53F2 JUMP JUMPDEST POP SUB SWAP1 JUMP JUMPDEST PUSH1 0x0 PUSH1 0xFF DUP3 AND PUSH1 0xFF DUP5 AND DUP1 PUSH1 0xFF SUB DUP3 GT ISZERO PUSH2 0x54AA JUMPI PUSH2 0x54AA PUSH2 0x53F2 JUMP JUMPDEST ADD SWAP4 SWAP3 POP POP POP JUMP JUMPDEST PUSH1 0x0 PUSH1 0xFF DUP3 AND PUSH1 0xFF DUP2 EQ ISZERO PUSH2 0x54C9 JUMPI PUSH2 0x54C9 PUSH2 0x53F2 JUMP JUMPDEST PUSH1 0x1 ADD SWAP3 SWAP2 POP POP JUMP JUMPDEST PUSH1 0x20 DUP1 DUP3 MSTORE PUSH1 0x14 SWAP1 DUP3 ADD MSTORE PUSH20 0x536F727279204F6E6C79204F70657261746F7273 PUSH1 0x60 SHL PUSH1 0x40 DUP3 ADD MSTORE PUSH1 0x60 ADD SWAP1 JUMP JUMPDEST PUSH1 0x0 PUSH1 0x20 DUP3 DUP5 SUB SLT ISZERO PUSH2 0x5512 JUMPI PUSH1 0x0 DUP1 REVERT JUMPDEST PUSH2 0x39F3 DUP3 PUSH2 0x5237 JUMP JUMPDEST PUSH1 0x0 DUP3 NOT DUP3 GT ISZERO PUSH2 0x552E JUMPI PUSH2 0x552E PUSH2 0x53F2 JUMP JUMPDEST POP ADD SWAP1 JUMP JUMPDEST PUSH1 0x20 DUP1 DUP3 MSTORE DUP2 DUP2 ADD MSTORE PUSH32 0x4F776E61626C653A2063616C6C6572206973206E6F7420746865206F776E6572 PUSH1 0x40 DUP3 ADD MSTORE PUSH1 0x60 ADD SWAP1 JUMP JUMPDEST PUSH4 0x4E487B71 PUSH1 0xE0 SHL PUSH1 0x0 MSTORE PUSH1 0x12 PUSH1 0x4 MSTORE PUSH1 0x24 PUSH1 0x0 REVERT JUMPDEST PUSH1 0x0 PUSH4 0xFFFFFFFF DUP1 DUP5 AND DUP1 PUSH2 0x5595 JUMPI PUSH2 0x5595 PUSH2 0x5568 JUMP JUMPDEST SWAP3 AND SWAP2 SWAP1 SWAP2 MOD SWAP3 SWAP2 POP POP JUMP JUMPDEST PUSH1 0x0 PUSH4 0xFFFFFFFF DUP1 DUP4 AND DUP2 DUP6 AND DUP1 DUP4 SUB DUP3 GT ISZERO PUSH2 0x55C0 JUMPI PUSH2 0x55C0 PUSH2 0x53F2 JUMP JUMPDEST ADD SWAP5 SWAP4 POP POP POP POP JUMP JUMPDEST PUSH1 0x0 JUMPDEST DUP4 DUP2 LT ISZERO PUSH2 0x55E4 JUMPI DUP2 DUP2 ADD MLOAD DUP4 DUP3 ADD MSTORE PUSH1 0x20 ADD PUSH2 0x55CC JUMP JUMPDEST DUP4 DUP2 GT ISZERO PUSH2 0x3A9B JUMPI POP POP PUSH1 0x0 SWAP2 ADD MSTORE JUMP JUMPDEST PUSH1 0x0 DUP2 MLOAD DUP1 DUP5 MSTORE PUSH2 0x560D DUP2 PUSH1 0x20 DUP7 ADD PUSH1 0x20 DUP7 ADD PUSH2 0x55C9 JUMP JUMPDEST PUSH1 0x1F ADD PUSH1 0x1F NOT AND SWAP3 SWAP1 SWAP3 ADD PUSH1 0x20 ADD SWAP3 SWAP2 POP POP JUMP JUMPDEST PUSH1 0x1 DUP1 PUSH1 0xA0 SHL SUB DUP5 AND DUP2 MSTORE DUP3 PUSH1 0x20 DUP3 ADD MSTORE PUSH1 0x60 PUSH1 0x40 DUP3 ADD MSTORE PUSH1 0x0 PUSH2 0x5648 PUSH1 0x60 DUP4 ADD DUP5 PUSH2 0x55F5 JUMP JUMPDEST SWAP6 SWAP5 POP POP POP POP POP JUMP JUMPDEST PUSH1 0x0 PUSH1 0x20 DUP3 DUP5 SUB SLT ISZERO PUSH2 0x5663 JUMPI PUSH1 0x0 DUP1 REVERT JUMPDEST DUP2 MLOAD DUP1 ISZERO ISZERO DUP2 EQ PUSH2 0x39F3 JUMPI PUSH1 0x0 DUP1 REVERT JUMPDEST PUSH1 0x0 DUP3 PUSH2 0x5682 JUMPI PUSH2 0x5682 PUSH2 0x5568 JUMP JUMPDEST POP DIV SWAP1 JUMP JUMPDEST PUSH1 0x0 PUSH1 0xFF DUP3 AND PUSH1 0xFF DUP5 AND DUP1 DUP3 LT ISZERO PUSH2 0x56A1 JUMPI PUSH2 0x56A1 PUSH2 0x53F2 JUMP JUMPDEST SWAP1 SUB SWAP4 SWAP3 POP POP POP JUMP JUMPDEST PUSH1 0x0 DUP3 MLOAD PUSH2 0x56BC DUP2 DUP5 PUSH1 0x20 DUP8 ADD PUSH2 0x55C9 JUMP JUMPDEST SWAP2 SWAP1 SWAP2 ADD SWAP3 SWAP2 POP POP JUMP JUMPDEST PUSH1 0x0 DUP1 DUP3 SLT DUP1 ISZERO PUSH1 0x1 PUSH1 0x1 PUSH1 0xFF SHL SUB DUP5 SWAP1 SUB DUP6 SGT AND ISZERO PUSH2 0x56E8 JUMPI PUSH2 0x56E8 PUSH2 0x53F2 JUMP JUMPDEST PUSH1 0x1 PUSH1 0xFF SHL DUP4 SWAP1 SUB DUP5 SLT DUP2 AND ISZERO PUSH2 0x5701 JUMPI PUSH2 0x5701 PUSH2 0x53F2 JUMP JUMPDEST POP POP ADD SWAP1 JUMP JUMPDEST PUSH1 0x0 PUSH1 0x1 PUSH1 0x1 PUSH1 0xFF SHL SUB DUP2 DUP5 SGT DUP3 DUP5 SGT DUP1 DUP3 AND DUP7 DUP5 DIV DUP7 GT AND ISZERO PUSH2 0x572D JUMPI PUSH2 0x572D PUSH2 0x53F2 JUMP JUMPDEST PUSH1 0x1 PUSH1 0xFF SHL PUSH1 0x0 DUP8 SLT DUP3 DUP2 AND DUP8 DUP4 SDIV DUP10 SLT AND ISZERO PUSH2 0x574C JUMPI PUSH2 0x574C PUSH2 0x53F2 JUMP JUMPDEST PUSH1 0x0 DUP8 SLT SWAP3 POP DUP8 DUP3 SDIV DUP8 SLT DUP5 DUP5 AND AND ISZERO PUSH2 0x5768 JUMPI PUSH2 0x5768 PUSH2 0x53F2 JUMP JUMPDEST DUP8 DUP6 SDIV DUP8 SLT DUP2 DUP5 AND AND ISZERO PUSH2 0x577E JUMPI PUSH2 0x577E PUSH2 0x53F2 JUMP JUMPDEST POP POP POP SWAP3 SWAP1 SWAP4 MUL SWAP4 SWAP3 POP POP POP JUMP JUMPDEST PUSH1 0x0 DUP3 PUSH2 0x579B JUMPI PUSH2 0x579B PUSH2 0x5568 JUMP JUMPDEST PUSH1 0x1 PUSH1 0xFF SHL DUP3 EQ PUSH1 0x0 NOT DUP5 EQ AND ISZERO PUSH2 0x57B5 JUMPI PUSH2 0x57B5 PUSH2 0x53F2 JUMP JUMPDEST POP SDIV SWAP1 JUMP JUMPDEST PUSH1 0x0 DUP1 DUP4 SLT DUP1 ISZERO PUSH1 0x1 PUSH1 0xFF SHL DUP6 ADD DUP5 SLT AND ISZERO PUSH2 0x57D8 JUMPI PUSH2 0x57D8 PUSH2 0x53F2 JUMP JUMPDEST PUSH1 0x1 PUSH1 0x1 PUSH1 0xFF SHL SUB DUP5 ADD DUP4 SGT DUP2 AND ISZERO PUSH2 0x57F3 JUMPI PUSH2 0x57F3 PUSH2 0x53F2 JUMP JUMPDEST POP POP SUB SWAP1 JUMP JUMPDEST PUSH1 0x20 DUP2 MSTORE PUSH1 0x0 PUSH2 0x39F3 PUSH1 0x20 DUP4 ADD DUP5 PUSH2 0x55F5 JUMP INVALID GAS CALLCODE SWAP4 0x4C 0xDE 0xE DUP16 TIMESTAMP PUSH2 0x37C5 0xAC MLOAD 0x5D 0xE5 SWAP7 0x4B 0xE4 DELEGATECALL 0xC5 0x4E GASLIMIT PUSH25 0x57099DE07F6967F772A2646970667358221220CFF40425A167 0xD9 DUP8 0x2E SWAP2 0xBD 0xCB LT SHL SMOD SUB CALLCODE PC SLT 0xAA PUSH27 0x807E120EE61A660E21E41C64736F6C634300080C00330000000000 ","sha1":"5ad4e334917634ee638a91dbb7f374432b8f884a","source":"//SPDX-License-Identifier: MIT\npragma solidity ^0.8.9;\n\n//BSC Address: 0x9B55987e92958d3d6Af48Dd2DB1C577593401f78\n// VRF\n//chainlink\nimport \"@smartcontractkit/contracts/src/v0.8/VRFConsumerBase.sol\";\n//openzeppelin\nimport \"@openzeppelin/contracts/token/ERC20/ERC20.sol\";\nimport \"@openzeppelin/contracts/token/ERC20/extensions/ERC20Burnable.sol\";\nimport \"@openzeppelin/contracts/token/ERC20/utils/SafeERC20.sol\";\nimport \"@openzeppelin/contracts/utils/math/SafeMath.sol\";\nimport \"@openzeppelin/contracts/access/Ownable.sol\";\nimport \"@openzeppelin/contracts/security/ReentrancyGuard.sol\";\n//bitcrush\nimport \"./Bankroll.sol\";\n\n//import \"../interfaces/ILottery.sol\";\n///@dev use interface IBitcrushLottery\n\n/**\n * @title  Bitcrush's lottery game\n * @author Bitcrush Devs\n * @notice Simple Lottery contract, matches winning numbers from left to right.\n *\n *\n *\n */\ncontract BitcrushLottery is VRFConsumerBase, Ownable, ReentrancyGuard {\n    // Libraries\n    using SafeMath for uint256;\n    using SafeERC20 for ERC20;\n    using SafeERC20 for ERC20Burnable;\n\n    // Contracts\n    ERC20Burnable public immutable crush;\n    //Bankroll public immutable bankAddress;\n    BitcrushBankroll public immutable bankAddress;\n    address public devAddress; //Address to send Ticket cut to.\n\n    // Data Structures\n    struct RoundInfo {\n        uint256 totalTickets;\n        uint256 ticketsClaimed;\n        uint32 winnerNumber;\n        uint256 pool;\n        uint256 endTime;\n        uint256[7] distribution;\n        uint256 burn;\n        uint256 totalWinners;\n        uint256[6] winnerDigits;\n        uint256 ticketValue;\n    }\n\n    struct TicketView {\n        uint256 id;\n        uint256 round;\n        uint256 ticketNumber;\n    }\n\n    struct NewTicket {\n        uint32 ticketNumber;\n        uint256 round;\n    }\n\n    struct ClaimRounds {\n        uint256 roundId;\n        uint256 nonWinners;\n        uint256 winners;\n    }\n\n    struct RoundTickets {\n        uint256 totalTickets;\n        uint256 firstTicketId;\n    }\n\n    struct Claimer {\n        address claimer;\n        uint256 percent;\n    }\n    // This struct defines the values to be stored on a per Round basis\n    struct BonusCoin {\n        address bonusToken;\n        uint256 bonusAmount;\n        uint256 bonusClaimed;\n        uint256 bonusMaxPercent; // accumulated percentage of winners for a round\n    }\n\n    struct Partner {\n        uint256 spread;\n        uint256 id;\n        bool set;\n    }\n\n    // VRF Specific\n    bytes32 internal keyHashVRF;\n    uint256 internal feeVRF;\n\n    /// Timestamp Specific\n    uint256 constant SECONDS_PER_DAY = 24 * 60 * 60;\n    uint256 constant SECONDS_PER_HOUR = 60 * 60;\n    uint256 constant SECONDS_PER_MINUTE = 60;\n    int256 constant OFFSET19700101 = 2440588;\n    // CONSTANTS\n    uint256 constant ONE100PERCENT = 10000000;\n    uint256 constant ONE__PERCENT = 1000000000;\n    uint256 constant PERCENT_BASE = 100000000000;\n    uint32 constant WINNER_BASE = 1000000; //6 digits are necessary\n    uint256 constant devTicketCut = 10 * ONE__PERCENT; // This is 10% of ticket sales taken on ticket sale\n    uint256 constant distributionShare = 5 * ONE__PERCENT;\n    // Variables\n    bool public currentIsActive = false;\n    bool public pause = false;\n    uint256 public currentRound = 0;\n    uint256 public roundEnd;\n    uint256 public ticketValue = 30 * 10**18; //Value of Ticket value in WEI\n\n    uint256 public burnThreshold = 10 * ONE__PERCENT;\n    // Fee Distributions\n    /// @dev these values are used with PERCENT_BASE as 100%\n    uint256 public match6 = 40 * ONE__PERCENT;\n    uint256 public match5 = 20 * ONE__PERCENT;\n    uint256 public match4 = 10 * ONE__PERCENT;\n    uint256 public match3 = 5 * ONE__PERCENT;\n    uint256 public match2 = 3 * ONE__PERCENT;\n    uint256 public match1 = 2 * ONE__PERCENT;\n    uint256 public noMatch = 2 * ONE__PERCENT;\n    uint256 public burn = 18 * ONE__PERCENT;\n    uint256 public claimFee = 75 * ONE100PERCENT; // This is deducted from the no winners 2%\n    // Mappings\n    mapping(uint256 => RoundInfo) public roundInfo; //Round Info\n    mapping(uint256 => BonusCoin) public bonusCoins; //Track bonus partner coins to distribute\n    mapping(uint256 => mapping(uint256 => uint256)) public holders; // ROUND => DIGITS => #OF HOLDERS\n    mapping(address => uint256) public exchangeableTickets;\n    mapping(address => Partner) public partnerSplit;\n    // NEW IMPLEMENTATION\n    mapping(address => mapping(uint256 => NewTicket)) public userNewTickets; // User => ticketId => ticketData\n    mapping(address => mapping(uint256 => RoundTickets))\n        public userRoundTickets; // User => Last created ticket Id\n    mapping(address => uint256) public userTotalTickets; // User => Last created ticket Id\n    mapping(address => uint256) public userLastTicketClaimed; // User => Last ticket claimed Id\n    mapping(address => uint256) public bonusTokenIndex;\n\n    mapping(uint256 => Claimer) private claimers; // Track claimers to autosend claiming Bounty\n\n    mapping(address => bool) public operators; //Operators allowed to execute certain functions\n\n    address[] private partners;\n    address[] public bonusAddresses;\n\n    uint8[] public endHours = [18];\n    uint8 public endHourIndex;\n    // EVENTS\n    event FundedBonusCoins(\n        address indexed _partner,\n        uint256 _amount,\n        uint256 _startRound,\n        uint256 _numberOfRounds\n    );\n    event FundPool(uint256 indexed _round, uint256 _amount);\n    event OperatorChanged(address indexed operators, bool active_status);\n    event RoundStarted(\n        uint256 indexed _round,\n        address indexed _starter,\n        uint256 _timestamp\n    );\n    event TicketBought(\n        uint256 indexed _round,\n        address indexed _user,\n        uint256 _ticketAmounts\n    );\n    event SelectionStarted(\n        uint256 indexed _round,\n        address _caller,\n        bytes32 _requestId\n    );\n    event WinnerPicked(\n        uint256 indexed _round,\n        uint256 _winner,\n        bytes32 _requestId\n    );\n    event TicketsRewarded(address _rewardee, uint256 _ticketAmount);\n    event UpdateTicketValue(uint256 _timeOfUpdate, uint256 _newValue);\n    event PartnerUpdated(address indexed _partner);\n    event PercentagesChanged(\n        address indexed owner,\n        string percentName,\n        uint256 newPercent\n    );\n    event LogEvent(uint256 _data, string _annotation);\n    // MODIFIERS\n    modifier operatorOnly() {\n        require(\n            operators[msg.sender] == true || msg.sender == owner(),\n            \"Sorry Only Operators\"\n        );\n        _;\n    }\n\n    /// @dev Select the appropriate VRF Coordinator and LINK Token addresses\n    constructor(address _crush, address _bankAddress)\n        VRFConsumerBase(\n            // BSC MAINNET\n            0x747973a5A2a4Ae1D3a8fDF5479f1514F65Db9C31, //VRFCoordinator\n            0x404460C6A5EdE2D891e8297795264fDe62ADBB75 //LINK Token\n        )\n    {\n        // VRF Init\n        keyHashVRF = 0xc251acd21ec4fb7f31bb8868288bfdbaeb4fbfec2df3735ddbd4f7dc8d60103c; //MAINNET HASH\n        feeVRF = 0.2 * 10**18; // 0.2 LINK (MAINNET)\n        crush = ERC20Burnable(_crush);\n        devAddress = msg.sender;\n        operators[msg.sender] = true;\n        //bankAddress = Bankroll(_bankAddress);\n        bankAddress = BitcrushBankroll(_bankAddress);\n        bonusAddresses.push(_crush);\n        bonusTokenIndex[_crush] = 0;\n    }\n\n    // External functions\n    /// @notice Buy Tickets to participate in current round from a partner\n    /// @param _ticketNumbers takes in an array of uint values as the ticket number to buy\n    /// @param _partnerId the id of the partner to send the funds to if 0, no partner is checked.\n    function buyTickets(uint32[] calldata _ticketNumbers, uint256 _partnerId)\n        external\n        nonReentrant\n    {\n        require(_ticketNumbers.length > 0, \"Need 1\");\n        require(_ticketNumbers.length <= 100, \"no more than 100\");\n        require(currentIsActive == true, \"Round not active\");\n        // Check if User has funds for ticket\n        uint256 ticketCost = roundInfo[currentRound].ticketValue.mul(\n            _ticketNumbers.length\n        );\n        require(crush.balanceOf(msg.sender) >= ticketCost, \"Can't purchase\");\n        if (userRoundTickets[msg.sender][currentRound].firstTicketId == 0) {\n            userRoundTickets[msg.sender][currentRound]\n                .firstTicketId = userTotalTickets[msg.sender].add(1);\n        }\n        // Add Tickets to respective Mappings\n        for (uint256 i = 0; i < _ticketNumbers.length; i++) {\n            createTicket(msg.sender, _ticketNumbers[i], currentRound, i);\n        }\n        userTotalTickets[msg.sender] = userTotalTickets[msg.sender].add(\n            _ticketNumbers.length\n        );\n        uint256 devCut = getFraction(ticketCost, devTicketCut, PERCENT_BASE);\n        addToPool(ticketCost.sub(devCut));\n\n        if (_partnerId > 0) {\n            require(_partnerId <= partners.length, \"partner Id doesn't exist\");\n            Partner storage _p = partnerSplit[partners[_partnerId - 1]];\n            require(_p.set, \"Partnership ended\");\n            // Split cut with partner\n            uint256 partnerCut = getFraction(devCut, _p.spread, 100);\n            devCut = devCut.sub(partnerCut);\n            crush.safeTransferFrom(\n                msg.sender,\n                partners[_partnerId - 1],\n                partnerCut\n            );\n        }\n        crush.safeTransferFrom(msg.sender, devAddress, devCut);\n        roundInfo[currentRound].totalTickets = roundInfo[currentRound]\n            .totalTickets\n            .add(_ticketNumbers.length);\n        userRoundTickets[msg.sender][currentRound]\n            .totalTickets = userRoundTickets[msg.sender][currentRound]\n            .totalTickets\n            .add(_ticketNumbers.length);\n        emit TicketBought(currentRound, msg.sender, _ticketNumbers.length);\n    }\n\n    /// @notice add/remove/edit partners\n    /// @param _partnerAddress the address where funds will go to.\n    /// @param _split the negotiated split percentage. Value goes from 0 to 90.\n    /// @dev their ID doesn't change, nor is it removed once partnership ends.\n    function editPartner(address _partnerAddress, uint8 _split)\n        external\n        operatorOnly\n    {\n        require(_split <= 90, \"No greedyness, thanks\");\n        if (!partnerSplit[_partnerAddress].set) {\n            partners.push(_partnerAddress);\n            partnerSplit[_partnerAddress].id = partners.length;\n        }\n        partnerSplit[_partnerAddress].spread = _split;\n        if (_split > 0) partnerSplit[_partnerAddress].set = true;\n        emit PartnerUpdated(_partnerAddress);\n    }\n\n    /// @notice retrieve a provider wallet ID\n    /// @param _checkAddress the address to check\n    /// @return _id the ID of the provider\n    function getProviderId(address _checkAddress)\n        external\n        view\n        returns (uint256 _id)\n    {\n        Partner storage partner = partnerSplit[_checkAddress];\n        require(partner.set, \"Not a partner\");\n        _id = partner.id;\n    }\n\n    /// @notice Give Redeemable Tickets to a particular user\n    /// @param _rewardee Address the tickets will be awarded to\n    /// @param ticketAmount number of tickets awarded\n    function rewardTicket(address _rewardee, uint256 ticketAmount)\n        external\n        operatorOnly\n    {\n        exchangeableTickets[_rewardee] += ticketAmount;\n        emit TicketsRewarded(_rewardee, ticketAmount);\n    }\n\n    /// @notice Exchange awarded tickets for the current round\n    /// @param _ticketNumbers array of numbers to add to the caller as tickets\n    function exchangeForTicket(uint32[] calldata _ticketNumbers) external {\n        require(currentIsActive, \"round is not active\");\n        require(\n            _ticketNumbers.length <= exchangeableTickets[msg.sender],\n            \"not enough tickets\"\n        );\n        for (\n            uint256 exchange = 0;\n            exchange < _ticketNumbers.length;\n            exchange++\n        ) {\n            createTicket(\n                msg.sender,\n                _ticketNumbers[exchange],\n                currentRound,\n                exchange\n            );\n            exchangeableTickets[msg.sender] -= 1;\n        }\n        userTotalTickets[msg.sender] = userTotalTickets[msg.sender].add(\n            _ticketNumbers.length\n        );\n    }\n\n    /// @notice Start of new Round. This function is only needed for the first round, next rounds will be automatically started once the winner number is received\n    function firstStart() external operatorOnly {\n        require(currentRound == 0, \"First Round only\");\n        calcNextHour();\n        startRound();\n        // Rollover all of pool zero at start\n        roundInfo[currentRound].pool = roundInfo[0].pool;\n        roundInfo[currentRound].endTime = roundEnd;\n        roundInfo[currentRound].distribution = [\n            noMatch,\n            match1,\n            match2,\n            match3,\n            match4,\n            match5,\n            match6\n        ];\n        roundInfo[currentRound].ticketValue = ticketValue;\n        pause = false;\n    }\n\n    /// @notice Ends current round\n    /// @dev WIP - the end of the round will always happen at set intervals\n    function endRound() external {\n        require(\n            LINK.balanceOf(address(this)) >= feeVRF,\n            \"Not enough LINK - please contact mod to fund to contract\"\n        );\n        require(currentIsActive == true, \"Round is over\");\n        require(block.timestamp > roundInfo[currentRound].endTime, \"Not yet\");\n\n        calcNextHour();\n        currentIsActive = false;\n        roundInfo[currentRound.add(1)].endTime = roundEnd;\n        claimers[currentRound] = Claimer(msg.sender, 0);\n        // Request Random Number for Winner\n        bytes32 rqId = requestRandomness(keyHashVRF, feeVRF);\n        emit SelectionStarted(currentRound, msg.sender, rqId);\n    }\n\n    /// @notice Add or remove operator\n    /// @param _operator address to add / remove operator\n    function toggleOperator(address _operator) external operatorOnly {\n        bool operatorIsActive = operators[_operator];\n        if (operatorIsActive) {\n            operators[_operator] = false;\n        } else {\n            operators[_operator] = true;\n        }\n        emit OperatorChanged(_operator, operators[msg.sender]);\n    }\n\n    // SETTERS\n    /// @notice Change the claimer's fee\n    /// @param _fee the value of the new fee\n    /// @dev Fee cannot be greater than noMatch percentage ( since noMatch percentage is the amount given out to nonWinners )\n    function setClaimerFee(uint256 _fee) external onlyOwner {\n        require(_fee.mul(ONE100PERCENT) < noMatch, \"Invalid fee amount\");\n        claimFee = _fee.mul(ONE100PERCENT);\n        emit PercentagesChanged(\n            msg.sender,\n            \"claimFee\",\n            _fee.mul(ONE100PERCENT)\n        );\n    }\n\n    /// @notice Set the token that will be used as a Bonus for a particular round\n    /// @param _partnerToken Token address\n    /// @param _round round where this token applies\n    function setBonusCoin(\n        address _partnerToken,\n        uint256 _amount,\n        uint256 _round,\n        uint256 _roundAmount\n    ) external operatorOnly {\n        require(_roundAmount > 0, \"Need at least 1\");\n        require(_round > currentRound, \"No past rounds\");\n        require(\n            _partnerToken != address(0) &&\n                bonusCoins[_round].bonusToken == address(0),\n            \"issue with address\"\n        );\n        if (bonusTokenIndex[_partnerToken] == 0) {\n            bonusTokenIndex[_partnerToken] = bonusAddresses.length;\n            bonusAddresses.push(_partnerToken);\n        }\n        ERC20 bonusToken = ERC20(_partnerToken);\n        require(\n            bonusToken.balanceOf(msg.sender) >= _amount,\n            \"Funds are needed\"\n        );\n        uint256 spreadAmount = _amount.div(_roundAmount);\n        uint256 totalAmount = spreadAmount.mul(_roundAmount); //get the actual total to take into account division issues\n        for (\n            uint256 rounds = _round;\n            rounds < _round.add(_roundAmount);\n            rounds++\n        ) {\n            require(\n                bonusCoins[rounds].bonusToken == address(0),\n                \"Already has bonus\"\n            );\n            // Uses the claimFee as the base since that will always be distributed to the claimer.\n            bonusCoins[rounds] = BonusCoin(_partnerToken, spreadAmount, 0, 0);\n        }\n        bonusToken.safeTransferFrom(msg.sender, address(this), totalAmount);\n        emit FundedBonusCoins(_partnerToken, _amount, _round, _roundAmount);\n    }\n\n    /// @notice Set the ticket value\n    /// @param _newValue the new value of the ticket\n    /// @dev Ticket value MUST BE IN WEI format, minimum is left as greater than 1 due to the deflationary nature of CRUSH\n    function setTicketValue(uint256 _newValue) external onlyOwner {\n        require(_newValue < 100 * 10**18 && _newValue > 1, \"exceeds MAX\");\n        ticketValue = _newValue;\n        emit UpdateTicketValue(block.timestamp, _newValue);\n    }\n\n    /// @notice Edit the times array\n    /// @param _newTimes Array of hours when Lottery will end\n    /// @dev adding a sorting algorithm would be nice but honestly we have too much going on to add that in. So help us out and add your times sorted\n    function setEndHours(uint8[] calldata _newTimes) external operatorOnly {\n        require(_newTimes.length > 0, \"need time\");\n        for (uint256 i = 0; i < _newTimes.length; i++) {\n            require(_newTimes[i] < 24, \"wrong time\");\n            if (i > 0)\n                require(_newTimes[i] > _newTimes[i - 1], \"Help out sort times\");\n        }\n        endHours = _newTimes;\n    }\n\n    /// @notice Setup the burn threshold\n    /// @param _threshold new threshold in percent amount\n    /// @dev setting the minimum threshold as 0 will always burn, setting max as 50\n    function setBurnThreshold(uint256 _threshold) external onlyOwner {\n        require(_threshold <= 50, \"Out of range\");\n        burnThreshold = _threshold * ONE__PERCENT;\n    }\n\n    /// @notice toggle pause state of lottery\n    /// @dev if the round is over and the lottery is unpaused then the round is started\n    function togglePauseStatus() external onlyOwner {\n        pause = !pause;\n        if (currentIsActive == false && !pause) {\n            startRound();\n        }\n        emit LogEvent(pause ? 1 : 0, \"Pause Status Changed\");\n    }\n\n    /// @notice Destroy contract and retrieve funds\n    /// @dev This function is meant to retrieve funds in case of non usage and/or upgrading in the future.\n    function crushTheContract() external onlyOwner {\n        require(pause, \"not paused\");\n        require(block.timestamp > roundEnd.add(2629743), \"Wait no activity\");\n        // Transfer Held CRUSH\n        crush.safeTransfer(msg.sender, crush.balanceOf(address(this)));\n        // Transfer held Link\n        // Hardcoded LinkToken address since LINK does not have SafeERC20 functions\n        ERC20(0x404460C6A5EdE2D891e8297795264fDe62ADBB75).safeTransfer(\n            msg.sender,\n            LINK.balanceOf(address(this))\n        );\n        // Transfer Held Bonus Tokens\n        for (uint256 i = 1; i < bonusAddresses.length; i++) {\n            ERC20 bonusToken = ERC20(bonusAddresses[i]);\n            bonusToken.safeTransfer(\n                msg.sender,\n                bonusToken.balanceOf(address(this))\n            );\n        }\n        selfdestruct(payable(msg.sender));\n    }\n\n    /// @notice Set the distribution percentage amounts... all amounts must be given for this to work\n    /// @param _newDistribution array of distribution amounts\n    /// @dev we expect all values to sum 100 and that all items are given. The new distribution only applies to next rounds\n    /// @dev all values are in the one onehundreth percentile amount.\n    /// @dev expected order [ jackpot, match5, match4, match3, match2, match1, noMatch, burn]\n    function setDistributionPercentages(uint256[] calldata _newDistribution)\n        external\n        onlyOwner\n    {\n        require(\n            _newDistribution[7] > 0 && _newDistribution.length == 8,\n            \"Wrong configs\"\n        );\n        match6 = _newDistribution[0].mul(ONE100PERCENT);\n        match5 = _newDistribution[1].mul(ONE100PERCENT);\n        match4 = _newDistribution[2].mul(ONE100PERCENT);\n        match3 = _newDistribution[3].mul(ONE100PERCENT);\n        match2 = _newDistribution[4].mul(ONE100PERCENT);\n        match1 = _newDistribution[5].mul(ONE100PERCENT);\n        noMatch = _newDistribution[6].mul(ONE100PERCENT);\n        burn = _newDistribution[7].mul(ONE100PERCENT);\n        require(\n            match6\n                .add(match5)\n                .add(match4)\n                .add(match3)\n                .add(match2)\n                .add(match1)\n                .add(noMatch)\n                .add(burn) == PERCENT_BASE,\n            \"Numbers don't add up\"\n        );\n        emit PercentagesChanged(msg.sender, \"jackpot\", match6);\n        emit PercentagesChanged(msg.sender, \"match5\", match5);\n        emit PercentagesChanged(msg.sender, \"match4\", match4);\n        emit PercentagesChanged(msg.sender, \"match3\", match3);\n        emit PercentagesChanged(msg.sender, \"match2\", match2);\n        emit PercentagesChanged(msg.sender, \"match1\", match1);\n        emit PercentagesChanged(msg.sender, \"noMatch\", noMatch);\n        emit PercentagesChanged(msg.sender, \"burnPercent\", burn);\n    }\n\n    /// @notice Claim all tickets for selected Rounds\n    /// @param _rounds the round info to look at\n    /// @param _ticketIds array of ticket Ids that will be claimed\n    /// @param _matches array of match per ticket Id\n    /// @dev _ticketIds and _matches have to be same length since they are matched 1-to-1\n    function claimAllPendingTickets(\n        ClaimRounds[] calldata _rounds,\n        uint256[] calldata _ticketIds,\n        uint256[] calldata _matches\n    ) external {\n        require(\n            _ticketIds.length == _matches.length,\n            \"Arrays need to be the same\"\n        );\n        require(_rounds.length > 0, \"Need to claim something\");\n        uint256 claims = userLastTicketClaimed[msg.sender];\n        require(\n            _rounds[0].roundId > userNewTickets[msg.sender][claims].round,\n            \"Can't claim past rounds\"\n        );\n        uint256 ticketIdCounter;\n        uint256[] memory partnerBonusTokens = new uint256[](\n            bonusAddresses.length\n        );\n        for (uint256 i = 0; i < _rounds.length; i++) {\n            require(\n                _rounds[i].roundId < currentRound,\n                \"Can't claim current round tickets\"\n            );\n            require(\n                _rounds[i].nonWinners.add(_rounds[i].winners) ==\n                    userRoundTickets[msg.sender][_rounds[i].roundId]\n                        .totalTickets,\n                \"Missing Tickets, all rounds claimed equally\"\n            );\n            require(\n                _rounds[i].winners == _ticketIds.length,\n                \"round must have all tickets\"\n            );\n            uint256 roundId = _rounds[i].roundId;\n            uint256 winners = _rounds[i].winners;\n            uint256 nonWinners = _rounds[i].nonWinners;\n            RoundInfo storage roundChecked = roundInfo[roundId];\n            BonusCoin storage roundBonus = bonusCoins[roundId];\n            uint256 matchReduction = getNoMatchAmount(roundId);\n            if (nonWinners > 0) {\n                partnerBonusTokens[0] = partnerBonusTokens[0].add(\n                    getFraction(\n                        roundChecked.pool,\n                        matchReduction.mul(nonWinners),\n                        roundChecked\n                            .totalTickets\n                            .sub(roundChecked.totalWinners)\n                            .mul(PERCENT_BASE)\n                    )\n                );\n                if (roundBonus.bonusToken != address(0)) {\n                    partnerBonusTokens[\n                        bonusTokenIndex[roundBonus.bonusToken]\n                    ] = partnerBonusTokens[\n                        bonusTokenIndex[roundBonus.bonusToken]\n                    ].add(\n                            nonWinners.mul(\n                                getBonusReward(\n                                    roundChecked.totalTickets.sub(\n                                        roundChecked.totalWinners\n                                    ),\n                                    roundBonus,\n                                    matchReduction\n                                )\n                            )\n                        );\n                }\n            }\n            if (winners > 0) {\n                for (uint256 j = 0; j < winners; j++) {\n                    uint256 ticketId = _ticketIds[j + ticketIdCounter];\n                    if (j == 0 && ticketIdCounter == 0)\n                        require(ticketId > claims, \"Ticket already claimed\");\n                    if (j > 0 || ticketIdCounter > 0)\n                        require(\n                            ticketId > _ticketIds[j + ticketIdCounter - 1],\n                            \"sort tickets, claim once\"\n                        );\n                    uint256 matchBatch = _matches[j + ticketIdCounter];\n                    uint256 distributedAmount = checkTicketRequirements(\n                        ticketId,\n                        matchBatch,\n                        roundChecked\n                    );\n                    partnerBonusTokens[0] = partnerBonusTokens[0].add(\n                        distributedAmount\n                    );\n                    if (roundBonus.bonusToken != address(0)) {\n                        partnerBonusTokens[\n                            bonusTokenIndex[roundBonus.bonusToken]\n                        ] = partnerBonusTokens[\n                            bonusTokenIndex[roundBonus.bonusToken]\n                        ].add(\n                                getBonusReward(\n                                    holders[roundId][\n                                        roundChecked.winnerDigits[\n                                            matchBatch - 1\n                                        ]\n                                    ],\n                                    roundBonus,\n                                    roundChecked.distribution[matchBatch]\n                                )\n                            );\n                    }\n                }\n                ticketIdCounter = ticketIdCounter.add(winners);\n            }\n            claims = claims.add(nonWinners).add(winners);\n        }\n        userLastTicketClaimed[msg.sender] = claims;\n        if (partnerBonusTokens[0] > 0) {\n            crush.safeTransfer(msg.sender, partnerBonusTokens[0]);\n        }\n        if (bonusAddresses.length > 1) {\n            for (uint256 p = 1; p < bonusAddresses.length; p++) {\n                if (partnerBonusTokens[p] == 0) continue;\n                ERC20 bonusContract = ERC20(bonusAddresses[p]);\n                uint256 availableFunds = bonusContract.balanceOf(address(this));\n                if (availableFunds > 0) {\n                    if (partnerBonusTokens[p] > availableFunds)\n                        bonusContract.safeTransfer(msg.sender, availableFunds);\n                    else\n                        bonusContract.safeTransfer(\n                            msg.sender,\n                            partnerBonusTokens[p]\n                        );\n                }\n            }\n        }\n    }\n\n    // External functions that are view\n    /// @notice Get Tickets for the caller for during a specific round\n    /// @param _round The round to query\n    function getRoundTickets(uint256 _round)\n        external\n        view\n        returns (NewTicket[] memory)\n    {\n        RoundTickets storage roundReview = userRoundTickets[msg.sender][_round];\n        NewTicket[] memory tickets = new NewTicket[](roundReview.totalTickets);\n        for (uint256 i = 0; i < roundReview.totalTickets; i++)\n            tickets[i] = userNewTickets[msg.sender][\n                roundReview.firstTicketId.add(i)\n            ];\n        return tickets;\n    }\n\n    /// @notice Get a specific round's distribution percentages\n    /// @param _round the round to check\n    /// @dev this is necessary since solidity doesn't return the nested array in a struct when calling the variable containing the struct\n    function getRoundDistribution(uint256 _round)\n        external\n        view\n        returns (uint256[7] memory distribution)\n    {\n        distribution[0] = roundInfo[_round].distribution[0];\n        distribution[1] = roundInfo[_round].distribution[1];\n        distribution[2] = roundInfo[_round].distribution[2];\n        distribution[3] = roundInfo[_round].distribution[3];\n        distribution[4] = roundInfo[_round].distribution[4];\n        distribution[5] = roundInfo[_round].distribution[5];\n        distribution[6] = roundInfo[_round].distribution[6];\n    }\n\n    /// @notice Get all Claimable Tickets\n    /// @return TicketView array\n    /// @dev this is specific to UI, returns ID and ROUND number in order to make the necessary calculations.\n    function ticketsToClaim() external view returns (TicketView[] memory) {\n        uint256 claimableTickets = userTotalTickets[msg.sender].sub(\n            userLastTicketClaimed[msg.sender]\n        );\n        if (claimableTickets == 0) return new TicketView[](0);\n        TicketView[] memory pendingTickets = new TicketView[](claimableTickets);\n        for (uint256 i = 0; i < claimableTickets; i++) {\n            NewTicket storage viewTicket = userNewTickets[msg.sender][\n                userLastTicketClaimed[msg.sender].add(i + 1)\n            ];\n            pendingTickets[i] = TicketView(\n                userLastTicketClaimed[msg.sender].add(i + 1),\n                viewTicket.round,\n                viewTicket.ticketNumber\n            );\n        }\n        return pendingTickets;\n    }\n\n    // Public functions\n    /// @notice Check if number is the winning number\n    /// @param _round Round the requested ticket belongs to\n    /// @param luckyTicket ticket number to check\n    /// @return _match Number of winning matches\n    function isNumberWinner(uint256 _round, uint32 luckyTicket)\n        public\n        view\n        returns (uint8 _match)\n    {\n        uint256 roundWinner = roundInfo[_round].winnerNumber;\n        require(roundWinner > 0, \"Winner not yet determined\");\n        _match = 0;\n        uint256 luckyNumber = standardTicketNumber(luckyTicket, WINNER_BASE);\n        uint256[6] memory winnerDigits = getDigits(roundWinner);\n        uint256[6] memory luckyDigits = getDigits(luckyNumber);\n        for (uint8 i = 0; i < 6; i++) {\n            if (winnerDigits[i] == luckyDigits[i]) _match = i + 1;\n            else break;\n        }\n    }\n\n    /// @notice Add funds to pool directly, only applies funds to currentRound\n    /// @param _amount the amount of CRUSH to transfer from current account to current Round\n    /// @dev Approve needs to be run beforehand so the transfer can succeed.\n    function addToPool(uint256 _amount) public {\n        uint256 userBalance = crush.balanceOf(msg.sender);\n        require(userBalance >= _amount, \"Insufficient Funds to Send to Pool\");\n        crush.safeTransferFrom(msg.sender, address(this), _amount);\n        roundInfo[currentRound].pool = roundInfo[currentRound].pool.add(\n            _amount\n        );\n        emit FundPool(currentRound, _amount);\n    }\n\n    // Internal functions\n    /// @notice Get the percentage to use for non winners difference after claimer fee\n    /// @param _round the round to get the info from.\n    function getNoMatchAmount(uint256 _round)\n        internal\n        view\n        returns (uint256 _matchReduction)\n    {\n        _matchReduction = roundInfo[_round].distribution[0].sub(\n            claimers[_round].percent\n        );\n    }\n\n    /// @notice Set the next start hour and next hour index\n    /// @dev if only 1 element in array, then it always pushes to next day\n    /// @dev epoch is UTC so make sure to check when this is called it might roll over for more than 24 hours\n    function calcNextHour() internal {\n        uint256 tempEnd = roundEnd;\n        uint8 newIndex = endHourIndex;\n        bool nextDay = true;\n        while (tempEnd <= block.timestamp) {\n            newIndex = newIndex + 1 >= endHours.length ? 0 : newIndex + 1;\n            tempEnd = setNextRoundEndTime(\n                block.timestamp,\n                endHours[newIndex],\n                newIndex != 0 && nextDay\n            );\n            if (newIndex == endHours.length) nextDay = false;\n        }\n        roundEnd = tempEnd;\n        endHourIndex = newIndex;\n    }\n\n    /// @notice Adds the ticket to chain\n    /// @param ticketOwner the owner of the ticket\n    /// @param _ticketNumber the number playing\n    /// @param _round the round currently being played\n    /// @param _ticketCount the ticket id offset\n    /// @dev Depending on how many tickets, the gas usage for this function can be quite high.\n    function createTicket(\n        address ticketOwner,\n        uint32 _ticketNumber,\n        uint256 _round,\n        uint256 _ticketCount\n    ) internal {\n        assembly {\n            let currentTicket := add(\n                mod(_ticketNumber, WINNER_BASE),\n                WINNER_BASE\n            )\n            // save ticket to userNewTickets\n            mstore(0, ticketOwner)\n            mstore(32, userTotalTickets.slot)\n            let baseOffset := keccak256(0, 64)\n            let secondaryVal := add(\n                add(sload(keccak256(0, 64)), 1),\n                _ticketCount\n            )\n            mstore(0, ticketOwner)\n            mstore(32, userNewTickets.slot)\n            baseOffset := keccak256(0, 64)\n            mstore(0, secondaryVal)\n            mstore(32, baseOffset)\n            sstore(keccak256(0, 64), currentTicket)\n            sstore(add(keccak256(0, 64), 1), _round)\n            // Get base again\n            mstore(0, _round)\n            mstore(32, holders.slot)\n            baseOffset := keccak256(0, 64)\n            // save 6\n            mstore(0, currentTicket)\n            mstore(32, baseOffset)\n            let offset := keccak256(0, 64)\n            secondaryVal := sload(offset)\n            sstore(offset, add(secondaryVal, 1))\n            // save 5\n            currentTicket := div(currentTicket, 10)\n            mstore(0, currentTicket)\n            mstore(32, baseOffset)\n            offset := keccak256(0, 64)\n            secondaryVal := sload(offset)\n            sstore(offset, add(secondaryVal, 1))\n            // save 4\n            currentTicket := div(currentTicket, 10)\n            mstore(0, currentTicket)\n            mstore(32, baseOffset)\n            offset := keccak256(0, 64)\n            secondaryVal := sload(offset)\n            sstore(offset, add(secondaryVal, 1))\n            // save 3\n            currentTicket := div(currentTicket, 10)\n            mstore(0, currentTicket)\n            mstore(32, baseOffset)\n            offset := keccak256(0, 64)\n            secondaryVal := sload(offset)\n            sstore(offset, add(secondaryVal, 1))\n            // save 2\n            currentTicket := div(currentTicket, 10)\n            mstore(0, currentTicket)\n            mstore(32, baseOffset)\n            offset := keccak256(0, 64)\n            secondaryVal := sload(offset)\n            sstore(offset, add(secondaryVal, 1))\n            // save 1\n            currentTicket := div(currentTicket, 10)\n            mstore(0, currentTicket)\n            mstore(32, baseOffset)\n            offset := keccak256(0, 64)\n            secondaryVal := sload(offset)\n            sstore(offset, add(secondaryVal, 1))\n        }\n    }\n\n    /// @notice Get bonus reward amount based on holders and match amount\n    /// @param _holders amount of holders\n    /// @param bonus The bonus token data, used to obtain the bonus amount and maxpercent\n    /// @param _match The percentage matched\n    /// @return bonusAmount total amount to be distributed\n    function getBonusReward(\n        uint256 _holders,\n        BonusCoin storage bonus,\n        uint256 _match\n    ) internal view returns (uint256 bonusAmount) {\n        if (_holders == 0) return 0;\n        if (bonus.bonusToken != address(0)) {\n            if (_match == 0) return 0;\n            bonusAmount = getFraction(\n                bonus.bonusAmount,\n                _match,\n                bonus.bonusMaxPercent\n            ).div(_holders);\n            return bonusAmount;\n        }\n        return 0;\n    }\n\n    /// @notice Function that starts a round, it's only internal since it's for use of VRF\n    /// @dev distribution array is setup on a round basis as to simplify matching\n    function startRound() internal {\n        require(currentIsActive == false, \"Current Round is not over\");\n        require(pause == false, \"Lottery is paused\");\n        // Add new Round\n        currentRound++;\n        currentIsActive = true;\n        RoundInfo storage newRound = roundInfo[currentRound];\n        newRound.distribution = [\n            noMatch,\n            match1,\n            match2,\n            match3,\n            match4,\n            match5,\n            match6\n        ];\n        newRound.ticketValue = ticketValue;\n        emit RoundStarted(currentRound, msg.sender, block.timestamp);\n    }\n\n    /// @notice function that calculates distribution and transfers rewards to claimer\n    /// @dev From calculations on calculateRollover fn, it transfers the claimer fee to claimer and the distributes rewards to bankroll\n    /// @dev finally it sets the pool amount in the next round\n    function distributeCrush() internal {\n        RoundInfo storage thisRound = roundInfo[currentRound];\n        (\n            uint256 rollOver,\n            uint256 burnAmount,\n            uint256 forClaimer,\n            uint256 distributed\n        ) = calculateRollover();\n        // Transfer Amount to Claimer\n        Claimer storage roundClaimer = claimers[currentRound];\n        if (forClaimer > 0)\n            crush.safeTransfer(roundClaimer.claimer, forClaimer);\n        if (bonusCoins[currentRound].bonusToken != address(0)) {\n            ERC20 bonusTokenContract = ERC20(\n                bonusCoins[currentRound].bonusToken\n            );\n            bonusTokenContract.safeTransfer(\n                roundClaimer.claimer,\n                getBonusReward(\n                    1,\n                    bonusCoins[currentRound],\n                    roundClaimer.percent\n                )\n            );\n        }\n        // Can distribute rollover\n        if (distributed > 0) {\n            crush.approve(address(bankAddress), distributed);\n            bankAddress.addUserLoss(distributed);\n            rollOver = rollOver.sub(distributed);\n        }\n\n        // BURN AMOUNT\n        if (burnAmount > 0) {\n            crush.burn(burnAmount);\n            thisRound.burn = burnAmount;\n        }\n        roundInfo[currentRound + 1].pool = rollOver;\n    }\n\n    /// @notice checks for winner holders and returns distribution info\n    /// @return _rollover the amount to be rolled over to next round\n    /// @return _burn the amount to burn\n    /// @return _forClaimer the claimer fee\n    /// @return _distributed the amount to be distributed to bankroll\n    function calculateRollover()\n        internal\n        returns (\n            uint256 _rollover,\n            uint256 _burn,\n            uint256 _forClaimer,\n            uint256 _distributed\n        )\n    {\n        RoundInfo storage info = roundInfo[currentRound];\n        _rollover = 0;\n        // for zero match winners\n        BonusCoin storage roundBonusCoin = bonusCoins[currentRound];\n        uint256[6] memory winnerDigits = getDigits(info.winnerNumber);\n        uint256 totalMatchHolders = 0;\n\n        for (uint8 i = 0; i < 6; i++) {\n            uint256 digitToCheck = winnerDigits[5 - i];\n            uint256 matchHolders = holders[currentRound][digitToCheck];\n            if (matchHolders > 0) {\n                if (i == 0) totalMatchHolders = matchHolders;\n                else {\n                    matchHolders = matchHolders.sub(totalMatchHolders);\n                    totalMatchHolders = totalMatchHolders.add(matchHolders);\n                    holders[currentRound][digitToCheck] = matchHolders;\n                }\n                if (matchHolders > 0) {\n                    _forClaimer = _forClaimer.add(info.distribution[6 - i]);\n                    roundBonusCoin.bonusMaxPercent = roundBonusCoin\n                        .bonusMaxPercent\n                        .add(info.distribution[6 - i]);\n                }\n            } else\n                _rollover = _rollover.add(\n                    getFraction(\n                        info.pool,\n                        info.distribution[6 - i],\n                        PERCENT_BASE\n                    )\n                );\n        }\n        if (_forClaimer < 10 * ONE__PERCENT) {\n            //Total Won by ticket holders\n            _distributed = getFraction(info.pool, _forClaimer, PERCENT_BASE);\n            if (\n                _distributed <\n                getFraction(\n                    info.totalTickets.mul(info.ticketValue),\n                    devTicketCut,\n                    PERCENT_BASE\n                )\n            ) {\n                _distributed = getFraction(\n                    info.totalTickets.mul(info.ticketValue),\n                    devTicketCut,\n                    PERCENT_BASE\n                ).sub(_distributed);\n                _distributed = getFraction(\n                    _distributed,\n                    distributionShare,\n                    devTicketCut\n                );\n            } else _distributed = 0;\n        } else _distributed = 0;\n        _forClaimer = _forClaimer.mul(claimFee).div(PERCENT_BASE);\n        uint256 nonWinners = info.totalTickets.sub(totalMatchHolders);\n        info.totalWinners = totalMatchHolders;\n        info.winnerDigits = winnerDigits;\n        // Are there any noMatch tickets\n        if (nonWinners == 0)\n            _rollover = _rollover.add(\n                getFraction(\n                    info.pool,\n                    info.distribution[0].sub(_forClaimer),\n                    PERCENT_BASE\n                )\n            );\n        else\n            roundBonusCoin.bonusMaxPercent = roundBonusCoin.bonusMaxPercent.add(\n                info.distribution[0]\n            );\n        if (\n            getFraction(info.pool, burnThreshold, PERCENT_BASE) <=\n            info.totalTickets.mul(info.ticketValue)\n        ) _burn = getFraction(info.pool, burn, PERCENT_BASE);\n        else {\n            _burn = 0;\n            _rollover = _rollover.add(\n                getFraction(info.pool, burn, PERCENT_BASE)\n            );\n        }\n        claimers[currentRound].percent = _forClaimer;\n        _forClaimer = getFraction(info.pool, _forClaimer, PERCENT_BASE);\n    }\n\n    /// @notice Function that gets called by VRF to deliver number and distribute claimer reward\n    /// @param requestId id of VRF request\n    /// @param randomness Random number delivered by VRF\n    function fulfillRandomness(bytes32 requestId, uint256 randomness)\n        internal\n        override\n    {\n        RoundInfo storage info = roundInfo[currentRound];\n        info.winnerNumber = standardTicketNumber(\n            uint32(randomness),\n            WINNER_BASE\n        );\n        distributeCrush();\n        emit WinnerPicked(currentRound, info.winnerNumber, requestId);\n        if (!pause) startRound();\n    }\n\n    /// @notice Function to get the fraction amount from a value\n    /// @param _amount total to be fractioned\n    /// @param _percent percentage to be applied\n    /// @param _base  percentage base, most cases will use PERCENT_BASE since percentage is not used as 100\n    /// @return fraction -> the result of the fraction computation\n    function getFraction(\n        uint256 _amount,\n        uint256 _percent,\n        uint256 _base\n    ) internal pure returns (uint256 fraction) {\n        fraction = _amount.mul(_percent).div(_base);\n    }\n\n    /// @notice Get all participating digits from number\n    /// @param _ticketNumber the ticket number to extract digits from\n    /// @return digits Array of 6, each with the matching pattern\n    function getDigits(uint256 _ticketNumber)\n        internal\n        pure\n        returns (uint256[6] memory digits)\n    {\n        digits[0] = _ticketNumber.div(100000); // WINNER_BASE\n        digits[1] = _ticketNumber.div(10000);\n        digits[2] = _ticketNumber.div(1000);\n        digits[3] = _ticketNumber.div(100);\n        digits[4] = _ticketNumber.div(10);\n        digits[5] = _ticketNumber.div(1);\n    }\n\n    /// @notice requirements to check per round and calculate distributed amount\n    /// @param _ticketId the ticket Id to check\n    /// @param _matchBatch the matching amount of the ticket Id\n    /// @param _currentRound round to check\n    /// @return _distributedAmount Total amount to be distributed\n    function checkTicketRequirements(\n        uint256 _ticketId,\n        uint256 _matchBatch,\n        RoundInfo storage _currentRound\n    ) internal view returns (uint256 _distributedAmount) {\n        require(\n            userNewTickets[msg.sender][_ticketId].ticketNumber > 0,\n            \"!exists\"\n        );\n        require(_matchBatch > 0 && _matchBatch < 7, \"minimum match 1\");\n        require(\n            getDigits(userNewTickets[msg.sender][_ticketId].ticketNumber)[\n                _matchBatch - 1\n            ] == getDigits(_currentRound.winnerNumber)[_matchBatch - 1],\n            \"Not owner|wrong data\"\n        );\n\n        uint256 batchDistribution = _currentRound.distribution[_matchBatch];\n        uint256 batchHolders = holders[\n            userNewTickets[msg.sender][_ticketId].round\n        ][_currentRound.winnerDigits[_matchBatch - 1]];\n        return\n            getFraction(_currentRound.pool, batchDistribution, PERCENT_BASE)\n                .div(batchHolders);\n    }\n\n    /// @notice convert a number into the ticket range\n    /// @param _ticketNumber any number, the used values are the least significant digits\n    /// @param _base base of the ticket, usually WINNER_BASE\n    /// @return uint32 with ticket number value\n    function standardTicketNumber(uint32 _ticketNumber, uint32 _base)\n        internal\n        pure\n        returns (uint32)\n    {\n        uint32 ticketNumber = (_ticketNumber % _base) + _base;\n        return ticketNumber;\n    }\n\n    /// @notice calculate the next round end time\n    /// @param _currentTimestamp current block's timestamp\n    /// @param _hour the next hour to set\n    /// @param _sameDay should the time set be in the next day\n    /// @return _endTimestamp the next end hour\n    function setNextRoundEndTime(\n        uint256 _currentTimestamp,\n        uint256 _hour,\n        bool _sameDay\n    ) internal pure returns (uint256 _endTimestamp) {\n        uint256 nextDay = _sameDay\n            ? _currentTimestamp\n            : SECONDS_PER_DAY.add(_currentTimestamp);\n        (uint256 year, uint256 month, uint256 day) = timestampToDateTime(\n            nextDay\n        );\n        _endTimestamp = timestampFromDateTime(year, month, day, _hour, 0, 0);\n    }\n\n    // -------------------------------------------------------------------`\n    // Timestamp fns taken from BokkyPooBah's DateTime Library\n    //\n    // Gas efficient Solidity date and time library\n    //\n    // https://github.com/bokkypoobah/BokkyPooBahsDateTimeLibrary\n    //\n    // Enjoy. (c) BokkyPooBah / Bok Consulting Pty Ltd 2018.\n    //\n    // GNU Lesser General Public License 3.0\n    // https://www.gnu.org/licenses/lgpl-3.0.en.html\n    // ----------------------------------------------------------------------------\n    function timestampToDateTime(uint256 timestamp)\n        internal\n        pure\n        returns (\n            uint256 year,\n            uint256 month,\n            uint256 day\n        )\n    {\n        (year, month, day) = _daysToDate(timestamp / SECONDS_PER_DAY);\n    }\n\n    function timestampFromDateTime(\n        uint256 year,\n        uint256 month,\n        uint256 day,\n        uint256 hour,\n        uint256 minute,\n        uint256 second\n    ) internal pure returns (uint256 timestamp) {\n        timestamp =\n            _daysFromDate(year, month, day) *\n            SECONDS_PER_DAY +\n            hour *\n            SECONDS_PER_HOUR +\n            minute *\n            SECONDS_PER_MINUTE +\n            second;\n    }\n\n    function _daysToDate(uint256 _days)\n        internal\n        pure\n        returns (\n            uint256 year,\n            uint256 month,\n            uint256 day\n        )\n    {\n        int256 __days = int256(_days);\n\n        int256 L = __days + 68569 + OFFSET19700101;\n        int256 N = (4 * L) / 146097;\n        L = L - (146097 * N + 3) / 4;\n        int256 _year = (4000 * (L + 1)) / 1461001;\n        L = L - (1461 * _year) / 4 + 31;\n        int256 _month = (80 * L) / 2447;\n        int256 _day = L - (2447 * _month) / 80;\n        L = _month / 11;\n        _month = _month + 2 - 12 * L;\n        _year = 100 * (N - 49) + _year + L;\n\n        year = uint256(_year);\n        month = uint256(_month);\n        day = uint256(_day);\n    }\n\n    function _daysFromDate(\n        uint256 year,\n        uint256 month,\n        uint256 day\n    ) internal pure returns (uint256 _days) {\n        require(year >= 1970);\n        int256 _year = int256(year);\n        int256 _month = int256(month);\n        int256 _day = int256(day);\n\n        int256 __days = _day -\n            32075 +\n            (1461 * (_year + 4800 + (_month - 14) / 12)) /\n            4 +\n            (367 * (_month - 2 - ((_month - 14) / 12) * 12)) /\n            12 -\n            (3 * ((_year + 4900 + (_month - 14) / 12) / 100)) /\n            4 -\n            OFFSET19700101;\n\n        _days = uint256(__days);\n    }\n}\n","sourcePath":"contracts/Lottery.sol","type":"contract","deployment":{"address":"0x5979522D00Bd8D9921FcbDA10F1bfD5abD09417f","chainid":"97","blockHeight":17690216}}