{"abi":[{"inputs":[{"internalType":"address","name":"_niceToken","type":"address"},{"internalType":"address","name":"_treasury","type":"address"},{"internalType":"address","name":"_p2e","type":"address"},{"internalType":"uint256","name":"_chains","type":"uint256"}],"stateMutability":"nonpayable","type":"constructor","name":"constructor"},{"anonymous":false,"inputs":[{"indexed":false,"internalType":"uint256","name":"_chainAmount","type":"uint256"}],"name":"ChainUpdate","type":"event"},{"anonymous":false,"inputs":[{"indexed":true,"internalType":"address","name":"user","type":"address"},{"indexed":true,"internalType":"uint256","name":"pid","type":"uint256"},{"indexed":false,"internalType":"uint256","name":"amount","type":"uint256"}],"name":"Deposit","type":"event"},{"anonymous":false,"inputs":[{"indexed":true,"internalType":"address","name":"user","type":"address"},{"indexed":true,"internalType":"uint256","name":"pid","type":"uint256"},{"indexed":false,"internalType":"uint256","name":"amount","type":"uint256"}],"name":"EmergencyWithdraw","type":"event"},{"anonymous":false,"inputs":[{"indexed":false,"internalType":"address","name":"_newAddress","type":"address"},{"indexed":false,"internalType":"bool","name":"_isContract","type":"bool"}],"name":"FeeAddressEdit","type":"event"},{"anonymous":false,"inputs":[{"indexed":false,"internalType":"uint256","name":"number","type":"uint256"},{"indexed":false,"internalType":"string","name":"data","type":"string"}],"name":"LogEvent","type":"event"},{"anonymous":false,"inputs":[{"indexed":true,"internalType":"address","name":"previousOwner","type":"address"},{"indexed":true,"internalType":"address","name":"newOwner","type":"address"}],"name":"OwnershipTransferred","type":"event"},{"anonymous":false,"inputs":[{"indexed":false,"internalType":"address","name":"token","type":"address"},{"indexed":false,"internalType":"uint256","name":"multiplier","type":"uint256"},{"indexed":false,"internalType":"uint256","name":"fee","type":"uint256"},{"indexed":false,"internalType":"bool","name":"_type","type":"bool"},{"indexed":false,"internalType":"uint256","name":"_pid","type":"uint256"}],"name":"PoolAdded","type":"event"},{"anonymous":false,"inputs":[{"indexed":false,"internalType":"uint256","name":"amount","type":"uint256"}],"name":"UpdateEmissions","type":"event"},{"anonymous":false,"inputs":[{"indexed":false,"internalType":"address","name":"_newAddress","type":"address"}],"name":"UpdateP2E","type":"event"},{"anonymous":false,"inputs":[{"indexed":true,"internalType":"uint256","name":"pid","type":"uint256"},{"indexed":false,"internalType":"uint256","name":"mult","type":"uint256"},{"indexed":false,"internalType":"uint256","name":"fee","type":"uint256"}],"name":"UpdatePool","type":"event"},{"anonymous":false,"inputs":[{"indexed":false,"internalType":"uint256[]","name":"pid","type":"uint256[]"},{"indexed":false,"internalType":"uint256[]","name":"mult","type":"uint256[]"}],"name":"UpdatePools","type":"event"},{"anonymous":false,"inputs":[{"indexed":false,"internalType":"address","name":"_newAddress","type":"address"}],"name":"UpdateTreasury","type":"event"},{"anonymous":false,"inputs":[{"indexed":true,"internalType":"address","name":"user","type":"address"},{"indexed":true,"internalType":"uint256","name":"pid","type":"uint256"},{"indexed":false,"internalType":"uint256","name":"amount","type":"uint256"}],"name":"Withdraw","type":"event"},{"inputs":[],"name":"FEE_DIV","outputs":[{"internalType":"uint256","name":"","type":"uint256"}],"stateMutability":"view","type":"function"},{"inputs":[],"name":"NICE","outputs":[{"internalType":"contract NICEToken","name":"","type":"address"}],"stateMutability":"view","type":"function"},{"inputs":[],"name":"PERCENT","outputs":[{"internalType":"uint256","name":"","type":"uint256"}],"stateMutability":"view","type":"function"},{"inputs":[{"internalType":"address","name":"_token","type":"address"},{"internalType":"uint256","name":"_mult","type":"uint256"},{"internalType":"uint256","name":"_fee","type":"uint256"},{"internalType":"bool","name":"_type","type":"bool"},{"internalType":"bool","name":"_isLP","type":"bool"},{"internalType":"uint256[]","name":"_pidEdit","type":"uint256[]"},{"internalType":"uint256[]","name":"_pidMulEdit","type":"uint256[]"}],"name":"addPool","outputs":[],"stateMutability":"nonpayable","type":"function"},{"inputs":[],"name":"chains","outputs":[{"internalType":"uint256","name":"","type":"uint256"}],"stateMutability":"view","type":"function"},{"inputs":[],"name":"chefStart","outputs":[{"internalType":"uint256","name":"","type":"uint256"}],"stateMutability":"view","type":"function"},{"inputs":[],"name":"currentMax","outputs":[{"internalType":"uint256","name":"","type":"uint256"}],"stateMutability":"view","type":"function"},{"inputs":[],"name":"defiPercent","outputs":[{"internalType":"uint256","name":"","type":"uint256"}],"stateMutability":"view","type":"function"},{"inputs":[{"internalType":"uint256","name":"_amount","type":"uint256"},{"internalType":"uint256","name":"_pid","type":"uint256"}],"name":"deposit","outputs":[],"stateMutability":"nonpayable","type":"function"},{"inputs":[],"name":"distributeNonDefi","outputs":[],"stateMutability":"nonpayable","type":"function"},{"inputs":[{"internalType":"bool","name":"_addOrSubstract","type":"bool"}],"name":"editChains","outputs":[],"stateMutability":"nonpayable","type":"function"},{"inputs":[{"internalType":"address","name":"_feeReceiver","type":"address"},{"internalType":"bool","name":"_isContract","type":"bool"}],"name":"editFeeAddress","outputs":[],"stateMutability":"nonpayable","type":"function"},{"inputs":[{"internalType":"uint256","name":"_pid","type":"uint256"},{"internalType":"uint256","name":"_fee","type":"uint256"}],"name":"editPoolFee","outputs":[],"stateMutability":"nonpayable","type":"function"},{"inputs":[{"internalType":"uint256[]","name":"_pidEdit","type":"uint256[]"},{"internalType":"uint256[]","name":"_pidMulEdit","type":"uint256[]"}],"name":"editPoolMult","outputs":[],"stateMutability":"nonpayable","type":"function"},{"inputs":[{"internalType":"uint256","name":"_pid","type":"uint256"}],"name":"emergencyWithdraw","outputs":[],"stateMutability":"nonpayable","type":"function"},{"inputs":[],"name":"feeAddress","outputs":[{"internalType":"address","name":"","type":"address"}],"stateMutability":"view","type":"function"},{"inputs":[],"name":"feeDistributor","outputs":[{"internalType":"contract IFeeDistributor","name":"","type":"address"}],"stateMutability":"view","type":"function"},{"inputs":[{"internalType":"uint256","name":"_yearsPassed","type":"uint256"}],"name":"getAllEmissions","outputs":[{"internalType":"uint256","name":"_treasury","type":"uint256"},{"internalType":"uint256","name":"_defi","type":"uint256"},{"internalType":"uint256","name":"_p2e","type":"uint256"}],"stateMutability":"view","type":"function"},{"inputs":[{"internalType":"uint256","name":"_pid","type":"uint256"}],"name":"getCurrentEmissions","outputs":[{"internalType":"uint256","name":"","type":"uint256"}],"stateMutability":"view","type":"function"},{"inputs":[{"internalType":"uint256","name":"_yearsPassed","type":"uint256"}],"name":"getSecondEmissions","outputs":[{"internalType":"uint256","name":"_emission","type":"uint256"},{"internalType":"uint256","name":"_tEmission","type":"uint256"}],"stateMutability":"view","type":"function"},{"inputs":[{"internalType":"uint256","name":"_yearsPassed","type":"uint256"}],"name":"getYearlyEmissions","outputs":[{"internalType":"uint256","name":"_emission","type":"uint256"},{"internalType":"uint256","name":"_treasuryEmission","type":"uint256"}],"stateMutability":"view","type":"function"},{"inputs":[],"name":"initDiff","outputs":[{"internalType":"uint256","name":"","type":"uint256"}],"stateMutability":"view","type":"function"},{"inputs":[],"name":"initMax","outputs":[{"internalType":"uint256","name":"","type":"uint256"}],"stateMutability":"view","type":"function"},{"inputs":[],"name":"massUpdatePools","outputs":[],"stateMutability":"nonpayable","type":"function"},{"inputs":[],"name":"maxMult","outputs":[{"internalType":"uint256","name":"","type":"uint256"}],"stateMutability":"view","type":"function"},{"inputs":[{"internalType":"uint256","name":"_pid","type":"uint256"}],"name":"mintRewards","outputs":[{"internalType":"uint256","name":"_rewardsGiven","type":"uint256"}],"stateMutability":"nonpayable","type":"function"},{"inputs":[],"name":"nonDefiLastRewardTransfer","outputs":[{"internalType":"uint256","name":"","type":"uint256"}],"stateMutability":"view","type":"function"},{"inputs":[],"name":"owner","outputs":[{"internalType":"address","name":"","type":"address"}],"stateMutability":"view","type":"function"},{"inputs":[],"name":"p2e","outputs":[{"internalType":"address","name":"","type":"address"}],"stateMutability":"view","type":"function"},{"inputs":[],"name":"p2ePercent","outputs":[{"internalType":"uint256","name":"","type":"uint256"}],"stateMutability":"view","type":"function"},{"inputs":[{"internalType":"address","name":"_user","type":"address"},{"internalType":"uint256","name":"_pid","type":"uint256"}],"name":"pendingRewards","outputs":[{"internalType":"uint256","name":"_pendingRewards","type":"uint256"}],"stateMutability":"view","type":"function"},{"inputs":[],"name":"poolCounter","outputs":[{"internalType":"uint256","name":"","type":"uint256"}],"stateMutability":"view","type":"function"},{"inputs":[{"internalType":"uint256","name":"","type":"uint256"}],"name":"poolInfo","outputs":[{"internalType":"bool","name":"poolType","type":"bool"},{"internalType":"uint256","name":"mult","type":"uint256"},{"internalType":"uint256","name":"fee","type":"uint256"},{"internalType":"contract IERC20","name":"token","type":"address"},{"internalType":"uint256","name":"accRewardPerShare","type":"uint256"},{"internalType":"uint256","name":"lastRewardTs","type":"uint256"},{"internalType":"bool","name":"isLP","type":"bool"}],"stateMutability":"view","type":"function"},{"inputs":[],"name":"renounceOwnership","outputs":[],"stateMutability":"nonpayable","type":"function"},{"inputs":[{"internalType":"address","name":"_p2e","type":"address"}],"name":"setP2E","outputs":[],"stateMutability":"nonpayable","type":"function"},{"inputs":[{"internalType":"address","name":"_treasury","type":"address"}],"name":"setTreasury","outputs":[],"stateMutability":"nonpayable","type":"function"},{"inputs":[{"internalType":"address","name":"","type":"address"}],"name":"tokenPools","outputs":[{"internalType":"uint256","name":"","type":"uint256"}],"stateMutability":"view","type":"function"},{"inputs":[{"internalType":"uint256","name":"","type":"uint256"}],"name":"tpPools","outputs":[{"internalType":"address","name":"","type":"address"}],"stateMutability":"view","type":"function"},{"inputs":[{"internalType":"address","name":"newOwner","type":"address"}],"name":"transferOwnership","outputs":[],"stateMutability":"nonpayable","type":"function"},{"inputs":[],"name":"treasury","outputs":[{"internalType":"address","name":"","type":"address"}],"stateMutability":"view","type":"function"},{"inputs":[],"name":"treasuryPercent","outputs":[{"internalType":"uint256","name":"","type":"uint256"}],"stateMutability":"view","type":"function"},{"inputs":[{"internalType":"uint256","name":"_pid","type":"uint256"}],"name":"updatePool","outputs":[],"stateMutability":"nonpayable","type":"function"},{"inputs":[{"internalType":"uint256","name":"","type":"uint256"},{"internalType":"address","name":"","type":"address"}],"name":"userInfo","outputs":[{"internalType":"uint256","name":"amount","type":"uint256"},{"internalType":"uint256","name":"accClaim","type":"uint256"}],"stateMutability":"view","type":"function"},{"inputs":[{"internalType":"uint256","name":"_amount","type":"uint256"},{"internalType":"uint256","name":"_pid","type":"uint256"}],"name":"withdraw","outputs":[],"stateMutability":"nonpayable","type":"function"}],"bytecode":"60e0604052610bb8600255611b586003556101f46004556b06765c793fa10079d000000060a0526b019d971e4fe8401e7400000060c0523480156200004357600080fd5b50604051620031583803806200315883398101604081905262000066916200013f565b6200007133620000d2565b60018055600a80546001600160a01b039586166001600160a01b03199182161790915560068054821633179055600791909155426080819052600c805494861694831694909417909355600d80549290941691161790915560095562000191565b600080546001600160a01b038381166001600160a01b0319831681178455604051919092169283917f8be0079c531659141344cd1fd0a4f28419497f9722a3daafe3b4186f6b6457e09190a35050565b80516001600160a01b03811681146200013a57600080fd5b919050565b600080600080608085870312156200015657600080fd5b620001618562000122565b9350620001716020860162000122565b9250620001816040860162000122565b6060959095015193969295505050565b60805160a05160c051612f43620002156000396000818161061301526121180152600081816104e5015281816120ce015261213e0152600081816102a30152818161086d015281816108b10152818161090401528181611798015281816117f8015281816122e10152818161231e0152818161235a01526123a60152612f436000f3fe608060405234801561001057600080fd5b50600436106102745760003560e01c8063630b5ba111610151578063bc8f71e9116100c3578063e2bbb15811610087578063e2bbb15814610635578063f0f4426014610648578063f2fde38b1461065b578063f5baf4e31461066e578063f76b057f14610677578063faef69071461068a57600080fd5b8063bc8f71e9146105b5578063c3d2c3c1146105c8578063cd95fd59146105e8578063d444a297146105fb578063dab1b2f71461060e57600080fd5b8063890cc13511610115578063890cc135146105075780638da5cb5b146105355780638f2a37fc1461054657806393f1a40b146105595780639e3079cb146105a0578063b85a8b20146105a957600080fd5b8063630b5ba11461049e578063667b72d0146104a65780636a188052146104cf578063715018a6146104d85780637379dd19146104e057600080fd5b8063441a3e70116101ea5780635312ea8e116101ae5780635312ea8e1461043657806358a8b85f146104495780635bf67b62146104525780635e399c59146104655780636099ecb21461047857806361d027b31461048b57600080fd5b8063441a3e70146103ea5780634828ced9146103fd5780634a529ede146104105780634b5edd841461041957806351eb05a61461042357600080fd5b80631526fe271161023c5780631526fe27146102f95780631a88281a146103945780631c6ba137146103a957806326d88c2c146103bc57806330926486146103c457806341275358146103d757600080fd5b806302c549301461027957806304ef9d5814610295578063066a811d1461029e5780630d43e8ad146102c557806310d6221e146102f0575b600080fd5b61028260035481565b6040519081526020015b60405180910390f35b61028260045481565b6102827f000000000000000000000000000000000000000000000000000000000000000081565b600b546102d8906001600160a01b031681565b6040516001600160a01b03909116815260200161028c565b61028260025481565b61035361030736600461294f565b600f60205260009081526040902080546001820154600283015460038401546004850154600586015460069096015460ff95861696949593946001600160a01b03909316939192911687565b6040805197151588526020880196909652948601939093526001600160a01b039091166060850152608084015260a0830152151560c082015260e00161028c565b6103a76103a2366004612984565b61069d565b005b6103a76103b73660046129ad565b610786565b6103a7610859565b600a546102d8906001600160a01b031681565b6006546102d8906001600160a01b031681565b6103a76103f83660046129ca565b610add565b61028261040b36600461294f565b610d0c565b61028260095481565b610282620f424081565b6103a761043136600461294f565b610db9565b6103a761044436600461294f565b610ed3565b61028260075481565b6103a7610460366004612a38565b61103f565b6103a76104733660046129ca565b6110b8565b610282610486366004612aa4565b6111c9565b600c546102d8906001600160a01b031681565b6103a761132a565b6102d86104b436600461294f565b6010602052600090815260409020546001600160a01b031681565b61028260055481565b6103a76113f1565b6102827f000000000000000000000000000000000000000000000000000000000000000081565b61051a61051536600461294f565b611427565b6040805193845260208401929092529082015260600161028c565b6000546001600160a01b03166102d8565b61028261055436600461294f565b611482565b61058b610567366004612ace565b600e6020908152600092835260408084209091529082529020805460019091015482565b6040805192835260208301919091520161028c565b61028260085481565b61028264e8d4a5100081565b6103a76105c3366004612afa565b611508565b6102826105d6366004612984565b60116020526000908152604090205481565b6103a76105f6366004612b31565b611600565b61058b61060936600461294f565b6119f5565b6102827f000000000000000000000000000000000000000000000000000000000000000081565b6103a76106433660046129ca565b611a30565b6103a7610656366004612984565b611f26565b6103a7610669366004612984565b611fff565b61028261271081565b600d546102d8906001600160a01b031681565b61058b61069836600461294f565b612097565b6000546001600160a01b031633146106d05760405162461bcd60e51b81526004016106c790612bec565b60405180910390fd5b6001600160a01b038116158015906106f357506001600160a01b03811661dead14155b6107315760405162461bcd60e51b815260206004820152600f60248201526e4e6f205a65726f204164647265737360881b60448201526064016106c7565b600d80546001600160a01b0319166001600160a01b0383169081179091556040519081527f725d898bb0c7f196e90a0d919ed89aa9fb64953ba3ce1e4e3c40f71ee3e26340906020015b60405180910390a150565b6000546001600160a01b031633146107b05760405162461bcd60e51b81526004016106c790612bec565b6107b861132a565b806107d15760016007546107cc9190612c37565b6107df565b6007546107df906001612c4e565b60078190556108265760405162461bcd60e51b815260206004820152601360248201527243616e74206265207a65726f20636861696e7360681b60448201526064016106c7565b7f719e601b9b72be471271780901afcd4e75f2a1460fb202596014594366d735a460075460405161077b91815260200190565b600954421161086457565b60006301e133807f00000000000000000000000000000000000000000000000000000000000000006009546108999190612c37565b6108a39190612c66565b905060006301e133806108d67f000000000000000000000000000000000000000000000000000000000000000042612c37565b6108e09190612c66565b905060008060008060006108f387611427565b9250509150868611156109b45760007f00000000000000000000000000000000000000000000000000000000000000006109316301e1338089612c88565b61093b9190612c4e565b90506009548161094b9190612c37565b93506109578484612c88565b95506109638483612c88565b945061096e87611427565b91945090925061098090508142612c37565b935061098c8484612c88565b6109969087612c4e565b95506109a28483612c88565b6109ac9086612c4e565b9450506109dc565b6009546109c19042612c37565b92506109cd8383612c88565b94506109d98382612c88565b93505b42600955600a54600c546040516340c10f1960e01b81526001600160a01b039182166004820152602481018890529116906340c10f19906044016020604051808303816000875af1158015610a35573d6000803e3d6000fd5b505050506040513d601f19601f82011682018060405250810190610a599190612ca7565b50600a54600d546040516340c10f1960e01b81526001600160a01b039182166004820152602481018790529116906340c10f19906044016020604051808303816000875af1158015610aaf573d6000803e3d6000fd5b505050506040513d601f19601f82011682018060405250810190610ad39190612ca7565b5050505050505050565b60026001541415610b005760405162461bcd60e51b81526004016106c790612cc4565b60026001556000818152600f60209081526040808320600e8352818420338552909252909120815460ff1615610b6c5760405162461bcd60e51b815260206004820152601160248201527015da5d1a191c985dce88151c08141bdbdb607a1b60448201526064016106c7565b8054841115610bb85760405162461bcd60e51b815260206004820152601860248201527715da5d1a191c985dce881a5b9d985b1a5908185b5bdd5b9d60421b60448201526064016106c7565b610bc183610db9565b6000816001015464e8d4a5100084600401548460000154610be29190612c88565b610bec9190612c66565b610bf69190612c37565b90508015610c7557600a546040516340c10f1960e01b8152336004820152602481018390526001600160a01b03909116906340c10f19906044016020604051808303816000875af1158015610c4f573d6000803e3d6000fd5b505050506040513d601f19601f82011682018060405250810190610c739190612ca7565b505b8415610ca3578154610c88908690612c37565b82556003830154610ca3906001600160a01b0316338761217d565b6004830154825464e8d4a5100091610cba91612c88565b610cc49190612c66565b6001830155604051858152849033907ff279e6a1f5e320cca91135676d9cb6e44ca8a08c0b88342bcdb1144f6511b568906020015b60405180910390a3505060018055505050565b600060026001541415610d315760405162461bcd60e51b81526004016106c790612cc4565b60026001556000828152600f60205260409020805460ff168015610d6b57506000838152601060205260409020546001600160a01b031633145b610da55760405162461bcd60e51b815260206004820152600b60248201526a139bdd081d1c081c1bdbdb60aa1b60448201526064016106c7565b610dae836121e5565b600180559392505050565b610dc1610859565b6000818152600f6020526040808220600381015491516370a0823160e01b81523060048201529092916001600160a01b0316906370a0823190602401602060405180830381865afa158015610e1a573d6000803e3d6000fd5b505050506040513d601f19601f82011682018060405250810190610e3e9190612cfb565b9050816001015460001480610e51575080155b80610e60575081600501544211155b15610e7057504260059091015550565b600081600554610e809190612c88565b90506000818460010154610e9786600501546122d4565b610ea19190612c88565b610eab9190612c66565b4260058601556004850154909150610ec4908290612c4e565b84600401819055505050505050565b60026001541415610ef65760405162461bcd60e51b81526004016106c790612cc4565b60026001556000818152600f60209081526040808320600e8352818420338552909252909120815460ff1615610f625760405162461bcd60e51b81526020600482015260116024820152701dda5d1a191c985dce88151c08141bdbdb607a1b60448201526064016106c7565b8054610fab5760405162461bcd60e51b815260206004820152601860248201527715da5d1a191c985dce881a5b9d985b1a5908185b5bdd5b9d60421b60448201526064016106c7565b805460408051808201825260008082526020808301828152888352600e8252848320338085529252939091209151825591516001909101556003840154610ffe916001600160a01b03909116908361217d565b604051818152849033907fbb757047c2b5f3974fe26b7c10f732e7bce710b0952a71082702781e62ae05959060200160405180910390a35050600180555050565b6000546001600160a01b031633146110695760405162461bcd60e51b81526004016106c790612bec565b611075848484846124a8565b7f2a46f3e26dd9e5eeedeb561e5e212df0d3b0f82ad30bd3b55e548212c057b163848484846040516110aa9493929190612d4a565b60405180910390a150505050565b6000546001600160a01b031633146110e25760405162461bcd60e51b81526004016106c790612bec565b6000828152600f6020526040902060038101546001600160a01b031661113a5760405162461bcd60e51b815260206004820152600d60248201526c19591a5d0e881a5b9d985b1a59609a1b60448201526064016106c7565b6109c482111561117d5760405162461bcd60e51b815260206004820152600e60248201526d656469743a20686967682066656560901b60448201526064016106c7565b600281018290556001810154604080519182526020820184905284917ff5d2d72d9b25d6853afd7d0554a113b705234b6a68bb36b7f143662994632411910160405180910390a2505050565b6000818152600f60209081526040808320600e83528184206001600160a01b03871685529092528220805461120357600092505050611324565b60048281015460038401546040516370a0823160e01b8152309381019390935290916000916001600160a01b0316906370a0823190602401602060405180830381865afa158015611258573d6000803e3d6000fd5b505050506040513d601f19601f8201168201806040525081019061127c9190612cfb565b90508360050154421180156112915750600081115b156112f157600084600101546112aa86600501546122d4565b6112b49190612c88565b9050600064e8d4a51000836005546112cc9190612c88565b6112d69190612c88565b90506112e28183612c66565b6112ec9085612c4e565b935050505b6001830154835464e8d4a51000906113099085612c88565b6113139190612c66565b61131d9190612c37565b9450505050505b92915050565b60015b60085481116113ee577f0d5a0dba7395a48387b3738f86b7958feb691d5f5db50749c87d270ba92ddadc8160405161138a918152604060208201819052600b908201526a706f6f6c2075706461746560a81b606082015260800190565b60405180910390a16000818152600f60205260409020600101546113ad576113dc565b6000818152600f602052604090205460ff166113d1576113cc81610db9565b6113dc565b6113da816121e5565b505b806113e681612d71565b91505061132d565b50565b6000546001600160a01b0316331461141b5760405162461bcd60e51b81526004016106c790612bec565b6114256000612674565b565b6000806000806000611438866119f5565b91509150809450612710600354836114509190612c88565b61145a9190612c66565b92506127106002548361146d9190612c88565b6114779190612c66565b935050509193909250565b6000818152600f6020526040812060038101546001600160a01b031615806114ac57506001810154155b156114ba5750600092915050565b64e8d4a510006005546114cd9190612c88565b60018201546000858152600f60205260409020600501546114ed906122d4565b6114f79190612c88565b6115019190612c66565b9392505050565b6000546001600160a01b031633146115325760405162461bcd60e51b81526004016106c790612bec565b801561155857600b80546001600160a01b0319166001600160a01b0384161790556115b9565b6001600160a01b03821661159d5760405162461bcd60e51b815260206004820152600c60248201526b39b2ba103932b1b2b4bb32b960a11b60448201526064016106c7565b600680546001600160a01b0319166001600160a01b0384161790555b604080516001600160a01b038416815282151560208201527fcd51f9f86222e46143649f996c1603de7585e14c114955985ccc53117ef39f26910160405180910390a15050565b6000546001600160a01b0316331461162a5760405162461bcd60e51b81526004016106c790612bec565b82811461166c5760405162461bcd60e51b815260206004820152601060248201526f6164643a2077726f6e6720656469747360801b60448201526064016106c7565b61138987106116b05760405162461bcd60e51b815260206004820152601060248201526f6164643a20696e76616c69642066656560801b60448201526064016106c7565b6001600160a01b0389166000908152601160205260409020541561170c5760405162461bcd60e51b81526020600482015260136024820152721859190e881d1bdad95b881c995c19585d1959606a1b60448201526064016106c7565b611718848484846124a8565b620f42408860055461172a9190612c4e565b11156117705760405162461bcd60e51b815260206004820152601560248201527430b2321d103bb937b7339036bab63a34b83634b2b960591b60448201526064016106c7565b8760055461177e9190612c4e565b6005556008805490600061179183612d71565b91905055507f0000000000000000000000000000000000000000000000000000000000000000421015611892576040805160e081018252871515815260208082018b81528284018b81526001600160a01b03808f16606086019081526000608087018181527f000000000000000000000000000000000000000000000000000000000000000060a089019081528e151560c08a019081526008548452600f909852989091209651875490151560ff19918216178855945160018801559251600287015551600386018054919092166001600160a01b031990911617905551600484015592516005830155516006909101805491151591909216179055611942565b6040805160e081018252871515815260208082018b81528284018b81526001600160a01b03808f16606086019081526000608087018181524260a089019081528e151560c08a019081526008548452600f909852989091209651875490151560ff19918216178855945160018801559251600287015551600386018054919092166001600160a01b0319909116179055516004840155925160058301555160069091018054911515919092161790555b6008546001600160a01b038a16600090815260116020526040902055851561198f57600854600090815260106020526040902080546001600160a01b0319166001600160a01b038b161790555b600854604080516001600160a01b038c168152602081018b90528082018a905288151560608201526080810192909252517fd5d9095da54a196ff732904e2f9e23dcb985825a8fd9a6b80f9b8d69fca774a29181900360a00190a1505050505050505050565b600080600080611a0485612097565b9092509050611a176301e1338083612c66565b9350611a276301e1338082612c66565b92505050915091565b60026001541415611a535760405162461bcd60e51b81526004016106c790612cc4565b600260019081556000828152600f60209081526040808320600e835281842033855290925290912091810154909190611ac75760405162461bcd60e51b815260206004820152601660248201527511195c1bdcda5d0e88141bdbdb08191a5cd8589b195960521b60448201526064016106c7565b815460ff1615611b0c5760405162461bcd60e51b815260206004820152601060248201526f11195c1bdcda5d0e88151c08141bdbdb60821b60448201526064016106c7565b611b1583610db9565b805415611bd2576000816001015464e8d4a5100084600401548460000154611b3d9190612c88565b611b479190612c66565b611b519190612c37565b90508015611bd057600a546040516340c10f1960e01b8152336004820152602481018390526001600160a01b03909116906340c10f19906044016020604051808303816000875af1158015611baa573d6000803e3d6000fd5b505050506040513d601f19601f82011682018060405250810190611bce9190612ca7565b505b505b838015611ecc57600283015415611ea357612710836002015482611bf69190612c88565b611c009190612c66565b600b549091506001600160a01b0316611c39576006546003840154611c34916001600160a01b0391821691339116846126c4565b611e96565b6003830154600b5460405163095ea7b360e01b81526001600160a01b0391821660048201526024810184905291169063095ea7b3906044016020604051808303816000875af1158015611c90573d6000803e3d6000fd5b505050506040513d601f19601f82011682018060405250810190611cb49190612ca7565b50600b546040516309e690eb60e31b815260048101869052602481018390526001600160a01b0390911690634f34875890604401600060405180830381600087803b158015611d0257600080fd5b505af1925050508015611d13575060015b611e27577f0d5a0dba7395a48387b3738f86b7958feb691d5f5db50749c87d270ba92ddadc81604051611d7d9181526040602082018190526017908201527f4661696c65642046656520446973747269627574696f6e000000000000000000606082015260800190565b60405180910390a16006546003840154611da6916001600160a01b0391821691339116846126c4565b6003830154600b5460405163095ea7b360e01b81526001600160a01b0391821660048201526000602482015291169063095ea7b3906044016020604051808303816000875af1158015611dfd573d6000803e3d6000fd5b505050506040513d601f19601f82011682018060405250810190611e219190612ca7565b50611e96565b7f0d5a0dba7395a48387b3738f86b7958feb691d5f5db50749c87d270ba92ddadc81604051611e8d9181526040602082018190526018908201527f537563636573732046656520446973747269627574696f6e0000000000000000606082015260800190565b60405180910390a15b611ea08186612c37565b90505b8154611eb0908290612c4e565b82556003830154611ecc906001600160a01b03163330846126c4565b6004830154825464e8d4a5100091611ee391612c88565b611eed9190612c66565b6001830155604051858152849033907f90890809c654f11d6e72a28fa60149770a0d11ec6c92319d6ceb2bb0a4ea1a1590602001610cf9565b6000546001600160a01b03163314611f505760405162461bcd60e51b81526004016106c790612bec565b6001600160a01b03811615801590611f7357506001600160a01b03811661dead14155b611fb15760405162461bcd60e51b815260206004820152600f60248201526e4e6f205a65726f204164647265737360881b60448201526064016106c7565b600c80546001600160a01b0319166001600160a01b0383169081179091556040519081527f1f54d231bb9d500b1923e4a1cb25e600f366a8368873d9af7c1c623814df19fc9060200161077b565b6000546001600160a01b031633146120295760405162461bcd60e51b81526004016106c790612bec565b6001600160a01b03811661208e5760405162461bcd60e51b815260206004820152602660248201527f4f776e61626c653a206e6577206f776e657220697320746865207a65726f206160448201526564647265737360d01b60648201526084016106c7565b6113ee81612674565b60008060048311156120ae57506000928392509050565b6120b9836002612e70565b6120c590612710612c88565b6004546120f2907f0000000000000000000000000000000000000000000000000000000000000000612c88565b6120fc9190612c66565b9050612109836002612e70565b8315612116576000612138565b7f00000000000000000000000000000000000000000000000000000000000000005b612162837f0000000000000000000000000000000000000000000000000000000000000000612c37565b61216c9190612c37565b6121769190612c66565b9150915091565b6040516001600160a01b0383166024820152604481018290526121e090849063a9059cbb60e01b906064015b60408051601f198184030181529190526020810180516001600160e01b03166001600160e01b0319909316929092179091526126fc565b505050565b60006121ef610859565b6000828152600f60205260409020600581015442116122115750600092915050565b64e8d4a510006005546122249190612c88565b816001015461223683600501546122d4565b6122409190612c88565b61224a9190612c66565b426005830155600a5460038301546040516340c10f1960e01b81526001600160a01b0391821660048201526024810184905292945016906340c10f19906044016020604051808303816000875af11580156122a9573d6000803e3d6000fd5b505050506040513d601f19601f820116820180604052508101906122cd9190612ca7565b5050919050565b6000806301e133806123067f000000000000000000000000000000000000000000000000000000000000000085612c37565b6123109190612c66565b9050600481118061234057507f000000000000000000000000000000000000000000000000000000000000000042105b1561234e5750600092915050565b60006301e1338061237f7f000000000000000000000000000000000000000000000000000000000000000042612c37565b6123899190612c66565b9050600061239683611427565b509150508282111561246c5760007f00000000000000000000000000000000000000000000000000000000000000006123d36301e1338085612c88565b6123dd9190612c4e565b905060006123eb8783612c37565b60075490915064e8d4a510006124018386612c88565b61240b9190612c88565b6124159190612c66565b955061242084611427565b50935061242f90508242612c37565b60075490915064e8d4a510006124458386612c88565b61244f9190612c88565b6124599190612c66565b6124639087612c4e565b955050506124a0565b60075464e8d4a5100061247f8742612c37565b6124899084612c88565b6124939190612c88565b61249d9190612c66565b93505b505050919050565b826124b25761266e565b60055460005b84811015612622576000600f818888858181106124d7576124d7612e7c565b60209081029290920135835250810191909152604001600020600301546001600160a01b031614156125445760405162461bcd60e51b81526020600482015260166024820152751b5d5b1d0e881b9bdb995e1a5cdd195b9d081c1bdbdb60521b60448201526064016106c7565b61256586868381811061255957612559612e7c565b90506020020135610db9565b83838281811061257757612577612e7c565b90506020020135600f600088888581811061259457612594612e7c565b90506020020135815260200190815260200160002060010154836125b89190612c37565b6125c29190612c4e565b91508383828181106125d6576125d6612e7c565b90506020020135600f60008888858181106125f3576125f3612e7c565b90506020020135815260200190815260200160002060010181905550808061261a90612d71565b9150506124b8565b50620f424081111561266a5760405162461bcd60e51b81526020600482015260116024820152700daead8e87440caf0c6cacac8e640dac2f607b1b60448201526064016106c7565b6005555b50505050565b600080546001600160a01b038381166001600160a01b0319831681178455604051919092169283917f8be0079c531659141344cd1fd0a4f28419497f9722a3daafe3b4186f6b6457e09190a35050565b6040516001600160a01b038085166024830152831660448201526064810182905261266e9085906323b872dd60e01b906084016121a9565b6000612751826040518060400160405280602081526020017f5361666545524332303a206c6f772d6c6576656c2063616c6c206661696c6564815250856001600160a01b03166127ce9092919063ffffffff16565b8051909150156121e0578080602001905181019061276f9190612ca7565b6121e05760405162461bcd60e51b815260206004820152602a60248201527f5361666545524332303a204552433230206f7065726174696f6e20646964206e6044820152691bdd081cdd58d8d9595960b21b60648201526084016106c7565b60606127dd84846000856127e5565b949350505050565b6060824710156128465760405162461bcd60e51b815260206004820152602660248201527f416464726573733a20696e73756666696369656e742062616c616e636520666f6044820152651c8818d85b1b60d21b60648201526084016106c7565b6001600160a01b0385163b61289d5760405162461bcd60e51b815260206004820152601d60248201527f416464726573733a2063616c6c20746f206e6f6e2d636f6e747261637400000060448201526064016106c7565b600080866001600160a01b031685876040516128b99190612ebe565b60006040518083038185875af1925050503d80600081146128f6576040519150601f19603f3d011682016040523d82523d6000602084013e6128fb565b606091505b509150915061290b828286612916565b979650505050505050565b60608315612925575081611501565b8251156129355782518084602001fd5b8160405162461bcd60e51b81526004016106c79190612eda565b60006020828403121561296157600080fd5b5035919050565b80356001600160a01b038116811461297f57600080fd5b919050565b60006020828403121561299657600080fd5b61150182612968565b80151581146113ee57600080fd5b6000602082840312156129bf57600080fd5b81356115018161299f565b600080604083850312156129dd57600080fd5b50508035926020909101359150565b60008083601f8401126129fe57600080fd5b50813567ffffffffffffffff811115612a1657600080fd5b6020830191508360208260051b8501011115612a3157600080fd5b9250929050565b60008060008060408587031215612a4e57600080fd5b843567ffffffffffffffff80821115612a6657600080fd5b612a72888389016129ec565b90965094506020870135915080821115612a8b57600080fd5b50612a98878288016129ec565b95989497509550505050565b60008060408385031215612ab757600080fd5b612ac083612968565b946020939093013593505050565b60008060408385031215612ae157600080fd5b82359150612af160208401612968565b90509250929050565b60008060408385031215612b0d57600080fd5b612b1683612968565b91506020830135612b268161299f565b809150509250929050565b600080600080600080600080600060e08a8c031215612b4f57600080fd5b612b588a612968565b985060208a0135975060408a0135965060608a0135612b768161299f565b955060808a0135612b868161299f565b945060a08a013567ffffffffffffffff80821115612ba357600080fd5b612baf8d838e016129ec565b909650945060c08c0135915080821115612bc857600080fd5b50612bd58c828d016129ec565b915080935050809150509295985092959850929598565b6020808252818101527f4f776e61626c653a2063616c6c6572206973206e6f7420746865206f776e6572604082015260600190565b634e487b7160e01b600052601160045260246000fd5b600082821015612c4957612c49612c21565b500390565b60008219821115612c6157612c61612c21565b500190565b600082612c8357634e487b7160e01b600052601260045260246000fd5b500490565b6000816000190483118215151615612ca257612ca2612c21565b500290565b600060208284031215612cb957600080fd5b81516115018161299f565b6020808252601f908201527f5265656e7472616e637947756172643a207265656e7472616e742063616c6c00604082015260600190565b600060208284031215612d0d57600080fd5b5051919050565b81835260006001600160fb1b03831115612d2d57600080fd5b8260051b8083602087013760009401602001938452509192915050565b604081526000612d5e604083018688612d14565b828103602084015261290b818587612d14565b6000600019821415612d8557612d85612c21565b5060010190565b600181815b80851115612dc7578160001904821115612dad57612dad612c21565b80851615612dba57918102915b93841c9390800290612d91565b509250929050565b600082612dde57506001611324565b81612deb57506000611324565b8160018114612e015760028114612e0b57612e27565b6001915050611324565b60ff841115612e1c57612e1c612c21565b50506001821b611324565b5060208310610133831016604e8410600b8410161715612e4a575081810a611324565b612e548383612d8c565b8060001904821115612e6857612e68612c21565b029392505050565b60006115018383612dcf565b634e487b7160e01b600052603260045260246000fd5b60005b83811015612ead578181015183820152602001612e95565b8381111561266e5750506000910152565b60008251612ed0818460208701612e92565b9190910192915050565b6020815260008251806020840152612ef9816040850160208701612e92565b601f01601f1916919091016040019291505056fea26469706673582212204d02d635874ace3e684750100f74b15ca40d8ba546b9b544619190ff7b1dbe5a64736f6c634300080c0033","bytecodeSha1":"fbfbb709e5c0266d4d65b678933187cf3b6240fc","compiler":{"evm_version":"istanbul","optimizer":{"enabled":true,"runs":200},"version":"0.8.12+commit.f00d7308"},"contractName":"GalacticChef","language":"Solidity","natspec":{"details":"use interface IGalacticChef","kind":"dev","methods":{"addPool(address,uint256,uint256,bool,bool,uint256[],uint256[])":{"notice":"Add Farm of a specific token","params":{"_fee":"the fee to deposit on the pool","_isLP":"is the token an LP token","_mult":"the multiplier the pool will have","_pidEdit":"is it a regular pool or a third party pool ( TRUE = ThirdParty )","_pidMulEdit":"is it a regular pool or a third party pool ( TRUE = ThirdParty )","_token":"the token that will be collected, Taken as address since ThirdParty pools will handle their own logic","_type":"is it a regular pool or a third party pool ( TRUE = ThirdParty )"}},"deposit(uint256,uint256)":{"notice":"Allows user to deposit pool token to chef. Transfers rewards to user.","params":{"_amount":"Amount of pool tokens to stake","_pid":"Pool ID which indicates the type of token"}},"editChains(bool)":{"notice":"Edits the amount of chains to which emissions are split This factor is used in the emissions calculation","params":{"_addOrSubstract":"TRUE = ADD ; FALSE = SUBSTRACT"}},"editFeeAddress(address,bool)":{"details":"remove of contract is achievable by adding the Address 0 to it and setting _isContract to True","notice":"Edit the address used to Receive Fees","params":{"_feeReceiver":"the Address to use","_isContract":"if the address is a FeeDistributor Contract"}},"editPoolFee(uint256,uint256)":{"notice":"Edits pool fee and updates pools with new params","params":{"_fee":"New pool fee","_pid":"Pool Id"}},"editPoolMult(uint256[],uint256[])":{"notice":"Edits the pool multiplier and updates pools with new params","params":{"_pidEdit":"Pool ID","_pidMulEdit":"New multiplier"}},"emergencyWithdraw(uint256)":{"notice":"Emergency withdraws all the pool tokens from chef. In this case there's no reward.","params":{"_pid":"Pool ID which indicates the type of token"}},"getCurrentEmissions(uint256)":{"notice":"getCurrentEmissions allows external users to get the current reward emissions It Uses getTimeEmissions to get the current emissions for the pool between last reward emission and current emission","params":{"_pid":"Pool Id  from which we need emissions calculated"},"returns":{"_0":"_emissions emissions for the given pool between"}},"massUpdatePools()":{"details":"this might be expensive to call...","notice":"Update all pools accPerShare"},"mintRewards(uint256)":{"notice":"This is for Third party pools only. This handles the reward.","params":{"_pid":"ID of the third party pool that requests minted rewards"},"returns":{"_rewardsGiven":"Amount of rewards minted to the third party pool"}},"owner()":{"details":"Returns the address of the current owner."},"pendingRewards(address,uint256)":{"notice":"this is for frontend only, calculates the pending reward for a particular user in a specific pool.","params":{"_pid":"Pool Id to calculate rewards of","_user":"User to calculate rewards to"}},"renounceOwnership()":{"details":"Leaves the contract without owner. It will not be possible to call `onlyOwner` functions anymore. Can only be called by the current owner. NOTE: Renouncing ownership will leave the contract without an owner, thereby removing any functionality that is only available to the owner."},"transferOwnership(address)":{"details":"Transfers ownership of the contract to a new account (`newOwner`). Can only be called by the current owner."},"updatePool(uint256)":{"notice":"Update the accRewardPerShare for a specific pool","params":{"_pid":"Pool Id to update the accumulated rewards"}},"withdraw(uint256,uint256)":{"notice":"Withdraws pool token from chef. Transfers rewards to user.","params":{"_amount":"Amount of pool tokens to withdraw.","_pid":"Pool ID which indicates the type of token"}}},"version":1},"opcodes":"PUSH1 0x80 PUSH1 0x40 MSTORE CALLVALUE DUP1 ISZERO PUSH2 0x10 JUMPI PUSH1 0x0 DUP1 REVERT JUMPDEST POP PUSH1 0x4 CALLDATASIZE LT PUSH2 0x274 JUMPI PUSH1 0x0 CALLDATALOAD PUSH1 0xE0 SHR DUP1 PUSH4 0x630B5BA1 GT PUSH2 0x151 JUMPI DUP1 PUSH4 0xBC8F71E9 GT PUSH2 0xC3 JUMPI DUP1 PUSH4 0xE2BBB158 GT PUSH2 0x87 JUMPI DUP1 PUSH4 0xE2BBB158 EQ PUSH2 0x635 JUMPI DUP1 PUSH4 0xF0F44260 EQ PUSH2 0x648 JUMPI DUP1 PUSH4 0xF2FDE38B EQ PUSH2 0x65B JUMPI DUP1 PUSH4 0xF5BAF4E3 EQ PUSH2 0x66E JUMPI DUP1 PUSH4 0xF76B057F EQ PUSH2 0x677 JUMPI DUP1 PUSH4 0xFAEF6907 EQ PUSH2 0x68A JUMPI PUSH1 0x0 DUP1 REVERT JUMPDEST DUP1 PUSH4 0xBC8F71E9 EQ PUSH2 0x5B5 JUMPI DUP1 PUSH4 0xC3D2C3C1 EQ PUSH2 0x5C8 JUMPI DUP1 PUSH4 0xCD95FD59 EQ PUSH2 0x5E8 JUMPI DUP1 PUSH4 0xD444A297 EQ PUSH2 0x5FB JUMPI DUP1 PUSH4 0xDAB1B2F7 EQ PUSH2 0x60E JUMPI PUSH1 0x0 DUP1 REVERT JUMPDEST DUP1 PUSH4 0x890CC135 GT PUSH2 0x115 JUMPI DUP1 PUSH4 0x890CC135 EQ PUSH2 0x507 JUMPI DUP1 PUSH4 0x8DA5CB5B EQ PUSH2 0x535 JUMPI DUP1 PUSH4 0x8F2A37FC EQ PUSH2 0x546 JUMPI DUP1 PUSH4 0x93F1A40B EQ PUSH2 0x559 JUMPI DUP1 PUSH4 0x9E3079CB EQ PUSH2 0x5A0 JUMPI DUP1 PUSH4 0xB85A8B20 EQ PUSH2 0x5A9 JUMPI PUSH1 0x0 DUP1 REVERT JUMPDEST DUP1 PUSH4 0x630B5BA1 EQ PUSH2 0x49E JUMPI DUP1 PUSH4 0x667B72D0 EQ PUSH2 0x4A6 JUMPI DUP1 PUSH4 0x6A188052 EQ PUSH2 0x4CF JUMPI DUP1 PUSH4 0x715018A6 EQ PUSH2 0x4D8 JUMPI DUP1 PUSH4 0x7379DD19 EQ PUSH2 0x4E0 JUMPI PUSH1 0x0 DUP1 REVERT JUMPDEST DUP1 PUSH4 0x441A3E70 GT PUSH2 0x1EA JUMPI DUP1 PUSH4 0x5312EA8E GT PUSH2 0x1AE JUMPI DUP1 PUSH4 0x5312EA8E EQ PUSH2 0x436 JUMPI DUP1 PUSH4 0x58A8B85F EQ PUSH2 0x449 JUMPI DUP1 PUSH4 0x5BF67B62 EQ PUSH2 0x452 JUMPI DUP1 PUSH4 0x5E399C59 EQ PUSH2 0x465 JUMPI DUP1 PUSH4 0x6099ECB2 EQ PUSH2 0x478 JUMPI DUP1 PUSH4 0x61D027B3 EQ PUSH2 0x48B JUMPI PUSH1 0x0 DUP1 REVERT JUMPDEST DUP1 PUSH4 0x441A3E70 EQ PUSH2 0x3EA JUMPI DUP1 PUSH4 0x4828CED9 EQ PUSH2 0x3FD JUMPI DUP1 PUSH4 0x4A529EDE EQ PUSH2 0x410 JUMPI DUP1 PUSH4 0x4B5EDD84 EQ PUSH2 0x419 JUMPI DUP1 PUSH4 0x51EB05A6 EQ PUSH2 0x423 JUMPI PUSH1 0x0 DUP1 REVERT JUMPDEST DUP1 PUSH4 0x1526FE27 GT PUSH2 0x23C JUMPI DUP1 PUSH4 0x1526FE27 EQ PUSH2 0x2F9 JUMPI DUP1 PUSH4 0x1A88281A EQ PUSH2 0x394 JUMPI DUP1 PUSH4 0x1C6BA137 EQ PUSH2 0x3A9 JUMPI DUP1 PUSH4 0x26D88C2C EQ PUSH2 0x3BC JUMPI DUP1 PUSH4 0x30926486 EQ PUSH2 0x3C4 JUMPI DUP1 PUSH4 0x41275358 EQ PUSH2 0x3D7 JUMPI PUSH1 0x0 DUP1 REVERT JUMPDEST DUP1 PUSH4 0x2C54930 EQ PUSH2 0x279 JUMPI DUP1 PUSH4 0x4EF9D58 EQ PUSH2 0x295 JUMPI DUP1 PUSH4 0x66A811D EQ PUSH2 0x29E JUMPI DUP1 PUSH4 0xD43E8AD EQ PUSH2 0x2C5 JUMPI DUP1 PUSH4 0x10D6221E EQ PUSH2 0x2F0 JUMPI JUMPDEST PUSH1 0x0 DUP1 REVERT JUMPDEST PUSH2 0x282 PUSH1 0x3 SLOAD DUP2 JUMP JUMPDEST PUSH1 0x40 MLOAD SWAP1 DUP2 MSTORE PUSH1 0x20 ADD JUMPDEST PUSH1 0x40 MLOAD DUP1 SWAP2 SUB SWAP1 RETURN JUMPDEST PUSH2 0x282 PUSH1 0x4 SLOAD DUP2 JUMP JUMPDEST PUSH2 0x282 PUSH32 0x0 DUP2 JUMP JUMPDEST PUSH1 0xB SLOAD PUSH2 0x2D8 SWAP1 PUSH1 0x1 PUSH1 0x1 PUSH1 0xA0 SHL SUB AND DUP2 JUMP JUMPDEST PUSH1 0x40 MLOAD PUSH1 0x1 PUSH1 0x1 PUSH1 0xA0 SHL SUB SWAP1 SWAP2 AND DUP2 MSTORE PUSH1 0x20 ADD PUSH2 0x28C JUMP JUMPDEST PUSH2 0x282 PUSH1 0x2 SLOAD DUP2 JUMP JUMPDEST PUSH2 0x353 PUSH2 0x307 CALLDATASIZE PUSH1 0x4 PUSH2 0x294F JUMP JUMPDEST PUSH1 0xF PUSH1 0x20 MSTORE PUSH1 0x0 SWAP1 DUP2 MSTORE PUSH1 0x40 SWAP1 KECCAK256 DUP1 SLOAD PUSH1 0x1 DUP3 ADD SLOAD PUSH1 0x2 DUP4 ADD SLOAD PUSH1 0x3 DUP5 ADD SLOAD PUSH1 0x4 DUP6 ADD SLOAD PUSH1 0x5 DUP7 ADD SLOAD PUSH1 0x6 SWAP1 SWAP7 ADD SLOAD PUSH1 0xFF SWAP6 DUP7 AND SWAP7 SWAP5 SWAP6 SWAP4 SWAP5 PUSH1 0x1 PUSH1 0x1 PUSH1 0xA0 SHL SUB SWAP1 SWAP4 AND SWAP4 SWAP2 SWAP3 SWAP2 AND DUP8 JUMP JUMPDEST PUSH1 0x40 DUP1 MLOAD SWAP8 ISZERO ISZERO DUP9 MSTORE PUSH1 0x20 DUP9 ADD SWAP7 SWAP1 SWAP7 MSTORE SWAP5 DUP7 ADD SWAP4 SWAP1 SWAP4 MSTORE PUSH1 0x1 PUSH1 0x1 PUSH1 0xA0 SHL SUB SWAP1 SWAP2 AND PUSH1 0x60 DUP6 ADD MSTORE PUSH1 0x80 DUP5 ADD MSTORE PUSH1 0xA0 DUP4 ADD MSTORE ISZERO ISZERO PUSH1 0xC0 DUP3 ADD MSTORE PUSH1 0xE0 ADD PUSH2 0x28C JUMP JUMPDEST PUSH2 0x3A7 PUSH2 0x3A2 CALLDATASIZE PUSH1 0x4 PUSH2 0x2984 JUMP JUMPDEST PUSH2 0x69D JUMP JUMPDEST STOP JUMPDEST PUSH2 0x3A7 PUSH2 0x3B7 CALLDATASIZE PUSH1 0x4 PUSH2 0x29AD JUMP JUMPDEST PUSH2 0x786 JUMP JUMPDEST PUSH2 0x3A7 PUSH2 0x859 JUMP JUMPDEST PUSH1 0xA SLOAD PUSH2 0x2D8 SWAP1 PUSH1 0x1 PUSH1 0x1 PUSH1 0xA0 SHL SUB AND DUP2 JUMP JUMPDEST PUSH1 0x6 SLOAD PUSH2 0x2D8 SWAP1 PUSH1 0x1 PUSH1 0x1 PUSH1 0xA0 SHL SUB AND DUP2 JUMP JUMPDEST PUSH2 0x3A7 PUSH2 0x3F8 CALLDATASIZE PUSH1 0x4 PUSH2 0x29CA JUMP JUMPDEST PUSH2 0xADD JUMP JUMPDEST PUSH2 0x282 PUSH2 0x40B CALLDATASIZE PUSH1 0x4 PUSH2 0x294F JUMP JUMPDEST PUSH2 0xD0C JUMP JUMPDEST PUSH2 0x282 PUSH1 0x9 SLOAD DUP2 JUMP JUMPDEST PUSH2 0x282 PUSH3 0xF4240 DUP2 JUMP JUMPDEST PUSH2 0x3A7 PUSH2 0x431 CALLDATASIZE PUSH1 0x4 PUSH2 0x294F JUMP JUMPDEST PUSH2 0xDB9 JUMP JUMPDEST PUSH2 0x3A7 PUSH2 0x444 CALLDATASIZE PUSH1 0x4 PUSH2 0x294F JUMP JUMPDEST PUSH2 0xED3 JUMP JUMPDEST PUSH2 0x282 PUSH1 0x7 SLOAD DUP2 JUMP JUMPDEST PUSH2 0x3A7 PUSH2 0x460 CALLDATASIZE PUSH1 0x4 PUSH2 0x2A38 JUMP JUMPDEST PUSH2 0x103F JUMP JUMPDEST PUSH2 0x3A7 PUSH2 0x473 CALLDATASIZE PUSH1 0x4 PUSH2 0x29CA JUMP JUMPDEST PUSH2 0x10B8 JUMP JUMPDEST PUSH2 0x282 PUSH2 0x486 CALLDATASIZE PUSH1 0x4 PUSH2 0x2AA4 JUMP JUMPDEST PUSH2 0x11C9 JUMP JUMPDEST PUSH1 0xC SLOAD PUSH2 0x2D8 SWAP1 PUSH1 0x1 PUSH1 0x1 PUSH1 0xA0 SHL SUB AND DUP2 JUMP JUMPDEST PUSH2 0x3A7 PUSH2 0x132A JUMP JUMPDEST PUSH2 0x2D8 PUSH2 0x4B4 CALLDATASIZE PUSH1 0x4 PUSH2 0x294F JUMP JUMPDEST PUSH1 0x10 PUSH1 0x20 MSTORE PUSH1 0x0 SWAP1 DUP2 MSTORE PUSH1 0x40 SWAP1 KECCAK256 SLOAD PUSH1 0x1 PUSH1 0x1 PUSH1 0xA0 SHL SUB AND DUP2 JUMP JUMPDEST PUSH2 0x282 PUSH1 0x5 SLOAD DUP2 JUMP JUMPDEST PUSH2 0x3A7 PUSH2 0x13F1 JUMP JUMPDEST PUSH2 0x282 PUSH32 0x0 DUP2 JUMP JUMPDEST PUSH2 0x51A PUSH2 0x515 CALLDATASIZE PUSH1 0x4 PUSH2 0x294F JUMP JUMPDEST PUSH2 0x1427 JUMP JUMPDEST PUSH1 0x40 DUP1 MLOAD SWAP4 DUP5 MSTORE PUSH1 0x20 DUP5 ADD SWAP3 SWAP1 SWAP3 MSTORE SWAP1 DUP3 ADD MSTORE PUSH1 0x60 ADD PUSH2 0x28C JUMP JUMPDEST PUSH1 0x0 SLOAD PUSH1 0x1 PUSH1 0x1 PUSH1 0xA0 SHL SUB AND PUSH2 0x2D8 JUMP JUMPDEST PUSH2 0x282 PUSH2 0x554 CALLDATASIZE PUSH1 0x4 PUSH2 0x294F JUMP JUMPDEST PUSH2 0x1482 JUMP JUMPDEST PUSH2 0x58B PUSH2 0x567 CALLDATASIZE PUSH1 0x4 PUSH2 0x2ACE JUMP JUMPDEST PUSH1 0xE PUSH1 0x20 SWAP1 DUP2 MSTORE PUSH1 0x0 SWAP3 DUP4 MSTORE PUSH1 0x40 DUP1 DUP5 KECCAK256 SWAP1 SWAP2 MSTORE SWAP1 DUP3 MSTORE SWAP1 KECCAK256 DUP1 SLOAD PUSH1 0x1 SWAP1 SWAP2 ADD SLOAD DUP3 JUMP JUMPDEST PUSH1 0x40 DUP1 MLOAD SWAP3 DUP4 MSTORE PUSH1 0x20 DUP4 ADD SWAP2 SWAP1 SWAP2 MSTORE ADD PUSH2 0x28C JUMP JUMPDEST PUSH2 0x282 PUSH1 0x8 SLOAD DUP2 JUMP JUMPDEST PUSH2 0x282 PUSH5 0xE8D4A51000 DUP2 JUMP JUMPDEST PUSH2 0x3A7 PUSH2 0x5C3 CALLDATASIZE PUSH1 0x4 PUSH2 0x2AFA JUMP JUMPDEST PUSH2 0x1508 JUMP JUMPDEST PUSH2 0x282 PUSH2 0x5D6 CALLDATASIZE PUSH1 0x4 PUSH2 0x2984 JUMP JUMPDEST PUSH1 0x11 PUSH1 0x20 MSTORE PUSH1 0x0 SWAP1 DUP2 MSTORE PUSH1 0x40 SWAP1 KECCAK256 SLOAD DUP2 JUMP JUMPDEST PUSH2 0x3A7 PUSH2 0x5F6 CALLDATASIZE PUSH1 0x4 PUSH2 0x2B31 JUMP JUMPDEST PUSH2 0x1600 JUMP JUMPDEST PUSH2 0x58B PUSH2 0x609 CALLDATASIZE PUSH1 0x4 PUSH2 0x294F JUMP JUMPDEST PUSH2 0x19F5 JUMP JUMPDEST PUSH2 0x282 PUSH32 0x0 DUP2 JUMP JUMPDEST PUSH2 0x3A7 PUSH2 0x643 CALLDATASIZE PUSH1 0x4 PUSH2 0x29CA JUMP JUMPDEST PUSH2 0x1A30 JUMP JUMPDEST PUSH2 0x3A7 PUSH2 0x656 CALLDATASIZE PUSH1 0x4 PUSH2 0x2984 JUMP JUMPDEST PUSH2 0x1F26 JUMP JUMPDEST PUSH2 0x3A7 PUSH2 0x669 CALLDATASIZE PUSH1 0x4 PUSH2 0x2984 JUMP JUMPDEST PUSH2 0x1FFF JUMP JUMPDEST PUSH2 0x282 PUSH2 0x2710 DUP2 JUMP JUMPDEST PUSH1 0xD SLOAD PUSH2 0x2D8 SWAP1 PUSH1 0x1 PUSH1 0x1 PUSH1 0xA0 SHL SUB AND DUP2 JUMP JUMPDEST PUSH2 0x58B PUSH2 0x698 CALLDATASIZE PUSH1 0x4 PUSH2 0x294F JUMP JUMPDEST PUSH2 0x2097 JUMP JUMPDEST PUSH1 0x0 SLOAD PUSH1 0x1 PUSH1 0x1 PUSH1 0xA0 SHL SUB AND CALLER EQ PUSH2 0x6D0 JUMPI PUSH1 0x40 MLOAD PUSH3 0x461BCD PUSH1 0xE5 SHL DUP2 MSTORE PUSH1 0x4 ADD PUSH2 0x6C7 SWAP1 PUSH2 0x2BEC JUMP JUMPDEST PUSH1 0x40 MLOAD DUP1 SWAP2 SUB SWAP1 REVERT JUMPDEST PUSH1 0x1 PUSH1 0x1 PUSH1 0xA0 SHL SUB DUP2 AND ISZERO DUP1 ISZERO SWAP1 PUSH2 0x6F3 JUMPI POP PUSH1 0x1 PUSH1 0x1 PUSH1 0xA0 SHL SUB DUP2 AND PUSH2 0xDEAD EQ ISZERO JUMPDEST PUSH2 0x731 JUMPI PUSH1 0x40 MLOAD PUSH3 0x461BCD PUSH1 0xE5 SHL DUP2 MSTORE PUSH1 0x20 PUSH1 0x4 DUP3 ADD MSTORE PUSH1 0xF PUSH1 0x24 DUP3 ADD MSTORE PUSH15 0x4E6F205A65726F2041646472657373 PUSH1 0x88 SHL PUSH1 0x44 DUP3 ADD MSTORE PUSH1 0x64 ADD PUSH2 0x6C7 JUMP JUMPDEST PUSH1 0xD DUP1 SLOAD PUSH1 0x1 PUSH1 0x1 PUSH1 0xA0 SHL SUB NOT AND PUSH1 0x1 PUSH1 0x1 PUSH1 0xA0 SHL SUB DUP4 AND SWAP1 DUP2 OR SWAP1 SWAP2 SSTORE PUSH1 0x40 MLOAD SWAP1 DUP2 MSTORE PUSH32 0x725D898BB0C7F196E90A0D919ED89AA9FB64953BA3CE1E4E3C40F71EE3E26340 SWAP1 PUSH1 0x20 ADD JUMPDEST PUSH1 0x40 MLOAD DUP1 SWAP2 SUB SWAP1 LOG1 POP JUMP JUMPDEST PUSH1 0x0 SLOAD PUSH1 0x1 PUSH1 0x1 PUSH1 0xA0 SHL SUB AND CALLER EQ PUSH2 0x7B0 JUMPI PUSH1 0x40 MLOAD PUSH3 0x461BCD PUSH1 0xE5 SHL DUP2 MSTORE PUSH1 0x4 ADD PUSH2 0x6C7 SWAP1 PUSH2 0x2BEC JUMP JUMPDEST PUSH2 0x7B8 PUSH2 0x132A JUMP JUMPDEST DUP1 PUSH2 0x7D1 JUMPI PUSH1 0x1 PUSH1 0x7 SLOAD PUSH2 0x7CC SWAP2 SWAP1 PUSH2 0x2C37 JUMP JUMPDEST PUSH2 0x7DF JUMP JUMPDEST PUSH1 0x7 SLOAD PUSH2 0x7DF SWAP1 PUSH1 0x1 PUSH2 0x2C4E JUMP JUMPDEST PUSH1 0x7 DUP2 SWAP1 SSTORE PUSH2 0x826 JUMPI PUSH1 0x40 MLOAD PUSH3 0x461BCD PUSH1 0xE5 SHL DUP2 MSTORE PUSH1 0x20 PUSH1 0x4 DUP3 ADD MSTORE PUSH1 0x13 PUSH1 0x24 DUP3 ADD MSTORE PUSH19 0x43616E74206265207A65726F20636861696E73 PUSH1 0x68 SHL PUSH1 0x44 DUP3 ADD MSTORE PUSH1 0x64 ADD PUSH2 0x6C7 JUMP JUMPDEST PUSH32 0x719E601B9B72BE471271780901AFCD4E75F2A1460FB202596014594366D735A4 PUSH1 0x7 SLOAD PUSH1 0x40 MLOAD PUSH2 0x77B SWAP2 DUP2 MSTORE PUSH1 0x20 ADD SWAP1 JUMP JUMPDEST PUSH1 0x9 SLOAD TIMESTAMP GT PUSH2 0x864 JUMPI JUMP JUMPDEST PUSH1 0x0 PUSH4 0x1E13380 PUSH32 0x0 PUSH1 0x9 SLOAD PUSH2 0x899 SWAP2 SWAP1 PUSH2 0x2C37 JUMP JUMPDEST PUSH2 0x8A3 SWAP2 SWAP1 PUSH2 0x2C66 JUMP JUMPDEST SWAP1 POP PUSH1 0x0 PUSH4 0x1E13380 PUSH2 0x8D6 PUSH32 0x0 TIMESTAMP PUSH2 0x2C37 JUMP JUMPDEST PUSH2 0x8E0 SWAP2 SWAP1 PUSH2 0x2C66 JUMP JUMPDEST SWAP1 POP PUSH1 0x0 DUP1 PUSH1 0x0 DUP1 PUSH1 0x0 PUSH2 0x8F3 DUP8 PUSH2 0x1427 JUMP JUMPDEST SWAP3 POP POP SWAP2 POP DUP7 DUP7 GT ISZERO PUSH2 0x9B4 JUMPI PUSH1 0x0 PUSH32 0x0 PUSH2 0x931 PUSH4 0x1E13380 DUP10 PUSH2 0x2C88 JUMP JUMPDEST PUSH2 0x93B SWAP2 SWAP1 PUSH2 0x2C4E JUMP JUMPDEST SWAP1 POP PUSH1 0x9 SLOAD DUP2 PUSH2 0x94B SWAP2 SWAP1 PUSH2 0x2C37 JUMP JUMPDEST SWAP4 POP PUSH2 0x957 DUP5 DUP5 PUSH2 0x2C88 JUMP JUMPDEST SWAP6 POP PUSH2 0x963 DUP5 DUP4 PUSH2 0x2C88 JUMP JUMPDEST SWAP5 POP PUSH2 0x96E DUP8 PUSH2 0x1427 JUMP JUMPDEST SWAP2 SWAP5 POP SWAP1 SWAP3 POP PUSH2 0x980 SWAP1 POP DUP2 TIMESTAMP PUSH2 0x2C37 JUMP JUMPDEST SWAP4 POP PUSH2 0x98C DUP5 DUP5 PUSH2 0x2C88 JUMP JUMPDEST PUSH2 0x996 SWAP1 DUP8 PUSH2 0x2C4E JUMP JUMPDEST SWAP6 POP PUSH2 0x9A2 DUP5 DUP4 PUSH2 0x2C88 JUMP JUMPDEST PUSH2 0x9AC SWAP1 DUP7 PUSH2 0x2C4E JUMP JUMPDEST SWAP5 POP POP PUSH2 0x9DC JUMP JUMPDEST PUSH1 0x9 SLOAD PUSH2 0x9C1 SWAP1 TIMESTAMP PUSH2 0x2C37 JUMP JUMPDEST SWAP3 POP PUSH2 0x9CD DUP4 DUP4 PUSH2 0x2C88 JUMP JUMPDEST SWAP5 POP PUSH2 0x9D9 DUP4 DUP3 PUSH2 0x2C88 JUMP JUMPDEST SWAP4 POP JUMPDEST TIMESTAMP PUSH1 0x9 SSTORE PUSH1 0xA SLOAD PUSH1 0xC SLOAD PUSH1 0x40 MLOAD PUSH4 0x40C10F19 PUSH1 0xE0 SHL DUP2 MSTORE PUSH1 0x1 PUSH1 0x1 PUSH1 0xA0 SHL SUB SWAP2 DUP3 AND PUSH1 0x4 DUP3 ADD MSTORE PUSH1 0x24 DUP2 ADD DUP9 SWAP1 MSTORE SWAP2 AND SWAP1 PUSH4 0x40C10F19 SWAP1 PUSH1 0x44 ADD PUSH1 0x20 PUSH1 0x40 MLOAD DUP1 DUP4 SUB DUP2 PUSH1 0x0 DUP8 GAS CALL ISZERO DUP1 ISZERO PUSH2 0xA35 JUMPI RETURNDATASIZE PUSH1 0x0 DUP1 RETURNDATACOPY RETURNDATASIZE PUSH1 0x0 REVERT JUMPDEST POP POP POP POP PUSH1 0x40 MLOAD RETURNDATASIZE PUSH1 0x1F NOT PUSH1 0x1F DUP3 ADD AND DUP3 ADD DUP1 PUSH1 0x40 MSTORE POP DUP2 ADD SWAP1 PUSH2 0xA59 SWAP2 SWAP1 PUSH2 0x2CA7 JUMP JUMPDEST POP PUSH1 0xA SLOAD PUSH1 0xD SLOAD PUSH1 0x40 MLOAD PUSH4 0x40C10F19 PUSH1 0xE0 SHL DUP2 MSTORE PUSH1 0x1 PUSH1 0x1 PUSH1 0xA0 SHL SUB SWAP2 DUP3 AND PUSH1 0x4 DUP3 ADD MSTORE PUSH1 0x24 DUP2 ADD DUP8 SWAP1 MSTORE SWAP2 AND SWAP1 PUSH4 0x40C10F19 SWAP1 PUSH1 0x44 ADD PUSH1 0x20 PUSH1 0x40 MLOAD DUP1 DUP4 SUB DUP2 PUSH1 0x0 DUP8 GAS CALL ISZERO DUP1 ISZERO PUSH2 0xAAF JUMPI RETURNDATASIZE PUSH1 0x0 DUP1 RETURNDATACOPY RETURNDATASIZE PUSH1 0x0 REVERT JUMPDEST POP POP POP POP PUSH1 0x40 MLOAD RETURNDATASIZE PUSH1 0x1F NOT PUSH1 0x1F DUP3 ADD AND DUP3 ADD DUP1 PUSH1 0x40 MSTORE POP DUP2 ADD SWAP1 PUSH2 0xAD3 SWAP2 SWAP1 PUSH2 0x2CA7 JUMP JUMPDEST POP POP POP POP POP POP POP POP JUMP JUMPDEST PUSH1 0x2 PUSH1 0x1 SLOAD EQ ISZERO PUSH2 0xB00 JUMPI PUSH1 0x40 MLOAD PUSH3 0x461BCD PUSH1 0xE5 SHL DUP2 MSTORE PUSH1 0x4 ADD PUSH2 0x6C7 SWAP1 PUSH2 0x2CC4 JUMP JUMPDEST PUSH1 0x2 PUSH1 0x1 SSTORE PUSH1 0x0 DUP2 DUP2 MSTORE PUSH1 0xF PUSH1 0x20 SWAP1 DUP2 MSTORE PUSH1 0x40 DUP1 DUP4 KECCAK256 PUSH1 0xE DUP4 MSTORE DUP2 DUP5 KECCAK256 CALLER DUP6 MSTORE SWAP1 SWAP3 MSTORE SWAP1 SWAP2 KECCAK256 DUP2 SLOAD PUSH1 0xFF AND ISZERO PUSH2 0xB6C JUMPI PUSH1 0x40 MLOAD PUSH3 0x461BCD PUSH1 0xE5 SHL DUP2 MSTORE PUSH1 0x20 PUSH1 0x4 DUP3 ADD MSTORE PUSH1 0x11 PUSH1 0x24 DUP3 ADD MSTORE PUSH17 0x15DA5D1A191C985DCE88151C08141BDBDB PUSH1 0x7A SHL PUSH1 0x44 DUP3 ADD MSTORE PUSH1 0x64 ADD PUSH2 0x6C7 JUMP JUMPDEST DUP1 SLOAD DUP5 GT ISZERO PUSH2 0xBB8 JUMPI PUSH1 0x40 MLOAD PUSH3 0x461BCD PUSH1 0xE5 SHL DUP2 MSTORE PUSH1 0x20 PUSH1 0x4 DUP3 ADD MSTORE PUSH1 0x18 PUSH1 0x24 DUP3 ADD MSTORE PUSH24 0x15DA5D1A191C985DCE881A5B9D985B1A5908185B5BDD5B9D PUSH1 0x42 SHL PUSH1 0x44 DUP3 ADD MSTORE PUSH1 0x64 ADD PUSH2 0x6C7 JUMP JUMPDEST PUSH2 0xBC1 DUP4 PUSH2 0xDB9 JUMP JUMPDEST PUSH1 0x0 DUP2 PUSH1 0x1 ADD SLOAD PUSH5 0xE8D4A51000 DUP5 PUSH1 0x4 ADD SLOAD DUP5 PUSH1 0x0 ADD SLOAD PUSH2 0xBE2 SWAP2 SWAP1 PUSH2 0x2C88 JUMP JUMPDEST PUSH2 0xBEC SWAP2 SWAP1 PUSH2 0x2C66 JUMP JUMPDEST PUSH2 0xBF6 SWAP2 SWAP1 PUSH2 0x2C37 JUMP JUMPDEST SWAP1 POP DUP1 ISZERO PUSH2 0xC75 JUMPI PUSH1 0xA SLOAD PUSH1 0x40 MLOAD PUSH4 0x40C10F19 PUSH1 0xE0 SHL DUP2 MSTORE CALLER PUSH1 0x4 DUP3 ADD MSTORE PUSH1 0x24 DUP2 ADD DUP4 SWAP1 MSTORE PUSH1 0x1 PUSH1 0x1 PUSH1 0xA0 SHL SUB SWAP1 SWAP2 AND SWAP1 PUSH4 0x40C10F19 SWAP1 PUSH1 0x44 ADD PUSH1 0x20 PUSH1 0x40 MLOAD DUP1 DUP4 SUB DUP2 PUSH1 0x0 DUP8 GAS CALL ISZERO DUP1 ISZERO PUSH2 0xC4F JUMPI RETURNDATASIZE PUSH1 0x0 DUP1 RETURNDATACOPY RETURNDATASIZE PUSH1 0x0 REVERT JUMPDEST POP POP POP POP PUSH1 0x40 MLOAD RETURNDATASIZE PUSH1 0x1F NOT PUSH1 0x1F DUP3 ADD AND DUP3 ADD DUP1 PUSH1 0x40 MSTORE POP DUP2 ADD SWAP1 PUSH2 0xC73 SWAP2 SWAP1 PUSH2 0x2CA7 JUMP JUMPDEST POP JUMPDEST DUP5 ISZERO PUSH2 0xCA3 JUMPI DUP2 SLOAD PUSH2 0xC88 SWAP1 DUP7 SWAP1 PUSH2 0x2C37 JUMP JUMPDEST DUP3 SSTORE PUSH1 0x3 DUP4 ADD SLOAD PUSH2 0xCA3 SWAP1 PUSH1 0x1 PUSH1 0x1 PUSH1 0xA0 SHL SUB AND CALLER DUP8 PUSH2 0x217D JUMP JUMPDEST PUSH1 0x4 DUP4 ADD SLOAD DUP3 SLOAD PUSH5 0xE8D4A51000 SWAP2 PUSH2 0xCBA SWAP2 PUSH2 0x2C88 JUMP JUMPDEST PUSH2 0xCC4 SWAP2 SWAP1 PUSH2 0x2C66 JUMP JUMPDEST PUSH1 0x1 DUP4 ADD SSTORE PUSH1 0x40 MLOAD DUP6 DUP2 MSTORE DUP5 SWAP1 CALLER SWAP1 PUSH32 0xF279E6A1F5E320CCA91135676D9CB6E44CA8A08C0B88342BCDB1144F6511B568 SWAP1 PUSH1 0x20 ADD JUMPDEST PUSH1 0x40 MLOAD DUP1 SWAP2 SUB SWAP1 LOG3 POP POP PUSH1 0x1 DUP1 SSTORE POP POP POP JUMP JUMPDEST PUSH1 0x0 PUSH1 0x2 PUSH1 0x1 SLOAD EQ ISZERO PUSH2 0xD31 JUMPI PUSH1 0x40 MLOAD PUSH3 0x461BCD PUSH1 0xE5 SHL DUP2 MSTORE PUSH1 0x4 ADD PUSH2 0x6C7 SWAP1 PUSH2 0x2CC4 JUMP JUMPDEST PUSH1 0x2 PUSH1 0x1 SSTORE PUSH1 0x0 DUP3 DUP2 MSTORE PUSH1 0xF PUSH1 0x20 MSTORE PUSH1 0x40 SWAP1 KECCAK256 DUP1 SLOAD PUSH1 0xFF AND DUP1 ISZERO PUSH2 0xD6B JUMPI POP PUSH1 0x0 DUP4 DUP2 MSTORE PUSH1 0x10 PUSH1 0x20 MSTORE PUSH1 0x40 SWAP1 KECCAK256 SLOAD PUSH1 0x1 PUSH1 0x1 PUSH1 0xA0 SHL SUB AND CALLER EQ JUMPDEST PUSH2 0xDA5 JUMPI PUSH1 0x40 MLOAD PUSH3 0x461BCD PUSH1 0xE5 SHL DUP2 MSTORE PUSH1 0x20 PUSH1 0x4 DUP3 ADD MSTORE PUSH1 0xB PUSH1 0x24 DUP3 ADD MSTORE PUSH11 0x139BDD081D1C081C1BDBDB PUSH1 0xAA SHL PUSH1 0x44 DUP3 ADD MSTORE PUSH1 0x64 ADD PUSH2 0x6C7 JUMP JUMPDEST PUSH2 0xDAE DUP4 PUSH2 0x21E5 JUMP JUMPDEST PUSH1 0x1 DUP1 SSTORE SWAP4 SWAP3 POP POP POP JUMP JUMPDEST PUSH2 0xDC1 PUSH2 0x859 JUMP JUMPDEST PUSH1 0x0 DUP2 DUP2 MSTORE PUSH1 0xF PUSH1 0x20 MSTORE PUSH1 0x40 DUP1 DUP3 KECCAK256 PUSH1 0x3 DUP2 ADD SLOAD SWAP2 MLOAD PUSH4 0x70A08231 PUSH1 0xE0 SHL DUP2 MSTORE ADDRESS PUSH1 0x4 DUP3 ADD MSTORE SWAP1 SWAP3 SWAP2 PUSH1 0x1 PUSH1 0x1 PUSH1 0xA0 SHL SUB AND SWAP1 PUSH4 0x70A08231 SWAP1 PUSH1 0x24 ADD PUSH1 0x20 PUSH1 0x40 MLOAD DUP1 DUP4 SUB DUP2 DUP7 GAS STATICCALL ISZERO DUP1 ISZERO PUSH2 0xE1A JUMPI RETURNDATASIZE PUSH1 0x0 DUP1 RETURNDATACOPY RETURNDATASIZE PUSH1 0x0 REVERT JUMPDEST POP POP POP POP PUSH1 0x40 MLOAD RETURNDATASIZE PUSH1 0x1F NOT PUSH1 0x1F DUP3 ADD AND DUP3 ADD DUP1 PUSH1 0x40 MSTORE POP DUP2 ADD SWAP1 PUSH2 0xE3E SWAP2 SWAP1 PUSH2 0x2CFB JUMP JUMPDEST SWAP1 POP DUP2 PUSH1 0x1 ADD SLOAD PUSH1 0x0 EQ DUP1 PUSH2 0xE51 JUMPI POP DUP1 ISZERO JUMPDEST DUP1 PUSH2 0xE60 JUMPI POP DUP2 PUSH1 0x5 ADD SLOAD TIMESTAMP GT ISZERO JUMPDEST ISZERO PUSH2 0xE70 JUMPI POP TIMESTAMP PUSH1 0x5 SWAP1 SWAP2 ADD SSTORE POP JUMP JUMPDEST PUSH1 0x0 DUP2 PUSH1 0x5 SLOAD PUSH2 0xE80 SWAP2 SWAP1 PUSH2 0x2C88 JUMP JUMPDEST SWAP1 POP PUSH1 0x0 DUP2 DUP5 PUSH1 0x1 ADD SLOAD PUSH2 0xE97 DUP7 PUSH1 0x5 ADD SLOAD PUSH2 0x22D4 JUMP JUMPDEST PUSH2 0xEA1 SWAP2 SWAP1 PUSH2 0x2C88 JUMP JUMPDEST PUSH2 0xEAB SWAP2 SWAP1 PUSH2 0x2C66 JUMP JUMPDEST TIMESTAMP PUSH1 0x5 DUP7 ADD SSTORE PUSH1 0x4 DUP6 ADD SLOAD SWAP1 SWAP2 POP PUSH2 0xEC4 SWAP1 DUP3 SWAP1 PUSH2 0x2C4E JUMP JUMPDEST DUP5 PUSH1 0x4 ADD DUP2 SWAP1 SSTORE POP POP POP POP POP POP JUMP JUMPDEST PUSH1 0x2 PUSH1 0x1 SLOAD EQ ISZERO PUSH2 0xEF6 JUMPI PUSH1 0x40 MLOAD PUSH3 0x461BCD PUSH1 0xE5 SHL DUP2 MSTORE PUSH1 0x4 ADD PUSH2 0x6C7 SWAP1 PUSH2 0x2CC4 JUMP JUMPDEST PUSH1 0x2 PUSH1 0x1 SSTORE PUSH1 0x0 DUP2 DUP2 MSTORE PUSH1 0xF PUSH1 0x20 SWAP1 DUP2 MSTORE PUSH1 0x40 DUP1 DUP4 KECCAK256 PUSH1 0xE DUP4 MSTORE DUP2 DUP5 KECCAK256 CALLER DUP6 MSTORE SWAP1 SWAP3 MSTORE SWAP1 SWAP2 KECCAK256 DUP2 SLOAD PUSH1 0xFF AND ISZERO PUSH2 0xF62 JUMPI PUSH1 0x40 MLOAD PUSH3 0x461BCD PUSH1 0xE5 SHL DUP2 MSTORE PUSH1 0x20 PUSH1 0x4 DUP3 ADD MSTORE PUSH1 0x11 PUSH1 0x24 DUP3 ADD MSTORE PUSH17 0x1DDA5D1A191C985DCE88151C08141BDBDB PUSH1 0x7A SHL PUSH1 0x44 DUP3 ADD MSTORE PUSH1 0x64 ADD PUSH2 0x6C7 JUMP JUMPDEST DUP1 SLOAD PUSH2 0xFAB JUMPI PUSH1 0x40 MLOAD PUSH3 0x461BCD PUSH1 0xE5 SHL DUP2 MSTORE PUSH1 0x20 PUSH1 0x4 DUP3 ADD MSTORE PUSH1 0x18 PUSH1 0x24 DUP3 ADD MSTORE PUSH24 0x15DA5D1A191C985DCE881A5B9D985B1A5908185B5BDD5B9D PUSH1 0x42 SHL PUSH1 0x44 DUP3 ADD MSTORE PUSH1 0x64 ADD PUSH2 0x6C7 JUMP JUMPDEST DUP1 SLOAD PUSH1 0x40 DUP1 MLOAD DUP1 DUP3 ADD DUP3 MSTORE PUSH1 0x0 DUP1 DUP3 MSTORE PUSH1 0x20 DUP1 DUP4 ADD DUP3 DUP2 MSTORE DUP9 DUP4 MSTORE PUSH1 0xE DUP3 MSTORE DUP5 DUP4 KECCAK256 CALLER DUP1 DUP6 MSTORE SWAP3 MSTORE SWAP4 SWAP1 SWAP2 KECCAK256 SWAP2 MLOAD DUP3 SSTORE SWAP2 MLOAD PUSH1 0x1 SWAP1 SWAP2 ADD SSTORE PUSH1 0x3 DUP5 ADD SLOAD PUSH2 0xFFE SWAP2 PUSH1 0x1 PUSH1 0x1 PUSH1 0xA0 SHL SUB SWAP1 SWAP2 AND SWAP1 DUP4 PUSH2 0x217D JUMP JUMPDEST PUSH1 0x40 MLOAD DUP2 DUP2 MSTORE DUP5 SWAP1 CALLER SWAP1 PUSH32 0xBB757047C2B5F3974FE26B7C10F732E7BCE710B0952A71082702781E62AE0595 SWAP1 PUSH1 0x20 ADD PUSH1 0x40 MLOAD DUP1 SWAP2 SUB SWAP1 LOG3 POP POP PUSH1 0x1 DUP1 SSTORE POP POP JUMP JUMPDEST PUSH1 0x0 SLOAD PUSH1 0x1 PUSH1 0x1 PUSH1 0xA0 SHL SUB AND CALLER EQ PUSH2 0x1069 JUMPI PUSH1 0x40 MLOAD PUSH3 0x461BCD PUSH1 0xE5 SHL DUP2 MSTORE PUSH1 0x4 ADD PUSH2 0x6C7 SWAP1 PUSH2 0x2BEC JUMP JUMPDEST PUSH2 0x1075 DUP5 DUP5 DUP5 DUP5 PUSH2 0x24A8 JUMP JUMPDEST PUSH32 0x2A46F3E26DD9E5EEEDEB561E5E212DF0D3B0F82AD30BD3B55E548212C057B163 DUP5 DUP5 DUP5 DUP5 PUSH1 0x40 MLOAD PUSH2 0x10AA SWAP5 SWAP4 SWAP3 SWAP2 SWAP1 PUSH2 0x2D4A JUMP JUMPDEST PUSH1 0x40 MLOAD DUP1 SWAP2 SUB SWAP1 LOG1 POP POP POP POP JUMP JUMPDEST PUSH1 0x0 SLOAD PUSH1 0x1 PUSH1 0x1 PUSH1 0xA0 SHL SUB AND CALLER EQ PUSH2 0x10E2 JUMPI PUSH1 0x40 MLOAD PUSH3 0x461BCD PUSH1 0xE5 SHL DUP2 MSTORE PUSH1 0x4 ADD PUSH2 0x6C7 SWAP1 PUSH2 0x2BEC JUMP JUMPDEST PUSH1 0x0 DUP3 DUP2 MSTORE PUSH1 0xF PUSH1 0x20 MSTORE PUSH1 0x40 SWAP1 KECCAK256 PUSH1 0x3 DUP2 ADD SLOAD PUSH1 0x1 PUSH1 0x1 PUSH1 0xA0 SHL SUB AND PUSH2 0x113A JUMPI PUSH1 0x40 MLOAD PUSH3 0x461BCD PUSH1 0xE5 SHL DUP2 MSTORE PUSH1 0x20 PUSH1 0x4 DUP3 ADD MSTORE PUSH1 0xD PUSH1 0x24 DUP3 ADD MSTORE PUSH13 0x19591A5D0E881A5B9D985B1A59 PUSH1 0x9A SHL PUSH1 0x44 DUP3 ADD MSTORE PUSH1 0x64 ADD PUSH2 0x6C7 JUMP JUMPDEST PUSH2 0x9C4 DUP3 GT ISZERO PUSH2 0x117D JUMPI PUSH1 0x40 MLOAD PUSH3 0x461BCD PUSH1 0xE5 SHL DUP2 MSTORE PUSH1 0x20 PUSH1 0x4 DUP3 ADD MSTORE PUSH1 0xE PUSH1 0x24 DUP3 ADD MSTORE PUSH14 0x656469743A206869676820666565 PUSH1 0x90 SHL PUSH1 0x44 DUP3 ADD MSTORE PUSH1 0x64 ADD PUSH2 0x6C7 JUMP JUMPDEST PUSH1 0x2 DUP2 ADD DUP3 SWAP1 SSTORE PUSH1 0x1 DUP2 ADD SLOAD PUSH1 0x40 DUP1 MLOAD SWAP2 DUP3 MSTORE PUSH1 0x20 DUP3 ADD DUP5 SWAP1 MSTORE DUP5 SWAP2 PUSH32 0xF5D2D72D9B25D6853AFD7D0554A113B705234B6A68BB36B7F143662994632411 SWAP2 ADD PUSH1 0x40 MLOAD DUP1 SWAP2 SUB SWAP1 LOG2 POP POP POP JUMP JUMPDEST PUSH1 0x0 DUP2 DUP2 MSTORE PUSH1 0xF PUSH1 0x20 SWAP1 DUP2 MSTORE PUSH1 0x40 DUP1 DUP4 KECCAK256 PUSH1 0xE DUP4 MSTORE DUP2 DUP5 KECCAK256 PUSH1 0x1 PUSH1 0x1 PUSH1 0xA0 SHL SUB DUP8 AND DUP6 MSTORE SWAP1 SWAP3 MSTORE DUP3 KECCAK256 DUP1 SLOAD PUSH2 0x1203 JUMPI PUSH1 0x0 SWAP3 POP POP POP PUSH2 0x1324 JUMP JUMPDEST PUSH1 0x4 DUP3 DUP2 ADD SLOAD PUSH1 0x3 DUP5 ADD SLOAD PUSH1 0x40 MLOAD PUSH4 0x70A08231 PUSH1 0xE0 SHL DUP2 MSTORE ADDRESS SWAP4 DUP2 ADD SWAP4 SWAP1 SWAP4 MSTORE SWAP1 SWAP2 PUSH1 0x0 SWAP2 PUSH1 0x1 PUSH1 0x1 PUSH1 0xA0 SHL SUB AND SWAP1 PUSH4 0x70A08231 SWAP1 PUSH1 0x24 ADD PUSH1 0x20 PUSH1 0x40 MLOAD DUP1 DUP4 SUB DUP2 DUP7 GAS STATICCALL ISZERO DUP1 ISZERO PUSH2 0x1258 JUMPI RETURNDATASIZE PUSH1 0x0 DUP1 RETURNDATACOPY RETURNDATASIZE PUSH1 0x0 REVERT JUMPDEST POP POP POP POP PUSH1 0x40 MLOAD RETURNDATASIZE PUSH1 0x1F NOT PUSH1 0x1F DUP3 ADD AND DUP3 ADD DUP1 PUSH1 0x40 MSTORE POP DUP2 ADD SWAP1 PUSH2 0x127C SWAP2 SWAP1 PUSH2 0x2CFB JUMP JUMPDEST SWAP1 POP DUP4 PUSH1 0x5 ADD SLOAD TIMESTAMP GT DUP1 ISZERO PUSH2 0x1291 JUMPI POP PUSH1 0x0 DUP2 GT JUMPDEST ISZERO PUSH2 0x12F1 JUMPI PUSH1 0x0 DUP5 PUSH1 0x1 ADD SLOAD PUSH2 0x12AA DUP7 PUSH1 0x5 ADD SLOAD PUSH2 0x22D4 JUMP JUMPDEST PUSH2 0x12B4 SWAP2 SWAP1 PUSH2 0x2C88 JUMP JUMPDEST SWAP1 POP PUSH1 0x0 PUSH5 0xE8D4A51000 DUP4 PUSH1 0x5 SLOAD PUSH2 0x12CC SWAP2 SWAP1 PUSH2 0x2C88 JUMP JUMPDEST PUSH2 0x12D6 SWAP2 SWAP1 PUSH2 0x2C88 JUMP JUMPDEST SWAP1 POP PUSH2 0x12E2 DUP2 DUP4 PUSH2 0x2C66 JUMP JUMPDEST PUSH2 0x12EC SWAP1 DUP6 PUSH2 0x2C4E JUMP JUMPDEST SWAP4 POP POP POP JUMPDEST PUSH1 0x1 DUP4 ADD SLOAD DUP4 SLOAD PUSH5 0xE8D4A51000 SWAP1 PUSH2 0x1309 SWAP1 DUP6 PUSH2 0x2C88 JUMP JUMPDEST PUSH2 0x1313 SWAP2 SWAP1 PUSH2 0x2C66 JUMP JUMPDEST PUSH2 0x131D SWAP2 SWAP1 PUSH2 0x2C37 JUMP JUMPDEST SWAP5 POP POP POP POP POP JUMPDEST SWAP3 SWAP2 POP POP JUMP JUMPDEST PUSH1 0x1 JUMPDEST PUSH1 0x8 SLOAD DUP2 GT PUSH2 0x13EE JUMPI PUSH32 0xD5A0DBA7395A48387B3738F86B7958FEB691D5F5DB50749C87D270BA92DDADC DUP2 PUSH1 0x40 MLOAD PUSH2 0x138A SWAP2 DUP2 MSTORE PUSH1 0x40 PUSH1 0x20 DUP3 ADD DUP2 SWAP1 MSTORE PUSH1 0xB SWAP1 DUP3 ADD MSTORE PUSH11 0x706F6F6C20757064617465 PUSH1 0xA8 SHL PUSH1 0x60 DUP3 ADD MSTORE PUSH1 0x80 ADD SWAP1 JUMP JUMPDEST PUSH1 0x40 MLOAD DUP1 SWAP2 SUB SWAP1 LOG1 PUSH1 0x0 DUP2 DUP2 MSTORE PUSH1 0xF PUSH1 0x20 MSTORE PUSH1 0x40 SWAP1 KECCAK256 PUSH1 0x1 ADD SLOAD PUSH2 0x13AD JUMPI PUSH2 0x13DC JUMP JUMPDEST PUSH1 0x0 DUP2 DUP2 MSTORE PUSH1 0xF PUSH1 0x20 MSTORE PUSH1 0x40 SWAP1 KECCAK256 SLOAD PUSH1 0xFF AND PUSH2 0x13D1 JUMPI PUSH2 0x13CC DUP2 PUSH2 0xDB9 JUMP JUMPDEST PUSH2 0x13DC JUMP JUMPDEST PUSH2 0x13DA DUP2 PUSH2 0x21E5 JUMP JUMPDEST POP JUMPDEST DUP1 PUSH2 0x13E6 DUP2 PUSH2 0x2D71 JUMP JUMPDEST SWAP2 POP POP PUSH2 0x132D JUMP JUMPDEST POP JUMP JUMPDEST PUSH1 0x0 SLOAD PUSH1 0x1 PUSH1 0x1 PUSH1 0xA0 SHL SUB AND CALLER EQ PUSH2 0x141B JUMPI PUSH1 0x40 MLOAD PUSH3 0x461BCD PUSH1 0xE5 SHL DUP2 MSTORE PUSH1 0x4 ADD PUSH2 0x6C7 SWAP1 PUSH2 0x2BEC JUMP JUMPDEST PUSH2 0x1425 PUSH1 0x0 PUSH2 0x2674 JUMP JUMPDEST JUMP JUMPDEST PUSH1 0x0 DUP1 PUSH1 0x0 DUP1 PUSH1 0x0 PUSH2 0x1438 DUP7 PUSH2 0x19F5 JUMP JUMPDEST SWAP2 POP SWAP2 POP DUP1 SWAP5 POP PUSH2 0x2710 PUSH1 0x3 SLOAD DUP4 PUSH2 0x1450 SWAP2 SWAP1 PUSH2 0x2C88 JUMP JUMPDEST PUSH2 0x145A SWAP2 SWAP1 PUSH2 0x2C66 JUMP JUMPDEST SWAP3 POP PUSH2 0x2710 PUSH1 0x2 SLOAD DUP4 PUSH2 0x146D SWAP2 SWAP1 PUSH2 0x2C88 JUMP JUMPDEST PUSH2 0x1477 SWAP2 SWAP1 PUSH2 0x2C66 JUMP JUMPDEST SWAP4 POP POP POP SWAP2 SWAP4 SWAP1 SWAP3 POP JUMP JUMPDEST PUSH1 0x0 DUP2 DUP2 MSTORE PUSH1 0xF PUSH1 0x20 MSTORE PUSH1 0x40 DUP2 KECCAK256 PUSH1 0x3 DUP2 ADD SLOAD PUSH1 0x1 PUSH1 0x1 PUSH1 0xA0 SHL SUB AND ISZERO DUP1 PUSH2 0x14AC JUMPI POP PUSH1 0x1 DUP2 ADD SLOAD ISZERO JUMPDEST ISZERO PUSH2 0x14BA JUMPI POP PUSH1 0x0 SWAP3 SWAP2 POP POP JUMP JUMPDEST PUSH5 0xE8D4A51000 PUSH1 0x5 SLOAD PUSH2 0x14CD SWAP2 SWAP1 PUSH2 0x2C88 JUMP JUMPDEST PUSH1 0x1 DUP3 ADD SLOAD PUSH1 0x0 DUP6 DUP2 MSTORE PUSH1 0xF PUSH1 0x20 MSTORE PUSH1 0x40 SWAP1 KECCAK256 PUSH1 0x5 ADD SLOAD PUSH2 0x14ED SWAP1 PUSH2 0x22D4 JUMP JUMPDEST PUSH2 0x14F7 SWAP2 SWAP1 PUSH2 0x2C88 JUMP JUMPDEST PUSH2 0x1501 SWAP2 SWAP1 PUSH2 0x2C66 JUMP JUMPDEST SWAP4 SWAP3 POP POP POP JUMP JUMPDEST PUSH1 0x0 SLOAD PUSH1 0x1 PUSH1 0x1 PUSH1 0xA0 SHL SUB AND CALLER EQ PUSH2 0x1532 JUMPI PUSH1 0x40 MLOAD PUSH3 0x461BCD PUSH1 0xE5 SHL DUP2 MSTORE PUSH1 0x4 ADD PUSH2 0x6C7 SWAP1 PUSH2 0x2BEC JUMP JUMPDEST DUP1 ISZERO PUSH2 0x1558 JUMPI PUSH1 0xB DUP1 SLOAD PUSH1 0x1 PUSH1 0x1 PUSH1 0xA0 SHL SUB NOT AND PUSH1 0x1 PUSH1 0x1 PUSH1 0xA0 SHL SUB DUP5 AND OR SWAP1 SSTORE PUSH2 0x15B9 JUMP JUMPDEST PUSH1 0x1 PUSH1 0x1 PUSH1 0xA0 SHL SUB DUP3 AND PUSH2 0x159D JUMPI PUSH1 0x40 MLOAD PUSH3 0x461BCD PUSH1 0xE5 SHL DUP2 MSTORE PUSH1 0x20 PUSH1 0x4 DUP3 ADD MSTORE PUSH1 0xC PUSH1 0x24 DUP3 ADD MSTORE PUSH12 0x39B2BA103932B1B2B4BB32B9 PUSH1 0xA1 SHL PUSH1 0x44 DUP3 ADD MSTORE PUSH1 0x64 ADD PUSH2 0x6C7 JUMP JUMPDEST PUSH1 0x6 DUP1 SLOAD PUSH1 0x1 PUSH1 0x1 PUSH1 0xA0 SHL SUB NOT AND PUSH1 0x1 PUSH1 0x1 PUSH1 0xA0 SHL SUB DUP5 AND OR SWAP1 SSTORE JUMPDEST PUSH1 0x40 DUP1 MLOAD PUSH1 0x1 PUSH1 0x1 PUSH1 0xA0 SHL SUB DUP5 AND DUP2 MSTORE DUP3 ISZERO ISZERO PUSH1 0x20 DUP3 ADD MSTORE PUSH32 0xCD51F9F86222E46143649F996C1603DE7585E14C114955985CCC53117EF39F26 SWAP2 ADD PUSH1 0x40 MLOAD DUP1 SWAP2 SUB SWAP1 LOG1 POP POP JUMP JUMPDEST PUSH1 0x0 SLOAD PUSH1 0x1 PUSH1 0x1 PUSH1 0xA0 SHL SUB AND CALLER EQ PUSH2 0x162A JUMPI PUSH1 0x40 MLOAD PUSH3 0x461BCD PUSH1 0xE5 SHL DUP2 MSTORE PUSH1 0x4 ADD PUSH2 0x6C7 SWAP1 PUSH2 0x2BEC JUMP JUMPDEST DUP3 DUP2 EQ PUSH2 0x166C JUMPI PUSH1 0x40 MLOAD PUSH3 0x461BCD PUSH1 0xE5 SHL DUP2 MSTORE PUSH1 0x20 PUSH1 0x4 DUP3 ADD MSTORE PUSH1 0x10 PUSH1 0x24 DUP3 ADD MSTORE PUSH16 0x6164643A2077726F6E67206564697473 PUSH1 0x80 SHL PUSH1 0x44 DUP3 ADD MSTORE PUSH1 0x64 ADD PUSH2 0x6C7 JUMP JUMPDEST PUSH2 0x1389 DUP8 LT PUSH2 0x16B0 JUMPI PUSH1 0x40 MLOAD PUSH3 0x461BCD PUSH1 0xE5 SHL DUP2 MSTORE PUSH1 0x20 PUSH1 0x4 DUP3 ADD MSTORE PUSH1 0x10 PUSH1 0x24 DUP3 ADD MSTORE PUSH16 0x6164643A20696E76616C696420666565 PUSH1 0x80 SHL PUSH1 0x44 DUP3 ADD MSTORE PUSH1 0x64 ADD PUSH2 0x6C7 JUMP JUMPDEST PUSH1 0x1 PUSH1 0x1 PUSH1 0xA0 SHL SUB DUP10 AND PUSH1 0x0 SWAP1 DUP2 MSTORE PUSH1 0x11 PUSH1 0x20 MSTORE PUSH1 0x40 SWAP1 KECCAK256 SLOAD ISZERO PUSH2 0x170C JUMPI PUSH1 0x40 MLOAD PUSH3 0x461BCD PUSH1 0xE5 SHL DUP2 MSTORE PUSH1 0x20 PUSH1 0x4 DUP3 ADD MSTORE PUSH1 0x13 PUSH1 0x24 DUP3 ADD MSTORE PUSH19 0x1859190E881D1BDAD95B881C995C19585D1959 PUSH1 0x6A SHL PUSH1 0x44 DUP3 ADD MSTORE PUSH1 0x64 ADD PUSH2 0x6C7 JUMP JUMPDEST PUSH2 0x1718 DUP5 DUP5 DUP5 DUP5 PUSH2 0x24A8 JUMP JUMPDEST PUSH3 0xF4240 DUP9 PUSH1 0x5 SLOAD PUSH2 0x172A SWAP2 SWAP1 PUSH2 0x2C4E JUMP JUMPDEST GT ISZERO PUSH2 0x1770 JUMPI PUSH1 0x40 MLOAD PUSH3 0x461BCD PUSH1 0xE5 SHL DUP2 MSTORE PUSH1 0x20 PUSH1 0x4 DUP3 ADD MSTORE PUSH1 0x15 PUSH1 0x24 DUP3 ADD MSTORE PUSH21 0x30B2321D103BB937B7339036BAB63A34B83634B2B9 PUSH1 0x59 SHL PUSH1 0x44 DUP3 ADD MSTORE PUSH1 0x64 ADD PUSH2 0x6C7 JUMP JUMPDEST DUP8 PUSH1 0x5 SLOAD PUSH2 0x177E SWAP2 SWAP1 PUSH2 0x2C4E JUMP JUMPDEST PUSH1 0x5 SSTORE PUSH1 0x8 DUP1 SLOAD SWAP1 PUSH1 0x0 PUSH2 0x1791 DUP4 PUSH2 0x2D71 JUMP JUMPDEST SWAP2 SWAP1 POP SSTORE POP PUSH32 0x0 TIMESTAMP LT ISZERO PUSH2 0x1892 JUMPI PUSH1 0x40 DUP1 MLOAD PUSH1 0xE0 DUP2 ADD DUP3 MSTORE DUP8 ISZERO ISZERO DUP2 MSTORE PUSH1 0x20 DUP1 DUP3 ADD DUP12 DUP2 MSTORE DUP3 DUP5 ADD DUP12 DUP2 MSTORE PUSH1 0x1 PUSH1 0x1 PUSH1 0xA0 SHL SUB DUP1 DUP16 AND PUSH1 0x60 DUP7 ADD SWAP1 DUP2 MSTORE PUSH1 0x0 PUSH1 0x80 DUP8 ADD DUP2 DUP2 MSTORE PUSH32 0x0 PUSH1 0xA0 DUP10 ADD SWAP1 DUP2 MSTORE DUP15 ISZERO ISZERO PUSH1 0xC0 DUP11 ADD SWAP1 DUP2 MSTORE PUSH1 0x8 SLOAD DUP5 MSTORE PUSH1 0xF SWAP1 SWAP9 MSTORE SWAP9 SWAP1 SWAP2 KECCAK256 SWAP7 MLOAD DUP8 SLOAD SWAP1 ISZERO ISZERO PUSH1 0xFF NOT SWAP2 DUP3 AND OR DUP9 SSTORE SWAP5 MLOAD PUSH1 0x1 DUP9 ADD SSTORE SWAP3 MLOAD PUSH1 0x2 DUP8 ADD SSTORE MLOAD PUSH1 0x3 DUP7 ADD DUP1 SLOAD SWAP2 SWAP1 SWAP3 AND PUSH1 0x1 PUSH1 0x1 PUSH1 0xA0 SHL SUB NOT SWAP1 SWAP2 AND OR SWAP1 SSTORE MLOAD PUSH1 0x4 DUP5 ADD SSTORE SWAP3 MLOAD PUSH1 0x5 DUP4 ADD SSTORE MLOAD PUSH1 0x6 SWAP1 SWAP2 ADD DUP1 SLOAD SWAP2 ISZERO ISZERO SWAP2 SWAP1 SWAP3 AND OR SWAP1 SSTORE PUSH2 0x1942 JUMP JUMPDEST PUSH1 0x40 DUP1 MLOAD PUSH1 0xE0 DUP2 ADD DUP3 MSTORE DUP8 ISZERO ISZERO DUP2 MSTORE PUSH1 0x20 DUP1 DUP3 ADD DUP12 DUP2 MSTORE DUP3 DUP5 ADD DUP12 DUP2 MSTORE PUSH1 0x1 PUSH1 0x1 PUSH1 0xA0 SHL SUB DUP1 DUP16 AND PUSH1 0x60 DUP7 ADD SWAP1 DUP2 MSTORE PUSH1 0x0 PUSH1 0x80 DUP8 ADD DUP2 DUP2 MSTORE TIMESTAMP PUSH1 0xA0 DUP10 ADD SWAP1 DUP2 MSTORE DUP15 ISZERO ISZERO PUSH1 0xC0 DUP11 ADD SWAP1 DUP2 MSTORE PUSH1 0x8 SLOAD DUP5 MSTORE PUSH1 0xF SWAP1 SWAP9 MSTORE SWAP9 SWAP1 SWAP2 KECCAK256 SWAP7 MLOAD DUP8 SLOAD SWAP1 ISZERO ISZERO PUSH1 0xFF NOT SWAP2 DUP3 AND OR DUP9 SSTORE SWAP5 MLOAD PUSH1 0x1 DUP9 ADD SSTORE SWAP3 MLOAD PUSH1 0x2 DUP8 ADD SSTORE MLOAD PUSH1 0x3 DUP7 ADD DUP1 SLOAD SWAP2 SWAP1 SWAP3 AND PUSH1 0x1 PUSH1 0x1 PUSH1 0xA0 SHL SUB NOT SWAP1 SWAP2 AND OR SWAP1 SSTORE MLOAD PUSH1 0x4 DUP5 ADD SSTORE SWAP3 MLOAD PUSH1 0x5 DUP4 ADD SSTORE MLOAD PUSH1 0x6 SWAP1 SWAP2 ADD DUP1 SLOAD SWAP2 ISZERO ISZERO SWAP2 SWAP1 SWAP3 AND OR SWAP1 SSTORE JUMPDEST PUSH1 0x8 SLOAD PUSH1 0x1 PUSH1 0x1 PUSH1 0xA0 SHL SUB DUP11 AND PUSH1 0x0 SWAP1 DUP2 MSTORE PUSH1 0x11 PUSH1 0x20 MSTORE PUSH1 0x40 SWAP1 KECCAK256 SSTORE DUP6 ISZERO PUSH2 0x198F JUMPI PUSH1 0x8 SLOAD PUSH1 0x0 SWAP1 DUP2 MSTORE PUSH1 0x10 PUSH1 0x20 MSTORE PUSH1 0x40 SWAP1 KECCAK256 DUP1 SLOAD PUSH1 0x1 PUSH1 0x1 PUSH1 0xA0 SHL SUB NOT AND PUSH1 0x1 PUSH1 0x1 PUSH1 0xA0 SHL SUB DUP12 AND OR SWAP1 SSTORE JUMPDEST PUSH1 0x8 SLOAD PUSH1 0x40 DUP1 MLOAD PUSH1 0x1 PUSH1 0x1 PUSH1 0xA0 SHL SUB DUP13 AND DUP2 MSTORE PUSH1 0x20 DUP2 ADD DUP12 SWAP1 MSTORE DUP1 DUP3 ADD DUP11 SWAP1 MSTORE DUP9 ISZERO ISZERO PUSH1 0x60 DUP3 ADD MSTORE PUSH1 0x80 DUP2 ADD SWAP3 SWAP1 SWAP3 MSTORE MLOAD PUSH32 0xD5D9095DA54A196FF732904E2F9E23DCB985825A8FD9A6B80F9B8D69FCA774A2 SWAP2 DUP2 SWAP1 SUB PUSH1 0xA0 ADD SWAP1 LOG1 POP POP POP POP POP POP POP POP POP JUMP JUMPDEST PUSH1 0x0 DUP1 PUSH1 0x0 DUP1 PUSH2 0x1A04 DUP6 PUSH2 0x2097 JUMP JUMPDEST SWAP1 SWAP3 POP SWAP1 POP PUSH2 0x1A17 PUSH4 0x1E13380 DUP4 PUSH2 0x2C66 JUMP JUMPDEST SWAP4 POP PUSH2 0x1A27 PUSH4 0x1E13380 DUP3 PUSH2 0x2C66 JUMP JUMPDEST SWAP3 POP POP POP SWAP2 POP SWAP2 JUMP JUMPDEST PUSH1 0x2 PUSH1 0x1 SLOAD EQ ISZERO PUSH2 0x1A53 JUMPI PUSH1 0x40 MLOAD PUSH3 0x461BCD PUSH1 0xE5 SHL DUP2 MSTORE PUSH1 0x4 ADD PUSH2 0x6C7 SWAP1 PUSH2 0x2CC4 JUMP JUMPDEST PUSH1 0x2 PUSH1 0x1 SWAP1 DUP2 SSTORE PUSH1 0x0 DUP3 DUP2 MSTORE PUSH1 0xF PUSH1 0x20 SWAP1 DUP2 MSTORE PUSH1 0x40 DUP1 DUP4 KECCAK256 PUSH1 0xE DUP4 MSTORE DUP2 DUP5 KECCAK256 CALLER DUP6 MSTORE SWAP1 SWAP3 MSTORE SWAP1 SWAP2 KECCAK256 SWAP2 DUP2 ADD SLOAD SWAP1 SWAP2 SWAP1 PUSH2 0x1AC7 JUMPI PUSH1 0x40 MLOAD PUSH3 0x461BCD PUSH1 0xE5 SHL DUP2 MSTORE PUSH1 0x20 PUSH1 0x4 DUP3 ADD MSTORE PUSH1 0x16 PUSH1 0x24 DUP3 ADD MSTORE PUSH22 0x11195C1BDCDA5D0E88141BDBDB08191A5CD8589B1959 PUSH1 0x52 SHL PUSH1 0x44 DUP3 ADD MSTORE PUSH1 0x64 ADD PUSH2 0x6C7 JUMP JUMPDEST DUP2 SLOAD PUSH1 0xFF AND ISZERO PUSH2 0x1B0C JUMPI PUSH1 0x40 MLOAD PUSH3 0x461BCD PUSH1 0xE5 SHL DUP2 MSTORE PUSH1 0x20 PUSH1 0x4 DUP3 ADD MSTORE PUSH1 0x10 PUSH1 0x24 DUP3 ADD MSTORE PUSH16 0x11195C1BDCDA5D0E88151C08141BDBDB PUSH1 0x82 SHL PUSH1 0x44 DUP3 ADD MSTORE PUSH1 0x64 ADD PUSH2 0x6C7 JUMP JUMPDEST PUSH2 0x1B15 DUP4 PUSH2 0xDB9 JUMP JUMPDEST DUP1 SLOAD ISZERO PUSH2 0x1BD2 JUMPI PUSH1 0x0 DUP2 PUSH1 0x1 ADD SLOAD PUSH5 0xE8D4A51000 DUP5 PUSH1 0x4 ADD SLOAD DUP5 PUSH1 0x0 ADD SLOAD PUSH2 0x1B3D SWAP2 SWAP1 PUSH2 0x2C88 JUMP JUMPDEST PUSH2 0x1B47 SWAP2 SWAP1 PUSH2 0x2C66 JUMP JUMPDEST PUSH2 0x1B51 SWAP2 SWAP1 PUSH2 0x2C37 JUMP JUMPDEST SWAP1 POP DUP1 ISZERO PUSH2 0x1BD0 JUMPI PUSH1 0xA SLOAD PUSH1 0x40 MLOAD PUSH4 0x40C10F19 PUSH1 0xE0 SHL DUP2 MSTORE CALLER PUSH1 0x4 DUP3 ADD MSTORE PUSH1 0x24 DUP2 ADD DUP4 SWAP1 MSTORE PUSH1 0x1 PUSH1 0x1 PUSH1 0xA0 SHL SUB SWAP1 SWAP2 AND SWAP1 PUSH4 0x40C10F19 SWAP1 PUSH1 0x44 ADD PUSH1 0x20 PUSH1 0x40 MLOAD DUP1 DUP4 SUB DUP2 PUSH1 0x0 DUP8 GAS CALL ISZERO DUP1 ISZERO PUSH2 0x1BAA JUMPI RETURNDATASIZE PUSH1 0x0 DUP1 RETURNDATACOPY RETURNDATASIZE PUSH1 0x0 REVERT JUMPDEST POP POP POP POP PUSH1 0x40 MLOAD RETURNDATASIZE PUSH1 0x1F NOT PUSH1 0x1F DUP3 ADD AND DUP3 ADD DUP1 PUSH1 0x40 MSTORE POP DUP2 ADD SWAP1 PUSH2 0x1BCE SWAP2 SWAP1 PUSH2 0x2CA7 JUMP JUMPDEST POP JUMPDEST POP JUMPDEST DUP4 DUP1 ISZERO PUSH2 0x1ECC JUMPI PUSH1 0x2 DUP4 ADD SLOAD ISZERO PUSH2 0x1EA3 JUMPI PUSH2 0x2710 DUP4 PUSH1 0x2 ADD SLOAD DUP3 PUSH2 0x1BF6 SWAP2 SWAP1 PUSH2 0x2C88 JUMP JUMPDEST PUSH2 0x1C00 SWAP2 SWAP1 PUSH2 0x2C66 JUMP JUMPDEST PUSH1 0xB SLOAD SWAP1 SWAP2 POP PUSH1 0x1 PUSH1 0x1 PUSH1 0xA0 SHL SUB AND PUSH2 0x1C39 JUMPI PUSH1 0x6 SLOAD PUSH1 0x3 DUP5 ADD SLOAD PUSH2 0x1C34 SWAP2 PUSH1 0x1 PUSH1 0x1 PUSH1 0xA0 SHL SUB SWAP2 DUP3 AND SWAP2 CALLER SWAP2 AND DUP5 PUSH2 0x26C4 JUMP JUMPDEST PUSH2 0x1E96 JUMP JUMPDEST PUSH1 0x3 DUP4 ADD SLOAD PUSH1 0xB SLOAD PUSH1 0x40 MLOAD PUSH4 0x95EA7B3 PUSH1 0xE0 SHL DUP2 MSTORE PUSH1 0x1 PUSH1 0x1 PUSH1 0xA0 SHL SUB SWAP2 DUP3 AND PUSH1 0x4 DUP3 ADD MSTORE PUSH1 0x24 DUP2 ADD DUP5 SWAP1 MSTORE SWAP2 AND SWAP1 PUSH4 0x95EA7B3 SWAP1 PUSH1 0x44 ADD PUSH1 0x20 PUSH1 0x40 MLOAD DUP1 DUP4 SUB DUP2 PUSH1 0x0 DUP8 GAS CALL ISZERO DUP1 ISZERO PUSH2 0x1C90 JUMPI RETURNDATASIZE PUSH1 0x0 DUP1 RETURNDATACOPY RETURNDATASIZE PUSH1 0x0 REVERT JUMPDEST POP POP POP POP PUSH1 0x40 MLOAD RETURNDATASIZE PUSH1 0x1F NOT PUSH1 0x1F DUP3 ADD AND DUP3 ADD DUP1 PUSH1 0x40 MSTORE POP DUP2 ADD SWAP1 PUSH2 0x1CB4 SWAP2 SWAP1 PUSH2 0x2CA7 JUMP JUMPDEST POP PUSH1 0xB SLOAD PUSH1 0x40 MLOAD PUSH4 0x9E690EB PUSH1 0xE3 SHL DUP2 MSTORE PUSH1 0x4 DUP2 ADD DUP7 SWAP1 MSTORE PUSH1 0x24 DUP2 ADD DUP4 SWAP1 MSTORE PUSH1 0x1 PUSH1 0x1 PUSH1 0xA0 SHL SUB SWAP1 SWAP2 AND SWAP1 PUSH4 0x4F348758 SWAP1 PUSH1 0x44 ADD PUSH1 0x0 PUSH1 0x40 MLOAD DUP1 DUP4 SUB DUP2 PUSH1 0x0 DUP8 DUP1 EXTCODESIZE ISZERO DUP1 ISZERO PUSH2 0x1D02 JUMPI PUSH1 0x0 DUP1 REVERT JUMPDEST POP GAS CALL SWAP3 POP POP POP DUP1 ISZERO PUSH2 0x1D13 JUMPI POP PUSH1 0x1 JUMPDEST PUSH2 0x1E27 JUMPI PUSH32 0xD5A0DBA7395A48387B3738F86B7958FEB691D5F5DB50749C87D270BA92DDADC DUP2 PUSH1 0x40 MLOAD PUSH2 0x1D7D SWAP2 DUP2 MSTORE PUSH1 0x40 PUSH1 0x20 DUP3 ADD DUP2 SWAP1 MSTORE PUSH1 0x17 SWAP1 DUP3 ADD MSTORE PUSH32 0x4661696C65642046656520446973747269627574696F6E000000000000000000 PUSH1 0x60 DUP3 ADD MSTORE PUSH1 0x80 ADD SWAP1 JUMP JUMPDEST PUSH1 0x40 MLOAD DUP1 SWAP2 SUB SWAP1 LOG1 PUSH1 0x6 SLOAD PUSH1 0x3 DUP5 ADD SLOAD PUSH2 0x1DA6 SWAP2 PUSH1 0x1 PUSH1 0x1 PUSH1 0xA0 SHL SUB SWAP2 DUP3 AND SWAP2 CALLER SWAP2 AND DUP5 PUSH2 0x26C4 JUMP JUMPDEST PUSH1 0x3 DUP4 ADD SLOAD PUSH1 0xB SLOAD PUSH1 0x40 MLOAD PUSH4 0x95EA7B3 PUSH1 0xE0 SHL DUP2 MSTORE PUSH1 0x1 PUSH1 0x1 PUSH1 0xA0 SHL SUB SWAP2 DUP3 AND PUSH1 0x4 DUP3 ADD MSTORE PUSH1 0x0 PUSH1 0x24 DUP3 ADD MSTORE SWAP2 AND SWAP1 PUSH4 0x95EA7B3 SWAP1 PUSH1 0x44 ADD PUSH1 0x20 PUSH1 0x40 MLOAD DUP1 DUP4 SUB DUP2 PUSH1 0x0 DUP8 GAS CALL ISZERO DUP1 ISZERO PUSH2 0x1DFD JUMPI RETURNDATASIZE PUSH1 0x0 DUP1 RETURNDATACOPY RETURNDATASIZE PUSH1 0x0 REVERT JUMPDEST POP POP POP POP PUSH1 0x40 MLOAD RETURNDATASIZE PUSH1 0x1F NOT PUSH1 0x1F DUP3 ADD AND DUP3 ADD DUP1 PUSH1 0x40 MSTORE POP DUP2 ADD SWAP1 PUSH2 0x1E21 SWAP2 SWAP1 PUSH2 0x2CA7 JUMP JUMPDEST POP PUSH2 0x1E96 JUMP JUMPDEST PUSH32 0xD5A0DBA7395A48387B3738F86B7958FEB691D5F5DB50749C87D270BA92DDADC DUP2 PUSH1 0x40 MLOAD PUSH2 0x1E8D SWAP2 DUP2 MSTORE PUSH1 0x40 PUSH1 0x20 DUP3 ADD DUP2 SWAP1 MSTORE PUSH1 0x18 SWAP1 DUP3 ADD MSTORE PUSH32 0x537563636573732046656520446973747269627574696F6E0000000000000000 PUSH1 0x60 DUP3 ADD MSTORE PUSH1 0x80 ADD SWAP1 JUMP JUMPDEST PUSH1 0x40 MLOAD DUP1 SWAP2 SUB SWAP1 LOG1 JUMPDEST PUSH2 0x1EA0 DUP2 DUP7 PUSH2 0x2C37 JUMP JUMPDEST SWAP1 POP JUMPDEST DUP2 SLOAD PUSH2 0x1EB0 SWAP1 DUP3 SWAP1 PUSH2 0x2C4E JUMP JUMPDEST DUP3 SSTORE PUSH1 0x3 DUP4 ADD SLOAD PUSH2 0x1ECC SWAP1 PUSH1 0x1 PUSH1 0x1 PUSH1 0xA0 SHL SUB AND CALLER ADDRESS DUP5 PUSH2 0x26C4 JUMP JUMPDEST PUSH1 0x4 DUP4 ADD SLOAD DUP3 SLOAD PUSH5 0xE8D4A51000 SWAP2 PUSH2 0x1EE3 SWAP2 PUSH2 0x2C88 JUMP JUMPDEST PUSH2 0x1EED SWAP2 SWAP1 PUSH2 0x2C66 JUMP JUMPDEST PUSH1 0x1 DUP4 ADD SSTORE PUSH1 0x40 MLOAD DUP6 DUP2 MSTORE DUP5 SWAP1 CALLER SWAP1 PUSH32 0x90890809C654F11D6E72A28FA60149770A0D11EC6C92319D6CEB2BB0A4EA1A15 SWAP1 PUSH1 0x20 ADD PUSH2 0xCF9 JUMP JUMPDEST PUSH1 0x0 SLOAD PUSH1 0x1 PUSH1 0x1 PUSH1 0xA0 SHL SUB AND CALLER EQ PUSH2 0x1F50 JUMPI PUSH1 0x40 MLOAD PUSH3 0x461BCD PUSH1 0xE5 SHL DUP2 MSTORE PUSH1 0x4 ADD PUSH2 0x6C7 SWAP1 PUSH2 0x2BEC JUMP JUMPDEST PUSH1 0x1 PUSH1 0x1 PUSH1 0xA0 SHL SUB DUP2 AND ISZERO DUP1 ISZERO SWAP1 PUSH2 0x1F73 JUMPI POP PUSH1 0x1 PUSH1 0x1 PUSH1 0xA0 SHL SUB DUP2 AND PUSH2 0xDEAD EQ ISZERO JUMPDEST PUSH2 0x1FB1 JUMPI PUSH1 0x40 MLOAD PUSH3 0x461BCD PUSH1 0xE5 SHL DUP2 MSTORE PUSH1 0x20 PUSH1 0x4 DUP3 ADD MSTORE PUSH1 0xF PUSH1 0x24 DUP3 ADD MSTORE PUSH15 0x4E6F205A65726F2041646472657373 PUSH1 0x88 SHL PUSH1 0x44 DUP3 ADD MSTORE PUSH1 0x64 ADD PUSH2 0x6C7 JUMP JUMPDEST PUSH1 0xC DUP1 SLOAD PUSH1 0x1 PUSH1 0x1 PUSH1 0xA0 SHL SUB NOT AND PUSH1 0x1 PUSH1 0x1 PUSH1 0xA0 SHL SUB DUP4 AND SWAP1 DUP2 OR SWAP1 SWAP2 SSTORE PUSH1 0x40 MLOAD SWAP1 DUP2 MSTORE PUSH32 0x1F54D231BB9D500B1923E4A1CB25E600F366A8368873D9AF7C1C623814DF19FC SWAP1 PUSH1 0x20 ADD PUSH2 0x77B JUMP JUMPDEST PUSH1 0x0 SLOAD PUSH1 0x1 PUSH1 0x1 PUSH1 0xA0 SHL SUB AND CALLER EQ PUSH2 0x2029 JUMPI PUSH1 0x40 MLOAD PUSH3 0x461BCD PUSH1 0xE5 SHL DUP2 MSTORE PUSH1 0x4 ADD PUSH2 0x6C7 SWAP1 PUSH2 0x2BEC JUMP JUMPDEST PUSH1 0x1 PUSH1 0x1 PUSH1 0xA0 SHL SUB DUP2 AND PUSH2 0x208E JUMPI PUSH1 0x40 MLOAD PUSH3 0x461BCD PUSH1 0xE5 SHL DUP2 MSTORE PUSH1 0x20 PUSH1 0x4 DUP3 ADD MSTORE PUSH1 0x26 PUSH1 0x24 DUP3 ADD MSTORE PUSH32 0x4F776E61626C653A206E6577206F776E657220697320746865207A65726F2061 PUSH1 0x44 DUP3 ADD MSTORE PUSH6 0x646472657373 PUSH1 0xD0 SHL PUSH1 0x64 DUP3 ADD MSTORE PUSH1 0x84 ADD PUSH2 0x6C7 JUMP JUMPDEST PUSH2 0x13EE DUP2 PUSH2 0x2674 JUMP JUMPDEST PUSH1 0x0 DUP1 PUSH1 0x4 DUP4 GT ISZERO PUSH2 0x20AE JUMPI POP PUSH1 0x0 SWAP3 DUP4 SWAP3 POP SWAP1 POP JUMP JUMPDEST PUSH2 0x20B9 DUP4 PUSH1 0x2 PUSH2 0x2E70 JUMP JUMPDEST PUSH2 0x20C5 SWAP1 PUSH2 0x2710 PUSH2 0x2C88 JUMP JUMPDEST PUSH1 0x4 SLOAD PUSH2 0x20F2 SWAP1 PUSH32 0x0 PUSH2 0x2C88 JUMP JUMPDEST PUSH2 0x20FC SWAP2 SWAP1 PUSH2 0x2C66 JUMP JUMPDEST SWAP1 POP PUSH2 0x2109 DUP4 PUSH1 0x2 PUSH2 0x2E70 JUMP JUMPDEST DUP4 ISZERO PUSH2 0x2116 JUMPI PUSH1 0x0 PUSH2 0x2138 JUMP JUMPDEST PUSH32 0x0 JUMPDEST PUSH2 0x2162 DUP4 PUSH32 0x0 PUSH2 0x2C37 JUMP JUMPDEST PUSH2 0x216C SWAP2 SWAP1 PUSH2 0x2C37 JUMP JUMPDEST PUSH2 0x2176 SWAP2 SWAP1 PUSH2 0x2C66 JUMP JUMPDEST SWAP2 POP SWAP2 POP SWAP2 JUMP JUMPDEST PUSH1 0x40 MLOAD PUSH1 0x1 PUSH1 0x1 PUSH1 0xA0 SHL SUB DUP4 AND PUSH1 0x24 DUP3 ADD MSTORE PUSH1 0x44 DUP2 ADD DUP3 SWAP1 MSTORE PUSH2 0x21E0 SWAP1 DUP5 SWAP1 PUSH4 0xA9059CBB PUSH1 0xE0 SHL SWAP1 PUSH1 0x64 ADD JUMPDEST PUSH1 0x40 DUP1 MLOAD PUSH1 0x1F NOT DUP2 DUP5 SUB ADD DUP2 MSTORE SWAP2 SWAP1 MSTORE PUSH1 0x20 DUP2 ADD DUP1 MLOAD PUSH1 0x1 PUSH1 0x1 PUSH1 0xE0 SHL SUB AND PUSH1 0x1 PUSH1 0x1 PUSH1 0xE0 SHL SUB NOT SWAP1 SWAP4 AND SWAP3 SWAP1 SWAP3 OR SWAP1 SWAP2 MSTORE PUSH2 0x26FC JUMP JUMPDEST POP POP POP JUMP JUMPDEST PUSH1 0x0 PUSH2 0x21EF PUSH2 0x859 JUMP JUMPDEST PUSH1 0x0 DUP3 DUP2 MSTORE PUSH1 0xF PUSH1 0x20 MSTORE PUSH1 0x40 SWAP1 KECCAK256 PUSH1 0x5 DUP2 ADD SLOAD TIMESTAMP GT PUSH2 0x2211 JUMPI POP PUSH1 0x0 SWAP3 SWAP2 POP POP JUMP JUMPDEST PUSH5 0xE8D4A51000 PUSH1 0x5 SLOAD PUSH2 0x2224 SWAP2 SWAP1 PUSH2 0x2C88 JUMP JUMPDEST DUP2 PUSH1 0x1 ADD SLOAD PUSH2 0x2236 DUP4 PUSH1 0x5 ADD SLOAD PUSH2 0x22D4 JUMP JUMPDEST PUSH2 0x2240 SWAP2 SWAP1 PUSH2 0x2C88 JUMP JUMPDEST PUSH2 0x224A SWAP2 SWAP1 PUSH2 0x2C66 JUMP JUMPDEST TIMESTAMP PUSH1 0x5 DUP4 ADD SSTORE PUSH1 0xA SLOAD PUSH1 0x3 DUP4 ADD SLOAD PUSH1 0x40 MLOAD PUSH4 0x40C10F19 PUSH1 0xE0 SHL DUP2 MSTORE PUSH1 0x1 PUSH1 0x1 PUSH1 0xA0 SHL SUB SWAP2 DUP3 AND PUSH1 0x4 DUP3 ADD MSTORE PUSH1 0x24 DUP2 ADD DUP5 SWAP1 MSTORE SWAP3 SWAP5 POP AND SWAP1 PUSH4 0x40C10F19 SWAP1 PUSH1 0x44 ADD PUSH1 0x20 PUSH1 0x40 MLOAD DUP1 DUP4 SUB DUP2 PUSH1 0x0 DUP8 GAS CALL ISZERO DUP1 ISZERO PUSH2 0x22A9 JUMPI RETURNDATASIZE PUSH1 0x0 DUP1 RETURNDATACOPY RETURNDATASIZE PUSH1 0x0 REVERT JUMPDEST POP POP POP POP PUSH1 0x40 MLOAD RETURNDATASIZE PUSH1 0x1F NOT PUSH1 0x1F DUP3 ADD AND DUP3 ADD DUP1 PUSH1 0x40 MSTORE POP DUP2 ADD SWAP1 PUSH2 0x22CD SWAP2 SWAP1 PUSH2 0x2CA7 JUMP JUMPDEST POP POP SWAP2 SWAP1 POP JUMP JUMPDEST PUSH1 0x0 DUP1 PUSH4 0x1E13380 PUSH2 0x2306 PUSH32 0x0 DUP6 PUSH2 0x2C37 JUMP JUMPDEST PUSH2 0x2310 SWAP2 SWAP1 PUSH2 0x2C66 JUMP JUMPDEST SWAP1 POP PUSH1 0x4 DUP2 GT DUP1 PUSH2 0x2340 JUMPI POP PUSH32 0x0 TIMESTAMP LT JUMPDEST ISZERO PUSH2 0x234E JUMPI POP PUSH1 0x0 SWAP3 SWAP2 POP POP JUMP JUMPDEST PUSH1 0x0 PUSH4 0x1E13380 PUSH2 0x237F PUSH32 0x0 TIMESTAMP PUSH2 0x2C37 JUMP JUMPDEST PUSH2 0x2389 SWAP2 SWAP1 PUSH2 0x2C66 JUMP JUMPDEST SWAP1 POP PUSH1 0x0 PUSH2 0x2396 DUP4 PUSH2 0x1427 JUMP JUMPDEST POP SWAP2 POP POP DUP3 DUP3 GT ISZERO PUSH2 0x246C JUMPI PUSH1 0x0 PUSH32 0x0 PUSH2 0x23D3 PUSH4 0x1E13380 DUP6 PUSH2 0x2C88 JUMP JUMPDEST PUSH2 0x23DD SWAP2 SWAP1 PUSH2 0x2C4E JUMP JUMPDEST SWAP1 POP PUSH1 0x0 PUSH2 0x23EB DUP8 DUP4 PUSH2 0x2C37 JUMP JUMPDEST PUSH1 0x7 SLOAD SWAP1 SWAP2 POP PUSH5 0xE8D4A51000 PUSH2 0x2401 DUP4 DUP7 PUSH2 0x2C88 JUMP JUMPDEST PUSH2 0x240B SWAP2 SWAP1 PUSH2 0x2C88 JUMP JUMPDEST PUSH2 0x2415 SWAP2 SWAP1 PUSH2 0x2C66 JUMP JUMPDEST SWAP6 POP PUSH2 0x2420 DUP5 PUSH2 0x1427 JUMP JUMPDEST POP SWAP4 POP PUSH2 0x242F SWAP1 POP DUP3 TIMESTAMP PUSH2 0x2C37 JUMP JUMPDEST PUSH1 0x7 SLOAD SWAP1 SWAP2 POP PUSH5 0xE8D4A51000 PUSH2 0x2445 DUP4 DUP7 PUSH2 0x2C88 JUMP JUMPDEST PUSH2 0x244F SWAP2 SWAP1 PUSH2 0x2C88 JUMP JUMPDEST PUSH2 0x2459 SWAP2 SWAP1 PUSH2 0x2C66 JUMP JUMPDEST PUSH2 0x2463 SWAP1 DUP8 PUSH2 0x2C4E JUMP JUMPDEST SWAP6 POP POP POP PUSH2 0x24A0 JUMP JUMPDEST PUSH1 0x7 SLOAD PUSH5 0xE8D4A51000 PUSH2 0x247F DUP8 TIMESTAMP PUSH2 0x2C37 JUMP JUMPDEST PUSH2 0x2489 SWAP1 DUP5 PUSH2 0x2C88 JUMP JUMPDEST PUSH2 0x2493 SWAP2 SWAP1 PUSH2 0x2C88 JUMP JUMPDEST PUSH2 0x249D SWAP2 SWAP1 PUSH2 0x2C66 JUMP JUMPDEST SWAP4 POP JUMPDEST POP POP POP SWAP2 SWAP1 POP JUMP JUMPDEST DUP3 PUSH2 0x24B2 JUMPI PUSH2 0x266E JUMP JUMPDEST PUSH1 0x5 SLOAD PUSH1 0x0 JUMPDEST DUP5 DUP2 LT ISZERO PUSH2 0x2622 JUMPI PUSH1 0x0 PUSH1 0xF DUP2 DUP9 DUP9 DUP6 DUP2 DUP2 LT PUSH2 0x24D7 JUMPI PUSH2 0x24D7 PUSH2 0x2E7C JUMP JUMPDEST PUSH1 0x20 SWAP1 DUP2 MUL SWAP3 SWAP1 SWAP3 ADD CALLDATALOAD DUP4 MSTORE POP DUP2 ADD SWAP2 SWAP1 SWAP2 MSTORE PUSH1 0x40 ADD PUSH1 0x0 KECCAK256 PUSH1 0x3 ADD SLOAD PUSH1 0x1 PUSH1 0x1 PUSH1 0xA0 SHL SUB AND EQ ISZERO PUSH2 0x2544 JUMPI PUSH1 0x40 MLOAD PUSH3 0x461BCD PUSH1 0xE5 SHL DUP2 MSTORE PUSH1 0x20 PUSH1 0x4 DUP3 ADD MSTORE PUSH1 0x16 PUSH1 0x24 DUP3 ADD MSTORE PUSH22 0x1B5D5B1D0E881B9BDB995E1A5CDD195B9D081C1BDBDB PUSH1 0x52 SHL PUSH1 0x44 DUP3 ADD MSTORE PUSH1 0x64 ADD PUSH2 0x6C7 JUMP JUMPDEST PUSH2 0x2565 DUP7 DUP7 DUP4 DUP2 DUP2 LT PUSH2 0x2559 JUMPI PUSH2 0x2559 PUSH2 0x2E7C JUMP JUMPDEST SWAP1 POP PUSH1 0x20 MUL ADD CALLDATALOAD PUSH2 0xDB9 JUMP JUMPDEST DUP4 DUP4 DUP3 DUP2 DUP2 LT PUSH2 0x2577 JUMPI PUSH2 0x2577 PUSH2 0x2E7C JUMP JUMPDEST SWAP1 POP PUSH1 0x20 MUL ADD CALLDATALOAD PUSH1 0xF PUSH1 0x0 DUP9 DUP9 DUP6 DUP2 DUP2 LT PUSH2 0x2594 JUMPI PUSH2 0x2594 PUSH2 0x2E7C JUMP JUMPDEST SWAP1 POP PUSH1 0x20 MUL ADD CALLDATALOAD DUP2 MSTORE PUSH1 0x20 ADD SWAP1 DUP2 MSTORE PUSH1 0x20 ADD PUSH1 0x0 KECCAK256 PUSH1 0x1 ADD SLOAD DUP4 PUSH2 0x25B8 SWAP2 SWAP1 PUSH2 0x2C37 JUMP JUMPDEST PUSH2 0x25C2 SWAP2 SWAP1 PUSH2 0x2C4E JUMP JUMPDEST SWAP2 POP DUP4 DUP4 DUP3 DUP2 DUP2 LT PUSH2 0x25D6 JUMPI PUSH2 0x25D6 PUSH2 0x2E7C JUMP JUMPDEST SWAP1 POP PUSH1 0x20 MUL ADD CALLDATALOAD PUSH1 0xF PUSH1 0x0 DUP9 DUP9 DUP6 DUP2 DUP2 LT PUSH2 0x25F3 JUMPI PUSH2 0x25F3 PUSH2 0x2E7C JUMP JUMPDEST SWAP1 POP PUSH1 0x20 MUL ADD CALLDATALOAD DUP2 MSTORE PUSH1 0x20 ADD SWAP1 DUP2 MSTORE PUSH1 0x20 ADD PUSH1 0x0 KECCAK256 PUSH1 0x1 ADD DUP2 SWAP1 SSTORE POP DUP1 DUP1 PUSH2 0x261A SWAP1 PUSH2 0x2D71 JUMP JUMPDEST SWAP2 POP POP PUSH2 0x24B8 JUMP JUMPDEST POP PUSH3 0xF4240 DUP2 GT ISZERO PUSH2 0x266A JUMPI PUSH1 0x40 MLOAD PUSH3 0x461BCD PUSH1 0xE5 SHL DUP2 MSTORE PUSH1 0x20 PUSH1 0x4 DUP3 ADD MSTORE PUSH1 0x11 PUSH1 0x24 DUP3 ADD MSTORE PUSH17 0xDAEAD8E87440CAF0C6CACAC8E640DAC2F PUSH1 0x7B SHL PUSH1 0x44 DUP3 ADD MSTORE PUSH1 0x64 ADD PUSH2 0x6C7 JUMP JUMPDEST PUSH1 0x5 SSTORE JUMPDEST POP POP POP POP JUMP JUMPDEST PUSH1 0x0 DUP1 SLOAD PUSH1 0x1 PUSH1 0x1 PUSH1 0xA0 SHL SUB DUP4 DUP2 AND PUSH1 0x1 PUSH1 0x1 PUSH1 0xA0 SHL SUB NOT DUP4 AND DUP2 OR DUP5 SSTORE PUSH1 0x40 MLOAD SWAP2 SWAP1 SWAP3 AND SWAP3 DUP4 SWAP2 PUSH32 0x8BE0079C531659141344CD1FD0A4F28419497F9722A3DAAFE3B4186F6B6457E0 SWAP2 SWAP1 LOG3 POP POP JUMP JUMPDEST PUSH1 0x40 MLOAD PUSH1 0x1 PUSH1 0x1 PUSH1 0xA0 SHL SUB DUP1 DUP6 AND PUSH1 0x24 DUP4 ADD MSTORE DUP4 AND PUSH1 0x44 DUP3 ADD MSTORE PUSH1 0x64 DUP2 ADD DUP3 SWAP1 MSTORE PUSH2 0x266E SWAP1 DUP6 SWAP1 PUSH4 0x23B872DD PUSH1 0xE0 SHL SWAP1 PUSH1 0x84 ADD PUSH2 0x21A9 JUMP JUMPDEST PUSH1 0x0 PUSH2 0x2751 DUP3 PUSH1 0x40 MLOAD DUP1 PUSH1 0x40 ADD PUSH1 0x40 MSTORE DUP1 PUSH1 0x20 DUP2 MSTORE PUSH1 0x20 ADD PUSH32 0x5361666545524332303A206C6F772D6C6576656C2063616C6C206661696C6564 DUP2 MSTORE POP DUP6 PUSH1 0x1 PUSH1 0x1 PUSH1 0xA0 SHL SUB AND PUSH2 0x27CE SWAP1 SWAP3 SWAP2 SWAP1 PUSH4 0xFFFFFFFF AND JUMP JUMPDEST DUP1 MLOAD SWAP1 SWAP2 POP ISZERO PUSH2 0x21E0 JUMPI DUP1 DUP1 PUSH1 0x20 ADD SWAP1 MLOAD DUP2 ADD SWAP1 PUSH2 0x276F SWAP2 SWAP1 PUSH2 0x2CA7 JUMP JUMPDEST PUSH2 0x21E0 JUMPI PUSH1 0x40 MLOAD PUSH3 0x461BCD PUSH1 0xE5 SHL DUP2 MSTORE PUSH1 0x20 PUSH1 0x4 DUP3 ADD MSTORE PUSH1 0x2A PUSH1 0x24 DUP3 ADD MSTORE PUSH32 0x5361666545524332303A204552433230206F7065726174696F6E20646964206E PUSH1 0x44 DUP3 ADD MSTORE PUSH10 0x1BDD081CDD58D8D95959 PUSH1 0xB2 SHL PUSH1 0x64 DUP3 ADD MSTORE PUSH1 0x84 ADD PUSH2 0x6C7 JUMP JUMPDEST PUSH1 0x60 PUSH2 0x27DD DUP5 DUP5 PUSH1 0x0 DUP6 PUSH2 0x27E5 JUMP JUMPDEST SWAP5 SWAP4 POP POP POP POP JUMP JUMPDEST PUSH1 0x60 DUP3 SELFBALANCE LT ISZERO PUSH2 0x2846 JUMPI PUSH1 0x40 MLOAD PUSH3 0x461BCD PUSH1 0xE5 SHL DUP2 MSTORE PUSH1 0x20 PUSH1 0x4 DUP3 ADD MSTORE PUSH1 0x26 PUSH1 0x24 DUP3 ADD MSTORE PUSH32 0x416464726573733A20696E73756666696369656E742062616C616E636520666F PUSH1 0x44 DUP3 ADD MSTORE PUSH6 0x1C8818D85B1B PUSH1 0xD2 SHL PUSH1 0x64 DUP3 ADD MSTORE PUSH1 0x84 ADD PUSH2 0x6C7 JUMP JUMPDEST PUSH1 0x1 PUSH1 0x1 PUSH1 0xA0 SHL SUB DUP6 AND EXTCODESIZE PUSH2 0x289D JUMPI PUSH1 0x40 MLOAD PUSH3 0x461BCD PUSH1 0xE5 SHL DUP2 MSTORE PUSH1 0x20 PUSH1 0x4 DUP3 ADD MSTORE PUSH1 0x1D PUSH1 0x24 DUP3 ADD MSTORE PUSH32 0x416464726573733A2063616C6C20746F206E6F6E2D636F6E7472616374000000 PUSH1 0x44 DUP3 ADD MSTORE PUSH1 0x64 ADD PUSH2 0x6C7 JUMP JUMPDEST PUSH1 0x0 DUP1 DUP7 PUSH1 0x1 PUSH1 0x1 PUSH1 0xA0 SHL SUB AND DUP6 DUP8 PUSH1 0x40 MLOAD PUSH2 0x28B9 SWAP2 SWAP1 PUSH2 0x2EBE JUMP JUMPDEST PUSH1 0x0 PUSH1 0x40 MLOAD DUP1 DUP4 SUB DUP2 DUP6 DUP8 GAS CALL SWAP3 POP POP POP RETURNDATASIZE DUP1 PUSH1 0x0 DUP2 EQ PUSH2 0x28F6 JUMPI PUSH1 0x40 MLOAD SWAP2 POP PUSH1 0x1F NOT PUSH1 0x3F RETURNDATASIZE ADD AND DUP3 ADD PUSH1 0x40 MSTORE RETURNDATASIZE DUP3 MSTORE RETURNDATASIZE PUSH1 0x0 PUSH1 0x20 DUP5 ADD RETURNDATACOPY PUSH2 0x28FB JUMP JUMPDEST PUSH1 0x60 SWAP2 POP JUMPDEST POP SWAP2 POP SWAP2 POP PUSH2 0x290B DUP3 DUP3 DUP7 PUSH2 0x2916 JUMP JUMPDEST SWAP8 SWAP7 POP POP POP POP POP POP POP JUMP JUMPDEST PUSH1 0x60 DUP4 ISZERO PUSH2 0x2925 JUMPI POP DUP2 PUSH2 0x1501 JUMP JUMPDEST DUP3 MLOAD ISZERO PUSH2 0x2935 JUMPI DUP3 MLOAD DUP1 DUP5 PUSH1 0x20 ADD REVERT JUMPDEST DUP2 PUSH1 0x40 MLOAD PUSH3 0x461BCD PUSH1 0xE5 SHL DUP2 MSTORE PUSH1 0x4 ADD PUSH2 0x6C7 SWAP2 SWAP1 PUSH2 0x2EDA JUMP JUMPDEST PUSH1 0x0 PUSH1 0x20 DUP3 DUP5 SUB SLT ISZERO PUSH2 0x2961 JUMPI PUSH1 0x0 DUP1 REVERT JUMPDEST POP CALLDATALOAD SWAP2 SWAP1 POP JUMP JUMPDEST DUP1 CALLDATALOAD PUSH1 0x1 PUSH1 0x1 PUSH1 0xA0 SHL SUB DUP2 AND DUP2 EQ PUSH2 0x297F JUMPI PUSH1 0x0 DUP1 REVERT JUMPDEST SWAP2 SWAP1 POP JUMP JUMPDEST PUSH1 0x0 PUSH1 0x20 DUP3 DUP5 SUB SLT ISZERO PUSH2 0x2996 JUMPI PUSH1 0x0 DUP1 REVERT JUMPDEST PUSH2 0x1501 DUP3 PUSH2 0x2968 JUMP JUMPDEST DUP1 ISZERO ISZERO DUP2 EQ PUSH2 0x13EE JUMPI PUSH1 0x0 DUP1 REVERT JUMPDEST PUSH1 0x0 PUSH1 0x20 DUP3 DUP5 SUB SLT ISZERO PUSH2 0x29BF JUMPI PUSH1 0x0 DUP1 REVERT JUMPDEST DUP2 CALLDATALOAD PUSH2 0x1501 DUP2 PUSH2 0x299F JUMP JUMPDEST PUSH1 0x0 DUP1 PUSH1 0x40 DUP4 DUP6 SUB SLT ISZERO PUSH2 0x29DD JUMPI PUSH1 0x0 DUP1 REVERT JUMPDEST POP POP DUP1 CALLDATALOAD SWAP3 PUSH1 0x20 SWAP1 SWAP2 ADD CALLDATALOAD SWAP2 POP JUMP JUMPDEST PUSH1 0x0 DUP1 DUP4 PUSH1 0x1F DUP5 ADD SLT PUSH2 0x29FE JUMPI PUSH1 0x0 DUP1 REVERT JUMPDEST POP DUP2 CALLDATALOAD PUSH8 0xFFFFFFFFFFFFFFFF DUP2 GT ISZERO PUSH2 0x2A16 JUMPI PUSH1 0x0 DUP1 REVERT JUMPDEST PUSH1 0x20 DUP4 ADD SWAP2 POP DUP4 PUSH1 0x20 DUP3 PUSH1 0x5 SHL DUP6 ADD ADD GT ISZERO PUSH2 0x2A31 JUMPI PUSH1 0x0 DUP1 REVERT JUMPDEST SWAP3 POP SWAP3 SWAP1 POP JUMP JUMPDEST PUSH1 0x0 DUP1 PUSH1 0x0 DUP1 PUSH1 0x40 DUP6 DUP8 SUB SLT ISZERO PUSH2 0x2A4E JUMPI PUSH1 0x0 DUP1 REVERT JUMPDEST DUP5 CALLDATALOAD PUSH8 0xFFFFFFFFFFFFFFFF DUP1 DUP3 GT ISZERO PUSH2 0x2A66 JUMPI PUSH1 0x0 DUP1 REVERT JUMPDEST PUSH2 0x2A72 DUP9 DUP4 DUP10 ADD PUSH2 0x29EC JUMP JUMPDEST SWAP1 SWAP7 POP SWAP5 POP PUSH1 0x20 DUP8 ADD CALLDATALOAD SWAP2 POP DUP1 DUP3 GT ISZERO PUSH2 0x2A8B JUMPI PUSH1 0x0 DUP1 REVERT JUMPDEST POP PUSH2 0x2A98 DUP8 DUP3 DUP9 ADD PUSH2 0x29EC JUMP JUMPDEST SWAP6 SWAP9 SWAP5 SWAP8 POP SWAP6 POP POP POP POP JUMP JUMPDEST PUSH1 0x0 DUP1 PUSH1 0x40 DUP4 DUP6 SUB SLT ISZERO PUSH2 0x2AB7 JUMPI PUSH1 0x0 DUP1 REVERT JUMPDEST PUSH2 0x2AC0 DUP4 PUSH2 0x2968 JUMP JUMPDEST SWAP5 PUSH1 0x20 SWAP4 SWAP1 SWAP4 ADD CALLDATALOAD SWAP4 POP POP POP JUMP JUMPDEST PUSH1 0x0 DUP1 PUSH1 0x40 DUP4 DUP6 SUB SLT ISZERO PUSH2 0x2AE1 JUMPI PUSH1 0x0 DUP1 REVERT JUMPDEST DUP3 CALLDATALOAD SWAP2 POP PUSH2 0x2AF1 PUSH1 0x20 DUP5 ADD PUSH2 0x2968 JUMP JUMPDEST SWAP1 POP SWAP3 POP SWAP3 SWAP1 POP JUMP JUMPDEST PUSH1 0x0 DUP1 PUSH1 0x40 DUP4 DUP6 SUB SLT ISZERO PUSH2 0x2B0D JUMPI PUSH1 0x0 DUP1 REVERT JUMPDEST PUSH2 0x2B16 DUP4 PUSH2 0x2968 JUMP JUMPDEST SWAP2 POP PUSH1 0x20 DUP4 ADD CALLDATALOAD PUSH2 0x2B26 DUP2 PUSH2 0x299F JUMP JUMPDEST DUP1 SWAP2 POP POP SWAP3 POP SWAP3 SWAP1 POP JUMP JUMPDEST PUSH1 0x0 DUP1 PUSH1 0x0 DUP1 PUSH1 0x0 DUP1 PUSH1 0x0 DUP1 PUSH1 0x0 PUSH1 0xE0 DUP11 DUP13 SUB SLT ISZERO PUSH2 0x2B4F JUMPI PUSH1 0x0 DUP1 REVERT JUMPDEST PUSH2 0x2B58 DUP11 PUSH2 0x2968 JUMP JUMPDEST SWAP9 POP PUSH1 0x20 DUP11 ADD CALLDATALOAD SWAP8 POP PUSH1 0x40 DUP11 ADD CALLDATALOAD SWAP7 POP PUSH1 0x60 DUP11 ADD CALLDATALOAD PUSH2 0x2B76 DUP2 PUSH2 0x299F JUMP JUMPDEST SWAP6 POP PUSH1 0x80 DUP11 ADD CALLDATALOAD PUSH2 0x2B86 DUP2 PUSH2 0x299F JUMP JUMPDEST SWAP5 POP PUSH1 0xA0 DUP11 ADD CALLDATALOAD PUSH8 0xFFFFFFFFFFFFFFFF DUP1 DUP3 GT ISZERO PUSH2 0x2BA3 JUMPI PUSH1 0x0 DUP1 REVERT JUMPDEST PUSH2 0x2BAF DUP14 DUP4 DUP15 ADD PUSH2 0x29EC JUMP JUMPDEST SWAP1 SWAP7 POP SWAP5 POP PUSH1 0xC0 DUP13 ADD CALLDATALOAD SWAP2 POP DUP1 DUP3 GT ISZERO PUSH2 0x2BC8 JUMPI PUSH1 0x0 DUP1 REVERT JUMPDEST POP PUSH2 0x2BD5 DUP13 DUP3 DUP14 ADD PUSH2 0x29EC JUMP JUMPDEST SWAP2 POP DUP1 SWAP4 POP POP DUP1 SWAP2 POP POP SWAP3 SWAP6 SWAP9 POP SWAP3 SWAP6 SWAP9 POP SWAP3 SWAP6 SWAP9 JUMP JUMPDEST PUSH1 0x20 DUP1 DUP3 MSTORE DUP2 DUP2 ADD MSTORE PUSH32 0x4F776E61626C653A2063616C6C6572206973206E6F7420746865206F776E6572 PUSH1 0x40 DUP3 ADD MSTORE PUSH1 0x60 ADD SWAP1 JUMP JUMPDEST PUSH4 0x4E487B71 PUSH1 0xE0 SHL PUSH1 0x0 MSTORE PUSH1 0x11 PUSH1 0x4 MSTORE PUSH1 0x24 PUSH1 0x0 REVERT JUMPDEST PUSH1 0x0 DUP3 DUP3 LT ISZERO PUSH2 0x2C49 JUMPI PUSH2 0x2C49 PUSH2 0x2C21 JUMP JUMPDEST POP SUB SWAP1 JUMP JUMPDEST PUSH1 0x0 DUP3 NOT DUP3 GT ISZERO PUSH2 0x2C61 JUMPI PUSH2 0x2C61 PUSH2 0x2C21 JUMP JUMPDEST POP ADD SWAP1 JUMP JUMPDEST PUSH1 0x0 DUP3 PUSH2 0x2C83 JUMPI PUSH4 0x4E487B71 PUSH1 0xE0 SHL PUSH1 0x0 MSTORE PUSH1 0x12 PUSH1 0x4 MSTORE PUSH1 0x24 PUSH1 0x0 REVERT JUMPDEST POP DIV SWAP1 JUMP JUMPDEST PUSH1 0x0 DUP2 PUSH1 0x0 NOT DIV DUP4 GT DUP3 ISZERO ISZERO AND ISZERO PUSH2 0x2CA2 JUMPI PUSH2 0x2CA2 PUSH2 0x2C21 JUMP JUMPDEST POP MUL SWAP1 JUMP JUMPDEST PUSH1 0x0 PUSH1 0x20 DUP3 DUP5 SUB SLT ISZERO PUSH2 0x2CB9 JUMPI PUSH1 0x0 DUP1 REVERT JUMPDEST DUP2 MLOAD PUSH2 0x1501 DUP2 PUSH2 0x299F JUMP JUMPDEST PUSH1 0x20 DUP1 DUP3 MSTORE PUSH1 0x1F SWAP1 DUP3 ADD MSTORE PUSH32 0x5265656E7472616E637947756172643A207265656E7472616E742063616C6C00 PUSH1 0x40 DUP3 ADD MSTORE PUSH1 0x60 ADD SWAP1 JUMP JUMPDEST PUSH1 0x0 PUSH1 0x20 DUP3 DUP5 SUB SLT ISZERO PUSH2 0x2D0D JUMPI PUSH1 0x0 DUP1 REVERT JUMPDEST POP MLOAD SWAP2 SWAP1 POP JUMP JUMPDEST DUP2 DUP4 MSTORE PUSH1 0x0 PUSH1 0x1 PUSH1 0x1 PUSH1 0xFB SHL SUB DUP4 GT ISZERO PUSH2 0x2D2D JUMPI PUSH1 0x0 DUP1 REVERT JUMPDEST DUP3 PUSH1 0x5 SHL DUP1 DUP4 PUSH1 0x20 DUP8 ADD CALLDATACOPY PUSH1 0x0 SWAP5 ADD PUSH1 0x20 ADD SWAP4 DUP5 MSTORE POP SWAP2 SWAP3 SWAP2 POP POP JUMP JUMPDEST PUSH1 0x40 DUP2 MSTORE PUSH1 0x0 PUSH2 0x2D5E PUSH1 0x40 DUP4 ADD DUP7 DUP9 PUSH2 0x2D14 JUMP JUMPDEST DUP3 DUP2 SUB PUSH1 0x20 DUP5 ADD MSTORE PUSH2 0x290B DUP2 DUP6 DUP8 PUSH2 0x2D14 JUMP JUMPDEST PUSH1 0x0 PUSH1 0x0 NOT DUP3 EQ ISZERO PUSH2 0x2D85 JUMPI PUSH2 0x2D85 PUSH2 0x2C21 JUMP JUMPDEST POP PUSH1 0x1 ADD SWAP1 JUMP JUMPDEST PUSH1 0x1 DUP2 DUP2 JUMPDEST DUP1 DUP6 GT ISZERO PUSH2 0x2DC7 JUMPI DUP2 PUSH1 0x0 NOT DIV DUP3 GT ISZERO PUSH2 0x2DAD JUMPI PUSH2 0x2DAD PUSH2 0x2C21 JUMP JUMPDEST DUP1 DUP6 AND ISZERO PUSH2 0x2DBA JUMPI SWAP2 DUP2 MUL SWAP2 JUMPDEST SWAP4 DUP5 SHR SWAP4 SWAP1 DUP1 MUL SWAP1 PUSH2 0x2D91 JUMP JUMPDEST POP SWAP3 POP SWAP3 SWAP1 POP JUMP JUMPDEST PUSH1 0x0 DUP3 PUSH2 0x2DDE JUMPI POP PUSH1 0x1 PUSH2 0x1324 JUMP JUMPDEST DUP2 PUSH2 0x2DEB JUMPI POP PUSH1 0x0 PUSH2 0x1324 JUMP JUMPDEST DUP2 PUSH1 0x1 DUP2 EQ PUSH2 0x2E01 JUMPI PUSH1 0x2 DUP2 EQ PUSH2 0x2E0B JUMPI PUSH2 0x2E27 JUMP JUMPDEST PUSH1 0x1 SWAP2 POP POP PUSH2 0x1324 JUMP JUMPDEST PUSH1 0xFF DUP5 GT ISZERO PUSH2 0x2E1C JUMPI PUSH2 0x2E1C PUSH2 0x2C21 JUMP JUMPDEST POP POP PUSH1 0x1 DUP3 SHL PUSH2 0x1324 JUMP JUMPDEST POP PUSH1 0x20 DUP4 LT PUSH2 0x133 DUP4 LT AND PUSH1 0x4E DUP5 LT PUSH1 0xB DUP5 LT AND OR ISZERO PUSH2 0x2E4A JUMPI POP DUP2 DUP2 EXP PUSH2 0x1324 JUMP JUMPDEST PUSH2 0x2E54 DUP4 DUP4 PUSH2 0x2D8C JUMP JUMPDEST DUP1 PUSH1 0x0 NOT DIV DUP3 GT ISZERO PUSH2 0x2E68 JUMPI PUSH2 0x2E68 PUSH2 0x2C21 JUMP JUMPDEST MUL SWAP4 SWAP3 POP POP POP JUMP JUMPDEST PUSH1 0x0 PUSH2 0x1501 DUP4 DUP4 PUSH2 0x2DCF JUMP JUMPDEST PUSH4 0x4E487B71 PUSH1 0xE0 SHL PUSH1 0x0 MSTORE PUSH1 0x32 PUSH1 0x4 MSTORE PUSH1 0x24 PUSH1 0x0 REVERT JUMPDEST PUSH1 0x0 JUMPDEST DUP4 DUP2 LT ISZERO PUSH2 0x2EAD JUMPI DUP2 DUP2 ADD MLOAD DUP4 DUP3 ADD MSTORE PUSH1 0x20 ADD PUSH2 0x2E95 JUMP JUMPDEST DUP4 DUP2 GT ISZERO PUSH2 0x266E JUMPI POP POP PUSH1 0x0 SWAP2 ADD MSTORE JUMP JUMPDEST PUSH1 0x0 DUP3 MLOAD PUSH2 0x2ED0 DUP2 DUP5 PUSH1 0x20 DUP8 ADD PUSH2 0x2E92 JUMP JUMPDEST SWAP2 SWAP1 SWAP2 ADD SWAP3 SWAP2 POP POP JUMP JUMPDEST PUSH1 0x20 DUP2 MSTORE PUSH1 0x0 DUP3 MLOAD DUP1 PUSH1 0x20 DUP5 ADD MSTORE PUSH2 0x2EF9 DUP2 PUSH1 0x40 DUP6 ADD PUSH1 0x20 DUP8 ADD PUSH2 0x2E92 JUMP JUMPDEST PUSH1 0x1F ADD PUSH1 0x1F NOT AND SWAP2 SWAP1 SWAP2 ADD PUSH1 0x40 ADD SWAP3 SWAP2 POP POP JUMP INVALID LOG2 PUSH5 0x6970667358 0x22 SLT KECCAK256 0x4D MUL 0xD6 CALLDATALOAD DUP8 0x4A 0xCE RETURNDATACOPY PUSH9 0x4750100F74B15CA40D DUP12 0xA5 CHAINID 0xB9 0xB5 DIFFICULTY PUSH2 0x9190 SELFDESTRUCT PUSH28 0x1DBE5A64736F6C634300080C00330000000000000000000000000000 ","sha1":"3034681d0fba0edc91db85808458e56bfb0a930d","source":"// SPDX-License-Identifier: MIT\npragma solidity 0.8.12;\n\nimport \"@openzeppelin/contracts/access/Ownable.sol\";\nimport \"@openzeppelin/contracts/token/ERC20/IERC20.sol\";\nimport \"@openzeppelin/contracts/token/ERC20/utils/SafeERC20.sol\";\nimport \"@openzeppelin/contracts/security/ReentrancyGuard.sol\";\nimport \"./NICEToken.sol\";\nimport \"../interfaces/IFeeDistributor.sol\";\n\n//import \"../interfaces/IGalacticChef.sol\";\n///@dev use interface IGalacticChef\n\ncontract GalacticChef is Ownable, ReentrancyGuard {\n    using SafeERC20 for NICEToken;\n    using SafeERC20 for IERC20;\n\n    struct UserInfo {\n        uint256 amount; //Staked Amount\n        uint256 accClaim; //ClaimedReward accumulation\n    }\n\n    struct PoolInfo {\n        bool poolType;\n        uint256 mult;\n        uint256 fee;\n        IERC20 token;\n        uint256 accRewardPerShare;\n        uint256 lastRewardTs;\n        bool isLP;\n    }\n    /// Timestamp Specific\n    uint256 constant SECONDS_PER_YEAR = 365 * 24 * 60 * 60;\n    uint256 constant SECONDS_PER_DAY = 24 * 60 * 60;\n    uint256 constant SECONDS_PER_HOUR = 60 * 60;\n    uint256 constant SECONDS_PER_MINUTE = 60;\n    int256 constant OFFSET19700101 = 2440588;\n    /*\n     ** We have two different types of pools: Regular False, Third True\n     ** Nice has a fixed emission given per second due to tokenomics\n     ** So we decided to give a FIXED percentage reward to some pools\n     ** REGULAR pools distribute the remaining reward amongst their allocation\n     ** Third Party doesn't keep track of the user's info, but rather only keeps track of the rewards being given.\n     */\n    /*\n     ** Reward Calculation:\n     ** Fixed Pool Rewards = Emission*allocation / PERCENT\n     ** Regular Pool Rewards = Emission*( 1e12 - fixedAlloc*1e12/PERCENT) * allocation/regularAlloc / 1e12\n     ** 1e12 is used to cover for fraction issues\n     */\n    /*\n     ** Emission Distrubution\n     ** Treasury: 5% of total YEARLY emissions\n     ** DeFi: All Pools and farms added here ->  30% of All emissions minus treasury\n     ** P2E: 70% of all Emissions minus treasury\n     ** Percentages will be able to be edited depending on needs\n     */\n    // These Values use FEE_DIV BASE as 100%\n    uint256 public defiPercent = 3000; //init 30%\n    uint256 public p2ePercent = 7000; // init 70%\n    uint256 public treasuryPercent = 500; // init 5%\n\n    uint256 public constant PERCENT = 1e12; // Divisor for percentage calculations\n    uint256 public constant FEE_DIV = 10000; // Divisor for fee percentage 100.00\n    uint256 public constant maxMult = 1000000; // Max Multiplier 100.0000\n    uint256 public currentMax; // The current multiplier total. Always <= maxMult\n    address public feeAddress; // Address where fees will be sent to for Distribution/Reallocation\n\n    // The number of chains where a GalacticChef exists. This helps have a consistent emission across all chains.\n    uint256 public chains;\n    // Time when Chef will start emitting Tokens\n    uint256 public immutable chefStart;\n    // Emissions per second. Since we'll have multiple Chefs across chains the emission set per second\n    uint256 public immutable initMax = 2000000000 ether; // 1st year will emmit 1.5B tokens since 500M have a purpose already\n    uint256 public immutable initDiff = 500000000 ether;\n    uint256 public poolCounter;\n    uint256 public nonDefiLastRewardTransfer;\n\n    // Reward Token\n    NICEToken public NICE;\n\n    // FEE distribution\n    IFeeDistributor public feeDistributor;\n    address public treasury;\n    address public p2e;\n\n    mapping(uint256 => mapping(address => UserInfo)) public userInfo; // PID => USER_ADDRESS => userInfo\n    mapping(uint256 => PoolInfo) public poolInfo; // PID => PoolInfo\n    mapping(uint256 => address) public tpPools; //  PID => poolAddress\n    mapping(address => uint256) public tokenPools; // tokenAddress => poolId\n\n    event PoolAdded(\n        address token,\n        uint256 multiplier,\n        uint256 fee,\n        bool _type,\n        uint256 _pid\n    );\n    event Deposit(address indexed user, uint256 indexed pid, uint256 amount);\n    event Withdraw(address indexed user, uint256 indexed pid, uint256 amount);\n    event EmergencyWithdraw(\n        address indexed user,\n        uint256 indexed pid,\n        uint256 amount\n    );\n    event UpdatePools(uint256[] pid, uint256[] mult);\n    event UpdatePool(uint256 indexed pid, uint256 mult, uint256 fee);\n    event UpdateEmissions(uint256 amount);\n    event FeeAddressEdit(address _newAddress, bool _isContract);\n    event UpdateTreasury(address _newAddress);\n    event UpdateP2E(address _newAddress);\n    event ChainUpdate(uint256 _chainAmount);\n\n    event LogEvent(uint256 number, string data);\n\n    constructor(\n        address _niceToken,\n        address _treasury,\n        address _p2e,\n        uint256 _chains\n    ) {\n        NICE = NICEToken(_niceToken);\n        feeAddress = msg.sender;\n        chains = _chains;\n        chefStart = block.timestamp;\n        treasury = _treasury;\n        p2e = _p2e;\n        nonDefiLastRewardTransfer = chefStart;\n    }\n\n    function setTreasury(address _treasury) external onlyOwner {\n        require(\n            _treasury != address(0) && _treasury != address(0xdEad),\n            \"No Zero Address\"\n        );\n        treasury = _treasury;\n        emit UpdateTreasury(_treasury);\n    }\n\n    function setP2E(address _p2e) external onlyOwner {\n        require(\n            _p2e != address(0) && _p2e != address(0xdEad),\n            \"No Zero Address\"\n        );\n        p2e = _p2e;\n        emit UpdateP2E(_p2e);\n    }\n\n    /// @notice Add Farm of a specific token\n    /// @param _token the token that will be collected, Taken as address since ThirdParty pools will handle their own logic\n    /// @param _mult the multiplier the pool will have\n    /// @param _fee the fee to deposit on the pool\n    /// @param _isLP is the token an LP token\n    /// @param _type is it a regular pool or a third party pool ( TRUE = ThirdParty )\n    /// @param _pidEdit is it a regular pool or a third party pool ( TRUE = ThirdParty )\n    /// @param _pidMulEdit is it a regular pool or a third party pool ( TRUE = ThirdParty )\n    function addPool(\n        address _token,\n        uint256 _mult,\n        uint256 _fee,\n        bool _type,\n        bool _isLP,\n        uint256[] calldata _pidEdit,\n        uint256[] calldata _pidMulEdit\n    ) external onlyOwner {\n        require(_pidEdit.length == _pidMulEdit.length, \"add: wrong edits\");\n        require(_fee < 5001, \"add: invalid fee\");\n        require(tokenPools[_token] == 0, \"add: token repeated\");\n        //update multipliers and current Max\n        updateMultipliers(_pidEdit, _pidMulEdit);\n        require(currentMax + _mult <= maxMult, \"add: wrong multiplier\");\n        currentMax = currentMax + _mult;\n        poolCounter++;\n        if (block.timestamp < chefStart)\n            poolInfo[poolCounter] = PoolInfo(\n                _type,\n                _mult,\n                _fee,\n                IERC20(_token),\n                0,\n                chefStart,\n                _isLP\n            );\n        else\n            poolInfo[poolCounter] = PoolInfo(\n                _type,\n                _mult,\n                _fee,\n                IERC20(_token),\n                0,\n                block.timestamp,\n                _isLP\n            );\n        tokenPools[_token] = poolCounter;\n        if (_type) tpPools[poolCounter] = _token;\n        emit PoolAdded(_token, _mult, _fee, _type, poolCounter);\n    }\n\n    // Make sure multipliers match\n    /// @notice update the multipliers used\n    /// @param _pidEdit pool Id Array\n    /// @param _pidMulEdit multipliers edit array\n    /// @dev both param arrays must have matching lengths\n    function updateMultipliers(\n        uint256[] calldata _pidEdit,\n        uint256[] calldata _pidMulEdit\n    ) internal {\n        if (_pidEdit.length == 0) return;\n        // updateValues\n        uint256 newMax = currentMax;\n        for (uint256 i = 0; i < _pidEdit.length; i++) {\n            require(\n                address(poolInfo[_pidEdit[i]].token) != address(0),\n                \"mult: nonexistent pool\"\n            );\n            //Update the pool reward per share before editing the multiplier\n            updatePool(_pidEdit[i]);\n            newMax = newMax - poolInfo[_pidEdit[i]].mult + _pidMulEdit[i];\n            //decrease old val and increase new val\n            poolInfo[_pidEdit[i]].mult = _pidMulEdit[i];\n        }\n        require(newMax <= maxMult, \"mult: exceeds max\");\n        currentMax = newMax;\n    }\n\n    /// @notice this is for frontend only, calculates the pending reward for a particular user in a specific pool.\n    /// @param _user User to calculate rewards to\n    /// @param _pid Pool Id to calculate rewards of\n    function pendingRewards(address _user, uint256 _pid)\n        external\n        view\n        returns (uint256 _pendingRewards)\n    {\n        PoolInfo storage pool = poolInfo[_pid];\n        UserInfo storage user = userInfo[_pid][_user];\n        if (user.amount == 0) {\n            return 0;\n        }\n        uint256 updatedPerShare = pool.accRewardPerShare;\n        uint256 tokenSupply = pool.token.balanceOf(address(this));\n        if (block.timestamp > pool.lastRewardTs && tokenSupply > 0) {\n            uint256 multiplier = getTimeEmissions(pool.lastRewardTs) *\n                pool.mult;\n            uint256 maxMultiplier = currentMax * tokenSupply * PERCENT;\n            updatedPerShare = updatedPerShare + (multiplier / maxMultiplier);\n        }\n        _pendingRewards =\n            ((updatedPerShare * user.amount) / PERCENT) -\n            user.accClaim;\n    }\n\n    /// @notice Update the accRewardPerShare for a specific pool\n    /// @param _pid Pool Id to update the accumulated rewards\n    function updatePool(uint256 _pid) public {\n        distributeNonDefi();\n        PoolInfo storage pool = poolInfo[_pid];\n        uint256 selfBal = pool.token.balanceOf(address(this));\n        if (\n            pool.mult == 0 ||\n            selfBal == 0 ||\n            block.timestamp <= pool.lastRewardTs\n        ) {\n            pool.lastRewardTs = block.timestamp;\n            return;\n        }\n        uint256 maxMultiplier = currentMax * selfBal;\n        uint256 periodReward = (getTimeEmissions(pool.lastRewardTs) *\n            pool.mult) / maxMultiplier;\n        pool.lastRewardTs = block.timestamp;\n        pool.accRewardPerShare = pool.accRewardPerShare + periodReward;\n    }\n\n    /// @notice getCurrentEmissions allows external users to get the current reward emissions\n    /// It Uses getTimeEmissions to get the current emissions for the pool between last reward emission and current emission\n    /// @param _pid Pool Id  from which we need emissions calculated\n    /// @return _emissions emissions for the given pool between\n    function getCurrentEmissions(uint256 _pid) public view returns (uint256) {\n        PoolInfo storage pool = poolInfo[_pid];\n        if (address(pool.token) == address(0) || pool.mult == 0) return 0;\n        return\n            (getTimeEmissions(poolInfo[_pid].lastRewardTs) * pool.mult) /\n            (currentMax * PERCENT);\n    }\n\n    /// @notice getCurrentEmissions calculates the current rewards between last reward emission and current emission timestamps\n    /// The function takes into account if that period is within the same year since deployment or it spans across two different years, since the emission rate changes yearly\n    /// @param lastTs _pool Pool Id  from which we need emissions calculated\n    /// @return _emissions reward token emissions calculated between the last reward emission and the current emission\n    function getTimeEmissions(uint256 lastTs)\n        internal\n        view\n        returns (uint256 _emissions)\n    {\n        uint256 poolYearDiff = (lastTs - chefStart) / SECONDS_PER_YEAR;\n        if (poolYearDiff > 4 || block.timestamp < chefStart) return 0;\n        uint256 yearDiff = (block.timestamp - chefStart) / SECONDS_PER_YEAR;\n        // If a Year has passed since pool lastRewardTS\n        uint256 defiEmission;\n        (, defiEmission, ) = getAllEmissions(poolYearDiff);\n        if (yearDiff > poolYearDiff) {\n            uint256 baseYear = (yearDiff * SECONDS_PER_YEAR) + chefStart;\n            uint256 timeDiff = baseYear - lastTs;\n            _emissions = (defiEmission * timeDiff * PERCENT) / chains;\n            //Calculate nextYear's\n            (, defiEmission, ) = getAllEmissions(yearDiff);\n            timeDiff = block.timestamp - baseYear;\n            _emissions += (defiEmission * timeDiff * PERCENT) / chains;\n        } else {\n            _emissions =\n                (defiEmission * (block.timestamp - lastTs) * PERCENT) /\n                chains;\n        }\n    }\n\n    function getYearlyEmissions(uint256 _yearsPassed)\n        public\n        view\n        returns (uint256 _emission, uint256 _treasuryEmission)\n    {\n        if (_yearsPassed > 4) return (0, 0);\n        _treasuryEmission =\n            (initMax * treasuryPercent) /\n            (FEE_DIV * (2**_yearsPassed));\n        _emission =\n            (initMax - _treasuryEmission - (_yearsPassed == 0 ? initDiff : 0)) /\n            (2**_yearsPassed);\n    }\n\n    function getSecondEmissions(uint256 _yearsPassed)\n        public\n        view\n        returns (uint256 _emission, uint256 _tEmission)\n    {\n        (uint256 others, uint256 _treasury) = getYearlyEmissions(_yearsPassed);\n        _emission = others / SECONDS_PER_YEAR;\n        _tEmission = _treasury / SECONDS_PER_YEAR;\n    }\n\n    function getAllEmissions(uint256 _yearsPassed)\n        public\n        view\n        returns (\n            uint256 _treasury,\n            uint256 _defi,\n            uint256 _p2e\n        )\n    {\n        (uint256 _othersPerSec, uint256 _treasuryPerSec) = getSecondEmissions(\n            _yearsPassed\n        );\n        _treasury = _treasuryPerSec;\n        _p2e = (_othersPerSec * p2ePercent) / FEE_DIV;\n        _defi = (_othersPerSec * defiPercent) / FEE_DIV;\n    }\n\n    function distributeNonDefi() public {\n        if (block.timestamp <= nonDefiLastRewardTransfer) return;\n        uint256 lastYearDiff = (nonDefiLastRewardTransfer - chefStart) /\n            SECONDS_PER_YEAR;\n        uint256 yearDiff = (block.timestamp - chefStart) / SECONDS_PER_YEAR;\n        uint256 totalTreasury;\n        uint256 totalP2E;\n        uint256 timeDiff;\n        (uint256 _treasury, , uint256 _p2e) = getAllEmissions(lastYearDiff);\n        if (yearDiff > lastYearDiff) {\n            uint256 baseYear = yearDiff * SECONDS_PER_YEAR + chefStart;\n            timeDiff = baseYear - nonDefiLastRewardTransfer;\n            totalTreasury = _treasury * timeDiff;\n            totalP2E = _p2e * timeDiff;\n            // Get for year change\n            (_treasury, , _p2e) = getAllEmissions(yearDiff);\n            timeDiff = block.timestamp - baseYear;\n            totalTreasury += _treasury * timeDiff;\n            totalP2E += _p2e * timeDiff;\n        } else {\n            timeDiff = block.timestamp - nonDefiLastRewardTransfer;\n            totalTreasury = _treasury * timeDiff;\n            totalP2E = _p2e * timeDiff;\n        }\n\n        nonDefiLastRewardTransfer = block.timestamp;\n        NICE.mint(treasury, totalTreasury);\n        NICE.mint(p2e, totalP2E);\n    }\n\n    /// @notice Update all pools accPerShare\n    /// @dev this might be expensive to call...\n    function massUpdatePools() public {\n        for (uint256 id = 1; id <= poolCounter; id++) {\n            emit LogEvent(id, \"pool update\");\n            if (poolInfo[id].mult == 0) continue;\n            if (!poolInfo[id].poolType) updatePool(id);\n            else _mintRewards(id);\n        }\n    }\n\n    /// @notice This is for Third party pools only. This handles the reward.\n    /// @param _pid ID of the third party pool that requests minted rewards\n    /// @return _rewardsGiven Amount of rewards minted to the third party pool\n    function mintRewards(uint256 _pid)\n        external\n        nonReentrant\n        returns (uint256 _rewardsGiven)\n    {\n        PoolInfo storage pool = poolInfo[_pid];\n        require(pool.poolType && tpPools[_pid] == msg.sender, \"Not tp pool\");\n        _rewardsGiven = _mintRewards(_pid);\n    }\n\n    /// @notice Internal function that Mints the amount of rewards calculated between last emission and current emission\n    /// @param _pid ID of the third party pool that requests minted rewards\n    /// @return _minted Amount of rewards minted to the pool\n    function _mintRewards(uint256 _pid) internal returns (uint256 _minted) {\n        distributeNonDefi();\n        PoolInfo storage pool = poolInfo[_pid];\n        if (block.timestamp <= pool.lastRewardTs) return 0;\n        _minted =\n            (getTimeEmissions(pool.lastRewardTs) * pool.mult) /\n            (currentMax * PERCENT);\n        pool.lastRewardTs = block.timestamp;\n        NICE.mint(address(pool.token), _minted);\n    }\n\n    /// @notice Allows user to deposit pool token to chef. Transfers rewards to user.\n    /// @param _amount Amount of pool tokens to stake\n    /// @param _pid Pool ID which indicates the type of token\n    function deposit(uint256 _amount, uint256 _pid) external nonReentrant {\n        PoolInfo storage pool = poolInfo[_pid];\n        UserInfo storage user = userInfo[_pid][msg.sender];\n        require(pool.mult > 0, \"Deposit: Pool disabled\");\n        require(!pool.poolType, \"Deposit: Tp Pool\");\n        updatePool(_pid);\n        //Harvest Rewards\n        if (user.amount > 0) {\n            uint256 pending = ((user.amount * pool.accRewardPerShare) /\n                PERCENT) - user.accClaim;\n            if (pending > 0) NICE.mint(msg.sender, pending);\n        }\n        uint256 usedAmount = _amount;\n        if (usedAmount > 0) {\n            if (pool.fee > 0) {\n                usedAmount = (usedAmount * pool.fee) / FEE_DIV;\n                if (address(feeDistributor) == address(0))\n                    pool.token.safeTransferFrom(\n                        address(msg.sender),\n                        feeAddress,\n                        usedAmount\n                    );\n                else {\n                    pool.token.approve(address(feeDistributor), usedAmount);\n                    try feeDistributor.receiveFees(_pid, usedAmount) {\n                        emit LogEvent(usedAmount, \"Success Fee Distribution\");\n                    } catch {\n                        emit LogEvent(usedAmount, \"Failed Fee Distribution\");\n                        pool.token.safeTransferFrom(\n                            address(msg.sender),\n                            feeAddress,\n                            usedAmount\n                        );\n                        pool.token.approve(address(feeDistributor), 0);\n                    }\n                }\n                usedAmount = _amount - usedAmount;\n            }\n            user.amount = user.amount + usedAmount;\n            pool.token.safeTransferFrom(\n                address(msg.sender),\n                address(this),\n                usedAmount\n            );\n        }\n        user.accClaim = (user.amount * pool.accRewardPerShare) / PERCENT;\n        emit Deposit(msg.sender, _pid, _amount);\n    }\n\n    /// @notice Withdraws pool token from chef. Transfers rewards to user.\n    /// @param _amount Amount of pool tokens to withdraw.\n    /// @param _pid Pool ID which indicates the type of token\n    function withdraw(uint256 _amount, uint256 _pid) external nonReentrant {\n        PoolInfo storage pool = poolInfo[_pid];\n        UserInfo storage user = userInfo[_pid][msg.sender];\n        require(!pool.poolType, \"Withdraw: Tp Pool\");\n        require(user.amount >= _amount, \"Withdraw: invalid amount\");\n        updatePool(_pid);\n        uint256 pending = (user.amount * pool.accRewardPerShare) /\n            PERCENT -\n            user.accClaim;\n        if (pending > 0) {\n            NICE.mint(msg.sender, pending);\n        }\n        if (_amount > 0) {\n            user.amount = user.amount - _amount;\n            pool.token.safeTransfer(address(msg.sender), _amount);\n        }\n        user.accClaim = (user.amount * pool.accRewardPerShare) / PERCENT;\n        emit Withdraw(msg.sender, _pid, _amount);\n    }\n\n    /// @notice Emergency withdraws all the pool tokens from chef. In this case there's no reward.\n    /// @param _pid Pool ID which indicates the type of token\n    function emergencyWithdraw(uint256 _pid) external nonReentrant {\n        PoolInfo storage pool = poolInfo[_pid];\n        UserInfo storage user = userInfo[_pid][msg.sender];\n        require(!pool.poolType, \"withdraw: Tp Pool\");\n        require(user.amount > 0, \"Withdraw: invalid amount\");\n        uint256 _amount = user.amount;\n        userInfo[_pid][msg.sender] = UserInfo(0, 0);\n        pool.token.safeTransfer(address(msg.sender), _amount);\n        emit EmergencyWithdraw(msg.sender, _pid, _amount);\n    }\n\n    /// @notice Edits the pool multiplier and updates pools with new params\n    /// @param _pidEdit Pool ID\n    /// @param _pidMulEdit New multiplier\n    function editPoolMult(\n        uint256[] calldata _pidEdit,\n        uint256[] calldata _pidMulEdit\n    ) external onlyOwner {\n        updateMultipliers(_pidEdit, _pidMulEdit);\n        emit UpdatePools(_pidEdit, _pidMulEdit);\n    }\n\n    /// @notice Edits pool fee and updates pools with new params\n    /// @param _pid Pool Id\n    /// @param _fee New pool fee\n    function editPoolFee(uint256 _pid, uint256 _fee) external onlyOwner {\n        PoolInfo storage pool = poolInfo[_pid];\n        require(address(pool.token) != address(0), \"edit: invalid\");\n        require(_fee <= 2500, \"edit: high fee\");\n        pool.fee = _fee;\n        emit UpdatePool(_pid, pool.mult, _fee);\n    }\n\n    /// @notice Edits the amount of chains to which emissions are split\n    /// This factor is used in the emissions calculation\n    /// @param _addOrSubstract TRUE = ADD ; FALSE = SUBSTRACT\n    function editChains(bool _addOrSubstract) external onlyOwner {\n        massUpdatePools();\n        chains = _addOrSubstract ? chains + 1 : chains - 1;\n        require(chains > 0, \"Cant be zero chains\");\n        emit ChainUpdate(chains);\n    }\n\n    /// @notice Edit the address used to Receive Fees\n    /// @param _feeReceiver the Address to use\n    /// @param _isContract if the address is a FeeDistributor Contract\n    /// @dev remove of contract is achievable by adding the Address 0 to it and setting _isContract to True\n    function editFeeAddress(address _feeReceiver, bool _isContract)\n        external\n        onlyOwner\n    {\n        if (_isContract) feeDistributor = IFeeDistributor(_feeReceiver);\n        else {\n            require(_feeReceiver != address(0), \"set receiver\");\n            feeAddress = _feeReceiver;\n        }\n        emit FeeAddressEdit(_feeReceiver, _isContract);\n    }\n}\n","sourcePath":"contracts/GalacticChef.sol","type":"contract","deployment":{"address":"0x6B546efD9dA8Fc4293E744B4F7Fc165836E9cf68","chainid":"97","blockHeight":17661926}}