{"abi":[{"inputs":[{"internalType":"address","name":"_staked","type":"address"},{"internalType":"address","name":"_rewarded","type":"address"},{"internalType":"address","name":"_feeAddress","type":"address"},{"internalType":"uint256","name":"_rewardPerBlock","type":"uint256"},{"internalType":"uint256","name":"_startBlock","type":"uint256"},{"internalType":"uint256","name":"_poolLimit","type":"uint256"},{"internalType":"uint256","name":"rewardAmount","type":"uint256"},{"internalType":"uint256","name":"_fee","type":"uint256"}],"stateMutability":"nonpayable","type":"constructor","name":"constructor"},{"anonymous":false,"inputs":[{"indexed":true,"internalType":"address","name":"_token","type":"address"},{"indexed":false,"internalType":"uint256","name":"amount","type":"uint256"}],"name":"AdminTokenRecovery","type":"event"},{"anonymous":false,"inputs":[{"indexed":true,"internalType":"address","name":"_user","type":"address"},{"indexed":false,"internalType":"uint256","name":"amount","type":"uint256"}],"name":"Deposit","type":"event"},{"anonymous":false,"inputs":[{"indexed":true,"internalType":"address","name":"_user","type":"address"},{"indexed":false,"internalType":"uint256","name":"amount","type":"uint256"}],"name":"EmergencyWithdraw","type":"event"},{"anonymous":false,"inputs":[{"indexed":true,"internalType":"address","name":"previousOwner","type":"address"},{"indexed":true,"internalType":"address","name":"newOwner","type":"address"}],"name":"OwnershipTransferred","type":"event"},{"anonymous":false,"inputs":[{"indexed":false,"internalType":"address","name":"_new","type":"address"},{"indexed":false,"internalType":"address","name":"_old","type":"address"}],"name":"UpdateFeeDistributor","type":"event"},{"anonymous":false,"inputs":[{"indexed":false,"internalType":"uint256","name":"_new","type":"uint256"},{"indexed":false,"internalType":"uint256","name":"_old","type":"uint256"}],"name":"UpdateFees","type":"event"},{"anonymous":false,"inputs":[{"indexed":false,"internalType":"uint256","name":"_limit","type":"uint256"}],"name":"UpdateLimit","type":"event"},{"anonymous":false,"inputs":[{"indexed":false,"internalType":"uint256","name":"_newRewardPerBlock","type":"uint256"}],"name":"UpdateRewardPerBlock","type":"event"},{"anonymous":false,"inputs":[{"indexed":true,"internalType":"address","name":"_user","type":"address"},{"indexed":false,"internalType":"uint256","name":"amount","type":"uint256"}],"name":"Withdraw","type":"event"},{"inputs":[],"name":"DIVISOR","outputs":[{"internalType":"uint256","name":"","type":"uint256"}],"stateMutability":"view","type":"function"},{"inputs":[],"name":"PRECISION_FACTOR","outputs":[{"internalType":"uint256","name":"","type":"uint256"}],"stateMutability":"view","type":"function"},{"inputs":[],"name":"accRewardPerShare","outputs":[{"internalType":"uint256","name":"","type":"uint256"}],"stateMutability":"view","type":"function"},{"inputs":[{"internalType":"uint256","name":"_amount","type":"uint256"}],"name":"deposit","outputs":[],"stateMutability":"nonpayable","type":"function"},{"inputs":[],"name":"emergencyWithdraw","outputs":[],"stateMutability":"nonpayable","type":"function"},{"inputs":[],"name":"fee","outputs":[{"internalType":"uint256","name":"","type":"uint256"}],"stateMutability":"view","type":"function"},{"inputs":[],"name":"feeAddress","outputs":[{"internalType":"address","name":"","type":"address"}],"stateMutability":"view","type":"function"},{"inputs":[],"name":"lastRewardBlock","outputs":[{"internalType":"uint256","name":"","type":"uint256"}],"stateMutability":"view","type":"function"},{"inputs":[],"name":"owner","outputs":[{"internalType":"address","name":"","type":"address"}],"stateMutability":"view","type":"function"},{"inputs":[{"internalType":"address","name":"_user","type":"address"}],"name":"pendingReward","outputs":[{"internalType":"uint256","name":"_reward","type":"uint256"}],"stateMutability":"view","type":"function"},{"inputs":[],"name":"poolLimit","outputs":[{"internalType":"uint256","name":"","type":"uint256"}],"stateMutability":"view","type":"function"},{"inputs":[{"internalType":"address","name":"_tokenAddress","type":"address"},{"internalType":"uint256","name":"_tokenAmount","type":"uint256"}],"name":"recoverWrongTokens","outputs":[],"stateMutability":"nonpayable","type":"function"},{"inputs":[],"name":"renounceOwnership","outputs":[],"stateMutability":"nonpayable","type":"function"},{"inputs":[],"name":"rewardEnd","outputs":[{"internalType":"uint256","name":"","type":"uint256"}],"stateMutability":"view","type":"function"},{"inputs":[],"name":"rewardPerBlock","outputs":[{"internalType":"uint256","name":"","type":"uint256"}],"stateMutability":"view","type":"function"},{"inputs":[],"name":"rewardToken","outputs":[{"internalType":"contract IERC20","name":"","type":"address"}],"stateMutability":"view","type":"function"},{"inputs":[],"name":"stakeToken","outputs":[{"internalType":"contract IERC20","name":"","type":"address"}],"stateMutability":"view","type":"function"},{"inputs":[],"name":"startBlock","outputs":[{"internalType":"uint256","name":"","type":"uint256"}],"stateMutability":"view","type":"function"},{"inputs":[{"internalType":"address","name":"newOwner","type":"address"}],"name":"transferOwnership","outputs":[],"stateMutability":"nonpayable","type":"function"},{"inputs":[{"internalType":"uint256","name":"_newFee","type":"uint256"}],"name":"updateFee","outputs":[],"stateMutability":"nonpayable","type":"function"},{"inputs":[{"internalType":"address","name":"_feeAddress","type":"address"}],"name":"updateFeeDistributor","outputs":[],"stateMutability":"nonpayable","type":"function"},{"inputs":[{"internalType":"uint256","name":"_newLimit","type":"uint256"}],"name":"updatePoolLimitPerUser","outputs":[],"stateMutability":"nonpayable","type":"function"},{"inputs":[{"internalType":"uint256","name":"_rewardPerBlock","type":"uint256"}],"name":"updateRewardPerBlock","outputs":[],"stateMutability":"nonpayable","type":"function"},{"inputs":[{"internalType":"address","name":"","type":"address"}],"name":"userInfo","outputs":[{"internalType":"uint256","name":"amount","type":"uint256"},{"internalType":"uint256","name":"accReward","type":"uint256"}],"stateMutability":"view","type":"function"},{"inputs":[{"internalType":"uint256","name":"_amount","type":"uint256"}],"name":"withdraw","outputs":[],"stateMutability":"nonpayable","type":"function"}],"bytecode":"60c06040523480156200001157600080fd5b506040516200189138038062001891833981016040819052620000349162000122565b6200003f33620000b5565b600180556001600160a01b03808916608052871660a052600485905560058490556006839055836200007286846200019d565b6200007e9190620001c0565b600355600a80546001600160a01b0319166001600160a01b03979097169690961790955550505060099190915550620001e7915050565b600080546001600160a01b038381166001600160a01b0319831681178455604051919092169283917f8be0079c531659141344cd1fd0a4f28419497f9722a3daafe3b4186f6b6457e09190a35050565b80516001600160a01b03811681146200011d57600080fd5b919050565b600080600080600080600080610100898b0312156200014057600080fd5b6200014b8962000105565b97506200015b60208a0162000105565b96506200016b60408a0162000105565b9550606089015194506080890151935060a0890151925060c0890151915060e089015190509295985092959890939650565b600082620001bb57634e487b7160e01b600052601260045260246000fd5b500490565b60008219821115620001e257634e487b7160e01b600052601160045260246000fd5b500190565b60805160a05161163e6200025360003960008181610340015281816105fc0152818161077d0152610c030152600081816102440152818161051b0152818161070201528181610d2a01528181610e3301528181610fb50152818161117c01526112ff015261163e6000f3fe608060405234801561001057600080fd5b50600436106101735760003560e01c80638da5cb5b116100de578063ccd34cd511610097578063ddca3f4311610071578063ddca3f431461030c578063f2fde38b14610315578063f40f0f5214610328578063f7c618c11461033b57600080fd5b8063ccd34cd5146102ef578063d59baa03146102fb578063db2e21bc1461030457600080fd5b80638da5cb5b1461029d5780639012c4a8146102ae578063939d6237146102c1578063a9f8d181146102ca578063b6b55f25146102d3578063c1e534aa146102e657600080fd5b806348cd4cb11161013057806348cd4cb11461023657806351ed6a301461023f57806360c73bf2146102665780636945cae414610279578063715018a61461028c5780638ae39cac1461029457600080fd5b806301f8a976146101785780631959a0021461018d5780632e1a7d4d146101ce5780633410fe6e146101e15780633f138d4b146101f8578063412753581461020b575b600080fd5b61018b61018636600461145a565b610362565b005b6101b461019b36600461148f565b6002602052600090815260409020805460019091015482565b604080519283526020830191909152015b60405180910390f35b61018b6101dc36600461145a565b610415565b6101ea61271081565b6040519081526020016101c5565b61018b6102063660046114b1565b6106d6565b600a5461021e906001600160a01b031681565b6040516001600160a01b0390911681526020016101c5565b6101ea60055481565b61021e7f000000000000000000000000000000000000000000000000000000000000000081565b61018b61027436600461148f565b6108af565b61018b61028736600461145a565b610971565b61018b610a2a565b6101ea60045481565b6000546001600160a01b031661021e565b61018b6102bc36600461145a565b610a60565b6101ea60075481565b6101ea60085481565b61018b6102e136600461145a565b610b0c565b6101ea60035481565b6101ea64e8d4a5100081565b6101ea60065481565b61018b610f4a565b6101ea60095481565b61018b61032336600461148f565b6110ad565b6101ea61033636600461148f565b611148565b61021e7f000000000000000000000000000000000000000000000000000000000000000081565b6000546001600160a01b031633146103955760405162461bcd60e51b815260040161038c906114db565b60405180910390fd5b60055443106103d95760405162461bcd60e51b815260206004820152601060248201526f141bdbdb081a185cc81cdd185c9d195960821b604482015260640161038c565b60048190556040518181527fc606f355efeddd89e42e997e575220501445590def6dd71bf081c2c51d6c0a4d906020015b60405180910390a150565b600260015414156104385760405162461bcd60e51b815260040161038c90611510565b600260018190553360009081526020919091526040902080548211156104a05760405162461bcd60e51b815260206004820152601b60248201527f416d6f756e7420746f20776974686472617720746f6f20686967680000000000604482015260640161038c565b6104a86112dc565b6000816001015464e8d4a5100060075484600001546104c7919061155d565b6104d1919061157c565b6104db919061159e565b905082156105d757828260000160008282546104f7919061159e565b909155505060405163a9059cbb60e01b8152336004820152602481018490526000907f00000000000000000000000000000000000000000000000000000000000000006001600160a01b03169063a9059cbb906044016020604051808303816000875af115801561056c573d6000803e3d6000fd5b505050506040513d601f19601f8201168201806040525081019061059091906115b5565b9050806105d55760405162461bcd60e51b815260206004820152601360248201527214dd185ad948151c985b9cd9995c8811985a5b606a1b604482015260640161038c565b505b80156106745760405163a9059cbb60e01b8152336004820152602481018290526000907f00000000000000000000000000000000000000000000000000000000000000006001600160a01b03169063a9059cbb906044016020604051808303816000875af115801561064d573d6000803e3d6000fd5b505050506040513d601f19601f8201168201806040525081019061067191906115b5565b50505b600754825464e8d4a51000916106899161155d565b610693919061157c565b600183015560405183815233907f884edad9ce6fa2440d8a54cc123490eb96d2768479d49ff9c7366125a94243649060200160405180910390a250506001805550565b6000546001600160a01b031633146107005760405162461bcd60e51b815260040161038c906114db565b7f00000000000000000000000000000000000000000000000000000000000000006001600160a01b0316826001600160a01b0316141561077b5760405162461bcd60e51b815260206004820152601660248201527521b0b73737ba1031329039ba30b5b2b2103a37b5b2b760511b604482015260640161038c565b7f00000000000000000000000000000000000000000000000000000000000000006001600160a01b0316826001600160a01b031614156107f65760405162461bcd60e51b815260206004820152601660248201527521b0b73737ba103132903932bbb0b932103a37b5b2b760511b604482015260640161038c565b60405163a9059cbb60e01b8152336004820152602481018290526001600160a01b0383169063a9059cbb906044016020604051808303816000875af1158015610843573d6000803e3d6000fd5b505050506040513d601f19601f8201168201806040525081019061086791906115b5565b50816001600160a01b03167f74545154aac348a3eac92596bd1971957ca94795f4e954ec5f613b55fab78129826040516108a391815260200190565b60405180910390a25050565b6000546001600160a01b031633146108d95760405162461bcd60e51b815260040161038c906114db565b6001600160a01b038116158015906108ff5750600a546001600160a01b03828116911614155b61090857600080fd5b600a54604080516001600160a01b03808516825290921660208301527f4f817e2483680b2978ed4abb61da6716fbf93eb7df1416708da08b9be32d49ff910160405180910390a1600a80546001600160a01b0319166001600160a01b0392909216919091179055565b6000546001600160a01b0316331461099b5760405162461bcd60e51b815260040161038c906114db565b6006548111806109a9575080155b6109f55760405162461bcd60e51b815260206004820152601d60248201527f496e637265617365206f722072656d6f7665206c696d6974206f6e6c79000000604482015260640161038c565b60068190556040518181527fa498daefca172c7ebb28b62db707445296cb78b1be0c15afe0b4d9096335b75a9060200161040a565b6000546001600160a01b03163314610a545760405162461bcd60e51b815260040161038c906114db565b610a5e600061140a565b565b6000546001600160a01b03163314610a8a5760405162461bcd60e51b815260040161038c906114db565b6109c4811115610aca5760405162461bcd60e51b815260206004820152600b60248201526a496e76616c69642046656560a81b604482015260640161038c565b6009546040805183815260208101929092527f53482196ef67ac615caab1c3eca2c270acbfdcd75e57c5f24c1b98b10c8e6e04910160405180910390a1600955565b60026001541415610b2f5760405162461bcd60e51b815260040161038c90611510565b600260018190553360009081526020919091526040902060065415610b9a576006548154610b5e9084906115d7565b1115610b9a5760405162461bcd60e51b815260206004820152600b60248201526a10589bdd9948131a5b5a5d60aa1b604482015260640161038c565b610ba26112dc565b805415610cbe576000816001015464e8d4a510006007548460000154610bc8919061155d565b610bd2919061157c565b610bdc919061159e565b90508015610cbc5760405163a9059cbb60e01b8152336004820152602481018290526000907f00000000000000000000000000000000000000000000000000000000000000006001600160a01b03169063a9059cbb906044016020604051808303816000875af1158015610c54573d6000803e3d6000fd5b505050506040513d601f19601f82011682018060405250810190610c7891906115b5565b905080610cba5760405162461bcd60e51b815260206004820152601060248201526f11985a5b1959081d1bc814995dd85c9960821b604482015260640161038c565b505b505b8115610ee85760095415610df557600061271060095484610cdf919061155d565b610ce9919061157c565b9050610cf5818461159e565b600a546040516323b872dd60e01b81523360048201526001600160a01b039182166024820152604481018490529194506000917f0000000000000000000000000000000000000000000000000000000000000000909116906323b872dd906064016020604051808303816000875af1158015610d75573d6000803e3d6000fd5b505050506040513d601f19601f82011682018060405250810190610d9991906115b5565b905080610df25760405162461bcd60e51b815260206004820152602160248201527f556e61626c6520746f207472616e7366657220746f20666565204164647265736044820152607360f81b606482015260840161038c565b50505b81816000016000828254610e0991906115d7565b90915550506040516323b872dd60e01b8152336004820152306024820152604481018390526000907f00000000000000000000000000000000000000000000000000000000000000006001600160a01b0316906323b872dd906064016020604051808303816000875af1158015610e84573d6000803e3d6000fd5b505050506040513d601f19601f82011682018060405250810190610ea891906115b5565b905080610ee65760405162461bcd60e51b815260206004820152600c60248201526b10d85b9d0819195c1bdcda5d60a21b604482015260640161038c565b505b600754815464e8d4a5100091610efd9161155d565b610f07919061157c565b600182015560405182815233907fe1fffcc4923d04b559f4d29a8bfc6cda04eb5b0d3c460751c2402c5c5cc9109c906020015b60405180910390a2505060018055565b60026001541415610f6d5760405162461bcd60e51b815260040161038c90611510565b6002600181815533600090815260209290925260408220805483825591810192909255801561107b5760405163a9059cbb60e01b8152336004820152602481018290526000907f00000000000000000000000000000000000000000000000000000000000000006001600160a01b03169063a9059cbb906044016020604051808303816000875af1158015611006573d6000803e3d6000fd5b505050506040513d601f19601f8201168201806040525081019061102a91906115b5565b9050806110795760405162461bcd60e51b815260206004820152601760248201527f456d657267656e63792043616e74207769746864726177000000000000000000604482015260640161038c565b505b60405181815233907f5fafa99d0643513820be26656b45130b01e1c03062e1266bf36f88cbd3bd969590602001610f3a565b6000546001600160a01b031633146110d75760405162461bcd60e51b815260040161038c906114db565b6001600160a01b03811661113c5760405162461bcd60e51b815260206004820152602660248201527f4f776e61626c653a206e6577206f776e657220697320746865207a65726f206160448201526564647265737360d01b606482015260840161038c565b6111458161140a565b50565b6001600160a01b0381811660009081526002602052604080822090516370a0823160e01b81523060048201529192909183917f000000000000000000000000000000000000000000000000000000000000000016906370a0823190602401602060405180830381865afa1580156111c3573d6000803e3d6000fd5b505050506040513d601f19601f820116820180604052508101906111e791906115ef565b9050600854431180156111fa5750600081115b156112a45760006003544311156112225760085460035461121b919061159e565b9050611232565b60085461122f904361159e565b90505b60045461123f908261155d565b905060008261125364e8d4a510008461155d565b61125d919061157c565b60075461126a91906115d7565b9050836001015464e8d4a51000856000015483611287919061155d565b611291919061157c565b61129b919061159e565b945050506112d5565b6001820154600754835464e8d4a51000916112be9161155d565b6112c8919061157c565b6112d2919061159e565b92505b5050919050565b60085443116112e757565b6040516370a0823160e01b81523060048201526000907f00000000000000000000000000000000000000000000000000000000000000006001600160a01b0316906370a0823190602401602060405180830381865afa15801561134e573d6000803e3d6000fd5b505050506040513d601f19601f8201168201806040525081019061137291906115ef565b90508015806113845750600354600854115b15611390575043600855565b60006003544311156113b3576008546003546113ac919061159e565b90506113c3565b6008546113c0904361159e565b90505b6004546113d0908261155d565b9050816113e264e8d4a510008361155d565b6113ec919061157c565b600760008282546113fd91906115d7565b9091555050436008555050565b600080546001600160a01b038381166001600160a01b0319831681178455604051919092169283917f8be0079c531659141344cd1fd0a4f28419497f9722a3daafe3b4186f6b6457e09190a35050565b60006020828403121561146c57600080fd5b5035919050565b80356001600160a01b038116811461148a57600080fd5b919050565b6000602082840312156114a157600080fd5b6114aa82611473565b9392505050565b600080604083850312156114c457600080fd5b6114cd83611473565b946020939093013593505050565b6020808252818101527f4f776e61626c653a2063616c6c6572206973206e6f7420746865206f776e6572604082015260600190565b6020808252601f908201527f5265656e7472616e637947756172643a207265656e7472616e742063616c6c00604082015260600190565b634e487b7160e01b600052601160045260246000fd5b600081600019048311821515161561157757611577611547565b500290565b60008261159957634e487b7160e01b600052601260045260246000fd5b500490565b6000828210156115b0576115b0611547565b500390565b6000602082840312156115c757600080fd5b815180151581146114aa57600080fd5b600082198211156115ea576115ea611547565b500190565b60006020828403121561160157600080fd5b505191905056fea264697066735822122095cd19e966b97ec66236784ccee42cb7d76305332214ce36fa387aadf499e22064736f6c634300080c0033","bytecodeSha1":"df7fefebbfccdba9ca5b123ef2ae26ed721599eb","compiler":{"evm_version":"istanbul","optimizer":{"enabled":true,"runs":200},"version":"0.8.12+commit.f00d7308"},"contractName":"InvaderPool","language":"Solidity","natspec":{"kind":"dev","methods":{"constructor":{"details":"Please add funds before startBlock is reached.","notice":"Constructor, set startBlock at least 2 - 3 hours before actual launch time."},"deposit(uint256)":{"details":"updates the pool reward to give through time.","notice":"withdraw stake tokens from pool back to user.","params":{"_amount":"the amount to deposit... Amount must be lower than limit"}},"emergencyWithdraw()":{"notice":"Allows users to withdraw their funds without any rewards"},"owner()":{"details":"Returns the address of the current owner."},"pendingReward(address)":{"notice":"give pending reward back from having the user account","params":{"_user":"The user address to check"},"returns":{"_reward":"The reward amount for the timeframe"}},"recoverWrongTokens(address,uint256)":{"details":"This function is only callable by admin.","notice":"It allows the admin to recover wrong tokens sent to the contract","params":{"_tokenAddress":": the address of the token to withdraw","_tokenAmount":": the number of tokens to withdraw"}},"renounceOwnership()":{"details":"Leaves the contract without owner. It will not be possible to call `onlyOwner` functions anymore. Can only be called by the current owner. NOTE: Renouncing ownership will leave the contract without an owner, thereby removing any functionality that is only available to the owner."},"transferOwnership(address)":{"details":"Transfers ownership of the contract to a new account (`newOwner`). Can only be called by the current owner."},"updatePoolLimitPerUser(uint256)":{"details":"Only callable by owner.if _newLimit is 0 then limit is removed","notice":"Update pool limit per user","params":{"_newLimit":": enforce limit only by number... new Limit must be higher or ZERO"}},"updateRewardPerBlock(uint256)":{"details":"Only callable by owner.","notice":"Update reward per block","params":{"_rewardPerBlock":": the reward per block"}},"withdraw(uint256)":{"details":"updates the pool reward to give throught time.","notice":"withdraw stake tokens from pool back to user.","params":{"_amount":"the amount to withdraw... Amount must be the staked amount MAX"}}},"version":1},"opcodes":"PUSH1 0x80 PUSH1 0x40 MSTORE CALLVALUE DUP1 ISZERO PUSH2 0x10 JUMPI PUSH1 0x0 DUP1 REVERT JUMPDEST POP PUSH1 0x4 CALLDATASIZE LT PUSH2 0x173 JUMPI PUSH1 0x0 CALLDATALOAD PUSH1 0xE0 SHR DUP1 PUSH4 0x8DA5CB5B GT PUSH2 0xDE JUMPI DUP1 PUSH4 0xCCD34CD5 GT PUSH2 0x97 JUMPI DUP1 PUSH4 0xDDCA3F43 GT PUSH2 0x71 JUMPI DUP1 PUSH4 0xDDCA3F43 EQ PUSH2 0x30C JUMPI DUP1 PUSH4 0xF2FDE38B EQ PUSH2 0x315 JUMPI DUP1 PUSH4 0xF40F0F52 EQ PUSH2 0x328 JUMPI DUP1 PUSH4 0xF7C618C1 EQ PUSH2 0x33B JUMPI PUSH1 0x0 DUP1 REVERT JUMPDEST DUP1 PUSH4 0xCCD34CD5 EQ PUSH2 0x2EF JUMPI DUP1 PUSH4 0xD59BAA03 EQ PUSH2 0x2FB JUMPI DUP1 PUSH4 0xDB2E21BC EQ PUSH2 0x304 JUMPI PUSH1 0x0 DUP1 REVERT JUMPDEST DUP1 PUSH4 0x8DA5CB5B EQ PUSH2 0x29D JUMPI DUP1 PUSH4 0x9012C4A8 EQ PUSH2 0x2AE JUMPI DUP1 PUSH4 0x939D6237 EQ PUSH2 0x2C1 JUMPI DUP1 PUSH4 0xA9F8D181 EQ PUSH2 0x2CA JUMPI DUP1 PUSH4 0xB6B55F25 EQ PUSH2 0x2D3 JUMPI DUP1 PUSH4 0xC1E534AA EQ PUSH2 0x2E6 JUMPI PUSH1 0x0 DUP1 REVERT JUMPDEST DUP1 PUSH4 0x48CD4CB1 GT PUSH2 0x130 JUMPI DUP1 PUSH4 0x48CD4CB1 EQ PUSH2 0x236 JUMPI DUP1 PUSH4 0x51ED6A30 EQ PUSH2 0x23F JUMPI DUP1 PUSH4 0x60C73BF2 EQ PUSH2 0x266 JUMPI DUP1 PUSH4 0x6945CAE4 EQ PUSH2 0x279 JUMPI DUP1 PUSH4 0x715018A6 EQ PUSH2 0x28C JUMPI DUP1 PUSH4 0x8AE39CAC EQ PUSH2 0x294 JUMPI PUSH1 0x0 DUP1 REVERT JUMPDEST DUP1 PUSH4 0x1F8A976 EQ PUSH2 0x178 JUMPI DUP1 PUSH4 0x1959A002 EQ PUSH2 0x18D JUMPI DUP1 PUSH4 0x2E1A7D4D EQ PUSH2 0x1CE JUMPI DUP1 PUSH4 0x3410FE6E EQ PUSH2 0x1E1 JUMPI DUP1 PUSH4 0x3F138D4B EQ PUSH2 0x1F8 JUMPI DUP1 PUSH4 0x41275358 EQ PUSH2 0x20B JUMPI JUMPDEST PUSH1 0x0 DUP1 REVERT JUMPDEST PUSH2 0x18B PUSH2 0x186 CALLDATASIZE PUSH1 0x4 PUSH2 0x145A JUMP JUMPDEST PUSH2 0x362 JUMP JUMPDEST STOP JUMPDEST PUSH2 0x1B4 PUSH2 0x19B CALLDATASIZE PUSH1 0x4 PUSH2 0x148F JUMP JUMPDEST PUSH1 0x2 PUSH1 0x20 MSTORE PUSH1 0x0 SWAP1 DUP2 MSTORE PUSH1 0x40 SWAP1 KECCAK256 DUP1 SLOAD PUSH1 0x1 SWAP1 SWAP2 ADD SLOAD DUP3 JUMP JUMPDEST PUSH1 0x40 DUP1 MLOAD SWAP3 DUP4 MSTORE PUSH1 0x20 DUP4 ADD SWAP2 SWAP1 SWAP2 MSTORE ADD JUMPDEST PUSH1 0x40 MLOAD DUP1 SWAP2 SUB SWAP1 RETURN JUMPDEST PUSH2 0x18B PUSH2 0x1DC CALLDATASIZE PUSH1 0x4 PUSH2 0x145A JUMP JUMPDEST PUSH2 0x415 JUMP JUMPDEST PUSH2 0x1EA PUSH2 0x2710 DUP2 JUMP JUMPDEST PUSH1 0x40 MLOAD SWAP1 DUP2 MSTORE PUSH1 0x20 ADD PUSH2 0x1C5 JUMP JUMPDEST PUSH2 0x18B PUSH2 0x206 CALLDATASIZE PUSH1 0x4 PUSH2 0x14B1 JUMP JUMPDEST PUSH2 0x6D6 JUMP JUMPDEST PUSH1 0xA SLOAD PUSH2 0x21E SWAP1 PUSH1 0x1 PUSH1 0x1 PUSH1 0xA0 SHL SUB AND DUP2 JUMP JUMPDEST PUSH1 0x40 MLOAD PUSH1 0x1 PUSH1 0x1 PUSH1 0xA0 SHL SUB SWAP1 SWAP2 AND DUP2 MSTORE PUSH1 0x20 ADD PUSH2 0x1C5 JUMP JUMPDEST PUSH2 0x1EA PUSH1 0x5 SLOAD DUP2 JUMP JUMPDEST PUSH2 0x21E PUSH32 0x0 DUP2 JUMP JUMPDEST PUSH2 0x18B PUSH2 0x274 CALLDATASIZE PUSH1 0x4 PUSH2 0x148F JUMP JUMPDEST PUSH2 0x8AF JUMP JUMPDEST PUSH2 0x18B PUSH2 0x287 CALLDATASIZE PUSH1 0x4 PUSH2 0x145A JUMP JUMPDEST PUSH2 0x971 JUMP JUMPDEST PUSH2 0x18B PUSH2 0xA2A JUMP JUMPDEST PUSH2 0x1EA PUSH1 0x4 SLOAD DUP2 JUMP JUMPDEST PUSH1 0x0 SLOAD PUSH1 0x1 PUSH1 0x1 PUSH1 0xA0 SHL SUB AND PUSH2 0x21E JUMP JUMPDEST PUSH2 0x18B PUSH2 0x2BC CALLDATASIZE PUSH1 0x4 PUSH2 0x145A JUMP JUMPDEST PUSH2 0xA60 JUMP JUMPDEST PUSH2 0x1EA PUSH1 0x7 SLOAD DUP2 JUMP JUMPDEST PUSH2 0x1EA PUSH1 0x8 SLOAD DUP2 JUMP JUMPDEST PUSH2 0x18B PUSH2 0x2E1 CALLDATASIZE PUSH1 0x4 PUSH2 0x145A JUMP JUMPDEST PUSH2 0xB0C JUMP JUMPDEST PUSH2 0x1EA PUSH1 0x3 SLOAD DUP2 JUMP JUMPDEST PUSH2 0x1EA PUSH5 0xE8D4A51000 DUP2 JUMP JUMPDEST PUSH2 0x1EA PUSH1 0x6 SLOAD DUP2 JUMP JUMPDEST PUSH2 0x18B PUSH2 0xF4A JUMP JUMPDEST PUSH2 0x1EA PUSH1 0x9 SLOAD DUP2 JUMP JUMPDEST PUSH2 0x18B PUSH2 0x323 CALLDATASIZE PUSH1 0x4 PUSH2 0x148F JUMP JUMPDEST PUSH2 0x10AD JUMP JUMPDEST PUSH2 0x1EA PUSH2 0x336 CALLDATASIZE PUSH1 0x4 PUSH2 0x148F JUMP JUMPDEST PUSH2 0x1148 JUMP JUMPDEST PUSH2 0x21E PUSH32 0x0 DUP2 JUMP JUMPDEST PUSH1 0x0 SLOAD PUSH1 0x1 PUSH1 0x1 PUSH1 0xA0 SHL SUB AND CALLER EQ PUSH2 0x395 JUMPI PUSH1 0x40 MLOAD PUSH3 0x461BCD PUSH1 0xE5 SHL DUP2 MSTORE PUSH1 0x4 ADD PUSH2 0x38C SWAP1 PUSH2 0x14DB JUMP JUMPDEST PUSH1 0x40 MLOAD DUP1 SWAP2 SUB SWAP1 REVERT JUMPDEST PUSH1 0x5 SLOAD NUMBER LT PUSH2 0x3D9 JUMPI PUSH1 0x40 MLOAD PUSH3 0x461BCD PUSH1 0xE5 SHL DUP2 MSTORE PUSH1 0x20 PUSH1 0x4 DUP3 ADD MSTORE PUSH1 0x10 PUSH1 0x24 DUP3 ADD MSTORE PUSH16 0x141BDBDB081A185CC81CDD185C9D1959 PUSH1 0x82 SHL PUSH1 0x44 DUP3 ADD MSTORE PUSH1 0x64 ADD PUSH2 0x38C JUMP JUMPDEST PUSH1 0x4 DUP2 SWAP1 SSTORE PUSH1 0x40 MLOAD DUP2 DUP2 MSTORE PUSH32 0xC606F355EFEDDD89E42E997E575220501445590DEF6DD71BF081C2C51D6C0A4D SWAP1 PUSH1 0x20 ADD JUMPDEST PUSH1 0x40 MLOAD DUP1 SWAP2 SUB SWAP1 LOG1 POP JUMP JUMPDEST PUSH1 0x2 PUSH1 0x1 SLOAD EQ ISZERO PUSH2 0x438 JUMPI PUSH1 0x40 MLOAD PUSH3 0x461BCD PUSH1 0xE5 SHL DUP2 MSTORE PUSH1 0x4 ADD PUSH2 0x38C SWAP1 PUSH2 0x1510 JUMP JUMPDEST PUSH1 0x2 PUSH1 0x1 DUP2 SWAP1 SSTORE CALLER PUSH1 0x0 SWAP1 DUP2 MSTORE PUSH1 0x20 SWAP2 SWAP1 SWAP2 MSTORE PUSH1 0x40 SWAP1 KECCAK256 DUP1 SLOAD DUP3 GT ISZERO PUSH2 0x4A0 JUMPI PUSH1 0x40 MLOAD PUSH3 0x461BCD PUSH1 0xE5 SHL DUP2 MSTORE PUSH1 0x20 PUSH1 0x4 DUP3 ADD MSTORE PUSH1 0x1B PUSH1 0x24 DUP3 ADD MSTORE PUSH32 0x416D6F756E7420746F20776974686472617720746F6F20686967680000000000 PUSH1 0x44 DUP3 ADD MSTORE PUSH1 0x64 ADD PUSH2 0x38C JUMP JUMPDEST PUSH2 0x4A8 PUSH2 0x12DC JUMP JUMPDEST PUSH1 0x0 DUP2 PUSH1 0x1 ADD SLOAD PUSH5 0xE8D4A51000 PUSH1 0x7 SLOAD DUP5 PUSH1 0x0 ADD SLOAD PUSH2 0x4C7 SWAP2 SWAP1 PUSH2 0x155D JUMP JUMPDEST PUSH2 0x4D1 SWAP2 SWAP1 PUSH2 0x157C JUMP JUMPDEST PUSH2 0x4DB SWAP2 SWAP1 PUSH2 0x159E JUMP JUMPDEST SWAP1 POP DUP3 ISZERO PUSH2 0x5D7 JUMPI DUP3 DUP3 PUSH1 0x0 ADD PUSH1 0x0 DUP3 DUP3 SLOAD PUSH2 0x4F7 SWAP2 SWAP1 PUSH2 0x159E JUMP JUMPDEST SWAP1 SWAP2 SSTORE POP POP PUSH1 0x40 MLOAD PUSH4 0xA9059CBB PUSH1 0xE0 SHL DUP2 MSTORE CALLER PUSH1 0x4 DUP3 ADD MSTORE PUSH1 0x24 DUP2 ADD DUP5 SWAP1 MSTORE PUSH1 0x0 SWAP1 PUSH32 0x0 PUSH1 0x1 PUSH1 0x1 PUSH1 0xA0 SHL SUB AND SWAP1 PUSH4 0xA9059CBB SWAP1 PUSH1 0x44 ADD PUSH1 0x20 PUSH1 0x40 MLOAD DUP1 DUP4 SUB DUP2 PUSH1 0x0 DUP8 GAS CALL ISZERO DUP1 ISZERO PUSH2 0x56C JUMPI RETURNDATASIZE PUSH1 0x0 DUP1 RETURNDATACOPY RETURNDATASIZE PUSH1 0x0 REVERT JUMPDEST POP POP POP POP PUSH1 0x40 MLOAD RETURNDATASIZE PUSH1 0x1F NOT PUSH1 0x1F DUP3 ADD AND DUP3 ADD DUP1 PUSH1 0x40 MSTORE POP DUP2 ADD SWAP1 PUSH2 0x590 SWAP2 SWAP1 PUSH2 0x15B5 JUMP JUMPDEST SWAP1 POP DUP1 PUSH2 0x5D5 JUMPI PUSH1 0x40 MLOAD PUSH3 0x461BCD PUSH1 0xE5 SHL DUP2 MSTORE PUSH1 0x20 PUSH1 0x4 DUP3 ADD MSTORE PUSH1 0x13 PUSH1 0x24 DUP3 ADD MSTORE PUSH19 0x14DD185AD948151C985B9CD9995C8811985A5B PUSH1 0x6A SHL PUSH1 0x44 DUP3 ADD MSTORE PUSH1 0x64 ADD PUSH2 0x38C JUMP JUMPDEST POP JUMPDEST DUP1 ISZERO PUSH2 0x674 JUMPI PUSH1 0x40 MLOAD PUSH4 0xA9059CBB PUSH1 0xE0 SHL DUP2 MSTORE CALLER PUSH1 0x4 DUP3 ADD MSTORE PUSH1 0x24 DUP2 ADD DUP3 SWAP1 MSTORE PUSH1 0x0 SWAP1 PUSH32 0x0 PUSH1 0x1 PUSH1 0x1 PUSH1 0xA0 SHL SUB AND SWAP1 PUSH4 0xA9059CBB SWAP1 PUSH1 0x44 ADD PUSH1 0x20 PUSH1 0x40 MLOAD DUP1 DUP4 SUB DUP2 PUSH1 0x0 DUP8 GAS CALL ISZERO DUP1 ISZERO PUSH2 0x64D JUMPI RETURNDATASIZE PUSH1 0x0 DUP1 RETURNDATACOPY RETURNDATASIZE PUSH1 0x0 REVERT JUMPDEST POP POP POP POP PUSH1 0x40 MLOAD RETURNDATASIZE PUSH1 0x1F NOT PUSH1 0x1F DUP3 ADD AND DUP3 ADD DUP1 PUSH1 0x40 MSTORE POP DUP2 ADD SWAP1 PUSH2 0x671 SWAP2 SWAP1 PUSH2 0x15B5 JUMP JUMPDEST POP POP JUMPDEST PUSH1 0x7 SLOAD DUP3 SLOAD PUSH5 0xE8D4A51000 SWAP2 PUSH2 0x689 SWAP2 PUSH2 0x155D JUMP JUMPDEST PUSH2 0x693 SWAP2 SWAP1 PUSH2 0x157C JUMP JUMPDEST PUSH1 0x1 DUP4 ADD SSTORE PUSH1 0x40 MLOAD DUP4 DUP2 MSTORE CALLER SWAP1 PUSH32 0x884EDAD9CE6FA2440D8A54CC123490EB96D2768479D49FF9C7366125A9424364 SWAP1 PUSH1 0x20 ADD PUSH1 0x40 MLOAD DUP1 SWAP2 SUB SWAP1 LOG2 POP POP PUSH1 0x1 DUP1 SSTORE POP JUMP JUMPDEST PUSH1 0x0 SLOAD PUSH1 0x1 PUSH1 0x1 PUSH1 0xA0 SHL SUB AND CALLER EQ PUSH2 0x700 JUMPI PUSH1 0x40 MLOAD PUSH3 0x461BCD PUSH1 0xE5 SHL DUP2 MSTORE PUSH1 0x4 ADD PUSH2 0x38C SWAP1 PUSH2 0x14DB JUMP JUMPDEST PUSH32 0x0 PUSH1 0x1 PUSH1 0x1 PUSH1 0xA0 SHL SUB AND DUP3 PUSH1 0x1 PUSH1 0x1 PUSH1 0xA0 SHL SUB AND EQ ISZERO PUSH2 0x77B JUMPI PUSH1 0x40 MLOAD PUSH3 0x461BCD PUSH1 0xE5 SHL DUP2 MSTORE PUSH1 0x20 PUSH1 0x4 DUP3 ADD MSTORE PUSH1 0x16 PUSH1 0x24 DUP3 ADD MSTORE PUSH22 0x21B0B73737BA1031329039BA30B5B2B2103A37B5B2B7 PUSH1 0x51 SHL PUSH1 0x44 DUP3 ADD MSTORE PUSH1 0x64 ADD PUSH2 0x38C JUMP JUMPDEST PUSH32 0x0 PUSH1 0x1 PUSH1 0x1 PUSH1 0xA0 SHL SUB AND DUP3 PUSH1 0x1 PUSH1 0x1 PUSH1 0xA0 SHL SUB AND EQ ISZERO PUSH2 0x7F6 JUMPI PUSH1 0x40 MLOAD PUSH3 0x461BCD PUSH1 0xE5 SHL DUP2 MSTORE PUSH1 0x20 PUSH1 0x4 DUP3 ADD MSTORE PUSH1 0x16 PUSH1 0x24 DUP3 ADD MSTORE PUSH22 0x21B0B73737BA103132903932BBB0B932103A37B5B2B7 PUSH1 0x51 SHL PUSH1 0x44 DUP3 ADD MSTORE PUSH1 0x64 ADD PUSH2 0x38C JUMP JUMPDEST PUSH1 0x40 MLOAD PUSH4 0xA9059CBB PUSH1 0xE0 SHL DUP2 MSTORE CALLER PUSH1 0x4 DUP3 ADD MSTORE PUSH1 0x24 DUP2 ADD DUP3 SWAP1 MSTORE PUSH1 0x1 PUSH1 0x1 PUSH1 0xA0 SHL SUB DUP4 AND SWAP1 PUSH4 0xA9059CBB SWAP1 PUSH1 0x44 ADD PUSH1 0x20 PUSH1 0x40 MLOAD DUP1 DUP4 SUB DUP2 PUSH1 0x0 DUP8 GAS CALL ISZERO DUP1 ISZERO PUSH2 0x843 JUMPI RETURNDATASIZE PUSH1 0x0 DUP1 RETURNDATACOPY RETURNDATASIZE PUSH1 0x0 REVERT JUMPDEST POP POP POP POP PUSH1 0x40 MLOAD RETURNDATASIZE PUSH1 0x1F NOT PUSH1 0x1F DUP3 ADD AND DUP3 ADD DUP1 PUSH1 0x40 MSTORE POP DUP2 ADD SWAP1 PUSH2 0x867 SWAP2 SWAP1 PUSH2 0x15B5 JUMP JUMPDEST POP DUP2 PUSH1 0x1 PUSH1 0x1 PUSH1 0xA0 SHL SUB AND PUSH32 0x74545154AAC348A3EAC92596BD1971957CA94795F4E954EC5F613B55FAB78129 DUP3 PUSH1 0x40 MLOAD PUSH2 0x8A3 SWAP2 DUP2 MSTORE PUSH1 0x20 ADD SWAP1 JUMP JUMPDEST PUSH1 0x40 MLOAD DUP1 SWAP2 SUB SWAP1 LOG2 POP POP JUMP JUMPDEST PUSH1 0x0 SLOAD PUSH1 0x1 PUSH1 0x1 PUSH1 0xA0 SHL SUB AND CALLER EQ PUSH2 0x8D9 JUMPI PUSH1 0x40 MLOAD PUSH3 0x461BCD PUSH1 0xE5 SHL DUP2 MSTORE PUSH1 0x4 ADD PUSH2 0x38C SWAP1 PUSH2 0x14DB JUMP JUMPDEST PUSH1 0x1 PUSH1 0x1 PUSH1 0xA0 SHL SUB DUP2 AND ISZERO DUP1 ISZERO SWAP1 PUSH2 0x8FF JUMPI POP PUSH1 0xA SLOAD PUSH1 0x1 PUSH1 0x1 PUSH1 0xA0 SHL SUB DUP3 DUP2 AND SWAP2 AND EQ ISZERO JUMPDEST PUSH2 0x908 JUMPI PUSH1 0x0 DUP1 REVERT JUMPDEST PUSH1 0xA SLOAD PUSH1 0x40 DUP1 MLOAD PUSH1 0x1 PUSH1 0x1 PUSH1 0xA0 SHL SUB DUP1 DUP6 AND DUP3 MSTORE SWAP1 SWAP3 AND PUSH1 0x20 DUP4 ADD MSTORE PUSH32 0x4F817E2483680B2978ED4ABB61DA6716FBF93EB7DF1416708DA08B9BE32D49FF SWAP2 ADD PUSH1 0x40 MLOAD DUP1 SWAP2 SUB SWAP1 LOG1 PUSH1 0xA DUP1 SLOAD PUSH1 0x1 PUSH1 0x1 PUSH1 0xA0 SHL SUB NOT AND PUSH1 0x1 PUSH1 0x1 PUSH1 0xA0 SHL SUB SWAP3 SWAP1 SWAP3 AND SWAP2 SWAP1 SWAP2 OR SWAP1 SSTORE JUMP JUMPDEST PUSH1 0x0 SLOAD PUSH1 0x1 PUSH1 0x1 PUSH1 0xA0 SHL SUB AND CALLER EQ PUSH2 0x99B JUMPI PUSH1 0x40 MLOAD PUSH3 0x461BCD PUSH1 0xE5 SHL DUP2 MSTORE PUSH1 0x4 ADD PUSH2 0x38C SWAP1 PUSH2 0x14DB JUMP JUMPDEST PUSH1 0x6 SLOAD DUP2 GT DUP1 PUSH2 0x9A9 JUMPI POP DUP1 ISZERO JUMPDEST PUSH2 0x9F5 JUMPI PUSH1 0x40 MLOAD PUSH3 0x461BCD PUSH1 0xE5 SHL DUP2 MSTORE PUSH1 0x20 PUSH1 0x4 DUP3 ADD MSTORE PUSH1 0x1D PUSH1 0x24 DUP3 ADD MSTORE PUSH32 0x496E637265617365206F722072656D6F7665206C696D6974206F6E6C79000000 PUSH1 0x44 DUP3 ADD MSTORE PUSH1 0x64 ADD PUSH2 0x38C JUMP JUMPDEST PUSH1 0x6 DUP2 SWAP1 SSTORE PUSH1 0x40 MLOAD DUP2 DUP2 MSTORE PUSH32 0xA498DAEFCA172C7EBB28B62DB707445296CB78B1BE0C15AFE0B4D9096335B75A SWAP1 PUSH1 0x20 ADD PUSH2 0x40A JUMP JUMPDEST PUSH1 0x0 SLOAD PUSH1 0x1 PUSH1 0x1 PUSH1 0xA0 SHL SUB AND CALLER EQ PUSH2 0xA54 JUMPI PUSH1 0x40 MLOAD PUSH3 0x461BCD PUSH1 0xE5 SHL DUP2 MSTORE PUSH1 0x4 ADD PUSH2 0x38C SWAP1 PUSH2 0x14DB JUMP JUMPDEST PUSH2 0xA5E PUSH1 0x0 PUSH2 0x140A JUMP JUMPDEST JUMP JUMPDEST PUSH1 0x0 SLOAD PUSH1 0x1 PUSH1 0x1 PUSH1 0xA0 SHL SUB AND CALLER EQ PUSH2 0xA8A JUMPI PUSH1 0x40 MLOAD PUSH3 0x461BCD PUSH1 0xE5 SHL DUP2 MSTORE PUSH1 0x4 ADD PUSH2 0x38C SWAP1 PUSH2 0x14DB JUMP JUMPDEST PUSH2 0x9C4 DUP2 GT ISZERO PUSH2 0xACA JUMPI PUSH1 0x40 MLOAD PUSH3 0x461BCD PUSH1 0xE5 SHL DUP2 MSTORE PUSH1 0x20 PUSH1 0x4 DUP3 ADD MSTORE PUSH1 0xB PUSH1 0x24 DUP3 ADD MSTORE PUSH11 0x496E76616C696420466565 PUSH1 0xA8 SHL PUSH1 0x44 DUP3 ADD MSTORE PUSH1 0x64 ADD PUSH2 0x38C JUMP JUMPDEST PUSH1 0x9 SLOAD PUSH1 0x40 DUP1 MLOAD DUP4 DUP2 MSTORE PUSH1 0x20 DUP2 ADD SWAP3 SWAP1 SWAP3 MSTORE PUSH32 0x53482196EF67AC615CAAB1C3ECA2C270ACBFDCD75E57C5F24C1B98B10C8E6E04 SWAP2 ADD PUSH1 0x40 MLOAD DUP1 SWAP2 SUB SWAP1 LOG1 PUSH1 0x9 SSTORE JUMP JUMPDEST PUSH1 0x2 PUSH1 0x1 SLOAD EQ ISZERO PUSH2 0xB2F JUMPI PUSH1 0x40 MLOAD PUSH3 0x461BCD PUSH1 0xE5 SHL DUP2 MSTORE PUSH1 0x4 ADD PUSH2 0x38C SWAP1 PUSH2 0x1510 JUMP JUMPDEST PUSH1 0x2 PUSH1 0x1 DUP2 SWAP1 SSTORE CALLER PUSH1 0x0 SWAP1 DUP2 MSTORE PUSH1 0x20 SWAP2 SWAP1 SWAP2 MSTORE PUSH1 0x40 SWAP1 KECCAK256 PUSH1 0x6 SLOAD ISZERO PUSH2 0xB9A JUMPI PUSH1 0x6 SLOAD DUP2 SLOAD PUSH2 0xB5E SWAP1 DUP5 SWAP1 PUSH2 0x15D7 JUMP JUMPDEST GT ISZERO PUSH2 0xB9A JUMPI PUSH1 0x40 MLOAD PUSH3 0x461BCD PUSH1 0xE5 SHL DUP2 MSTORE PUSH1 0x20 PUSH1 0x4 DUP3 ADD MSTORE PUSH1 0xB PUSH1 0x24 DUP3 ADD MSTORE PUSH11 0x10589BDD9948131A5B5A5D PUSH1 0xAA SHL PUSH1 0x44 DUP3 ADD MSTORE PUSH1 0x64 ADD PUSH2 0x38C JUMP JUMPDEST PUSH2 0xBA2 PUSH2 0x12DC JUMP JUMPDEST DUP1 SLOAD ISZERO PUSH2 0xCBE JUMPI PUSH1 0x0 DUP2 PUSH1 0x1 ADD SLOAD PUSH5 0xE8D4A51000 PUSH1 0x7 SLOAD DUP5 PUSH1 0x0 ADD SLOAD PUSH2 0xBC8 SWAP2 SWAP1 PUSH2 0x155D JUMP JUMPDEST PUSH2 0xBD2 SWAP2 SWAP1 PUSH2 0x157C JUMP JUMPDEST PUSH2 0xBDC SWAP2 SWAP1 PUSH2 0x159E JUMP JUMPDEST SWAP1 POP DUP1 ISZERO PUSH2 0xCBC JUMPI PUSH1 0x40 MLOAD PUSH4 0xA9059CBB PUSH1 0xE0 SHL DUP2 MSTORE CALLER PUSH1 0x4 DUP3 ADD MSTORE PUSH1 0x24 DUP2 ADD DUP3 SWAP1 MSTORE PUSH1 0x0 SWAP1 PUSH32 0x0 PUSH1 0x1 PUSH1 0x1 PUSH1 0xA0 SHL SUB AND SWAP1 PUSH4 0xA9059CBB SWAP1 PUSH1 0x44 ADD PUSH1 0x20 PUSH1 0x40 MLOAD DUP1 DUP4 SUB DUP2 PUSH1 0x0 DUP8 GAS CALL ISZERO DUP1 ISZERO PUSH2 0xC54 JUMPI RETURNDATASIZE PUSH1 0x0 DUP1 RETURNDATACOPY RETURNDATASIZE PUSH1 0x0 REVERT JUMPDEST POP POP POP POP PUSH1 0x40 MLOAD RETURNDATASIZE PUSH1 0x1F NOT PUSH1 0x1F DUP3 ADD AND DUP3 ADD DUP1 PUSH1 0x40 MSTORE POP DUP2 ADD SWAP1 PUSH2 0xC78 SWAP2 SWAP1 PUSH2 0x15B5 JUMP JUMPDEST SWAP1 POP DUP1 PUSH2 0xCBA JUMPI PUSH1 0x40 MLOAD PUSH3 0x461BCD PUSH1 0xE5 SHL DUP2 MSTORE PUSH1 0x20 PUSH1 0x4 DUP3 ADD MSTORE PUSH1 0x10 PUSH1 0x24 DUP3 ADD MSTORE PUSH16 0x11985A5B1959081D1BC814995DD85C99 PUSH1 0x82 SHL PUSH1 0x44 DUP3 ADD MSTORE PUSH1 0x64 ADD PUSH2 0x38C JUMP JUMPDEST POP JUMPDEST POP JUMPDEST DUP2 ISZERO PUSH2 0xEE8 JUMPI PUSH1 0x9 SLOAD ISZERO PUSH2 0xDF5 JUMPI PUSH1 0x0 PUSH2 0x2710 PUSH1 0x9 SLOAD DUP5 PUSH2 0xCDF SWAP2 SWAP1 PUSH2 0x155D JUMP JUMPDEST PUSH2 0xCE9 SWAP2 SWAP1 PUSH2 0x157C JUMP JUMPDEST SWAP1 POP PUSH2 0xCF5 DUP2 DUP5 PUSH2 0x159E JUMP JUMPDEST PUSH1 0xA SLOAD PUSH1 0x40 MLOAD PUSH4 0x23B872DD PUSH1 0xE0 SHL DUP2 MSTORE CALLER PUSH1 0x4 DUP3 ADD MSTORE PUSH1 0x1 PUSH1 0x1 PUSH1 0xA0 SHL SUB SWAP2 DUP3 AND PUSH1 0x24 DUP3 ADD MSTORE PUSH1 0x44 DUP2 ADD DUP5 SWAP1 MSTORE SWAP2 SWAP5 POP PUSH1 0x0 SWAP2 PUSH32 0x0 SWAP1 SWAP2 AND SWAP1 PUSH4 0x23B872DD SWAP1 PUSH1 0x64 ADD PUSH1 0x20 PUSH1 0x40 MLOAD DUP1 DUP4 SUB DUP2 PUSH1 0x0 DUP8 GAS CALL ISZERO DUP1 ISZERO PUSH2 0xD75 JUMPI RETURNDATASIZE PUSH1 0x0 DUP1 RETURNDATACOPY RETURNDATASIZE PUSH1 0x0 REVERT JUMPDEST POP POP POP POP PUSH1 0x40 MLOAD RETURNDATASIZE PUSH1 0x1F NOT PUSH1 0x1F DUP3 ADD AND DUP3 ADD DUP1 PUSH1 0x40 MSTORE POP DUP2 ADD SWAP1 PUSH2 0xD99 SWAP2 SWAP1 PUSH2 0x15B5 JUMP JUMPDEST SWAP1 POP DUP1 PUSH2 0xDF2 JUMPI PUSH1 0x40 MLOAD PUSH3 0x461BCD PUSH1 0xE5 SHL DUP2 MSTORE PUSH1 0x20 PUSH1 0x4 DUP3 ADD MSTORE PUSH1 0x21 PUSH1 0x24 DUP3 ADD MSTORE PUSH32 0x556E61626C6520746F207472616E7366657220746F2066656520416464726573 PUSH1 0x44 DUP3 ADD MSTORE PUSH1 0x73 PUSH1 0xF8 SHL PUSH1 0x64 DUP3 ADD MSTORE PUSH1 0x84 ADD PUSH2 0x38C JUMP JUMPDEST POP POP JUMPDEST DUP2 DUP2 PUSH1 0x0 ADD PUSH1 0x0 DUP3 DUP3 SLOAD PUSH2 0xE09 SWAP2 SWAP1 PUSH2 0x15D7 JUMP JUMPDEST SWAP1 SWAP2 SSTORE POP POP PUSH1 0x40 MLOAD PUSH4 0x23B872DD PUSH1 0xE0 SHL DUP2 MSTORE CALLER PUSH1 0x4 DUP3 ADD MSTORE ADDRESS PUSH1 0x24 DUP3 ADD MSTORE PUSH1 0x44 DUP2 ADD DUP4 SWAP1 MSTORE PUSH1 0x0 SWAP1 PUSH32 0x0 PUSH1 0x1 PUSH1 0x1 PUSH1 0xA0 SHL SUB AND SWAP1 PUSH4 0x23B872DD SWAP1 PUSH1 0x64 ADD PUSH1 0x20 PUSH1 0x40 MLOAD DUP1 DUP4 SUB DUP2 PUSH1 0x0 DUP8 GAS CALL ISZERO DUP1 ISZERO PUSH2 0xE84 JUMPI RETURNDATASIZE PUSH1 0x0 DUP1 RETURNDATACOPY RETURNDATASIZE PUSH1 0x0 REVERT JUMPDEST POP POP POP POP PUSH1 0x40 MLOAD RETURNDATASIZE PUSH1 0x1F NOT PUSH1 0x1F DUP3 ADD AND DUP3 ADD DUP1 PUSH1 0x40 MSTORE POP DUP2 ADD SWAP1 PUSH2 0xEA8 SWAP2 SWAP1 PUSH2 0x15B5 JUMP JUMPDEST SWAP1 POP DUP1 PUSH2 0xEE6 JUMPI PUSH1 0x40 MLOAD PUSH3 0x461BCD PUSH1 0xE5 SHL DUP2 MSTORE PUSH1 0x20 PUSH1 0x4 DUP3 ADD MSTORE PUSH1 0xC PUSH1 0x24 DUP3 ADD MSTORE PUSH12 0x10D85B9D0819195C1BDCDA5D PUSH1 0xA2 SHL PUSH1 0x44 DUP3 ADD MSTORE PUSH1 0x64 ADD PUSH2 0x38C JUMP JUMPDEST POP JUMPDEST PUSH1 0x7 SLOAD DUP2 SLOAD PUSH5 0xE8D4A51000 SWAP2 PUSH2 0xEFD SWAP2 PUSH2 0x155D JUMP JUMPDEST PUSH2 0xF07 SWAP2 SWAP1 PUSH2 0x157C JUMP JUMPDEST PUSH1 0x1 DUP3 ADD SSTORE PUSH1 0x40 MLOAD DUP3 DUP2 MSTORE CALLER SWAP1 PUSH32 0xE1FFFCC4923D04B559F4D29A8BFC6CDA04EB5B0D3C460751C2402C5C5CC9109C SWAP1 PUSH1 0x20 ADD JUMPDEST PUSH1 0x40 MLOAD DUP1 SWAP2 SUB SWAP1 LOG2 POP POP PUSH1 0x1 DUP1 SSTORE JUMP JUMPDEST PUSH1 0x2 PUSH1 0x1 SLOAD EQ ISZERO PUSH2 0xF6D JUMPI PUSH1 0x40 MLOAD PUSH3 0x461BCD PUSH1 0xE5 SHL DUP2 MSTORE PUSH1 0x4 ADD PUSH2 0x38C SWAP1 PUSH2 0x1510 JUMP JUMPDEST PUSH1 0x2 PUSH1 0x1 DUP2 DUP2 SSTORE CALLER PUSH1 0x0 SWAP1 DUP2 MSTORE PUSH1 0x20 SWAP3 SWAP1 SWAP3 MSTORE PUSH1 0x40 DUP3 KECCAK256 DUP1 SLOAD DUP4 DUP3 SSTORE SWAP2 DUP2 ADD SWAP3 SWAP1 SWAP3 SSTORE DUP1 ISZERO PUSH2 0x107B JUMPI PUSH1 0x40 MLOAD PUSH4 0xA9059CBB PUSH1 0xE0 SHL DUP2 MSTORE CALLER PUSH1 0x4 DUP3 ADD MSTORE PUSH1 0x24 DUP2 ADD DUP3 SWAP1 MSTORE PUSH1 0x0 SWAP1 PUSH32 0x0 PUSH1 0x1 PUSH1 0x1 PUSH1 0xA0 SHL SUB AND SWAP1 PUSH4 0xA9059CBB SWAP1 PUSH1 0x44 ADD PUSH1 0x20 PUSH1 0x40 MLOAD DUP1 DUP4 SUB DUP2 PUSH1 0x0 DUP8 GAS CALL ISZERO DUP1 ISZERO PUSH2 0x1006 JUMPI RETURNDATASIZE PUSH1 0x0 DUP1 RETURNDATACOPY RETURNDATASIZE PUSH1 0x0 REVERT JUMPDEST POP POP POP POP PUSH1 0x40 MLOAD RETURNDATASIZE PUSH1 0x1F NOT PUSH1 0x1F DUP3 ADD AND DUP3 ADD DUP1 PUSH1 0x40 MSTORE POP DUP2 ADD SWAP1 PUSH2 0x102A SWAP2 SWAP1 PUSH2 0x15B5 JUMP JUMPDEST SWAP1 POP DUP1 PUSH2 0x1079 JUMPI PUSH1 0x40 MLOAD PUSH3 0x461BCD PUSH1 0xE5 SHL DUP2 MSTORE PUSH1 0x20 PUSH1 0x4 DUP3 ADD MSTORE PUSH1 0x17 PUSH1 0x24 DUP3 ADD MSTORE PUSH32 0x456D657267656E63792043616E74207769746864726177000000000000000000 PUSH1 0x44 DUP3 ADD MSTORE PUSH1 0x64 ADD PUSH2 0x38C JUMP JUMPDEST POP JUMPDEST PUSH1 0x40 MLOAD DUP2 DUP2 MSTORE CALLER SWAP1 PUSH32 0x5FAFA99D0643513820BE26656B45130B01E1C03062E1266BF36F88CBD3BD9695 SWAP1 PUSH1 0x20 ADD PUSH2 0xF3A JUMP JUMPDEST PUSH1 0x0 SLOAD PUSH1 0x1 PUSH1 0x1 PUSH1 0xA0 SHL SUB AND CALLER EQ PUSH2 0x10D7 JUMPI PUSH1 0x40 MLOAD PUSH3 0x461BCD PUSH1 0xE5 SHL DUP2 MSTORE PUSH1 0x4 ADD PUSH2 0x38C SWAP1 PUSH2 0x14DB JUMP JUMPDEST PUSH1 0x1 PUSH1 0x1 PUSH1 0xA0 SHL SUB DUP2 AND PUSH2 0x113C JUMPI PUSH1 0x40 MLOAD PUSH3 0x461BCD PUSH1 0xE5 SHL DUP2 MSTORE PUSH1 0x20 PUSH1 0x4 DUP3 ADD MSTORE PUSH1 0x26 PUSH1 0x24 DUP3 ADD MSTORE PUSH32 0x4F776E61626C653A206E6577206F776E657220697320746865207A65726F2061 PUSH1 0x44 DUP3 ADD MSTORE PUSH6 0x646472657373 PUSH1 0xD0 SHL PUSH1 0x64 DUP3 ADD MSTORE PUSH1 0x84 ADD PUSH2 0x38C JUMP JUMPDEST PUSH2 0x1145 DUP2 PUSH2 0x140A JUMP JUMPDEST POP JUMP JUMPDEST PUSH1 0x1 PUSH1 0x1 PUSH1 0xA0 SHL SUB DUP2 DUP2 AND PUSH1 0x0 SWAP1 DUP2 MSTORE PUSH1 0x2 PUSH1 0x20 MSTORE PUSH1 0x40 DUP1 DUP3 KECCAK256 SWAP1 MLOAD PUSH4 0x70A08231 PUSH1 0xE0 SHL DUP2 MSTORE ADDRESS PUSH1 0x4 DUP3 ADD MSTORE SWAP2 SWAP3 SWAP1 SWAP2 DUP4 SWAP2 PUSH32 0x0 AND SWAP1 PUSH4 0x70A08231 SWAP1 PUSH1 0x24 ADD PUSH1 0x20 PUSH1 0x40 MLOAD DUP1 DUP4 SUB DUP2 DUP7 GAS STATICCALL ISZERO DUP1 ISZERO PUSH2 0x11C3 JUMPI RETURNDATASIZE PUSH1 0x0 DUP1 RETURNDATACOPY RETURNDATASIZE PUSH1 0x0 REVERT JUMPDEST POP POP POP POP PUSH1 0x40 MLOAD RETURNDATASIZE PUSH1 0x1F NOT PUSH1 0x1F DUP3 ADD AND DUP3 ADD DUP1 PUSH1 0x40 MSTORE POP DUP2 ADD SWAP1 PUSH2 0x11E7 SWAP2 SWAP1 PUSH2 0x15EF JUMP JUMPDEST SWAP1 POP PUSH1 0x8 SLOAD NUMBER GT DUP1 ISZERO PUSH2 0x11FA JUMPI POP PUSH1 0x0 DUP2 GT JUMPDEST ISZERO PUSH2 0x12A4 JUMPI PUSH1 0x0 PUSH1 0x3 SLOAD NUMBER GT ISZERO PUSH2 0x1222 JUMPI PUSH1 0x8 SLOAD PUSH1 0x3 SLOAD PUSH2 0x121B SWAP2 SWAP1 PUSH2 0x159E JUMP JUMPDEST SWAP1 POP PUSH2 0x1232 JUMP JUMPDEST PUSH1 0x8 SLOAD PUSH2 0x122F SWAP1 NUMBER PUSH2 0x159E JUMP JUMPDEST SWAP1 POP JUMPDEST PUSH1 0x4 SLOAD PUSH2 0x123F SWAP1 DUP3 PUSH2 0x155D JUMP JUMPDEST SWAP1 POP PUSH1 0x0 DUP3 PUSH2 0x1253 PUSH5 0xE8D4A51000 DUP5 PUSH2 0x155D JUMP JUMPDEST PUSH2 0x125D SWAP2 SWAP1 PUSH2 0x157C JUMP JUMPDEST PUSH1 0x7 SLOAD PUSH2 0x126A SWAP2 SWAP1 PUSH2 0x15D7 JUMP JUMPDEST SWAP1 POP DUP4 PUSH1 0x1 ADD SLOAD PUSH5 0xE8D4A51000 DUP6 PUSH1 0x0 ADD SLOAD DUP4 PUSH2 0x1287 SWAP2 SWAP1 PUSH2 0x155D JUMP JUMPDEST PUSH2 0x1291 SWAP2 SWAP1 PUSH2 0x157C JUMP JUMPDEST PUSH2 0x129B SWAP2 SWAP1 PUSH2 0x159E JUMP JUMPDEST SWAP5 POP POP POP PUSH2 0x12D5 JUMP JUMPDEST PUSH1 0x1 DUP3 ADD SLOAD PUSH1 0x7 SLOAD DUP4 SLOAD PUSH5 0xE8D4A51000 SWAP2 PUSH2 0x12BE SWAP2 PUSH2 0x155D JUMP JUMPDEST PUSH2 0x12C8 SWAP2 SWAP1 PUSH2 0x157C JUMP JUMPDEST PUSH2 0x12D2 SWAP2 SWAP1 PUSH2 0x159E JUMP JUMPDEST SWAP3 POP JUMPDEST POP POP SWAP2 SWAP1 POP JUMP JUMPDEST PUSH1 0x8 SLOAD NUMBER GT PUSH2 0x12E7 JUMPI JUMP JUMPDEST PUSH1 0x40 MLOAD PUSH4 0x70A08231 PUSH1 0xE0 SHL DUP2 MSTORE ADDRESS PUSH1 0x4 DUP3 ADD MSTORE PUSH1 0x0 SWAP1 PUSH32 0x0 PUSH1 0x1 PUSH1 0x1 PUSH1 0xA0 SHL SUB AND SWAP1 PUSH4 0x70A08231 SWAP1 PUSH1 0x24 ADD PUSH1 0x20 PUSH1 0x40 MLOAD DUP1 DUP4 SUB DUP2 DUP7 GAS STATICCALL ISZERO DUP1 ISZERO PUSH2 0x134E JUMPI RETURNDATASIZE PUSH1 0x0 DUP1 RETURNDATACOPY RETURNDATASIZE PUSH1 0x0 REVERT JUMPDEST POP POP POP POP PUSH1 0x40 MLOAD RETURNDATASIZE PUSH1 0x1F NOT PUSH1 0x1F DUP3 ADD AND DUP3 ADD DUP1 PUSH1 0x40 MSTORE POP DUP2 ADD SWAP1 PUSH2 0x1372 SWAP2 SWAP1 PUSH2 0x15EF JUMP JUMPDEST SWAP1 POP DUP1 ISZERO DUP1 PUSH2 0x1384 JUMPI POP PUSH1 0x3 SLOAD PUSH1 0x8 SLOAD GT JUMPDEST ISZERO PUSH2 0x1390 JUMPI POP NUMBER PUSH1 0x8 SSTORE JUMP JUMPDEST PUSH1 0x0 PUSH1 0x3 SLOAD NUMBER GT ISZERO PUSH2 0x13B3 JUMPI PUSH1 0x8 SLOAD PUSH1 0x3 SLOAD PUSH2 0x13AC SWAP2 SWAP1 PUSH2 0x159E JUMP JUMPDEST SWAP1 POP PUSH2 0x13C3 JUMP JUMPDEST PUSH1 0x8 SLOAD PUSH2 0x13C0 SWAP1 NUMBER PUSH2 0x159E JUMP JUMPDEST SWAP1 POP JUMPDEST PUSH1 0x4 SLOAD PUSH2 0x13D0 SWAP1 DUP3 PUSH2 0x155D JUMP JUMPDEST SWAP1 POP DUP2 PUSH2 0x13E2 PUSH5 0xE8D4A51000 DUP4 PUSH2 0x155D JUMP JUMPDEST PUSH2 0x13EC SWAP2 SWAP1 PUSH2 0x157C JUMP JUMPDEST PUSH1 0x7 PUSH1 0x0 DUP3 DUP3 SLOAD PUSH2 0x13FD SWAP2 SWAP1 PUSH2 0x15D7 JUMP JUMPDEST SWAP1 SWAP2 SSTORE POP POP NUMBER PUSH1 0x8 SSTORE POP POP JUMP JUMPDEST PUSH1 0x0 DUP1 SLOAD PUSH1 0x1 PUSH1 0x1 PUSH1 0xA0 SHL SUB DUP4 DUP2 AND PUSH1 0x1 PUSH1 0x1 PUSH1 0xA0 SHL SUB NOT DUP4 AND DUP2 OR DUP5 SSTORE PUSH1 0x40 MLOAD SWAP2 SWAP1 SWAP3 AND SWAP3 DUP4 SWAP2 PUSH32 0x8BE0079C531659141344CD1FD0A4F28419497F9722A3DAAFE3B4186F6B6457E0 SWAP2 SWAP1 LOG3 POP POP JUMP JUMPDEST PUSH1 0x0 PUSH1 0x20 DUP3 DUP5 SUB SLT ISZERO PUSH2 0x146C JUMPI PUSH1 0x0 DUP1 REVERT JUMPDEST POP CALLDATALOAD SWAP2 SWAP1 POP JUMP JUMPDEST DUP1 CALLDATALOAD PUSH1 0x1 PUSH1 0x1 PUSH1 0xA0 SHL SUB DUP2 AND DUP2 EQ PUSH2 0x148A JUMPI PUSH1 0x0 DUP1 REVERT JUMPDEST SWAP2 SWAP1 POP JUMP JUMPDEST PUSH1 0x0 PUSH1 0x20 DUP3 DUP5 SUB SLT ISZERO PUSH2 0x14A1 JUMPI PUSH1 0x0 DUP1 REVERT JUMPDEST PUSH2 0x14AA DUP3 PUSH2 0x1473 JUMP JUMPDEST SWAP4 SWAP3 POP POP POP JUMP JUMPDEST PUSH1 0x0 DUP1 PUSH1 0x40 DUP4 DUP6 SUB SLT ISZERO PUSH2 0x14C4 JUMPI PUSH1 0x0 DUP1 REVERT JUMPDEST PUSH2 0x14CD DUP4 PUSH2 0x1473 JUMP JUMPDEST SWAP5 PUSH1 0x20 SWAP4 SWAP1 SWAP4 ADD CALLDATALOAD SWAP4 POP POP POP JUMP JUMPDEST PUSH1 0x20 DUP1 DUP3 MSTORE DUP2 DUP2 ADD MSTORE PUSH32 0x4F776E61626C653A2063616C6C6572206973206E6F7420746865206F776E6572 PUSH1 0x40 DUP3 ADD MSTORE PUSH1 0x60 ADD SWAP1 JUMP JUMPDEST PUSH1 0x20 DUP1 DUP3 MSTORE PUSH1 0x1F SWAP1 DUP3 ADD MSTORE PUSH32 0x5265656E7472616E637947756172643A207265656E7472616E742063616C6C00 PUSH1 0x40 DUP3 ADD MSTORE PUSH1 0x60 ADD SWAP1 JUMP JUMPDEST PUSH4 0x4E487B71 PUSH1 0xE0 SHL PUSH1 0x0 MSTORE PUSH1 0x11 PUSH1 0x4 MSTORE PUSH1 0x24 PUSH1 0x0 REVERT JUMPDEST PUSH1 0x0 DUP2 PUSH1 0x0 NOT DIV DUP4 GT DUP3 ISZERO ISZERO AND ISZERO PUSH2 0x1577 JUMPI PUSH2 0x1577 PUSH2 0x1547 JUMP JUMPDEST POP MUL SWAP1 JUMP JUMPDEST PUSH1 0x0 DUP3 PUSH2 0x1599 JUMPI PUSH4 0x4E487B71 PUSH1 0xE0 SHL PUSH1 0x0 MSTORE PUSH1 0x12 PUSH1 0x4 MSTORE PUSH1 0x24 PUSH1 0x0 REVERT JUMPDEST POP DIV SWAP1 JUMP JUMPDEST PUSH1 0x0 DUP3 DUP3 LT ISZERO PUSH2 0x15B0 JUMPI PUSH2 0x15B0 PUSH2 0x1547 JUMP JUMPDEST POP SUB SWAP1 JUMP JUMPDEST PUSH1 0x0 PUSH1 0x20 DUP3 DUP5 SUB SLT ISZERO PUSH2 0x15C7 JUMPI PUSH1 0x0 DUP1 REVERT JUMPDEST DUP2 MLOAD DUP1 ISZERO ISZERO DUP2 EQ PUSH2 0x14AA JUMPI PUSH1 0x0 DUP1 REVERT JUMPDEST PUSH1 0x0 DUP3 NOT DUP3 GT ISZERO PUSH2 0x15EA JUMPI PUSH2 0x15EA PUSH2 0x1547 JUMP JUMPDEST POP ADD SWAP1 JUMP JUMPDEST PUSH1 0x0 PUSH1 0x20 DUP3 DUP5 SUB SLT ISZERO PUSH2 0x1601 JUMPI PUSH1 0x0 DUP1 REVERT JUMPDEST POP MLOAD SWAP2 SWAP1 POP JUMP INVALID LOG2 PUSH5 0x6970667358 0x22 SLT KECCAK256 SWAP6 0xCD NOT 0xE9 PUSH7 0xB97EC66236784C 0xCE 0xE4 0x2C 0xB7 0xD7 PUSH4 0x5332214 0xCE CALLDATASIZE STATICCALL CODESIZE PUSH27 0xADF499E22064736F6C634300080C00330000000000000000000000 ","sha1":"ddd7c7fb6ec1b57bd822f43c31f223026ebe42b7","source":"// SPDX-License-Identifier: MIT\n\npragma solidity 0.8.12;\n\nimport \"@openzeppelin/contracts/access/Ownable.sol\";\nimport \"@openzeppelin/contracts/token/ERC20/IERC20.sol\";\nimport \"@openzeppelin/contracts/security/ReentrancyGuard.sol\";\nimport \"../interfaces/IFeeDistributor.sol\";\n\ncontract InvaderPool is Ownable, ReentrancyGuard {\n    struct UserInfo {\n        uint256 amount;\n        uint256 accReward;\n    }\n\n    mapping(address => UserInfo) public userInfo;\n\n    IERC20 public immutable stakeToken;\n    IERC20 public immutable rewardToken;\n\n    uint256 public rewardEnd;\n    uint256 public rewardPerBlock;\n    uint256 public startBlock;\n    uint256 public poolLimit;\n    uint256 public accRewardPerShare;\n    uint256 public lastRewardBlock;\n    uint256 public fee;\n    uint256 public constant DIVISOR = 10000; //100.00\n\n    address public feeAddress;\n\n    uint256 public constant PRECISION_FACTOR = 1e12;\n\n    event Deposit(address indexed _user, uint256 amount);\n    event Withdraw(address indexed _user, uint256 amount);\n    event AdminTokenRecovery(address indexed _token, uint256 amount);\n    event EmergencyWithdraw(address indexed _user, uint256 amount);\n    event UpdateLimit(uint256 _limit);\n    event UpdateRewardPerBlock(uint256 _newRewardPerBlock);\n    event UpdateFeeDistributor(address _new, address _old);\n    event UpdateFees(uint256 _new, uint256 _old);\n\n    /// @notice Constructor, set startBlock at least 2 - 3 hours before actual launch time.\n    /// @dev Please add funds before startBlock is reached.\n    constructor(\n        address _staked,\n        address _rewarded,\n        address _feeAddress,\n        uint256 _rewardPerBlock,\n        uint256 _startBlock,\n        uint256 _poolLimit,\n        uint256 rewardAmount,\n        uint256 _fee\n    ) {\n        stakeToken = IERC20(_staked);\n        rewardToken = IERC20(_rewarded);\n        rewardPerBlock = _rewardPerBlock;\n        startBlock = _startBlock;\n        poolLimit = _poolLimit;\n        rewardEnd = (rewardAmount / _rewardPerBlock) + _startBlock;\n        feeAddress = _feeAddress;\n        fee = _fee;\n    }\n\n    function _updateRewardPool() internal {\n        if (block.number <= lastRewardBlock) return;\n        uint256 stakedSupply = stakeToken.balanceOf(address(this));\n        if (stakedSupply == 0 || lastRewardBlock > rewardEnd) {\n            lastRewardBlock = block.number;\n            return;\n        }\n\n        uint256 reward;\n        if (block.number > rewardEnd) reward = rewardEnd - lastRewardBlock;\n        else reward = block.number - lastRewardBlock;\n\n        reward = reward * rewardPerBlock;\n        accRewardPerShare += (reward * PRECISION_FACTOR) / stakedSupply;\n        lastRewardBlock = block.number;\n    }\n\n    /// @notice withdraw stake tokens from pool back to user.\n    /// @dev updates the pool reward to give through time.\n    /// @param _amount the amount to deposit... Amount must be lower than limit\n    function deposit(uint256 _amount) external nonReentrant {\n        UserInfo storage user = userInfo[msg.sender];\n\n        if (poolLimit > 0) {\n            require(user.amount + _amount <= poolLimit, \"Above Limit\");\n        }\n\n        _updateRewardPool();\n        if (user.amount > 0) {\n            uint256 pending = ((user.amount * accRewardPerShare) /\n                PRECISION_FACTOR) - user.accReward;\n            if (pending > 0) {\n                bool success = rewardToken.transfer(msg.sender, pending);\n                require(success, \"Failed to Reward\");\n            }\n        }\n\n        if (_amount > 0) {\n            if (fee > 0) {\n                uint256 feeAmount = (_amount * fee) / DIVISOR;\n                _amount = _amount - feeAmount;\n                bool feeSuccess = stakeToken.transferFrom(\n                    msg.sender,\n                    feeAddress,\n                    feeAmount\n                );\n                require(feeSuccess, \"Unable to transfer to fee Address\");\n            }\n            user.amount += _amount;\n            bool success = stakeToken.transferFrom(\n                msg.sender,\n                address(this),\n                _amount\n            );\n            require(success, \"Cant deposit\");\n        }\n\n        user.accReward = (user.amount * accRewardPerShare) / PRECISION_FACTOR;\n\n        emit Deposit(msg.sender, _amount);\n    }\n\n    /// @notice withdraw stake tokens from pool back to user.\n    /// @dev updates the pool reward to give throught time.\n    /// @param _amount the amount to withdraw... Amount must be the staked amount MAX\n    function withdraw(uint256 _amount) external nonReentrant {\n        UserInfo storage user = userInfo[msg.sender];\n        require(_amount <= user.amount, \"Amount to withdraw too high\");\n        _updateRewardPool();\n\n        uint256 pending = ((user.amount * accRewardPerShare) /\n            PRECISION_FACTOR) - user.accReward;\n        if (_amount > 0) {\n            user.amount -= _amount;\n            bool success = stakeToken.transfer(msg.sender, _amount);\n            require(success, \"Stake Transfer Fail\");\n        }\n        if (pending > 0) {\n            bool success = rewardToken.transfer(msg.sender, pending);\n        }\n        user.accReward = (user.amount * accRewardPerShare) / PRECISION_FACTOR;\n        emit Withdraw(msg.sender, _amount);\n    }\n\n    /// @notice Allows users to withdraw their funds without any rewards\n    function emergencyWithdraw() external nonReentrant {\n        UserInfo storage user = userInfo[msg.sender];\n        uint256 transferAmount = user.amount;\n        user.amount = 0;\n        user.accReward = 0;\n        if (transferAmount > 0) {\n            bool success = stakeToken.transfer(msg.sender, transferAmount);\n            require(success, \"Emergency Cant withdraw\");\n        }\n        emit EmergencyWithdraw(msg.sender, transferAmount);\n    }\n\n    /// @notice give pending reward back from having the user account\n    /// @param _user The user address to check\n    /// @return _reward The reward amount for the timeframe\n    function pendingReward(address _user)\n        external\n        view\n        returns (uint256 _reward)\n    {\n        UserInfo storage user = userInfo[_user];\n        uint256 totalSupply = stakeToken.balanceOf(address(this));\n        if (block.number > lastRewardBlock && totalSupply > 0) {\n            uint256 reward;\n            if (block.number > rewardEnd) reward = rewardEnd - lastRewardBlock;\n            else reward = block.number - lastRewardBlock;\n\n            reward = reward * rewardPerBlock;\n            uint256 adjustedPerShare = accRewardPerShare +\n                ((reward * PRECISION_FACTOR) / totalSupply);\n            _reward =\n                ((adjustedPerShare * user.amount) / PRECISION_FACTOR) -\n                user.accReward;\n        } else\n            _reward =\n                ((user.amount * accRewardPerShare) / PRECISION_FACTOR) -\n                user.accReward;\n    }\n\n    /// @notice It allows the admin to recover wrong tokens sent to the contract\n    /// @param _tokenAddress: the address of the token to withdraw\n    /// @param _tokenAmount: the number of tokens to withdraw\n    /// @dev This function is only callable by admin.\n    function recoverWrongTokens(address _tokenAddress, uint256 _tokenAmount)\n        external\n        onlyOwner\n    {\n        require(_tokenAddress != address(stakeToken), \"Cannot be staked token\");\n        require(\n            _tokenAddress != address(rewardToken),\n            \"Cannot be reward token\"\n        );\n\n        IERC20(_tokenAddress).transfer(msg.sender, _tokenAmount);\n\n        emit AdminTokenRecovery(_tokenAddress, _tokenAmount);\n    }\n\n    /// @notice Update pool limit per user\n    /// @dev Only callable by owner.\n    /// @param _newLimit: enforce limit only by number... new Limit must be higher or ZERO\n    /// @dev if _newLimit is 0 then limit is removed\n    function updatePoolLimitPerUser(uint256 _newLimit) external onlyOwner {\n        require(\n            _newLimit > poolLimit || _newLimit == 0,\n            \"Increase or remove limit only\"\n        );\n        poolLimit = _newLimit;\n        emit UpdateLimit(poolLimit);\n    }\n\n    /// @notice Update reward per block\n    /// @dev Only callable by owner.\n    /// @param _rewardPerBlock: the reward per block\n    function updateRewardPerBlock(uint256 _rewardPerBlock) external onlyOwner {\n        require(block.number < startBlock, \"Pool has started\");\n        rewardPerBlock = _rewardPerBlock;\n        emit UpdateRewardPerBlock(_rewardPerBlock);\n    }\n\n    function updateFeeDistributor(address _feeAddress) external onlyOwner {\n        require(_feeAddress != address(0) && _feeAddress != feeAddress); // dev: Fee distributor can't be zero wallet\n        emit UpdateFeeDistributor(_feeAddress, feeAddress);\n        feeAddress = _feeAddress;\n    }\n\n    function updateFee(uint256 _newFee) external onlyOwner {\n        require(_newFee <= 2500, \"Invalid Fee\"); // Fee too high\n        emit UpdateFees(_newFee, fee);\n        fee = _newFee;\n    }\n}\n","sourcePath":"contracts/InvaderPool.sol","type":"contract","deployment":{"address":"0x76876C2437c3a44F5AA463F3722132Ec46A2ea92","chainid":"97","blockHeight":18158687}}