{"abi":[{"inputs":[{"internalType":"address","name":"_router","type":"address"},{"internalType":"address","name":"_nice","type":"address"},{"internalType":"address","name":"_crush","type":"address"},{"internalType":"address","name":"_chef","type":"address"},{"internalType":"address","name":"_lock","type":"address"},{"internalType":"address","name":"_bankroll","type":"address"},{"internalType":"address","name":"_marketing","type":"address"}],"stateMutability":"nonpayable","type":"constructor","name":"constructor"},{"anonymous":false,"inputs":[{"indexed":true,"internalType":"address","name":"_burnToken","type":"address"},{"indexed":false,"internalType":"uint256","name":"_amount","type":"uint256"}],"name":"BurnLiquidity","type":"event"},{"anonymous":false,"inputs":[{"indexed":false,"internalType":"uint256","name":"_pid","type":"uint256"}],"name":"EditFeeOfPool","type":"event"},{"anonymous":false,"inputs":[{"indexed":true,"internalType":"address","name":"_wallet","type":"address"},{"indexed":false,"internalType":"uint256","name":"amount","type":"uint256"}],"name":"FundMarketing","type":"event"},{"anonymous":false,"inputs":[{"indexed":true,"internalType":"address","name":"_burnToken","type":"address"},{"indexed":false,"internalType":"uint256","name":"_amount","type":"uint256"}],"name":"LockLiquidity","type":"event"},{"anonymous":false,"inputs":[{"indexed":true,"internalType":"address","name":"previousOwner","type":"address"},{"indexed":true,"internalType":"address","name":"newOwner","type":"address"}],"name":"OwnershipTransferred","type":"event"},{"anonymous":false,"inputs":[{"indexed":false,"internalType":"address","name":"_newLottery","type":"address"},{"indexed":false,"internalType":"address","name":"_oldLottery","type":"address"}],"name":"UpdateLottery","type":"event"},{"anonymous":false,"inputs":[{"indexed":false,"internalType":"address","name":"_newWallet","type":"address"},{"indexed":false,"internalType":"address","name":"_oldWallet","type":"address"}],"name":"UpdateMarketing","type":"event"},{"anonymous":false,"inputs":[{"indexed":false,"internalType":"address","name":"_newRouter","type":"address"},{"indexed":false,"internalType":"address","name":"_oldRouter","type":"address"},{"indexed":false,"internalType":"bool","name":"_niceRouter","type":"bool"}],"name":"UpdateRouter","type":"event"},{"stateMutability":"payable","type":"fallback"},{"inputs":[],"name":"DIVISOR","outputs":[{"internalType":"uint256","name":"","type":"uint256"}],"stateMutability":"view","type":"function"},{"inputs":[{"internalType":"uint256","name":"_pid","type":"uint256"},{"internalType":"uint256[3]","name":"_niceFees","type":"uint256[3]"},{"internalType":"uint256[5]","name":"_crushFees","type":"uint256[5]"},{"internalType":"bool[3]","name":"hasFees","type":"bool[3]"},{"internalType":"address","name":"router","type":"address"},{"internalType":"address[]","name":"_tokens","type":"address[]"},{"internalType":"address[]","name":"_token0Path","type":"address[]"},{"internalType":"address[]","name":"_token1Path","type":"address[]"}],"name":"addorEditFee","outputs":[],"stateMutability":"nonpayable","type":"function"},{"inputs":[],"name":"bankroll","outputs":[{"internalType":"address","name":"","type":"address"}],"stateMutability":"view","type":"function"},{"inputs":[],"name":"chef","outputs":[{"internalType":"address","name":"","type":"address"}],"stateMutability":"view","type":"function"},{"inputs":[],"name":"crush","outputs":[{"internalType":"contract INICEToken","name":"","type":"address"}],"stateMutability":"view","type":"function"},{"inputs":[],"name":"deadWallet","outputs":[{"internalType":"address","name":"","type":"address"}],"stateMutability":"view","type":"function"},{"inputs":[{"internalType":"address","name":"_lotteryAddress","type":"address"}],"name":"editLottery","outputs":[],"stateMutability":"nonpayable","type":"function"},{"inputs":[{"internalType":"address","name":"_marketingAddress","type":"address"}],"name":"editMarketing","outputs":[],"stateMutability":"nonpayable","type":"function"},{"inputs":[{"internalType":"address","name":"_newRouter","type":"address"},{"internalType":"bool","name":"isNice","type":"bool"}],"name":"editRouter","outputs":[],"stateMutability":"nonpayable","type":"function"},{"inputs":[{"internalType":"uint256","name":"","type":"uint256"}],"name":"feeData","outputs":[{"internalType":"bool","name":"initialized","type":"bool"},{"internalType":"bool","name":"hasFees","type":"bool"},{"internalType":"bool","name":"token0Fees","type":"bool"},{"internalType":"bool","name":"token1Fees","type":"bool"},{"internalType":"contract IPancakeRouter","name":"router","type":"address"}],"stateMutability":"view","type":"function"},{"inputs":[{"internalType":"uint256","name":"_pid","type":"uint256"}],"name":"getPath","outputs":[{"internalType":"address[]","name":"path","type":"address[]"},{"internalType":"address[]","name":"path0","type":"address[]"},{"internalType":"address[]","name":"path1","type":"address[]"}],"stateMutability":"view","type":"function"},{"inputs":[],"name":"lockWallet","outputs":[{"internalType":"address","name":"","type":"address"}],"stateMutability":"view","type":"function"},{"inputs":[],"name":"lottery","outputs":[{"internalType":"address","name":"","type":"address"}],"stateMutability":"view","type":"function"},{"inputs":[],"name":"marketingWallet","outputs":[{"internalType":"address","name":"","type":"address"}],"stateMutability":"view","type":"function"},{"inputs":[],"name":"nice","outputs":[{"internalType":"contract INICEToken","name":"","type":"address"}],"stateMutability":"view","type":"function"},{"inputs":[],"name":"owner","outputs":[{"internalType":"address","name":"","type":"address"}],"stateMutability":"view","type":"function"},{"inputs":[{"internalType":"uint256","name":"_pid","type":"uint256"},{"internalType":"uint256","name":"amount","type":"uint256"}],"name":"receiveFees","outputs":[],"stateMutability":"nonpayable","type":"function"},{"inputs":[],"name":"renounceOwnership","outputs":[],"stateMutability":"nonpayable","type":"function"},{"inputs":[],"name":"routerCrush","outputs":[{"internalType":"contract IPancakeRouter","name":"","type":"address"}],"stateMutability":"view","type":"function"},{"inputs":[],"name":"routerNice","outputs":[{"internalType":"contract IPancakeRouter","name":"","type":"address"}],"stateMutability":"view","type":"function"},{"inputs":[{"internalType":"uint256","name":"","type":"uint256"},{"internalType":"uint256","name":"","type":"uint256"}],"name":"token0Path","outputs":[{"internalType":"address","name":"","type":"address"}],"stateMutability":"view","type":"function"},{"inputs":[{"internalType":"uint256","name":"","type":"uint256"},{"internalType":"uint256","name":"","type":"uint256"}],"name":"token1Path","outputs":[{"internalType":"address","name":"","type":"address"}],"stateMutability":"view","type":"function"},{"inputs":[{"internalType":"uint256","name":"","type":"uint256"},{"internalType":"uint256","name":"","type":"uint256"}],"name":"tokenPath","outputs":[{"internalType":"address","name":"","type":"address"}],"stateMutability":"view","type":"function"},{"inputs":[{"internalType":"address","name":"newOwner","type":"address"}],"name":"transferOwnership","outputs":[],"stateMutability":"nonpayable","type":"function"},{"inputs":[{"internalType":"uint256","name":"id","type":"uint256"},{"internalType":"address[]","name":"_path","type":"address[]"},{"internalType":"address[]","name":"_path1","type":"address[]"},{"internalType":"address[]","name":"_path2","type":"address[]"}],"name":"updatePaths","outputs":[],"stateMutability":"nonpayable","type":"function"},{"stateMutability":"payable","type":"receive"}],"bytecode":"61014060405261dead60c0523480156200001857600080fd5b5060405162003b4838038062003b488339810160408190526200003b9162000110565b6200004633620000a3565b6001600160a01b0394851660805294841660a05291831660e052821661010052811661012052600180549282166001600160a01b0319938416179055600380549390911692821683179055600480549091169091179055620001a5565b600080546001600160a01b038381166001600160a01b0319831681178455604051919092169283917f8be0079c531659141344cd1fd0a4f28419497f9722a3daafe3b4186f6b6457e09190a35050565b80516001600160a01b03811681146200010b57600080fd5b919050565b600080600080600080600060e0888a0312156200012c57600080fd5b6200013788620000f3565b96506200014760208901620000f3565b95506200015760408901620000f3565b94506200016760608901620000f3565b93506200017760808901620000f3565b92506200018760a08901620000f3565b91506200019760c08901620000f3565b905092959891949750929550565b60805160a05160c05160e05161010051610120516138d5620002736000396000818161019601528181610baa01528181610c290152610cad0152600081816102070152612a910152600061023b015260008181610443015261294001526000818161049501528181610e6501528181610f3101528181610fc201528181612457015261269d0152600081816104e9015281816108d5015281816109b301528181610aad01528181610bfc01528181610d2701528181610db301528181612431015261267701526138d56000f3fe60806040526004361061015b5760003560e01c8063715018a6116100c857806392cc410a11610084578063ba13a57211610061578063ba13a5721461050b578063cf4bc00e1461052b578063e17650731461054b578063f2fde38b1461057a57005b806392cc410a14610483578063958bac5f146104b7578063b359a9f9146104d757005b8063715018a6146103bc57806375f0a874146103d15780637a254a41146103f15780637d04feff1461041157806385141a77146104315780638da5cb5b1461046557005b80633410fe6e116101175780633410fe6e1461027d5780633843418d146102a15780634f3487581461033c578063659f4bf91461035c5780636c7a8ee41461037c5780636fd57c791461039c57005b80630890d1aa146101645780630c657eb014610184578063179ea561146101d55780631debb253146101f55780631fc8bc5d1461022957806326ac97491461025d57005b3661016257005b005b34801561017057600080fd5b5061016261017f3660046131c7565b61059a565b34801561019057600080fd5b506101b87f000000000000000000000000000000000000000000000000000000000000000081565b6040516001600160a01b0390911681526020015b60405180910390f35b3480156101e157600080fd5b506101626101f03660046131c7565b610651565b34801561020157600080fd5b506101b87f000000000000000000000000000000000000000000000000000000000000000081565b34801561023557600080fd5b506101b87f000000000000000000000000000000000000000000000000000000000000000081565b34801561026957600080fd5b506101626102783660046131f9565b6106ff565b34801561028957600080fd5b5061029361271081565b6040519081526020016101cc565b3480156102ad57600080fd5b506103036102bc366004613232565b60056020526000908152604090206008015460ff8082169161010081048216916201000082048116916301000000810490911690600160201b90046001600160a01b031685565b60408051951515865293151560208601529115159284019290925290151560608301526001600160a01b0316608082015260a0016101cc565b34801561034857600080fd5b5061016261035736600461324b565b610843565b34801561036857600080fd5b506101b861037736600461324b565b6110db565b34801561038857600080fd5b506101626103973660046132db565b611113565b3480156103a857600080fd5b506004546101b8906001600160a01b031681565b3480156103c857600080fd5b506101626113ee565b3480156103dd57600080fd5b506001546101b8906001600160a01b031681565b3480156103fd57600080fd5b506101b861040c36600461324b565b611424565b34801561041d57600080fd5b506101b861042c36600461324b565b611440565b34801561043d57600080fd5b506101b87f000000000000000000000000000000000000000000000000000000000000000081565b34801561047157600080fd5b506000546001600160a01b03166101b8565b34801561048f57600080fd5b506101b87f000000000000000000000000000000000000000000000000000000000000000081565b3480156104c357600080fd5b506101626104d23660046133d3565b61145c565b3480156104e357600080fd5b506101b87f000000000000000000000000000000000000000000000000000000000000000081565b34801561051757600080fd5b506002546101b8906001600160a01b031681565b34801561053757600080fd5b506003546101b8906001600160a01b031681565b34801561055757600080fd5b5061056b610566366004613232565b6114d3565b6040516101cc939291906134bb565b34801561058657600080fd5b506101626105953660046131c7565b611629565b6000546001600160a01b031633146105cd5760405162461bcd60e51b81526004016105c4906134f4565b60405180910390fd5b6002546001600160a01b03828116911614156105e857600080fd5b600254604080516001600160a01b03808516825290921660208301527f6fc5fb41e46f8dc565e7e96b8ead0aa89f37c4d146eed18154059d074d991289910160405180910390a1600280546001600160a01b0319166001600160a01b0392909216919091179055565b6000546001600160a01b0316331461067b5760405162461bcd60e51b81526004016105c4906134f4565b6001546001600160a01b038281169116141561069657600080fd5b600154604080516001600160a01b03808516825290921660208301527f747f0121a55c3cbfd440ca2324ff63f5c282ceb804ada2dc7b81efdfba9788c5910160405180910390a1600180546001600160a01b0319166001600160a01b0392909216919091179055565b6000546001600160a01b031633146107295760405162461bcd60e51b81526004016105c4906134f4565b80156107b9576004546001600160a01b038381169116141561074a57600080fd5b600454604080516001600160a01b038581168252909216602083015282151582820152517f808d80abd625335b4ce2000a6fbc0d6fd4d4dd96a818d6354590cf7b0dd80f689181900360600190a1600480546001600160a01b0384166001600160a01b03199091161790555050565b6003546001600160a01b03838116911614156107d457600080fd5b600354604080516001600160a01b038581168252909216602083015282151582820152517f808d80abd625335b4ce2000a6fbc0d6fd4d4dd96a818d6354590cf7b0dd80f689181900360600190a1600380546001600160a01b0384166001600160a01b03199091161790555050565b6000828152600560205260409020600881015460ff16151560011461086757505050565b6000838152600760205260409020541561088b5761088583836116c4565b50610896565b61089683828461206f565b4760008080806108a78886836122bc565b919450925090508215610e18576108bf8360006123f8565b506040516370a0823160e01b81523060048201527f00000000000000000000000000000000000000000000000000000000000000006001600160a01b0316906370a0823190602401602060405180830381865afa158015610924573d6000803e3d6000fd5b505050506040513d601f19601f820116820180604052508101906109489190613529565b935060006109568383613558565b1115610a2957806109678385613558565b6109719190613558565b61097b8284613558565b6109859086613570565b61098f919061358f565b935061099e8483836000612647565b6040516370a0823160e01b81523060048201527f00000000000000000000000000000000000000000000000000000000000000006001600160a01b0316906370a0823190602401602060405180830381865afa158015610a02573d6000803e3d6000fd5b505050506040513d601f19601f82011682018060405250810190610a269190613529565b93505b8315610e1857600586015460048701546003880154610a489190613558565b610a529190613558565b9250826003870160020154610a679086613570565b610a71919061358f565b6002549092506001600160a01b031615801590610a8e5750600082115b15610b8b5760025460405163095ea7b360e01b81526001600160a01b037f000000000000000000000000000000000000000000000000000000000000000081169263095ea7b392610ae892919091169086906004016135c7565b6020604051808303816000875af1158015610b07573d6000803e3d6000fd5b505050506040513d601f19601f82011682018060405250810190610b2b91906135e0565b50600254604051631c5fc48360e01b8152600481018490526001600160a01b0390911690631c5fc48390602401600060405180830381600087803b158015610b7257600080fd5b505af1158015610b86573d6000803e3d6000fd5b505050505b60048601548390610b9c9086613570565b610ba6919061358f565b90507f00000000000000000000000000000000000000000000000000000000000000006001600160a01b031615801590610be05750600081115b15610d125760405163095ea7b360e01b81526001600160a01b037f0000000000000000000000000000000000000000000000000000000000000000169063095ea7b390610c53907f00000000000000000000000000000000000000000000000000000000000000009085906004016135c7565b6020604051808303816000875af1158015610c72573d6000803e3d6000fd5b505050506040513d601f19601f82011682018060405250810190610c9691906135e0565b50604051636172858b60e11b8152600481018290527f00000000000000000000000000000000000000000000000000000000000000006001600160a01b03169063c2e50b1690602401600060405180830381600087803b158015610cf957600080fd5b505af1158015610d0d573d6000803e3d6000fd5b505050505b6040516370a0823160e01b81523060048201527f00000000000000000000000000000000000000000000000000000000000000006001600160a01b0316906370a0823190602401602060405180830381865afa158015610d76573d6000803e3d6000fd5b505050506040513d601f19601f82011682018060405250810190610d9a9190613529565b604051630852cd8d60e31b8152600481018290529094507f00000000000000000000000000000000000000000000000000000000000000006001600160a01b0316906342966c6890602401600060405180830381600087803b158015610dff57600080fd5b505af1158015610e13573d6000803e3d6000fd5b505050505b610e24888660016122bc565b919450925090508215610e3e57610e3c8360016123f8565b505b6000610e4a8383613558565b1115610f1c576040516370a0823160e01b81523060048201527f00000000000000000000000000000000000000000000000000000000000000006001600160a01b0316906370a0823190602401602060405180830381865afa158015610eb4573d6000803e3d6000fd5b505050506040513d601f19601f82011682018060405250810190610ed89190613529565b935080610ee58385613558565b610eef9190613558565b610ef98284613558565b610f039086613570565b610f0d919061358f565b9350610f1c8483836001612647565b6040516370a0823160e01b81523060048201527f00000000000000000000000000000000000000000000000000000000000000006001600160a01b0316906370a0823190602401602060405180830381865afa158015610f80573d6000803e3d6000fd5b505050506040513d601f19601f82011682018060405250810190610fa49190613529565b9250821561102757604051630852cd8d60e31b8152600481018490527f00000000000000000000000000000000000000000000000000000000000000006001600160a01b0316906342966c6890602401600060405180830381600087803b15801561100e57600080fd5b505af1158015611022573d6000803e3d6000fd5b505050505b47945084156110d1576001546040516000916001600160a01b03169087908381818185875af1925050503d806000811461107d576040519150601f19603f3d011682016040523d82523d6000602084013e611082565b606091505b5050905080156110cf576001546040518781526001600160a01b03909116907fec93429584afafeb16bff447085953e4dd85da0d3039088df3139eeca486ff9d9060200160405180910390a25b505b5050505050505050565b600760205281600052604060002081815481106110f757600080fd5b6000918252602090912001546001600160a01b03169150829050565b6000546001600160a01b0316331461113d5760405162461bcd60e51b81526004016105c4906134f4565b61271061114a8b8b612b6d565b11156111985760405162461bcd60e51b815260206004820152601a60248201527f496e636f72726563742046656520646973747269627574696f6e00000000000060448201526064016105c4565b6001600160a01b0387166111e15760405162461bcd60e51b815260206004820152601060248201526f24b731b7b93932b1ba102937baba32b960811b60448201526064016105c4565b846112245760405162461bcd60e51b81526020600482015260136024820152726e6565642061207061746820746f206261736560681b60448201526064016105c4565b6040805161014081019091528060e081018c60038282606080828437600092019190915250505081526040805160a0818101909252602090920191908c906005908390839080828437600092019190915250505081526001602080830191909152604090910190611297908b018b6135fd565b151581526020908101906112b19060408c01908c016135fd565b151581526020016112c860608b0160408c016135fd565b151581526001600160a01b03891660209182015260008d815260059091526040902081516112f990829060036130cf565b50602082015161130f906003830190600561310d565b506040820151600890910180546060840151608085015160a086015160c0909601516001600160a01b0316600160201b02640100000000600160c01b031996151563010000000263ff0000001992151562010000029290921663ffff0000199315156101000261ff00199715159790971661ffff199095169490941795909517919091169190911717929092161790556113ae8b87878787878761145c565b6040518b81527f2547f7801e95354cbfdcc4ea1e4e41380ab50a9b52e3c7625f1ab05c8676ed759060200160405180910390a15050505050505050505050565b6000546001600160a01b031633146114185760405162461bcd60e51b81526004016105c4906134f4565b6114226000612bea565b565b600660205281600052604060002081815481106110f757600080fd5b600860205281600052604060002081815481106110f757600080fd5b6000546001600160a01b031633146114865760405162461bcd60e51b81526004016105c4906134f4565b600087815260066020526040902061149f90878761313a565b5060008781526007602052604090206114b990858561313a565b5060008781526008602052604090206110d190838361313a565b60608060606006600085815260200190815260200160002080548060200260200160405190810160405280929190818152602001828054801561153f57602002820191906000526020600020905b81546001600160a01b03168152600190910190602001808311611521575b50505050509250600760008581526020019081526020016000208054806020026020016040519081016040528092919081815260200182805480156115ad57602002820191906000526020600020905b81546001600160a01b0316815260019091019060200180831161158f575b505050505091506008600085815260200190815260200160002080548060200260200160405190810160405280929190818152602001828054801561161b57602002820191906000526020600020905b81546001600160a01b031681526001909101906020018083116115fd575b505050505090509193909250565b6000546001600160a01b031633146116535760405162461bcd60e51b81526004016105c4906134f4565b6001600160a01b0381166116b85760405162461bcd60e51b815260206004820152602660248201527f4f776e61626c653a206e6577206f776e657220697320746865207a65726f206160448201526564647265737360d01b60648201526084016105c4565b6116c181612bea565b50565b60008281526005602052604081206116dc8482612c3a565b60048054604080516315ab88c960e31b815290516001600160a01b039092169263ad5c46489282820192602092908290030181865afa158015611723573d6000803e3d6000fd5b505050506040513d601f19601f82011682018060405250810190611747919061361a565b6001600160a01b031660066000868152602001908152602001600020600081548110611775576117756135b1565b6000918252602090912001546001600160a01b03161480611841575060048054604080516315ab88c960e31b815290516001600160a01b039092169263ad5c46489282820192602092908290030181865afa1580156117d8573d6000803e3d6000fd5b505050506040513d601f19601f820116820180604052508101906117fc919061361a565b6001600160a01b03166006600086815260200190815260200160002060018154811061182a5761182a6135b1565b6000918252602090912001546001600160a01b0316145b15611b815760006060600061185587612eab565b60088701549295509093509150610100900460ff16156118fb57600884015460405163af2979eb60e01b8152600160201b9091046001600160a01b03169063af2979eb906118b29086908a90600090819030904290600401613637565b6020604051808303816000875af11580156118d1573d6000803e3d6000fd5b505050506040513d601f19601f820116820180604052508101906118f59190613529565b50611982565b6008840154604051629d473b60e21b8152600160201b9091046001600160a01b0316906302751cec9061193d9086908a90600090819030904290600401613637565b60408051808303816000875af115801561195b573d6000803e3d6000fd5b505050506040513d601f19601f8201168201806040525081019061197f9190613672565b50505b6040516370a0823160e01b81523060048201526000906001600160a01b038516906370a0823190602401602060405180830381865afa1580156119c9573d6000803e3d6000fd5b505050506040513d601f19601f820116820180604052508101906119ed9190613529565b600886015460405163095ea7b360e01b81529192506001600160a01b038087169263095ea7b392611a2c92600160201b909104169085906004016135c7565b6020604051808303816000875af1158015611a4b573d6000803e3d6000fd5b505050506040513d601f19601f82011682018060405250810190611a6f91906135e0565b508115611aee57600885015460405163791ac94760e01b8152600160201b9091046001600160a01b03169063791ac94790611ab7908490600090889030904290600401613696565b600060405180830381600087803b158015611ad157600080fd5b505af1158015611ae5573d6000803e3d6000fd5b50505050611b78565b60088501546040516318cbafe560e01b8152600160201b9091046001600160a01b0316906318cbafe590611b2f908490600090889030904290600401613696565b6000604051808303816000875af1158015611b4e573d6000803e3d6000fd5b505050506040513d6000823e601f3d908101601f19168201604052611b7691908101906136e8565b505b50505050612067565b60088101546000858152600660205260408120805491928392600160201b9091046001600160a01b03169163baa2abde918490611bc057611bc06135b1565b60009182526020808320909101548a83526006909152604090912080546001600160a01b03909216916001908110611bfa57611bfa6135b1565b600091825260208220015460405160e085901b6001600160e01b03191681526001600160a01b03938416600482015292166024830152604482018990526064820181905260848201523060a48201524260c482015260e40160408051808303816000875af1158015611c70573d6000803e3d6000fd5b505050506040513d601f19601f82011682018060405250810190611c949190613672565b600088815260066020526040812080549395509193509091611cb857611cb86135b1565b60009182526020909120015460088401546001600160a01b039182169163095ea7b391600160201b900416611cee856002613570565b6040518363ffffffff1660e01b8152600401611d0b9291906135c7565b6020604051808303816000875af1158015611d2a573d6000803e3d6000fd5b505050506040513d601f19601f82011682018060405250810190611d4e91906135e0565b50600086815260066020526040902080546001908110611d7057611d706135b1565b60009182526020909120015460088401546001600160a01b039182169163095ea7b391600160201b900416611da6846002613570565b6040518363ffffffff1660e01b8152600401611dc39291906135c7565b6020604051808303816000875af1158015611de2573d6000803e3d6000fd5b505050506040513d601f19601f82011682018060405250810190611e0691906135e0565b50600883015462010000900460ff1615611e9b576008830154600087815260076020526040808220905163791ac94760e01b8152600160201b9093046001600160a01b03169263791ac94792611e64928792309042906004016137a6565b600060405180830381600087803b158015611e7e57600080fd5b505af1158015611e92573d6000803e3d6000fd5b50505050611f2e565b600883015460008781526007602052604080822090516318cbafe560e01b8152600160201b9093046001600160a01b0316926318cbafe592611ee5928792309042906004016137a6565b6000604051808303816000875af1158015611f04573d6000803e3d6000fd5b505050506040513d6000823e601f3d908101601f19168201604052611f2c91908101906136e8565b505b60088301546301000000900460ff1615611fc65760088381015460008881526020929092526040808320905163791ac94760e01b8152600160201b9092046001600160a01b03169263791ac94792611f8f92869291309042906004016137a6565b600060405180830381600087803b158015611fa957600080fd5b505af1158015611fbd573d6000803e3d6000fd5b5050505061205c565b6008838101546000888152602092909252604080832090516318cbafe560e01b8152600160201b9092046001600160a01b0316926318cbafe59261201392869291309042906004016137a6565b6000604051808303816000875af1158015612032573d6000803e3d6000fd5b505050506040513d6000823e601f3d908101601f1916820160405261205a91908101906136e8565b505b479350505050612069565b505b92915050565b60008381526006602052604081208054829061208d5761208d6135b1565b60009182526020822001546040516370a0823160e01b81523060048201526001600160a01b03909116925082906370a0823190602401602060405180830381865afa1580156120e0573d6000803e3d6000fd5b505050506040513d601f19601f820116820180604052508101906121049190613529565b1161210e57600080fd5b600883015460405163095ea7b360e01b81526001600160a01b038084169263095ea7b39261214c92600160201b9092049091169086906004016135c7565b6020604051808303816000875af115801561216b573d6000803e3d6000fd5b505050506040513d601f19601f8201168201806040525081019061218f91906135e0565b506008830154610100900460ff1615612223576008830154600085815260066020526040808220905163791ac94760e01b8152600160201b9093046001600160a01b03169263791ac947926121ec928792309042906004016137a6565b600060405180830381600087803b15801561220657600080fd5b505af115801561221a573d6000803e3d6000fd5b505050506122b6565b600883015460008581526006602052604080822090516318cbafe560e01b8152600160201b9093046001600160a01b0316926318cbafe59261226d928792309042906004016137a6565b6000604051808303816000875af115801561228c573d6000803e3d6000fd5b505050506040513d6000823e601f3d908101601f191682016040526122b491908101906136e8565b505b50505050565b600083815260056020526040812081908190841561235b578054612710906122e49088613570565b6122ee919061358f565b93506122fd6127106002613570565b816001015461230c9088613570565b612316919061358f565b92506123256127106002613570565b81600201546123349088613570565b61233e919061358f565b915061234a8383613558565b6123549085613558565b93506123ee565b6005810154600482015460038301546000929161237791613558565b6123819190613558565b90506127106123908289613570565b61239a919061358f565b94506123a96127106002613570565b60068301546123b89089613570565b6123c2919061358f565b93506123d16127106002613570565b60078301546123e09089613570565b6123ea919061358f565b9250505b5093509350939050565b60004783111561240757600080fd5b604080516002808252606082018352600092602083019080368337019050509050600083612455577f0000000000000000000000000000000000000000000000000000000000000000612477565b7f00000000000000000000000000000000000000000000000000000000000000005b9050600084612491576003546001600160a01b031661249e565b6004546001600160a01b03165b9050806001600160a01b031663ad5c46486040518163ffffffff1660e01b8152600401602060405180830381865afa1580156124de573d6000803e3d6000fd5b505050506040513d601f19601f82011682018060405250810190612502919061361a565b83600081518110612515576125156135b1565b60200260200101906001600160a01b031690816001600160a01b0316815250508183600181518110612549576125496135b1565b6001600160a01b039283166020918202929092010152604051637ff36ab560e01b815290821690637ff36ab590889061258d9060009088903090429060040161381c565b60006040518083038185885af11580156125ab573d6000803e3d6000fd5b50505050506040513d6000823e601f3d908101601f191682016040526125d491908101906136e8565b506040516370a0823160e01b81523060048201526001600160a01b038316906370a0823190602401602060405180830381865afa158015612619573d6000803e3d6000fd5b505050506040513d601f19601f8201168201806040525081019061263d9190613529565b9695505050505050565b60008161265f576003546001600160a01b031661266c565b6004546001600160a01b03165b905060008261269b577f00000000000000000000000000000000000000000000000000000000000000006126bd565b7f00000000000000000000000000000000000000000000000000000000000000005b905060006126cb8587613558565b60405163095ea7b360e01b81529091506001600160a01b0383169063095ea7b3906126fc9086908b906004016135c7565b6020604051808303816000875af115801561271b573d6000803e3d6000fd5b505050506040513d601f19601f8201168201806040525081019061273f91906135e0565b506000836001600160a01b031663f305d71983858b60008030426040518863ffffffff1660e01b815260040161277a96959493929190613637565b60606040518083038185885af1158015612798573d6000803e3d6000fd5b50505050506040513d601f19601f820116820180604052508101906127bd9190613851565b925050506000846001600160a01b031663c45a01556040518163ffffffff1660e01b8152600401602060405180830381865afa158015612801573d6000803e3d6000fd5b505050506040513d601f19601f82011682018060405250810190612825919061361a565b90506000856001600160a01b031663ad5c46486040518163ffffffff1660e01b8152600401602060405180830381865afa158015612867573d6000803e3d6000fd5b505050506040513d601f19601f8201168201806040525081019061288b919061361a565b60405163e6a4390560e01b81526001600160a01b038781166004830152808316602483015291925060009184169063e6a4390590604401602060405180830381865afa1580156128df573d6000803e3d6000fd5b505050506040513d601f19601f82011682018060405250810190612903919061361a565b905060008a15612a0e576129178a8c613558565b6129218c87613570565b61292b919061358f565b90506000826001600160a01b031663a9059cbb7f0000000000000000000000000000000000000000000000000000000000000000846040518363ffffffff1660e01b815260040161297d9291906135c7565b6020604051808303816000875af115801561299c573d6000803e3d6000fd5b505050506040513d601f19601f820116820180604052508101906129c091906135e0565b90508015612a0c57876001600160a01b03167fe0a8a8fa6f5b9f19597a6a7eade0801109c18f11dfa283d4213b216aa8cb322e83604051612a0391815260200190565b60405180910390a25b505b8915612b5f576040516370a0823160e01b81523060048201526001600160a01b038316906370a0823190602401602060405180830381865afa158015612a58573d6000803e3d6000fd5b505050506040513d601f19601f82011682018060405250810190612a7c9190613529565b94506000826001600160a01b031663a9059cbb7f0000000000000000000000000000000000000000000000000000000000000000886040518363ffffffff1660e01b8152600401612ace9291906135c7565b6020604051808303816000875af1158015612aed573d6000803e3d6000fd5b505050506040513d601f19601f82011682018060405250810190612b1191906135e0565b90508015612b5d57876001600160a01b03167f264dd7609958fa5f21275018d225e5746d86e3feef8f87dce42c6eac9ee9d22987604051612b5491815260200190565b60405180910390a25b505b505050505050505050505050565b6000805b60058160ff16101561206757828160ff1660058110612b9257612b926135b1565b602002013582612ba29190613558565b915060038160ff161015612bd857838160ff1660038110612bc557612bc56135b1565b602002013582612bd59190613558565b91505b80612be28161387f565b915050612b71565b600080546001600160a01b038381166001600160a01b0319831681178455604051919092169283917f8be0079c531659141344cd1fd0a4f28419497f9722a3daafe3b4186f6b6457e09190a35050565b60008160080160049054906101000a90046001600160a01b03166001600160a01b031663c45a01556040518163ffffffff1660e01b8152600401602060405180830381865afa158015612c91573d6000803e3d6000fd5b505050506040513d601f19601f82011682018060405250810190612cb5919061361a565b90506000816001600160a01b031663e6a4390560066000878152602001908152602001600020600081548110612ced57612ced6135b1565b60009182526020808320909101548883526006909152604090912080546001600160a01b03909216916001908110612d2757612d276135b1565b60009182526020909120015460405160e084901b6001600160e01b03191681526001600160a01b03928316600482015291166024820152604401602060405180830381865afa158015612d7e573d6000803e3d6000fd5b505050506040513d601f19601f82011682018060405250810190612da2919061361a565b6040516370a0823160e01b815230600482015290915081906000906001600160a01b038316906370a0823190602401602060405180830381865afa158015612dee573d6000803e3d6000fd5b505050506040513d601f19601f82011682018060405250810190612e129190613529565b905060008111612e2157600080fd5b600885015460405163095ea7b360e01b81526001600160a01b038085169263095ea7b392612e5f92600160201b9092049091169085906004016135c7565b6020604051808303816000875af1158015612e7e573d6000803e3d6000fd5b505050506040513d601f19601f82011682018060405250810190612ea291906135e0565b50505050505050565b600060606000600360009054906101000a90046001600160a01b03166001600160a01b031663ad5c46486040518163ffffffff1660e01b8152600401602060405180830381865afa158015612f04573d6000803e3d6000fd5b505050506040513d601f19601f82011682018060405250810190612f28919061361a565b6001600160a01b031660066000868152602001908152602001600020600081548110612f5657612f566135b1565b6000918252602090912001546001600160a01b03161461302c5760008481526006602052604081208054909190612f8f57612f8f6135b1565b60009182526020808320909101548683526007825260409283902080548451818502810185019095528085526001600160a01b0390921696509183018282801561300257602002820191906000526020600020905b81546001600160a01b03168152600190910190602001808311612fe4575b505050600087815260056020526040902060080154929450505062010000900460ff1690506130c8565b60008481526006602052604090208054600190811061304d5761304d6135b1565b60009182526020808320909101548683526008825260409283902080548451818502810185019095528085526001600160a01b039092169650918301828280156130c057602002820191906000526020600020905b81546001600160a01b031681526001909101906020018083116130a2575b505050505091505b9193909250565b82600381019282156130fd579160200282015b828111156130fd5782518255916020019190600101906130e2565b5061310992915061318d565b5090565b82600581019282156130fd57916020028201828111156130fd5782518255916020019190600101906130e2565b8280548282559060005260206000209081019282156130fd579160200282015b828111156130fd5781546001600160a01b0319166001600160a01b0384351617825560209092019160019091019061315a565b5b80821115613109576000815560010161318e565b6001600160a01b03811681146116c157600080fd5b80356131c2816131a2565b919050565b6000602082840312156131d957600080fd5b81356131e4816131a2565b9392505050565b80151581146116c157600080fd5b6000806040838503121561320c57600080fd5b8235613217816131a2565b91506020830135613227816131eb565b809150509250929050565b60006020828403121561324457600080fd5b5035919050565b6000806040838503121561325e57600080fd5b50508035926020909101359150565b806060810183101561206957600080fd5b8060a0810183101561206957600080fd5b60008083601f8401126132a157600080fd5b50813567ffffffffffffffff8111156132b957600080fd5b6020830191508360208260051b85010111156132d457600080fd5b9250929050565b60008060008060008060008060008060006102008c8e0312156132fd57600080fd5b8b359a5061330e8d60208e0161326d565b995061331d8d60808e0161327e565b985061332d8d6101208e0161326d565b975061333c6101808d016131b7565b965067ffffffffffffffff806101a08e0135111561335957600080fd5b61336a8e6101a08f01358f0161328f565b90975095506101c08d013581101561338157600080fd5b6133928e6101c08f01358f0161328f565b90955093506101e08d01358110156133a957600080fd5b506133bb8d6101e08e01358e0161328f565b81935080925050509295989b509295989b9093969950565b60008060008060008060006080888a0312156133ee57600080fd5b87359650602088013567ffffffffffffffff8082111561340d57600080fd5b6134198b838c0161328f565b909850965060408a013591508082111561343257600080fd5b61343e8b838c0161328f565b909650945060608a013591508082111561345757600080fd5b506134648a828b0161328f565b989b979a50959850939692959293505050565b600081518084526020808501945080840160005b838110156134b05781516001600160a01b03168752958201959082019060010161348b565b509495945050505050565b6060815260006134ce6060830186613477565b82810360208401526134e08186613477565b9050828103604084015261263d8185613477565b6020808252818101527f4f776e61626c653a2063616c6c6572206973206e6f7420746865206f776e6572604082015260600190565b60006020828403121561353b57600080fd5b5051919050565b634e487b7160e01b600052601160045260246000fd5b6000821982111561356b5761356b613542565b500190565b600081600019048311821515161561358a5761358a613542565b500290565b6000826135ac57634e487b7160e01b600052601260045260246000fd5b500490565b634e487b7160e01b600052603260045260246000fd5b6001600160a01b03929092168252602082015260400190565b6000602082840312156135f257600080fd5b81516131e4816131eb565b60006020828403121561360f57600080fd5b81356131e4816131eb565b60006020828403121561362c57600080fd5b81516131e4816131a2565b6001600160a01b039687168152602081019590955260408501939093526060840191909152909216608082015260a081019190915260c00190565b6000806040838503121561368557600080fd5b505080516020909101519092909150565b85815284602082015260a0604082015260006136b560a0830186613477565b6001600160a01b0394909416606083015250608001529392505050565b634e487b7160e01b600052604160045260246000fd5b600060208083850312156136fb57600080fd5b825167ffffffffffffffff8082111561371357600080fd5b818501915085601f83011261372757600080fd5b815181811115613739576137396136d2565b8060051b604051601f19603f8301168101818110858211171561375e5761375e6136d2565b60405291825284820192508381018501918883111561377c57600080fd5b938501935b8285101561379a57845184529385019392850192613781565b98975050505050505050565b600060a082018783526020878185015260a0604085015281875480845260c0860191508860005282600020935060005b818110156137fb5784546001600160a01b0316835260019485019492840192016137d6565b50506001600160a01b03969096166060850152505050608001529392505050565b8481526080602082015260006138356080830186613477565b6001600160a01b03949094166040830152506060015292915050565b60008060006060848603121561386657600080fd5b8351925060208401519150604084015190509250925092565b600060ff821660ff81141561389657613896613542565b6001019291505056fea26469706673582212201b23e61ccbc769779979d49d0384e580e5df9487882423ab3d8dd04d4ea4e16864736f6c634300080c0033","bytecodeSha1":"58d8bf80411604b437a4a5d5bae77ea9ac551c16","compiler":{"evm_version":"istanbul","optimizer":{"enabled":true,"runs":200},"version":"0.8.12+commit.f00d7308"},"contractName":"FeeDistributorV3","language":"Solidity","natspec":{"kind":"dev","methods":{"getPath(uint256)":{"notice":"Get the paths either for frontend or server information","params":{"_pid":"The pool Id to check for"},"returns":{"path":"The token Path to BNB.. if LP the token composition","path0":"the token0 path to BNB for LP token0","path1":"the token1 path to BNB fro LP token1"}},"owner()":{"details":"Returns the address of the current owner."},"receiveFees(uint256,uint256)":{"details":"IF WE HAVE NO AMOUNT, DO NOTHING!!!","notice":"Receive fee tokens and distribute them","params":{"_pid":"The pool ID that will get the fees","amount":"the amount of tokens received"}},"renounceOwnership()":{"details":"Leaves the contract without owner. It will not be possible to call `onlyOwner` functions anymore. Can only be called by the current owner. NOTE: Renouncing ownership will leave the contract without an owner, thereby removing any functionality that is only available to the owner."},"transferOwnership(address)":{"details":"Transfers ownership of the contract to a new account (`newOwner`). Can only be called by the current owner."},"updatePaths(uint256,address[],address[],address[])":{"notice":"Update the paths used for a specific pool","params":{"_path":"path of the token, if LP, tokens that comprise it, else route to ETH","_path1":"if LP, token0 path to ETH, else empty;","_path2":"if LP, token1 path to ETH, else empty;","id":"the Pool ID"}}},"version":1},"opcodes":"PUSH1 0x80 PUSH1 0x40 MSTORE PUSH1 0x4 CALLDATASIZE LT PUSH2 0x15B JUMPI PUSH1 0x0 CALLDATALOAD PUSH1 0xE0 SHR DUP1 PUSH4 0x715018A6 GT PUSH2 0xC8 JUMPI DUP1 PUSH4 0x92CC410A GT PUSH2 0x84 JUMPI DUP1 PUSH4 0xBA13A572 GT PUSH2 0x61 JUMPI DUP1 PUSH4 0xBA13A572 EQ PUSH2 0x50B JUMPI DUP1 PUSH4 0xCF4BC00E EQ PUSH2 0x52B JUMPI DUP1 PUSH4 0xE1765073 EQ PUSH2 0x54B JUMPI DUP1 PUSH4 0xF2FDE38B EQ PUSH2 0x57A JUMPI STOP JUMPDEST DUP1 PUSH4 0x92CC410A EQ PUSH2 0x483 JUMPI DUP1 PUSH4 0x958BAC5F EQ PUSH2 0x4B7 JUMPI DUP1 PUSH4 0xB359A9F9 EQ PUSH2 0x4D7 JUMPI STOP JUMPDEST DUP1 PUSH4 0x715018A6 EQ PUSH2 0x3BC JUMPI DUP1 PUSH4 0x75F0A874 EQ PUSH2 0x3D1 JUMPI DUP1 PUSH4 0x7A254A41 EQ PUSH2 0x3F1 JUMPI DUP1 PUSH4 0x7D04FEFF EQ PUSH2 0x411 JUMPI DUP1 PUSH4 0x85141A77 EQ PUSH2 0x431 JUMPI DUP1 PUSH4 0x8DA5CB5B EQ PUSH2 0x465 JUMPI STOP JUMPDEST DUP1 PUSH4 0x3410FE6E GT PUSH2 0x117 JUMPI DUP1 PUSH4 0x3410FE6E EQ PUSH2 0x27D JUMPI DUP1 PUSH4 0x3843418D EQ PUSH2 0x2A1 JUMPI DUP1 PUSH4 0x4F348758 EQ PUSH2 0x33C JUMPI DUP1 PUSH4 0x659F4BF9 EQ PUSH2 0x35C JUMPI DUP1 PUSH4 0x6C7A8EE4 EQ PUSH2 0x37C JUMPI DUP1 PUSH4 0x6FD57C79 EQ PUSH2 0x39C JUMPI STOP JUMPDEST DUP1 PUSH4 0x890D1AA EQ PUSH2 0x164 JUMPI DUP1 PUSH4 0xC657EB0 EQ PUSH2 0x184 JUMPI DUP1 PUSH4 0x179EA561 EQ PUSH2 0x1D5 JUMPI DUP1 PUSH4 0x1DEBB253 EQ PUSH2 0x1F5 JUMPI DUP1 PUSH4 0x1FC8BC5D EQ PUSH2 0x229 JUMPI DUP1 PUSH4 0x26AC9749 EQ PUSH2 0x25D JUMPI STOP JUMPDEST CALLDATASIZE PUSH2 0x162 JUMPI STOP JUMPDEST STOP JUMPDEST CALLVALUE DUP1 ISZERO PUSH2 0x170 JUMPI PUSH1 0x0 DUP1 REVERT JUMPDEST POP PUSH2 0x162 PUSH2 0x17F CALLDATASIZE PUSH1 0x4 PUSH2 0x31C7 JUMP JUMPDEST PUSH2 0x59A JUMP JUMPDEST CALLVALUE DUP1 ISZERO PUSH2 0x190 JUMPI PUSH1 0x0 DUP1 REVERT JUMPDEST POP PUSH2 0x1B8 PUSH32 0x0 DUP2 JUMP JUMPDEST PUSH1 0x40 MLOAD PUSH1 0x1 PUSH1 0x1 PUSH1 0xA0 SHL SUB SWAP1 SWAP2 AND DUP2 MSTORE PUSH1 0x20 ADD JUMPDEST PUSH1 0x40 MLOAD DUP1 SWAP2 SUB SWAP1 RETURN JUMPDEST CALLVALUE DUP1 ISZERO PUSH2 0x1E1 JUMPI PUSH1 0x0 DUP1 REVERT JUMPDEST POP PUSH2 0x162 PUSH2 0x1F0 CALLDATASIZE PUSH1 0x4 PUSH2 0x31C7 JUMP JUMPDEST PUSH2 0x651 JUMP JUMPDEST CALLVALUE DUP1 ISZERO PUSH2 0x201 JUMPI PUSH1 0x0 DUP1 REVERT JUMPDEST POP PUSH2 0x1B8 PUSH32 0x0 DUP2 JUMP JUMPDEST CALLVALUE DUP1 ISZERO PUSH2 0x235 JUMPI PUSH1 0x0 DUP1 REVERT JUMPDEST POP PUSH2 0x1B8 PUSH32 0x0 DUP2 JUMP JUMPDEST CALLVALUE DUP1 ISZERO PUSH2 0x269 JUMPI PUSH1 0x0 DUP1 REVERT JUMPDEST POP PUSH2 0x162 PUSH2 0x278 CALLDATASIZE PUSH1 0x4 PUSH2 0x31F9 JUMP JUMPDEST PUSH2 0x6FF JUMP JUMPDEST CALLVALUE DUP1 ISZERO PUSH2 0x289 JUMPI PUSH1 0x0 DUP1 REVERT JUMPDEST POP PUSH2 0x293 PUSH2 0x2710 DUP2 JUMP JUMPDEST PUSH1 0x40 MLOAD SWAP1 DUP2 MSTORE PUSH1 0x20 ADD PUSH2 0x1CC JUMP JUMPDEST CALLVALUE DUP1 ISZERO PUSH2 0x2AD JUMPI PUSH1 0x0 DUP1 REVERT JUMPDEST POP PUSH2 0x303 PUSH2 0x2BC CALLDATASIZE PUSH1 0x4 PUSH2 0x3232 JUMP JUMPDEST PUSH1 0x5 PUSH1 0x20 MSTORE PUSH1 0x0 SWAP1 DUP2 MSTORE PUSH1 0x40 SWAP1 KECCAK256 PUSH1 0x8 ADD SLOAD PUSH1 0xFF DUP1 DUP3 AND SWAP2 PUSH2 0x100 DUP2 DIV DUP3 AND SWAP2 PUSH3 0x10000 DUP3 DIV DUP2 AND SWAP2 PUSH4 0x1000000 DUP2 DIV SWAP1 SWAP2 AND SWAP1 PUSH1 0x1 PUSH1 0x20 SHL SWAP1 DIV PUSH1 0x1 PUSH1 0x1 PUSH1 0xA0 SHL SUB AND DUP6 JUMP JUMPDEST PUSH1 0x40 DUP1 MLOAD SWAP6 ISZERO ISZERO DUP7 MSTORE SWAP4 ISZERO ISZERO PUSH1 0x20 DUP7 ADD MSTORE SWAP2 ISZERO ISZERO SWAP3 DUP5 ADD SWAP3 SWAP1 SWAP3 MSTORE SWAP1 ISZERO ISZERO PUSH1 0x60 DUP4 ADD MSTORE PUSH1 0x1 PUSH1 0x1 PUSH1 0xA0 SHL SUB AND PUSH1 0x80 DUP3 ADD MSTORE PUSH1 0xA0 ADD PUSH2 0x1CC JUMP JUMPDEST CALLVALUE DUP1 ISZERO PUSH2 0x348 JUMPI PUSH1 0x0 DUP1 REVERT JUMPDEST POP PUSH2 0x162 PUSH2 0x357 CALLDATASIZE PUSH1 0x4 PUSH2 0x324B JUMP JUMPDEST PUSH2 0x843 JUMP JUMPDEST CALLVALUE DUP1 ISZERO PUSH2 0x368 JUMPI PUSH1 0x0 DUP1 REVERT JUMPDEST POP PUSH2 0x1B8 PUSH2 0x377 CALLDATASIZE PUSH1 0x4 PUSH2 0x324B JUMP JUMPDEST PUSH2 0x10DB JUMP JUMPDEST CALLVALUE DUP1 ISZERO PUSH2 0x388 JUMPI PUSH1 0x0 DUP1 REVERT JUMPDEST POP PUSH2 0x162 PUSH2 0x397 CALLDATASIZE PUSH1 0x4 PUSH2 0x32DB JUMP JUMPDEST PUSH2 0x1113 JUMP JUMPDEST CALLVALUE DUP1 ISZERO PUSH2 0x3A8 JUMPI PUSH1 0x0 DUP1 REVERT JUMPDEST POP PUSH1 0x4 SLOAD PUSH2 0x1B8 SWAP1 PUSH1 0x1 PUSH1 0x1 PUSH1 0xA0 SHL SUB AND DUP2 JUMP JUMPDEST CALLVALUE DUP1 ISZERO PUSH2 0x3C8 JUMPI PUSH1 0x0 DUP1 REVERT JUMPDEST POP PUSH2 0x162 PUSH2 0x13EE JUMP JUMPDEST CALLVALUE DUP1 ISZERO PUSH2 0x3DD JUMPI PUSH1 0x0 DUP1 REVERT JUMPDEST POP PUSH1 0x1 SLOAD PUSH2 0x1B8 SWAP1 PUSH1 0x1 PUSH1 0x1 PUSH1 0xA0 SHL SUB AND DUP2 JUMP JUMPDEST CALLVALUE DUP1 ISZERO PUSH2 0x3FD JUMPI PUSH1 0x0 DUP1 REVERT JUMPDEST POP PUSH2 0x1B8 PUSH2 0x40C CALLDATASIZE PUSH1 0x4 PUSH2 0x324B JUMP JUMPDEST PUSH2 0x1424 JUMP JUMPDEST CALLVALUE DUP1 ISZERO PUSH2 0x41D JUMPI PUSH1 0x0 DUP1 REVERT JUMPDEST POP PUSH2 0x1B8 PUSH2 0x42C CALLDATASIZE PUSH1 0x4 PUSH2 0x324B JUMP JUMPDEST PUSH2 0x1440 JUMP JUMPDEST CALLVALUE DUP1 ISZERO PUSH2 0x43D JUMPI PUSH1 0x0 DUP1 REVERT JUMPDEST POP PUSH2 0x1B8 PUSH32 0x0 DUP2 JUMP JUMPDEST CALLVALUE DUP1 ISZERO PUSH2 0x471 JUMPI PUSH1 0x0 DUP1 REVERT JUMPDEST POP PUSH1 0x0 SLOAD PUSH1 0x1 PUSH1 0x1 PUSH1 0xA0 SHL SUB AND PUSH2 0x1B8 JUMP JUMPDEST CALLVALUE DUP1 ISZERO PUSH2 0x48F JUMPI PUSH1 0x0 DUP1 REVERT JUMPDEST POP PUSH2 0x1B8 PUSH32 0x0 DUP2 JUMP JUMPDEST CALLVALUE DUP1 ISZERO PUSH2 0x4C3 JUMPI PUSH1 0x0 DUP1 REVERT JUMPDEST POP PUSH2 0x162 PUSH2 0x4D2 CALLDATASIZE PUSH1 0x4 PUSH2 0x33D3 JUMP JUMPDEST PUSH2 0x145C JUMP JUMPDEST CALLVALUE DUP1 ISZERO PUSH2 0x4E3 JUMPI PUSH1 0x0 DUP1 REVERT JUMPDEST POP PUSH2 0x1B8 PUSH32 0x0 DUP2 JUMP JUMPDEST CALLVALUE DUP1 ISZERO PUSH2 0x517 JUMPI PUSH1 0x0 DUP1 REVERT JUMPDEST POP PUSH1 0x2 SLOAD PUSH2 0x1B8 SWAP1 PUSH1 0x1 PUSH1 0x1 PUSH1 0xA0 SHL SUB AND DUP2 JUMP JUMPDEST CALLVALUE DUP1 ISZERO PUSH2 0x537 JUMPI PUSH1 0x0 DUP1 REVERT JUMPDEST POP PUSH1 0x3 SLOAD PUSH2 0x1B8 SWAP1 PUSH1 0x1 PUSH1 0x1 PUSH1 0xA0 SHL SUB AND DUP2 JUMP JUMPDEST CALLVALUE DUP1 ISZERO PUSH2 0x557 JUMPI PUSH1 0x0 DUP1 REVERT JUMPDEST POP PUSH2 0x56B PUSH2 0x566 CALLDATASIZE PUSH1 0x4 PUSH2 0x3232 JUMP JUMPDEST PUSH2 0x14D3 JUMP JUMPDEST PUSH1 0x40 MLOAD PUSH2 0x1CC SWAP4 SWAP3 SWAP2 SWAP1 PUSH2 0x34BB JUMP JUMPDEST CALLVALUE DUP1 ISZERO PUSH2 0x586 JUMPI PUSH1 0x0 DUP1 REVERT JUMPDEST POP PUSH2 0x162 PUSH2 0x595 CALLDATASIZE PUSH1 0x4 PUSH2 0x31C7 JUMP JUMPDEST PUSH2 0x1629 JUMP JUMPDEST PUSH1 0x0 SLOAD PUSH1 0x1 PUSH1 0x1 PUSH1 0xA0 SHL SUB AND CALLER EQ PUSH2 0x5CD JUMPI PUSH1 0x40 MLOAD PUSH3 0x461BCD PUSH1 0xE5 SHL DUP2 MSTORE PUSH1 0x4 ADD PUSH2 0x5C4 SWAP1 PUSH2 0x34F4 JUMP JUMPDEST PUSH1 0x40 MLOAD DUP1 SWAP2 SUB SWAP1 REVERT JUMPDEST PUSH1 0x2 SLOAD PUSH1 0x1 PUSH1 0x1 PUSH1 0xA0 SHL SUB DUP3 DUP2 AND SWAP2 AND EQ ISZERO PUSH2 0x5E8 JUMPI PUSH1 0x0 DUP1 REVERT JUMPDEST PUSH1 0x2 SLOAD PUSH1 0x40 DUP1 MLOAD PUSH1 0x1 PUSH1 0x1 PUSH1 0xA0 SHL SUB DUP1 DUP6 AND DUP3 MSTORE SWAP1 SWAP3 AND PUSH1 0x20 DUP4 ADD MSTORE PUSH32 0x6FC5FB41E46F8DC565E7E96B8EAD0AA89F37C4D146EED18154059D074D991289 SWAP2 ADD PUSH1 0x40 MLOAD DUP1 SWAP2 SUB SWAP1 LOG1 PUSH1 0x2 DUP1 SLOAD PUSH1 0x1 PUSH1 0x1 PUSH1 0xA0 SHL SUB NOT AND PUSH1 0x1 PUSH1 0x1 PUSH1 0xA0 SHL SUB SWAP3 SWAP1 SWAP3 AND SWAP2 SWAP1 SWAP2 OR SWAP1 SSTORE JUMP JUMPDEST PUSH1 0x0 SLOAD PUSH1 0x1 PUSH1 0x1 PUSH1 0xA0 SHL SUB AND CALLER EQ PUSH2 0x67B JUMPI PUSH1 0x40 MLOAD PUSH3 0x461BCD PUSH1 0xE5 SHL DUP2 MSTORE PUSH1 0x4 ADD PUSH2 0x5C4 SWAP1 PUSH2 0x34F4 JUMP JUMPDEST PUSH1 0x1 SLOAD PUSH1 0x1 PUSH1 0x1 PUSH1 0xA0 SHL SUB DUP3 DUP2 AND SWAP2 AND EQ ISZERO PUSH2 0x696 JUMPI PUSH1 0x0 DUP1 REVERT JUMPDEST PUSH1 0x1 SLOAD PUSH1 0x40 DUP1 MLOAD PUSH1 0x1 PUSH1 0x1 PUSH1 0xA0 SHL SUB DUP1 DUP6 AND DUP3 MSTORE SWAP1 SWAP3 AND PUSH1 0x20 DUP4 ADD MSTORE PUSH32 0x747F0121A55C3CBFD440CA2324FF63F5C282CEB804ADA2DC7B81EFDFBA9788C5 SWAP2 ADD PUSH1 0x40 MLOAD DUP1 SWAP2 SUB SWAP1 LOG1 PUSH1 0x1 DUP1 SLOAD PUSH1 0x1 PUSH1 0x1 PUSH1 0xA0 SHL SUB NOT AND PUSH1 0x1 PUSH1 0x1 PUSH1 0xA0 SHL SUB SWAP3 SWAP1 SWAP3 AND SWAP2 SWAP1 SWAP2 OR SWAP1 SSTORE JUMP JUMPDEST PUSH1 0x0 SLOAD PUSH1 0x1 PUSH1 0x1 PUSH1 0xA0 SHL SUB AND CALLER EQ PUSH2 0x729 JUMPI PUSH1 0x40 MLOAD PUSH3 0x461BCD PUSH1 0xE5 SHL DUP2 MSTORE PUSH1 0x4 ADD PUSH2 0x5C4 SWAP1 PUSH2 0x34F4 JUMP JUMPDEST DUP1 ISZERO PUSH2 0x7B9 JUMPI PUSH1 0x4 SLOAD PUSH1 0x1 PUSH1 0x1 PUSH1 0xA0 SHL SUB DUP4 DUP2 AND SWAP2 AND EQ ISZERO PUSH2 0x74A JUMPI PUSH1 0x0 DUP1 REVERT JUMPDEST PUSH1 0x4 SLOAD PUSH1 0x40 DUP1 MLOAD PUSH1 0x1 PUSH1 0x1 PUSH1 0xA0 SHL SUB DUP6 DUP2 AND DUP3 MSTORE SWAP1 SWAP3 AND PUSH1 0x20 DUP4 ADD MSTORE DUP3 ISZERO ISZERO DUP3 DUP3 ADD MSTORE MLOAD PUSH32 0x808D80ABD625335B4CE2000A6FBC0D6FD4D4DD96A818D6354590CF7B0DD80F68 SWAP2 DUP2 SWAP1 SUB PUSH1 0x60 ADD SWAP1 LOG1 PUSH1 0x4 DUP1 SLOAD PUSH1 0x1 PUSH1 0x1 PUSH1 0xA0 SHL SUB DUP5 AND PUSH1 0x1 PUSH1 0x1 PUSH1 0xA0 SHL SUB NOT SWAP1 SWAP2 AND OR SWAP1 SSTORE POP POP JUMP JUMPDEST PUSH1 0x3 SLOAD PUSH1 0x1 PUSH1 0x1 PUSH1 0xA0 SHL SUB DUP4 DUP2 AND SWAP2 AND EQ ISZERO PUSH2 0x7D4 JUMPI PUSH1 0x0 DUP1 REVERT JUMPDEST PUSH1 0x3 SLOAD PUSH1 0x40 DUP1 MLOAD PUSH1 0x1 PUSH1 0x1 PUSH1 0xA0 SHL SUB DUP6 DUP2 AND DUP3 MSTORE SWAP1 SWAP3 AND PUSH1 0x20 DUP4 ADD MSTORE DUP3 ISZERO ISZERO DUP3 DUP3 ADD MSTORE MLOAD PUSH32 0x808D80ABD625335B4CE2000A6FBC0D6FD4D4DD96A818D6354590CF7B0DD80F68 SWAP2 DUP2 SWAP1 SUB PUSH1 0x60 ADD SWAP1 LOG1 PUSH1 0x3 DUP1 SLOAD PUSH1 0x1 PUSH1 0x1 PUSH1 0xA0 SHL SUB DUP5 AND PUSH1 0x1 PUSH1 0x1 PUSH1 0xA0 SHL SUB NOT SWAP1 SWAP2 AND OR SWAP1 SSTORE POP POP JUMP JUMPDEST PUSH1 0x0 DUP3 DUP2 MSTORE PUSH1 0x5 PUSH1 0x20 MSTORE PUSH1 0x40 SWAP1 KECCAK256 PUSH1 0x8 DUP2 ADD SLOAD PUSH1 0xFF AND ISZERO ISZERO PUSH1 0x1 EQ PUSH2 0x867 JUMPI POP POP POP JUMP JUMPDEST PUSH1 0x0 DUP4 DUP2 MSTORE PUSH1 0x7 PUSH1 0x20 MSTORE PUSH1 0x40 SWAP1 KECCAK256 SLOAD ISZERO PUSH2 0x88B JUMPI PUSH2 0x885 DUP4 DUP4 PUSH2 0x16C4 JUMP JUMPDEST POP PUSH2 0x896 JUMP JUMPDEST PUSH2 0x896 DUP4 DUP3 DUP5 PUSH2 0x206F JUMP JUMPDEST SELFBALANCE PUSH1 0x0 DUP1 DUP1 DUP1 PUSH2 0x8A7 DUP9 DUP7 DUP4 PUSH2 0x22BC JUMP JUMPDEST SWAP2 SWAP5 POP SWAP3 POP SWAP1 POP DUP3 ISZERO PUSH2 0xE18 JUMPI PUSH2 0x8BF DUP4 PUSH1 0x0 PUSH2 0x23F8 JUMP JUMPDEST POP PUSH1 0x40 MLOAD PUSH4 0x70A08231 PUSH1 0xE0 SHL DUP2 MSTORE ADDRESS PUSH1 0x4 DUP3 ADD MSTORE PUSH32 0x0 PUSH1 0x1 PUSH1 0x1 PUSH1 0xA0 SHL SUB AND SWAP1 PUSH4 0x70A08231 SWAP1 PUSH1 0x24 ADD PUSH1 0x20 PUSH1 0x40 MLOAD DUP1 DUP4 SUB DUP2 DUP7 GAS STATICCALL ISZERO DUP1 ISZERO PUSH2 0x924 JUMPI RETURNDATASIZE PUSH1 0x0 DUP1 RETURNDATACOPY RETURNDATASIZE PUSH1 0x0 REVERT JUMPDEST POP POP POP POP PUSH1 0x40 MLOAD RETURNDATASIZE PUSH1 0x1F NOT PUSH1 0x1F DUP3 ADD AND DUP3 ADD DUP1 PUSH1 0x40 MSTORE POP DUP2 ADD SWAP1 PUSH2 0x948 SWAP2 SWAP1 PUSH2 0x3529 JUMP JUMPDEST SWAP4 POP PUSH1 0x0 PUSH2 0x956 DUP4 DUP4 PUSH2 0x3558 JUMP JUMPDEST GT ISZERO PUSH2 0xA29 JUMPI DUP1 PUSH2 0x967 DUP4 DUP6 PUSH2 0x3558 JUMP JUMPDEST PUSH2 0x971 SWAP2 SWAP1 PUSH2 0x3558 JUMP JUMPDEST PUSH2 0x97B DUP3 DUP5 PUSH2 0x3558 JUMP JUMPDEST PUSH2 0x985 SWAP1 DUP7 PUSH2 0x3570 JUMP JUMPDEST PUSH2 0x98F SWAP2 SWAP1 PUSH2 0x358F JUMP JUMPDEST SWAP4 POP PUSH2 0x99E DUP5 DUP4 DUP4 PUSH1 0x0 PUSH2 0x2647 JUMP JUMPDEST PUSH1 0x40 MLOAD PUSH4 0x70A08231 PUSH1 0xE0 SHL DUP2 MSTORE ADDRESS PUSH1 0x4 DUP3 ADD MSTORE PUSH32 0x0 PUSH1 0x1 PUSH1 0x1 PUSH1 0xA0 SHL SUB AND SWAP1 PUSH4 0x70A08231 SWAP1 PUSH1 0x24 ADD PUSH1 0x20 PUSH1 0x40 MLOAD DUP1 DUP4 SUB DUP2 DUP7 GAS STATICCALL ISZERO DUP1 ISZERO PUSH2 0xA02 JUMPI RETURNDATASIZE PUSH1 0x0 DUP1 RETURNDATACOPY RETURNDATASIZE PUSH1 0x0 REVERT JUMPDEST POP POP POP POP PUSH1 0x40 MLOAD RETURNDATASIZE PUSH1 0x1F NOT PUSH1 0x1F DUP3 ADD AND DUP3 ADD DUP1 PUSH1 0x40 MSTORE POP DUP2 ADD SWAP1 PUSH2 0xA26 SWAP2 SWAP1 PUSH2 0x3529 JUMP JUMPDEST SWAP4 POP JUMPDEST DUP4 ISZERO PUSH2 0xE18 JUMPI PUSH1 0x5 DUP7 ADD SLOAD PUSH1 0x4 DUP8 ADD SLOAD PUSH1 0x3 DUP9 ADD SLOAD PUSH2 0xA48 SWAP2 SWAP1 PUSH2 0x3558 JUMP JUMPDEST PUSH2 0xA52 SWAP2 SWAP1 PUSH2 0x3558 JUMP JUMPDEST SWAP3 POP DUP3 PUSH1 0x3 DUP8 ADD PUSH1 0x2 ADD SLOAD PUSH2 0xA67 SWAP1 DUP7 PUSH2 0x3570 JUMP JUMPDEST PUSH2 0xA71 SWAP2 SWAP1 PUSH2 0x358F JUMP JUMPDEST PUSH1 0x2 SLOAD SWAP1 SWAP3 POP PUSH1 0x1 PUSH1 0x1 PUSH1 0xA0 SHL SUB AND ISZERO DUP1 ISZERO SWAP1 PUSH2 0xA8E JUMPI POP PUSH1 0x0 DUP3 GT JUMPDEST ISZERO PUSH2 0xB8B JUMPI PUSH1 0x2 SLOAD PUSH1 0x40 MLOAD PUSH4 0x95EA7B3 PUSH1 0xE0 SHL DUP2 MSTORE PUSH1 0x1 PUSH1 0x1 PUSH1 0xA0 SHL SUB PUSH32 0x0 DUP2 AND SWAP3 PUSH4 0x95EA7B3 SWAP3 PUSH2 0xAE8 SWAP3 SWAP2 SWAP1 SWAP2 AND SWAP1 DUP7 SWAP1 PUSH1 0x4 ADD PUSH2 0x35C7 JUMP JUMPDEST PUSH1 0x20 PUSH1 0x40 MLOAD DUP1 DUP4 SUB DUP2 PUSH1 0x0 DUP8 GAS CALL ISZERO DUP1 ISZERO PUSH2 0xB07 JUMPI RETURNDATASIZE PUSH1 0x0 DUP1 RETURNDATACOPY RETURNDATASIZE PUSH1 0x0 REVERT JUMPDEST POP POP POP POP PUSH1 0x40 MLOAD RETURNDATASIZE PUSH1 0x1F NOT PUSH1 0x1F DUP3 ADD AND DUP3 ADD DUP1 PUSH1 0x40 MSTORE POP DUP2 ADD SWAP1 PUSH2 0xB2B SWAP2 SWAP1 PUSH2 0x35E0 JUMP JUMPDEST POP PUSH1 0x2 SLOAD PUSH1 0x40 MLOAD PUSH4 0x1C5FC483 PUSH1 0xE0 SHL DUP2 MSTORE PUSH1 0x4 DUP2 ADD DUP5 SWAP1 MSTORE PUSH1 0x1 PUSH1 0x1 PUSH1 0xA0 SHL SUB SWAP1 SWAP2 AND SWAP1 PUSH4 0x1C5FC483 SWAP1 PUSH1 0x24 ADD PUSH1 0x0 PUSH1 0x40 MLOAD DUP1 DUP4 SUB DUP2 PUSH1 0x0 DUP8 DUP1 EXTCODESIZE ISZERO DUP1 ISZERO PUSH2 0xB72 JUMPI PUSH1 0x0 DUP1 REVERT JUMPDEST POP GAS CALL ISZERO DUP1 ISZERO PUSH2 0xB86 JUMPI RETURNDATASIZE PUSH1 0x0 DUP1 RETURNDATACOPY RETURNDATASIZE PUSH1 0x0 REVERT JUMPDEST POP POP POP POP JUMPDEST PUSH1 0x4 DUP7 ADD SLOAD DUP4 SWAP1 PUSH2 0xB9C SWAP1 DUP7 PUSH2 0x3570 JUMP JUMPDEST PUSH2 0xBA6 SWAP2 SWAP1 PUSH2 0x358F JUMP JUMPDEST SWAP1 POP PUSH32 0x0 PUSH1 0x1 PUSH1 0x1 PUSH1 0xA0 SHL SUB AND ISZERO DUP1 ISZERO SWAP1 PUSH2 0xBE0 JUMPI POP PUSH1 0x0 DUP2 GT JUMPDEST ISZERO PUSH2 0xD12 JUMPI PUSH1 0x40 MLOAD PUSH4 0x95EA7B3 PUSH1 0xE0 SHL DUP2 MSTORE PUSH1 0x1 PUSH1 0x1 PUSH1 0xA0 SHL SUB PUSH32 0x0 AND SWAP1 PUSH4 0x95EA7B3 SWAP1 PUSH2 0xC53 SWAP1 PUSH32 0x0 SWAP1 DUP6 SWAP1 PUSH1 0x4 ADD PUSH2 0x35C7 JUMP JUMPDEST PUSH1 0x20 PUSH1 0x40 MLOAD DUP1 DUP4 SUB DUP2 PUSH1 0x0 DUP8 GAS CALL ISZERO DUP1 ISZERO PUSH2 0xC72 JUMPI RETURNDATASIZE PUSH1 0x0 DUP1 RETURNDATACOPY RETURNDATASIZE PUSH1 0x0 REVERT JUMPDEST POP POP POP POP PUSH1 0x40 MLOAD RETURNDATASIZE PUSH1 0x1F NOT PUSH1 0x1F DUP3 ADD AND DUP3 ADD DUP1 PUSH1 0x40 MSTORE POP DUP2 ADD SWAP1 PUSH2 0xC96 SWAP2 SWAP1 PUSH2 0x35E0 JUMP JUMPDEST POP PUSH1 0x40 MLOAD PUSH4 0x6172858B PUSH1 0xE1 SHL DUP2 MSTORE PUSH1 0x4 DUP2 ADD DUP3 SWAP1 MSTORE PUSH32 0x0 PUSH1 0x1 PUSH1 0x1 PUSH1 0xA0 SHL SUB AND SWAP1 PUSH4 0xC2E50B16 SWAP1 PUSH1 0x24 ADD PUSH1 0x0 PUSH1 0x40 MLOAD DUP1 DUP4 SUB DUP2 PUSH1 0x0 DUP8 DUP1 EXTCODESIZE ISZERO DUP1 ISZERO PUSH2 0xCF9 JUMPI PUSH1 0x0 DUP1 REVERT JUMPDEST POP GAS CALL ISZERO DUP1 ISZERO PUSH2 0xD0D JUMPI RETURNDATASIZE PUSH1 0x0 DUP1 RETURNDATACOPY RETURNDATASIZE PUSH1 0x0 REVERT JUMPDEST POP POP POP POP JUMPDEST PUSH1 0x40 MLOAD PUSH4 0x70A08231 PUSH1 0xE0 SHL DUP2 MSTORE ADDRESS PUSH1 0x4 DUP3 ADD MSTORE PUSH32 0x0 PUSH1 0x1 PUSH1 0x1 PUSH1 0xA0 SHL SUB AND SWAP1 PUSH4 0x70A08231 SWAP1 PUSH1 0x24 ADD PUSH1 0x20 PUSH1 0x40 MLOAD DUP1 DUP4 SUB DUP2 DUP7 GAS STATICCALL ISZERO DUP1 ISZERO PUSH2 0xD76 JUMPI RETURNDATASIZE PUSH1 0x0 DUP1 RETURNDATACOPY RETURNDATASIZE PUSH1 0x0 REVERT JUMPDEST POP POP POP POP PUSH1 0x40 MLOAD RETURNDATASIZE PUSH1 0x1F NOT PUSH1 0x1F DUP3 ADD AND DUP3 ADD DUP1 PUSH1 0x40 MSTORE POP DUP2 ADD SWAP1 PUSH2 0xD9A SWAP2 SWAP1 PUSH2 0x3529 JUMP JUMPDEST PUSH1 0x40 MLOAD PUSH4 0x852CD8D PUSH1 0xE3 SHL DUP2 MSTORE PUSH1 0x4 DUP2 ADD DUP3 SWAP1 MSTORE SWAP1 SWAP5 POP PUSH32 0x0 PUSH1 0x1 PUSH1 0x1 PUSH1 0xA0 SHL SUB AND SWAP1 PUSH4 0x42966C68 SWAP1 PUSH1 0x24 ADD PUSH1 0x0 PUSH1 0x40 MLOAD DUP1 DUP4 SUB DUP2 PUSH1 0x0 DUP8 DUP1 EXTCODESIZE ISZERO DUP1 ISZERO PUSH2 0xDFF JUMPI PUSH1 0x0 DUP1 REVERT JUMPDEST POP GAS CALL ISZERO DUP1 ISZERO PUSH2 0xE13 JUMPI RETURNDATASIZE PUSH1 0x0 DUP1 RETURNDATACOPY RETURNDATASIZE PUSH1 0x0 REVERT JUMPDEST POP POP POP POP JUMPDEST PUSH2 0xE24 DUP9 DUP7 PUSH1 0x1 PUSH2 0x22BC JUMP JUMPDEST SWAP2 SWAP5 POP SWAP3 POP SWAP1 POP DUP3 ISZERO PUSH2 0xE3E JUMPI PUSH2 0xE3C DUP4 PUSH1 0x1 PUSH2 0x23F8 JUMP JUMPDEST POP JUMPDEST PUSH1 0x0 PUSH2 0xE4A DUP4 DUP4 PUSH2 0x3558 JUMP JUMPDEST GT ISZERO PUSH2 0xF1C JUMPI PUSH1 0x40 MLOAD PUSH4 0x70A08231 PUSH1 0xE0 SHL DUP2 MSTORE ADDRESS PUSH1 0x4 DUP3 ADD MSTORE PUSH32 0x0 PUSH1 0x1 PUSH1 0x1 PUSH1 0xA0 SHL SUB AND SWAP1 PUSH4 0x70A08231 SWAP1 PUSH1 0x24 ADD PUSH1 0x20 PUSH1 0x40 MLOAD DUP1 DUP4 SUB DUP2 DUP7 GAS STATICCALL ISZERO DUP1 ISZERO PUSH2 0xEB4 JUMPI RETURNDATASIZE PUSH1 0x0 DUP1 RETURNDATACOPY RETURNDATASIZE PUSH1 0x0 REVERT JUMPDEST POP POP POP POP PUSH1 0x40 MLOAD RETURNDATASIZE PUSH1 0x1F NOT PUSH1 0x1F DUP3 ADD AND DUP3 ADD DUP1 PUSH1 0x40 MSTORE POP DUP2 ADD SWAP1 PUSH2 0xED8 SWAP2 SWAP1 PUSH2 0x3529 JUMP JUMPDEST SWAP4 POP DUP1 PUSH2 0xEE5 DUP4 DUP6 PUSH2 0x3558 JUMP JUMPDEST PUSH2 0xEEF SWAP2 SWAP1 PUSH2 0x3558 JUMP JUMPDEST PUSH2 0xEF9 DUP3 DUP5 PUSH2 0x3558 JUMP JUMPDEST PUSH2 0xF03 SWAP1 DUP7 PUSH2 0x3570 JUMP JUMPDEST PUSH2 0xF0D SWAP2 SWAP1 PUSH2 0x358F JUMP JUMPDEST SWAP4 POP PUSH2 0xF1C DUP5 DUP4 DUP4 PUSH1 0x1 PUSH2 0x2647 JUMP JUMPDEST PUSH1 0x40 MLOAD PUSH4 0x70A08231 PUSH1 0xE0 SHL DUP2 MSTORE ADDRESS PUSH1 0x4 DUP3 ADD MSTORE PUSH32 0x0 PUSH1 0x1 PUSH1 0x1 PUSH1 0xA0 SHL SUB AND SWAP1 PUSH4 0x70A08231 SWAP1 PUSH1 0x24 ADD PUSH1 0x20 PUSH1 0x40 MLOAD DUP1 DUP4 SUB DUP2 DUP7 GAS STATICCALL ISZERO DUP1 ISZERO PUSH2 0xF80 JUMPI RETURNDATASIZE PUSH1 0x0 DUP1 RETURNDATACOPY RETURNDATASIZE PUSH1 0x0 REVERT JUMPDEST POP POP POP POP PUSH1 0x40 MLOAD RETURNDATASIZE PUSH1 0x1F NOT PUSH1 0x1F DUP3 ADD AND DUP3 ADD DUP1 PUSH1 0x40 MSTORE POP DUP2 ADD SWAP1 PUSH2 0xFA4 SWAP2 SWAP1 PUSH2 0x3529 JUMP JUMPDEST SWAP3 POP DUP3 ISZERO PUSH2 0x1027 JUMPI PUSH1 0x40 MLOAD PUSH4 0x852CD8D PUSH1 0xE3 SHL DUP2 MSTORE PUSH1 0x4 DUP2 ADD DUP5 SWAP1 MSTORE PUSH32 0x0 PUSH1 0x1 PUSH1 0x1 PUSH1 0xA0 SHL SUB AND SWAP1 PUSH4 0x42966C68 SWAP1 PUSH1 0x24 ADD PUSH1 0x0 PUSH1 0x40 MLOAD DUP1 DUP4 SUB DUP2 PUSH1 0x0 DUP8 DUP1 EXTCODESIZE ISZERO DUP1 ISZERO PUSH2 0x100E JUMPI PUSH1 0x0 DUP1 REVERT JUMPDEST POP GAS CALL ISZERO DUP1 ISZERO PUSH2 0x1022 JUMPI RETURNDATASIZE PUSH1 0x0 DUP1 RETURNDATACOPY RETURNDATASIZE PUSH1 0x0 REVERT JUMPDEST POP POP POP POP JUMPDEST SELFBALANCE SWAP5 POP DUP5 ISZERO PUSH2 0x10D1 JUMPI PUSH1 0x1 SLOAD PUSH1 0x40 MLOAD PUSH1 0x0 SWAP2 PUSH1 0x1 PUSH1 0x1 PUSH1 0xA0 SHL SUB AND SWAP1 DUP8 SWAP1 DUP4 DUP2 DUP2 DUP2 DUP6 DUP8 GAS CALL SWAP3 POP POP POP RETURNDATASIZE DUP1 PUSH1 0x0 DUP2 EQ PUSH2 0x107D JUMPI PUSH1 0x40 MLOAD SWAP2 POP PUSH1 0x1F NOT PUSH1 0x3F RETURNDATASIZE ADD AND DUP3 ADD PUSH1 0x40 MSTORE RETURNDATASIZE DUP3 MSTORE RETURNDATASIZE PUSH1 0x0 PUSH1 0x20 DUP5 ADD RETURNDATACOPY PUSH2 0x1082 JUMP JUMPDEST PUSH1 0x60 SWAP2 POP JUMPDEST POP POP SWAP1 POP DUP1 ISZERO PUSH2 0x10CF JUMPI PUSH1 0x1 SLOAD PUSH1 0x40 MLOAD DUP8 DUP2 MSTORE PUSH1 0x1 PUSH1 0x1 PUSH1 0xA0 SHL SUB SWAP1 SWAP2 AND SWAP1 PUSH32 0xEC93429584AFAFEB16BFF447085953E4DD85DA0D3039088DF3139EECA486FF9D SWAP1 PUSH1 0x20 ADD PUSH1 0x40 MLOAD DUP1 SWAP2 SUB SWAP1 LOG2 JUMPDEST POP JUMPDEST POP POP POP POP POP POP POP POP JUMP JUMPDEST PUSH1 0x7 PUSH1 0x20 MSTORE DUP2 PUSH1 0x0 MSTORE PUSH1 0x40 PUSH1 0x0 KECCAK256 DUP2 DUP2 SLOAD DUP2 LT PUSH2 0x10F7 JUMPI PUSH1 0x0 DUP1 REVERT JUMPDEST PUSH1 0x0 SWAP2 DUP3 MSTORE PUSH1 0x20 SWAP1 SWAP2 KECCAK256 ADD SLOAD PUSH1 0x1 PUSH1 0x1 PUSH1 0xA0 SHL SUB AND SWAP2 POP DUP3 SWAP1 POP JUMP JUMPDEST PUSH1 0x0 SLOAD PUSH1 0x1 PUSH1 0x1 PUSH1 0xA0 SHL SUB AND CALLER EQ PUSH2 0x113D JUMPI PUSH1 0x40 MLOAD PUSH3 0x461BCD PUSH1 0xE5 SHL DUP2 MSTORE PUSH1 0x4 ADD PUSH2 0x5C4 SWAP1 PUSH2 0x34F4 JUMP JUMPDEST PUSH2 0x2710 PUSH2 0x114A DUP12 DUP12 PUSH2 0x2B6D JUMP JUMPDEST GT ISZERO PUSH2 0x1198 JUMPI PUSH1 0x40 MLOAD PUSH3 0x461BCD PUSH1 0xE5 SHL DUP2 MSTORE PUSH1 0x20 PUSH1 0x4 DUP3 ADD MSTORE PUSH1 0x1A PUSH1 0x24 DUP3 ADD MSTORE PUSH32 0x496E636F72726563742046656520646973747269627574696F6E000000000000 PUSH1 0x44 DUP3 ADD MSTORE PUSH1 0x64 ADD PUSH2 0x5C4 JUMP JUMPDEST PUSH1 0x1 PUSH1 0x1 PUSH1 0xA0 SHL SUB DUP8 AND PUSH2 0x11E1 JUMPI PUSH1 0x40 MLOAD PUSH3 0x461BCD PUSH1 0xE5 SHL DUP2 MSTORE PUSH1 0x20 PUSH1 0x4 DUP3 ADD MSTORE PUSH1 0x10 PUSH1 0x24 DUP3 ADD MSTORE PUSH16 0x24B731B7B93932B1BA102937BABA32B9 PUSH1 0x81 SHL PUSH1 0x44 DUP3 ADD MSTORE PUSH1 0x64 ADD PUSH2 0x5C4 JUMP JUMPDEST DUP5 PUSH2 0x1224 JUMPI PUSH1 0x40 MLOAD PUSH3 0x461BCD PUSH1 0xE5 SHL DUP2 MSTORE PUSH1 0x20 PUSH1 0x4 DUP3 ADD MSTORE PUSH1 0x13 PUSH1 0x24 DUP3 ADD MSTORE PUSH19 0x6E6565642061207061746820746F2062617365 PUSH1 0x68 SHL PUSH1 0x44 DUP3 ADD MSTORE PUSH1 0x64 ADD PUSH2 0x5C4 JUMP JUMPDEST PUSH1 0x40 DUP1 MLOAD PUSH2 0x140 DUP2 ADD SWAP1 SWAP2 MSTORE DUP1 PUSH1 0xE0 DUP2 ADD DUP13 PUSH1 0x3 DUP3 DUP3 PUSH1 0x60 DUP1 DUP3 DUP5 CALLDATACOPY PUSH1 0x0 SWAP3 ADD SWAP2 SWAP1 SWAP2 MSTORE POP POP POP DUP2 MSTORE PUSH1 0x40 DUP1 MLOAD PUSH1 0xA0 DUP2 DUP2 ADD SWAP1 SWAP3 MSTORE PUSH1 0x20 SWAP1 SWAP3 ADD SWAP2 SWAP1 DUP13 SWAP1 PUSH1 0x5 SWAP1 DUP4 SWAP1 DUP4 SWAP1 DUP1 DUP3 DUP5 CALLDATACOPY PUSH1 0x0 SWAP3 ADD SWAP2 SWAP1 SWAP2 MSTORE POP POP POP DUP2 MSTORE PUSH1 0x1 PUSH1 0x20 DUP1 DUP4 ADD SWAP2 SWAP1 SWAP2 MSTORE PUSH1 0x40 SWAP1 SWAP2 ADD SWAP1 PUSH2 0x1297 SWAP1 DUP12 ADD DUP12 PUSH2 0x35FD JUMP JUMPDEST ISZERO ISZERO DUP2 MSTORE PUSH1 0x20 SWAP1 DUP2 ADD SWAP1 PUSH2 0x12B1 SWAP1 PUSH1 0x40 DUP13 ADD SWAP1 DUP13 ADD PUSH2 0x35FD JUMP JUMPDEST ISZERO ISZERO DUP2 MSTORE PUSH1 0x20 ADD PUSH2 0x12C8 PUSH1 0x60 DUP12 ADD PUSH1 0x40 DUP13 ADD PUSH2 0x35FD JUMP JUMPDEST ISZERO ISZERO DUP2 MSTORE PUSH1 0x1 PUSH1 0x1 PUSH1 0xA0 SHL SUB DUP10 AND PUSH1 0x20 SWAP2 DUP3 ADD MSTORE PUSH1 0x0 DUP14 DUP2 MSTORE PUSH1 0x5 SWAP1 SWAP2 MSTORE PUSH1 0x40 SWAP1 KECCAK256 DUP2 MLOAD PUSH2 0x12F9 SWAP1 DUP3 SWAP1 PUSH1 0x3 PUSH2 0x30CF JUMP JUMPDEST POP PUSH1 0x20 DUP3 ADD MLOAD PUSH2 0x130F SWAP1 PUSH1 0x3 DUP4 ADD SWAP1 PUSH1 0x5 PUSH2 0x310D JUMP JUMPDEST POP PUSH1 0x40 DUP3 ADD MLOAD PUSH1 0x8 SWAP1 SWAP2 ADD DUP1 SLOAD PUSH1 0x60 DUP5 ADD MLOAD PUSH1 0x80 DUP6 ADD MLOAD PUSH1 0xA0 DUP7 ADD MLOAD PUSH1 0xC0 SWAP1 SWAP7 ADD MLOAD PUSH1 0x1 PUSH1 0x1 PUSH1 0xA0 SHL SUB AND PUSH1 0x1 PUSH1 0x20 SHL MUL PUSH5 0x100000000 PUSH1 0x1 PUSH1 0xC0 SHL SUB NOT SWAP7 ISZERO ISZERO PUSH4 0x1000000 MUL PUSH4 0xFF000000 NOT SWAP3 ISZERO ISZERO PUSH3 0x10000 MUL SWAP3 SWAP1 SWAP3 AND PUSH4 0xFFFF0000 NOT SWAP4 ISZERO ISZERO PUSH2 0x100 MUL PUSH2 0xFF00 NOT SWAP8 ISZERO ISZERO SWAP8 SWAP1 SWAP8 AND PUSH2 0xFFFF NOT SWAP1 SWAP6 AND SWAP5 SWAP1 SWAP5 OR SWAP6 SWAP1 SWAP6 OR SWAP2 SWAP1 SWAP2 AND SWAP2 SWAP1 SWAP2 OR OR SWAP3 SWAP1 SWAP3 AND OR SWAP1 SSTORE PUSH2 0x13AE DUP12 DUP8 DUP8 DUP8 DUP8 DUP8 DUP8 PUSH2 0x145C JUMP JUMPDEST PUSH1 0x40 MLOAD DUP12 DUP2 MSTORE PUSH32 0x2547F7801E95354CBFDCC4EA1E4E41380AB50A9B52E3C7625F1AB05C8676ED75 SWAP1 PUSH1 0x20 ADD PUSH1 0x40 MLOAD DUP1 SWAP2 SUB SWAP1 LOG1 POP POP POP POP POP POP POP POP POP POP POP JUMP JUMPDEST PUSH1 0x0 SLOAD PUSH1 0x1 PUSH1 0x1 PUSH1 0xA0 SHL SUB AND CALLER EQ PUSH2 0x1418 JUMPI PUSH1 0x40 MLOAD PUSH3 0x461BCD PUSH1 0xE5 SHL DUP2 MSTORE PUSH1 0x4 ADD PUSH2 0x5C4 SWAP1 PUSH2 0x34F4 JUMP JUMPDEST PUSH2 0x1422 PUSH1 0x0 PUSH2 0x2BEA JUMP JUMPDEST JUMP JUMPDEST PUSH1 0x6 PUSH1 0x20 MSTORE DUP2 PUSH1 0x0 MSTORE PUSH1 0x40 PUSH1 0x0 KECCAK256 DUP2 DUP2 SLOAD DUP2 LT PUSH2 0x10F7 JUMPI PUSH1 0x0 DUP1 REVERT JUMPDEST PUSH1 0x8 PUSH1 0x20 MSTORE DUP2 PUSH1 0x0 MSTORE PUSH1 0x40 PUSH1 0x0 KECCAK256 DUP2 DUP2 SLOAD DUP2 LT PUSH2 0x10F7 JUMPI PUSH1 0x0 DUP1 REVERT JUMPDEST PUSH1 0x0 SLOAD PUSH1 0x1 PUSH1 0x1 PUSH1 0xA0 SHL SUB AND CALLER EQ PUSH2 0x1486 JUMPI PUSH1 0x40 MLOAD PUSH3 0x461BCD PUSH1 0xE5 SHL DUP2 MSTORE PUSH1 0x4 ADD PUSH2 0x5C4 SWAP1 PUSH2 0x34F4 JUMP JUMPDEST PUSH1 0x0 DUP8 DUP2 MSTORE PUSH1 0x6 PUSH1 0x20 MSTORE PUSH1 0x40 SWAP1 KECCAK256 PUSH2 0x149F SWAP1 DUP8 DUP8 PUSH2 0x313A JUMP JUMPDEST POP PUSH1 0x0 DUP8 DUP2 MSTORE PUSH1 0x7 PUSH1 0x20 MSTORE PUSH1 0x40 SWAP1 KECCAK256 PUSH2 0x14B9 SWAP1 DUP6 DUP6 PUSH2 0x313A JUMP JUMPDEST POP PUSH1 0x0 DUP8 DUP2 MSTORE PUSH1 0x8 PUSH1 0x20 MSTORE PUSH1 0x40 SWAP1 KECCAK256 PUSH2 0x10D1 SWAP1 DUP4 DUP4 PUSH2 0x313A JUMP JUMPDEST PUSH1 0x60 DUP1 PUSH1 0x60 PUSH1 0x6 PUSH1 0x0 DUP6 DUP2 MSTORE PUSH1 0x20 ADD SWAP1 DUP2 MSTORE PUSH1 0x20 ADD PUSH1 0x0 KECCAK256 DUP1 SLOAD DUP1 PUSH1 0x20 MUL PUSH1 0x20 ADD PUSH1 0x40 MLOAD SWAP1 DUP2 ADD PUSH1 0x40 MSTORE DUP1 SWAP3 SWAP2 SWAP1 DUP2 DUP2 MSTORE PUSH1 0x20 ADD DUP3 DUP1 SLOAD DUP1 ISZERO PUSH2 0x153F JUMPI PUSH1 0x20 MUL DUP3 ADD SWAP2 SWAP1 PUSH1 0x0 MSTORE PUSH1 0x20 PUSH1 0x0 KECCAK256 SWAP1 JUMPDEST DUP2 SLOAD PUSH1 0x1 PUSH1 0x1 PUSH1 0xA0 SHL SUB AND DUP2 MSTORE PUSH1 0x1 SWAP1 SWAP2 ADD SWAP1 PUSH1 0x20 ADD DUP1 DUP4 GT PUSH2 0x1521 JUMPI JUMPDEST POP POP POP POP POP SWAP3 POP PUSH1 0x7 PUSH1 0x0 DUP6 DUP2 MSTORE PUSH1 0x20 ADD SWAP1 DUP2 MSTORE PUSH1 0x20 ADD PUSH1 0x0 KECCAK256 DUP1 SLOAD DUP1 PUSH1 0x20 MUL PUSH1 0x20 ADD PUSH1 0x40 MLOAD SWAP1 DUP2 ADD PUSH1 0x40 MSTORE DUP1 SWAP3 SWAP2 SWAP1 DUP2 DUP2 MSTORE PUSH1 0x20 ADD DUP3 DUP1 SLOAD DUP1 ISZERO PUSH2 0x15AD JUMPI PUSH1 0x20 MUL DUP3 ADD SWAP2 SWAP1 PUSH1 0x0 MSTORE PUSH1 0x20 PUSH1 0x0 KECCAK256 SWAP1 JUMPDEST DUP2 SLOAD PUSH1 0x1 PUSH1 0x1 PUSH1 0xA0 SHL SUB AND DUP2 MSTORE PUSH1 0x1 SWAP1 SWAP2 ADD SWAP1 PUSH1 0x20 ADD DUP1 DUP4 GT PUSH2 0x158F JUMPI JUMPDEST POP POP POP POP POP SWAP2 POP PUSH1 0x8 PUSH1 0x0 DUP6 DUP2 MSTORE PUSH1 0x20 ADD SWAP1 DUP2 MSTORE PUSH1 0x20 ADD PUSH1 0x0 KECCAK256 DUP1 SLOAD DUP1 PUSH1 0x20 MUL PUSH1 0x20 ADD PUSH1 0x40 MLOAD SWAP1 DUP2 ADD PUSH1 0x40 MSTORE DUP1 SWAP3 SWAP2 SWAP1 DUP2 DUP2 MSTORE PUSH1 0x20 ADD DUP3 DUP1 SLOAD DUP1 ISZERO PUSH2 0x161B JUMPI PUSH1 0x20 MUL DUP3 ADD SWAP2 SWAP1 PUSH1 0x0 MSTORE PUSH1 0x20 PUSH1 0x0 KECCAK256 SWAP1 JUMPDEST DUP2 SLOAD PUSH1 0x1 PUSH1 0x1 PUSH1 0xA0 SHL SUB AND DUP2 MSTORE PUSH1 0x1 SWAP1 SWAP2 ADD SWAP1 PUSH1 0x20 ADD DUP1 DUP4 GT PUSH2 0x15FD JUMPI JUMPDEST POP POP POP POP POP SWAP1 POP SWAP2 SWAP4 SWAP1 SWAP3 POP JUMP JUMPDEST PUSH1 0x0 SLOAD PUSH1 0x1 PUSH1 0x1 PUSH1 0xA0 SHL SUB AND CALLER EQ PUSH2 0x1653 JUMPI PUSH1 0x40 MLOAD PUSH3 0x461BCD PUSH1 0xE5 SHL DUP2 MSTORE PUSH1 0x4 ADD PUSH2 0x5C4 SWAP1 PUSH2 0x34F4 JUMP JUMPDEST PUSH1 0x1 PUSH1 0x1 PUSH1 0xA0 SHL SUB DUP2 AND PUSH2 0x16B8 JUMPI PUSH1 0x40 MLOAD PUSH3 0x461BCD PUSH1 0xE5 SHL DUP2 MSTORE PUSH1 0x20 PUSH1 0x4 DUP3 ADD MSTORE PUSH1 0x26 PUSH1 0x24 DUP3 ADD MSTORE PUSH32 0x4F776E61626C653A206E6577206F776E657220697320746865207A65726F2061 PUSH1 0x44 DUP3 ADD MSTORE PUSH6 0x646472657373 PUSH1 0xD0 SHL PUSH1 0x64 DUP3 ADD MSTORE PUSH1 0x84 ADD PUSH2 0x5C4 JUMP JUMPDEST PUSH2 0x16C1 DUP2 PUSH2 0x2BEA JUMP JUMPDEST POP JUMP JUMPDEST PUSH1 0x0 DUP3 DUP2 MSTORE PUSH1 0x5 PUSH1 0x20 MSTORE PUSH1 0x40 DUP2 KECCAK256 PUSH2 0x16DC DUP5 DUP3 PUSH2 0x2C3A JUMP JUMPDEST PUSH1 0x4 DUP1 SLOAD PUSH1 0x40 DUP1 MLOAD PUSH4 0x15AB88C9 PUSH1 0xE3 SHL DUP2 MSTORE SWAP1 MLOAD PUSH1 0x1 PUSH1 0x1 PUSH1 0xA0 SHL SUB SWAP1 SWAP3 AND SWAP3 PUSH4 0xAD5C4648 SWAP3 DUP3 DUP3 ADD SWAP3 PUSH1 0x20 SWAP3 SWAP1 DUP3 SWAP1 SUB ADD DUP2 DUP7 GAS STATICCALL ISZERO DUP1 ISZERO PUSH2 0x1723 JUMPI RETURNDATASIZE PUSH1 0x0 DUP1 RETURNDATACOPY RETURNDATASIZE PUSH1 0x0 REVERT JUMPDEST POP POP POP POP PUSH1 0x40 MLOAD RETURNDATASIZE PUSH1 0x1F NOT PUSH1 0x1F DUP3 ADD AND DUP3 ADD DUP1 PUSH1 0x40 MSTORE POP DUP2 ADD SWAP1 PUSH2 0x1747 SWAP2 SWAP1 PUSH2 0x361A JUMP JUMPDEST PUSH1 0x1 PUSH1 0x1 PUSH1 0xA0 SHL SUB AND PUSH1 0x6 PUSH1 0x0 DUP7 DUP2 MSTORE PUSH1 0x20 ADD SWAP1 DUP2 MSTORE PUSH1 0x20 ADD PUSH1 0x0 KECCAK256 PUSH1 0x0 DUP2 SLOAD DUP2 LT PUSH2 0x1775 JUMPI PUSH2 0x1775 PUSH2 0x35B1 JUMP JUMPDEST PUSH1 0x0 SWAP2 DUP3 MSTORE PUSH1 0x20 SWAP1 SWAP2 KECCAK256 ADD SLOAD PUSH1 0x1 PUSH1 0x1 PUSH1 0xA0 SHL SUB AND EQ DUP1 PUSH2 0x1841 JUMPI POP PUSH1 0x4 DUP1 SLOAD PUSH1 0x40 DUP1 MLOAD PUSH4 0x15AB88C9 PUSH1 0xE3 SHL DUP2 MSTORE SWAP1 MLOAD PUSH1 0x1 PUSH1 0x1 PUSH1 0xA0 SHL SUB SWAP1 SWAP3 AND SWAP3 PUSH4 0xAD5C4648 SWAP3 DUP3 DUP3 ADD SWAP3 PUSH1 0x20 SWAP3 SWAP1 DUP3 SWAP1 SUB ADD DUP2 DUP7 GAS STATICCALL ISZERO DUP1 ISZERO PUSH2 0x17D8 JUMPI RETURNDATASIZE PUSH1 0x0 DUP1 RETURNDATACOPY RETURNDATASIZE PUSH1 0x0 REVERT JUMPDEST POP POP POP POP PUSH1 0x40 MLOAD RETURNDATASIZE PUSH1 0x1F NOT PUSH1 0x1F DUP3 ADD AND DUP3 ADD DUP1 PUSH1 0x40 MSTORE POP DUP2 ADD SWAP1 PUSH2 0x17FC SWAP2 SWAP1 PUSH2 0x361A JUMP JUMPDEST PUSH1 0x1 PUSH1 0x1 PUSH1 0xA0 SHL SUB AND PUSH1 0x6 PUSH1 0x0 DUP7 DUP2 MSTORE PUSH1 0x20 ADD SWAP1 DUP2 MSTORE PUSH1 0x20 ADD PUSH1 0x0 KECCAK256 PUSH1 0x1 DUP2 SLOAD DUP2 LT PUSH2 0x182A JUMPI PUSH2 0x182A PUSH2 0x35B1 JUMP JUMPDEST PUSH1 0x0 SWAP2 DUP3 MSTORE PUSH1 0x20 SWAP1 SWAP2 KECCAK256 ADD SLOAD PUSH1 0x1 PUSH1 0x1 PUSH1 0xA0 SHL SUB AND EQ JUMPDEST ISZERO PUSH2 0x1B81 JUMPI PUSH1 0x0 PUSH1 0x60 PUSH1 0x0 PUSH2 0x1855 DUP8 PUSH2 0x2EAB JUMP JUMPDEST PUSH1 0x8 DUP8 ADD SLOAD SWAP3 SWAP6 POP SWAP1 SWAP4 POP SWAP2 POP PUSH2 0x100 SWAP1 DIV PUSH1 0xFF AND ISZERO PUSH2 0x18FB JUMPI PUSH1 0x8 DUP5 ADD SLOAD PUSH1 0x40 MLOAD PUSH4 0xAF2979EB PUSH1 0xE0 SHL DUP2 MSTORE PUSH1 0x1 PUSH1 0x20 SHL SWAP1 SWAP2 DIV PUSH1 0x1 PUSH1 0x1 PUSH1 0xA0 SHL SUB AND SWAP1 PUSH4 0xAF2979EB SWAP1 PUSH2 0x18B2 SWAP1 DUP7 SWAP1 DUP11 SWAP1 PUSH1 0x0 SWAP1 DUP2 SWAP1 ADDRESS SWAP1 TIMESTAMP SWAP1 PUSH1 0x4 ADD PUSH2 0x3637 JUMP JUMPDEST PUSH1 0x20 PUSH1 0x40 MLOAD DUP1 DUP4 SUB DUP2 PUSH1 0x0 DUP8 GAS CALL ISZERO DUP1 ISZERO PUSH2 0x18D1 JUMPI RETURNDATASIZE PUSH1 0x0 DUP1 RETURNDATACOPY RETURNDATASIZE PUSH1 0x0 REVERT JUMPDEST POP POP POP POP PUSH1 0x40 MLOAD RETURNDATASIZE PUSH1 0x1F NOT PUSH1 0x1F DUP3 ADD AND DUP3 ADD DUP1 PUSH1 0x40 MSTORE POP DUP2 ADD SWAP1 PUSH2 0x18F5 SWAP2 SWAP1 PUSH2 0x3529 JUMP JUMPDEST POP PUSH2 0x1982 JUMP JUMPDEST PUSH1 0x8 DUP5 ADD SLOAD PUSH1 0x40 MLOAD PUSH3 0x9D473B PUSH1 0xE2 SHL DUP2 MSTORE PUSH1 0x1 PUSH1 0x20 SHL SWAP1 SWAP2 DIV PUSH1 0x1 PUSH1 0x1 PUSH1 0xA0 SHL SUB AND SWAP1 PUSH4 0x2751CEC SWAP1 PUSH2 0x193D SWAP1 DUP7 SWAP1 DUP11 SWAP1 PUSH1 0x0 SWAP1 DUP2 SWAP1 ADDRESS SWAP1 TIMESTAMP SWAP1 PUSH1 0x4 ADD PUSH2 0x3637 JUMP JUMPDEST PUSH1 0x40 DUP1 MLOAD DUP1 DUP4 SUB DUP2 PUSH1 0x0 DUP8 GAS CALL ISZERO DUP1 ISZERO PUSH2 0x195B JUMPI RETURNDATASIZE PUSH1 0x0 DUP1 RETURNDATACOPY RETURNDATASIZE PUSH1 0x0 REVERT JUMPDEST POP POP POP POP PUSH1 0x40 MLOAD RETURNDATASIZE PUSH1 0x1F NOT PUSH1 0x1F DUP3 ADD AND DUP3 ADD DUP1 PUSH1 0x40 MSTORE POP DUP2 ADD SWAP1 PUSH2 0x197F SWAP2 SWAP1 PUSH2 0x3672 JUMP JUMPDEST POP POP JUMPDEST PUSH1 0x40 MLOAD PUSH4 0x70A08231 PUSH1 0xE0 SHL DUP2 MSTORE ADDRESS PUSH1 0x4 DUP3 ADD MSTORE PUSH1 0x0 SWAP1 PUSH1 0x1 PUSH1 0x1 PUSH1 0xA0 SHL SUB DUP6 AND SWAP1 PUSH4 0x70A08231 SWAP1 PUSH1 0x24 ADD PUSH1 0x20 PUSH1 0x40 MLOAD DUP1 DUP4 SUB DUP2 DUP7 GAS STATICCALL ISZERO DUP1 ISZERO PUSH2 0x19C9 JUMPI RETURNDATASIZE PUSH1 0x0 DUP1 RETURNDATACOPY RETURNDATASIZE PUSH1 0x0 REVERT JUMPDEST POP POP POP POP PUSH1 0x40 MLOAD RETURNDATASIZE PUSH1 0x1F NOT PUSH1 0x1F DUP3 ADD AND DUP3 ADD DUP1 PUSH1 0x40 MSTORE POP DUP2 ADD SWAP1 PUSH2 0x19ED SWAP2 SWAP1 PUSH2 0x3529 JUMP JUMPDEST PUSH1 0x8 DUP7 ADD SLOAD PUSH1 0x40 MLOAD PUSH4 0x95EA7B3 PUSH1 0xE0 SHL DUP2 MSTORE SWAP2 SWAP3 POP PUSH1 0x1 PUSH1 0x1 PUSH1 0xA0 SHL SUB DUP1 DUP8 AND SWAP3 PUSH4 0x95EA7B3 SWAP3 PUSH2 0x1A2C SWAP3 PUSH1 0x1 PUSH1 0x20 SHL SWAP1 SWAP2 DIV AND SWAP1 DUP6 SWAP1 PUSH1 0x4 ADD PUSH2 0x35C7 JUMP JUMPDEST PUSH1 0x20 PUSH1 0x40 MLOAD DUP1 DUP4 SUB DUP2 PUSH1 0x0 DUP8 GAS CALL ISZERO DUP1 ISZERO PUSH2 0x1A4B JUMPI RETURNDATASIZE PUSH1 0x0 DUP1 RETURNDATACOPY RETURNDATASIZE PUSH1 0x0 REVERT JUMPDEST POP POP POP POP PUSH1 0x40 MLOAD RETURNDATASIZE PUSH1 0x1F NOT PUSH1 0x1F DUP3 ADD AND DUP3 ADD DUP1 PUSH1 0x40 MSTORE POP DUP2 ADD SWAP1 PUSH2 0x1A6F SWAP2 SWAP1 PUSH2 0x35E0 JUMP JUMPDEST POP DUP2 ISZERO PUSH2 0x1AEE JUMPI PUSH1 0x8 DUP6 ADD SLOAD PUSH1 0x40 MLOAD PUSH4 0x791AC947 PUSH1 0xE0 SHL DUP2 MSTORE PUSH1 0x1 PUSH1 0x20 SHL SWAP1 SWAP2 DIV PUSH1 0x1 PUSH1 0x1 PUSH1 0xA0 SHL SUB AND SWAP1 PUSH4 0x791AC947 SWAP1 PUSH2 0x1AB7 SWAP1 DUP5 SWAP1 PUSH1 0x0 SWAP1 DUP9 SWAP1 ADDRESS SWAP1 TIMESTAMP SWAP1 PUSH1 0x4 ADD PUSH2 0x3696 JUMP JUMPDEST PUSH1 0x0 PUSH1 0x40 MLOAD DUP1 DUP4 SUB DUP2 PUSH1 0x0 DUP8 DUP1 EXTCODESIZE ISZERO DUP1 ISZERO PUSH2 0x1AD1 JUMPI PUSH1 0x0 DUP1 REVERT JUMPDEST POP GAS CALL ISZERO DUP1 ISZERO PUSH2 0x1AE5 JUMPI RETURNDATASIZE PUSH1 0x0 DUP1 RETURNDATACOPY RETURNDATASIZE PUSH1 0x0 REVERT JUMPDEST POP POP POP POP PUSH2 0x1B78 JUMP JUMPDEST PUSH1 0x8 DUP6 ADD SLOAD PUSH1 0x40 MLOAD PUSH4 0x18CBAFE5 PUSH1 0xE0 SHL DUP2 MSTORE PUSH1 0x1 PUSH1 0x20 SHL SWAP1 SWAP2 DIV PUSH1 0x1 PUSH1 0x1 PUSH1 0xA0 SHL SUB AND SWAP1 PUSH4 0x18CBAFE5 SWAP1 PUSH2 0x1B2F SWAP1 DUP5 SWAP1 PUSH1 0x0 SWAP1 DUP9 SWAP1 ADDRESS SWAP1 TIMESTAMP SWAP1 PUSH1 0x4 ADD PUSH2 0x3696 JUMP JUMPDEST PUSH1 0x0 PUSH1 0x40 MLOAD DUP1 DUP4 SUB DUP2 PUSH1 0x0 DUP8 GAS CALL ISZERO DUP1 ISZERO PUSH2 0x1B4E JUMPI RETURNDATASIZE PUSH1 0x0 DUP1 RETURNDATACOPY RETURNDATASIZE PUSH1 0x0 REVERT JUMPDEST POP POP POP POP PUSH1 0x40 MLOAD RETURNDATASIZE PUSH1 0x0 DUP3 RETURNDATACOPY PUSH1 0x1F RETURNDATASIZE SWAP1 DUP2 ADD PUSH1 0x1F NOT AND DUP3 ADD PUSH1 0x40 MSTORE PUSH2 0x1B76 SWAP2 SWAP1 DUP2 ADD SWAP1 PUSH2 0x36E8 JUMP JUMPDEST POP JUMPDEST POP POP POP POP PUSH2 0x2067 JUMP JUMPDEST PUSH1 0x8 DUP2 ADD SLOAD PUSH1 0x0 DUP6 DUP2 MSTORE PUSH1 0x6 PUSH1 0x20 MSTORE PUSH1 0x40 DUP2 KECCAK256 DUP1 SLOAD SWAP2 SWAP3 DUP4 SWAP3 PUSH1 0x1 PUSH1 0x20 SHL SWAP1 SWAP2 DIV PUSH1 0x1 PUSH1 0x1 PUSH1 0xA0 SHL SUB AND SWAP2 PUSH4 0xBAA2ABDE SWAP2 DUP5 SWAP1 PUSH2 0x1BC0 JUMPI PUSH2 0x1BC0 PUSH2 0x35B1 JUMP JUMPDEST PUSH1 0x0 SWAP2 DUP3 MSTORE PUSH1 0x20 DUP1 DUP4 KECCAK256 SWAP1 SWAP2 ADD SLOAD DUP11 DUP4 MSTORE PUSH1 0x6 SWAP1 SWAP2 MSTORE PUSH1 0x40 SWAP1 SWAP2 KECCAK256 DUP1 SLOAD PUSH1 0x1 PUSH1 0x1 PUSH1 0xA0 SHL SUB SWAP1 SWAP3 AND SWAP2 PUSH1 0x1 SWAP1 DUP2 LT PUSH2 0x1BFA JUMPI PUSH2 0x1BFA PUSH2 0x35B1 JUMP JUMPDEST PUSH1 0x0 SWAP2 DUP3 MSTORE PUSH1 0x20 DUP3 KECCAK256 ADD SLOAD PUSH1 0x40 MLOAD PUSH1 0xE0 DUP6 SWAP1 SHL PUSH1 0x1 PUSH1 0x1 PUSH1 0xE0 SHL SUB NOT AND DUP2 MSTORE PUSH1 0x1 PUSH1 0x1 PUSH1 0xA0 SHL SUB SWAP4 DUP5 AND PUSH1 0x4 DUP3 ADD MSTORE SWAP3 AND PUSH1 0x24 DUP4 ADD MSTORE PUSH1 0x44 DUP3 ADD DUP10 SWAP1 MSTORE PUSH1 0x64 DUP3 ADD DUP2 SWAP1 MSTORE PUSH1 0x84 DUP3 ADD MSTORE ADDRESS PUSH1 0xA4 DUP3 ADD MSTORE TIMESTAMP PUSH1 0xC4 DUP3 ADD MSTORE PUSH1 0xE4 ADD PUSH1 0x40 DUP1 MLOAD DUP1 DUP4 SUB DUP2 PUSH1 0x0 DUP8 GAS CALL ISZERO DUP1 ISZERO PUSH2 0x1C70 JUMPI RETURNDATASIZE PUSH1 0x0 DUP1 RETURNDATACOPY RETURNDATASIZE PUSH1 0x0 REVERT JUMPDEST POP POP POP POP PUSH1 0x40 MLOAD RETURNDATASIZE PUSH1 0x1F NOT PUSH1 0x1F DUP3 ADD AND DUP3 ADD DUP1 PUSH1 0x40 MSTORE POP DUP2 ADD SWAP1 PUSH2 0x1C94 SWAP2 SWAP1 PUSH2 0x3672 JUMP JUMPDEST PUSH1 0x0 DUP9 DUP2 MSTORE PUSH1 0x6 PUSH1 0x20 MSTORE PUSH1 0x40 DUP2 KECCAK256 DUP1 SLOAD SWAP4 SWAP6 POP SWAP2 SWAP4 POP SWAP1 SWAP2 PUSH2 0x1CB8 JUMPI PUSH2 0x1CB8 PUSH2 0x35B1 JUMP JUMPDEST PUSH1 0x0 SWAP2 DUP3 MSTORE PUSH1 0x20 SWAP1 SWAP2 KECCAK256 ADD SLOAD PUSH1 0x8 DUP5 ADD SLOAD PUSH1 0x1 PUSH1 0x1 PUSH1 0xA0 SHL SUB SWAP2 DUP3 AND SWAP2 PUSH4 0x95EA7B3 SWAP2 PUSH1 0x1 PUSH1 0x20 SHL SWAP1 DIV AND PUSH2 0x1CEE DUP6 PUSH1 0x2 PUSH2 0x3570 JUMP JUMPDEST PUSH1 0x40 MLOAD DUP4 PUSH4 0xFFFFFFFF AND PUSH1 0xE0 SHL DUP2 MSTORE PUSH1 0x4 ADD PUSH2 0x1D0B SWAP3 SWAP2 SWAP1 PUSH2 0x35C7 JUMP JUMPDEST PUSH1 0x20 PUSH1 0x40 MLOAD DUP1 DUP4 SUB DUP2 PUSH1 0x0 DUP8 GAS CALL ISZERO DUP1 ISZERO PUSH2 0x1D2A JUMPI RETURNDATASIZE PUSH1 0x0 DUP1 RETURNDATACOPY RETURNDATASIZE PUSH1 0x0 REVERT JUMPDEST POP POP POP POP PUSH1 0x40 MLOAD RETURNDATASIZE PUSH1 0x1F NOT PUSH1 0x1F DUP3 ADD AND DUP3 ADD DUP1 PUSH1 0x40 MSTORE POP DUP2 ADD SWAP1 PUSH2 0x1D4E SWAP2 SWAP1 PUSH2 0x35E0 JUMP JUMPDEST POP PUSH1 0x0 DUP7 DUP2 MSTORE PUSH1 0x6 PUSH1 0x20 MSTORE PUSH1 0x40 SWAP1 KECCAK256 DUP1 SLOAD PUSH1 0x1 SWAP1 DUP2 LT PUSH2 0x1D70 JUMPI PUSH2 0x1D70 PUSH2 0x35B1 JUMP JUMPDEST PUSH1 0x0 SWAP2 DUP3 MSTORE PUSH1 0x20 SWAP1 SWAP2 KECCAK256 ADD SLOAD PUSH1 0x8 DUP5 ADD SLOAD PUSH1 0x1 PUSH1 0x1 PUSH1 0xA0 SHL SUB SWAP2 DUP3 AND SWAP2 PUSH4 0x95EA7B3 SWAP2 PUSH1 0x1 PUSH1 0x20 SHL SWAP1 DIV AND PUSH2 0x1DA6 DUP5 PUSH1 0x2 PUSH2 0x3570 JUMP JUMPDEST PUSH1 0x40 MLOAD DUP4 PUSH4 0xFFFFFFFF AND PUSH1 0xE0 SHL DUP2 MSTORE PUSH1 0x4 ADD PUSH2 0x1DC3 SWAP3 SWAP2 SWAP1 PUSH2 0x35C7 JUMP JUMPDEST PUSH1 0x20 PUSH1 0x40 MLOAD DUP1 DUP4 SUB DUP2 PUSH1 0x0 DUP8 GAS CALL ISZERO DUP1 ISZERO PUSH2 0x1DE2 JUMPI RETURNDATASIZE PUSH1 0x0 DUP1 RETURNDATACOPY RETURNDATASIZE PUSH1 0x0 REVERT JUMPDEST POP POP POP POP PUSH1 0x40 MLOAD RETURNDATASIZE PUSH1 0x1F NOT PUSH1 0x1F DUP3 ADD AND DUP3 ADD DUP1 PUSH1 0x40 MSTORE POP DUP2 ADD SWAP1 PUSH2 0x1E06 SWAP2 SWAP1 PUSH2 0x35E0 JUMP JUMPDEST POP PUSH1 0x8 DUP4 ADD SLOAD PUSH3 0x10000 SWAP1 DIV PUSH1 0xFF AND ISZERO PUSH2 0x1E9B JUMPI PUSH1 0x8 DUP4 ADD SLOAD PUSH1 0x0 DUP8 DUP2 MSTORE PUSH1 0x7 PUSH1 0x20 MSTORE PUSH1 0x40 DUP1 DUP3 KECCAK256 SWAP1 MLOAD PUSH4 0x791AC947 PUSH1 0xE0 SHL DUP2 MSTORE PUSH1 0x1 PUSH1 0x20 SHL SWAP1 SWAP4 DIV PUSH1 0x1 PUSH1 0x1 PUSH1 0xA0 SHL SUB AND SWAP3 PUSH4 0x791AC947 SWAP3 PUSH2 0x1E64 SWAP3 DUP8 SWAP3 ADDRESS SWAP1 TIMESTAMP SWAP1 PUSH1 0x4 ADD PUSH2 0x37A6 JUMP JUMPDEST PUSH1 0x0 PUSH1 0x40 MLOAD DUP1 DUP4 SUB DUP2 PUSH1 0x0 DUP8 DUP1 EXTCODESIZE ISZERO DUP1 ISZERO PUSH2 0x1E7E JUMPI PUSH1 0x0 DUP1 REVERT JUMPDEST POP GAS CALL ISZERO DUP1 ISZERO PUSH2 0x1E92 JUMPI RETURNDATASIZE PUSH1 0x0 DUP1 RETURNDATACOPY RETURNDATASIZE PUSH1 0x0 REVERT JUMPDEST POP POP POP POP PUSH2 0x1F2E JUMP JUMPDEST PUSH1 0x8 DUP4 ADD SLOAD PUSH1 0x0 DUP8 DUP2 MSTORE PUSH1 0x7 PUSH1 0x20 MSTORE PUSH1 0x40 DUP1 DUP3 KECCAK256 SWAP1 MLOAD PUSH4 0x18CBAFE5 PUSH1 0xE0 SHL DUP2 MSTORE PUSH1 0x1 PUSH1 0x20 SHL SWAP1 SWAP4 DIV PUSH1 0x1 PUSH1 0x1 PUSH1 0xA0 SHL SUB AND SWAP3 PUSH4 0x18CBAFE5 SWAP3 PUSH2 0x1EE5 SWAP3 DUP8 SWAP3 ADDRESS SWAP1 TIMESTAMP SWAP1 PUSH1 0x4 ADD PUSH2 0x37A6 JUMP JUMPDEST PUSH1 0x0 PUSH1 0x40 MLOAD DUP1 DUP4 SUB DUP2 PUSH1 0x0 DUP8 GAS CALL ISZERO DUP1 ISZERO PUSH2 0x1F04 JUMPI RETURNDATASIZE PUSH1 0x0 DUP1 RETURNDATACOPY RETURNDATASIZE PUSH1 0x0 REVERT JUMPDEST POP POP POP POP PUSH1 0x40 MLOAD RETURNDATASIZE PUSH1 0x0 DUP3 RETURNDATACOPY PUSH1 0x1F RETURNDATASIZE SWAP1 DUP2 ADD PUSH1 0x1F NOT AND DUP3 ADD PUSH1 0x40 MSTORE PUSH2 0x1F2C SWAP2 SWAP1 DUP2 ADD SWAP1 PUSH2 0x36E8 JUMP JUMPDEST POP JUMPDEST PUSH1 0x8 DUP4 ADD SLOAD PUSH4 0x1000000 SWAP1 DIV PUSH1 0xFF AND ISZERO PUSH2 0x1FC6 JUMPI PUSH1 0x8 DUP4 DUP2 ADD SLOAD PUSH1 0x0 DUP9 DUP2 MSTORE PUSH1 0x20 SWAP3 SWAP1 SWAP3 MSTORE PUSH1 0x40 DUP1 DUP4 KECCAK256 SWAP1 MLOAD PUSH4 0x791AC947 PUSH1 0xE0 SHL DUP2 MSTORE PUSH1 0x1 PUSH1 0x20 SHL SWAP1 SWAP3 DIV PUSH1 0x1 PUSH1 0x1 PUSH1 0xA0 SHL SUB AND SWAP3 PUSH4 0x791AC947 SWAP3 PUSH2 0x1F8F SWAP3 DUP7 SWAP3 SWAP2 ADDRESS SWAP1 TIMESTAMP SWAP1 PUSH1 0x4 ADD PUSH2 0x37A6 JUMP JUMPDEST PUSH1 0x0 PUSH1 0x40 MLOAD DUP1 DUP4 SUB DUP2 PUSH1 0x0 DUP8 DUP1 EXTCODESIZE ISZERO DUP1 ISZERO PUSH2 0x1FA9 JUMPI PUSH1 0x0 DUP1 REVERT JUMPDEST POP GAS CALL ISZERO DUP1 ISZERO PUSH2 0x1FBD JUMPI RETURNDATASIZE PUSH1 0x0 DUP1 RETURNDATACOPY RETURNDATASIZE PUSH1 0x0 REVERT JUMPDEST POP POP POP POP PUSH2 0x205C JUMP JUMPDEST PUSH1 0x8 DUP4 DUP2 ADD SLOAD PUSH1 0x0 DUP9 DUP2 MSTORE PUSH1 0x20 SWAP3 SWAP1 SWAP3 MSTORE PUSH1 0x40 DUP1 DUP4 KECCAK256 SWAP1 MLOAD PUSH4 0x18CBAFE5 PUSH1 0xE0 SHL DUP2 MSTORE PUSH1 0x1 PUSH1 0x20 SHL SWAP1 SWAP3 DIV PUSH1 0x1 PUSH1 0x1 PUSH1 0xA0 SHL SUB AND SWAP3 PUSH4 0x18CBAFE5 SWAP3 PUSH2 0x2013 SWAP3 DUP7 SWAP3 SWAP2 ADDRESS SWAP1 TIMESTAMP SWAP1 PUSH1 0x4 ADD PUSH2 0x37A6 JUMP JUMPDEST PUSH1 0x0 PUSH1 0x40 MLOAD DUP1 DUP4 SUB DUP2 PUSH1 0x0 DUP8 GAS CALL ISZERO DUP1 ISZERO PUSH2 0x2032 JUMPI RETURNDATASIZE PUSH1 0x0 DUP1 RETURNDATACOPY RETURNDATASIZE PUSH1 0x0 REVERT JUMPDEST POP POP POP POP PUSH1 0x40 MLOAD RETURNDATASIZE PUSH1 0x0 DUP3 RETURNDATACOPY PUSH1 0x1F RETURNDATASIZE SWAP1 DUP2 ADD PUSH1 0x1F NOT AND DUP3 ADD PUSH1 0x40 MSTORE PUSH2 0x205A SWAP2 SWAP1 DUP2 ADD SWAP1 PUSH2 0x36E8 JUMP JUMPDEST POP JUMPDEST SELFBALANCE SWAP4 POP POP POP POP PUSH2 0x2069 JUMP JUMPDEST POP JUMPDEST SWAP3 SWAP2 POP POP JUMP JUMPDEST PUSH1 0x0 DUP4 DUP2 MSTORE PUSH1 0x6 PUSH1 0x20 MSTORE PUSH1 0x40 DUP2 KECCAK256 DUP1 SLOAD DUP3 SWAP1 PUSH2 0x208D JUMPI PUSH2 0x208D PUSH2 0x35B1 JUMP JUMPDEST PUSH1 0x0 SWAP2 DUP3 MSTORE PUSH1 0x20 DUP3 KECCAK256 ADD SLOAD PUSH1 0x40 MLOAD PUSH4 0x70A08231 PUSH1 0xE0 SHL DUP2 MSTORE ADDRESS PUSH1 0x4 DUP3 ADD MSTORE PUSH1 0x1 PUSH1 0x1 PUSH1 0xA0 SHL SUB SWAP1 SWAP2 AND SWAP3 POP DUP3 SWAP1 PUSH4 0x70A08231 SWAP1 PUSH1 0x24 ADD PUSH1 0x20 PUSH1 0x40 MLOAD DUP1 DUP4 SUB DUP2 DUP7 GAS STATICCALL ISZERO DUP1 ISZERO PUSH2 0x20E0 JUMPI RETURNDATASIZE PUSH1 0x0 DUP1 RETURNDATACOPY RETURNDATASIZE PUSH1 0x0 REVERT JUMPDEST POP POP POP POP PUSH1 0x40 MLOAD RETURNDATASIZE PUSH1 0x1F NOT PUSH1 0x1F DUP3 ADD AND DUP3 ADD DUP1 PUSH1 0x40 MSTORE POP DUP2 ADD SWAP1 PUSH2 0x2104 SWAP2 SWAP1 PUSH2 0x3529 JUMP JUMPDEST GT PUSH2 0x210E JUMPI PUSH1 0x0 DUP1 REVERT JUMPDEST PUSH1 0x8 DUP4 ADD SLOAD PUSH1 0x40 MLOAD PUSH4 0x95EA7B3 PUSH1 0xE0 SHL DUP2 MSTORE PUSH1 0x1 PUSH1 0x1 PUSH1 0xA0 SHL SUB DUP1 DUP5 AND SWAP3 PUSH4 0x95EA7B3 SWAP3 PUSH2 0x214C SWAP3 PUSH1 0x1 PUSH1 0x20 SHL SWAP1 SWAP3 DIV SWAP1 SWAP2 AND SWAP1 DUP7 SWAP1 PUSH1 0x4 ADD PUSH2 0x35C7 JUMP JUMPDEST PUSH1 0x20 PUSH1 0x40 MLOAD DUP1 DUP4 SUB DUP2 PUSH1 0x0 DUP8 GAS CALL ISZERO DUP1 ISZERO PUSH2 0x216B JUMPI RETURNDATASIZE PUSH1 0x0 DUP1 RETURNDATACOPY RETURNDATASIZE PUSH1 0x0 REVERT JUMPDEST POP POP POP POP PUSH1 0x40 MLOAD RETURNDATASIZE PUSH1 0x1F NOT PUSH1 0x1F DUP3 ADD AND DUP3 ADD DUP1 PUSH1 0x40 MSTORE POP DUP2 ADD SWAP1 PUSH2 0x218F SWAP2 SWAP1 PUSH2 0x35E0 JUMP JUMPDEST POP PUSH1 0x8 DUP4 ADD SLOAD PUSH2 0x100 SWAP1 DIV PUSH1 0xFF AND ISZERO PUSH2 0x2223 JUMPI PUSH1 0x8 DUP4 ADD SLOAD PUSH1 0x0 DUP6 DUP2 MSTORE PUSH1 0x6 PUSH1 0x20 MSTORE PUSH1 0x40 DUP1 DUP3 KECCAK256 SWAP1 MLOAD PUSH4 0x791AC947 PUSH1 0xE0 SHL DUP2 MSTORE PUSH1 0x1 PUSH1 0x20 SHL SWAP1 SWAP4 DIV PUSH1 0x1 PUSH1 0x1 PUSH1 0xA0 SHL SUB AND SWAP3 PUSH4 0x791AC947 SWAP3 PUSH2 0x21EC SWAP3 DUP8 SWAP3 ADDRESS SWAP1 TIMESTAMP SWAP1 PUSH1 0x4 ADD PUSH2 0x37A6 JUMP JUMPDEST PUSH1 0x0 PUSH1 0x40 MLOAD DUP1 DUP4 SUB DUP2 PUSH1 0x0 DUP8 DUP1 EXTCODESIZE ISZERO DUP1 ISZERO PUSH2 0x2206 JUMPI PUSH1 0x0 DUP1 REVERT JUMPDEST POP GAS CALL ISZERO DUP1 ISZERO PUSH2 0x221A JUMPI RETURNDATASIZE PUSH1 0x0 DUP1 RETURNDATACOPY RETURNDATASIZE PUSH1 0x0 REVERT JUMPDEST POP POP POP POP PUSH2 0x22B6 JUMP JUMPDEST PUSH1 0x8 DUP4 ADD SLOAD PUSH1 0x0 DUP6 DUP2 MSTORE PUSH1 0x6 PUSH1 0x20 MSTORE PUSH1 0x40 DUP1 DUP3 KECCAK256 SWAP1 MLOAD PUSH4 0x18CBAFE5 PUSH1 0xE0 SHL DUP2 MSTORE PUSH1 0x1 PUSH1 0x20 SHL SWAP1 SWAP4 DIV PUSH1 0x1 PUSH1 0x1 PUSH1 0xA0 SHL SUB AND SWAP3 PUSH4 0x18CBAFE5 SWAP3 PUSH2 0x226D SWAP3 DUP8 SWAP3 ADDRESS SWAP1 TIMESTAMP SWAP1 PUSH1 0x4 ADD PUSH2 0x37A6 JUMP JUMPDEST PUSH1 0x0 PUSH1 0x40 MLOAD DUP1 DUP4 SUB DUP2 PUSH1 0x0 DUP8 GAS CALL ISZERO DUP1 ISZERO PUSH2 0x228C JUMPI RETURNDATASIZE PUSH1 0x0 DUP1 RETURNDATACOPY RETURNDATASIZE PUSH1 0x0 REVERT JUMPDEST POP POP POP POP PUSH1 0x40 MLOAD RETURNDATASIZE PUSH1 0x0 DUP3 RETURNDATACOPY PUSH1 0x1F RETURNDATASIZE SWAP1 DUP2 ADD PUSH1 0x1F NOT AND DUP3 ADD PUSH1 0x40 MSTORE PUSH2 0x22B4 SWAP2 SWAP1 DUP2 ADD SWAP1 PUSH2 0x36E8 JUMP JUMPDEST POP JUMPDEST POP POP POP POP JUMP JUMPDEST PUSH1 0x0 DUP4 DUP2 MSTORE PUSH1 0x5 PUSH1 0x20 MSTORE PUSH1 0x40 DUP2 KECCAK256 DUP2 SWAP1 DUP2 SWAP1 DUP5 ISZERO PUSH2 0x235B JUMPI DUP1 SLOAD PUSH2 0x2710 SWAP1 PUSH2 0x22E4 SWAP1 DUP9 PUSH2 0x3570 JUMP JUMPDEST PUSH2 0x22EE SWAP2 SWAP1 PUSH2 0x358F JUMP JUMPDEST SWAP4 POP PUSH2 0x22FD PUSH2 0x2710 PUSH1 0x2 PUSH2 0x3570 JUMP JUMPDEST DUP2 PUSH1 0x1 ADD SLOAD PUSH2 0x230C SWAP1 DUP9 PUSH2 0x3570 JUMP JUMPDEST PUSH2 0x2316 SWAP2 SWAP1 PUSH2 0x358F JUMP JUMPDEST SWAP3 POP PUSH2 0x2325 PUSH2 0x2710 PUSH1 0x2 PUSH2 0x3570 JUMP JUMPDEST DUP2 PUSH1 0x2 ADD SLOAD PUSH2 0x2334 SWAP1 DUP9 PUSH2 0x3570 JUMP JUMPDEST PUSH2 0x233E SWAP2 SWAP1 PUSH2 0x358F JUMP JUMPDEST SWAP2 POP PUSH2 0x234A DUP4 DUP4 PUSH2 0x3558 JUMP JUMPDEST PUSH2 0x2354 SWAP1 DUP6 PUSH2 0x3558 JUMP JUMPDEST SWAP4 POP PUSH2 0x23EE JUMP JUMPDEST PUSH1 0x5 DUP2 ADD SLOAD PUSH1 0x4 DUP3 ADD SLOAD PUSH1 0x3 DUP4 ADD SLOAD PUSH1 0x0 SWAP3 SWAP2 PUSH2 0x2377 SWAP2 PUSH2 0x3558 JUMP JUMPDEST PUSH2 0x2381 SWAP2 SWAP1 PUSH2 0x3558 JUMP JUMPDEST SWAP1 POP PUSH2 0x2710 PUSH2 0x2390 DUP3 DUP10 PUSH2 0x3570 JUMP JUMPDEST PUSH2 0x239A SWAP2 SWAP1 PUSH2 0x358F JUMP JUMPDEST SWAP5 POP PUSH2 0x23A9 PUSH2 0x2710 PUSH1 0x2 PUSH2 0x3570 JUMP JUMPDEST PUSH1 0x6 DUP4 ADD SLOAD PUSH2 0x23B8 SWAP1 DUP10 PUSH2 0x3570 JUMP JUMPDEST PUSH2 0x23C2 SWAP2 SWAP1 PUSH2 0x358F JUMP JUMPDEST SWAP4 POP PUSH2 0x23D1 PUSH2 0x2710 PUSH1 0x2 PUSH2 0x3570 JUMP JUMPDEST PUSH1 0x7 DUP4 ADD SLOAD PUSH2 0x23E0 SWAP1 DUP10 PUSH2 0x3570 JUMP JUMPDEST PUSH2 0x23EA SWAP2 SWAP1 PUSH2 0x358F JUMP JUMPDEST SWAP3 POP POP JUMPDEST POP SWAP4 POP SWAP4 POP SWAP4 SWAP1 POP JUMP JUMPDEST PUSH1 0x0 SELFBALANCE DUP4 GT ISZERO PUSH2 0x2407 JUMPI PUSH1 0x0 DUP1 REVERT JUMPDEST PUSH1 0x40 DUP1 MLOAD PUSH1 0x2 DUP1 DUP3 MSTORE PUSH1 0x60 DUP3 ADD DUP4 MSTORE PUSH1 0x0 SWAP3 PUSH1 0x20 DUP4 ADD SWAP1 DUP1 CALLDATASIZE DUP4 CALLDATACOPY ADD SWAP1 POP POP SWAP1 POP PUSH1 0x0 DUP4 PUSH2 0x2455 JUMPI PUSH32 0x0 PUSH2 0x2477 JUMP JUMPDEST PUSH32 0x0 JUMPDEST SWAP1 POP PUSH1 0x0 DUP5 PUSH2 0x2491 JUMPI PUSH1 0x3 SLOAD PUSH1 0x1 PUSH1 0x1 PUSH1 0xA0 SHL SUB AND PUSH2 0x249E JUMP JUMPDEST PUSH1 0x4 SLOAD PUSH1 0x1 PUSH1 0x1 PUSH1 0xA0 SHL SUB AND JUMPDEST SWAP1 POP DUP1 PUSH1 0x1 PUSH1 0x1 PUSH1 0xA0 SHL SUB AND PUSH4 0xAD5C4648 PUSH1 0x40 MLOAD DUP2 PUSH4 0xFFFFFFFF AND PUSH1 0xE0 SHL DUP2 MSTORE PUSH1 0x4 ADD PUSH1 0x20 PUSH1 0x40 MLOAD DUP1 DUP4 SUB DUP2 DUP7 GAS STATICCALL ISZERO DUP1 ISZERO PUSH2 0x24DE JUMPI RETURNDATASIZE PUSH1 0x0 DUP1 RETURNDATACOPY RETURNDATASIZE PUSH1 0x0 REVERT JUMPDEST POP POP POP POP PUSH1 0x40 MLOAD RETURNDATASIZE PUSH1 0x1F NOT PUSH1 0x1F DUP3 ADD AND DUP3 ADD DUP1 PUSH1 0x40 MSTORE POP DUP2 ADD SWAP1 PUSH2 0x2502 SWAP2 SWAP1 PUSH2 0x361A JUMP JUMPDEST DUP4 PUSH1 0x0 DUP2 MLOAD DUP2 LT PUSH2 0x2515 JUMPI PUSH2 0x2515 PUSH2 0x35B1 JUMP JUMPDEST PUSH1 0x20 MUL PUSH1 0x20 ADD ADD SWAP1 PUSH1 0x1 PUSH1 0x1 PUSH1 0xA0 SHL SUB AND SWAP1 DUP2 PUSH1 0x1 PUSH1 0x1 PUSH1 0xA0 SHL SUB AND DUP2 MSTORE POP POP DUP2 DUP4 PUSH1 0x1 DUP2 MLOAD DUP2 LT PUSH2 0x2549 JUMPI PUSH2 0x2549 PUSH2 0x35B1 JUMP JUMPDEST PUSH1 0x1 PUSH1 0x1 PUSH1 0xA0 SHL SUB SWAP3 DUP4 AND PUSH1 0x20 SWAP2 DUP3 MUL SWAP3 SWAP1 SWAP3 ADD ADD MSTORE PUSH1 0x40 MLOAD PUSH4 0x7FF36AB5 PUSH1 0xE0 SHL DUP2 MSTORE SWAP1 DUP3 AND SWAP1 PUSH4 0x7FF36AB5 SWAP1 DUP9 SWAP1 PUSH2 0x258D SWAP1 PUSH1 0x0 SWAP1 DUP9 SWAP1 ADDRESS SWAP1 TIMESTAMP SWAP1 PUSH1 0x4 ADD PUSH2 0x381C JUMP JUMPDEST PUSH1 0x0 PUSH1 0x40 MLOAD DUP1 DUP4 SUB DUP2 DUP6 DUP9 GAS CALL ISZERO DUP1 ISZERO PUSH2 0x25AB JUMPI RETURNDATASIZE PUSH1 0x0 DUP1 RETURNDATACOPY RETURNDATASIZE PUSH1 0x0 REVERT JUMPDEST POP POP POP POP POP PUSH1 0x40 MLOAD RETURNDATASIZE PUSH1 0x0 DUP3 RETURNDATACOPY PUSH1 0x1F RETURNDATASIZE SWAP1 DUP2 ADD PUSH1 0x1F NOT AND DUP3 ADD PUSH1 0x40 MSTORE PUSH2 0x25D4 SWAP2 SWAP1 DUP2 ADD SWAP1 PUSH2 0x36E8 JUMP JUMPDEST POP PUSH1 0x40 MLOAD PUSH4 0x70A08231 PUSH1 0xE0 SHL DUP2 MSTORE ADDRESS PUSH1 0x4 DUP3 ADD MSTORE PUSH1 0x1 PUSH1 0x1 PUSH1 0xA0 SHL SUB DUP4 AND SWAP1 PUSH4 0x70A08231 SWAP1 PUSH1 0x24 ADD PUSH1 0x20 PUSH1 0x40 MLOAD DUP1 DUP4 SUB DUP2 DUP7 GAS STATICCALL ISZERO DUP1 ISZERO PUSH2 0x2619 JUMPI RETURNDATASIZE PUSH1 0x0 DUP1 RETURNDATACOPY RETURNDATASIZE PUSH1 0x0 REVERT JUMPDEST POP POP POP POP PUSH1 0x40 MLOAD RETURNDATASIZE PUSH1 0x1F NOT PUSH1 0x1F DUP3 ADD AND DUP3 ADD DUP1 PUSH1 0x40 MSTORE POP DUP2 ADD SWAP1 PUSH2 0x263D SWAP2 SWAP1 PUSH2 0x3529 JUMP JUMPDEST SWAP7 SWAP6 POP POP POP POP POP POP JUMP JUMPDEST PUSH1 0x0 DUP2 PUSH2 0x265F JUMPI PUSH1 0x3 SLOAD PUSH1 0x1 PUSH1 0x1 PUSH1 0xA0 SHL SUB AND PUSH2 0x266C JUMP JUMPDEST PUSH1 0x4 SLOAD PUSH1 0x1 PUSH1 0x1 PUSH1 0xA0 SHL SUB AND JUMPDEST SWAP1 POP PUSH1 0x0 DUP3 PUSH2 0x269B JUMPI PUSH32 0x0 PUSH2 0x26BD JUMP JUMPDEST PUSH32 0x0 JUMPDEST SWAP1 POP PUSH1 0x0 PUSH2 0x26CB DUP6 DUP8 PUSH2 0x3558 JUMP JUMPDEST PUSH1 0x40 MLOAD PUSH4 0x95EA7B3 PUSH1 0xE0 SHL DUP2 MSTORE SWAP1 SWAP2 POP PUSH1 0x1 PUSH1 0x1 PUSH1 0xA0 SHL SUB DUP4 AND SWAP1 PUSH4 0x95EA7B3 SWAP1 PUSH2 0x26FC SWAP1 DUP7 SWAP1 DUP12 SWAP1 PUSH1 0x4 ADD PUSH2 0x35C7 JUMP JUMPDEST PUSH1 0x20 PUSH1 0x40 MLOAD DUP1 DUP4 SUB DUP2 PUSH1 0x0 DUP8 GAS CALL ISZERO DUP1 ISZERO PUSH2 0x271B JUMPI RETURNDATASIZE PUSH1 0x0 DUP1 RETURNDATACOPY RETURNDATASIZE PUSH1 0x0 REVERT JUMPDEST POP POP POP POP PUSH1 0x40 MLOAD RETURNDATASIZE PUSH1 0x1F NOT PUSH1 0x1F DUP3 ADD AND DUP3 ADD DUP1 PUSH1 0x40 MSTORE POP DUP2 ADD SWAP1 PUSH2 0x273F SWAP2 SWAP1 PUSH2 0x35E0 JUMP JUMPDEST POP PUSH1 0x0 DUP4 PUSH1 0x1 PUSH1 0x1 PUSH1 0xA0 SHL SUB AND PUSH4 0xF305D719 DUP4 DUP6 DUP12 PUSH1 0x0 DUP1 ADDRESS TIMESTAMP PUSH1 0x40 MLOAD DUP9 PUSH4 0xFFFFFFFF AND PUSH1 0xE0 SHL DUP2 MSTORE PUSH1 0x4 ADD PUSH2 0x277A SWAP7 SWAP6 SWAP5 SWAP4 SWAP3 SWAP2 SWAP1 PUSH2 0x3637 JUMP JUMPDEST PUSH1 0x60 PUSH1 0x40 MLOAD DUP1 DUP4 SUB DUP2 DUP6 DUP9 GAS CALL ISZERO DUP1 ISZERO PUSH2 0x2798 JUMPI RETURNDATASIZE PUSH1 0x0 DUP1 RETURNDATACOPY RETURNDATASIZE PUSH1 0x0 REVERT JUMPDEST POP POP POP POP POP PUSH1 0x40 MLOAD RETURNDATASIZE PUSH1 0x1F NOT PUSH1 0x1F DUP3 ADD AND DUP3 ADD DUP1 PUSH1 0x40 MSTORE POP DUP2 ADD SWAP1 PUSH2 0x27BD SWAP2 SWAP1 PUSH2 0x3851 JUMP JUMPDEST SWAP3 POP POP POP PUSH1 0x0 DUP5 PUSH1 0x1 PUSH1 0x1 PUSH1 0xA0 SHL SUB AND PUSH4 0xC45A0155 PUSH1 0x40 MLOAD DUP2 PUSH4 0xFFFFFFFF AND PUSH1 0xE0 SHL DUP2 MSTORE PUSH1 0x4 ADD PUSH1 0x20 PUSH1 0x40 MLOAD DUP1 DUP4 SUB DUP2 DUP7 GAS STATICCALL ISZERO DUP1 ISZERO PUSH2 0x2801 JUMPI RETURNDATASIZE PUSH1 0x0 DUP1 RETURNDATACOPY RETURNDATASIZE PUSH1 0x0 REVERT JUMPDEST POP POP POP POP PUSH1 0x40 MLOAD RETURNDATASIZE PUSH1 0x1F NOT PUSH1 0x1F DUP3 ADD AND DUP3 ADD DUP1 PUSH1 0x40 MSTORE POP DUP2 ADD SWAP1 PUSH2 0x2825 SWAP2 SWAP1 PUSH2 0x361A JUMP JUMPDEST SWAP1 POP PUSH1 0x0 DUP6 PUSH1 0x1 PUSH1 0x1 PUSH1 0xA0 SHL SUB AND PUSH4 0xAD5C4648 PUSH1 0x40 MLOAD DUP2 PUSH4 0xFFFFFFFF AND PUSH1 0xE0 SHL DUP2 MSTORE PUSH1 0x4 ADD PUSH1 0x20 PUSH1 0x40 MLOAD DUP1 DUP4 SUB DUP2 DUP7 GAS STATICCALL ISZERO DUP1 ISZERO PUSH2 0x2867 JUMPI RETURNDATASIZE PUSH1 0x0 DUP1 RETURNDATACOPY RETURNDATASIZE PUSH1 0x0 REVERT JUMPDEST POP POP POP POP PUSH1 0x40 MLOAD RETURNDATASIZE PUSH1 0x1F NOT PUSH1 0x1F DUP3 ADD AND DUP3 ADD DUP1 PUSH1 0x40 MSTORE POP DUP2 ADD SWAP1 PUSH2 0x288B SWAP2 SWAP1 PUSH2 0x361A JUMP JUMPDEST PUSH1 0x40 MLOAD PUSH4 0xE6A43905 PUSH1 0xE0 SHL DUP2 MSTORE PUSH1 0x1 PUSH1 0x1 PUSH1 0xA0 SHL SUB DUP8 DUP2 AND PUSH1 0x4 DUP4 ADD MSTORE DUP1 DUP4 AND PUSH1 0x24 DUP4 ADD MSTORE SWAP2 SWAP3 POP PUSH1 0x0 SWAP2 DUP5 AND SWAP1 PUSH4 0xE6A43905 SWAP1 PUSH1 0x44 ADD PUSH1 0x20 PUSH1 0x40 MLOAD DUP1 DUP4 SUB DUP2 DUP7 GAS STATICCALL ISZERO DUP1 ISZERO PUSH2 0x28DF JUMPI RETURNDATASIZE PUSH1 0x0 DUP1 RETURNDATACOPY RETURNDATASIZE PUSH1 0x0 REVERT JUMPDEST POP POP POP POP PUSH1 0x40 MLOAD RETURNDATASIZE PUSH1 0x1F NOT PUSH1 0x1F DUP3 ADD AND DUP3 ADD DUP1 PUSH1 0x40 MSTORE POP DUP2 ADD SWAP1 PUSH2 0x2903 SWAP2 SWAP1 PUSH2 0x361A JUMP JUMPDEST SWAP1 POP PUSH1 0x0 DUP11 ISZERO PUSH2 0x2A0E JUMPI PUSH2 0x2917 DUP11 DUP13 PUSH2 0x3558 JUMP JUMPDEST PUSH2 0x2921 DUP13 DUP8 PUSH2 0x3570 JUMP JUMPDEST PUSH2 0x292B SWAP2 SWAP1 PUSH2 0x358F JUMP JUMPDEST SWAP1 POP PUSH1 0x0 DUP3 PUSH1 0x1 PUSH1 0x1 PUSH1 0xA0 SHL SUB AND PUSH4 0xA9059CBB PUSH32 0x0 DUP5 PUSH1 0x40 MLOAD DUP4 PUSH4 0xFFFFFFFF AND PUSH1 0xE0 SHL DUP2 MSTORE PUSH1 0x4 ADD PUSH2 0x297D SWAP3 SWAP2 SWAP1 PUSH2 0x35C7 JUMP JUMPDEST PUSH1 0x20 PUSH1 0x40 MLOAD DUP1 DUP4 SUB DUP2 PUSH1 0x0 DUP8 GAS CALL ISZERO DUP1 ISZERO PUSH2 0x299C JUMPI RETURNDATASIZE PUSH1 0x0 DUP1 RETURNDATACOPY RETURNDATASIZE PUSH1 0x0 REVERT JUMPDEST POP POP POP POP PUSH1 0x40 MLOAD RETURNDATASIZE PUSH1 0x1F NOT PUSH1 0x1F DUP3 ADD AND DUP3 ADD DUP1 PUSH1 0x40 MSTORE POP DUP2 ADD SWAP1 PUSH2 0x29C0 SWAP2 SWAP1 PUSH2 0x35E0 JUMP JUMPDEST SWAP1 POP DUP1 ISZERO PUSH2 0x2A0C JUMPI DUP8 PUSH1 0x1 PUSH1 0x1 PUSH1 0xA0 SHL SUB AND PUSH32 0xE0A8A8FA6F5B9F19597A6A7EADE0801109C18F11DFA283D4213B216AA8CB322E DUP4 PUSH1 0x40 MLOAD PUSH2 0x2A03 SWAP2 DUP2 MSTORE PUSH1 0x20 ADD SWAP1 JUMP JUMPDEST PUSH1 0x40 MLOAD DUP1 SWAP2 SUB SWAP1 LOG2 JUMPDEST POP JUMPDEST DUP10 ISZERO PUSH2 0x2B5F JUMPI PUSH1 0x40 MLOAD PUSH4 0x70A08231 PUSH1 0xE0 SHL DUP2 MSTORE ADDRESS PUSH1 0x4 DUP3 ADD MSTORE PUSH1 0x1 PUSH1 0x1 PUSH1 0xA0 SHL SUB DUP4 AND SWAP1 PUSH4 0x70A08231 SWAP1 PUSH1 0x24 ADD PUSH1 0x20 PUSH1 0x40 MLOAD DUP1 DUP4 SUB DUP2 DUP7 GAS STATICCALL ISZERO DUP1 ISZERO PUSH2 0x2A58 JUMPI RETURNDATASIZE PUSH1 0x0 DUP1 RETURNDATACOPY RETURNDATASIZE PUSH1 0x0 REVERT JUMPDEST POP POP POP POP PUSH1 0x40 MLOAD RETURNDATASIZE PUSH1 0x1F NOT PUSH1 0x1F DUP3 ADD AND DUP3 ADD DUP1 PUSH1 0x40 MSTORE POP DUP2 ADD SWAP1 PUSH2 0x2A7C SWAP2 SWAP1 PUSH2 0x3529 JUMP JUMPDEST SWAP5 POP PUSH1 0x0 DUP3 PUSH1 0x1 PUSH1 0x1 PUSH1 0xA0 SHL SUB AND PUSH4 0xA9059CBB PUSH32 0x0 DUP9 PUSH1 0x40 MLOAD DUP4 PUSH4 0xFFFFFFFF AND PUSH1 0xE0 SHL DUP2 MSTORE PUSH1 0x4 ADD PUSH2 0x2ACE SWAP3 SWAP2 SWAP1 PUSH2 0x35C7 JUMP JUMPDEST PUSH1 0x20 PUSH1 0x40 MLOAD DUP1 DUP4 SUB DUP2 PUSH1 0x0 DUP8 GAS CALL ISZERO DUP1 ISZERO PUSH2 0x2AED JUMPI RETURNDATASIZE PUSH1 0x0 DUP1 RETURNDATACOPY RETURNDATASIZE PUSH1 0x0 REVERT JUMPDEST POP POP POP POP PUSH1 0x40 MLOAD RETURNDATASIZE PUSH1 0x1F NOT PUSH1 0x1F DUP3 ADD AND DUP3 ADD DUP1 PUSH1 0x40 MSTORE POP DUP2 ADD SWAP1 PUSH2 0x2B11 SWAP2 SWAP1 PUSH2 0x35E0 JUMP JUMPDEST SWAP1 POP DUP1 ISZERO PUSH2 0x2B5D JUMPI DUP8 PUSH1 0x1 PUSH1 0x1 PUSH1 0xA0 SHL SUB AND PUSH32 0x264DD7609958FA5F21275018D225E5746D86E3FEEF8F87DCE42C6EAC9EE9D229 DUP8 PUSH1 0x40 MLOAD PUSH2 0x2B54 SWAP2 DUP2 MSTORE PUSH1 0x20 ADD SWAP1 JUMP JUMPDEST PUSH1 0x40 MLOAD DUP1 SWAP2 SUB SWAP1 LOG2 JUMPDEST POP JUMPDEST POP POP POP POP POP POP POP POP POP POP POP POP JUMP JUMPDEST PUSH1 0x0 DUP1 JUMPDEST PUSH1 0x5 DUP2 PUSH1 0xFF AND LT ISZERO PUSH2 0x2067 JUMPI DUP3 DUP2 PUSH1 0xFF AND PUSH1 0x5 DUP2 LT PUSH2 0x2B92 JUMPI PUSH2 0x2B92 PUSH2 0x35B1 JUMP JUMPDEST PUSH1 0x20 MUL ADD CALLDATALOAD DUP3 PUSH2 0x2BA2 SWAP2 SWAP1 PUSH2 0x3558 JUMP JUMPDEST SWAP2 POP PUSH1 0x3 DUP2 PUSH1 0xFF AND LT ISZERO PUSH2 0x2BD8 JUMPI DUP4 DUP2 PUSH1 0xFF AND PUSH1 0x3 DUP2 LT PUSH2 0x2BC5 JUMPI PUSH2 0x2BC5 PUSH2 0x35B1 JUMP JUMPDEST PUSH1 0x20 MUL ADD CALLDATALOAD DUP3 PUSH2 0x2BD5 SWAP2 SWAP1 PUSH2 0x3558 JUMP JUMPDEST SWAP2 POP JUMPDEST DUP1 PUSH2 0x2BE2 DUP2 PUSH2 0x387F JUMP JUMPDEST SWAP2 POP POP PUSH2 0x2B71 JUMP JUMPDEST PUSH1 0x0 DUP1 SLOAD PUSH1 0x1 PUSH1 0x1 PUSH1 0xA0 SHL SUB DUP4 DUP2 AND PUSH1 0x1 PUSH1 0x1 PUSH1 0xA0 SHL SUB NOT DUP4 AND DUP2 OR DUP5 SSTORE PUSH1 0x40 MLOAD SWAP2 SWAP1 SWAP3 AND SWAP3 DUP4 SWAP2 PUSH32 0x8BE0079C531659141344CD1FD0A4F28419497F9722A3DAAFE3B4186F6B6457E0 SWAP2 SWAP1 LOG3 POP POP JUMP JUMPDEST PUSH1 0x0 DUP2 PUSH1 0x8 ADD PUSH1 0x4 SWAP1 SLOAD SWAP1 PUSH2 0x100 EXP SWAP1 DIV PUSH1 0x1 PUSH1 0x1 PUSH1 0xA0 SHL SUB AND PUSH1 0x1 PUSH1 0x1 PUSH1 0xA0 SHL SUB AND PUSH4 0xC45A0155 PUSH1 0x40 MLOAD DUP2 PUSH4 0xFFFFFFFF AND PUSH1 0xE0 SHL DUP2 MSTORE PUSH1 0x4 ADD PUSH1 0x20 PUSH1 0x40 MLOAD DUP1 DUP4 SUB DUP2 DUP7 GAS STATICCALL ISZERO DUP1 ISZERO PUSH2 0x2C91 JUMPI RETURNDATASIZE PUSH1 0x0 DUP1 RETURNDATACOPY RETURNDATASIZE PUSH1 0x0 REVERT JUMPDEST POP POP POP POP PUSH1 0x40 MLOAD RETURNDATASIZE PUSH1 0x1F NOT PUSH1 0x1F DUP3 ADD AND DUP3 ADD DUP1 PUSH1 0x40 MSTORE POP DUP2 ADD SWAP1 PUSH2 0x2CB5 SWAP2 SWAP1 PUSH2 0x361A JUMP JUMPDEST SWAP1 POP PUSH1 0x0 DUP2 PUSH1 0x1 PUSH1 0x1 PUSH1 0xA0 SHL SUB AND PUSH4 0xE6A43905 PUSH1 0x6 PUSH1 0x0 DUP8 DUP2 MSTORE PUSH1 0x20 ADD SWAP1 DUP2 MSTORE PUSH1 0x20 ADD PUSH1 0x0 KECCAK256 PUSH1 0x0 DUP2 SLOAD DUP2 LT PUSH2 0x2CED JUMPI PUSH2 0x2CED PUSH2 0x35B1 JUMP JUMPDEST PUSH1 0x0 SWAP2 DUP3 MSTORE PUSH1 0x20 DUP1 DUP4 KECCAK256 SWAP1 SWAP2 ADD SLOAD DUP9 DUP4 MSTORE PUSH1 0x6 SWAP1 SWAP2 MSTORE PUSH1 0x40 SWAP1 SWAP2 KECCAK256 DUP1 SLOAD PUSH1 0x1 PUSH1 0x1 PUSH1 0xA0 SHL SUB SWAP1 SWAP3 AND SWAP2 PUSH1 0x1 SWAP1 DUP2 LT PUSH2 0x2D27 JUMPI PUSH2 0x2D27 PUSH2 0x35B1 JUMP JUMPDEST PUSH1 0x0 SWAP2 DUP3 MSTORE PUSH1 0x20 SWAP1 SWAP2 KECCAK256 ADD SLOAD PUSH1 0x40 MLOAD PUSH1 0xE0 DUP5 SWAP1 SHL PUSH1 0x1 PUSH1 0x1 PUSH1 0xE0 SHL SUB NOT AND DUP2 MSTORE PUSH1 0x1 PUSH1 0x1 PUSH1 0xA0 SHL SUB SWAP3 DUP4 AND PUSH1 0x4 DUP3 ADD MSTORE SWAP2 AND PUSH1 0x24 DUP3 ADD MSTORE PUSH1 0x44 ADD PUSH1 0x20 PUSH1 0x40 MLOAD DUP1 DUP4 SUB DUP2 DUP7 GAS STATICCALL ISZERO DUP1 ISZERO PUSH2 0x2D7E JUMPI RETURNDATASIZE PUSH1 0x0 DUP1 RETURNDATACOPY RETURNDATASIZE PUSH1 0x0 REVERT JUMPDEST POP POP POP POP PUSH1 0x40 MLOAD RETURNDATASIZE PUSH1 0x1F NOT PUSH1 0x1F DUP3 ADD AND DUP3 ADD DUP1 PUSH1 0x40 MSTORE POP DUP2 ADD SWAP1 PUSH2 0x2DA2 SWAP2 SWAP1 PUSH2 0x361A JUMP JUMPDEST PUSH1 0x40 MLOAD PUSH4 0x70A08231 PUSH1 0xE0 SHL DUP2 MSTORE ADDRESS PUSH1 0x4 DUP3 ADD MSTORE SWAP1 SWAP2 POP DUP2 SWAP1 PUSH1 0x0 SWAP1 PUSH1 0x1 PUSH1 0x1 PUSH1 0xA0 SHL SUB DUP4 AND SWAP1 PUSH4 0x70A08231 SWAP1 PUSH1 0x24 ADD PUSH1 0x20 PUSH1 0x40 MLOAD DUP1 DUP4 SUB DUP2 DUP7 GAS STATICCALL ISZERO DUP1 ISZERO PUSH2 0x2DEE JUMPI RETURNDATASIZE PUSH1 0x0 DUP1 RETURNDATACOPY RETURNDATASIZE PUSH1 0x0 REVERT JUMPDEST POP POP POP POP PUSH1 0x40 MLOAD RETURNDATASIZE PUSH1 0x1F NOT PUSH1 0x1F DUP3 ADD AND DUP3 ADD DUP1 PUSH1 0x40 MSTORE POP DUP2 ADD SWAP1 PUSH2 0x2E12 SWAP2 SWAP1 PUSH2 0x3529 JUMP JUMPDEST SWAP1 POP PUSH1 0x0 DUP2 GT PUSH2 0x2E21 JUMPI PUSH1 0x0 DUP1 REVERT JUMPDEST PUSH1 0x8 DUP6 ADD SLOAD PUSH1 0x40 MLOAD PUSH4 0x95EA7B3 PUSH1 0xE0 SHL DUP2 MSTORE PUSH1 0x1 PUSH1 0x1 PUSH1 0xA0 SHL SUB DUP1 DUP6 AND SWAP3 PUSH4 0x95EA7B3 SWAP3 PUSH2 0x2E5F SWAP3 PUSH1 0x1 PUSH1 0x20 SHL SWAP1 SWAP3 DIV SWAP1 SWAP2 AND SWAP1 DUP6 SWAP1 PUSH1 0x4 ADD PUSH2 0x35C7 JUMP JUMPDEST PUSH1 0x20 PUSH1 0x40 MLOAD DUP1 DUP4 SUB DUP2 PUSH1 0x0 DUP8 GAS CALL ISZERO DUP1 ISZERO PUSH2 0x2E7E JUMPI RETURNDATASIZE PUSH1 0x0 DUP1 RETURNDATACOPY RETURNDATASIZE PUSH1 0x0 REVERT JUMPDEST POP POP POP POP PUSH1 0x40 MLOAD RETURNDATASIZE PUSH1 0x1F NOT PUSH1 0x1F DUP3 ADD AND DUP3 ADD DUP1 PUSH1 0x40 MSTORE POP DUP2 ADD SWAP1 PUSH2 0x2EA2 SWAP2 SWAP1 PUSH2 0x35E0 JUMP JUMPDEST POP POP POP POP POP POP POP JUMP JUMPDEST PUSH1 0x0 PUSH1 0x60 PUSH1 0x0 PUSH1 0x3 PUSH1 0x0 SWAP1 SLOAD SWAP1 PUSH2 0x100 EXP SWAP1 DIV PUSH1 0x1 PUSH1 0x1 PUSH1 0xA0 SHL SUB AND PUSH1 0x1 PUSH1 0x1 PUSH1 0xA0 SHL SUB AND PUSH4 0xAD5C4648 PUSH1 0x40 MLOAD DUP2 PUSH4 0xFFFFFFFF AND PUSH1 0xE0 SHL DUP2 MSTORE PUSH1 0x4 ADD PUSH1 0x20 PUSH1 0x40 MLOAD DUP1 DUP4 SUB DUP2 DUP7 GAS STATICCALL ISZERO DUP1 ISZERO PUSH2 0x2F04 JUMPI RETURNDATASIZE PUSH1 0x0 DUP1 RETURNDATACOPY RETURNDATASIZE PUSH1 0x0 REVERT JUMPDEST POP POP POP POP PUSH1 0x40 MLOAD RETURNDATASIZE PUSH1 0x1F NOT PUSH1 0x1F DUP3 ADD AND DUP3 ADD DUP1 PUSH1 0x40 MSTORE POP DUP2 ADD SWAP1 PUSH2 0x2F28 SWAP2 SWAP1 PUSH2 0x361A JUMP JUMPDEST PUSH1 0x1 PUSH1 0x1 PUSH1 0xA0 SHL SUB AND PUSH1 0x6 PUSH1 0x0 DUP7 DUP2 MSTORE PUSH1 0x20 ADD SWAP1 DUP2 MSTORE PUSH1 0x20 ADD PUSH1 0x0 KECCAK256 PUSH1 0x0 DUP2 SLOAD DUP2 LT PUSH2 0x2F56 JUMPI PUSH2 0x2F56 PUSH2 0x35B1 JUMP JUMPDEST PUSH1 0x0 SWAP2 DUP3 MSTORE PUSH1 0x20 SWAP1 SWAP2 KECCAK256 ADD SLOAD PUSH1 0x1 PUSH1 0x1 PUSH1 0xA0 SHL SUB AND EQ PUSH2 0x302C JUMPI PUSH1 0x0 DUP5 DUP2 MSTORE PUSH1 0x6 PUSH1 0x20 MSTORE PUSH1 0x40 DUP2 KECCAK256 DUP1 SLOAD SWAP1 SWAP2 SWAP1 PUSH2 0x2F8F JUMPI PUSH2 0x2F8F PUSH2 0x35B1 JUMP JUMPDEST PUSH1 0x0 SWAP2 DUP3 MSTORE PUSH1 0x20 DUP1 DUP4 KECCAK256 SWAP1 SWAP2 ADD SLOAD DUP7 DUP4 MSTORE PUSH1 0x7 DUP3 MSTORE PUSH1 0x40 SWAP3 DUP4 SWAP1 KECCAK256 DUP1 SLOAD DUP5 MLOAD DUP2 DUP6 MUL DUP2 ADD DUP6 ADD SWAP1 SWAP6 MSTORE DUP1 DUP6 MSTORE PUSH1 0x1 PUSH1 0x1 PUSH1 0xA0 SHL SUB SWAP1 SWAP3 AND SWAP7 POP SWAP2 DUP4 ADD DUP3 DUP3 DUP1 ISZERO PUSH2 0x3002 JUMPI PUSH1 0x20 MUL DUP3 ADD SWAP2 SWAP1 PUSH1 0x0 MSTORE PUSH1 0x20 PUSH1 0x0 KECCAK256 SWAP1 JUMPDEST DUP2 SLOAD PUSH1 0x1 PUSH1 0x1 PUSH1 0xA0 SHL SUB AND DUP2 MSTORE PUSH1 0x1 SWAP1 SWAP2 ADD SWAP1 PUSH1 0x20 ADD DUP1 DUP4 GT PUSH2 0x2FE4 JUMPI JUMPDEST POP POP POP PUSH1 0x0 DUP8 DUP2 MSTORE PUSH1 0x5 PUSH1 0x20 MSTORE PUSH1 0x40 SWAP1 KECCAK256 PUSH1 0x8 ADD SLOAD SWAP3 SWAP5 POP POP POP PUSH3 0x10000 SWAP1 DIV PUSH1 0xFF AND SWAP1 POP PUSH2 0x30C8 JUMP JUMPDEST PUSH1 0x0 DUP5 DUP2 MSTORE PUSH1 0x6 PUSH1 0x20 MSTORE PUSH1 0x40 SWAP1 KECCAK256 DUP1 SLOAD PUSH1 0x1 SWAP1 DUP2 LT PUSH2 0x304D JUMPI PUSH2 0x304D PUSH2 0x35B1 JUMP JUMPDEST PUSH1 0x0 SWAP2 DUP3 MSTORE PUSH1 0x20 DUP1 DUP4 KECCAK256 SWAP1 SWAP2 ADD SLOAD DUP7 DUP4 MSTORE PUSH1 0x8 DUP3 MSTORE PUSH1 0x40 SWAP3 DUP4 SWAP1 KECCAK256 DUP1 SLOAD DUP5 MLOAD DUP2 DUP6 MUL DUP2 ADD DUP6 ADD SWAP1 SWAP6 MSTORE DUP1 DUP6 MSTORE PUSH1 0x1 PUSH1 0x1 PUSH1 0xA0 SHL SUB SWAP1 SWAP3 AND SWAP7 POP SWAP2 DUP4 ADD DUP3 DUP3 DUP1 ISZERO PUSH2 0x30C0 JUMPI PUSH1 0x20 MUL DUP3 ADD SWAP2 SWAP1 PUSH1 0x0 MSTORE PUSH1 0x20 PUSH1 0x0 KECCAK256 SWAP1 JUMPDEST DUP2 SLOAD PUSH1 0x1 PUSH1 0x1 PUSH1 0xA0 SHL SUB AND DUP2 MSTORE PUSH1 0x1 SWAP1 SWAP2 ADD SWAP1 PUSH1 0x20 ADD DUP1 DUP4 GT PUSH2 0x30A2 JUMPI JUMPDEST POP POP POP POP POP SWAP2 POP JUMPDEST SWAP2 SWAP4 SWAP1 SWAP3 POP JUMP JUMPDEST DUP3 PUSH1 0x3 DUP2 ADD SWAP3 DUP3 ISZERO PUSH2 0x30FD JUMPI SWAP2 PUSH1 0x20 MUL DUP3 ADD JUMPDEST DUP3 DUP2 GT ISZERO PUSH2 0x30FD JUMPI DUP3 MLOAD DUP3 SSTORE SWAP2 PUSH1 0x20 ADD SWAP2 SWAP1 PUSH1 0x1 ADD SWAP1 PUSH2 0x30E2 JUMP JUMPDEST POP PUSH2 0x3109 SWAP3 SWAP2 POP PUSH2 0x318D JUMP JUMPDEST POP SWAP1 JUMP JUMPDEST DUP3 PUSH1 0x5 DUP2 ADD SWAP3 DUP3 ISZERO PUSH2 0x30FD JUMPI SWAP2 PUSH1 0x20 MUL DUP3 ADD DUP3 DUP2 GT ISZERO PUSH2 0x30FD JUMPI DUP3 MLOAD DUP3 SSTORE SWAP2 PUSH1 0x20 ADD SWAP2 SWAP1 PUSH1 0x1 ADD SWAP1 PUSH2 0x30E2 JUMP JUMPDEST DUP3 DUP1 SLOAD DUP3 DUP3 SSTORE SWAP1 PUSH1 0x0 MSTORE PUSH1 0x20 PUSH1 0x0 KECCAK256 SWAP1 DUP2 ADD SWAP3 DUP3 ISZERO PUSH2 0x30FD JUMPI SWAP2 PUSH1 0x20 MUL DUP3 ADD JUMPDEST DUP3 DUP2 GT ISZERO PUSH2 0x30FD JUMPI DUP2 SLOAD PUSH1 0x1 PUSH1 0x1 PUSH1 0xA0 SHL SUB NOT AND PUSH1 0x1 PUSH1 0x1 PUSH1 0xA0 SHL SUB DUP5 CALLDATALOAD AND OR DUP3 SSTORE PUSH1 0x20 SWAP1 SWAP3 ADD SWAP2 PUSH1 0x1 SWAP1 SWAP2 ADD SWAP1 PUSH2 0x315A JUMP JUMPDEST JUMPDEST DUP1 DUP3 GT ISZERO PUSH2 0x3109 JUMPI PUSH1 0x0 DUP2 SSTORE PUSH1 0x1 ADD PUSH2 0x318E JUMP JUMPDEST PUSH1 0x1 PUSH1 0x1 PUSH1 0xA0 SHL SUB DUP2 AND DUP2 EQ PUSH2 0x16C1 JUMPI PUSH1 0x0 DUP1 REVERT JUMPDEST DUP1 CALLDATALOAD PUSH2 0x31C2 DUP2 PUSH2 0x31A2 JUMP JUMPDEST SWAP2 SWAP1 POP JUMP JUMPDEST PUSH1 0x0 PUSH1 0x20 DUP3 DUP5 SUB SLT ISZERO PUSH2 0x31D9 JUMPI PUSH1 0x0 DUP1 REVERT JUMPDEST DUP2 CALLDATALOAD PUSH2 0x31E4 DUP2 PUSH2 0x31A2 JUMP JUMPDEST SWAP4 SWAP3 POP POP POP JUMP JUMPDEST DUP1 ISZERO ISZERO DUP2 EQ PUSH2 0x16C1 JUMPI PUSH1 0x0 DUP1 REVERT JUMPDEST PUSH1 0x0 DUP1 PUSH1 0x40 DUP4 DUP6 SUB SLT ISZERO PUSH2 0x320C JUMPI PUSH1 0x0 DUP1 REVERT JUMPDEST DUP3 CALLDATALOAD PUSH2 0x3217 DUP2 PUSH2 0x31A2 JUMP JUMPDEST SWAP2 POP PUSH1 0x20 DUP4 ADD CALLDATALOAD PUSH2 0x3227 DUP2 PUSH2 0x31EB JUMP JUMPDEST DUP1 SWAP2 POP POP SWAP3 POP SWAP3 SWAP1 POP JUMP JUMPDEST PUSH1 0x0 PUSH1 0x20 DUP3 DUP5 SUB SLT ISZERO PUSH2 0x3244 JUMPI PUSH1 0x0 DUP1 REVERT JUMPDEST POP CALLDATALOAD SWAP2 SWAP1 POP JUMP JUMPDEST PUSH1 0x0 DUP1 PUSH1 0x40 DUP4 DUP6 SUB SLT ISZERO PUSH2 0x325E JUMPI PUSH1 0x0 DUP1 REVERT JUMPDEST POP POP DUP1 CALLDATALOAD SWAP3 PUSH1 0x20 SWAP1 SWAP2 ADD CALLDATALOAD SWAP2 POP JUMP JUMPDEST DUP1 PUSH1 0x60 DUP2 ADD DUP4 LT ISZERO PUSH2 0x2069 JUMPI PUSH1 0x0 DUP1 REVERT JUMPDEST DUP1 PUSH1 0xA0 DUP2 ADD DUP4 LT ISZERO PUSH2 0x2069 JUMPI PUSH1 0x0 DUP1 REVERT JUMPDEST PUSH1 0x0 DUP1 DUP4 PUSH1 0x1F DUP5 ADD SLT PUSH2 0x32A1 JUMPI PUSH1 0x0 DUP1 REVERT JUMPDEST POP DUP2 CALLDATALOAD PUSH8 0xFFFFFFFFFFFFFFFF DUP2 GT ISZERO PUSH2 0x32B9 JUMPI PUSH1 0x0 DUP1 REVERT JUMPDEST PUSH1 0x20 DUP4 ADD SWAP2 POP DUP4 PUSH1 0x20 DUP3 PUSH1 0x5 SHL DUP6 ADD ADD GT ISZERO PUSH2 0x32D4 JUMPI PUSH1 0x0 DUP1 REVERT JUMPDEST SWAP3 POP SWAP3 SWAP1 POP JUMP JUMPDEST PUSH1 0x0 DUP1 PUSH1 0x0 DUP1 PUSH1 0x0 DUP1 PUSH1 0x0 DUP1 PUSH1 0x0 DUP1 PUSH1 0x0 PUSH2 0x200 DUP13 DUP15 SUB SLT ISZERO PUSH2 0x32FD JUMPI PUSH1 0x0 DUP1 REVERT JUMPDEST DUP12 CALLDATALOAD SWAP11 POP PUSH2 0x330E DUP14 PUSH1 0x20 DUP15 ADD PUSH2 0x326D JUMP JUMPDEST SWAP10 POP PUSH2 0x331D DUP14 PUSH1 0x80 DUP15 ADD PUSH2 0x327E JUMP JUMPDEST SWAP9 POP PUSH2 0x332D DUP14 PUSH2 0x120 DUP15 ADD PUSH2 0x326D JUMP JUMPDEST SWAP8 POP PUSH2 0x333C PUSH2 0x180 DUP14 ADD PUSH2 0x31B7 JUMP JUMPDEST SWAP7 POP PUSH8 0xFFFFFFFFFFFFFFFF DUP1 PUSH2 0x1A0 DUP15 ADD CALLDATALOAD GT ISZERO PUSH2 0x3359 JUMPI PUSH1 0x0 DUP1 REVERT JUMPDEST PUSH2 0x336A DUP15 PUSH2 0x1A0 DUP16 ADD CALLDATALOAD DUP16 ADD PUSH2 0x328F JUMP JUMPDEST SWAP1 SWAP8 POP SWAP6 POP PUSH2 0x1C0 DUP14 ADD CALLDATALOAD DUP2 LT ISZERO PUSH2 0x3381 JUMPI PUSH1 0x0 DUP1 REVERT JUMPDEST PUSH2 0x3392 DUP15 PUSH2 0x1C0 DUP16 ADD CALLDATALOAD DUP16 ADD PUSH2 0x328F JUMP JUMPDEST SWAP1 SWAP6 POP SWAP4 POP PUSH2 0x1E0 DUP14 ADD CALLDATALOAD DUP2 LT ISZERO PUSH2 0x33A9 JUMPI PUSH1 0x0 DUP1 REVERT JUMPDEST POP PUSH2 0x33BB DUP14 PUSH2 0x1E0 DUP15 ADD CALLDATALOAD DUP15 ADD PUSH2 0x328F JUMP JUMPDEST DUP2 SWAP4 POP DUP1 SWAP3 POP POP POP SWAP3 SWAP6 SWAP9 SWAP12 POP SWAP3 SWAP6 SWAP9 SWAP12 SWAP1 SWAP4 SWAP7 SWAP10 POP JUMP JUMPDEST PUSH1 0x0 DUP1 PUSH1 0x0 DUP1 PUSH1 0x0 DUP1 PUSH1 0x0 PUSH1 0x80 DUP9 DUP11 SUB SLT ISZERO PUSH2 0x33EE JUMPI PUSH1 0x0 DUP1 REVERT JUMPDEST DUP8 CALLDATALOAD SWAP7 POP PUSH1 0x20 DUP9 ADD CALLDATALOAD PUSH8 0xFFFFFFFFFFFFFFFF DUP1 DUP3 GT ISZERO PUSH2 0x340D JUMPI PUSH1 0x0 DUP1 REVERT JUMPDEST PUSH2 0x3419 DUP12 DUP4 DUP13 ADD PUSH2 0x328F JUMP JUMPDEST SWAP1 SWAP9 POP SWAP7 POP PUSH1 0x40 DUP11 ADD CALLDATALOAD SWAP2 POP DUP1 DUP3 GT ISZERO PUSH2 0x3432 JUMPI PUSH1 0x0 DUP1 REVERT JUMPDEST PUSH2 0x343E DUP12 DUP4 DUP13 ADD PUSH2 0x328F JUMP JUMPDEST SWAP1 SWAP7 POP SWAP5 POP PUSH1 0x60 DUP11 ADD CALLDATALOAD SWAP2 POP DUP1 DUP3 GT ISZERO PUSH2 0x3457 JUMPI PUSH1 0x0 DUP1 REVERT JUMPDEST POP PUSH2 0x3464 DUP11 DUP3 DUP12 ADD PUSH2 0x328F JUMP JUMPDEST SWAP9 SWAP12 SWAP8 SWAP11 POP SWAP6 SWAP9 POP SWAP4 SWAP7 SWAP3 SWAP6 SWAP3 SWAP4 POP POP POP JUMP JUMPDEST PUSH1 0x0 DUP2 MLOAD DUP1 DUP5 MSTORE PUSH1 0x20 DUP1 DUP6 ADD SWAP5 POP DUP1 DUP5 ADD PUSH1 0x0 JUMPDEST DUP4 DUP2 LT ISZERO PUSH2 0x34B0 JUMPI DUP2 MLOAD PUSH1 0x1 PUSH1 0x1 PUSH1 0xA0 SHL SUB AND DUP8 MSTORE SWAP6 DUP3 ADD SWAP6 SWAP1 DUP3 ADD SWAP1 PUSH1 0x1 ADD PUSH2 0x348B JUMP JUMPDEST POP SWAP5 SWAP6 SWAP5 POP POP POP POP POP JUMP JUMPDEST PUSH1 0x60 DUP2 MSTORE PUSH1 0x0 PUSH2 0x34CE PUSH1 0x60 DUP4 ADD DUP7 PUSH2 0x3477 JUMP JUMPDEST DUP3 DUP2 SUB PUSH1 0x20 DUP5 ADD MSTORE PUSH2 0x34E0 DUP2 DUP7 PUSH2 0x3477 JUMP JUMPDEST SWAP1 POP DUP3 DUP2 SUB PUSH1 0x40 DUP5 ADD MSTORE PUSH2 0x263D DUP2 DUP6 PUSH2 0x3477 JUMP JUMPDEST PUSH1 0x20 DUP1 DUP3 MSTORE DUP2 DUP2 ADD MSTORE PUSH32 0x4F776E61626C653A2063616C6C6572206973206E6F7420746865206F776E6572 PUSH1 0x40 DUP3 ADD MSTORE PUSH1 0x60 ADD SWAP1 JUMP JUMPDEST PUSH1 0x0 PUSH1 0x20 DUP3 DUP5 SUB SLT ISZERO PUSH2 0x353B JUMPI PUSH1 0x0 DUP1 REVERT JUMPDEST POP MLOAD SWAP2 SWAP1 POP JUMP JUMPDEST PUSH4 0x4E487B71 PUSH1 0xE0 SHL PUSH1 0x0 MSTORE PUSH1 0x11 PUSH1 0x4 MSTORE PUSH1 0x24 PUSH1 0x0 REVERT JUMPDEST PUSH1 0x0 DUP3 NOT DUP3 GT ISZERO PUSH2 0x356B JUMPI PUSH2 0x356B PUSH2 0x3542 JUMP JUMPDEST POP ADD SWAP1 JUMP JUMPDEST PUSH1 0x0 DUP2 PUSH1 0x0 NOT DIV DUP4 GT DUP3 ISZERO ISZERO AND ISZERO PUSH2 0x358A JUMPI PUSH2 0x358A PUSH2 0x3542 JUMP JUMPDEST POP MUL SWAP1 JUMP JUMPDEST PUSH1 0x0 DUP3 PUSH2 0x35AC JUMPI PUSH4 0x4E487B71 PUSH1 0xE0 SHL PUSH1 0x0 MSTORE PUSH1 0x12 PUSH1 0x4 MSTORE PUSH1 0x24 PUSH1 0x0 REVERT JUMPDEST POP DIV SWAP1 JUMP JUMPDEST PUSH4 0x4E487B71 PUSH1 0xE0 SHL PUSH1 0x0 MSTORE PUSH1 0x32 PUSH1 0x4 MSTORE PUSH1 0x24 PUSH1 0x0 REVERT JUMPDEST PUSH1 0x1 PUSH1 0x1 PUSH1 0xA0 SHL SUB SWAP3 SWAP1 SWAP3 AND DUP3 MSTORE PUSH1 0x20 DUP3 ADD MSTORE PUSH1 0x40 ADD SWAP1 JUMP JUMPDEST PUSH1 0x0 PUSH1 0x20 DUP3 DUP5 SUB SLT ISZERO PUSH2 0x35F2 JUMPI PUSH1 0x0 DUP1 REVERT JUMPDEST DUP2 MLOAD PUSH2 0x31E4 DUP2 PUSH2 0x31EB JUMP JUMPDEST PUSH1 0x0 PUSH1 0x20 DUP3 DUP5 SUB SLT ISZERO PUSH2 0x360F JUMPI PUSH1 0x0 DUP1 REVERT JUMPDEST DUP2 CALLDATALOAD PUSH2 0x31E4 DUP2 PUSH2 0x31EB JUMP JUMPDEST PUSH1 0x0 PUSH1 0x20 DUP3 DUP5 SUB SLT ISZERO PUSH2 0x362C JUMPI PUSH1 0x0 DUP1 REVERT JUMPDEST DUP2 MLOAD PUSH2 0x31E4 DUP2 PUSH2 0x31A2 JUMP JUMPDEST PUSH1 0x1 PUSH1 0x1 PUSH1 0xA0 SHL SUB SWAP7 DUP8 AND DUP2 MSTORE PUSH1 0x20 DUP2 ADD SWAP6 SWAP1 SWAP6 MSTORE PUSH1 0x40 DUP6 ADD SWAP4 SWAP1 SWAP4 MSTORE PUSH1 0x60 DUP5 ADD SWAP2 SWAP1 SWAP2 MSTORE SWAP1 SWAP3 AND PUSH1 0x80 DUP3 ADD MSTORE PUSH1 0xA0 DUP2 ADD SWAP2 SWAP1 SWAP2 MSTORE PUSH1 0xC0 ADD SWAP1 JUMP JUMPDEST PUSH1 0x0 DUP1 PUSH1 0x40 DUP4 DUP6 SUB SLT ISZERO PUSH2 0x3685 JUMPI PUSH1 0x0 DUP1 REVERT JUMPDEST POP POP DUP1 MLOAD PUSH1 0x20 SWAP1 SWAP2 ADD MLOAD SWAP1 SWAP3 SWAP1 SWAP2 POP JUMP JUMPDEST DUP6 DUP2 MSTORE DUP5 PUSH1 0x20 DUP3 ADD MSTORE PUSH1 0xA0 PUSH1 0x40 DUP3 ADD MSTORE PUSH1 0x0 PUSH2 0x36B5 PUSH1 0xA0 DUP4 ADD DUP7 PUSH2 0x3477 JUMP JUMPDEST PUSH1 0x1 PUSH1 0x1 PUSH1 0xA0 SHL SUB SWAP5 SWAP1 SWAP5 AND PUSH1 0x60 DUP4 ADD MSTORE POP PUSH1 0x80 ADD MSTORE SWAP4 SWAP3 POP POP POP JUMP JUMPDEST PUSH4 0x4E487B71 PUSH1 0xE0 SHL PUSH1 0x0 MSTORE PUSH1 0x41 PUSH1 0x4 MSTORE PUSH1 0x24 PUSH1 0x0 REVERT JUMPDEST PUSH1 0x0 PUSH1 0x20 DUP1 DUP4 DUP6 SUB SLT ISZERO PUSH2 0x36FB JUMPI PUSH1 0x0 DUP1 REVERT JUMPDEST DUP3 MLOAD PUSH8 0xFFFFFFFFFFFFFFFF DUP1 DUP3 GT ISZERO PUSH2 0x3713 JUMPI PUSH1 0x0 DUP1 REVERT JUMPDEST DUP2 DUP6 ADD SWAP2 POP DUP6 PUSH1 0x1F DUP4 ADD SLT PUSH2 0x3727 JUMPI PUSH1 0x0 DUP1 REVERT JUMPDEST DUP2 MLOAD DUP2 DUP2 GT ISZERO PUSH2 0x3739 JUMPI PUSH2 0x3739 PUSH2 0x36D2 JUMP JUMPDEST DUP1 PUSH1 0x5 SHL PUSH1 0x40 MLOAD PUSH1 0x1F NOT PUSH1 0x3F DUP4 ADD AND DUP2 ADD DUP2 DUP2 LT DUP6 DUP3 GT OR ISZERO PUSH2 0x375E JUMPI PUSH2 0x375E PUSH2 0x36D2 JUMP JUMPDEST PUSH1 0x40 MSTORE SWAP2 DUP3 MSTORE DUP5 DUP3 ADD SWAP3 POP DUP4 DUP2 ADD DUP6 ADD SWAP2 DUP9 DUP4 GT ISZERO PUSH2 0x377C JUMPI PUSH1 0x0 DUP1 REVERT JUMPDEST SWAP4 DUP6 ADD SWAP4 JUMPDEST DUP3 DUP6 LT ISZERO PUSH2 0x379A JUMPI DUP5 MLOAD DUP5 MSTORE SWAP4 DUP6 ADD SWAP4 SWAP3 DUP6 ADD SWAP3 PUSH2 0x3781 JUMP JUMPDEST SWAP9 SWAP8 POP POP POP POP POP POP POP POP JUMP JUMPDEST PUSH1 0x0 PUSH1 0xA0 DUP3 ADD DUP8 DUP4 MSTORE PUSH1 0x20 DUP8 DUP2 DUP6 ADD MSTORE PUSH1 0xA0 PUSH1 0x40 DUP6 ADD MSTORE DUP2 DUP8 SLOAD DUP1 DUP5 MSTORE PUSH1 0xC0 DUP7 ADD SWAP2 POP DUP9 PUSH1 0x0 MSTORE DUP3 PUSH1 0x0 KECCAK256 SWAP4 POP PUSH1 0x0 JUMPDEST DUP2 DUP2 LT ISZERO PUSH2 0x37FB JUMPI DUP5 SLOAD PUSH1 0x1 PUSH1 0x1 PUSH1 0xA0 SHL SUB AND DUP4 MSTORE PUSH1 0x1 SWAP5 DUP6 ADD SWAP5 SWAP3 DUP5 ADD SWAP3 ADD PUSH2 0x37D6 JUMP JUMPDEST POP POP PUSH1 0x1 PUSH1 0x1 PUSH1 0xA0 SHL SUB SWAP7 SWAP1 SWAP7 AND PUSH1 0x60 DUP6 ADD MSTORE POP POP POP PUSH1 0x80 ADD MSTORE SWAP4 SWAP3 POP POP POP JUMP JUMPDEST DUP5 DUP2 MSTORE PUSH1 0x80 PUSH1 0x20 DUP3 ADD MSTORE PUSH1 0x0 PUSH2 0x3835 PUSH1 0x80 DUP4 ADD DUP7 PUSH2 0x3477 JUMP JUMPDEST PUSH1 0x1 PUSH1 0x1 PUSH1 0xA0 SHL SUB SWAP5 SWAP1 SWAP5 AND PUSH1 0x40 DUP4 ADD MSTORE POP PUSH1 0x60 ADD MSTORE SWAP3 SWAP2 POP POP JUMP JUMPDEST PUSH1 0x0 DUP1 PUSH1 0x0 PUSH1 0x60 DUP5 DUP7 SUB SLT ISZERO PUSH2 0x3866 JUMPI PUSH1 0x0 DUP1 REVERT JUMPDEST DUP4 MLOAD SWAP3 POP PUSH1 0x20 DUP5 ADD MLOAD SWAP2 POP PUSH1 0x40 DUP5 ADD MLOAD SWAP1 POP SWAP3 POP SWAP3 POP SWAP3 JUMP JUMPDEST PUSH1 0x0 PUSH1 0xFF DUP3 AND PUSH1 0xFF DUP2 EQ ISZERO PUSH2 0x3896 JUMPI PUSH2 0x3896 PUSH2 0x3542 JUMP JUMPDEST PUSH1 0x1 ADD SWAP3 SWAP2 POP POP JUMP INVALID LOG2 PUSH5 0x6970667358 0x22 SLT KECCAK256 SHL 0x23 0xE6 SHR 0xCB 0xC7 PUSH10 0x779979D49D0384E580E5 0xDF SWAP5 DUP8 DUP9 0x24 0x23 0xAB RETURNDATASIZE DUP14 0xD0 0x4D 0x4E LOG4 0xE1 PUSH9 0x64736F6C634300080C STOP CALLER ","sha1":"9c3a69896f85b39133f027b86cda6fe6b46d2155","source":"// SPDX-License-Identifier: MIT\n\npragma solidity 0.8.12;\n\nimport \"@openzeppelin/contracts/access/Ownable.sol\";\nimport \"../interfaces/INICEToken.sol\";\nimport \"../interfaces/IPancakeRouter.sol\";\nimport \"../interfaces/IPancakeFactory.sol\";\nimport \"../interfaces/ILottery.sol\";\nimport \"../interfaces/IBankroll.sol\";\nimport \"./GalacticChef.sol\";\n\ncontract FeeDistributorV3 is Ownable {\n    struct FeeData {\n        /** Fees in array are as follows [CRUSH] [NICE]\n         * [0][0](bbb) Buy back and Burn (NICE | CRUSH) CHECK THAT SELECTED TOKEN HAS BEEN BURNED IN TOKEN CONTRACT REVISAR TOTAL SUPPLY\n         * [1](bbd) Buy back and DISTRIBUTE (CRUSH) SENDS CRUSH TO BANKSTAKING\n         * [2](bbl) Buy back and LOTTERY (CRUSH) SENDS CRUSH TO LOTTERY POOL\n         * [3][1](lqPermanent) PERMANENT LIQUIDITY (NICE | CRUSH)/BNB\n         * [4][2](lqLock) LOCKED LIQUIDITY (NICE | CRUSH)/BNB\n         * 0-4 need to be <= 100% Whatever is left, we send to marketing wallet\n         * REST - MARKETING FUNDS -> BNB\n         **/\n        uint256[3] niceFees;\n        uint256[5] crushFees;\n        bool initialized; // Fail transactions where fees have not been added\n        bool hasFees; // If token charges fees on transfers need to use swapTokensForEthSupportingFeesOnTransferToken function instead\n        bool token0Fees; // FOR LP IN CASE IT HAS FEES\n        bool token1Fees; // FOR LP IN CASE ITS TOKEN HAS FEES\n        /**\n            if it's an LP token we need to remove that Liquidity\n            else it's a Single asset token and have to swap it for core ETH (BNB)\n            before buying anything else.\n        **/\n        IPancakeRouter router; // main router for this token\n    }\n\n    uint256 public constant DIVISOR = 10000; // 100.00%\n\n    INICEToken public immutable crush;\n    INICEToken public immutable nice;\n    address public immutable deadWallet =\n        0x000000000000000000000000000000000000dEaD;\n    address public immutable chef;\n    address public immutable lockWallet;\n    address public immutable bankroll;\n    address public marketingWallet;\n    address public lottery;\n    IPancakeRouter public routerCrush;\n    IPancakeRouter public routerNice;\n\n    mapping(uint256 => FeeData) public feeData;\n    mapping(uint256 => address[]) public tokenPath; // token Composition if SingleAsset length = 1, if LP length = 2\n    mapping(uint256 => address[]) public token0Path; // LP TOKEN 0 TO WBNB\n    mapping(uint256 => address[]) public token1Path; // LP TOKEN 1 TO WBNB\n\n    event EditFeeOfPool(uint256 _pid);\n    event LockLiquidity(address indexed _burnToken, uint256 _amount);\n    event BurnLiquidity(address indexed _burnToken, uint256 _amount);\n    event UpdateLottery(address _newLottery, address _oldLottery);\n    event UpdateMarketing(address _newWallet, address _oldWallet);\n    event FundMarketing(address indexed _wallet, uint256 amount);\n    event UpdateRouter(\n        address _newRouter,\n        address _oldRouter,\n        bool _niceRouter\n    );\n\n    constructor(\n        address _router,\n        address _nice,\n        address _crush,\n        address _chef,\n        address _lock,\n        address _bankroll,\n        address _marketing\n    ) {\n        crush = INICEToken(_crush);\n        nice = INICEToken(_nice);\n\n        chef = _chef;\n        lockWallet = _lock;\n        bankroll = _bankroll;\n        marketingWallet = _marketing;\n        routerCrush = IPancakeRouter(_router);\n        routerNice = IPancakeRouter(_router);\n    }\n\n    receive() external payable {}\n\n    fallback() external payable {}\n\n    /// @notice Swaps amount of BNB to CRUSH or NICE\n    /// @param _bnb the amount of BNB to swap\n    /// @param isNice selects between NICE and CRUSH\n    /// @return _tokenReceived amount of token that is available now\n    function swapForToken(uint256 _bnb, bool isNice)\n        internal\n        returns (uint256 _tokenReceived)\n    {\n        require(_bnb <= address(this).balance); // dev: ETH balance doesn't match available balance\n        address[] memory path = new address[](2);\n        INICEToken token = isNice ? nice : crush;\n        IPancakeRouter router = isNice ? routerNice : routerCrush;\n        path[0] = router.WETH();\n        path[1] = address(token);\n        router.swapExactETHForTokens{value: _bnb}(\n            0, // We get what we can\n            path,\n            address(this),\n            block.timestamp\n        );\n        _tokenReceived = token.balanceOf(address(this));\n    }\n\n    function addorEditFee(\n        uint256 _pid, //ID TO ADD/EDIT\n        uint256[3] calldata _niceFees, // 0 buyback BURN, 1 buyback DISTRIBUTE, 2 buyback LOTTERY, 3 liquidity PERMANENT, 4 liquidity LOCK\n        uint256[5] calldata _crushFees, // 0 buyback BURN, 1 buyback DISTRIBUTE, 2 buyback LOTTERY, 3 liquidity PERMANENT, 4 liquidity LOCK\n        bool[3] calldata hasFees, // 0 token has Fees, 1 token0 has fees, 2 token1 has fees\n        address router, //swap router address\n        // If is LP -> tokenAddresses that compose the pair CRUSH/BUSD -> [ CRUSH_ADDRESS, BUSD_ADDRESS]\n        // If ERC20 token [ CRUSH_ADDRESS, wBNB] -> Path to ETH\n        address[] calldata _tokens,\n        address[] calldata _token0Path, // LP TOKEN 0 PATH TO wBNB\n        address[] calldata _token1Path // LP TOKEN 1 PATH to wBNB\n    ) external onlyOwner {\n        require(\n            addArrays(_niceFees, _crushFees) <= DIVISOR,\n            \"Incorrect Fee distribution\"\n        );\n        require(router != address(0), \"Incorrect Router\");\n        require(_tokens.length > 0, \"need a path to base\");\n        feeData[_pid] = FeeData(\n            _niceFees,\n            _crushFees,\n            true,\n            hasFees[0],\n            hasFees[1],\n            hasFees[2],\n            IPancakeRouter(router)\n        );\n        updatePaths(_pid, _tokens, _token0Path, _token1Path);\n        emit EditFeeOfPool(_pid);\n    }\n\n    /// @notice from the POOL ID check which token is wETH and return the other one\n    /// @param _pid the Pool ID token path to check\n    function getNotEthToken(uint256 _pid)\n        internal\n        view\n        returns (\n            INICEToken token,\n            address[] memory path,\n            bool hasFees\n        )\n    {\n        if (tokenPath[_pid][0] != routerCrush.WETH()) {\n            token = INICEToken(tokenPath[_pid][0]);\n            path = token0Path[_pid];\n            hasFees = feeData[_pid].token0Fees;\n        } else {\n            token = INICEToken(tokenPath[_pid][1]);\n            path = token1Path[_pid];\n        }\n    }\n\n    /// @notice Remove Liquidity from pair token and swap for ETH\n    /// @param _pid Pool ID  to get token Path\n    function removeLiquidityAndSwapETH(uint256 _pid, uint256 amount)\n        internal\n        returns (uint256)\n    {\n        FeeData storage feeInfo = feeData[_pid];\n        approveLiquiditySpend(_pid, feeInfo);\n\n        // SWAP WITH ONE TOKEN ALREADY WETH\n        if (\n            tokenPath[_pid][0] == routerNice.WETH() ||\n            tokenPath[_pid][1] == routerNice.WETH()\n        ) {\n            INICEToken nonEthToken;\n            address[] memory path;\n            bool tokenFees;\n            (nonEthToken, path, tokenFees) = getNotEthToken(_pid);\n            if (feeInfo.hasFees)\n                feeInfo.router.removeLiquidityETHSupportingFeeOnTransferTokens(\n                    address(nonEthToken),\n                    amount,\n                    0,\n                    0,\n                    address(this),\n                    block.timestamp\n                );\n            else\n                feeInfo.router.removeLiquidityETH(\n                    address(nonEthToken),\n                    amount,\n                    0,\n                    0,\n                    address(this),\n                    block.timestamp\n                );\n            uint256 tokensLeft = nonEthToken.balanceOf(address(this));\n            nonEthToken.approve(address(feeInfo.router), tokensLeft);\n            if (tokenFees) {\n                feeInfo\n                    .router\n                    .swapExactTokensForETHSupportingFeeOnTransferTokens(\n                        tokensLeft,\n                        0,\n                        path,\n                        address(this),\n                        block.timestamp\n                    );\n            } else {\n                feeInfo.router.swapExactTokensForETH(\n                    tokensLeft,\n                    0,\n                    path,\n                    address(this),\n                    block.timestamp\n                );\n            }\n        }\n        // SWAP WITH NO TOKENS BEING WETH\n        else {\n            (uint256 tokenA, uint256 tokenB) = feeInfo.router.removeLiquidity(\n                tokenPath[_pid][0],\n                tokenPath[_pid][1],\n                amount,\n                0,\n                0,\n                address(this),\n                block.timestamp\n            );\n            // Approve tokens for swap\n            INICEToken(tokenPath[_pid][0]).approve(\n                address(feeInfo.router),\n                tokenA * 2\n            );\n            INICEToken(tokenPath[_pid][1]).approve(\n                address(feeInfo.router),\n                tokenB * 2\n            );\n            // Swap token A\n            if (feeInfo.token0Fees)\n                feeInfo\n                    .router\n                    .swapExactTokensForETHSupportingFeeOnTransferTokens(\n                        tokenA,\n                        0,\n                        token0Path[_pid],\n                        address(this),\n                        block.timestamp\n                    );\n            else\n                feeInfo.router.swapExactTokensForETH(\n                    tokenA,\n                    0,\n                    token0Path[_pid],\n                    address(this),\n                    block.timestamp\n                );\n            // Swap token B\n            if (feeInfo.token1Fees)\n                feeInfo\n                    .router\n                    .swapExactTokensForETHSupportingFeeOnTransferTokens(\n                        tokenB,\n                        0,\n                        token1Path[_pid],\n                        address(this),\n                        block.timestamp\n                    );\n            else\n                feeInfo.router.swapExactTokensForETH(\n                    tokenB,\n                    0,\n                    token1Path[_pid],\n                    address(this),\n                    block.timestamp\n                );\n            //Returns total ETH got\n            return address(this).balance;\n        }\n    }\n\n    /// @notice Update the paths used for a specific pool\n    /// @param id the Pool ID\n    /// @param _path path of the token, if LP, tokens that comprise it, else route to ETH\n    /// @param _path1 if LP, token0 path to ETH, else empty;\n    /// @param _path2 if LP, token1 path to ETH, else empty;\n    function updatePaths(\n        uint256 id,\n        address[] calldata _path,\n        address[] calldata _path1,\n        address[] calldata _path2\n    ) public onlyOwner {\n        tokenPath[id] = _path;\n        token0Path[id] = _path1;\n        token1Path[id] = _path2;\n    }\n\n    /// @notice adds the values of two arrays of length 3 and 5 respectively.\n    /// @param _ar1 is the array of length 3\n    /// @param _ar2 is the array of length 5\n    /// @dev this is used to prevent Stack too deep error on Add/Edit Fee\n    function addArrays(uint256[3] calldata _ar1, uint256[5] calldata _ar2)\n        internal\n        pure\n        returns (uint256 _result)\n    {\n        for (uint8 i = 0; i < 5; i++) {\n            _result += _ar2[i];\n            if (i < 3) {\n                _result += _ar1[i];\n            }\n        }\n    }\n\n    /// @notice Get the paths either for frontend or server information\n    /// @param _pid The pool Id to check for\n    /// @return path The token Path to BNB.. if LP the token composition\n    /// @return path0 the token0 path to BNB for LP token0\n    /// @return path1 the token1 path to BNB fro LP token1\n    function getPath(uint256 _pid)\n        external\n        view\n        returns (\n            address[] memory path,\n            address[] memory path0,\n            address[] memory path1\n        )\n    {\n        path = tokenPath[_pid];\n        path0 = token0Path[_pid];\n        path1 = token1Path[_pid];\n    }\n\n    /// @notice Simplify approviing liquidity spend by router\n    /// @param _pid the pool ID to get the data from\n    /// @param feeInfo feeInfo to pull token router from\n    function approveLiquiditySpend(uint256 _pid, FeeData storage feeInfo)\n        internal\n    {\n        address factory = feeInfo.router.factory();\n        address pair = IPancakeFactory(factory).getPair(\n            tokenPath[_pid][0],\n            tokenPath[_pid][1]\n        );\n        INICEToken pairToken = INICEToken(pair);\n        uint256 balance = pairToken.balanceOf(address(this));\n        require(balance > 0); // dev: No LP tokens available, please send some\n        pairToken.approve(address(feeInfo.router), balance);\n    }\n\n    /// @notice get the BNB used to spread for swap and keep some for Liquidity\n    /// @param _pid pool Id to get the feeInfo\n    /// @param currentBalance Balance to distribute\n    /// @param isNice determine to get either nice or crush values\n    /// @dev Please note that liquidity amount is divided in two since only half of that goes to liquidity\n    /// @return _bnbForToken amount of BNB used to swap for token\n    /// @return _bnbLiqPerm amount of BNB used for Permanent Liquidity\n    /// @return _bnbLiqLock amount of BNB used for Liquidity that will be locked\n    function feeSpread(\n        uint256 _pid,\n        uint256 currentBalance,\n        bool isNice\n    )\n        internal\n        view\n        returns (\n            uint256 _bnbForToken,\n            uint256 _bnbLiqPerm,\n            uint256 _bnbLiqLock\n        )\n    {\n        FeeData storage feeInfo = feeData[_pid];\n        if (isNice) {\n            _bnbForToken = (currentBalance * feeInfo.niceFees[0]) / DIVISOR;\n            _bnbLiqPerm =\n                (currentBalance * feeInfo.niceFees[1]) /\n                (2 * DIVISOR);\n            _bnbLiqLock =\n                (currentBalance * feeInfo.niceFees[2]) /\n                (2 * DIVISOR);\n            _bnbForToken += _bnbLiqLock + _bnbLiqPerm;\n        } else {\n            uint256 tokenFees = feeInfo.crushFees[0] +\n                feeInfo.crushFees[1] +\n                feeInfo.crushFees[2];\n            _bnbForToken = (currentBalance * tokenFees) / DIVISOR;\n            _bnbLiqPerm =\n                (currentBalance * feeInfo.crushFees[3]) /\n                (2 * DIVISOR);\n            _bnbLiqLock =\n                (currentBalance * feeInfo.crushFees[4]) /\n                (2 * DIVISOR);\n        }\n    }\n\n    /// @notice Receive fee tokens and distribute them\n    /// @param _pid The pool ID that will get the fees\n    /// @param amount the amount of tokens received\n    /// @dev IF WE HAVE NO AMOUNT, DO NOTHING!!!\n    function receiveFees(uint256 _pid, uint256 amount) external {\n        FeeData storage feeInfo = feeData[_pid];\n        if (feeInfo.initialized != true) return;\n        // Exchange Token for ETH\n        if (token0Path[_pid].length > 0)\n            removeLiquidityAndSwapETH(_pid, amount);\n        else swapForEth(_pid, feeInfo, amount);\n\n        uint256 bnbBalance = address(this).balance;\n        // IF PRICE IS BELOW IDO\n        // SWAP ALL FOR NICE AND BURN\n\n        // Get Fee spread\n        // CRUSH FIRST\n        uint256 tokenAmountUsed;\n        (\n            uint256 tokenAmount,\n            uint256 permAmount,\n            uint256 lockAmount\n        ) = feeSpread(_pid, bnbBalance, false);\n        if (tokenAmount > 0) {\n            swapForToken(tokenAmount, false);\n            tokenAmountUsed = crush.balanceOf(address(this));\n            if (lockAmount + permAmount > 0) {\n                tokenAmountUsed =\n                    (tokenAmountUsed * (permAmount + lockAmount)) /\n                    (tokenAmount + permAmount + lockAmount);\n                addAndDistributeLiquidity(\n                    tokenAmountUsed,\n                    permAmount,\n                    lockAmount,\n                    false\n                );\n                tokenAmountUsed = crush.balanceOf(address(this));\n            }\n            if (tokenAmountUsed > 0) {\n                tokenAmount =\n                    feeInfo.crushFees[0] +\n                    feeInfo.crushFees[1] +\n                    feeInfo.crushFees[2];\n                //We're just reusing variables  to save stack depth\n                //LOTTERY\n                permAmount =\n                    (tokenAmountUsed * feeInfo.crushFees[2]) /\n                    tokenAmount;\n                if (lottery != address(0) && permAmount > 0) {\n                    crush.approve(lottery, permAmount);\n                    IBitcrushLottery(lottery).addToPool(permAmount);\n                }\n                //STAKING\n                lockAmount =\n                    (tokenAmountUsed * feeInfo.crushFees[1]) /\n                    tokenAmount;\n                if (bankroll != address(0) && lockAmount > 0) {\n                    crush.approve(bankroll, lockAmount);\n                    IBitcrushBankroll(bankroll).addUserLoss(lockAmount);\n                }\n                // BURN THE REST\n                tokenAmountUsed = crush.balanceOf(address(this));\n                crush.burn(tokenAmountUsed);\n            }\n        }\n        // NICE SECOND\n        (tokenAmount, permAmount, lockAmount) = feeSpread(\n            _pid,\n            bnbBalance,\n            true\n        );\n        if (tokenAmount > 0) swapForToken(tokenAmount, true);\n        if (lockAmount + permAmount > 0) {\n            tokenAmountUsed = nice.balanceOf(address(this));\n            tokenAmountUsed =\n                (tokenAmountUsed * (permAmount + lockAmount)) /\n                (tokenAmount + permAmount + lockAmount);\n            addAndDistributeLiquidity(\n                tokenAmountUsed,\n                permAmount,\n                lockAmount,\n                true\n            );\n        }\n        tokenAmount = nice.balanceOf(address(this));\n        if (tokenAmount > 0) {\n            //BURN IT ALL\n            nice.burn(tokenAmount);\n        }\n        bnbBalance = address(this).balance;\n        if (bnbBalance > 0) {\n            (bool success, ) = payable(marketingWallet).call{value: bnbBalance}(\n                \"\"\n            );\n            if (success) emit FundMarketing(marketingWallet, bnbBalance);\n        }\n    }\n\n    /// @notice Exchange token for BNB\n    /// @param _pid The id of the pool to get the tokenPath to BNB\n    /// @param feeInfo All fee info data, it's type storage to use internally on the receiveFees fn\n    /// @param amount The amount of tokens to swap\n    /// @dev This works only for straight ERC20 contracts\n    function swapForEth(\n        uint256 _pid,\n        FeeData storage feeInfo,\n        uint256 amount\n    ) internal {\n        INICEToken token = INICEToken(tokenPath[_pid][0]);\n        require(token.balanceOf(address(this)) > 0); // dev: NO LP, Wallet empty, please send funds\n        token.approve(address(feeInfo.router), amount);\n        if (feeInfo.hasFees)\n            feeInfo.router.swapExactTokensForETHSupportingFeeOnTransferTokens(\n                amount,\n                0,\n                tokenPath[_pid],\n                address(this),\n                block.timestamp\n            );\n        else\n            feeInfo.router.swapExactTokensForETH(\n                amount,\n                0,\n                tokenPath[_pid],\n                address(this),\n                block.timestamp\n            );\n    }\n\n    /// @notice addLiquidity and send the liquidity to either burn or lock\n    /// @param tokenAmount the amount of TOKEN to change into liquidity\n    /// @param permanentLiq the amount of relative liquidity to be sent to deadWallet\n    /// @param lockLiq amount of liquidity to be sent to lock\n    function addAndDistributeLiquidity(\n        uint256 tokenAmount,\n        uint256 permanentLiq,\n        uint256 lockLiq,\n        bool isNice\n    ) internal {\n        IPancakeRouter router = isNice ? routerNice : routerCrush;\n        INICEToken token = isNice ? nice : crush;\n        uint256 ethValue = permanentLiq + lockLiq;\n        token.approve(address(router), tokenAmount);\n        (, , uint256 liquidity) = router.addLiquidityETH{value: ethValue}(\n            address(token),\n            tokenAmount,\n            0,\n            0,\n            address(this),\n            block.timestamp\n        );\n        IPancakeFactory factory = IPancakeFactory(router.factory());\n        address ETH = router.WETH();\n        INICEToken liqToken = INICEToken(factory.getPair(address(token), ETH));\n        uint256 liqAmount;\n        if (permanentLiq > 0) {\n            liqAmount = (liquidity * permanentLiq) / (permanentLiq + lockLiq);\n            bool success = liqToken.transfer(deadWallet, liqAmount);\n            if (success) emit BurnLiquidity(address(token), liqAmount);\n        }\n        if (lockLiq > 0) {\n            liquidity = liqToken.balanceOf(address(this));\n            bool success = liqToken.transfer(lockWallet, liquidity);\n            if (success) emit LockLiquidity(address(token), liquidity);\n        }\n    }\n\n    function editLottery(address _lotteryAddress) external onlyOwner {\n        require(_lotteryAddress != lottery); // dev: Lottery can't be  same address\n        emit UpdateLottery(_lotteryAddress, lottery);\n        lottery = _lotteryAddress;\n    }\n\n    function editMarketing(address _marketingAddress) external onlyOwner {\n        require(_marketingAddress != marketingWallet); // dev: Lottery can't be  same address\n        emit UpdateMarketing(_marketingAddress, marketingWallet);\n        marketingWallet = _marketingAddress;\n    }\n\n    function editRouter(address _newRouter, bool isNice) external onlyOwner {\n        if (isNice) {\n            require(_newRouter != address(routerNice)); // dev: can't add same router\n            emit UpdateRouter(_newRouter, address(routerNice), isNice);\n            routerNice = IPancakeRouter(_newRouter);\n        } else {\n            require(_newRouter != address(routerCrush)); // dev: can't add same router\n            emit UpdateRouter(_newRouter, address(routerCrush), isNice);\n            routerCrush = IPancakeRouter(_newRouter);\n        }\n    }\n}\n","sourcePath":"contracts/FeeDistributorV3.sol","type":"contract","deployment":{"address":"0x82306aB3edB8A4BD7725a0b40B85f8975A2C6849","chainid":"97","blockHeight":17852890}}