{"abi":[{"inputs":[{"internalType":"address","name":"_chef","type":"address"},{"internalType":"uint256","name":"_idoPrice","type":"uint256"},{"internalType":"address","name":"_nicePair","type":"address"},{"internalType":"address","name":"_bankroll","type":"address"},{"internalType":"address","name":"_lottery","type":"address"},{"internalType":"address","name":"_lock","type":"address"},{"internalType":"address","name":"_nice","type":"address"},{"internalType":"address","name":"_crush","type":"address"}],"stateMutability":"nonpayable","type":"constructor","name":"constructor"},{"anonymous":false,"inputs":[{"indexed":true,"internalType":"uint256","name":"_pid","type":"uint256"}],"name":"AddPoolFee","type":"event"},{"anonymous":false,"inputs":[{"indexed":true,"internalType":"uint256","name":"_pid","type":"uint256"},{"indexed":false,"internalType":"uint256","name":"bb","type":"uint256"},{"indexed":false,"internalType":"uint256","name":"liq","type":"uint256"},{"indexed":false,"internalType":"uint256","name":"team","type":"uint256"}],"name":"EditFee","type":"event"},{"anonymous":false,"inputs":[{"indexed":false,"internalType":"uint256","name":"amount","type":"uint256"},{"indexed":false,"internalType":"address","name":"_token","type":"address"}],"name":"FundsDistributed","type":"event"},{"anonymous":false,"inputs":[{"indexed":true,"internalType":"address","name":"previousOwner","type":"address"},{"indexed":true,"internalType":"address","name":"newOwner","type":"address"}],"name":"OwnershipTransferred","type":"event"},{"anonymous":false,"inputs":[{"indexed":false,"internalType":"bool","name":"_isOn","type":"bool"}],"name":"SeachForTarget","type":"event"},{"anonymous":false,"inputs":[{"indexed":false,"internalType":"bool","name":"_success","type":"bool"},{"indexed":false,"internalType":"uint256","name":"amount","type":"uint256"}],"name":"TeamFundsDistributed","type":"event"},{"anonymous":false,"inputs":[{"indexed":false,"internalType":"address","name":"_newLotteery","type":"address"},{"indexed":false,"internalType":"address","name":"_oldLottery","type":"address"}],"name":"UpdateLotteryAddress","type":"event"},{"anonymous":false,"inputs":[{"indexed":false,"internalType":"address","name":"_router","type":"address"}],"name":"UpdateMainRouter","type":"event"},{"anonymous":false,"inputs":[{"indexed":true,"internalType":"uint256","name":"_pid","type":"uint256"},{"indexed":false,"internalType":"address","name":"router","type":"address"}],"name":"UpdatePath","type":"event"},{"anonymous":false,"inputs":[{"indexed":true,"internalType":"uint256","name":"_pid","type":"uint256"},{"indexed":false,"internalType":"address","name":"router","type":"address"}],"name":"UpdateRouter","type":"event"},{"anonymous":false,"inputs":[{"indexed":false,"internalType":"uint256","name":"_target","type":"uint256"}],"name":"UpdateTargetPrice","type":"event"},{"anonymous":false,"inputs":[{"indexed":false,"internalType":"address","name":"_teamW","type":"address"}],"name":"UpdateTeamWallet","type":"event"},{"stateMutability":"payable","type":"fallback"},{"inputs":[],"name":"CRUSH","outputs":[{"internalType":"address","name":"","type":"address"}],"stateMutability":"view","type":"function"},{"inputs":[],"name":"DIVISOR","outputs":[{"internalType":"uint256","name":"","type":"uint256"}],"stateMutability":"view","type":"function"},{"inputs":[],"name":"NICE","outputs":[{"internalType":"address","name":"","type":"address"}],"stateMutability":"view","type":"function"},{"inputs":[{"internalType":"uint256","name":"_pid","type":"uint256"},{"internalType":"uint256[3]","name":"_niceFees","type":"uint256[3]"},{"internalType":"uint256[5]","name":"_crushFees","type":"uint256[5]"},{"internalType":"bool[3]","name":"hasFees","type":"bool[3]"},{"internalType":"address","name":"router","type":"address"},{"internalType":"address[]","name":"_tokens","type":"address[]"},{"internalType":"address[]","name":"_token0Path","type":"address[]"},{"internalType":"address[]","name":"_token1Path","type":"address[]"}],"name":"addorEditFee","outputs":[],"stateMutability":"nonpayable","type":"function"},{"inputs":[],"name":"bankroll","outputs":[{"internalType":"contract IBitcrushBankroll","name":"","type":"address"}],"stateMutability":"view","type":"function"},{"inputs":[],"name":"checkPrice","outputs":[{"internalType":"bool","name":"_belowIDO","type":"bool"}],"stateMutability":"view","type":"function"},{"inputs":[],"name":"chef","outputs":[{"internalType":"contract GalacticChef","name":"","type":"address"}],"stateMutability":"view","type":"function"},{"inputs":[],"name":"deadWallet","outputs":[{"internalType":"address","name":"","type":"address"}],"stateMutability":"view","type":"function"},{"inputs":[{"internalType":"bool","name":"_enable","type":"bool"}],"name":"enableTargetSearch","outputs":[],"stateMutability":"nonpayable","type":"function"},{"inputs":[{"internalType":"uint256","name":"","type":"uint256"}],"name":"feeData","outputs":[{"internalType":"bool","name":"initialized","type":"bool"},{"internalType":"bool","name":"hasFees","type":"bool"},{"internalType":"bool","name":"token0Fees","type":"bool"},{"internalType":"bool","name":"token1Fees","type":"bool"},{"internalType":"contract IPancakeRouter","name":"router","type":"address"}],"stateMutability":"view","type":"function"},{"inputs":[],"name":"idoPrice","outputs":[{"internalType":"uint256","name":"","type":"uint256"}],"stateMutability":"view","type":"function"},{"inputs":[],"name":"lock","outputs":[{"internalType":"address","name":"","type":"address"}],"stateMutability":"view","type":"function"},{"inputs":[],"name":"lottery","outputs":[{"internalType":"contract IBitcrushLottery","name":"","type":"address"}],"stateMutability":"view","type":"function"},{"inputs":[],"name":"niceLiquidity","outputs":[{"internalType":"address","name":"","type":"address"}],"stateMutability":"view","type":"function"},{"inputs":[],"name":"owner","outputs":[{"internalType":"address","name":"","type":"address"}],"stateMutability":"view","type":"function"},{"inputs":[],"name":"reachForIdo","outputs":[{"internalType":"bool","name":"","type":"bool"}],"stateMutability":"view","type":"function"},{"inputs":[{"internalType":"uint256","name":"_pid","type":"uint256"},{"internalType":"uint256","name":"_amount","type":"uint256"}],"name":"receiveFees","outputs":[],"stateMutability":"nonpayable","type":"function"},{"inputs":[],"name":"renounceOwnership","outputs":[],"stateMutability":"nonpayable","type":"function"},{"inputs":[{"internalType":"address","name":"_newRouter","type":"address"}],"name":"setBaseRouter","outputs":[],"stateMutability":"nonpayable","type":"function"},{"inputs":[{"internalType":"address payable","name":"_newTeamW","type":"address"}],"name":"setTeamWallet","outputs":[],"stateMutability":"nonpayable","type":"function"},{"inputs":[],"name":"teamWallet","outputs":[{"internalType":"address","name":"","type":"address"}],"stateMutability":"view","type":"function"},{"inputs":[{"internalType":"uint256","name":"","type":"uint256"},{"internalType":"uint256","name":"","type":"uint256"}],"name":"token0Path","outputs":[{"internalType":"address","name":"","type":"address"}],"stateMutability":"view","type":"function"},{"inputs":[{"internalType":"uint256","name":"","type":"uint256"},{"internalType":"uint256","name":"","type":"uint256"}],"name":"token1Path","outputs":[{"internalType":"address","name":"","type":"address"}],"stateMutability":"view","type":"function"},{"inputs":[{"internalType":"uint256","name":"","type":"uint256"},{"internalType":"uint256","name":"","type":"uint256"}],"name":"tokenPath","outputs":[{"internalType":"address","name":"","type":"address"}],"stateMutability":"view","type":"function"},{"inputs":[],"name":"tokenRouter","outputs":[{"internalType":"contract IPancakeRouter","name":"","type":"address"}],"stateMutability":"view","type":"function"},{"inputs":[{"internalType":"address","name":"newOwner","type":"address"}],"name":"transferOwnership","outputs":[],"stateMutability":"nonpayable","type":"function"},{"inputs":[{"internalType":"uint256","name":"_price","type":"uint256"}],"name":"updateIdoTarget","outputs":[],"stateMutability":"nonpayable","type":"function"},{"inputs":[{"internalType":"address","name":"_nLottery","type":"address"}],"name":"updateLottery","outputs":[],"stateMutability":"nonpayable","type":"function"},{"inputs":[{"internalType":"uint256","name":"id","type":"uint256"},{"internalType":"address[]","name":"_path","type":"address[]"},{"internalType":"address[]","name":"_path1","type":"address[]"},{"internalType":"address[]","name":"_path2","type":"address[]"}],"name":"updatePaths","outputs":[],"stateMutability":"nonpayable","type":"function"},{"stateMutability":"payable","type":"receive"}],"bytecode":"61010060405261dead60c0523480156200001857600080fd5b5060405162003a5c38038062003a5c8339810160408190526200003b9162000161565b6200004633620000f4565b6001600160a01b038816620000905760405162461bcd60e51b815260206004820152600c60248201526b5a65726f206164647265737360a01b604482015260640160405180910390fd5b600780546001600160a01b03199081166001600160a01b039a8b161790915560048054339083161790556003979097556002805488169689169690961790955592861660e05250600680549094169085161790925582166080521660a05262000200565b600080546001600160a01b038381166001600160a01b0319831681178455604051919092169283917f8be0079c531659141344cd1fd0a4f28419497f9722a3daafe3b4186f6b6457e09190a35050565b80516001600160a01b03811681146200015c57600080fd5b919050565b600080600080600080600080610100898b0312156200017f57600080fd5b6200018a8962000144565b975060208901519650620001a160408a0162000144565b9550620001b160608a0162000144565b9450620001c160808a0162000144565b9350620001d160a08a0162000144565b9250620001e160c08a0162000144565b9150620001f160e08a0162000144565b90509295985092959890939650565b60805160a05160c05160e0516137ea6200027260003960008181610206015281816128da015261296d0152600081816104e80152612bfe0152600081816102ab01528181610b720152818161222d01526122f201526000818161039f015281816120af01526121c001526137ea6000f3fe6080604052600436106101ae5760003560e01c8063715018a6116100eb578063958bac5f1161008f578063d85539c611610061578063d85539c6146105b3578063f2fde38b146105d3578063f83d08ba146105f3578063f8b70f031461061357005b8063958bac5f1461053d578063a562bdba1461055d578063ba13a5721461057d578063cd80fe0d1461059d57005b80637d04feff116100c85780637d04feff146104b657806385141a77146104d65780638da5cb5b1461050a5780638fc3047d1461052857005b8063715018a6146104615780637a254a41146104765780637ced15ef1461049657005b80633843418d11610152578063599270441161012f57806359927044146103e1578063659f4bf91461040157806367347c68146104215780636c7a8ee41461044157005b80633843418d146102f157806343f0a8e11461038d5780634f348758146103c157005b80631525ff7d1161018b5780631525ff7d146102595780631fc8bc5d1461027957806330926486146102995780633410fe6e146102cd57005b8063075b42ab146101b75780630c657eb0146101f45780630fe344ed1461022857005b366101b557005b005b3480156101c357600080fd5b506002546101d7906001600160a01b031681565b6040516001600160a01b0390911681526020015b60405180910390f35b34801561020057600080fd5b506101d77f000000000000000000000000000000000000000000000000000000000000000081565b34801561023457600080fd5b5060065461024990600160a01b900460ff1681565b60405190151581526020016101eb565b34801561026557600080fd5b506101b5610274366004612fef565b610633565b34801561028557600080fd5b506007546101d7906001600160a01b031681565b3480156102a557600080fd5b506101d77f000000000000000000000000000000000000000000000000000000000000000081565b3480156102d957600080fd5b506102e361271081565b6040519081526020016101eb565b3480156102fd57600080fd5b5061035461030c36600461300c565b6008602081905260009182526040909120015460ff8082169161010081048216916201000082048116916301000000810490911690600160201b90046001600160a01b031685565b60408051951515865293151560208601529115159284019290925290151560608301526001600160a01b0316608082015260a0016101eb565b34801561039957600080fd5b506101d77f000000000000000000000000000000000000000000000000000000000000000081565b3480156103cd57600080fd5b506101b56103dc366004613025565b6106fe565b3480156103ed57600080fd5b506004546101d7906001600160a01b031681565b34801561040d57600080fd5b506101d761041c366004613025565b610c8a565b34801561042d57600080fd5b506101b561043c366004613055565b610cc2565b34801561044d57600080fd5b506101b561045c3660046130f0565b610d8d565b34801561046d57600080fd5b506101b5611060565b34801561048257600080fd5b506101d7610491366004613025565b611096565b3480156104a257600080fd5b506101b56104b136600461300c565b6110b2565b3480156104c257600080fd5b506101d76104d1366004613025565b611152565b3480156104e257600080fd5b506101d77f000000000000000000000000000000000000000000000000000000000000000081565b34801561051657600080fd5b506000546001600160a01b03166101d7565b34801561053457600080fd5b5061024961116e565b34801561054957600080fd5b506101b56105583660046131e8565b61123d565b34801561056957600080fd5b506001546101d7906001600160a01b031681565b34801561058957600080fd5b506006546101d7906001600160a01b031681565b3480156105a957600080fd5b506102e360035481565b3480156105bf57600080fd5b506101b56105ce366004612fef565b6112be565b3480156105df57600080fd5b506101b56105ee366004612fef565b611391565b3480156105ff57600080fd5b506005546101d7906001600160a01b031681565b34801561061f57600080fd5b506101b561062e366004612fef565b61142c565b6000546001600160a01b031633146106665760405162461bcd60e51b815260040161065d9061328c565b60405180910390fd5b6001600160a01b0381166106a95760405162461bcd60e51b815260206004820152600a602482015269043616e742070617920360b41b604482015260640161065d565b600480546001600160a01b0319166001600160a01b0383169081179091556040519081527f88b8edda57af64d7425b090e9e8d925c96d2cc1360afdc15f0da29752103e705906020015b60405180910390a150565b6007546001600160a01b031633146107435760405162461bcd60e51b815260206004820152600860248201526737b7363ca1b432b360c11b604482015260640161065d565b60008281526008602081905260409091209081015460ff166107925760405162461bcd60e51b8152602060048201526008602482015267139bdd081a5b9a5d60c21b604482015260640161065d565b600754604051631526fe2760e01b81526004810185905260009182916001600160a01b0390911690631526fe279060240160e060405180830381865afa1580156107e0573d6000803e3d6000fd5b505050506040513d601f19601f8201168201806040525081019061080491906132c1565b600754939850965061082d9550506001600160a01b0380881694509091169150309050876114e4565b6040516370a0823160e01b815230600482015284906001600160a01b038416906370a0823190602401602060405180830381865afa158015610873573d6000803e3d6000fd5b505050506040513d601f19601f820116820180604052508101906108979190613337565b10156108d25760405162461bcd60e51b815260206004820152600a60248201526973656e642066756e647360b01b604482015260640161065d565b60088301546001600160a01b038084169163095ea7b391600160201b909104166108fd876002613366565b6040516001600160e01b031960e085901b1681526001600160a01b03909216600483015260248201526044016020604051808303816000875af1158015610948573d6000803e3d6000fd5b505050506040513d601f19601f8201168201806040525081019061096c9190613385565b5080156109835761097d8585611544565b50610aa9565b6008830154610100900460ff1615610a16576008830154600086815260096020526040808220905163791ac94760e01b8152600160201b9093046001600160a01b03169263791ac947926109df928992309042906004016133a2565b600060405180830381600087803b1580156109f957600080fd5b505af1158015610a0d573d6000803e3d6000fd5b50505050610aa9565b600883015460008681526009602052604080822090516318cbafe560e01b8152600160201b9093046001600160a01b0316926318cbafe592610a60928992309042906004016133a2565b6000604051808303816000875af1158015610a7f573d6000803e3d6000fd5b505050506040513d6000823e601f3d908101601f19168201604052610aa7919081019061342e565b505b600654600160a01b900460ff168015610ac55750610ac561116e565b15610c3957600154604080516315ab88c960e31b8152905147926060926001600160a01b039091169163ad5c4648916004808201926020929091908290030181865afa158015610b19573d6000803e3d6000fd5b505050506040513d601f19601f82011682018060405250810190610b3d91906134ec565b81600081518110610b5057610b50613509565b60200260200101906001600160a01b031690816001600160a01b0316815250507f000000000000000000000000000000000000000000000000000000000000000081600181518110610ba457610ba4613509565b6001600160a01b039283166020918202929092010152600154604051637ff36ab560e01b8152911690637ff36ab5908490610bea90600090869082904290600401613563565b60006040518083038185885af1158015610c08573d6000803e3d6000fd5b50505050506040513d6000823e601f3d908101601f19168201604052610c31919081019061342e565b505050610c42565b610c4283611ed6565b604080518581526001600160a01b03841660208201527f195b26ced269c6da9f9a06d404cba065a0149c0c189719e0384e1beb79659da0910160405180910390a15050505050565b600a6020528160005260406000208181548110610ca657600080fd5b6000918252602090912001546001600160a01b03169150829050565b6000546001600160a01b03163314610cec5760405162461bcd60e51b815260040161065d9061328c565b60065460ff600160a01b9091041615158115151415610d405760405162461bcd60e51b815260206004820152601060248201526f416c726561647920696e20737461746560801b604482015260640161065d565b60068054821515600160a01b0260ff60a01b199091161790556040517f7d703b166159e7b2e16b6550390cfdc4786dddf83c504aa32647e1da9127f226906106f390831515815260200190565b6000546001600160a01b03163314610db75760405162461bcd60e51b815260040161065d9061328c565b612710610dc48b8b6123c3565b1115610e125760405162461bcd60e51b815260206004820152601a60248201527f496e636f72726563742046656520646973747269627574696f6e000000000000604482015260640161065d565b6001600160a01b038716610e5b5760405162461bcd60e51b815260206004820152601060248201526f24b731b7b93932b1ba102937baba32b960811b604482015260640161065d565b84610e9e5760405162461bcd60e51b81526020600482015260136024820152726e6565642061207061746820746f206261736560681b604482015260640161065d565b6040805161014081019091528060e081018c60038282606080828437600092019190915250505081526040805160a0818101909252602090920191908c906005908390839080828437600092019190915250505081526001602080830191909152604090910190610f11908b018b613055565b15158152602090810190610f2b9060408c01908c01613055565b15158152602001610f4260608b0160408c01613055565b151581526001600160a01b03891660209182015260008d81526008909152604090208151610f739082906003612f07565b506020820151610f899060038301906005612f45565b506040820151600890910180546060840151608085015160a086015160c0909601516001600160a01b0316600160201b02640100000000600160c01b031996151563010000000263ff0000001992151562010000029290921663ffff0000199315156101000261ff00199715159790971661ffff199095169490941795909517919091169190911717929092161790556110288b87878787878761123d565b6040518b907ff7eb02141ad38ebc5b61e51e5bb0e913cea227b9dfc94ea034fb39a9f5fe809f90600090a25050505050505050505050565b6000546001600160a01b0316331461108a5760405162461bcd60e51b815260040161065d9061328c565b6110946000612440565b565b60096020528160005260406000208181548110610ca657600080fd5b6000546001600160a01b031633146110dc5760405162461bcd60e51b815260040161065d9061328c565b6000811161111d5760405162461bcd60e51b815260206004820152600e60248201526d125b9d985b1a59081d185c99d95d60921b604482015260640161065d565b60038190556040518181527f145cc1d669b07469e4051f322247be4857ec7e59ae7dcd6e88057c181424d858906020016106f3565b600b6020528160005260406000208181548110610ca657600080fd5b6000806000600260009054906101000a90046001600160a01b03166001600160a01b0316630902f1ac6040518163ffffffff1660e01b8152600401606060405180830381865afa1580156111c6573d6000803e3d6000fd5b505050506040513d601f19601f820116820180604052508101906111ea91906135af565b506001600160701b031691506001600160701b0316915060008111611210576001611212565b805b6003549091508161122b84670de0b6b3a7640000613366565b61123591906135ff565b109250505090565b6000546001600160a01b031633146112675760405162461bcd60e51b815260040161065d9061328c565b6000878152600960205260409020611280908787612f72565b506000878152600a6020526040902061129a908585612f72565b506000878152600b602052604090206112b4908383612f72565b5050505050505050565b6000546001600160a01b031633146112e85760405162461bcd60e51b815260040161065d9061328c565b6001600160a01b0381166113285760405162461bcd60e51b81526020600482015260076024820152664e6f205a65726f60c81b604482015260640161065d565b600654604080516001600160a01b03808516825290921660208301527f4088a686f46439872254e52412588879189d5d7ad58511047a6f308714e0a0fc910160405180910390a1600680546001600160a01b0319166001600160a01b0392909216919091179055565b6000546001600160a01b031633146113bb5760405162461bcd60e51b815260040161065d9061328c565b6001600160a01b0381166114205760405162461bcd60e51b815260206004820152602660248201527f4f776e61626c653a206e6577206f776e657220697320746865207a65726f206160448201526564647265737360d01b606482015260840161065d565b61142981612440565b50565b6000546001600160a01b031633146114565760405162461bcd60e51b815260040161065d9061328c565b6001600160a01b0381166114965760405162461bcd60e51b81526020600482015260076024820152664e6f207a65726f60c81b604482015260640161065d565b600180546001600160a01b0319166001600160a01b0383169081179091556040519081527f2df9d602927cbee25f5ac348817e8312326c22c45d0afe91f8c3b5eb4fd67508906020016106f3565b604080516001600160a01b0385811660248301528416604482015260648082018490528251808303909101815260849091019091526020810180516001600160e01b03166323b872dd60e01b17905261153e908590612490565b50505050565b600082815260086020908152604080832060015482516315ab88c960e31b8152925191936001600160a01b039091169263ad5c464892600480830193928290030181865afa15801561159a573d6000803e3d6000fd5b505050506040513d601f19601f820116820180604052508101906115be91906134ec565b6001600160a01b0316600960008681526020019081526020016000206000815481106115ec576115ec613509565b6000918252602090912001546001600160a01b031614806116c45750600160009054906101000a90046001600160a01b03166001600160a01b031663ad5c46486040518163ffffffff1660e01b8152600401602060405180830381865afa15801561165b573d6000803e3d6000fd5b505050506040513d601f19601f8201168201806040525081019061167f91906134ec565b6001600160a01b0316600960008681526020019081526020016000206001815481106116ad576116ad613509565b6000918252602090912001546001600160a01b0316145b15611a04576000606060006116d887612567565b60088701549295509093509150610100900460ff161561177e57600884015460405163af2979eb60e01b8152600160201b9091046001600160a01b03169063af2979eb906117359086908a90600090819030904290600401613621565b6020604051808303816000875af1158015611754573d6000803e3d6000fd5b505050506040513d601f19601f820116820180604052508101906117789190613337565b50611805565b6008840154604051629d473b60e21b8152600160201b9091046001600160a01b0316906302751cec906117c09086908a90600090819030904290600401613621565b60408051808303816000875af11580156117de573d6000803e3d6000fd5b505050506040513d601f19601f82011682018060405250810190611802919061365c565b50505b6040516370a0823160e01b81523060048201526000906001600160a01b038516906370a0823190602401602060405180830381865afa15801561184c573d6000803e3d6000fd5b505050506040513d601f19601f820116820180604052508101906118709190613337565b600886015460405163095ea7b360e01b81526001600160a01b03600160201b909204821660048201526024810183905291925085169063095ea7b3906044016020604051808303816000875af11580156118ce573d6000803e3d6000fd5b505050506040513d601f19601f820116820180604052508101906118f29190613385565b50811561197157600885015460405163791ac94760e01b8152600160201b9091046001600160a01b03169063791ac9479061193a908490600090889030904290600401613680565b600060405180830381600087803b15801561195457600080fd5b505af1158015611968573d6000803e3d6000fd5b505050506119fb565b60088501546040516318cbafe560e01b8152600160201b9091046001600160a01b0316906318cbafe5906119b2908490600090889030904290600401613680565b6000604051808303816000875af11580156119d1573d6000803e3d6000fd5b505050506040513d6000823e601f3d908101601f191682016040526119f9919081019061342e565b505b50505050611ece565b60088101546000858152600960205260408120805491928392600160201b9091046001600160a01b03169163baa2abde918490611a4357611a43613509565b60009182526020808320909101548a83526009909152604090912080546001600160a01b03909216916001908110611a7d57611a7d613509565b600091825260208220015460405160e085901b6001600160e01b03191681526001600160a01b03938416600482015292166024830152604482018990526064820181905260848201523060a48201524260c482015260e40160408051808303816000875af1158015611af3573d6000803e3d6000fd5b505050506040513d601f19601f82011682018060405250810190611b17919061365c565b600088815260096020526040812080549395509193509091611b3b57611b3b613509565b600091825260209091200154600884015460405163095ea7b360e01b81526001600160a01b03600160201b909204821660048201526024810185905291169063095ea7b3906044016020604051808303816000875af1158015611ba2573d6000803e3d6000fd5b505050506040513d601f19601f82011682018060405250810190611bc69190613385565b50600086815260096020526040902080546001908110611be857611be8613509565b600091825260209091200154600884015460405163095ea7b360e01b81526001600160a01b03600160201b909204821660048201526024810184905291169063095ea7b3906044016020604051808303816000875af1158015611c4f573d6000803e3d6000fd5b505050506040513d601f19601f82011682018060405250810190611c739190613385565b50600883015462010000900460ff1615611d085760088301546000878152600a6020526040808220905163791ac94760e01b8152600160201b9093046001600160a01b03169263791ac94792611cd1928792309042906004016133a2565b600060405180830381600087803b158015611ceb57600080fd5b505af1158015611cff573d6000803e3d6000fd5b50505050611d9b565b60088301546000878152600a602052604080822090516318cbafe560e01b8152600160201b9093046001600160a01b0316926318cbafe592611d52928792309042906004016133a2565b6000604051808303816000875af1158015611d71573d6000803e3d6000fd5b505050506040513d6000823e601f3d908101601f19168201604052611d99919081019061342e565b505b60088301546301000000900460ff1615611e305760088301546000878152600b6020526040808220905163791ac94760e01b8152600160201b9093046001600160a01b03169263791ac94792611df9928692309042906004016133a2565b600060405180830381600087803b158015611e1357600080fd5b505af1158015611e27573d6000803e3d6000fd5b50505050611ec3565b60088301546000878152600b602052604080822090516318cbafe560e01b8152600160201b9093046001600160a01b0316926318cbafe592611e7a928692309042906004016133a2565b6000604051808303816000875af1158015611e99573d6000803e3d6000fd5b505050506040513d6000823e601f3d908101601f19168201604052611ec1919081019061342e565b505b479350505050611ed0565b505b92915050565b60008060008060008060008060005b60058160ff16101561200b57896003018160ff1660058110611f0957611f09613509565b0154611f1590886136bc565b965060038160ff1610611f4d5760028a6003018260ff1660058110611f3c57611f3c613509565b0154611f4891906135ff565b611f68565b896003018160ff1660058110611f6557611f65613509565b01545b611f72908a6136bc565b985060038160ff161015611ff9578960ff821660038110611f9557611f95613509565b0154611fa190876136bc565b955060ff811615611fd45760028a60ff831660038110611fc357611fc3613509565b0154611fcf91906135ff565b611fec565b8960ff821660038110611fe957611fe9613509565b01545b611ff690896136bc565b97505b80612003816136d4565b915050611ee5565b50600154604080516315ab88c960e31b815290516060926001600160a01b03169163ad5c46489160048083019260209291908290030181865afa158015612056573d6000803e3d6000fd5b505050506040513d601f19601f8201168201806040525081019061207a91906134ec565b8160008151811061208d5761208d613509565b60200260200101906001600160a01b031690816001600160a01b0316815250507f0000000000000000000000000000000000000000000000000000000000000000816001815181106120e1576120e1613509565b6001600160a01b039092166020928302919091019091015286156121e95761271061210c8847613366565b61211691906135ff565b9450866121238a87613366565b61212d91906135ff565b600154604051637ff36ab560e01b81529194506001600160a01b031690637ff36ab590859061216790600090869030904290600401613563565b60006040518083038185885af1158015612185573d6000803e3d6000fd5b50505050506040513d6000823e601f3d908101601f191682016040526121ae919081019061342e565b506121b983866136f4565b94506121e97f00000000000000000000000000000000000000000000000000000000000000008b89600089612793565b851561231b576127106121fc8747613366565b61220691906135ff565b9350856122138986613366565b61221d91906135ff565b915061222982856136f4565b93507f00000000000000000000000000000000000000000000000000000000000000008160018151811061225f5761225f613509565b6001600160a01b039283166020918202929092010152600154604051637ff36ab560e01b8152911690637ff36ab59084906122a590600090869030904290600401613563565b60006040518083038185885af11580156122c3573d6000803e3d6000fd5b50505050506040513d6000823e601f3d908101601f191682016040526122ec919081019061342e565b5061231b7f00000000000000000000000000000000000000000000000000000000000000008b88600188612793565b4780156123b6576004546040516000916001600160a01b03169083908381818185875af1925050503d806000811461236f576040519150601f19603f3d011682016040523d82523d6000602084013e612374565b606091505b5050604080518215158152602081018590529192507f7526d8edf9d8774140eac835a1cec043d347db7c1c24c83a3449977a0c61ca5b910160405180910390a1505b5050505050505050505050565b6000805b60058160ff161015611ece57828160ff16600581106123e8576123e8613509565b6020020135826123f891906136bc565b915060038160ff16101561242e57838160ff166003811061241b5761241b613509565b60200201358261242b91906136bc565b91505b80612438816136d4565b9150506123c7565b600080546001600160a01b038381166001600160a01b0319831681178455604051919092169283917f8be0079c531659141344cd1fd0a4f28419497f9722a3daafe3b4186f6b6457e09190a35050565b60006124e5826040518060400160405280602081526020017f5361666545524332303a206c6f772d6c6576656c2063616c6c206661696c6564815250856001600160a01b0316612d4e9092919063ffffffff16565b80519091501561256257808060200190518101906125039190613385565b6125625760405162461bcd60e51b815260206004820152602a60248201527f5361666545524332303a204552433230206f7065726174696f6e20646964206e6044820152691bdd081cdd58d8d9595960b21b606482015260840161065d565b505050565b600060606000600160009054906101000a90046001600160a01b03166001600160a01b031663ad5c46486040518163ffffffff1660e01b8152600401602060405180830381865afa1580156125c0573d6000803e3d6000fd5b505050506040513d601f19601f820116820180604052508101906125e491906134ec565b6001600160a01b03166009600086815260200190815260200160002060008154811061261257612612613509565b6000918252602090912001546001600160a01b0316146126f0576000848152600960205260408120805490919061264b5761264b613509565b6000918252602080832090910154868352600a825260409283902080548451818502810185019095528085526001600160a01b039092169650918301828280156126be57602002820191906000526020600020905b81546001600160a01b031681526001909101906020018083116126a0575b505050505091506008600085815260200190815260200160002060080160029054906101000a900460ff16905061278c565b60008481526009602052604090208054600190811061271157612711613509565b6000918252602080832090910154868352600b825260409283902080548451818502810185019095528085526001600160a01b0390921696509183018282801561278457602002820191906000526020600020905b81546001600160a01b03168152600190910190602001808311612766575b505050505091505b9193909250565b6040516370a0823160e01b815230600482015285906000906001600160a01b038316906370a0823190602401602060405180830381865afa1580156127dc573d6000803e3d6000fd5b505050506040513d601f19601f820116820180604052508101906128009190613337565b9050600084612813576003870154612816565b86545b90506000866128258385613366565b61282f91906135ff565b9050801561289257604051630852cd8d60e31b8152600481018290526001600160a01b038516906342966c6890602401600060405180830381600087803b15801561287957600080fd5b505af115801561288d573d6000803e3d6000fd5b505050505b856128a15760048801546128a4565b60005b9150866128b18385613366565b6128bb91906135ff565b905080156129d25760405163095ea7b360e01b81526001600160a01b037f0000000000000000000000000000000000000000000000000000000000000000811660048301526024820183905285169063095ea7b3906044016020604051808303816000875af1158015612932573d6000803e3d6000fd5b505050506040513d601f19601f820116820180604052508101906129569190613385565b50604051636172858b60e11b8152600481018290527f00000000000000000000000000000000000000000000000000000000000000006001600160a01b03169063c2e50b1690602401600060405180830381600087803b1580156129b957600080fd5b505af11580156129cd573d6000803e3d6000fd5b505050505b856129e15760058801546129e4565b60005b9150866129f18385613366565b6129fb91906135ff565b90508015612ada5760065460405163095ea7b360e01b81526001600160a01b039182166004820152602481018390529085169063095ea7b3906044016020604051808303816000875af1158015612a56573d6000803e3d6000fd5b505050506040513d601f19601f82011682018060405250810190612a7a9190613385565b50600654604051631c5fc48360e01b8152600481018390526001600160a01b0390911690631c5fc48390602401600060405180830381600087803b158015612ac157600080fd5b505af1158015612ad5573d6000803e3d6000fd5b505050505b6040516370a0823160e01b81523060048201526001600160a01b038516906370a0823190602401602060405180830381865afa158015612b1e573d6000803e3d6000fd5b505050506040513d601f19601f82011682018060405250810190612b429190613337565b92508515612b5f57612b578860038101612d67565b509650612b70565b612b6c8860038101612d67565b9750505b86612b7e5750505050612d47565b85612b8d576006880154612b93565b87600101545b915086612ba08385613366565b612baa91906135ff565b9050600087612bb98488613366565b612bc391906135ff565b90508115612c6f5760015460405163f305d71960e01b81526001600160a01b039091169063f305d719908390612c28908990879060009081907f0000000000000000000000000000000000000000000000000000000000000000904290600401613621565b60606040518083038185885af1158015612c46573d6000803e3d6000fd5b50505050506040513d601f19601f82011682018060405250810190612c6b919061370b565b5050505b86612c7e576007890154612c84565b88600201545b925087612c918486613366565b612c9b91906135ff565b915087612ca88488613366565b612cb291906135ff565b90508115612d415760015460055460405163f305d71960e01b81526001600160a01b039283169263f305d719928592612cfa928b928992600092839216904290600401613621565b60606040518083038185885af1158015612d18573d6000803e3d6000fd5b50505050506040513d601f19601f82011682018060405250810190612d3d919061370b565b5050505b50505050505b5050505050565b6060612d5d8484600085612d9d565b90505b9392505050565b60008083600201548460010154612d7e91906136bc565b915082600401548360030154612d9491906136bc565b90509250929050565b606082471015612dfe5760405162461bcd60e51b815260206004820152602660248201527f416464726573733a20696e73756666696369656e742062616c616e636520666f6044820152651c8818d85b1b60d21b606482015260840161065d565b6001600160a01b0385163b612e555760405162461bcd60e51b815260206004820152601d60248201527f416464726573733a2063616c6c20746f206e6f6e2d636f6e7472616374000000604482015260640161065d565b600080866001600160a01b03168587604051612e719190613765565b60006040518083038185875af1925050503d8060008114612eae576040519150601f19603f3d011682016040523d82523d6000602084013e612eb3565b606091505b5091509150612ec3828286612ece565b979650505050505050565b60608315612edd575081612d60565b825115612eed5782518084602001fd5b8160405162461bcd60e51b815260040161065d9190613781565b8260038101928215612f35579160200282015b82811115612f35578251825591602001919060010190612f1a565b50612f41929150612fc5565b5090565b8260058101928215612f355791602002820182811115612f35578251825591602001919060010190612f1a565b828054828255906000526020600020908101928215612f35579160200282015b82811115612f355781546001600160a01b0319166001600160a01b03843516178255602090920191600190910190612f92565b5b80821115612f415760008155600101612fc6565b6001600160a01b038116811461142957600080fd5b60006020828403121561300157600080fd5b8135612d6081612fda565b60006020828403121561301e57600080fd5b5035919050565b6000806040838503121561303857600080fd5b50508035926020909101359150565b801515811461142957600080fd5b60006020828403121561306757600080fd5b8135612d6081613047565b8060608101831015611ed057600080fd5b8060a08101831015611ed057600080fd5b803561309f81612fda565b919050565b60008083601f8401126130b657600080fd5b50813567ffffffffffffffff8111156130ce57600080fd5b6020830191508360208260051b85010111156130e957600080fd5b9250929050565b60008060008060008060008060008060006102008c8e03121561311257600080fd5b8b359a506131238d60208e01613072565b99506131328d60808e01613083565b98506131428d6101208e01613072565b97506131516101808d01613094565b965067ffffffffffffffff806101a08e0135111561316e57600080fd5b61317f8e6101a08f01358f016130a4565b90975095506101c08d013581101561319657600080fd5b6131a78e6101c08f01358f016130a4565b90955093506101e08d01358110156131be57600080fd5b506131d08d6101e08e01358e016130a4565b81935080925050509295989b509295989b9093969950565b60008060008060008060006080888a03121561320357600080fd5b87359650602088013567ffffffffffffffff8082111561322257600080fd5b61322e8b838c016130a4565b909850965060408a013591508082111561324757600080fd5b6132538b838c016130a4565b909650945060608a013591508082111561326c57600080fd5b506132798a828b016130a4565b989b979a50959850939692959293505050565b6020808252818101527f4f776e61626c653a2063616c6c6572206973206e6f7420746865206f776e6572604082015260600190565b600080600080600080600060e0888a0312156132dc57600080fd5b87516132e781613047565b809750506020880151955060408801519450606088015161330781612fda565b809450506080880151925060a0880151915060c088015161332781613047565b8091505092959891949750929550565b60006020828403121561334957600080fd5b5051919050565b634e487b7160e01b600052601160045260246000fd5b600081600019048311821515161561338057613380613350565b500290565b60006020828403121561339757600080fd5b8151612d6081613047565b600060a082018783526020878185015260a0604085015281875480845260c0860191508860005282600020935060005b818110156133f75784546001600160a01b0316835260019485019492840192016133d2565b50506001600160a01b03969096166060850152505050608001529392505050565b634e487b7160e01b600052604160045260246000fd5b6000602080838503121561344157600080fd5b825167ffffffffffffffff8082111561345957600080fd5b818501915085601f83011261346d57600080fd5b81518181111561347f5761347f613418565b8060051b604051601f19603f830116810181811085821117156134a4576134a4613418565b6040529182528482019250838101850191888311156134c257600080fd5b938501935b828510156134e0578451845293850193928501926134c7565b98975050505050505050565b6000602082840312156134fe57600080fd5b8151612d6081612fda565b634e487b7160e01b600052603260045260246000fd5b600081518084526020808501945080840160005b838110156135585781516001600160a01b031687529582019590820190600101613533565b509495945050505050565b84815260806020820152600061357c608083018661351f565b6001600160a01b03949094166040830152506060015292915050565b80516001600160701b038116811461309f57600080fd5b6000806000606084860312156135c457600080fd5b6135cd84613598565b92506135db60208501613598565b9150604084015163ffffffff811681146135f457600080fd5b809150509250925092565b60008261361c57634e487b7160e01b600052601260045260246000fd5b500490565b6001600160a01b039687168152602081019590955260408501939093526060840191909152909216608082015260a081019190915260c00190565b6000806040838503121561366f57600080fd5b505080516020909101519092909150565b85815284602082015260a06040820152600061369f60a083018661351f565b6001600160a01b0394909416606083015250608001529392505050565b600082198211156136cf576136cf613350565b500190565b600060ff821660ff8114156136eb576136eb613350565b60010192915050565b60008282101561370657613706613350565b500390565b60008060006060848603121561372057600080fd5b8351925060208401519150604084015190509250925092565b60005b8381101561375457818101518382015260200161373c565b8381111561153e5750506000910152565b60008251613777818460208701613739565b9190910192915050565b60208152600082518060208401526137a0816040850160208701613739565b601f01601f1916919091016040019291505056fea264697066735822122055fd2e154f2b7814829c6902c187b2eedc2fdbe628c97654bcc6728df10f3f4e64736f6c634300080c0033","bytecodeSha1":"b47ca4548c5133fda3b338f518e4f9abd9685032","compiler":{"evm_version":"istanbul","optimizer":{"enabled":true,"runs":200},"version":"0.8.12+commit.f00d7308"},"contractName":"FeeDistributorV2","language":"Solidity","natspec":{"details":"use interface IFeeDistributor","kind":"dev","methods":{"checkPrice()":{"details":"get IDO price for NICE","notice":"Check that current Nice Price is above IDO"},"enableTargetSearch(bool)":{"notice":"Toggle between enabling and disabling NICE target price Search"},"owner()":{"details":"Returns the address of the current owner."},"receiveFees(uint256,uint256)":{"details":"This function requires funds to be sent beforehand to this contract","notice":"Function that distributes fees to the respective flows"},"renounceOwnership()":{"details":"Leaves the contract without owner. It will not be possible to call `onlyOwner` functions anymore. Can only be called by the current owner. NOTE: Renouncing ownership will leave the contract without an owner, thereby removing any functionality that is only available to the owner."},"setBaseRouter(address)":{"details":"Requires the router to exist","notice":"Update the main router used to spread liquidity","params":{"_newRouter":"address of the router to migrate to"}},"setTeamWallet(address)":{"details":"requires address to be payable since it'll receive BNB(ETH) directly","notice":"Update the Marketing Wallet","params":{"_newTeamW":"address to send funds to"}},"transferOwnership(address)":{"details":"Transfers ownership of the contract to a new account (`newOwner`). Can only be called by the current owner."},"updateIdoTarget(uint256)":{"notice":"Update the Target Price to compare to for NICE buy back and burn only.","params":{"_price":"new Target price to attempt to reach"}},"updatePaths(uint256,address[],address[],address[])":{"notice":"Update the paths used for a specific pool","params":{"_path":"path of the token, if LP, tokens that comprise it, else route to ETH","_path1":"if LP, token0 path to ETH, else empty;","_path2":"if LP, token1 path to ETH, else empty;","id":"the Pool ID"}}},"version":1},"opcodes":"PUSH1 0x80 PUSH1 0x40 MSTORE PUSH1 0x4 CALLDATASIZE LT PUSH2 0x1AE JUMPI PUSH1 0x0 CALLDATALOAD PUSH1 0xE0 SHR DUP1 PUSH4 0x715018A6 GT PUSH2 0xEB JUMPI DUP1 PUSH4 0x958BAC5F GT PUSH2 0x8F JUMPI DUP1 PUSH4 0xD85539C6 GT PUSH2 0x61 JUMPI DUP1 PUSH4 0xD85539C6 EQ PUSH2 0x5B3 JUMPI DUP1 PUSH4 0xF2FDE38B EQ PUSH2 0x5D3 JUMPI DUP1 PUSH4 0xF83D08BA EQ PUSH2 0x5F3 JUMPI DUP1 PUSH4 0xF8B70F03 EQ PUSH2 0x613 JUMPI STOP JUMPDEST DUP1 PUSH4 0x958BAC5F EQ PUSH2 0x53D JUMPI DUP1 PUSH4 0xA562BDBA EQ PUSH2 0x55D JUMPI DUP1 PUSH4 0xBA13A572 EQ PUSH2 0x57D JUMPI DUP1 PUSH4 0xCD80FE0D EQ PUSH2 0x59D JUMPI STOP JUMPDEST DUP1 PUSH4 0x7D04FEFF GT PUSH2 0xC8 JUMPI DUP1 PUSH4 0x7D04FEFF EQ PUSH2 0x4B6 JUMPI DUP1 PUSH4 0x85141A77 EQ PUSH2 0x4D6 JUMPI DUP1 PUSH4 0x8DA5CB5B EQ PUSH2 0x50A JUMPI DUP1 PUSH4 0x8FC3047D EQ PUSH2 0x528 JUMPI STOP JUMPDEST DUP1 PUSH4 0x715018A6 EQ PUSH2 0x461 JUMPI DUP1 PUSH4 0x7A254A41 EQ PUSH2 0x476 JUMPI DUP1 PUSH4 0x7CED15EF EQ PUSH2 0x496 JUMPI STOP JUMPDEST DUP1 PUSH4 0x3843418D GT PUSH2 0x152 JUMPI DUP1 PUSH4 0x59927044 GT PUSH2 0x12F JUMPI DUP1 PUSH4 0x59927044 EQ PUSH2 0x3E1 JUMPI DUP1 PUSH4 0x659F4BF9 EQ PUSH2 0x401 JUMPI DUP1 PUSH4 0x67347C68 EQ PUSH2 0x421 JUMPI DUP1 PUSH4 0x6C7A8EE4 EQ PUSH2 0x441 JUMPI STOP JUMPDEST DUP1 PUSH4 0x3843418D EQ PUSH2 0x2F1 JUMPI DUP1 PUSH4 0x43F0A8E1 EQ PUSH2 0x38D JUMPI DUP1 PUSH4 0x4F348758 EQ PUSH2 0x3C1 JUMPI STOP JUMPDEST DUP1 PUSH4 0x1525FF7D GT PUSH2 0x18B JUMPI DUP1 PUSH4 0x1525FF7D EQ PUSH2 0x259 JUMPI DUP1 PUSH4 0x1FC8BC5D EQ PUSH2 0x279 JUMPI DUP1 PUSH4 0x30926486 EQ PUSH2 0x299 JUMPI DUP1 PUSH4 0x3410FE6E EQ PUSH2 0x2CD JUMPI STOP JUMPDEST DUP1 PUSH4 0x75B42AB EQ PUSH2 0x1B7 JUMPI DUP1 PUSH4 0xC657EB0 EQ PUSH2 0x1F4 JUMPI DUP1 PUSH4 0xFE344ED EQ PUSH2 0x228 JUMPI STOP JUMPDEST CALLDATASIZE PUSH2 0x1B5 JUMPI STOP JUMPDEST STOP JUMPDEST CALLVALUE DUP1 ISZERO PUSH2 0x1C3 JUMPI PUSH1 0x0 DUP1 REVERT JUMPDEST POP PUSH1 0x2 SLOAD PUSH2 0x1D7 SWAP1 PUSH1 0x1 PUSH1 0x1 PUSH1 0xA0 SHL SUB AND DUP2 JUMP JUMPDEST PUSH1 0x40 MLOAD PUSH1 0x1 PUSH1 0x1 PUSH1 0xA0 SHL SUB SWAP1 SWAP2 AND DUP2 MSTORE PUSH1 0x20 ADD JUMPDEST PUSH1 0x40 MLOAD DUP1 SWAP2 SUB SWAP1 RETURN JUMPDEST CALLVALUE DUP1 ISZERO PUSH2 0x200 JUMPI PUSH1 0x0 DUP1 REVERT JUMPDEST POP PUSH2 0x1D7 PUSH32 0x0 DUP2 JUMP JUMPDEST CALLVALUE DUP1 ISZERO PUSH2 0x234 JUMPI PUSH1 0x0 DUP1 REVERT JUMPDEST POP PUSH1 0x6 SLOAD PUSH2 0x249 SWAP1 PUSH1 0x1 PUSH1 0xA0 SHL SWAP1 DIV PUSH1 0xFF AND DUP2 JUMP JUMPDEST PUSH1 0x40 MLOAD SWAP1 ISZERO ISZERO DUP2 MSTORE PUSH1 0x20 ADD PUSH2 0x1EB JUMP JUMPDEST CALLVALUE DUP1 ISZERO PUSH2 0x265 JUMPI PUSH1 0x0 DUP1 REVERT JUMPDEST POP PUSH2 0x1B5 PUSH2 0x274 CALLDATASIZE PUSH1 0x4 PUSH2 0x2FEF JUMP JUMPDEST PUSH2 0x633 JUMP JUMPDEST CALLVALUE DUP1 ISZERO PUSH2 0x285 JUMPI PUSH1 0x0 DUP1 REVERT JUMPDEST POP PUSH1 0x7 SLOAD PUSH2 0x1D7 SWAP1 PUSH1 0x1 PUSH1 0x1 PUSH1 0xA0 SHL SUB AND DUP2 JUMP JUMPDEST CALLVALUE DUP1 ISZERO PUSH2 0x2A5 JUMPI PUSH1 0x0 DUP1 REVERT JUMPDEST POP PUSH2 0x1D7 PUSH32 0x0 DUP2 JUMP JUMPDEST CALLVALUE DUP1 ISZERO PUSH2 0x2D9 JUMPI PUSH1 0x0 DUP1 REVERT JUMPDEST POP PUSH2 0x2E3 PUSH2 0x2710 DUP2 JUMP JUMPDEST PUSH1 0x40 MLOAD SWAP1 DUP2 MSTORE PUSH1 0x20 ADD PUSH2 0x1EB JUMP JUMPDEST CALLVALUE DUP1 ISZERO PUSH2 0x2FD JUMPI PUSH1 0x0 DUP1 REVERT JUMPDEST POP PUSH2 0x354 PUSH2 0x30C CALLDATASIZE PUSH1 0x4 PUSH2 0x300C JUMP JUMPDEST PUSH1 0x8 PUSH1 0x20 DUP2 SWAP1 MSTORE PUSH1 0x0 SWAP2 DUP3 MSTORE PUSH1 0x40 SWAP1 SWAP2 KECCAK256 ADD SLOAD PUSH1 0xFF DUP1 DUP3 AND SWAP2 PUSH2 0x100 DUP2 DIV DUP3 AND SWAP2 PUSH3 0x10000 DUP3 DIV DUP2 AND SWAP2 PUSH4 0x1000000 DUP2 DIV SWAP1 SWAP2 AND SWAP1 PUSH1 0x1 PUSH1 0x20 SHL SWAP1 DIV PUSH1 0x1 PUSH1 0x1 PUSH1 0xA0 SHL SUB AND DUP6 JUMP JUMPDEST PUSH1 0x40 DUP1 MLOAD SWAP6 ISZERO ISZERO DUP7 MSTORE SWAP4 ISZERO ISZERO PUSH1 0x20 DUP7 ADD MSTORE SWAP2 ISZERO ISZERO SWAP3 DUP5 ADD SWAP3 SWAP1 SWAP3 MSTORE SWAP1 ISZERO ISZERO PUSH1 0x60 DUP4 ADD MSTORE PUSH1 0x1 PUSH1 0x1 PUSH1 0xA0 SHL SUB AND PUSH1 0x80 DUP3 ADD MSTORE PUSH1 0xA0 ADD PUSH2 0x1EB JUMP JUMPDEST CALLVALUE DUP1 ISZERO PUSH2 0x399 JUMPI PUSH1 0x0 DUP1 REVERT JUMPDEST POP PUSH2 0x1D7 PUSH32 0x0 DUP2 JUMP JUMPDEST CALLVALUE DUP1 ISZERO PUSH2 0x3CD JUMPI PUSH1 0x0 DUP1 REVERT JUMPDEST POP PUSH2 0x1B5 PUSH2 0x3DC CALLDATASIZE PUSH1 0x4 PUSH2 0x3025 JUMP JUMPDEST PUSH2 0x6FE JUMP JUMPDEST CALLVALUE DUP1 ISZERO PUSH2 0x3ED JUMPI PUSH1 0x0 DUP1 REVERT JUMPDEST POP PUSH1 0x4 SLOAD PUSH2 0x1D7 SWAP1 PUSH1 0x1 PUSH1 0x1 PUSH1 0xA0 SHL SUB AND DUP2 JUMP JUMPDEST CALLVALUE DUP1 ISZERO PUSH2 0x40D JUMPI PUSH1 0x0 DUP1 REVERT JUMPDEST POP PUSH2 0x1D7 PUSH2 0x41C CALLDATASIZE PUSH1 0x4 PUSH2 0x3025 JUMP JUMPDEST PUSH2 0xC8A JUMP JUMPDEST CALLVALUE DUP1 ISZERO PUSH2 0x42D JUMPI PUSH1 0x0 DUP1 REVERT JUMPDEST POP PUSH2 0x1B5 PUSH2 0x43C CALLDATASIZE PUSH1 0x4 PUSH2 0x3055 JUMP JUMPDEST PUSH2 0xCC2 JUMP JUMPDEST CALLVALUE DUP1 ISZERO PUSH2 0x44D JUMPI PUSH1 0x0 DUP1 REVERT JUMPDEST POP PUSH2 0x1B5 PUSH2 0x45C CALLDATASIZE PUSH1 0x4 PUSH2 0x30F0 JUMP JUMPDEST PUSH2 0xD8D JUMP JUMPDEST CALLVALUE DUP1 ISZERO PUSH2 0x46D JUMPI PUSH1 0x0 DUP1 REVERT JUMPDEST POP PUSH2 0x1B5 PUSH2 0x1060 JUMP JUMPDEST CALLVALUE DUP1 ISZERO PUSH2 0x482 JUMPI PUSH1 0x0 DUP1 REVERT JUMPDEST POP PUSH2 0x1D7 PUSH2 0x491 CALLDATASIZE PUSH1 0x4 PUSH2 0x3025 JUMP JUMPDEST PUSH2 0x1096 JUMP JUMPDEST CALLVALUE DUP1 ISZERO PUSH2 0x4A2 JUMPI PUSH1 0x0 DUP1 REVERT JUMPDEST POP PUSH2 0x1B5 PUSH2 0x4B1 CALLDATASIZE PUSH1 0x4 PUSH2 0x300C JUMP JUMPDEST PUSH2 0x10B2 JUMP JUMPDEST CALLVALUE DUP1 ISZERO PUSH2 0x4C2 JUMPI PUSH1 0x0 DUP1 REVERT JUMPDEST POP PUSH2 0x1D7 PUSH2 0x4D1 CALLDATASIZE PUSH1 0x4 PUSH2 0x3025 JUMP JUMPDEST PUSH2 0x1152 JUMP JUMPDEST CALLVALUE DUP1 ISZERO PUSH2 0x4E2 JUMPI PUSH1 0x0 DUP1 REVERT JUMPDEST POP PUSH2 0x1D7 PUSH32 0x0 DUP2 JUMP JUMPDEST CALLVALUE DUP1 ISZERO PUSH2 0x516 JUMPI PUSH1 0x0 DUP1 REVERT JUMPDEST POP PUSH1 0x0 SLOAD PUSH1 0x1 PUSH1 0x1 PUSH1 0xA0 SHL SUB AND PUSH2 0x1D7 JUMP JUMPDEST CALLVALUE DUP1 ISZERO PUSH2 0x534 JUMPI PUSH1 0x0 DUP1 REVERT JUMPDEST POP PUSH2 0x249 PUSH2 0x116E JUMP JUMPDEST CALLVALUE DUP1 ISZERO PUSH2 0x549 JUMPI PUSH1 0x0 DUP1 REVERT JUMPDEST POP PUSH2 0x1B5 PUSH2 0x558 CALLDATASIZE PUSH1 0x4 PUSH2 0x31E8 JUMP JUMPDEST PUSH2 0x123D JUMP JUMPDEST CALLVALUE DUP1 ISZERO PUSH2 0x569 JUMPI PUSH1 0x0 DUP1 REVERT JUMPDEST POP PUSH1 0x1 SLOAD PUSH2 0x1D7 SWAP1 PUSH1 0x1 PUSH1 0x1 PUSH1 0xA0 SHL SUB AND DUP2 JUMP JUMPDEST CALLVALUE DUP1 ISZERO PUSH2 0x589 JUMPI PUSH1 0x0 DUP1 REVERT JUMPDEST POP PUSH1 0x6 SLOAD PUSH2 0x1D7 SWAP1 PUSH1 0x1 PUSH1 0x1 PUSH1 0xA0 SHL SUB AND DUP2 JUMP JUMPDEST CALLVALUE DUP1 ISZERO PUSH2 0x5A9 JUMPI PUSH1 0x0 DUP1 REVERT JUMPDEST POP PUSH2 0x2E3 PUSH1 0x3 SLOAD DUP2 JUMP JUMPDEST CALLVALUE DUP1 ISZERO PUSH2 0x5BF JUMPI PUSH1 0x0 DUP1 REVERT JUMPDEST POP PUSH2 0x1B5 PUSH2 0x5CE CALLDATASIZE PUSH1 0x4 PUSH2 0x2FEF JUMP JUMPDEST PUSH2 0x12BE JUMP JUMPDEST CALLVALUE DUP1 ISZERO PUSH2 0x5DF JUMPI PUSH1 0x0 DUP1 REVERT JUMPDEST POP PUSH2 0x1B5 PUSH2 0x5EE CALLDATASIZE PUSH1 0x4 PUSH2 0x2FEF JUMP JUMPDEST PUSH2 0x1391 JUMP JUMPDEST CALLVALUE DUP1 ISZERO PUSH2 0x5FF JUMPI PUSH1 0x0 DUP1 REVERT JUMPDEST POP PUSH1 0x5 SLOAD PUSH2 0x1D7 SWAP1 PUSH1 0x1 PUSH1 0x1 PUSH1 0xA0 SHL SUB AND DUP2 JUMP JUMPDEST CALLVALUE DUP1 ISZERO PUSH2 0x61F JUMPI PUSH1 0x0 DUP1 REVERT JUMPDEST POP PUSH2 0x1B5 PUSH2 0x62E CALLDATASIZE PUSH1 0x4 PUSH2 0x2FEF JUMP JUMPDEST PUSH2 0x142C JUMP JUMPDEST PUSH1 0x0 SLOAD PUSH1 0x1 PUSH1 0x1 PUSH1 0xA0 SHL SUB AND CALLER EQ PUSH2 0x666 JUMPI PUSH1 0x40 MLOAD PUSH3 0x461BCD PUSH1 0xE5 SHL DUP2 MSTORE PUSH1 0x4 ADD PUSH2 0x65D SWAP1 PUSH2 0x328C JUMP JUMPDEST PUSH1 0x40 MLOAD DUP1 SWAP2 SUB SWAP1 REVERT JUMPDEST PUSH1 0x1 PUSH1 0x1 PUSH1 0xA0 SHL SUB DUP2 AND PUSH2 0x6A9 JUMPI PUSH1 0x40 MLOAD PUSH3 0x461BCD PUSH1 0xE5 SHL DUP2 MSTORE PUSH1 0x20 PUSH1 0x4 DUP3 ADD MSTORE PUSH1 0xA PUSH1 0x24 DUP3 ADD MSTORE PUSH10 0x43616E7420706179203 PUSH1 0xB4 SHL PUSH1 0x44 DUP3 ADD MSTORE PUSH1 0x64 ADD PUSH2 0x65D JUMP JUMPDEST PUSH1 0x4 DUP1 SLOAD PUSH1 0x1 PUSH1 0x1 PUSH1 0xA0 SHL SUB NOT AND PUSH1 0x1 PUSH1 0x1 PUSH1 0xA0 SHL SUB DUP4 AND SWAP1 DUP2 OR SWAP1 SWAP2 SSTORE PUSH1 0x40 MLOAD SWAP1 DUP2 MSTORE PUSH32 0x88B8EDDA57AF64D7425B090E9E8D925C96D2CC1360AFDC15F0DA29752103E705 SWAP1 PUSH1 0x20 ADD JUMPDEST PUSH1 0x40 MLOAD DUP1 SWAP2 SUB SWAP1 LOG1 POP JUMP JUMPDEST PUSH1 0x7 SLOAD PUSH1 0x1 PUSH1 0x1 PUSH1 0xA0 SHL SUB AND CALLER EQ PUSH2 0x743 JUMPI PUSH1 0x40 MLOAD PUSH3 0x461BCD PUSH1 0xE5 SHL DUP2 MSTORE PUSH1 0x20 PUSH1 0x4 DUP3 ADD MSTORE PUSH1 0x8 PUSH1 0x24 DUP3 ADD MSTORE PUSH8 0x37B7363CA1B432B3 PUSH1 0xC1 SHL PUSH1 0x44 DUP3 ADD MSTORE PUSH1 0x64 ADD PUSH2 0x65D JUMP JUMPDEST PUSH1 0x0 DUP3 DUP2 MSTORE PUSH1 0x8 PUSH1 0x20 DUP2 SWAP1 MSTORE PUSH1 0x40 SWAP1 SWAP2 KECCAK256 SWAP1 DUP2 ADD SLOAD PUSH1 0xFF AND PUSH2 0x792 JUMPI PUSH1 0x40 MLOAD PUSH3 0x461BCD PUSH1 0xE5 SHL DUP2 MSTORE PUSH1 0x20 PUSH1 0x4 DUP3 ADD MSTORE PUSH1 0x8 PUSH1 0x24 DUP3 ADD MSTORE PUSH8 0x139BDD081A5B9A5D PUSH1 0xC2 SHL PUSH1 0x44 DUP3 ADD MSTORE PUSH1 0x64 ADD PUSH2 0x65D JUMP JUMPDEST PUSH1 0x7 SLOAD PUSH1 0x40 MLOAD PUSH4 0x1526FE27 PUSH1 0xE0 SHL DUP2 MSTORE PUSH1 0x4 DUP2 ADD DUP6 SWAP1 MSTORE PUSH1 0x0 SWAP2 DUP3 SWAP2 PUSH1 0x1 PUSH1 0x1 PUSH1 0xA0 SHL SUB SWAP1 SWAP2 AND SWAP1 PUSH4 0x1526FE27 SWAP1 PUSH1 0x24 ADD PUSH1 0xE0 PUSH1 0x40 MLOAD DUP1 DUP4 SUB DUP2 DUP7 GAS STATICCALL ISZERO DUP1 ISZERO PUSH2 0x7E0 JUMPI RETURNDATASIZE PUSH1 0x0 DUP1 RETURNDATACOPY RETURNDATASIZE PUSH1 0x0 REVERT JUMPDEST POP POP POP POP PUSH1 0x40 MLOAD RETURNDATASIZE PUSH1 0x1F NOT PUSH1 0x1F DUP3 ADD AND DUP3 ADD DUP1 PUSH1 0x40 MSTORE POP DUP2 ADD SWAP1 PUSH2 0x804 SWAP2 SWAP1 PUSH2 0x32C1 JUMP JUMPDEST PUSH1 0x7 SLOAD SWAP4 SWAP9 POP SWAP7 POP PUSH2 0x82D SWAP6 POP POP PUSH1 0x1 PUSH1 0x1 PUSH1 0xA0 SHL SUB DUP1 DUP9 AND SWAP5 POP SWAP1 SWAP2 AND SWAP2 POP ADDRESS SWAP1 POP DUP8 PUSH2 0x14E4 JUMP JUMPDEST PUSH1 0x40 MLOAD PUSH4 0x70A08231 PUSH1 0xE0 SHL DUP2 MSTORE ADDRESS PUSH1 0x4 DUP3 ADD MSTORE DUP5 SWAP1 PUSH1 0x1 PUSH1 0x1 PUSH1 0xA0 SHL SUB DUP5 AND SWAP1 PUSH4 0x70A08231 SWAP1 PUSH1 0x24 ADD PUSH1 0x20 PUSH1 0x40 MLOAD DUP1 DUP4 SUB DUP2 DUP7 GAS STATICCALL ISZERO DUP1 ISZERO PUSH2 0x873 JUMPI RETURNDATASIZE PUSH1 0x0 DUP1 RETURNDATACOPY RETURNDATASIZE PUSH1 0x0 REVERT JUMPDEST POP POP POP POP PUSH1 0x40 MLOAD RETURNDATASIZE PUSH1 0x1F NOT PUSH1 0x1F DUP3 ADD AND DUP3 ADD DUP1 PUSH1 0x40 MSTORE POP DUP2 ADD SWAP1 PUSH2 0x897 SWAP2 SWAP1 PUSH2 0x3337 JUMP JUMPDEST LT ISZERO PUSH2 0x8D2 JUMPI PUSH1 0x40 MLOAD PUSH3 0x461BCD PUSH1 0xE5 SHL DUP2 MSTORE PUSH1 0x20 PUSH1 0x4 DUP3 ADD MSTORE PUSH1 0xA PUSH1 0x24 DUP3 ADD MSTORE PUSH10 0x73656E642066756E6473 PUSH1 0xB0 SHL PUSH1 0x44 DUP3 ADD MSTORE PUSH1 0x64 ADD PUSH2 0x65D JUMP JUMPDEST PUSH1 0x8 DUP4 ADD SLOAD PUSH1 0x1 PUSH1 0x1 PUSH1 0xA0 SHL SUB DUP1 DUP5 AND SWAP2 PUSH4 0x95EA7B3 SWAP2 PUSH1 0x1 PUSH1 0x20 SHL SWAP1 SWAP2 DIV AND PUSH2 0x8FD DUP8 PUSH1 0x2 PUSH2 0x3366 JUMP JUMPDEST PUSH1 0x40 MLOAD PUSH1 0x1 PUSH1 0x1 PUSH1 0xE0 SHL SUB NOT PUSH1 0xE0 DUP6 SWAP1 SHL AND DUP2 MSTORE PUSH1 0x1 PUSH1 0x1 PUSH1 0xA0 SHL SUB SWAP1 SWAP3 AND PUSH1 0x4 DUP4 ADD MSTORE PUSH1 0x24 DUP3 ADD MSTORE PUSH1 0x44 ADD PUSH1 0x20 PUSH1 0x40 MLOAD DUP1 DUP4 SUB DUP2 PUSH1 0x0 DUP8 GAS CALL ISZERO DUP1 ISZERO PUSH2 0x948 JUMPI RETURNDATASIZE PUSH1 0x0 DUP1 RETURNDATACOPY RETURNDATASIZE PUSH1 0x0 REVERT JUMPDEST POP POP POP POP PUSH1 0x40 MLOAD RETURNDATASIZE PUSH1 0x1F NOT PUSH1 0x1F DUP3 ADD AND DUP3 ADD DUP1 PUSH1 0x40 MSTORE POP DUP2 ADD SWAP1 PUSH2 0x96C SWAP2 SWAP1 PUSH2 0x3385 JUMP JUMPDEST POP DUP1 ISZERO PUSH2 0x983 JUMPI PUSH2 0x97D DUP6 DUP6 PUSH2 0x1544 JUMP JUMPDEST POP PUSH2 0xAA9 JUMP JUMPDEST PUSH1 0x8 DUP4 ADD SLOAD PUSH2 0x100 SWAP1 DIV PUSH1 0xFF AND ISZERO PUSH2 0xA16 JUMPI PUSH1 0x8 DUP4 ADD SLOAD PUSH1 0x0 DUP7 DUP2 MSTORE PUSH1 0x9 PUSH1 0x20 MSTORE PUSH1 0x40 DUP1 DUP3 KECCAK256 SWAP1 MLOAD PUSH4 0x791AC947 PUSH1 0xE0 SHL DUP2 MSTORE PUSH1 0x1 PUSH1 0x20 SHL SWAP1 SWAP4 DIV PUSH1 0x1 PUSH1 0x1 PUSH1 0xA0 SHL SUB AND SWAP3 PUSH4 0x791AC947 SWAP3 PUSH2 0x9DF SWAP3 DUP10 SWAP3 ADDRESS SWAP1 TIMESTAMP SWAP1 PUSH1 0x4 ADD PUSH2 0x33A2 JUMP JUMPDEST PUSH1 0x0 PUSH1 0x40 MLOAD DUP1 DUP4 SUB DUP2 PUSH1 0x0 DUP8 DUP1 EXTCODESIZE ISZERO DUP1 ISZERO PUSH2 0x9F9 JUMPI PUSH1 0x0 DUP1 REVERT JUMPDEST POP GAS CALL ISZERO DUP1 ISZERO PUSH2 0xA0D JUMPI RETURNDATASIZE PUSH1 0x0 DUP1 RETURNDATACOPY RETURNDATASIZE PUSH1 0x0 REVERT JUMPDEST POP POP POP POP PUSH2 0xAA9 JUMP JUMPDEST PUSH1 0x8 DUP4 ADD SLOAD PUSH1 0x0 DUP7 DUP2 MSTORE PUSH1 0x9 PUSH1 0x20 MSTORE PUSH1 0x40 DUP1 DUP3 KECCAK256 SWAP1 MLOAD PUSH4 0x18CBAFE5 PUSH1 0xE0 SHL DUP2 MSTORE PUSH1 0x1 PUSH1 0x20 SHL SWAP1 SWAP4 DIV PUSH1 0x1 PUSH1 0x1 PUSH1 0xA0 SHL SUB AND SWAP3 PUSH4 0x18CBAFE5 SWAP3 PUSH2 0xA60 SWAP3 DUP10 SWAP3 ADDRESS SWAP1 TIMESTAMP SWAP1 PUSH1 0x4 ADD PUSH2 0x33A2 JUMP JUMPDEST PUSH1 0x0 PUSH1 0x40 MLOAD DUP1 DUP4 SUB DUP2 PUSH1 0x0 DUP8 GAS CALL ISZERO DUP1 ISZERO PUSH2 0xA7F JUMPI RETURNDATASIZE PUSH1 0x0 DUP1 RETURNDATACOPY RETURNDATASIZE PUSH1 0x0 REVERT JUMPDEST POP POP POP POP PUSH1 0x40 MLOAD RETURNDATASIZE PUSH1 0x0 DUP3 RETURNDATACOPY PUSH1 0x1F RETURNDATASIZE SWAP1 DUP2 ADD PUSH1 0x1F NOT AND DUP3 ADD PUSH1 0x40 MSTORE PUSH2 0xAA7 SWAP2 SWAP1 DUP2 ADD SWAP1 PUSH2 0x342E JUMP JUMPDEST POP JUMPDEST PUSH1 0x6 SLOAD PUSH1 0x1 PUSH1 0xA0 SHL SWAP1 DIV PUSH1 0xFF AND DUP1 ISZERO PUSH2 0xAC5 JUMPI POP PUSH2 0xAC5 PUSH2 0x116E JUMP JUMPDEST ISZERO PUSH2 0xC39 JUMPI PUSH1 0x1 SLOAD PUSH1 0x40 DUP1 MLOAD PUSH4 0x15AB88C9 PUSH1 0xE3 SHL DUP2 MSTORE SWAP1 MLOAD SELFBALANCE SWAP3 PUSH1 0x60 SWAP3 PUSH1 0x1 PUSH1 0x1 PUSH1 0xA0 SHL SUB SWAP1 SWAP2 AND SWAP2 PUSH4 0xAD5C4648 SWAP2 PUSH1 0x4 DUP1 DUP3 ADD SWAP3 PUSH1 0x20 SWAP3 SWAP1 SWAP2 SWAP1 DUP3 SWAP1 SUB ADD DUP2 DUP7 GAS STATICCALL ISZERO DUP1 ISZERO PUSH2 0xB19 JUMPI RETURNDATASIZE PUSH1 0x0 DUP1 RETURNDATACOPY RETURNDATASIZE PUSH1 0x0 REVERT JUMPDEST POP POP POP POP PUSH1 0x40 MLOAD RETURNDATASIZE PUSH1 0x1F NOT PUSH1 0x1F DUP3 ADD AND DUP3 ADD DUP1 PUSH1 0x40 MSTORE POP DUP2 ADD SWAP1 PUSH2 0xB3D SWAP2 SWAP1 PUSH2 0x34EC JUMP JUMPDEST DUP2 PUSH1 0x0 DUP2 MLOAD DUP2 LT PUSH2 0xB50 JUMPI PUSH2 0xB50 PUSH2 0x3509 JUMP JUMPDEST PUSH1 0x20 MUL PUSH1 0x20 ADD ADD SWAP1 PUSH1 0x1 PUSH1 0x1 PUSH1 0xA0 SHL SUB AND SWAP1 DUP2 PUSH1 0x1 PUSH1 0x1 PUSH1 0xA0 SHL SUB AND DUP2 MSTORE POP POP PUSH32 0x0 DUP2 PUSH1 0x1 DUP2 MLOAD DUP2 LT PUSH2 0xBA4 JUMPI PUSH2 0xBA4 PUSH2 0x3509 JUMP JUMPDEST PUSH1 0x1 PUSH1 0x1 PUSH1 0xA0 SHL SUB SWAP3 DUP4 AND PUSH1 0x20 SWAP2 DUP3 MUL SWAP3 SWAP1 SWAP3 ADD ADD MSTORE PUSH1 0x1 SLOAD PUSH1 0x40 MLOAD PUSH4 0x7FF36AB5 PUSH1 0xE0 SHL DUP2 MSTORE SWAP2 AND SWAP1 PUSH4 0x7FF36AB5 SWAP1 DUP5 SWAP1 PUSH2 0xBEA SWAP1 PUSH1 0x0 SWAP1 DUP7 SWAP1 DUP3 SWAP1 TIMESTAMP SWAP1 PUSH1 0x4 ADD PUSH2 0x3563 JUMP JUMPDEST PUSH1 0x0 PUSH1 0x40 MLOAD DUP1 DUP4 SUB DUP2 DUP6 DUP9 GAS CALL ISZERO DUP1 ISZERO PUSH2 0xC08 JUMPI RETURNDATASIZE PUSH1 0x0 DUP1 RETURNDATACOPY RETURNDATASIZE PUSH1 0x0 REVERT JUMPDEST POP POP POP POP POP PUSH1 0x40 MLOAD RETURNDATASIZE PUSH1 0x0 DUP3 RETURNDATACOPY PUSH1 0x1F RETURNDATASIZE SWAP1 DUP2 ADD PUSH1 0x1F NOT AND DUP3 ADD PUSH1 0x40 MSTORE PUSH2 0xC31 SWAP2 SWAP1 DUP2 ADD SWAP1 PUSH2 0x342E JUMP JUMPDEST POP POP POP PUSH2 0xC42 JUMP JUMPDEST PUSH2 0xC42 DUP4 PUSH2 0x1ED6 JUMP JUMPDEST PUSH1 0x40 DUP1 MLOAD DUP6 DUP2 MSTORE PUSH1 0x1 PUSH1 0x1 PUSH1 0xA0 SHL SUB DUP5 AND PUSH1 0x20 DUP3 ADD MSTORE PUSH32 0x195B26CED269C6DA9F9A06D404CBA065A0149C0C189719E0384E1BEB79659DA0 SWAP2 ADD PUSH1 0x40 MLOAD DUP1 SWAP2 SUB SWAP1 LOG1 POP POP POP POP POP JUMP JUMPDEST PUSH1 0xA PUSH1 0x20 MSTORE DUP2 PUSH1 0x0 MSTORE PUSH1 0x40 PUSH1 0x0 KECCAK256 DUP2 DUP2 SLOAD DUP2 LT PUSH2 0xCA6 JUMPI PUSH1 0x0 DUP1 REVERT JUMPDEST PUSH1 0x0 SWAP2 DUP3 MSTORE PUSH1 0x20 SWAP1 SWAP2 KECCAK256 ADD SLOAD PUSH1 0x1 PUSH1 0x1 PUSH1 0xA0 SHL SUB AND SWAP2 POP DUP3 SWAP1 POP JUMP JUMPDEST PUSH1 0x0 SLOAD PUSH1 0x1 PUSH1 0x1 PUSH1 0xA0 SHL SUB AND CALLER EQ PUSH2 0xCEC JUMPI PUSH1 0x40 MLOAD PUSH3 0x461BCD PUSH1 0xE5 SHL DUP2 MSTORE PUSH1 0x4 ADD PUSH2 0x65D SWAP1 PUSH2 0x328C JUMP JUMPDEST PUSH1 0x6 SLOAD PUSH1 0xFF PUSH1 0x1 PUSH1 0xA0 SHL SWAP1 SWAP2 DIV AND ISZERO ISZERO DUP2 ISZERO ISZERO EQ ISZERO PUSH2 0xD40 JUMPI PUSH1 0x40 MLOAD PUSH3 0x461BCD PUSH1 0xE5 SHL DUP2 MSTORE PUSH1 0x20 PUSH1 0x4 DUP3 ADD MSTORE PUSH1 0x10 PUSH1 0x24 DUP3 ADD MSTORE PUSH16 0x416C726561647920696E207374617465 PUSH1 0x80 SHL PUSH1 0x44 DUP3 ADD MSTORE PUSH1 0x64 ADD PUSH2 0x65D JUMP JUMPDEST PUSH1 0x6 DUP1 SLOAD DUP3 ISZERO ISZERO PUSH1 0x1 PUSH1 0xA0 SHL MUL PUSH1 0xFF PUSH1 0xA0 SHL NOT SWAP1 SWAP2 AND OR SWAP1 SSTORE PUSH1 0x40 MLOAD PUSH32 0x7D703B166159E7B2E16B6550390CFDC4786DDDF83C504AA32647E1DA9127F226 SWAP1 PUSH2 0x6F3 SWAP1 DUP4 ISZERO ISZERO DUP2 MSTORE PUSH1 0x20 ADD SWAP1 JUMP JUMPDEST PUSH1 0x0 SLOAD PUSH1 0x1 PUSH1 0x1 PUSH1 0xA0 SHL SUB AND CALLER EQ PUSH2 0xDB7 JUMPI PUSH1 0x40 MLOAD PUSH3 0x461BCD PUSH1 0xE5 SHL DUP2 MSTORE PUSH1 0x4 ADD PUSH2 0x65D SWAP1 PUSH2 0x328C JUMP JUMPDEST PUSH2 0x2710 PUSH2 0xDC4 DUP12 DUP12 PUSH2 0x23C3 JUMP JUMPDEST GT ISZERO PUSH2 0xE12 JUMPI PUSH1 0x40 MLOAD PUSH3 0x461BCD PUSH1 0xE5 SHL DUP2 MSTORE PUSH1 0x20 PUSH1 0x4 DUP3 ADD MSTORE PUSH1 0x1A PUSH1 0x24 DUP3 ADD MSTORE PUSH32 0x496E636F72726563742046656520646973747269627574696F6E000000000000 PUSH1 0x44 DUP3 ADD MSTORE PUSH1 0x64 ADD PUSH2 0x65D JUMP JUMPDEST PUSH1 0x1 PUSH1 0x1 PUSH1 0xA0 SHL SUB DUP8 AND PUSH2 0xE5B JUMPI PUSH1 0x40 MLOAD PUSH3 0x461BCD PUSH1 0xE5 SHL DUP2 MSTORE PUSH1 0x20 PUSH1 0x4 DUP3 ADD MSTORE PUSH1 0x10 PUSH1 0x24 DUP3 ADD MSTORE PUSH16 0x24B731B7B93932B1BA102937BABA32B9 PUSH1 0x81 SHL PUSH1 0x44 DUP3 ADD MSTORE PUSH1 0x64 ADD PUSH2 0x65D JUMP JUMPDEST DUP5 PUSH2 0xE9E JUMPI PUSH1 0x40 MLOAD PUSH3 0x461BCD PUSH1 0xE5 SHL DUP2 MSTORE PUSH1 0x20 PUSH1 0x4 DUP3 ADD MSTORE PUSH1 0x13 PUSH1 0x24 DUP3 ADD MSTORE PUSH19 0x6E6565642061207061746820746F2062617365 PUSH1 0x68 SHL PUSH1 0x44 DUP3 ADD MSTORE PUSH1 0x64 ADD PUSH2 0x65D JUMP JUMPDEST PUSH1 0x40 DUP1 MLOAD PUSH2 0x140 DUP2 ADD SWAP1 SWAP2 MSTORE DUP1 PUSH1 0xE0 DUP2 ADD DUP13 PUSH1 0x3 DUP3 DUP3 PUSH1 0x60 DUP1 DUP3 DUP5 CALLDATACOPY PUSH1 0x0 SWAP3 ADD SWAP2 SWAP1 SWAP2 MSTORE POP POP POP DUP2 MSTORE PUSH1 0x40 DUP1 MLOAD PUSH1 0xA0 DUP2 DUP2 ADD SWAP1 SWAP3 MSTORE PUSH1 0x20 SWAP1 SWAP3 ADD SWAP2 SWAP1 DUP13 SWAP1 PUSH1 0x5 SWAP1 DUP4 SWAP1 DUP4 SWAP1 DUP1 DUP3 DUP5 CALLDATACOPY PUSH1 0x0 SWAP3 ADD SWAP2 SWAP1 SWAP2 MSTORE POP POP POP DUP2 MSTORE PUSH1 0x1 PUSH1 0x20 DUP1 DUP4 ADD SWAP2 SWAP1 SWAP2 MSTORE PUSH1 0x40 SWAP1 SWAP2 ADD SWAP1 PUSH2 0xF11 SWAP1 DUP12 ADD DUP12 PUSH2 0x3055 JUMP JUMPDEST ISZERO ISZERO DUP2 MSTORE PUSH1 0x20 SWAP1 DUP2 ADD SWAP1 PUSH2 0xF2B SWAP1 PUSH1 0x40 DUP13 ADD SWAP1 DUP13 ADD PUSH2 0x3055 JUMP JUMPDEST ISZERO ISZERO DUP2 MSTORE PUSH1 0x20 ADD PUSH2 0xF42 PUSH1 0x60 DUP12 ADD PUSH1 0x40 DUP13 ADD PUSH2 0x3055 JUMP JUMPDEST ISZERO ISZERO DUP2 MSTORE PUSH1 0x1 PUSH1 0x1 PUSH1 0xA0 SHL SUB DUP10 AND PUSH1 0x20 SWAP2 DUP3 ADD MSTORE PUSH1 0x0 DUP14 DUP2 MSTORE PUSH1 0x8 SWAP1 SWAP2 MSTORE PUSH1 0x40 SWAP1 KECCAK256 DUP2 MLOAD PUSH2 0xF73 SWAP1 DUP3 SWAP1 PUSH1 0x3 PUSH2 0x2F07 JUMP JUMPDEST POP PUSH1 0x20 DUP3 ADD MLOAD PUSH2 0xF89 SWAP1 PUSH1 0x3 DUP4 ADD SWAP1 PUSH1 0x5 PUSH2 0x2F45 JUMP JUMPDEST POP PUSH1 0x40 DUP3 ADD MLOAD PUSH1 0x8 SWAP1 SWAP2 ADD DUP1 SLOAD PUSH1 0x60 DUP5 ADD MLOAD PUSH1 0x80 DUP6 ADD MLOAD PUSH1 0xA0 DUP7 ADD MLOAD PUSH1 0xC0 SWAP1 SWAP7 ADD MLOAD PUSH1 0x1 PUSH1 0x1 PUSH1 0xA0 SHL SUB AND PUSH1 0x1 PUSH1 0x20 SHL MUL PUSH5 0x100000000 PUSH1 0x1 PUSH1 0xC0 SHL SUB NOT SWAP7 ISZERO ISZERO PUSH4 0x1000000 MUL PUSH4 0xFF000000 NOT SWAP3 ISZERO ISZERO PUSH3 0x10000 MUL SWAP3 SWAP1 SWAP3 AND PUSH4 0xFFFF0000 NOT SWAP4 ISZERO ISZERO PUSH2 0x100 MUL PUSH2 0xFF00 NOT SWAP8 ISZERO ISZERO SWAP8 SWAP1 SWAP8 AND PUSH2 0xFFFF NOT SWAP1 SWAP6 AND SWAP5 SWAP1 SWAP5 OR SWAP6 SWAP1 SWAP6 OR SWAP2 SWAP1 SWAP2 AND SWAP2 SWAP1 SWAP2 OR OR SWAP3 SWAP1 SWAP3 AND OR SWAP1 SSTORE PUSH2 0x1028 DUP12 DUP8 DUP8 DUP8 DUP8 DUP8 DUP8 PUSH2 0x123D JUMP JUMPDEST PUSH1 0x40 MLOAD DUP12 SWAP1 PUSH32 0xF7EB02141AD38EBC5B61E51E5BB0E913CEA227B9DFC94EA034FB39A9F5FE809F SWAP1 PUSH1 0x0 SWAP1 LOG2 POP POP POP POP POP POP POP POP POP POP POP JUMP JUMPDEST PUSH1 0x0 SLOAD PUSH1 0x1 PUSH1 0x1 PUSH1 0xA0 SHL SUB AND CALLER EQ PUSH2 0x108A JUMPI PUSH1 0x40 MLOAD PUSH3 0x461BCD PUSH1 0xE5 SHL DUP2 MSTORE PUSH1 0x4 ADD PUSH2 0x65D SWAP1 PUSH2 0x328C JUMP JUMPDEST PUSH2 0x1094 PUSH1 0x0 PUSH2 0x2440 JUMP JUMPDEST JUMP JUMPDEST PUSH1 0x9 PUSH1 0x20 MSTORE DUP2 PUSH1 0x0 MSTORE PUSH1 0x40 PUSH1 0x0 KECCAK256 DUP2 DUP2 SLOAD DUP2 LT PUSH2 0xCA6 JUMPI PUSH1 0x0 DUP1 REVERT JUMPDEST PUSH1 0x0 SLOAD PUSH1 0x1 PUSH1 0x1 PUSH1 0xA0 SHL SUB AND CALLER EQ PUSH2 0x10DC JUMPI PUSH1 0x40 MLOAD PUSH3 0x461BCD PUSH1 0xE5 SHL DUP2 MSTORE PUSH1 0x4 ADD PUSH2 0x65D SWAP1 PUSH2 0x328C JUMP JUMPDEST PUSH1 0x0 DUP2 GT PUSH2 0x111D JUMPI PUSH1 0x40 MLOAD PUSH3 0x461BCD PUSH1 0xE5 SHL DUP2 MSTORE PUSH1 0x20 PUSH1 0x4 DUP3 ADD MSTORE PUSH1 0xE PUSH1 0x24 DUP3 ADD MSTORE PUSH14 0x125B9D985B1A59081D185C99D95D PUSH1 0x92 SHL PUSH1 0x44 DUP3 ADD MSTORE PUSH1 0x64 ADD PUSH2 0x65D JUMP JUMPDEST PUSH1 0x3 DUP2 SWAP1 SSTORE PUSH1 0x40 MLOAD DUP2 DUP2 MSTORE PUSH32 0x145CC1D669B07469E4051F322247BE4857EC7E59AE7DCD6E88057C181424D858 SWAP1 PUSH1 0x20 ADD PUSH2 0x6F3 JUMP JUMPDEST PUSH1 0xB PUSH1 0x20 MSTORE DUP2 PUSH1 0x0 MSTORE PUSH1 0x40 PUSH1 0x0 KECCAK256 DUP2 DUP2 SLOAD DUP2 LT PUSH2 0xCA6 JUMPI PUSH1 0x0 DUP1 REVERT JUMPDEST PUSH1 0x0 DUP1 PUSH1 0x0 PUSH1 0x2 PUSH1 0x0 SWAP1 SLOAD SWAP1 PUSH2 0x100 EXP SWAP1 DIV PUSH1 0x1 PUSH1 0x1 PUSH1 0xA0 SHL SUB AND PUSH1 0x1 PUSH1 0x1 PUSH1 0xA0 SHL SUB AND PUSH4 0x902F1AC PUSH1 0x40 MLOAD DUP2 PUSH4 0xFFFFFFFF AND PUSH1 0xE0 SHL DUP2 MSTORE PUSH1 0x4 ADD PUSH1 0x60 PUSH1 0x40 MLOAD DUP1 DUP4 SUB DUP2 DUP7 GAS STATICCALL ISZERO DUP1 ISZERO PUSH2 0x11C6 JUMPI RETURNDATASIZE PUSH1 0x0 DUP1 RETURNDATACOPY RETURNDATASIZE PUSH1 0x0 REVERT JUMPDEST POP POP POP POP PUSH1 0x40 MLOAD RETURNDATASIZE PUSH1 0x1F NOT PUSH1 0x1F DUP3 ADD AND DUP3 ADD DUP1 PUSH1 0x40 MSTORE POP DUP2 ADD SWAP1 PUSH2 0x11EA SWAP2 SWAP1 PUSH2 0x35AF JUMP JUMPDEST POP PUSH1 0x1 PUSH1 0x1 PUSH1 0x70 SHL SUB AND SWAP2 POP PUSH1 0x1 PUSH1 0x1 PUSH1 0x70 SHL SUB AND SWAP2 POP PUSH1 0x0 DUP2 GT PUSH2 0x1210 JUMPI PUSH1 0x1 PUSH2 0x1212 JUMP JUMPDEST DUP1 JUMPDEST PUSH1 0x3 SLOAD SWAP1 SWAP2 POP DUP2 PUSH2 0x122B DUP5 PUSH8 0xDE0B6B3A7640000 PUSH2 0x3366 JUMP JUMPDEST PUSH2 0x1235 SWAP2 SWAP1 PUSH2 0x35FF JUMP JUMPDEST LT SWAP3 POP POP POP SWAP1 JUMP JUMPDEST PUSH1 0x0 SLOAD PUSH1 0x1 PUSH1 0x1 PUSH1 0xA0 SHL SUB AND CALLER EQ PUSH2 0x1267 JUMPI PUSH1 0x40 MLOAD PUSH3 0x461BCD PUSH1 0xE5 SHL DUP2 MSTORE PUSH1 0x4 ADD PUSH2 0x65D SWAP1 PUSH2 0x328C JUMP JUMPDEST PUSH1 0x0 DUP8 DUP2 MSTORE PUSH1 0x9 PUSH1 0x20 MSTORE PUSH1 0x40 SWAP1 KECCAK256 PUSH2 0x1280 SWAP1 DUP8 DUP8 PUSH2 0x2F72 JUMP JUMPDEST POP PUSH1 0x0 DUP8 DUP2 MSTORE PUSH1 0xA PUSH1 0x20 MSTORE PUSH1 0x40 SWAP1 KECCAK256 PUSH2 0x129A SWAP1 DUP6 DUP6 PUSH2 0x2F72 JUMP JUMPDEST POP PUSH1 0x0 DUP8 DUP2 MSTORE PUSH1 0xB PUSH1 0x20 MSTORE PUSH1 0x40 SWAP1 KECCAK256 PUSH2 0x12B4 SWAP1 DUP4 DUP4 PUSH2 0x2F72 JUMP JUMPDEST POP POP POP POP POP POP POP POP JUMP JUMPDEST PUSH1 0x0 SLOAD PUSH1 0x1 PUSH1 0x1 PUSH1 0xA0 SHL SUB AND CALLER EQ PUSH2 0x12E8 JUMPI PUSH1 0x40 MLOAD PUSH3 0x461BCD PUSH1 0xE5 SHL DUP2 MSTORE PUSH1 0x4 ADD PUSH2 0x65D SWAP1 PUSH2 0x328C JUMP JUMPDEST PUSH1 0x1 PUSH1 0x1 PUSH1 0xA0 SHL SUB DUP2 AND PUSH2 0x1328 JUMPI PUSH1 0x40 MLOAD PUSH3 0x461BCD PUSH1 0xE5 SHL DUP2 MSTORE PUSH1 0x20 PUSH1 0x4 DUP3 ADD MSTORE PUSH1 0x7 PUSH1 0x24 DUP3 ADD MSTORE PUSH7 0x4E6F205A65726F PUSH1 0xC8 SHL PUSH1 0x44 DUP3 ADD MSTORE PUSH1 0x64 ADD PUSH2 0x65D JUMP JUMPDEST PUSH1 0x6 SLOAD PUSH1 0x40 DUP1 MLOAD PUSH1 0x1 PUSH1 0x1 PUSH1 0xA0 SHL SUB DUP1 DUP6 AND DUP3 MSTORE SWAP1 SWAP3 AND PUSH1 0x20 DUP4 ADD MSTORE PUSH32 0x4088A686F46439872254E52412588879189D5D7AD58511047A6F308714E0A0FC SWAP2 ADD PUSH1 0x40 MLOAD DUP1 SWAP2 SUB SWAP1 LOG1 PUSH1 0x6 DUP1 SLOAD PUSH1 0x1 PUSH1 0x1 PUSH1 0xA0 SHL SUB NOT AND PUSH1 0x1 PUSH1 0x1 PUSH1 0xA0 SHL SUB SWAP3 SWAP1 SWAP3 AND SWAP2 SWAP1 SWAP2 OR SWAP1 SSTORE JUMP JUMPDEST PUSH1 0x0 SLOAD PUSH1 0x1 PUSH1 0x1 PUSH1 0xA0 SHL SUB AND CALLER EQ PUSH2 0x13BB JUMPI PUSH1 0x40 MLOAD PUSH3 0x461BCD PUSH1 0xE5 SHL DUP2 MSTORE PUSH1 0x4 ADD PUSH2 0x65D SWAP1 PUSH2 0x328C JUMP JUMPDEST PUSH1 0x1 PUSH1 0x1 PUSH1 0xA0 SHL SUB DUP2 AND PUSH2 0x1420 JUMPI PUSH1 0x40 MLOAD PUSH3 0x461BCD PUSH1 0xE5 SHL DUP2 MSTORE PUSH1 0x20 PUSH1 0x4 DUP3 ADD MSTORE PUSH1 0x26 PUSH1 0x24 DUP3 ADD MSTORE PUSH32 0x4F776E61626C653A206E6577206F776E657220697320746865207A65726F2061 PUSH1 0x44 DUP3 ADD MSTORE PUSH6 0x646472657373 PUSH1 0xD0 SHL PUSH1 0x64 DUP3 ADD MSTORE PUSH1 0x84 ADD PUSH2 0x65D JUMP JUMPDEST PUSH2 0x1429 DUP2 PUSH2 0x2440 JUMP JUMPDEST POP JUMP JUMPDEST PUSH1 0x0 SLOAD PUSH1 0x1 PUSH1 0x1 PUSH1 0xA0 SHL SUB AND CALLER EQ PUSH2 0x1456 JUMPI PUSH1 0x40 MLOAD PUSH3 0x461BCD PUSH1 0xE5 SHL DUP2 MSTORE PUSH1 0x4 ADD PUSH2 0x65D SWAP1 PUSH2 0x328C JUMP JUMPDEST PUSH1 0x1 PUSH1 0x1 PUSH1 0xA0 SHL SUB DUP2 AND PUSH2 0x1496 JUMPI PUSH1 0x40 MLOAD PUSH3 0x461BCD PUSH1 0xE5 SHL DUP2 MSTORE PUSH1 0x20 PUSH1 0x4 DUP3 ADD MSTORE PUSH1 0x7 PUSH1 0x24 DUP3 ADD MSTORE PUSH7 0x4E6F207A65726F PUSH1 0xC8 SHL PUSH1 0x44 DUP3 ADD MSTORE PUSH1 0x64 ADD PUSH2 0x65D JUMP JUMPDEST PUSH1 0x1 DUP1 SLOAD PUSH1 0x1 PUSH1 0x1 PUSH1 0xA0 SHL SUB NOT AND PUSH1 0x1 PUSH1 0x1 PUSH1 0xA0 SHL SUB DUP4 AND SWAP1 DUP2 OR SWAP1 SWAP2 SSTORE PUSH1 0x40 MLOAD SWAP1 DUP2 MSTORE PUSH32 0x2DF9D602927CBEE25F5AC348817E8312326C22C45D0AFE91F8C3B5EB4FD67508 SWAP1 PUSH1 0x20 ADD PUSH2 0x6F3 JUMP JUMPDEST PUSH1 0x40 DUP1 MLOAD PUSH1 0x1 PUSH1 0x1 PUSH1 0xA0 SHL SUB DUP6 DUP2 AND PUSH1 0x24 DUP4 ADD MSTORE DUP5 AND PUSH1 0x44 DUP3 ADD MSTORE PUSH1 0x64 DUP1 DUP3 ADD DUP5 SWAP1 MSTORE DUP3 MLOAD DUP1 DUP4 SUB SWAP1 SWAP2 ADD DUP2 MSTORE PUSH1 0x84 SWAP1 SWAP2 ADD SWAP1 SWAP2 MSTORE PUSH1 0x20 DUP2 ADD DUP1 MLOAD PUSH1 0x1 PUSH1 0x1 PUSH1 0xE0 SHL SUB AND PUSH4 0x23B872DD PUSH1 0xE0 SHL OR SWAP1 MSTORE PUSH2 0x153E SWAP1 DUP6 SWAP1 PUSH2 0x2490 JUMP JUMPDEST POP POP POP POP JUMP JUMPDEST PUSH1 0x0 DUP3 DUP2 MSTORE PUSH1 0x8 PUSH1 0x20 SWAP1 DUP2 MSTORE PUSH1 0x40 DUP1 DUP4 KECCAK256 PUSH1 0x1 SLOAD DUP3 MLOAD PUSH4 0x15AB88C9 PUSH1 0xE3 SHL DUP2 MSTORE SWAP3 MLOAD SWAP2 SWAP4 PUSH1 0x1 PUSH1 0x1 PUSH1 0xA0 SHL SUB SWAP1 SWAP2 AND SWAP3 PUSH4 0xAD5C4648 SWAP3 PUSH1 0x4 DUP1 DUP4 ADD SWAP4 SWAP3 DUP3 SWAP1 SUB ADD DUP2 DUP7 GAS STATICCALL ISZERO DUP1 ISZERO PUSH2 0x159A JUMPI RETURNDATASIZE PUSH1 0x0 DUP1 RETURNDATACOPY RETURNDATASIZE PUSH1 0x0 REVERT JUMPDEST POP POP POP POP PUSH1 0x40 MLOAD RETURNDATASIZE PUSH1 0x1F NOT PUSH1 0x1F DUP3 ADD AND DUP3 ADD DUP1 PUSH1 0x40 MSTORE POP DUP2 ADD SWAP1 PUSH2 0x15BE SWAP2 SWAP1 PUSH2 0x34EC JUMP JUMPDEST PUSH1 0x1 PUSH1 0x1 PUSH1 0xA0 SHL SUB AND PUSH1 0x9 PUSH1 0x0 DUP7 DUP2 MSTORE PUSH1 0x20 ADD SWAP1 DUP2 MSTORE PUSH1 0x20 ADD PUSH1 0x0 KECCAK256 PUSH1 0x0 DUP2 SLOAD DUP2 LT PUSH2 0x15EC JUMPI PUSH2 0x15EC PUSH2 0x3509 JUMP JUMPDEST PUSH1 0x0 SWAP2 DUP3 MSTORE PUSH1 0x20 SWAP1 SWAP2 KECCAK256 ADD SLOAD PUSH1 0x1 PUSH1 0x1 PUSH1 0xA0 SHL SUB AND EQ DUP1 PUSH2 0x16C4 JUMPI POP PUSH1 0x1 PUSH1 0x0 SWAP1 SLOAD SWAP1 PUSH2 0x100 EXP SWAP1 DIV PUSH1 0x1 PUSH1 0x1 PUSH1 0xA0 SHL SUB AND PUSH1 0x1 PUSH1 0x1 PUSH1 0xA0 SHL SUB AND PUSH4 0xAD5C4648 PUSH1 0x40 MLOAD DUP2 PUSH4 0xFFFFFFFF AND PUSH1 0xE0 SHL DUP2 MSTORE PUSH1 0x4 ADD PUSH1 0x20 PUSH1 0x40 MLOAD DUP1 DUP4 SUB DUP2 DUP7 GAS STATICCALL ISZERO DUP1 ISZERO PUSH2 0x165B JUMPI RETURNDATASIZE PUSH1 0x0 DUP1 RETURNDATACOPY RETURNDATASIZE PUSH1 0x0 REVERT JUMPDEST POP POP POP POP PUSH1 0x40 MLOAD RETURNDATASIZE PUSH1 0x1F NOT PUSH1 0x1F DUP3 ADD AND DUP3 ADD DUP1 PUSH1 0x40 MSTORE POP DUP2 ADD SWAP1 PUSH2 0x167F SWAP2 SWAP1 PUSH2 0x34EC JUMP JUMPDEST PUSH1 0x1 PUSH1 0x1 PUSH1 0xA0 SHL SUB AND PUSH1 0x9 PUSH1 0x0 DUP7 DUP2 MSTORE PUSH1 0x20 ADD SWAP1 DUP2 MSTORE PUSH1 0x20 ADD PUSH1 0x0 KECCAK256 PUSH1 0x1 DUP2 SLOAD DUP2 LT PUSH2 0x16AD JUMPI PUSH2 0x16AD PUSH2 0x3509 JUMP JUMPDEST PUSH1 0x0 SWAP2 DUP3 MSTORE PUSH1 0x20 SWAP1 SWAP2 KECCAK256 ADD SLOAD PUSH1 0x1 PUSH1 0x1 PUSH1 0xA0 SHL SUB AND EQ JUMPDEST ISZERO PUSH2 0x1A04 JUMPI PUSH1 0x0 PUSH1 0x60 PUSH1 0x0 PUSH2 0x16D8 DUP8 PUSH2 0x2567 JUMP JUMPDEST PUSH1 0x8 DUP8 ADD SLOAD SWAP3 SWAP6 POP SWAP1 SWAP4 POP SWAP2 POP PUSH2 0x100 SWAP1 DIV PUSH1 0xFF AND ISZERO PUSH2 0x177E JUMPI PUSH1 0x8 DUP5 ADD SLOAD PUSH1 0x40 MLOAD PUSH4 0xAF2979EB PUSH1 0xE0 SHL DUP2 MSTORE PUSH1 0x1 PUSH1 0x20 SHL SWAP1 SWAP2 DIV PUSH1 0x1 PUSH1 0x1 PUSH1 0xA0 SHL SUB AND SWAP1 PUSH4 0xAF2979EB SWAP1 PUSH2 0x1735 SWAP1 DUP7 SWAP1 DUP11 SWAP1 PUSH1 0x0 SWAP1 DUP2 SWAP1 ADDRESS SWAP1 TIMESTAMP SWAP1 PUSH1 0x4 ADD PUSH2 0x3621 JUMP JUMPDEST PUSH1 0x20 PUSH1 0x40 MLOAD DUP1 DUP4 SUB DUP2 PUSH1 0x0 DUP8 GAS CALL ISZERO DUP1 ISZERO PUSH2 0x1754 JUMPI RETURNDATASIZE PUSH1 0x0 DUP1 RETURNDATACOPY RETURNDATASIZE PUSH1 0x0 REVERT JUMPDEST POP POP POP POP PUSH1 0x40 MLOAD RETURNDATASIZE PUSH1 0x1F NOT PUSH1 0x1F DUP3 ADD AND DUP3 ADD DUP1 PUSH1 0x40 MSTORE POP DUP2 ADD SWAP1 PUSH2 0x1778 SWAP2 SWAP1 PUSH2 0x3337 JUMP JUMPDEST POP PUSH2 0x1805 JUMP JUMPDEST PUSH1 0x8 DUP5 ADD SLOAD PUSH1 0x40 MLOAD PUSH3 0x9D473B PUSH1 0xE2 SHL DUP2 MSTORE PUSH1 0x1 PUSH1 0x20 SHL SWAP1 SWAP2 DIV PUSH1 0x1 PUSH1 0x1 PUSH1 0xA0 SHL SUB AND SWAP1 PUSH4 0x2751CEC SWAP1 PUSH2 0x17C0 SWAP1 DUP7 SWAP1 DUP11 SWAP1 PUSH1 0x0 SWAP1 DUP2 SWAP1 ADDRESS SWAP1 TIMESTAMP SWAP1 PUSH1 0x4 ADD PUSH2 0x3621 JUMP JUMPDEST PUSH1 0x40 DUP1 MLOAD DUP1 DUP4 SUB DUP2 PUSH1 0x0 DUP8 GAS CALL ISZERO DUP1 ISZERO PUSH2 0x17DE JUMPI RETURNDATASIZE PUSH1 0x0 DUP1 RETURNDATACOPY RETURNDATASIZE PUSH1 0x0 REVERT JUMPDEST POP POP POP POP PUSH1 0x40 MLOAD RETURNDATASIZE PUSH1 0x1F NOT PUSH1 0x1F DUP3 ADD AND DUP3 ADD DUP1 PUSH1 0x40 MSTORE POP DUP2 ADD SWAP1 PUSH2 0x1802 SWAP2 SWAP1 PUSH2 0x365C JUMP JUMPDEST POP POP JUMPDEST PUSH1 0x40 MLOAD PUSH4 0x70A08231 PUSH1 0xE0 SHL DUP2 MSTORE ADDRESS PUSH1 0x4 DUP3 ADD MSTORE PUSH1 0x0 SWAP1 PUSH1 0x1 PUSH1 0x1 PUSH1 0xA0 SHL SUB DUP6 AND SWAP1 PUSH4 0x70A08231 SWAP1 PUSH1 0x24 ADD PUSH1 0x20 PUSH1 0x40 MLOAD DUP1 DUP4 SUB DUP2 DUP7 GAS STATICCALL ISZERO DUP1 ISZERO PUSH2 0x184C JUMPI RETURNDATASIZE PUSH1 0x0 DUP1 RETURNDATACOPY RETURNDATASIZE PUSH1 0x0 REVERT JUMPDEST POP POP POP POP PUSH1 0x40 MLOAD RETURNDATASIZE PUSH1 0x1F NOT PUSH1 0x1F DUP3 ADD AND DUP3 ADD DUP1 PUSH1 0x40 MSTORE POP DUP2 ADD SWAP1 PUSH2 0x1870 SWAP2 SWAP1 PUSH2 0x3337 JUMP JUMPDEST PUSH1 0x8 DUP7 ADD SLOAD PUSH1 0x40 MLOAD PUSH4 0x95EA7B3 PUSH1 0xE0 SHL DUP2 MSTORE PUSH1 0x1 PUSH1 0x1 PUSH1 0xA0 SHL SUB PUSH1 0x1 PUSH1 0x20 SHL SWAP1 SWAP3 DIV DUP3 AND PUSH1 0x4 DUP3 ADD MSTORE PUSH1 0x24 DUP2 ADD DUP4 SWAP1 MSTORE SWAP2 SWAP3 POP DUP6 AND SWAP1 PUSH4 0x95EA7B3 SWAP1 PUSH1 0x44 ADD PUSH1 0x20 PUSH1 0x40 MLOAD DUP1 DUP4 SUB DUP2 PUSH1 0x0 DUP8 GAS CALL ISZERO DUP1 ISZERO PUSH2 0x18CE JUMPI RETURNDATASIZE PUSH1 0x0 DUP1 RETURNDATACOPY RETURNDATASIZE PUSH1 0x0 REVERT JUMPDEST POP POP POP POP PUSH1 0x40 MLOAD RETURNDATASIZE PUSH1 0x1F NOT PUSH1 0x1F DUP3 ADD AND DUP3 ADD DUP1 PUSH1 0x40 MSTORE POP DUP2 ADD SWAP1 PUSH2 0x18F2 SWAP2 SWAP1 PUSH2 0x3385 JUMP JUMPDEST POP DUP2 ISZERO PUSH2 0x1971 JUMPI PUSH1 0x8 DUP6 ADD SLOAD PUSH1 0x40 MLOAD PUSH4 0x791AC947 PUSH1 0xE0 SHL DUP2 MSTORE PUSH1 0x1 PUSH1 0x20 SHL SWAP1 SWAP2 DIV PUSH1 0x1 PUSH1 0x1 PUSH1 0xA0 SHL SUB AND SWAP1 PUSH4 0x791AC947 SWAP1 PUSH2 0x193A SWAP1 DUP5 SWAP1 PUSH1 0x0 SWAP1 DUP9 SWAP1 ADDRESS SWAP1 TIMESTAMP SWAP1 PUSH1 0x4 ADD PUSH2 0x3680 JUMP JUMPDEST PUSH1 0x0 PUSH1 0x40 MLOAD DUP1 DUP4 SUB DUP2 PUSH1 0x0 DUP8 DUP1 EXTCODESIZE ISZERO DUP1 ISZERO PUSH2 0x1954 JUMPI PUSH1 0x0 DUP1 REVERT JUMPDEST POP GAS CALL ISZERO DUP1 ISZERO PUSH2 0x1968 JUMPI RETURNDATASIZE PUSH1 0x0 DUP1 RETURNDATACOPY RETURNDATASIZE PUSH1 0x0 REVERT JUMPDEST POP POP POP POP PUSH2 0x19FB JUMP JUMPDEST PUSH1 0x8 DUP6 ADD SLOAD PUSH1 0x40 MLOAD PUSH4 0x18CBAFE5 PUSH1 0xE0 SHL DUP2 MSTORE PUSH1 0x1 PUSH1 0x20 SHL SWAP1 SWAP2 DIV PUSH1 0x1 PUSH1 0x1 PUSH1 0xA0 SHL SUB AND SWAP1 PUSH4 0x18CBAFE5 SWAP1 PUSH2 0x19B2 SWAP1 DUP5 SWAP1 PUSH1 0x0 SWAP1 DUP9 SWAP1 ADDRESS SWAP1 TIMESTAMP SWAP1 PUSH1 0x4 ADD PUSH2 0x3680 JUMP JUMPDEST PUSH1 0x0 PUSH1 0x40 MLOAD DUP1 DUP4 SUB DUP2 PUSH1 0x0 DUP8 GAS CALL ISZERO DUP1 ISZERO PUSH2 0x19D1 JUMPI RETURNDATASIZE PUSH1 0x0 DUP1 RETURNDATACOPY RETURNDATASIZE PUSH1 0x0 REVERT JUMPDEST POP POP POP POP PUSH1 0x40 MLOAD RETURNDATASIZE PUSH1 0x0 DUP3 RETURNDATACOPY PUSH1 0x1F RETURNDATASIZE SWAP1 DUP2 ADD PUSH1 0x1F NOT AND DUP3 ADD PUSH1 0x40 MSTORE PUSH2 0x19F9 SWAP2 SWAP1 DUP2 ADD SWAP1 PUSH2 0x342E JUMP JUMPDEST POP JUMPDEST POP POP POP POP PUSH2 0x1ECE JUMP JUMPDEST PUSH1 0x8 DUP2 ADD SLOAD PUSH1 0x0 DUP6 DUP2 MSTORE PUSH1 0x9 PUSH1 0x20 MSTORE PUSH1 0x40 DUP2 KECCAK256 DUP1 SLOAD SWAP2 SWAP3 DUP4 SWAP3 PUSH1 0x1 PUSH1 0x20 SHL SWAP1 SWAP2 DIV PUSH1 0x1 PUSH1 0x1 PUSH1 0xA0 SHL SUB AND SWAP2 PUSH4 0xBAA2ABDE SWAP2 DUP5 SWAP1 PUSH2 0x1A43 JUMPI PUSH2 0x1A43 PUSH2 0x3509 JUMP JUMPDEST PUSH1 0x0 SWAP2 DUP3 MSTORE PUSH1 0x20 DUP1 DUP4 KECCAK256 SWAP1 SWAP2 ADD SLOAD DUP11 DUP4 MSTORE PUSH1 0x9 SWAP1 SWAP2 MSTORE PUSH1 0x40 SWAP1 SWAP2 KECCAK256 DUP1 SLOAD PUSH1 0x1 PUSH1 0x1 PUSH1 0xA0 SHL SUB SWAP1 SWAP3 AND SWAP2 PUSH1 0x1 SWAP1 DUP2 LT PUSH2 0x1A7D JUMPI PUSH2 0x1A7D PUSH2 0x3509 JUMP JUMPDEST PUSH1 0x0 SWAP2 DUP3 MSTORE PUSH1 0x20 DUP3 KECCAK256 ADD SLOAD PUSH1 0x40 MLOAD PUSH1 0xE0 DUP6 SWAP1 SHL PUSH1 0x1 PUSH1 0x1 PUSH1 0xE0 SHL SUB NOT AND DUP2 MSTORE PUSH1 0x1 PUSH1 0x1 PUSH1 0xA0 SHL SUB SWAP4 DUP5 AND PUSH1 0x4 DUP3 ADD MSTORE SWAP3 AND PUSH1 0x24 DUP4 ADD MSTORE PUSH1 0x44 DUP3 ADD DUP10 SWAP1 MSTORE PUSH1 0x64 DUP3 ADD DUP2 SWAP1 MSTORE PUSH1 0x84 DUP3 ADD MSTORE ADDRESS PUSH1 0xA4 DUP3 ADD MSTORE TIMESTAMP PUSH1 0xC4 DUP3 ADD MSTORE PUSH1 0xE4 ADD PUSH1 0x40 DUP1 MLOAD DUP1 DUP4 SUB DUP2 PUSH1 0x0 DUP8 GAS CALL ISZERO DUP1 ISZERO PUSH2 0x1AF3 JUMPI RETURNDATASIZE PUSH1 0x0 DUP1 RETURNDATACOPY RETURNDATASIZE PUSH1 0x0 REVERT JUMPDEST POP POP POP POP PUSH1 0x40 MLOAD RETURNDATASIZE PUSH1 0x1F NOT PUSH1 0x1F DUP3 ADD AND DUP3 ADD DUP1 PUSH1 0x40 MSTORE POP DUP2 ADD SWAP1 PUSH2 0x1B17 SWAP2 SWAP1 PUSH2 0x365C JUMP JUMPDEST PUSH1 0x0 DUP9 DUP2 MSTORE PUSH1 0x9 PUSH1 0x20 MSTORE PUSH1 0x40 DUP2 KECCAK256 DUP1 SLOAD SWAP4 SWAP6 POP SWAP2 SWAP4 POP SWAP1 SWAP2 PUSH2 0x1B3B JUMPI PUSH2 0x1B3B PUSH2 0x3509 JUMP JUMPDEST PUSH1 0x0 SWAP2 DUP3 MSTORE PUSH1 0x20 SWAP1 SWAP2 KECCAK256 ADD SLOAD PUSH1 0x8 DUP5 ADD SLOAD PUSH1 0x40 MLOAD PUSH4 0x95EA7B3 PUSH1 0xE0 SHL DUP2 MSTORE PUSH1 0x1 PUSH1 0x1 PUSH1 0xA0 SHL SUB PUSH1 0x1 PUSH1 0x20 SHL SWAP1 SWAP3 DIV DUP3 AND PUSH1 0x4 DUP3 ADD MSTORE PUSH1 0x24 DUP2 ADD DUP6 SWAP1 MSTORE SWAP2 AND SWAP1 PUSH4 0x95EA7B3 SWAP1 PUSH1 0x44 ADD PUSH1 0x20 PUSH1 0x40 MLOAD DUP1 DUP4 SUB DUP2 PUSH1 0x0 DUP8 GAS CALL ISZERO DUP1 ISZERO PUSH2 0x1BA2 JUMPI RETURNDATASIZE PUSH1 0x0 DUP1 RETURNDATACOPY RETURNDATASIZE PUSH1 0x0 REVERT JUMPDEST POP POP POP POP PUSH1 0x40 MLOAD RETURNDATASIZE PUSH1 0x1F NOT PUSH1 0x1F DUP3 ADD AND DUP3 ADD DUP1 PUSH1 0x40 MSTORE POP DUP2 ADD SWAP1 PUSH2 0x1BC6 SWAP2 SWAP1 PUSH2 0x3385 JUMP JUMPDEST POP PUSH1 0x0 DUP7 DUP2 MSTORE PUSH1 0x9 PUSH1 0x20 MSTORE PUSH1 0x40 SWAP1 KECCAK256 DUP1 SLOAD PUSH1 0x1 SWAP1 DUP2 LT PUSH2 0x1BE8 JUMPI PUSH2 0x1BE8 PUSH2 0x3509 JUMP JUMPDEST PUSH1 0x0 SWAP2 DUP3 MSTORE PUSH1 0x20 SWAP1 SWAP2 KECCAK256 ADD SLOAD PUSH1 0x8 DUP5 ADD SLOAD PUSH1 0x40 MLOAD PUSH4 0x95EA7B3 PUSH1 0xE0 SHL DUP2 MSTORE PUSH1 0x1 PUSH1 0x1 PUSH1 0xA0 SHL SUB PUSH1 0x1 PUSH1 0x20 SHL SWAP1 SWAP3 DIV DUP3 AND PUSH1 0x4 DUP3 ADD MSTORE PUSH1 0x24 DUP2 ADD DUP5 SWAP1 MSTORE SWAP2 AND SWAP1 PUSH4 0x95EA7B3 SWAP1 PUSH1 0x44 ADD PUSH1 0x20 PUSH1 0x40 MLOAD DUP1 DUP4 SUB DUP2 PUSH1 0x0 DUP8 GAS CALL ISZERO DUP1 ISZERO PUSH2 0x1C4F JUMPI RETURNDATASIZE PUSH1 0x0 DUP1 RETURNDATACOPY RETURNDATASIZE PUSH1 0x0 REVERT JUMPDEST POP POP POP POP PUSH1 0x40 MLOAD RETURNDATASIZE PUSH1 0x1F NOT PUSH1 0x1F DUP3 ADD AND DUP3 ADD DUP1 PUSH1 0x40 MSTORE POP DUP2 ADD SWAP1 PUSH2 0x1C73 SWAP2 SWAP1 PUSH2 0x3385 JUMP JUMPDEST POP PUSH1 0x8 DUP4 ADD SLOAD PUSH3 0x10000 SWAP1 DIV PUSH1 0xFF AND ISZERO PUSH2 0x1D08 JUMPI PUSH1 0x8 DUP4 ADD SLOAD PUSH1 0x0 DUP8 DUP2 MSTORE PUSH1 0xA PUSH1 0x20 MSTORE PUSH1 0x40 DUP1 DUP3 KECCAK256 SWAP1 MLOAD PUSH4 0x791AC947 PUSH1 0xE0 SHL DUP2 MSTORE PUSH1 0x1 PUSH1 0x20 SHL SWAP1 SWAP4 DIV PUSH1 0x1 PUSH1 0x1 PUSH1 0xA0 SHL SUB AND SWAP3 PUSH4 0x791AC947 SWAP3 PUSH2 0x1CD1 SWAP3 DUP8 SWAP3 ADDRESS SWAP1 TIMESTAMP SWAP1 PUSH1 0x4 ADD PUSH2 0x33A2 JUMP JUMPDEST PUSH1 0x0 PUSH1 0x40 MLOAD DUP1 DUP4 SUB DUP2 PUSH1 0x0 DUP8 DUP1 EXTCODESIZE ISZERO DUP1 ISZERO PUSH2 0x1CEB JUMPI PUSH1 0x0 DUP1 REVERT JUMPDEST POP GAS CALL ISZERO DUP1 ISZERO PUSH2 0x1CFF JUMPI RETURNDATASIZE PUSH1 0x0 DUP1 RETURNDATACOPY RETURNDATASIZE PUSH1 0x0 REVERT JUMPDEST POP POP POP POP PUSH2 0x1D9B JUMP JUMPDEST PUSH1 0x8 DUP4 ADD SLOAD PUSH1 0x0 DUP8 DUP2 MSTORE PUSH1 0xA PUSH1 0x20 MSTORE PUSH1 0x40 DUP1 DUP3 KECCAK256 SWAP1 MLOAD PUSH4 0x18CBAFE5 PUSH1 0xE0 SHL DUP2 MSTORE PUSH1 0x1 PUSH1 0x20 SHL SWAP1 SWAP4 DIV PUSH1 0x1 PUSH1 0x1 PUSH1 0xA0 SHL SUB AND SWAP3 PUSH4 0x18CBAFE5 SWAP3 PUSH2 0x1D52 SWAP3 DUP8 SWAP3 ADDRESS SWAP1 TIMESTAMP SWAP1 PUSH1 0x4 ADD PUSH2 0x33A2 JUMP JUMPDEST PUSH1 0x0 PUSH1 0x40 MLOAD DUP1 DUP4 SUB DUP2 PUSH1 0x0 DUP8 GAS CALL ISZERO DUP1 ISZERO PUSH2 0x1D71 JUMPI RETURNDATASIZE PUSH1 0x0 DUP1 RETURNDATACOPY RETURNDATASIZE PUSH1 0x0 REVERT JUMPDEST POP POP POP POP PUSH1 0x40 MLOAD RETURNDATASIZE PUSH1 0x0 DUP3 RETURNDATACOPY PUSH1 0x1F RETURNDATASIZE SWAP1 DUP2 ADD PUSH1 0x1F NOT AND DUP3 ADD PUSH1 0x40 MSTORE PUSH2 0x1D99 SWAP2 SWAP1 DUP2 ADD SWAP1 PUSH2 0x342E JUMP JUMPDEST POP JUMPDEST PUSH1 0x8 DUP4 ADD SLOAD PUSH4 0x1000000 SWAP1 DIV PUSH1 0xFF AND ISZERO PUSH2 0x1E30 JUMPI PUSH1 0x8 DUP4 ADD SLOAD PUSH1 0x0 DUP8 DUP2 MSTORE PUSH1 0xB PUSH1 0x20 MSTORE PUSH1 0x40 DUP1 DUP3 KECCAK256 SWAP1 MLOAD PUSH4 0x791AC947 PUSH1 0xE0 SHL DUP2 MSTORE PUSH1 0x1 PUSH1 0x20 SHL SWAP1 SWAP4 DIV PUSH1 0x1 PUSH1 0x1 PUSH1 0xA0 SHL SUB AND SWAP3 PUSH4 0x791AC947 SWAP3 PUSH2 0x1DF9 SWAP3 DUP7 SWAP3 ADDRESS SWAP1 TIMESTAMP SWAP1 PUSH1 0x4 ADD PUSH2 0x33A2 JUMP JUMPDEST PUSH1 0x0 PUSH1 0x40 MLOAD DUP1 DUP4 SUB DUP2 PUSH1 0x0 DUP8 DUP1 EXTCODESIZE ISZERO DUP1 ISZERO PUSH2 0x1E13 JUMPI PUSH1 0x0 DUP1 REVERT JUMPDEST POP GAS CALL ISZERO DUP1 ISZERO PUSH2 0x1E27 JUMPI RETURNDATASIZE PUSH1 0x0 DUP1 RETURNDATACOPY RETURNDATASIZE PUSH1 0x0 REVERT JUMPDEST POP POP POP POP PUSH2 0x1EC3 JUMP JUMPDEST PUSH1 0x8 DUP4 ADD SLOAD PUSH1 0x0 DUP8 DUP2 MSTORE PUSH1 0xB PUSH1 0x20 MSTORE PUSH1 0x40 DUP1 DUP3 KECCAK256 SWAP1 MLOAD PUSH4 0x18CBAFE5 PUSH1 0xE0 SHL DUP2 MSTORE PUSH1 0x1 PUSH1 0x20 SHL SWAP1 SWAP4 DIV PUSH1 0x1 PUSH1 0x1 PUSH1 0xA0 SHL SUB AND SWAP3 PUSH4 0x18CBAFE5 SWAP3 PUSH2 0x1E7A SWAP3 DUP7 SWAP3 ADDRESS SWAP1 TIMESTAMP SWAP1 PUSH1 0x4 ADD PUSH2 0x33A2 JUMP JUMPDEST PUSH1 0x0 PUSH1 0x40 MLOAD DUP1 DUP4 SUB DUP2 PUSH1 0x0 DUP8 GAS CALL ISZERO DUP1 ISZERO PUSH2 0x1E99 JUMPI RETURNDATASIZE PUSH1 0x0 DUP1 RETURNDATACOPY RETURNDATASIZE PUSH1 0x0 REVERT JUMPDEST POP POP POP POP PUSH1 0x40 MLOAD RETURNDATASIZE PUSH1 0x0 DUP3 RETURNDATACOPY PUSH1 0x1F RETURNDATASIZE SWAP1 DUP2 ADD PUSH1 0x1F NOT AND DUP3 ADD PUSH1 0x40 MSTORE PUSH2 0x1EC1 SWAP2 SWAP1 DUP2 ADD SWAP1 PUSH2 0x342E JUMP JUMPDEST POP JUMPDEST SELFBALANCE SWAP4 POP POP POP POP PUSH2 0x1ED0 JUMP JUMPDEST POP JUMPDEST SWAP3 SWAP2 POP POP JUMP JUMPDEST PUSH1 0x0 DUP1 PUSH1 0x0 DUP1 PUSH1 0x0 DUP1 PUSH1 0x0 DUP1 PUSH1 0x0 JUMPDEST PUSH1 0x5 DUP2 PUSH1 0xFF AND LT ISZERO PUSH2 0x200B JUMPI DUP10 PUSH1 0x3 ADD DUP2 PUSH1 0xFF AND PUSH1 0x5 DUP2 LT PUSH2 0x1F09 JUMPI PUSH2 0x1F09 PUSH2 0x3509 JUMP JUMPDEST ADD SLOAD PUSH2 0x1F15 SWAP1 DUP9 PUSH2 0x36BC JUMP JUMPDEST SWAP7 POP PUSH1 0x3 DUP2 PUSH1 0xFF AND LT PUSH2 0x1F4D JUMPI PUSH1 0x2 DUP11 PUSH1 0x3 ADD DUP3 PUSH1 0xFF AND PUSH1 0x5 DUP2 LT PUSH2 0x1F3C JUMPI PUSH2 0x1F3C PUSH2 0x3509 JUMP JUMPDEST ADD SLOAD PUSH2 0x1F48 SWAP2 SWAP1 PUSH2 0x35FF JUMP JUMPDEST PUSH2 0x1F68 JUMP JUMPDEST DUP10 PUSH1 0x3 ADD DUP2 PUSH1 0xFF AND PUSH1 0x5 DUP2 LT PUSH2 0x1F65 JUMPI PUSH2 0x1F65 PUSH2 0x3509 JUMP JUMPDEST ADD SLOAD JUMPDEST PUSH2 0x1F72 SWAP1 DUP11 PUSH2 0x36BC JUMP JUMPDEST SWAP9 POP PUSH1 0x3 DUP2 PUSH1 0xFF AND LT ISZERO PUSH2 0x1FF9 JUMPI DUP10 PUSH1 0xFF DUP3 AND PUSH1 0x3 DUP2 LT PUSH2 0x1F95 JUMPI PUSH2 0x1F95 PUSH2 0x3509 JUMP JUMPDEST ADD SLOAD PUSH2 0x1FA1 SWAP1 DUP8 PUSH2 0x36BC JUMP JUMPDEST SWAP6 POP PUSH1 0xFF DUP2 AND ISZERO PUSH2 0x1FD4 JUMPI PUSH1 0x2 DUP11 PUSH1 0xFF DUP4 AND PUSH1 0x3 DUP2 LT PUSH2 0x1FC3 JUMPI PUSH2 0x1FC3 PUSH2 0x3509 JUMP JUMPDEST ADD SLOAD PUSH2 0x1FCF SWAP2 SWAP1 PUSH2 0x35FF JUMP JUMPDEST PUSH2 0x1FEC JUMP JUMPDEST DUP10 PUSH1 0xFF DUP3 AND PUSH1 0x3 DUP2 LT PUSH2 0x1FE9 JUMPI PUSH2 0x1FE9 PUSH2 0x3509 JUMP JUMPDEST ADD SLOAD JUMPDEST PUSH2 0x1FF6 SWAP1 DUP10 PUSH2 0x36BC JUMP JUMPDEST SWAP8 POP JUMPDEST DUP1 PUSH2 0x2003 DUP2 PUSH2 0x36D4 JUMP JUMPDEST SWAP2 POP POP PUSH2 0x1EE5 JUMP JUMPDEST POP PUSH1 0x1 SLOAD PUSH1 0x40 DUP1 MLOAD PUSH4 0x15AB88C9 PUSH1 0xE3 SHL DUP2 MSTORE SWAP1 MLOAD PUSH1 0x60 SWAP3 PUSH1 0x1 PUSH1 0x1 PUSH1 0xA0 SHL SUB AND SWAP2 PUSH4 0xAD5C4648 SWAP2 PUSH1 0x4 DUP1 DUP4 ADD SWAP3 PUSH1 0x20 SWAP3 SWAP2 SWAP1 DUP3 SWAP1 SUB ADD DUP2 DUP7 GAS STATICCALL ISZERO DUP1 ISZERO PUSH2 0x2056 JUMPI RETURNDATASIZE PUSH1 0x0 DUP1 RETURNDATACOPY RETURNDATASIZE PUSH1 0x0 REVERT JUMPDEST POP POP POP POP PUSH1 0x40 MLOAD RETURNDATASIZE PUSH1 0x1F NOT PUSH1 0x1F DUP3 ADD AND DUP3 ADD DUP1 PUSH1 0x40 MSTORE POP DUP2 ADD SWAP1 PUSH2 0x207A SWAP2 SWAP1 PUSH2 0x34EC JUMP JUMPDEST DUP2 PUSH1 0x0 DUP2 MLOAD DUP2 LT PUSH2 0x208D JUMPI PUSH2 0x208D PUSH2 0x3509 JUMP JUMPDEST PUSH1 0x20 MUL PUSH1 0x20 ADD ADD SWAP1 PUSH1 0x1 PUSH1 0x1 PUSH1 0xA0 SHL SUB AND SWAP1 DUP2 PUSH1 0x1 PUSH1 0x1 PUSH1 0xA0 SHL SUB AND DUP2 MSTORE POP POP PUSH32 0x0 DUP2 PUSH1 0x1 DUP2 MLOAD DUP2 LT PUSH2 0x20E1 JUMPI PUSH2 0x20E1 PUSH2 0x3509 JUMP JUMPDEST PUSH1 0x1 PUSH1 0x1 PUSH1 0xA0 SHL SUB SWAP1 SWAP3 AND PUSH1 0x20 SWAP3 DUP4 MUL SWAP2 SWAP1 SWAP2 ADD SWAP1 SWAP2 ADD MSTORE DUP7 ISZERO PUSH2 0x21E9 JUMPI PUSH2 0x2710 PUSH2 0x210C DUP9 SELFBALANCE PUSH2 0x3366 JUMP JUMPDEST PUSH2 0x2116 SWAP2 SWAP1 PUSH2 0x35FF JUMP JUMPDEST SWAP5 POP DUP7 PUSH2 0x2123 DUP11 DUP8 PUSH2 0x3366 JUMP JUMPDEST PUSH2 0x212D SWAP2 SWAP1 PUSH2 0x35FF JUMP JUMPDEST PUSH1 0x1 SLOAD PUSH1 0x40 MLOAD PUSH4 0x7FF36AB5 PUSH1 0xE0 SHL DUP2 MSTORE SWAP2 SWAP5 POP PUSH1 0x1 PUSH1 0x1 PUSH1 0xA0 SHL SUB AND SWAP1 PUSH4 0x7FF36AB5 SWAP1 DUP6 SWAP1 PUSH2 0x2167 SWAP1 PUSH1 0x0 SWAP1 DUP7 SWAP1 ADDRESS SWAP1 TIMESTAMP SWAP1 PUSH1 0x4 ADD PUSH2 0x3563 JUMP JUMPDEST PUSH1 0x0 PUSH1 0x40 MLOAD DUP1 DUP4 SUB DUP2 DUP6 DUP9 GAS CALL ISZERO DUP1 ISZERO PUSH2 0x2185 JUMPI RETURNDATASIZE PUSH1 0x0 DUP1 RETURNDATACOPY RETURNDATASIZE PUSH1 0x0 REVERT JUMPDEST POP POP POP POP POP PUSH1 0x40 MLOAD RETURNDATASIZE PUSH1 0x0 DUP3 RETURNDATACOPY PUSH1 0x1F RETURNDATASIZE SWAP1 DUP2 ADD PUSH1 0x1F NOT AND DUP3 ADD PUSH1 0x40 MSTORE PUSH2 0x21AE SWAP2 SWAP1 DUP2 ADD SWAP1 PUSH2 0x342E JUMP JUMPDEST POP PUSH2 0x21B9 DUP4 DUP7 PUSH2 0x36F4 JUMP JUMPDEST SWAP5 POP PUSH2 0x21E9 PUSH32 0x0 DUP12 DUP10 PUSH1 0x0 DUP10 PUSH2 0x2793 JUMP JUMPDEST DUP6 ISZERO PUSH2 0x231B JUMPI PUSH2 0x2710 PUSH2 0x21FC DUP8 SELFBALANCE PUSH2 0x3366 JUMP JUMPDEST PUSH2 0x2206 SWAP2 SWAP1 PUSH2 0x35FF JUMP JUMPDEST SWAP4 POP DUP6 PUSH2 0x2213 DUP10 DUP7 PUSH2 0x3366 JUMP JUMPDEST PUSH2 0x221D SWAP2 SWAP1 PUSH2 0x35FF JUMP JUMPDEST SWAP2 POP PUSH2 0x2229 DUP3 DUP6 PUSH2 0x36F4 JUMP JUMPDEST SWAP4 POP PUSH32 0x0 DUP2 PUSH1 0x1 DUP2 MLOAD DUP2 LT PUSH2 0x225F JUMPI PUSH2 0x225F PUSH2 0x3509 JUMP JUMPDEST PUSH1 0x1 PUSH1 0x1 PUSH1 0xA0 SHL SUB SWAP3 DUP4 AND PUSH1 0x20 SWAP2 DUP3 MUL SWAP3 SWAP1 SWAP3 ADD ADD MSTORE PUSH1 0x1 SLOAD PUSH1 0x40 MLOAD PUSH4 0x7FF36AB5 PUSH1 0xE0 SHL DUP2 MSTORE SWAP2 AND SWAP1 PUSH4 0x7FF36AB5 SWAP1 DUP5 SWAP1 PUSH2 0x22A5 SWAP1 PUSH1 0x0 SWAP1 DUP7 SWAP1 ADDRESS SWAP1 TIMESTAMP SWAP1 PUSH1 0x4 ADD PUSH2 0x3563 JUMP JUMPDEST PUSH1 0x0 PUSH1 0x40 MLOAD DUP1 DUP4 SUB DUP2 DUP6 DUP9 GAS CALL ISZERO DUP1 ISZERO PUSH2 0x22C3 JUMPI RETURNDATASIZE PUSH1 0x0 DUP1 RETURNDATACOPY RETURNDATASIZE PUSH1 0x0 REVERT JUMPDEST POP POP POP POP POP PUSH1 0x40 MLOAD RETURNDATASIZE PUSH1 0x0 DUP3 RETURNDATACOPY PUSH1 0x1F RETURNDATASIZE SWAP1 DUP2 ADD PUSH1 0x1F NOT AND DUP3 ADD PUSH1 0x40 MSTORE PUSH2 0x22EC SWAP2 SWAP1 DUP2 ADD SWAP1 PUSH2 0x342E JUMP JUMPDEST POP PUSH2 0x231B PUSH32 0x0 DUP12 DUP9 PUSH1 0x1 DUP9 PUSH2 0x2793 JUMP JUMPDEST SELFBALANCE DUP1 ISZERO PUSH2 0x23B6 JUMPI PUSH1 0x4 SLOAD PUSH1 0x40 MLOAD PUSH1 0x0 SWAP2 PUSH1 0x1 PUSH1 0x1 PUSH1 0xA0 SHL SUB AND SWAP1 DUP4 SWAP1 DUP4 DUP2 DUP2 DUP2 DUP6 DUP8 GAS CALL SWAP3 POP POP POP RETURNDATASIZE DUP1 PUSH1 0x0 DUP2 EQ PUSH2 0x236F JUMPI PUSH1 0x40 MLOAD SWAP2 POP PUSH1 0x1F NOT PUSH1 0x3F RETURNDATASIZE ADD AND DUP3 ADD PUSH1 0x40 MSTORE RETURNDATASIZE DUP3 MSTORE RETURNDATASIZE PUSH1 0x0 PUSH1 0x20 DUP5 ADD RETURNDATACOPY PUSH2 0x2374 JUMP JUMPDEST PUSH1 0x60 SWAP2 POP JUMPDEST POP POP PUSH1 0x40 DUP1 MLOAD DUP3 ISZERO ISZERO DUP2 MSTORE PUSH1 0x20 DUP2 ADD DUP6 SWAP1 MSTORE SWAP2 SWAP3 POP PUSH32 0x7526D8EDF9D8774140EAC835A1CEC043D347DB7C1C24C83A3449977A0C61CA5B SWAP2 ADD PUSH1 0x40 MLOAD DUP1 SWAP2 SUB SWAP1 LOG1 POP JUMPDEST POP POP POP POP POP POP POP POP POP POP POP JUMP JUMPDEST PUSH1 0x0 DUP1 JUMPDEST PUSH1 0x5 DUP2 PUSH1 0xFF AND LT ISZERO PUSH2 0x1ECE JUMPI DUP3 DUP2 PUSH1 0xFF AND PUSH1 0x5 DUP2 LT PUSH2 0x23E8 JUMPI PUSH2 0x23E8 PUSH2 0x3509 JUMP JUMPDEST PUSH1 0x20 MUL ADD CALLDATALOAD DUP3 PUSH2 0x23F8 SWAP2 SWAP1 PUSH2 0x36BC JUMP JUMPDEST SWAP2 POP PUSH1 0x3 DUP2 PUSH1 0xFF AND LT ISZERO PUSH2 0x242E JUMPI DUP4 DUP2 PUSH1 0xFF AND PUSH1 0x3 DUP2 LT PUSH2 0x241B JUMPI PUSH2 0x241B PUSH2 0x3509 JUMP JUMPDEST PUSH1 0x20 MUL ADD CALLDATALOAD DUP3 PUSH2 0x242B SWAP2 SWAP1 PUSH2 0x36BC JUMP JUMPDEST SWAP2 POP JUMPDEST DUP1 PUSH2 0x2438 DUP2 PUSH2 0x36D4 JUMP JUMPDEST SWAP2 POP POP PUSH2 0x23C7 JUMP JUMPDEST PUSH1 0x0 DUP1 SLOAD PUSH1 0x1 PUSH1 0x1 PUSH1 0xA0 SHL SUB DUP4 DUP2 AND PUSH1 0x1 PUSH1 0x1 PUSH1 0xA0 SHL SUB NOT DUP4 AND DUP2 OR DUP5 SSTORE PUSH1 0x40 MLOAD SWAP2 SWAP1 SWAP3 AND SWAP3 DUP4 SWAP2 PUSH32 0x8BE0079C531659141344CD1FD0A4F28419497F9722A3DAAFE3B4186F6B6457E0 SWAP2 SWAP1 LOG3 POP POP JUMP JUMPDEST PUSH1 0x0 PUSH2 0x24E5 DUP3 PUSH1 0x40 MLOAD DUP1 PUSH1 0x40 ADD PUSH1 0x40 MSTORE DUP1 PUSH1 0x20 DUP2 MSTORE PUSH1 0x20 ADD PUSH32 0x5361666545524332303A206C6F772D6C6576656C2063616C6C206661696C6564 DUP2 MSTORE POP DUP6 PUSH1 0x1 PUSH1 0x1 PUSH1 0xA0 SHL SUB AND PUSH2 0x2D4E SWAP1 SWAP3 SWAP2 SWAP1 PUSH4 0xFFFFFFFF AND JUMP JUMPDEST DUP1 MLOAD SWAP1 SWAP2 POP ISZERO PUSH2 0x2562 JUMPI DUP1 DUP1 PUSH1 0x20 ADD SWAP1 MLOAD DUP2 ADD SWAP1 PUSH2 0x2503 SWAP2 SWAP1 PUSH2 0x3385 JUMP JUMPDEST PUSH2 0x2562 JUMPI PUSH1 0x40 MLOAD PUSH3 0x461BCD PUSH1 0xE5 SHL DUP2 MSTORE PUSH1 0x20 PUSH1 0x4 DUP3 ADD MSTORE PUSH1 0x2A PUSH1 0x24 DUP3 ADD MSTORE PUSH32 0x5361666545524332303A204552433230206F7065726174696F6E20646964206E PUSH1 0x44 DUP3 ADD MSTORE PUSH10 0x1BDD081CDD58D8D95959 PUSH1 0xB2 SHL PUSH1 0x64 DUP3 ADD MSTORE PUSH1 0x84 ADD PUSH2 0x65D JUMP JUMPDEST POP POP POP JUMP JUMPDEST PUSH1 0x0 PUSH1 0x60 PUSH1 0x0 PUSH1 0x1 PUSH1 0x0 SWAP1 SLOAD SWAP1 PUSH2 0x100 EXP SWAP1 DIV PUSH1 0x1 PUSH1 0x1 PUSH1 0xA0 SHL SUB AND PUSH1 0x1 PUSH1 0x1 PUSH1 0xA0 SHL SUB AND PUSH4 0xAD5C4648 PUSH1 0x40 MLOAD DUP2 PUSH4 0xFFFFFFFF AND PUSH1 0xE0 SHL DUP2 MSTORE PUSH1 0x4 ADD PUSH1 0x20 PUSH1 0x40 MLOAD DUP1 DUP4 SUB DUP2 DUP7 GAS STATICCALL ISZERO DUP1 ISZERO PUSH2 0x25C0 JUMPI RETURNDATASIZE PUSH1 0x0 DUP1 RETURNDATACOPY RETURNDATASIZE PUSH1 0x0 REVERT JUMPDEST POP POP POP POP PUSH1 0x40 MLOAD RETURNDATASIZE PUSH1 0x1F NOT PUSH1 0x1F DUP3 ADD AND DUP3 ADD DUP1 PUSH1 0x40 MSTORE POP DUP2 ADD SWAP1 PUSH2 0x25E4 SWAP2 SWAP1 PUSH2 0x34EC JUMP JUMPDEST PUSH1 0x1 PUSH1 0x1 PUSH1 0xA0 SHL SUB AND PUSH1 0x9 PUSH1 0x0 DUP7 DUP2 MSTORE PUSH1 0x20 ADD SWAP1 DUP2 MSTORE PUSH1 0x20 ADD PUSH1 0x0 KECCAK256 PUSH1 0x0 DUP2 SLOAD DUP2 LT PUSH2 0x2612 JUMPI PUSH2 0x2612 PUSH2 0x3509 JUMP JUMPDEST PUSH1 0x0 SWAP2 DUP3 MSTORE PUSH1 0x20 SWAP1 SWAP2 KECCAK256 ADD SLOAD PUSH1 0x1 PUSH1 0x1 PUSH1 0xA0 SHL SUB AND EQ PUSH2 0x26F0 JUMPI PUSH1 0x0 DUP5 DUP2 MSTORE PUSH1 0x9 PUSH1 0x20 MSTORE PUSH1 0x40 DUP2 KECCAK256 DUP1 SLOAD SWAP1 SWAP2 SWAP1 PUSH2 0x264B JUMPI PUSH2 0x264B PUSH2 0x3509 JUMP JUMPDEST PUSH1 0x0 SWAP2 DUP3 MSTORE PUSH1 0x20 DUP1 DUP4 KECCAK256 SWAP1 SWAP2 ADD SLOAD DUP7 DUP4 MSTORE PUSH1 0xA DUP3 MSTORE PUSH1 0x40 SWAP3 DUP4 SWAP1 KECCAK256 DUP1 SLOAD DUP5 MLOAD DUP2 DUP6 MUL DUP2 ADD DUP6 ADD SWAP1 SWAP6 MSTORE DUP1 DUP6 MSTORE PUSH1 0x1 PUSH1 0x1 PUSH1 0xA0 SHL SUB SWAP1 SWAP3 AND SWAP7 POP SWAP2 DUP4 ADD DUP3 DUP3 DUP1 ISZERO PUSH2 0x26BE JUMPI PUSH1 0x20 MUL DUP3 ADD SWAP2 SWAP1 PUSH1 0x0 MSTORE PUSH1 0x20 PUSH1 0x0 KECCAK256 SWAP1 JUMPDEST DUP2 SLOAD PUSH1 0x1 PUSH1 0x1 PUSH1 0xA0 SHL SUB AND DUP2 MSTORE PUSH1 0x1 SWAP1 SWAP2 ADD SWAP1 PUSH1 0x20 ADD DUP1 DUP4 GT PUSH2 0x26A0 JUMPI JUMPDEST POP POP POP POP POP SWAP2 POP PUSH1 0x8 PUSH1 0x0 DUP6 DUP2 MSTORE PUSH1 0x20 ADD SWAP1 DUP2 MSTORE PUSH1 0x20 ADD PUSH1 0x0 KECCAK256 PUSH1 0x8 ADD PUSH1 0x2 SWAP1 SLOAD SWAP1 PUSH2 0x100 EXP SWAP1 DIV PUSH1 0xFF AND SWAP1 POP PUSH2 0x278C JUMP JUMPDEST PUSH1 0x0 DUP5 DUP2 MSTORE PUSH1 0x9 PUSH1 0x20 MSTORE PUSH1 0x40 SWAP1 KECCAK256 DUP1 SLOAD PUSH1 0x1 SWAP1 DUP2 LT PUSH2 0x2711 JUMPI PUSH2 0x2711 PUSH2 0x3509 JUMP JUMPDEST PUSH1 0x0 SWAP2 DUP3 MSTORE PUSH1 0x20 DUP1 DUP4 KECCAK256 SWAP1 SWAP2 ADD SLOAD DUP7 DUP4 MSTORE PUSH1 0xB DUP3 MSTORE PUSH1 0x40 SWAP3 DUP4 SWAP1 KECCAK256 DUP1 SLOAD DUP5 MLOAD DUP2 DUP6 MUL DUP2 ADD DUP6 ADD SWAP1 SWAP6 MSTORE DUP1 DUP6 MSTORE PUSH1 0x1 PUSH1 0x1 PUSH1 0xA0 SHL SUB SWAP1 SWAP3 AND SWAP7 POP SWAP2 DUP4 ADD DUP3 DUP3 DUP1 ISZERO PUSH2 0x2784 JUMPI PUSH1 0x20 MUL DUP3 ADD SWAP2 SWAP1 PUSH1 0x0 MSTORE PUSH1 0x20 PUSH1 0x0 KECCAK256 SWAP1 JUMPDEST DUP2 SLOAD PUSH1 0x1 PUSH1 0x1 PUSH1 0xA0 SHL SUB AND DUP2 MSTORE PUSH1 0x1 SWAP1 SWAP2 ADD SWAP1 PUSH1 0x20 ADD DUP1 DUP4 GT PUSH2 0x2766 JUMPI JUMPDEST POP POP POP POP POP SWAP2 POP JUMPDEST SWAP2 SWAP4 SWAP1 SWAP3 POP JUMP JUMPDEST PUSH1 0x40 MLOAD PUSH4 0x70A08231 PUSH1 0xE0 SHL DUP2 MSTORE ADDRESS PUSH1 0x4 DUP3 ADD MSTORE DUP6 SWAP1 PUSH1 0x0 SWAP1 PUSH1 0x1 PUSH1 0x1 PUSH1 0xA0 SHL SUB DUP4 AND SWAP1 PUSH4 0x70A08231 SWAP1 PUSH1 0x24 ADD PUSH1 0x20 PUSH1 0x40 MLOAD DUP1 DUP4 SUB DUP2 DUP7 GAS STATICCALL ISZERO DUP1 ISZERO PUSH2 0x27DC JUMPI RETURNDATASIZE PUSH1 0x0 DUP1 RETURNDATACOPY RETURNDATASIZE PUSH1 0x0 REVERT JUMPDEST POP POP POP POP PUSH1 0x40 MLOAD RETURNDATASIZE PUSH1 0x1F NOT PUSH1 0x1F DUP3 ADD AND DUP3 ADD DUP1 PUSH1 0x40 MSTORE POP DUP2 ADD SWAP1 PUSH2 0x2800 SWAP2 SWAP1 PUSH2 0x3337 JUMP JUMPDEST SWAP1 POP PUSH1 0x0 DUP5 PUSH2 0x2813 JUMPI PUSH1 0x3 DUP8 ADD SLOAD PUSH2 0x2816 JUMP JUMPDEST DUP7 SLOAD JUMPDEST SWAP1 POP PUSH1 0x0 DUP7 PUSH2 0x2825 DUP4 DUP6 PUSH2 0x3366 JUMP JUMPDEST PUSH2 0x282F SWAP2 SWAP1 PUSH2 0x35FF JUMP JUMPDEST SWAP1 POP DUP1 ISZERO PUSH2 0x2892 JUMPI PUSH1 0x40 MLOAD PUSH4 0x852CD8D PUSH1 0xE3 SHL DUP2 MSTORE PUSH1 0x4 DUP2 ADD DUP3 SWAP1 MSTORE PUSH1 0x1 PUSH1 0x1 PUSH1 0xA0 SHL SUB DUP6 AND SWAP1 PUSH4 0x42966C68 SWAP1 PUSH1 0x24 ADD PUSH1 0x0 PUSH1 0x40 MLOAD DUP1 DUP4 SUB DUP2 PUSH1 0x0 DUP8 DUP1 EXTCODESIZE ISZERO DUP1 ISZERO PUSH2 0x2879 JUMPI PUSH1 0x0 DUP1 REVERT JUMPDEST POP GAS CALL ISZERO DUP1 ISZERO PUSH2 0x288D JUMPI RETURNDATASIZE PUSH1 0x0 DUP1 RETURNDATACOPY RETURNDATASIZE PUSH1 0x0 REVERT JUMPDEST POP POP POP POP JUMPDEST DUP6 PUSH2 0x28A1 JUMPI PUSH1 0x4 DUP9 ADD SLOAD PUSH2 0x28A4 JUMP JUMPDEST PUSH1 0x0 JUMPDEST SWAP2 POP DUP7 PUSH2 0x28B1 DUP4 DUP6 PUSH2 0x3366 JUMP JUMPDEST PUSH2 0x28BB SWAP2 SWAP1 PUSH2 0x35FF JUMP JUMPDEST SWAP1 POP DUP1 ISZERO PUSH2 0x29D2 JUMPI PUSH1 0x40 MLOAD PUSH4 0x95EA7B3 PUSH1 0xE0 SHL DUP2 MSTORE PUSH1 0x1 PUSH1 0x1 PUSH1 0xA0 SHL SUB PUSH32 0x0 DUP2 AND PUSH1 0x4 DUP4 ADD MSTORE PUSH1 0x24 DUP3 ADD DUP4 SWAP1 MSTORE DUP6 AND SWAP1 PUSH4 0x95EA7B3 SWAP1 PUSH1 0x44 ADD PUSH1 0x20 PUSH1 0x40 MLOAD DUP1 DUP4 SUB DUP2 PUSH1 0x0 DUP8 GAS CALL ISZERO DUP1 ISZERO PUSH2 0x2932 JUMPI RETURNDATASIZE PUSH1 0x0 DUP1 RETURNDATACOPY RETURNDATASIZE PUSH1 0x0 REVERT JUMPDEST POP POP POP POP PUSH1 0x40 MLOAD RETURNDATASIZE PUSH1 0x1F NOT PUSH1 0x1F DUP3 ADD AND DUP3 ADD DUP1 PUSH1 0x40 MSTORE POP DUP2 ADD SWAP1 PUSH2 0x2956 SWAP2 SWAP1 PUSH2 0x3385 JUMP JUMPDEST POP PUSH1 0x40 MLOAD PUSH4 0x6172858B PUSH1 0xE1 SHL DUP2 MSTORE PUSH1 0x4 DUP2 ADD DUP3 SWAP1 MSTORE PUSH32 0x0 PUSH1 0x1 PUSH1 0x1 PUSH1 0xA0 SHL SUB AND SWAP1 PUSH4 0xC2E50B16 SWAP1 PUSH1 0x24 ADD PUSH1 0x0 PUSH1 0x40 MLOAD DUP1 DUP4 SUB DUP2 PUSH1 0x0 DUP8 DUP1 EXTCODESIZE ISZERO DUP1 ISZERO PUSH2 0x29B9 JUMPI PUSH1 0x0 DUP1 REVERT JUMPDEST POP GAS CALL ISZERO DUP1 ISZERO PUSH2 0x29CD JUMPI RETURNDATASIZE PUSH1 0x0 DUP1 RETURNDATACOPY RETURNDATASIZE PUSH1 0x0 REVERT JUMPDEST POP POP POP POP JUMPDEST DUP6 PUSH2 0x29E1 JUMPI PUSH1 0x5 DUP9 ADD SLOAD PUSH2 0x29E4 JUMP JUMPDEST PUSH1 0x0 JUMPDEST SWAP2 POP DUP7 PUSH2 0x29F1 DUP4 DUP6 PUSH2 0x3366 JUMP JUMPDEST PUSH2 0x29FB SWAP2 SWAP1 PUSH2 0x35FF JUMP JUMPDEST SWAP1 POP DUP1 ISZERO PUSH2 0x2ADA JUMPI PUSH1 0x6 SLOAD PUSH1 0x40 MLOAD PUSH4 0x95EA7B3 PUSH1 0xE0 SHL DUP2 MSTORE PUSH1 0x1 PUSH1 0x1 PUSH1 0xA0 SHL SUB SWAP2 DUP3 AND PUSH1 0x4 DUP3 ADD MSTORE PUSH1 0x24 DUP2 ADD DUP4 SWAP1 MSTORE SWAP1 DUP6 AND SWAP1 PUSH4 0x95EA7B3 SWAP1 PUSH1 0x44 ADD PUSH1 0x20 PUSH1 0x40 MLOAD DUP1 DUP4 SUB DUP2 PUSH1 0x0 DUP8 GAS CALL ISZERO DUP1 ISZERO PUSH2 0x2A56 JUMPI RETURNDATASIZE PUSH1 0x0 DUP1 RETURNDATACOPY RETURNDATASIZE PUSH1 0x0 REVERT JUMPDEST POP POP POP POP PUSH1 0x40 MLOAD RETURNDATASIZE PUSH1 0x1F NOT PUSH1 0x1F DUP3 ADD AND DUP3 ADD DUP1 PUSH1 0x40 MSTORE POP DUP2 ADD SWAP1 PUSH2 0x2A7A SWAP2 SWAP1 PUSH2 0x3385 JUMP JUMPDEST POP PUSH1 0x6 SLOAD PUSH1 0x40 MLOAD PUSH4 0x1C5FC483 PUSH1 0xE0 SHL DUP2 MSTORE PUSH1 0x4 DUP2 ADD DUP4 SWAP1 MSTORE PUSH1 0x1 PUSH1 0x1 PUSH1 0xA0 SHL SUB SWAP1 SWAP2 AND SWAP1 PUSH4 0x1C5FC483 SWAP1 PUSH1 0x24 ADD PUSH1 0x0 PUSH1 0x40 MLOAD DUP1 DUP4 SUB DUP2 PUSH1 0x0 DUP8 DUP1 EXTCODESIZE ISZERO DUP1 ISZERO PUSH2 0x2AC1 JUMPI PUSH1 0x0 DUP1 REVERT JUMPDEST POP GAS CALL ISZERO DUP1 ISZERO PUSH2 0x2AD5 JUMPI RETURNDATASIZE PUSH1 0x0 DUP1 RETURNDATACOPY RETURNDATASIZE PUSH1 0x0 REVERT JUMPDEST POP POP POP POP JUMPDEST PUSH1 0x40 MLOAD PUSH4 0x70A08231 PUSH1 0xE0 SHL DUP2 MSTORE ADDRESS PUSH1 0x4 DUP3 ADD MSTORE PUSH1 0x1 PUSH1 0x1 PUSH1 0xA0 SHL SUB DUP6 AND SWAP1 PUSH4 0x70A08231 SWAP1 PUSH1 0x24 ADD PUSH1 0x20 PUSH1 0x40 MLOAD DUP1 DUP4 SUB DUP2 DUP7 GAS STATICCALL ISZERO DUP1 ISZERO PUSH2 0x2B1E JUMPI RETURNDATASIZE PUSH1 0x0 DUP1 RETURNDATACOPY RETURNDATASIZE PUSH1 0x0 REVERT JUMPDEST POP POP POP POP PUSH1 0x40 MLOAD RETURNDATASIZE PUSH1 0x1F NOT PUSH1 0x1F DUP3 ADD AND DUP3 ADD DUP1 PUSH1 0x40 MSTORE POP DUP2 ADD SWAP1 PUSH2 0x2B42 SWAP2 SWAP1 PUSH2 0x3337 JUMP JUMPDEST SWAP3 POP DUP6 ISZERO PUSH2 0x2B5F JUMPI PUSH2 0x2B57 DUP9 PUSH1 0x3 DUP2 ADD PUSH2 0x2D67 JUMP JUMPDEST POP SWAP7 POP PUSH2 0x2B70 JUMP JUMPDEST PUSH2 0x2B6C DUP9 PUSH1 0x3 DUP2 ADD PUSH2 0x2D67 JUMP JUMPDEST SWAP8 POP POP JUMPDEST DUP7 PUSH2 0x2B7E JUMPI POP POP POP POP PUSH2 0x2D47 JUMP JUMPDEST DUP6 PUSH2 0x2B8D JUMPI PUSH1 0x6 DUP9 ADD SLOAD PUSH2 0x2B93 JUMP JUMPDEST DUP8 PUSH1 0x1 ADD SLOAD JUMPDEST SWAP2 POP DUP7 PUSH2 0x2BA0 DUP4 DUP6 PUSH2 0x3366 JUMP JUMPDEST PUSH2 0x2BAA SWAP2 SWAP1 PUSH2 0x35FF JUMP JUMPDEST SWAP1 POP PUSH1 0x0 DUP8 PUSH2 0x2BB9 DUP5 DUP9 PUSH2 0x3366 JUMP JUMPDEST PUSH2 0x2BC3 SWAP2 SWAP1 PUSH2 0x35FF JUMP JUMPDEST SWAP1 POP DUP2 ISZERO PUSH2 0x2C6F JUMPI PUSH1 0x1 SLOAD PUSH1 0x40 MLOAD PUSH4 0xF305D719 PUSH1 0xE0 SHL DUP2 MSTORE PUSH1 0x1 PUSH1 0x1 PUSH1 0xA0 SHL SUB SWAP1 SWAP2 AND SWAP1 PUSH4 0xF305D719 SWAP1 DUP4 SWAP1 PUSH2 0x2C28 SWAP1 DUP10 SWAP1 DUP8 SWAP1 PUSH1 0x0 SWAP1 DUP2 SWAP1 PUSH32 0x0 SWAP1 TIMESTAMP SWAP1 PUSH1 0x4 ADD PUSH2 0x3621 JUMP JUMPDEST PUSH1 0x60 PUSH1 0x40 MLOAD DUP1 DUP4 SUB DUP2 DUP6 DUP9 GAS CALL ISZERO DUP1 ISZERO PUSH2 0x2C46 JUMPI RETURNDATASIZE PUSH1 0x0 DUP1 RETURNDATACOPY RETURNDATASIZE PUSH1 0x0 REVERT JUMPDEST POP POP POP POP POP PUSH1 0x40 MLOAD RETURNDATASIZE PUSH1 0x1F NOT PUSH1 0x1F DUP3 ADD AND DUP3 ADD DUP1 PUSH1 0x40 MSTORE POP DUP2 ADD SWAP1 PUSH2 0x2C6B SWAP2 SWAP1 PUSH2 0x370B JUMP JUMPDEST POP POP POP JUMPDEST DUP7 PUSH2 0x2C7E JUMPI PUSH1 0x7 DUP10 ADD SLOAD PUSH2 0x2C84 JUMP JUMPDEST DUP9 PUSH1 0x2 ADD SLOAD JUMPDEST SWAP3 POP DUP8 PUSH2 0x2C91 DUP5 DUP7 PUSH2 0x3366 JUMP JUMPDEST PUSH2 0x2C9B SWAP2 SWAP1 PUSH2 0x35FF JUMP JUMPDEST SWAP2 POP DUP8 PUSH2 0x2CA8 DUP5 DUP9 PUSH2 0x3366 JUMP JUMPDEST PUSH2 0x2CB2 SWAP2 SWAP1 PUSH2 0x35FF JUMP JUMPDEST SWAP1 POP DUP2 ISZERO PUSH2 0x2D41 JUMPI PUSH1 0x1 SLOAD PUSH1 0x5 SLOAD PUSH1 0x40 MLOAD PUSH4 0xF305D719 PUSH1 0xE0 SHL DUP2 MSTORE PUSH1 0x1 PUSH1 0x1 PUSH1 0xA0 SHL SUB SWAP3 DUP4 AND SWAP3 PUSH4 0xF305D719 SWAP3 DUP6 SWAP3 PUSH2 0x2CFA SWAP3 DUP12 SWAP3 DUP10 SWAP3 PUSH1 0x0 SWAP3 DUP4 SWAP3 AND SWAP1 TIMESTAMP SWAP1 PUSH1 0x4 ADD PUSH2 0x3621 JUMP JUMPDEST PUSH1 0x60 PUSH1 0x40 MLOAD DUP1 DUP4 SUB DUP2 DUP6 DUP9 GAS CALL ISZERO DUP1 ISZERO PUSH2 0x2D18 JUMPI RETURNDATASIZE PUSH1 0x0 DUP1 RETURNDATACOPY RETURNDATASIZE PUSH1 0x0 REVERT JUMPDEST POP POP POP POP POP PUSH1 0x40 MLOAD RETURNDATASIZE PUSH1 0x1F NOT PUSH1 0x1F DUP3 ADD AND DUP3 ADD DUP1 PUSH1 0x40 MSTORE POP DUP2 ADD SWAP1 PUSH2 0x2D3D SWAP2 SWAP1 PUSH2 0x370B JUMP JUMPDEST POP POP POP JUMPDEST POP POP POP POP POP JUMPDEST POP POP POP POP POP JUMP JUMPDEST PUSH1 0x60 PUSH2 0x2D5D DUP5 DUP5 PUSH1 0x0 DUP6 PUSH2 0x2D9D JUMP JUMPDEST SWAP1 POP JUMPDEST SWAP4 SWAP3 POP POP POP JUMP JUMPDEST PUSH1 0x0 DUP1 DUP4 PUSH1 0x2 ADD SLOAD DUP5 PUSH1 0x1 ADD SLOAD PUSH2 0x2D7E SWAP2 SWAP1 PUSH2 0x36BC JUMP JUMPDEST SWAP2 POP DUP3 PUSH1 0x4 ADD SLOAD DUP4 PUSH1 0x3 ADD SLOAD PUSH2 0x2D94 SWAP2 SWAP1 PUSH2 0x36BC JUMP JUMPDEST SWAP1 POP SWAP3 POP SWAP3 SWAP1 POP JUMP JUMPDEST PUSH1 0x60 DUP3 SELFBALANCE LT ISZERO PUSH2 0x2DFE JUMPI PUSH1 0x40 MLOAD PUSH3 0x461BCD PUSH1 0xE5 SHL DUP2 MSTORE PUSH1 0x20 PUSH1 0x4 DUP3 ADD MSTORE PUSH1 0x26 PUSH1 0x24 DUP3 ADD MSTORE PUSH32 0x416464726573733A20696E73756666696369656E742062616C616E636520666F PUSH1 0x44 DUP3 ADD MSTORE PUSH6 0x1C8818D85B1B PUSH1 0xD2 SHL PUSH1 0x64 DUP3 ADD MSTORE PUSH1 0x84 ADD PUSH2 0x65D JUMP JUMPDEST PUSH1 0x1 PUSH1 0x1 PUSH1 0xA0 SHL SUB DUP6 AND EXTCODESIZE PUSH2 0x2E55 JUMPI PUSH1 0x40 MLOAD PUSH3 0x461BCD PUSH1 0xE5 SHL DUP2 MSTORE PUSH1 0x20 PUSH1 0x4 DUP3 ADD MSTORE PUSH1 0x1D PUSH1 0x24 DUP3 ADD MSTORE PUSH32 0x416464726573733A2063616C6C20746F206E6F6E2D636F6E7472616374000000 PUSH1 0x44 DUP3 ADD MSTORE PUSH1 0x64 ADD PUSH2 0x65D JUMP JUMPDEST PUSH1 0x0 DUP1 DUP7 PUSH1 0x1 PUSH1 0x1 PUSH1 0xA0 SHL SUB AND DUP6 DUP8 PUSH1 0x40 MLOAD PUSH2 0x2E71 SWAP2 SWAP1 PUSH2 0x3765 JUMP JUMPDEST PUSH1 0x0 PUSH1 0x40 MLOAD DUP1 DUP4 SUB DUP2 DUP6 DUP8 GAS CALL SWAP3 POP POP POP RETURNDATASIZE DUP1 PUSH1 0x0 DUP2 EQ PUSH2 0x2EAE JUMPI PUSH1 0x40 MLOAD SWAP2 POP PUSH1 0x1F NOT PUSH1 0x3F RETURNDATASIZE ADD AND DUP3 ADD PUSH1 0x40 MSTORE RETURNDATASIZE DUP3 MSTORE RETURNDATASIZE PUSH1 0x0 PUSH1 0x20 DUP5 ADD RETURNDATACOPY PUSH2 0x2EB3 JUMP JUMPDEST PUSH1 0x60 SWAP2 POP JUMPDEST POP SWAP2 POP SWAP2 POP PUSH2 0x2EC3 DUP3 DUP3 DUP7 PUSH2 0x2ECE JUMP JUMPDEST SWAP8 SWAP7 POP POP POP POP POP POP POP JUMP JUMPDEST PUSH1 0x60 DUP4 ISZERO PUSH2 0x2EDD JUMPI POP DUP2 PUSH2 0x2D60 JUMP JUMPDEST DUP3 MLOAD ISZERO PUSH2 0x2EED JUMPI DUP3 MLOAD DUP1 DUP5 PUSH1 0x20 ADD REVERT JUMPDEST DUP2 PUSH1 0x40 MLOAD PUSH3 0x461BCD PUSH1 0xE5 SHL DUP2 MSTORE PUSH1 0x4 ADD PUSH2 0x65D SWAP2 SWAP1 PUSH2 0x3781 JUMP JUMPDEST DUP3 PUSH1 0x3 DUP2 ADD SWAP3 DUP3 ISZERO PUSH2 0x2F35 JUMPI SWAP2 PUSH1 0x20 MUL DUP3 ADD JUMPDEST DUP3 DUP2 GT ISZERO PUSH2 0x2F35 JUMPI DUP3 MLOAD DUP3 SSTORE SWAP2 PUSH1 0x20 ADD SWAP2 SWAP1 PUSH1 0x1 ADD SWAP1 PUSH2 0x2F1A JUMP JUMPDEST POP PUSH2 0x2F41 SWAP3 SWAP2 POP PUSH2 0x2FC5 JUMP JUMPDEST POP SWAP1 JUMP JUMPDEST DUP3 PUSH1 0x5 DUP2 ADD SWAP3 DUP3 ISZERO PUSH2 0x2F35 JUMPI SWAP2 PUSH1 0x20 MUL DUP3 ADD DUP3 DUP2 GT ISZERO PUSH2 0x2F35 JUMPI DUP3 MLOAD DUP3 SSTORE SWAP2 PUSH1 0x20 ADD SWAP2 SWAP1 PUSH1 0x1 ADD SWAP1 PUSH2 0x2F1A JUMP JUMPDEST DUP3 DUP1 SLOAD DUP3 DUP3 SSTORE SWAP1 PUSH1 0x0 MSTORE PUSH1 0x20 PUSH1 0x0 KECCAK256 SWAP1 DUP2 ADD SWAP3 DUP3 ISZERO PUSH2 0x2F35 JUMPI SWAP2 PUSH1 0x20 MUL DUP3 ADD JUMPDEST DUP3 DUP2 GT ISZERO PUSH2 0x2F35 JUMPI DUP2 SLOAD PUSH1 0x1 PUSH1 0x1 PUSH1 0xA0 SHL SUB NOT AND PUSH1 0x1 PUSH1 0x1 PUSH1 0xA0 SHL SUB DUP5 CALLDATALOAD AND OR DUP3 SSTORE PUSH1 0x20 SWAP1 SWAP3 ADD SWAP2 PUSH1 0x1 SWAP1 SWAP2 ADD SWAP1 PUSH2 0x2F92 JUMP JUMPDEST JUMPDEST DUP1 DUP3 GT ISZERO PUSH2 0x2F41 JUMPI PUSH1 0x0 DUP2 SSTORE PUSH1 0x1 ADD PUSH2 0x2FC6 JUMP JUMPDEST PUSH1 0x1 PUSH1 0x1 PUSH1 0xA0 SHL SUB DUP2 AND DUP2 EQ PUSH2 0x1429 JUMPI PUSH1 0x0 DUP1 REVERT JUMPDEST PUSH1 0x0 PUSH1 0x20 DUP3 DUP5 SUB SLT ISZERO PUSH2 0x3001 JUMPI PUSH1 0x0 DUP1 REVERT JUMPDEST DUP2 CALLDATALOAD PUSH2 0x2D60 DUP2 PUSH2 0x2FDA JUMP JUMPDEST PUSH1 0x0 PUSH1 0x20 DUP3 DUP5 SUB SLT ISZERO PUSH2 0x301E JUMPI PUSH1 0x0 DUP1 REVERT JUMPDEST POP CALLDATALOAD SWAP2 SWAP1 POP JUMP JUMPDEST PUSH1 0x0 DUP1 PUSH1 0x40 DUP4 DUP6 SUB SLT ISZERO PUSH2 0x3038 JUMPI PUSH1 0x0 DUP1 REVERT JUMPDEST POP POP DUP1 CALLDATALOAD SWAP3 PUSH1 0x20 SWAP1 SWAP2 ADD CALLDATALOAD SWAP2 POP JUMP JUMPDEST DUP1 ISZERO ISZERO DUP2 EQ PUSH2 0x1429 JUMPI PUSH1 0x0 DUP1 REVERT JUMPDEST PUSH1 0x0 PUSH1 0x20 DUP3 DUP5 SUB SLT ISZERO PUSH2 0x3067 JUMPI PUSH1 0x0 DUP1 REVERT JUMPDEST DUP2 CALLDATALOAD PUSH2 0x2D60 DUP2 PUSH2 0x3047 JUMP JUMPDEST DUP1 PUSH1 0x60 DUP2 ADD DUP4 LT ISZERO PUSH2 0x1ED0 JUMPI PUSH1 0x0 DUP1 REVERT JUMPDEST DUP1 PUSH1 0xA0 DUP2 ADD DUP4 LT ISZERO PUSH2 0x1ED0 JUMPI PUSH1 0x0 DUP1 REVERT JUMPDEST DUP1 CALLDATALOAD PUSH2 0x309F DUP2 PUSH2 0x2FDA JUMP JUMPDEST SWAP2 SWAP1 POP JUMP JUMPDEST PUSH1 0x0 DUP1 DUP4 PUSH1 0x1F DUP5 ADD SLT PUSH2 0x30B6 JUMPI PUSH1 0x0 DUP1 REVERT JUMPDEST POP DUP2 CALLDATALOAD PUSH8 0xFFFFFFFFFFFFFFFF DUP2 GT ISZERO PUSH2 0x30CE JUMPI PUSH1 0x0 DUP1 REVERT JUMPDEST PUSH1 0x20 DUP4 ADD SWAP2 POP DUP4 PUSH1 0x20 DUP3 PUSH1 0x5 SHL DUP6 ADD ADD GT ISZERO PUSH2 0x30E9 JUMPI PUSH1 0x0 DUP1 REVERT JUMPDEST SWAP3 POP SWAP3 SWAP1 POP JUMP JUMPDEST PUSH1 0x0 DUP1 PUSH1 0x0 DUP1 PUSH1 0x0 DUP1 PUSH1 0x0 DUP1 PUSH1 0x0 DUP1 PUSH1 0x0 PUSH2 0x200 DUP13 DUP15 SUB SLT ISZERO PUSH2 0x3112 JUMPI PUSH1 0x0 DUP1 REVERT JUMPDEST DUP12 CALLDATALOAD SWAP11 POP PUSH2 0x3123 DUP14 PUSH1 0x20 DUP15 ADD PUSH2 0x3072 JUMP JUMPDEST SWAP10 POP PUSH2 0x3132 DUP14 PUSH1 0x80 DUP15 ADD PUSH2 0x3083 JUMP JUMPDEST SWAP9 POP PUSH2 0x3142 DUP14 PUSH2 0x120 DUP15 ADD PUSH2 0x3072 JUMP JUMPDEST SWAP8 POP PUSH2 0x3151 PUSH2 0x180 DUP14 ADD PUSH2 0x3094 JUMP JUMPDEST SWAP7 POP PUSH8 0xFFFFFFFFFFFFFFFF DUP1 PUSH2 0x1A0 DUP15 ADD CALLDATALOAD GT ISZERO PUSH2 0x316E JUMPI PUSH1 0x0 DUP1 REVERT JUMPDEST PUSH2 0x317F DUP15 PUSH2 0x1A0 DUP16 ADD CALLDATALOAD DUP16 ADD PUSH2 0x30A4 JUMP JUMPDEST SWAP1 SWAP8 POP SWAP6 POP PUSH2 0x1C0 DUP14 ADD CALLDATALOAD DUP2 LT ISZERO PUSH2 0x3196 JUMPI PUSH1 0x0 DUP1 REVERT JUMPDEST PUSH2 0x31A7 DUP15 PUSH2 0x1C0 DUP16 ADD CALLDATALOAD DUP16 ADD PUSH2 0x30A4 JUMP JUMPDEST SWAP1 SWAP6 POP SWAP4 POP PUSH2 0x1E0 DUP14 ADD CALLDATALOAD DUP2 LT ISZERO PUSH2 0x31BE JUMPI PUSH1 0x0 DUP1 REVERT JUMPDEST POP PUSH2 0x31D0 DUP14 PUSH2 0x1E0 DUP15 ADD CALLDATALOAD DUP15 ADD PUSH2 0x30A4 JUMP JUMPDEST DUP2 SWAP4 POP DUP1 SWAP3 POP POP POP SWAP3 SWAP6 SWAP9 SWAP12 POP SWAP3 SWAP6 SWAP9 SWAP12 SWAP1 SWAP4 SWAP7 SWAP10 POP JUMP JUMPDEST PUSH1 0x0 DUP1 PUSH1 0x0 DUP1 PUSH1 0x0 DUP1 PUSH1 0x0 PUSH1 0x80 DUP9 DUP11 SUB SLT ISZERO PUSH2 0x3203 JUMPI PUSH1 0x0 DUP1 REVERT JUMPDEST DUP8 CALLDATALOAD SWAP7 POP PUSH1 0x20 DUP9 ADD CALLDATALOAD PUSH8 0xFFFFFFFFFFFFFFFF DUP1 DUP3 GT ISZERO PUSH2 0x3222 JUMPI PUSH1 0x0 DUP1 REVERT JUMPDEST PUSH2 0x322E DUP12 DUP4 DUP13 ADD PUSH2 0x30A4 JUMP JUMPDEST SWAP1 SWAP9 POP SWAP7 POP PUSH1 0x40 DUP11 ADD CALLDATALOAD SWAP2 POP DUP1 DUP3 GT ISZERO PUSH2 0x3247 JUMPI PUSH1 0x0 DUP1 REVERT JUMPDEST PUSH2 0x3253 DUP12 DUP4 DUP13 ADD PUSH2 0x30A4 JUMP JUMPDEST SWAP1 SWAP7 POP SWAP5 POP PUSH1 0x60 DUP11 ADD CALLDATALOAD SWAP2 POP DUP1 DUP3 GT ISZERO PUSH2 0x326C JUMPI PUSH1 0x0 DUP1 REVERT JUMPDEST POP PUSH2 0x3279 DUP11 DUP3 DUP12 ADD PUSH2 0x30A4 JUMP JUMPDEST SWAP9 SWAP12 SWAP8 SWAP11 POP SWAP6 SWAP9 POP SWAP4 SWAP7 SWAP3 SWAP6 SWAP3 SWAP4 POP POP POP JUMP JUMPDEST PUSH1 0x20 DUP1 DUP3 MSTORE DUP2 DUP2 ADD MSTORE PUSH32 0x4F776E61626C653A2063616C6C6572206973206E6F7420746865206F776E6572 PUSH1 0x40 DUP3 ADD MSTORE PUSH1 0x60 ADD SWAP1 JUMP JUMPDEST PUSH1 0x0 DUP1 PUSH1 0x0 DUP1 PUSH1 0x0 DUP1 PUSH1 0x0 PUSH1 0xE0 DUP9 DUP11 SUB SLT ISZERO PUSH2 0x32DC JUMPI PUSH1 0x0 DUP1 REVERT JUMPDEST DUP8 MLOAD PUSH2 0x32E7 DUP2 PUSH2 0x3047 JUMP JUMPDEST DUP1 SWAP8 POP POP PUSH1 0x20 DUP9 ADD MLOAD SWAP6 POP PUSH1 0x40 DUP9 ADD MLOAD SWAP5 POP PUSH1 0x60 DUP9 ADD MLOAD PUSH2 0x3307 DUP2 PUSH2 0x2FDA JUMP JUMPDEST DUP1 SWAP5 POP POP PUSH1 0x80 DUP9 ADD MLOAD SWAP3 POP PUSH1 0xA0 DUP9 ADD MLOAD SWAP2 POP PUSH1 0xC0 DUP9 ADD MLOAD PUSH2 0x3327 DUP2 PUSH2 0x3047 JUMP JUMPDEST DUP1 SWAP2 POP POP SWAP3 SWAP6 SWAP9 SWAP2 SWAP5 SWAP8 POP SWAP3 SWAP6 POP JUMP JUMPDEST PUSH1 0x0 PUSH1 0x20 DUP3 DUP5 SUB SLT ISZERO PUSH2 0x3349 JUMPI PUSH1 0x0 DUP1 REVERT JUMPDEST POP MLOAD SWAP2 SWAP1 POP JUMP JUMPDEST PUSH4 0x4E487B71 PUSH1 0xE0 SHL PUSH1 0x0 MSTORE PUSH1 0x11 PUSH1 0x4 MSTORE PUSH1 0x24 PUSH1 0x0 REVERT JUMPDEST PUSH1 0x0 DUP2 PUSH1 0x0 NOT DIV DUP4 GT DUP3 ISZERO ISZERO AND ISZERO PUSH2 0x3380 JUMPI PUSH2 0x3380 PUSH2 0x3350 JUMP JUMPDEST POP MUL SWAP1 JUMP JUMPDEST PUSH1 0x0 PUSH1 0x20 DUP3 DUP5 SUB SLT ISZERO PUSH2 0x3397 JUMPI PUSH1 0x0 DUP1 REVERT JUMPDEST DUP2 MLOAD PUSH2 0x2D60 DUP2 PUSH2 0x3047 JUMP JUMPDEST PUSH1 0x0 PUSH1 0xA0 DUP3 ADD DUP8 DUP4 MSTORE PUSH1 0x20 DUP8 DUP2 DUP6 ADD MSTORE PUSH1 0xA0 PUSH1 0x40 DUP6 ADD MSTORE DUP2 DUP8 SLOAD DUP1 DUP5 MSTORE PUSH1 0xC0 DUP7 ADD SWAP2 POP DUP9 PUSH1 0x0 MSTORE DUP3 PUSH1 0x0 KECCAK256 SWAP4 POP PUSH1 0x0 JUMPDEST DUP2 DUP2 LT ISZERO PUSH2 0x33F7 JUMPI DUP5 SLOAD PUSH1 0x1 PUSH1 0x1 PUSH1 0xA0 SHL SUB AND DUP4 MSTORE PUSH1 0x1 SWAP5 DUP6 ADD SWAP5 SWAP3 DUP5 ADD SWAP3 ADD PUSH2 0x33D2 JUMP JUMPDEST POP POP PUSH1 0x1 PUSH1 0x1 PUSH1 0xA0 SHL SUB SWAP7 SWAP1 SWAP7 AND PUSH1 0x60 DUP6 ADD MSTORE POP POP POP PUSH1 0x80 ADD MSTORE SWAP4 SWAP3 POP POP POP JUMP JUMPDEST PUSH4 0x4E487B71 PUSH1 0xE0 SHL PUSH1 0x0 MSTORE PUSH1 0x41 PUSH1 0x4 MSTORE PUSH1 0x24 PUSH1 0x0 REVERT JUMPDEST PUSH1 0x0 PUSH1 0x20 DUP1 DUP4 DUP6 SUB SLT ISZERO PUSH2 0x3441 JUMPI PUSH1 0x0 DUP1 REVERT JUMPDEST DUP3 MLOAD PUSH8 0xFFFFFFFFFFFFFFFF DUP1 DUP3 GT ISZERO PUSH2 0x3459 JUMPI PUSH1 0x0 DUP1 REVERT JUMPDEST DUP2 DUP6 ADD SWAP2 POP DUP6 PUSH1 0x1F DUP4 ADD SLT PUSH2 0x346D JUMPI PUSH1 0x0 DUP1 REVERT JUMPDEST DUP2 MLOAD DUP2 DUP2 GT ISZERO PUSH2 0x347F JUMPI PUSH2 0x347F PUSH2 0x3418 JUMP JUMPDEST DUP1 PUSH1 0x5 SHL PUSH1 0x40 MLOAD PUSH1 0x1F NOT PUSH1 0x3F DUP4 ADD AND DUP2 ADD DUP2 DUP2 LT DUP6 DUP3 GT OR ISZERO PUSH2 0x34A4 JUMPI PUSH2 0x34A4 PUSH2 0x3418 JUMP JUMPDEST PUSH1 0x40 MSTORE SWAP2 DUP3 MSTORE DUP5 DUP3 ADD SWAP3 POP DUP4 DUP2 ADD DUP6 ADD SWAP2 DUP9 DUP4 GT ISZERO PUSH2 0x34C2 JUMPI PUSH1 0x0 DUP1 REVERT JUMPDEST SWAP4 DUP6 ADD SWAP4 JUMPDEST DUP3 DUP6 LT ISZERO PUSH2 0x34E0 JUMPI DUP5 MLOAD DUP5 MSTORE SWAP4 DUP6 ADD SWAP4 SWAP3 DUP6 ADD SWAP3 PUSH2 0x34C7 JUMP JUMPDEST SWAP9 SWAP8 POP POP POP POP POP POP POP POP JUMP JUMPDEST PUSH1 0x0 PUSH1 0x20 DUP3 DUP5 SUB SLT ISZERO PUSH2 0x34FE JUMPI PUSH1 0x0 DUP1 REVERT JUMPDEST DUP2 MLOAD PUSH2 0x2D60 DUP2 PUSH2 0x2FDA JUMP JUMPDEST PUSH4 0x4E487B71 PUSH1 0xE0 SHL PUSH1 0x0 MSTORE PUSH1 0x32 PUSH1 0x4 MSTORE PUSH1 0x24 PUSH1 0x0 REVERT JUMPDEST PUSH1 0x0 DUP2 MLOAD DUP1 DUP5 MSTORE PUSH1 0x20 DUP1 DUP6 ADD SWAP5 POP DUP1 DUP5 ADD PUSH1 0x0 JUMPDEST DUP4 DUP2 LT ISZERO PUSH2 0x3558 JUMPI DUP2 MLOAD PUSH1 0x1 PUSH1 0x1 PUSH1 0xA0 SHL SUB AND DUP8 MSTORE SWAP6 DUP3 ADD SWAP6 SWAP1 DUP3 ADD SWAP1 PUSH1 0x1 ADD PUSH2 0x3533 JUMP JUMPDEST POP SWAP5 SWAP6 SWAP5 POP POP POP POP POP JUMP JUMPDEST DUP5 DUP2 MSTORE PUSH1 0x80 PUSH1 0x20 DUP3 ADD MSTORE PUSH1 0x0 PUSH2 0x357C PUSH1 0x80 DUP4 ADD DUP7 PUSH2 0x351F JUMP JUMPDEST PUSH1 0x1 PUSH1 0x1 PUSH1 0xA0 SHL SUB SWAP5 SWAP1 SWAP5 AND PUSH1 0x40 DUP4 ADD MSTORE POP PUSH1 0x60 ADD MSTORE SWAP3 SWAP2 POP POP JUMP JUMPDEST DUP1 MLOAD PUSH1 0x1 PUSH1 0x1 PUSH1 0x70 SHL SUB DUP2 AND DUP2 EQ PUSH2 0x309F JUMPI PUSH1 0x0 DUP1 REVERT JUMPDEST PUSH1 0x0 DUP1 PUSH1 0x0 PUSH1 0x60 DUP5 DUP7 SUB SLT ISZERO PUSH2 0x35C4 JUMPI PUSH1 0x0 DUP1 REVERT JUMPDEST PUSH2 0x35CD DUP5 PUSH2 0x3598 JUMP JUMPDEST SWAP3 POP PUSH2 0x35DB PUSH1 0x20 DUP6 ADD PUSH2 0x3598 JUMP JUMPDEST SWAP2 POP PUSH1 0x40 DUP5 ADD MLOAD PUSH4 0xFFFFFFFF DUP2 AND DUP2 EQ PUSH2 0x35F4 JUMPI PUSH1 0x0 DUP1 REVERT JUMPDEST DUP1 SWAP2 POP POP SWAP3 POP SWAP3 POP SWAP3 JUMP JUMPDEST PUSH1 0x0 DUP3 PUSH2 0x361C JUMPI PUSH4 0x4E487B71 PUSH1 0xE0 SHL PUSH1 0x0 MSTORE PUSH1 0x12 PUSH1 0x4 MSTORE PUSH1 0x24 PUSH1 0x0 REVERT JUMPDEST POP DIV SWAP1 JUMP JUMPDEST PUSH1 0x1 PUSH1 0x1 PUSH1 0xA0 SHL SUB SWAP7 DUP8 AND DUP2 MSTORE PUSH1 0x20 DUP2 ADD SWAP6 SWAP1 SWAP6 MSTORE PUSH1 0x40 DUP6 ADD SWAP4 SWAP1 SWAP4 MSTORE PUSH1 0x60 DUP5 ADD SWAP2 SWAP1 SWAP2 MSTORE SWAP1 SWAP3 AND PUSH1 0x80 DUP3 ADD MSTORE PUSH1 0xA0 DUP2 ADD SWAP2 SWAP1 SWAP2 MSTORE PUSH1 0xC0 ADD SWAP1 JUMP JUMPDEST PUSH1 0x0 DUP1 PUSH1 0x40 DUP4 DUP6 SUB SLT ISZERO PUSH2 0x366F JUMPI PUSH1 0x0 DUP1 REVERT JUMPDEST POP POP DUP1 MLOAD PUSH1 0x20 SWAP1 SWAP2 ADD MLOAD SWAP1 SWAP3 SWAP1 SWAP2 POP JUMP JUMPDEST DUP6 DUP2 MSTORE DUP5 PUSH1 0x20 DUP3 ADD MSTORE PUSH1 0xA0 PUSH1 0x40 DUP3 ADD MSTORE PUSH1 0x0 PUSH2 0x369F PUSH1 0xA0 DUP4 ADD DUP7 PUSH2 0x351F JUMP JUMPDEST PUSH1 0x1 PUSH1 0x1 PUSH1 0xA0 SHL SUB SWAP5 SWAP1 SWAP5 AND PUSH1 0x60 DUP4 ADD MSTORE POP PUSH1 0x80 ADD MSTORE SWAP4 SWAP3 POP POP POP JUMP JUMPDEST PUSH1 0x0 DUP3 NOT DUP3 GT ISZERO PUSH2 0x36CF JUMPI PUSH2 0x36CF PUSH2 0x3350 JUMP JUMPDEST POP ADD SWAP1 JUMP JUMPDEST PUSH1 0x0 PUSH1 0xFF DUP3 AND PUSH1 0xFF DUP2 EQ ISZERO PUSH2 0x36EB JUMPI PUSH2 0x36EB PUSH2 0x3350 JUMP JUMPDEST PUSH1 0x1 ADD SWAP3 SWAP2 POP POP JUMP JUMPDEST PUSH1 0x0 DUP3 DUP3 LT ISZERO PUSH2 0x3706 JUMPI PUSH2 0x3706 PUSH2 0x3350 JUMP JUMPDEST POP SUB SWAP1 JUMP JUMPDEST PUSH1 0x0 DUP1 PUSH1 0x0 PUSH1 0x60 DUP5 DUP7 SUB SLT ISZERO PUSH2 0x3720 JUMPI PUSH1 0x0 DUP1 REVERT JUMPDEST DUP4 MLOAD SWAP3 POP PUSH1 0x20 DUP5 ADD MLOAD SWAP2 POP PUSH1 0x40 DUP5 ADD MLOAD SWAP1 POP SWAP3 POP SWAP3 POP SWAP3 JUMP JUMPDEST PUSH1 0x0 JUMPDEST DUP4 DUP2 LT ISZERO PUSH2 0x3754 JUMPI DUP2 DUP2 ADD MLOAD DUP4 DUP3 ADD MSTORE PUSH1 0x20 ADD PUSH2 0x373C JUMP JUMPDEST DUP4 DUP2 GT ISZERO PUSH2 0x153E JUMPI POP POP PUSH1 0x0 SWAP2 ADD MSTORE JUMP JUMPDEST PUSH1 0x0 DUP3 MLOAD PUSH2 0x3777 DUP2 DUP5 PUSH1 0x20 DUP8 ADD PUSH2 0x3739 JUMP JUMPDEST SWAP2 SWAP1 SWAP2 ADD SWAP3 SWAP2 POP POP JUMP JUMPDEST PUSH1 0x20 DUP2 MSTORE PUSH1 0x0 DUP3 MLOAD DUP1 PUSH1 0x20 DUP5 ADD MSTORE PUSH2 0x37A0 DUP2 PUSH1 0x40 DUP6 ADD PUSH1 0x20 DUP8 ADD PUSH2 0x3739 JUMP JUMPDEST PUSH1 0x1F ADD PUSH1 0x1F NOT AND SWAP2 SWAP1 SWAP2 ADD PUSH1 0x40 ADD SWAP3 SWAP2 POP POP JUMP INVALID LOG2 PUSH5 0x6970667358 0x22 SLT KECCAK256 SSTORE REVERT 0x2E ISZERO 0x4F 0x2B PUSH25 0x14829C6902C187B2EEDC2FDBE628C97654BCC6728DF10F3F4E PUSH5 0x736F6C6343 STOP ADDMOD 0xC STOP CALLER ","sha1":"eb4824681517a122fe09ea0b1a030c678b2b3116","source":"// SPDX-License-Identifier: MIT\npragma solidity 0.8.12;\n\nimport \"@openzeppelin/contracts/access/Ownable.sol\";\nimport \"@openzeppelin/contracts/token/ERC20/IERC20.sol\";\nimport \"@openzeppelin/contracts/token/ERC20/extensions/ERC20Burnable.sol\";\nimport \"@openzeppelin/contracts/token/ERC20/utils/SafeERC20.sol\";\nimport \"./GalacticChef.sol\";\nimport \"../interfaces/IPancakePair.sol\";\nimport \"../interfaces/IPancakeRouter.sol\";\nimport \"../interfaces/IBankroll.sol\";\nimport \"../interfaces/ILottery.sol\";\n\n//import \"../interfaces/IFeeDistributor.sol\";\n///@dev use interface IFeeDistributor\n\ncontract FeeDistributorV2 is Ownable {\n    using SafeERC20 for ERC20Burnable;\n    using SafeERC20 for IERC20;\n\n    struct FeeData {\n        /** Fees in array are as follows [CRUSH] [NICE]\n         * [0][0](bbb) Buy back and Burn (NICE | CRUSH) CHECK THAT SELECTED TOKEN HAS BEEN BURNED IN TOKEN CONTRACT REVISAR TOTAL SUPPLY\n         * [1](bbd) Buy back and DISTRIBUTE (CRUSH) SENDS CRUSH TO BANKSTAKING\n         * [2](bbl) Buy back and LOTTERY (CRUSH) SENDS CRUSH TO LOTTERY POOL\n         * [3][1](lqPermanent) PERMANENT LIQUIDITY (NICE | CRUSH)/BNB\n         * [4][2](lqLock) LOCKED LIQUIDITY (NICE | CRUSH)/BNB\n         * 0-4 need to be <= 100% Whatever is left, we send to marketing wallet\n         * REST - MARKETING FUNDS -> BNB\n         **/\n        uint256[3] niceFees;\n        uint256[5] crushFees;\n        bool initialized; // Fail transactions where fees have not been added\n        bool hasFees; // If token charges fees on transfers need to use swapTokensForEthSupportingFeesOnTransferToken function instead\n        bool token0Fees; // FOR LP IN CASE IT HAS FEES\n        bool token1Fees; // FOR LP IN CASE ITS TOKEN HAS FEES\n        /**\n            if it's an LP token we need to remove that Liquidity\n            else it's a Single asset token and have to swap it for core ETH (BNB)\n            before buying anything else.\n        **/\n        IPancakeRouter router; // main router for this token\n    }\n    address public immutable CRUSH;\n    address public immutable NICE;\n    address public immutable deadWallet =\n        0x000000000000000000000000000000000000dEaD;\n    IPancakeRouter public tokenRouter; //used for CRUSH and NICE\n    address public niceLiquidity;\n    uint256 public idoPrice;\n    address public teamWallet;\n    address public lock;\n    IBitcrushBankroll public immutable bankroll;\n    IBitcrushLottery public lottery;\n\n    bool public reachForIdo;\n\n    uint256 public constant DIVISOR = 10000; // 100.00%\n    GalacticChef public chef;\n\n    mapping(uint256 => FeeData) public feeData;\n    mapping(uint256 => address[]) public tokenPath; // RECEIVED TOKEN TO WBNB\n    mapping(uint256 => address[]) public token0Path; // LP TOKEN 0 TO WBNB\n    mapping(uint256 => address[]) public token1Path; // LP TOKEN 1 TO WBNB\n\n    event AddPoolFee(uint256 indexed _pid);\n    event EditFee(uint256 indexed _pid, uint256 bb, uint256 liq, uint256 team);\n    event UpdateRouter(uint256 indexed _pid, address router);\n    event UpdatePath(uint256 indexed _pid, address router);\n    event UpdateTeamWallet(address _teamW);\n    event UpdateMainRouter(address _router);\n    event FundsDistributed(uint256 amount, address _token);\n    event TeamFundsDistributed(bool _success, uint256 amount);\n    event UpdateTargetPrice(uint256 _target);\n    event UpdateLotteryAddress(address _newLotteery, address _oldLottery);\n    event SeachForTarget(bool _isOn);\n\n    modifier onlyChef() {\n        require(msg.sender == address(chef), \"onlyChef\");\n        _;\n    }\n\n    constructor(\n        address _chef,\n        uint256 _idoPrice,\n        address _nicePair,\n        address _bankroll,\n        address _lottery,\n        address _lock,\n        address _nice,\n        address _crush\n    ) {\n        require(_chef != address(0), \"Zero address\");\n        chef = GalacticChef(_chef);\n        teamWallet = msg.sender;\n        // _idoPrice must be NICE/BNB NOT BNB/NICE\n        idoPrice = _idoPrice;\n        niceLiquidity = _nicePair;\n        // DISTRIBUTE CRUSH\n        bankroll = IBitcrushBankroll(_bankroll);\n        lottery = IBitcrushLottery(_lottery);\n        CRUSH = _crush;\n        NICE = _nice;\n    }\n\n    /*********************************\n     *      INITIALIZE FEE POOL      *\n     *********************************/\n\n    function addorEditFee(\n        uint256 _pid, //ID TO ADD/EDIT\n        uint256[3] calldata _niceFees, // 0 buyback BURN, 1 buyback DISTRIBUTE, 2 buyback LOTTERY, 3 liquidity PERMANENT, 4 liquidity LOCK\n        uint256[5] calldata _crushFees, // 0 buyback BURN, 1 buyback DISTRIBUTE, 2 buyback LOTTERY, 3 liquidity PERMANENT, 4 liquidity LOCK\n        bool[3] calldata hasFees, // 0 token has Fees, 1 token0 has fees, 2 token1 has fees\n        address router, //swap router address\n        // If is LP -> tokenAddresses that compose the pair CRUSH/BUSD -> [ CRUSH_ADDRESS, BUSD_ADDRESS]\n        // If ERC20 token [ CRUSH_ADDRESS, wBNB] -> Path to ETH\n        address[] calldata _tokens,\n        address[] calldata _token0Path, // LP TOKEN 0 PATH TO wBNB\n        address[] calldata _token1Path // LP TOKEN 1 PATH to wBNB\n    ) external onlyOwner {\n        require(\n            addArrays(_niceFees, _crushFees) <= DIVISOR,\n            \"Incorrect Fee distribution\"\n        );\n        require(router != address(0), \"Incorrect Router\");\n        require(_tokens.length > 0, \"need a path to base\");\n        feeData[_pid] = FeeData(\n            _niceFees,\n            _crushFees,\n            true,\n            hasFees[0],\n            hasFees[1],\n            hasFees[2],\n            IPancakeRouter(router)\n        );\n        updatePaths(_pid, _tokens, _token0Path, _token1Path);\n        emit AddPoolFee(_pid);\n    }\n\n    /******************************\n     *      FEE DISTRIBUTION      *\n     ******************************/\n    receive() external payable {}\n\n    fallback() external payable {}\n\n    /// @notice Function that distributes fees to the respective flows\n    /// @dev This function requires funds to be sent beforehand to this contract\n    function receiveFees(uint256 _pid, uint256 _amount) external onlyChef {\n        FeeData storage feeInfo = feeData[_pid];\n        require(feeInfo.initialized, \"Not init\");\n        (, , , IERC20 token, , , bool isLP) = chef.poolInfo(_pid);\n        token.safeTransferFrom(address(chef), address(this), _amount);\n        // Check if token was received\n        require(token.balanceOf(address(this)) >= _amount, \"send funds\");\n        // REQUIRE THAT FEES ARE NEEDED TO BE TAKEN, ELSE TRANSFER TO OWNER\n        // IS LP TOKEN ?\n        token.approve(address(feeInfo.router), _amount * 2);\n        if (isLP) {\n            // remove liquidity\n            removeLiquidityAndSwapETH(_pid, _amount);\n        } else {\n            // NO SWAP ERC FLOW\n            if (feeInfo.hasFees)\n                feeInfo\n                    .router\n                    .swapExactTokensForETHSupportingFeeOnTransferTokens(\n                        _amount,\n                        0, // We get what we can\n                        tokenPath[_pid], // Token PATH of ERC is already path to WETH\n                        address(this),\n                        block.timestamp\n                    );\n            else\n                feeInfo.router.swapExactTokensForETH(\n                    _amount,\n                    0, // We get what we can\n                    tokenPath[_pid], // Token PATH of ERC is already path to WETH\n                    address(this),\n                    block.timestamp\n                );\n        }\n        if (reachForIdo && checkPrice()) {\n            // only buy back and burn NICE\n            uint256 currentETH = address(this).balance;\n            address[] memory nicePath;\n            nicePath[0] = tokenRouter.WETH();\n            nicePath[1] = NICE;\n            tokenRouter.swapExactETHForTokens{value: currentETH}(\n                0,\n                nicePath,\n                address(0),\n                block.timestamp\n            );\n        } else {\n            // With the ETH distribute AMOUNTS\n            distributeFees(feeInfo);\n        }\n        emit FundsDistributed(_amount, address(token));\n    }\n\n    /// @notice Check that current Nice Price is above IDO\n    /// @dev get IDO price for NICE\n    function checkPrice() public view returns (bool _belowIDO) {\n        (uint256 reserve0, uint256 reserve1, ) = IPancakePair(niceLiquidity)\n            .getReserves();\n        reserve1 = reserve1 > 0 ? reserve1 : 1; //just in case\n        _belowIDO = ((reserve0 * 1 ether) / reserve1) < idoPrice;\n    }\n\n    /// @notice from the POOL ID check which token is wETH and return the other one\n    /// @param _pid the Pool ID token path to check\n    function getNotEthToken(uint256 _pid)\n        internal\n        view\n        returns (\n            IERC20 token,\n            address[] memory path,\n            bool hasFees\n        )\n    {\n        if (tokenPath[_pid][0] != tokenRouter.WETH()) {\n            token = IERC20(tokenPath[_pid][0]);\n            path = token0Path[_pid];\n            hasFees = feeData[_pid].token0Fees;\n        } else {\n            token = IERC20(tokenPath[_pid][1]);\n            path = token1Path[_pid];\n        }\n    }\n\n    /// @notice Remove Liquidity from pair token and swap for ETH\n    /// @param _pid Pool ID  to get token Path\n    function removeLiquidityAndSwapETH(uint256 _pid, uint256 amount)\n        internal\n        returns (uint256)\n    {\n        FeeData storage feeInfo = feeData[_pid];\n        // SWAP WITH ONE TOKEN ALREADY WETH\n        if (\n            tokenPath[_pid][0] == tokenRouter.WETH() ||\n            tokenPath[_pid][1] == tokenRouter.WETH()\n        ) {\n            IERC20 nonEthToken;\n            address[] memory path;\n            bool tokenFees;\n            (nonEthToken, path, tokenFees) = getNotEthToken(_pid);\n            if (feeInfo.hasFees)\n                feeInfo.router.removeLiquidityETHSupportingFeeOnTransferTokens(\n                    address(nonEthToken),\n                    amount,\n                    0,\n                    0,\n                    address(this),\n                    block.timestamp\n                );\n            else\n                feeInfo.router.removeLiquidityETH(\n                    address(nonEthToken),\n                    amount,\n                    0,\n                    0,\n                    address(this),\n                    block.timestamp\n                );\n            uint256 tokensLeft = nonEthToken.balanceOf(address(this));\n            nonEthToken.approve(address(feeInfo.router), tokensLeft);\n            if (tokenFees) {\n                feeInfo\n                    .router\n                    .swapExactTokensForETHSupportingFeeOnTransferTokens(\n                        tokensLeft,\n                        0,\n                        path,\n                        address(this),\n                        block.timestamp\n                    );\n            } else {\n                feeInfo.router.swapExactTokensForETH(\n                    tokensLeft,\n                    0,\n                    path,\n                    address(this),\n                    block.timestamp\n                );\n            }\n        }\n        // SWAP WITH NO TOKENS BEING WETH\n        else {\n            (uint256 tokenA, uint256 tokenB) = feeInfo.router.removeLiquidity(\n                tokenPath[_pid][0],\n                tokenPath[_pid][1],\n                amount,\n                0,\n                0,\n                address(this),\n                block.timestamp\n            );\n            // Approve tokens for swap\n            IERC20(tokenPath[_pid][0]).approve(address(feeInfo.router), tokenA);\n            IERC20(tokenPath[_pid][1]).approve(address(feeInfo.router), tokenB);\n            // Swap token A\n            if (feeInfo.token0Fees)\n                feeInfo\n                    .router\n                    .swapExactTokensForETHSupportingFeeOnTransferTokens(\n                        tokenA,\n                        0,\n                        token0Path[_pid],\n                        address(this),\n                        block.timestamp\n                    );\n            else\n                feeInfo.router.swapExactTokensForETH(\n                    tokenA,\n                    0,\n                    token0Path[_pid],\n                    address(this),\n                    block.timestamp\n                );\n            // Swap token B\n            if (feeInfo.token1Fees)\n                feeInfo\n                    .router\n                    .swapExactTokensForETHSupportingFeeOnTransferTokens(\n                        tokenB,\n                        0,\n                        token1Path[_pid],\n                        address(this),\n                        block.timestamp\n                    );\n            else\n                feeInfo.router.swapExactTokensForETH(\n                    tokenB,\n                    0,\n                    token1Path[_pid],\n                    address(this),\n                    block.timestamp\n                );\n            //Returns total ETH got\n            return address(this).balance;\n        }\n    }\n\n    function distributeFees(FeeData storage feeInfo) internal {\n        uint256 totalCrush;\n        uint256 totalNice;\n        uint256 crushFees;\n        uint256 niceFees;\n        uint256 bnbForCrush;\n        uint256 bnbForNice;\n        uint256 swapAmountCrush;\n        uint256 swapAmountNice;\n\n        for (uint8 x = 0; x < 5; x++) {\n            crushFees += feeInfo.crushFees[x];\n            totalCrush += x < 3\n                ? feeInfo.crushFees[x]\n                : feeInfo.crushFees[x] / 2;\n            if (x < 3) {\n                niceFees += feeInfo.niceFees[x];\n                totalNice += x == 0\n                    ? feeInfo.niceFees[x]\n                    : feeInfo.niceFees[x] / 2;\n            }\n        }\n        address[] memory path;\n        path[0] = tokenRouter.WETH();\n        path[1] = CRUSH;\n        if (crushFees > 0) {\n            bnbForCrush = (address(this).balance * crushFees) / DIVISOR;\n            swapAmountCrush = (bnbForCrush * totalCrush) / crushFees;\n            // Swap for CRUSH\n            tokenRouter.swapExactETHForTokens{value: swapAmountCrush}(\n                0,\n                path,\n                address(this),\n                block.timestamp\n            );\n            bnbForCrush -= swapAmountCrush;\n            tokenAndLiquidityDistribution(\n                CRUSH,\n                feeInfo,\n                crushFees,\n                false,\n                bnbForCrush\n            );\n        }\n        if (niceFees > 0) {\n            bnbForNice = (address(this).balance * niceFees) / DIVISOR;\n            swapAmountNice = (bnbForNice * totalNice) / niceFees;\n            bnbForNice -= swapAmountNice;\n            // Swap for NICE\n            path[1] = NICE;\n            tokenRouter.swapExactETHForTokens{value: swapAmountNice}(\n                0,\n                path,\n                address(this),\n                block.timestamp\n            );\n            tokenAndLiquidityDistribution(\n                NICE,\n                feeInfo,\n                niceFees,\n                true,\n                bnbForNice\n            );\n        }\n\n        // If there's some ETH left, send to marketing wallet\n        uint256 ethBal = address(this).balance;\n        if (ethBal > 0) {\n            (bool success, ) = payable(teamWallet).call{value: ethBal}(\"\");\n            emit TeamFundsDistributed(success, ethBal);\n        }\n    }\n\n    function tokenAndLiquidityDistribution(\n        address token,\n        FeeData storage feeInfo,\n        uint256 totalFees,\n        bool isNice,\n        uint256 liquidityETH\n    ) internal {\n        ERC20Burnable mainToken = ERC20Burnable(token);\n        uint256 currentBalance = mainToken.balanceOf(address(this));\n        // BUYBACK AND BURN\n        uint256 usedFee = isNice ? feeInfo.niceFees[0] : feeInfo.crushFees[0];\n        uint256 amountToUse = (currentBalance * usedFee) / totalFees;\n        if (amountToUse > 0) mainToken.burn(amountToUse);\n        // BUYBACK AND DISTRIBUTE TO STAKING POOL\n        usedFee = isNice ? 0 : feeInfo.crushFees[1];\n        amountToUse = (currentBalance * usedFee) / totalFees;\n        if (amountToUse > 0) {\n            mainToken.approve(address(bankroll), amountToUse);\n            bankroll.addUserLoss(amountToUse);\n        }\n        // BUYBACK AND LOTTERY\n        usedFee = isNice ? 0 : feeInfo.crushFees[2];\n        amountToUse = (currentBalance * usedFee) / totalFees;\n        if (amountToUse > 0) {\n            mainToken.approve(address(lottery), amountToUse);\n            lottery.addToPool(amountToUse);\n        }\n        // Since we'll send liquidity straight to the required addresses, addLiquidity needs to happen twice\\\n        currentBalance = mainToken.balanceOf(address(this));\n        if (isNice)\n            (totalFees, ) = liquidityFeeTotal(\n                feeInfo.niceFees,\n                feeInfo.crushFees\n            );\n        else\n            (, totalFees) = liquidityFeeTotal(\n                feeInfo.niceFees,\n                feeInfo.crushFees\n            );\n        if (totalFees == 0) return;\n        // PERMANENT LIQUIDITY\n        usedFee = isNice ? feeInfo.niceFees[1] : feeInfo.crushFees[3];\n        amountToUse = (currentBalance * usedFee) / totalFees;\n        uint256 ethToUse = (liquidityETH * usedFee) / totalFees;\n        if (amountToUse > 0) {\n            tokenRouter.addLiquidityETH{value: ethToUse}(\n                address(mainToken),\n                amountToUse,\n                0,\n                0,\n                deadWallet, // \"burn\" immediately\n                block.timestamp\n            );\n        }\n        // LOCK LIQUIDITY\n        usedFee = isNice ? feeInfo.niceFees[2] : feeInfo.crushFees[4];\n        amountToUse = (currentBalance * usedFee) / totalFees;\n        ethToUse = (liquidityETH * usedFee) / totalFees;\n        if (amountToUse > 0) {\n            tokenRouter.addLiquidityETH{value: ethToUse}(\n                address(mainToken),\n                amountToUse,\n                0,\n                0,\n                lock, // send Tokens to LOCK contract\n                block.timestamp\n            );\n        }\n    }\n\n    /*************************\n     *        SETTERS        *\n     *************************/\n    /// @notice Update the main router used to spread liquidity\n    /// @param _newRouter address of the router to migrate to\n    /// @dev Requires the router to exist\n    function setBaseRouter(address _newRouter) external onlyOwner {\n        require(_newRouter != address(0), \"No zero\");\n        tokenRouter = IPancakeRouter(_newRouter);\n        emit UpdateMainRouter(_newRouter);\n    }\n\n    /// @notice Update the Marketing Wallet\n    /// @param _newTeamW address to send funds to\n    /// @dev requires address to be payable since it'll receive BNB(ETH) directly\n    function setTeamWallet(address payable _newTeamW) external onlyOwner {\n        require(_newTeamW != address(0), \"Cant pay 0\");\n        teamWallet = _newTeamW;\n        emit UpdateTeamWallet(_newTeamW);\n    }\n\n    /// @notice Update the paths used for a specific pool\n    /// @param id the Pool ID\n    /// @param _path path of the token, if LP, tokens that comprise it, else route to ETH\n    /// @param _path1 if LP, token0 path to ETH, else empty;\n    /// @param _path2 if LP, token1 path to ETH, else empty;\n    function updatePaths(\n        uint256 id,\n        address[] calldata _path,\n        address[] calldata _path1,\n        address[] calldata _path2\n    ) public onlyOwner {\n        tokenPath[id] = _path;\n        token0Path[id] = _path1;\n        token1Path[id] = _path2;\n    }\n\n    /// @notice Update the Target Price to compare to for NICE buy back and burn only.\n    /// @param _price new Target price to attempt to reach\n    function updateIdoTarget(uint256 _price) external onlyOwner {\n        require(_price > 0, \"Invalid target\");\n        idoPrice = _price;\n        emit UpdateTargetPrice(_price);\n    }\n\n    /// @notice Toggle between enabling and disabling NICE target price Search\n    function enableTargetSearch(bool _enable) external onlyOwner {\n        require(reachForIdo != _enable, \"Already in state\");\n        reachForIdo = _enable;\n        emit SeachForTarget(_enable);\n    }\n\n    function updateLottery(address _nLottery) external onlyOwner {\n        require(_nLottery != address(0), \"No Zero\");\n        emit UpdateLotteryAddress(_nLottery, address(lottery));\n        lottery = IBitcrushLottery(_nLottery);\n    }\n\n    /*************************\n     *      Calcualtions     *\n     *************************/\n    function liquidityFeeTotal(uint256[3] storage _ar1, uint256[5] storage _ar2)\n        internal\n        view\n        returns (uint256 _liquidityNice, uint256 _liquidityCrush)\n    {\n        _liquidityNice = _ar1[1] + _ar1[2];\n        _liquidityCrush = _ar2[3] + _ar2[4];\n    }\n\n    function addArrays(uint256[3] calldata _ar1, uint256[5] calldata _ar2)\n        internal\n        pure\n        returns (uint256 _result)\n    {\n        for (uint8 i = 0; i < 5; i++) {\n            _result += _ar2[i];\n            if (i < 3) {\n                _result += _ar1[i];\n            }\n        }\n    }\n}\n","sourcePath":"contracts/FeeDistributorv2.sol","type":"contract","deployment":{"address":"0xcb3449eAC7A2cD2fBAfA1C6FFA59E6AbB47d1F7b","chainid":"97","blockHeight":17690355}}