{"bytecode":"61010060405261dead60c0523480156200001857600080fd5b5060405162003c2d38038062003c2d8339810160408190526200003b916200016e565b620000463362000101565b6001600160a01b038816620000905760405162461bcd60e51b815260206004820152600c60248201526b5a65726f206164647265737360a01b604482015260640160405180910390fd5b600780546001600160a01b03998a166001600160a01b031991821617909155600480548216331790556003979097556006805460028054988b16989099169790971790975593871660e0529186166001600160a81b0319909416939093179093558316608052501660a0526200020d565b600080546001600160a01b038381166001600160a01b0319831681178455604051919092169283917f8be0079c531659141344cd1fd0a4f28419497f9722a3daafe3b4186f6b6457e09190a35050565b80516001600160a01b03811681146200016957600080fd5b919050565b600080600080600080600080610100898b0312156200018c57600080fd5b620001978962000151565b975060208901519650620001ae60408a0162000151565b9550620001be60608a0162000151565b9450620001ce60808a0162000151565b9350620001de60a08a0162000151565b9250620001ee60c08a0162000151565b9150620001fe60e08a0162000151565b90509295985092959890939650565b60805160a05160c05160e0516139b5620002786000396000818161021c015281816128cd015261297d0152600081816104fe0152612cb80152600081816102c1015281816122f301526123b80152600081816103b501528181612175015261228601526139b56000f3fe6080604052600436106101c45760003560e01c80637a254a41116100f6578063a562bdba1161008f578063d85539c611610061578063d85539c614610617578063f2fde38b14610637578063f83d08ba14610657578063f8b70f031461067757005b8063a562bdba14610593578063ba13a572146105b3578063cd80fe0d146105d3578063d5a06d4c146105e957005b80638da5cb5b116100c85780638da5cb5b146105205780638fc3047d1461053e57806391c05b0b14610553578063958bac5f1461057357005b80637a254a411461048c5780637ced15ef146104ac5780637d04feff146104cc57806385141a77146104ec57005b80633843418d11610168578063659f4bf91161013a578063659f4bf91461041757806367347c68146104375780636c7a8ee414610457578063715018a61461047757005b80633843418d1461030757806343f0a8e1146103a35780634f348758146103d757806359927044146103f757005b80631525ff7d116101a15780631525ff7d1461026f5780631fc8bc5d1461028f57806330926486146102af5780633410fe6e146102e357005b8063075b42ab146101cd5780630c657eb01461020a5780630fe344ed1461023e57005b366101cb57005b005b3480156101d957600080fd5b506002546101ed906001600160a01b031681565b6040516001600160a01b0390911681526020015b60405180910390f35b34801561021657600080fd5b506101ed7f000000000000000000000000000000000000000000000000000000000000000081565b34801561024a57600080fd5b5060065461025f90600160a01b900460ff1681565b6040519015158152602001610201565b34801561027b57600080fd5b506101cb61028a366004613176565b610697565b34801561029b57600080fd5b506007546101ed906001600160a01b031681565b3480156102bb57600080fd5b506101ed7f000000000000000000000000000000000000000000000000000000000000000081565b3480156102ef57600080fd5b506102f961271081565b604051908152602001610201565b34801561031357600080fd5b5061036a610322366004613193565b6008602081905260009182526040909120015460ff8082169161010081048216916201000082048116916301000000810490911690600160201b90046001600160a01b031685565b60408051951515865293151560208601529115159284019290925290151560608301526001600160a01b0316608082015260a001610201565b3480156103af57600080fd5b506101ed7f000000000000000000000000000000000000000000000000000000000000000081565b3480156103e357600080fd5b506101cb6103f23660046131ac565b610762565b34801561040357600080fd5b506004546101ed906001600160a01b031681565b34801561042357600080fd5b506101ed6104323660046131ac565b610b5d565b34801561044357600080fd5b506101cb6104523660046131dc565b610b95565b34801561046357600080fd5b506101cb610472366004613277565b610c60565b34801561048357600080fd5b506101cb610f33565b34801561049857600080fd5b506101ed6104a73660046131ac565b610f69565b3480156104b857600080fd5b506101cb6104c7366004613193565b610f85565b3480156104d857600080fd5b506101ed6104e73660046131ac565b611025565b3480156104f857600080fd5b506101ed7f000000000000000000000000000000000000000000000000000000000000000081565b34801561052c57600080fd5b506000546001600160a01b03166101ed565b34801561054a57600080fd5b5061025f611041565b34801561055f57600080fd5b506101cb61056e366004613193565b611110565b34801561057f57600080fd5b506101cb61058e36600461336f565b611173565b34801561059f57600080fd5b506001546101ed906001600160a01b031681565b3480156105bf57600080fd5b506006546101ed906001600160a01b031681565b3480156105df57600080fd5b506102f960035481565b3480156105f557600080fd5b50610609610604366004613193565b6111f4565b604051610201929190613413565b34801561062357600080fd5b506101cb610632366004613176565b611283565b34801561064357600080fd5b506101cb610652366004613176565b611356565b34801561066357600080fd5b506005546101ed906001600160a01b031681565b34801561068357600080fd5b506101cb610692366004613176565b6113f1565b6000546001600160a01b031633146106ca5760405162461bcd60e51b81526004016106c190613470565b60405180910390fd5b6001600160a01b03811661070d5760405162461bcd60e51b815260206004820152600a602482015269043616e742070617920360b41b60448201526064016106c1565b600480546001600160a01b0319166001600160a01b0383169081179091556040519081527f88b8edda57af64d7425b090e9e8d925c96d2cc1360afdc15f0da29752103e705906020015b60405180910390a150565b6007546001600160a01b031633146107a75760405162461bcd60e51b815260206004820152600860248201526737b7363ca1b432b360c11b60448201526064016106c1565b60008281526008602081905260409091209081015460ff166107f65760405162461bcd60e51b8152602060048201526008602482015267139bdd081a5b9a5d60c21b60448201526064016106c1565b600754604051631526fe2760e01b81526004810185905260009182916001600160a01b0390911690631526fe279060240160e060405180830381865afa158015610844573d6000803e3d6000fd5b505050506040513d601f19601f8201168201806040525081019061086891906134a5565b60075493985096506108919550506001600160a01b0380881694509091169150309050876114a9565b6040516370a0823160e01b815230600482015284906001600160a01b038416906370a0823190602401602060405180830381865afa1580156108d7573d6000803e3d6000fd5b505050506040513d601f19601f820116820180604052508101906108fb919061351b565b10156109365760405162461bcd60e51b815260206004820152600a60248201526973656e642066756e647360b01b60448201526064016106c1565b60088301546001600160a01b038084169163095ea7b391600160201b9091041661096187600261354a565b6040516001600160e01b031960e085901b1681526001600160a01b03909216600483015260248201526044016020604051808303816000875af11580156109ac573d6000803e3d6000fd5b505050506040513d601f19601f820116820180604052508101906109d09190613569565b5080156109e7576109e18585611509565b50610b15565b6008830154610100900460ff1615610a7e57600883015460008681526009602052604090819020905163791ac94760e01b8152600160201b9092046001600160a01b03169163791ac94791610a47918891600191309042906004016135cf565b600060405180830381600087803b158015610a6157600080fd5b505af1158015610a75573d6000803e3d6000fd5b50505050610b15565b60088301546000868152600960205260409081902090516318cbafe560e01b8152600160201b9092046001600160a01b0316916318cbafe591610acc918891600191309042906004016135cf565b6000604051808303816000875af1158015610aeb573d6000803e3d6000fd5b505050506040513d6000823e601f3d908101601f19168201604052610b139190810190613621565b505b604080518581526001600160a01b03841660208201527f195b26ced269c6da9f9a06d404cba065a0149c0c189719e0384e1beb79659da0910160405180910390a15050505050565b600a6020528160005260406000208181548110610b7957600080fd5b6000918252602090912001546001600160a01b03169150829050565b6000546001600160a01b03163314610bbf5760405162461bcd60e51b81526004016106c190613470565b60065460ff600160a01b9091041615158115151415610c135760405162461bcd60e51b815260206004820152601060248201526f416c726561647920696e20737461746560801b60448201526064016106c1565b60068054821515600160a01b0260ff60a01b199091161790556040517f7d703b166159e7b2e16b6550390cfdc4786dddf83c504aa32647e1da9127f2269061075790831515815260200190565b6000546001600160a01b03163314610c8a5760405162461bcd60e51b81526004016106c190613470565b612710610c978b8b611ecf565b1115610ce55760405162461bcd60e51b815260206004820152601a60248201527f496e636f72726563742046656520646973747269627574696f6e00000000000060448201526064016106c1565b6001600160a01b038716610d2e5760405162461bcd60e51b815260206004820152601060248201526f24b731b7b93932b1ba102937baba32b960811b60448201526064016106c1565b84610d715760405162461bcd60e51b81526020600482015260136024820152726e6565642061207061746820746f206261736560681b60448201526064016106c1565b6040805161014081019091528060e081018c60038282606080828437600092019190915250505081526040805160a0818101909252602090920191908c906005908390839080828437600092019190915250505081526001602080830191909152604090910190610de4908b018b6131dc565b15158152602090810190610dfe9060408c01908c016131dc565b15158152602001610e1560608b0160408c016131dc565b151581526001600160a01b03891660209182015260008d81526008909152604090208151610e469082906003613052565b506020820151610e5c9060038301906005613090565b506040820151600890910180546060840151608085015160a086015160c0909601516001600160a01b0316600160201b02640100000000600160c01b031996151563010000000263ff0000001992151562010000029290921663ffff0000199315156101000261ff00199715159790971661ffff19909516949094179590951791909116919091171792909216179055610efb8b878787878787611173565b6040518b907ff7eb02141ad38ebc5b61e51e5bb0e913cea227b9dfc94ea034fb39a9f5fe809f90600090a25050505050505050505050565b6000546001600160a01b03163314610f5d5760405162461bcd60e51b81526004016106c190613470565b610f676000611f4c565b565b60096020528160005260406000208181548110610b7957600080fd5b6000546001600160a01b03163314610faf5760405162461bcd60e51b81526004016106c190613470565b60008111610ff05760405162461bcd60e51b815260206004820152600e60248201526d125b9d985b1a59081d185c99d95d60921b60448201526064016106c1565b60038190556040518181527f145cc1d669b07469e4051f322247be4857ec7e59ae7dcd6e88057c181424d85890602001610757565b600b6020528160005260406000208181548110610b7957600080fd5b6000806000600260009054906101000a90046001600160a01b03166001600160a01b0316630902f1ac6040518163ffffffff1660e01b8152600401606060405180830381865afa158015611099573d6000803e3d6000fd5b505050506040513d601f19601f820116820180604052508101906110bd919061370c565b506001600160701b031691506001600160701b03169150600081116110e35760016110e5565b805b600354909150816110fe84670de0b6b3a764000061354a565b611108919061375c565b109250505090565b60008181526008602081905260409091209081015460ff166111665760405162461bcd60e51b815260206004820152600f60248201526e139bdd081a5b9a5d1a585b1a5e9959608a1b60448201526064016106c1565b61116f81611f9c565b5050565b6000546001600160a01b0316331461119d5760405162461bcd60e51b81526004016106c190613470565b60008781526009602052604090206111b69087876130bd565b506000878152600a602052604090206111d09085856130bd565b506000878152600b602052604090206111ea9083836130bd565b5050505050505050565b6111fc613110565b61120461312e565b60008381526008602052604090819020815160608101928390529160039082845b8154815260200190600101908083116112255750505060008681526008602052604090819020815160a081019283905294965060030192506005915082845b8154815260200190600101908083116112645750505050509050915091565b6000546001600160a01b031633146112ad5760405162461bcd60e51b81526004016106c190613470565b6001600160a01b0381166112ed5760405162461bcd60e51b81526020600482015260076024820152664e6f205a65726f60c81b60448201526064016106c1565b600654604080516001600160a01b03808516825290921660208301527f4088a686f46439872254e52412588879189d5d7ad58511047a6f308714e0a0fc910160405180910390a1600680546001600160a01b0319166001600160a01b0392909216919091179055565b6000546001600160a01b031633146113805760405162461bcd60e51b81526004016106c190613470565b6001600160a01b0381166113e55760405162461bcd60e51b815260206004820152602660248201527f4f776e61626c653a206e6577206f776e657220697320746865207a65726f206160448201526564647265737360d01b60648201526084016106c1565b6113ee81611f4c565b50565b6000546001600160a01b0316331461141b5760405162461bcd60e51b81526004016106c190613470565b6001600160a01b03811661145b5760405162461bcd60e51b81526020600482015260076024820152664e6f207a65726f60c81b60448201526064016106c1565b600180546001600160a01b0319166001600160a01b0383169081179091556040519081527f2df9d602927cbee25f5ac348817e8312326c22c45d0afe91f8c3b5eb4fd6750890602001610757565b604080516001600160a01b0385811660248301528416604482015260648082018490528251808303909101815260849091019091526020810180516001600160e01b03166323b872dd60e01b179052611503908590612489565b50505050565b600082815260086020908152604080832060015482516315ab88c960e31b8152925191936001600160a01b039091169263ad5c464892600480830193928290030181865afa15801561155f573d6000803e3d6000fd5b505050506040513d601f19601f82011682018060405250810190611583919061377e565b6001600160a01b0316600960008681526020019081526020016000206000815481106115b1576115b16136df565b6000918252602090912001546001600160a01b031614806116895750600160009054906101000a90046001600160a01b03166001600160a01b031663ad5c46486040518163ffffffff1660e01b8152600401602060405180830381865afa158015611620573d6000803e3d6000fd5b505050506040513d601f19601f82011682018060405250810190611644919061377e565b6001600160a01b031660096000868152602001908152602001600020600181548110611672576116726136df565b6000918252602090912001546001600160a01b0316145b156119c95760006060600061169d87612560565b60088701549295509093509150610100900460ff161561174357600884015460405163af2979eb60e01b8152600160201b9091046001600160a01b03169063af2979eb906116fa9086908a9060009081903090429060040161379b565b6020604051808303816000875af1158015611719573d6000803e3d6000fd5b505050506040513d601f19601f8201168201806040525081019061173d919061351b565b506117ca565b6008840154604051629d473b60e21b8152600160201b9091046001600160a01b0316906302751cec906117859086908a9060009081903090429060040161379b565b60408051808303816000875af11580156117a3573d6000803e3d6000fd5b505050506040513d601f19601f820116820180604052508101906117c791906137d6565b50505b6040516370a0823160e01b81523060048201526000906001600160a01b038516906370a0823190602401602060405180830381865afa158015611811573d6000803e3d6000fd5b505050506040513d601f19601f82011682018060405250810190611835919061351b565b600886015460405163095ea7b360e01b81526001600160a01b03600160201b909204821660048201526024810183905291925085169063095ea7b3906044016020604051808303816000875af1158015611893573d6000803e3d6000fd5b505050506040513d601f19601f820116820180604052508101906118b79190613569565b50811561193657600885015460405163791ac94760e01b8152600160201b9091046001600160a01b03169063791ac947906118ff908490600090889030904290600401613833565b600060405180830381600087803b15801561191957600080fd5b505af115801561192d573d6000803e3d6000fd5b505050506119c0565b60088501546040516318cbafe560e01b8152600160201b9091046001600160a01b0316906318cbafe590611977908490600090889030904290600401613833565b6000604051808303816000875af1158015611996573d6000803e3d6000fd5b505050506040513d6000823e601f3d908101601f191682016040526119be9190810190613621565b505b50505050611ec7565b60088101546000858152600960205260408120805491928392600160201b9091046001600160a01b03169163baa2abde918490611a0857611a086136df565b60009182526020808320909101548a83526009909152604090912080546001600160a01b03909216916001908110611a4257611a426136df565b600091825260208220015460405160e085901b6001600160e01b03191681526001600160a01b03938416600482015292166024830152604482018990526064820181905260848201523060a48201524260c482015260e40160408051808303816000875af1158015611ab8573d6000803e3d6000fd5b505050506040513d601f19601f82011682018060405250810190611adc91906137d6565b600088815260096020526040812080549395509193509091611b0057611b006136df565b60009182526020909120015460088401546001600160a01b039182169163095ea7b391600160201b900416611b3685600261354a565b6040516001600160e01b031960e085901b1681526001600160a01b03909216600483015260248201526044016020604051808303816000875af1158015611b81573d6000803e3d6000fd5b505050506040513d601f19601f82011682018060405250810190611ba59190613569565b50600086815260096020526040902080546001908110611bc757611bc76136df565b60009182526020909120015460088401546001600160a01b039182169163095ea7b391600160201b900416611bfd84600261354a565b6040516001600160e01b031960e085901b1681526001600160a01b03909216600483015260248201526044016020604051808303816000875af1158015611c48573d6000803e3d6000fd5b505050506040513d601f19601f82011682018060405250810190611c6c9190613569565b50600883015462010000900460ff1615611d015760088301546000878152600a6020526040808220905163791ac94760e01b8152600160201b9093046001600160a01b03169263791ac94792611cca928792309042906004016135cf565b600060405180830381600087803b158015611ce457600080fd5b505af1158015611cf8573d6000803e3d6000fd5b50505050611d94565b60088301546000878152600a602052604080822090516318cbafe560e01b8152600160201b9093046001600160a01b0316926318cbafe592611d4b928792309042906004016135cf565b6000604051808303816000875af1158015611d6a573d6000803e3d6000fd5b505050506040513d6000823e601f3d908101601f19168201604052611d929190810190613621565b505b60088301546301000000900460ff1615611e295760088301546000878152600b6020526040808220905163791ac94760e01b8152600160201b9093046001600160a01b03169263791ac94792611df2928692309042906004016135cf565b600060405180830381600087803b158015611e0c57600080fd5b505af1158015611e20573d6000803e3d6000fd5b50505050611ebc565b60088301546000878152600b602052604080822090516318cbafe560e01b8152600160201b9093046001600160a01b0316926318cbafe592611e73928692309042906004016135cf565b6000604051808303816000875af1158015611e92573d6000803e3d6000fd5b505050506040513d6000823e601f3d908101601f19168201604052611eba9190810190613621565b505b479350505050611ec9565b505b92915050565b6000805b60058160ff161015611ec757828160ff1660058110611ef457611ef46136df565b602002013582611f049190613852565b915060038160ff161015611f3a57838160ff1660038110611f2757611f276136df565b602002013582611f379190613852565b91505b80611f448161386a565b915050611ed3565b600080546001600160a01b038381166001600160a01b0319831681178455604051919092169283917f8be0079c531659141344cd1fd0a4f28419497f9722a3daafe3b4186f6b6457e09190a35050565b60008060008060008060008060005b60058160ff1610156120d157896003018160ff1660058110611fcf57611fcf6136df565b0154611fdb9088613852565b965060038160ff16106120135760028a6003018260ff1660058110612002576120026136df565b015461200e919061375c565b61202e565b896003018160ff166005811061202b5761202b6136df565b01545b612038908a613852565b985060038160ff1610156120bf578960ff82166003811061205b5761205b6136df565b01546120679087613852565b955060ff81161561209a5760028a60ff831660038110612089576120896136df565b0154612095919061375c565b6120b2565b8960ff8216600381106120af576120af6136df565b01545b6120bc9089613852565b97505b806120c98161386a565b915050611fab565b50600154604080516315ab88c960e31b815290516060926001600160a01b03169163ad5c46489160048083019260209291908290030181865afa15801561211c573d6000803e3d6000fd5b505050506040513d601f19601f82011682018060405250810190612140919061377e565b81600081518110612153576121536136df565b60200260200101906001600160a01b031690816001600160a01b0316815250507f0000000000000000000000000000000000000000000000000000000000000000816001815181106121a7576121a76136df565b6001600160a01b039092166020928302919091019091015286156122af576127106121d2884761354a565b6121dc919061375c565b9450866121e98a8761354a565b6121f3919061375c565b600154604051637ff36ab560e01b81529194506001600160a01b031690637ff36ab590859061222d9060009086903090429060040161388a565b60006040518083038185885af115801561224b573d6000803e3d6000fd5b50505050506040513d6000823e601f3d908101601f191682016040526122749190810190613621565b5061227f83866138bf565b94506122af7f00000000000000000000000000000000000000000000000000000000000000008b8960008961278c565b85156123e1576127106122c2874761354a565b6122cc919061375c565b9350856122d9898661354a565b6122e3919061375c565b91506122ef82856138bf565b93507f000000000000000000000000000000000000000000000000000000000000000081600181518110612325576123256136df565b6001600160a01b039283166020918202929092010152600154604051637ff36ab560e01b8152911690637ff36ab590849061236b9060009086903090429060040161388a565b60006040518083038185885af1158015612389573d6000803e3d6000fd5b50505050506040513d6000823e601f3d908101601f191682016040526123b29190810190613621565b506123e17f00000000000000000000000000000000000000000000000000000000000000008b8860018861278c565b47801561247c576004546040516000916001600160a01b03169083908381818185875af1925050503d8060008114612435576040519150601f19603f3d011682016040523d82523d6000602084013e61243a565b606091505b5050604080518215158152602081018590529192507f7526d8edf9d8774140eac835a1cec043d347db7c1c24c83a3449977a0c61ca5b910160405180910390a1505b5050505050505050505050565b60006124de826040518060400160405280602081526020017f5361666545524332303a206c6f772d6c6576656c2063616c6c206661696c6564815250856001600160a01b0316612e999092919063ffffffff16565b80519091501561255b57808060200190518101906124fc9190613569565b61255b5760405162461bcd60e51b815260206004820152602a60248201527f5361666545524332303a204552433230206f7065726174696f6e20646964206e6044820152691bdd081cdd58d8d9595960b21b60648201526084016106c1565b505050565b600060606000600160009054906101000a90046001600160a01b03166001600160a01b031663ad5c46486040518163ffffffff1660e01b8152600401602060405180830381865afa1580156125b9573d6000803e3d6000fd5b505050506040513d601f19601f820116820180604052508101906125dd919061377e565b6001600160a01b03166009600086815260200190815260200160002060008154811061260b5761260b6136df565b6000918252602090912001546001600160a01b0316146126e95760008481526009602052604081208054909190612644576126446136df565b6000918252602080832090910154868352600a825260409283902080548451818502810185019095528085526001600160a01b039092169650918301828280156126b757602002820191906000526020600020905b81546001600160a01b03168152600190910190602001808311612699575b505050505091506008600085815260200190815260200160002060080160029054906101000a900460ff169050612785565b60008481526009602052604090208054600190811061270a5761270a6136df565b6000918252602080832090910154868352600b825260409283902080548451818502810185019095528085526001600160a01b0390921696509183018282801561277d57602002820191906000526020600020905b81546001600160a01b0316815260019091019060200180831161275f575b505050505091505b9193909250565b6040516370a0823160e01b815230600482015285906000906001600160a01b038316906370a0823190602401602060405180830381865afa1580156127d5573d6000803e3d6000fd5b505050506040513d601f19601f820116820180604052508101906127f9919061351b565b905060008461280c57600387015461280f565b86545b905060008661281e838561354a565b612828919061375c565b9050801561288b57604051630852cd8d60e31b8152600481018290526001600160a01b038516906342966c6890602401600060405180830381600087803b15801561287257600080fd5b505af1158015612886573d6000803e3d6000fd5b505050505b8561289a57600488015461289d565b60005b9150866128aa838561354a565b6128b4919061375c565b905080156129e2576001600160a01b03841663095ea7b37f00000000000000000000000000000000000000000000000000000000000000006128f784600261354a565b6040516001600160e01b031960e085901b1681526001600160a01b03909216600483015260248201526044016020604051808303816000875af1158015612942573d6000803e3d6000fd5b505050506040513d601f19601f820116820180604052508101906129669190613569565b50604051636172858b60e11b8152600481018290527f00000000000000000000000000000000000000000000000000000000000000006001600160a01b03169063c2e50b1690602401600060405180830381600087803b1580156129c957600080fd5b505af11580156129dd573d6000803e3d6000fd5b505050505b856129f15760058801546129f4565b60005b915086612a01838561354a565b612a0b919061375c565b90508015612b03576006546001600160a01b038086169163095ea7b39116612a3484600261354a565b6040516001600160e01b031960e085901b1681526001600160a01b03909216600483015260248201526044016020604051808303816000875af1158015612a7f573d6000803e3d6000fd5b505050506040513d601f19601f82011682018060405250810190612aa39190613569565b50600654604051631c5fc48360e01b8152600481018390526001600160a01b0390911690631c5fc48390602401600060405180830381600087803b158015612aea57600080fd5b505af1158015612afe573d6000803e3d6000fd5b505050505b6040516370a0823160e01b81523060048201526001600160a01b038516906370a0823190602401602060405180830381865afa158015612b47573d6000803e3d6000fd5b505050506040513d601f19601f82011682018060405250810190612b6b919061351b565b92508515612b8857612b808860038101612eb2565b509650612b99565b612b958860038101612eb2565b9750505b86612ba75750505050612e92565b85612bb6576006880154612bbc565b87600101545b915086612bc9838561354a565b612bd3919061375c565b9050600087612be2848861354a565b612bec919061375c565b90508115612d29576001546001600160a01b038087169163095ea7b39116612c1585600261354a565b6040516001600160e01b031960e085901b1681526001600160a01b03909216600483015260248201526044016020604051808303816000875af1158015612c60573d6000803e3d6000fd5b505050506040513d601f19601f82011682018060405250810190612c849190613569565b5060015460405163f305d71960e01b81526001600160a01b039091169063f305d719908390612ce2908990879060009081907f000000000000000000000000000000000000000000000000000000000000000090429060040161379b565b60606040518083038185885af1158015612d00573d6000803e3d6000fd5b50505050506040513d601f19601f82011682018060405250810190612d2591906138d6565b5050505b86612d38576007890154612d3e565b88600201545b925087612d4b848661354a565b612d55919061375c565b915087612d62848861354a565b612d6c919061375c565b90508115612e8c576001546001600160a01b038087169163095ea7b39116612d9585600261354a565b6040516001600160e01b031960e085901b1681526001600160a01b03909216600483015260248201526044016020604051808303816000875af1158015612de0573d6000803e3d6000fd5b505050506040513d601f19601f82011682018060405250810190612e049190613569565b5060015460055460405163f305d71960e01b81526001600160a01b039283169263f305d719928592612e45928b92899260009283921690429060040161379b565b60606040518083038185885af1158015612e63573d6000803e3d6000fd5b50505050506040513d601f19601f82011682018060405250810190612e8891906138d6565b5050505b50505050505b5050505050565b6060612ea88484600085612ee8565b90505b9392505050565b60008083600201548460010154612ec99190613852565b915082600401548360030154612edf9190613852565b90509250929050565b606082471015612f495760405162461bcd60e51b815260206004820152602660248201527f416464726573733a20696e73756666696369656e742062616c616e636520666f6044820152651c8818d85b1b60d21b60648201526084016106c1565b6001600160a01b0385163b612fa05760405162461bcd60e51b815260206004820152601d60248201527f416464726573733a2063616c6c20746f206e6f6e2d636f6e747261637400000060448201526064016106c1565b600080866001600160a01b03168587604051612fbc9190613930565b60006040518083038185875af1925050503d8060008114612ff9576040519150601f19603f3d011682016040523d82523d6000602084013e612ffe565b606091505b509150915061300e828286613019565b979650505050505050565b60608315613028575081612eab565b8251156130385782518084602001fd5b8160405162461bcd60e51b81526004016106c1919061394c565b8260038101928215613080579160200282015b82811115613080578251825591602001919060010190613065565b5061308c92915061314c565b5090565b82600581019282156130805791602002820182811115613080578251825591602001919060010190613065565b828054828255906000526020600020908101928215613080579160200282015b828111156130805781546001600160a01b0319166001600160a01b038435161782556020909201916001909101906130dd565b60405180606001604052806003906020820280368337509192915050565b6040518060a001604052806005906020820280368337509192915050565b5b8082111561308c576000815560010161314d565b6001600160a01b03811681146113ee57600080fd5b60006020828403121561318857600080fd5b8135612eab81613161565b6000602082840312156131a557600080fd5b5035919050565b600080604083850312156131bf57600080fd5b50508035926020909101359150565b80151581146113ee57600080fd5b6000602082840312156131ee57600080fd5b8135612eab816131ce565b8060608101831015611ec957600080fd5b8060a08101831015611ec957600080fd5b803561322681613161565b919050565b60008083601f84011261323d57600080fd5b50813567ffffffffffffffff81111561325557600080fd5b6020830191508360208260051b850101111561327057600080fd5b9250929050565b60008060008060008060008060008060006102008c8e03121561329957600080fd5b8b359a506132aa8d60208e016131f9565b99506132b98d60808e0161320a565b98506132c98d6101208e016131f9565b97506132d86101808d0161321b565b965067ffffffffffffffff806101a08e013511156132f557600080fd5b6133068e6101a08f01358f0161322b565b90975095506101c08d013581101561331d57600080fd5b61332e8e6101c08f01358f0161322b565b90955093506101e08d013581101561334557600080fd5b506133578d6101e08e01358e0161322b565b81935080925050509295989b509295989b9093969950565b60008060008060008060006080888a03121561338a57600080fd5b87359650602088013567ffffffffffffffff808211156133a957600080fd5b6133b58b838c0161322b565b909850965060408a01359150808211156133ce57600080fd5b6133da8b838c0161322b565b909650945060608a01359150808211156133f357600080fd5b506134008a828b0161322b565b989b979a50959850939692959293505050565b6101008101818460005b600381101561343c57815183526020928301929091019060010161341d565b505050606082018360005b6005811015613466578151835260209283019290910190600101613447565b5050509392505050565b6020808252818101527f4f776e61626c653a2063616c6c6572206973206e6f7420746865206f776e6572604082015260600190565b600080600080600080600060e0888a0312156134c057600080fd5b87516134cb816131ce565b80975050602088015195506040880151945060608801516134eb81613161565b809450506080880151925060a0880151915060c088015161350b816131ce565b8091505092959891949750929550565b60006020828403121561352d57600080fd5b5051919050565b634e487b7160e01b600052601160045260246000fd5b600081600019048311821515161561356457613564613534565b500290565b60006020828403121561357b57600080fd5b8151612eab816131ce565b6000815480845260208085019450836000528060002060005b838110156135c45781546001600160a01b03168752958201956001918201910161359f565b509495945050505050565b85815284602082015260a0604082015260006135ee60a0830186613586565b6001600160a01b0394909416606083015250608001529392505050565b634e487b7160e01b600052604160045260246000fd5b6000602080838503121561363457600080fd5b825167ffffffffffffffff8082111561364c57600080fd5b818501915085601f83011261366057600080fd5b8151818111156136725761367261360b565b8060051b604051601f19603f830116810181811085821117156136975761369761360b565b6040529182528482019250838101850191888311156136b557600080fd5b938501935b828510156136d3578451845293850193928501926136ba565b98975050505050505050565b634e487b7160e01b600052603260045260246000fd5b80516001600160701b038116811461322657600080fd5b60008060006060848603121561372157600080fd5b61372a846136f5565b9250613738602085016136f5565b9150604084015163ffffffff8116811461375157600080fd5b809150509250925092565b60008261377957634e487b7160e01b600052601260045260246000fd5b500490565b60006020828403121561379057600080fd5b8151612eab81613161565b6001600160a01b039687168152602081019590955260408501939093526060840191909152909216608082015260a081019190915260c00190565b600080604083850312156137e957600080fd5b505080516020909101519092909150565b600081518084526020808501945080840160005b838110156135c45781516001600160a01b03168752958201959082019060010161380e565b85815284602082015260a0604082015260006135ee60a08301866137fa565b6000821982111561386557613865613534565b500190565b600060ff821660ff81141561388157613881613534565b60010192915050565b8481526080602082015260006138a360808301866137fa565b6001600160a01b03949094166040830152506060015292915050565b6000828210156138d1576138d1613534565b500390565b6000806000606084860312156138eb57600080fd5b8351925060208401519150604084015190509250925092565b60005b8381101561391f578181015183820152602001613907565b838111156115035750506000910152565b60008251613942818460208701613904565b9190910192915050565b602081526000825180602084015261396b816040850160208701613904565b601f01601f1916919091016040019291505056fea2646970667358221220470f9c3c5ab1cbc0c6b45f136fa98ce0c50263d1942426183931c4802ab6154b64736f6c634300080c0033","bytecodeSha1":"74720dbe2935027fd04c589272af9b7e8feaa5dc","type":"contract","abi":[{"inputs":[{"internalType":"address","name":"_chef","type":"address"},{"internalType":"uint256","name":"_idoPrice","type":"uint256"},{"internalType":"address","name":"_nicePair","type":"address"},{"internalType":"address","name":"_bankroll","type":"address"},{"internalType":"address","name":"_lottery","type":"address"},{"internalType":"address","name":"_lock","type":"address"},{"internalType":"address","name":"_nice","type":"address"},{"internalType":"address","name":"_crush","type":"address"}],"stateMutability":"nonpayable","type":"constructor","name":"constructor"},{"anonymous":false,"inputs":[{"indexed":true,"internalType":"uint256","name":"_pid","type":"uint256"}],"name":"AddPoolFee","type":"event"},{"anonymous":false,"inputs":[{"indexed":true,"internalType":"uint256","name":"_pid","type":"uint256"},{"indexed":false,"internalType":"uint256","name":"bb","type":"uint256"},{"indexed":false,"internalType":"uint256","name":"liq","type":"uint256"},{"indexed":false,"internalType":"uint256","name":"team","type":"uint256"}],"name":"EditFee","type":"event"},{"anonymous":false,"inputs":[{"indexed":false,"internalType":"uint256","name":"amount","type":"uint256"},{"indexed":false,"internalType":"address","name":"_token","type":"address"}],"name":"FundsDistributed","type":"event"},{"anonymous":false,"inputs":[{"indexed":true,"internalType":"address","name":"previousOwner","type":"address"},{"indexed":true,"internalType":"address","name":"newOwner","type":"address"}],"name":"OwnershipTransferred","type":"event"},{"anonymous":false,"inputs":[{"indexed":false,"internalType":"bool","name":"_isOn","type":"bool"}],"name":"SeachForTarget","type":"event"},{"anonymous":false,"inputs":[{"indexed":false,"internalType":"bool","name":"_success","type":"bool"},{"indexed":false,"internalType":"uint256","name":"amount","type":"uint256"}],"name":"TeamFundsDistributed","type":"event"},{"anonymous":false,"inputs":[{"indexed":false,"internalType":"address","name":"_newLotteery","type":"address"},{"indexed":false,"internalType":"address","name":"_oldLottery","type":"address"}],"name":"UpdateLotteryAddress","type":"event"},{"anonymous":false,"inputs":[{"indexed":false,"internalType":"address","name":"_router","type":"address"}],"name":"UpdateMainRouter","type":"event"},{"anonymous":false,"inputs":[{"indexed":true,"internalType":"uint256","name":"_pid","type":"uint256"},{"indexed":false,"internalType":"address","name":"router","type":"address"}],"name":"UpdatePath","type":"event"},{"anonymous":false,"inputs":[{"indexed":true,"internalType":"uint256","name":"_pid","type":"uint256"},{"indexed":false,"internalType":"address","name":"router","type":"address"}],"name":"UpdateRouter","type":"event"},{"anonymous":false,"inputs":[{"indexed":false,"internalType":"uint256","name":"_target","type":"uint256"}],"name":"UpdateTargetPrice","type":"event"},{"anonymous":false,"inputs":[{"indexed":false,"internalType":"address","name":"_teamW","type":"address"}],"name":"UpdateTeamWallet","type":"event"},{"stateMutability":"payable","type":"fallback"},{"inputs":[],"name":"CRUSH","outputs":[{"internalType":"address","name":"","type":"address"}],"stateMutability":"view","type":"function"},{"inputs":[],"name":"DIVISOR","outputs":[{"internalType":"uint256","name":"","type":"uint256"}],"stateMutability":"view","type":"function"},{"inputs":[],"name":"NICE","outputs":[{"internalType":"address","name":"","type":"address"}],"stateMutability":"view","type":"function"},{"inputs":[{"internalType":"uint256","name":"_pid","type":"uint256"},{"internalType":"uint256[3]","name":"_niceFees","type":"uint256[3]"},{"internalType":"uint256[5]","name":"_crushFees","type":"uint256[5]"},{"internalType":"bool[3]","name":"hasFees","type":"bool[3]"},{"internalType":"address","name":"router","type":"address"},{"internalType":"address[]","name":"_tokens","type":"address[]"},{"internalType":"address[]","name":"_token0Path","type":"address[]"},{"internalType":"address[]","name":"_token1Path","type":"address[]"}],"name":"addorEditFee","outputs":[],"stateMutability":"nonpayable","type":"function"},{"inputs":[],"name":"bankroll","outputs":[{"internalType":"contract IBitcrushBankroll","name":"","type":"address"}],"stateMutability":"view","type":"function"},{"inputs":[],"name":"checkPrice","outputs":[{"internalType":"bool","name":"_belowIDO","type":"bool"}],"stateMutability":"view","type":"function"},{"inputs":[],"name":"chef","outputs":[{"internalType":"contract GalacticChef","name":"","type":"address"}],"stateMutability":"view","type":"function"},{"inputs":[],"name":"deadWallet","outputs":[{"internalType":"address","name":"","type":"address"}],"stateMutability":"view","type":"function"},{"inputs":[{"internalType":"uint256","name":"_pid","type":"uint256"}],"name":"distribute","outputs":[],"stateMutability":"nonpayable","type":"function"},{"inputs":[{"internalType":"bool","name":"_enable","type":"bool"}],"name":"enableTargetSearch","outputs":[],"stateMutability":"nonpayable","type":"function"},{"inputs":[{"internalType":"uint256","name":"","type":"uint256"}],"name":"feeData","outputs":[{"internalType":"bool","name":"initialized","type":"bool"},{"internalType":"bool","name":"hasFees","type":"bool"},{"internalType":"bool","name":"token0Fees","type":"bool"},{"internalType":"bool","name":"token1Fees","type":"bool"},{"internalType":"contract IPancakeRouter","name":"router","type":"address"}],"stateMutability":"view","type":"function"},{"inputs":[{"internalType":"uint256","name":"_pid","type":"uint256"}],"name":"getFees","outputs":[{"internalType":"uint256[3]","name":"_niceFees","type":"uint256[3]"},{"internalType":"uint256[5]","name":"_crushFees","type":"uint256[5]"}],"stateMutability":"view","type":"function"},{"inputs":[],"name":"idoPrice","outputs":[{"internalType":"uint256","name":"","type":"uint256"}],"stateMutability":"view","type":"function"},{"inputs":[],"name":"lock","outputs":[{"internalType":"address","name":"","type":"address"}],"stateMutability":"view","type":"function"},{"inputs":[],"name":"lottery","outputs":[{"internalType":"contract IBitcrushLottery","name":"","type":"address"}],"stateMutability":"view","type":"function"},{"inputs":[],"name":"niceLiquidity","outputs":[{"internalType":"address","name":"","type":"address"}],"stateMutability":"view","type":"function"},{"inputs":[],"name":"owner","outputs":[{"internalType":"address","name":"","type":"address"}],"stateMutability":"view","type":"function"},{"inputs":[],"name":"reachForIdo","outputs":[{"internalType":"bool","name":"","type":"bool"}],"stateMutability":"view","type":"function"},{"inputs":[{"internalType":"uint256","name":"_pid","type":"uint256"},{"internalType":"uint256","name":"_amount","type":"uint256"}],"name":"receiveFees","outputs":[],"stateMutability":"nonpayable","type":"function"},{"inputs":[],"name":"renounceOwnership","outputs":[],"stateMutability":"nonpayable","type":"function"},{"inputs":[{"internalType":"address","name":"_newRouter","type":"address"}],"name":"setBaseRouter","outputs":[],"stateMutability":"nonpayable","type":"function"},{"inputs":[{"internalType":"address payable","name":"_newTeamW","type":"address"}],"name":"setTeamWallet","outputs":[],"stateMutability":"nonpayable","type":"function"},{"inputs":[],"name":"teamWallet","outputs":[{"internalType":"address","name":"","type":"address"}],"stateMutability":"view","type":"function"},{"inputs":[{"internalType":"uint256","name":"","type":"uint256"},{"internalType":"uint256","name":"","type":"uint256"}],"name":"token0Path","outputs":[{"internalType":"address","name":"","type":"address"}],"stateMutability":"view","type":"function"},{"inputs":[{"internalType":"uint256","name":"","type":"uint256"},{"internalType":"uint256","name":"","type":"uint256"}],"name":"token1Path","outputs":[{"internalType":"address","name":"","type":"address"}],"stateMutability":"view","type":"function"},{"inputs":[{"internalType":"uint256","name":"","type":"uint256"},{"internalType":"uint256","name":"","type":"uint256"}],"name":"tokenPath","outputs":[{"internalType":"address","name":"","type":"address"}],"stateMutability":"view","type":"function"},{"inputs":[],"name":"tokenRouter","outputs":[{"internalType":"contract IPancakeRouter","name":"","type":"address"}],"stateMutability":"view","type":"function"},{"inputs":[{"internalType":"address","name":"newOwner","type":"address"}],"name":"transferOwnership","outputs":[],"stateMutability":"nonpayable","type":"function"},{"inputs":[{"internalType":"uint256","name":"_price","type":"uint256"}],"name":"updateIdoTarget","outputs":[],"stateMutability":"nonpayable","type":"function"},{"inputs":[{"internalType":"address","name":"_nLottery","type":"address"}],"name":"updateLottery","outputs":[],"stateMutability":"nonpayable","type":"function"},{"inputs":[{"internalType":"uint256","name":"id","type":"uint256"},{"internalType":"address[]","name":"_path","type":"address[]"},{"internalType":"address[]","name":"_path1","type":"address[]"},{"internalType":"address[]","name":"_path2","type":"address[]"}],"name":"updatePaths","outputs":[],"stateMutability":"nonpayable","type":"function"},{"stateMutability":"payable","type":"receive"}],"compiler":{"version":"0.8.12+commit.f00d7308","evm_version":"istanbul","optimizer":{"enabled":true,"runs":200}},"contractName":"FeeDistributorV2","language":"Solidity","natspec":{"methods":{"checkPrice()":{"notice":"Check that current Nice Price is above IDO","details":"get IDO price for NICE"},"owner()":{"details":"Returns the address of the current owner."},"receiveFees(uint256,uint256)":{"notice":"Function that distributes fees to the respective flows","details":"This function requires funds to be sent beforehand to this contract"},"renounceOwnership()":{"details":"Leaves the contract without owner. It will not be possible to call `onlyOwner` functions anymore. Can only be called by the current owner. NOTE: Renouncing ownership will leave the contract without an owner, thereby removing any functionality that is only available to the owner."},"setBaseRouter(address)":{"notice":"Update the main router used to spread liquidity","details":"Requires the router to exist","params":{"_newRouter":"address of the router to migrate to"}},"setTeamWallet(address)":{"notice":"Update the Marketing Wallet","details":"requires address to be payable since it'll receive BNB(ETH) directly","params":{"_newTeamW":"address to send funds to"}},"transferOwnership(address)":{"details":"Transfers ownership of the contract to a new account (`newOwner`). Can only be called by the current owner."},"updateIdoTarget(uint256)":{"notice":"Update the Target Price to compare to for NICE buy back and burn only.","params":{"_price":"new Target price to attempt to reach"}},"updatePaths(uint256,address[],address[],address[])":{"notice":"Update the paths used for a specific pool","params":{"_path":"path of the token, if LP, tokens that comprise it, else route to ETH","_path1":"if LP, token0 path to ETH, else empty;","_path2":"if LP, token1 path to ETH, else empty;","id":"the Pool ID"}},"enableTargetSearch(bool)":{"notice":"Toggle between enabling and disabling NICE target price Search"},"distribute(uint256)":{"notice":"external distribute. This is used for testing"}},"kind":"dev","version":1,"details":"use interface IFeeDistributor"},"opcodes":"PUSH1 0x80 PUSH1 0x40 MSTORE PUSH1 0x4 CALLDATASIZE LT PUSH2 0x1C4 JUMPI PUSH1 0x0 CALLDATALOAD PUSH1 0xE0 SHR DUP1 PUSH4 0x7A254A41 GT PUSH2 0xF6 JUMPI DUP1 PUSH4 0xA562BDBA GT PUSH2 0x8F JUMPI DUP1 PUSH4 0xD85539C6 GT PUSH2 0x61 JUMPI DUP1 PUSH4 0xD85539C6 EQ PUSH2 0x617 JUMPI DUP1 PUSH4 0xF2FDE38B EQ PUSH2 0x637 JUMPI DUP1 PUSH4 0xF83D08BA EQ PUSH2 0x657 JUMPI DUP1 PUSH4 0xF8B70F03 EQ PUSH2 0x677 JUMPI STOP JUMPDEST DUP1 PUSH4 0xA562BDBA EQ PUSH2 0x593 JUMPI DUP1 PUSH4 0xBA13A572 EQ PUSH2 0x5B3 JUMPI DUP1 PUSH4 0xCD80FE0D EQ PUSH2 0x5D3 JUMPI DUP1 PUSH4 0xD5A06D4C EQ PUSH2 0x5E9 JUMPI STOP JUMPDEST DUP1 PUSH4 0x8DA5CB5B GT PUSH2 0xC8 JUMPI DUP1 PUSH4 0x8DA5CB5B EQ PUSH2 0x520 JUMPI DUP1 PUSH4 0x8FC3047D EQ PUSH2 0x53E JUMPI DUP1 PUSH4 0x91C05B0B EQ PUSH2 0x553 JUMPI DUP1 PUSH4 0x958BAC5F EQ PUSH2 0x573 JUMPI STOP JUMPDEST DUP1 PUSH4 0x7A254A41 EQ PUSH2 0x48C JUMPI DUP1 PUSH4 0x7CED15EF EQ PUSH2 0x4AC JUMPI DUP1 PUSH4 0x7D04FEFF EQ PUSH2 0x4CC JUMPI DUP1 PUSH4 0x85141A77 EQ PUSH2 0x4EC JUMPI STOP JUMPDEST DUP1 PUSH4 0x3843418D GT PUSH2 0x168 JUMPI DUP1 PUSH4 0x659F4BF9 GT PUSH2 0x13A JUMPI DUP1 PUSH4 0x659F4BF9 EQ PUSH2 0x417 JUMPI DUP1 PUSH4 0x67347C68 EQ PUSH2 0x437 JUMPI DUP1 PUSH4 0x6C7A8EE4 EQ PUSH2 0x457 JUMPI DUP1 PUSH4 0x715018A6 EQ PUSH2 0x477 JUMPI STOP JUMPDEST DUP1 PUSH4 0x3843418D EQ PUSH2 0x307 JUMPI DUP1 PUSH4 0x43F0A8E1 EQ PUSH2 0x3A3 JUMPI DUP1 PUSH4 0x4F348758 EQ PUSH2 0x3D7 JUMPI DUP1 PUSH4 0x59927044 EQ PUSH2 0x3F7 JUMPI STOP JUMPDEST DUP1 PUSH4 0x1525FF7D GT PUSH2 0x1A1 JUMPI DUP1 PUSH4 0x1525FF7D EQ PUSH2 0x26F JUMPI DUP1 PUSH4 0x1FC8BC5D EQ PUSH2 0x28F JUMPI DUP1 PUSH4 0x30926486 EQ PUSH2 0x2AF JUMPI DUP1 PUSH4 0x3410FE6E EQ PUSH2 0x2E3 JUMPI STOP JUMPDEST DUP1 PUSH4 0x75B42AB EQ PUSH2 0x1CD JUMPI DUP1 PUSH4 0xC657EB0 EQ PUSH2 0x20A JUMPI DUP1 PUSH4 0xFE344ED EQ PUSH2 0x23E JUMPI STOP JUMPDEST CALLDATASIZE PUSH2 0x1CB JUMPI STOP JUMPDEST STOP JUMPDEST CALLVALUE DUP1 ISZERO PUSH2 0x1D9 JUMPI PUSH1 0x0 DUP1 REVERT JUMPDEST POP PUSH1 0x2 SLOAD PUSH2 0x1ED SWAP1 PUSH1 0x1 PUSH1 0x1 PUSH1 0xA0 SHL SUB AND DUP2 JUMP JUMPDEST PUSH1 0x40 MLOAD PUSH1 0x1 PUSH1 0x1 PUSH1 0xA0 SHL SUB SWAP1 SWAP2 AND DUP2 MSTORE PUSH1 0x20 ADD JUMPDEST PUSH1 0x40 MLOAD DUP1 SWAP2 SUB SWAP1 RETURN JUMPDEST CALLVALUE DUP1 ISZERO PUSH2 0x216 JUMPI PUSH1 0x0 DUP1 REVERT JUMPDEST POP PUSH2 0x1ED PUSH32 0x0 DUP2 JUMP JUMPDEST CALLVALUE DUP1 ISZERO PUSH2 0x24A JUMPI PUSH1 0x0 DUP1 REVERT JUMPDEST POP PUSH1 0x6 SLOAD PUSH2 0x25F SWAP1 PUSH1 0x1 PUSH1 0xA0 SHL SWAP1 DIV PUSH1 0xFF AND DUP2 JUMP JUMPDEST PUSH1 0x40 MLOAD SWAP1 ISZERO ISZERO DUP2 MSTORE PUSH1 0x20 ADD PUSH2 0x201 JUMP JUMPDEST CALLVALUE DUP1 ISZERO PUSH2 0x27B JUMPI PUSH1 0x0 DUP1 REVERT JUMPDEST POP PUSH2 0x1CB PUSH2 0x28A CALLDATASIZE PUSH1 0x4 PUSH2 0x3176 JUMP JUMPDEST PUSH2 0x697 JUMP JUMPDEST CALLVALUE DUP1 ISZERO PUSH2 0x29B JUMPI PUSH1 0x0 DUP1 REVERT JUMPDEST POP PUSH1 0x7 SLOAD PUSH2 0x1ED SWAP1 PUSH1 0x1 PUSH1 0x1 PUSH1 0xA0 SHL SUB AND DUP2 JUMP JUMPDEST CALLVALUE DUP1 ISZERO PUSH2 0x2BB JUMPI PUSH1 0x0 DUP1 REVERT JUMPDEST POP PUSH2 0x1ED PUSH32 0x0 DUP2 JUMP JUMPDEST CALLVALUE DUP1 ISZERO PUSH2 0x2EF JUMPI PUSH1 0x0 DUP1 REVERT JUMPDEST POP PUSH2 0x2F9 PUSH2 0x2710 DUP2 JUMP JUMPDEST PUSH1 0x40 MLOAD SWAP1 DUP2 MSTORE PUSH1 0x20 ADD PUSH2 0x201 JUMP JUMPDEST CALLVALUE DUP1 ISZERO PUSH2 0x313 JUMPI PUSH1 0x0 DUP1 REVERT JUMPDEST POP PUSH2 0x36A PUSH2 0x322 CALLDATASIZE PUSH1 0x4 PUSH2 0x3193 JUMP JUMPDEST PUSH1 0x8 PUSH1 0x20 DUP2 SWAP1 MSTORE PUSH1 0x0 SWAP2 DUP3 MSTORE PUSH1 0x40 SWAP1 SWAP2 KECCAK256 ADD SLOAD PUSH1 0xFF DUP1 DUP3 AND SWAP2 PUSH2 0x100 DUP2 DIV DUP3 AND SWAP2 PUSH3 0x10000 DUP3 DIV DUP2 AND SWAP2 PUSH4 0x1000000 DUP2 DIV SWAP1 SWAP2 AND SWAP1 PUSH1 0x1 PUSH1 0x20 SHL SWAP1 DIV PUSH1 0x1 PUSH1 0x1 PUSH1 0xA0 SHL SUB AND DUP6 JUMP JUMPDEST PUSH1 0x40 DUP1 MLOAD SWAP6 ISZERO ISZERO DUP7 MSTORE SWAP4 ISZERO ISZERO PUSH1 0x20 DUP7 ADD MSTORE SWAP2 ISZERO ISZERO SWAP3 DUP5 ADD SWAP3 SWAP1 SWAP3 MSTORE SWAP1 ISZERO ISZERO PUSH1 0x60 DUP4 ADD MSTORE PUSH1 0x1 PUSH1 0x1 PUSH1 0xA0 SHL SUB AND PUSH1 0x80 DUP3 ADD MSTORE PUSH1 0xA0 ADD PUSH2 0x201 JUMP JUMPDEST CALLVALUE DUP1 ISZERO PUSH2 0x3AF JUMPI PUSH1 0x0 DUP1 REVERT JUMPDEST POP PUSH2 0x1ED PUSH32 0x0 DUP2 JUMP JUMPDEST CALLVALUE DUP1 ISZERO PUSH2 0x3E3 JUMPI PUSH1 0x0 DUP1 REVERT JUMPDEST POP PUSH2 0x1CB PUSH2 0x3F2 CALLDATASIZE PUSH1 0x4 PUSH2 0x31AC JUMP JUMPDEST PUSH2 0x762 JUMP JUMPDEST CALLVALUE DUP1 ISZERO PUSH2 0x403 JUMPI PUSH1 0x0 DUP1 REVERT JUMPDEST POP PUSH1 0x4 SLOAD PUSH2 0x1ED SWAP1 PUSH1 0x1 PUSH1 0x1 PUSH1 0xA0 SHL SUB AND DUP2 JUMP JUMPDEST CALLVALUE DUP1 ISZERO PUSH2 0x423 JUMPI PUSH1 0x0 DUP1 REVERT JUMPDEST POP PUSH2 0x1ED PUSH2 0x432 CALLDATASIZE PUSH1 0x4 PUSH2 0x31AC JUMP JUMPDEST PUSH2 0xB5D JUMP JUMPDEST CALLVALUE DUP1 ISZERO PUSH2 0x443 JUMPI PUSH1 0x0 DUP1 REVERT JUMPDEST POP PUSH2 0x1CB PUSH2 0x452 CALLDATASIZE PUSH1 0x4 PUSH2 0x31DC JUMP JUMPDEST PUSH2 0xB95 JUMP JUMPDEST CALLVALUE DUP1 ISZERO PUSH2 0x463 JUMPI PUSH1 0x0 DUP1 REVERT JUMPDEST POP PUSH2 0x1CB PUSH2 0x472 CALLDATASIZE PUSH1 0x4 PUSH2 0x3277 JUMP JUMPDEST PUSH2 0xC60 JUMP JUMPDEST CALLVALUE DUP1 ISZERO PUSH2 0x483 JUMPI PUSH1 0x0 DUP1 REVERT JUMPDEST POP PUSH2 0x1CB PUSH2 0xF33 JUMP JUMPDEST CALLVALUE DUP1 ISZERO PUSH2 0x498 JUMPI PUSH1 0x0 DUP1 REVERT JUMPDEST POP PUSH2 0x1ED PUSH2 0x4A7 CALLDATASIZE PUSH1 0x4 PUSH2 0x31AC JUMP JUMPDEST PUSH2 0xF69 JUMP JUMPDEST CALLVALUE DUP1 ISZERO PUSH2 0x4B8 JUMPI PUSH1 0x0 DUP1 REVERT JUMPDEST POP PUSH2 0x1CB PUSH2 0x4C7 CALLDATASIZE PUSH1 0x4 PUSH2 0x3193 JUMP JUMPDEST PUSH2 0xF85 JUMP JUMPDEST CALLVALUE DUP1 ISZERO PUSH2 0x4D8 JUMPI PUSH1 0x0 DUP1 REVERT JUMPDEST POP PUSH2 0x1ED PUSH2 0x4E7 CALLDATASIZE PUSH1 0x4 PUSH2 0x31AC JUMP JUMPDEST PUSH2 0x1025 JUMP JUMPDEST CALLVALUE DUP1 ISZERO PUSH2 0x4F8 JUMPI PUSH1 0x0 DUP1 REVERT JUMPDEST POP PUSH2 0x1ED PUSH32 0x0 DUP2 JUMP JUMPDEST CALLVALUE DUP1 ISZERO PUSH2 0x52C JUMPI PUSH1 0x0 DUP1 REVERT JUMPDEST POP PUSH1 0x0 SLOAD PUSH1 0x1 PUSH1 0x1 PUSH1 0xA0 SHL SUB AND PUSH2 0x1ED JUMP JUMPDEST CALLVALUE DUP1 ISZERO PUSH2 0x54A JUMPI PUSH1 0x0 DUP1 REVERT JUMPDEST POP PUSH2 0x25F PUSH2 0x1041 JUMP JUMPDEST CALLVALUE DUP1 ISZERO PUSH2 0x55F JUMPI PUSH1 0x0 DUP1 REVERT JUMPDEST POP PUSH2 0x1CB PUSH2 0x56E CALLDATASIZE PUSH1 0x4 PUSH2 0x3193 JUMP JUMPDEST PUSH2 0x1110 JUMP JUMPDEST CALLVALUE DUP1 ISZERO PUSH2 0x57F JUMPI PUSH1 0x0 DUP1 REVERT JUMPDEST POP PUSH2 0x1CB PUSH2 0x58E CALLDATASIZE PUSH1 0x4 PUSH2 0x336F JUMP JUMPDEST PUSH2 0x1173 JUMP JUMPDEST CALLVALUE DUP1 ISZERO PUSH2 0x59F JUMPI PUSH1 0x0 DUP1 REVERT JUMPDEST POP PUSH1 0x1 SLOAD PUSH2 0x1ED SWAP1 PUSH1 0x1 PUSH1 0x1 PUSH1 0xA0 SHL SUB AND DUP2 JUMP JUMPDEST CALLVALUE DUP1 ISZERO PUSH2 0x5BF JUMPI PUSH1 0x0 DUP1 REVERT JUMPDEST POP PUSH1 0x6 SLOAD PUSH2 0x1ED SWAP1 PUSH1 0x1 PUSH1 0x1 PUSH1 0xA0 SHL SUB AND DUP2 JUMP JUMPDEST CALLVALUE DUP1 ISZERO PUSH2 0x5DF JUMPI PUSH1 0x0 DUP1 REVERT JUMPDEST POP PUSH2 0x2F9 PUSH1 0x3 SLOAD DUP2 JUMP JUMPDEST CALLVALUE DUP1 ISZERO PUSH2 0x5F5 JUMPI PUSH1 0x0 DUP1 REVERT JUMPDEST POP PUSH2 0x609 PUSH2 0x604 CALLDATASIZE PUSH1 0x4 PUSH2 0x3193 JUMP JUMPDEST PUSH2 0x11F4 JUMP JUMPDEST PUSH1 0x40 MLOAD PUSH2 0x201 SWAP3 SWAP2 SWAP1 PUSH2 0x3413 JUMP JUMPDEST CALLVALUE DUP1 ISZERO PUSH2 0x623 JUMPI PUSH1 0x0 DUP1 REVERT JUMPDEST POP PUSH2 0x1CB PUSH2 0x632 CALLDATASIZE PUSH1 0x4 PUSH2 0x3176 JUMP JUMPDEST PUSH2 0x1283 JUMP JUMPDEST CALLVALUE DUP1 ISZERO PUSH2 0x643 JUMPI PUSH1 0x0 DUP1 REVERT JUMPDEST POP PUSH2 0x1CB PUSH2 0x652 CALLDATASIZE PUSH1 0x4 PUSH2 0x3176 JUMP JUMPDEST PUSH2 0x1356 JUMP JUMPDEST CALLVALUE DUP1 ISZERO PUSH2 0x663 JUMPI PUSH1 0x0 DUP1 REVERT JUMPDEST POP PUSH1 0x5 SLOAD PUSH2 0x1ED SWAP1 PUSH1 0x1 PUSH1 0x1 PUSH1 0xA0 SHL SUB AND DUP2 JUMP JUMPDEST CALLVALUE DUP1 ISZERO PUSH2 0x683 JUMPI PUSH1 0x0 DUP1 REVERT JUMPDEST POP PUSH2 0x1CB PUSH2 0x692 CALLDATASIZE PUSH1 0x4 PUSH2 0x3176 JUMP JUMPDEST PUSH2 0x13F1 JUMP JUMPDEST PUSH1 0x0 SLOAD PUSH1 0x1 PUSH1 0x1 PUSH1 0xA0 SHL SUB AND CALLER EQ PUSH2 0x6CA JUMPI PUSH1 0x40 MLOAD PUSH3 0x461BCD PUSH1 0xE5 SHL DUP2 MSTORE PUSH1 0x4 ADD PUSH2 0x6C1 SWAP1 PUSH2 0x3470 JUMP JUMPDEST PUSH1 0x40 MLOAD DUP1 SWAP2 SUB SWAP1 REVERT JUMPDEST PUSH1 0x1 PUSH1 0x1 PUSH1 0xA0 SHL SUB DUP2 AND PUSH2 0x70D JUMPI PUSH1 0x40 MLOAD PUSH3 0x461BCD PUSH1 0xE5 SHL DUP2 MSTORE PUSH1 0x20 PUSH1 0x4 DUP3 ADD MSTORE PUSH1 0xA PUSH1 0x24 DUP3 ADD MSTORE PUSH10 0x43616E7420706179203 PUSH1 0xB4 SHL PUSH1 0x44 DUP3 ADD MSTORE PUSH1 0x64 ADD PUSH2 0x6C1 JUMP JUMPDEST PUSH1 0x4 DUP1 SLOAD PUSH1 0x1 PUSH1 0x1 PUSH1 0xA0 SHL SUB NOT AND PUSH1 0x1 PUSH1 0x1 PUSH1 0xA0 SHL SUB DUP4 AND SWAP1 DUP2 OR SWAP1 SWAP2 SSTORE PUSH1 0x40 MLOAD SWAP1 DUP2 MSTORE PUSH32 0x88B8EDDA57AF64D7425B090E9E8D925C96D2CC1360AFDC15F0DA29752103E705 SWAP1 PUSH1 0x20 ADD JUMPDEST PUSH1 0x40 MLOAD DUP1 SWAP2 SUB SWAP1 LOG1 POP JUMP JUMPDEST PUSH1 0x7 SLOAD PUSH1 0x1 PUSH1 0x1 PUSH1 0xA0 SHL SUB AND CALLER EQ PUSH2 0x7A7 JUMPI PUSH1 0x40 MLOAD PUSH3 0x461BCD PUSH1 0xE5 SHL DUP2 MSTORE PUSH1 0x20 PUSH1 0x4 DUP3 ADD MSTORE PUSH1 0x8 PUSH1 0x24 DUP3 ADD MSTORE PUSH8 0x37B7363CA1B432B3 PUSH1 0xC1 SHL PUSH1 0x44 DUP3 ADD MSTORE PUSH1 0x64 ADD PUSH2 0x6C1 JUMP JUMPDEST PUSH1 0x0 DUP3 DUP2 MSTORE PUSH1 0x8 PUSH1 0x20 DUP2 SWAP1 MSTORE PUSH1 0x40 SWAP1 SWAP2 KECCAK256 SWAP1 DUP2 ADD SLOAD PUSH1 0xFF AND PUSH2 0x7F6 JUMPI PUSH1 0x40 MLOAD PUSH3 0x461BCD PUSH1 0xE5 SHL DUP2 MSTORE PUSH1 0x20 PUSH1 0x4 DUP3 ADD MSTORE PUSH1 0x8 PUSH1 0x24 DUP3 ADD MSTORE PUSH8 0x139BDD081A5B9A5D PUSH1 0xC2 SHL PUSH1 0x44 DUP3 ADD MSTORE PUSH1 0x64 ADD PUSH2 0x6C1 JUMP JUMPDEST PUSH1 0x7 SLOAD PUSH1 0x40 MLOAD PUSH4 0x1526FE27 PUSH1 0xE0 SHL DUP2 MSTORE PUSH1 0x4 DUP2 ADD DUP6 SWAP1 MSTORE PUSH1 0x0 SWAP2 DUP3 SWAP2 PUSH1 0x1 PUSH1 0x1 PUSH1 0xA0 SHL SUB SWAP1 SWAP2 AND SWAP1 PUSH4 0x1526FE27 SWAP1 PUSH1 0x24 ADD PUSH1 0xE0 PUSH1 0x40 MLOAD DUP1 DUP4 SUB DUP2 DUP7 GAS STATICCALL ISZERO DUP1 ISZERO PUSH2 0x844 JUMPI RETURNDATASIZE PUSH1 0x0 DUP1 RETURNDATACOPY RETURNDATASIZE PUSH1 0x0 REVERT JUMPDEST POP POP POP POP PUSH1 0x40 MLOAD RETURNDATASIZE PUSH1 0x1F NOT PUSH1 0x1F DUP3 ADD AND DUP3 ADD DUP1 PUSH1 0x40 MSTORE POP DUP2 ADD SWAP1 PUSH2 0x868 SWAP2 SWAP1 PUSH2 0x34A5 JUMP JUMPDEST PUSH1 0x7 SLOAD SWAP4 SWAP9 POP SWAP7 POP PUSH2 0x891 SWAP6 POP POP PUSH1 0x1 PUSH1 0x1 PUSH1 0xA0 SHL SUB DUP1 DUP9 AND SWAP5 POP SWAP1 SWAP2 AND SWAP2 POP ADDRESS SWAP1 POP DUP8 PUSH2 0x14A9 JUMP JUMPDEST PUSH1 0x40 MLOAD PUSH4 0x70A08231 PUSH1 0xE0 SHL DUP2 MSTORE ADDRESS PUSH1 0x4 DUP3 ADD MSTORE DUP5 SWAP1 PUSH1 0x1 PUSH1 0x1 PUSH1 0xA0 SHL SUB DUP5 AND SWAP1 PUSH4 0x70A08231 SWAP1 PUSH1 0x24 ADD PUSH1 0x20 PUSH1 0x40 MLOAD DUP1 DUP4 SUB DUP2 DUP7 GAS STATICCALL ISZERO DUP1 ISZERO PUSH2 0x8D7 JUMPI RETURNDATASIZE PUSH1 0x0 DUP1 RETURNDATACOPY RETURNDATASIZE PUSH1 0x0 REVERT JUMPDEST POP POP POP POP PUSH1 0x40 MLOAD RETURNDATASIZE PUSH1 0x1F NOT PUSH1 0x1F DUP3 ADD AND DUP3 ADD DUP1 PUSH1 0x40 MSTORE POP DUP2 ADD SWAP1 PUSH2 0x8FB SWAP2 SWAP1 PUSH2 0x351B JUMP JUMPDEST LT ISZERO PUSH2 0x936 JUMPI PUSH1 0x40 MLOAD PUSH3 0x461BCD PUSH1 0xE5 SHL DUP2 MSTORE PUSH1 0x20 PUSH1 0x4 DUP3 ADD MSTORE PUSH1 0xA PUSH1 0x24 DUP3 ADD MSTORE PUSH10 0x73656E642066756E6473 PUSH1 0xB0 SHL PUSH1 0x44 DUP3 ADD MSTORE PUSH1 0x64 ADD PUSH2 0x6C1 JUMP JUMPDEST PUSH1 0x8 DUP4 ADD SLOAD PUSH1 0x1 PUSH1 0x1 PUSH1 0xA0 SHL SUB DUP1 DUP5 AND SWAP2 PUSH4 0x95EA7B3 SWAP2 PUSH1 0x1 PUSH1 0x20 SHL SWAP1 SWAP2 DIV AND PUSH2 0x961 DUP8 PUSH1 0x2 PUSH2 0x354A JUMP JUMPDEST PUSH1 0x40 MLOAD PUSH1 0x1 PUSH1 0x1 PUSH1 0xE0 SHL SUB NOT PUSH1 0xE0 DUP6 SWAP1 SHL AND DUP2 MSTORE PUSH1 0x1 PUSH1 0x1 PUSH1 0xA0 SHL SUB SWAP1 SWAP3 AND PUSH1 0x4 DUP4 ADD MSTORE PUSH1 0x24 DUP3 ADD MSTORE PUSH1 0x44 ADD PUSH1 0x20 PUSH1 0x40 MLOAD DUP1 DUP4 SUB DUP2 PUSH1 0x0 DUP8 GAS CALL ISZERO DUP1 ISZERO PUSH2 0x9AC JUMPI RETURNDATASIZE PUSH1 0x0 DUP1 RETURNDATACOPY RETURNDATASIZE PUSH1 0x0 REVERT JUMPDEST POP POP POP POP PUSH1 0x40 MLOAD RETURNDATASIZE PUSH1 0x1F NOT PUSH1 0x1F DUP3 ADD AND DUP3 ADD DUP1 PUSH1 0x40 MSTORE POP DUP2 ADD SWAP1 PUSH2 0x9D0 SWAP2 SWAP1 PUSH2 0x3569 JUMP JUMPDEST POP DUP1 ISZERO PUSH2 0x9E7 JUMPI PUSH2 0x9E1 DUP6 DUP6 PUSH2 0x1509 JUMP JUMPDEST POP PUSH2 0xB15 JUMP JUMPDEST PUSH1 0x8 DUP4 ADD SLOAD PUSH2 0x100 SWAP1 DIV PUSH1 0xFF AND ISZERO PUSH2 0xA7E JUMPI PUSH1 0x8 DUP4 ADD SLOAD PUSH1 0x0 DUP7 DUP2 MSTORE PUSH1 0x9 PUSH1 0x20 MSTORE PUSH1 0x40 SWAP1 DUP2 SWAP1 KECCAK256 SWAP1 MLOAD PUSH4 0x791AC947 PUSH1 0xE0 SHL DUP2 MSTORE PUSH1 0x1 PUSH1 0x20 SHL SWAP1 SWAP3 DIV PUSH1 0x1 PUSH1 0x1 PUSH1 0xA0 SHL SUB AND SWAP2 PUSH4 0x791AC947 SWAP2 PUSH2 0xA47 SWAP2 DUP9 SWAP2 PUSH1 0x1 SWAP2 ADDRESS SWAP1 TIMESTAMP SWAP1 PUSH1 0x4 ADD PUSH2 0x35CF JUMP JUMPDEST PUSH1 0x0 PUSH1 0x40 MLOAD DUP1 DUP4 SUB DUP2 PUSH1 0x0 DUP8 DUP1 EXTCODESIZE ISZERO DUP1 ISZERO PUSH2 0xA61 JUMPI PUSH1 0x0 DUP1 REVERT JUMPDEST POP GAS CALL ISZERO DUP1 ISZERO PUSH2 0xA75 JUMPI RETURNDATASIZE PUSH1 0x0 DUP1 RETURNDATACOPY RETURNDATASIZE PUSH1 0x0 REVERT JUMPDEST POP POP POP POP PUSH2 0xB15 JUMP JUMPDEST PUSH1 0x8 DUP4 ADD SLOAD PUSH1 0x0 DUP7 DUP2 MSTORE PUSH1 0x9 PUSH1 0x20 MSTORE PUSH1 0x40 SWAP1 DUP2 SWAP1 KECCAK256 SWAP1 MLOAD PUSH4 0x18CBAFE5 PUSH1 0xE0 SHL DUP2 MSTORE PUSH1 0x1 PUSH1 0x20 SHL SWAP1 SWAP3 DIV PUSH1 0x1 PUSH1 0x1 PUSH1 0xA0 SHL SUB AND SWAP2 PUSH4 0x18CBAFE5 SWAP2 PUSH2 0xACC SWAP2 DUP9 SWAP2 PUSH1 0x1 SWAP2 ADDRESS SWAP1 TIMESTAMP SWAP1 PUSH1 0x4 ADD PUSH2 0x35CF JUMP JUMPDEST PUSH1 0x0 PUSH1 0x40 MLOAD DUP1 DUP4 SUB DUP2 PUSH1 0x0 DUP8 GAS CALL ISZERO DUP1 ISZERO PUSH2 0xAEB JUMPI RETURNDATASIZE PUSH1 0x0 DUP1 RETURNDATACOPY RETURNDATASIZE PUSH1 0x0 REVERT JUMPDEST POP POP POP POP PUSH1 0x40 MLOAD RETURNDATASIZE PUSH1 0x0 DUP3 RETURNDATACOPY PUSH1 0x1F RETURNDATASIZE SWAP1 DUP2 ADD PUSH1 0x1F NOT AND DUP3 ADD PUSH1 0x40 MSTORE PUSH2 0xB13 SWAP2 SWAP1 DUP2 ADD SWAP1 PUSH2 0x3621 JUMP JUMPDEST POP JUMPDEST PUSH1 0x40 DUP1 MLOAD DUP6 DUP2 MSTORE PUSH1 0x1 PUSH1 0x1 PUSH1 0xA0 SHL SUB DUP5 AND PUSH1 0x20 DUP3 ADD MSTORE PUSH32 0x195B26CED269C6DA9F9A06D404CBA065A0149C0C189719E0384E1BEB79659DA0 SWAP2 ADD PUSH1 0x40 MLOAD DUP1 SWAP2 SUB SWAP1 LOG1 POP POP POP POP POP JUMP JUMPDEST PUSH1 0xA PUSH1 0x20 MSTORE DUP2 PUSH1 0x0 MSTORE PUSH1 0x40 PUSH1 0x0 KECCAK256 DUP2 DUP2 SLOAD DUP2 LT PUSH2 0xB79 JUMPI PUSH1 0x0 DUP1 REVERT JUMPDEST PUSH1 0x0 SWAP2 DUP3 MSTORE PUSH1 0x20 SWAP1 SWAP2 KECCAK256 ADD SLOAD PUSH1 0x1 PUSH1 0x1 PUSH1 0xA0 SHL SUB AND SWAP2 POP DUP3 SWAP1 POP JUMP JUMPDEST PUSH1 0x0 SLOAD PUSH1 0x1 PUSH1 0x1 PUSH1 0xA0 SHL SUB AND CALLER EQ PUSH2 0xBBF JUMPI PUSH1 0x40 MLOAD PUSH3 0x461BCD PUSH1 0xE5 SHL DUP2 MSTORE PUSH1 0x4 ADD PUSH2 0x6C1 SWAP1 PUSH2 0x3470 JUMP JUMPDEST PUSH1 0x6 SLOAD PUSH1 0xFF PUSH1 0x1 PUSH1 0xA0 SHL SWAP1 SWAP2 DIV AND ISZERO ISZERO DUP2 ISZERO ISZERO EQ ISZERO PUSH2 0xC13 JUMPI PUSH1 0x40 MLOAD PUSH3 0x461BCD PUSH1 0xE5 SHL DUP2 MSTORE PUSH1 0x20 PUSH1 0x4 DUP3 ADD MSTORE PUSH1 0x10 PUSH1 0x24 DUP3 ADD MSTORE PUSH16 0x416C726561647920696E207374617465 PUSH1 0x80 SHL PUSH1 0x44 DUP3 ADD MSTORE PUSH1 0x64 ADD PUSH2 0x6C1 JUMP JUMPDEST PUSH1 0x6 DUP1 SLOAD DUP3 ISZERO ISZERO PUSH1 0x1 PUSH1 0xA0 SHL MUL PUSH1 0xFF PUSH1 0xA0 SHL NOT SWAP1 SWAP2 AND OR SWAP1 SSTORE PUSH1 0x40 MLOAD PUSH32 0x7D703B166159E7B2E16B6550390CFDC4786DDDF83C504AA32647E1DA9127F226 SWAP1 PUSH2 0x757 SWAP1 DUP4 ISZERO ISZERO DUP2 MSTORE PUSH1 0x20 ADD SWAP1 JUMP JUMPDEST PUSH1 0x0 SLOAD PUSH1 0x1 PUSH1 0x1 PUSH1 0xA0 SHL SUB AND CALLER EQ PUSH2 0xC8A JUMPI PUSH1 0x40 MLOAD PUSH3 0x461BCD PUSH1 0xE5 SHL DUP2 MSTORE PUSH1 0x4 ADD PUSH2 0x6C1 SWAP1 PUSH2 0x3470 JUMP JUMPDEST PUSH2 0x2710 PUSH2 0xC97 DUP12 DUP12 PUSH2 0x1ECF JUMP JUMPDEST GT ISZERO PUSH2 0xCE5 JUMPI PUSH1 0x40 MLOAD PUSH3 0x461BCD PUSH1 0xE5 SHL DUP2 MSTORE PUSH1 0x20 PUSH1 0x4 DUP3 ADD MSTORE PUSH1 0x1A PUSH1 0x24 DUP3 ADD MSTORE PUSH32 0x496E636F72726563742046656520646973747269627574696F6E000000000000 PUSH1 0x44 DUP3 ADD MSTORE PUSH1 0x64 ADD PUSH2 0x6C1 JUMP JUMPDEST PUSH1 0x1 PUSH1 0x1 PUSH1 0xA0 SHL SUB DUP8 AND PUSH2 0xD2E JUMPI PUSH1 0x40 MLOAD PUSH3 0x461BCD PUSH1 0xE5 SHL DUP2 MSTORE PUSH1 0x20 PUSH1 0x4 DUP3 ADD MSTORE PUSH1 0x10 PUSH1 0x24 DUP3 ADD MSTORE PUSH16 0x24B731B7B93932B1BA102937BABA32B9 PUSH1 0x81 SHL PUSH1 0x44 DUP3 ADD MSTORE PUSH1 0x64 ADD PUSH2 0x6C1 JUMP JUMPDEST DUP5 PUSH2 0xD71 JUMPI PUSH1 0x40 MLOAD PUSH3 0x461BCD PUSH1 0xE5 SHL DUP2 MSTORE PUSH1 0x20 PUSH1 0x4 DUP3 ADD MSTORE PUSH1 0x13 PUSH1 0x24 DUP3 ADD MSTORE PUSH19 0x6E6565642061207061746820746F2062617365 PUSH1 0x68 SHL PUSH1 0x44 DUP3 ADD MSTORE PUSH1 0x64 ADD PUSH2 0x6C1 JUMP JUMPDEST PUSH1 0x40 DUP1 MLOAD PUSH2 0x140 DUP2 ADD SWAP1 SWAP2 MSTORE DUP1 PUSH1 0xE0 DUP2 ADD DUP13 PUSH1 0x3 DUP3 DUP3 PUSH1 0x60 DUP1 DUP3 DUP5 CALLDATACOPY PUSH1 0x0 SWAP3 ADD SWAP2 SWAP1 SWAP2 MSTORE POP POP POP DUP2 MSTORE PUSH1 0x40 DUP1 MLOAD PUSH1 0xA0 DUP2 DUP2 ADD SWAP1 SWAP3 MSTORE PUSH1 0x20 SWAP1 SWAP3 ADD SWAP2 SWAP1 DUP13 SWAP1 PUSH1 0x5 SWAP1 DUP4 SWAP1 DUP4 SWAP1 DUP1 DUP3 DUP5 CALLDATACOPY PUSH1 0x0 SWAP3 ADD SWAP2 SWAP1 SWAP2 MSTORE POP POP POP DUP2 MSTORE PUSH1 0x1 PUSH1 0x20 DUP1 DUP4 ADD SWAP2 SWAP1 SWAP2 MSTORE PUSH1 0x40 SWAP1 SWAP2 ADD SWAP1 PUSH2 0xDE4 SWAP1 DUP12 ADD DUP12 PUSH2 0x31DC JUMP JUMPDEST ISZERO ISZERO DUP2 MSTORE PUSH1 0x20 SWAP1 DUP2 ADD SWAP1 PUSH2 0xDFE SWAP1 PUSH1 0x40 DUP13 ADD SWAP1 DUP13 ADD PUSH2 0x31DC JUMP JUMPDEST ISZERO ISZERO DUP2 MSTORE PUSH1 0x20 ADD PUSH2 0xE15 PUSH1 0x60 DUP12 ADD PUSH1 0x40 DUP13 ADD PUSH2 0x31DC JUMP JUMPDEST ISZERO ISZERO DUP2 MSTORE PUSH1 0x1 PUSH1 0x1 PUSH1 0xA0 SHL SUB DUP10 AND PUSH1 0x20 SWAP2 DUP3 ADD MSTORE PUSH1 0x0 DUP14 DUP2 MSTORE PUSH1 0x8 SWAP1 SWAP2 MSTORE PUSH1 0x40 SWAP1 KECCAK256 DUP2 MLOAD PUSH2 0xE46 SWAP1 DUP3 SWAP1 PUSH1 0x3 PUSH2 0x3052 JUMP JUMPDEST POP PUSH1 0x20 DUP3 ADD MLOAD PUSH2 0xE5C SWAP1 PUSH1 0x3 DUP4 ADD SWAP1 PUSH1 0x5 PUSH2 0x3090 JUMP JUMPDEST POP PUSH1 0x40 DUP3 ADD MLOAD PUSH1 0x8 SWAP1 SWAP2 ADD DUP1 SLOAD PUSH1 0x60 DUP5 ADD MLOAD PUSH1 0x80 DUP6 ADD MLOAD PUSH1 0xA0 DUP7 ADD MLOAD PUSH1 0xC0 SWAP1 SWAP7 ADD MLOAD PUSH1 0x1 PUSH1 0x1 PUSH1 0xA0 SHL SUB AND PUSH1 0x1 PUSH1 0x20 SHL MUL PUSH5 0x100000000 PUSH1 0x1 PUSH1 0xC0 SHL SUB NOT SWAP7 ISZERO ISZERO PUSH4 0x1000000 MUL PUSH4 0xFF000000 NOT SWAP3 ISZERO ISZERO PUSH3 0x10000 MUL SWAP3 SWAP1 SWAP3 AND PUSH4 0xFFFF0000 NOT SWAP4 ISZERO ISZERO PUSH2 0x100 MUL PUSH2 0xFF00 NOT SWAP8 ISZERO ISZERO SWAP8 SWAP1 SWAP8 AND PUSH2 0xFFFF NOT SWAP1 SWAP6 AND SWAP5 SWAP1 SWAP5 OR SWAP6 SWAP1 SWAP6 OR SWAP2 SWAP1 SWAP2 AND SWAP2 SWAP1 SWAP2 OR OR SWAP3 SWAP1 SWAP3 AND OR SWAP1 SSTORE PUSH2 0xEFB DUP12 DUP8 DUP8 DUP8 DUP8 DUP8 DUP8 PUSH2 0x1173 JUMP JUMPDEST PUSH1 0x40 MLOAD DUP12 SWAP1 PUSH32 0xF7EB02141AD38EBC5B61E51E5BB0E913CEA227B9DFC94EA034FB39A9F5FE809F SWAP1 PUSH1 0x0 SWAP1 LOG2 POP POP POP POP POP POP POP POP POP POP POP JUMP JUMPDEST PUSH1 0x0 SLOAD PUSH1 0x1 PUSH1 0x1 PUSH1 0xA0 SHL SUB AND CALLER EQ PUSH2 0xF5D JUMPI PUSH1 0x40 MLOAD PUSH3 0x461BCD PUSH1 0xE5 SHL DUP2 MSTORE PUSH1 0x4 ADD PUSH2 0x6C1 SWAP1 PUSH2 0x3470 JUMP JUMPDEST PUSH2 0xF67 PUSH1 0x0 PUSH2 0x1F4C JUMP JUMPDEST JUMP JUMPDEST PUSH1 0x9 PUSH1 0x20 MSTORE DUP2 PUSH1 0x0 MSTORE PUSH1 0x40 PUSH1 0x0 KECCAK256 DUP2 DUP2 SLOAD DUP2 LT PUSH2 0xB79 JUMPI PUSH1 0x0 DUP1 REVERT JUMPDEST PUSH1 0x0 SLOAD PUSH1 0x1 PUSH1 0x1 PUSH1 0xA0 SHL SUB AND CALLER EQ PUSH2 0xFAF JUMPI PUSH1 0x40 MLOAD PUSH3 0x461BCD PUSH1 0xE5 SHL DUP2 MSTORE PUSH1 0x4 ADD PUSH2 0x6C1 SWAP1 PUSH2 0x3470 JUMP JUMPDEST PUSH1 0x0 DUP2 GT PUSH2 0xFF0 JUMPI PUSH1 0x40 MLOAD PUSH3 0x461BCD PUSH1 0xE5 SHL DUP2 MSTORE PUSH1 0x20 PUSH1 0x4 DUP3 ADD MSTORE PUSH1 0xE PUSH1 0x24 DUP3 ADD MSTORE PUSH14 0x125B9D985B1A59081D185C99D95D PUSH1 0x92 SHL PUSH1 0x44 DUP3 ADD MSTORE PUSH1 0x64 ADD PUSH2 0x6C1 JUMP JUMPDEST PUSH1 0x3 DUP2 SWAP1 SSTORE PUSH1 0x40 MLOAD DUP2 DUP2 MSTORE PUSH32 0x145CC1D669B07469E4051F322247BE4857EC7E59AE7DCD6E88057C181424D858 SWAP1 PUSH1 0x20 ADD PUSH2 0x757 JUMP JUMPDEST PUSH1 0xB PUSH1 0x20 MSTORE DUP2 PUSH1 0x0 MSTORE PUSH1 0x40 PUSH1 0x0 KECCAK256 DUP2 DUP2 SLOAD DUP2 LT PUSH2 0xB79 JUMPI PUSH1 0x0 DUP1 REVERT JUMPDEST PUSH1 0x0 DUP1 PUSH1 0x0 PUSH1 0x2 PUSH1 0x0 SWAP1 SLOAD SWAP1 PUSH2 0x100 EXP SWAP1 DIV PUSH1 0x1 PUSH1 0x1 PUSH1 0xA0 SHL SUB AND PUSH1 0x1 PUSH1 0x1 PUSH1 0xA0 SHL SUB AND PUSH4 0x902F1AC PUSH1 0x40 MLOAD DUP2 PUSH4 0xFFFFFFFF AND PUSH1 0xE0 SHL DUP2 MSTORE PUSH1 0x4 ADD PUSH1 0x60 PUSH1 0x40 MLOAD DUP1 DUP4 SUB DUP2 DUP7 GAS STATICCALL ISZERO DUP1 ISZERO PUSH2 0x1099 JUMPI RETURNDATASIZE PUSH1 0x0 DUP1 RETURNDATACOPY RETURNDATASIZE PUSH1 0x0 REVERT JUMPDEST POP POP POP POP PUSH1 0x40 MLOAD RETURNDATASIZE PUSH1 0x1F NOT PUSH1 0x1F DUP3 ADD AND DUP3 ADD DUP1 PUSH1 0x40 MSTORE POP DUP2 ADD SWAP1 PUSH2 0x10BD SWAP2 SWAP1 PUSH2 0x370C JUMP JUMPDEST POP PUSH1 0x1 PUSH1 0x1 PUSH1 0x70 SHL SUB AND SWAP2 POP PUSH1 0x1 PUSH1 0x1 PUSH1 0x70 SHL SUB AND SWAP2 POP PUSH1 0x0 DUP2 GT PUSH2 0x10E3 JUMPI PUSH1 0x1 PUSH2 0x10E5 JUMP JUMPDEST DUP1 JUMPDEST PUSH1 0x3 SLOAD SWAP1 SWAP2 POP DUP2 PUSH2 0x10FE DUP5 PUSH8 0xDE0B6B3A7640000 PUSH2 0x354A JUMP JUMPDEST PUSH2 0x1108 SWAP2 SWAP1 PUSH2 0x375C JUMP JUMPDEST LT SWAP3 POP POP POP SWAP1 JUMP JUMPDEST PUSH1 0x0 DUP2 DUP2 MSTORE PUSH1 0x8 PUSH1 0x20 DUP2 SWAP1 MSTORE PUSH1 0x40 SWAP1 SWAP2 KECCAK256 SWAP1 DUP2 ADD SLOAD PUSH1 0xFF AND PUSH2 0x1166 JUMPI PUSH1 0x40 MLOAD PUSH3 0x461BCD PUSH1 0xE5 SHL DUP2 MSTORE PUSH1 0x20 PUSH1 0x4 DUP3 ADD MSTORE PUSH1 0xF PUSH1 0x24 DUP3 ADD MSTORE PUSH15 0x139BDD081A5B9A5D1A585B1A5E9959 PUSH1 0x8A SHL PUSH1 0x44 DUP3 ADD MSTORE PUSH1 0x64 ADD PUSH2 0x6C1 JUMP JUMPDEST PUSH2 0x116F DUP2 PUSH2 0x1F9C JUMP JUMPDEST POP POP JUMP JUMPDEST PUSH1 0x0 SLOAD PUSH1 0x1 PUSH1 0x1 PUSH1 0xA0 SHL SUB AND CALLER EQ PUSH2 0x119D JUMPI PUSH1 0x40 MLOAD PUSH3 0x461BCD PUSH1 0xE5 SHL DUP2 MSTORE PUSH1 0x4 ADD PUSH2 0x6C1 SWAP1 PUSH2 0x3470 JUMP JUMPDEST PUSH1 0x0 DUP8 DUP2 MSTORE PUSH1 0x9 PUSH1 0x20 MSTORE PUSH1 0x40 SWAP1 KECCAK256 PUSH2 0x11B6 SWAP1 DUP8 DUP8 PUSH2 0x30BD JUMP JUMPDEST POP PUSH1 0x0 DUP8 DUP2 MSTORE PUSH1 0xA PUSH1 0x20 MSTORE PUSH1 0x40 SWAP1 KECCAK256 PUSH2 0x11D0 SWAP1 DUP6 DUP6 PUSH2 0x30BD JUMP JUMPDEST POP PUSH1 0x0 DUP8 DUP2 MSTORE PUSH1 0xB PUSH1 0x20 MSTORE PUSH1 0x40 SWAP1 KECCAK256 PUSH2 0x11EA SWAP1 DUP4 DUP4 PUSH2 0x30BD JUMP JUMPDEST POP POP POP POP POP POP POP POP JUMP JUMPDEST PUSH2 0x11FC PUSH2 0x3110 JUMP JUMPDEST PUSH2 0x1204 PUSH2 0x312E JUMP JUMPDEST PUSH1 0x0 DUP4 DUP2 MSTORE PUSH1 0x8 PUSH1 0x20 MSTORE PUSH1 0x40 SWAP1 DUP2 SWAP1 KECCAK256 DUP2 MLOAD PUSH1 0x60 DUP2 ADD SWAP3 DUP4 SWAP1 MSTORE SWAP2 PUSH1 0x3 SWAP1 DUP3 DUP5 JUMPDEST DUP2 SLOAD DUP2 MSTORE PUSH1 0x20 ADD SWAP1 PUSH1 0x1 ADD SWAP1 DUP1 DUP4 GT PUSH2 0x1225 JUMPI POP POP POP PUSH1 0x0 DUP7 DUP2 MSTORE PUSH1 0x8 PUSH1 0x20 MSTORE PUSH1 0x40 SWAP1 DUP2 SWAP1 KECCAK256 DUP2 MLOAD PUSH1 0xA0 DUP2 ADD SWAP3 DUP4 SWAP1 MSTORE SWAP5 SWAP7 POP PUSH1 0x3 ADD SWAP3 POP PUSH1 0x5 SWAP2 POP DUP3 DUP5 JUMPDEST DUP2 SLOAD DUP2 MSTORE PUSH1 0x20 ADD SWAP1 PUSH1 0x1 ADD SWAP1 DUP1 DUP4 GT PUSH2 0x1264 JUMPI POP POP POP POP POP SWAP1 POP SWAP2 POP SWAP2 JUMP JUMPDEST PUSH1 0x0 SLOAD PUSH1 0x1 PUSH1 0x1 PUSH1 0xA0 SHL SUB AND CALLER EQ PUSH2 0x12AD JUMPI PUSH1 0x40 MLOAD PUSH3 0x461BCD PUSH1 0xE5 SHL DUP2 MSTORE PUSH1 0x4 ADD PUSH2 0x6C1 SWAP1 PUSH2 0x3470 JUMP JUMPDEST PUSH1 0x1 PUSH1 0x1 PUSH1 0xA0 SHL SUB DUP2 AND PUSH2 0x12ED JUMPI PUSH1 0x40 MLOAD PUSH3 0x461BCD PUSH1 0xE5 SHL DUP2 MSTORE PUSH1 0x20 PUSH1 0x4 DUP3 ADD MSTORE PUSH1 0x7 PUSH1 0x24 DUP3 ADD MSTORE PUSH7 0x4E6F205A65726F PUSH1 0xC8 SHL PUSH1 0x44 DUP3 ADD MSTORE PUSH1 0x64 ADD PUSH2 0x6C1 JUMP JUMPDEST PUSH1 0x6 SLOAD PUSH1 0x40 DUP1 MLOAD PUSH1 0x1 PUSH1 0x1 PUSH1 0xA0 SHL SUB DUP1 DUP6 AND DUP3 MSTORE SWAP1 SWAP3 AND PUSH1 0x20 DUP4 ADD MSTORE PUSH32 0x4088A686F46439872254E52412588879189D5D7AD58511047A6F308714E0A0FC SWAP2 ADD PUSH1 0x40 MLOAD DUP1 SWAP2 SUB SWAP1 LOG1 PUSH1 0x6 DUP1 SLOAD PUSH1 0x1 PUSH1 0x1 PUSH1 0xA0 SHL SUB NOT AND PUSH1 0x1 PUSH1 0x1 PUSH1 0xA0 SHL SUB SWAP3 SWAP1 SWAP3 AND SWAP2 SWAP1 SWAP2 OR SWAP1 SSTORE JUMP JUMPDEST PUSH1 0x0 SLOAD PUSH1 0x1 PUSH1 0x1 PUSH1 0xA0 SHL SUB AND CALLER EQ PUSH2 0x1380 JUMPI PUSH1 0x40 MLOAD PUSH3 0x461BCD PUSH1 0xE5 SHL DUP2 MSTORE PUSH1 0x4 ADD PUSH2 0x6C1 SWAP1 PUSH2 0x3470 JUMP JUMPDEST PUSH1 0x1 PUSH1 0x1 PUSH1 0xA0 SHL SUB DUP2 AND PUSH2 0x13E5 JUMPI PUSH1 0x40 MLOAD PUSH3 0x461BCD PUSH1 0xE5 SHL DUP2 MSTORE PUSH1 0x20 PUSH1 0x4 DUP3 ADD MSTORE PUSH1 0x26 PUSH1 0x24 DUP3 ADD MSTORE PUSH32 0x4F776E61626C653A206E6577206F776E657220697320746865207A65726F2061 PUSH1 0x44 DUP3 ADD MSTORE PUSH6 0x646472657373 PUSH1 0xD0 SHL PUSH1 0x64 DUP3 ADD MSTORE PUSH1 0x84 ADD PUSH2 0x6C1 JUMP JUMPDEST PUSH2 0x13EE DUP2 PUSH2 0x1F4C JUMP JUMPDEST POP JUMP JUMPDEST PUSH1 0x0 SLOAD PUSH1 0x1 PUSH1 0x1 PUSH1 0xA0 SHL SUB AND CALLER EQ PUSH2 0x141B JUMPI PUSH1 0x40 MLOAD PUSH3 0x461BCD PUSH1 0xE5 SHL DUP2 MSTORE PUSH1 0x4 ADD PUSH2 0x6C1 SWAP1 PUSH2 0x3470 JUMP JUMPDEST PUSH1 0x1 PUSH1 0x1 PUSH1 0xA0 SHL SUB DUP2 AND PUSH2 0x145B JUMPI PUSH1 0x40 MLOAD PUSH3 0x461BCD PUSH1 0xE5 SHL DUP2 MSTORE PUSH1 0x20 PUSH1 0x4 DUP3 ADD MSTORE PUSH1 0x7 PUSH1 0x24 DUP3 ADD MSTORE PUSH7 0x4E6F207A65726F PUSH1 0xC8 SHL PUSH1 0x44 DUP3 ADD MSTORE PUSH1 0x64 ADD PUSH2 0x6C1 JUMP JUMPDEST PUSH1 0x1 DUP1 SLOAD PUSH1 0x1 PUSH1 0x1 PUSH1 0xA0 SHL SUB NOT AND PUSH1 0x1 PUSH1 0x1 PUSH1 0xA0 SHL SUB DUP4 AND SWAP1 DUP2 OR SWAP1 SWAP2 SSTORE PUSH1 0x40 MLOAD SWAP1 DUP2 MSTORE PUSH32 0x2DF9D602927CBEE25F5AC348817E8312326C22C45D0AFE91F8C3B5EB4FD67508 SWAP1 PUSH1 0x20 ADD PUSH2 0x757 JUMP JUMPDEST PUSH1 0x40 DUP1 MLOAD PUSH1 0x1 PUSH1 0x1 PUSH1 0xA0 SHL SUB DUP6 DUP2 AND PUSH1 0x24 DUP4 ADD MSTORE DUP5 AND PUSH1 0x44 DUP3 ADD MSTORE PUSH1 0x64 DUP1 DUP3 ADD DUP5 SWAP1 MSTORE DUP3 MLOAD DUP1 DUP4 SUB SWAP1 SWAP2 ADD DUP2 MSTORE PUSH1 0x84 SWAP1 SWAP2 ADD SWAP1 SWAP2 MSTORE PUSH1 0x20 DUP2 ADD DUP1 MLOAD PUSH1 0x1 PUSH1 0x1 PUSH1 0xE0 SHL SUB AND PUSH4 0x23B872DD PUSH1 0xE0 SHL OR SWAP1 MSTORE PUSH2 0x1503 SWAP1 DUP6 SWAP1 PUSH2 0x2489 JUMP JUMPDEST POP POP POP POP JUMP JUMPDEST PUSH1 0x0 DUP3 DUP2 MSTORE PUSH1 0x8 PUSH1 0x20 SWAP1 DUP2 MSTORE PUSH1 0x40 DUP1 DUP4 KECCAK256 PUSH1 0x1 SLOAD DUP3 MLOAD PUSH4 0x15AB88C9 PUSH1 0xE3 SHL DUP2 MSTORE SWAP3 MLOAD SWAP2 SWAP4 PUSH1 0x1 PUSH1 0x1 PUSH1 0xA0 SHL SUB SWAP1 SWAP2 AND SWAP3 PUSH4 0xAD5C4648 SWAP3 PUSH1 0x4 DUP1 DUP4 ADD SWAP4 SWAP3 DUP3 SWAP1 SUB ADD DUP2 DUP7 GAS STATICCALL ISZERO DUP1 ISZERO PUSH2 0x155F JUMPI RETURNDATASIZE PUSH1 0x0 DUP1 RETURNDATACOPY RETURNDATASIZE PUSH1 0x0 REVERT JUMPDEST POP POP POP POP PUSH1 0x40 MLOAD RETURNDATASIZE PUSH1 0x1F NOT PUSH1 0x1F DUP3 ADD AND DUP3 ADD DUP1 PUSH1 0x40 MSTORE POP DUP2 ADD SWAP1 PUSH2 0x1583 SWAP2 SWAP1 PUSH2 0x377E JUMP JUMPDEST PUSH1 0x1 PUSH1 0x1 PUSH1 0xA0 SHL SUB AND PUSH1 0x9 PUSH1 0x0 DUP7 DUP2 MSTORE PUSH1 0x20 ADD SWAP1 DUP2 MSTORE PUSH1 0x20 ADD PUSH1 0x0 KECCAK256 PUSH1 0x0 DUP2 SLOAD DUP2 LT PUSH2 0x15B1 JUMPI PUSH2 0x15B1 PUSH2 0x36DF JUMP JUMPDEST PUSH1 0x0 SWAP2 DUP3 MSTORE PUSH1 0x20 SWAP1 SWAP2 KECCAK256 ADD SLOAD PUSH1 0x1 PUSH1 0x1 PUSH1 0xA0 SHL SUB AND EQ DUP1 PUSH2 0x1689 JUMPI POP PUSH1 0x1 PUSH1 0x0 SWAP1 SLOAD SWAP1 PUSH2 0x100 EXP SWAP1 DIV PUSH1 0x1 PUSH1 0x1 PUSH1 0xA0 SHL SUB AND PUSH1 0x1 PUSH1 0x1 PUSH1 0xA0 SHL SUB AND PUSH4 0xAD5C4648 PUSH1 0x40 MLOAD DUP2 PUSH4 0xFFFFFFFF AND PUSH1 0xE0 SHL DUP2 MSTORE PUSH1 0x4 ADD PUSH1 0x20 PUSH1 0x40 MLOAD DUP1 DUP4 SUB DUP2 DUP7 GAS STATICCALL ISZERO DUP1 ISZERO PUSH2 0x1620 JUMPI RETURNDATASIZE PUSH1 0x0 DUP1 RETURNDATACOPY RETURNDATASIZE PUSH1 0x0 REVERT JUMPDEST POP POP POP POP PUSH1 0x40 MLOAD RETURNDATASIZE PUSH1 0x1F NOT PUSH1 0x1F DUP3 ADD AND DUP3 ADD DUP1 PUSH1 0x40 MSTORE POP DUP2 ADD SWAP1 PUSH2 0x1644 SWAP2 SWAP1 PUSH2 0x377E JUMP JUMPDEST PUSH1 0x1 PUSH1 0x1 PUSH1 0xA0 SHL SUB AND PUSH1 0x9 PUSH1 0x0 DUP7 DUP2 MSTORE PUSH1 0x20 ADD SWAP1 DUP2 MSTORE PUSH1 0x20 ADD PUSH1 0x0 KECCAK256 PUSH1 0x1 DUP2 SLOAD DUP2 LT PUSH2 0x1672 JUMPI PUSH2 0x1672 PUSH2 0x36DF JUMP JUMPDEST PUSH1 0x0 SWAP2 DUP3 MSTORE PUSH1 0x20 SWAP1 SWAP2 KECCAK256 ADD SLOAD PUSH1 0x1 PUSH1 0x1 PUSH1 0xA0 SHL SUB AND EQ JUMPDEST ISZERO PUSH2 0x19C9 JUMPI PUSH1 0x0 PUSH1 0x60 PUSH1 0x0 PUSH2 0x169D DUP8 PUSH2 0x2560 JUMP JUMPDEST PUSH1 0x8 DUP8 ADD SLOAD SWAP3 SWAP6 POP SWAP1 SWAP4 POP SWAP2 POP PUSH2 0x100 SWAP1 DIV PUSH1 0xFF AND ISZERO PUSH2 0x1743 JUMPI PUSH1 0x8 DUP5 ADD SLOAD PUSH1 0x40 MLOAD PUSH4 0xAF2979EB PUSH1 0xE0 SHL DUP2 MSTORE PUSH1 0x1 PUSH1 0x20 SHL SWAP1 SWAP2 DIV PUSH1 0x1 PUSH1 0x1 PUSH1 0xA0 SHL SUB AND SWAP1 PUSH4 0xAF2979EB SWAP1 PUSH2 0x16FA SWAP1 DUP7 SWAP1 DUP11 SWAP1 PUSH1 0x0 SWAP1 DUP2 SWAP1 ADDRESS SWAP1 TIMESTAMP SWAP1 PUSH1 0x4 ADD PUSH2 0x379B JUMP JUMPDEST PUSH1 0x20 PUSH1 0x40 MLOAD DUP1 DUP4 SUB DUP2 PUSH1 0x0 DUP8 GAS CALL ISZERO DUP1 ISZERO PUSH2 0x1719 JUMPI RETURNDATASIZE PUSH1 0x0 DUP1 RETURNDATACOPY RETURNDATASIZE PUSH1 0x0 REVERT JUMPDEST POP POP POP POP PUSH1 0x40 MLOAD RETURNDATASIZE PUSH1 0x1F NOT PUSH1 0x1F DUP3 ADD AND DUP3 ADD DUP1 PUSH1 0x40 MSTORE POP DUP2 ADD SWAP1 PUSH2 0x173D SWAP2 SWAP1 PUSH2 0x351B JUMP JUMPDEST POP PUSH2 0x17CA JUMP JUMPDEST PUSH1 0x8 DUP5 ADD SLOAD PUSH1 0x40 MLOAD PUSH3 0x9D473B PUSH1 0xE2 SHL DUP2 MSTORE PUSH1 0x1 PUSH1 0x20 SHL SWAP1 SWAP2 DIV PUSH1 0x1 PUSH1 0x1 PUSH1 0xA0 SHL SUB AND SWAP1 PUSH4 0x2751CEC SWAP1 PUSH2 0x1785 SWAP1 DUP7 SWAP1 DUP11 SWAP1 PUSH1 0x0 SWAP1 DUP2 SWAP1 ADDRESS SWAP1 TIMESTAMP SWAP1 PUSH1 0x4 ADD PUSH2 0x379B JUMP JUMPDEST PUSH1 0x40 DUP1 MLOAD DUP1 DUP4 SUB DUP2 PUSH1 0x0 DUP8 GAS CALL ISZERO DUP1 ISZERO PUSH2 0x17A3 JUMPI RETURNDATASIZE PUSH1 0x0 DUP1 RETURNDATACOPY RETURNDATASIZE PUSH1 0x0 REVERT JUMPDEST POP POP POP POP PUSH1 0x40 MLOAD RETURNDATASIZE PUSH1 0x1F NOT PUSH1 0x1F DUP3 ADD AND DUP3 ADD DUP1 PUSH1 0x40 MSTORE POP DUP2 ADD SWAP1 PUSH2 0x17C7 SWAP2 SWAP1 PUSH2 0x37D6 JUMP JUMPDEST POP POP JUMPDEST PUSH1 0x40 MLOAD PUSH4 0x70A08231 PUSH1 0xE0 SHL DUP2 MSTORE ADDRESS PUSH1 0x4 DUP3 ADD MSTORE PUSH1 0x0 SWAP1 PUSH1 0x1 PUSH1 0x1 PUSH1 0xA0 SHL SUB DUP6 AND SWAP1 PUSH4 0x70A08231 SWAP1 PUSH1 0x24 ADD PUSH1 0x20 PUSH1 0x40 MLOAD DUP1 DUP4 SUB DUP2 DUP7 GAS STATICCALL ISZERO DUP1 ISZERO PUSH2 0x1811 JUMPI RETURNDATASIZE PUSH1 0x0 DUP1 RETURNDATACOPY RETURNDATASIZE PUSH1 0x0 REVERT JUMPDEST POP POP POP POP PUSH1 0x40 MLOAD RETURNDATASIZE PUSH1 0x1F NOT PUSH1 0x1F DUP3 ADD AND DUP3 ADD DUP1 PUSH1 0x40 MSTORE POP DUP2 ADD SWAP1 PUSH2 0x1835 SWAP2 SWAP1 PUSH2 0x351B JUMP JUMPDEST PUSH1 0x8 DUP7 ADD SLOAD PUSH1 0x40 MLOAD PUSH4 0x95EA7B3 PUSH1 0xE0 SHL DUP2 MSTORE PUSH1 0x1 PUSH1 0x1 PUSH1 0xA0 SHL SUB PUSH1 0x1 PUSH1 0x20 SHL SWAP1 SWAP3 DIV DUP3 AND PUSH1 0x4 DUP3 ADD MSTORE PUSH1 0x24 DUP2 ADD DUP4 SWAP1 MSTORE SWAP2 SWAP3 POP DUP6 AND SWAP1 PUSH4 0x95EA7B3 SWAP1 PUSH1 0x44 ADD PUSH1 0x20 PUSH1 0x40 MLOAD DUP1 DUP4 SUB DUP2 PUSH1 0x0 DUP8 GAS CALL ISZERO DUP1 ISZERO PUSH2 0x1893 JUMPI RETURNDATASIZE PUSH1 0x0 DUP1 RETURNDATACOPY RETURNDATASIZE PUSH1 0x0 REVERT JUMPDEST POP POP POP POP PUSH1 0x40 MLOAD RETURNDATASIZE PUSH1 0x1F NOT PUSH1 0x1F DUP3 ADD AND DUP3 ADD DUP1 PUSH1 0x40 MSTORE POP DUP2 ADD SWAP1 PUSH2 0x18B7 SWAP2 SWAP1 PUSH2 0x3569 JUMP JUMPDEST POP DUP2 ISZERO PUSH2 0x1936 JUMPI PUSH1 0x8 DUP6 ADD SLOAD PUSH1 0x40 MLOAD PUSH4 0x791AC947 PUSH1 0xE0 SHL DUP2 MSTORE PUSH1 0x1 PUSH1 0x20 SHL SWAP1 SWAP2 DIV PUSH1 0x1 PUSH1 0x1 PUSH1 0xA0 SHL SUB AND SWAP1 PUSH4 0x791AC947 SWAP1 PUSH2 0x18FF SWAP1 DUP5 SWAP1 PUSH1 0x0 SWAP1 DUP9 SWAP1 ADDRESS SWAP1 TIMESTAMP SWAP1 PUSH1 0x4 ADD PUSH2 0x3833 JUMP JUMPDEST PUSH1 0x0 PUSH1 0x40 MLOAD DUP1 DUP4 SUB DUP2 PUSH1 0x0 DUP8 DUP1 EXTCODESIZE ISZERO DUP1 ISZERO PUSH2 0x1919 JUMPI PUSH1 0x0 DUP1 REVERT JUMPDEST POP GAS CALL ISZERO DUP1 ISZERO PUSH2 0x192D JUMPI RETURNDATASIZE PUSH1 0x0 DUP1 RETURNDATACOPY RETURNDATASIZE PUSH1 0x0 REVERT JUMPDEST POP POP POP POP PUSH2 0x19C0 JUMP JUMPDEST PUSH1 0x8 DUP6 ADD SLOAD PUSH1 0x40 MLOAD PUSH4 0x18CBAFE5 PUSH1 0xE0 SHL DUP2 MSTORE PUSH1 0x1 PUSH1 0x20 SHL SWAP1 SWAP2 DIV PUSH1 0x1 PUSH1 0x1 PUSH1 0xA0 SHL SUB AND SWAP1 PUSH4 0x18CBAFE5 SWAP1 PUSH2 0x1977 SWAP1 DUP5 SWAP1 PUSH1 0x0 SWAP1 DUP9 SWAP1 ADDRESS SWAP1 TIMESTAMP SWAP1 PUSH1 0x4 ADD PUSH2 0x3833 JUMP JUMPDEST PUSH1 0x0 PUSH1 0x40 MLOAD DUP1 DUP4 SUB DUP2 PUSH1 0x0 DUP8 GAS CALL ISZERO DUP1 ISZERO PUSH2 0x1996 JUMPI RETURNDATASIZE PUSH1 0x0 DUP1 RETURNDATACOPY RETURNDATASIZE PUSH1 0x0 REVERT JUMPDEST POP POP POP POP PUSH1 0x40 MLOAD RETURNDATASIZE PUSH1 0x0 DUP3 RETURNDATACOPY PUSH1 0x1F RETURNDATASIZE SWAP1 DUP2 ADD PUSH1 0x1F NOT AND DUP3 ADD PUSH1 0x40 MSTORE PUSH2 0x19BE SWAP2 SWAP1 DUP2 ADD SWAP1 PUSH2 0x3621 JUMP JUMPDEST POP JUMPDEST POP POP POP POP PUSH2 0x1EC7 JUMP JUMPDEST PUSH1 0x8 DUP2 ADD SLOAD PUSH1 0x0 DUP6 DUP2 MSTORE PUSH1 0x9 PUSH1 0x20 MSTORE PUSH1 0x40 DUP2 KECCAK256 DUP1 SLOAD SWAP2 SWAP3 DUP4 SWAP3 PUSH1 0x1 PUSH1 0x20 SHL SWAP1 SWAP2 DIV PUSH1 0x1 PUSH1 0x1 PUSH1 0xA0 SHL SUB AND SWAP2 PUSH4 0xBAA2ABDE SWAP2 DUP5 SWAP1 PUSH2 0x1A08 JUMPI PUSH2 0x1A08 PUSH2 0x36DF JUMP JUMPDEST PUSH1 0x0 SWAP2 DUP3 MSTORE PUSH1 0x20 DUP1 DUP4 KECCAK256 SWAP1 SWAP2 ADD SLOAD DUP11 DUP4 MSTORE PUSH1 0x9 SWAP1 SWAP2 MSTORE PUSH1 0x40 SWAP1 SWAP2 KECCAK256 DUP1 SLOAD PUSH1 0x1 PUSH1 0x1 PUSH1 0xA0 SHL SUB SWAP1 SWAP3 AND SWAP2 PUSH1 0x1 SWAP1 DUP2 LT PUSH2 0x1A42 JUMPI PUSH2 0x1A42 PUSH2 0x36DF JUMP JUMPDEST PUSH1 0x0 SWAP2 DUP3 MSTORE PUSH1 0x20 DUP3 KECCAK256 ADD SLOAD PUSH1 0x40 MLOAD PUSH1 0xE0 DUP6 SWAP1 SHL PUSH1 0x1 PUSH1 0x1 PUSH1 0xE0 SHL SUB NOT AND DUP2 MSTORE PUSH1 0x1 PUSH1 0x1 PUSH1 0xA0 SHL SUB SWAP4 DUP5 AND PUSH1 0x4 DUP3 ADD MSTORE SWAP3 AND PUSH1 0x24 DUP4 ADD MSTORE PUSH1 0x44 DUP3 ADD DUP10 SWAP1 MSTORE PUSH1 0x64 DUP3 ADD DUP2 SWAP1 MSTORE PUSH1 0x84 DUP3 ADD MSTORE ADDRESS PUSH1 0xA4 DUP3 ADD MSTORE TIMESTAMP PUSH1 0xC4 DUP3 ADD MSTORE PUSH1 0xE4 ADD PUSH1 0x40 DUP1 MLOAD DUP1 DUP4 SUB DUP2 PUSH1 0x0 DUP8 GAS CALL ISZERO DUP1 ISZERO PUSH2 0x1AB8 JUMPI RETURNDATASIZE PUSH1 0x0 DUP1 RETURNDATACOPY RETURNDATASIZE PUSH1 0x0 REVERT JUMPDEST POP POP POP POP PUSH1 0x40 MLOAD RETURNDATASIZE PUSH1 0x1F NOT PUSH1 0x1F DUP3 ADD AND DUP3 ADD DUP1 PUSH1 0x40 MSTORE POP DUP2 ADD SWAP1 PUSH2 0x1ADC SWAP2 SWAP1 PUSH2 0x37D6 JUMP JUMPDEST PUSH1 0x0 DUP9 DUP2 MSTORE PUSH1 0x9 PUSH1 0x20 MSTORE PUSH1 0x40 DUP2 KECCAK256 DUP1 SLOAD SWAP4 SWAP6 POP SWAP2 SWAP4 POP SWAP1 SWAP2 PUSH2 0x1B00 JUMPI PUSH2 0x1B00 PUSH2 0x36DF JUMP JUMPDEST PUSH1 0x0 SWAP2 DUP3 MSTORE PUSH1 0x20 SWAP1 SWAP2 KECCAK256 ADD SLOAD PUSH1 0x8 DUP5 ADD SLOAD PUSH1 0x1 PUSH1 0x1 PUSH1 0xA0 SHL SUB SWAP2 DUP3 AND SWAP2 PUSH4 0x95EA7B3 SWAP2 PUSH1 0x1 PUSH1 0x20 SHL SWAP1 DIV AND PUSH2 0x1B36 DUP6 PUSH1 0x2 PUSH2 0x354A JUMP JUMPDEST PUSH1 0x40 MLOAD PUSH1 0x1 PUSH1 0x1 PUSH1 0xE0 SHL SUB NOT PUSH1 0xE0 DUP6 SWAP1 SHL AND DUP2 MSTORE PUSH1 0x1 PUSH1 0x1 PUSH1 0xA0 SHL SUB SWAP1 SWAP3 AND PUSH1 0x4 DUP4 ADD MSTORE PUSH1 0x24 DUP3 ADD MSTORE PUSH1 0x44 ADD PUSH1 0x20 PUSH1 0x40 MLOAD DUP1 DUP4 SUB DUP2 PUSH1 0x0 DUP8 GAS CALL ISZERO DUP1 ISZERO PUSH2 0x1B81 JUMPI RETURNDATASIZE PUSH1 0x0 DUP1 RETURNDATACOPY RETURNDATASIZE PUSH1 0x0 REVERT JUMPDEST POP POP POP POP PUSH1 0x40 MLOAD RETURNDATASIZE PUSH1 0x1F NOT PUSH1 0x1F DUP3 ADD AND DUP3 ADD DUP1 PUSH1 0x40 MSTORE POP DUP2 ADD SWAP1 PUSH2 0x1BA5 SWAP2 SWAP1 PUSH2 0x3569 JUMP JUMPDEST POP PUSH1 0x0 DUP7 DUP2 MSTORE PUSH1 0x9 PUSH1 0x20 MSTORE PUSH1 0x40 SWAP1 KECCAK256 DUP1 SLOAD PUSH1 0x1 SWAP1 DUP2 LT PUSH2 0x1BC7 JUMPI PUSH2 0x1BC7 PUSH2 0x36DF JUMP JUMPDEST PUSH1 0x0 SWAP2 DUP3 MSTORE PUSH1 0x20 SWAP1 SWAP2 KECCAK256 ADD SLOAD PUSH1 0x8 DUP5 ADD SLOAD PUSH1 0x1 PUSH1 0x1 PUSH1 0xA0 SHL SUB SWAP2 DUP3 AND SWAP2 PUSH4 0x95EA7B3 SWAP2 PUSH1 0x1 PUSH1 0x20 SHL SWAP1 DIV AND PUSH2 0x1BFD DUP5 PUSH1 0x2 PUSH2 0x354A JUMP JUMPDEST PUSH1 0x40 MLOAD PUSH1 0x1 PUSH1 0x1 PUSH1 0xE0 SHL SUB NOT PUSH1 0xE0 DUP6 SWAP1 SHL AND DUP2 MSTORE PUSH1 0x1 PUSH1 0x1 PUSH1 0xA0 SHL SUB SWAP1 SWAP3 AND PUSH1 0x4 DUP4 ADD MSTORE PUSH1 0x24 DUP3 ADD MSTORE PUSH1 0x44 ADD PUSH1 0x20 PUSH1 0x40 MLOAD DUP1 DUP4 SUB DUP2 PUSH1 0x0 DUP8 GAS CALL ISZERO DUP1 ISZERO PUSH2 0x1C48 JUMPI RETURNDATASIZE PUSH1 0x0 DUP1 RETURNDATACOPY RETURNDATASIZE PUSH1 0x0 REVERT JUMPDEST POP POP POP POP PUSH1 0x40 MLOAD RETURNDATASIZE PUSH1 0x1F NOT PUSH1 0x1F DUP3 ADD AND DUP3 ADD DUP1 PUSH1 0x40 MSTORE POP DUP2 ADD SWAP1 PUSH2 0x1C6C SWAP2 SWAP1 PUSH2 0x3569 JUMP JUMPDEST POP PUSH1 0x8 DUP4 ADD SLOAD PUSH3 0x10000 SWAP1 DIV PUSH1 0xFF AND ISZERO PUSH2 0x1D01 JUMPI PUSH1 0x8 DUP4 ADD SLOAD PUSH1 0x0 DUP8 DUP2 MSTORE PUSH1 0xA PUSH1 0x20 MSTORE PUSH1 0x40 DUP1 DUP3 KECCAK256 SWAP1 MLOAD PUSH4 0x791AC947 PUSH1 0xE0 SHL DUP2 MSTORE PUSH1 0x1 PUSH1 0x20 SHL SWAP1 SWAP4 DIV PUSH1 0x1 PUSH1 0x1 PUSH1 0xA0 SHL SUB AND SWAP3 PUSH4 0x791AC947 SWAP3 PUSH2 0x1CCA SWAP3 DUP8 SWAP3 ADDRESS SWAP1 TIMESTAMP SWAP1 PUSH1 0x4 ADD PUSH2 0x35CF JUMP JUMPDEST PUSH1 0x0 PUSH1 0x40 MLOAD DUP1 DUP4 SUB DUP2 PUSH1 0x0 DUP8 DUP1 EXTCODESIZE ISZERO DUP1 ISZERO PUSH2 0x1CE4 JUMPI PUSH1 0x0 DUP1 REVERT JUMPDEST POP GAS CALL ISZERO DUP1 ISZERO PUSH2 0x1CF8 JUMPI RETURNDATASIZE PUSH1 0x0 DUP1 RETURNDATACOPY RETURNDATASIZE PUSH1 0x0 REVERT JUMPDEST POP POP POP POP PUSH2 0x1D94 JUMP JUMPDEST PUSH1 0x8 DUP4 ADD SLOAD PUSH1 0x0 DUP8 DUP2 MSTORE PUSH1 0xA PUSH1 0x20 MSTORE PUSH1 0x40 DUP1 DUP3 KECCAK256 SWAP1 MLOAD PUSH4 0x18CBAFE5 PUSH1 0xE0 SHL DUP2 MSTORE PUSH1 0x1 PUSH1 0x20 SHL SWAP1 SWAP4 DIV PUSH1 0x1 PUSH1 0x1 PUSH1 0xA0 SHL SUB AND SWAP3 PUSH4 0x18CBAFE5 SWAP3 PUSH2 0x1D4B SWAP3 DUP8 SWAP3 ADDRESS SWAP1 TIMESTAMP SWAP1 PUSH1 0x4 ADD PUSH2 0x35CF JUMP JUMPDEST PUSH1 0x0 PUSH1 0x40 MLOAD DUP1 DUP4 SUB DUP2 PUSH1 0x0 DUP8 GAS CALL ISZERO DUP1 ISZERO PUSH2 0x1D6A JUMPI RETURNDATASIZE PUSH1 0x0 DUP1 RETURNDATACOPY RETURNDATASIZE PUSH1 0x0 REVERT JUMPDEST POP POP POP POP PUSH1 0x40 MLOAD RETURNDATASIZE PUSH1 0x0 DUP3 RETURNDATACOPY PUSH1 0x1F RETURNDATASIZE SWAP1 DUP2 ADD PUSH1 0x1F NOT AND DUP3 ADD PUSH1 0x40 MSTORE PUSH2 0x1D92 SWAP2 SWAP1 DUP2 ADD SWAP1 PUSH2 0x3621 JUMP JUMPDEST POP JUMPDEST PUSH1 0x8 DUP4 ADD SLOAD PUSH4 0x1000000 SWAP1 DIV PUSH1 0xFF AND ISZERO PUSH2 0x1E29 JUMPI PUSH1 0x8 DUP4 ADD SLOAD PUSH1 0x0 DUP8 DUP2 MSTORE PUSH1 0xB PUSH1 0x20 MSTORE PUSH1 0x40 DUP1 DUP3 KECCAK256 SWAP1 MLOAD PUSH4 0x791AC947 PUSH1 0xE0 SHL DUP2 MSTORE PUSH1 0x1 PUSH1 0x20 SHL SWAP1 SWAP4 DIV PUSH1 0x1 PUSH1 0x1 PUSH1 0xA0 SHL SUB AND SWAP3 PUSH4 0x791AC947 SWAP3 PUSH2 0x1DF2 SWAP3 DUP7 SWAP3 ADDRESS SWAP1 TIMESTAMP SWAP1 PUSH1 0x4 ADD PUSH2 0x35CF JUMP JUMPDEST PUSH1 0x0 PUSH1 0x40 MLOAD DUP1 DUP4 SUB DUP2 PUSH1 0x0 DUP8 DUP1 EXTCODESIZE ISZERO DUP1 ISZERO PUSH2 0x1E0C JUMPI PUSH1 0x0 DUP1 REVERT JUMPDEST POP GAS CALL ISZERO DUP1 ISZERO PUSH2 0x1E20 JUMPI RETURNDATASIZE PUSH1 0x0 DUP1 RETURNDATACOPY RETURNDATASIZE PUSH1 0x0 REVERT JUMPDEST POP POP POP POP PUSH2 0x1EBC JUMP JUMPDEST PUSH1 0x8 DUP4 ADD SLOAD PUSH1 0x0 DUP8 DUP2 MSTORE PUSH1 0xB PUSH1 0x20 MSTORE PUSH1 0x40 DUP1 DUP3 KECCAK256 SWAP1 MLOAD PUSH4 0x18CBAFE5 PUSH1 0xE0 SHL DUP2 MSTORE PUSH1 0x1 PUSH1 0x20 SHL SWAP1 SWAP4 DIV PUSH1 0x1 PUSH1 0x1 PUSH1 0xA0 SHL SUB AND SWAP3 PUSH4 0x18CBAFE5 SWAP3 PUSH2 0x1E73 SWAP3 DUP7 SWAP3 ADDRESS SWAP1 TIMESTAMP SWAP1 PUSH1 0x4 ADD PUSH2 0x35CF JUMP JUMPDEST PUSH1 0x0 PUSH1 0x40 MLOAD DUP1 DUP4 SUB DUP2 PUSH1 0x0 DUP8 GAS CALL ISZERO DUP1 ISZERO PUSH2 0x1E92 JUMPI RETURNDATASIZE PUSH1 0x0 DUP1 RETURNDATACOPY RETURNDATASIZE PUSH1 0x0 REVERT JUMPDEST POP POP POP POP PUSH1 0x40 MLOAD RETURNDATASIZE PUSH1 0x0 DUP3 RETURNDATACOPY PUSH1 0x1F RETURNDATASIZE SWAP1 DUP2 ADD PUSH1 0x1F NOT AND DUP3 ADD PUSH1 0x40 MSTORE PUSH2 0x1EBA SWAP2 SWAP1 DUP2 ADD SWAP1 PUSH2 0x3621 JUMP JUMPDEST POP JUMPDEST SELFBALANCE SWAP4 POP POP POP POP PUSH2 0x1EC9 JUMP JUMPDEST POP JUMPDEST SWAP3 SWAP2 POP POP JUMP JUMPDEST PUSH1 0x0 DUP1 JUMPDEST PUSH1 0x5 DUP2 PUSH1 0xFF AND LT ISZERO PUSH2 0x1EC7 JUMPI DUP3 DUP2 PUSH1 0xFF AND PUSH1 0x5 DUP2 LT PUSH2 0x1EF4 JUMPI PUSH2 0x1EF4 PUSH2 0x36DF JUMP JUMPDEST PUSH1 0x20 MUL ADD CALLDATALOAD DUP3 PUSH2 0x1F04 SWAP2 SWAP1 PUSH2 0x3852 JUMP JUMPDEST SWAP2 POP PUSH1 0x3 DUP2 PUSH1 0xFF AND LT ISZERO PUSH2 0x1F3A JUMPI DUP4 DUP2 PUSH1 0xFF AND PUSH1 0x3 DUP2 LT PUSH2 0x1F27 JUMPI PUSH2 0x1F27 PUSH2 0x36DF JUMP JUMPDEST PUSH1 0x20 MUL ADD CALLDATALOAD DUP3 PUSH2 0x1F37 SWAP2 SWAP1 PUSH2 0x3852 JUMP JUMPDEST SWAP2 POP JUMPDEST DUP1 PUSH2 0x1F44 DUP2 PUSH2 0x386A JUMP JUMPDEST SWAP2 POP POP PUSH2 0x1ED3 JUMP JUMPDEST PUSH1 0x0 DUP1 SLOAD PUSH1 0x1 PUSH1 0x1 PUSH1 0xA0 SHL SUB DUP4 DUP2 AND PUSH1 0x1 PUSH1 0x1 PUSH1 0xA0 SHL SUB NOT DUP4 AND DUP2 OR DUP5 SSTORE PUSH1 0x40 MLOAD SWAP2 SWAP1 SWAP3 AND SWAP3 DUP4 SWAP2 PUSH32 0x8BE0079C531659141344CD1FD0A4F28419497F9722A3DAAFE3B4186F6B6457E0 SWAP2 SWAP1 LOG3 POP POP JUMP JUMPDEST PUSH1 0x0 DUP1 PUSH1 0x0 DUP1 PUSH1 0x0 DUP1 PUSH1 0x0 DUP1 PUSH1 0x0 JUMPDEST PUSH1 0x5 DUP2 PUSH1 0xFF AND LT ISZERO PUSH2 0x20D1 JUMPI DUP10 PUSH1 0x3 ADD DUP2 PUSH1 0xFF AND PUSH1 0x5 DUP2 LT PUSH2 0x1FCF JUMPI PUSH2 0x1FCF PUSH2 0x36DF JUMP JUMPDEST ADD SLOAD PUSH2 0x1FDB SWAP1 DUP9 PUSH2 0x3852 JUMP JUMPDEST SWAP7 POP PUSH1 0x3 DUP2 PUSH1 0xFF AND LT PUSH2 0x2013 JUMPI PUSH1 0x2 DUP11 PUSH1 0x3 ADD DUP3 PUSH1 0xFF AND PUSH1 0x5 DUP2 LT PUSH2 0x2002 JUMPI PUSH2 0x2002 PUSH2 0x36DF JUMP JUMPDEST ADD SLOAD PUSH2 0x200E SWAP2 SWAP1 PUSH2 0x375C JUMP JUMPDEST PUSH2 0x202E JUMP JUMPDEST DUP10 PUSH1 0x3 ADD DUP2 PUSH1 0xFF AND PUSH1 0x5 DUP2 LT PUSH2 0x202B JUMPI PUSH2 0x202B PUSH2 0x36DF JUMP JUMPDEST ADD SLOAD JUMPDEST PUSH2 0x2038 SWAP1 DUP11 PUSH2 0x3852 JUMP JUMPDEST SWAP9 POP PUSH1 0x3 DUP2 PUSH1 0xFF AND LT ISZERO PUSH2 0x20BF JUMPI DUP10 PUSH1 0xFF DUP3 AND PUSH1 0x3 DUP2 LT PUSH2 0x205B JUMPI PUSH2 0x205B PUSH2 0x36DF JUMP JUMPDEST ADD SLOAD PUSH2 0x2067 SWAP1 DUP8 PUSH2 0x3852 JUMP JUMPDEST SWAP6 POP PUSH1 0xFF DUP2 AND ISZERO PUSH2 0x209A JUMPI PUSH1 0x2 DUP11 PUSH1 0xFF DUP4 AND PUSH1 0x3 DUP2 LT PUSH2 0x2089 JUMPI PUSH2 0x2089 PUSH2 0x36DF JUMP JUMPDEST ADD SLOAD PUSH2 0x2095 SWAP2 SWAP1 PUSH2 0x375C JUMP JUMPDEST PUSH2 0x20B2 JUMP JUMPDEST DUP10 PUSH1 0xFF DUP3 AND PUSH1 0x3 DUP2 LT PUSH2 0x20AF JUMPI PUSH2 0x20AF PUSH2 0x36DF JUMP JUMPDEST ADD SLOAD JUMPDEST PUSH2 0x20BC SWAP1 DUP10 PUSH2 0x3852 JUMP JUMPDEST SWAP8 POP JUMPDEST DUP1 PUSH2 0x20C9 DUP2 PUSH2 0x386A JUMP JUMPDEST SWAP2 POP POP PUSH2 0x1FAB JUMP JUMPDEST POP PUSH1 0x1 SLOAD PUSH1 0x40 DUP1 MLOAD PUSH4 0x15AB88C9 PUSH1 0xE3 SHL DUP2 MSTORE SWAP1 MLOAD PUSH1 0x60 SWAP3 PUSH1 0x1 PUSH1 0x1 PUSH1 0xA0 SHL SUB AND SWAP2 PUSH4 0xAD5C4648 SWAP2 PUSH1 0x4 DUP1 DUP4 ADD SWAP3 PUSH1 0x20 SWAP3 SWAP2 SWAP1 DUP3 SWAP1 SUB ADD DUP2 DUP7 GAS STATICCALL ISZERO DUP1 ISZERO PUSH2 0x211C JUMPI RETURNDATASIZE PUSH1 0x0 DUP1 RETURNDATACOPY RETURNDATASIZE PUSH1 0x0 REVERT JUMPDEST POP POP POP POP PUSH1 0x40 MLOAD RETURNDATASIZE PUSH1 0x1F NOT PUSH1 0x1F DUP3 ADD AND DUP3 ADD DUP1 PUSH1 0x40 MSTORE POP DUP2 ADD SWAP1 PUSH2 0x2140 SWAP2 SWAP1 PUSH2 0x377E JUMP JUMPDEST DUP2 PUSH1 0x0 DUP2 MLOAD DUP2 LT PUSH2 0x2153 JUMPI PUSH2 0x2153 PUSH2 0x36DF JUMP JUMPDEST PUSH1 0x20 MUL PUSH1 0x20 ADD ADD SWAP1 PUSH1 0x1 PUSH1 0x1 PUSH1 0xA0 SHL SUB AND SWAP1 DUP2 PUSH1 0x1 PUSH1 0x1 PUSH1 0xA0 SHL SUB AND DUP2 MSTORE POP POP PUSH32 0x0 DUP2 PUSH1 0x1 DUP2 MLOAD DUP2 LT PUSH2 0x21A7 JUMPI PUSH2 0x21A7 PUSH2 0x36DF JUMP JUMPDEST PUSH1 0x1 PUSH1 0x1 PUSH1 0xA0 SHL SUB SWAP1 SWAP3 AND PUSH1 0x20 SWAP3 DUP4 MUL SWAP2 SWAP1 SWAP2 ADD SWAP1 SWAP2 ADD MSTORE DUP7 ISZERO PUSH2 0x22AF JUMPI PUSH2 0x2710 PUSH2 0x21D2 DUP9 SELFBALANCE PUSH2 0x354A JUMP JUMPDEST PUSH2 0x21DC SWAP2 SWAP1 PUSH2 0x375C JUMP JUMPDEST SWAP5 POP DUP7 PUSH2 0x21E9 DUP11 DUP8 PUSH2 0x354A JUMP JUMPDEST PUSH2 0x21F3 SWAP2 SWAP1 PUSH2 0x375C JUMP JUMPDEST PUSH1 0x1 SLOAD PUSH1 0x40 MLOAD PUSH4 0x7FF36AB5 PUSH1 0xE0 SHL DUP2 MSTORE SWAP2 SWAP5 POP PUSH1 0x1 PUSH1 0x1 PUSH1 0xA0 SHL SUB AND SWAP1 PUSH4 0x7FF36AB5 SWAP1 DUP6 SWAP1 PUSH2 0x222D SWAP1 PUSH1 0x0 SWAP1 DUP7 SWAP1 ADDRESS SWAP1 TIMESTAMP SWAP1 PUSH1 0x4 ADD PUSH2 0x388A JUMP JUMPDEST PUSH1 0x0 PUSH1 0x40 MLOAD DUP1 DUP4 SUB DUP2 DUP6 DUP9 GAS CALL ISZERO DUP1 ISZERO PUSH2 0x224B JUMPI RETURNDATASIZE PUSH1 0x0 DUP1 RETURNDATACOPY RETURNDATASIZE PUSH1 0x0 REVERT JUMPDEST POP POP POP POP POP PUSH1 0x40 MLOAD RETURNDATASIZE PUSH1 0x0 DUP3 RETURNDATACOPY PUSH1 0x1F RETURNDATASIZE SWAP1 DUP2 ADD PUSH1 0x1F NOT AND DUP3 ADD PUSH1 0x40 MSTORE PUSH2 0x2274 SWAP2 SWAP1 DUP2 ADD SWAP1 PUSH2 0x3621 JUMP JUMPDEST POP PUSH2 0x227F DUP4 DUP7 PUSH2 0x38BF JUMP JUMPDEST SWAP5 POP PUSH2 0x22AF PUSH32 0x0 DUP12 DUP10 PUSH1 0x0 DUP10 PUSH2 0x278C JUMP JUMPDEST DUP6 ISZERO PUSH2 0x23E1 JUMPI PUSH2 0x2710 PUSH2 0x22C2 DUP8 SELFBALANCE PUSH2 0x354A JUMP JUMPDEST PUSH2 0x22CC SWAP2 SWAP1 PUSH2 0x375C JUMP JUMPDEST SWAP4 POP DUP6 PUSH2 0x22D9 DUP10 DUP7 PUSH2 0x354A JUMP JUMPDEST PUSH2 0x22E3 SWAP2 SWAP1 PUSH2 0x375C JUMP JUMPDEST SWAP2 POP PUSH2 0x22EF DUP3 DUP6 PUSH2 0x38BF JUMP JUMPDEST SWAP4 POP PUSH32 0x0 DUP2 PUSH1 0x1 DUP2 MLOAD DUP2 LT PUSH2 0x2325 JUMPI PUSH2 0x2325 PUSH2 0x36DF JUMP JUMPDEST PUSH1 0x1 PUSH1 0x1 PUSH1 0xA0 SHL SUB SWAP3 DUP4 AND PUSH1 0x20 SWAP2 DUP3 MUL SWAP3 SWAP1 SWAP3 ADD ADD MSTORE PUSH1 0x1 SLOAD PUSH1 0x40 MLOAD PUSH4 0x7FF36AB5 PUSH1 0xE0 SHL DUP2 MSTORE SWAP2 AND SWAP1 PUSH4 0x7FF36AB5 SWAP1 DUP5 SWAP1 PUSH2 0x236B SWAP1 PUSH1 0x0 SWAP1 DUP7 SWAP1 ADDRESS SWAP1 TIMESTAMP SWAP1 PUSH1 0x4 ADD PUSH2 0x388A JUMP JUMPDEST PUSH1 0x0 PUSH1 0x40 MLOAD DUP1 DUP4 SUB DUP2 DUP6 DUP9 GAS CALL ISZERO DUP1 ISZERO PUSH2 0x2389 JUMPI RETURNDATASIZE PUSH1 0x0 DUP1 RETURNDATACOPY RETURNDATASIZE PUSH1 0x0 REVERT JUMPDEST POP POP POP POP POP PUSH1 0x40 MLOAD RETURNDATASIZE PUSH1 0x0 DUP3 RETURNDATACOPY PUSH1 0x1F RETURNDATASIZE SWAP1 DUP2 ADD PUSH1 0x1F NOT AND DUP3 ADD PUSH1 0x40 MSTORE PUSH2 0x23B2 SWAP2 SWAP1 DUP2 ADD SWAP1 PUSH2 0x3621 JUMP JUMPDEST POP PUSH2 0x23E1 PUSH32 0x0 DUP12 DUP9 PUSH1 0x1 DUP9 PUSH2 0x278C JUMP JUMPDEST SELFBALANCE DUP1 ISZERO PUSH2 0x247C JUMPI PUSH1 0x4 SLOAD PUSH1 0x40 MLOAD PUSH1 0x0 SWAP2 PUSH1 0x1 PUSH1 0x1 PUSH1 0xA0 SHL SUB AND SWAP1 DUP4 SWAP1 DUP4 DUP2 DUP2 DUP2 DUP6 DUP8 GAS CALL SWAP3 POP POP POP RETURNDATASIZE DUP1 PUSH1 0x0 DUP2 EQ PUSH2 0x2435 JUMPI PUSH1 0x40 MLOAD SWAP2 POP PUSH1 0x1F NOT PUSH1 0x3F RETURNDATASIZE ADD AND DUP3 ADD PUSH1 0x40 MSTORE RETURNDATASIZE DUP3 MSTORE RETURNDATASIZE PUSH1 0x0 PUSH1 0x20 DUP5 ADD RETURNDATACOPY PUSH2 0x243A JUMP JUMPDEST PUSH1 0x60 SWAP2 POP JUMPDEST POP POP PUSH1 0x40 DUP1 MLOAD DUP3 ISZERO ISZERO DUP2 MSTORE PUSH1 0x20 DUP2 ADD DUP6 SWAP1 MSTORE SWAP2 SWAP3 POP PUSH32 0x7526D8EDF9D8774140EAC835A1CEC043D347DB7C1C24C83A3449977A0C61CA5B SWAP2 ADD PUSH1 0x40 MLOAD DUP1 SWAP2 SUB SWAP1 LOG1 POP JUMPDEST POP POP POP POP POP POP POP POP POP POP POP JUMP JUMPDEST PUSH1 0x0 PUSH2 0x24DE DUP3 PUSH1 0x40 MLOAD DUP1 PUSH1 0x40 ADD PUSH1 0x40 MSTORE DUP1 PUSH1 0x20 DUP2 MSTORE PUSH1 0x20 ADD PUSH32 0x5361666545524332303A206C6F772D6C6576656C2063616C6C206661696C6564 DUP2 MSTORE POP DUP6 PUSH1 0x1 PUSH1 0x1 PUSH1 0xA0 SHL SUB AND PUSH2 0x2E99 SWAP1 SWAP3 SWAP2 SWAP1 PUSH4 0xFFFFFFFF AND JUMP JUMPDEST DUP1 MLOAD SWAP1 SWAP2 POP ISZERO PUSH2 0x255B JUMPI DUP1 DUP1 PUSH1 0x20 ADD SWAP1 MLOAD DUP2 ADD SWAP1 PUSH2 0x24FC SWAP2 SWAP1 PUSH2 0x3569 JUMP JUMPDEST PUSH2 0x255B JUMPI PUSH1 0x40 MLOAD PUSH3 0x461BCD PUSH1 0xE5 SHL DUP2 MSTORE PUSH1 0x20 PUSH1 0x4 DUP3 ADD MSTORE PUSH1 0x2A PUSH1 0x24 DUP3 ADD MSTORE PUSH32 0x5361666545524332303A204552433230206F7065726174696F6E20646964206E PUSH1 0x44 DUP3 ADD MSTORE PUSH10 0x1BDD081CDD58D8D95959 PUSH1 0xB2 SHL PUSH1 0x64 DUP3 ADD MSTORE PUSH1 0x84 ADD PUSH2 0x6C1 JUMP JUMPDEST POP POP POP JUMP JUMPDEST PUSH1 0x0 PUSH1 0x60 PUSH1 0x0 PUSH1 0x1 PUSH1 0x0 SWAP1 SLOAD SWAP1 PUSH2 0x100 EXP SWAP1 DIV PUSH1 0x1 PUSH1 0x1 PUSH1 0xA0 SHL SUB AND PUSH1 0x1 PUSH1 0x1 PUSH1 0xA0 SHL SUB AND PUSH4 0xAD5C4648 PUSH1 0x40 MLOAD DUP2 PUSH4 0xFFFFFFFF AND PUSH1 0xE0 SHL DUP2 MSTORE PUSH1 0x4 ADD PUSH1 0x20 PUSH1 0x40 MLOAD DUP1 DUP4 SUB DUP2 DUP7 GAS STATICCALL ISZERO DUP1 ISZERO PUSH2 0x25B9 JUMPI RETURNDATASIZE PUSH1 0x0 DUP1 RETURNDATACOPY RETURNDATASIZE PUSH1 0x0 REVERT JUMPDEST POP POP POP POP PUSH1 0x40 MLOAD RETURNDATASIZE PUSH1 0x1F NOT PUSH1 0x1F DUP3 ADD AND DUP3 ADD DUP1 PUSH1 0x40 MSTORE POP DUP2 ADD SWAP1 PUSH2 0x25DD SWAP2 SWAP1 PUSH2 0x377E JUMP JUMPDEST PUSH1 0x1 PUSH1 0x1 PUSH1 0xA0 SHL SUB AND PUSH1 0x9 PUSH1 0x0 DUP7 DUP2 MSTORE PUSH1 0x20 ADD SWAP1 DUP2 MSTORE PUSH1 0x20 ADD PUSH1 0x0 KECCAK256 PUSH1 0x0 DUP2 SLOAD DUP2 LT PUSH2 0x260B JUMPI PUSH2 0x260B PUSH2 0x36DF JUMP JUMPDEST PUSH1 0x0 SWAP2 DUP3 MSTORE PUSH1 0x20 SWAP1 SWAP2 KECCAK256 ADD SLOAD PUSH1 0x1 PUSH1 0x1 PUSH1 0xA0 SHL SUB AND EQ PUSH2 0x26E9 JUMPI PUSH1 0x0 DUP5 DUP2 MSTORE PUSH1 0x9 PUSH1 0x20 MSTORE PUSH1 0x40 DUP2 KECCAK256 DUP1 SLOAD SWAP1 SWAP2 SWAP1 PUSH2 0x2644 JUMPI PUSH2 0x2644 PUSH2 0x36DF JUMP JUMPDEST PUSH1 0x0 SWAP2 DUP3 MSTORE PUSH1 0x20 DUP1 DUP4 KECCAK256 SWAP1 SWAP2 ADD SLOAD DUP7 DUP4 MSTORE PUSH1 0xA DUP3 MSTORE PUSH1 0x40 SWAP3 DUP4 SWAP1 KECCAK256 DUP1 SLOAD DUP5 MLOAD DUP2 DUP6 MUL DUP2 ADD DUP6 ADD SWAP1 SWAP6 MSTORE DUP1 DUP6 MSTORE PUSH1 0x1 PUSH1 0x1 PUSH1 0xA0 SHL SUB SWAP1 SWAP3 AND SWAP7 POP SWAP2 DUP4 ADD DUP3 DUP3 DUP1 ISZERO PUSH2 0x26B7 JUMPI PUSH1 0x20 MUL DUP3 ADD SWAP2 SWAP1 PUSH1 0x0 MSTORE PUSH1 0x20 PUSH1 0x0 KECCAK256 SWAP1 JUMPDEST DUP2 SLOAD PUSH1 0x1 PUSH1 0x1 PUSH1 0xA0 SHL SUB AND DUP2 MSTORE PUSH1 0x1 SWAP1 SWAP2 ADD SWAP1 PUSH1 0x20 ADD DUP1 DUP4 GT PUSH2 0x2699 JUMPI JUMPDEST POP POP POP POP POP SWAP2 POP PUSH1 0x8 PUSH1 0x0 DUP6 DUP2 MSTORE PUSH1 0x20 ADD SWAP1 DUP2 MSTORE PUSH1 0x20 ADD PUSH1 0x0 KECCAK256 PUSH1 0x8 ADD PUSH1 0x2 SWAP1 SLOAD SWAP1 PUSH2 0x100 EXP SWAP1 DIV PUSH1 0xFF AND SWAP1 POP PUSH2 0x2785 JUMP JUMPDEST PUSH1 0x0 DUP5 DUP2 MSTORE PUSH1 0x9 PUSH1 0x20 MSTORE PUSH1 0x40 SWAP1 KECCAK256 DUP1 SLOAD PUSH1 0x1 SWAP1 DUP2 LT PUSH2 0x270A JUMPI PUSH2 0x270A PUSH2 0x36DF JUMP JUMPDEST PUSH1 0x0 SWAP2 DUP3 MSTORE PUSH1 0x20 DUP1 DUP4 KECCAK256 SWAP1 SWAP2 ADD SLOAD DUP7 DUP4 MSTORE PUSH1 0xB DUP3 MSTORE PUSH1 0x40 SWAP3 DUP4 SWAP1 KECCAK256 DUP1 SLOAD DUP5 MLOAD DUP2 DUP6 MUL DUP2 ADD DUP6 ADD SWAP1 SWAP6 MSTORE DUP1 DUP6 MSTORE PUSH1 0x1 PUSH1 0x1 PUSH1 0xA0 SHL SUB SWAP1 SWAP3 AND SWAP7 POP SWAP2 DUP4 ADD DUP3 DUP3 DUP1 ISZERO PUSH2 0x277D JUMPI PUSH1 0x20 MUL DUP3 ADD SWAP2 SWAP1 PUSH1 0x0 MSTORE PUSH1 0x20 PUSH1 0x0 KECCAK256 SWAP1 JUMPDEST DUP2 SLOAD PUSH1 0x1 PUSH1 0x1 PUSH1 0xA0 SHL SUB AND DUP2 MSTORE PUSH1 0x1 SWAP1 SWAP2 ADD SWAP1 PUSH1 0x20 ADD DUP1 DUP4 GT PUSH2 0x275F JUMPI JUMPDEST POP POP POP POP POP SWAP2 POP JUMPDEST SWAP2 SWAP4 SWAP1 SWAP3 POP JUMP JUMPDEST PUSH1 0x40 MLOAD PUSH4 0x70A08231 PUSH1 0xE0 SHL DUP2 MSTORE ADDRESS PUSH1 0x4 DUP3 ADD MSTORE DUP6 SWAP1 PUSH1 0x0 SWAP1 PUSH1 0x1 PUSH1 0x1 PUSH1 0xA0 SHL SUB DUP4 AND SWAP1 PUSH4 0x70A08231 SWAP1 PUSH1 0x24 ADD PUSH1 0x20 PUSH1 0x40 MLOAD DUP1 DUP4 SUB DUP2 DUP7 GAS STATICCALL ISZERO DUP1 ISZERO PUSH2 0x27D5 JUMPI RETURNDATASIZE PUSH1 0x0 DUP1 RETURNDATACOPY RETURNDATASIZE PUSH1 0x0 REVERT JUMPDEST POP POP POP POP PUSH1 0x40 MLOAD RETURNDATASIZE PUSH1 0x1F NOT PUSH1 0x1F DUP3 ADD AND DUP3 ADD DUP1 PUSH1 0x40 MSTORE POP DUP2 ADD SWAP1 PUSH2 0x27F9 SWAP2 SWAP1 PUSH2 0x351B JUMP JUMPDEST SWAP1 POP PUSH1 0x0 DUP5 PUSH2 0x280C JUMPI PUSH1 0x3 DUP8 ADD SLOAD PUSH2 0x280F JUMP JUMPDEST DUP7 SLOAD JUMPDEST SWAP1 POP PUSH1 0x0 DUP7 PUSH2 0x281E DUP4 DUP6 PUSH2 0x354A JUMP JUMPDEST PUSH2 0x2828 SWAP2 SWAP1 PUSH2 0x375C JUMP JUMPDEST SWAP1 POP DUP1 ISZERO PUSH2 0x288B JUMPI PUSH1 0x40 MLOAD PUSH4 0x852CD8D PUSH1 0xE3 SHL DUP2 MSTORE PUSH1 0x4 DUP2 ADD DUP3 SWAP1 MSTORE PUSH1 0x1 PUSH1 0x1 PUSH1 0xA0 SHL SUB DUP6 AND SWAP1 PUSH4 0x42966C68 SWAP1 PUSH1 0x24 ADD PUSH1 0x0 PUSH1 0x40 MLOAD DUP1 DUP4 SUB DUP2 PUSH1 0x0 DUP8 DUP1 EXTCODESIZE ISZERO DUP1 ISZERO PUSH2 0x2872 JUMPI PUSH1 0x0 DUP1 REVERT JUMPDEST POP GAS CALL ISZERO DUP1 ISZERO PUSH2 0x2886 JUMPI RETURNDATASIZE PUSH1 0x0 DUP1 RETURNDATACOPY RETURNDATASIZE PUSH1 0x0 REVERT JUMPDEST POP POP POP POP JUMPDEST DUP6 PUSH2 0x289A JUMPI PUSH1 0x4 DUP9 ADD SLOAD PUSH2 0x289D JUMP JUMPDEST PUSH1 0x0 JUMPDEST SWAP2 POP DUP7 PUSH2 0x28AA DUP4 DUP6 PUSH2 0x354A JUMP JUMPDEST PUSH2 0x28B4 SWAP2 SWAP1 PUSH2 0x375C JUMP JUMPDEST SWAP1 POP DUP1 ISZERO PUSH2 0x29E2 JUMPI PUSH1 0x1 PUSH1 0x1 PUSH1 0xA0 SHL SUB DUP5 AND PUSH4 0x95EA7B3 PUSH32 0x0 PUSH2 0x28F7 DUP5 PUSH1 0x2 PUSH2 0x354A JUMP JUMPDEST PUSH1 0x40 MLOAD PUSH1 0x1 PUSH1 0x1 PUSH1 0xE0 SHL SUB NOT PUSH1 0xE0 DUP6 SWAP1 SHL AND DUP2 MSTORE PUSH1 0x1 PUSH1 0x1 PUSH1 0xA0 SHL SUB SWAP1 SWAP3 AND PUSH1 0x4 DUP4 ADD MSTORE PUSH1 0x24 DUP3 ADD MSTORE PUSH1 0x44 ADD PUSH1 0x20 PUSH1 0x40 MLOAD DUP1 DUP4 SUB DUP2 PUSH1 0x0 DUP8 GAS CALL ISZERO DUP1 ISZERO PUSH2 0x2942 JUMPI RETURNDATASIZE PUSH1 0x0 DUP1 RETURNDATACOPY RETURNDATASIZE PUSH1 0x0 REVERT JUMPDEST POP POP POP POP PUSH1 0x40 MLOAD RETURNDATASIZE PUSH1 0x1F NOT PUSH1 0x1F DUP3 ADD AND DUP3 ADD DUP1 PUSH1 0x40 MSTORE POP DUP2 ADD SWAP1 PUSH2 0x2966 SWAP2 SWAP1 PUSH2 0x3569 JUMP JUMPDEST POP PUSH1 0x40 MLOAD PUSH4 0x6172858B PUSH1 0xE1 SHL DUP2 MSTORE PUSH1 0x4 DUP2 ADD DUP3 SWAP1 MSTORE PUSH32 0x0 PUSH1 0x1 PUSH1 0x1 PUSH1 0xA0 SHL SUB AND SWAP1 PUSH4 0xC2E50B16 SWAP1 PUSH1 0x24 ADD PUSH1 0x0 PUSH1 0x40 MLOAD DUP1 DUP4 SUB DUP2 PUSH1 0x0 DUP8 DUP1 EXTCODESIZE ISZERO DUP1 ISZERO PUSH2 0x29C9 JUMPI PUSH1 0x0 DUP1 REVERT JUMPDEST POP GAS CALL ISZERO DUP1 ISZERO PUSH2 0x29DD JUMPI RETURNDATASIZE PUSH1 0x0 DUP1 RETURNDATACOPY RETURNDATASIZE PUSH1 0x0 REVERT JUMPDEST POP POP POP POP JUMPDEST DUP6 PUSH2 0x29F1 JUMPI PUSH1 0x5 DUP9 ADD SLOAD PUSH2 0x29F4 JUMP JUMPDEST PUSH1 0x0 JUMPDEST SWAP2 POP DUP7 PUSH2 0x2A01 DUP4 DUP6 PUSH2 0x354A JUMP JUMPDEST PUSH2 0x2A0B SWAP2 SWAP1 PUSH2 0x375C JUMP JUMPDEST SWAP1 POP DUP1 ISZERO PUSH2 0x2B03 JUMPI PUSH1 0x6 SLOAD PUSH1 0x1 PUSH1 0x1 PUSH1 0xA0 SHL SUB DUP1 DUP7 AND SWAP2 PUSH4 0x95EA7B3 SWAP2 AND PUSH2 0x2A34 DUP5 PUSH1 0x2 PUSH2 0x354A JUMP JUMPDEST PUSH1 0x40 MLOAD PUSH1 0x1 PUSH1 0x1 PUSH1 0xE0 SHL SUB NOT PUSH1 0xE0 DUP6 SWAP1 SHL AND DUP2 MSTORE PUSH1 0x1 PUSH1 0x1 PUSH1 0xA0 SHL SUB SWAP1 SWAP3 AND PUSH1 0x4 DUP4 ADD MSTORE PUSH1 0x24 DUP3 ADD MSTORE PUSH1 0x44 ADD PUSH1 0x20 PUSH1 0x40 MLOAD DUP1 DUP4 SUB DUP2 PUSH1 0x0 DUP8 GAS CALL ISZERO DUP1 ISZERO PUSH2 0x2A7F JUMPI RETURNDATASIZE PUSH1 0x0 DUP1 RETURNDATACOPY RETURNDATASIZE PUSH1 0x0 REVERT JUMPDEST POP POP POP POP PUSH1 0x40 MLOAD RETURNDATASIZE PUSH1 0x1F NOT PUSH1 0x1F DUP3 ADD AND DUP3 ADD DUP1 PUSH1 0x40 MSTORE POP DUP2 ADD SWAP1 PUSH2 0x2AA3 SWAP2 SWAP1 PUSH2 0x3569 JUMP JUMPDEST POP PUSH1 0x6 SLOAD PUSH1 0x40 MLOAD PUSH4 0x1C5FC483 PUSH1 0xE0 SHL DUP2 MSTORE PUSH1 0x4 DUP2 ADD DUP4 SWAP1 MSTORE PUSH1 0x1 PUSH1 0x1 PUSH1 0xA0 SHL SUB SWAP1 SWAP2 AND SWAP1 PUSH4 0x1C5FC483 SWAP1 PUSH1 0x24 ADD PUSH1 0x0 PUSH1 0x40 MLOAD DUP1 DUP4 SUB DUP2 PUSH1 0x0 DUP8 DUP1 EXTCODESIZE ISZERO DUP1 ISZERO PUSH2 0x2AEA JUMPI PUSH1 0x0 DUP1 REVERT JUMPDEST POP GAS CALL ISZERO DUP1 ISZERO PUSH2 0x2AFE JUMPI RETURNDATASIZE PUSH1 0x0 DUP1 RETURNDATACOPY RETURNDATASIZE PUSH1 0x0 REVERT JUMPDEST POP POP POP POP JUMPDEST PUSH1 0x40 MLOAD PUSH4 0x70A08231 PUSH1 0xE0 SHL DUP2 MSTORE ADDRESS PUSH1 0x4 DUP3 ADD MSTORE PUSH1 0x1 PUSH1 0x1 PUSH1 0xA0 SHL SUB DUP6 AND SWAP1 PUSH4 0x70A08231 SWAP1 PUSH1 0x24 ADD PUSH1 0x20 PUSH1 0x40 MLOAD DUP1 DUP4 SUB DUP2 DUP7 GAS STATICCALL ISZERO DUP1 ISZERO PUSH2 0x2B47 JUMPI RETURNDATASIZE PUSH1 0x0 DUP1 RETURNDATACOPY RETURNDATASIZE PUSH1 0x0 REVERT JUMPDEST POP POP POP POP PUSH1 0x40 MLOAD RETURNDATASIZE PUSH1 0x1F NOT PUSH1 0x1F DUP3 ADD AND DUP3 ADD DUP1 PUSH1 0x40 MSTORE POP DUP2 ADD SWAP1 PUSH2 0x2B6B SWAP2 SWAP1 PUSH2 0x351B JUMP JUMPDEST SWAP3 POP DUP6 ISZERO PUSH2 0x2B88 JUMPI PUSH2 0x2B80 DUP9 PUSH1 0x3 DUP2 ADD PUSH2 0x2EB2 JUMP JUMPDEST POP SWAP7 POP PUSH2 0x2B99 JUMP JUMPDEST PUSH2 0x2B95 DUP9 PUSH1 0x3 DUP2 ADD PUSH2 0x2EB2 JUMP JUMPDEST SWAP8 POP POP JUMPDEST DUP7 PUSH2 0x2BA7 JUMPI POP POP POP POP PUSH2 0x2E92 JUMP JUMPDEST DUP6 PUSH2 0x2BB6 JUMPI PUSH1 0x6 DUP9 ADD SLOAD PUSH2 0x2BBC JUMP JUMPDEST DUP8 PUSH1 0x1 ADD SLOAD JUMPDEST SWAP2 POP DUP7 PUSH2 0x2BC9 DUP4 DUP6 PUSH2 0x354A JUMP JUMPDEST PUSH2 0x2BD3 SWAP2 SWAP1 PUSH2 0x375C JUMP JUMPDEST SWAP1 POP PUSH1 0x0 DUP8 PUSH2 0x2BE2 DUP5 DUP9 PUSH2 0x354A JUMP JUMPDEST PUSH2 0x2BEC SWAP2 SWAP1 PUSH2 0x375C JUMP JUMPDEST SWAP1 POP DUP2 ISZERO PUSH2 0x2D29 JUMPI PUSH1 0x1 SLOAD PUSH1 0x1 PUSH1 0x1 PUSH1 0xA0 SHL SUB DUP1 DUP8 AND SWAP2 PUSH4 0x95EA7B3 SWAP2 AND PUSH2 0x2C15 DUP6 PUSH1 0x2 PUSH2 0x354A JUMP JUMPDEST PUSH1 0x40 MLOAD PUSH1 0x1 PUSH1 0x1 PUSH1 0xE0 SHL SUB NOT PUSH1 0xE0 DUP6 SWAP1 SHL AND DUP2 MSTORE PUSH1 0x1 PUSH1 0x1 PUSH1 0xA0 SHL SUB SWAP1 SWAP3 AND PUSH1 0x4 DUP4 ADD MSTORE PUSH1 0x24 DUP3 ADD MSTORE PUSH1 0x44 ADD PUSH1 0x20 PUSH1 0x40 MLOAD DUP1 DUP4 SUB DUP2 PUSH1 0x0 DUP8 GAS CALL ISZERO DUP1 ISZERO PUSH2 0x2C60 JUMPI RETURNDATASIZE PUSH1 0x0 DUP1 RETURNDATACOPY RETURNDATASIZE PUSH1 0x0 REVERT JUMPDEST POP POP POP POP PUSH1 0x40 MLOAD RETURNDATASIZE PUSH1 0x1F NOT PUSH1 0x1F DUP3 ADD AND DUP3 ADD DUP1 PUSH1 0x40 MSTORE POP DUP2 ADD SWAP1 PUSH2 0x2C84 SWAP2 SWAP1 PUSH2 0x3569 JUMP JUMPDEST POP PUSH1 0x1 SLOAD PUSH1 0x40 MLOAD PUSH4 0xF305D719 PUSH1 0xE0 SHL DUP2 MSTORE PUSH1 0x1 PUSH1 0x1 PUSH1 0xA0 SHL SUB SWAP1 SWAP2 AND SWAP1 PUSH4 0xF305D719 SWAP1 DUP4 SWAP1 PUSH2 0x2CE2 SWAP1 DUP10 SWAP1 DUP8 SWAP1 PUSH1 0x0 SWAP1 DUP2 SWAP1 PUSH32 0x0 SWAP1 TIMESTAMP SWAP1 PUSH1 0x4 ADD PUSH2 0x379B JUMP JUMPDEST PUSH1 0x60 PUSH1 0x40 MLOAD DUP1 DUP4 SUB DUP2 DUP6 DUP9 GAS CALL ISZERO DUP1 ISZERO PUSH2 0x2D00 JUMPI RETURNDATASIZE PUSH1 0x0 DUP1 RETURNDATACOPY RETURNDATASIZE PUSH1 0x0 REVERT JUMPDEST POP POP POP POP POP PUSH1 0x40 MLOAD RETURNDATASIZE PUSH1 0x1F NOT PUSH1 0x1F DUP3 ADD AND DUP3 ADD DUP1 PUSH1 0x40 MSTORE POP DUP2 ADD SWAP1 PUSH2 0x2D25 SWAP2 SWAP1 PUSH2 0x38D6 JUMP JUMPDEST POP POP POP JUMPDEST DUP7 PUSH2 0x2D38 JUMPI PUSH1 0x7 DUP10 ADD SLOAD PUSH2 0x2D3E JUMP JUMPDEST DUP9 PUSH1 0x2 ADD SLOAD JUMPDEST SWAP3 POP DUP8 PUSH2 0x2D4B DUP5 DUP7 PUSH2 0x354A JUMP JUMPDEST PUSH2 0x2D55 SWAP2 SWAP1 PUSH2 0x375C JUMP JUMPDEST SWAP2 POP DUP8 PUSH2 0x2D62 DUP5 DUP9 PUSH2 0x354A JUMP JUMPDEST PUSH2 0x2D6C SWAP2 SWAP1 PUSH2 0x375C JUMP JUMPDEST SWAP1 POP DUP2 ISZERO PUSH2 0x2E8C JUMPI PUSH1 0x1 SLOAD PUSH1 0x1 PUSH1 0x1 PUSH1 0xA0 SHL SUB DUP1 DUP8 AND SWAP2 PUSH4 0x95EA7B3 SWAP2 AND PUSH2 0x2D95 DUP6 PUSH1 0x2 PUSH2 0x354A JUMP JUMPDEST PUSH1 0x40 MLOAD PUSH1 0x1 PUSH1 0x1 PUSH1 0xE0 SHL SUB NOT PUSH1 0xE0 DUP6 SWAP1 SHL AND DUP2 MSTORE PUSH1 0x1 PUSH1 0x1 PUSH1 0xA0 SHL SUB SWAP1 SWAP3 AND PUSH1 0x4 DUP4 ADD MSTORE PUSH1 0x24 DUP3 ADD MSTORE PUSH1 0x44 ADD PUSH1 0x20 PUSH1 0x40 MLOAD DUP1 DUP4 SUB DUP2 PUSH1 0x0 DUP8 GAS CALL ISZERO DUP1 ISZERO PUSH2 0x2DE0 JUMPI RETURNDATASIZE PUSH1 0x0 DUP1 RETURNDATACOPY RETURNDATASIZE PUSH1 0x0 REVERT JUMPDEST POP POP POP POP PUSH1 0x40 MLOAD RETURNDATASIZE PUSH1 0x1F NOT PUSH1 0x1F DUP3 ADD AND DUP3 ADD DUP1 PUSH1 0x40 MSTORE POP DUP2 ADD SWAP1 PUSH2 0x2E04 SWAP2 SWAP1 PUSH2 0x3569 JUMP JUMPDEST POP PUSH1 0x1 SLOAD PUSH1 0x5 SLOAD PUSH1 0x40 MLOAD PUSH4 0xF305D719 PUSH1 0xE0 SHL DUP2 MSTORE PUSH1 0x1 PUSH1 0x1 PUSH1 0xA0 SHL SUB SWAP3 DUP4 AND SWAP3 PUSH4 0xF305D719 SWAP3 DUP6 SWAP3 PUSH2 0x2E45 SWAP3 DUP12 SWAP3 DUP10 SWAP3 PUSH1 0x0 SWAP3 DUP4 SWAP3 AND SWAP1 TIMESTAMP SWAP1 PUSH1 0x4 ADD PUSH2 0x379B JUMP JUMPDEST PUSH1 0x60 PUSH1 0x40 MLOAD DUP1 DUP4 SUB DUP2 DUP6 DUP9 GAS CALL ISZERO DUP1 ISZERO PUSH2 0x2E63 JUMPI RETURNDATASIZE PUSH1 0x0 DUP1 RETURNDATACOPY RETURNDATASIZE PUSH1 0x0 REVERT JUMPDEST POP POP POP POP POP PUSH1 0x40 MLOAD RETURNDATASIZE PUSH1 0x1F NOT PUSH1 0x1F DUP3 ADD AND DUP3 ADD DUP1 PUSH1 0x40 MSTORE POP DUP2 ADD SWAP1 PUSH2 0x2E88 SWAP2 SWAP1 PUSH2 0x38D6 JUMP JUMPDEST POP POP POP JUMPDEST POP POP POP POP POP JUMPDEST POP POP POP POP POP JUMP JUMPDEST PUSH1 0x60 PUSH2 0x2EA8 DUP5 DUP5 PUSH1 0x0 DUP6 PUSH2 0x2EE8 JUMP JUMPDEST SWAP1 POP JUMPDEST SWAP4 SWAP3 POP POP POP JUMP JUMPDEST PUSH1 0x0 DUP1 DUP4 PUSH1 0x2 ADD SLOAD DUP5 PUSH1 0x1 ADD SLOAD PUSH2 0x2EC9 SWAP2 SWAP1 PUSH2 0x3852 JUMP JUMPDEST SWAP2 POP DUP3 PUSH1 0x4 ADD SLOAD DUP4 PUSH1 0x3 ADD SLOAD PUSH2 0x2EDF SWAP2 SWAP1 PUSH2 0x3852 JUMP JUMPDEST SWAP1 POP SWAP3 POP SWAP3 SWAP1 POP JUMP JUMPDEST PUSH1 0x60 DUP3 SELFBALANCE LT ISZERO PUSH2 0x2F49 JUMPI PUSH1 0x40 MLOAD PUSH3 0x461BCD PUSH1 0xE5 SHL DUP2 MSTORE PUSH1 0x20 PUSH1 0x4 DUP3 ADD MSTORE PUSH1 0x26 PUSH1 0x24 DUP3 ADD MSTORE PUSH32 0x416464726573733A20696E73756666696369656E742062616C616E636520666F PUSH1 0x44 DUP3 ADD MSTORE PUSH6 0x1C8818D85B1B PUSH1 0xD2 SHL PUSH1 0x64 DUP3 ADD MSTORE PUSH1 0x84 ADD PUSH2 0x6C1 JUMP JUMPDEST PUSH1 0x1 PUSH1 0x1 PUSH1 0xA0 SHL SUB DUP6 AND EXTCODESIZE PUSH2 0x2FA0 JUMPI PUSH1 0x40 MLOAD PUSH3 0x461BCD PUSH1 0xE5 SHL DUP2 MSTORE PUSH1 0x20 PUSH1 0x4 DUP3 ADD MSTORE PUSH1 0x1D PUSH1 0x24 DUP3 ADD MSTORE PUSH32 0x416464726573733A2063616C6C20746F206E6F6E2D636F6E7472616374000000 PUSH1 0x44 DUP3 ADD MSTORE PUSH1 0x64 ADD PUSH2 0x6C1 JUMP JUMPDEST PUSH1 0x0 DUP1 DUP7 PUSH1 0x1 PUSH1 0x1 PUSH1 0xA0 SHL SUB AND DUP6 DUP8 PUSH1 0x40 MLOAD PUSH2 0x2FBC SWAP2 SWAP1 PUSH2 0x3930 JUMP JUMPDEST PUSH1 0x0 PUSH1 0x40 MLOAD DUP1 DUP4 SUB DUP2 DUP6 DUP8 GAS CALL SWAP3 POP POP POP RETURNDATASIZE DUP1 PUSH1 0x0 DUP2 EQ PUSH2 0x2FF9 JUMPI PUSH1 0x40 MLOAD SWAP2 POP PUSH1 0x1F NOT PUSH1 0x3F RETURNDATASIZE ADD AND DUP3 ADD PUSH1 0x40 MSTORE RETURNDATASIZE DUP3 MSTORE RETURNDATASIZE PUSH1 0x0 PUSH1 0x20 DUP5 ADD RETURNDATACOPY PUSH2 0x2FFE JUMP JUMPDEST PUSH1 0x60 SWAP2 POP JUMPDEST POP SWAP2 POP SWAP2 POP PUSH2 0x300E DUP3 DUP3 DUP7 PUSH2 0x3019 JUMP JUMPDEST SWAP8 SWAP7 POP POP POP POP POP POP POP JUMP JUMPDEST PUSH1 0x60 DUP4 ISZERO PUSH2 0x3028 JUMPI POP DUP2 PUSH2 0x2EAB JUMP JUMPDEST DUP3 MLOAD ISZERO PUSH2 0x3038 JUMPI DUP3 MLOAD DUP1 DUP5 PUSH1 0x20 ADD REVERT JUMPDEST DUP2 PUSH1 0x40 MLOAD PUSH3 0x461BCD PUSH1 0xE5 SHL DUP2 MSTORE PUSH1 0x4 ADD PUSH2 0x6C1 SWAP2 SWAP1 PUSH2 0x394C JUMP JUMPDEST DUP3 PUSH1 0x3 DUP2 ADD SWAP3 DUP3 ISZERO PUSH2 0x3080 JUMPI SWAP2 PUSH1 0x20 MUL DUP3 ADD JUMPDEST DUP3 DUP2 GT ISZERO PUSH2 0x3080 JUMPI DUP3 MLOAD DUP3 SSTORE SWAP2 PUSH1 0x20 ADD SWAP2 SWAP1 PUSH1 0x1 ADD SWAP1 PUSH2 0x3065 JUMP JUMPDEST POP PUSH2 0x308C SWAP3 SWAP2 POP PUSH2 0x314C JUMP JUMPDEST POP SWAP1 JUMP JUMPDEST DUP3 PUSH1 0x5 DUP2 ADD SWAP3 DUP3 ISZERO PUSH2 0x3080 JUMPI SWAP2 PUSH1 0x20 MUL DUP3 ADD DUP3 DUP2 GT ISZERO PUSH2 0x3080 JUMPI DUP3 MLOAD DUP3 SSTORE SWAP2 PUSH1 0x20 ADD SWAP2 SWAP1 PUSH1 0x1 ADD SWAP1 PUSH2 0x3065 JUMP JUMPDEST DUP3 DUP1 SLOAD DUP3 DUP3 SSTORE SWAP1 PUSH1 0x0 MSTORE PUSH1 0x20 PUSH1 0x0 KECCAK256 SWAP1 DUP2 ADD SWAP3 DUP3 ISZERO PUSH2 0x3080 JUMPI SWAP2 PUSH1 0x20 MUL DUP3 ADD JUMPDEST DUP3 DUP2 GT ISZERO PUSH2 0x3080 JUMPI DUP2 SLOAD PUSH1 0x1 PUSH1 0x1 PUSH1 0xA0 SHL SUB NOT AND PUSH1 0x1 PUSH1 0x1 PUSH1 0xA0 SHL SUB DUP5 CALLDATALOAD AND OR DUP3 SSTORE PUSH1 0x20 SWAP1 SWAP3 ADD SWAP2 PUSH1 0x1 SWAP1 SWAP2 ADD SWAP1 PUSH2 0x30DD JUMP JUMPDEST PUSH1 0x40 MLOAD DUP1 PUSH1 0x60 ADD PUSH1 0x40 MSTORE DUP1 PUSH1 0x3 SWAP1 PUSH1 0x20 DUP3 MUL DUP1 CALLDATASIZE DUP4 CALLDATACOPY POP SWAP2 SWAP3 SWAP2 POP POP JUMP JUMPDEST PUSH1 0x40 MLOAD DUP1 PUSH1 0xA0 ADD PUSH1 0x40 MSTORE DUP1 PUSH1 0x5 SWAP1 PUSH1 0x20 DUP3 MUL DUP1 CALLDATASIZE DUP4 CALLDATACOPY POP SWAP2 SWAP3 SWAP2 POP POP JUMP JUMPDEST JUMPDEST DUP1 DUP3 GT ISZERO PUSH2 0x308C JUMPI PUSH1 0x0 DUP2 SSTORE PUSH1 0x1 ADD PUSH2 0x314D JUMP JUMPDEST PUSH1 0x1 PUSH1 0x1 PUSH1 0xA0 SHL SUB DUP2 AND DUP2 EQ PUSH2 0x13EE JUMPI PUSH1 0x0 DUP1 REVERT JUMPDEST PUSH1 0x0 PUSH1 0x20 DUP3 DUP5 SUB SLT ISZERO PUSH2 0x3188 JUMPI PUSH1 0x0 DUP1 REVERT JUMPDEST DUP2 CALLDATALOAD PUSH2 0x2EAB DUP2 PUSH2 0x3161 JUMP JUMPDEST PUSH1 0x0 PUSH1 0x20 DUP3 DUP5 SUB SLT ISZERO PUSH2 0x31A5 JUMPI PUSH1 0x0 DUP1 REVERT JUMPDEST POP CALLDATALOAD SWAP2 SWAP1 POP JUMP JUMPDEST PUSH1 0x0 DUP1 PUSH1 0x40 DUP4 DUP6 SUB SLT ISZERO PUSH2 0x31BF JUMPI PUSH1 0x0 DUP1 REVERT JUMPDEST POP POP DUP1 CALLDATALOAD SWAP3 PUSH1 0x20 SWAP1 SWAP2 ADD CALLDATALOAD SWAP2 POP JUMP JUMPDEST DUP1 ISZERO ISZERO DUP2 EQ PUSH2 0x13EE JUMPI PUSH1 0x0 DUP1 REVERT JUMPDEST PUSH1 0x0 PUSH1 0x20 DUP3 DUP5 SUB SLT ISZERO PUSH2 0x31EE JUMPI PUSH1 0x0 DUP1 REVERT JUMPDEST DUP2 CALLDATALOAD PUSH2 0x2EAB DUP2 PUSH2 0x31CE JUMP JUMPDEST DUP1 PUSH1 0x60 DUP2 ADD DUP4 LT ISZERO PUSH2 0x1EC9 JUMPI PUSH1 0x0 DUP1 REVERT JUMPDEST DUP1 PUSH1 0xA0 DUP2 ADD DUP4 LT ISZERO PUSH2 0x1EC9 JUMPI PUSH1 0x0 DUP1 REVERT JUMPDEST DUP1 CALLDATALOAD PUSH2 0x3226 DUP2 PUSH2 0x3161 JUMP JUMPDEST SWAP2 SWAP1 POP JUMP JUMPDEST PUSH1 0x0 DUP1 DUP4 PUSH1 0x1F DUP5 ADD SLT PUSH2 0x323D JUMPI PUSH1 0x0 DUP1 REVERT JUMPDEST POP DUP2 CALLDATALOAD PUSH8 0xFFFFFFFFFFFFFFFF DUP2 GT ISZERO PUSH2 0x3255 JUMPI PUSH1 0x0 DUP1 REVERT JUMPDEST PUSH1 0x20 DUP4 ADD SWAP2 POP DUP4 PUSH1 0x20 DUP3 PUSH1 0x5 SHL DUP6 ADD ADD GT ISZERO PUSH2 0x3270 JUMPI PUSH1 0x0 DUP1 REVERT JUMPDEST SWAP3 POP SWAP3 SWAP1 POP JUMP JUMPDEST PUSH1 0x0 DUP1 PUSH1 0x0 DUP1 PUSH1 0x0 DUP1 PUSH1 0x0 DUP1 PUSH1 0x0 DUP1 PUSH1 0x0 PUSH2 0x200 DUP13 DUP15 SUB SLT ISZERO PUSH2 0x3299 JUMPI PUSH1 0x0 DUP1 REVERT JUMPDEST DUP12 CALLDATALOAD SWAP11 POP PUSH2 0x32AA DUP14 PUSH1 0x20 DUP15 ADD PUSH2 0x31F9 JUMP JUMPDEST SWAP10 POP PUSH2 0x32B9 DUP14 PUSH1 0x80 DUP15 ADD PUSH2 0x320A JUMP JUMPDEST SWAP9 POP PUSH2 0x32C9 DUP14 PUSH2 0x120 DUP15 ADD PUSH2 0x31F9 JUMP JUMPDEST SWAP8 POP PUSH2 0x32D8 PUSH2 0x180 DUP14 ADD PUSH2 0x321B JUMP JUMPDEST SWAP7 POP PUSH8 0xFFFFFFFFFFFFFFFF DUP1 PUSH2 0x1A0 DUP15 ADD CALLDATALOAD GT ISZERO PUSH2 0x32F5 JUMPI PUSH1 0x0 DUP1 REVERT JUMPDEST PUSH2 0x3306 DUP15 PUSH2 0x1A0 DUP16 ADD CALLDATALOAD DUP16 ADD PUSH2 0x322B JUMP JUMPDEST SWAP1 SWAP8 POP SWAP6 POP PUSH2 0x1C0 DUP14 ADD CALLDATALOAD DUP2 LT ISZERO PUSH2 0x331D JUMPI PUSH1 0x0 DUP1 REVERT JUMPDEST PUSH2 0x332E DUP15 PUSH2 0x1C0 DUP16 ADD CALLDATALOAD DUP16 ADD PUSH2 0x322B JUMP JUMPDEST SWAP1 SWAP6 POP SWAP4 POP PUSH2 0x1E0 DUP14 ADD CALLDATALOAD DUP2 LT ISZERO PUSH2 0x3345 JUMPI PUSH1 0x0 DUP1 REVERT JUMPDEST POP PUSH2 0x3357 DUP14 PUSH2 0x1E0 DUP15 ADD CALLDATALOAD DUP15 ADD PUSH2 0x322B JUMP JUMPDEST DUP2 SWAP4 POP DUP1 SWAP3 POP POP POP SWAP3 SWAP6 SWAP9 SWAP12 POP SWAP3 SWAP6 SWAP9 SWAP12 SWAP1 SWAP4 SWAP7 SWAP10 POP JUMP JUMPDEST PUSH1 0x0 DUP1 PUSH1 0x0 DUP1 PUSH1 0x0 DUP1 PUSH1 0x0 PUSH1 0x80 DUP9 DUP11 SUB SLT ISZERO PUSH2 0x338A JUMPI PUSH1 0x0 DUP1 REVERT JUMPDEST DUP8 CALLDATALOAD SWAP7 POP PUSH1 0x20 DUP9 ADD CALLDATALOAD PUSH8 0xFFFFFFFFFFFFFFFF DUP1 DUP3 GT ISZERO PUSH2 0x33A9 JUMPI PUSH1 0x0 DUP1 REVERT JUMPDEST PUSH2 0x33B5 DUP12 DUP4 DUP13 ADD PUSH2 0x322B JUMP JUMPDEST SWAP1 SWAP9 POP SWAP7 POP PUSH1 0x40 DUP11 ADD CALLDATALOAD SWAP2 POP DUP1 DUP3 GT ISZERO PUSH2 0x33CE JUMPI PUSH1 0x0 DUP1 REVERT JUMPDEST PUSH2 0x33DA DUP12 DUP4 DUP13 ADD PUSH2 0x322B JUMP JUMPDEST SWAP1 SWAP7 POP SWAP5 POP PUSH1 0x60 DUP11 ADD CALLDATALOAD SWAP2 POP DUP1 DUP3 GT ISZERO PUSH2 0x33F3 JUMPI PUSH1 0x0 DUP1 REVERT JUMPDEST POP PUSH2 0x3400 DUP11 DUP3 DUP12 ADD PUSH2 0x322B JUMP JUMPDEST SWAP9 SWAP12 SWAP8 SWAP11 POP SWAP6 SWAP9 POP SWAP4 SWAP7 SWAP3 SWAP6 SWAP3 SWAP4 POP POP POP JUMP JUMPDEST PUSH2 0x100 DUP2 ADD DUP2 DUP5 PUSH1 0x0 JUMPDEST PUSH1 0x3 DUP2 LT ISZERO PUSH2 0x343C JUMPI DUP2 MLOAD DUP4 MSTORE PUSH1 0x20 SWAP3 DUP4 ADD SWAP3 SWAP1 SWAP2 ADD SWAP1 PUSH1 0x1 ADD PUSH2 0x341D JUMP JUMPDEST POP POP POP PUSH1 0x60 DUP3 ADD DUP4 PUSH1 0x0 JUMPDEST PUSH1 0x5 DUP2 LT ISZERO PUSH2 0x3466 JUMPI DUP2 MLOAD DUP4 MSTORE PUSH1 0x20 SWAP3 DUP4 ADD SWAP3 SWAP1 SWAP2 ADD SWAP1 PUSH1 0x1 ADD PUSH2 0x3447 JUMP JUMPDEST POP POP POP SWAP4 SWAP3 POP POP POP JUMP JUMPDEST PUSH1 0x20 DUP1 DUP3 MSTORE DUP2 DUP2 ADD MSTORE PUSH32 0x4F776E61626C653A2063616C6C6572206973206E6F7420746865206F776E6572 PUSH1 0x40 DUP3 ADD MSTORE PUSH1 0x60 ADD SWAP1 JUMP JUMPDEST PUSH1 0x0 DUP1 PUSH1 0x0 DUP1 PUSH1 0x0 DUP1 PUSH1 0x0 PUSH1 0xE0 DUP9 DUP11 SUB SLT ISZERO PUSH2 0x34C0 JUMPI PUSH1 0x0 DUP1 REVERT JUMPDEST DUP8 MLOAD PUSH2 0x34CB DUP2 PUSH2 0x31CE JUMP JUMPDEST DUP1 SWAP8 POP POP PUSH1 0x20 DUP9 ADD MLOAD SWAP6 POP PUSH1 0x40 DUP9 ADD MLOAD SWAP5 POP PUSH1 0x60 DUP9 ADD MLOAD PUSH2 0x34EB DUP2 PUSH2 0x3161 JUMP JUMPDEST DUP1 SWAP5 POP POP PUSH1 0x80 DUP9 ADD MLOAD SWAP3 POP PUSH1 0xA0 DUP9 ADD MLOAD SWAP2 POP PUSH1 0xC0 DUP9 ADD MLOAD PUSH2 0x350B DUP2 PUSH2 0x31CE JUMP JUMPDEST DUP1 SWAP2 POP POP SWAP3 SWAP6 SWAP9 SWAP2 SWAP5 SWAP8 POP SWAP3 SWAP6 POP JUMP JUMPDEST PUSH1 0x0 PUSH1 0x20 DUP3 DUP5 SUB SLT ISZERO PUSH2 0x352D JUMPI PUSH1 0x0 DUP1 REVERT JUMPDEST POP MLOAD SWAP2 SWAP1 POP JUMP JUMPDEST PUSH4 0x4E487B71 PUSH1 0xE0 SHL PUSH1 0x0 MSTORE PUSH1 0x11 PUSH1 0x4 MSTORE PUSH1 0x24 PUSH1 0x0 REVERT JUMPDEST PUSH1 0x0 DUP2 PUSH1 0x0 NOT DIV DUP4 GT DUP3 ISZERO ISZERO AND ISZERO PUSH2 0x3564 JUMPI PUSH2 0x3564 PUSH2 0x3534 JUMP JUMPDEST POP MUL SWAP1 JUMP JUMPDEST PUSH1 0x0 PUSH1 0x20 DUP3 DUP5 SUB SLT ISZERO PUSH2 0x357B JUMPI PUSH1 0x0 DUP1 REVERT JUMPDEST DUP2 MLOAD PUSH2 0x2EAB DUP2 PUSH2 0x31CE JUMP JUMPDEST PUSH1 0x0 DUP2 SLOAD DUP1 DUP5 MSTORE PUSH1 0x20 DUP1 DUP6 ADD SWAP5 POP DUP4 PUSH1 0x0 MSTORE DUP1 PUSH1 0x0 KECCAK256 PUSH1 0x0 JUMPDEST DUP4 DUP2 LT ISZERO PUSH2 0x35C4 JUMPI DUP2 SLOAD PUSH1 0x1 PUSH1 0x1 PUSH1 0xA0 SHL SUB AND DUP8 MSTORE SWAP6 DUP3 ADD SWAP6 PUSH1 0x1 SWAP2 DUP3 ADD SWAP2 ADD PUSH2 0x359F JUMP JUMPDEST POP SWAP5 SWAP6 SWAP5 POP POP POP POP POP JUMP JUMPDEST DUP6 DUP2 MSTORE DUP5 PUSH1 0x20 DUP3 ADD MSTORE PUSH1 0xA0 PUSH1 0x40 DUP3 ADD MSTORE PUSH1 0x0 PUSH2 0x35EE PUSH1 0xA0 DUP4 ADD DUP7 PUSH2 0x3586 JUMP JUMPDEST PUSH1 0x1 PUSH1 0x1 PUSH1 0xA0 SHL SUB SWAP5 SWAP1 SWAP5 AND PUSH1 0x60 DUP4 ADD MSTORE POP PUSH1 0x80 ADD MSTORE SWAP4 SWAP3 POP POP POP JUMP JUMPDEST PUSH4 0x4E487B71 PUSH1 0xE0 SHL PUSH1 0x0 MSTORE PUSH1 0x41 PUSH1 0x4 MSTORE PUSH1 0x24 PUSH1 0x0 REVERT JUMPDEST PUSH1 0x0 PUSH1 0x20 DUP1 DUP4 DUP6 SUB SLT ISZERO PUSH2 0x3634 JUMPI PUSH1 0x0 DUP1 REVERT JUMPDEST DUP3 MLOAD PUSH8 0xFFFFFFFFFFFFFFFF DUP1 DUP3 GT ISZERO PUSH2 0x364C JUMPI PUSH1 0x0 DUP1 REVERT JUMPDEST DUP2 DUP6 ADD SWAP2 POP DUP6 PUSH1 0x1F DUP4 ADD SLT PUSH2 0x3660 JUMPI PUSH1 0x0 DUP1 REVERT JUMPDEST DUP2 MLOAD DUP2 DUP2 GT ISZERO PUSH2 0x3672 JUMPI PUSH2 0x3672 PUSH2 0x360B JUMP JUMPDEST DUP1 PUSH1 0x5 SHL PUSH1 0x40 MLOAD PUSH1 0x1F NOT PUSH1 0x3F DUP4 ADD AND DUP2 ADD DUP2 DUP2 LT DUP6 DUP3 GT OR ISZERO PUSH2 0x3697 JUMPI PUSH2 0x3697 PUSH2 0x360B JUMP JUMPDEST PUSH1 0x40 MSTORE SWAP2 DUP3 MSTORE DUP5 DUP3 ADD SWAP3 POP DUP4 DUP2 ADD DUP6 ADD SWAP2 DUP9 DUP4 GT ISZERO PUSH2 0x36B5 JUMPI PUSH1 0x0 DUP1 REVERT JUMPDEST SWAP4 DUP6 ADD SWAP4 JUMPDEST DUP3 DUP6 LT ISZERO PUSH2 0x36D3 JUMPI DUP5 MLOAD DUP5 MSTORE SWAP4 DUP6 ADD SWAP4 SWAP3 DUP6 ADD SWAP3 PUSH2 0x36BA JUMP JUMPDEST SWAP9 SWAP8 POP POP POP POP POP POP POP POP JUMP JUMPDEST PUSH4 0x4E487B71 PUSH1 0xE0 SHL PUSH1 0x0 MSTORE PUSH1 0x32 PUSH1 0x4 MSTORE PUSH1 0x24 PUSH1 0x0 REVERT JUMPDEST DUP1 MLOAD PUSH1 0x1 PUSH1 0x1 PUSH1 0x70 SHL SUB DUP2 AND DUP2 EQ PUSH2 0x3226 JUMPI PUSH1 0x0 DUP1 REVERT JUMPDEST PUSH1 0x0 DUP1 PUSH1 0x0 PUSH1 0x60 DUP5 DUP7 SUB SLT ISZERO PUSH2 0x3721 JUMPI PUSH1 0x0 DUP1 REVERT JUMPDEST PUSH2 0x372A DUP5 PUSH2 0x36F5 JUMP JUMPDEST SWAP3 POP PUSH2 0x3738 PUSH1 0x20 DUP6 ADD PUSH2 0x36F5 JUMP JUMPDEST SWAP2 POP PUSH1 0x40 DUP5 ADD MLOAD PUSH4 0xFFFFFFFF DUP2 AND DUP2 EQ PUSH2 0x3751 JUMPI PUSH1 0x0 DUP1 REVERT JUMPDEST DUP1 SWAP2 POP POP SWAP3 POP SWAP3 POP SWAP3 JUMP JUMPDEST PUSH1 0x0 DUP3 PUSH2 0x3779 JUMPI PUSH4 0x4E487B71 PUSH1 0xE0 SHL PUSH1 0x0 MSTORE PUSH1 0x12 PUSH1 0x4 MSTORE PUSH1 0x24 PUSH1 0x0 REVERT JUMPDEST POP DIV SWAP1 JUMP JUMPDEST PUSH1 0x0 PUSH1 0x20 DUP3 DUP5 SUB SLT ISZERO PUSH2 0x3790 JUMPI PUSH1 0x0 DUP1 REVERT JUMPDEST DUP2 MLOAD PUSH2 0x2EAB DUP2 PUSH2 0x3161 JUMP JUMPDEST PUSH1 0x1 PUSH1 0x1 PUSH1 0xA0 SHL SUB SWAP7 DUP8 AND DUP2 MSTORE PUSH1 0x20 DUP2 ADD SWAP6 SWAP1 SWAP6 MSTORE PUSH1 0x40 DUP6 ADD SWAP4 SWAP1 SWAP4 MSTORE PUSH1 0x60 DUP5 ADD SWAP2 SWAP1 SWAP2 MSTORE SWAP1 SWAP3 AND PUSH1 0x80 DUP3 ADD MSTORE PUSH1 0xA0 DUP2 ADD SWAP2 SWAP1 SWAP2 MSTORE PUSH1 0xC0 ADD SWAP1 JUMP JUMPDEST PUSH1 0x0 DUP1 PUSH1 0x40 DUP4 DUP6 SUB SLT ISZERO PUSH2 0x37E9 JUMPI PUSH1 0x0 DUP1 REVERT JUMPDEST POP POP DUP1 MLOAD PUSH1 0x20 SWAP1 SWAP2 ADD MLOAD SWAP1 SWAP3 SWAP1 SWAP2 POP JUMP JUMPDEST PUSH1 0x0 DUP2 MLOAD DUP1 DUP5 MSTORE PUSH1 0x20 DUP1 DUP6 ADD SWAP5 POP DUP1 DUP5 ADD PUSH1 0x0 JUMPDEST DUP4 DUP2 LT ISZERO PUSH2 0x35C4 JUMPI DUP2 MLOAD PUSH1 0x1 PUSH1 0x1 PUSH1 0xA0 SHL SUB AND DUP8 MSTORE SWAP6 DUP3 ADD SWAP6 SWAP1 DUP3 ADD SWAP1 PUSH1 0x1 ADD PUSH2 0x380E JUMP JUMPDEST DUP6 DUP2 MSTORE DUP5 PUSH1 0x20 DUP3 ADD MSTORE PUSH1 0xA0 PUSH1 0x40 DUP3 ADD MSTORE PUSH1 0x0 PUSH2 0x35EE PUSH1 0xA0 DUP4 ADD DUP7 PUSH2 0x37FA JUMP JUMPDEST PUSH1 0x0 DUP3 NOT DUP3 GT ISZERO PUSH2 0x3865 JUMPI PUSH2 0x3865 PUSH2 0x3534 JUMP JUMPDEST POP ADD SWAP1 JUMP JUMPDEST PUSH1 0x0 PUSH1 0xFF DUP3 AND PUSH1 0xFF DUP2 EQ ISZERO PUSH2 0x3881 JUMPI PUSH2 0x3881 PUSH2 0x3534 JUMP JUMPDEST PUSH1 0x1 ADD SWAP3 SWAP2 POP POP JUMP JUMPDEST DUP5 DUP2 MSTORE PUSH1 0x80 PUSH1 0x20 DUP3 ADD MSTORE PUSH1 0x0 PUSH2 0x38A3 PUSH1 0x80 DUP4 ADD DUP7 PUSH2 0x37FA JUMP JUMPDEST PUSH1 0x1 PUSH1 0x1 PUSH1 0xA0 SHL SUB SWAP5 SWAP1 SWAP5 AND PUSH1 0x40 DUP4 ADD MSTORE POP PUSH1 0x60 ADD MSTORE SWAP3 SWAP2 POP POP JUMP JUMPDEST PUSH1 0x0 DUP3 DUP3 LT ISZERO PUSH2 0x38D1 JUMPI PUSH2 0x38D1 PUSH2 0x3534 JUMP JUMPDEST POP SUB SWAP1 JUMP JUMPDEST PUSH1 0x0 DUP1 PUSH1 0x0 PUSH1 0x60 DUP5 DUP7 SUB SLT ISZERO PUSH2 0x38EB JUMPI PUSH1 0x0 DUP1 REVERT JUMPDEST DUP4 MLOAD SWAP3 POP PUSH1 0x20 DUP5 ADD MLOAD SWAP2 POP PUSH1 0x40 DUP5 ADD MLOAD SWAP1 POP SWAP3 POP SWAP3 POP SWAP3 JUMP JUMPDEST PUSH1 0x0 JUMPDEST DUP4 DUP2 LT ISZERO PUSH2 0x391F JUMPI DUP2 DUP2 ADD MLOAD DUP4 DUP3 ADD MSTORE PUSH1 0x20 ADD PUSH2 0x3907 JUMP JUMPDEST DUP4 DUP2 GT ISZERO PUSH2 0x1503 JUMPI POP POP PUSH1 0x0 SWAP2 ADD MSTORE JUMP JUMPDEST PUSH1 0x0 DUP3 MLOAD PUSH2 0x3942 DUP2 DUP5 PUSH1 0x20 DUP8 ADD PUSH2 0x3904 JUMP JUMPDEST SWAP2 SWAP1 SWAP2 ADD SWAP3 SWAP2 POP POP JUMP JUMPDEST PUSH1 0x20 DUP2 MSTORE PUSH1 0x0 DUP3 MLOAD DUP1 PUSH1 0x20 DUP5 ADD MSTORE PUSH2 0x396B DUP2 PUSH1 0x40 DUP6 ADD PUSH1 0x20 DUP8 ADD PUSH2 0x3904 JUMP JUMPDEST PUSH1 0x1F ADD PUSH1 0x1F NOT AND SWAP2 SWAP1 SWAP2 ADD PUSH1 0x40 ADD SWAP3 SWAP2 POP POP JUMP INVALID LOG2 PUSH5 0x6970667358 0x22 SLT KECCAK256 SELFBALANCE 0xF SWAP13 EXTCODECOPY GAS 0xB1 0xCB 0xC0 0xC6 0xB4 0x5F SGT PUSH16 0xA98CE0C50263D1942426183931C4802A 0xB6 ISZERO 0x4B PUSH5 0x736F6C6343 STOP ADDMOD 0xC STOP CALLER ","sha1":"181a62693f2d25c413db5f009bc66720abcc38f2","source":"// SPDX-License-Identifier: MIT\npragma solidity 0.8.12;\n\nimport \"@openzeppelin/contracts/access/Ownable.sol\";\nimport \"@openzeppelin/contracts/token/ERC20/IERC20.sol\";\nimport \"@openzeppelin/contracts/token/ERC20/extensions/ERC20Burnable.sol\";\nimport \"@openzeppelin/contracts/token/ERC20/utils/SafeERC20.sol\";\nimport \"./GalacticChef.sol\";\nimport \"../interfaces/IPancakePair.sol\";\nimport \"../interfaces/IPancakeRouter.sol\";\nimport \"../interfaces/IBankroll.sol\";\nimport \"../interfaces/ILottery.sol\";\n\n//import \"../interfaces/IFeeDistributor.sol\";\n///@dev use interface IFeeDistributor\n\ncontract FeeDistributorV2 is Ownable {\n    using SafeERC20 for ERC20Burnable;\n    using SafeERC20 for IERC20;\n\n    struct FeeData {\n        /** Fees in array are as follows [CRUSH] [NICE]\n         * [0][0](bbb) Buy back and Burn (NICE | CRUSH) CHECK THAT SELECTED TOKEN HAS BEEN BURNED IN TOKEN CONTRACT REVISAR TOTAL SUPPLY\n         * [1](bbd) Buy back and DISTRIBUTE (CRUSH) SENDS CRUSH TO BANKSTAKING\n         * [2](bbl) Buy back and LOTTERY (CRUSH) SENDS CRUSH TO LOTTERY POOL\n         * [3][1](lqPermanent) PERMANENT LIQUIDITY (NICE | CRUSH)/BNB\n         * [4][2](lqLock) LOCKED LIQUIDITY (NICE | CRUSH)/BNB\n         * 0-4 need to be <= 100% Whatever is left, we send to marketing wallet\n         * REST - MARKETING FUNDS -> BNB\n         **/\n        uint256[3] niceFees;\n        uint256[5] crushFees;\n        bool initialized; // Fail transactions where fees have not been added\n        bool hasFees; // If token charges fees on transfers need to use swapTokensForEthSupportingFeesOnTransferToken function instead\n        bool token0Fees; // FOR LP IN CASE IT HAS FEES\n        bool token1Fees; // FOR LP IN CASE ITS TOKEN HAS FEES\n        /**\n            if it's an LP token we need to remove that Liquidity\n            else it's a Single asset token and have to swap it for core ETH (BNB)\n            before buying anything else.\n        **/\n        IPancakeRouter router; // main router for this token\n    }\n    address public immutable CRUSH;\n    address public immutable NICE;\n    address public immutable deadWallet =\n        0x000000000000000000000000000000000000dEaD;\n    IPancakeRouter public tokenRouter; //used for CRUSH and NICE\n    address public niceLiquidity;\n    uint256 public idoPrice;\n    address public teamWallet;\n    address public lock;\n    IBitcrushBankroll public immutable bankroll;\n    IBitcrushLottery public lottery;\n\n    bool public reachForIdo;\n\n    uint256 public constant DIVISOR = 10000; // 100.00%\n    GalacticChef public chef;\n\n    mapping(uint256 => FeeData) public feeData;\n    mapping(uint256 => address[]) public tokenPath; // RECEIVED TOKEN TO WBNB\n    mapping(uint256 => address[]) public token0Path; // LP TOKEN 0 TO WBNB\n    mapping(uint256 => address[]) public token1Path; // LP TOKEN 1 TO WBNB\n\n    event AddPoolFee(uint256 indexed _pid);\n    event EditFee(uint256 indexed _pid, uint256 bb, uint256 liq, uint256 team);\n    event UpdateRouter(uint256 indexed _pid, address router);\n    event UpdatePath(uint256 indexed _pid, address router);\n    event UpdateTeamWallet(address _teamW);\n    event UpdateMainRouter(address _router);\n    event FundsDistributed(uint256 amount, address _token);\n    event TeamFundsDistributed(bool _success, uint256 amount);\n    event UpdateTargetPrice(uint256 _target);\n    event UpdateLotteryAddress(address _newLotteery, address _oldLottery);\n    event SeachForTarget(bool _isOn);\n\n    modifier onlyChef() {\n        require(msg.sender == address(chef), \"onlyChef\");\n        _;\n    }\n\n    constructor(\n        address _chef,\n        uint256 _idoPrice,\n        address _nicePair,\n        address _bankroll,\n        address _lottery,\n        address _lock,\n        address _nice,\n        address _crush\n    ) {\n        require(_chef != address(0), \"Zero address\");\n        chef = GalacticChef(_chef);\n        teamWallet = msg.sender;\n        // _idoPrice must be NICE/BNB NOT BNB/NICE\n        idoPrice = _idoPrice;\n        reachForIdo = false;\n        niceLiquidity = _nicePair;\n        // DISTRIBUTE CRUSH\n        bankroll = IBitcrushBankroll(_bankroll);\n        lottery = IBitcrushLottery(_lottery);\n        CRUSH = _crush;\n        NICE = _nice;\n    }\n\n    /*********************************\n     *      INITIALIZE FEE POOL      *\n     *********************************/\n\n    function addorEditFee(\n        uint256 _pid, //ID TO ADD/EDIT\n        uint256[3] calldata _niceFees, // 0 buyback BURN, 1 buyback DISTRIBUTE, 2 buyback LOTTERY, 3 liquidity PERMANENT, 4 liquidity LOCK\n        uint256[5] calldata _crushFees, // 0 buyback BURN, 1 buyback DISTRIBUTE, 2 buyback LOTTERY, 3 liquidity PERMANENT, 4 liquidity LOCK\n        bool[3] calldata hasFees, // 0 token has Fees, 1 token0 has fees, 2 token1 has fees\n        address router, //swap router address\n        // If is LP -> tokenAddresses that compose the pair CRUSH/BUSD -> [ CRUSH_ADDRESS, BUSD_ADDRESS]\n        // If ERC20 token [ CRUSH_ADDRESS, wBNB] -> Path to ETH\n        address[] calldata _tokens,\n        address[] calldata _token0Path, // LP TOKEN 0 PATH TO wBNB\n        address[] calldata _token1Path // LP TOKEN 1 PATH to wBNB\n    ) external onlyOwner {\n        require(\n            addArrays(_niceFees, _crushFees) <= DIVISOR,\n            \"Incorrect Fee distribution\"\n        );\n        require(router != address(0), \"Incorrect Router\");\n        require(_tokens.length > 0, \"need a path to base\");\n        feeData[_pid] = FeeData(\n            _niceFees,\n            _crushFees,\n            true,\n            hasFees[0],\n            hasFees[1],\n            hasFees[2],\n            IPancakeRouter(router)\n        );\n        updatePaths(_pid, _tokens, _token0Path, _token1Path);\n        emit AddPoolFee(_pid);\n    }\n\n    /******************************\n     *      FEE DISTRIBUTION      *\n     ******************************/\n    receive() external payable {}\n\n    fallback() external payable {}\n\n    /// @notice Function that distributes fees to the respective flows\n    /// @dev This function requires funds to be sent beforehand to this contract\n    function receiveFees(uint256 _pid, uint256 _amount) external onlyChef {\n        FeeData storage feeInfo = feeData[_pid];\n        require(feeInfo.initialized, \"Not init\");\n        (, , , IERC20 token, , , bool isLP) = chef.poolInfo(_pid);\n        token.safeTransferFrom(address(chef), address(this), _amount);\n        // Check if token was received\n        require(token.balanceOf(address(this)) >= _amount, \"send funds\");\n        // REQUIRE THAT FEES ARE NEEDED TO BE TAKEN, ELSE TRANSFER TO OWNER\n        // IS LP TOKEN ?\n        token.approve(address(feeInfo.router), _amount * 2);\n        if (isLP) {\n            // remove liquidity\n            removeLiquidityAndSwapETH(_pid, _amount);\n        } else {\n            // NO SWAP ERC FLOW\n            if (feeInfo.hasFees)\n                feeInfo\n                    .router\n                    .swapExactTokensForETHSupportingFeeOnTransferTokens(\n                        _amount,\n                        1, // We get what we can\n                        tokenPath[_pid], // Token PATH of ERC is already path to WETH\n                        address(this),\n                        block.timestamp\n                    );\n            else\n                feeInfo.router.swapExactTokensForETH(\n                    _amount,\n                    1, // We get what we can\n                    tokenPath[_pid], // Token PATH of ERC is already path to WETH\n                    address(this),\n                    block.timestamp\n                );\n        }\n        // if (reachForIdo && checkPrice()) {\n        //     // only buy back and burn NICE\n        //     uint256 currentETH = address(this).balance;\n        //     address[] memory nicePath;\n        //     nicePath[0] = tokenRouter.WETH();\n        //     nicePath[1] = NICE;\n        //     tokenRouter.swapExactETHForTokens{value: currentETH}(\n        //         0,\n        //         nicePath,\n        //         address(0),\n        //         block.timestamp\n        //     );\n        // } else {\n        //     // With the ETH distribute AMOUNTS\n        //     distributeFees(feeInfo);\n        // }\n        emit FundsDistributed(_amount, address(token));\n    }\n\n    /// @notice external distribute. This is used for testing\n    function distribute(uint256 _pid) external {\n        FeeData storage feeInfo = feeData[_pid];\n        require(feeInfo.initialized, \"Not initialized\");\n        distributeFees(feeInfo);\n    }\n\n    /// @notice Check that current Nice Price is above IDO\n    /// @dev get IDO price for NICE\n    function checkPrice() public view returns (bool _belowIDO) {\n        (uint256 reserve0, uint256 reserve1, ) = IPancakePair(niceLiquidity)\n            .getReserves();\n        reserve1 = reserve1 > 0 ? reserve1 : 1; //just in case\n        _belowIDO = ((reserve0 * 1 ether) / reserve1) < idoPrice;\n    }\n\n    /// @notice from the POOL ID check which token is wETH and return the other one\n    /// @param _pid the Pool ID token path to check\n    function getNotEthToken(uint256 _pid)\n        internal\n        view\n        returns (\n            IERC20 token,\n            address[] memory path,\n            bool hasFees\n        )\n    {\n        if (tokenPath[_pid][0] != tokenRouter.WETH()) {\n            token = IERC20(tokenPath[_pid][0]);\n            path = token0Path[_pid];\n            hasFees = feeData[_pid].token0Fees;\n        } else {\n            token = IERC20(tokenPath[_pid][1]);\n            path = token1Path[_pid];\n        }\n    }\n\n    /// @notice Remove Liquidity from pair token and swap for ETH\n    /// @param _pid Pool ID  to get token Path\n    function removeLiquidityAndSwapETH(uint256 _pid, uint256 amount)\n        internal\n        returns (uint256)\n    {\n        FeeData storage feeInfo = feeData[_pid];\n        // SWAP WITH ONE TOKEN ALREADY WETH\n        if (\n            tokenPath[_pid][0] == tokenRouter.WETH() ||\n            tokenPath[_pid][1] == tokenRouter.WETH()\n        ) {\n            IERC20 nonEthToken;\n            address[] memory path;\n            bool tokenFees;\n            (nonEthToken, path, tokenFees) = getNotEthToken(_pid);\n            if (feeInfo.hasFees)\n                feeInfo.router.removeLiquidityETHSupportingFeeOnTransferTokens(\n                    address(nonEthToken),\n                    amount,\n                    0,\n                    0,\n                    address(this),\n                    block.timestamp\n                );\n            else\n                feeInfo.router.removeLiquidityETH(\n                    address(nonEthToken),\n                    amount,\n                    0,\n                    0,\n                    address(this),\n                    block.timestamp\n                );\n            uint256 tokensLeft = nonEthToken.balanceOf(address(this));\n            nonEthToken.approve(address(feeInfo.router), tokensLeft);\n            if (tokenFees) {\n                feeInfo\n                    .router\n                    .swapExactTokensForETHSupportingFeeOnTransferTokens(\n                        tokensLeft,\n                        0,\n                        path,\n                        address(this),\n                        block.timestamp\n                    );\n            } else {\n                feeInfo.router.swapExactTokensForETH(\n                    tokensLeft,\n                    0,\n                    path,\n                    address(this),\n                    block.timestamp\n                );\n            }\n        }\n        // SWAP WITH NO TOKENS BEING WETH\n        else {\n            (uint256 tokenA, uint256 tokenB) = feeInfo.router.removeLiquidity(\n                tokenPath[_pid][0],\n                tokenPath[_pid][1],\n                amount,\n                0,\n                0,\n                address(this),\n                block.timestamp\n            );\n            // Approve tokens for swap\n            IERC20(tokenPath[_pid][0]).approve(\n                address(feeInfo.router),\n                tokenA * 2\n            );\n            IERC20(tokenPath[_pid][1]).approve(\n                address(feeInfo.router),\n                tokenB * 2\n            );\n            // Swap token A\n            if (feeInfo.token0Fees)\n                feeInfo\n                    .router\n                    .swapExactTokensForETHSupportingFeeOnTransferTokens(\n                        tokenA,\n                        0,\n                        token0Path[_pid],\n                        address(this),\n                        block.timestamp\n                    );\n            else\n                feeInfo.router.swapExactTokensForETH(\n                    tokenA,\n                    0,\n                    token0Path[_pid],\n                    address(this),\n                    block.timestamp\n                );\n            // Swap token B\n            if (feeInfo.token1Fees)\n                feeInfo\n                    .router\n                    .swapExactTokensForETHSupportingFeeOnTransferTokens(\n                        tokenB,\n                        0,\n                        token1Path[_pid],\n                        address(this),\n                        block.timestamp\n                    );\n            else\n                feeInfo.router.swapExactTokensForETH(\n                    tokenB,\n                    0,\n                    token1Path[_pid],\n                    address(this),\n                    block.timestamp\n                );\n            //Returns total ETH got\n            return address(this).balance;\n        }\n    }\n\n    function distributeFees(FeeData storage feeInfo) internal {\n        uint256 totalCrush;\n        uint256 totalNice;\n        uint256 crushFees;\n        uint256 niceFees;\n        uint256 bnbForCrush;\n        uint256 bnbForNice;\n        uint256 swapAmountCrush;\n        uint256 swapAmountNice;\n\n        for (uint8 x = 0; x < 5; x++) {\n            crushFees += feeInfo.crushFees[x];\n            totalCrush += x < 3\n                ? feeInfo.crushFees[x]\n                : feeInfo.crushFees[x] / 2;\n            if (x < 3) {\n                niceFees += feeInfo.niceFees[x];\n                totalNice += x == 0\n                    ? feeInfo.niceFees[x]\n                    : feeInfo.niceFees[x] / 2;\n            }\n        }\n        address[] memory path;\n        path[0] = tokenRouter.WETH();\n        path[1] = CRUSH;\n        if (crushFees > 0) {\n            bnbForCrush = (address(this).balance * crushFees) / DIVISOR;\n            swapAmountCrush = (bnbForCrush * totalCrush) / crushFees;\n            // Swap for CRUSH\n            tokenRouter.swapExactETHForTokens{value: swapAmountCrush}(\n                0,\n                path,\n                address(this),\n                block.timestamp\n            );\n            bnbForCrush -= swapAmountCrush;\n            tokenAndLiquidityDistribution(\n                CRUSH,\n                feeInfo,\n                crushFees,\n                false,\n                bnbForCrush\n            );\n        }\n        if (niceFees > 0) {\n            bnbForNice = (address(this).balance * niceFees) / DIVISOR;\n            swapAmountNice = (bnbForNice * totalNice) / niceFees;\n            bnbForNice -= swapAmountNice;\n            // Swap for NICE\n            path[1] = NICE;\n            tokenRouter.swapExactETHForTokens{value: swapAmountNice}(\n                0,\n                path,\n                address(this),\n                block.timestamp\n            );\n            tokenAndLiquidityDistribution(\n                NICE,\n                feeInfo,\n                niceFees,\n                true,\n                bnbForNice\n            );\n        }\n\n        // If there's some ETH left, send to marketing wallet\n        uint256 ethBal = address(this).balance;\n        if (ethBal > 0) {\n            (bool success, ) = payable(teamWallet).call{value: ethBal}(\"\");\n            emit TeamFundsDistributed(success, ethBal);\n        }\n    }\n\n    function tokenAndLiquidityDistribution(\n        address token,\n        FeeData storage feeInfo,\n        uint256 totalFees,\n        bool isNice,\n        uint256 liquidityETH\n    ) internal {\n        ERC20Burnable mainToken = ERC20Burnable(token);\n        uint256 currentBalance = mainToken.balanceOf(address(this));\n        // BUYBACK AND BURN\n        uint256 usedFee = isNice ? feeInfo.niceFees[0] : feeInfo.crushFees[0];\n        uint256 amountToUse = (currentBalance * usedFee) / totalFees;\n        if (amountToUse > 0) mainToken.burn(amountToUse);\n        // BUYBACK AND DISTRIBUTE TO STAKING POOL\n        usedFee = isNice ? 0 : feeInfo.crushFees[1];\n        amountToUse = (currentBalance * usedFee) / totalFees;\n        if (amountToUse > 0) {\n            mainToken.approve(address(bankroll), amountToUse * 2);\n            bankroll.addUserLoss(amountToUse);\n        }\n        // BUYBACK AND LOTTERY\n        usedFee = isNice ? 0 : feeInfo.crushFees[2];\n        amountToUse = (currentBalance * usedFee) / totalFees;\n        if (amountToUse > 0) {\n            mainToken.approve(address(lottery), amountToUse * 2);\n            lottery.addToPool(amountToUse);\n        }\n        // Since we'll send liquidity straight to the required addresses, addLiquidity needs to happen twice\\\n        currentBalance = mainToken.balanceOf(address(this));\n        if (isNice)\n            (totalFees, ) = liquidityFeeTotal(\n                feeInfo.niceFees,\n                feeInfo.crushFees\n            );\n        else\n            (, totalFees) = liquidityFeeTotal(\n                feeInfo.niceFees,\n                feeInfo.crushFees\n            );\n        if (totalFees == 0) return;\n        // PERMANENT LIQUIDITY\n        usedFee = isNice ? feeInfo.niceFees[1] : feeInfo.crushFees[3];\n        amountToUse = (currentBalance * usedFee) / totalFees;\n        uint256 ethToUse = (liquidityETH * usedFee) / totalFees;\n        if (amountToUse > 0) {\n            mainToken.approve(address(tokenRouter), amountToUse * 2);\n            tokenRouter.addLiquidityETH{value: ethToUse}(\n                address(mainToken),\n                amountToUse,\n                0,\n                0,\n                deadWallet, // \"burn\" immediately\n                block.timestamp\n            );\n        }\n        // LOCK LIQUIDITY\n        usedFee = isNice ? feeInfo.niceFees[2] : feeInfo.crushFees[4];\n        amountToUse = (currentBalance * usedFee) / totalFees;\n        ethToUse = (liquidityETH * usedFee) / totalFees;\n        if (amountToUse > 0) {\n            mainToken.approve(address(tokenRouter), amountToUse * 2);\n            tokenRouter.addLiquidityETH{value: ethToUse}(\n                address(mainToken),\n                amountToUse,\n                0,\n                0,\n                lock, // send Tokens to LOCK contract\n                block.timestamp\n            );\n        }\n    }\n\n    /*************************\n     *        GETTERS        *\n     *************************/\n    function getFees(uint256 _pid)\n        external\n        view\n        returns (uint256[3] memory _niceFees, uint256[5] memory _crushFees)\n    {\n        _niceFees = feeData[_pid].niceFees;\n        _crushFees = feeData[_pid].crushFees;\n    }\n\n    /*************************\n     *        SETTERS        *\n     *************************/\n    /// @notice Update the main router used to spread liquidity\n    /// @param _newRouter address of the router to migrate to\n    /// @dev Requires the router to exist\n    function setBaseRouter(address _newRouter) external onlyOwner {\n        require(_newRouter != address(0), \"No zero\");\n        tokenRouter = IPancakeRouter(_newRouter);\n        emit UpdateMainRouter(_newRouter);\n    }\n\n    /// @notice Update the Marketing Wallet\n    /// @param _newTeamW address to send funds to\n    /// @dev requires address to be payable since it'll receive BNB(ETH) directly\n    function setTeamWallet(address payable _newTeamW) external onlyOwner {\n        require(_newTeamW != address(0), \"Cant pay 0\");\n        teamWallet = _newTeamW;\n        emit UpdateTeamWallet(_newTeamW);\n    }\n\n    /// @notice Update the paths used for a specific pool\n    /// @param id the Pool ID\n    /// @param _path path of the token, if LP, tokens that comprise it, else route to ETH\n    /// @param _path1 if LP, token0 path to ETH, else empty;\n    /// @param _path2 if LP, token1 path to ETH, else empty;\n    function updatePaths(\n        uint256 id,\n        address[] calldata _path,\n        address[] calldata _path1,\n        address[] calldata _path2\n    ) public onlyOwner {\n        tokenPath[id] = _path;\n        token0Path[id] = _path1;\n        token1Path[id] = _path2;\n    }\n\n    /// @notice Update the Target Price to compare to for NICE buy back and burn only.\n    /// @param _price new Target price to attempt to reach\n    function updateIdoTarget(uint256 _price) external onlyOwner {\n        require(_price > 0, \"Invalid target\");\n        idoPrice = _price;\n        emit UpdateTargetPrice(_price);\n    }\n\n    /// @notice Toggle between enabling and disabling NICE target price Search\n    function enableTargetSearch(bool _enable) external onlyOwner {\n        require(reachForIdo != _enable, \"Already in state\");\n        reachForIdo = _enable;\n        emit SeachForTarget(_enable);\n    }\n\n    function updateLottery(address _nLottery) external onlyOwner {\n        require(_nLottery != address(0), \"No Zero\");\n        emit UpdateLotteryAddress(_nLottery, address(lottery));\n        lottery = IBitcrushLottery(_nLottery);\n    }\n\n    /*************************\n     *      Calculations     *\n     *************************/\n    function liquidityFeeTotal(uint256[3] storage _ar1, uint256[5] storage _ar2)\n        internal\n        view\n        returns (uint256 _liquidityNice, uint256 _liquidityCrush)\n    {\n        _liquidityNice = _ar1[1] + _ar1[2];\n        _liquidityCrush = _ar2[3] + _ar2[4];\n    }\n\n    function addArrays(uint256[3] calldata _ar1, uint256[5] calldata _ar2)\n        internal\n        pure\n        returns (uint256 _result)\n    {\n        for (uint8 i = 0; i < 5; i++) {\n            _result += _ar2[i];\n            if (i < 3) {\n                _result += _ar1[i];\n            }\n        }\n    }\n}\n","sourcePath":"contracts/FeeDistributorv2.sol","deployment":{"address":"0xceD5161B74b62d52C44616d4E9A3968c53d5cC1A","chainid":"97","blockHeight":17730377}}