{"bytecode":"61010060405261dead60c0523480156200001857600080fd5b5060405162003d4338038062003d438339810160408190526200003b9162000161565b6200004633620000f4565b6001600160a01b038816620000905760405162461bcd60e51b815260206004820152600c60248201526b5a65726f206164647265737360a01b604482015260640160405180910390fd5b600780546001600160a01b03199081166001600160a01b039a8b161790915560048054339083161790556003979097556002805488169689169690961790955592861660e05250600680549094169085161790925582166080521660a05262000200565b600080546001600160a01b038381166001600160a01b0319831681178455604051919092169283917f8be0079c531659141344cd1fd0a4f28419497f9722a3daafe3b4186f6b6457e09190a35050565b80516001600160a01b03811681146200015c57600080fd5b919050565b600080600080600080600080610100898b0312156200017f57600080fd5b6200018a8962000144565b975060208901519650620001a160408a0162000144565b9550620001b160608a0162000144565b9450620001c160808a0162000144565b9350620001d160a08a0162000144565b9250620001e160c08a0162000144565b9150620001f160e08a0162000144565b90509295985092959890939650565b60805160a05160c05160e051613ad16200027260003960008181610211015281816129d00152612a800152600081816104f30152612dbb0152600081816102b601528181610bab0152818161232901526123ee0152600081816103aa015281816121ab01526122bc0152613ad16000f3fe6080604052600436106101b95760003560e01c80637a254a41116100eb578063a562bdba1161008f578063d85539c611610061578063d85539c6146105ec578063f2fde38b1461060c578063f83d08ba1461062c578063f8b70f031461064c57005b8063a562bdba14610568578063ba13a57214610588578063cd80fe0d146105a8578063d5a06d4c146105be57005b806385141a77116100c857806385141a77146104e15780638da5cb5b146105155780638fc3047d14610533578063958bac5f1461054857005b80637a254a41146104815780637ced15ef146104a15780637d04feff146104c157005b80633843418d1161015d578063659f4bf91161012f578063659f4bf91461040c57806367347c681461042c5780636c7a8ee41461044c578063715018a61461046c57005b80633843418d146102fc57806343f0a8e1146103985780634f348758146103cc57806359927044146103ec57005b80631525ff7d116101965780631525ff7d146102645780631fc8bc5d1461028457806330926486146102a45780633410fe6e146102d857005b8063075b42ab146101c25780630c657eb0146101ff5780630fe344ed1461023357005b366101c057005b005b3480156101ce57600080fd5b506002546101e2906001600160a01b031681565b6040516001600160a01b0390911681526020015b60405180910390f35b34801561020b57600080fd5b506101e27f000000000000000000000000000000000000000000000000000000000000000081565b34801561023f57600080fd5b5060065461025490600160a01b900460ff1681565b60405190151581526020016101f6565b34801561027057600080fd5b506101c061027f366004613279565b61066c565b34801561029057600080fd5b506007546101e2906001600160a01b031681565b3480156102b057600080fd5b506101e27f000000000000000000000000000000000000000000000000000000000000000081565b3480156102e457600080fd5b506102ee61271081565b6040519081526020016101f6565b34801561030857600080fd5b5061035f610317366004613296565b6008602081905260009182526040909120015460ff8082169161010081048216916201000082048116916301000000810490911690600160201b90046001600160a01b031685565b60408051951515865293151560208601529115159284019290925290151560608301526001600160a01b0316608082015260a0016101f6565b3480156103a457600080fd5b506101e27f000000000000000000000000000000000000000000000000000000000000000081565b3480156103d857600080fd5b506101c06103e73660046132af565b610737565b3480156103f857600080fd5b506004546101e2906001600160a01b031681565b34801561041857600080fd5b506101e26104273660046132af565b610cc3565b34801561043857600080fd5b506101c06104473660046132df565b610cfb565b34801561045857600080fd5b506101c061046736600461337a565b610dc6565b34801561047857600080fd5b506101c0611099565b34801561048d57600080fd5b506101e261049c3660046132af565b6110cf565b3480156104ad57600080fd5b506101c06104bc366004613296565b6110eb565b3480156104cd57600080fd5b506101e26104dc3660046132af565b61118b565b3480156104ed57600080fd5b506101e27f000000000000000000000000000000000000000000000000000000000000000081565b34801561052157600080fd5b506000546001600160a01b03166101e2565b34801561053f57600080fd5b506102546111a7565b34801561055457600080fd5b506101c0610563366004613472565b611276565b34801561057457600080fd5b506001546101e2906001600160a01b031681565b34801561059457600080fd5b506006546101e2906001600160a01b031681565b3480156105b457600080fd5b506102ee60035481565b3480156105ca57600080fd5b506105de6105d9366004613296565b6112f7565b6040516101f6929190613516565b3480156105f857600080fd5b506101c0610607366004613279565b611386565b34801561061857600080fd5b506101c0610627366004613279565b611459565b34801561063857600080fd5b506005546101e2906001600160a01b031681565b34801561065857600080fd5b506101c0610667366004613279565b6114f4565b6000546001600160a01b0316331461069f5760405162461bcd60e51b815260040161069690613573565b60405180910390fd5b6001600160a01b0381166106e25760405162461bcd60e51b815260206004820152600a602482015269043616e742070617920360b41b6044820152606401610696565b600480546001600160a01b0319166001600160a01b0383169081179091556040519081527f88b8edda57af64d7425b090e9e8d925c96d2cc1360afdc15f0da29752103e705906020015b60405180910390a150565b6007546001600160a01b0316331461077c5760405162461bcd60e51b815260206004820152600860248201526737b7363ca1b432b360c11b6044820152606401610696565b60008281526008602081905260409091209081015460ff166107cb5760405162461bcd60e51b8152602060048201526008602482015267139bdd081a5b9a5d60c21b6044820152606401610696565b600754604051631526fe2760e01b81526004810185905260009182916001600160a01b0390911690631526fe279060240160e060405180830381865afa158015610819573d6000803e3d6000fd5b505050506040513d601f19601f8201168201806040525081019061083d91906135a8565b60075493985096506108669550506001600160a01b0380881694509091169150309050876115ac565b6040516370a0823160e01b815230600482015284906001600160a01b038416906370a0823190602401602060405180830381865afa1580156108ac573d6000803e3d6000fd5b505050506040513d601f19601f820116820180604052508101906108d0919061361e565b101561090b5760405162461bcd60e51b815260206004820152600a60248201526973656e642066756e647360b01b6044820152606401610696565b60088301546001600160a01b038084169163095ea7b391600160201b9091041661093687600261364d565b6040516001600160e01b031960e085901b1681526001600160a01b03909216600483015260248201526044016020604051808303816000875af1158015610981573d6000803e3d6000fd5b505050506040513d601f19601f820116820180604052508101906109a5919061366c565b5080156109bc576109b6858561160c565b50610ae2565b6008830154610100900460ff1615610a4f576008830154600086815260096020526040808220905163791ac94760e01b8152600160201b9093046001600160a01b03169263791ac94792610a1892899230904290600401613689565b600060405180830381600087803b158015610a3257600080fd5b505af1158015610a46573d6000803e3d6000fd5b50505050610ae2565b600883015460008681526009602052604080822090516318cbafe560e01b8152600160201b9093046001600160a01b0316926318cbafe592610a9992899230904290600401613689565b6000604051808303816000875af1158015610ab8573d6000803e3d6000fd5b505050506040513d6000823e601f3d908101601f19168201604052610ae09190810190613715565b505b600654600160a01b900460ff168015610afe5750610afe6111a7565b15610c7257600154604080516315ab88c960e31b8152905147926060926001600160a01b039091169163ad5c4648916004808201926020929091908290030181865afa158015610b52573d6000803e3d6000fd5b505050506040513d601f19601f82011682018060405250810190610b7691906137d3565b81600081518110610b8957610b896137f0565b60200260200101906001600160a01b031690816001600160a01b0316815250507f000000000000000000000000000000000000000000000000000000000000000081600181518110610bdd57610bdd6137f0565b6001600160a01b039283166020918202929092010152600154604051637ff36ab560e01b8152911690637ff36ab5908490610c239060009086908290429060040161384a565b60006040518083038185885af1158015610c41573d6000803e3d6000fd5b50505050506040513d6000823e601f3d908101601f19168201604052610c6a9190810190613715565b505050610c7b565b610c7b83611fd2565b604080518581526001600160a01b03841660208201527f195b26ced269c6da9f9a06d404cba065a0149c0c189719e0384e1beb79659da0910160405180910390a15050505050565b600a6020528160005260406000208181548110610cdf57600080fd5b6000918252602090912001546001600160a01b03169150829050565b6000546001600160a01b03163314610d255760405162461bcd60e51b815260040161069690613573565b60065460ff600160a01b9091041615158115151415610d795760405162461bcd60e51b815260206004820152601060248201526f416c726561647920696e20737461746560801b6044820152606401610696565b60068054821515600160a01b0260ff60a01b199091161790556040517f7d703b166159e7b2e16b6550390cfdc4786dddf83c504aa32647e1da9127f2269061072c90831515815260200190565b6000546001600160a01b03163314610df05760405162461bcd60e51b815260040161069690613573565b612710610dfd8b8b6124bf565b1115610e4b5760405162461bcd60e51b815260206004820152601a60248201527f496e636f72726563742046656520646973747269627574696f6e0000000000006044820152606401610696565b6001600160a01b038716610e945760405162461bcd60e51b815260206004820152601060248201526f24b731b7b93932b1ba102937baba32b960811b6044820152606401610696565b84610ed75760405162461bcd60e51b81526020600482015260136024820152726e6565642061207061746820746f206261736560681b6044820152606401610696565b6040805161014081019091528060e081018c60038282606080828437600092019190915250505081526040805160a0818101909252602090920191908c906005908390839080828437600092019190915250505081526001602080830191909152604090910190610f4a908b018b6132df565b15158152602090810190610f649060408c01908c016132df565b15158152602001610f7b60608b0160408c016132df565b151581526001600160a01b03891660209182015260008d81526008909152604090208151610fac9082906003613155565b506020820151610fc29060038301906005613193565b506040820151600890910180546060840151608085015160a086015160c0909601516001600160a01b0316600160201b02640100000000600160c01b031996151563010000000263ff0000001992151562010000029290921663ffff0000199315156101000261ff00199715159790971661ffff199095169490941795909517919091169190911717929092161790556110618b878787878787611276565b6040518b907ff7eb02141ad38ebc5b61e51e5bb0e913cea227b9dfc94ea034fb39a9f5fe809f90600090a25050505050505050505050565b6000546001600160a01b031633146110c35760405162461bcd60e51b815260040161069690613573565b6110cd600061253c565b565b60096020528160005260406000208181548110610cdf57600080fd5b6000546001600160a01b031633146111155760405162461bcd60e51b815260040161069690613573565b600081116111565760405162461bcd60e51b815260206004820152600e60248201526d125b9d985b1a59081d185c99d95d60921b6044820152606401610696565b60038190556040518181527f145cc1d669b07469e4051f322247be4857ec7e59ae7dcd6e88057c181424d8589060200161072c565b600b6020528160005260406000208181548110610cdf57600080fd5b6000806000600260009054906101000a90046001600160a01b03166001600160a01b0316630902f1ac6040518163ffffffff1660e01b8152600401606060405180830381865afa1580156111ff573d6000803e3d6000fd5b505050506040513d601f19601f820116820180604052508101906112239190613896565b506001600160701b031691506001600160701b031691506000811161124957600161124b565b805b6003549091508161126484670de0b6b3a764000061364d565b61126e91906138e6565b109250505090565b6000546001600160a01b031633146112a05760405162461bcd60e51b815260040161069690613573565b60008781526009602052604090206112b99087876131c0565b506000878152600a602052604090206112d39085856131c0565b506000878152600b602052604090206112ed9083836131c0565b5050505050505050565b6112ff613213565b611307613231565b60008381526008602052604090819020815160608101928390529160039082845b8154815260200190600101908083116113285750505060008681526008602052604090819020815160a081019283905294965060030192506005915082845b8154815260200190600101908083116113675750505050509050915091565b6000546001600160a01b031633146113b05760405162461bcd60e51b815260040161069690613573565b6001600160a01b0381166113f05760405162461bcd60e51b81526020600482015260076024820152664e6f205a65726f60c81b6044820152606401610696565b600654604080516001600160a01b03808516825290921660208301527f4088a686f46439872254e52412588879189d5d7ad58511047a6f308714e0a0fc910160405180910390a1600680546001600160a01b0319166001600160a01b0392909216919091179055565b6000546001600160a01b031633146114835760405162461bcd60e51b815260040161069690613573565b6001600160a01b0381166114e85760405162461bcd60e51b815260206004820152602660248201527f4f776e61626c653a206e6577206f776e657220697320746865207a65726f206160448201526564647265737360d01b6064820152608401610696565b6114f18161253c565b50565b6000546001600160a01b0316331461151e5760405162461bcd60e51b815260040161069690613573565b6001600160a01b03811661155e5760405162461bcd60e51b81526020600482015260076024820152664e6f207a65726f60c81b6044820152606401610696565b600180546001600160a01b0319166001600160a01b0383169081179091556040519081527f2df9d602927cbee25f5ac348817e8312326c22c45d0afe91f8c3b5eb4fd675089060200161072c565b604080516001600160a01b0385811660248301528416604482015260648082018490528251808303909101815260849091019091526020810180516001600160e01b03166323b872dd60e01b17905261160690859061258c565b50505050565b600082815260086020908152604080832060015482516315ab88c960e31b8152925191936001600160a01b039091169263ad5c464892600480830193928290030181865afa158015611662573d6000803e3d6000fd5b505050506040513d601f19601f8201168201806040525081019061168691906137d3565b6001600160a01b0316600960008681526020019081526020016000206000815481106116b4576116b46137f0565b6000918252602090912001546001600160a01b0316148061178c5750600160009054906101000a90046001600160a01b03166001600160a01b031663ad5c46486040518163ffffffff1660e01b8152600401602060405180830381865afa158015611723573d6000803e3d6000fd5b505050506040513d601f19601f8201168201806040525081019061174791906137d3565b6001600160a01b031660096000868152602001908152602001600020600181548110611775576117756137f0565b6000918252602090912001546001600160a01b0316145b15611acc576000606060006117a087612663565b60088701549295509093509150610100900460ff161561184657600884015460405163af2979eb60e01b8152600160201b9091046001600160a01b03169063af2979eb906117fd9086908a90600090819030904290600401613908565b6020604051808303816000875af115801561181c573d6000803e3d6000fd5b505050506040513d601f19601f82011682018060405250810190611840919061361e565b506118cd565b6008840154604051629d473b60e21b8152600160201b9091046001600160a01b0316906302751cec906118889086908a90600090819030904290600401613908565b60408051808303816000875af11580156118a6573d6000803e3d6000fd5b505050506040513d601f19601f820116820180604052508101906118ca9190613943565b50505b6040516370a0823160e01b81523060048201526000906001600160a01b038516906370a0823190602401602060405180830381865afa158015611914573d6000803e3d6000fd5b505050506040513d601f19601f82011682018060405250810190611938919061361e565b600886015460405163095ea7b360e01b81526001600160a01b03600160201b909204821660048201526024810183905291925085169063095ea7b3906044016020604051808303816000875af1158015611996573d6000803e3d6000fd5b505050506040513d601f19601f820116820180604052508101906119ba919061366c565b508115611a3957600885015460405163791ac94760e01b8152600160201b9091046001600160a01b03169063791ac94790611a02908490600090889030904290600401613967565b600060405180830381600087803b158015611a1c57600080fd5b505af1158015611a30573d6000803e3d6000fd5b50505050611ac3565b60088501546040516318cbafe560e01b8152600160201b9091046001600160a01b0316906318cbafe590611a7a908490600090889030904290600401613967565b6000604051808303816000875af1158015611a99573d6000803e3d6000fd5b505050506040513d6000823e601f3d908101601f19168201604052611ac19190810190613715565b505b50505050611fca565b60088101546000858152600960205260408120805491928392600160201b9091046001600160a01b03169163baa2abde918490611b0b57611b0b6137f0565b60009182526020808320909101548a83526009909152604090912080546001600160a01b03909216916001908110611b4557611b456137f0565b600091825260208220015460405160e085901b6001600160e01b03191681526001600160a01b03938416600482015292166024830152604482018990526064820181905260848201523060a48201524260c482015260e40160408051808303816000875af1158015611bbb573d6000803e3d6000fd5b505050506040513d601f19601f82011682018060405250810190611bdf9190613943565b600088815260096020526040812080549395509193509091611c0357611c036137f0565b60009182526020909120015460088401546001600160a01b039182169163095ea7b391600160201b900416611c3985600261364d565b6040516001600160e01b031960e085901b1681526001600160a01b03909216600483015260248201526044016020604051808303816000875af1158015611c84573d6000803e3d6000fd5b505050506040513d601f19601f82011682018060405250810190611ca8919061366c565b50600086815260096020526040902080546001908110611cca57611cca6137f0565b60009182526020909120015460088401546001600160a01b039182169163095ea7b391600160201b900416611d0084600261364d565b6040516001600160e01b031960e085901b1681526001600160a01b03909216600483015260248201526044016020604051808303816000875af1158015611d4b573d6000803e3d6000fd5b505050506040513d601f19601f82011682018060405250810190611d6f919061366c565b50600883015462010000900460ff1615611e045760088301546000878152600a6020526040808220905163791ac94760e01b8152600160201b9093046001600160a01b03169263791ac94792611dcd92879230904290600401613689565b600060405180830381600087803b158015611de757600080fd5b505af1158015611dfb573d6000803e3d6000fd5b50505050611e97565b60088301546000878152600a602052604080822090516318cbafe560e01b8152600160201b9093046001600160a01b0316926318cbafe592611e4e92879230904290600401613689565b6000604051808303816000875af1158015611e6d573d6000803e3d6000fd5b505050506040513d6000823e601f3d908101601f19168201604052611e959190810190613715565b505b60088301546301000000900460ff1615611f2c5760088301546000878152600b6020526040808220905163791ac94760e01b8152600160201b9093046001600160a01b03169263791ac94792611ef592869230904290600401613689565b600060405180830381600087803b158015611f0f57600080fd5b505af1158015611f23573d6000803e3d6000fd5b50505050611fbf565b60088301546000878152600b602052604080822090516318cbafe560e01b8152600160201b9093046001600160a01b0316926318cbafe592611f7692869230904290600401613689565b6000604051808303816000875af1158015611f95573d6000803e3d6000fd5b505050506040513d6000823e601f3d908101601f19168201604052611fbd9190810190613715565b505b479350505050611fcc565b505b92915050565b60008060008060008060008060005b60058160ff16101561210757896003018160ff1660058110612005576120056137f0565b015461201190886139a3565b965060038160ff16106120495760028a6003018260ff1660058110612038576120386137f0565b015461204491906138e6565b612064565b896003018160ff1660058110612061576120616137f0565b01545b61206e908a6139a3565b985060038160ff1610156120f5578960ff821660038110612091576120916137f0565b015461209d90876139a3565b955060ff8116156120d05760028a60ff8316600381106120bf576120bf6137f0565b01546120cb91906138e6565b6120e8565b8960ff8216600381106120e5576120e56137f0565b01545b6120f290896139a3565b97505b806120ff816139bb565b915050611fe1565b50600154604080516315ab88c960e31b815290516060926001600160a01b03169163ad5c46489160048083019260209291908290030181865afa158015612152573d6000803e3d6000fd5b505050506040513d601f19601f8201168201806040525081019061217691906137d3565b81600081518110612189576121896137f0565b60200260200101906001600160a01b031690816001600160a01b0316815250507f0000000000000000000000000000000000000000000000000000000000000000816001815181106121dd576121dd6137f0565b6001600160a01b039092166020928302919091019091015286156122e557612710612208884761364d565b61221291906138e6565b94508661221f8a8761364d565b61222991906138e6565b600154604051637ff36ab560e01b81529194506001600160a01b031690637ff36ab59085906122639060009086903090429060040161384a565b60006040518083038185885af1158015612281573d6000803e3d6000fd5b50505050506040513d6000823e601f3d908101601f191682016040526122aa9190810190613715565b506122b583866139db565b94506122e57f00000000000000000000000000000000000000000000000000000000000000008b8960008961288f565b8515612417576127106122f8874761364d565b61230291906138e6565b93508561230f898661364d565b61231991906138e6565b915061232582856139db565b93507f00000000000000000000000000000000000000000000000000000000000000008160018151811061235b5761235b6137f0565b6001600160a01b039283166020918202929092010152600154604051637ff36ab560e01b8152911690637ff36ab59084906123a19060009086903090429060040161384a565b60006040518083038185885af11580156123bf573d6000803e3d6000fd5b50505050506040513d6000823e601f3d908101601f191682016040526123e89190810190613715565b506124177f00000000000000000000000000000000000000000000000000000000000000008b8860018861288f565b4780156124b2576004546040516000916001600160a01b03169083908381818185875af1925050503d806000811461246b576040519150601f19603f3d011682016040523d82523d6000602084013e612470565b606091505b5050604080518215158152602081018590529192507f7526d8edf9d8774140eac835a1cec043d347db7c1c24c83a3449977a0c61ca5b910160405180910390a1505b5050505050505050505050565b6000805b60058160ff161015611fca57828160ff16600581106124e4576124e46137f0565b6020020135826124f491906139a3565b915060038160ff16101561252a57838160ff1660038110612517576125176137f0565b60200201358261252791906139a3565b91505b80612534816139bb565b9150506124c3565b600080546001600160a01b038381166001600160a01b0319831681178455604051919092169283917f8be0079c531659141344cd1fd0a4f28419497f9722a3daafe3b4186f6b6457e09190a35050565b60006125e1826040518060400160405280602081526020017f5361666545524332303a206c6f772d6c6576656c2063616c6c206661696c6564815250856001600160a01b0316612f9c9092919063ffffffff16565b80519091501561265e57808060200190518101906125ff919061366c565b61265e5760405162461bcd60e51b815260206004820152602a60248201527f5361666545524332303a204552433230206f7065726174696f6e20646964206e6044820152691bdd081cdd58d8d9595960b21b6064820152608401610696565b505050565b600060606000600160009054906101000a90046001600160a01b03166001600160a01b031663ad5c46486040518163ffffffff1660e01b8152600401602060405180830381865afa1580156126bc573d6000803e3d6000fd5b505050506040513d601f19601f820116820180604052508101906126e091906137d3565b6001600160a01b03166009600086815260200190815260200160002060008154811061270e5761270e6137f0565b6000918252602090912001546001600160a01b0316146127ec5760008481526009602052604081208054909190612747576127476137f0565b6000918252602080832090910154868352600a825260409283902080548451818502810185019095528085526001600160a01b039092169650918301828280156127ba57602002820191906000526020600020905b81546001600160a01b0316815260019091019060200180831161279c575b505050505091506008600085815260200190815260200160002060080160029054906101000a900460ff169050612888565b60008481526009602052604090208054600190811061280d5761280d6137f0565b6000918252602080832090910154868352600b825260409283902080548451818502810185019095528085526001600160a01b0390921696509183018282801561288057602002820191906000526020600020905b81546001600160a01b03168152600190910190602001808311612862575b505050505091505b9193909250565b6040516370a0823160e01b815230600482015285906000906001600160a01b038316906370a0823190602401602060405180830381865afa1580156128d8573d6000803e3d6000fd5b505050506040513d601f19601f820116820180604052508101906128fc919061361e565b905060008461290f576003870154612912565b86545b9050600086612921838561364d565b61292b91906138e6565b9050801561298e57604051630852cd8d60e31b8152600481018290526001600160a01b038516906342966c6890602401600060405180830381600087803b15801561297557600080fd5b505af1158015612989573d6000803e3d6000fd5b505050505b8561299d5760048801546129a0565b60005b9150866129ad838561364d565b6129b791906138e6565b90508015612ae5576001600160a01b03841663095ea7b37f00000000000000000000000000000000000000000000000000000000000000006129fa84600261364d565b6040516001600160e01b031960e085901b1681526001600160a01b03909216600483015260248201526044016020604051808303816000875af1158015612a45573d6000803e3d6000fd5b505050506040513d601f19601f82011682018060405250810190612a69919061366c565b50604051636172858b60e11b8152600481018290527f00000000000000000000000000000000000000000000000000000000000000006001600160a01b03169063c2e50b1690602401600060405180830381600087803b158015612acc57600080fd5b505af1158015612ae0573d6000803e3d6000fd5b505050505b85612af4576005880154612af7565b60005b915086612b04838561364d565b612b0e91906138e6565b90508015612c06576006546001600160a01b038086169163095ea7b39116612b3784600261364d565b6040516001600160e01b031960e085901b1681526001600160a01b03909216600483015260248201526044016020604051808303816000875af1158015612b82573d6000803e3d6000fd5b505050506040513d601f19601f82011682018060405250810190612ba6919061366c565b50600654604051631c5fc48360e01b8152600481018390526001600160a01b0390911690631c5fc48390602401600060405180830381600087803b158015612bed57600080fd5b505af1158015612c01573d6000803e3d6000fd5b505050505b6040516370a0823160e01b81523060048201526001600160a01b038516906370a0823190602401602060405180830381865afa158015612c4a573d6000803e3d6000fd5b505050506040513d601f19601f82011682018060405250810190612c6e919061361e565b92508515612c8b57612c838860038101612fb5565b509650612c9c565b612c988860038101612fb5565b9750505b86612caa5750505050612f95565b85612cb9576006880154612cbf565b87600101545b915086612ccc838561364d565b612cd691906138e6565b9050600087612ce5848861364d565b612cef91906138e6565b90508115612e2c576001546001600160a01b038087169163095ea7b39116612d1885600261364d565b6040516001600160e01b031960e085901b1681526001600160a01b03909216600483015260248201526044016020604051808303816000875af1158015612d63573d6000803e3d6000fd5b505050506040513d601f19601f82011682018060405250810190612d87919061366c565b5060015460405163f305d71960e01b81526001600160a01b039091169063f305d719908390612de5908990879060009081907f0000000000000000000000000000000000000000000000000000000000000000904290600401613908565b60606040518083038185885af1158015612e03573d6000803e3d6000fd5b50505050506040513d601f19601f82011682018060405250810190612e2891906139f2565b5050505b86612e3b576007890154612e41565b88600201545b925087612e4e848661364d565b612e5891906138e6565b915087612e65848861364d565b612e6f91906138e6565b90508115612f8f576001546001600160a01b038087169163095ea7b39116612e9885600261364d565b6040516001600160e01b031960e085901b1681526001600160a01b03909216600483015260248201526044016020604051808303816000875af1158015612ee3573d6000803e3d6000fd5b505050506040513d601f19601f82011682018060405250810190612f07919061366c565b5060015460055460405163f305d71960e01b81526001600160a01b039283169263f305d719928592612f48928b928992600092839216904290600401613908565b60606040518083038185885af1158015612f66573d6000803e3d6000fd5b50505050506040513d601f19601f82011682018060405250810190612f8b91906139f2565b5050505b50505050505b5050505050565b6060612fab8484600085612feb565b90505b9392505050565b60008083600201548460010154612fcc91906139a3565b915082600401548360030154612fe291906139a3565b90509250929050565b60608247101561304c5760405162461bcd60e51b815260206004820152602660248201527f416464726573733a20696e73756666696369656e742062616c616e636520666f6044820152651c8818d85b1b60d21b6064820152608401610696565b6001600160a01b0385163b6130a35760405162461bcd60e51b815260206004820152601d60248201527f416464726573733a2063616c6c20746f206e6f6e2d636f6e74726163740000006044820152606401610696565b600080866001600160a01b031685876040516130bf9190613a4c565b60006040518083038185875af1925050503d80600081146130fc576040519150601f19603f3d011682016040523d82523d6000602084013e613101565b606091505b509150915061311182828661311c565b979650505050505050565b6060831561312b575081612fae565b82511561313b5782518084602001fd5b8160405162461bcd60e51b81526004016106969190613a68565b8260038101928215613183579160200282015b82811115613183578251825591602001919060010190613168565b5061318f92915061324f565b5090565b82600581019282156131835791602002820182811115613183578251825591602001919060010190613168565b828054828255906000526020600020908101928215613183579160200282015b828111156131835781546001600160a01b0319166001600160a01b038435161782556020909201916001909101906131e0565b60405180606001604052806003906020820280368337509192915050565b6040518060a001604052806005906020820280368337509192915050565b5b8082111561318f5760008155600101613250565b6001600160a01b03811681146114f157600080fd5b60006020828403121561328b57600080fd5b8135612fae81613264565b6000602082840312156132a857600080fd5b5035919050565b600080604083850312156132c257600080fd5b50508035926020909101359150565b80151581146114f157600080fd5b6000602082840312156132f157600080fd5b8135612fae816132d1565b8060608101831015611fcc57600080fd5b8060a08101831015611fcc57600080fd5b803561332981613264565b919050565b60008083601f84011261334057600080fd5b50813567ffffffffffffffff81111561335857600080fd5b6020830191508360208260051b850101111561337357600080fd5b9250929050565b60008060008060008060008060008060006102008c8e03121561339c57600080fd5b8b359a506133ad8d60208e016132fc565b99506133bc8d60808e0161330d565b98506133cc8d6101208e016132fc565b97506133db6101808d0161331e565b965067ffffffffffffffff806101a08e013511156133f857600080fd5b6134098e6101a08f01358f0161332e565b90975095506101c08d013581101561342057600080fd5b6134318e6101c08f01358f0161332e565b90955093506101e08d013581101561344857600080fd5b5061345a8d6101e08e01358e0161332e565b81935080925050509295989b509295989b9093969950565b60008060008060008060006080888a03121561348d57600080fd5b87359650602088013567ffffffffffffffff808211156134ac57600080fd5b6134b88b838c0161332e565b909850965060408a01359150808211156134d157600080fd5b6134dd8b838c0161332e565b909650945060608a01359150808211156134f657600080fd5b506135038a828b0161332e565b989b979a50959850939692959293505050565b6101008101818460005b600381101561353f578151835260209283019290910190600101613520565b505050606082018360005b600581101561356957815183526020928301929091019060010161354a565b5050509392505050565b6020808252818101527f4f776e61626c653a2063616c6c6572206973206e6f7420746865206f776e6572604082015260600190565b600080600080600080600060e0888a0312156135c357600080fd5b87516135ce816132d1565b80975050602088015195506040880151945060608801516135ee81613264565b809450506080880151925060a0880151915060c088015161360e816132d1565b8091505092959891949750929550565b60006020828403121561363057600080fd5b5051919050565b634e487b7160e01b600052601160045260246000fd5b600081600019048311821515161561366757613667613637565b500290565b60006020828403121561367e57600080fd5b8151612fae816132d1565b600060a082018783526020878185015260a0604085015281875480845260c0860191508860005282600020935060005b818110156136de5784546001600160a01b0316835260019485019492840192016136b9565b50506001600160a01b03969096166060850152505050608001529392505050565b634e487b7160e01b600052604160045260246000fd5b6000602080838503121561372857600080fd5b825167ffffffffffffffff8082111561374057600080fd5b818501915085601f83011261375457600080fd5b815181811115613766576137666136ff565b8060051b604051601f19603f8301168101818110858211171561378b5761378b6136ff565b6040529182528482019250838101850191888311156137a957600080fd5b938501935b828510156137c7578451845293850193928501926137ae565b98975050505050505050565b6000602082840312156137e557600080fd5b8151612fae81613264565b634e487b7160e01b600052603260045260246000fd5b600081518084526020808501945080840160005b8381101561383f5781516001600160a01b03168752958201959082019060010161381a565b509495945050505050565b8481526080602082015260006138636080830186613806565b6001600160a01b03949094166040830152506060015292915050565b80516001600160701b038116811461332957600080fd5b6000806000606084860312156138ab57600080fd5b6138b48461387f565b92506138c26020850161387f565b9150604084015163ffffffff811681146138db57600080fd5b809150509250925092565b60008261390357634e487b7160e01b600052601260045260246000fd5b500490565b6001600160a01b039687168152602081019590955260408501939093526060840191909152909216608082015260a081019190915260c00190565b6000806040838503121561395657600080fd5b505080516020909101519092909150565b85815284602082015260a06040820152600061398660a0830186613806565b6001600160a01b0394909416606083015250608001529392505050565b600082198211156139b6576139b6613637565b500190565b600060ff821660ff8114156139d2576139d2613637565b60010192915050565b6000828210156139ed576139ed613637565b500390565b600080600060608486031215613a0757600080fd5b8351925060208401519150604084015190509250925092565b60005b83811015613a3b578181015183820152602001613a23565b838111156116065750506000910152565b60008251613a5e818460208701613a20565b9190910192915050565b6020815260008251806020840152613a87816040850160208701613a20565b601f01601f1916919091016040019291505056fea26469706673582212207a3202fbc7646895466bdf37f820adc06d84a3db82f6f9dfc40afb022970401164736f6c634300080c0033","bytecodeSha1":"ac7428d11bdd0a5ae7f396c3e6bce0bd15c91961","type":"contract","abi":[{"inputs":[{"internalType":"address","name":"_chef","type":"address"},{"internalType":"uint256","name":"_idoPrice","type":"uint256"},{"internalType":"address","name":"_nicePair","type":"address"},{"internalType":"address","name":"_bankroll","type":"address"},{"internalType":"address","name":"_lottery","type":"address"},{"internalType":"address","name":"_lock","type":"address"},{"internalType":"address","name":"_nice","type":"address"},{"internalType":"address","name":"_crush","type":"address"}],"stateMutability":"nonpayable","type":"constructor","name":"constructor"},{"anonymous":false,"inputs":[{"indexed":true,"internalType":"uint256","name":"_pid","type":"uint256"}],"name":"AddPoolFee","type":"event"},{"anonymous":false,"inputs":[{"indexed":true,"internalType":"uint256","name":"_pid","type":"uint256"},{"indexed":false,"internalType":"uint256","name":"bb","type":"uint256"},{"indexed":false,"internalType":"uint256","name":"liq","type":"uint256"},{"indexed":false,"internalType":"uint256","name":"team","type":"uint256"}],"name":"EditFee","type":"event"},{"anonymous":false,"inputs":[{"indexed":false,"internalType":"uint256","name":"amount","type":"uint256"},{"indexed":false,"internalType":"address","name":"_token","type":"address"}],"name":"FundsDistributed","type":"event"},{"anonymous":false,"inputs":[{"indexed":true,"internalType":"address","name":"previousOwner","type":"address"},{"indexed":true,"internalType":"address","name":"newOwner","type":"address"}],"name":"OwnershipTransferred","type":"event"},{"anonymous":false,"inputs":[{"indexed":false,"internalType":"bool","name":"_isOn","type":"bool"}],"name":"SeachForTarget","type":"event"},{"anonymous":false,"inputs":[{"indexed":false,"internalType":"bool","name":"_success","type":"bool"},{"indexed":false,"internalType":"uint256","name":"amount","type":"uint256"}],"name":"TeamFundsDistributed","type":"event"},{"anonymous":false,"inputs":[{"indexed":false,"internalType":"address","name":"_newLotteery","type":"address"},{"indexed":false,"internalType":"address","name":"_oldLottery","type":"address"}],"name":"UpdateLotteryAddress","type":"event"},{"anonymous":false,"inputs":[{"indexed":false,"internalType":"address","name":"_router","type":"address"}],"name":"UpdateMainRouter","type":"event"},{"anonymous":false,"inputs":[{"indexed":true,"internalType":"uint256","name":"_pid","type":"uint256"},{"indexed":false,"internalType":"address","name":"router","type":"address"}],"name":"UpdatePath","type":"event"},{"anonymous":false,"inputs":[{"indexed":true,"internalType":"uint256","name":"_pid","type":"uint256"},{"indexed":false,"internalType":"address","name":"router","type":"address"}],"name":"UpdateRouter","type":"event"},{"anonymous":false,"inputs":[{"indexed":false,"internalType":"uint256","name":"_target","type":"uint256"}],"name":"UpdateTargetPrice","type":"event"},{"anonymous":false,"inputs":[{"indexed":false,"internalType":"address","name":"_teamW","type":"address"}],"name":"UpdateTeamWallet","type":"event"},{"stateMutability":"payable","type":"fallback"},{"inputs":[],"name":"CRUSH","outputs":[{"internalType":"address","name":"","type":"address"}],"stateMutability":"view","type":"function"},{"inputs":[],"name":"DIVISOR","outputs":[{"internalType":"uint256","name":"","type":"uint256"}],"stateMutability":"view","type":"function"},{"inputs":[],"name":"NICE","outputs":[{"internalType":"address","name":"","type":"address"}],"stateMutability":"view","type":"function"},{"inputs":[{"internalType":"uint256","name":"_pid","type":"uint256"},{"internalType":"uint256[3]","name":"_niceFees","type":"uint256[3]"},{"internalType":"uint256[5]","name":"_crushFees","type":"uint256[5]"},{"internalType":"bool[3]","name":"hasFees","type":"bool[3]"},{"internalType":"address","name":"router","type":"address"},{"internalType":"address[]","name":"_tokens","type":"address[]"},{"internalType":"address[]","name":"_token0Path","type":"address[]"},{"internalType":"address[]","name":"_token1Path","type":"address[]"}],"name":"addorEditFee","outputs":[],"stateMutability":"nonpayable","type":"function"},{"inputs":[],"name":"bankroll","outputs":[{"internalType":"contract IBitcrushBankroll","name":"","type":"address"}],"stateMutability":"view","type":"function"},{"inputs":[],"name":"checkPrice","outputs":[{"internalType":"bool","name":"_belowIDO","type":"bool"}],"stateMutability":"view","type":"function"},{"inputs":[],"name":"chef","outputs":[{"internalType":"contract GalacticChef","name":"","type":"address"}],"stateMutability":"view","type":"function"},{"inputs":[],"name":"deadWallet","outputs":[{"internalType":"address","name":"","type":"address"}],"stateMutability":"view","type":"function"},{"inputs":[{"internalType":"bool","name":"_enable","type":"bool"}],"name":"enableTargetSearch","outputs":[],"stateMutability":"nonpayable","type":"function"},{"inputs":[{"internalType":"uint256","name":"","type":"uint256"}],"name":"feeData","outputs":[{"internalType":"bool","name":"initialized","type":"bool"},{"internalType":"bool","name":"hasFees","type":"bool"},{"internalType":"bool","name":"token0Fees","type":"bool"},{"internalType":"bool","name":"token1Fees","type":"bool"},{"internalType":"contract IPancakeRouter","name":"router","type":"address"}],"stateMutability":"view","type":"function"},{"inputs":[{"internalType":"uint256","name":"_pid","type":"uint256"}],"name":"getFees","outputs":[{"internalType":"uint256[3]","name":"_niceFees","type":"uint256[3]"},{"internalType":"uint256[5]","name":"_crushFees","type":"uint256[5]"}],"stateMutability":"view","type":"function"},{"inputs":[],"name":"idoPrice","outputs":[{"internalType":"uint256","name":"","type":"uint256"}],"stateMutability":"view","type":"function"},{"inputs":[],"name":"lock","outputs":[{"internalType":"address","name":"","type":"address"}],"stateMutability":"view","type":"function"},{"inputs":[],"name":"lottery","outputs":[{"internalType":"contract IBitcrushLottery","name":"","type":"address"}],"stateMutability":"view","type":"function"},{"inputs":[],"name":"niceLiquidity","outputs":[{"internalType":"address","name":"","type":"address"}],"stateMutability":"view","type":"function"},{"inputs":[],"name":"owner","outputs":[{"internalType":"address","name":"","type":"address"}],"stateMutability":"view","type":"function"},{"inputs":[],"name":"reachForIdo","outputs":[{"internalType":"bool","name":"","type":"bool"}],"stateMutability":"view","type":"function"},{"inputs":[{"internalType":"uint256","name":"_pid","type":"uint256"},{"internalType":"uint256","name":"_amount","type":"uint256"}],"name":"receiveFees","outputs":[],"stateMutability":"nonpayable","type":"function"},{"inputs":[],"name":"renounceOwnership","outputs":[],"stateMutability":"nonpayable","type":"function"},{"inputs":[{"internalType":"address","name":"_newRouter","type":"address"}],"name":"setBaseRouter","outputs":[],"stateMutability":"nonpayable","type":"function"},{"inputs":[{"internalType":"address payable","name":"_newTeamW","type":"address"}],"name":"setTeamWallet","outputs":[],"stateMutability":"nonpayable","type":"function"},{"inputs":[],"name":"teamWallet","outputs":[{"internalType":"address","name":"","type":"address"}],"stateMutability":"view","type":"function"},{"inputs":[{"internalType":"uint256","name":"","type":"uint256"},{"internalType":"uint256","name":"","type":"uint256"}],"name":"token0Path","outputs":[{"internalType":"address","name":"","type":"address"}],"stateMutability":"view","type":"function"},{"inputs":[{"internalType":"uint256","name":"","type":"uint256"},{"internalType":"uint256","name":"","type":"uint256"}],"name":"token1Path","outputs":[{"internalType":"address","name":"","type":"address"}],"stateMutability":"view","type":"function"},{"inputs":[{"internalType":"uint256","name":"","type":"uint256"},{"internalType":"uint256","name":"","type":"uint256"}],"name":"tokenPath","outputs":[{"internalType":"address","name":"","type":"address"}],"stateMutability":"view","type":"function"},{"inputs":[],"name":"tokenRouter","outputs":[{"internalType":"contract IPancakeRouter","name":"","type":"address"}],"stateMutability":"view","type":"function"},{"inputs":[{"internalType":"address","name":"newOwner","type":"address"}],"name":"transferOwnership","outputs":[],"stateMutability":"nonpayable","type":"function"},{"inputs":[{"internalType":"uint256","name":"_price","type":"uint256"}],"name":"updateIdoTarget","outputs":[],"stateMutability":"nonpayable","type":"function"},{"inputs":[{"internalType":"address","name":"_nLottery","type":"address"}],"name":"updateLottery","outputs":[],"stateMutability":"nonpayable","type":"function"},{"inputs":[{"internalType":"uint256","name":"id","type":"uint256"},{"internalType":"address[]","name":"_path","type":"address[]"},{"internalType":"address[]","name":"_path1","type":"address[]"},{"internalType":"address[]","name":"_path2","type":"address[]"}],"name":"updatePaths","outputs":[],"stateMutability":"nonpayable","type":"function"},{"stateMutability":"payable","type":"receive"}],"compiler":{"version":"0.8.12+commit.f00d7308","evm_version":"istanbul","optimizer":{"enabled":true,"runs":200}},"contractName":"FeeDistributorV2","language":"Solidity","natspec":{"methods":{"checkPrice()":{"notice":"Check that current Nice Price is above IDO","details":"get IDO price for NICE"},"owner()":{"details":"Returns the address of the current owner."},"receiveFees(uint256,uint256)":{"notice":"Function that distributes fees to the respective flows","details":"This function requires funds to be sent beforehand to this contract"},"renounceOwnership()":{"details":"Leaves the contract without owner. It will not be possible to call `onlyOwner` functions anymore. Can only be called by the current owner. NOTE: Renouncing ownership will leave the contract without an owner, thereby removing any functionality that is only available to the owner."},"setBaseRouter(address)":{"notice":"Update the main router used to spread liquidity","details":"Requires the router to exist","params":{"_newRouter":"address of the router to migrate to"}},"setTeamWallet(address)":{"notice":"Update the Marketing Wallet","details":"requires address to be payable since it'll receive BNB(ETH) directly","params":{"_newTeamW":"address to send funds to"}},"transferOwnership(address)":{"details":"Transfers ownership of the contract to a new account (`newOwner`). Can only be called by the current owner."},"updateIdoTarget(uint256)":{"notice":"Update the Target Price to compare to for NICE buy back and burn only.","params":{"_price":"new Target price to attempt to reach"}},"updatePaths(uint256,address[],address[],address[])":{"notice":"Update the paths used for a specific pool","params":{"_path":"path of the token, if LP, tokens that comprise it, else route to ETH","_path1":"if LP, token0 path to ETH, else empty;","_path2":"if LP, token1 path to ETH, else empty;","id":"the Pool ID"}},"enableTargetSearch(bool)":{"notice":"Toggle between enabling and disabling NICE target price Search"}},"kind":"dev","version":1,"details":"use interface IFeeDistributor"},"opcodes":"PUSH1 0x80 PUSH1 0x40 MSTORE PUSH1 0x4 CALLDATASIZE LT PUSH2 0x1B9 JUMPI PUSH1 0x0 CALLDATALOAD PUSH1 0xE0 SHR DUP1 PUSH4 0x7A254A41 GT PUSH2 0xEB JUMPI DUP1 PUSH4 0xA562BDBA GT PUSH2 0x8F JUMPI DUP1 PUSH4 0xD85539C6 GT PUSH2 0x61 JUMPI DUP1 PUSH4 0xD85539C6 EQ PUSH2 0x5EC JUMPI DUP1 PUSH4 0xF2FDE38B EQ PUSH2 0x60C JUMPI DUP1 PUSH4 0xF83D08BA EQ PUSH2 0x62C JUMPI DUP1 PUSH4 0xF8B70F03 EQ PUSH2 0x64C JUMPI STOP JUMPDEST DUP1 PUSH4 0xA562BDBA EQ PUSH2 0x568 JUMPI DUP1 PUSH4 0xBA13A572 EQ PUSH2 0x588 JUMPI DUP1 PUSH4 0xCD80FE0D EQ PUSH2 0x5A8 JUMPI DUP1 PUSH4 0xD5A06D4C EQ PUSH2 0x5BE JUMPI STOP JUMPDEST DUP1 PUSH4 0x85141A77 GT PUSH2 0xC8 JUMPI DUP1 PUSH4 0x85141A77 EQ PUSH2 0x4E1 JUMPI DUP1 PUSH4 0x8DA5CB5B EQ PUSH2 0x515 JUMPI DUP1 PUSH4 0x8FC3047D EQ PUSH2 0x533 JUMPI DUP1 PUSH4 0x958BAC5F EQ PUSH2 0x548 JUMPI STOP JUMPDEST DUP1 PUSH4 0x7A254A41 EQ PUSH2 0x481 JUMPI DUP1 PUSH4 0x7CED15EF EQ PUSH2 0x4A1 JUMPI DUP1 PUSH4 0x7D04FEFF EQ PUSH2 0x4C1 JUMPI STOP JUMPDEST DUP1 PUSH4 0x3843418D GT PUSH2 0x15D JUMPI DUP1 PUSH4 0x659F4BF9 GT PUSH2 0x12F JUMPI DUP1 PUSH4 0x659F4BF9 EQ PUSH2 0x40C JUMPI DUP1 PUSH4 0x67347C68 EQ PUSH2 0x42C JUMPI DUP1 PUSH4 0x6C7A8EE4 EQ PUSH2 0x44C JUMPI DUP1 PUSH4 0x715018A6 EQ PUSH2 0x46C JUMPI STOP JUMPDEST DUP1 PUSH4 0x3843418D EQ PUSH2 0x2FC JUMPI DUP1 PUSH4 0x43F0A8E1 EQ PUSH2 0x398 JUMPI DUP1 PUSH4 0x4F348758 EQ PUSH2 0x3CC JUMPI DUP1 PUSH4 0x59927044 EQ PUSH2 0x3EC JUMPI STOP JUMPDEST DUP1 PUSH4 0x1525FF7D GT PUSH2 0x196 JUMPI DUP1 PUSH4 0x1525FF7D EQ PUSH2 0x264 JUMPI DUP1 PUSH4 0x1FC8BC5D EQ PUSH2 0x284 JUMPI DUP1 PUSH4 0x30926486 EQ PUSH2 0x2A4 JUMPI DUP1 PUSH4 0x3410FE6E EQ PUSH2 0x2D8 JUMPI STOP JUMPDEST DUP1 PUSH4 0x75B42AB EQ PUSH2 0x1C2 JUMPI DUP1 PUSH4 0xC657EB0 EQ PUSH2 0x1FF JUMPI DUP1 PUSH4 0xFE344ED EQ PUSH2 0x233 JUMPI STOP JUMPDEST CALLDATASIZE PUSH2 0x1C0 JUMPI STOP JUMPDEST STOP JUMPDEST CALLVALUE DUP1 ISZERO PUSH2 0x1CE JUMPI PUSH1 0x0 DUP1 REVERT JUMPDEST POP PUSH1 0x2 SLOAD PUSH2 0x1E2 SWAP1 PUSH1 0x1 PUSH1 0x1 PUSH1 0xA0 SHL SUB AND DUP2 JUMP JUMPDEST PUSH1 0x40 MLOAD PUSH1 0x1 PUSH1 0x1 PUSH1 0xA0 SHL SUB SWAP1 SWAP2 AND DUP2 MSTORE PUSH1 0x20 ADD JUMPDEST PUSH1 0x40 MLOAD DUP1 SWAP2 SUB SWAP1 RETURN JUMPDEST CALLVALUE DUP1 ISZERO PUSH2 0x20B JUMPI PUSH1 0x0 DUP1 REVERT JUMPDEST POP PUSH2 0x1E2 PUSH32 0x0 DUP2 JUMP JUMPDEST CALLVALUE DUP1 ISZERO PUSH2 0x23F JUMPI PUSH1 0x0 DUP1 REVERT JUMPDEST POP PUSH1 0x6 SLOAD PUSH2 0x254 SWAP1 PUSH1 0x1 PUSH1 0xA0 SHL SWAP1 DIV PUSH1 0xFF AND DUP2 JUMP JUMPDEST PUSH1 0x40 MLOAD SWAP1 ISZERO ISZERO DUP2 MSTORE PUSH1 0x20 ADD PUSH2 0x1F6 JUMP JUMPDEST CALLVALUE DUP1 ISZERO PUSH2 0x270 JUMPI PUSH1 0x0 DUP1 REVERT JUMPDEST POP PUSH2 0x1C0 PUSH2 0x27F CALLDATASIZE PUSH1 0x4 PUSH2 0x3279 JUMP JUMPDEST PUSH2 0x66C JUMP JUMPDEST CALLVALUE DUP1 ISZERO PUSH2 0x290 JUMPI PUSH1 0x0 DUP1 REVERT JUMPDEST POP PUSH1 0x7 SLOAD PUSH2 0x1E2 SWAP1 PUSH1 0x1 PUSH1 0x1 PUSH1 0xA0 SHL SUB AND DUP2 JUMP JUMPDEST CALLVALUE DUP1 ISZERO PUSH2 0x2B0 JUMPI PUSH1 0x0 DUP1 REVERT JUMPDEST POP PUSH2 0x1E2 PUSH32 0x0 DUP2 JUMP JUMPDEST CALLVALUE DUP1 ISZERO PUSH2 0x2E4 JUMPI PUSH1 0x0 DUP1 REVERT JUMPDEST POP PUSH2 0x2EE PUSH2 0x2710 DUP2 JUMP JUMPDEST PUSH1 0x40 MLOAD SWAP1 DUP2 MSTORE PUSH1 0x20 ADD PUSH2 0x1F6 JUMP JUMPDEST CALLVALUE DUP1 ISZERO PUSH2 0x308 JUMPI PUSH1 0x0 DUP1 REVERT JUMPDEST POP PUSH2 0x35F PUSH2 0x317 CALLDATASIZE PUSH1 0x4 PUSH2 0x3296 JUMP JUMPDEST PUSH1 0x8 PUSH1 0x20 DUP2 SWAP1 MSTORE PUSH1 0x0 SWAP2 DUP3 MSTORE PUSH1 0x40 SWAP1 SWAP2 KECCAK256 ADD SLOAD PUSH1 0xFF DUP1 DUP3 AND SWAP2 PUSH2 0x100 DUP2 DIV DUP3 AND SWAP2 PUSH3 0x10000 DUP3 DIV DUP2 AND SWAP2 PUSH4 0x1000000 DUP2 DIV SWAP1 SWAP2 AND SWAP1 PUSH1 0x1 PUSH1 0x20 SHL SWAP1 DIV PUSH1 0x1 PUSH1 0x1 PUSH1 0xA0 SHL SUB AND DUP6 JUMP JUMPDEST PUSH1 0x40 DUP1 MLOAD SWAP6 ISZERO ISZERO DUP7 MSTORE SWAP4 ISZERO ISZERO PUSH1 0x20 DUP7 ADD MSTORE SWAP2 ISZERO ISZERO SWAP3 DUP5 ADD SWAP3 SWAP1 SWAP3 MSTORE SWAP1 ISZERO ISZERO PUSH1 0x60 DUP4 ADD MSTORE PUSH1 0x1 PUSH1 0x1 PUSH1 0xA0 SHL SUB AND PUSH1 0x80 DUP3 ADD MSTORE PUSH1 0xA0 ADD PUSH2 0x1F6 JUMP JUMPDEST CALLVALUE DUP1 ISZERO PUSH2 0x3A4 JUMPI PUSH1 0x0 DUP1 REVERT JUMPDEST POP PUSH2 0x1E2 PUSH32 0x0 DUP2 JUMP JUMPDEST CALLVALUE DUP1 ISZERO PUSH2 0x3D8 JUMPI PUSH1 0x0 DUP1 REVERT JUMPDEST POP PUSH2 0x1C0 PUSH2 0x3E7 CALLDATASIZE PUSH1 0x4 PUSH2 0x32AF JUMP JUMPDEST PUSH2 0x737 JUMP JUMPDEST CALLVALUE DUP1 ISZERO PUSH2 0x3F8 JUMPI PUSH1 0x0 DUP1 REVERT JUMPDEST POP PUSH1 0x4 SLOAD PUSH2 0x1E2 SWAP1 PUSH1 0x1 PUSH1 0x1 PUSH1 0xA0 SHL SUB AND DUP2 JUMP JUMPDEST CALLVALUE DUP1 ISZERO PUSH2 0x418 JUMPI PUSH1 0x0 DUP1 REVERT JUMPDEST POP PUSH2 0x1E2 PUSH2 0x427 CALLDATASIZE PUSH1 0x4 PUSH2 0x32AF JUMP JUMPDEST PUSH2 0xCC3 JUMP JUMPDEST CALLVALUE DUP1 ISZERO PUSH2 0x438 JUMPI PUSH1 0x0 DUP1 REVERT JUMPDEST POP PUSH2 0x1C0 PUSH2 0x447 CALLDATASIZE PUSH1 0x4 PUSH2 0x32DF JUMP JUMPDEST PUSH2 0xCFB JUMP JUMPDEST CALLVALUE DUP1 ISZERO PUSH2 0x458 JUMPI PUSH1 0x0 DUP1 REVERT JUMPDEST POP PUSH2 0x1C0 PUSH2 0x467 CALLDATASIZE PUSH1 0x4 PUSH2 0x337A JUMP JUMPDEST PUSH2 0xDC6 JUMP JUMPDEST CALLVALUE DUP1 ISZERO PUSH2 0x478 JUMPI PUSH1 0x0 DUP1 REVERT JUMPDEST POP PUSH2 0x1C0 PUSH2 0x1099 JUMP JUMPDEST CALLVALUE DUP1 ISZERO PUSH2 0x48D JUMPI PUSH1 0x0 DUP1 REVERT JUMPDEST POP PUSH2 0x1E2 PUSH2 0x49C CALLDATASIZE PUSH1 0x4 PUSH2 0x32AF JUMP JUMPDEST PUSH2 0x10CF JUMP JUMPDEST CALLVALUE DUP1 ISZERO PUSH2 0x4AD JUMPI PUSH1 0x0 DUP1 REVERT JUMPDEST POP PUSH2 0x1C0 PUSH2 0x4BC CALLDATASIZE PUSH1 0x4 PUSH2 0x3296 JUMP JUMPDEST PUSH2 0x10EB JUMP JUMPDEST CALLVALUE DUP1 ISZERO PUSH2 0x4CD JUMPI PUSH1 0x0 DUP1 REVERT JUMPDEST POP PUSH2 0x1E2 PUSH2 0x4DC CALLDATASIZE PUSH1 0x4 PUSH2 0x32AF JUMP JUMPDEST PUSH2 0x118B JUMP JUMPDEST CALLVALUE DUP1 ISZERO PUSH2 0x4ED JUMPI PUSH1 0x0 DUP1 REVERT JUMPDEST POP PUSH2 0x1E2 PUSH32 0x0 DUP2 JUMP JUMPDEST CALLVALUE DUP1 ISZERO PUSH2 0x521 JUMPI PUSH1 0x0 DUP1 REVERT JUMPDEST POP PUSH1 0x0 SLOAD PUSH1 0x1 PUSH1 0x1 PUSH1 0xA0 SHL SUB AND PUSH2 0x1E2 JUMP JUMPDEST CALLVALUE DUP1 ISZERO PUSH2 0x53F JUMPI PUSH1 0x0 DUP1 REVERT JUMPDEST POP PUSH2 0x254 PUSH2 0x11A7 JUMP JUMPDEST CALLVALUE DUP1 ISZERO PUSH2 0x554 JUMPI PUSH1 0x0 DUP1 REVERT JUMPDEST POP PUSH2 0x1C0 PUSH2 0x563 CALLDATASIZE PUSH1 0x4 PUSH2 0x3472 JUMP JUMPDEST PUSH2 0x1276 JUMP JUMPDEST CALLVALUE DUP1 ISZERO PUSH2 0x574 JUMPI PUSH1 0x0 DUP1 REVERT JUMPDEST POP PUSH1 0x1 SLOAD PUSH2 0x1E2 SWAP1 PUSH1 0x1 PUSH1 0x1 PUSH1 0xA0 SHL SUB AND DUP2 JUMP JUMPDEST CALLVALUE DUP1 ISZERO PUSH2 0x594 JUMPI PUSH1 0x0 DUP1 REVERT JUMPDEST POP PUSH1 0x6 SLOAD PUSH2 0x1E2 SWAP1 PUSH1 0x1 PUSH1 0x1 PUSH1 0xA0 SHL SUB AND DUP2 JUMP JUMPDEST CALLVALUE DUP1 ISZERO PUSH2 0x5B4 JUMPI PUSH1 0x0 DUP1 REVERT JUMPDEST POP PUSH2 0x2EE PUSH1 0x3 SLOAD DUP2 JUMP JUMPDEST CALLVALUE DUP1 ISZERO PUSH2 0x5CA JUMPI PUSH1 0x0 DUP1 REVERT JUMPDEST POP PUSH2 0x5DE PUSH2 0x5D9 CALLDATASIZE PUSH1 0x4 PUSH2 0x3296 JUMP JUMPDEST PUSH2 0x12F7 JUMP JUMPDEST PUSH1 0x40 MLOAD PUSH2 0x1F6 SWAP3 SWAP2 SWAP1 PUSH2 0x3516 JUMP JUMPDEST CALLVALUE DUP1 ISZERO PUSH2 0x5F8 JUMPI PUSH1 0x0 DUP1 REVERT JUMPDEST POP PUSH2 0x1C0 PUSH2 0x607 CALLDATASIZE PUSH1 0x4 PUSH2 0x3279 JUMP JUMPDEST PUSH2 0x1386 JUMP JUMPDEST CALLVALUE DUP1 ISZERO PUSH2 0x618 JUMPI PUSH1 0x0 DUP1 REVERT JUMPDEST POP PUSH2 0x1C0 PUSH2 0x627 CALLDATASIZE PUSH1 0x4 PUSH2 0x3279 JUMP JUMPDEST PUSH2 0x1459 JUMP JUMPDEST CALLVALUE DUP1 ISZERO PUSH2 0x638 JUMPI PUSH1 0x0 DUP1 REVERT JUMPDEST POP PUSH1 0x5 SLOAD PUSH2 0x1E2 SWAP1 PUSH1 0x1 PUSH1 0x1 PUSH1 0xA0 SHL SUB AND DUP2 JUMP JUMPDEST CALLVALUE DUP1 ISZERO PUSH2 0x658 JUMPI PUSH1 0x0 DUP1 REVERT JUMPDEST POP PUSH2 0x1C0 PUSH2 0x667 CALLDATASIZE PUSH1 0x4 PUSH2 0x3279 JUMP JUMPDEST PUSH2 0x14F4 JUMP JUMPDEST PUSH1 0x0 SLOAD PUSH1 0x1 PUSH1 0x1 PUSH1 0xA0 SHL SUB AND CALLER EQ PUSH2 0x69F JUMPI PUSH1 0x40 MLOAD PUSH3 0x461BCD PUSH1 0xE5 SHL DUP2 MSTORE PUSH1 0x4 ADD PUSH2 0x696 SWAP1 PUSH2 0x3573 JUMP JUMPDEST PUSH1 0x40 MLOAD DUP1 SWAP2 SUB SWAP1 REVERT JUMPDEST PUSH1 0x1 PUSH1 0x1 PUSH1 0xA0 SHL SUB DUP2 AND PUSH2 0x6E2 JUMPI PUSH1 0x40 MLOAD PUSH3 0x461BCD PUSH1 0xE5 SHL DUP2 MSTORE PUSH1 0x20 PUSH1 0x4 DUP3 ADD MSTORE PUSH1 0xA PUSH1 0x24 DUP3 ADD MSTORE PUSH10 0x43616E7420706179203 PUSH1 0xB4 SHL PUSH1 0x44 DUP3 ADD MSTORE PUSH1 0x64 ADD PUSH2 0x696 JUMP JUMPDEST PUSH1 0x4 DUP1 SLOAD PUSH1 0x1 PUSH1 0x1 PUSH1 0xA0 SHL SUB NOT AND PUSH1 0x1 PUSH1 0x1 PUSH1 0xA0 SHL SUB DUP4 AND SWAP1 DUP2 OR SWAP1 SWAP2 SSTORE PUSH1 0x40 MLOAD SWAP1 DUP2 MSTORE PUSH32 0x88B8EDDA57AF64D7425B090E9E8D925C96D2CC1360AFDC15F0DA29752103E705 SWAP1 PUSH1 0x20 ADD JUMPDEST PUSH1 0x40 MLOAD DUP1 SWAP2 SUB SWAP1 LOG1 POP JUMP JUMPDEST PUSH1 0x7 SLOAD PUSH1 0x1 PUSH1 0x1 PUSH1 0xA0 SHL SUB AND CALLER EQ PUSH2 0x77C JUMPI PUSH1 0x40 MLOAD PUSH3 0x461BCD PUSH1 0xE5 SHL DUP2 MSTORE PUSH1 0x20 PUSH1 0x4 DUP3 ADD MSTORE PUSH1 0x8 PUSH1 0x24 DUP3 ADD MSTORE PUSH8 0x37B7363CA1B432B3 PUSH1 0xC1 SHL PUSH1 0x44 DUP3 ADD MSTORE PUSH1 0x64 ADD PUSH2 0x696 JUMP JUMPDEST PUSH1 0x0 DUP3 DUP2 MSTORE PUSH1 0x8 PUSH1 0x20 DUP2 SWAP1 MSTORE PUSH1 0x40 SWAP1 SWAP2 KECCAK256 SWAP1 DUP2 ADD SLOAD PUSH1 0xFF AND PUSH2 0x7CB JUMPI PUSH1 0x40 MLOAD PUSH3 0x461BCD PUSH1 0xE5 SHL DUP2 MSTORE PUSH1 0x20 PUSH1 0x4 DUP3 ADD MSTORE PUSH1 0x8 PUSH1 0x24 DUP3 ADD MSTORE PUSH8 0x139BDD081A5B9A5D PUSH1 0xC2 SHL PUSH1 0x44 DUP3 ADD MSTORE PUSH1 0x64 ADD PUSH2 0x696 JUMP JUMPDEST PUSH1 0x7 SLOAD PUSH1 0x40 MLOAD PUSH4 0x1526FE27 PUSH1 0xE0 SHL DUP2 MSTORE PUSH1 0x4 DUP2 ADD DUP6 SWAP1 MSTORE PUSH1 0x0 SWAP2 DUP3 SWAP2 PUSH1 0x1 PUSH1 0x1 PUSH1 0xA0 SHL SUB SWAP1 SWAP2 AND SWAP1 PUSH4 0x1526FE27 SWAP1 PUSH1 0x24 ADD PUSH1 0xE0 PUSH1 0x40 MLOAD DUP1 DUP4 SUB DUP2 DUP7 GAS STATICCALL ISZERO DUP1 ISZERO PUSH2 0x819 JUMPI RETURNDATASIZE PUSH1 0x0 DUP1 RETURNDATACOPY RETURNDATASIZE PUSH1 0x0 REVERT JUMPDEST POP POP POP POP PUSH1 0x40 MLOAD RETURNDATASIZE PUSH1 0x1F NOT PUSH1 0x1F DUP3 ADD AND DUP3 ADD DUP1 PUSH1 0x40 MSTORE POP DUP2 ADD SWAP1 PUSH2 0x83D SWAP2 SWAP1 PUSH2 0x35A8 JUMP JUMPDEST PUSH1 0x7 SLOAD SWAP4 SWAP9 POP SWAP7 POP PUSH2 0x866 SWAP6 POP POP PUSH1 0x1 PUSH1 0x1 PUSH1 0xA0 SHL SUB DUP1 DUP9 AND SWAP5 POP SWAP1 SWAP2 AND SWAP2 POP ADDRESS SWAP1 POP DUP8 PUSH2 0x15AC JUMP JUMPDEST PUSH1 0x40 MLOAD PUSH4 0x70A08231 PUSH1 0xE0 SHL DUP2 MSTORE ADDRESS PUSH1 0x4 DUP3 ADD MSTORE DUP5 SWAP1 PUSH1 0x1 PUSH1 0x1 PUSH1 0xA0 SHL SUB DUP5 AND SWAP1 PUSH4 0x70A08231 SWAP1 PUSH1 0x24 ADD PUSH1 0x20 PUSH1 0x40 MLOAD DUP1 DUP4 SUB DUP2 DUP7 GAS STATICCALL ISZERO DUP1 ISZERO PUSH2 0x8AC JUMPI RETURNDATASIZE PUSH1 0x0 DUP1 RETURNDATACOPY RETURNDATASIZE PUSH1 0x0 REVERT JUMPDEST POP POP POP POP PUSH1 0x40 MLOAD RETURNDATASIZE PUSH1 0x1F NOT PUSH1 0x1F DUP3 ADD AND DUP3 ADD DUP1 PUSH1 0x40 MSTORE POP DUP2 ADD SWAP1 PUSH2 0x8D0 SWAP2 SWAP1 PUSH2 0x361E JUMP JUMPDEST LT ISZERO PUSH2 0x90B JUMPI PUSH1 0x40 MLOAD PUSH3 0x461BCD PUSH1 0xE5 SHL DUP2 MSTORE PUSH1 0x20 PUSH1 0x4 DUP3 ADD MSTORE PUSH1 0xA PUSH1 0x24 DUP3 ADD MSTORE PUSH10 0x73656E642066756E6473 PUSH1 0xB0 SHL PUSH1 0x44 DUP3 ADD MSTORE PUSH1 0x64 ADD PUSH2 0x696 JUMP JUMPDEST PUSH1 0x8 DUP4 ADD SLOAD PUSH1 0x1 PUSH1 0x1 PUSH1 0xA0 SHL SUB DUP1 DUP5 AND SWAP2 PUSH4 0x95EA7B3 SWAP2 PUSH1 0x1 PUSH1 0x20 SHL SWAP1 SWAP2 DIV AND PUSH2 0x936 DUP8 PUSH1 0x2 PUSH2 0x364D JUMP JUMPDEST PUSH1 0x40 MLOAD PUSH1 0x1 PUSH1 0x1 PUSH1 0xE0 SHL SUB NOT PUSH1 0xE0 DUP6 SWAP1 SHL AND DUP2 MSTORE PUSH1 0x1 PUSH1 0x1 PUSH1 0xA0 SHL SUB SWAP1 SWAP3 AND PUSH1 0x4 DUP4 ADD MSTORE PUSH1 0x24 DUP3 ADD MSTORE PUSH1 0x44 ADD PUSH1 0x20 PUSH1 0x40 MLOAD DUP1 DUP4 SUB DUP2 PUSH1 0x0 DUP8 GAS CALL ISZERO DUP1 ISZERO PUSH2 0x981 JUMPI RETURNDATASIZE PUSH1 0x0 DUP1 RETURNDATACOPY RETURNDATASIZE PUSH1 0x0 REVERT JUMPDEST POP POP POP POP PUSH1 0x40 MLOAD RETURNDATASIZE PUSH1 0x1F NOT PUSH1 0x1F DUP3 ADD AND DUP3 ADD DUP1 PUSH1 0x40 MSTORE POP DUP2 ADD SWAP1 PUSH2 0x9A5 SWAP2 SWAP1 PUSH2 0x366C JUMP JUMPDEST POP DUP1 ISZERO PUSH2 0x9BC JUMPI PUSH2 0x9B6 DUP6 DUP6 PUSH2 0x160C JUMP JUMPDEST POP PUSH2 0xAE2 JUMP JUMPDEST PUSH1 0x8 DUP4 ADD SLOAD PUSH2 0x100 SWAP1 DIV PUSH1 0xFF AND ISZERO PUSH2 0xA4F JUMPI PUSH1 0x8 DUP4 ADD SLOAD PUSH1 0x0 DUP7 DUP2 MSTORE PUSH1 0x9 PUSH1 0x20 MSTORE PUSH1 0x40 DUP1 DUP3 KECCAK256 SWAP1 MLOAD PUSH4 0x791AC947 PUSH1 0xE0 SHL DUP2 MSTORE PUSH1 0x1 PUSH1 0x20 SHL SWAP1 SWAP4 DIV PUSH1 0x1 PUSH1 0x1 PUSH1 0xA0 SHL SUB AND SWAP3 PUSH4 0x791AC947 SWAP3 PUSH2 0xA18 SWAP3 DUP10 SWAP3 ADDRESS SWAP1 TIMESTAMP SWAP1 PUSH1 0x4 ADD PUSH2 0x3689 JUMP JUMPDEST PUSH1 0x0 PUSH1 0x40 MLOAD DUP1 DUP4 SUB DUP2 PUSH1 0x0 DUP8 DUP1 EXTCODESIZE ISZERO DUP1 ISZERO PUSH2 0xA32 JUMPI PUSH1 0x0 DUP1 REVERT JUMPDEST POP GAS CALL ISZERO DUP1 ISZERO PUSH2 0xA46 JUMPI RETURNDATASIZE PUSH1 0x0 DUP1 RETURNDATACOPY RETURNDATASIZE PUSH1 0x0 REVERT JUMPDEST POP POP POP POP PUSH2 0xAE2 JUMP JUMPDEST PUSH1 0x8 DUP4 ADD SLOAD PUSH1 0x0 DUP7 DUP2 MSTORE PUSH1 0x9 PUSH1 0x20 MSTORE PUSH1 0x40 DUP1 DUP3 KECCAK256 SWAP1 MLOAD PUSH4 0x18CBAFE5 PUSH1 0xE0 SHL DUP2 MSTORE PUSH1 0x1 PUSH1 0x20 SHL SWAP1 SWAP4 DIV PUSH1 0x1 PUSH1 0x1 PUSH1 0xA0 SHL SUB AND SWAP3 PUSH4 0x18CBAFE5 SWAP3 PUSH2 0xA99 SWAP3 DUP10 SWAP3 ADDRESS SWAP1 TIMESTAMP SWAP1 PUSH1 0x4 ADD PUSH2 0x3689 JUMP JUMPDEST PUSH1 0x0 PUSH1 0x40 MLOAD DUP1 DUP4 SUB DUP2 PUSH1 0x0 DUP8 GAS CALL ISZERO DUP1 ISZERO PUSH2 0xAB8 JUMPI RETURNDATASIZE PUSH1 0x0 DUP1 RETURNDATACOPY RETURNDATASIZE PUSH1 0x0 REVERT JUMPDEST POP POP POP POP PUSH1 0x40 MLOAD RETURNDATASIZE PUSH1 0x0 DUP3 RETURNDATACOPY PUSH1 0x1F RETURNDATASIZE SWAP1 DUP2 ADD PUSH1 0x1F NOT AND DUP3 ADD PUSH1 0x40 MSTORE PUSH2 0xAE0 SWAP2 SWAP1 DUP2 ADD SWAP1 PUSH2 0x3715 JUMP JUMPDEST POP JUMPDEST PUSH1 0x6 SLOAD PUSH1 0x1 PUSH1 0xA0 SHL SWAP1 DIV PUSH1 0xFF AND DUP1 ISZERO PUSH2 0xAFE JUMPI POP PUSH2 0xAFE PUSH2 0x11A7 JUMP JUMPDEST ISZERO PUSH2 0xC72 JUMPI PUSH1 0x1 SLOAD PUSH1 0x40 DUP1 MLOAD PUSH4 0x15AB88C9 PUSH1 0xE3 SHL DUP2 MSTORE SWAP1 MLOAD SELFBALANCE SWAP3 PUSH1 0x60 SWAP3 PUSH1 0x1 PUSH1 0x1 PUSH1 0xA0 SHL SUB SWAP1 SWAP2 AND SWAP2 PUSH4 0xAD5C4648 SWAP2 PUSH1 0x4 DUP1 DUP3 ADD SWAP3 PUSH1 0x20 SWAP3 SWAP1 SWAP2 SWAP1 DUP3 SWAP1 SUB ADD DUP2 DUP7 GAS STATICCALL ISZERO DUP1 ISZERO PUSH2 0xB52 JUMPI RETURNDATASIZE PUSH1 0x0 DUP1 RETURNDATACOPY RETURNDATASIZE PUSH1 0x0 REVERT JUMPDEST POP POP POP POP PUSH1 0x40 MLOAD RETURNDATASIZE PUSH1 0x1F NOT PUSH1 0x1F DUP3 ADD AND DUP3 ADD DUP1 PUSH1 0x40 MSTORE POP DUP2 ADD SWAP1 PUSH2 0xB76 SWAP2 SWAP1 PUSH2 0x37D3 JUMP JUMPDEST DUP2 PUSH1 0x0 DUP2 MLOAD DUP2 LT PUSH2 0xB89 JUMPI PUSH2 0xB89 PUSH2 0x37F0 JUMP JUMPDEST PUSH1 0x20 MUL PUSH1 0x20 ADD ADD SWAP1 PUSH1 0x1 PUSH1 0x1 PUSH1 0xA0 SHL SUB AND SWAP1 DUP2 PUSH1 0x1 PUSH1 0x1 PUSH1 0xA0 SHL SUB AND DUP2 MSTORE POP POP PUSH32 0x0 DUP2 PUSH1 0x1 DUP2 MLOAD DUP2 LT PUSH2 0xBDD JUMPI PUSH2 0xBDD PUSH2 0x37F0 JUMP JUMPDEST PUSH1 0x1 PUSH1 0x1 PUSH1 0xA0 SHL SUB SWAP3 DUP4 AND PUSH1 0x20 SWAP2 DUP3 MUL SWAP3 SWAP1 SWAP3 ADD ADD MSTORE PUSH1 0x1 SLOAD PUSH1 0x40 MLOAD PUSH4 0x7FF36AB5 PUSH1 0xE0 SHL DUP2 MSTORE SWAP2 AND SWAP1 PUSH4 0x7FF36AB5 SWAP1 DUP5 SWAP1 PUSH2 0xC23 SWAP1 PUSH1 0x0 SWAP1 DUP7 SWAP1 DUP3 SWAP1 TIMESTAMP SWAP1 PUSH1 0x4 ADD PUSH2 0x384A JUMP JUMPDEST PUSH1 0x0 PUSH1 0x40 MLOAD DUP1 DUP4 SUB DUP2 DUP6 DUP9 GAS CALL ISZERO DUP1 ISZERO PUSH2 0xC41 JUMPI RETURNDATASIZE PUSH1 0x0 DUP1 RETURNDATACOPY RETURNDATASIZE PUSH1 0x0 REVERT JUMPDEST POP POP POP POP POP PUSH1 0x40 MLOAD RETURNDATASIZE PUSH1 0x0 DUP3 RETURNDATACOPY PUSH1 0x1F RETURNDATASIZE SWAP1 DUP2 ADD PUSH1 0x1F NOT AND DUP3 ADD PUSH1 0x40 MSTORE PUSH2 0xC6A SWAP2 SWAP1 DUP2 ADD SWAP1 PUSH2 0x3715 JUMP JUMPDEST POP POP POP PUSH2 0xC7B JUMP JUMPDEST PUSH2 0xC7B DUP4 PUSH2 0x1FD2 JUMP JUMPDEST PUSH1 0x40 DUP1 MLOAD DUP6 DUP2 MSTORE PUSH1 0x1 PUSH1 0x1 PUSH1 0xA0 SHL SUB DUP5 AND PUSH1 0x20 DUP3 ADD MSTORE PUSH32 0x195B26CED269C6DA9F9A06D404CBA065A0149C0C189719E0384E1BEB79659DA0 SWAP2 ADD PUSH1 0x40 MLOAD DUP1 SWAP2 SUB SWAP1 LOG1 POP POP POP POP POP JUMP JUMPDEST PUSH1 0xA PUSH1 0x20 MSTORE DUP2 PUSH1 0x0 MSTORE PUSH1 0x40 PUSH1 0x0 KECCAK256 DUP2 DUP2 SLOAD DUP2 LT PUSH2 0xCDF JUMPI PUSH1 0x0 DUP1 REVERT JUMPDEST PUSH1 0x0 SWAP2 DUP3 MSTORE PUSH1 0x20 SWAP1 SWAP2 KECCAK256 ADD SLOAD PUSH1 0x1 PUSH1 0x1 PUSH1 0xA0 SHL SUB AND SWAP2 POP DUP3 SWAP1 POP JUMP JUMPDEST PUSH1 0x0 SLOAD PUSH1 0x1 PUSH1 0x1 PUSH1 0xA0 SHL SUB AND CALLER EQ PUSH2 0xD25 JUMPI PUSH1 0x40 MLOAD PUSH3 0x461BCD PUSH1 0xE5 SHL DUP2 MSTORE PUSH1 0x4 ADD PUSH2 0x696 SWAP1 PUSH2 0x3573 JUMP JUMPDEST PUSH1 0x6 SLOAD PUSH1 0xFF PUSH1 0x1 PUSH1 0xA0 SHL SWAP1 SWAP2 DIV AND ISZERO ISZERO DUP2 ISZERO ISZERO EQ ISZERO PUSH2 0xD79 JUMPI PUSH1 0x40 MLOAD PUSH3 0x461BCD PUSH1 0xE5 SHL DUP2 MSTORE PUSH1 0x20 PUSH1 0x4 DUP3 ADD MSTORE PUSH1 0x10 PUSH1 0x24 DUP3 ADD MSTORE PUSH16 0x416C726561647920696E207374617465 PUSH1 0x80 SHL PUSH1 0x44 DUP3 ADD MSTORE PUSH1 0x64 ADD PUSH2 0x696 JUMP JUMPDEST PUSH1 0x6 DUP1 SLOAD DUP3 ISZERO ISZERO PUSH1 0x1 PUSH1 0xA0 SHL MUL PUSH1 0xFF PUSH1 0xA0 SHL NOT SWAP1 SWAP2 AND OR SWAP1 SSTORE PUSH1 0x40 MLOAD PUSH32 0x7D703B166159E7B2E16B6550390CFDC4786DDDF83C504AA32647E1DA9127F226 SWAP1 PUSH2 0x72C SWAP1 DUP4 ISZERO ISZERO DUP2 MSTORE PUSH1 0x20 ADD SWAP1 JUMP JUMPDEST PUSH1 0x0 SLOAD PUSH1 0x1 PUSH1 0x1 PUSH1 0xA0 SHL SUB AND CALLER EQ PUSH2 0xDF0 JUMPI PUSH1 0x40 MLOAD PUSH3 0x461BCD PUSH1 0xE5 SHL DUP2 MSTORE PUSH1 0x4 ADD PUSH2 0x696 SWAP1 PUSH2 0x3573 JUMP JUMPDEST PUSH2 0x2710 PUSH2 0xDFD DUP12 DUP12 PUSH2 0x24BF JUMP JUMPDEST GT ISZERO PUSH2 0xE4B JUMPI PUSH1 0x40 MLOAD PUSH3 0x461BCD PUSH1 0xE5 SHL DUP2 MSTORE PUSH1 0x20 PUSH1 0x4 DUP3 ADD MSTORE PUSH1 0x1A PUSH1 0x24 DUP3 ADD MSTORE PUSH32 0x496E636F72726563742046656520646973747269627574696F6E000000000000 PUSH1 0x44 DUP3 ADD MSTORE PUSH1 0x64 ADD PUSH2 0x696 JUMP JUMPDEST PUSH1 0x1 PUSH1 0x1 PUSH1 0xA0 SHL SUB DUP8 AND PUSH2 0xE94 JUMPI PUSH1 0x40 MLOAD PUSH3 0x461BCD PUSH1 0xE5 SHL DUP2 MSTORE PUSH1 0x20 PUSH1 0x4 DUP3 ADD MSTORE PUSH1 0x10 PUSH1 0x24 DUP3 ADD MSTORE PUSH16 0x24B731B7B93932B1BA102937BABA32B9 PUSH1 0x81 SHL PUSH1 0x44 DUP3 ADD MSTORE PUSH1 0x64 ADD PUSH2 0x696 JUMP JUMPDEST DUP5 PUSH2 0xED7 JUMPI PUSH1 0x40 MLOAD PUSH3 0x461BCD PUSH1 0xE5 SHL DUP2 MSTORE PUSH1 0x20 PUSH1 0x4 DUP3 ADD MSTORE PUSH1 0x13 PUSH1 0x24 DUP3 ADD MSTORE PUSH19 0x6E6565642061207061746820746F2062617365 PUSH1 0x68 SHL PUSH1 0x44 DUP3 ADD MSTORE PUSH1 0x64 ADD PUSH2 0x696 JUMP JUMPDEST PUSH1 0x40 DUP1 MLOAD PUSH2 0x140 DUP2 ADD SWAP1 SWAP2 MSTORE DUP1 PUSH1 0xE0 DUP2 ADD DUP13 PUSH1 0x3 DUP3 DUP3 PUSH1 0x60 DUP1 DUP3 DUP5 CALLDATACOPY PUSH1 0x0 SWAP3 ADD SWAP2 SWAP1 SWAP2 MSTORE POP POP POP DUP2 MSTORE PUSH1 0x40 DUP1 MLOAD PUSH1 0xA0 DUP2 DUP2 ADD SWAP1 SWAP3 MSTORE PUSH1 0x20 SWAP1 SWAP3 ADD SWAP2 SWAP1 DUP13 SWAP1 PUSH1 0x5 SWAP1 DUP4 SWAP1 DUP4 SWAP1 DUP1 DUP3 DUP5 CALLDATACOPY PUSH1 0x0 SWAP3 ADD SWAP2 SWAP1 SWAP2 MSTORE POP POP POP DUP2 MSTORE PUSH1 0x1 PUSH1 0x20 DUP1 DUP4 ADD SWAP2 SWAP1 SWAP2 MSTORE PUSH1 0x40 SWAP1 SWAP2 ADD SWAP1 PUSH2 0xF4A SWAP1 DUP12 ADD DUP12 PUSH2 0x32DF JUMP JUMPDEST ISZERO ISZERO DUP2 MSTORE PUSH1 0x20 SWAP1 DUP2 ADD SWAP1 PUSH2 0xF64 SWAP1 PUSH1 0x40 DUP13 ADD SWAP1 DUP13 ADD PUSH2 0x32DF JUMP JUMPDEST ISZERO ISZERO DUP2 MSTORE PUSH1 0x20 ADD PUSH2 0xF7B PUSH1 0x60 DUP12 ADD PUSH1 0x40 DUP13 ADD PUSH2 0x32DF JUMP JUMPDEST ISZERO ISZERO DUP2 MSTORE PUSH1 0x1 PUSH1 0x1 PUSH1 0xA0 SHL SUB DUP10 AND PUSH1 0x20 SWAP2 DUP3 ADD MSTORE PUSH1 0x0 DUP14 DUP2 MSTORE PUSH1 0x8 SWAP1 SWAP2 MSTORE PUSH1 0x40 SWAP1 KECCAK256 DUP2 MLOAD PUSH2 0xFAC SWAP1 DUP3 SWAP1 PUSH1 0x3 PUSH2 0x3155 JUMP JUMPDEST POP PUSH1 0x20 DUP3 ADD MLOAD PUSH2 0xFC2 SWAP1 PUSH1 0x3 DUP4 ADD SWAP1 PUSH1 0x5 PUSH2 0x3193 JUMP JUMPDEST POP PUSH1 0x40 DUP3 ADD MLOAD PUSH1 0x8 SWAP1 SWAP2 ADD DUP1 SLOAD PUSH1 0x60 DUP5 ADD MLOAD PUSH1 0x80 DUP6 ADD MLOAD PUSH1 0xA0 DUP7 ADD MLOAD PUSH1 0xC0 SWAP1 SWAP7 ADD MLOAD PUSH1 0x1 PUSH1 0x1 PUSH1 0xA0 SHL SUB AND PUSH1 0x1 PUSH1 0x20 SHL MUL PUSH5 0x100000000 PUSH1 0x1 PUSH1 0xC0 SHL SUB NOT SWAP7 ISZERO ISZERO PUSH4 0x1000000 MUL PUSH4 0xFF000000 NOT SWAP3 ISZERO ISZERO PUSH3 0x10000 MUL SWAP3 SWAP1 SWAP3 AND PUSH4 0xFFFF0000 NOT SWAP4 ISZERO ISZERO PUSH2 0x100 MUL PUSH2 0xFF00 NOT SWAP8 ISZERO ISZERO SWAP8 SWAP1 SWAP8 AND PUSH2 0xFFFF NOT SWAP1 SWAP6 AND SWAP5 SWAP1 SWAP5 OR SWAP6 SWAP1 SWAP6 OR SWAP2 SWAP1 SWAP2 AND SWAP2 SWAP1 SWAP2 OR OR SWAP3 SWAP1 SWAP3 AND OR SWAP1 SSTORE PUSH2 0x1061 DUP12 DUP8 DUP8 DUP8 DUP8 DUP8 DUP8 PUSH2 0x1276 JUMP JUMPDEST PUSH1 0x40 MLOAD DUP12 SWAP1 PUSH32 0xF7EB02141AD38EBC5B61E51E5BB0E913CEA227B9DFC94EA034FB39A9F5FE809F SWAP1 PUSH1 0x0 SWAP1 LOG2 POP POP POP POP POP POP POP POP POP POP POP JUMP JUMPDEST PUSH1 0x0 SLOAD PUSH1 0x1 PUSH1 0x1 PUSH1 0xA0 SHL SUB AND CALLER EQ PUSH2 0x10C3 JUMPI PUSH1 0x40 MLOAD PUSH3 0x461BCD PUSH1 0xE5 SHL DUP2 MSTORE PUSH1 0x4 ADD PUSH2 0x696 SWAP1 PUSH2 0x3573 JUMP JUMPDEST PUSH2 0x10CD PUSH1 0x0 PUSH2 0x253C JUMP JUMPDEST JUMP JUMPDEST PUSH1 0x9 PUSH1 0x20 MSTORE DUP2 PUSH1 0x0 MSTORE PUSH1 0x40 PUSH1 0x0 KECCAK256 DUP2 DUP2 SLOAD DUP2 LT PUSH2 0xCDF JUMPI PUSH1 0x0 DUP1 REVERT JUMPDEST PUSH1 0x0 SLOAD PUSH1 0x1 PUSH1 0x1 PUSH1 0xA0 SHL SUB AND CALLER EQ PUSH2 0x1115 JUMPI PUSH1 0x40 MLOAD PUSH3 0x461BCD PUSH1 0xE5 SHL DUP2 MSTORE PUSH1 0x4 ADD PUSH2 0x696 SWAP1 PUSH2 0x3573 JUMP JUMPDEST PUSH1 0x0 DUP2 GT PUSH2 0x1156 JUMPI PUSH1 0x40 MLOAD PUSH3 0x461BCD PUSH1 0xE5 SHL DUP2 MSTORE PUSH1 0x20 PUSH1 0x4 DUP3 ADD MSTORE PUSH1 0xE PUSH1 0x24 DUP3 ADD MSTORE PUSH14 0x125B9D985B1A59081D185C99D95D PUSH1 0x92 SHL PUSH1 0x44 DUP3 ADD MSTORE PUSH1 0x64 ADD PUSH2 0x696 JUMP JUMPDEST PUSH1 0x3 DUP2 SWAP1 SSTORE PUSH1 0x40 MLOAD DUP2 DUP2 MSTORE PUSH32 0x145CC1D669B07469E4051F322247BE4857EC7E59AE7DCD6E88057C181424D858 SWAP1 PUSH1 0x20 ADD PUSH2 0x72C JUMP JUMPDEST PUSH1 0xB PUSH1 0x20 MSTORE DUP2 PUSH1 0x0 MSTORE PUSH1 0x40 PUSH1 0x0 KECCAK256 DUP2 DUP2 SLOAD DUP2 LT PUSH2 0xCDF JUMPI PUSH1 0x0 DUP1 REVERT JUMPDEST PUSH1 0x0 DUP1 PUSH1 0x0 PUSH1 0x2 PUSH1 0x0 SWAP1 SLOAD SWAP1 PUSH2 0x100 EXP SWAP1 DIV PUSH1 0x1 PUSH1 0x1 PUSH1 0xA0 SHL SUB AND PUSH1 0x1 PUSH1 0x1 PUSH1 0xA0 SHL SUB AND PUSH4 0x902F1AC PUSH1 0x40 MLOAD DUP2 PUSH4 0xFFFFFFFF AND PUSH1 0xE0 SHL DUP2 MSTORE PUSH1 0x4 ADD PUSH1 0x60 PUSH1 0x40 MLOAD DUP1 DUP4 SUB DUP2 DUP7 GAS STATICCALL ISZERO DUP1 ISZERO PUSH2 0x11FF JUMPI RETURNDATASIZE PUSH1 0x0 DUP1 RETURNDATACOPY RETURNDATASIZE PUSH1 0x0 REVERT JUMPDEST POP POP POP POP PUSH1 0x40 MLOAD RETURNDATASIZE PUSH1 0x1F NOT PUSH1 0x1F DUP3 ADD AND DUP3 ADD DUP1 PUSH1 0x40 MSTORE POP DUP2 ADD SWAP1 PUSH2 0x1223 SWAP2 SWAP1 PUSH2 0x3896 JUMP JUMPDEST POP PUSH1 0x1 PUSH1 0x1 PUSH1 0x70 SHL SUB AND SWAP2 POP PUSH1 0x1 PUSH1 0x1 PUSH1 0x70 SHL SUB AND SWAP2 POP PUSH1 0x0 DUP2 GT PUSH2 0x1249 JUMPI PUSH1 0x1 PUSH2 0x124B JUMP JUMPDEST DUP1 JUMPDEST PUSH1 0x3 SLOAD SWAP1 SWAP2 POP DUP2 PUSH2 0x1264 DUP5 PUSH8 0xDE0B6B3A7640000 PUSH2 0x364D JUMP JUMPDEST PUSH2 0x126E SWAP2 SWAP1 PUSH2 0x38E6 JUMP JUMPDEST LT SWAP3 POP POP POP SWAP1 JUMP JUMPDEST PUSH1 0x0 SLOAD PUSH1 0x1 PUSH1 0x1 PUSH1 0xA0 SHL SUB AND CALLER EQ PUSH2 0x12A0 JUMPI PUSH1 0x40 MLOAD PUSH3 0x461BCD PUSH1 0xE5 SHL DUP2 MSTORE PUSH1 0x4 ADD PUSH2 0x696 SWAP1 PUSH2 0x3573 JUMP JUMPDEST PUSH1 0x0 DUP8 DUP2 MSTORE PUSH1 0x9 PUSH1 0x20 MSTORE PUSH1 0x40 SWAP1 KECCAK256 PUSH2 0x12B9 SWAP1 DUP8 DUP8 PUSH2 0x31C0 JUMP JUMPDEST POP PUSH1 0x0 DUP8 DUP2 MSTORE PUSH1 0xA PUSH1 0x20 MSTORE PUSH1 0x40 SWAP1 KECCAK256 PUSH2 0x12D3 SWAP1 DUP6 DUP6 PUSH2 0x31C0 JUMP JUMPDEST POP PUSH1 0x0 DUP8 DUP2 MSTORE PUSH1 0xB PUSH1 0x20 MSTORE PUSH1 0x40 SWAP1 KECCAK256 PUSH2 0x12ED SWAP1 DUP4 DUP4 PUSH2 0x31C0 JUMP JUMPDEST POP POP POP POP POP POP POP POP JUMP JUMPDEST PUSH2 0x12FF PUSH2 0x3213 JUMP JUMPDEST PUSH2 0x1307 PUSH2 0x3231 JUMP JUMPDEST PUSH1 0x0 DUP4 DUP2 MSTORE PUSH1 0x8 PUSH1 0x20 MSTORE PUSH1 0x40 SWAP1 DUP2 SWAP1 KECCAK256 DUP2 MLOAD PUSH1 0x60 DUP2 ADD SWAP3 DUP4 SWAP1 MSTORE SWAP2 PUSH1 0x3 SWAP1 DUP3 DUP5 JUMPDEST DUP2 SLOAD DUP2 MSTORE PUSH1 0x20 ADD SWAP1 PUSH1 0x1 ADD SWAP1 DUP1 DUP4 GT PUSH2 0x1328 JUMPI POP POP POP PUSH1 0x0 DUP7 DUP2 MSTORE PUSH1 0x8 PUSH1 0x20 MSTORE PUSH1 0x40 SWAP1 DUP2 SWAP1 KECCAK256 DUP2 MLOAD PUSH1 0xA0 DUP2 ADD SWAP3 DUP4 SWAP1 MSTORE SWAP5 SWAP7 POP PUSH1 0x3 ADD SWAP3 POP PUSH1 0x5 SWAP2 POP DUP3 DUP5 JUMPDEST DUP2 SLOAD DUP2 MSTORE PUSH1 0x20 ADD SWAP1 PUSH1 0x1 ADD SWAP1 DUP1 DUP4 GT PUSH2 0x1367 JUMPI POP POP POP POP POP SWAP1 POP SWAP2 POP SWAP2 JUMP JUMPDEST PUSH1 0x0 SLOAD PUSH1 0x1 PUSH1 0x1 PUSH1 0xA0 SHL SUB AND CALLER EQ PUSH2 0x13B0 JUMPI PUSH1 0x40 MLOAD PUSH3 0x461BCD PUSH1 0xE5 SHL DUP2 MSTORE PUSH1 0x4 ADD PUSH2 0x696 SWAP1 PUSH2 0x3573 JUMP JUMPDEST PUSH1 0x1 PUSH1 0x1 PUSH1 0xA0 SHL SUB DUP2 AND PUSH2 0x13F0 JUMPI PUSH1 0x40 MLOAD PUSH3 0x461BCD PUSH1 0xE5 SHL DUP2 MSTORE PUSH1 0x20 PUSH1 0x4 DUP3 ADD MSTORE PUSH1 0x7 PUSH1 0x24 DUP3 ADD MSTORE PUSH7 0x4E6F205A65726F PUSH1 0xC8 SHL PUSH1 0x44 DUP3 ADD MSTORE PUSH1 0x64 ADD PUSH2 0x696 JUMP JUMPDEST PUSH1 0x6 SLOAD PUSH1 0x40 DUP1 MLOAD PUSH1 0x1 PUSH1 0x1 PUSH1 0xA0 SHL SUB DUP1 DUP6 AND DUP3 MSTORE SWAP1 SWAP3 AND PUSH1 0x20 DUP4 ADD MSTORE PUSH32 0x4088A686F46439872254E52412588879189D5D7AD58511047A6F308714E0A0FC SWAP2 ADD PUSH1 0x40 MLOAD DUP1 SWAP2 SUB SWAP1 LOG1 PUSH1 0x6 DUP1 SLOAD PUSH1 0x1 PUSH1 0x1 PUSH1 0xA0 SHL SUB NOT AND PUSH1 0x1 PUSH1 0x1 PUSH1 0xA0 SHL SUB SWAP3 SWAP1 SWAP3 AND SWAP2 SWAP1 SWAP2 OR SWAP1 SSTORE JUMP JUMPDEST PUSH1 0x0 SLOAD PUSH1 0x1 PUSH1 0x1 PUSH1 0xA0 SHL SUB AND CALLER EQ PUSH2 0x1483 JUMPI PUSH1 0x40 MLOAD PUSH3 0x461BCD PUSH1 0xE5 SHL DUP2 MSTORE PUSH1 0x4 ADD PUSH2 0x696 SWAP1 PUSH2 0x3573 JUMP JUMPDEST PUSH1 0x1 PUSH1 0x1 PUSH1 0xA0 SHL SUB DUP2 AND PUSH2 0x14E8 JUMPI PUSH1 0x40 MLOAD PUSH3 0x461BCD PUSH1 0xE5 SHL DUP2 MSTORE PUSH1 0x20 PUSH1 0x4 DUP3 ADD MSTORE PUSH1 0x26 PUSH1 0x24 DUP3 ADD MSTORE PUSH32 0x4F776E61626C653A206E6577206F776E657220697320746865207A65726F2061 PUSH1 0x44 DUP3 ADD MSTORE PUSH6 0x646472657373 PUSH1 0xD0 SHL PUSH1 0x64 DUP3 ADD MSTORE PUSH1 0x84 ADD PUSH2 0x696 JUMP JUMPDEST PUSH2 0x14F1 DUP2 PUSH2 0x253C JUMP JUMPDEST POP JUMP JUMPDEST PUSH1 0x0 SLOAD PUSH1 0x1 PUSH1 0x1 PUSH1 0xA0 SHL SUB AND CALLER EQ PUSH2 0x151E JUMPI PUSH1 0x40 MLOAD PUSH3 0x461BCD PUSH1 0xE5 SHL DUP2 MSTORE PUSH1 0x4 ADD PUSH2 0x696 SWAP1 PUSH2 0x3573 JUMP JUMPDEST PUSH1 0x1 PUSH1 0x1 PUSH1 0xA0 SHL SUB DUP2 AND PUSH2 0x155E JUMPI PUSH1 0x40 MLOAD PUSH3 0x461BCD PUSH1 0xE5 SHL DUP2 MSTORE PUSH1 0x20 PUSH1 0x4 DUP3 ADD MSTORE PUSH1 0x7 PUSH1 0x24 DUP3 ADD MSTORE PUSH7 0x4E6F207A65726F PUSH1 0xC8 SHL PUSH1 0x44 DUP3 ADD MSTORE PUSH1 0x64 ADD PUSH2 0x696 JUMP JUMPDEST PUSH1 0x1 DUP1 SLOAD PUSH1 0x1 PUSH1 0x1 PUSH1 0xA0 SHL SUB NOT AND PUSH1 0x1 PUSH1 0x1 PUSH1 0xA0 SHL SUB DUP4 AND SWAP1 DUP2 OR SWAP1 SWAP2 SSTORE PUSH1 0x40 MLOAD SWAP1 DUP2 MSTORE PUSH32 0x2DF9D602927CBEE25F5AC348817E8312326C22C45D0AFE91F8C3B5EB4FD67508 SWAP1 PUSH1 0x20 ADD PUSH2 0x72C JUMP JUMPDEST PUSH1 0x40 DUP1 MLOAD PUSH1 0x1 PUSH1 0x1 PUSH1 0xA0 SHL SUB DUP6 DUP2 AND PUSH1 0x24 DUP4 ADD MSTORE DUP5 AND PUSH1 0x44 DUP3 ADD MSTORE PUSH1 0x64 DUP1 DUP3 ADD DUP5 SWAP1 MSTORE DUP3 MLOAD DUP1 DUP4 SUB SWAP1 SWAP2 ADD DUP2 MSTORE PUSH1 0x84 SWAP1 SWAP2 ADD SWAP1 SWAP2 MSTORE PUSH1 0x20 DUP2 ADD DUP1 MLOAD PUSH1 0x1 PUSH1 0x1 PUSH1 0xE0 SHL SUB AND PUSH4 0x23B872DD PUSH1 0xE0 SHL OR SWAP1 MSTORE PUSH2 0x1606 SWAP1 DUP6 SWAP1 PUSH2 0x258C JUMP JUMPDEST POP POP POP POP JUMP JUMPDEST PUSH1 0x0 DUP3 DUP2 MSTORE PUSH1 0x8 PUSH1 0x20 SWAP1 DUP2 MSTORE PUSH1 0x40 DUP1 DUP4 KECCAK256 PUSH1 0x1 SLOAD DUP3 MLOAD PUSH4 0x15AB88C9 PUSH1 0xE3 SHL DUP2 MSTORE SWAP3 MLOAD SWAP2 SWAP4 PUSH1 0x1 PUSH1 0x1 PUSH1 0xA0 SHL SUB SWAP1 SWAP2 AND SWAP3 PUSH4 0xAD5C4648 SWAP3 PUSH1 0x4 DUP1 DUP4 ADD SWAP4 SWAP3 DUP3 SWAP1 SUB ADD DUP2 DUP7 GAS STATICCALL ISZERO DUP1 ISZERO PUSH2 0x1662 JUMPI RETURNDATASIZE PUSH1 0x0 DUP1 RETURNDATACOPY RETURNDATASIZE PUSH1 0x0 REVERT JUMPDEST POP POP POP POP PUSH1 0x40 MLOAD RETURNDATASIZE PUSH1 0x1F NOT PUSH1 0x1F DUP3 ADD AND DUP3 ADD DUP1 PUSH1 0x40 MSTORE POP DUP2 ADD SWAP1 PUSH2 0x1686 SWAP2 SWAP1 PUSH2 0x37D3 JUMP JUMPDEST PUSH1 0x1 PUSH1 0x1 PUSH1 0xA0 SHL SUB AND PUSH1 0x9 PUSH1 0x0 DUP7 DUP2 MSTORE PUSH1 0x20 ADD SWAP1 DUP2 MSTORE PUSH1 0x20 ADD PUSH1 0x0 KECCAK256 PUSH1 0x0 DUP2 SLOAD DUP2 LT PUSH2 0x16B4 JUMPI PUSH2 0x16B4 PUSH2 0x37F0 JUMP JUMPDEST PUSH1 0x0 SWAP2 DUP3 MSTORE PUSH1 0x20 SWAP1 SWAP2 KECCAK256 ADD SLOAD PUSH1 0x1 PUSH1 0x1 PUSH1 0xA0 SHL SUB AND EQ DUP1 PUSH2 0x178C JUMPI POP PUSH1 0x1 PUSH1 0x0 SWAP1 SLOAD SWAP1 PUSH2 0x100 EXP SWAP1 DIV PUSH1 0x1 PUSH1 0x1 PUSH1 0xA0 SHL SUB AND PUSH1 0x1 PUSH1 0x1 PUSH1 0xA0 SHL SUB AND PUSH4 0xAD5C4648 PUSH1 0x40 MLOAD DUP2 PUSH4 0xFFFFFFFF AND PUSH1 0xE0 SHL DUP2 MSTORE PUSH1 0x4 ADD PUSH1 0x20 PUSH1 0x40 MLOAD DUP1 DUP4 SUB DUP2 DUP7 GAS STATICCALL ISZERO DUP1 ISZERO PUSH2 0x1723 JUMPI RETURNDATASIZE PUSH1 0x0 DUP1 RETURNDATACOPY RETURNDATASIZE PUSH1 0x0 REVERT JUMPDEST POP POP POP POP PUSH1 0x40 MLOAD RETURNDATASIZE PUSH1 0x1F NOT PUSH1 0x1F DUP3 ADD AND DUP3 ADD DUP1 PUSH1 0x40 MSTORE POP DUP2 ADD SWAP1 PUSH2 0x1747 SWAP2 SWAP1 PUSH2 0x37D3 JUMP JUMPDEST PUSH1 0x1 PUSH1 0x1 PUSH1 0xA0 SHL SUB AND PUSH1 0x9 PUSH1 0x0 DUP7 DUP2 MSTORE PUSH1 0x20 ADD SWAP1 DUP2 MSTORE PUSH1 0x20 ADD PUSH1 0x0 KECCAK256 PUSH1 0x1 DUP2 SLOAD DUP2 LT PUSH2 0x1775 JUMPI PUSH2 0x1775 PUSH2 0x37F0 JUMP JUMPDEST PUSH1 0x0 SWAP2 DUP3 MSTORE PUSH1 0x20 SWAP1 SWAP2 KECCAK256 ADD SLOAD PUSH1 0x1 PUSH1 0x1 PUSH1 0xA0 SHL SUB AND EQ JUMPDEST ISZERO PUSH2 0x1ACC JUMPI PUSH1 0x0 PUSH1 0x60 PUSH1 0x0 PUSH2 0x17A0 DUP8 PUSH2 0x2663 JUMP JUMPDEST PUSH1 0x8 DUP8 ADD SLOAD SWAP3 SWAP6 POP SWAP1 SWAP4 POP SWAP2 POP PUSH2 0x100 SWAP1 DIV PUSH1 0xFF AND ISZERO PUSH2 0x1846 JUMPI PUSH1 0x8 DUP5 ADD SLOAD PUSH1 0x40 MLOAD PUSH4 0xAF2979EB PUSH1 0xE0 SHL DUP2 MSTORE PUSH1 0x1 PUSH1 0x20 SHL SWAP1 SWAP2 DIV PUSH1 0x1 PUSH1 0x1 PUSH1 0xA0 SHL SUB AND SWAP1 PUSH4 0xAF2979EB SWAP1 PUSH2 0x17FD SWAP1 DUP7 SWAP1 DUP11 SWAP1 PUSH1 0x0 SWAP1 DUP2 SWAP1 ADDRESS SWAP1 TIMESTAMP SWAP1 PUSH1 0x4 ADD PUSH2 0x3908 JUMP JUMPDEST PUSH1 0x20 PUSH1 0x40 MLOAD DUP1 DUP4 SUB DUP2 PUSH1 0x0 DUP8 GAS CALL ISZERO DUP1 ISZERO PUSH2 0x181C JUMPI RETURNDATASIZE PUSH1 0x0 DUP1 RETURNDATACOPY RETURNDATASIZE PUSH1 0x0 REVERT JUMPDEST POP POP POP POP PUSH1 0x40 MLOAD RETURNDATASIZE PUSH1 0x1F NOT PUSH1 0x1F DUP3 ADD AND DUP3 ADD DUP1 PUSH1 0x40 MSTORE POP DUP2 ADD SWAP1 PUSH2 0x1840 SWAP2 SWAP1 PUSH2 0x361E JUMP JUMPDEST POP PUSH2 0x18CD JUMP JUMPDEST PUSH1 0x8 DUP5 ADD SLOAD PUSH1 0x40 MLOAD PUSH3 0x9D473B PUSH1 0xE2 SHL DUP2 MSTORE PUSH1 0x1 PUSH1 0x20 SHL SWAP1 SWAP2 DIV PUSH1 0x1 PUSH1 0x1 PUSH1 0xA0 SHL SUB AND SWAP1 PUSH4 0x2751CEC SWAP1 PUSH2 0x1888 SWAP1 DUP7 SWAP1 DUP11 SWAP1 PUSH1 0x0 SWAP1 DUP2 SWAP1 ADDRESS SWAP1 TIMESTAMP SWAP1 PUSH1 0x4 ADD PUSH2 0x3908 JUMP JUMPDEST PUSH1 0x40 DUP1 MLOAD DUP1 DUP4 SUB DUP2 PUSH1 0x0 DUP8 GAS CALL ISZERO DUP1 ISZERO PUSH2 0x18A6 JUMPI RETURNDATASIZE PUSH1 0x0 DUP1 RETURNDATACOPY RETURNDATASIZE PUSH1 0x0 REVERT JUMPDEST POP POP POP POP PUSH1 0x40 MLOAD RETURNDATASIZE PUSH1 0x1F NOT PUSH1 0x1F DUP3 ADD AND DUP3 ADD DUP1 PUSH1 0x40 MSTORE POP DUP2 ADD SWAP1 PUSH2 0x18CA SWAP2 SWAP1 PUSH2 0x3943 JUMP JUMPDEST POP POP JUMPDEST PUSH1 0x40 MLOAD PUSH4 0x70A08231 PUSH1 0xE0 SHL DUP2 MSTORE ADDRESS PUSH1 0x4 DUP3 ADD MSTORE PUSH1 0x0 SWAP1 PUSH1 0x1 PUSH1 0x1 PUSH1 0xA0 SHL SUB DUP6 AND SWAP1 PUSH4 0x70A08231 SWAP1 PUSH1 0x24 ADD PUSH1 0x20 PUSH1 0x40 MLOAD DUP1 DUP4 SUB DUP2 DUP7 GAS STATICCALL ISZERO DUP1 ISZERO PUSH2 0x1914 JUMPI RETURNDATASIZE PUSH1 0x0 DUP1 RETURNDATACOPY RETURNDATASIZE PUSH1 0x0 REVERT JUMPDEST POP POP POP POP PUSH1 0x40 MLOAD RETURNDATASIZE PUSH1 0x1F NOT PUSH1 0x1F DUP3 ADD AND DUP3 ADD DUP1 PUSH1 0x40 MSTORE POP DUP2 ADD SWAP1 PUSH2 0x1938 SWAP2 SWAP1 PUSH2 0x361E JUMP JUMPDEST PUSH1 0x8 DUP7 ADD SLOAD PUSH1 0x40 MLOAD PUSH4 0x95EA7B3 PUSH1 0xE0 SHL DUP2 MSTORE PUSH1 0x1 PUSH1 0x1 PUSH1 0xA0 SHL SUB PUSH1 0x1 PUSH1 0x20 SHL SWAP1 SWAP3 DIV DUP3 AND PUSH1 0x4 DUP3 ADD MSTORE PUSH1 0x24 DUP2 ADD DUP4 SWAP1 MSTORE SWAP2 SWAP3 POP DUP6 AND SWAP1 PUSH4 0x95EA7B3 SWAP1 PUSH1 0x44 ADD PUSH1 0x20 PUSH1 0x40 MLOAD DUP1 DUP4 SUB DUP2 PUSH1 0x0 DUP8 GAS CALL ISZERO DUP1 ISZERO PUSH2 0x1996 JUMPI RETURNDATASIZE PUSH1 0x0 DUP1 RETURNDATACOPY RETURNDATASIZE PUSH1 0x0 REVERT JUMPDEST POP POP POP POP PUSH1 0x40 MLOAD RETURNDATASIZE PUSH1 0x1F NOT PUSH1 0x1F DUP3 ADD AND DUP3 ADD DUP1 PUSH1 0x40 MSTORE POP DUP2 ADD SWAP1 PUSH2 0x19BA SWAP2 SWAP1 PUSH2 0x366C JUMP JUMPDEST POP DUP2 ISZERO PUSH2 0x1A39 JUMPI PUSH1 0x8 DUP6 ADD SLOAD PUSH1 0x40 MLOAD PUSH4 0x791AC947 PUSH1 0xE0 SHL DUP2 MSTORE PUSH1 0x1 PUSH1 0x20 SHL SWAP1 SWAP2 DIV PUSH1 0x1 PUSH1 0x1 PUSH1 0xA0 SHL SUB AND SWAP1 PUSH4 0x791AC947 SWAP1 PUSH2 0x1A02 SWAP1 DUP5 SWAP1 PUSH1 0x0 SWAP1 DUP9 SWAP1 ADDRESS SWAP1 TIMESTAMP SWAP1 PUSH1 0x4 ADD PUSH2 0x3967 JUMP JUMPDEST PUSH1 0x0 PUSH1 0x40 MLOAD DUP1 DUP4 SUB DUP2 PUSH1 0x0 DUP8 DUP1 EXTCODESIZE ISZERO DUP1 ISZERO PUSH2 0x1A1C JUMPI PUSH1 0x0 DUP1 REVERT JUMPDEST POP GAS CALL ISZERO DUP1 ISZERO PUSH2 0x1A30 JUMPI RETURNDATASIZE PUSH1 0x0 DUP1 RETURNDATACOPY RETURNDATASIZE PUSH1 0x0 REVERT JUMPDEST POP POP POP POP PUSH2 0x1AC3 JUMP JUMPDEST PUSH1 0x8 DUP6 ADD SLOAD PUSH1 0x40 MLOAD PUSH4 0x18CBAFE5 PUSH1 0xE0 SHL DUP2 MSTORE PUSH1 0x1 PUSH1 0x20 SHL SWAP1 SWAP2 DIV PUSH1 0x1 PUSH1 0x1 PUSH1 0xA0 SHL SUB AND SWAP1 PUSH4 0x18CBAFE5 SWAP1 PUSH2 0x1A7A SWAP1 DUP5 SWAP1 PUSH1 0x0 SWAP1 DUP9 SWAP1 ADDRESS SWAP1 TIMESTAMP SWAP1 PUSH1 0x4 ADD PUSH2 0x3967 JUMP JUMPDEST PUSH1 0x0 PUSH1 0x40 MLOAD DUP1 DUP4 SUB DUP2 PUSH1 0x0 DUP8 GAS CALL ISZERO DUP1 ISZERO PUSH2 0x1A99 JUMPI RETURNDATASIZE PUSH1 0x0 DUP1 RETURNDATACOPY RETURNDATASIZE PUSH1 0x0 REVERT JUMPDEST POP POP POP POP PUSH1 0x40 MLOAD RETURNDATASIZE PUSH1 0x0 DUP3 RETURNDATACOPY PUSH1 0x1F RETURNDATASIZE SWAP1 DUP2 ADD PUSH1 0x1F NOT AND DUP3 ADD PUSH1 0x40 MSTORE PUSH2 0x1AC1 SWAP2 SWAP1 DUP2 ADD SWAP1 PUSH2 0x3715 JUMP JUMPDEST POP JUMPDEST POP POP POP POP PUSH2 0x1FCA JUMP JUMPDEST PUSH1 0x8 DUP2 ADD SLOAD PUSH1 0x0 DUP6 DUP2 MSTORE PUSH1 0x9 PUSH1 0x20 MSTORE PUSH1 0x40 DUP2 KECCAK256 DUP1 SLOAD SWAP2 SWAP3 DUP4 SWAP3 PUSH1 0x1 PUSH1 0x20 SHL SWAP1 SWAP2 DIV PUSH1 0x1 PUSH1 0x1 PUSH1 0xA0 SHL SUB AND SWAP2 PUSH4 0xBAA2ABDE SWAP2 DUP5 SWAP1 PUSH2 0x1B0B JUMPI PUSH2 0x1B0B PUSH2 0x37F0 JUMP JUMPDEST PUSH1 0x0 SWAP2 DUP3 MSTORE PUSH1 0x20 DUP1 DUP4 KECCAK256 SWAP1 SWAP2 ADD SLOAD DUP11 DUP4 MSTORE PUSH1 0x9 SWAP1 SWAP2 MSTORE PUSH1 0x40 SWAP1 SWAP2 KECCAK256 DUP1 SLOAD PUSH1 0x1 PUSH1 0x1 PUSH1 0xA0 SHL SUB SWAP1 SWAP3 AND SWAP2 PUSH1 0x1 SWAP1 DUP2 LT PUSH2 0x1B45 JUMPI PUSH2 0x1B45 PUSH2 0x37F0 JUMP JUMPDEST PUSH1 0x0 SWAP2 DUP3 MSTORE PUSH1 0x20 DUP3 KECCAK256 ADD SLOAD PUSH1 0x40 MLOAD PUSH1 0xE0 DUP6 SWAP1 SHL PUSH1 0x1 PUSH1 0x1 PUSH1 0xE0 SHL SUB NOT AND DUP2 MSTORE PUSH1 0x1 PUSH1 0x1 PUSH1 0xA0 SHL SUB SWAP4 DUP5 AND PUSH1 0x4 DUP3 ADD MSTORE SWAP3 AND PUSH1 0x24 DUP4 ADD MSTORE PUSH1 0x44 DUP3 ADD DUP10 SWAP1 MSTORE PUSH1 0x64 DUP3 ADD DUP2 SWAP1 MSTORE PUSH1 0x84 DUP3 ADD MSTORE ADDRESS PUSH1 0xA4 DUP3 ADD MSTORE TIMESTAMP PUSH1 0xC4 DUP3 ADD MSTORE PUSH1 0xE4 ADD PUSH1 0x40 DUP1 MLOAD DUP1 DUP4 SUB DUP2 PUSH1 0x0 DUP8 GAS CALL ISZERO DUP1 ISZERO PUSH2 0x1BBB JUMPI RETURNDATASIZE PUSH1 0x0 DUP1 RETURNDATACOPY RETURNDATASIZE PUSH1 0x0 REVERT JUMPDEST POP POP POP POP PUSH1 0x40 MLOAD RETURNDATASIZE PUSH1 0x1F NOT PUSH1 0x1F DUP3 ADD AND DUP3 ADD DUP1 PUSH1 0x40 MSTORE POP DUP2 ADD SWAP1 PUSH2 0x1BDF SWAP2 SWAP1 PUSH2 0x3943 JUMP JUMPDEST PUSH1 0x0 DUP9 DUP2 MSTORE PUSH1 0x9 PUSH1 0x20 MSTORE PUSH1 0x40 DUP2 KECCAK256 DUP1 SLOAD SWAP4 SWAP6 POP SWAP2 SWAP4 POP SWAP1 SWAP2 PUSH2 0x1C03 JUMPI PUSH2 0x1C03 PUSH2 0x37F0 JUMP JUMPDEST PUSH1 0x0 SWAP2 DUP3 MSTORE PUSH1 0x20 SWAP1 SWAP2 KECCAK256 ADD SLOAD PUSH1 0x8 DUP5 ADD SLOAD PUSH1 0x1 PUSH1 0x1 PUSH1 0xA0 SHL SUB SWAP2 DUP3 AND SWAP2 PUSH4 0x95EA7B3 SWAP2 PUSH1 0x1 PUSH1 0x20 SHL SWAP1 DIV AND PUSH2 0x1C39 DUP6 PUSH1 0x2 PUSH2 0x364D JUMP JUMPDEST PUSH1 0x40 MLOAD PUSH1 0x1 PUSH1 0x1 PUSH1 0xE0 SHL SUB NOT PUSH1 0xE0 DUP6 SWAP1 SHL AND DUP2 MSTORE PUSH1 0x1 PUSH1 0x1 PUSH1 0xA0 SHL SUB SWAP1 SWAP3 AND PUSH1 0x4 DUP4 ADD MSTORE PUSH1 0x24 DUP3 ADD MSTORE PUSH1 0x44 ADD PUSH1 0x20 PUSH1 0x40 MLOAD DUP1 DUP4 SUB DUP2 PUSH1 0x0 DUP8 GAS CALL ISZERO DUP1 ISZERO PUSH2 0x1C84 JUMPI RETURNDATASIZE PUSH1 0x0 DUP1 RETURNDATACOPY RETURNDATASIZE PUSH1 0x0 REVERT JUMPDEST POP POP POP POP PUSH1 0x40 MLOAD RETURNDATASIZE PUSH1 0x1F NOT PUSH1 0x1F DUP3 ADD AND DUP3 ADD DUP1 PUSH1 0x40 MSTORE POP DUP2 ADD SWAP1 PUSH2 0x1CA8 SWAP2 SWAP1 PUSH2 0x366C JUMP JUMPDEST POP PUSH1 0x0 DUP7 DUP2 MSTORE PUSH1 0x9 PUSH1 0x20 MSTORE PUSH1 0x40 SWAP1 KECCAK256 DUP1 SLOAD PUSH1 0x1 SWAP1 DUP2 LT PUSH2 0x1CCA JUMPI PUSH2 0x1CCA PUSH2 0x37F0 JUMP JUMPDEST PUSH1 0x0 SWAP2 DUP3 MSTORE PUSH1 0x20 SWAP1 SWAP2 KECCAK256 ADD SLOAD PUSH1 0x8 DUP5 ADD SLOAD PUSH1 0x1 PUSH1 0x1 PUSH1 0xA0 SHL SUB SWAP2 DUP3 AND SWAP2 PUSH4 0x95EA7B3 SWAP2 PUSH1 0x1 PUSH1 0x20 SHL SWAP1 DIV AND PUSH2 0x1D00 DUP5 PUSH1 0x2 PUSH2 0x364D JUMP JUMPDEST PUSH1 0x40 MLOAD PUSH1 0x1 PUSH1 0x1 PUSH1 0xE0 SHL SUB NOT PUSH1 0xE0 DUP6 SWAP1 SHL AND DUP2 MSTORE PUSH1 0x1 PUSH1 0x1 PUSH1 0xA0 SHL SUB SWAP1 SWAP3 AND PUSH1 0x4 DUP4 ADD MSTORE PUSH1 0x24 DUP3 ADD MSTORE PUSH1 0x44 ADD PUSH1 0x20 PUSH1 0x40 MLOAD DUP1 DUP4 SUB DUP2 PUSH1 0x0 DUP8 GAS CALL ISZERO DUP1 ISZERO PUSH2 0x1D4B JUMPI RETURNDATASIZE PUSH1 0x0 DUP1 RETURNDATACOPY RETURNDATASIZE PUSH1 0x0 REVERT JUMPDEST POP POP POP POP PUSH1 0x40 MLOAD RETURNDATASIZE PUSH1 0x1F NOT PUSH1 0x1F DUP3 ADD AND DUP3 ADD DUP1 PUSH1 0x40 MSTORE POP DUP2 ADD SWAP1 PUSH2 0x1D6F SWAP2 SWAP1 PUSH2 0x366C JUMP JUMPDEST POP PUSH1 0x8 DUP4 ADD SLOAD PUSH3 0x10000 SWAP1 DIV PUSH1 0xFF AND ISZERO PUSH2 0x1E04 JUMPI PUSH1 0x8 DUP4 ADD SLOAD PUSH1 0x0 DUP8 DUP2 MSTORE PUSH1 0xA PUSH1 0x20 MSTORE PUSH1 0x40 DUP1 DUP3 KECCAK256 SWAP1 MLOAD PUSH4 0x791AC947 PUSH1 0xE0 SHL DUP2 MSTORE PUSH1 0x1 PUSH1 0x20 SHL SWAP1 SWAP4 DIV PUSH1 0x1 PUSH1 0x1 PUSH1 0xA0 SHL SUB AND SWAP3 PUSH4 0x791AC947 SWAP3 PUSH2 0x1DCD SWAP3 DUP8 SWAP3 ADDRESS SWAP1 TIMESTAMP SWAP1 PUSH1 0x4 ADD PUSH2 0x3689 JUMP JUMPDEST PUSH1 0x0 PUSH1 0x40 MLOAD DUP1 DUP4 SUB DUP2 PUSH1 0x0 DUP8 DUP1 EXTCODESIZE ISZERO DUP1 ISZERO PUSH2 0x1DE7 JUMPI PUSH1 0x0 DUP1 REVERT JUMPDEST POP GAS CALL ISZERO DUP1 ISZERO PUSH2 0x1DFB JUMPI RETURNDATASIZE PUSH1 0x0 DUP1 RETURNDATACOPY RETURNDATASIZE PUSH1 0x0 REVERT JUMPDEST POP POP POP POP PUSH2 0x1E97 JUMP JUMPDEST PUSH1 0x8 DUP4 ADD SLOAD PUSH1 0x0 DUP8 DUP2 MSTORE PUSH1 0xA PUSH1 0x20 MSTORE PUSH1 0x40 DUP1 DUP3 KECCAK256 SWAP1 MLOAD PUSH4 0x18CBAFE5 PUSH1 0xE0 SHL DUP2 MSTORE PUSH1 0x1 PUSH1 0x20 SHL SWAP1 SWAP4 DIV PUSH1 0x1 PUSH1 0x1 PUSH1 0xA0 SHL SUB AND SWAP3 PUSH4 0x18CBAFE5 SWAP3 PUSH2 0x1E4E SWAP3 DUP8 SWAP3 ADDRESS SWAP1 TIMESTAMP SWAP1 PUSH1 0x4 ADD PUSH2 0x3689 JUMP JUMPDEST PUSH1 0x0 PUSH1 0x40 MLOAD DUP1 DUP4 SUB DUP2 PUSH1 0x0 DUP8 GAS CALL ISZERO DUP1 ISZERO PUSH2 0x1E6D JUMPI RETURNDATASIZE PUSH1 0x0 DUP1 RETURNDATACOPY RETURNDATASIZE PUSH1 0x0 REVERT JUMPDEST POP POP POP POP PUSH1 0x40 MLOAD RETURNDATASIZE PUSH1 0x0 DUP3 RETURNDATACOPY PUSH1 0x1F RETURNDATASIZE SWAP1 DUP2 ADD PUSH1 0x1F NOT AND DUP3 ADD PUSH1 0x40 MSTORE PUSH2 0x1E95 SWAP2 SWAP1 DUP2 ADD SWAP1 PUSH2 0x3715 JUMP JUMPDEST POP JUMPDEST PUSH1 0x8 DUP4 ADD SLOAD PUSH4 0x1000000 SWAP1 DIV PUSH1 0xFF AND ISZERO PUSH2 0x1F2C JUMPI PUSH1 0x8 DUP4 ADD SLOAD PUSH1 0x0 DUP8 DUP2 MSTORE PUSH1 0xB PUSH1 0x20 MSTORE PUSH1 0x40 DUP1 DUP3 KECCAK256 SWAP1 MLOAD PUSH4 0x791AC947 PUSH1 0xE0 SHL DUP2 MSTORE PUSH1 0x1 PUSH1 0x20 SHL SWAP1 SWAP4 DIV PUSH1 0x1 PUSH1 0x1 PUSH1 0xA0 SHL SUB AND SWAP3 PUSH4 0x791AC947 SWAP3 PUSH2 0x1EF5 SWAP3 DUP7 SWAP3 ADDRESS SWAP1 TIMESTAMP SWAP1 PUSH1 0x4 ADD PUSH2 0x3689 JUMP JUMPDEST PUSH1 0x0 PUSH1 0x40 MLOAD DUP1 DUP4 SUB DUP2 PUSH1 0x0 DUP8 DUP1 EXTCODESIZE ISZERO DUP1 ISZERO PUSH2 0x1F0F JUMPI PUSH1 0x0 DUP1 REVERT JUMPDEST POP GAS CALL ISZERO DUP1 ISZERO PUSH2 0x1F23 JUMPI RETURNDATASIZE PUSH1 0x0 DUP1 RETURNDATACOPY RETURNDATASIZE PUSH1 0x0 REVERT JUMPDEST POP POP POP POP PUSH2 0x1FBF JUMP JUMPDEST PUSH1 0x8 DUP4 ADD SLOAD PUSH1 0x0 DUP8 DUP2 MSTORE PUSH1 0xB PUSH1 0x20 MSTORE PUSH1 0x40 DUP1 DUP3 KECCAK256 SWAP1 MLOAD PUSH4 0x18CBAFE5 PUSH1 0xE0 SHL DUP2 MSTORE PUSH1 0x1 PUSH1 0x20 SHL SWAP1 SWAP4 DIV PUSH1 0x1 PUSH1 0x1 PUSH1 0xA0 SHL SUB AND SWAP3 PUSH4 0x18CBAFE5 SWAP3 PUSH2 0x1F76 SWAP3 DUP7 SWAP3 ADDRESS SWAP1 TIMESTAMP SWAP1 PUSH1 0x4 ADD PUSH2 0x3689 JUMP JUMPDEST PUSH1 0x0 PUSH1 0x40 MLOAD DUP1 DUP4 SUB DUP2 PUSH1 0x0 DUP8 GAS CALL ISZERO DUP1 ISZERO PUSH2 0x1F95 JUMPI RETURNDATASIZE PUSH1 0x0 DUP1 RETURNDATACOPY RETURNDATASIZE PUSH1 0x0 REVERT JUMPDEST POP POP POP POP PUSH1 0x40 MLOAD RETURNDATASIZE PUSH1 0x0 DUP3 RETURNDATACOPY PUSH1 0x1F RETURNDATASIZE SWAP1 DUP2 ADD PUSH1 0x1F NOT AND DUP3 ADD PUSH1 0x40 MSTORE PUSH2 0x1FBD SWAP2 SWAP1 DUP2 ADD SWAP1 PUSH2 0x3715 JUMP JUMPDEST POP JUMPDEST SELFBALANCE SWAP4 POP POP POP POP PUSH2 0x1FCC JUMP JUMPDEST POP JUMPDEST SWAP3 SWAP2 POP POP JUMP JUMPDEST PUSH1 0x0 DUP1 PUSH1 0x0 DUP1 PUSH1 0x0 DUP1 PUSH1 0x0 DUP1 PUSH1 0x0 JUMPDEST PUSH1 0x5 DUP2 PUSH1 0xFF AND LT ISZERO PUSH2 0x2107 JUMPI DUP10 PUSH1 0x3 ADD DUP2 PUSH1 0xFF AND PUSH1 0x5 DUP2 LT PUSH2 0x2005 JUMPI PUSH2 0x2005 PUSH2 0x37F0 JUMP JUMPDEST ADD SLOAD PUSH2 0x2011 SWAP1 DUP9 PUSH2 0x39A3 JUMP JUMPDEST SWAP7 POP PUSH1 0x3 DUP2 PUSH1 0xFF AND LT PUSH2 0x2049 JUMPI PUSH1 0x2 DUP11 PUSH1 0x3 ADD DUP3 PUSH1 0xFF AND PUSH1 0x5 DUP2 LT PUSH2 0x2038 JUMPI PUSH2 0x2038 PUSH2 0x37F0 JUMP JUMPDEST ADD SLOAD PUSH2 0x2044 SWAP2 SWAP1 PUSH2 0x38E6 JUMP JUMPDEST PUSH2 0x2064 JUMP JUMPDEST DUP10 PUSH1 0x3 ADD DUP2 PUSH1 0xFF AND PUSH1 0x5 DUP2 LT PUSH2 0x2061 JUMPI PUSH2 0x2061 PUSH2 0x37F0 JUMP JUMPDEST ADD SLOAD JUMPDEST PUSH2 0x206E SWAP1 DUP11 PUSH2 0x39A3 JUMP JUMPDEST SWAP9 POP PUSH1 0x3 DUP2 PUSH1 0xFF AND LT ISZERO PUSH2 0x20F5 JUMPI DUP10 PUSH1 0xFF DUP3 AND PUSH1 0x3 DUP2 LT PUSH2 0x2091 JUMPI PUSH2 0x2091 PUSH2 0x37F0 JUMP JUMPDEST ADD SLOAD PUSH2 0x209D SWAP1 DUP8 PUSH2 0x39A3 JUMP JUMPDEST SWAP6 POP PUSH1 0xFF DUP2 AND ISZERO PUSH2 0x20D0 JUMPI PUSH1 0x2 DUP11 PUSH1 0xFF DUP4 AND PUSH1 0x3 DUP2 LT PUSH2 0x20BF JUMPI PUSH2 0x20BF PUSH2 0x37F0 JUMP JUMPDEST ADD SLOAD PUSH2 0x20CB SWAP2 SWAP1 PUSH2 0x38E6 JUMP JUMPDEST PUSH2 0x20E8 JUMP JUMPDEST DUP10 PUSH1 0xFF DUP3 AND PUSH1 0x3 DUP2 LT PUSH2 0x20E5 JUMPI PUSH2 0x20E5 PUSH2 0x37F0 JUMP JUMPDEST ADD SLOAD JUMPDEST PUSH2 0x20F2 SWAP1 DUP10 PUSH2 0x39A3 JUMP JUMPDEST SWAP8 POP JUMPDEST DUP1 PUSH2 0x20FF DUP2 PUSH2 0x39BB JUMP JUMPDEST SWAP2 POP POP PUSH2 0x1FE1 JUMP JUMPDEST POP PUSH1 0x1 SLOAD PUSH1 0x40 DUP1 MLOAD PUSH4 0x15AB88C9 PUSH1 0xE3 SHL DUP2 MSTORE SWAP1 MLOAD PUSH1 0x60 SWAP3 PUSH1 0x1 PUSH1 0x1 PUSH1 0xA0 SHL SUB AND SWAP2 PUSH4 0xAD5C4648 SWAP2 PUSH1 0x4 DUP1 DUP4 ADD SWAP3 PUSH1 0x20 SWAP3 SWAP2 SWAP1 DUP3 SWAP1 SUB ADD DUP2 DUP7 GAS STATICCALL ISZERO DUP1 ISZERO PUSH2 0x2152 JUMPI RETURNDATASIZE PUSH1 0x0 DUP1 RETURNDATACOPY RETURNDATASIZE PUSH1 0x0 REVERT JUMPDEST POP POP POP POP PUSH1 0x40 MLOAD RETURNDATASIZE PUSH1 0x1F NOT PUSH1 0x1F DUP3 ADD AND DUP3 ADD DUP1 PUSH1 0x40 MSTORE POP DUP2 ADD SWAP1 PUSH2 0x2176 SWAP2 SWAP1 PUSH2 0x37D3 JUMP JUMPDEST DUP2 PUSH1 0x0 DUP2 MLOAD DUP2 LT PUSH2 0x2189 JUMPI PUSH2 0x2189 PUSH2 0x37F0 JUMP JUMPDEST PUSH1 0x20 MUL PUSH1 0x20 ADD ADD SWAP1 PUSH1 0x1 PUSH1 0x1 PUSH1 0xA0 SHL SUB AND SWAP1 DUP2 PUSH1 0x1 PUSH1 0x1 PUSH1 0xA0 SHL SUB AND DUP2 MSTORE POP POP PUSH32 0x0 DUP2 PUSH1 0x1 DUP2 MLOAD DUP2 LT PUSH2 0x21DD JUMPI PUSH2 0x21DD PUSH2 0x37F0 JUMP JUMPDEST PUSH1 0x1 PUSH1 0x1 PUSH1 0xA0 SHL SUB SWAP1 SWAP3 AND PUSH1 0x20 SWAP3 DUP4 MUL SWAP2 SWAP1 SWAP2 ADD SWAP1 SWAP2 ADD MSTORE DUP7 ISZERO PUSH2 0x22E5 JUMPI PUSH2 0x2710 PUSH2 0x2208 DUP9 SELFBALANCE PUSH2 0x364D JUMP JUMPDEST PUSH2 0x2212 SWAP2 SWAP1 PUSH2 0x38E6 JUMP JUMPDEST SWAP5 POP DUP7 PUSH2 0x221F DUP11 DUP8 PUSH2 0x364D JUMP JUMPDEST PUSH2 0x2229 SWAP2 SWAP1 PUSH2 0x38E6 JUMP JUMPDEST PUSH1 0x1 SLOAD PUSH1 0x40 MLOAD PUSH4 0x7FF36AB5 PUSH1 0xE0 SHL DUP2 MSTORE SWAP2 SWAP5 POP PUSH1 0x1 PUSH1 0x1 PUSH1 0xA0 SHL SUB AND SWAP1 PUSH4 0x7FF36AB5 SWAP1 DUP6 SWAP1 PUSH2 0x2263 SWAP1 PUSH1 0x0 SWAP1 DUP7 SWAP1 ADDRESS SWAP1 TIMESTAMP SWAP1 PUSH1 0x4 ADD PUSH2 0x384A JUMP JUMPDEST PUSH1 0x0 PUSH1 0x40 MLOAD DUP1 DUP4 SUB DUP2 DUP6 DUP9 GAS CALL ISZERO DUP1 ISZERO PUSH2 0x2281 JUMPI RETURNDATASIZE PUSH1 0x0 DUP1 RETURNDATACOPY RETURNDATASIZE PUSH1 0x0 REVERT JUMPDEST POP POP POP POP POP PUSH1 0x40 MLOAD RETURNDATASIZE PUSH1 0x0 DUP3 RETURNDATACOPY PUSH1 0x1F RETURNDATASIZE SWAP1 DUP2 ADD PUSH1 0x1F NOT AND DUP3 ADD PUSH1 0x40 MSTORE PUSH2 0x22AA SWAP2 SWAP1 DUP2 ADD SWAP1 PUSH2 0x3715 JUMP JUMPDEST POP PUSH2 0x22B5 DUP4 DUP7 PUSH2 0x39DB JUMP JUMPDEST SWAP5 POP PUSH2 0x22E5 PUSH32 0x0 DUP12 DUP10 PUSH1 0x0 DUP10 PUSH2 0x288F JUMP JUMPDEST DUP6 ISZERO PUSH2 0x2417 JUMPI PUSH2 0x2710 PUSH2 0x22F8 DUP8 SELFBALANCE PUSH2 0x364D JUMP JUMPDEST PUSH2 0x2302 SWAP2 SWAP1 PUSH2 0x38E6 JUMP JUMPDEST SWAP4 POP DUP6 PUSH2 0x230F DUP10 DUP7 PUSH2 0x364D JUMP JUMPDEST PUSH2 0x2319 SWAP2 SWAP1 PUSH2 0x38E6 JUMP JUMPDEST SWAP2 POP PUSH2 0x2325 DUP3 DUP6 PUSH2 0x39DB JUMP JUMPDEST SWAP4 POP PUSH32 0x0 DUP2 PUSH1 0x1 DUP2 MLOAD DUP2 LT PUSH2 0x235B JUMPI PUSH2 0x235B PUSH2 0x37F0 JUMP JUMPDEST PUSH1 0x1 PUSH1 0x1 PUSH1 0xA0 SHL SUB SWAP3 DUP4 AND PUSH1 0x20 SWAP2 DUP3 MUL SWAP3 SWAP1 SWAP3 ADD ADD MSTORE PUSH1 0x1 SLOAD PUSH1 0x40 MLOAD PUSH4 0x7FF36AB5 PUSH1 0xE0 SHL DUP2 MSTORE SWAP2 AND SWAP1 PUSH4 0x7FF36AB5 SWAP1 DUP5 SWAP1 PUSH2 0x23A1 SWAP1 PUSH1 0x0 SWAP1 DUP7 SWAP1 ADDRESS SWAP1 TIMESTAMP SWAP1 PUSH1 0x4 ADD PUSH2 0x384A JUMP JUMPDEST PUSH1 0x0 PUSH1 0x40 MLOAD DUP1 DUP4 SUB DUP2 DUP6 DUP9 GAS CALL ISZERO DUP1 ISZERO PUSH2 0x23BF JUMPI RETURNDATASIZE PUSH1 0x0 DUP1 RETURNDATACOPY RETURNDATASIZE PUSH1 0x0 REVERT JUMPDEST POP POP POP POP POP PUSH1 0x40 MLOAD RETURNDATASIZE PUSH1 0x0 DUP3 RETURNDATACOPY PUSH1 0x1F RETURNDATASIZE SWAP1 DUP2 ADD PUSH1 0x1F NOT AND DUP3 ADD PUSH1 0x40 MSTORE PUSH2 0x23E8 SWAP2 SWAP1 DUP2 ADD SWAP1 PUSH2 0x3715 JUMP JUMPDEST POP PUSH2 0x2417 PUSH32 0x0 DUP12 DUP9 PUSH1 0x1 DUP9 PUSH2 0x288F JUMP JUMPDEST SELFBALANCE DUP1 ISZERO PUSH2 0x24B2 JUMPI PUSH1 0x4 SLOAD PUSH1 0x40 MLOAD PUSH1 0x0 SWAP2 PUSH1 0x1 PUSH1 0x1 PUSH1 0xA0 SHL SUB AND SWAP1 DUP4 SWAP1 DUP4 DUP2 DUP2 DUP2 DUP6 DUP8 GAS CALL SWAP3 POP POP POP RETURNDATASIZE DUP1 PUSH1 0x0 DUP2 EQ PUSH2 0x246B JUMPI PUSH1 0x40 MLOAD SWAP2 POP PUSH1 0x1F NOT PUSH1 0x3F RETURNDATASIZE ADD AND DUP3 ADD PUSH1 0x40 MSTORE RETURNDATASIZE DUP3 MSTORE RETURNDATASIZE PUSH1 0x0 PUSH1 0x20 DUP5 ADD RETURNDATACOPY PUSH2 0x2470 JUMP JUMPDEST PUSH1 0x60 SWAP2 POP JUMPDEST POP POP PUSH1 0x40 DUP1 MLOAD DUP3 ISZERO ISZERO DUP2 MSTORE PUSH1 0x20 DUP2 ADD DUP6 SWAP1 MSTORE SWAP2 SWAP3 POP PUSH32 0x7526D8EDF9D8774140EAC835A1CEC043D347DB7C1C24C83A3449977A0C61CA5B SWAP2 ADD PUSH1 0x40 MLOAD DUP1 SWAP2 SUB SWAP1 LOG1 POP JUMPDEST POP POP POP POP POP POP POP POP POP POP POP JUMP JUMPDEST PUSH1 0x0 DUP1 JUMPDEST PUSH1 0x5 DUP2 PUSH1 0xFF AND LT ISZERO PUSH2 0x1FCA JUMPI DUP3 DUP2 PUSH1 0xFF AND PUSH1 0x5 DUP2 LT PUSH2 0x24E4 JUMPI PUSH2 0x24E4 PUSH2 0x37F0 JUMP JUMPDEST PUSH1 0x20 MUL ADD CALLDATALOAD DUP3 PUSH2 0x24F4 SWAP2 SWAP1 PUSH2 0x39A3 JUMP JUMPDEST SWAP2 POP PUSH1 0x3 DUP2 PUSH1 0xFF AND LT ISZERO PUSH2 0x252A JUMPI DUP4 DUP2 PUSH1 0xFF AND PUSH1 0x3 DUP2 LT PUSH2 0x2517 JUMPI PUSH2 0x2517 PUSH2 0x37F0 JUMP JUMPDEST PUSH1 0x20 MUL ADD CALLDATALOAD DUP3 PUSH2 0x2527 SWAP2 SWAP1 PUSH2 0x39A3 JUMP JUMPDEST SWAP2 POP JUMPDEST DUP1 PUSH2 0x2534 DUP2 PUSH2 0x39BB JUMP JUMPDEST SWAP2 POP POP PUSH2 0x24C3 JUMP JUMPDEST PUSH1 0x0 DUP1 SLOAD PUSH1 0x1 PUSH1 0x1 PUSH1 0xA0 SHL SUB DUP4 DUP2 AND PUSH1 0x1 PUSH1 0x1 PUSH1 0xA0 SHL SUB NOT DUP4 AND DUP2 OR DUP5 SSTORE PUSH1 0x40 MLOAD SWAP2 SWAP1 SWAP3 AND SWAP3 DUP4 SWAP2 PUSH32 0x8BE0079C531659141344CD1FD0A4F28419497F9722A3DAAFE3B4186F6B6457E0 SWAP2 SWAP1 LOG3 POP POP JUMP JUMPDEST PUSH1 0x0 PUSH2 0x25E1 DUP3 PUSH1 0x40 MLOAD DUP1 PUSH1 0x40 ADD PUSH1 0x40 MSTORE DUP1 PUSH1 0x20 DUP2 MSTORE PUSH1 0x20 ADD PUSH32 0x5361666545524332303A206C6F772D6C6576656C2063616C6C206661696C6564 DUP2 MSTORE POP DUP6 PUSH1 0x1 PUSH1 0x1 PUSH1 0xA0 SHL SUB AND PUSH2 0x2F9C SWAP1 SWAP3 SWAP2 SWAP1 PUSH4 0xFFFFFFFF AND JUMP JUMPDEST DUP1 MLOAD SWAP1 SWAP2 POP ISZERO PUSH2 0x265E JUMPI DUP1 DUP1 PUSH1 0x20 ADD SWAP1 MLOAD DUP2 ADD SWAP1 PUSH2 0x25FF SWAP2 SWAP1 PUSH2 0x366C JUMP JUMPDEST PUSH2 0x265E JUMPI PUSH1 0x40 MLOAD PUSH3 0x461BCD PUSH1 0xE5 SHL DUP2 MSTORE PUSH1 0x20 PUSH1 0x4 DUP3 ADD MSTORE PUSH1 0x2A PUSH1 0x24 DUP3 ADD MSTORE PUSH32 0x5361666545524332303A204552433230206F7065726174696F6E20646964206E PUSH1 0x44 DUP3 ADD MSTORE PUSH10 0x1BDD081CDD58D8D95959 PUSH1 0xB2 SHL PUSH1 0x64 DUP3 ADD MSTORE PUSH1 0x84 ADD PUSH2 0x696 JUMP JUMPDEST POP POP POP JUMP JUMPDEST PUSH1 0x0 PUSH1 0x60 PUSH1 0x0 PUSH1 0x1 PUSH1 0x0 SWAP1 SLOAD SWAP1 PUSH2 0x100 EXP SWAP1 DIV PUSH1 0x1 PUSH1 0x1 PUSH1 0xA0 SHL SUB AND PUSH1 0x1 PUSH1 0x1 PUSH1 0xA0 SHL SUB AND PUSH4 0xAD5C4648 PUSH1 0x40 MLOAD DUP2 PUSH4 0xFFFFFFFF AND PUSH1 0xE0 SHL DUP2 MSTORE PUSH1 0x4 ADD PUSH1 0x20 PUSH1 0x40 MLOAD DUP1 DUP4 SUB DUP2 DUP7 GAS STATICCALL ISZERO DUP1 ISZERO PUSH2 0x26BC JUMPI RETURNDATASIZE PUSH1 0x0 DUP1 RETURNDATACOPY RETURNDATASIZE PUSH1 0x0 REVERT JUMPDEST POP POP POP POP PUSH1 0x40 MLOAD RETURNDATASIZE PUSH1 0x1F NOT PUSH1 0x1F DUP3 ADD AND DUP3 ADD DUP1 PUSH1 0x40 MSTORE POP DUP2 ADD SWAP1 PUSH2 0x26E0 SWAP2 SWAP1 PUSH2 0x37D3 JUMP JUMPDEST PUSH1 0x1 PUSH1 0x1 PUSH1 0xA0 SHL SUB AND PUSH1 0x9 PUSH1 0x0 DUP7 DUP2 MSTORE PUSH1 0x20 ADD SWAP1 DUP2 MSTORE PUSH1 0x20 ADD PUSH1 0x0 KECCAK256 PUSH1 0x0 DUP2 SLOAD DUP2 LT PUSH2 0x270E JUMPI PUSH2 0x270E PUSH2 0x37F0 JUMP JUMPDEST PUSH1 0x0 SWAP2 DUP3 MSTORE PUSH1 0x20 SWAP1 SWAP2 KECCAK256 ADD SLOAD PUSH1 0x1 PUSH1 0x1 PUSH1 0xA0 SHL SUB AND EQ PUSH2 0x27EC JUMPI PUSH1 0x0 DUP5 DUP2 MSTORE PUSH1 0x9 PUSH1 0x20 MSTORE PUSH1 0x40 DUP2 KECCAK256 DUP1 SLOAD SWAP1 SWAP2 SWAP1 PUSH2 0x2747 JUMPI PUSH2 0x2747 PUSH2 0x37F0 JUMP JUMPDEST PUSH1 0x0 SWAP2 DUP3 MSTORE PUSH1 0x20 DUP1 DUP4 KECCAK256 SWAP1 SWAP2 ADD SLOAD DUP7 DUP4 MSTORE PUSH1 0xA DUP3 MSTORE PUSH1 0x40 SWAP3 DUP4 SWAP1 KECCAK256 DUP1 SLOAD DUP5 MLOAD DUP2 DUP6 MUL DUP2 ADD DUP6 ADD SWAP1 SWAP6 MSTORE DUP1 DUP6 MSTORE PUSH1 0x1 PUSH1 0x1 PUSH1 0xA0 SHL SUB SWAP1 SWAP3 AND SWAP7 POP SWAP2 DUP4 ADD DUP3 DUP3 DUP1 ISZERO PUSH2 0x27BA JUMPI PUSH1 0x20 MUL DUP3 ADD SWAP2 SWAP1 PUSH1 0x0 MSTORE PUSH1 0x20 PUSH1 0x0 KECCAK256 SWAP1 JUMPDEST DUP2 SLOAD PUSH1 0x1 PUSH1 0x1 PUSH1 0xA0 SHL SUB AND DUP2 MSTORE PUSH1 0x1 SWAP1 SWAP2 ADD SWAP1 PUSH1 0x20 ADD DUP1 DUP4 GT PUSH2 0x279C JUMPI JUMPDEST POP POP POP POP POP SWAP2 POP PUSH1 0x8 PUSH1 0x0 DUP6 DUP2 MSTORE PUSH1 0x20 ADD SWAP1 DUP2 MSTORE PUSH1 0x20 ADD PUSH1 0x0 KECCAK256 PUSH1 0x8 ADD PUSH1 0x2 SWAP1 SLOAD SWAP1 PUSH2 0x100 EXP SWAP1 DIV PUSH1 0xFF AND SWAP1 POP PUSH2 0x2888 JUMP JUMPDEST PUSH1 0x0 DUP5 DUP2 MSTORE PUSH1 0x9 PUSH1 0x20 MSTORE PUSH1 0x40 SWAP1 KECCAK256 DUP1 SLOAD PUSH1 0x1 SWAP1 DUP2 LT PUSH2 0x280D JUMPI PUSH2 0x280D PUSH2 0x37F0 JUMP JUMPDEST PUSH1 0x0 SWAP2 DUP3 MSTORE PUSH1 0x20 DUP1 DUP4 KECCAK256 SWAP1 SWAP2 ADD SLOAD DUP7 DUP4 MSTORE PUSH1 0xB DUP3 MSTORE PUSH1 0x40 SWAP3 DUP4 SWAP1 KECCAK256 DUP1 SLOAD DUP5 MLOAD DUP2 DUP6 MUL DUP2 ADD DUP6 ADD SWAP1 SWAP6 MSTORE DUP1 DUP6 MSTORE PUSH1 0x1 PUSH1 0x1 PUSH1 0xA0 SHL SUB SWAP1 SWAP3 AND SWAP7 POP SWAP2 DUP4 ADD DUP3 DUP3 DUP1 ISZERO PUSH2 0x2880 JUMPI PUSH1 0x20 MUL DUP3 ADD SWAP2 SWAP1 PUSH1 0x0 MSTORE PUSH1 0x20 PUSH1 0x0 KECCAK256 SWAP1 JUMPDEST DUP2 SLOAD PUSH1 0x1 PUSH1 0x1 PUSH1 0xA0 SHL SUB AND DUP2 MSTORE PUSH1 0x1 SWAP1 SWAP2 ADD SWAP1 PUSH1 0x20 ADD DUP1 DUP4 GT PUSH2 0x2862 JUMPI JUMPDEST POP POP POP POP POP SWAP2 POP JUMPDEST SWAP2 SWAP4 SWAP1 SWAP3 POP JUMP JUMPDEST PUSH1 0x40 MLOAD PUSH4 0x70A08231 PUSH1 0xE0 SHL DUP2 MSTORE ADDRESS PUSH1 0x4 DUP3 ADD MSTORE DUP6 SWAP1 PUSH1 0x0 SWAP1 PUSH1 0x1 PUSH1 0x1 PUSH1 0xA0 SHL SUB DUP4 AND SWAP1 PUSH4 0x70A08231 SWAP1 PUSH1 0x24 ADD PUSH1 0x20 PUSH1 0x40 MLOAD DUP1 DUP4 SUB DUP2 DUP7 GAS STATICCALL ISZERO DUP1 ISZERO PUSH2 0x28D8 JUMPI RETURNDATASIZE PUSH1 0x0 DUP1 RETURNDATACOPY RETURNDATASIZE PUSH1 0x0 REVERT JUMPDEST POP POP POP POP PUSH1 0x40 MLOAD RETURNDATASIZE PUSH1 0x1F NOT PUSH1 0x1F DUP3 ADD AND DUP3 ADD DUP1 PUSH1 0x40 MSTORE POP DUP2 ADD SWAP1 PUSH2 0x28FC SWAP2 SWAP1 PUSH2 0x361E JUMP JUMPDEST SWAP1 POP PUSH1 0x0 DUP5 PUSH2 0x290F JUMPI PUSH1 0x3 DUP8 ADD SLOAD PUSH2 0x2912 JUMP JUMPDEST DUP7 SLOAD JUMPDEST SWAP1 POP PUSH1 0x0 DUP7 PUSH2 0x2921 DUP4 DUP6 PUSH2 0x364D JUMP JUMPDEST PUSH2 0x292B SWAP2 SWAP1 PUSH2 0x38E6 JUMP JUMPDEST SWAP1 POP DUP1 ISZERO PUSH2 0x298E JUMPI PUSH1 0x40 MLOAD PUSH4 0x852CD8D PUSH1 0xE3 SHL DUP2 MSTORE PUSH1 0x4 DUP2 ADD DUP3 SWAP1 MSTORE PUSH1 0x1 PUSH1 0x1 PUSH1 0xA0 SHL SUB DUP6 AND SWAP1 PUSH4 0x42966C68 SWAP1 PUSH1 0x24 ADD PUSH1 0x0 PUSH1 0x40 MLOAD DUP1 DUP4 SUB DUP2 PUSH1 0x0 DUP8 DUP1 EXTCODESIZE ISZERO DUP1 ISZERO PUSH2 0x2975 JUMPI PUSH1 0x0 DUP1 REVERT JUMPDEST POP GAS CALL ISZERO DUP1 ISZERO PUSH2 0x2989 JUMPI RETURNDATASIZE PUSH1 0x0 DUP1 RETURNDATACOPY RETURNDATASIZE PUSH1 0x0 REVERT JUMPDEST POP POP POP POP JUMPDEST DUP6 PUSH2 0x299D JUMPI PUSH1 0x4 DUP9 ADD SLOAD PUSH2 0x29A0 JUMP JUMPDEST PUSH1 0x0 JUMPDEST SWAP2 POP DUP7 PUSH2 0x29AD DUP4 DUP6 PUSH2 0x364D JUMP JUMPDEST PUSH2 0x29B7 SWAP2 SWAP1 PUSH2 0x38E6 JUMP JUMPDEST SWAP1 POP DUP1 ISZERO PUSH2 0x2AE5 JUMPI PUSH1 0x1 PUSH1 0x1 PUSH1 0xA0 SHL SUB DUP5 AND PUSH4 0x95EA7B3 PUSH32 0x0 PUSH2 0x29FA DUP5 PUSH1 0x2 PUSH2 0x364D JUMP JUMPDEST PUSH1 0x40 MLOAD PUSH1 0x1 PUSH1 0x1 PUSH1 0xE0 SHL SUB NOT PUSH1 0xE0 DUP6 SWAP1 SHL AND DUP2 MSTORE PUSH1 0x1 PUSH1 0x1 PUSH1 0xA0 SHL SUB SWAP1 SWAP3 AND PUSH1 0x4 DUP4 ADD MSTORE PUSH1 0x24 DUP3 ADD MSTORE PUSH1 0x44 ADD PUSH1 0x20 PUSH1 0x40 MLOAD DUP1 DUP4 SUB DUP2 PUSH1 0x0 DUP8 GAS CALL ISZERO DUP1 ISZERO PUSH2 0x2A45 JUMPI RETURNDATASIZE PUSH1 0x0 DUP1 RETURNDATACOPY RETURNDATASIZE PUSH1 0x0 REVERT JUMPDEST POP POP POP POP PUSH1 0x40 MLOAD RETURNDATASIZE PUSH1 0x1F NOT PUSH1 0x1F DUP3 ADD AND DUP3 ADD DUP1 PUSH1 0x40 MSTORE POP DUP2 ADD SWAP1 PUSH2 0x2A69 SWAP2 SWAP1 PUSH2 0x366C JUMP JUMPDEST POP PUSH1 0x40 MLOAD PUSH4 0x6172858B PUSH1 0xE1 SHL DUP2 MSTORE PUSH1 0x4 DUP2 ADD DUP3 SWAP1 MSTORE PUSH32 0x0 PUSH1 0x1 PUSH1 0x1 PUSH1 0xA0 SHL SUB AND SWAP1 PUSH4 0xC2E50B16 SWAP1 PUSH1 0x24 ADD PUSH1 0x0 PUSH1 0x40 MLOAD DUP1 DUP4 SUB DUP2 PUSH1 0x0 DUP8 DUP1 EXTCODESIZE ISZERO DUP1 ISZERO PUSH2 0x2ACC JUMPI PUSH1 0x0 DUP1 REVERT JUMPDEST POP GAS CALL ISZERO DUP1 ISZERO PUSH2 0x2AE0 JUMPI RETURNDATASIZE PUSH1 0x0 DUP1 RETURNDATACOPY RETURNDATASIZE PUSH1 0x0 REVERT JUMPDEST POP POP POP POP JUMPDEST DUP6 PUSH2 0x2AF4 JUMPI PUSH1 0x5 DUP9 ADD SLOAD PUSH2 0x2AF7 JUMP JUMPDEST PUSH1 0x0 JUMPDEST SWAP2 POP DUP7 PUSH2 0x2B04 DUP4 DUP6 PUSH2 0x364D JUMP JUMPDEST PUSH2 0x2B0E SWAP2 SWAP1 PUSH2 0x38E6 JUMP JUMPDEST SWAP1 POP DUP1 ISZERO PUSH2 0x2C06 JUMPI PUSH1 0x6 SLOAD PUSH1 0x1 PUSH1 0x1 PUSH1 0xA0 SHL SUB DUP1 DUP7 AND SWAP2 PUSH4 0x95EA7B3 SWAP2 AND PUSH2 0x2B37 DUP5 PUSH1 0x2 PUSH2 0x364D JUMP JUMPDEST PUSH1 0x40 MLOAD PUSH1 0x1 PUSH1 0x1 PUSH1 0xE0 SHL SUB NOT PUSH1 0xE0 DUP6 SWAP1 SHL AND DUP2 MSTORE PUSH1 0x1 PUSH1 0x1 PUSH1 0xA0 SHL SUB SWAP1 SWAP3 AND PUSH1 0x4 DUP4 ADD MSTORE PUSH1 0x24 DUP3 ADD MSTORE PUSH1 0x44 ADD PUSH1 0x20 PUSH1 0x40 MLOAD DUP1 DUP4 SUB DUP2 PUSH1 0x0 DUP8 GAS CALL ISZERO DUP1 ISZERO PUSH2 0x2B82 JUMPI RETURNDATASIZE PUSH1 0x0 DUP1 RETURNDATACOPY RETURNDATASIZE PUSH1 0x0 REVERT JUMPDEST POP POP POP POP PUSH1 0x40 MLOAD RETURNDATASIZE PUSH1 0x1F NOT PUSH1 0x1F DUP3 ADD AND DUP3 ADD DUP1 PUSH1 0x40 MSTORE POP DUP2 ADD SWAP1 PUSH2 0x2BA6 SWAP2 SWAP1 PUSH2 0x366C JUMP JUMPDEST POP PUSH1 0x6 SLOAD PUSH1 0x40 MLOAD PUSH4 0x1C5FC483 PUSH1 0xE0 SHL DUP2 MSTORE PUSH1 0x4 DUP2 ADD DUP4 SWAP1 MSTORE PUSH1 0x1 PUSH1 0x1 PUSH1 0xA0 SHL SUB SWAP1 SWAP2 AND SWAP1 PUSH4 0x1C5FC483 SWAP1 PUSH1 0x24 ADD PUSH1 0x0 PUSH1 0x40 MLOAD DUP1 DUP4 SUB DUP2 PUSH1 0x0 DUP8 DUP1 EXTCODESIZE ISZERO DUP1 ISZERO PUSH2 0x2BED JUMPI PUSH1 0x0 DUP1 REVERT JUMPDEST POP GAS CALL ISZERO DUP1 ISZERO PUSH2 0x2C01 JUMPI RETURNDATASIZE PUSH1 0x0 DUP1 RETURNDATACOPY RETURNDATASIZE PUSH1 0x0 REVERT JUMPDEST POP POP POP POP JUMPDEST PUSH1 0x40 MLOAD PUSH4 0x70A08231 PUSH1 0xE0 SHL DUP2 MSTORE ADDRESS PUSH1 0x4 DUP3 ADD MSTORE PUSH1 0x1 PUSH1 0x1 PUSH1 0xA0 SHL SUB DUP6 AND SWAP1 PUSH4 0x70A08231 SWAP1 PUSH1 0x24 ADD PUSH1 0x20 PUSH1 0x40 MLOAD DUP1 DUP4 SUB DUP2 DUP7 GAS STATICCALL ISZERO DUP1 ISZERO PUSH2 0x2C4A JUMPI RETURNDATASIZE PUSH1 0x0 DUP1 RETURNDATACOPY RETURNDATASIZE PUSH1 0x0 REVERT JUMPDEST POP POP POP POP PUSH1 0x40 MLOAD RETURNDATASIZE PUSH1 0x1F NOT PUSH1 0x1F DUP3 ADD AND DUP3 ADD DUP1 PUSH1 0x40 MSTORE POP DUP2 ADD SWAP1 PUSH2 0x2C6E SWAP2 SWAP1 PUSH2 0x361E JUMP JUMPDEST SWAP3 POP DUP6 ISZERO PUSH2 0x2C8B JUMPI PUSH2 0x2C83 DUP9 PUSH1 0x3 DUP2 ADD PUSH2 0x2FB5 JUMP JUMPDEST POP SWAP7 POP PUSH2 0x2C9C JUMP JUMPDEST PUSH2 0x2C98 DUP9 PUSH1 0x3 DUP2 ADD PUSH2 0x2FB5 JUMP JUMPDEST SWAP8 POP POP JUMPDEST DUP7 PUSH2 0x2CAA JUMPI POP POP POP POP PUSH2 0x2F95 JUMP JUMPDEST DUP6 PUSH2 0x2CB9 JUMPI PUSH1 0x6 DUP9 ADD SLOAD PUSH2 0x2CBF JUMP JUMPDEST DUP8 PUSH1 0x1 ADD SLOAD JUMPDEST SWAP2 POP DUP7 PUSH2 0x2CCC DUP4 DUP6 PUSH2 0x364D JUMP JUMPDEST PUSH2 0x2CD6 SWAP2 SWAP1 PUSH2 0x38E6 JUMP JUMPDEST SWAP1 POP PUSH1 0x0 DUP8 PUSH2 0x2CE5 DUP5 DUP9 PUSH2 0x364D JUMP JUMPDEST PUSH2 0x2CEF SWAP2 SWAP1 PUSH2 0x38E6 JUMP JUMPDEST SWAP1 POP DUP2 ISZERO PUSH2 0x2E2C JUMPI PUSH1 0x1 SLOAD PUSH1 0x1 PUSH1 0x1 PUSH1 0xA0 SHL SUB DUP1 DUP8 AND SWAP2 PUSH4 0x95EA7B3 SWAP2 AND PUSH2 0x2D18 DUP6 PUSH1 0x2 PUSH2 0x364D JUMP JUMPDEST PUSH1 0x40 MLOAD PUSH1 0x1 PUSH1 0x1 PUSH1 0xE0 SHL SUB NOT PUSH1 0xE0 DUP6 SWAP1 SHL AND DUP2 MSTORE PUSH1 0x1 PUSH1 0x1 PUSH1 0xA0 SHL SUB SWAP1 SWAP3 AND PUSH1 0x4 DUP4 ADD MSTORE PUSH1 0x24 DUP3 ADD MSTORE PUSH1 0x44 ADD PUSH1 0x20 PUSH1 0x40 MLOAD DUP1 DUP4 SUB DUP2 PUSH1 0x0 DUP8 GAS CALL ISZERO DUP1 ISZERO PUSH2 0x2D63 JUMPI RETURNDATASIZE PUSH1 0x0 DUP1 RETURNDATACOPY RETURNDATASIZE PUSH1 0x0 REVERT JUMPDEST POP POP POP POP PUSH1 0x40 MLOAD RETURNDATASIZE PUSH1 0x1F NOT PUSH1 0x1F DUP3 ADD AND DUP3 ADD DUP1 PUSH1 0x40 MSTORE POP DUP2 ADD SWAP1 PUSH2 0x2D87 SWAP2 SWAP1 PUSH2 0x366C JUMP JUMPDEST POP PUSH1 0x1 SLOAD PUSH1 0x40 MLOAD PUSH4 0xF305D719 PUSH1 0xE0 SHL DUP2 MSTORE PUSH1 0x1 PUSH1 0x1 PUSH1 0xA0 SHL SUB SWAP1 SWAP2 AND SWAP1 PUSH4 0xF305D719 SWAP1 DUP4 SWAP1 PUSH2 0x2DE5 SWAP1 DUP10 SWAP1 DUP8 SWAP1 PUSH1 0x0 SWAP1 DUP2 SWAP1 PUSH32 0x0 SWAP1 TIMESTAMP SWAP1 PUSH1 0x4 ADD PUSH2 0x3908 JUMP JUMPDEST PUSH1 0x60 PUSH1 0x40 MLOAD DUP1 DUP4 SUB DUP2 DUP6 DUP9 GAS CALL ISZERO DUP1 ISZERO PUSH2 0x2E03 JUMPI RETURNDATASIZE PUSH1 0x0 DUP1 RETURNDATACOPY RETURNDATASIZE PUSH1 0x0 REVERT JUMPDEST POP POP POP POP POP PUSH1 0x40 MLOAD RETURNDATASIZE PUSH1 0x1F NOT PUSH1 0x1F DUP3 ADD AND DUP3 ADD DUP1 PUSH1 0x40 MSTORE POP DUP2 ADD SWAP1 PUSH2 0x2E28 SWAP2 SWAP1 PUSH2 0x39F2 JUMP JUMPDEST POP POP POP JUMPDEST DUP7 PUSH2 0x2E3B JUMPI PUSH1 0x7 DUP10 ADD SLOAD PUSH2 0x2E41 JUMP JUMPDEST DUP9 PUSH1 0x2 ADD SLOAD JUMPDEST SWAP3 POP DUP8 PUSH2 0x2E4E DUP5 DUP7 PUSH2 0x364D JUMP JUMPDEST PUSH2 0x2E58 SWAP2 SWAP1 PUSH2 0x38E6 JUMP JUMPDEST SWAP2 POP DUP8 PUSH2 0x2E65 DUP5 DUP9 PUSH2 0x364D JUMP JUMPDEST PUSH2 0x2E6F SWAP2 SWAP1 PUSH2 0x38E6 JUMP JUMPDEST SWAP1 POP DUP2 ISZERO PUSH2 0x2F8F JUMPI PUSH1 0x1 SLOAD PUSH1 0x1 PUSH1 0x1 PUSH1 0xA0 SHL SUB DUP1 DUP8 AND SWAP2 PUSH4 0x95EA7B3 SWAP2 AND PUSH2 0x2E98 DUP6 PUSH1 0x2 PUSH2 0x364D JUMP JUMPDEST PUSH1 0x40 MLOAD PUSH1 0x1 PUSH1 0x1 PUSH1 0xE0 SHL SUB NOT PUSH1 0xE0 DUP6 SWAP1 SHL AND DUP2 MSTORE PUSH1 0x1 PUSH1 0x1 PUSH1 0xA0 SHL SUB SWAP1 SWAP3 AND PUSH1 0x4 DUP4 ADD MSTORE PUSH1 0x24 DUP3 ADD MSTORE PUSH1 0x44 ADD PUSH1 0x20 PUSH1 0x40 MLOAD DUP1 DUP4 SUB DUP2 PUSH1 0x0 DUP8 GAS CALL ISZERO DUP1 ISZERO PUSH2 0x2EE3 JUMPI RETURNDATASIZE PUSH1 0x0 DUP1 RETURNDATACOPY RETURNDATASIZE PUSH1 0x0 REVERT JUMPDEST POP POP POP POP PUSH1 0x40 MLOAD RETURNDATASIZE PUSH1 0x1F NOT PUSH1 0x1F DUP3 ADD AND DUP3 ADD DUP1 PUSH1 0x40 MSTORE POP DUP2 ADD SWAP1 PUSH2 0x2F07 SWAP2 SWAP1 PUSH2 0x366C JUMP JUMPDEST POP PUSH1 0x1 SLOAD PUSH1 0x5 SLOAD PUSH1 0x40 MLOAD PUSH4 0xF305D719 PUSH1 0xE0 SHL DUP2 MSTORE PUSH1 0x1 PUSH1 0x1 PUSH1 0xA0 SHL SUB SWAP3 DUP4 AND SWAP3 PUSH4 0xF305D719 SWAP3 DUP6 SWAP3 PUSH2 0x2F48 SWAP3 DUP12 SWAP3 DUP10 SWAP3 PUSH1 0x0 SWAP3 DUP4 SWAP3 AND SWAP1 TIMESTAMP SWAP1 PUSH1 0x4 ADD PUSH2 0x3908 JUMP JUMPDEST PUSH1 0x60 PUSH1 0x40 MLOAD DUP1 DUP4 SUB DUP2 DUP6 DUP9 GAS CALL ISZERO DUP1 ISZERO PUSH2 0x2F66 JUMPI RETURNDATASIZE PUSH1 0x0 DUP1 RETURNDATACOPY RETURNDATASIZE PUSH1 0x0 REVERT JUMPDEST POP POP POP POP POP PUSH1 0x40 MLOAD RETURNDATASIZE PUSH1 0x1F NOT PUSH1 0x1F DUP3 ADD AND DUP3 ADD DUP1 PUSH1 0x40 MSTORE POP DUP2 ADD SWAP1 PUSH2 0x2F8B SWAP2 SWAP1 PUSH2 0x39F2 JUMP JUMPDEST POP POP POP JUMPDEST POP POP POP POP POP JUMPDEST POP POP POP POP POP JUMP JUMPDEST PUSH1 0x60 PUSH2 0x2FAB DUP5 DUP5 PUSH1 0x0 DUP6 PUSH2 0x2FEB JUMP JUMPDEST SWAP1 POP JUMPDEST SWAP4 SWAP3 POP POP POP JUMP JUMPDEST PUSH1 0x0 DUP1 DUP4 PUSH1 0x2 ADD SLOAD DUP5 PUSH1 0x1 ADD SLOAD PUSH2 0x2FCC SWAP2 SWAP1 PUSH2 0x39A3 JUMP JUMPDEST SWAP2 POP DUP3 PUSH1 0x4 ADD SLOAD DUP4 PUSH1 0x3 ADD SLOAD PUSH2 0x2FE2 SWAP2 SWAP1 PUSH2 0x39A3 JUMP JUMPDEST SWAP1 POP SWAP3 POP SWAP3 SWAP1 POP JUMP JUMPDEST PUSH1 0x60 DUP3 SELFBALANCE LT ISZERO PUSH2 0x304C JUMPI PUSH1 0x40 MLOAD PUSH3 0x461BCD PUSH1 0xE5 SHL DUP2 MSTORE PUSH1 0x20 PUSH1 0x4 DUP3 ADD MSTORE PUSH1 0x26 PUSH1 0x24 DUP3 ADD MSTORE PUSH32 0x416464726573733A20696E73756666696369656E742062616C616E636520666F PUSH1 0x44 DUP3 ADD MSTORE PUSH6 0x1C8818D85B1B PUSH1 0xD2 SHL PUSH1 0x64 DUP3 ADD MSTORE PUSH1 0x84 ADD PUSH2 0x696 JUMP JUMPDEST PUSH1 0x1 PUSH1 0x1 PUSH1 0xA0 SHL SUB DUP6 AND EXTCODESIZE PUSH2 0x30A3 JUMPI PUSH1 0x40 MLOAD PUSH3 0x461BCD PUSH1 0xE5 SHL DUP2 MSTORE PUSH1 0x20 PUSH1 0x4 DUP3 ADD MSTORE PUSH1 0x1D PUSH1 0x24 DUP3 ADD MSTORE PUSH32 0x416464726573733A2063616C6C20746F206E6F6E2D636F6E7472616374000000 PUSH1 0x44 DUP3 ADD MSTORE PUSH1 0x64 ADD PUSH2 0x696 JUMP JUMPDEST PUSH1 0x0 DUP1 DUP7 PUSH1 0x1 PUSH1 0x1 PUSH1 0xA0 SHL SUB AND DUP6 DUP8 PUSH1 0x40 MLOAD PUSH2 0x30BF SWAP2 SWAP1 PUSH2 0x3A4C JUMP JUMPDEST PUSH1 0x0 PUSH1 0x40 MLOAD DUP1 DUP4 SUB DUP2 DUP6 DUP8 GAS CALL SWAP3 POP POP POP RETURNDATASIZE DUP1 PUSH1 0x0 DUP2 EQ PUSH2 0x30FC JUMPI PUSH1 0x40 MLOAD SWAP2 POP PUSH1 0x1F NOT PUSH1 0x3F RETURNDATASIZE ADD AND DUP3 ADD PUSH1 0x40 MSTORE RETURNDATASIZE DUP3 MSTORE RETURNDATASIZE PUSH1 0x0 PUSH1 0x20 DUP5 ADD RETURNDATACOPY PUSH2 0x3101 JUMP JUMPDEST PUSH1 0x60 SWAP2 POP JUMPDEST POP SWAP2 POP SWAP2 POP PUSH2 0x3111 DUP3 DUP3 DUP7 PUSH2 0x311C JUMP JUMPDEST SWAP8 SWAP7 POP POP POP POP POP POP POP JUMP JUMPDEST PUSH1 0x60 DUP4 ISZERO PUSH2 0x312B JUMPI POP DUP2 PUSH2 0x2FAE JUMP JUMPDEST DUP3 MLOAD ISZERO PUSH2 0x313B JUMPI DUP3 MLOAD DUP1 DUP5 PUSH1 0x20 ADD REVERT JUMPDEST DUP2 PUSH1 0x40 MLOAD PUSH3 0x461BCD PUSH1 0xE5 SHL DUP2 MSTORE PUSH1 0x4 ADD PUSH2 0x696 SWAP2 SWAP1 PUSH2 0x3A68 JUMP JUMPDEST DUP3 PUSH1 0x3 DUP2 ADD SWAP3 DUP3 ISZERO PUSH2 0x3183 JUMPI SWAP2 PUSH1 0x20 MUL DUP3 ADD JUMPDEST DUP3 DUP2 GT ISZERO PUSH2 0x3183 JUMPI DUP3 MLOAD DUP3 SSTORE SWAP2 PUSH1 0x20 ADD SWAP2 SWAP1 PUSH1 0x1 ADD SWAP1 PUSH2 0x3168 JUMP JUMPDEST POP PUSH2 0x318F SWAP3 SWAP2 POP PUSH2 0x324F JUMP JUMPDEST POP SWAP1 JUMP JUMPDEST DUP3 PUSH1 0x5 DUP2 ADD SWAP3 DUP3 ISZERO PUSH2 0x3183 JUMPI SWAP2 PUSH1 0x20 MUL DUP3 ADD DUP3 DUP2 GT ISZERO PUSH2 0x3183 JUMPI DUP3 MLOAD DUP3 SSTORE SWAP2 PUSH1 0x20 ADD SWAP2 SWAP1 PUSH1 0x1 ADD SWAP1 PUSH2 0x3168 JUMP JUMPDEST DUP3 DUP1 SLOAD DUP3 DUP3 SSTORE SWAP1 PUSH1 0x0 MSTORE PUSH1 0x20 PUSH1 0x0 KECCAK256 SWAP1 DUP2 ADD SWAP3 DUP3 ISZERO PUSH2 0x3183 JUMPI SWAP2 PUSH1 0x20 MUL DUP3 ADD JUMPDEST DUP3 DUP2 GT ISZERO PUSH2 0x3183 JUMPI DUP2 SLOAD PUSH1 0x1 PUSH1 0x1 PUSH1 0xA0 SHL SUB NOT AND PUSH1 0x1 PUSH1 0x1 PUSH1 0xA0 SHL SUB DUP5 CALLDATALOAD AND OR DUP3 SSTORE PUSH1 0x20 SWAP1 SWAP3 ADD SWAP2 PUSH1 0x1 SWAP1 SWAP2 ADD SWAP1 PUSH2 0x31E0 JUMP JUMPDEST PUSH1 0x40 MLOAD DUP1 PUSH1 0x60 ADD PUSH1 0x40 MSTORE DUP1 PUSH1 0x3 SWAP1 PUSH1 0x20 DUP3 MUL DUP1 CALLDATASIZE DUP4 CALLDATACOPY POP SWAP2 SWAP3 SWAP2 POP POP JUMP JUMPDEST PUSH1 0x40 MLOAD DUP1 PUSH1 0xA0 ADD PUSH1 0x40 MSTORE DUP1 PUSH1 0x5 SWAP1 PUSH1 0x20 DUP3 MUL DUP1 CALLDATASIZE DUP4 CALLDATACOPY POP SWAP2 SWAP3 SWAP2 POP POP JUMP JUMPDEST JUMPDEST DUP1 DUP3 GT ISZERO PUSH2 0x318F JUMPI PUSH1 0x0 DUP2 SSTORE PUSH1 0x1 ADD PUSH2 0x3250 JUMP JUMPDEST PUSH1 0x1 PUSH1 0x1 PUSH1 0xA0 SHL SUB DUP2 AND DUP2 EQ PUSH2 0x14F1 JUMPI PUSH1 0x0 DUP1 REVERT JUMPDEST PUSH1 0x0 PUSH1 0x20 DUP3 DUP5 SUB SLT ISZERO PUSH2 0x328B JUMPI PUSH1 0x0 DUP1 REVERT JUMPDEST DUP2 CALLDATALOAD PUSH2 0x2FAE DUP2 PUSH2 0x3264 JUMP JUMPDEST PUSH1 0x0 PUSH1 0x20 DUP3 DUP5 SUB SLT ISZERO PUSH2 0x32A8 JUMPI PUSH1 0x0 DUP1 REVERT JUMPDEST POP CALLDATALOAD SWAP2 SWAP1 POP JUMP JUMPDEST PUSH1 0x0 DUP1 PUSH1 0x40 DUP4 DUP6 SUB SLT ISZERO PUSH2 0x32C2 JUMPI PUSH1 0x0 DUP1 REVERT JUMPDEST POP POP DUP1 CALLDATALOAD SWAP3 PUSH1 0x20 SWAP1 SWAP2 ADD CALLDATALOAD SWAP2 POP JUMP JUMPDEST DUP1 ISZERO ISZERO DUP2 EQ PUSH2 0x14F1 JUMPI PUSH1 0x0 DUP1 REVERT JUMPDEST PUSH1 0x0 PUSH1 0x20 DUP3 DUP5 SUB SLT ISZERO PUSH2 0x32F1 JUMPI PUSH1 0x0 DUP1 REVERT JUMPDEST DUP2 CALLDATALOAD PUSH2 0x2FAE DUP2 PUSH2 0x32D1 JUMP JUMPDEST DUP1 PUSH1 0x60 DUP2 ADD DUP4 LT ISZERO PUSH2 0x1FCC JUMPI PUSH1 0x0 DUP1 REVERT JUMPDEST DUP1 PUSH1 0xA0 DUP2 ADD DUP4 LT ISZERO PUSH2 0x1FCC JUMPI PUSH1 0x0 DUP1 REVERT JUMPDEST DUP1 CALLDATALOAD PUSH2 0x3329 DUP2 PUSH2 0x3264 JUMP JUMPDEST SWAP2 SWAP1 POP JUMP JUMPDEST PUSH1 0x0 DUP1 DUP4 PUSH1 0x1F DUP5 ADD SLT PUSH2 0x3340 JUMPI PUSH1 0x0 DUP1 REVERT JUMPDEST POP DUP2 CALLDATALOAD PUSH8 0xFFFFFFFFFFFFFFFF DUP2 GT ISZERO PUSH2 0x3358 JUMPI PUSH1 0x0 DUP1 REVERT JUMPDEST PUSH1 0x20 DUP4 ADD SWAP2 POP DUP4 PUSH1 0x20 DUP3 PUSH1 0x5 SHL DUP6 ADD ADD GT ISZERO PUSH2 0x3373 JUMPI PUSH1 0x0 DUP1 REVERT JUMPDEST SWAP3 POP SWAP3 SWAP1 POP JUMP JUMPDEST PUSH1 0x0 DUP1 PUSH1 0x0 DUP1 PUSH1 0x0 DUP1 PUSH1 0x0 DUP1 PUSH1 0x0 DUP1 PUSH1 0x0 PUSH2 0x200 DUP13 DUP15 SUB SLT ISZERO PUSH2 0x339C JUMPI PUSH1 0x0 DUP1 REVERT JUMPDEST DUP12 CALLDATALOAD SWAP11 POP PUSH2 0x33AD DUP14 PUSH1 0x20 DUP15 ADD PUSH2 0x32FC JUMP JUMPDEST SWAP10 POP PUSH2 0x33BC DUP14 PUSH1 0x80 DUP15 ADD PUSH2 0x330D JUMP JUMPDEST SWAP9 POP PUSH2 0x33CC DUP14 PUSH2 0x120 DUP15 ADD PUSH2 0x32FC JUMP JUMPDEST SWAP8 POP PUSH2 0x33DB PUSH2 0x180 DUP14 ADD PUSH2 0x331E JUMP JUMPDEST SWAP7 POP PUSH8 0xFFFFFFFFFFFFFFFF DUP1 PUSH2 0x1A0 DUP15 ADD CALLDATALOAD GT ISZERO PUSH2 0x33F8 JUMPI PUSH1 0x0 DUP1 REVERT JUMPDEST PUSH2 0x3409 DUP15 PUSH2 0x1A0 DUP16 ADD CALLDATALOAD DUP16 ADD PUSH2 0x332E JUMP JUMPDEST SWAP1 SWAP8 POP SWAP6 POP PUSH2 0x1C0 DUP14 ADD CALLDATALOAD DUP2 LT ISZERO PUSH2 0x3420 JUMPI PUSH1 0x0 DUP1 REVERT JUMPDEST PUSH2 0x3431 DUP15 PUSH2 0x1C0 DUP16 ADD CALLDATALOAD DUP16 ADD PUSH2 0x332E JUMP JUMPDEST SWAP1 SWAP6 POP SWAP4 POP PUSH2 0x1E0 DUP14 ADD CALLDATALOAD DUP2 LT ISZERO PUSH2 0x3448 JUMPI PUSH1 0x0 DUP1 REVERT JUMPDEST POP PUSH2 0x345A DUP14 PUSH2 0x1E0 DUP15 ADD CALLDATALOAD DUP15 ADD PUSH2 0x332E JUMP JUMPDEST DUP2 SWAP4 POP DUP1 SWAP3 POP POP POP SWAP3 SWAP6 SWAP9 SWAP12 POP SWAP3 SWAP6 SWAP9 SWAP12 SWAP1 SWAP4 SWAP7 SWAP10 POP JUMP JUMPDEST PUSH1 0x0 DUP1 PUSH1 0x0 DUP1 PUSH1 0x0 DUP1 PUSH1 0x0 PUSH1 0x80 DUP9 DUP11 SUB SLT ISZERO PUSH2 0x348D JUMPI PUSH1 0x0 DUP1 REVERT JUMPDEST DUP8 CALLDATALOAD SWAP7 POP PUSH1 0x20 DUP9 ADD CALLDATALOAD PUSH8 0xFFFFFFFFFFFFFFFF DUP1 DUP3 GT ISZERO PUSH2 0x34AC JUMPI PUSH1 0x0 DUP1 REVERT JUMPDEST PUSH2 0x34B8 DUP12 DUP4 DUP13 ADD PUSH2 0x332E JUMP JUMPDEST SWAP1 SWAP9 POP SWAP7 POP PUSH1 0x40 DUP11 ADD CALLDATALOAD SWAP2 POP DUP1 DUP3 GT ISZERO PUSH2 0x34D1 JUMPI PUSH1 0x0 DUP1 REVERT JUMPDEST PUSH2 0x34DD DUP12 DUP4 DUP13 ADD PUSH2 0x332E JUMP JUMPDEST SWAP1 SWAP7 POP SWAP5 POP PUSH1 0x60 DUP11 ADD CALLDATALOAD SWAP2 POP DUP1 DUP3 GT ISZERO PUSH2 0x34F6 JUMPI PUSH1 0x0 DUP1 REVERT JUMPDEST POP PUSH2 0x3503 DUP11 DUP3 DUP12 ADD PUSH2 0x332E JUMP JUMPDEST SWAP9 SWAP12 SWAP8 SWAP11 POP SWAP6 SWAP9 POP SWAP4 SWAP7 SWAP3 SWAP6 SWAP3 SWAP4 POP POP POP JUMP JUMPDEST PUSH2 0x100 DUP2 ADD DUP2 DUP5 PUSH1 0x0 JUMPDEST PUSH1 0x3 DUP2 LT ISZERO PUSH2 0x353F JUMPI DUP2 MLOAD DUP4 MSTORE PUSH1 0x20 SWAP3 DUP4 ADD SWAP3 SWAP1 SWAP2 ADD SWAP1 PUSH1 0x1 ADD PUSH2 0x3520 JUMP JUMPDEST POP POP POP PUSH1 0x60 DUP3 ADD DUP4 PUSH1 0x0 JUMPDEST PUSH1 0x5 DUP2 LT ISZERO PUSH2 0x3569 JUMPI DUP2 MLOAD DUP4 MSTORE PUSH1 0x20 SWAP3 DUP4 ADD SWAP3 SWAP1 SWAP2 ADD SWAP1 PUSH1 0x1 ADD PUSH2 0x354A JUMP JUMPDEST POP POP POP SWAP4 SWAP3 POP POP POP JUMP JUMPDEST PUSH1 0x20 DUP1 DUP3 MSTORE DUP2 DUP2 ADD MSTORE PUSH32 0x4F776E61626C653A2063616C6C6572206973206E6F7420746865206F776E6572 PUSH1 0x40 DUP3 ADD MSTORE PUSH1 0x60 ADD SWAP1 JUMP JUMPDEST PUSH1 0x0 DUP1 PUSH1 0x0 DUP1 PUSH1 0x0 DUP1 PUSH1 0x0 PUSH1 0xE0 DUP9 DUP11 SUB SLT ISZERO PUSH2 0x35C3 JUMPI PUSH1 0x0 DUP1 REVERT JUMPDEST DUP8 MLOAD PUSH2 0x35CE DUP2 PUSH2 0x32D1 JUMP JUMPDEST DUP1 SWAP8 POP POP PUSH1 0x20 DUP9 ADD MLOAD SWAP6 POP PUSH1 0x40 DUP9 ADD MLOAD SWAP5 POP PUSH1 0x60 DUP9 ADD MLOAD PUSH2 0x35EE DUP2 PUSH2 0x3264 JUMP JUMPDEST DUP1 SWAP5 POP POP PUSH1 0x80 DUP9 ADD MLOAD SWAP3 POP PUSH1 0xA0 DUP9 ADD MLOAD SWAP2 POP PUSH1 0xC0 DUP9 ADD MLOAD PUSH2 0x360E DUP2 PUSH2 0x32D1 JUMP JUMPDEST DUP1 SWAP2 POP POP SWAP3 SWAP6 SWAP9 SWAP2 SWAP5 SWAP8 POP SWAP3 SWAP6 POP JUMP JUMPDEST PUSH1 0x0 PUSH1 0x20 DUP3 DUP5 SUB SLT ISZERO PUSH2 0x3630 JUMPI PUSH1 0x0 DUP1 REVERT JUMPDEST POP MLOAD SWAP2 SWAP1 POP JUMP JUMPDEST PUSH4 0x4E487B71 PUSH1 0xE0 SHL PUSH1 0x0 MSTORE PUSH1 0x11 PUSH1 0x4 MSTORE PUSH1 0x24 PUSH1 0x0 REVERT JUMPDEST PUSH1 0x0 DUP2 PUSH1 0x0 NOT DIV DUP4 GT DUP3 ISZERO ISZERO AND ISZERO PUSH2 0x3667 JUMPI PUSH2 0x3667 PUSH2 0x3637 JUMP JUMPDEST POP MUL SWAP1 JUMP JUMPDEST PUSH1 0x0 PUSH1 0x20 DUP3 DUP5 SUB SLT ISZERO PUSH2 0x367E JUMPI PUSH1 0x0 DUP1 REVERT JUMPDEST DUP2 MLOAD PUSH2 0x2FAE DUP2 PUSH2 0x32D1 JUMP JUMPDEST PUSH1 0x0 PUSH1 0xA0 DUP3 ADD DUP8 DUP4 MSTORE PUSH1 0x20 DUP8 DUP2 DUP6 ADD MSTORE PUSH1 0xA0 PUSH1 0x40 DUP6 ADD MSTORE DUP2 DUP8 SLOAD DUP1 DUP5 MSTORE PUSH1 0xC0 DUP7 ADD SWAP2 POP DUP9 PUSH1 0x0 MSTORE DUP3 PUSH1 0x0 KECCAK256 SWAP4 POP PUSH1 0x0 JUMPDEST DUP2 DUP2 LT ISZERO PUSH2 0x36DE JUMPI DUP5 SLOAD PUSH1 0x1 PUSH1 0x1 PUSH1 0xA0 SHL SUB AND DUP4 MSTORE PUSH1 0x1 SWAP5 DUP6 ADD SWAP5 SWAP3 DUP5 ADD SWAP3 ADD PUSH2 0x36B9 JUMP JUMPDEST POP POP PUSH1 0x1 PUSH1 0x1 PUSH1 0xA0 SHL SUB SWAP7 SWAP1 SWAP7 AND PUSH1 0x60 DUP6 ADD MSTORE POP POP POP PUSH1 0x80 ADD MSTORE SWAP4 SWAP3 POP POP POP JUMP JUMPDEST PUSH4 0x4E487B71 PUSH1 0xE0 SHL PUSH1 0x0 MSTORE PUSH1 0x41 PUSH1 0x4 MSTORE PUSH1 0x24 PUSH1 0x0 REVERT JUMPDEST PUSH1 0x0 PUSH1 0x20 DUP1 DUP4 DUP6 SUB SLT ISZERO PUSH2 0x3728 JUMPI PUSH1 0x0 DUP1 REVERT JUMPDEST DUP3 MLOAD PUSH8 0xFFFFFFFFFFFFFFFF DUP1 DUP3 GT ISZERO PUSH2 0x3740 JUMPI PUSH1 0x0 DUP1 REVERT JUMPDEST DUP2 DUP6 ADD SWAP2 POP DUP6 PUSH1 0x1F DUP4 ADD SLT PUSH2 0x3754 JUMPI PUSH1 0x0 DUP1 REVERT JUMPDEST DUP2 MLOAD DUP2 DUP2 GT ISZERO PUSH2 0x3766 JUMPI PUSH2 0x3766 PUSH2 0x36FF JUMP JUMPDEST DUP1 PUSH1 0x5 SHL PUSH1 0x40 MLOAD PUSH1 0x1F NOT PUSH1 0x3F DUP4 ADD AND DUP2 ADD DUP2 DUP2 LT DUP6 DUP3 GT OR ISZERO PUSH2 0x378B JUMPI PUSH2 0x378B PUSH2 0x36FF JUMP JUMPDEST PUSH1 0x40 MSTORE SWAP2 DUP3 MSTORE DUP5 DUP3 ADD SWAP3 POP DUP4 DUP2 ADD DUP6 ADD SWAP2 DUP9 DUP4 GT ISZERO PUSH2 0x37A9 JUMPI PUSH1 0x0 DUP1 REVERT JUMPDEST SWAP4 DUP6 ADD SWAP4 JUMPDEST DUP3 DUP6 LT ISZERO PUSH2 0x37C7 JUMPI DUP5 MLOAD DUP5 MSTORE SWAP4 DUP6 ADD SWAP4 SWAP3 DUP6 ADD SWAP3 PUSH2 0x37AE JUMP JUMPDEST SWAP9 SWAP8 POP POP POP POP POP POP POP POP JUMP JUMPDEST PUSH1 0x0 PUSH1 0x20 DUP3 DUP5 SUB SLT ISZERO PUSH2 0x37E5 JUMPI PUSH1 0x0 DUP1 REVERT JUMPDEST DUP2 MLOAD PUSH2 0x2FAE DUP2 PUSH2 0x3264 JUMP JUMPDEST PUSH4 0x4E487B71 PUSH1 0xE0 SHL PUSH1 0x0 MSTORE PUSH1 0x32 PUSH1 0x4 MSTORE PUSH1 0x24 PUSH1 0x0 REVERT JUMPDEST PUSH1 0x0 DUP2 MLOAD DUP1 DUP5 MSTORE PUSH1 0x20 DUP1 DUP6 ADD SWAP5 POP DUP1 DUP5 ADD PUSH1 0x0 JUMPDEST DUP4 DUP2 LT ISZERO PUSH2 0x383F JUMPI DUP2 MLOAD PUSH1 0x1 PUSH1 0x1 PUSH1 0xA0 SHL SUB AND DUP8 MSTORE SWAP6 DUP3 ADD SWAP6 SWAP1 DUP3 ADD SWAP1 PUSH1 0x1 ADD PUSH2 0x381A JUMP JUMPDEST POP SWAP5 SWAP6 SWAP5 POP POP POP POP POP JUMP JUMPDEST DUP5 DUP2 MSTORE PUSH1 0x80 PUSH1 0x20 DUP3 ADD MSTORE PUSH1 0x0 PUSH2 0x3863 PUSH1 0x80 DUP4 ADD DUP7 PUSH2 0x3806 JUMP JUMPDEST PUSH1 0x1 PUSH1 0x1 PUSH1 0xA0 SHL SUB SWAP5 SWAP1 SWAP5 AND PUSH1 0x40 DUP4 ADD MSTORE POP PUSH1 0x60 ADD MSTORE SWAP3 SWAP2 POP POP JUMP JUMPDEST DUP1 MLOAD PUSH1 0x1 PUSH1 0x1 PUSH1 0x70 SHL SUB DUP2 AND DUP2 EQ PUSH2 0x3329 JUMPI PUSH1 0x0 DUP1 REVERT JUMPDEST PUSH1 0x0 DUP1 PUSH1 0x0 PUSH1 0x60 DUP5 DUP7 SUB SLT ISZERO PUSH2 0x38AB JUMPI PUSH1 0x0 DUP1 REVERT JUMPDEST PUSH2 0x38B4 DUP5 PUSH2 0x387F JUMP JUMPDEST SWAP3 POP PUSH2 0x38C2 PUSH1 0x20 DUP6 ADD PUSH2 0x387F JUMP JUMPDEST SWAP2 POP PUSH1 0x40 DUP5 ADD MLOAD PUSH4 0xFFFFFFFF DUP2 AND DUP2 EQ PUSH2 0x38DB JUMPI PUSH1 0x0 DUP1 REVERT JUMPDEST DUP1 SWAP2 POP POP SWAP3 POP SWAP3 POP SWAP3 JUMP JUMPDEST PUSH1 0x0 DUP3 PUSH2 0x3903 JUMPI PUSH4 0x4E487B71 PUSH1 0xE0 SHL PUSH1 0x0 MSTORE PUSH1 0x12 PUSH1 0x4 MSTORE PUSH1 0x24 PUSH1 0x0 REVERT JUMPDEST POP DIV SWAP1 JUMP JUMPDEST PUSH1 0x1 PUSH1 0x1 PUSH1 0xA0 SHL SUB SWAP7 DUP8 AND DUP2 MSTORE PUSH1 0x20 DUP2 ADD SWAP6 SWAP1 SWAP6 MSTORE PUSH1 0x40 DUP6 ADD SWAP4 SWAP1 SWAP4 MSTORE PUSH1 0x60 DUP5 ADD SWAP2 SWAP1 SWAP2 MSTORE SWAP1 SWAP3 AND PUSH1 0x80 DUP3 ADD MSTORE PUSH1 0xA0 DUP2 ADD SWAP2 SWAP1 SWAP2 MSTORE PUSH1 0xC0 ADD SWAP1 JUMP JUMPDEST PUSH1 0x0 DUP1 PUSH1 0x40 DUP4 DUP6 SUB SLT ISZERO PUSH2 0x3956 JUMPI PUSH1 0x0 DUP1 REVERT JUMPDEST POP POP DUP1 MLOAD PUSH1 0x20 SWAP1 SWAP2 ADD MLOAD SWAP1 SWAP3 SWAP1 SWAP2 POP JUMP JUMPDEST DUP6 DUP2 MSTORE DUP5 PUSH1 0x20 DUP3 ADD MSTORE PUSH1 0xA0 PUSH1 0x40 DUP3 ADD MSTORE PUSH1 0x0 PUSH2 0x3986 PUSH1 0xA0 DUP4 ADD DUP7 PUSH2 0x3806 JUMP JUMPDEST PUSH1 0x1 PUSH1 0x1 PUSH1 0xA0 SHL SUB SWAP5 SWAP1 SWAP5 AND PUSH1 0x60 DUP4 ADD MSTORE POP PUSH1 0x80 ADD MSTORE SWAP4 SWAP3 POP POP POP JUMP JUMPDEST PUSH1 0x0 DUP3 NOT DUP3 GT ISZERO PUSH2 0x39B6 JUMPI PUSH2 0x39B6 PUSH2 0x3637 JUMP JUMPDEST POP ADD SWAP1 JUMP JUMPDEST PUSH1 0x0 PUSH1 0xFF DUP3 AND PUSH1 0xFF DUP2 EQ ISZERO PUSH2 0x39D2 JUMPI PUSH2 0x39D2 PUSH2 0x3637 JUMP JUMPDEST PUSH1 0x1 ADD SWAP3 SWAP2 POP POP JUMP JUMPDEST PUSH1 0x0 DUP3 DUP3 LT ISZERO PUSH2 0x39ED JUMPI PUSH2 0x39ED PUSH2 0x3637 JUMP JUMPDEST POP SUB SWAP1 JUMP JUMPDEST PUSH1 0x0 DUP1 PUSH1 0x0 PUSH1 0x60 DUP5 DUP7 SUB SLT ISZERO PUSH2 0x3A07 JUMPI PUSH1 0x0 DUP1 REVERT JUMPDEST DUP4 MLOAD SWAP3 POP PUSH1 0x20 DUP5 ADD MLOAD SWAP2 POP PUSH1 0x40 DUP5 ADD MLOAD SWAP1 POP SWAP3 POP SWAP3 POP SWAP3 JUMP JUMPDEST PUSH1 0x0 JUMPDEST DUP4 DUP2 LT ISZERO PUSH2 0x3A3B JUMPI DUP2 DUP2 ADD MLOAD DUP4 DUP3 ADD MSTORE PUSH1 0x20 ADD PUSH2 0x3A23 JUMP JUMPDEST DUP4 DUP2 GT ISZERO PUSH2 0x1606 JUMPI POP POP PUSH1 0x0 SWAP2 ADD MSTORE JUMP JUMPDEST PUSH1 0x0 DUP3 MLOAD PUSH2 0x3A5E DUP2 DUP5 PUSH1 0x20 DUP8 ADD PUSH2 0x3A20 JUMP JUMPDEST SWAP2 SWAP1 SWAP2 ADD SWAP3 SWAP2 POP POP JUMP JUMPDEST PUSH1 0x20 DUP2 MSTORE PUSH1 0x0 DUP3 MLOAD DUP1 PUSH1 0x20 DUP5 ADD MSTORE PUSH2 0x3A87 DUP2 PUSH1 0x40 DUP6 ADD PUSH1 0x20 DUP8 ADD PUSH2 0x3A20 JUMP JUMPDEST PUSH1 0x1F ADD PUSH1 0x1F NOT AND SWAP2 SWAP1 SWAP2 ADD PUSH1 0x40 ADD SWAP3 SWAP2 POP POP JUMP INVALID LOG2 PUSH5 0x6970667358 0x22 SLT KECCAK256 PUSH27 0x3202FBC7646895466BDF37F820ADC06D84A3DB82F6F9DFC40AFB02 0x29 PUSH17 0x401164736F6C634300080C003300000000 ","sha1":"5fb721447d84ddfac644319da671eaa0f8c7b7de","source":"// SPDX-License-Identifier: MIT\npragma solidity 0.8.12;\n\nimport \"@openzeppelin/contracts/access/Ownable.sol\";\nimport \"@openzeppelin/contracts/token/ERC20/IERC20.sol\";\nimport \"@openzeppelin/contracts/token/ERC20/extensions/ERC20Burnable.sol\";\nimport \"@openzeppelin/contracts/token/ERC20/utils/SafeERC20.sol\";\nimport \"./GalacticChef.sol\";\nimport \"../interfaces/IPancakePair.sol\";\nimport \"../interfaces/IPancakeRouter.sol\";\nimport \"../interfaces/IBankroll.sol\";\nimport \"../interfaces/ILottery.sol\";\n\n//import \"../interfaces/IFeeDistributor.sol\";\n///@dev use interface IFeeDistributor\n\ncontract FeeDistributorV2 is Ownable {\n    using SafeERC20 for ERC20Burnable;\n    using SafeERC20 for IERC20;\n\n    struct FeeData {\n        /** Fees in array are as follows [CRUSH] [NICE]\n         * [0][0](bbb) Buy back and Burn (NICE | CRUSH) CHECK THAT SELECTED TOKEN HAS BEEN BURNED IN TOKEN CONTRACT REVISAR TOTAL SUPPLY\n         * [1](bbd) Buy back and DISTRIBUTE (CRUSH) SENDS CRUSH TO BANKSTAKING\n         * [2](bbl) Buy back and LOTTERY (CRUSH) SENDS CRUSH TO LOTTERY POOL\n         * [3][1](lqPermanent) PERMANENT LIQUIDITY (NICE | CRUSH)/BNB\n         * [4][2](lqLock) LOCKED LIQUIDITY (NICE | CRUSH)/BNB\n         * 0-4 need to be <= 100% Whatever is left, we send to marketing wallet\n         * REST - MARKETING FUNDS -> BNB\n         **/\n        uint256[3] niceFees;\n        uint256[5] crushFees;\n        bool initialized; // Fail transactions where fees have not been added\n        bool hasFees; // If token charges fees on transfers need to use swapTokensForEthSupportingFeesOnTransferToken function instead\n        bool token0Fees; // FOR LP IN CASE IT HAS FEES\n        bool token1Fees; // FOR LP IN CASE ITS TOKEN HAS FEES\n        /**\n            if it's an LP token we need to remove that Liquidity\n            else it's a Single asset token and have to swap it for core ETH (BNB)\n            before buying anything else.\n        **/\n        IPancakeRouter router; // main router for this token\n    }\n    address public immutable CRUSH;\n    address public immutable NICE;\n    address public immutable deadWallet =\n        0x000000000000000000000000000000000000dEaD;\n    IPancakeRouter public tokenRouter; //used for CRUSH and NICE\n    address public niceLiquidity;\n    uint256 public idoPrice;\n    address public teamWallet;\n    address public lock;\n    IBitcrushBankroll public immutable bankroll;\n    IBitcrushLottery public lottery;\n\n    bool public reachForIdo;\n\n    uint256 public constant DIVISOR = 10000; // 100.00%\n    GalacticChef public chef;\n\n    mapping(uint256 => FeeData) public feeData;\n    mapping(uint256 => address[]) public tokenPath; // RECEIVED TOKEN TO WBNB\n    mapping(uint256 => address[]) public token0Path; // LP TOKEN 0 TO WBNB\n    mapping(uint256 => address[]) public token1Path; // LP TOKEN 1 TO WBNB\n\n    event AddPoolFee(uint256 indexed _pid);\n    event EditFee(uint256 indexed _pid, uint256 bb, uint256 liq, uint256 team);\n    event UpdateRouter(uint256 indexed _pid, address router);\n    event UpdatePath(uint256 indexed _pid, address router);\n    event UpdateTeamWallet(address _teamW);\n    event UpdateMainRouter(address _router);\n    event FundsDistributed(uint256 amount, address _token);\n    event TeamFundsDistributed(bool _success, uint256 amount);\n    event UpdateTargetPrice(uint256 _target);\n    event UpdateLotteryAddress(address _newLotteery, address _oldLottery);\n    event SeachForTarget(bool _isOn);\n\n    modifier onlyChef() {\n        require(msg.sender == address(chef), \"onlyChef\");\n        _;\n    }\n\n    constructor(\n        address _chef,\n        uint256 _idoPrice,\n        address _nicePair,\n        address _bankroll,\n        address _lottery,\n        address _lock,\n        address _nice,\n        address _crush\n    ) {\n        require(_chef != address(0), \"Zero address\");\n        chef = GalacticChef(_chef);\n        teamWallet = msg.sender;\n        // _idoPrice must be NICE/BNB NOT BNB/NICE\n        idoPrice = _idoPrice;\n        niceLiquidity = _nicePair;\n        // DISTRIBUTE CRUSH\n        bankroll = IBitcrushBankroll(_bankroll);\n        lottery = IBitcrushLottery(_lottery);\n        CRUSH = _crush;\n        NICE = _nice;\n    }\n\n    /*********************************\n     *      INITIALIZE FEE POOL      *\n     *********************************/\n\n    function addorEditFee(\n        uint256 _pid, //ID TO ADD/EDIT\n        uint256[3] calldata _niceFees, // 0 buyback BURN, 1 buyback DISTRIBUTE, 2 buyback LOTTERY, 3 liquidity PERMANENT, 4 liquidity LOCK\n        uint256[5] calldata _crushFees, // 0 buyback BURN, 1 buyback DISTRIBUTE, 2 buyback LOTTERY, 3 liquidity PERMANENT, 4 liquidity LOCK\n        bool[3] calldata hasFees, // 0 token has Fees, 1 token0 has fees, 2 token1 has fees\n        address router, //swap router address\n        // If is LP -> tokenAddresses that compose the pair CRUSH/BUSD -> [ CRUSH_ADDRESS, BUSD_ADDRESS]\n        // If ERC20 token [ CRUSH_ADDRESS, wBNB] -> Path to ETH\n        address[] calldata _tokens,\n        address[] calldata _token0Path, // LP TOKEN 0 PATH TO wBNB\n        address[] calldata _token1Path // LP TOKEN 1 PATH to wBNB\n    ) external onlyOwner {\n        require(\n            addArrays(_niceFees, _crushFees) <= DIVISOR,\n            \"Incorrect Fee distribution\"\n        );\n        require(router != address(0), \"Incorrect Router\");\n        require(_tokens.length > 0, \"need a path to base\");\n        feeData[_pid] = FeeData(\n            _niceFees,\n            _crushFees,\n            true,\n            hasFees[0],\n            hasFees[1],\n            hasFees[2],\n            IPancakeRouter(router)\n        );\n        updatePaths(_pid, _tokens, _token0Path, _token1Path);\n        emit AddPoolFee(_pid);\n    }\n\n    /******************************\n     *      FEE DISTRIBUTION      *\n     ******************************/\n    receive() external payable {}\n\n    fallback() external payable {}\n\n    /// @notice Function that distributes fees to the respective flows\n    /// @dev This function requires funds to be sent beforehand to this contract\n    function receiveFees(uint256 _pid, uint256 _amount) external onlyChef {\n        FeeData storage feeInfo = feeData[_pid];\n        require(feeInfo.initialized, \"Not init\");\n        (, , , IERC20 token, , , bool isLP) = chef.poolInfo(_pid);\n        token.safeTransferFrom(address(chef), address(this), _amount);\n        // Check if token was received\n        require(token.balanceOf(address(this)) >= _amount, \"send funds\");\n        // REQUIRE THAT FEES ARE NEEDED TO BE TAKEN, ELSE TRANSFER TO OWNER\n        // IS LP TOKEN ?\n        token.approve(address(feeInfo.router), _amount * 2);\n        if (isLP) {\n            // remove liquidity\n            removeLiquidityAndSwapETH(_pid, _amount);\n        } else {\n            // NO SWAP ERC FLOW\n            if (feeInfo.hasFees)\n                feeInfo\n                    .router\n                    .swapExactTokensForETHSupportingFeeOnTransferTokens(\n                        _amount,\n                        0, // We get what we can\n                        tokenPath[_pid], // Token PATH of ERC is already path to WETH\n                        address(this),\n                        block.timestamp\n                    );\n            else\n                feeInfo.router.swapExactTokensForETH(\n                    _amount,\n                    0, // We get what we can\n                    tokenPath[_pid], // Token PATH of ERC is already path to WETH\n                    address(this),\n                    block.timestamp\n                );\n        }\n        if (reachForIdo && checkPrice()) {\n            // only buy back and burn NICE\n            uint256 currentETH = address(this).balance;\n            address[] memory nicePath;\n            nicePath[0] = tokenRouter.WETH();\n            nicePath[1] = NICE;\n            tokenRouter.swapExactETHForTokens{value: currentETH}(\n                0,\n                nicePath,\n                address(0),\n                block.timestamp\n            );\n        } else {\n            // With the ETH distribute AMOUNTS\n            distributeFees(feeInfo);\n        }\n        emit FundsDistributed(_amount, address(token));\n    }\n\n    /// @notice Check that current Nice Price is above IDO\n    /// @dev get IDO price for NICE\n    function checkPrice() public view returns (bool _belowIDO) {\n        (uint256 reserve0, uint256 reserve1, ) = IPancakePair(niceLiquidity)\n            .getReserves();\n        reserve1 = reserve1 > 0 ? reserve1 : 1; //just in case\n        _belowIDO = ((reserve0 * 1 ether) / reserve1) < idoPrice;\n    }\n\n    /// @notice from the POOL ID check which token is wETH and return the other one\n    /// @param _pid the Pool ID token path to check\n    function getNotEthToken(uint256 _pid)\n        internal\n        view\n        returns (\n            IERC20 token,\n            address[] memory path,\n            bool hasFees\n        )\n    {\n        if (tokenPath[_pid][0] != tokenRouter.WETH()) {\n            token = IERC20(tokenPath[_pid][0]);\n            path = token0Path[_pid];\n            hasFees = feeData[_pid].token0Fees;\n        } else {\n            token = IERC20(tokenPath[_pid][1]);\n            path = token1Path[_pid];\n        }\n    }\n\n    /// @notice Remove Liquidity from pair token and swap for ETH\n    /// @param _pid Pool ID  to get token Path\n    function removeLiquidityAndSwapETH(uint256 _pid, uint256 amount)\n        internal\n        returns (uint256)\n    {\n        FeeData storage feeInfo = feeData[_pid];\n        // SWAP WITH ONE TOKEN ALREADY WETH\n        if (\n            tokenPath[_pid][0] == tokenRouter.WETH() ||\n            tokenPath[_pid][1] == tokenRouter.WETH()\n        ) {\n            IERC20 nonEthToken;\n            address[] memory path;\n            bool tokenFees;\n            (nonEthToken, path, tokenFees) = getNotEthToken(_pid);\n            if (feeInfo.hasFees)\n                feeInfo.router.removeLiquidityETHSupportingFeeOnTransferTokens(\n                    address(nonEthToken),\n                    amount,\n                    0,\n                    0,\n                    address(this),\n                    block.timestamp\n                );\n            else\n                feeInfo.router.removeLiquidityETH(\n                    address(nonEthToken),\n                    amount,\n                    0,\n                    0,\n                    address(this),\n                    block.timestamp\n                );\n            uint256 tokensLeft = nonEthToken.balanceOf(address(this));\n            nonEthToken.approve(address(feeInfo.router), tokensLeft);\n            if (tokenFees) {\n                feeInfo\n                    .router\n                    .swapExactTokensForETHSupportingFeeOnTransferTokens(\n                        tokensLeft,\n                        0,\n                        path,\n                        address(this),\n                        block.timestamp\n                    );\n            } else {\n                feeInfo.router.swapExactTokensForETH(\n                    tokensLeft,\n                    0,\n                    path,\n                    address(this),\n                    block.timestamp\n                );\n            }\n        }\n        // SWAP WITH NO TOKENS BEING WETH\n        else {\n            (uint256 tokenA, uint256 tokenB) = feeInfo.router.removeLiquidity(\n                tokenPath[_pid][0],\n                tokenPath[_pid][1],\n                amount,\n                0,\n                0,\n                address(this),\n                block.timestamp\n            );\n            // Approve tokens for swap\n            IERC20(tokenPath[_pid][0]).approve(\n                address(feeInfo.router),\n                tokenA * 2\n            );\n            IERC20(tokenPath[_pid][1]).approve(\n                address(feeInfo.router),\n                tokenB * 2\n            );\n            // Swap token A\n            if (feeInfo.token0Fees)\n                feeInfo\n                    .router\n                    .swapExactTokensForETHSupportingFeeOnTransferTokens(\n                        tokenA,\n                        0,\n                        token0Path[_pid],\n                        address(this),\n                        block.timestamp\n                    );\n            else\n                feeInfo.router.swapExactTokensForETH(\n                    tokenA,\n                    0,\n                    token0Path[_pid],\n                    address(this),\n                    block.timestamp\n                );\n            // Swap token B\n            if (feeInfo.token1Fees)\n                feeInfo\n                    .router\n                    .swapExactTokensForETHSupportingFeeOnTransferTokens(\n                        tokenB,\n                        0,\n                        token1Path[_pid],\n                        address(this),\n                        block.timestamp\n                    );\n            else\n                feeInfo.router.swapExactTokensForETH(\n                    tokenB,\n                    0,\n                    token1Path[_pid],\n                    address(this),\n                    block.timestamp\n                );\n            //Returns total ETH got\n            return address(this).balance;\n        }\n    }\n\n    function distributeFees(FeeData storage feeInfo) internal {\n        uint256 totalCrush;\n        uint256 totalNice;\n        uint256 crushFees;\n        uint256 niceFees;\n        uint256 bnbForCrush;\n        uint256 bnbForNice;\n        uint256 swapAmountCrush;\n        uint256 swapAmountNice;\n\n        for (uint8 x = 0; x < 5; x++) {\n            crushFees += feeInfo.crushFees[x];\n            totalCrush += x < 3\n                ? feeInfo.crushFees[x]\n                : feeInfo.crushFees[x] / 2;\n            if (x < 3) {\n                niceFees += feeInfo.niceFees[x];\n                totalNice += x == 0\n                    ? feeInfo.niceFees[x]\n                    : feeInfo.niceFees[x] / 2;\n            }\n        }\n        address[] memory path;\n        path[0] = tokenRouter.WETH();\n        path[1] = CRUSH;\n        if (crushFees > 0) {\n            bnbForCrush = (address(this).balance * crushFees) / DIVISOR;\n            swapAmountCrush = (bnbForCrush * totalCrush) / crushFees;\n            // Swap for CRUSH\n            tokenRouter.swapExactETHForTokens{value: swapAmountCrush}(\n                0,\n                path,\n                address(this),\n                block.timestamp\n            );\n            bnbForCrush -= swapAmountCrush;\n            tokenAndLiquidityDistribution(\n                CRUSH,\n                feeInfo,\n                crushFees,\n                false,\n                bnbForCrush\n            );\n        }\n        if (niceFees > 0) {\n            bnbForNice = (address(this).balance * niceFees) / DIVISOR;\n            swapAmountNice = (bnbForNice * totalNice) / niceFees;\n            bnbForNice -= swapAmountNice;\n            // Swap for NICE\n            path[1] = NICE;\n            tokenRouter.swapExactETHForTokens{value: swapAmountNice}(\n                0,\n                path,\n                address(this),\n                block.timestamp\n            );\n            tokenAndLiquidityDistribution(\n                NICE,\n                feeInfo,\n                niceFees,\n                true,\n                bnbForNice\n            );\n        }\n\n        // If there's some ETH left, send to marketing wallet\n        uint256 ethBal = address(this).balance;\n        if (ethBal > 0) {\n            (bool success, ) = payable(teamWallet).call{value: ethBal}(\"\");\n            emit TeamFundsDistributed(success, ethBal);\n        }\n    }\n\n    function tokenAndLiquidityDistribution(\n        address token,\n        FeeData storage feeInfo,\n        uint256 totalFees,\n        bool isNice,\n        uint256 liquidityETH\n    ) internal {\n        ERC20Burnable mainToken = ERC20Burnable(token);\n        uint256 currentBalance = mainToken.balanceOf(address(this));\n        // BUYBACK AND BURN\n        uint256 usedFee = isNice ? feeInfo.niceFees[0] : feeInfo.crushFees[0];\n        uint256 amountToUse = (currentBalance * usedFee) / totalFees;\n        if (amountToUse > 0) mainToken.burn(amountToUse);\n        // BUYBACK AND DISTRIBUTE TO STAKING POOL\n        usedFee = isNice ? 0 : feeInfo.crushFees[1];\n        amountToUse = (currentBalance * usedFee) / totalFees;\n        if (amountToUse > 0) {\n            mainToken.approve(address(bankroll), amountToUse * 2);\n            bankroll.addUserLoss(amountToUse);\n        }\n        // BUYBACK AND LOTTERY\n        usedFee = isNice ? 0 : feeInfo.crushFees[2];\n        amountToUse = (currentBalance * usedFee) / totalFees;\n        if (amountToUse > 0) {\n            mainToken.approve(address(lottery), amountToUse * 2);\n            lottery.addToPool(amountToUse);\n        }\n        // Since we'll send liquidity straight to the required addresses, addLiquidity needs to happen twice\\\n        currentBalance = mainToken.balanceOf(address(this));\n        if (isNice)\n            (totalFees, ) = liquidityFeeTotal(\n                feeInfo.niceFees,\n                feeInfo.crushFees\n            );\n        else\n            (, totalFees) = liquidityFeeTotal(\n                feeInfo.niceFees,\n                feeInfo.crushFees\n            );\n        if (totalFees == 0) return;\n        // PERMANENT LIQUIDITY\n        usedFee = isNice ? feeInfo.niceFees[1] : feeInfo.crushFees[3];\n        amountToUse = (currentBalance * usedFee) / totalFees;\n        uint256 ethToUse = (liquidityETH * usedFee) / totalFees;\n        if (amountToUse > 0) {\n            mainToken.approve(address(tokenRouter), amountToUse * 2);\n            tokenRouter.addLiquidityETH{value: ethToUse}(\n                address(mainToken),\n                amountToUse,\n                0,\n                0,\n                deadWallet, // \"burn\" immediately\n                block.timestamp\n            );\n        }\n        // LOCK LIQUIDITY\n        usedFee = isNice ? feeInfo.niceFees[2] : feeInfo.crushFees[4];\n        amountToUse = (currentBalance * usedFee) / totalFees;\n        ethToUse = (liquidityETH * usedFee) / totalFees;\n        if (amountToUse > 0) {\n            mainToken.approve(address(tokenRouter), amountToUse * 2);\n            tokenRouter.addLiquidityETH{value: ethToUse}(\n                address(mainToken),\n                amountToUse,\n                0,\n                0,\n                lock, // send Tokens to LOCK contract\n                block.timestamp\n            );\n        }\n    }\n\n    /*************************\n     *        GETTERS        *\n     *************************/\n    function getFees(uint256 _pid)\n        external\n        view\n        returns (uint256[3] memory _niceFees, uint256[5] memory _crushFees)\n    {\n        _niceFees = feeData[_pid].niceFees;\n        _crushFees = feeData[_pid].crushFees;\n    }\n\n    /*************************\n     *        SETTERS        *\n     *************************/\n    /// @notice Update the main router used to spread liquidity\n    /// @param _newRouter address of the router to migrate to\n    /// @dev Requires the router to exist\n    function setBaseRouter(address _newRouter) external onlyOwner {\n        require(_newRouter != address(0), \"No zero\");\n        tokenRouter = IPancakeRouter(_newRouter);\n        emit UpdateMainRouter(_newRouter);\n    }\n\n    /// @notice Update the Marketing Wallet\n    /// @param _newTeamW address to send funds to\n    /// @dev requires address to be payable since it'll receive BNB(ETH) directly\n    function setTeamWallet(address payable _newTeamW) external onlyOwner {\n        require(_newTeamW != address(0), \"Cant pay 0\");\n        teamWallet = _newTeamW;\n        emit UpdateTeamWallet(_newTeamW);\n    }\n\n    /// @notice Update the paths used for a specific pool\n    /// @param id the Pool ID\n    /// @param _path path of the token, if LP, tokens that comprise it, else route to ETH\n    /// @param _path1 if LP, token0 path to ETH, else empty;\n    /// @param _path2 if LP, token1 path to ETH, else empty;\n    function updatePaths(\n        uint256 id,\n        address[] calldata _path,\n        address[] calldata _path1,\n        address[] calldata _path2\n    ) public onlyOwner {\n        tokenPath[id] = _path;\n        token0Path[id] = _path1;\n        token1Path[id] = _path2;\n    }\n\n    /// @notice Update the Target Price to compare to for NICE buy back and burn only.\n    /// @param _price new Target price to attempt to reach\n    function updateIdoTarget(uint256 _price) external onlyOwner {\n        require(_price > 0, \"Invalid target\");\n        idoPrice = _price;\n        emit UpdateTargetPrice(_price);\n    }\n\n    /// @notice Toggle between enabling and disabling NICE target price Search\n    function enableTargetSearch(bool _enable) external onlyOwner {\n        require(reachForIdo != _enable, \"Already in state\");\n        reachForIdo = _enable;\n        emit SeachForTarget(_enable);\n    }\n\n    function updateLottery(address _nLottery) external onlyOwner {\n        require(_nLottery != address(0), \"No Zero\");\n        emit UpdateLotteryAddress(_nLottery, address(lottery));\n        lottery = IBitcrushLottery(_nLottery);\n    }\n\n    /*************************\n     *      Calculations     *\n     *************************/\n    function liquidityFeeTotal(uint256[3] storage _ar1, uint256[5] storage _ar2)\n        internal\n        view\n        returns (uint256 _liquidityNice, uint256 _liquidityCrush)\n    {\n        _liquidityNice = _ar1[1] + _ar1[2];\n        _liquidityCrush = _ar2[3] + _ar2[4];\n    }\n\n    function addArrays(uint256[3] calldata _ar1, uint256[5] calldata _ar2)\n        internal\n        pure\n        returns (uint256 _result)\n    {\n        for (uint8 i = 0; i < 5; i++) {\n            _result += _ar2[i];\n            if (i < 3) {\n                _result += _ar1[i];\n            }\n        }\n    }\n}\n","sourcePath":"contracts/FeeDistributorv2.sol","deployment":{"address":"0xd5287bD9217d98b46B37C006235318179693d2a4","chainid":"97","blockHeight":17691207}}