{
    "contractName": "BitcrushBankroll",
    "abi": [
        {
            "inputs": [
                {
                    "internalType": "contract CRUSHToken",
                    "name": "_crush",
                    "type": "address"
                },
                {
                    "internalType": "contract BitcrushStaking",
                    "name": "_stakingPool",
                    "type": "address"
                },
                {
                    "internalType": "contract BitcrushLiveWallet",
                    "name": "_liveWallet",
                    "type": "address"
                },
                {
                    "internalType": "address",
                    "name": "_reserve",
                    "type": "address"
                },
                {
                    "internalType": "address",
                    "name": "_lottery",
                    "type": "address"
                }
            ],
            "stateMutability": "nonpayable",
            "type": "constructor"
        },
        {
            "anonymous": false,
            "inputs": [
                {
                    "indexed": true,
                    "internalType": "address",
                    "name": "previousOwner",
                    "type": "address"
                },
                {
                    "indexed": true,
                    "internalType": "address",
                    "name": "newOwner",
                    "type": "address"
                }
            ],
            "name": "OwnershipTransferred",
            "type": "event"
        },
        {
            "inputs": [],
            "name": "DIVISOR",
            "outputs": [
                {
                    "internalType": "uint256",
                    "name": "",
                    "type": "uint256"
                }
            ],
            "stateMutability": "view",
            "type": "function"
        },
        {
            "inputs": [
                {
                    "internalType": "uint256",
                    "name": "_profit",
                    "type": "uint256"
                },
                {
                    "internalType": "bytes32",
                    "name": "_identifier",
                    "type": "bytes32"
                },
                {
                    "internalType": "uint256",
                    "name": "_houseShare",
                    "type": "uint256"
                },
                {
                    "internalType": "uint256",
                    "name": "_lotteryShare",
                    "type": "uint256"
                },
                {
                    "internalType": "uint256",
                    "name": "_reserveShare",
                    "type": "uint256"
                },
                {
                    "internalType": "address",
                    "name": "_profitAddress",
                    "type": "address"
                }
            ],
            "name": "addGame",
            "outputs": [],
            "stateMutability": "nonpayable",
            "type": "function"
        },
        {
            "inputs": [
                {
                    "internalType": "uint256",
                    "name": "_amount",
                    "type": "uint256"
                }
            ],
            "name": "addToBankroll",
            "outputs": [],
            "stateMutability": "nonpayable",
            "type": "function"
        },
        {
            "inputs": [
                {
                    "internalType": "uint256",
                    "name": "_amount",
                    "type": "uint256"
                },
                {
                    "internalType": "uint256",
                    "name": "_gameId",
                    "type": "uint256"
                }
            ],
            "name": "addUserLoss",
            "outputs": [],
            "stateMutability": "nonpayable",
            "type": "function"
        },
        {
            "inputs": [],
            "name": "allTimeHigh",
            "outputs": [
                {
                    "internalType": "uint256",
                    "name": "",
                    "type": "uint256"
                }
            ],
            "stateMutability": "view",
            "type": "function"
        },
        {
            "inputs": [],
            "name": "availableProfit",
            "outputs": [
                {
                    "internalType": "uint256",
                    "name": "",
                    "type": "uint256"
                }
            ],
            "stateMutability": "view",
            "type": "function"
        },
        {
            "inputs": [],
            "name": "crush",
            "outputs": [
                {
                    "internalType": "contract CRUSHToken",
                    "name": "",
                    "type": "address"
                }
            ],
            "stateMutability": "view",
            "type": "function"
        },
        {
            "inputs": [
                {
                    "internalType": "uint256",
                    "name": "",
                    "type": "uint256"
                }
            ],
            "name": "games",
            "outputs": [
                {
                    "internalType": "uint256",
                    "name": "profit",
                    "type": "uint256"
                },
                {
                    "internalType": "bytes32",
                    "name": "identifier",
                    "type": "bytes32"
                },
                {
                    "internalType": "uint256",
                    "name": "houseShare",
                    "type": "uint256"
                },
                {
                    "internalType": "uint256",
                    "name": "lotteryShare",
                    "type": "uint256"
                },
                {
                    "internalType": "uint256",
                    "name": "reserveShare",
                    "type": "uint256"
                },
                {
                    "internalType": "address",
                    "name": "profitAddress",
                    "type": "address"
                }
            ],
            "stateMutability": "view",
            "type": "function"
        },
        {
            "inputs": [],
            "name": "liveWallet",
            "outputs": [
                {
                    "internalType": "contract BitcrushLiveWallet",
                    "name": "",
                    "type": "address"
                }
            ],
            "stateMutability": "view",
            "type": "function"
        },
        {
            "inputs": [],
            "name": "lottery",
            "outputs": [
                {
                    "internalType": "address",
                    "name": "",
                    "type": "address"
                }
            ],
            "stateMutability": "view",
            "type": "function"
        },
        {
            "inputs": [],
            "name": "owner",
            "outputs": [
                {
                    "internalType": "address",
                    "name": "",
                    "type": "address"
                }
            ],
            "stateMutability": "view",
            "type": "function"
        },
        {
            "inputs": [
                {
                    "internalType": "uint256",
                    "name": "_amount",
                    "type": "uint256"
                },
                {
                    "internalType": "address",
                    "name": "_winner",
                    "type": "address"
                }
            ],
            "name": "payOutUserWinning",
            "outputs": [],
            "stateMutability": "nonpayable",
            "type": "function"
        },
        {
            "inputs": [],
            "name": "renounceOwnership",
            "outputs": [],
            "stateMutability": "nonpayable",
            "type": "function"
        },
        {
            "inputs": [],
            "name": "reserve",
            "outputs": [
                {
                    "internalType": "address",
                    "name": "",
                    "type": "address"
                }
            ],
            "stateMutability": "view",
            "type": "function"
        },
        {
            "inputs": [],
            "name": "stakingPool",
            "outputs": [
                {
                    "internalType": "contract BitcrushStaking",
                    "name": "",
                    "type": "address"
                }
            ],
            "stateMutability": "view",
            "type": "function"
        },
        {
            "inputs": [],
            "name": "totalBankroll",
            "outputs": [
                {
                    "internalType": "uint256",
                    "name": "",
                    "type": "uint256"
                }
            ],
            "stateMutability": "view",
            "type": "function"
        },
        {
            "inputs": [
                {
                    "internalType": "address",
                    "name": "newOwner",
                    "type": "address"
                }
            ],
            "name": "transferOwnership",
            "outputs": [],
            "stateMutability": "nonpayable",
            "type": "function"
        },
        {
            "inputs": [],
            "name": "transferProfit",
            "outputs": [
                {
                    "internalType": "uint256",
                    "name": "",
                    "type": "uint256"
                }
            ],
            "stateMutability": "nonpayable",
            "type": "function"
        }
    ],
    "bytecode": "60806040526004805460ff191690556001600b556064600c5534801561002457600080fd5b50604051611575380380611575833981810160405260a081101561004757600080fd5b5080516020820151604083015160608401516080909401519293919290919060006100796001600160e01b0361012516565b600080546001600160a01b0319166001600160a01b0383169081178255604051929350917f8be0079c531659141344cd1fd0a4f28419497f9722a3daafe3b4186f6b6457e0908290a350600680546001600160a01b03199081166001600160a01b03978816179091556007805482169587169590951790945560088054851693861693909317909255600980548416918516919091179055600a80549092169216919091179055610129565b3390565b61143d806101386000396000f3fe608060405234801561001057600080fd5b50600436106101165760003560e01c8063715018a6116100a2578063ba13a57211610071578063ba13a57214610258578063cd3293de14610260578063e0b1999914610268578063e3aeeb46146102ac578063f2fde38b146102b457610116565b8063715018a6146102385780638da5cb5b14610240578063b359a9f914610248578063b4055d151461025057610116565b80633410fe6e116100e95780633410fe6e146101d157806345c9c1d1146101d9578063463fd761146101e15780634ab48e5b146101e957806361433d881461020c57610116565b80630c56ae3b1461011b578063117a5b901461013f5780631407905e14610198578063151fac7b146101b2575b600080fd5b6101236102da565b604080516001600160a01b039092168252519081900360200190f35b61015c6004803603602081101561015557600080fd5b50356102e9565b60408051968752602087019590955285850193909352606085019190915260808401526001600160a01b031660a0830152519081900360c00190f35b6101a0610327565b60408051918252519081900360200190f35b6101cf600480360360208110156101c857600080fd5b503561032d565b005b6101a0610424565b6101a061042a565b6101a0610522565b6101cf600480360360408110156101ff57600080fd5b5080359060200135610528565b6101cf6004803603604081101561022257600080fd5b50803590602001356001600160a01b0316610903565b6101cf610b2b565b610123610bcd565b610123610bdc565b6101a0610beb565b610123610bf1565b610123610c00565b6101cf600480360360c081101561027e57600080fd5b5080359060208101359060408101359060608101359060808101359060a001356001600160a01b0316610c0f565b610123610ceb565b6101cf600480360360208110156102ca57600080fd5b50356001600160a01b0316610cfa565b6007546001600160a01b031681565b600d6020526000908152604090208054600182015460028301546003840154600485015460059095015493949293919290916001600160a01b031686565b60035481565b610335610d5e565b6000546001600160a01b03908116911614610385576040805162461bcd60e51b815260206004820181905260248201526000805160206113c5833981519152604482015290519081900360640190fd5b600654604080516323b872dd60e01b81523360048201523060248201526044810184905290516001600160a01b03909216916323b872dd916064808201926020929091908290030181600087803b1580156103df57600080fd5b505af11580156103f3573d6000803e3d6000fd5b505050506040513d602081101561040957600080fd5b505060015461041e908263ffffffff610d6216565b60015550565b61271081565b6007546000906001600160a01b0316331461048c576040805162461bcd60e51b815260206004820152601b60248201527f43616c6c6572206d757374206265207374616b696e6720706f6f6c0000000000604482015290519081900360640190fd5b6006546007546003546040805163a9059cbb60e01b81526001600160a01b039384166004820152602481019290925251919092169163a9059cbb9160448083019260209291908290030181600087803b1580156104e857600080fd5b505af11580156104fc573d6000803e3d6000fd5b505050506040513d602081101561051257600080fd5b5050600380546000909155905090565b60025481565b6008546001600160a01b031633146105715760405162461bcd60e51b81526004018080602001828103825260238152602001806113e56023913960400191505060405180910390fd5b60045460ff1615156001141561085957600554821061074c5760006105a160055484610dc590919063ffffffff16565b600654600754600554604080516323b872dd60e01b81523360048201526001600160a01b0393841660248201526044810192909252519394509116916323b872dd916064808201926020929091908290030181600087803b15801561060557600080fd5b505af1158015610619573d6000803e3d6000fd5b505050506040513d602081101561062f57600080fd5b5050600754600554604080516338e7eaa960e21b81526004810192909252516001600160a01b039092169163e39faaa49160248082019260009290919082900301818387803b15801561068157600080fd5b505af1158015610695573d6000803e3d6000fd5b5050600060058190556004805460ff19168155600654604080516323b872dd60e01b8152339381019390935230602484015260448301879052516001600160a01b0390911694506323b872dd935060648083019360209383900390910190829087803b15801561070457600080fd5b505af1158015610718573d6000803e3d6000fd5b505050506040513d602081101561072e57600080fd5b5050600154610743908263ffffffff610d6216565b60015550610854565b600654600754604080516323b872dd60e01b81523360048201526001600160a01b03928316602482015260448101869052905191909216916323b872dd9160648083019260209291908290030181600087803b1580156107ab57600080fd5b505af11580156107bf573d6000803e3d6000fd5b505050506040513d60208110156107d557600080fd5b5050600754604080516338e7eaa960e21b81526004810185905290516001600160a01b039092169163e39faaa49160248082019260009290919082900301818387803b15801561082457600080fd5b505af1158015610838573d6000803e3d6000fd5b5050600554610850925090508363ffffffff610dc516565b6005555b6108f6565b600654604080516323b872dd60e01b81523360048201523060248201526044810185905290516001600160a01b03909216916323b872dd916064808201926020929091908290030181600087803b1580156108b357600080fd5b505af11580156108c7573d6000803e3d6000fd5b505050506040513d60208110156108dd57600080fd5b50506001546108f2908363ffffffff610d6216565b6001555b6108ff81610e07565b5050565b6008546001600160a01b0316331461094c5760405162461bcd60e51b81526004018080602001828103825260238152602001806113e56023913960400191505060405180910390fd5b600154821115610a8f57600061096d60015484610dc590919063ffffffff16565b6004805460ff19166001178155600754604080516349fb5e4760e01b81529283018490526001600160a01b038681166024850152905193945016916349fb5e479160448082019260009290919082900301818387803b1580156109cf57600080fd5b505af11580156109e3573d6000803e3d6000fd5b50506005546109fb925090508263ffffffff610d6216565b6005556006546001546040805163a9059cbb60e01b81526001600160a01b03868116600483015260248201939093529051919092169163a9059cbb9160448083019260209291908290030181600087803b158015610a5857600080fd5b505af1158015610a6c573d6000803e3d6000fd5b505050506040513d6020811015610a8257600080fd5b50506000600155506108ff565b600154610aa2908363ffffffff610dc516565b6001556006546040805163a9059cbb60e01b81526001600160a01b038481166004830152602482018690529151919092169163a9059cbb9160448083019260209291908290030181600087803b158015610afb57600080fd5b505af1158015610b0f573d6000803e3d6000fd5b505050506040513d6020811015610b2557600080fd5b50505050565b610b33610d5e565b6000546001600160a01b03908116911614610b83576040805162461bcd60e51b815260206004820181905260248201526000805160206113c5833981519152604482015290519081900360640190fd5b600080546040516001600160a01b03909116907f8be0079c531659141344cd1fd0a4f28419497f9722a3daafe3b4186f6b6457e0908390a3600080546001600160a01b0319169055565b6000546001600160a01b031690565b6006546001600160a01b031681565b60015481565b600a546001600160a01b031681565b6009546001600160a01b031681565b610c17610d5e565b6000546001600160a01b03908116911614610c67576040805162461bcd60e51b815260206004820181905260248201526000805160206113c5833981519152604482015290519081900360640190fd5b600b80546000908152600d602052604080822089905582548252808220600190810189905583548352818320600201889055835483528183206003018790558354835281832060040186905583548352912060050180546001600160a01b0319166001600160a01b0385161790559054610ce091610d62565b600b55505050505050565b6008546001600160a01b031681565b610d02610d5e565b6000546001600160a01b03908116911614610d52576040805162461bcd60e51b815260206004820181905260248201526000805160206113c5833981519152604482015290519081900360640190fd5b610d5b8161114b565b50565b3390565b600082820183811015610dbc576040805162461bcd60e51b815260206004820152601b60248201527f536166654d6174683a206164646974696f6e206f766572666c6f770000000000604482015290519081900360640190fd5b90505b92915050565b6000610dbc83836040518060400160405280601e81526020017f536166654d6174683a207375627472616374696f6e206f766572666c6f7700008152506111eb565b6002546001541115610d5b576000610e2c600254600154610dc590919063ffffffff16565b600154909150610e42908263ffffffff610dc516565b6001556000828152600d6020526040812054610e799061271090610e6d90859063ffffffff61128216565b9063ffffffff6112db16565b90506000610e98612710610e6d600c548661128290919063ffffffff16565b6000858152600d602052604081206004015491925090610ec79061271090610e6d90879063ffffffff61128216565b6000868152600d602052604081206003015491925090610ef69061271090610e6d90889063ffffffff61128216565b6000878152600d602052604081206002015491925090610f259061271090610e6d90899063ffffffff61128216565b600354909150610f3b908263ffffffff610d6216565b60035560065460408051630852cd8d60e31b81526004810187905290516001600160a01b03909216916342966c689160248082019260009290919082900301818387803b158015610f8b57600080fd5b505af1158015610f9f573d6000803e3d6000fd5b50506006546009546040805163a9059cbb60e01b81526001600160a01b03928316600482015260248101899052905191909216935063a9059cbb925060448083019260209291908290030181600087803b158015610ffc57600080fd5b505af1158015611010573d6000803e3d6000fd5b505050506040513d602081101561102657600080fd5b5050600654600a546040805163a9059cbb60e01b81526001600160a01b039283166004820152602481018690529051919092169163a9059cbb9160448083019260209291908290030181600087803b15801561108157600080fd5b505af1158015611095573d6000803e3d6000fd5b505050506040513d60208110156110ab57600080fd5b50506006546000888152600d6020908152604080832060050154815163a9059cbb60e01b81526001600160a01b039182166004820152602481018b9052915194169363a9059cbb93604480840194938390030190829087803b15801561111057600080fd5b505af1158015611124573d6000803e3d6000fd5b505050506040513d602081101561113a57600080fd5b505060015460025550505050505050565b6001600160a01b0381166111905760405162461bcd60e51b815260040180806020018281038252602681526020018061137e6026913960400191505060405180910390fd5b600080546040516001600160a01b03808516939216917f8be0079c531659141344cd1fd0a4f28419497f9722a3daafe3b4186f6b6457e091a3600080546001600160a01b0319166001600160a01b0392909216919091179055565b6000818484111561127a5760405162461bcd60e51b81526004018080602001828103825283818151815260200191508051906020019080838360005b8381101561123f578181015183820152602001611227565b50505050905090810190601f16801561126c5780820380516001836020036101000a031916815260200191505b509250505060405180910390fd5b505050900390565b60008261129157506000610dbf565b8282028284828161129e57fe5b0414610dbc5760405162461bcd60e51b81526004018080602001828103825260218152602001806113a46021913960400191505060405180910390fd5b6000610dbc83836040518060400160405280601a81526020017f536166654d6174683a206469766973696f6e206279207a65726f000000000000815250600081836113675760405162461bcd60e51b815260206004820181815283516024840152835190928392604490910191908501908083836000831561123f578181015183820152602001611227565b50600083858161137357fe5b049594505050505056fe4f776e61626c653a206e6577206f776e657220697320746865207a65726f2061646472657373536166654d6174683a206d756c7469706c69636174696f6e206f766572666c6f774f776e61626c653a2063616c6c6572206973206e6f7420746865206f776e657243616c6c6572206d757374206265206269746372757368206c6976652077616c6c6574a2646970667358221220cb948eff044a5e3e1b1a50ef00f5f8357e631ff404d4fbeb5df2d1d18f623e6964736f6c63430006020033",
    "sourcePath": "/Users/umerali/Desktop/FRAG/bitcrush/crush_contracts/contracts/HouseBankroll.sol",
    "compiler": {
        "name": "solc",
        "version": "0.6.2+commit.bacdbe57"
    },
    "functionHashes": {
        "DIVISOR()": "3410fe6e",
        "addGame(uint256,bytes32,uint256,uint256,uint256,address)": "e0b19999",
        "addToBankroll(uint256)": "151fac7b",
        "addUserLoss(uint256,uint256)": "4ab48e5b",
        "allTimeHigh()": "463fd761",
        "availableProfit()": "1407905e",
        "crush()": "b359a9f9",
        "games(uint256)": "117a5b90",
        "liveWallet()": "e3aeeb46",
        "lottery()": "ba13a572",
        "owner()": "8da5cb5b",
        "payOutUserWinning(uint256,address)": "61433d88",
        "renounceOwnership()": "715018a6",
        "reserve()": "cd3293de",
        "stakingPool()": "0c56ae3b",
        "totalBankroll()": "b4055d15",
        "transferOwnership(address)": "f2fde38b",
        "transferProfit()": "45c9c1d1"
    },
    "gasEstimates": {
        "creation": {
            "codeDepositCost": "1036200",
            "executionCost": "infinite",
            "totalCost": "infinite"
        },
        "external": {
            "DIVISOR()": "221",
            "addGame(uint256,bytes32,uint256,uint256,uint256,address)": "infinite",
            "addToBankroll(uint256)": "infinite",
            "addUserLoss(uint256,uint256)": "infinite",
            "allTimeHigh()": "1065",
            "availableProfit()": "1066",
            "crush()": "1104",
            "games(uint256)": "5365",
            "liveWallet()": "1125",
            "lottery()": "1059",
            "owner()": "1082",
            "payOutUserWinning(uint256,address)": "infinite",
            "renounceOwnership()": "infinite",
            "reserve()": "1081",
            "stakingPool()": "1061",
            "totalBankroll()": "1087",
            "transferOwnership(address)": "infinite",
            "transferProfit()": "infinite"
        },
        "internal": {
            "checkForRewardPayOut(uint256)": "infinite"
        }
    }
}