{
    "contractName": "BitcrushStaking",
    "abi": [
        {
            "inputs": [
                {
                    "internalType": "contract CRUSHToken",
                    "name": "_crush",
                    "type": "address"
                },
                {
                    "internalType": "uint256",
                    "name": "_crushPerBlock",
                    "type": "uint256"
                },
                {
                    "internalType": "address",
                    "name": "_reserveAddress",
                    "type": "address"
                },
                {
                    "internalType": "contract BitcrushBankroll",
                    "name": "_bankroll",
                    "type": "address"
                }
            ],
            "stateMutability": "nonpayable",
            "type": "constructor"
        },
        {
            "anonymous": false,
            "inputs": [
                {
                    "indexed": true,
                    "internalType": "uint256",
                    "name": "_totalRewarded",
                    "type": "uint256"
                }
            ],
            "name": "CompoundAll",
            "type": "event"
        },
        {
            "anonymous": false,
            "inputs": [
                {
                    "indexed": true,
                    "internalType": "address",
                    "name": "previousOwner",
                    "type": "address"
                },
                {
                    "indexed": true,
                    "internalType": "address",
                    "name": "newOwner",
                    "type": "address"
                }
            ],
            "name": "OwnershipTransferred",
            "type": "event"
        },
        {
            "anonymous": false,
            "inputs": [
                {
                    "indexed": true,
                    "internalType": "uint256",
                    "name": "_totalPool",
                    "type": "uint256"
                }
            ],
            "name": "RewardPoolUpdated",
            "type": "event"
        },
        {
            "anonymous": false,
            "inputs": [
                {
                    "indexed": true,
                    "internalType": "address",
                    "name": "recipeint",
                    "type": "address"
                },
                {
                    "indexed": true,
                    "internalType": "uint256",
                    "name": "_amount",
                    "type": "uint256"
                }
            ],
            "name": "StakeUpdated",
            "type": "event"
        },
        {
            "inputs": [
                {
                    "internalType": "uint256",
                    "name": "_amount",
                    "type": "uint256"
                }
            ],
            "name": "addRewardToPool",
            "outputs": [],
            "stateMutability": "nonpayable",
            "type": "function"
        },
        {
            "inputs": [
                {
                    "internalType": "uint256",
                    "name": "",
                    "type": "uint256"
                }
            ],
            "name": "addressIndexes",
            "outputs": [
                {
                    "internalType": "address",
                    "name": "",
                    "type": "address"
                }
            ],
            "stateMutability": "view",
            "type": "function"
        },
        {
            "inputs": [],
            "name": "bankroll",
            "outputs": [
                {
                    "internalType": "contract BitcrushBankroll",
                    "name": "",
                    "type": "address"
                }
            ],
            "stateMutability": "view",
            "type": "function"
        },
        {
            "inputs": [],
            "name": "blockPerSecond",
            "outputs": [
                {
                    "internalType": "uint256",
                    "name": "",
                    "type": "uint256"
                }
            ],
            "stateMutability": "view",
            "type": "function"
        },
        {
            "inputs": [],
            "name": "claim",
            "outputs": [],
            "stateMutability": "nonpayable",
            "type": "function"
        },
        {
            "inputs": [],
            "name": "compoundAll",
            "outputs": [],
            "stateMutability": "nonpayable",
            "type": "function"
        },
        {
            "inputs": [],
            "name": "crush",
            "outputs": [
                {
                    "internalType": "contract CRUSHToken",
                    "name": "",
                    "type": "address"
                }
            ],
            "stateMutability": "view",
            "type": "function"
        },
        {
            "inputs": [],
            "name": "crushPerBlock",
            "outputs": [
                {
                    "internalType": "uint256",
                    "name": "",
                    "type": "uint256"
                }
            ],
            "stateMutability": "view",
            "type": "function"
        },
        {
            "inputs": [],
            "name": "earlyWithdrawFee",
            "outputs": [
                {
                    "internalType": "uint256",
                    "name": "",
                    "type": "uint256"
                }
            ],
            "stateMutability": "view",
            "type": "function"
        },
        {
            "inputs": [],
            "name": "earlyWithdrawFeeTime",
            "outputs": [
                {
                    "internalType": "uint256",
                    "name": "",
                    "type": "uint256"
                }
            ],
            "stateMutability": "view",
            "type": "function"
        },
        {
            "inputs": [],
            "name": "emergencyTotalPoolWithdraw",
            "outputs": [],
            "stateMutability": "nonpayable",
            "type": "function"
        },
        {
            "inputs": [],
            "name": "emergencyWithdraw",
            "outputs": [],
            "stateMutability": "nonpayable",
            "type": "function"
        },
        {
            "inputs": [
                {
                    "internalType": "uint256",
                    "name": "_amount",
                    "type": "uint256"
                }
            ],
            "name": "enterStaking",
            "outputs": [],
            "stateMutability": "nonpayable",
            "type": "function"
        },
        {
            "inputs": [
                {
                    "internalType": "uint256",
                    "name": "_amount",
                    "type": "uint256"
                },
                {
                    "internalType": "address",
                    "name": "_recipient",
                    "type": "address"
                }
            ],
            "name": "freezeStaking",
            "outputs": [],
            "stateMutability": "nonpayable",
            "type": "function"
        },
        {
            "inputs": [],
            "name": "lastAutoCompoundBlock",
            "outputs": [
                {
                    "internalType": "uint256",
                    "name": "",
                    "type": "uint256"
                }
            ],
            "stateMutability": "view",
            "type": "function"
        },
        {
            "inputs": [
                {
                    "internalType": "uint256",
                    "name": "_amount",
                    "type": "uint256"
                }
            ],
            "name": "leaveStaking",
            "outputs": [],
            "stateMutability": "nonpayable",
            "type": "function"
        },
        {
            "inputs": [],
            "name": "leaveStakingCompletely",
            "outputs": [],
            "stateMutability": "nonpayable",
            "type": "function"
        },
        {
            "inputs": [],
            "name": "owner",
            "outputs": [
                {
                    "internalType": "address",
                    "name": "",
                    "type": "address"
                }
            ],
            "stateMutability": "view",
            "type": "function"
        },
        {
            "inputs": [
                {
                    "internalType": "address",
                    "name": "_address",
                    "type": "address"
                }
            ],
            "name": "pendingReward",
            "outputs": [
                {
                    "internalType": "uint256",
                    "name": "",
                    "type": "uint256"
                }
            ],
            "stateMutability": "view",
            "type": "function"
        },
        {
            "inputs": [],
            "name": "performanceFeeBurn",
            "outputs": [
                {
                    "internalType": "uint256",
                    "name": "",
                    "type": "uint256"
                }
            ],
            "stateMutability": "view",
            "type": "function"
        },
        {
            "inputs": [],
            "name": "performanceFeeCompounder",
            "outputs": [
                {
                    "internalType": "uint256",
                    "name": "",
                    "type": "uint256"
                }
            ],
            "stateMutability": "view",
            "type": "function"
        },
        {
            "inputs": [],
            "name": "performanceFeeReserve",
            "outputs": [
                {
                    "internalType": "uint256",
                    "name": "",
                    "type": "uint256"
                }
            ],
            "stateMutability": "view",
            "type": "function"
        },
        {
            "inputs": [],
            "name": "renounceOwnership",
            "outputs": [],
            "stateMutability": "nonpayable",
            "type": "function"
        },
        {
            "inputs": [],
            "name": "reserveAddress",
            "outputs": [
                {
                    "internalType": "address",
                    "name": "",
                    "type": "address"
                }
            ],
            "stateMutability": "view",
            "type": "function"
        },
        {
            "inputs": [
                {
                    "internalType": "uint256",
                    "name": "_amount",
                    "type": "uint256"
                }
            ],
            "name": "setCrushPerBlock",
            "outputs": [],
            "stateMutability": "nonpayable",
            "type": "function"
        },
        {
            "inputs": [
                {
                    "internalType": "uint256",
                    "name": "_fee",
                    "type": "uint256"
                }
            ],
            "name": "setEarlyWithdrawFee",
            "outputs": [],
            "stateMutability": "nonpayable",
            "type": "function"
        },
        {
            "inputs": [
                {
                    "internalType": "uint256",
                    "name": "_time",
                    "type": "uint256"
                }
            ],
            "name": "setEarlyWithdrawFeeTime",
            "outputs": [],
            "stateMutability": "nonpayable",
            "type": "function"
        },
        {
            "inputs": [
                {
                    "internalType": "uint256",
                    "name": "_fee",
                    "type": "uint256"
                }
            ],
            "name": "setPerformanceFeeBurn",
            "outputs": [],
            "stateMutability": "nonpayable",
            "type": "function"
        },
        {
            "inputs": [
                {
                    "internalType": "uint256",
                    "name": "_fee",
                    "type": "uint256"
                }
            ],
            "name": "setPerformanceFeeCompounder",
            "outputs": [],
            "stateMutability": "nonpayable",
            "type": "function"
        },
        {
            "inputs": [
                {
                    "internalType": "uint256",
                    "name": "_fee",
                    "type": "uint256"
                }
            ],
            "name": "setPerformanceFeeReserve",
            "outputs": [],
            "stateMutability": "nonpayable",
            "type": "function"
        },
        {
            "inputs": [],
            "name": "singleCompound",
            "outputs": [],
            "stateMutability": "nonpayable",
            "type": "function"
        },
        {
            "inputs": [
                {
                    "internalType": "address",
                    "name": "",
                    "type": "address"
                }
            ],
            "name": "stakings",
            "outputs": [
                {
                    "internalType": "uint256",
                    "name": "stakedAmount",
                    "type": "uint256"
                },
                {
                    "internalType": "uint256",
                    "name": "claimedAmount",
                    "type": "uint256"
                },
                {
                    "internalType": "uint256",
                    "name": "lastBlockCompounded",
                    "type": "uint256"
                },
                {
                    "internalType": "uint256",
                    "name": "lastBlockStaked",
                    "type": "uint256"
                },
                {
                    "internalType": "uint256",
                    "name": "index",
                    "type": "uint256"
                }
            ],
            "stateMutability": "view",
            "type": "function"
        },
        {
            "inputs": [],
            "name": "totalClaimed",
            "outputs": [
                {
                    "internalType": "uint256",
                    "name": "",
                    "type": "uint256"
                }
            ],
            "stateMutability": "view",
            "type": "function"
        },
        {
            "inputs": [],
            "name": "totalFrozen",
            "outputs": [
                {
                    "internalType": "uint256",
                    "name": "",
                    "type": "uint256"
                }
            ],
            "stateMutability": "view",
            "type": "function"
        },
        {
            "inputs": [],
            "name": "totalPendingRewards",
            "outputs": [
                {
                    "internalType": "uint256",
                    "name": "",
                    "type": "uint256"
                }
            ],
            "stateMutability": "view",
            "type": "function"
        },
        {
            "inputs": [],
            "name": "totalPool",
            "outputs": [
                {
                    "internalType": "uint256",
                    "name": "",
                    "type": "uint256"
                }
            ],
            "stateMutability": "view",
            "type": "function"
        },
        {
            "inputs": [],
            "name": "totalStaked",
            "outputs": [
                {
                    "internalType": "uint256",
                    "name": "",
                    "type": "uint256"
                }
            ],
            "stateMutability": "view",
            "type": "function"
        },
        {
            "inputs": [
                {
                    "internalType": "address",
                    "name": "newOwner",
                    "type": "address"
                }
            ],
            "name": "transferOwnership",
            "outputs": [],
            "stateMutability": "nonpayable",
            "type": "function"
        },
        {
            "inputs": [
                {
                    "internalType": "uint256",
                    "name": "_amount",
                    "type": "uint256"
                }
            ],
            "name": "unfreezeStaking",
            "outputs": [],
            "stateMutability": "nonpayable",
            "type": "function"
        }
    ],
    "bytecode": "6080604052600a6001556064600255603260035560be60045560036005556005546203f480816200002c57fe5b046006556005600d5560006011553480156200004757600080fd5b5060405162002b6738038062002b67833981810160405260808110156200006d57600080fd5b50805160208201516040830151606090930151919290916000620000996001600160e01b036200013116565b600080546001600160a01b0319166001600160a01b0383169081178255604051929350917f8be0079c531659141344cd1fd0a4f28419497f9722a3daafe3b4186f6b6457e0908290a350600780546001600160a01b039586166001600160a01b031991821617909155600d93909355600e8054928516928416929092179091556000600c556008805491909316911617905562000135565b3390565b612a2280620001456000396000f3fe608060405234801561001057600080fd5b506004361061023d5760003560e01c8063817b1cd21161013b578063d180fd88116100b8578063ec1371f21161007c578063ec1371f2146104d6578063ecfb49a3146104de578063f2fde38b146104e6578063f40f0f521461050c578063f79ed94b146105325761023d565b8063d180fd8814610450578063d54ad2a114610458578063db2e21bc14610460578063dc6e13e114610468578063e39faaa4146104b95761023d565b8063b359a9f9116100ff578063b359a9f9146103fe578063bca5503d14610406578063c22982f41461040e578063c53f871f1461042b578063c61f1c0b146104485761023d565b8063817b1cd2146103c15780638da5cb5b146103c95780639b05ddb3146103d1578063a775573a146103d9578063a80a7882146103f65761023d565b80634b37f006116101c95780636535fc661161018d5780636535fc661461036f5780636903d0b61461038c5780636e74d2e2146103945780636f90e0461461039c578063715018a6146103b95761023d565b80634b37f006146103325780634bf211b81461033a5780634e71d92d146103425780635692f1381461034a5780635832d571146103525761023d565b80631e7f87bc116102105780631e7f87bc146102a757806326cba336146102af5780633a53ed49146102cc57806341441d3b146102e957806349fb5e47146103065761023d565b80630a3960bc146102425780630c657eb01461025c5780631058d2811461028057806315eb082e1461029f575b600080fd5b61024a61053a565b60408051918252519081900360200190f35b610264610540565b604080516001600160a01b039092168252519081900360200190f35b61029d6004803603602081101561029657600080fd5b503561054f565b005b61029d610963565b61024a610cc7565b61029d600480360360208110156102c557600080fd5b5035610ccd565b61029d600480360360208110156102e257600080fd5b5035610dce565b61029d600480360360208110156102ff57600080fd5b5035610f3a565b61029d6004803603604081101561031c57600080fd5b50803590602001356001600160a01b031661128e565b61024a61137d565b61024a611383565b61029d611389565b61029d611493565b6102646004803603602081101561036857600080fd5b50356115bd565b61029d6004803603602081101561038557600080fd5b50356115e4565b61024a6116e6565b61024a6116ec565b61029d600480360360208110156103b257600080fd5b50356116f2565b61029d6117a4565b61024a611846565b61026461184c565b61029d61185c565b61029d600480360360208110156103ef57600080fd5b5035611d29565b61024a611dc6565b610264611dcc565b61024a611ddb565b61029d6004803603602081101561042457600080fd5b5035611de1565b61029d6004803603602081101561044157600080fd5b5035611ee2565b61024a611fe3565b61029d611fe9565b61024a61210c565b61029d612112565b61048e6004803603602081101561047e57600080fd5b50356001600160a01b0316612302565b6040805195865260208601949094528484019290925260608401526080830152519081900360a00190f35b61029d600480360360208110156104cf57600080fd5b5035612331565b61024a61238b565b61024a6123f3565b61029d600480360360208110156104fc57600080fd5b50356001600160a01b03166123f9565b61024a6004803603602081101561052257600080fd5b50356001600160a01b031661245d565b610264612470565b60045481565b6008546001600160a01b031681565b600061055a3361247f565b33600090815260096020526040902043600290910155600b54909150610586908263ffffffff61255c16565b600b55600f543360009081526009602052604081205460115491926105c39290916105b7919063ffffffff6125a716565b9063ffffffff61260016565b9050828110156106045760405162461bcd60e51b815260040180806020018281038252603f815260200180612879603f913960400191505060405180910390fd5b600f54610617908463ffffffff61255c16565b600f553360009081526009602052604090205461063a908463ffffffff61255c16565b3360009081526009602052604090209081556006546003909101546106649163ffffffff61264216565b4310156107235760006106886127106105b7600354876125a790919063ffffffff16565b905061069a848263ffffffff61255c16565b600754600e546040805163a9059cbb60e01b81526001600160a01b03928316600482015260248101869052905193975091169163a9059cbb916044808201926020929091908290030181600087803b1580156106f557600080fd5b505af1158015610709573d6000803e3d6000fd5b505050506040513d602081101561071f57600080fd5b5050505b610733838363ffffffff61264216565b6007546040805163a9059cbb60e01b81523360048201526024810184905290519295506001600160a01b039091169163a9059cbb916044808201926020929091908290030181600087803b15801561078a57600080fd5b505af115801561079e573d6000803e3d6000fd5b505050506040513d60208110156107b457600080fd5b50503360009081526009602052604090205461094457336000908152600960205260409020600a546004820154600019909101146108ea57600a805460009190600019810190811061080257fe5b9060005260206000200160009054906101000a90046001600160a01b0316905080600a83600401548154811061083457fe5b600091825260208083209190910180546001600160a01b0319166001600160a01b039485161790556004858101548585168452600983526040808520830191909155600754815163095ea7b360e01b8152309381019390935260248301859052905194169363095ea7b393604480840194938390030190829087803b1580156108bc57600080fd5b505af11580156108d0573d6000803e3d6000fd5b505050506040513d60208110156108e657600080fd5b5050505b600a8054806108f557fe5b60008281526020808220830160001990810180546001600160a01b0319169055909201909255338252600990526040812081815560018101829055600281018290556003810182905560040155505b600b5460405160008051602061296a83398151915290600090a2505050565b600061096e3361247f565b33600090815260096020526040902043600282015554600b549192509061099b908363ffffffff61255c16565b600b556109ae818363ffffffff61264216565b33600090815260096020526040902054600f549192506109d4919063ffffffff61255c16565b600f556006543360009081526009602052604090206003015401431015610aad576000610a126127106105b7600354856125a790919063ffffffff16565b9050610a24828263ffffffff61255c16565b600754600e546040805163a9059cbb60e01b81526001600160a01b03928316600482015260248101869052905193955091169163a9059cbb916044808201926020929091908290030181600087803b158015610a7f57600080fd5b505af1158015610a93573d6000803e3d6000fd5b505050506040513d6020811015610aa957600080fd5b5050505b6007546040805163a9059cbb60e01b81523360048201526024810184905290516001600160a01b039092169163a9059cbb916044808201926020929091908290030181600087803b158015610b0157600080fd5b505af1158015610b15573d6000803e3d6000fd5b505050506040513d6020811015610b2b57600080fd5b5050336000908152600960205260408120908155600a54600482015460001990910114610c5057600a8054600091906000198101908110610b6857fe5b9060005260206000200160009054906101000a90046001600160a01b0316905080600a836004015481548110610b9a57fe5b600091825260208083209190910180546001600160a01b0319166001600160a01b039485161790556004858101548585168452600983526040808520830191909155600754815163095ea7b360e01b8152309381019390935260248301859052905194169363095ea7b393604480840194938390030190829087803b158015610c2257600080fd5b505af1158015610c36573d6000803e3d6000fd5b505050506040513d6020811015610c4c57600080fd5b5050505b600a805480610c5b57fe5b60008281526020808220830160001990810180546001600160a01b031916905590920190925533825260099052604081208181556001810182905560028101829055600381018290556004015550600b5460405160008051602061296a83398151915290600090a25050565b60115481565b610cd561269c565b6000546001600160a01b03908116911614610d25576040805162461bcd60e51b81526020600482018190526024820152600080516020612926833981519152604482015290519081900360640190fd5b60008111610d77576040805162461bcd60e51b815260206004820152601a6024820152790466565206d7573742062652067726561746572207468616e20360341b604482015290519081900360640190fd5b6103e88110610dc9576040805162461bcd60e51b8152602060048201526019602482015278466565206d757374206265206c657373207468616e2031302560381b604482015290519081900360640190fd5b600155565b600754604080516370a0823160e01b8152336004820152905183926001600160a01b0316916370a08231916024808301926020929190829003018186803b158015610e1857600080fd5b505afa158015610e2c573d6000803e3d6000fd5b505050506040513d6020811015610e4257600080fd5b50511015610e815760405162461bcd60e51b815260040180806020018281038252602681526020018061298a6026913960400191505060405180910390fd5b600b54610e94908263ffffffff61264216565b600b55600754604080516323b872dd60e01b81523360048201523060248201526044810184905290516001600160a01b03909216916323b872dd916064808201926020929091908290030181600087803b158015610ef157600080fd5b505af1158015610f05573d6000803e3d6000fd5b505050506040513d6020811015610f1b57600080fd5b5050600b5460405160008051602061296a83398151915290600090a250565b600754604080516370a0823160e01b8152336004820152905183926001600160a01b0316916370a08231916024808301926020929190829003018186803b158015610f8457600080fd5b505afa158015610f98573d6000803e3d6000fd5b505050506040513d6020811015610fae57600080fd5b50511015610fed5760405162461bcd60e51b815260040180806020018281038252602681526020018061298a6026913960400191505060405180910390fd5b6000811161103b576040805162461bcd60e51b8152602060048201526016602482015275125b9d985b1a59081cdd185ada5b99c8185b5bdd5b9d60521b604482015290519081900360640190fd5b6000600b541161108a576040805162461bcd60e51b815260206004820152601560248201527414995dd85c9908141bdbdb08115e1a185d5cdd1959605a1b604482015290519081900360640190fd5b600754604080516323b872dd60e01b81523360048201523060248201526044810184905290516001600160a01b03909216916323b872dd916064808201926020929091908290030181600087803b1580156110e457600080fd5b505af11580156110f8573d6000803e3d6000fd5b505050506040513d602081101561110e57600080fd5b5050600f5461111c5743600c555b3360009081526009602052604090205461119057336000818152600960205260409020436002820155600a80546001810182557fc65a7bb8d6351c1cf70c95a316cc6a92839c986682d98bc35f958f4883f9d2a80180546001600160a01b0319169093179092559054600019016004909101555b336000908152600960205260409020546111b0908263ffffffff61264216565b33600090815260096020526040902090815543600390910155600f546111dc908263ffffffff61264216565b600f556007546001600160a01b031663a9059cbb336111fa8161247f565b6040518363ffffffff1660e01b815260040180836001600160a01b03166001600160a01b0316815260200182815260200192505050602060405180830381600087803b15801561124957600080fd5b505af115801561125d573d6000803e3d6000fd5b505050506040513d602081101561127357600080fd5b50503360009081526009602052604090204360029091015550565b601154600f546112a39163ffffffff61255c16565b8211156112e15760405162461bcd60e51b815260040180806020018281038252603d8152602001806129b0603d913960400191505060405180910390fd5b6011546112f4908363ffffffff61264216565b6011556007546040805163a9059cbb60e01b81526001600160a01b038481166004830152602482018690529151919092169163a9059cbb9160448083019260209291908290030181600087803b15801561134d57600080fd5b505af1158015611361573d6000803e3d6000fd5b505050506040513d602081101561137757600080fd5b50505050565b60055481565b600c5481565b60006113943361247f565b336000908152600960205260409020600101549091506113ba908263ffffffff61264216565b33600081815260096020908152604080832060010194909455600754845163a9059cbb60e01b815260048101949094526024840186905293516001600160a01b039094169363a9059cbb93604480820194918390030190829087803b15801561142257600080fd5b505af1158015611436573d6000803e3d6000fd5b505050506040513d602081101561144c57600080fd5b505033600090815260096020526040902043600290910155601054611477908263ffffffff61264216565b601055600b5461148d908263ffffffff61255c16565b600b5550565b336000908152600960205260409020546114f4576040805162461bcd60e51b815260206004820152601e60248201527f506c65617365205374616b6520437275736820746f20636f6d706f756e640000604482015290519081900360640190fd5b60006114ff3361247f565b33600090815260096020526040902054909150611522908263ffffffff61264216565b33600090815260096020526040902055600f54611545908263ffffffff61264216565b600f5533600090815260096020526040902043600290910155600b54611571908263ffffffff61255c16565b600b81905560405160008051602061296a83398151915290600090a2604051819033907fab0e25dc39626189cfb41155020ba89e726b10244275733e9d7c63cf33ffccdb90600090a350565b600a81815481106115ca57fe5b6000918252602090912001546001600160a01b0316905081565b6115ec61269c565b6000546001600160a01b0390811691161461163c576040805162461bcd60e51b81526020600482018190526024820152600080516020612926833981519152604482015290519081900360640190fd5b6000811161168e576040805162461bcd60e51b815260206004820152601a6024820152790466565206d7573742062652067726561746572207468616e20360341b604482015290519081900360640190fd5b6103e88111156116e1576040805162461bcd60e51b8152602060048201526019602482015278466565206d757374206265206c657373207468616e2031302560381b604482015290519081900360640190fd5b600455565b60065481565b60025481565b6116fa61269c565b6000546001600160a01b0390811691161461174a576040805162461bcd60e51b81526020600482018190526024820152600080516020612926833981519152604482015290519081900360640190fd5b6000811161179f576040805162461bcd60e51b815260206004820152601b60248201527f54696d65206d7573742062652067726561746572207468616e20300000000000604482015290519081900360640190fd5b600655565b6117ac61269c565b6000546001600160a01b039081169116146117fc576040805162461bcd60e51b81526020600482018190526024820152600080516020612926833981519152604482015290519081900360640190fd5b600080546040516001600160a01b03909116907f8be0079c531659141344cd1fd0a4f28419497f9722a3daafe3b4186f6b6457e0908390a3600080546001600160a01b0319169055565b600f5481565b6000546001600160a01b03165b90565b43600c5411156118b3576040805162461bcd60e51b815260206004820181905260248201527f436f6d706f756e6420416c6c206e6f7420796574206170706c696361626c652e604482015290519081900360640190fd5b6000600f541161190a576040805162461bcd60e51b815260206004820152601a60248201527f4e6f205374616b6564207265776172647320746f20636c61696d000000000000604482015290519081900360640190fd5b600854604080516345c9c1d160e01b81529051600092839283928392839283926001600160a01b03909216916345c9c1d19160048082019260209290919082900301818787803b15801561195d57600080fd5b505af1158015611971573d6000803e3d6000fd5b505050506040513d602081101561198757600080fd5b5051905060005b600a54811015611b9c5760006119c4600a83815481106119aa57fe5b6000918252602090912001546001600160a01b031661247f565b90508015611b93576119dc868263ffffffff61264216565b95506119ee848263ffffffff61264216565b93506000611a0d6127106105b7600254856125a790919063ffffffff16565b9050611a1f898263ffffffff61264216565b98506000611a3e6127106105b7600154866125a790919063ffffffff16565b9050611a50878263ffffffff61264216565b96506000611a6f6127106105b7600454876125a790919063ffffffff16565b9050611a818a8263ffffffff61264216565b9950611a93848463ffffffff61255c16565b9350611aa5848363ffffffff61255c16565b9350611ab7848263ffffffff61255c16565b600f54909450611acd908563ffffffff61264216565b600f81905550611b198460096000600a8981548110611ae857fe5b60009182526020808320909101546001600160a01b031683528201929092526040019020549063ffffffff61264216565b60096000600a8881548110611b2a57fe5b60009182526020808320909101546001600160a01b03168352820192909252604001812091909155600a80544392600992909189908110611b6757fe5b60009182526020808320909101546001600160a01b031683528201929092526040019020600201555050505b5060010161198e565b50600b54611bb0908363ffffffff61255c16565b600b5543600c5560075460408051630852cd8d60e31b81526004810189905290516001600160a01b03909216916342966c689160248082019260009290919082900301818387803b158015611c0457600080fd5b505af1158015611c18573d6000803e3d6000fd5b50506007546040805163a9059cbb60e01b81523360048201526024810188905290516001600160a01b03909216935063a9059cbb92506044808201926020929091908290030181600087803b158015611c7057600080fd5b505af1158015611c84573d6000803e3d6000fd5b505050506040513d6020811015611c9a57600080fd5b5050600754600e546040805163a9059cbb60e01b81526001600160a01b039283166004820152602481018990529051919092169163a9059cbb9160448083019260209291908290030181600087803b158015611cf557600080fd5b505af1158015611d09573d6000803e3d6000fd5b505050506040513d6020811015611d1f57600080fd5b5050505050505050565b611d3161269c565b6000546001600160a01b03908116911614611d81576040805162461bcd60e51b81526020600482018190526024820152600080516020612926833981519152604482015290519081900360640190fd5b600a811115611dc15760405162461bcd60e51b81526004018080602001828103825260278152602001806128de6027913960400191505060405180910390fd5b600d55565b60035481565b6007546001600160a01b031681565b60015481565b611de961269c565b6000546001600160a01b03908116911614611e39576040805162461bcd60e51b81526020600482018190526024820152600080516020612926833981519152604482015290519081900360640190fd5b60008111611e8b576040805162461bcd60e51b815260206004820152601a6024820152790466565206d7573742062652067726561746572207468616e20360341b604482015290519081900360640190fd5b6103e88110611edd576040805162461bcd60e51b8152602060048201526019602482015278466565206d757374206265206c657373207468616e2031302560381b604482015290519081900360640190fd5b600355565b611eea61269c565b6000546001600160a01b03908116911614611f3a576040805162461bcd60e51b81526020600482018190526024820152600080516020612926833981519152604482015290519081900360640190fd5b60008111611f8c576040805162461bcd60e51b815260206004820152601a6024820152790466565206d7573742062652067726561746572207468616e20360341b604482015290519081900360640190fd5b6103e88110611fde576040805162461bcd60e51b8152602060048201526019602482015278466565206d757374206265206c657373207468616e2031302560381b604482015290519081900360640190fd5b600255565b600d5481565b611ff161269c565b6000546001600160a01b03908116911614612041576040805162461bcd60e51b81526020600482018190526024820152600080516020612926833981519152604482015290519081900360640190fd5b6000600b54116120825760405162461bcd60e51b81526004018080602001828103825260248152602001806129466024913960400191505060405180910390fd5b600754600b546040805163a9059cbb60e01b81523360048201526024810192909252516001600160a01b039092169163a9059cbb916044808201926020929091908290030181600087803b1580156120d957600080fd5b505af11580156120ed573d6000803e3d6000fd5b505050506040513d602081101561210357600080fd5b50506000600b55565b60105481565b60075433600081815260096020908152604080832054815163a9059cbb60e01b815260048101959095526024850152516001600160a01b039094169363a9059cbb93604480820194918390030190829087803b15801561217157600080fd5b505af1158015612185573d6000803e3d6000fd5b505050506040513d602081101561219b57600080fd5b5050336000908152600960205260408120908155436002820155600a5460048201546000199091011461224f57600a80546000919060001981019081106121de57fe5b9060005260206000200160009054906101000a90046001600160a01b0316905080600a83600401548154811061221057fe5b600091825260208083209190910180546001600160a01b0319166001600160a01b03948516179055600485810154949093168252600990526040902001555b600a80548061225a57fe5b60008281526020808220600019908401810180546001600160a01b03191690559092019092556007546040805163095ea7b360e01b81523060048201526024810185905290516001600160a01b039092169363095ea7b39360448084019491939192918390030190829087803b1580156122d357600080fd5b505af11580156122e7573d6000803e3d6000fd5b505050506040513d60208110156122fd57600080fd5b505050565b600960205260009081526040902080546001820154600283015460038401546004909401549293919290919085565b6011548110156123725760405162461bcd60e51b815260040180806020018281038252603c81526020018061283d603c913960400191505060405180910390fd5b601154612385908263ffffffff61255c16565b60115550565b6000600c54431161239e57506000611859565b600c546123ad57506000611859565b600b546123bc57506000611859565b60006123d3600c544361255c90919063ffffffff16565b905060006123ec600d54836125a790919063ffffffff16565b9250505090565b600b5481565b61240161269c565b6000546001600160a01b03908116911614612451576040805162461bcd60e51b81526020600482018190526024820152600080516020612926833981519152604482015290519081900360640190fd5b61245a816126a0565b50565b60006124688261247f565b90505b919050565b600e546001600160a01b031681565b6001600160a01b03811660009081526009602052604081206002015443116124a95750600061246b565b600b5415806124b85750600f54155b156124c55750600061246b565b6001600160a01b0382166000908152600960205260408120600201546124f290439063ffffffff61255c16565b9050600061250b600d54836125a790919063ffffffff16565b600f546001600160a01b0386166000908152600960205260408120549293509161254191906105b790859063ffffffff6125a716565b9050600b548111156125525750600b545b925061246b915050565b600061259e83836040518060400160405280601e81526020017f536166654d6174683a207375627472616374696f6e206f766572666c6f770000815250612740565b90505b92915050565b6000826125b6575060006125a1565b828202828482816125c357fe5b041461259e5760405162461bcd60e51b81526004018080602001828103825260218152602001806129056021913960400191505060405180910390fd5b600061259e83836040518060400160405280601a81526020017f536166654d6174683a206469766973696f6e206279207a65726f0000000000008152506127d7565b60008282018381101561259e576040805162461bcd60e51b815260206004820152601b60248201527f536166654d6174683a206164646974696f6e206f766572666c6f770000000000604482015290519081900360640190fd5b3390565b6001600160a01b0381166126e55760405162461bcd60e51b81526004018080602001828103825260268152602001806128b86026913960400191505060405180910390fd5b600080546040516001600160a01b03808516939216917f8be0079c531659141344cd1fd0a4f28419497f9722a3daafe3b4186f6b6457e091a3600080546001600160a01b0319166001600160a01b0392909216919091179055565b600081848411156127cf5760405162461bcd60e51b81526004018080602001828103825283818151815260200191508051906020019080838360005b8381101561279457818101518382015260200161277c565b50505050905090810190601f1680156127c15780820380516001836020036101000a031916815260200191505b509250505060405180910390fd5b505050900390565b600081836128265760405162461bcd60e51b815260206004820181815283516024840152835190928392604490910191908501908083836000831561279457818101518382015260200161277c565b50600083858161283257fe5b049594505050505056fe756e667265657a6520616d6f756e742063616e742062652067726561746572207468616e2063757272656e746c792066726f7a656e20616d6f756e74576974686472617720616d6f756e742063616e206e6f742062652067726561746572207468616e20617661696c61626c65207374616b656420616d6f756e744f776e61626c653a206e6577206f776e657220697320746865207a65726f206164647265737343727573682050657220426c6f636b2063616e206e6f74206265206d6f7265207468616e203130536166654d6174683a206d756c7469706c69636174696f6e206f766572666c6f774f776e61626c653a2063616c6c6572206973206e6f7420746865206f776e6572546f74616c20506f6f6c206e65656420746f2062652067726561746572207468616e20301ef37ab665f7c977b577275d7a49e72cd18d1143eccd1112f1198e4a39d1428c496e73756666696369656e7420437275736820746f6b656e7320666f72207472616e73666572467265657a6520616d6f756e742073686f756c64206265206c657373207468616e206f7220657175616c20746f20617661696c61626c652066756e6473a264697066735822122085bac6412e11b038b8cab8f5c1ff4f276f52f8e08cd4e4459faecb6f9ce01f2464736f6c63430006020033",
    "sourcePath": "/Users/umerali/Desktop/FRAG/bitcrush/crush_contracts/contracts/staking.sol",
    "compiler": {
        "name": "solc",
        "version": "0.6.2+commit.bacdbe57"
    },
    "functionHashes": {
        "addRewardToPool(uint256)": "3a53ed49",
        "addressIndexes(uint256)": "5832d571",
        "bankroll()": "0c657eb0",
        "blockPerSecond()": "4b37f006",
        "claim()": "4e71d92d",
        "compoundAll()": "9b05ddb3",
        "crush()": "b359a9f9",
        "crushPerBlock()": "c61f1c0b",
        "earlyWithdrawFee()": "a80a7882",
        "earlyWithdrawFeeTime()": "6903d0b6",
        "emergencyTotalPoolWithdraw()": "d180fd88",
        "emergencyWithdraw()": "db2e21bc",
        "enterStaking(uint256)": "41441d3b",
        "freezeStaking(uint256,address)": "49fb5e47",
        "lastAutoCompoundBlock()": "4bf211b8",
        "leaveStaking(uint256)": "1058d281",
        "leaveStakingCompletely()": "15eb082e",
        "owner()": "8da5cb5b",
        "pendingReward(address)": "f40f0f52",
        "performanceFeeBurn()": "6e74d2e2",
        "performanceFeeCompounder()": "bca5503d",
        "performanceFeeReserve()": "0a3960bc",
        "renounceOwnership()": "715018a6",
        "reserveAddress()": "f79ed94b",
        "setCrushPerBlock(uint256)": "a775573a",
        "setEarlyWithdrawFee(uint256)": "c22982f4",
        "setEarlyWithdrawFeeTime(uint256)": "6f90e046",
        "setPerformanceFeeBurn(uint256)": "c53f871f",
        "setPerformanceFeeCompounder(uint256)": "26cba336",
        "setPerformanceFeeReserve(uint256)": "6535fc66",
        "singleCompound()": "5692f138",
        "stakings(address)": "dc6e13e1",
        "totalClaimed()": "d54ad2a1",
        "totalFrozen()": "1e7f87bc",
        "totalPendingRewards()": "ec1371f2",
        "totalPool()": "ecfb49a3",
        "totalStaked()": "817b1cd2",
        "transferOwnership(address)": "f2fde38b",
        "unfreezeStaking(uint256)": "e39faaa4"
    },
    "gasEstimates": {
        "creation": {
            "codeDepositCost": "2157200",
            "executionCost": "infinite",
            "totalCost": "infinite"
        },
        "external": {
            "addRewardToPool(uint256)": "infinite",
            "addressIndexes(uint256)": "2104",
            "bankroll()": "1106",
            "blockPerSecond()": "1044",
            "claim()": "infinite",
            "compoundAll()": "infinite",
            "crush()": "1082",
            "crushPerBlock()": "1131",
            "earlyWithdrawFee()": "1132",
            "earlyWithdrawFeeTime()": "1065",
            "emergencyTotalPoolWithdraw()": "infinite",
            "emergencyWithdraw()": "infinite",
            "enterStaking(uint256)": "infinite",
            "freezeStaking(uint256,address)": "infinite",
            "lastAutoCompoundBlock()": "1066",
            "leaveStaking(uint256)": "infinite",
            "leaveStakingCompletely()": "infinite",
            "owner()": "1106",
            "pendingReward(address)": "infinite",
            "performanceFeeBurn()": "1087",
            "performanceFeeCompounder()": "1065",
            "performanceFeeReserve()": "1045",
            "renounceOwnership()": "infinite",
            "reserveAddress()": "1169",
            "setCrushPerBlock(uint256)": "infinite",
            "setEarlyWithdrawFee(uint256)": "infinite",
            "setEarlyWithdrawFeeTime(uint256)": "infinite",
            "setPerformanceFeeBurn(uint256)": "infinite",
            "setPerformanceFeeCompounder(uint256)": "infinite",
            "setPerformanceFeeReserve(uint256)": "infinite",
            "singleCompound()": "infinite",
            "stakings(address)": "4576",
            "totalClaimed()": "1065",
            "totalFrozen()": "1044",
            "totalPendingRewards()": "infinite",
            "totalPool()": "1064",
            "totalStaked()": "1044",
            "transferOwnership(address)": "infinite",
            "unfreezeStaking(uint256)": "infinite"
        },
        "internal": {
            "getReward(address)": "infinite"
        }
    }
}