{
    "contractName": "BitcrushTokenLiveWallet",
    "abi": [
        {
            "inputs": [
                {
                    "internalType": "contract BEP20",
                    "name": "_token",
                    "type": "address"
                },
                {
                    "internalType": "contract CRUSHToken",
                    "name": "_crush",
                    "type": "address"
                },
                {
                    "internalType": "contract BitcrushBankroll",
                    "name": "_bankroll",
                    "type": "address"
                },
                {
                    "internalType": "address",
                    "name": "_reserveAddress",
                    "type": "address"
                },
                {
                    "internalType": "contract IApeRouter02",
                    "name": "_swapRouter",
                    "type": "address"
                },
                {
                    "internalType": "contract BitcrushLiquidityBankroll",
                    "name": "_liquidityBankroll",
                    "type": "address"
                }
            ],
            "stateMutability": "nonpayable",
            "type": "constructor"
        },
        {
            "anonymous": false,
            "inputs": [
                {
                    "indexed": true,
                    "internalType": "address",
                    "name": "_address",
                    "type": "address"
                },
                {
                    "indexed": true,
                    "internalType": "uint256",
                    "name": "_amount",
                    "type": "uint256"
                }
            ],
            "name": "Deposit",
            "type": "event"
        },
        {
            "anonymous": false,
            "inputs": [
                {
                    "indexed": true,
                    "internalType": "address",
                    "name": "_address",
                    "type": "address"
                },
                {
                    "indexed": true,
                    "internalType": "uint256",
                    "name": "_amount",
                    "type": "uint256"
                }
            ],
            "name": "DepositWin",
            "type": "event"
        },
        {
            "anonymous": false,
            "inputs": [
                {
                    "indexed": true,
                    "internalType": "uint256",
                    "name": "_lockPeriod",
                    "type": "uint256"
                }
            ],
            "name": "LockPeriodUpdated",
            "type": "event"
        },
        {
            "anonymous": false,
            "inputs": [
                {
                    "indexed": true,
                    "internalType": "address",
                    "name": "previousOwner",
                    "type": "address"
                },
                {
                    "indexed": true,
                    "internalType": "address",
                    "name": "newOwner",
                    "type": "address"
                }
            ],
            "name": "OwnershipTransferred",
            "type": "event"
        },
        {
            "anonymous": false,
            "inputs": [
                {
                    "indexed": true,
                    "internalType": "address",
                    "name": "_address",
                    "type": "address"
                },
                {
                    "indexed": true,
                    "internalType": "uint256",
                    "name": "_amount",
                    "type": "uint256"
                }
            ],
            "name": "Withdraw",
            "type": "event"
        },
        {
            "inputs": [],
            "name": "DIVISOR",
            "outputs": [
                {
                    "internalType": "uint256",
                    "name": "",
                    "type": "uint256"
                }
            ],
            "stateMutability": "view",
            "type": "function"
        },
        {
            "inputs": [
                {
                    "internalType": "uint256",
                    "name": "_amount",
                    "type": "uint256"
                },
                {
                    "internalType": "address",
                    "name": "_user",
                    "type": "address"
                }
            ],
            "name": "addToUserWinnings",
            "outputs": [],
            "stateMutability": "nonpayable",
            "type": "function"
        },
        {
            "inputs": [
                {
                    "internalType": "uint256",
                    "name": "_amount",
                    "type": "uint256"
                },
                {
                    "internalType": "address",
                    "name": "_user",
                    "type": "address"
                }
            ],
            "name": "addToUserWinningsNative",
            "outputs": [],
            "stateMutability": "nonpayable",
            "type": "function"
        },
        {
            "inputs": [
                {
                    "internalType": "uint256",
                    "name": "_amount",
                    "type": "uint256"
                }
            ],
            "name": "addbet",
            "outputs": [],
            "stateMutability": "nonpayable",
            "type": "function"
        },
        {
            "inputs": [
                {
                    "internalType": "uint256",
                    "name": "_amount",
                    "type": "uint256"
                },
                {
                    "internalType": "address",
                    "name": "_user",
                    "type": "address"
                }
            ],
            "name": "addbetWithAddress",
            "outputs": [],
            "stateMutability": "nonpayable",
            "type": "function"
        },
        {
            "inputs": [
                {
                    "internalType": "address",
                    "name": "_user",
                    "type": "address"
                }
            ],
            "name": "balanceOf",
            "outputs": [
                {
                    "internalType": "uint256",
                    "name": "",
                    "type": "uint256"
                }
            ],
            "stateMutability": "view",
            "type": "function"
        },
        {
            "inputs": [],
            "name": "bankroll",
            "outputs": [
                {
                    "internalType": "contract BitcrushBankroll",
                    "name": "",
                    "type": "address"
                }
            ],
            "stateMutability": "view",
            "type": "function"
        },
        {
            "inputs": [],
            "name": "bankrollShare",
            "outputs": [
                {
                    "internalType": "uint256",
                    "name": "",
                    "type": "uint256"
                }
            ],
            "stateMutability": "view",
            "type": "function"
        },
        {
            "inputs": [
                {
                    "internalType": "address",
                    "name": "",
                    "type": "address"
                }
            ],
            "name": "betAmounts",
            "outputs": [
                {
                    "internalType": "uint256",
                    "name": "balance",
                    "type": "uint256"
                },
                {
                    "internalType": "uint256",
                    "name": "lockTimeStamp",
                    "type": "uint256"
                },
                {
                    "internalType": "uint256",
                    "name": "amountToBorrow",
                    "type": "uint256"
                }
            ],
            "stateMutability": "view",
            "type": "function"
        },
        {
            "inputs": [],
            "name": "blacklistSelf",
            "outputs": [],
            "stateMutability": "nonpayable",
            "type": "function"
        },
        {
            "inputs": [
                {
                    "internalType": "address",
                    "name": "_address",
                    "type": "address"
                }
            ],
            "name": "blacklistUser",
            "outputs": [],
            "stateMutability": "nonpayable",
            "type": "function"
        },
        {
            "inputs": [
                {
                    "internalType": "address",
                    "name": "",
                    "type": "address"
                }
            ],
            "name": "blacklistedUsers",
            "outputs": [
                {
                    "internalType": "bool",
                    "name": "",
                    "type": "bool"
                }
            ],
            "stateMutability": "view",
            "type": "function"
        },
        {
            "inputs": [],
            "name": "borrowedCrush",
            "outputs": [
                {
                    "internalType": "uint256",
                    "name": "",
                    "type": "uint256"
                }
            ],
            "stateMutability": "view",
            "type": "function"
        },
        {
            "inputs": [],
            "name": "crush",
            "outputs": [
                {
                    "internalType": "contract CRUSHToken",
                    "name": "",
                    "type": "address"
                }
            ],
            "stateMutability": "view",
            "type": "function"
        },
        {
            "inputs": [],
            "name": "earlyWithdrawFee",
            "outputs": [
                {
                    "internalType": "uint256",
                    "name": "",
                    "type": "uint256"
                }
            ],
            "stateMutability": "view",
            "type": "function"
        },
        {
            "inputs": [],
            "name": "liquidityBankroll",
            "outputs": [
                {
                    "internalType": "contract BitcrushLiquidityBankroll",
                    "name": "",
                    "type": "address"
                }
            ],
            "stateMutability": "view",
            "type": "function"
        },
        {
            "inputs": [],
            "name": "lockPeriod",
            "outputs": [
                {
                    "internalType": "uint256",
                    "name": "",
                    "type": "uint256"
                }
            ],
            "stateMutability": "view",
            "type": "function"
        },
        {
            "inputs": [],
            "name": "owner",
            "outputs": [
                {
                    "internalType": "address",
                    "name": "",
                    "type": "address"
                }
            ],
            "stateMutability": "view",
            "type": "function"
        },
        {
            "inputs": [],
            "name": "partnerShare",
            "outputs": [
                {
                    "internalType": "uint256",
                    "name": "",
                    "type": "uint256"
                }
            ],
            "stateMutability": "view",
            "type": "function"
        },
        {
            "inputs": [],
            "name": "pendingBakrollThreshold",
            "outputs": [
                {
                    "internalType": "uint256",
                    "name": "",
                    "type": "uint256"
                }
            ],
            "stateMutability": "view",
            "type": "function"
        },
        {
            "inputs": [],
            "name": "pendingBankroll",
            "outputs": [
                {
                    "internalType": "uint256",
                    "name": "",
                    "type": "uint256"
                }
            ],
            "stateMutability": "view",
            "type": "function"
        },
        {
            "inputs": [
                {
                    "internalType": "uint256[]",
                    "name": "_bets",
                    "type": "uint256[]"
                },
                {
                    "internalType": "address[]",
                    "name": "_users",
                    "type": "address[]"
                }
            ],
            "name": "registerLoss",
            "outputs": [],
            "stateMutability": "nonpayable",
            "type": "function"
        },
        {
            "inputs": [
                {
                    "internalType": "uint256[]",
                    "name": "_wins",
                    "type": "uint256[]"
                },
                {
                    "internalType": "address[]",
                    "name": "_users",
                    "type": "address[]"
                }
            ],
            "name": "registerWin",
            "outputs": [],
            "stateMutability": "nonpayable",
            "type": "function"
        },
        {
            "inputs": [
                {
                    "internalType": "address[]",
                    "name": "_users",
                    "type": "address[]"
                }
            ],
            "name": "releaseBetLock",
            "outputs": [],
            "stateMutability": "nonpayable",
            "type": "function"
        },
        {
            "inputs": [],
            "name": "renounceOwnership",
            "outputs": [],
            "stateMutability": "nonpayable",
            "type": "function"
        },
        {
            "inputs": [],
            "name": "reserveAddress",
            "outputs": [
                {
                    "internalType": "address",
                    "name": "",
                    "type": "address"
                }
            ],
            "stateMutability": "view",
            "type": "function"
        },
        {
            "inputs": [],
            "name": "reserveShare",
            "outputs": [
                {
                    "internalType": "uint256",
                    "name": "",
                    "type": "uint256"
                }
            ],
            "stateMutability": "view",
            "type": "function"
        },
        {
            "inputs": [
                {
                    "internalType": "uint256",
                    "name": "_amount",
                    "type": "uint256"
                }
            ],
            "name": "setBankrollShare",
            "outputs": [],
            "stateMutability": "nonpayable",
            "type": "function"
        },
        {
            "inputs": [
                {
                    "internalType": "uint256",
                    "name": "_earlyWithdrawFee",
                    "type": "uint256"
                }
            ],
            "name": "setEarlyWithdrawFee",
            "outputs": [],
            "stateMutability": "nonpayable",
            "type": "function"
        },
        {
            "inputs": [
                {
                    "internalType": "uint256",
                    "name": "_lockPeriod",
                    "type": "uint256"
                }
            ],
            "name": "setLockPeriod",
            "outputs": [],
            "stateMutability": "nonpayable",
            "type": "function"
        },
        {
            "inputs": [
                {
                    "internalType": "uint256",
                    "name": "_amount",
                    "type": "uint256"
                }
            ],
            "name": "setPendingBankrollThreshold",
            "outputs": [],
            "stateMutability": "nonpayable",
            "type": "function"
        },
        {
            "inputs": [
                {
                    "internalType": "address",
                    "name": "_reserveAddress",
                    "type": "address"
                }
            ],
            "name": "setReserveAddress",
            "outputs": [],
            "stateMutability": "nonpayable",
            "type": "function"
        },
        {
            "inputs": [
                {
                    "internalType": "uint256",
                    "name": "_amount",
                    "type": "uint256"
                }
            ],
            "name": "setSlipage",
            "outputs": [],
            "stateMutability": "nonpayable",
            "type": "function"
        },
        {
            "inputs": [
                {
                    "internalType": "contract BitcrushStaking",
                    "name": "_stakingPool",
                    "type": "address"
                }
            ],
            "name": "setStakingPool",
            "outputs": [],
            "stateMutability": "nonpayable",
            "type": "function"
        },
        {
            "inputs": [],
            "name": "slipage",
            "outputs": [
                {
                    "internalType": "uint256",
                    "name": "",
                    "type": "uint256"
                }
            ],
            "stateMutability": "view",
            "type": "function"
        },
        {
            "inputs": [],
            "name": "stakingPool",
            "outputs": [
                {
                    "internalType": "contract BitcrushStaking",
                    "name": "",
                    "type": "address"
                }
            ],
            "stateMutability": "view",
            "type": "function"
        },
        {
            "inputs": [],
            "name": "swapRouter",
            "outputs": [
                {
                    "internalType": "contract IApeRouter02",
                    "name": "",
                    "type": "address"
                }
            ],
            "stateMutability": "view",
            "type": "function"
        },
        {
            "inputs": [],
            "name": "token",
            "outputs": [
                {
                    "internalType": "contract BEP20",
                    "name": "",
                    "type": "address"
                }
            ],
            "stateMutability": "view",
            "type": "function"
        },
        {
            "inputs": [
                {
                    "internalType": "address",
                    "name": "newOwner",
                    "type": "address"
                }
            ],
            "name": "transferOwnership",
            "outputs": [],
            "stateMutability": "nonpayable",
            "type": "function"
        },
        {
            "inputs": [
                {
                    "internalType": "address[]",
                    "name": "_users",
                    "type": "address[]"
                }
            ],
            "name": "updateBetLock",
            "outputs": [],
            "stateMutability": "nonpayable",
            "type": "function"
        },
        {
            "inputs": [
                {
                    "internalType": "address",
                    "name": "_address",
                    "type": "address"
                }
            ],
            "name": "whitelistUser",
            "outputs": [],
            "stateMutability": "nonpayable",
            "type": "function"
        },
        {
            "inputs": [
                {
                    "internalType": "uint256",
                    "name": "_amount",
                    "type": "uint256"
                }
            ],
            "name": "withdrawBet",
            "outputs": [],
            "stateMutability": "nonpayable",
            "type": "function"
        },
        {
            "inputs": [
                {
                    "internalType": "uint256",
                    "name": "_amount",
                    "type": "uint256"
                },
                {
                    "internalType": "address",
                    "name": "_user",
                    "type": "address"
                }
            ],
            "name": "withdrawBetForUser",
            "outputs": [],
            "stateMutability": "nonpayable",
            "type": "function"
        }
    ],
    "bytecode": "610100604052612a3060055560326007556117706009556107d0600a556103e8600b5569021e19e0c9bab2400000600d556064600e553480156200004257600080fd5b5060405162004d6838038062004d68833981810160405260c08110156200006857600080fd5b508051602082015160408301516060840151608085015160a09095015193949293919290916000620000a26001600160e01b036200014916565b600080546001600160a01b0319166001600160a01b0383169081178255604051929350917f8be0079c531659141344cd1fd0a4f28419497f9722a3daafe3b4186f6b6457e0908290a350606095861b6001600160601b031990811660a05294861b851660c05292851b841660e052600680546001600160a01b03199081166001600160a01b0394851617909155941b9092166080526004805490931691161790556200014d565b3390565b60805160601c60a05160601c60c05160601c60e05160601c614ac1620002a7600039806109b452806120735280612a6e528061323252806132ed52806139ea5280613aa55280614094528061414f5250806115ed528061210652806121a252806128045280612bd5528061320352806139bb5280613c155280614065525080610c705280610ff452806112bd52806119c552806119fb5280611bb15280611c8e5280611d4e5280611e31528061215452806124885280612580528061263852806128525280612b875280612f7b528061346752806134fe528061357752806135b252806135e852806136bf52806137535280613bc75280613dfa5280614286528061431d528061439652806143d152508061176152806121d152806122d052806128a25280612c255280612dd15280612faa52806130545280613782528061386a5280613c655280613e295280613f165250614ac16000f3fe608060405234801561001057600080fd5b50600436106102695760003560e01c8063a4ae1c5611610151578063d4b9661c116100c3578063f2150bbb11610087578063f2150bbb146107f8578063f2fde38b1461091b578063f62cf8d014610941578063f79ed94b1461096d578063fc0c546a14610975578063fcbca4561461097d57610269565b8063d4b9661c1461075b578063e6d1c46514610787578063e7cb3d671461078f578063ebcfcf6b14610797578063ec7babec146107db57610269565b8063b9c8c4ba11610115578063b9c8c4ba146106ec578063c22982f414610709578063c31c9c0714610726578063c45277931461072e578063d0b4541d14610736578063d48b02261461073e57610269565b8063a4ae1c5614610510578063a80a788214610633578063afb62d701461063b578063b2a139db146106dc578063b359a9f9146106e457610269565b806367b8a7d6116101ea578063779972da116101ae578063779972da146103f95780637efd381314610416578063815b7386146104425780638da5cb5b146104e3578063903cf764146104eb578063a2b1a2cc146104f357610269565b806367b8a7d61461038f5780636d069b9e1461039757806370a08231146103c3578063715018a6146103e9578063723ea115146103f157610269565b80633028f63a116102315780633028f63a146103165780633410fe6e1461033c5780633fd8b02f146103445780634a4c560d1461034c5780636145b22c1461037257610269565b80630c56ae3b1461026e5780630c657eb0146102925780630da201921461029a57806314673d31146102b457806322c0aec7146102dc575b600080fd5b6102766109a3565b604080516001600160a01b039092168252519081900360200190f35b6102766109b2565b6102a26109d6565b60408051918252519081900360200190f35b6102da600480360360208110156102ca57600080fd5b50356001600160a01b03166109dc565b005b610302600480360360208110156102f257600080fd5b50356001600160a01b0316610a56565b604080519115158252519081900360200190f35b6102da6004803603602081101561032c57600080fd5b50356001600160a01b0316610a6b565b6102a2610b43565b6102a2610b49565b6102da6004803603602081101561036257600080fd5b50356001600160a01b0316610b4f565b6102da6004803603602081101561038857600080fd5b5035610bc8565b6102a2610d05565b6102da600480360360408110156103ad57600080fd5b50803590602001356001600160a01b0316610d0b565b6102a2600480360360208110156103d957600080fd5b50356001600160a01b0316610d9a565b6102da610db5565b6102da610e57565b6102da6004803603602081101561040f57600080fd5b5035610e76565b6102da6004803603604081101561042c57600080fd5b50803590602001356001600160a01b0316610f43565b6102da6004803603602081101561045857600080fd5b810190602081018135600160201b81111561047257600080fd5b82018360208201111561048457600080fd5b803590602001918460208302840111600160201b831117156104a557600080fd5b91908080602002602001604051908101604052809392919081815260200183836020028082843760009201919091525092955061109c945050505050565b610276611152565b6102a2611161565b6102da6004803603602081101561050957600080fd5b5035611167565b6102da6004803603604081101561052657600080fd5b810190602081018135600160201b81111561054057600080fd5b82018360208201111561055257600080fd5b803590602001918460208302840111600160201b8311171561057357600080fd5b9190808060200260200160405190810160405280939291908181526020018383602002808284376000920191909152509295949360208101935035915050600160201b8111156105c257600080fd5b8201836020820111156105d457600080fd5b803590602001918460208302840111600160201b831117156105f557600080fd5b919080806020026020016040519081016040528093929190818152602001838360200280828437600092019190915250929550611322945050505050565b6102a261152e565b6102da6004803603602081101561065157600080fd5b810190602081018135600160201b81111561066b57600080fd5b82018360208201111561067d57600080fd5b803590602001918460208302840111600160201b8311171561069e57600080fd5b919080806020026020016040519081016040528093929190818152602001838360200280828437600092019190915250929550611534945050505050565b6102a26115e5565b6102766115eb565b6102da6004803603602081101561070257600080fd5b503561160f565b6102da6004803603602081101561071f57600080fd5b50356116c2565b61027661175f565b610276611783565b6102a2611792565b6102da6004803603602081101561075457600080fd5b5035611798565b6102da6004803603604081101561077157600080fd5b50803590602001356001600160a01b03166117f5565b6102a2611a28565b6102a2611a2e565b6107bd600480360360208110156107ad57600080fd5b50356001600160a01b0316611a34565b60408051938452602084019290925282820152519081900360600190f35b6102da600480360360208110156107f157600080fd5b5035611a54565b6102da6004803603604081101561080e57600080fd5b810190602081018135600160201b81111561082857600080fd5b82018360208201111561083a57600080fd5b803590602001918460208302840111600160201b8311171561085b57600080fd5b9190808060200260200160405190810160405280939291908181526020018383602002808284376000920191909152509295949360208101935035915050600160201b8111156108aa57600080fd5b8201836020820111156108bc57600080fd5b803590602001918460208302840111600160201b831117156108dd57600080fd5b919080806020026020016040519081016040528093929190818152602001838360200280828437600092019190915250929550611af1945050505050565b6102da6004803603602081101561093157600080fd5b50356001600160a01b0316612004565b6102da6004803603604081101561095757600080fd5b50803590602001356001600160a01b0316612068565b610276612627565b610276612636565b6102da6004803603602081101561099357600080fd5b50356001600160a01b031661265a565b6003546001600160a01b031681565b7f000000000000000000000000000000000000000000000000000000000000000081565b60085481565b6109e46126d9565b6000546001600160a01b03908116911614610a34576040805162461bcd60e51b815260206004820181905260248201526000805160206149b5833981519152604482015290519081900360640190fd5b600680546001600160a01b0319166001600160a01b0392909216919091179055565b60016020526000908152604090205460ff1681565b610a736126d9565b6000546001600160a01b03908116911614610ac3576040805162461bcd60e51b815260206004820181905260248201526000805160206149b5833981519152604482015290519081900360640190fd5b6003546001600160a01b031615610b21576040805162461bcd60e51b815260206004820181905260248201527f7374616b696e6720706f6f6c206164647265737320616c726561647920736574604482015290519081900360640190fd5b600380546001600160a01b0319166001600160a01b0392909216919091179055565b61271081565b60055481565b610b576126d9565b6000546001600160a01b03908116911614610ba7576040805162461bcd60e51b815260206004820181905260248201526000805160206149b5833981519152604482015290519081900360640190fd5b6001600160a01b03166000908152600160205260409020805460ff19169055565b60008111610c075760405162461bcd60e51b8152600401808060200182810382526023815260200180614a696023913960400191505060405180910390fd5b3360009081526001602052604090205460ff1615610c63576040805162461bcd60e51b8152602060048201526014602482015273155cd95c881a5cc8189b1858dac8131a5cdd195960621b604482015290519081900360640190fd5b610c9e6001600160a01b037f00000000000000000000000000000000000000000000000000000000000000001633308463ffffffff6126dd16565b33600090815260026020526040902054610cbe908263ffffffff61273d16565b3360008181526002602052604080822093845542600190940193909355915183927fe1fffcc4923d04b559f4d29a8bfc6cda04eb5b0d3c460751c2402c5c5cc9109c91a350565b600a5481565b6004546001600160a01b03163314610d545760405162461bcd60e51b8152600401808060200182810382526021815260200180614a216021913960400191505060405180910390fd5b6001600160a01b038116600090815260026020526040902054610d7d908363ffffffff61273d16565b6001600160a01b0390911660009081526002602052604090205550565b6001600160a01b031660009081526002602052604090205490565b610dbd6126d9565b6000546001600160a01b03908116911614610e0d576040805162461bcd60e51b815260206004820181905260248201526000805160206149b5833981519152604482015290519081900360640190fd5b600080546040516001600160a01b03909116907f8be0079c531659141344cd1fd0a4f28419497f9722a3daafe3b4186f6b6457e0908390a3600080546001600160a01b0319169055565b336000908152600160208190526040909120805460ff19169091179055565b610e7e6126d9565b6000546001600160a01b03908116911614610ece576040805162461bcd60e51b815260206004820181905260248201526000805160206149b5833981519152604482015290519081900360640190fd5b62093a80811115610f105760405162461bcd60e51b815260040180806020018281038252602981526020018061496b6029913960400191505060405180910390fd5b600581905560405181907f8249ec545e68f6f1e1230133ca48c704d831a7f8e635ded80f3dd9e99b09bb2f90600090a250565b60008211610f825760405162461bcd60e51b8152600401808060200182810382526023815260200180614a696023913960400191505060405180910390fd5b6001600160a01b03811660009081526001602052604090205460ff1615610fe7576040805162461bcd60e51b8152602060048201526014602482015273155cd95c881a5cc8189b1858dac8131a5cdd195960621b604482015290519081900360640190fd5b6110226001600160a01b037f00000000000000000000000000000000000000000000000000000000000000001633308563ffffffff6126dd16565b6001600160a01b03811660009081526002602052604090205461104b908363ffffffff61273d16565b6001600160a01b03821660008181526002602052604080822093845542600190940193909355915184927f40a0b865ae77859153eafc5cde95d936f135cc12158b807a1ec5f644bea4111e91a35050565b6110a46126d9565b6000546001600160a01b039081169116146110f4576040805162461bcd60e51b815260206004820181905260248201526000805160206149b5833981519152604482015290519081900360640190fd5b60005b815181101561114e5760006002600084848151811061111257fe5b60200260200101516001600160a01b03166001600160a01b031681526020019081526020016000206001018190555080806001019150506110f7565b5050565b6000546001600160a01b031690565b600e5481565b336000908152600260205260409020548111156111cb576040805162461bcd60e51b815260206004820152601d60248201527f626574206c657373207468616e20616d6f756e74207769746864726177000000604482015290519081900360640190fd5b33600090815260026020526040902060010154158061120f575060055433600090815260026020526040902060010154429161120d919063ffffffff61273d16565b105b61124a5760405162461bcd60e51b81526004018080602001828103825260298152602001806148a06029913960400191505060405180910390fd5b3360009081526002602081905260409091209081015490548291611274919063ffffffff6127a016565b10156112845761128481336127e2565b336000908152600260205260409020546112a4908263ffffffff6127a016565b336000818152600260205260409020919091556112f2907f00000000000000000000000000000000000000000000000000000000000000006001600160a01b0316908363ffffffff612b0b16565b604051819033907f884edad9ce6fa2440d8a54cc123490eb96d2768479d49ff9c7366125a942436490600090a350565b61132a6126d9565b6000546001600160a01b0390811691161461137a576040805162461bcd60e51b815260206004820181905260248201526000805160206149b5833981519152604482015290519081900360640190fd5b80518251146113ba5760405162461bcd60e51b815260040180806020018281038252602181526020018061494a6021913960400191505060405180910390fd5b60005b81518110156115295760008382815181106113d457fe5b60200260200101511115611521578281815181106113ee57fe5b60200260200101516002600084848151811061140657fe5b60200260200101516001600160a01b03166001600160a01b0316815260200190815260200160002060000154101561146f5760405162461bcd60e51b81526004018080602001828103825260318152602001806149196031913960400191505060405180910390fd5b61148b83828151811061147e57fe5b6020026020010151612b5d565b6114ec83828151811061149a57fe5b6020026020010151600260008585815181106114b257fe5b60200260200101516001600160a01b03166001600160a01b03168152602001908152602001600020600001546127a090919063ffffffff16565b600260008484815181106114fc57fe5b6020908102919091018101516001600160a01b03168252810191909152604001600020555b6001016113bd565b505050565b60075481565b61153c6126d9565b6000546001600160a01b0390811691161461158c576040805162461bcd60e51b815260206004820181905260248201526000805160206149b5833981519152604482015290519081900360640190fd5b60005b815181101561114e5742600260008484815181106115a957fe5b60200260200101516001600160a01b03166001600160a01b0316815260200190815260200160002060010181905550808060010191505061158f565b600d5481565b7f000000000000000000000000000000000000000000000000000000000000000081565b6116176126d9565b6000546001600160a01b03908116911614611667576040805162461bcd60e51b815260206004820181905260248201526000805160206149b5833981519152604482015290519081900360640190fd5b610bb881106116bd576040805162461bcd60e51b815260206004820152601d60248201527f736c6970616765206d757374206265206c657373207468616e20333025000000604482015290519081900360640190fd5b600e55565b6116ca6126d9565b6000546001600160a01b0390811691161461171a576040805162461bcd60e51b815260206004820181905260248201526000805160206149b5833981519152604482015290519081900360640190fd5b610fa0811061175a5760405162461bcd60e51b81526004018080602001828103825260288152602001806149f96028913960400191505060405180910390fd5b600755565b7f000000000000000000000000000000000000000000000000000000000000000081565b6004546001600160a01b031681565b60095481565b6117a06126d9565b6000546001600160a01b039081169116146117f0576040805162461bcd60e51b815260206004820181905260248201526000805160206149b5833981519152604482015290519081900360640190fd5b600d55565b6117fd6126d9565b6000546001600160a01b0390811691161461184d576040805162461bcd60e51b815260206004820181905260248201526000805160206149b5833981519152604482015290519081900360640190fd5b6001600160a01b0381166000908152600260205260409020548211156118ba576040805162461bcd60e51b815260206004820152601d60248201527f626574206c657373207468616e20616d6f756e74207769746864726177000000604482015290519081900360640190fd5b33600090815260026020819052604090912090810154905483916118e4919063ffffffff6127a016565b10156118f4576118f482336127e2565b6001600160a01b03811660009081526002602052604090205461191d908363ffffffff6127a016565b6001600160a01b03821660009081526002602052604090205561194082826127e2565b60405182906001600160a01b038316907f884edad9ce6fa2440d8a54cc123490eb96d2768479d49ff9c7366125a942436490600090a3600061199f612710611993600754866143fa90919063ffffffff16565b9063ffffffff61445316565b90506119b1838263ffffffff6127a016565b6006549093506119ee906001600160a01b037f00000000000000000000000000000000000000000000000000000000000000008116911683612b0b565b6115296001600160a01b037f000000000000000000000000000000000000000000000000000000000000000016838563ffffffff612b0b16565b600c5481565b600b5481565b600260208190526000918252604090912080546001820154919092015483565b611a5c6126d9565b6000546001600160a01b03908116911614611aac576040805162461bcd60e51b815260206004820181905260248201526000805160206149b5833981519152604482015290519081900360640190fd5b6123288110611aec5760405162461bcd60e51b81526004018080602001828103825260248152602001806149d56024913960400191505060405180910390fd5b600955565b611af96126d9565b6000546001600160a01b03908116911614611b49576040805162461bcd60e51b815260206004820181905260248201526000805160206149b5833981519152604482015290519081900360640190fd5b8051825114611b895760405162461bcd60e51b815260040180806020018281038252602181526020018061494a6021913960400191505060405180910390fd5b60005b815181101561152957600480546040805163e3d670d760e01b81526001600160a01b037f00000000000000000000000000000000000000000000000000000000000000008116948201949094529051929091169163e3d670d791602480820192602092909190829003018186803b158015611c0657600080fd5b505afa158015611c1a573d6000803e3d6000fd5b505050506040513d6020811015611c3057600080fd5b50518351849083908110611c4057fe5b602002602001015111611d325760045483516001600160a01b039091169063bb11ecd590859084908110611c7057fe5b6020026020010151848481518110611c8457fe5b60200260200101517f00000000000000000000000000000000000000000000000000000000000000006040518463ffffffff1660e01b815260040180848152602001836001600160a01b03166001600160a01b03168152602001826001600160a01b03166001600160a01b031681526020019350505050600060405180830381600087803b158015611d1557600080fd5b505af1158015611d29573d6000803e3d6000fd5b50505050611ffc565b600480546040805163e3d670d760e01b81526001600160a01b037f000000000000000000000000000000000000000000000000000000000000000081169482019490945290516000939092169163e3d670d791602480820192602092909190829003018186803b158015611da557600080fd5b505afa158015611db9573d6000803e3d6000fd5b505050506040513d6020811015611dcf57600080fd5b50518451909150600090611e01908390879086908110611deb57fe5b60200260200101516127a090919063ffffffff16565b60045485519192506001600160a01b03169063bb11ecd5908490879087908110611e2757fe5b60200260200101517f00000000000000000000000000000000000000000000000000000000000000006040518463ffffffff1660e01b815260040180848152602001836001600160a01b03166001600160a01b03168152602001826001600160a01b03166001600160a01b031681526020019350505050600060405180830381600087803b158015611eb857600080fd5b505af1158015611ecc573d6000803e3d6000fd5b50505050611f2d611ee383878681518110611deb57fe5b60026000878781518110611ef357fe5b60200260200101516001600160a01b03166001600160a01b031681526020019081526020016000206000015461273d90919063ffffffff16565b60026000868681518110611f3d57fe5b60200260200101516001600160a01b03166001600160a01b0316815260200190815260200160002060000181905550611fba8160026000878781518110611f8057fe5b60200260200101516001600160a01b03166001600160a01b031681526020019081526020016000206002015461273d90919063ffffffff16565b60026000868681518110611fca57fe5b60200260200101516001600160a01b03166001600160a01b031681526020019081526020016000206002018190555050505b600101611b8c565b61200c6126d9565b6000546001600160a01b0390811691161461205c576040805162461bcd60e51b815260206004820181905260248201526000805160206149b5833981519152604482015290519081900360640190fd5b61206581614495565b50565b336001600160a01b037f00000000000000000000000000000000000000000000000000000000000000001614806120a957506003546001600160a01b031633145b6120e45760405162461bcd60e51b8152600401808060200182810382526027815260200180614a426027913960400191505060405180910390fd5b60408051600280825260608083018452926020830190803683370190505090507f00000000000000000000000000000000000000000000000000000000000000008160008151811061213257fe5b60200260200101906001600160a01b031690816001600160a01b0316815250507f00000000000000000000000000000000000000000000000000000000000000008160018151811061218057fe5b60200260200101906001600160a01b031690816001600160a01b0316815250507f00000000000000000000000000000000000000000000000000000000000000006001600160a01b031663095ea7b37f0000000000000000000000000000000000000000000000000000000000000000856040518363ffffffff1660e01b815260040180836001600160a01b03166001600160a01b0316815260200182815260200192505050602060405180830381600087803b15801561224057600080fd5b505af1158015612254573d6000803e3d6000fd5b505050506040513d602081101561226a57600080fd5b50506001600160a01b0382811660009081526002602081815260408084209092015491516338ed173960e01b815260048101888152602482018490523060648301819052600542016084840181905260a060448501908152895160a486015289516060997f000000000000000000000000000000000000000000000000000000000000000016986338ed1739988e9890978d97949360c4909101928883019291909102908190849084905b8381101561232d578181015183820152602001612315565b505050509050019650505050505050600060405180830381600087803b15801561235657600080fd5b505af115801561236a573d6000803e3d6000fd5b505050506040513d6000823e601f3d908101601f19168201604052602081101561239357600080fd5b8101908080516040519392919084600160201b8211156123b257600080fd5b9083019060208201858111156123c757600080fd5b82518660208202830111600160201b821117156123e357600080fd5b82525081516020918201928201910280838360005b838110156124105781810151838201526020016123f8565b50505050905001604052505050905060026000846001600160a01b03166001600160a01b03168152602001908152602001600020600201548160018151811061245557fe5b60200260200101511115612607576004546001600160a01b038481166000908152600260208190526040909120015483517f000000000000000000000000000000000000000000000000000000000000000083169363095ea7b39316916124c39186906001908110611deb57fe5b6040518363ffffffff1660e01b815260040180836001600160a01b03166001600160a01b0316815260200182815260200192505050602060405180830381600087803b15801561251257600080fd5b505af1158015612526573d6000803e3d6000fd5b505050506040513d602081101561253c57600080fd5b50506004546001600160a01b03848116600090815260026020819052604090912001548351919092169163bfd454ed9161257e919085906001908110611deb57fe5b7f00000000000000000000000000000000000000000000000000000000000000006040518363ffffffff1660e01b815260040180838152602001826001600160a01b03166001600160a01b0316815260200192505050600060405180830381600087803b1580156125ee57600080fd5b505af1158015612602573d6000803e3d6000fd5b505050505b50506001600160a01b031660009081526002602081905260408220015550565b6006546001600160a01b031681565b7f000000000000000000000000000000000000000000000000000000000000000081565b6126626126d9565b6000546001600160a01b039081169116146126b2576040805162461bcd60e51b815260206004820181905260248201526000805160206149b5833981519152604482015290519081900360640190fd5b6001600160a01b03166000908152600160208190526040909120805460ff19169091179055565b3390565b604080516001600160a01b0380861660248301528416604482015260648082018490528251808303909101815260849091019091526020810180516001600160e01b03166323b872dd60e01b179052612737908590614535565b50505050565b600082820183811015612797576040805162461bcd60e51b815260206004820152601b60248201527f536166654d6174683a206164646974696f6e206f766572666c6f770000000000604482015290519081900360640190fd5b90505b92915050565b600061279783836040518060400160405280601e81526020017f536166654d6174683a207375627472616374696f6e206f766572666c6f7700008152506145e6565b60408051600280825260608083018452926020830190803683370190505090507f00000000000000000000000000000000000000000000000000000000000000008160008151811061283057fe5b60200260200101906001600160a01b031690816001600160a01b0316815250507f00000000000000000000000000000000000000000000000000000000000000008160018151811061287e57fe5b60200260200101906001600160a01b031690816001600160a01b03168152505060607f00000000000000000000000000000000000000000000000000000000000000006001600160a01b0316631f00ca7485846040518363ffffffff1660e01b81526004018083815260200180602001828103825283818151815260200191508051906020019060200280838360005b8381101561292657818101518382015260200161290e565b50505050905001935050505060006040518083038186803b15801561294a57600080fd5b505afa15801561295e573d6000803e3d6000fd5b505050506040513d6000823e601f3d908101601f19168201604052602081101561298757600080fd5b8101908080516040519392919084600160201b8211156129a657600080fd5b9083019060208201858111156129bb57600080fd5b82518660208202830111600160201b821117156129d757600080fd5b82525081516020918201928201910280838360005b83811015612a045781810151838201526020016129ec565b5050505090500160405250505090506000612a6a612a47612710611993600e5486600081518110612a3157fe5b60200260200101516143fa90919063ffffffff16565b83600081518110612a5457fe5b602002602001015161273d90919063ffffffff16565b90507f00000000000000000000000000000000000000000000000000000000000000006001600160a01b03166361433d8882866040518363ffffffff1660e01b815260040180838152602001826001600160a01b03166001600160a01b0316815260200192505050600060405180830381600087803b158015612aec57600080fd5b505af1158015612b00573d6000803e3d6000fd5b505050505050505050565b604080516001600160a01b038416602482015260448082018490528251808303909101815260649091019091526020810180516001600160e01b031663a9059cbb60e01b179052611529908490614535565b60085415613b655760408051600280825260608083018452926020830190803683370190505090507f000000000000000000000000000000000000000000000000000000000000000081600081518110612bb357fe5b60200260200101906001600160a01b031690816001600160a01b0316815250507f000000000000000000000000000000000000000000000000000000000000000081600181518110612c0157fe5b60200260200101906001600160a01b031690816001600160a01b03168152505060607f00000000000000000000000000000000000000000000000000000000000000006001600160a01b031663d06ca61f84846040518363ffffffff1660e01b81526004018083815260200180602001828103825283818151815260200191508051906020019060200280838360005b83811015612ca9578181015183820152602001612c91565b50505050905001935050505060006040518083038186803b158015612ccd57600080fd5b505afa158015612ce1573d6000803e3d6000fd5b505050506040513d6000823e601f3d908101601f191682016040526020811015612d0a57600080fd5b8101908080516040519392919084600160201b821115612d2957600080fd5b908301906020820185811115612d3e57600080fd5b82518660208202830111600160201b82111715612d5a57600080fd5b82525081516020918201928201910280838360005b83811015612d87578181015183820152602001612d6f565b5050505090500160405250505090506000612dc1612db4612710611993600e5486600181518110612a3157fe5b83600181518110611deb57fe5b90506008548111156137515760607f00000000000000000000000000000000000000000000000000000000000000006001600160a01b0316631f00ca74600854866040518363ffffffff1660e01b81526004018083815260200180602001828103825283818151815260200191508051906020019060200280838360005b83811015612e57578181015183820152602001612e3f565b50505050905001935050505060006040518083038186803b158015612e7b57600080fd5b505afa158015612e8f573d6000803e3d6000fd5b505050506040513d6000823e601f3d908101601f191682016040526020811015612eb857600080fd5b8101908080516040519392919084600160201b821115612ed757600080fd5b908301906020820185811115612eec57600080fd5b82518660208202830111600160201b82111715612f0857600080fd5b82525081516020918201928201910280838360005b83811015612f35578181015183820152602001612f1d565b5050505090500160405250505090506000612f6f612f62612710611993600e5486600181518110612a3157fe5b83600181518110612a5457fe5b90508581111561374a577f00000000000000000000000000000000000000000000000000000000000000006001600160a01b031663095ea7b37f0000000000000000000000000000000000000000000000000000000000000000836040518363ffffffff1660e01b815260040180836001600160a01b03166001600160a01b0316815260200182815260200192505050602060405180830381600087803b15801561301957600080fd5b505af115801561302d573d6000803e3d6000fd5b505050506040513d602081101561304357600080fd5b505081516060906001600160a01b037f000000000000000000000000000000000000000000000000000000000000000016906338ed1739908490869060009061308857fe5b60200260200101518930426005016040518663ffffffff1660e01b81526004018086815260200185815260200180602001846001600160a01b03166001600160a01b03168152602001838152602001828103825285818151815260200191508051906020019060200280838360005b8381101561310f5781810151838201526020016130f7565b505050509050019650505050505050600060405180830381600087803b15801561313857600080fd5b505af115801561314c573d6000803e3d6000fd5b505050506040513d6000823e601f3d908101601f19168201604052602081101561317557600080fd5b8101908080516040519392919084600160201b82111561319457600080fd5b9083019060208201858111156131a957600080fd5b82518660208202830111600160201b821117156131c557600080fd5b82525081516020918201928201910280838360005b838110156131f25781810151838201526020016131da565b5050505090500160405250505090507f00000000000000000000000000000000000000000000000000000000000000006001600160a01b031663095ea7b37f00000000000000000000000000000000000000000000000000000000000000008360018151811061325e57fe5b60200260200101516040518363ffffffff1660e01b815260040180836001600160a01b03166001600160a01b0316815260200182815260200192505050602060405180830381600087803b1580156132b557600080fd5b505af11580156132c9573d6000803e3d6000fd5b505050506040513d60208110156132df57600080fd5b505080516001600160a01b037f0000000000000000000000000000000000000000000000000000000000000000169063c2e50b16908390600190811061332157fe5b60200260200101516040518263ffffffff1660e01b815260040180828152602001915050600060405180830381600087803b15801561335f57600080fd5b505af1158015613373573d6000803e3d6000fd5b5050505061338a82886127a090919063ffffffff16565b965060006133a96127106119936009548b6143fa90919063ffffffff16565b600c549091506133bf908263ffffffff61273d16565b600c55600b546000906133e19061271090611993908c9063ffffffff6143fa16565b90506000613400612710611993600a548d6143fa90919063ffffffff16565b90506134128a8463ffffffff6127a016565b99506134248a8363ffffffff6127a016565b99506134368a8263ffffffff6127a016565b600480546040805163095ea7b360e01b81526001600160a01b03928316938101939093526024830186905251929c507f0000000000000000000000000000000000000000000000000000000000000000169163095ea7b3916044808201926020929091908290030181600087803b1580156134b057600080fd5b505af11580156134c4573d6000803e3d6000fd5b505050506040513d60208110156134da57600080fd5b5050600480546040805163bfd454ed60e01b81529283018590526001600160a01b037f000000000000000000000000000000000000000000000000000000000000000081166024850152905191169163bfd454ed91604480830192600092919082900301818387803b15801561354f57600080fd5b505af1158015613563573d6000803e3d6000fd5b5050600f546135a192506001600160a01b037f0000000000000000000000000000000000000000000000000000000000000000811692501683612b0b565b6006546135db906001600160a01b037f0000000000000000000000000000000000000000000000000000000000000000811691168c612b0b565b6004546001600160a01b037f000000000000000000000000000000000000000000000000000000000000000081169163095ea7b391166136218d8963ffffffff6127a016565b6040518363ffffffff1660e01b815260040180836001600160a01b03166001600160a01b0316815260200182815260200192505050602060405180830381600087803b15801561367057600080fd5b505af1158015613684573d6000803e3d6000fd5b505050506040513d602081101561369a57600080fd5b50506004546001600160a01b031663bfd454ed6136bd8c8863ffffffff6127a016565b7f00000000000000000000000000000000000000000000000000000000000000006040518363ffffffff1660e01b815260040180838152602001826001600160a01b03166001600160a01b0316815260200192505050600060405180830381600087803b15801561372d57600080fd5b505af1158015613741573d6000803e3d6000fd5b50505050505050505b5050613b5d565b7f00000000000000000000000000000000000000000000000000000000000000006001600160a01b031663095ea7b37f0000000000000000000000000000000000000000000000000000000000000000866040518363ffffffff1660e01b815260040180836001600160a01b03166001600160a01b0316815260200182815260200192505050602060405180830381600087803b1580156137f157600080fd5b505af1158015613805573d6000803e3d6000fd5b505050506040513d602081101561381b57600080fd5b50506040516338ed173960e01b815260048101858152602482018390523060648301819052600542016084840181905260a060448501908152875160a486015287516060956001600160a01b037f000000000000000000000000000000000000000000000000000000000000000016956338ed1739958c958a958d959294919392909160c401906020878101910280838360005b838110156138c75781810151838201526020016138af565b505050509050019650505050505050600060405180830381600087803b1580156138f057600080fd5b505af1158015613904573d6000803e3d6000fd5b505050506040513d6000823e601f3d908101601f19168201604052602081101561392d57600080fd5b8101908080516040519392919084600160201b82111561394c57600080fd5b90830190602082018581111561396157600080fd5b82518660208202830111600160201b8211171561397d57600080fd5b82525081516020918201928201910280838360005b838110156139aa578181015183820152602001613992565b5050505090500160405250505090507f00000000000000000000000000000000000000000000000000000000000000006001600160a01b031663095ea7b37f000000000000000000000000000000000000000000000000000000000000000083600181518110613a1657fe5b60200260200101516040518363ffffffff1660e01b815260040180836001600160a01b03166001600160a01b0316815260200182815260200192505050602060405180830381600087803b158015613a6d57600080fd5b505af1158015613a81573d6000803e3d6000fd5b505050506040513d6020811015613a9757600080fd5b505080516001600160a01b037f0000000000000000000000000000000000000000000000000000000000000000169063c2e50b169083906001908110613ad957fe5b60200260200101516040518263ffffffff1660e01b815260040180828152602001915050600060405180830381600087803b158015613b1757600080fd5b505af1158015613b2b573d6000803e3d6000fd5b50505050613b5881600181518110613b3f57fe5b60200260200101516008546127a090919063ffffffff16565b600855505b505050612065565b6000613b82612710611993600954856143fa90919063ffffffff16565b600c54909150613b98908263ffffffff61273d16565b600c819055600d54116141e35760408051600280825260608083018452926020830190803683370190505090507f000000000000000000000000000000000000000000000000000000000000000081600081518110613bf357fe5b60200260200101906001600160a01b031690816001600160a01b0316815250507f000000000000000000000000000000000000000000000000000000000000000081600181518110613c4157fe5b60200260200101906001600160a01b031690816001600160a01b03168152505060607f00000000000000000000000000000000000000000000000000000000000000006001600160a01b031663d06ca61f600c54846040518363ffffffff1660e01b81526004018083815260200180602001828103825283818151815260200191508051906020019060200280838360005b83811015613ceb578181015183820152602001613cd3565b50505050905001935050505060006040518083038186803b158015613d0f57600080fd5b505afa158015613d23573d6000803e3d6000fd5b505050506040513d6000823e601f3d908101601f191682016040526020811015613d4c57600080fd5b8101908080516040519392919084600160201b821115613d6b57600080fd5b908301906020820185811115613d8057600080fd5b82518660208202830111600160201b82111715613d9c57600080fd5b82525081516020918201928201910280838360005b83811015613dc9578181015183820152602001613db1565b5050505090500160405250505090506000613df6612db4612710611993600e5486600181518110612a3157fe5b90507f00000000000000000000000000000000000000000000000000000000000000006001600160a01b031663095ea7b37f0000000000000000000000000000000000000000000000000000000000000000600c546040518363ffffffff1660e01b815260040180836001600160a01b03166001600160a01b0316815260200182815260200192505050602060405180830381600087803b158015613e9a57600080fd5b505af1158015613eae573d6000803e3d6000fd5b505050506040513d6020811015613ec457600080fd5b5050600c546040516338ed173960e01b815260048101828152602482018490523060648301819052600542016084840181905260a060448501908152885160a486015288516060966001600160a01b037f000000000000000000000000000000000000000000000000000000000000000016966338ed17399691958a958d95919490939260c401906020878101910280838360005b83811015613f71578181015183820152602001613f59565b505050509050019650505050505050600060405180830381600087803b158015613f9a57600080fd5b505af1158015613fae573d6000803e3d6000fd5b505050506040513d6000823e601f3d908101601f191682016040526020811015613fd757600080fd5b8101908080516040519392919084600160201b821115613ff657600080fd5b90830190602082018581111561400b57600080fd5b82518660208202830111600160201b8211171561402757600080fd5b82525081516020918201928201910280838360005b8381101561405457818101518382015260200161403c565b5050505090500160405250505090507f00000000000000000000000000000000000000000000000000000000000000006001600160a01b031663095ea7b37f0000000000000000000000000000000000000000000000000000000000000000836001815181106140c057fe5b60200260200101516040518363ffffffff1660e01b815260040180836001600160a01b03166001600160a01b0316815260200182815260200192505050602060405180830381600087803b15801561411757600080fd5b505af115801561412b573d6000803e3d6000fd5b505050506040513d602081101561414157600080fd5b505080516001600160a01b037f0000000000000000000000000000000000000000000000000000000000000000169063c2e50b16908390600190811061418357fe5b60200260200101516040518263ffffffff1660e01b815260040180828152602001915050600060405180830381600087803b1580156141c157600080fd5b505af11580156141d5573d6000803e3d6000fd5b50506000600c555050505050505b6000614200612710611993600b54866143fa90919063ffffffff16565b9050600061421f612710611993600a54876143fa90919063ffffffff16565b9050614231848463ffffffff6127a016565b9350614243848363ffffffff6127a016565b9350614255848263ffffffff6127a016565b600480546040805163095ea7b360e01b81526001600160a01b039283169381019390935260248301869052519296507f0000000000000000000000000000000000000000000000000000000000000000169163095ea7b3916044808201926020929091908290030181600087803b1580156142cf57600080fd5b505af11580156142e3573d6000803e3d6000fd5b505050506040513d60208110156142f957600080fd5b5050600480546040805163bfd454ed60e01b81529283018590526001600160a01b037f000000000000000000000000000000000000000000000000000000000000000081166024850152905191169163bfd454ed91604480830192600092919082900301818387803b15801561436e57600080fd5b505af1158015614382573d6000803e3d6000fd5b5050600f546143c092506001600160a01b037f0000000000000000000000000000000000000000000000000000000000000000811692501683612b0b565b600654612737906001600160a01b037f00000000000000000000000000000000000000000000000000000000000000008116911686612b0b565b6000826144095750600061279a565b8282028284828161441657fe5b04146127975760405162461bcd60e51b81526004018080602001828103825260218152602001806149946021913960400191505060405180910390fd5b600061279783836040518060400160405280601a81526020017f536166654d6174683a206469766973696f6e206279207a65726f00000000000081525061467d565b6001600160a01b0381166144da5760405162461bcd60e51b81526004018080602001828103825260268152602001806148f36026913960400191505060405180910390fd5b600080546040516001600160a01b03808516939216917f8be0079c531659141344cd1fd0a4f28419497f9722a3daafe3b4186f6b6457e091a3600080546001600160a01b0319166001600160a01b0392909216919091179055565b606061458a826040518060400160405280602081526020017f5361666542455032303a206c6f772d6c6576656c2063616c6c206661696c6564815250856001600160a01b03166146e29092919063ffffffff16565b805190915015611529578080602001905160208110156145a957600080fd5b50516115295760405162461bcd60e51b815260040180806020018281038252602a8152602001806148c9602a913960400191505060405180910390fd5b600081848411156146755760405162461bcd60e51b81526004018080602001828103825283818151815260200191508051906020019080838360005b8381101561463a578181015183820152602001614622565b50505050905090810190601f1680156146675780820380516001836020036101000a031916815260200191505b509250505060405180910390fd5b505050900390565b600081836146cc5760405162461bcd60e51b815260206004820181815283516024840152835190928392604490910191908501908083836000831561463a578181015183820152602001614622565b5060008385816146d857fe5b0495945050505050565b60606146f184846000856146f9565b949350505050565b606061470485614866565b614755576040805162461bcd60e51b815260206004820152601d60248201527f416464726573733a2063616c6c20746f206e6f6e2d636f6e7472616374000000604482015290519081900360640190fd5b60006060866001600160a01b031685876040518082805190602001908083835b602083106147945780518252601f199092019160209182019101614775565b6001836020036101000a03801982511681845116808217855250505050505090500191505060006040518083038185875af1925050503d80600081146147f6576040519150601f19603f3d011682016040523d82523d6000602084013e6147fb565b606091505b5091509150811561480f5791506146f19050565b80511561481f5780518082602001fd5b60405162461bcd60e51b815260206004820181815286516024840152865187939192839260440191908501908083836000831561463a578181015183820152602001614622565b6000813f7fc5d2460186f7233c927e7db2dcc703c0e500b653ca82273b7bfad8045d85a4708181148015906146f157505015159291505056fe42657420416d6f756e74206c6f636b65642c20706c656173652074727920616761696e206c617465725361666542455032303a204245503230206f7065726174696f6e20646964206e6f7420737563636565644f776e61626c653a206e6577206f776e657220697320746865207a65726f20616464726573734c6f73732062657420616d6f756e742069732067726561746572207468616e20617661696c61626c652062616c616e6365506172616d65746572206c656e677468732073686f756c6420626520657175616c4c6f636b20706572696f642063616e6e6f742062652067726561746572207468616e2031207765656b536166654d6174683a206d756c7469706c69636174696f6e206f766572666c6f774f776e61626c653a2063616c6c6572206973206e6f7420746865206f776e657242616e6b726f6c6c207368617265206d757374206265206c657373207468616e203930254561726c7920776974686472617720666565206d757374206265206c657373207468616e2034302543616c6c6572206d757374206265206c69717569646974792062616e6b726f6c6c43616c6c6572206d7573742062652062616e6b726f6c6c206f72207374616b696e6720706f6f6c42657420616d6f756e742073686f756c642062652067726561746572207468616e2030a26469706673582212206abb9d0af3b3037004d9ad053bb1294f7b39eae8b0be80738415b80c303da39a64736f6c63430006050033",
    "sourcePath": "/Users/umeralisajid/Documents/Frag/bitcrush/crush_contacts_old/contracts/TokenLiveWallet.sol",
    "compiler": {
        "name": "solc",
        "version": "0.6.5+commit.f956cc89"
    },
    "functionHashes": {
        "DIVISOR()": "3410fe6e",
        "addToUserWinnings(uint256,address)": "f62cf8d0",
        "addToUserWinningsNative(uint256,address)": "6d069b9e",
        "addbet(uint256)": "6145b22c",
        "addbetWithAddress(uint256,address)": "7efd3813",
        "balanceOf(address)": "70a08231",
        "bankroll()": "0c657eb0",
        "bankrollShare()": "d0b4541d",
        "betAmounts(address)": "ebcfcf6b",
        "blacklistSelf()": "723ea115",
        "blacklistUser(address)": "fcbca456",
        "blacklistedUsers(address)": "22c0aec7",
        "borrowedCrush()": "0da20192",
        "crush()": "b359a9f9",
        "earlyWithdrawFee()": "a80a7882",
        "liquidityBankroll()": "c4527793",
        "lockPeriod()": "3fd8b02f",
        "owner()": "8da5cb5b",
        "partnerShare()": "67b8a7d6",
        "pendingBakrollThreshold()": "b2a139db",
        "pendingBankroll()": "e6d1c465",
        "registerLoss(uint256[],address[])": "a4ae1c56",
        "registerWin(uint256[],address[])": "f2150bbb",
        "releaseBetLock(address[])": "815b7386",
        "renounceOwnership()": "715018a6",
        "reserveAddress()": "f79ed94b",
        "reserveShare()": "e7cb3d67",
        "setBankrollShare(uint256)": "ec7babec",
        "setEarlyWithdrawFee(uint256)": "c22982f4",
        "setLockPeriod(uint256)": "779972da",
        "setPendingBankrollThreshold(uint256)": "d48b0226",
        "setReserveAddress(address)": "14673d31",
        "setSlipage(uint256)": "b9c8c4ba",
        "setStakingPool(address)": "3028f63a",
        "slipage()": "903cf764",
        "stakingPool()": "0c56ae3b",
        "swapRouter()": "c31c9c07",
        "token()": "fc0c546a",
        "transferOwnership(address)": "f2fde38b",
        "updateBetLock(address[])": "afb62d70",
        "whitelistUser(address)": "4a4c560d",
        "withdrawBet(uint256)": "a2b1a2cc",
        "withdrawBetForUser(uint256,address)": "d4b9661c"
    },
    "gasEstimates": {
        "creation": {
            "codeDepositCost": "3827400",
            "executionCost": "infinite",
            "totalCost": "infinite"
        },
        "external": {
            "DIVISOR()": "266",
            "addToUserWinnings(uint256,address)": "infinite",
            "addToUserWinningsNative(uint256,address)": "infinite",
            "addbet(uint256)": "infinite",
            "addbetWithAddress(uint256,address)": "infinite",
            "balanceOf(address)": "1232",
            "bankroll()": "infinite",
            "bankrollShare()": "1131",
            "betAmounts(address)": "2907",
            "blacklistSelf()": "21182",
            "blacklistUser(address)": "infinite",
            "blacklistedUsers(address)": "1271",
            "borrowedCrush()": "1089",
            "crush()": "infinite",
            "earlyWithdrawFee()": "1066",
            "liquidityBankroll()": "1148",
            "lockPeriod()": "1088",
            "owner()": "1148",
            "partnerShare()": "1044",
            "pendingBakrollThreshold()": "1110",
            "pendingBankroll()": "1065",
            "registerLoss(uint256[],address[])": "infinite",
            "registerWin(uint256[],address[])": "infinite",
            "releaseBetLock(address[])": "infinite",
            "renounceOwnership()": "infinite",
            "reserveAddress()": "1147",
            "reserveShare()": "1087",
            "setBankrollShare(uint256)": "infinite",
            "setEarlyWithdrawFee(uint256)": "infinite",
            "setLockPeriod(uint256)": "infinite",
            "setPendingBankrollThreshold(uint256)": "infinite",
            "setReserveAddress(address)": "infinite",
            "setSlipage(uint256)": "infinite",
            "setStakingPool(address)": "infinite",
            "slipage()": "1131",
            "stakingPool()": "1084",
            "swapRouter()": "infinite",
            "token()": "infinite",
            "transferOwnership(address)": "infinite",
            "updateBetLock(address[])": "infinite",
            "whitelistUser(address)": "infinite",
            "withdrawBet(uint256)": "infinite",
            "withdrawBetForUser(uint256,address)": "infinite"
        },
        "internal": {
            "fetchAmountOwed(uint256,address)": "infinite",
            "transferToBankroll(uint256)": "infinite"
        }
    }
}