{
    "contractName": "BitcrushLiquidityBankroll",
    "abi": [
        {
            "inputs": [
                {
                    "internalType": "address",
                    "name": "_admin",
                    "type": "address"
                }
            ],
            "stateMutability": "nonpayable",
            "type": "constructor"
        },
        {
            "anonymous": false,
            "inputs": [
                {
                    "indexed": true,
                    "internalType": "address",
                    "name": "previousOwner",
                    "type": "address"
                },
                {
                    "indexed": true,
                    "internalType": "address",
                    "name": "newOwner",
                    "type": "address"
                }
            ],
            "name": "OwnershipTransferred",
            "type": "event"
        },
        {
            "inputs": [
                {
                    "internalType": "uint256",
                    "name": "_amount",
                    "type": "uint256"
                },
                {
                    "internalType": "address",
                    "name": "_token",
                    "type": "address"
                }
            ],
            "name": "addToBankroll",
            "outputs": [],
            "stateMutability": "nonpayable",
            "type": "function"
        },
        {
            "inputs": [
                {
                    "internalType": "uint256",
                    "name": "_amount",
                    "type": "uint256"
                },
                {
                    "internalType": "address",
                    "name": "_token",
                    "type": "address"
                }
            ],
            "name": "addUserLoss",
            "outputs": [],
            "stateMutability": "nonpayable",
            "type": "function"
        },
        {
            "inputs": [
                {
                    "internalType": "address",
                    "name": "_address",
                    "type": "address"
                }
            ],
            "name": "authorizeAddress",
            "outputs": [],
            "stateMutability": "nonpayable",
            "type": "function"
        },
        {
            "inputs": [
                {
                    "internalType": "address",
                    "name": "",
                    "type": "address"
                }
            ],
            "name": "authorizedAddresses",
            "outputs": [
                {
                    "internalType": "bool",
                    "name": "",
                    "type": "bool"
                }
            ],
            "stateMutability": "view",
            "type": "function"
        },
        {
            "inputs": [
                {
                    "internalType": "address",
                    "name": "_token",
                    "type": "address"
                }
            ],
            "name": "balance",
            "outputs": [
                {
                    "internalType": "uint256",
                    "name": "",
                    "type": "uint256"
                }
            ],
            "stateMutability": "view",
            "type": "function"
        },
        {
            "inputs": [
                {
                    "internalType": "address",
                    "name": "",
                    "type": "address"
                }
            ],
            "name": "bankroll",
            "outputs": [
                {
                    "internalType": "uint256",
                    "name": "",
                    "type": "uint256"
                }
            ],
            "stateMutability": "view",
            "type": "function"
        },
        {
            "inputs": [],
            "name": "owner",
            "outputs": [
                {
                    "internalType": "address",
                    "name": "",
                    "type": "address"
                }
            ],
            "stateMutability": "view",
            "type": "function"
        },
        {
            "inputs": [
                {
                    "internalType": "uint256",
                    "name": "_amount",
                    "type": "uint256"
                },
                {
                    "internalType": "address",
                    "name": "_winner",
                    "type": "address"
                },
                {
                    "internalType": "address",
                    "name": "_token",
                    "type": "address"
                }
            ],
            "name": "payOutUserWinning",
            "outputs": [],
            "stateMutability": "nonpayable",
            "type": "function"
        },
        {
            "inputs": [
                {
                    "internalType": "address",
                    "name": "_address",
                    "type": "address"
                }
            ],
            "name": "removeAuthorization",
            "outputs": [],
            "stateMutability": "nonpayable",
            "type": "function"
        },
        {
            "inputs": [],
            "name": "renounceOwnership",
            "outputs": [],
            "stateMutability": "nonpayable",
            "type": "function"
        },
        {
            "inputs": [
                {
                    "internalType": "address",
                    "name": "_admin",
                    "type": "address"
                }
            ],
            "name": "setAdmin",
            "outputs": [],
            "stateMutability": "nonpayable",
            "type": "function"
        },
        {
            "inputs": [
                {
                    "internalType": "address",
                    "name": "newOwner",
                    "type": "address"
                }
            ],
            "name": "transferOwnership",
            "outputs": [],
            "stateMutability": "nonpayable",
            "type": "function"
        }
    ],
    "bytecode": "608060405234801561001057600080fd5b50604051610de3380380610de38339818101604052602081101561003357600080fd5b505160006100486001600160e01b036100b716565b600080546001600160a01b0319166001600160a01b0383169081178255604051929350917f8be0079c531659141344cd1fd0a4f28419497f9722a3daafe3b4186f6b6457e0908290a350600280546001600160a01b0319166001600160a01b03929092169190911790556100bb565b3390565b610d19806100ca6000396000f3fe608060405234801561001057600080fd5b50600436106100b45760003560e01c8063bfd454ed11610071578063bfd454ed1461018d578063c0f36970146101b9578063e3d670d7146101f1578063ef8ce9fb14610217578063f19e207e14610243578063f2fde38b1461027d576100b4565b80634a5db3b5146100b9578063704b6c02146100e1578063715018a6146101075780638da5cb5b1461010f57806394f3f81d14610133578063bb11ecd514610159575b600080fd5b6100df600480360360208110156100cf57600080fd5b50356001600160a01b03166102a3565b005b6100df600480360360208110156100f757600080fd5b50356001600160a01b031661031f565b6100df610399565b61011761043b565b604080516001600160a01b039092168252519081900360200190f35b6100df6004803603602081101561014957600080fd5b50356001600160a01b031661044a565b6100df6004803603606081101561016f57600080fd5b508035906001600160a01b03602082013581169160400135166104c3565b6100df600480360360408110156101a357600080fd5b50803590602001356001600160a01b031661057f565b6101df600480360360208110156101cf57600080fd5b50356001600160a01b03166105e0565b60408051918252519081900360200190f35b6101df6004803603602081101561020757600080fd5b50356001600160a01b03166105f2565b6100df6004803603604081101561022d57600080fd5b50803590602001356001600160a01b031661060d565b6102696004803603602081101561025957600080fd5b50356001600160a01b031661066c565b604080519115158252519081900360200190f35b6100df6004803603602081101561029357600080fd5b50356001600160a01b0316610681565b6102ab6106e5565b6000546001600160a01b039081169116146102fb576040805162461bcd60e51b81526020600482018190526024820152600080516020610cc4833981519152604482015290519081900360640190fd5b6001600160a01b03166000908152600360205260409020805460ff19166001179055565b6103276106e5565b6000546001600160a01b03908116911614610377576040805162461bcd60e51b81526020600482018190526024820152600080516020610cc4833981519152604482015290519081900360640190fd5b600280546001600160a01b0319166001600160a01b0392909216919091179055565b6103a16106e5565b6000546001600160a01b039081169116146103f1576040805162461bcd60e51b81526020600482018190526024820152600080516020610cc4833981519152604482015290519081900360640190fd5b600080546040516001600160a01b03909116907f8be0079c531659141344cd1fd0a4f28419497f9722a3daafe3b4186f6b6457e0908390a3600080546001600160a01b0319169055565b6000546001600160a01b031690565b6104526106e5565b6000546001600160a01b039081169116146104a2576040805162461bcd60e51b81526020600482018190526024820152600080516020610cc4833981519152604482015290519081900360640190fd5b6001600160a01b03166000908152600360205260409020805460ff19169055565b3360009081526003602052604090205460ff16151560011461052c576040805162461bcd60e51b815260206004820152601960248201527f43616c6c6572206d75737420626520617574686f72697a656400000000000000604482015290519081900360640190fd5b610538838333846106e9565b6001600160a01b038116600090815260016020526040902054610561908463ffffffff61077416565b6001600160a01b039091166000908152600160205260409020555050565b61059a6001600160a01b03821633308563ffffffff6107bd16565b6001600160a01b0381166000908152600160205260409020546105c3908363ffffffff61081d16565b6001600160a01b0390911660009081526001602052604090205550565b60016020526000908152604090205481565b6001600160a01b031660009081526001602052604090205490565b6002546001600160a01b0316331461057f576040805162461bcd60e51b815260206004820152601f60248201527f416363657373207265737472696374656420746f2061646d696e206f6e6c7900604482015290519081900360640190fd5b60036020526000908152604090205460ff1681565b6106896106e5565b6000546001600160a01b039081169116146106d9576040805162461bcd60e51b81526020600482018190526024820152600080516020610cc4833981519152604482015290519081900360640190fd5b6106e281610877565b50565b3390565b6107036001600160a01b038216838663ffffffff61091716565b604080516336834dcf60e11b8152600481018690526001600160a01b03858116602483015291518492831691636d069b9e91604480830192600092919082900301818387803b15801561075557600080fd5b505af1158015610769573d6000803e3d6000fd5b505050505050505050565b60006107b683836040518060400160405280601e81526020017f536166654d6174683a207375627472616374696f6e206f766572666c6f77000081525061096e565b9392505050565b604080516001600160a01b0380861660248301528416604482015260648082018490528251808303909101815260849091019091526020810180516001600160e01b03166323b872dd60e01b179052610817908590610a05565b50505050565b6000828201838110156107b6576040805162461bcd60e51b815260206004820152601b60248201527f536166654d6174683a206164646974696f6e206f766572666c6f770000000000604482015290519081900360640190fd5b6001600160a01b0381166108bc5760405162461bcd60e51b8152600401808060200182810382526026815260200180610c9e6026913960400191505060405180910390fd5b600080546040516001600160a01b03808516939216917f8be0079c531659141344cd1fd0a4f28419497f9722a3daafe3b4186f6b6457e091a3600080546001600160a01b0319166001600160a01b0392909216919091179055565b604080516001600160a01b038416602482015260448082018490528251808303909101815260649091019091526020810180516001600160e01b031663a9059cbb60e01b179052610969908490610a05565b505050565b600081848411156109fd5760405162461bcd60e51b81526004018080602001828103825283818151815260200191508051906020019080838360005b838110156109c25781810151838201526020016109aa565b50505050905090810190601f1680156109ef5780820380516001836020036101000a031916815260200191505b509250505060405180910390fd5b505050900390565b6060610a5a826040518060400160405280602081526020017f5361666542455032303a206c6f772d6c6576656c2063616c6c206661696c6564815250856001600160a01b0316610ab69092919063ffffffff16565b80519091501561096957808060200190516020811015610a7957600080fd5b50516109695760405162461bcd60e51b815260040180806020018281038252602a815260200180610c74602a913960400191505060405180910390fd5b6060610ac58484600085610acd565b949350505050565b6060610ad885610c3a565b610b29576040805162461bcd60e51b815260206004820152601d60248201527f416464726573733a2063616c6c20746f206e6f6e2d636f6e7472616374000000604482015290519081900360640190fd5b60006060866001600160a01b031685876040518082805190602001908083835b60208310610b685780518252601f199092019160209182019101610b49565b6001836020036101000a03801982511681845116808217855250505050505090500191505060006040518083038185875af1925050503d8060008114610bca576040519150601f19603f3d011682016040523d82523d6000602084013e610bcf565b606091505b50915091508115610be3579150610ac59050565b805115610bf35780518082602001fd5b60405162461bcd60e51b81526020600482018181528651602484015286518793919283926044019190850190808383600083156109c25781810151838201526020016109aa565b6000813f7fc5d2460186f7233c927e7db2dcc703c0e500b653ca82273b7bfad8045d85a470818114801590610ac557505015159291505056fe5361666542455032303a204245503230206f7065726174696f6e20646964206e6f7420737563636565644f776e61626c653a206e6577206f776e657220697320746865207a65726f20616464726573734f776e61626c653a2063616c6c6572206973206e6f7420746865206f776e6572a2646970667358221220a4dba7a98bea0e3b13f9e21398f4103068cb321401a57704485138d165ffb88164736f6c63430006050033",
    "sourcePath": "/Users/umeralisajid/Documents/Frag/bitcrush/crush_contacts_old/contracts/LiquidityBankroll.sol",
    "compiler": {
        "name": "solc",
        "version": "0.6.5+commit.f956cc89"
    },
    "functionHashes": {
        "addToBankroll(uint256,address)": "ef8ce9fb",
        "addUserLoss(uint256,address)": "bfd454ed",
        "authorizeAddress(address)": "4a5db3b5",
        "authorizedAddresses(address)": "f19e207e",
        "balance(address)": "e3d670d7",
        "bankroll(address)": "c0f36970",
        "owner()": "8da5cb5b",
        "payOutUserWinning(uint256,address,address)": "bb11ecd5",
        "removeAuthorization(address)": "94f3f81d",
        "renounceOwnership()": "715018a6",
        "setAdmin(address)": "704b6c02",
        "transferOwnership(address)": "f2fde38b"
    },
    "gasEstimates": {
        "creation": {
            "codeDepositCost": "670600",
            "executionCost": "infinite",
            "totalCost": "infinite"
        },
        "external": {
            "addToBankroll(uint256,address)": "infinite",
            "addUserLoss(uint256,address)": "infinite",
            "authorizeAddress(address)": "infinite",
            "authorizedAddresses(address)": "1224",
            "balance(address)": "1186",
            "bankroll(address)": "1146",
            "owner()": "1104",
            "payOutUserWinning(uint256,address,address)": "infinite",
            "removeAuthorization(address)": "infinite",
            "renounceOwnership()": "infinite",
            "setAdmin(address)": "infinite",
            "transferOwnership(address)": "infinite"
        },
        "internal": {
            "transferWinnings(uint256,address,address,address)": "infinite"
        }
    }
}