{
    "contractName": "BitcrushBankroll",
    "abi": [
        {
            "inputs": [
                {
                    "internalType": "contract CRUSHToken",
                    "name": "_crush",
                    "type": "address"
                },
                {
                    "internalType": "contract BitcrushStaking",
                    "name": "_stakingPool",
                    "type": "address"
                },
                {
                    "internalType": "address",
                    "name": "_reserve",
                    "type": "address"
                },
                {
                    "internalType": "address",
                    "name": "_lottery",
                    "type": "address"
                },
                {
                    "internalType": "uint256",
                    "name": "_profitShare",
                    "type": "uint256"
                },
                {
                    "internalType": "uint256",
                    "name": "_houseBankrollShare",
                    "type": "uint256"
                },
                {
                    "internalType": "uint256",
                    "name": "_lotteryShare",
                    "type": "uint256"
                },
                {
                    "internalType": "uint256",
                    "name": "_reserveShare",
                    "type": "uint256"
                }
            ],
            "stateMutability": "nonpayable",
            "type": "constructor"
        },
        {
            "anonymous": false,
            "inputs": [
                {
                    "indexed": true,
                    "internalType": "address",
                    "name": "previousOwner",
                    "type": "address"
                },
                {
                    "indexed": true,
                    "internalType": "address",
                    "name": "newOwner",
                    "type": "address"
                }
            ],
            "name": "OwnershipTransferred",
            "type": "event"
        },
        {
            "inputs": [],
            "name": "BURN_RATE",
            "outputs": [
                {
                    "internalType": "uint256",
                    "name": "",
                    "type": "uint256"
                }
            ],
            "stateMutability": "view",
            "type": "function"
        },
        {
            "inputs": [],
            "name": "DIVISOR",
            "outputs": [
                {
                    "internalType": "uint256",
                    "name": "",
                    "type": "uint256"
                }
            ],
            "stateMutability": "view",
            "type": "function"
        },
        {
            "inputs": [],
            "name": "EmergencyWithdrawBankroll",
            "outputs": [],
            "stateMutability": "nonpayable",
            "type": "function"
        },
        {
            "inputs": [
                {
                    "internalType": "uint256",
                    "name": "_amount",
                    "type": "uint256"
                }
            ],
            "name": "addToBankroll",
            "outputs": [],
            "stateMutability": "nonpayable",
            "type": "function"
        },
        {
            "inputs": [
                {
                    "internalType": "uint256",
                    "name": "_amount",
                    "type": "uint256"
                }
            ],
            "name": "addUserLoss",
            "outputs": [],
            "stateMutability": "nonpayable",
            "type": "function"
        },
        {
            "inputs": [],
            "name": "brSinceCompound",
            "outputs": [
                {
                    "internalType": "uint256",
                    "name": "",
                    "type": "uint256"
                }
            ],
            "stateMutability": "view",
            "type": "function"
        },
        {
            "inputs": [],
            "name": "crush",
            "outputs": [
                {
                    "internalType": "contract CRUSHToken",
                    "name": "",
                    "type": "address"
                }
            ],
            "stateMutability": "view",
            "type": "function"
        },
        {
            "inputs": [],
            "name": "houseBankrollShare",
            "outputs": [
                {
                    "internalType": "uint256",
                    "name": "",
                    "type": "uint256"
                }
            ],
            "stateMutability": "view",
            "type": "function"
        },
        {
            "inputs": [],
            "name": "liveWallet",
            "outputs": [
                {
                    "internalType": "contract BitcrushLiveWallet",
                    "name": "",
                    "type": "address"
                }
            ],
            "stateMutability": "view",
            "type": "function"
        },
        {
            "inputs": [],
            "name": "lottery",
            "outputs": [
                {
                    "internalType": "address",
                    "name": "",
                    "type": "address"
                }
            ],
            "stateMutability": "view",
            "type": "function"
        },
        {
            "inputs": [],
            "name": "lotteryShare",
            "outputs": [
                {
                    "internalType": "uint256",
                    "name": "",
                    "type": "uint256"
                }
            ],
            "stateMutability": "view",
            "type": "function"
        },
        {
            "inputs": [],
            "name": "negativeBrSinceCompound",
            "outputs": [
                {
                    "internalType": "uint256",
                    "name": "",
                    "type": "uint256"
                }
            ],
            "stateMutability": "view",
            "type": "function"
        },
        {
            "inputs": [],
            "name": "owner",
            "outputs": [
                {
                    "internalType": "address",
                    "name": "",
                    "type": "address"
                }
            ],
            "stateMutability": "view",
            "type": "function"
        },
        {
            "inputs": [
                {
                    "internalType": "uint256",
                    "name": "_amount",
                    "type": "uint256"
                },
                {
                    "internalType": "address",
                    "name": "_winner",
                    "type": "address"
                }
            ],
            "name": "payOutUserWinning",
            "outputs": [],
            "stateMutability": "nonpayable",
            "type": "function"
        },
        {
            "inputs": [],
            "name": "profitShare",
            "outputs": [
                {
                    "internalType": "uint256",
                    "name": "",
                    "type": "uint256"
                }
            ],
            "stateMutability": "view",
            "type": "function"
        },
        {
            "inputs": [],
            "name": "profitThreshold",
            "outputs": [
                {
                    "internalType": "uint256",
                    "name": "",
                    "type": "uint256"
                }
            ],
            "stateMutability": "view",
            "type": "function"
        },
        {
            "inputs": [],
            "name": "renounceOwnership",
            "outputs": [],
            "stateMutability": "nonpayable",
            "type": "function"
        },
        {
            "inputs": [],
            "name": "reserve",
            "outputs": [
                {
                    "internalType": "address",
                    "name": "",
                    "type": "address"
                }
            ],
            "stateMutability": "view",
            "type": "function"
        },
        {
            "inputs": [],
            "name": "reserveShare",
            "outputs": [
                {
                    "internalType": "uint256",
                    "name": "",
                    "type": "uint256"
                }
            ],
            "stateMutability": "view",
            "type": "function"
        },
        {
            "inputs": [
                {
                    "internalType": "uint256",
                    "name": "_houseBankrollShare",
                    "type": "uint256"
                }
            ],
            "name": "setHouseBankrollShare",
            "outputs": [],
            "stateMutability": "nonpayable",
            "type": "function"
        },
        {
            "inputs": [
                {
                    "internalType": "contract BitcrushLiveWallet",
                    "name": "_liveWallet",
                    "type": "address"
                }
            ],
            "name": "setLiveWallet",
            "outputs": [],
            "stateMutability": "nonpayable",
            "type": "function"
        },
        {
            "inputs": [
                {
                    "internalType": "uint256",
                    "name": "_lotteryShare",
                    "type": "uint256"
                }
            ],
            "name": "setLotteryShare",
            "outputs": [],
            "stateMutability": "nonpayable",
            "type": "function"
        },
        {
            "inputs": [
                {
                    "internalType": "uint256",
                    "name": "_profitShare",
                    "type": "uint256"
                }
            ],
            "name": "setProfitShare",
            "outputs": [],
            "stateMutability": "nonpayable",
            "type": "function"
        },
        {
            "inputs": [
                {
                    "internalType": "uint256",
                    "name": "_threshold",
                    "type": "uint256"
                }
            ],
            "name": "setProfitThreshold",
            "outputs": [],
            "stateMutability": "nonpayable",
            "type": "function"
        },
        {
            "inputs": [
                {
                    "internalType": "uint256",
                    "name": "_reserveShare",
                    "type": "uint256"
                }
            ],
            "name": "setReserveShare",
            "outputs": [],
            "stateMutability": "nonpayable",
            "type": "function"
        },
        {
            "inputs": [],
            "name": "stakingPool",
            "outputs": [
                {
                    "internalType": "contract BitcrushStaking",
                    "name": "",
                    "type": "address"
                }
            ],
            "stateMutability": "view",
            "type": "function"
        },
        {
            "inputs": [],
            "name": "totalBankroll",
            "outputs": [
                {
                    "internalType": "uint256",
                    "name": "",
                    "type": "uint256"
                }
            ],
            "stateMutability": "view",
            "type": "function"
        },
        {
            "inputs": [
                {
                    "internalType": "address",
                    "name": "newOwner",
                    "type": "address"
                }
            ],
            "name": "transferOwnership",
            "outputs": [],
            "stateMutability": "nonpayable",
            "type": "function"
        },
        {
            "inputs": [],
            "name": "transferProfit",
            "outputs": [
                {
                    "internalType": "uint256",
                    "name": "",
                    "type": "uint256"
                }
            ],
            "stateMutability": "nonpayable",
            "type": "function"
        }
    ],
    "bytecode": "60806040526002805460ff19169055600060095534801561001f57600080fd5b506040516118e03803806118e0833981810160405261010081101561004357600080fd5b508051602082015160408301516060840151608085015160a086015160c087015160e09097015195969495939492939192909160006100896001600160e01b0361013e16565b600080546001600160a01b0319166001600160a01b0383169081178255604051929350917f8be0079c531659141344cd1fd0a4f28419497f9722a3daafe3b4186f6b6457e0908290a350600480546001600160a01b03998a166001600160a01b03199182161790915560058054988a1698821698909817909755600780549689169688169690961790955560088054949097169390951692909217909455600a93909355600b92909255600c55600d55610142565b3390565b61178f806101516000396000f3fe608060405234801561001057600080fd5b50600436106101cf5760003560e01c80638da5cb5b11610104578063c2e50b16116100a2578063ee93466611610071578063ee9346661461038c578063f2fde38b146103a9578063f846a885146103cf578063f974821a146103d7576101cf565b8063c2e50b1614610357578063cd3293de14610374578063e3aeeb461461037c578063e7cb3d6714610384576101cf565b8063abfe0b34116100de578063abfe0b3414610337578063b359a9f91461033f578063b4055d1514610347578063ba13a5721461034f576101cf565b80638da5cb5b146103015780638e4a6142146103095780639e13900c14610311576101cf565b806341112c4c11610171578063563b6b711161014b578063563b6b71146102a857806361433d88146102c5578063715018a6146102f15780637d903ecc146102f9576101cf565b806341112c4c1461027b57806345c9c1d1146102985780634e584e11146102a0576101cf565b806328821182116101ad57806328821182146102345780632feda8d4146102515780633410fe6e1461026b5780633e1f55e414610273576101cf565b80630c56ae3b146101d4578063149c3bf9146101f8578063151fac7b14610217575b600080fd5b6101dc6103df565b604080516001600160a01b039092168252519081900360200190f35b6102156004803603602081101561020e57600080fd5b50356103ee565b005b6102156004803603602081101561022d57600080fd5b503561044b565b6102156004803603602081101561024a57600080fd5b5035610543565b6102596105a0565b60408051918252519081900360200190f35b6102596105a6565b6102596105ac565b6102156004803603602081101561029157600080fd5b50356105b2565b61025961060f565b6102596109a0565b610215600480360360208110156102be57600080fd5b50356109a6565b610215600480360360408110156102db57600080fd5b50803590602001356001600160a01b0316610a03565b610215610b45565b610259610be7565b6101dc610bed565b610259610bfc565b6102156004803603602081101561032757600080fd5b50356001600160a01b0316610c02565b610215610c24565b6101dc610d08565b610259610d17565b6101dc610d1d565b6102156004803603602081101561036d57600080fd5b5035610d2c565b6101dc611112565b6101dc611121565b610259611130565b610215600480360360208110156103a257600080fd5b5035611136565b610215600480360360208110156103bf57600080fd5b50356001600160a01b0316611193565b6102596111f4565b6102596111f9565b6005546001600160a01b031681565b6103f66111ff565b6000546001600160a01b03908116911614610446576040805162461bcd60e51b81526020600482018190526024820152600080516020611717833981519152604482015290519081900360640190fd5b600d55565b6104536111ff565b6000546001600160a01b039081169116146104a3576040805162461bcd60e51b81526020600482018190526024820152600080516020611717833981519152604482015290519081900360640190fd5b60048054604080516323b872dd60e01b8152339381019390935230602484015260448301849052516001600160a01b03909116916323b872dd9160648083019260209291908290030181600087803b1580156104fe57600080fd5b505af1158015610512573d6000803e3d6000fd5b505050506040513d602081101561052857600080fd5b505060015461053d908263ffffffff61120316565b60015550565b61054b6111ff565b6000546001600160a01b0390811691161461059b576040805162461bcd60e51b81526020600482018190526024820152600080516020611717833981519152604482015290519081900360640190fd5b600955565b600b5481565b61271081565b600a5481565b6105ba6111ff565b6000546001600160a01b0390811691161461060a576040805162461bcd60e51b81526020600482018190526024820152600080516020611717833981519152604482015290519081900360640190fd5b600b55565b6005546000906001600160a01b03163314610671576040805162461bcd60e51b815260206004820152601b60248201527f43616c6c6572206d757374206265207374616b696e6720706f6f6c0000000000604482015290519081900360640190fd5b600954600e541061099957600a54600090156106c85760006106b26127106106a6600a54600e5461126690919063ffffffff16565b9063ffffffff6112bf16565b90506106c4828263ffffffff61120316565b9150505b600d54156107795760006106ef6127106106a6600d54600e5461126690919063ffffffff16565b600480546007546040805163a9059cbb60e01b81526001600160a01b03928316948101949094526024840185905251939450169163a9059cbb916044808201926020929091908290030181600087803b15801561074b57600080fd5b505af115801561075f573d6000803e3d6000fd5b505050506040513d602081101561077557600080fd5b5050505b600c541561082a5760006107a06127106106a6600c54600e5461126690919063ffffffff16565b600480546008546040805163a9059cbb60e01b81526001600160a01b03928316948101949094526024840185905251939450169163a9059cbb916044808201926020929091908290030181600087803b1580156107fc57600080fd5b505af1158015610810573d6000803e3d6000fd5b505050506040513d602081101561082657600080fd5b5050505b60006108486127106106a66064600e5461126690919063ffffffff16565b6004805460408051630852cd8d60e31b8152928301849052519293506001600160a01b0316916342966c689160248082019260009290919082900301818387803b15801561089557600080fd5b505af11580156108a9573d6000803e3d6000fd5b505050506000600b5411156108f25760006108d76127106106a6600b54600e5461126690919063ffffffff16565b600e549091506108ed908263ffffffff61130116565b600e55505b600e546001546109079163ffffffff61130116565b600155600480546005546040805163a9059cbb60e01b81526001600160a01b0392831694810194909452602484018690525191169163a9059cbb9160448083019260209291908290030181600087803b15801561096357600080fd5b505af1158015610977573d6000803e3d6000fd5b505050506040513d602081101561098d57600080fd5b5091925061099d915050565b5060005b90565b600c5481565b6109ae6111ff565b6000546001600160a01b039081169116146109fe576040805162461bcd60e51b81526020600482018190526024820152600080516020611717833981519152604482015290519081900360640190fd5b600a55565b6006546001600160a01b03163314610a4c5760405162461bcd60e51b81526004018080602001828103825260238152602001806117376023913960400191505060405180910390fd5b600154821115610b18576000610a6d6001548461130190919063ffffffff16565b6002805460ff19166001179055600554604080516349fb5e4760e01b8152600481018490526001600160a01b03868116602483015291519394509116916349fb5e479160448082019260009290919082900301818387803b158015610ad157600080fd5b505af1158015610ae5573d6000803e3d6000fd5b5050600354610afd925090508263ffffffff61120316565b600355600154610b0d9083611343565b506000600155610b38565b600154610b2b908363ffffffff61130116565b600155610b388282611343565b610b4182611439565b5050565b610b4d6111ff565b6000546001600160a01b03908116911614610b9d576040805162461bcd60e51b81526020600482018190526024820152600080516020611717833981519152604482015290519081900360640190fd5b600080546040516001600160a01b03909116907f8be0079c531659141344cd1fd0a4f28419497f9722a3daafe3b4186f6b6457e0908390a3600080546001600160a01b0319169055565b600e5481565b6000546001600160a01b031690565b600f5481565b600680546001600160a01b0319166001600160a01b0392909216919091179055565b610c2c6111ff565b6000546001600160a01b03908116911614610c7c576040805162461bcd60e51b81526020600482018190526024820152600080516020611717833981519152604482015290519081900360640190fd5b600480546001546040805163a9059cbb60e01b815233948101949094526024840191909152516001600160a01b039091169163a9059cbb9160448083019260209291908290030181600087803b158015610cd557600080fd5b505af1158015610ce9573d6000803e3d6000fd5b505050506040513d6020811015610cff57600080fd5b50506000600155565b6004546001600160a01b031681565b60015481565b6008546001600160a01b031681565b6006546001600160a01b03163314610d755760405162461bcd60e51b81526004018080602001828103825260238152602001806117376023913960400191505060405180910390fd5b60025460ff16151560011415611069576003548110610f5c576000610da56003548361130190919063ffffffff16565b60048054600554600354604080516323b872dd60e01b815233958101959095526001600160a01b03928316602486015260448501919091525193945016916323b872dd916064808201926020929091908290030181600087803b158015610e0b57600080fd5b505af1158015610e1f573d6000803e3d6000fd5b505050506040513d6020811015610e3557600080fd5b5050600554600354604080516338e7eaa960e21b81526004810192909252516001600160a01b039092169163e39faaa49160248082019260009290919082900301818387803b158015610e8757600080fd5b505af1158015610e9b573d6000803e3d6000fd5b5050600060038190556002805460ff1916905560048054604080516323b872dd60e01b8152339381019390935230602484015260448301879052516001600160a01b0390911694506323b872dd935060648083019360209383900390910190829087803b158015610f0b57600080fd5b505af1158015610f1f573d6000803e3d6000fd5b505050506040513d6020811015610f3557600080fd5b5050600154610f4a908263ffffffff61120316565b600155610f56816114ba565b50611064565b60048054600554604080516323b872dd60e01b815233948101949094526001600160a01b03918216602485015260448401859052519116916323b872dd9160648083019260209291908290030181600087803b158015610fbb57600080fd5b505af1158015610fcf573d6000803e3d6000fd5b505050506040513d6020811015610fe557600080fd5b5050600554604080516338e7eaa960e21b81526004810184905290516001600160a01b039092169163e39faaa49160248082019260009290919082900301818387803b15801561103457600080fd5b505af1158015611048573d6000803e3d6000fd5b5050600354611060925090508263ffffffff61130116565b6003555b61110f565b60048054604080516323b872dd60e01b8152339381019390935230602484015260448301849052516001600160a01b03909116916323b872dd9160648083019260209291908290030181600087803b1580156110c457600080fd5b505af11580156110d8573d6000803e3d6000fd5b505050506040513d60208110156110ee57600080fd5b5050600154611103908263ffffffff61120316565b60015561110f816114ba565b50565b6007546001600160a01b031681565b6006546001600160a01b031681565b600d5481565b61113e6111ff565b6000546001600160a01b0390811691161461118e576040805162461bcd60e51b81526020600482018190526024820152600080516020611717833981519152604482015290519081900360640190fd5b600c55565b61119b6111ff565b6000546001600160a01b039081169116146111eb576040805162461bcd60e51b81526020600482018190526024820152600080516020611717833981519152604482015290519081900360640190fd5b61110f81611533565b606481565b60095481565b3390565b60008282018381101561125d576040805162461bcd60e51b815260206004820152601b60248201527f536166654d6174683a206164646974696f6e206f766572666c6f770000000000604482015290519081900360640190fd5b90505b92915050565b60008261127557506000611260565b8282028284828161128257fe5b041461125d5760405162461bcd60e51b81526004018080602001828103825260218152602001806116f66021913960400191505060405180910390fd5b600061125d83836040518060400160405280601a81526020017f536166654d6174683a206469766973696f6e206279207a65726f0000000000008152506115d3565b600061125d83836040518060400160405280601e81526020017f536166654d6174683a207375627472616374696f6e206f766572666c6f770000815250611675565b600480546006546040805163a9059cbb60e01b81526001600160a01b0392831694810194909452602484018690525191169163a9059cbb9160448083019260209291908290030181600087803b15801561139c57600080fd5b505af11580156113b0573d6000803e3d6000fd5b505050506040513d60208110156113c657600080fd5b505060065460408051630f62cf8d60e41b8152600481018590526001600160a01b0384811660248301529151919092169163f62cf8d091604480830192600092919082900301818387803b15801561141d57600080fd5b505af1158015611431573d6000803e3d6000fd5b505050505050565b600f541561145c57600f54611454908263ffffffff61120316565b600f5561110f565b600e548111156114a157600061147d600e548361130190919063ffffffff16565b6000600e55600f54909150611498908263ffffffff61120316565b600f555061110f565b600f546114b4908263ffffffff61120316565b600f5550565b600f541561151a57600f548111156115075760006114e3600f548361130190919063ffffffff16565b6000600f55600e549091506114fe908263ffffffff61120316565b600e5550611064565b600f54611454908263ffffffff61130116565b600e5461152d908263ffffffff61120316565b600e5550565b6001600160a01b0381166115785760405162461bcd60e51b81526004018080602001828103825260268152602001806116d06026913960400191505060405180910390fd5b600080546040516001600160a01b03808516939216917f8be0079c531659141344cd1fd0a4f28419497f9722a3daafe3b4186f6b6457e091a3600080546001600160a01b0319166001600160a01b0392909216919091179055565b6000818361165f5760405162461bcd60e51b81526004018080602001828103825283818151815260200191508051906020019080838360005b8381101561162457818101518382015260200161160c565b50505050905090810190601f1680156116515780820380516001836020036101000a031916815260200191505b509250505060405180910390fd5b50600083858161166b57fe5b0495945050505050565b600081848411156116c75760405162461bcd60e51b815260206004820181815283516024840152835190928392604490910191908501908083836000831561162457818101518382015260200161160c565b50505090039056fe4f776e61626c653a206e6577206f776e657220697320746865207a65726f2061646472657373536166654d6174683a206d756c7469706c69636174696f6e206f766572666c6f774f776e61626c653a2063616c6c6572206973206e6f7420746865206f776e657243616c6c6572206d757374206265206269746372757368206c6976652077616c6c6574a26469706673582212200a86d8e05a217a206724bfe5ae51f47883f8163b0647fd51de02a6b304dc9eb664736f6c63430006020033",
    "sourcePath": "/Users/umerali/Desktop/FRAG/bitcrush/crush_contracts/contracts/HouseBankroll.sol",
    "compiler": {
        "name": "solc",
        "version": "0.6.2+commit.bacdbe57"
    },
    "functionHashes": {
        "BURN_RATE()": "f846a885",
        "DIVISOR()": "3410fe6e",
        "EmergencyWithdrawBankroll()": "abfe0b34",
        "addToBankroll(uint256)": "151fac7b",
        "addUserLoss(uint256)": "c2e50b16",
        "brSinceCompound()": "7d903ecc",
        "crush()": "b359a9f9",
        "houseBankrollShare()": "2feda8d4",
        "liveWallet()": "e3aeeb46",
        "lottery()": "ba13a572",
        "lotteryShare()": "4e584e11",
        "negativeBrSinceCompound()": "8e4a6142",
        "owner()": "8da5cb5b",
        "payOutUserWinning(uint256,address)": "61433d88",
        "profitShare()": "3e1f55e4",
        "profitThreshold()": "f974821a",
        "renounceOwnership()": "715018a6",
        "reserve()": "cd3293de",
        "reserveShare()": "e7cb3d67",
        "setHouseBankrollShare(uint256)": "41112c4c",
        "setLiveWallet(address)": "9e13900c",
        "setLotteryShare(uint256)": "ee934666",
        "setProfitShare(uint256)": "563b6b71",
        "setProfitThreshold(uint256)": "28821182",
        "setReserveShare(uint256)": "149c3bf9",
        "stakingPool()": "0c56ae3b",
        "totalBankroll()": "b4055d15",
        "transferOwnership(address)": "f2fde38b",
        "transferProfit()": "45c9c1d1"
    },
    "gasEstimates": {
        "creation": {
            "codeDepositCost": "1206200",
            "executionCost": "infinite",
            "totalCost": "infinite"
        },
        "external": {
            "BURN_RATE()": "286",
            "DIVISOR()": "288",
            "EmergencyWithdrawBankroll()": "infinite",
            "addToBankroll(uint256)": "infinite",
            "addUserLoss(uint256)": "infinite",
            "brSinceCompound()": "1109",
            "crush()": "1104",
            "houseBankrollShare()": "1066",
            "liveWallet()": "1126",
            "lottery()": "1148",
            "lotteryShare()": "1088",
            "negativeBrSinceCompound()": "1066",
            "owner()": "1083",
            "payOutUserWinning(uint256,address)": "infinite",
            "profitShare()": "1110",
            "profitThreshold()": "1108",
            "renounceOwnership()": "infinite",
            "reserve()": "1104",
            "reserveShare()": "1109",
            "setHouseBankrollShare(uint256)": "infinite",
            "setLiveWallet(address)": "21163",
            "setLotteryShare(uint256)": "infinite",
            "setProfitShare(uint256)": "infinite",
            "setProfitThreshold(uint256)": "infinite",
            "setReserveShare(uint256)": "infinite",
            "stakingPool()": "1084",
            "totalBankroll()": "1087",
            "transferOwnership(address)": "infinite",
            "transferProfit()": "infinite"
        },
        "internal": {
            "addToBrSinceCompound(uint256)": "infinite",
            "removeFromBrSinceCompound(uint256)": "infinite",
            "transferWinnings(uint256,address)": "infinite"
        }
    }
}