{
    "contractName": "BitcrushTokenLiveWallet",
    "abi": [
        {
            "inputs": [
                {
                    "internalType": "contract BEP20",
                    "name": "_token",
                    "type": "address"
                },
                {
                    "internalType": "contract CRUSHToken",
                    "name": "_crush",
                    "type": "address"
                },
                {
                    "internalType": "contract BitcrushBankroll",
                    "name": "_bankroll",
                    "type": "address"
                },
                {
                    "internalType": "address",
                    "name": "_reserveAddress",
                    "type": "address"
                },
                {
                    "internalType": "contract IApeRouter02",
                    "name": "_swapRouter",
                    "type": "address"
                },
                {
                    "internalType": "contract BitcrushLiquidityBankroll",
                    "name": "_liquidityBankroll",
                    "type": "address"
                }
            ],
            "stateMutability": "nonpayable",
            "type": "constructor"
        },
        {
            "anonymous": false,
            "inputs": [
                {
                    "indexed": true,
                    "internalType": "address",
                    "name": "_address",
                    "type": "address"
                },
                {
                    "indexed": true,
                    "internalType": "uint256",
                    "name": "_amount",
                    "type": "uint256"
                }
            ],
            "name": "Deposit",
            "type": "event"
        },
        {
            "anonymous": false,
            "inputs": [
                {
                    "indexed": true,
                    "internalType": "address",
                    "name": "_address",
                    "type": "address"
                },
                {
                    "indexed": true,
                    "internalType": "uint256",
                    "name": "_amount",
                    "type": "uint256"
                }
            ],
            "name": "DepositWin",
            "type": "event"
        },
        {
            "anonymous": false,
            "inputs": [
                {
                    "indexed": true,
                    "internalType": "uint256",
                    "name": "_lockPeriod",
                    "type": "uint256"
                }
            ],
            "name": "LockPeriodUpdated",
            "type": "event"
        },
        {
            "anonymous": false,
            "inputs": [
                {
                    "indexed": true,
                    "internalType": "address",
                    "name": "previousOwner",
                    "type": "address"
                },
                {
                    "indexed": true,
                    "internalType": "address",
                    "name": "newOwner",
                    "type": "address"
                }
            ],
            "name": "OwnershipTransferred",
            "type": "event"
        },
        {
            "anonymous": false,
            "inputs": [
                {
                    "indexed": true,
                    "internalType": "address",
                    "name": "_address",
                    "type": "address"
                },
                {
                    "indexed": true,
                    "internalType": "uint256",
                    "name": "_amount",
                    "type": "uint256"
                }
            ],
            "name": "Withdraw",
            "type": "event"
        },
        {
            "inputs": [],
            "name": "DIVISOR",
            "outputs": [
                {
                    "internalType": "uint256",
                    "name": "",
                    "type": "uint256"
                }
            ],
            "stateMutability": "view",
            "type": "function"
        },
        {
            "inputs": [
                {
                    "internalType": "uint256",
                    "name": "_amount",
                    "type": "uint256"
                },
                {
                    "internalType": "address",
                    "name": "_user",
                    "type": "address"
                }
            ],
            "name": "addToUserWinnings",
            "outputs": [],
            "stateMutability": "nonpayable",
            "type": "function"
        },
        {
            "inputs": [
                {
                    "internalType": "uint256",
                    "name": "_amount",
                    "type": "uint256"
                },
                {
                    "internalType": "address",
                    "name": "_user",
                    "type": "address"
                }
            ],
            "name": "addToUserWinningsNative",
            "outputs": [],
            "stateMutability": "nonpayable",
            "type": "function"
        },
        {
            "inputs": [
                {
                    "internalType": "uint256",
                    "name": "_amount",
                    "type": "uint256"
                }
            ],
            "name": "addbet",
            "outputs": [],
            "stateMutability": "nonpayable",
            "type": "function"
        },
        {
            "inputs": [
                {
                    "internalType": "uint256",
                    "name": "_amount",
                    "type": "uint256"
                },
                {
                    "internalType": "address",
                    "name": "_user",
                    "type": "address"
                }
            ],
            "name": "addbetWithAddress",
            "outputs": [],
            "stateMutability": "nonpayable",
            "type": "function"
        },
        {
            "inputs": [
                {
                    "internalType": "address",
                    "name": "_user",
                    "type": "address"
                }
            ],
            "name": "balanceOf",
            "outputs": [
                {
                    "internalType": "uint256",
                    "name": "",
                    "type": "uint256"
                }
            ],
            "stateMutability": "view",
            "type": "function"
        },
        {
            "inputs": [],
            "name": "bankroll",
            "outputs": [
                {
                    "internalType": "contract BitcrushBankroll",
                    "name": "",
                    "type": "address"
                }
            ],
            "stateMutability": "view",
            "type": "function"
        },
        {
            "inputs": [],
            "name": "bankrollShare",
            "outputs": [
                {
                    "internalType": "uint256",
                    "name": "",
                    "type": "uint256"
                }
            ],
            "stateMutability": "view",
            "type": "function"
        },
        {
            "inputs": [
                {
                    "internalType": "address",
                    "name": "",
                    "type": "address"
                }
            ],
            "name": "betAmounts",
            "outputs": [
                {
                    "internalType": "uint256",
                    "name": "balance",
                    "type": "uint256"
                },
                {
                    "internalType": "uint256",
                    "name": "lockTimeStamp",
                    "type": "uint256"
                },
                {
                    "internalType": "uint256",
                    "name": "amountToBorrow",
                    "type": "uint256"
                }
            ],
            "stateMutability": "view",
            "type": "function"
        },
        {
            "inputs": [],
            "name": "blacklistSelf",
            "outputs": [],
            "stateMutability": "nonpayable",
            "type": "function"
        },
        {
            "inputs": [
                {
                    "internalType": "address",
                    "name": "_address",
                    "type": "address"
                }
            ],
            "name": "blacklistUser",
            "outputs": [],
            "stateMutability": "nonpayable",
            "type": "function"
        },
        {
            "inputs": [
                {
                    "internalType": "address",
                    "name": "",
                    "type": "address"
                }
            ],
            "name": "blacklistedUsers",
            "outputs": [
                {
                    "internalType": "bool",
                    "name": "",
                    "type": "bool"
                }
            ],
            "stateMutability": "view",
            "type": "function"
        },
        {
            "inputs": [],
            "name": "borrowedCrush",
            "outputs": [
                {
                    "internalType": "uint256",
                    "name": "",
                    "type": "uint256"
                }
            ],
            "stateMutability": "view",
            "type": "function"
        },
        {
            "inputs": [],
            "name": "crush",
            "outputs": [
                {
                    "internalType": "contract CRUSHToken",
                    "name": "",
                    "type": "address"
                }
            ],
            "stateMutability": "view",
            "type": "function"
        },
        {
            "inputs": [],
            "name": "earlyWithdrawFee",
            "outputs": [
                {
                    "internalType": "uint256",
                    "name": "",
                    "type": "uint256"
                }
            ],
            "stateMutability": "view",
            "type": "function"
        },
        {
            "inputs": [],
            "name": "liquidityBankroll",
            "outputs": [
                {
                    "internalType": "contract BitcrushLiquidityBankroll",
                    "name": "",
                    "type": "address"
                }
            ],
            "stateMutability": "view",
            "type": "function"
        },
        {
            "inputs": [],
            "name": "lockPeriod",
            "outputs": [
                {
                    "internalType": "uint256",
                    "name": "",
                    "type": "uint256"
                }
            ],
            "stateMutability": "view",
            "type": "function"
        },
        {
            "inputs": [],
            "name": "owner",
            "outputs": [
                {
                    "internalType": "address",
                    "name": "",
                    "type": "address"
                }
            ],
            "stateMutability": "view",
            "type": "function"
        },
        {
            "inputs": [],
            "name": "pendingBakrollThreshold",
            "outputs": [
                {
                    "internalType": "uint256",
                    "name": "",
                    "type": "uint256"
                }
            ],
            "stateMutability": "view",
            "type": "function"
        },
        {
            "inputs": [],
            "name": "pendingBankroll",
            "outputs": [
                {
                    "internalType": "uint256",
                    "name": "",
                    "type": "uint256"
                }
            ],
            "stateMutability": "view",
            "type": "function"
        },
        {
            "inputs": [
                {
                    "internalType": "uint256[]",
                    "name": "_bets",
                    "type": "uint256[]"
                },
                {
                    "internalType": "address[]",
                    "name": "_users",
                    "type": "address[]"
                }
            ],
            "name": "registerLoss",
            "outputs": [],
            "stateMutability": "nonpayable",
            "type": "function"
        },
        {
            "inputs": [
                {
                    "internalType": "uint256[]",
                    "name": "_wins",
                    "type": "uint256[]"
                },
                {
                    "internalType": "address[]",
                    "name": "_users",
                    "type": "address[]"
                }
            ],
            "name": "registerWin",
            "outputs": [],
            "stateMutability": "nonpayable",
            "type": "function"
        },
        {
            "inputs": [
                {
                    "internalType": "address[]",
                    "name": "_users",
                    "type": "address[]"
                }
            ],
            "name": "releaseBetLock",
            "outputs": [],
            "stateMutability": "nonpayable",
            "type": "function"
        },
        {
            "inputs": [],
            "name": "renounceOwnership",
            "outputs": [],
            "stateMutability": "nonpayable",
            "type": "function"
        },
        {
            "inputs": [],
            "name": "reserveAddress",
            "outputs": [
                {
                    "internalType": "address",
                    "name": "",
                    "type": "address"
                }
            ],
            "stateMutability": "view",
            "type": "function"
        },
        {
            "inputs": [
                {
                    "internalType": "uint256",
                    "name": "_amount",
                    "type": "uint256"
                }
            ],
            "name": "setBankrollShare",
            "outputs": [],
            "stateMutability": "nonpayable",
            "type": "function"
        },
        {
            "inputs": [
                {
                    "internalType": "uint256",
                    "name": "_earlyWithdrawFee",
                    "type": "uint256"
                }
            ],
            "name": "setEarlyWithdrawFee",
            "outputs": [],
            "stateMutability": "nonpayable",
            "type": "function"
        },
        {
            "inputs": [
                {
                    "internalType": "uint256",
                    "name": "_lockPeriod",
                    "type": "uint256"
                }
            ],
            "name": "setLockPeriod",
            "outputs": [],
            "stateMutability": "nonpayable",
            "type": "function"
        },
        {
            "inputs": [
                {
                    "internalType": "uint256",
                    "name": "_amount",
                    "type": "uint256"
                }
            ],
            "name": "setPendingBankrollThreshold",
            "outputs": [],
            "stateMutability": "nonpayable",
            "type": "function"
        },
        {
            "inputs": [
                {
                    "internalType": "address",
                    "name": "_reserveAddress",
                    "type": "address"
                }
            ],
            "name": "setReserveAddress",
            "outputs": [],
            "stateMutability": "nonpayable",
            "type": "function"
        },
        {
            "inputs": [
                {
                    "internalType": "uint256",
                    "name": "_amount",
                    "type": "uint256"
                }
            ],
            "name": "setSlipage",
            "outputs": [],
            "stateMutability": "nonpayable",
            "type": "function"
        },
        {
            "inputs": [
                {
                    "internalType": "contract BitcrushStaking",
                    "name": "_stakingPool",
                    "type": "address"
                }
            ],
            "name": "setStakingPool",
            "outputs": [],
            "stateMutability": "nonpayable",
            "type": "function"
        },
        {
            "inputs": [],
            "name": "slipage",
            "outputs": [
                {
                    "internalType": "uint256",
                    "name": "",
                    "type": "uint256"
                }
            ],
            "stateMutability": "view",
            "type": "function"
        },
        {
            "inputs": [],
            "name": "stakingPool",
            "outputs": [
                {
                    "internalType": "contract BitcrushStaking",
                    "name": "",
                    "type": "address"
                }
            ],
            "stateMutability": "view",
            "type": "function"
        },
        {
            "inputs": [],
            "name": "swapRouter",
            "outputs": [
                {
                    "internalType": "contract IApeRouter02",
                    "name": "",
                    "type": "address"
                }
            ],
            "stateMutability": "view",
            "type": "function"
        },
        {
            "inputs": [],
            "name": "token",
            "outputs": [
                {
                    "internalType": "contract BEP20",
                    "name": "",
                    "type": "address"
                }
            ],
            "stateMutability": "view",
            "type": "function"
        },
        {
            "inputs": [
                {
                    "internalType": "address",
                    "name": "newOwner",
                    "type": "address"
                }
            ],
            "name": "transferOwnership",
            "outputs": [],
            "stateMutability": "nonpayable",
            "type": "function"
        },
        {
            "inputs": [
                {
                    "internalType": "address[]",
                    "name": "_users",
                    "type": "address[]"
                }
            ],
            "name": "updateBetLock",
            "outputs": [],
            "stateMutability": "nonpayable",
            "type": "function"
        },
        {
            "inputs": [
                {
                    "internalType": "address",
                    "name": "_address",
                    "type": "address"
                }
            ],
            "name": "whitelistUser",
            "outputs": [],
            "stateMutability": "nonpayable",
            "type": "function"
        },
        {
            "inputs": [
                {
                    "internalType": "uint256",
                    "name": "_amount",
                    "type": "uint256"
                }
            ],
            "name": "withdrawBet",
            "outputs": [],
            "stateMutability": "nonpayable",
            "type": "function"
        },
        {
            "inputs": [
                {
                    "internalType": "uint256",
                    "name": "_amount",
                    "type": "uint256"
                },
                {
                    "internalType": "address",
                    "name": "_user",
                    "type": "address"
                }
            ],
            "name": "withdrawBetForUser",
            "outputs": [],
            "stateMutability": "nonpayable",
            "type": "function"
        }
    ],
    "bytecode": "610100604052612a30600555603260075561177060095569021e19e0c9bab2400000600b556064600c553480156200003657600080fd5b50604051620040b5380380620040b5833981810160405260c08110156200005c57600080fd5b508051602082015160408301516060840151608085015160a09095015193949293919290916000620000966001600160e01b036200013d16565b600080546001600160a01b0319166001600160a01b0383169081178255604051929350917f8be0079c531659141344cd1fd0a4f28419497f9722a3daafe3b4186f6b6457e0908290a350606095861b6001600160601b031990811660a05294861b851660c05292851b841660e052600680546001600160a01b03199081166001600160a01b0394851617909155941b90921660805260048054909316911617905562000141565b3390565b60805160601c60a05160601c60c05160601c60e05160601c613e976200021e6000398061098e5280611e595280612b325280612bed5280612f83528061303e528061357852806136335250806115875280611eec52806125795280612b035280612f5452806131be5280613549525080610c4a5280610fc85280611257528061191052806119465280611f3a52806121b9528061230b528061252b5280612c80528061317052806136f35250806116fb5280611f8a52806125c9528061278b528061294d5280612db2528061320e52806133a55250613e976000f3fe608060405234801561001057600080fd5b50600436106102535760003560e01c8063a4ae1c5611610146578063d48b0226116100c3578063f2150bbb11610087578063f2150bbb146107d2578063f2fde38b146108f5578063f62cf8d01461091b578063f79ed94b14610947578063fc0c546a1461094f578063fcbca4561461095757610253565b8063d48b022614610720578063d4b9661c1461073d578063e6d1c46514610769578063ebcfcf6b14610771578063ec7babec146107b557610253565b8063b9c8c4ba1161010a578063b9c8c4ba146106ce578063c22982f4146106eb578063c31c9c0714610708578063c452779314610710578063d0b4541d1461071857610253565b8063a4ae1c56146104f2578063a80a788214610615578063afb62d701461061d578063b2a139db146106be578063b359a9f9146106c657610253565b80636d069b9e116101d45780637efd3813116101985780637efd3813146103f8578063815b7386146104245780638da5cb5b146104c5578063903cf764146104cd578063a2b1a2cc146104d557610253565b80636d069b9e1461037957806370a08231146103a5578063715018a6146103cb578063723ea115146103d3578063779972da146103db57610253565b80633028f63a1161021b5780633028f63a146103005780633410fe6e146103265780633fd8b02f1461032e5780634a4c560d146103365780636145b22c1461035c57610253565b80630c56ae3b146102585780630c657eb01461027c5780630da201921461028457806314673d311461029e57806322c0aec7146102c6575b600080fd5b61026061097d565b604080516001600160a01b039092168252519081900360200190f35b61026061098c565b61028c6109b0565b60408051918252519081900360200190f35b6102c4600480360360208110156102b457600080fd5b50356001600160a01b03166109b6565b005b6102ec600480360360208110156102dc57600080fd5b50356001600160a01b0316610a30565b604080519115158252519081900360200190f35b6102c46004803603602081101561031657600080fd5b50356001600160a01b0316610a45565b61028c610b1d565b61028c610b23565b6102c46004803603602081101561034c57600080fd5b50356001600160a01b0316610b29565b6102c46004803603602081101561037257600080fd5b5035610ba2565b6102c46004803603604081101561038f57600080fd5b50803590602001356001600160a01b0316610cdf565b61028c600480360360208110156103bb57600080fd5b50356001600160a01b0316610d6e565b6102c4610d89565b6102c4610e2b565b6102c4600480360360208110156103f157600080fd5b5035610e4a565b6102c46004803603604081101561040e57600080fd5b50803590602001356001600160a01b0316610f17565b6102c46004803603602081101561043a57600080fd5b810190602081018135600160201b81111561045457600080fd5b82018360208201111561046657600080fd5b803590602001918460208302840111600160201b8311171561048757600080fd5b919080806020026020016040519081016040528093929190818152602001838360200280828437600092019190915250929550611070945050505050565b610260611126565b61028c611135565b6102c4600480360360208110156104eb57600080fd5b503561113b565b6102c46004803603604081101561050857600080fd5b810190602081018135600160201b81111561052257600080fd5b82018360208201111561053457600080fd5b803590602001918460208302840111600160201b8311171561055557600080fd5b9190808060200260200160405190810160405280939291908181526020018383602002808284376000920191909152509295949360208101935035915050600160201b8111156105a457600080fd5b8201836020820111156105b657600080fd5b803590602001918460208302840111600160201b831117156105d757600080fd5b9190808060200260200160405190810160405280939291908181526020018383602002808284376000920191909152509295506112bc945050505050565b61028c6114c8565b6102c46004803603602081101561063357600080fd5b810190602081018135600160201b81111561064d57600080fd5b82018360208201111561065f57600080fd5b803590602001918460208302840111600160201b8311171561068057600080fd5b9190808060200260200160405190810160405280939291908181526020018383602002808284376000920191909152509295506114ce945050505050565b61028c61157f565b610260611585565b6102c4600480360360208110156106e457600080fd5b50356115a9565b6102c46004803603602081101561070157600080fd5b503561165c565b6102606116f9565b61026061171d565b61028c61172c565b6102c46004803603602081101561073657600080fd5b5035611732565b6102c46004803603604081101561075357600080fd5b50803590602001356001600160a01b031661178f565b61028c611973565b6107976004803603602081101561078757600080fd5b50356001600160a01b0316611979565b60408051938452602084019290925282820152519081900360600190f35b6102c4600480360360208110156107cb57600080fd5b5035611999565b6102c4600480360360408110156107e857600080fd5b810190602081018135600160201b81111561080257600080fd5b82018360208201111561081457600080fd5b803590602001918460208302840111600160201b8311171561083557600080fd5b9190808060200260200160405190810160405280939291908181526020018383602002808284376000920191909152509295949360208101935035915050600160201b81111561088457600080fd5b82018360208201111561089657600080fd5b803590602001918460208302840111600160201b831117156108b757600080fd5b919080806020026020016040519081016040528093929190818152602001838360200280828437600092019190915250929550611a36945050505050565b6102c46004803603602081101561090b57600080fd5b50356001600160a01b0316611dea565b6102c46004803603604081101561093157600080fd5b50803590602001356001600160a01b0316611e4e565b6102606122fa565b610260612309565b6102c46004803603602081101561096d57600080fd5b50356001600160a01b031661232d565b6003546001600160a01b031681565b7f000000000000000000000000000000000000000000000000000000000000000081565b60085481565b6109be6123ac565b6000546001600160a01b03908116911614610a0e576040805162461bcd60e51b81526020600482018190526024820152600080516020613d8b833981519152604482015290519081900360640190fd5b600680546001600160a01b0319166001600160a01b0392909216919091179055565b60016020526000908152604090205460ff1681565b610a4d6123ac565b6000546001600160a01b03908116911614610a9d576040805162461bcd60e51b81526020600482018190526024820152600080516020613d8b833981519152604482015290519081900360640190fd5b6003546001600160a01b031615610afb576040805162461bcd60e51b815260206004820181905260248201527f7374616b696e6720706f6f6c206164647265737320616c726561647920736574604482015290519081900360640190fd5b600380546001600160a01b0319166001600160a01b0392909216919091179055565b61271081565b60055481565b610b316123ac565b6000546001600160a01b03908116911614610b81576040805162461bcd60e51b81526020600482018190526024820152600080516020613d8b833981519152604482015290519081900360640190fd5b6001600160a01b03166000908152600160205260409020805460ff19169055565b60008111610be15760405162461bcd60e51b8152600401808060200182810382526023815260200180613e3f6023913960400191505060405180910390fd5b3360009081526001602052604090205460ff1615610c3d576040805162461bcd60e51b8152602060048201526014602482015273155cd95c881a5cc8189b1858dac8131a5cdd195960621b604482015290519081900360640190fd5b610c786001600160a01b037f00000000000000000000000000000000000000000000000000000000000000001633308463ffffffff6123b016565b33600090815260026020526040902054610c98908263ffffffff61240a16565b3360008181526002602052604080822093845542600190940193909355915183927fe1fffcc4923d04b559f4d29a8bfc6cda04eb5b0d3c460751c2402c5c5cc9109c91a350565b6004546001600160a01b03163314610d285760405162461bcd60e51b8152600401808060200182810382526021815260200180613df76021913960400191505060405180910390fd5b6001600160a01b038116600090815260026020526040902054610d51908363ffffffff61240a16565b6001600160a01b0390911660009081526002602052604090205550565b6001600160a01b031660009081526002602052604090205490565b610d916123ac565b6000546001600160a01b03908116911614610de1576040805162461bcd60e51b81526020600482018190526024820152600080516020613d8b833981519152604482015290519081900360640190fd5b600080546040516001600160a01b03909116907f8be0079c531659141344cd1fd0a4f28419497f9722a3daafe3b4186f6b6457e0908390a3600080546001600160a01b0319169055565b336000908152600160208190526040909120805460ff19169091179055565b610e526123ac565b6000546001600160a01b03908116911614610ea2576040805162461bcd60e51b81526020600482018190526024820152600080516020613d8b833981519152604482015290519081900360640190fd5b62093a80811115610ee45760405162461bcd60e51b8152600401808060200182810382526029815260200180613d416029913960400191505060405180910390fd5b600581905560405181907f8249ec545e68f6f1e1230133ca48c704d831a7f8e635ded80f3dd9e99b09bb2f90600090a250565b60008211610f565760405162461bcd60e51b8152600401808060200182810382526023815260200180613e3f6023913960400191505060405180910390fd5b6001600160a01b03811660009081526001602052604090205460ff1615610fbb576040805162461bcd60e51b8152602060048201526014602482015273155cd95c881a5cc8189b1858dac8131a5cdd195960621b604482015290519081900360640190fd5b610ff66001600160a01b037f00000000000000000000000000000000000000000000000000000000000000001633308563ffffffff6123b016565b6001600160a01b03811660009081526002602052604090205461101f908363ffffffff61240a16565b6001600160a01b03821660008181526002602052604080822093845542600190940193909355915184927f40a0b865ae77859153eafc5cde95d936f135cc12158b807a1ec5f644bea4111e91a35050565b6110786123ac565b6000546001600160a01b039081169116146110c8576040805162461bcd60e51b81526020600482018190526024820152600080516020613d8b833981519152604482015290519081900360640190fd5b60005b8151811015611122576000600260008484815181106110e657fe5b60200260200101516001600160a01b03166001600160a01b031681526020019081526020016000206001018190555080806001019150506110cb565b5050565b6000546001600160a01b031690565b600c5481565b3360009081526002602052604090205481111561119f576040805162461bcd60e51b815260206004820152601d60248201527f626574206c657373207468616e20616d6f756e74207769746864726177000000604482015290519081900360640190fd5b3360009081526002602052604090206001015415806111e357506005543360009081526002602052604090206001015442916111e1919063ffffffff61240a16565b105b61121e5760405162461bcd60e51b8152600401808060200182810382526029815260200180613c766029913960400191505060405180910390fd5b3360009081526002602052604090205461123e908263ffffffff61246d16565b3360008181526002602052604090209190915561128c907f00000000000000000000000000000000000000000000000000000000000000006001600160a01b0316908363ffffffff6124af16565b604051819033907f884edad9ce6fa2440d8a54cc123490eb96d2768479d49ff9c7366125a942436490600090a350565b6112c46123ac565b6000546001600160a01b03908116911614611314576040805162461bcd60e51b81526020600482018190526024820152600080516020613d8b833981519152604482015290519081900360640190fd5b80518251146113545760405162461bcd60e51b8152600401808060200182810382526021815260200180613d206021913960400191505060405180910390fd5b60005b81518110156114c357600083828151811061136e57fe5b602002602001015111156114bb5782818151811061138857fe5b6020026020010151600260008484815181106113a057fe5b60200260200101516001600160a01b03166001600160a01b031681526020019081526020016000206000015410156114095760405162461bcd60e51b8152600401808060200182810382526031815260200180613cef6031913960400191505060405180910390fd5b61142583828151811061141857fe5b6020026020010151612501565b61148683828151811061143457fe5b60200260200101516002600085858151811061144c57fe5b60200260200101516001600160a01b03166001600160a01b031681526020019081526020016000206000015461246d90919063ffffffff16565b6002600084848151811061149657fe5b6020908102919091018101516001600160a01b03168252810191909152604001600020555b600101611357565b505050565b60075481565b6114d66123ac565b6000546001600160a01b03908116911614611526576040805162461bcd60e51b81526020600482018190526024820152600080516020613d8b833981519152604482015290519081900360640190fd5b60005b815181101561112257426002600084848151811061154357fe5b60200260200101516001600160a01b03166001600160a01b03168152602001908152602001600020600101819055508080600101915050611529565b600b5481565b7f000000000000000000000000000000000000000000000000000000000000000081565b6115b16123ac565b6000546001600160a01b03908116911614611601576040805162461bcd60e51b81526020600482018190526024820152600080516020613d8b833981519152604482015290519081900360640190fd5b6103e88110611657576040805162461bcd60e51b815260206004820152601d60248201527f736c6970616765206d757374206265206c657373207468616e20313025000000604482015290519081900360640190fd5b600c55565b6116646123ac565b6000546001600160a01b039081169116146116b4576040805162461bcd60e51b81526020600482018190526024820152600080516020613d8b833981519152604482015290519081900360640190fd5b610fa081106116f45760405162461bcd60e51b8152600401808060200182810382526028815260200180613dcf6028913960400191505060405180910390fd5b600755565b7f000000000000000000000000000000000000000000000000000000000000000081565b6004546001600160a01b031681565b60095481565b61173a6123ac565b6000546001600160a01b0390811691161461178a576040805162461bcd60e51b81526020600482018190526024820152600080516020613d8b833981519152604482015290519081900360640190fd5b600b55565b6117976123ac565b6000546001600160a01b039081169116146117e7576040805162461bcd60e51b81526020600482018190526024820152600080516020613d8b833981519152604482015290519081900360640190fd5b6001600160a01b038116600090815260026020526040902054821115611854576040805162461bcd60e51b815260206004820152601d60248201527f626574206c657373207468616e20616d6f756e74207769746864726177000000604482015290519081900360640190fd5b6001600160a01b03811660009081526002602052604090205461187d908363ffffffff61246d16565b6001600160a01b03821660008181526002602052604080822093909355915184927f884edad9ce6fa2440d8a54cc123490eb96d2768479d49ff9c7366125a942436491a360006118ea6127106118de600754866137d090919063ffffffff16565b9063ffffffff61382916565b90506118fc838263ffffffff61246d16565b600654909350611939906001600160a01b037f000000000000000000000000000000000000000000000000000000000000000081169116836124af565b6114c36001600160a01b037f000000000000000000000000000000000000000000000000000000000000000016838563ffffffff6124af16565b600a5481565b600260208190526000918252604090912080546001820154919092015483565b6119a16123ac565b6000546001600160a01b039081169116146119f1576040805162461bcd60e51b81526020600482018190526024820152600080516020613d8b833981519152604482015290519081900360640190fd5b6123288110611a315760405162461bcd60e51b8152600401808060200182810382526024815260200180613dab6024913960400191505060405180910390fd5b600955565b611a3e6123ac565b6000546001600160a01b03908116911614611a8e576040805162461bcd60e51b81526020600482018190526024820152600080516020613d8b833981519152604482015290519081900360640190fd5b8051825114611ace5760405162461bcd60e51b8152600401808060200182810382526021815260200180613d206021913960400191505060405180910390fd5b60005b81518110156114c35760048054604080516316d3df1560e31b815290516001600160a01b039092169263b69ef8a8928282019260209290829003018186803b158015611b1c57600080fd5b505afa158015611b30573d6000803e3d6000fd5b505050506040513d6020811015611b4657600080fd5b50518351849083908110611b5657fe5b602002602001015111611c0e5760045483516001600160a01b03909116906361433d8890859084908110611b8657fe5b6020026020010151848481518110611b9a57fe5b60200260200101516040518363ffffffff1660e01b815260040180838152602001826001600160a01b03166001600160a01b0316815260200192505050600060405180830381600087803b158015611bf157600080fd5b505af1158015611c05573d6000803e3d6000fd5b50505050611de2565b611c6f838281518110611c1d57fe5b602002602001015160026000858581518110611c3557fe5b60200260200101516001600160a01b03166001600160a01b031681526020019081526020016000206000015461240a90919063ffffffff16565b60026000848481518110611c7f57fe5b60200260200101516001600160a01b03166001600160a01b03168152602001908152602001600020600001819055506000611d51600460009054906101000a90046001600160a01b03166001600160a01b031663b69ef8a86040518163ffffffff1660e01b815260040160206040518083038186803b158015611d0157600080fd5b505afa158015611d15573d6000803e3d6000fd5b505050506040513d6020811015611d2b57600080fd5b50518551869085908110611d3b57fe5b602002602001015161246d90919063ffffffff16565b9050611da18160026000868681518110611d6757fe5b60200260200101516001600160a01b03166001600160a01b031681526020019081526020016000206002015461240a90919063ffffffff16565b60026000858581518110611db157fe5b60200260200101516001600160a01b03166001600160a01b0316815260200190815260200160002060020181905550505b600101611ad1565b611df26123ac565b6000546001600160a01b03908116911614611e42576040805162461bcd60e51b81526020600482018190526024820152600080516020613d8b833981519152604482015290519081900360640190fd5b611e4b8161386b565b50565b336001600160a01b037f0000000000000000000000000000000000000000000000000000000000000000161480611e8f57506003546001600160a01b031633145b611eca5760405162461bcd60e51b8152600401808060200182810382526027815260200180613e186027913960400191505060405180910390fd5b60408051600280825260608083018452926020830190803683370190505090507f000000000000000000000000000000000000000000000000000000000000000081600081518110611f1857fe5b60200260200101906001600160a01b031690816001600160a01b0316815250507f000000000000000000000000000000000000000000000000000000000000000081600181518110611f6657fe5b60200260200101906001600160a01b031690816001600160a01b03168152505060607f00000000000000000000000000000000000000000000000000000000000000006001600160a01b03166338ed17398560026000876001600160a01b03166001600160a01b03168152602001908152602001600020600201548530426005016040518663ffffffff1660e01b81526004018086815260200185815260200180602001846001600160a01b03166001600160a01b03168152602001838152602001828103825285818151815260200191508051906020019060200280838360005b83811015612060578181015183820152602001612048565b505050509050019650505050505050600060405180830381600087803b15801561208957600080fd5b505af115801561209d573d6000803e3d6000fd5b505050506040513d6000823e601f3d908101601f1916820160405260208110156120c657600080fd5b8101908080516040519392919084600160201b8211156120e557600080fd5b9083019060208201858111156120fa57600080fd5b82518660208202830111600160201b8211171561211657600080fd5b82525081516020918201928201910280838360005b8381101561214357818101518382015260200161212b565b505050509190910160409081526001600160a01b03891660009081526002602081905291812090910181905585519596509486945085935015159150612187905057fe5b602002602001015111156122f4576004546001600160a01b0384811660009081526002602081905260408220015484517f000000000000000000000000000000000000000000000000000000000000000084169463095ea7b39416926121f19291879190611d3b57fe5b6040518363ffffffff1660e01b815260040180836001600160a01b03166001600160a01b0316815260200182815260200192505050602060405180830381600087803b15801561224057600080fd5b505af1158015612254573d6000803e3d6000fd5b505050506040513d602081101561226a57600080fd5b50506004546001600160a01b038481166000908152600260208190526040822001548451929093169263c2e50b16926122a5928691611d3b57fe5b6040518263ffffffff1660e01b815260040180828152602001915050600060405180830381600087803b1580156122db57600080fd5b505af11580156122ef573d6000803e3d6000fd5b505050505b50505050565b6006546001600160a01b031681565b7f000000000000000000000000000000000000000000000000000000000000000081565b6123356123ac565b6000546001600160a01b03908116911614612385576040805162461bcd60e51b81526020600482018190526024820152600080516020613d8b833981519152604482015290519081900360640190fd5b6001600160a01b03166000908152600160208190526040909120805460ff19169091179055565b3390565b604080516001600160a01b0380861660248301528416604482015260648082018490528251808303909101815260849091019091526020810180516001600160e01b03166323b872dd60e01b1790526122f490859061390b565b600082820183811015612464576040805162461bcd60e51b815260206004820152601b60248201527f536166654d6174683a206164646974696f6e206f766572666c6f770000000000604482015290519081900360640190fd5b90505b92915050565b600061246483836040518060400160405280601e81526020017f536166654d6174683a207375627472616374696f6e206f766572666c6f7700008152506139bc565b604080516001600160a01b038416602482015260448082018490528251808303909101815260649091019091526020810180516001600160e01b031663a9059cbb60e01b1790526114c390849061390b565b600854156130fc5760408051600280825260608083018452926020830190803683370190505090507f00000000000000000000000000000000000000000000000000000000000000008160008151811061255757fe5b60200260200101906001600160a01b031690816001600160a01b0316815250507f0000000000000000000000000000000000000000000000000000000000000000816001815181106125a557fe5b60200260200101906001600160a01b031690816001600160a01b03168152505060607f00000000000000000000000000000000000000000000000000000000000000006001600160a01b031663d06ca61f84846040518363ffffffff1660e01b81526004018083815260200180602001828103825283818151815260200191508051906020019060200280838360005b8381101561264d578181015183820152602001612635565b50505050905001935050505060006040518083038186803b15801561267157600080fd5b505afa158015612685573d6000803e3d6000fd5b505050506040513d6000823e601f3d908101601f1916820160405260208110156126ae57600080fd5b8101908080516040519392919084600160201b8211156126cd57600080fd5b9083019060208201858111156126e257600080fd5b82518660208202830111600160201b821117156126fe57600080fd5b82525081516020918201928201910280838360005b8381101561272b578181015183820152602001612713565b505050509050016040525050509050600061277b61276e6127106118de600c548660008151811061275857fe5b60200260200101516137d090919063ffffffff16565b83600081518110611d3b57fe5b9050600854811115612dae5760607f00000000000000000000000000000000000000000000000000000000000000006001600160a01b0316631f00ca74600854866040518363ffffffff1660e01b81526004018083815260200180602001828103825283818151815260200191508051906020019060200280838360005b838110156128115781810151838201526020016127f9565b50505050905001935050505060006040518083038186803b15801561283557600080fd5b505afa158015612849573d6000803e3d6000fd5b505050506040513d6000823e601f3d908101601f19168201604052602081101561287257600080fd5b8101908080516040519392919084600160201b82111561289157600080fd5b9083019060208201858111156128a657600080fd5b82518660208202830111600160201b821117156128c257600080fd5b82525081516020918201928201910280838360005b838110156128ef5781810151838201526020016128d7565b505050509050016040525050509050600061293f61291c6127106118de600c548660008151811061275857fe5b8360008151811061292957fe5b602002602001015161240a90919063ffffffff16565b905085811115612da75760607f00000000000000000000000000000000000000000000000000000000000000006001600160a01b03166338ed1739838560008151811061298857fe5b60200260200101518930426005016040518663ffffffff1660e01b81526004018086815260200185815260200180602001846001600160a01b03166001600160a01b03168152602001838152602001828103825285818151815260200191508051906020019060200280838360005b83811015612a0f5781810151838201526020016129f7565b505050509050019650505050505050600060405180830381600087803b158015612a3857600080fd5b505af1158015612a4c573d6000803e3d6000fd5b505050506040513d6000823e601f3d908101601f191682016040526020811015612a7557600080fd5b8101908080516040519392919084600160201b821115612a9457600080fd5b908301906020820185811115612aa957600080fd5b82518660208202830111600160201b82111715612ac557600080fd5b82525081516020918201928201910280838360005b83811015612af2578181015183820152602001612ada565b5050505090500160405250505090507f00000000000000000000000000000000000000000000000000000000000000006001600160a01b031663095ea7b37f000000000000000000000000000000000000000000000000000000000000000083600081518110612b5e57fe5b60200260200101516040518363ffffffff1660e01b815260040180836001600160a01b03166001600160a01b0316815260200182815260200192505050602060405180830381600087803b158015612bb557600080fd5b505af1158015612bc9573d6000803e3d6000fd5b505050506040513d6020811015612bdf57600080fd5b505080516001600160a01b037f0000000000000000000000000000000000000000000000000000000000000000169063c2e50b16908390600090612c1f57fe5b60200260200101516040518263ffffffff1660e01b815260040180828152602001915050600060405180830381600087803b158015612c5d57600080fd5b505af1158015612c71573d6000803e3d6000fd5b50506004546001600160a01b037f00000000000000000000000000000000000000000000000000000000000000008116935063095ea7b3925016612cbb8a8663ffffffff61246d16565b6040518363ffffffff1660e01b815260040180836001600160a01b03166001600160a01b0316815260200182815260200192505050602060405180830381600087803b158015612d0a57600080fd5b505af1158015612d1e573d6000803e3d6000fd5b505050506040513d6020811015612d3457600080fd5b50506004546001600160a01b031663c2e50b16612d57898563ffffffff61246d16565b6040518263ffffffff1660e01b815260040180828152602001915050600060405180830381600087803b158015612d8d57600080fd5b505af1158015612da1573d6000803e3d6000fd5b50505050505b50506130f4565b60607f00000000000000000000000000000000000000000000000000000000000000006001600160a01b03166338ed173986848730426005016040518663ffffffff1660e01b81526004018086815260200185815260200180602001846001600160a01b03166001600160a01b03168152602001838152602001828103825285818151815260200191508051906020019060200280838360005b83811015612e60578181015183820152602001612e48565b505050509050019650505050505050600060405180830381600087803b158015612e8957600080fd5b505af1158015612e9d573d6000803e3d6000fd5b505050506040513d6000823e601f3d908101601f191682016040526020811015612ec657600080fd5b8101908080516040519392919084600160201b821115612ee557600080fd5b908301906020820185811115612efa57600080fd5b82518660208202830111600160201b82111715612f1657600080fd5b82525081516020918201928201910280838360005b83811015612f43578181015183820152602001612f2b565b5050505090500160405250505090507f00000000000000000000000000000000000000000000000000000000000000006001600160a01b031663095ea7b37f000000000000000000000000000000000000000000000000000000000000000083600081518110612faf57fe5b60200260200101516040518363ffffffff1660e01b815260040180836001600160a01b03166001600160a01b0316815260200182815260200192505050602060405180830381600087803b15801561300657600080fd5b505af115801561301a573d6000803e3d6000fd5b505050506040513d602081101561303057600080fd5b505080516001600160a01b037f0000000000000000000000000000000000000000000000000000000000000000169063c2e50b1690839060009061307057fe5b60200260200101516040518263ffffffff1660e01b815260040180828152602001915050600060405180830381600087803b1580156130ae57600080fd5b505af11580156130c2573d6000803e3d6000fd5b505050506130ef816000815181106130d657fe5b602002602001015160085461246d90919063ffffffff16565b600855505b505050611e4b565b60006131196127106118de600954856137d090919063ffffffff16565b905061312b828263ffffffff61246d16565b600a54909250613141908263ffffffff61240a16565b600a819055600b54116136c55760408051600280825260608083018452926020830190803683370190505090507f00000000000000000000000000000000000000000000000000000000000000008160008151811061319c57fe5b60200260200101906001600160a01b031690816001600160a01b0316815250507f0000000000000000000000000000000000000000000000000000000000000000816001815181106131ea57fe5b60200260200101906001600160a01b031690816001600160a01b03168152505060607f00000000000000000000000000000000000000000000000000000000000000006001600160a01b031663d06ca61f600a54846040518363ffffffff1660e01b81526004018083815260200180602001828103825283818151815260200191508051906020019060200280838360005b8381101561329457818101518382015260200161327c565b50505050905001935050505060006040518083038186803b1580156132b857600080fd5b505afa1580156132cc573d6000803e3d6000fd5b505050506040513d6000823e601f3d908101601f1916820160405260208110156132f557600080fd5b8101908080516040519392919084600160201b82111561331457600080fd5b90830190602082018581111561332957600080fd5b82518660208202830111600160201b8211171561334557600080fd5b82525081516020918201928201910280838360005b8381101561337257818101518382015260200161335a565b505050509050016040525050509050600061339f61276e6127106118de600c548660008151811061275857fe5b905060607f00000000000000000000000000000000000000000000000000000000000000006001600160a01b03166338ed1739600a54848730426005016040518663ffffffff1660e01b81526004018086815260200185815260200180602001846001600160a01b03166001600160a01b03168152602001838152602001828103825285818151815260200191508051906020019060200280838360005b8381101561345557818101518382015260200161343d565b505050509050019650505050505050600060405180830381600087803b15801561347e57600080fd5b505af1158015613492573d6000803e3d6000fd5b505050506040513d6000823e601f3d908101601f1916820160405260208110156134bb57600080fd5b8101908080516040519392919084600160201b8211156134da57600080fd5b9083019060208201858111156134ef57600080fd5b82518660208202830111600160201b8211171561350b57600080fd5b82525081516020918201928201910280838360005b83811015613538578181015183820152602001613520565b5050505090500160405250505090507f00000000000000000000000000000000000000000000000000000000000000006001600160a01b031663095ea7b37f0000000000000000000000000000000000000000000000000000000000000000836000815181106135a457fe5b60200260200101516040518363ffffffff1660e01b815260040180836001600160a01b03166001600160a01b0316815260200182815260200192505050602060405180830381600087803b1580156135fb57600080fd5b505af115801561360f573d6000803e3d6000fd5b505050506040513d602081101561362557600080fd5b505080516001600160a01b037f0000000000000000000000000000000000000000000000000000000000000000169063c2e50b1690839060009061366557fe5b60200260200101516040518263ffffffff1660e01b815260040180828152602001915050600060405180830381600087803b1580156136a357600080fd5b505af11580156136b7573d6000803e3d6000fd5b50506000600a555050505050505b600480546040805163095ea7b360e01b81526001600160a01b039283169381019390935260248301859052517f00000000000000000000000000000000000000000000000000000000000000009091169163095ea7b39160448083019260209291908290030181600087803b15801561373d57600080fd5b505af1158015613751573d6000803e3d6000fd5b505050506040513d602081101561376757600080fd5b50506004805460408051636172858b60e11b8152928301859052516001600160a01b039091169163c2e50b1691602480830192600092919082900301818387803b1580156137b457600080fd5b505af11580156137c8573d6000803e3d6000fd5b505050505050565b6000826137df57506000612467565b828202828482816137ec57fe5b04146124645760405162461bcd60e51b8152600401808060200182810382526021815260200180613d6a6021913960400191505060405180910390fd5b600061246483836040518060400160405280601a81526020017f536166654d6174683a206469766973696f6e206279207a65726f000000000000815250613a53565b6001600160a01b0381166138b05760405162461bcd60e51b8152600401808060200182810382526026815260200180613cc96026913960400191505060405180910390fd5b600080546040516001600160a01b03808516939216917f8be0079c531659141344cd1fd0a4f28419497f9722a3daafe3b4186f6b6457e091a3600080546001600160a01b0319166001600160a01b0392909216919091179055565b6060613960826040518060400160405280602081526020017f5361666542455032303a206c6f772d6c6576656c2063616c6c206661696c6564815250856001600160a01b0316613ab89092919063ffffffff16565b8051909150156114c35780806020019051602081101561397f57600080fd5b50516114c35760405162461bcd60e51b815260040180806020018281038252602a815260200180613c9f602a913960400191505060405180910390fd5b60008184841115613a4b5760405162461bcd60e51b81526004018080602001828103825283818151815260200191508051906020019080838360005b83811015613a105781810151838201526020016139f8565b50505050905090810190601f168015613a3d5780820380516001836020036101000a031916815260200191505b509250505060405180910390fd5b505050900390565b60008183613aa25760405162461bcd60e51b8152602060048201818152835160248401528351909283926044909101919085019080838360008315613a105781810151838201526020016139f8565b506000838581613aae57fe5b0495945050505050565b6060613ac78484600085613acf565b949350505050565b6060613ada85613c3c565b613b2b576040805162461bcd60e51b815260206004820152601d60248201527f416464726573733a2063616c6c20746f206e6f6e2d636f6e7472616374000000604482015290519081900360640190fd5b60006060866001600160a01b031685876040518082805190602001908083835b60208310613b6a5780518252601f199092019160209182019101613b4b565b6001836020036101000a03801982511681845116808217855250505050505090500191505060006040518083038185875af1925050503d8060008114613bcc576040519150601f19603f3d011682016040523d82523d6000602084013e613bd1565b606091505b50915091508115613be5579150613ac79050565b805115613bf55780518082602001fd5b60405162461bcd60e51b8152602060048201818152865160248401528651879391928392604401919085019080838360008315613a105781810151838201526020016139f8565b6000813f7fc5d2460186f7233c927e7db2dcc703c0e500b653ca82273b7bfad8045d85a470818114801590613ac757505015159291505056fe42657420416d6f756e74206c6f636b65642c20706c656173652074727920616761696e206c617465725361666542455032303a204245503230206f7065726174696f6e20646964206e6f7420737563636565644f776e61626c653a206e6577206f776e657220697320746865207a65726f20616464726573734c6f73732062657420616d6f756e742069732067726561746572207468616e20617661696c61626c652062616c616e6365506172616d65746572206c656e677468732073686f756c6420626520657175616c4c6f636b20706572696f642063616e6e6f742062652067726561746572207468616e2031207765656b536166654d6174683a206d756c7469706c69636174696f6e206f766572666c6f774f776e61626c653a2063616c6c6572206973206e6f7420746865206f776e657242616e6b726f6c6c207368617265206d757374206265206c657373207468616e203930254561726c7920776974686472617720666565206d757374206265206c657373207468616e2034302543616c6c6572206d757374206265206c69717569646974792062616e6b726f6c6c43616c6c6572206d7573742062652062616e6b726f6c6c206f72207374616b696e6720706f6f6c42657420616d6f756e742073686f756c642062652067726561746572207468616e2030a2646970667358221220efd85a2a5362af7e1981f2bd1f9cab3917a7b20eca6de362b8f444c814b52ec264736f6c63430006050033",
    "sourcePath": "/Users/umeralisajid/Documents/Frag/bitcrush/crush_contacts_old/contracts/TokenLiveWallet.sol",
    "compiler": {
        "name": "solc",
        "version": "0.6.5+commit.f956cc89"
    },
    "functionHashes": {
        "DIVISOR()": "3410fe6e",
        "addToUserWinnings(uint256,address)": "f62cf8d0",
        "addToUserWinningsNative(uint256,address)": "6d069b9e",
        "addbet(uint256)": "6145b22c",
        "addbetWithAddress(uint256,address)": "7efd3813",
        "balanceOf(address)": "70a08231",
        "bankroll()": "0c657eb0",
        "bankrollShare()": "d0b4541d",
        "betAmounts(address)": "ebcfcf6b",
        "blacklistSelf()": "723ea115",
        "blacklistUser(address)": "fcbca456",
        "blacklistedUsers(address)": "22c0aec7",
        "borrowedCrush()": "0da20192",
        "crush()": "b359a9f9",
        "earlyWithdrawFee()": "a80a7882",
        "liquidityBankroll()": "c4527793",
        "lockPeriod()": "3fd8b02f",
        "owner()": "8da5cb5b",
        "pendingBakrollThreshold()": "b2a139db",
        "pendingBankroll()": "e6d1c465",
        "registerLoss(uint256[],address[])": "a4ae1c56",
        "registerWin(uint256[],address[])": "f2150bbb",
        "releaseBetLock(address[])": "815b7386",
        "renounceOwnership()": "715018a6",
        "reserveAddress()": "f79ed94b",
        "setBankrollShare(uint256)": "ec7babec",
        "setEarlyWithdrawFee(uint256)": "c22982f4",
        "setLockPeriod(uint256)": "779972da",
        "setPendingBankrollThreshold(uint256)": "d48b0226",
        "setReserveAddress(address)": "14673d31",
        "setSlipage(uint256)": "b9c8c4ba",
        "setStakingPool(address)": "3028f63a",
        "slipage()": "903cf764",
        "stakingPool()": "0c56ae3b",
        "swapRouter()": "c31c9c07",
        "token()": "fc0c546a",
        "transferOwnership(address)": "f2fde38b",
        "updateBetLock(address[])": "afb62d70",
        "whitelistUser(address)": "4a4c560d",
        "withdrawBet(uint256)": "a2b1a2cc",
        "withdrawBetForUser(uint256,address)": "d4b9661c"
    },
    "gasEstimates": {
        "creation": {
            "codeDepositCost": "3204600",
            "executionCost": "infinite",
            "totalCost": "infinite"
        },
        "external": {
            "DIVISOR()": "266",
            "addToUserWinnings(uint256,address)": "infinite",
            "addToUserWinningsNative(uint256,address)": "infinite",
            "addbet(uint256)": "infinite",
            "addbetWithAddress(uint256,address)": "infinite",
            "balanceOf(address)": "1210",
            "bankroll()": "infinite",
            "bankrollShare()": "1131",
            "betAmounts(address)": "2907",
            "blacklistSelf()": "21160",
            "blacklistUser(address)": "infinite",
            "blacklistedUsers(address)": "1271",
            "borrowedCrush()": "1089",
            "crush()": "infinite",
            "earlyWithdrawFee()": "1066",
            "liquidityBankroll()": "1148",
            "lockPeriod()": "1088",
            "owner()": "1126",
            "pendingBakrollThreshold()": "1110",
            "pendingBankroll()": "1087",
            "registerLoss(uint256[],address[])": "infinite",
            "registerWin(uint256[],address[])": "infinite",
            "releaseBetLock(address[])": "infinite",
            "renounceOwnership()": "infinite",
            "reserveAddress()": "1147",
            "setBankrollShare(uint256)": "infinite",
            "setEarlyWithdrawFee(uint256)": "infinite",
            "setLockPeriod(uint256)": "infinite",
            "setPendingBankrollThreshold(uint256)": "infinite",
            "setReserveAddress(address)": "infinite",
            "setSlipage(uint256)": "infinite",
            "setStakingPool(address)": "infinite",
            "slipage()": "1109",
            "stakingPool()": "1084",
            "swapRouter()": "infinite",
            "token()": "infinite",
            "transferOwnership(address)": "infinite",
            "updateBetLock(address[])": "infinite",
            "whitelistUser(address)": "infinite",
            "withdrawBet(uint256)": "infinite",
            "withdrawBetForUser(uint256,address)": "infinite"
        },
        "internal": {
            "fetchAmountOwed(uint256,address)": "infinite",
            "transferToBankroll(uint256)": "infinite"
        }
    }
}