{
    "contractName": "BitcrushNiceStaking",
    "abi": [
        {
            "inputs": [
                {
                    "internalType": "contract BEP20",
                    "name": "_nice",
                    "type": "address"
                }
            ],
            "stateMutability": "nonpayable",
            "type": "constructor"
        },
        {
            "anonymous": false,
            "inputs": [
                {
                    "indexed": true,
                    "internalType": "address",
                    "name": "previousOwner",
                    "type": "address"
                },
                {
                    "indexed": true,
                    "internalType": "address",
                    "name": "newOwner",
                    "type": "address"
                }
            ],
            "name": "OwnershipTransferred",
            "type": "event"
        },
        {
            "inputs": [],
            "name": "MAX_FEE",
            "outputs": [
                {
                    "internalType": "uint256",
                    "name": "",
                    "type": "uint256"
                }
            ],
            "stateMutability": "view",
            "type": "function"
        },
        {
            "inputs": [],
            "name": "accProfitPerShare",
            "outputs": [
                {
                    "internalType": "uint256",
                    "name": "",
                    "type": "uint256"
                }
            ],
            "stateMutability": "view",
            "type": "function"
        },
        {
            "inputs": [],
            "name": "compoundAll",
            "outputs": [],
            "stateMutability": "nonpayable",
            "type": "function"
        },
        {
            "inputs": [],
            "name": "deploymentTimeStamp",
            "outputs": [
                {
                    "internalType": "uint256",
                    "name": "",
                    "type": "uint256"
                }
            ],
            "stateMutability": "view",
            "type": "function"
        },
        {
            "inputs": [],
            "name": "divisor",
            "outputs": [
                {
                    "internalType": "uint256",
                    "name": "",
                    "type": "uint256"
                }
            ],
            "stateMutability": "view",
            "type": "function"
        },
        {
            "inputs": [],
            "name": "emergencyWithdraw",
            "outputs": [],
            "stateMutability": "nonpayable",
            "type": "function"
        },
        {
            "inputs": [],
            "name": "lastAutoCompoundBlock",
            "outputs": [
                {
                    "internalType": "uint256",
                    "name": "",
                    "type": "uint256"
                }
            ],
            "stateMutability": "view",
            "type": "function"
        },
        {
            "inputs": [],
            "name": "nice",
            "outputs": [
                {
                    "internalType": "contract BEP20",
                    "name": "",
                    "type": "address"
                }
            ],
            "stateMutability": "view",
            "type": "function"
        },
        {
            "inputs": [
                {
                    "internalType": "address",
                    "name": "",
                    "type": "address"
                }
            ],
            "name": "niceRewards",
            "outputs": [
                {
                    "internalType": "uint256",
                    "name": "",
                    "type": "uint256"
                }
            ],
            "stateMutability": "view",
            "type": "function"
        },
        {
            "inputs": [],
            "name": "owner",
            "outputs": [
                {
                    "internalType": "address",
                    "name": "",
                    "type": "address"
                }
            ],
            "stateMutability": "view",
            "type": "function"
        },
        {
            "inputs": [
                {
                    "internalType": "address",
                    "name": "_address",
                    "type": "address"
                }
            ],
            "name": "pendingProfits",
            "outputs": [
                {
                    "internalType": "uint256",
                    "name": "",
                    "type": "uint256"
                }
            ],
            "stateMutability": "view",
            "type": "function"
        },
        {
            "inputs": [],
            "name": "performanceFeeCompounder",
            "outputs": [
                {
                    "internalType": "uint256",
                    "name": "",
                    "type": "uint256"
                }
            ],
            "stateMutability": "view",
            "type": "function"
        },
        {
            "inputs": [],
            "name": "renounceOwnership",
            "outputs": [],
            "stateMutability": "nonpayable",
            "type": "function"
        },
        {
            "inputs": [
                {
                    "internalType": "uint256",
                    "name": "_fee",
                    "type": "uint256"
                }
            ],
            "name": "setPerformanceFeeCompounder",
            "outputs": [],
            "stateMutability": "nonpayable",
            "type": "function"
        },
        {
            "inputs": [
                {
                    "internalType": "contract BitcrushStaking",
                    "name": "_staking",
                    "type": "address"
                }
            ],
            "name": "setStakingPool",
            "outputs": [],
            "stateMutability": "nonpayable",
            "type": "function"
        },
        {
            "inputs": [],
            "name": "stakingPool",
            "outputs": [
                {
                    "internalType": "contract BitcrushStaking",
                    "name": "",
                    "type": "address"
                }
            ],
            "stateMutability": "view",
            "type": "function"
        },
        {
            "inputs": [
                {
                    "internalType": "address",
                    "name": "",
                    "type": "address"
                }
            ],
            "name": "stakings",
            "outputs": [
                {
                    "internalType": "uint256",
                    "name": "shares",
                    "type": "uint256"
                },
                {
                    "internalType": "uint256",
                    "name": "profitBaseline",
                    "type": "uint256"
                }
            ],
            "stateMutability": "view",
            "type": "function"
        },
        {
            "inputs": [],
            "name": "totalProfitDistributed",
            "outputs": [
                {
                    "internalType": "uint256",
                    "name": "",
                    "type": "uint256"
                }
            ],
            "stateMutability": "view",
            "type": "function"
        },
        {
            "inputs": [
                {
                    "internalType": "address",
                    "name": "newOwner",
                    "type": "address"
                }
            ],
            "name": "transferOwnership",
            "outputs": [],
            "stateMutability": "nonpayable",
            "type": "function"
        },
        {
            "inputs": [],
            "name": "updateProfits",
            "outputs": [],
            "stateMutability": "nonpayable",
            "type": "function"
        },
        {
            "inputs": [],
            "name": "withdrawNiceRewards",
            "outputs": [],
            "stateMutability": "nonpayable",
            "type": "function"
        }
    ],
    "bytecode": "60a0604052600a60015534801561001557600080fd5b506040516119da3803806119da8339818101604052602081101561003857600080fd5b5051600061004d6001600160e01b036100b016565b600080546001600160a01b0319166001600160a01b0383169081178255604051929350917f8be0079c531659141344cd1fd0a4f28419497f9722a3daafe3b4186f6b6457e0908290a35060601b6001600160601b031916608052426008556100b4565b3390565b60805160601c6118ff6100db60003980610541528061087d52806111ab52506118ff6000f3fe608060405234801561001057600080fd5b50600436106101375760003560e01c8063715018a6116100b8578063bc063e1a1161007c578063bc063e1a14610235578063bca5503d1461023d578063db2e21bc14610245578063dc6e13e11461024d578063f2fde38b1461028c578063fb777364146102b257610137565b8063715018a61461020d5780638da5cb5b1461021557806392cc410a1461021d5780639b05ddb314610225578063b249e88e1461022d57610137565b806337ab5796116100ff57806337ab5796146101c757806339cc1378146101cf5780634bf211b8146101f557806351496bbd146101fd578063668579c91461020557610137565b80630c56ae3b1461013c5780631f2dc5ef146101605780632533830a1461017a57806326cba336146101825780633028f63a146101a1575b600080fd5b6101446102d8565b604080516001600160a01b039092168252519081900360200190f35b6101686102e7565b60408051918252519081900360200190f35b6101686102ed565b61019f6004803603602081101561019857600080fd5b50356102f3565b005b61019f600480360360208110156101b757600080fd5b50356001600160a01b03166103fb565b61019f6104d3565b610168600480360360208110156101e557600080fd5b50356001600160a01b0316610577565b610168610672565b61019f610678565b6101686107c4565b61019f6107ca565b61014461086c565b61014461087b565b61019f61089f565b6101686111dd565b6101686111e3565b6101686111e9565b61019f610575565b6102736004803603602081101561026357600080fd5b50356001600160a01b03166111ef565b6040805192835260208301919091528051918290030190f35b61019f600480360360208110156102a257600080fd5b50356001600160a01b0316611208565b610168600480360360208110156102c857600080fd5b50356001600160a01b031661126c565b6002546001600160a01b031681565b61271081565b60075481565b6102fb61127e565b6000546001600160a01b0390811691161461034b576040805162461bcd60e51b815260206004820181905260248201526000805160206118aa833981519152604482015290519081900360640190fd5b600081116103a0576040805162461bcd60e51b815260206004820152601a60248201527f466565206d7573742062652067726561746572207468616e2030000000000000604482015290519081900360640190fd5b6103e881106103f6576040805162461bcd60e51b815260206004820152601960248201527f466565206d757374206265206c657373207468616e2031302500000000000000604482015290519081900360640190fd5b600155565b61040361127e565b6000546001600160a01b03908116911614610453576040805162461bcd60e51b815260206004820181905260248201526000805160206118aa833981519152604482015290519081900360640190fd5b6002546001600160a01b0316156104b1576040805162461bcd60e51b815260206004820181905260248201527f7374616b696e6720706f6f6c206164647265737320616c726561647920736574604482015290519081900360640190fd5b600280546001600160a01b0319166001600160a01b0392909216919091179055565b3360009081526004602052604090205461052b576040805162461bcd60e51b81526020600482015260146024820152734e6f207265776172647320617661696c61626c6560601b604482015290519081900360640190fd5b33600081815260046020526040902054610575917f00000000000000000000000000000000000000000000000000000000000000006001600160a01b03169163ffffffff61128216565b565b600061058161181e565b506001600160a01b03808316600081815260036020908152604091829020825180840184528154815260019091015491810191909152600254825163dc6e13e160e01b8152600481019490945291519093919091169163dc6e13e191602480830192610120929190829003018186803b1580156105fd57600080fd5b505afa158015610611573d6000803e3d6000fd5b505050506040513d61012081101561062857600080fd5b5051808252602082015160065461066b9261065f9164e8d4a51000916106539163ffffffff6112d416565b9063ffffffff61133616565b9063ffffffff61137816565b9392505050565b60055481565b600260009054906101000a90046001600160a01b03166001600160a01b0316633a98ef396040518163ffffffff1660e01b815260040160206040518083038186803b1580156106c657600080fd5b505afa1580156106da573d6000803e3d6000fd5b505050506040513d60208110156106f057600080fd5b50516106fb57610575565b670de0b6b3a7640000600754610717908263ffffffff6113ba16565b60075560025460408051633a98ef3960e01b815290516000926107a7926001600160a01b0390911691633a98ef3991600480820192602092909190829003018186803b15801561076657600080fd5b505afa15801561077a573d6000803e3d6000fd5b505050506040513d602081101561079057600080fd5b50516106538464e8d4a5100063ffffffff6112d416565b6006549091506107bd908263ffffffff6113ba16565b6006555050565b60085481565b6107d261127e565b6000546001600160a01b03908116911614610822576040805162461bcd60e51b815260206004820181905260248201526000805160206118aa833981519152604482015290519081900360640190fd5b600080546040516001600160a01b03909116907f8be0079c531659141344cd1fd0a4f28419497f9722a3daafe3b4186f6b6457e0908390a3600080546001600160a01b0319169055565b6000546001600160a01b031690565b7f000000000000000000000000000000000000000000000000000000000000000081565b4360055411156108f6576040805162461bcd60e51b815260206004820181905260248201527f436f6d706f756e6420416c6c206e6f7420796574206170706c696361626c652e604482015290519081900360640190fd5b600260009054906101000a90046001600160a01b03166001600160a01b0316639b05ddb36040518163ffffffff1660e01b8152600401600060405180830381600087803b15801561094657600080fd5b505af115801561095a573d6000803e3d6000fd5b505060025460408051631c7680cd60e11b81529051600094508493506001600160a01b03909216916338ed019a91600480820192602092909190829003018186803b1580156109a857600080fd5b505afa1580156109bc573d6000803e3d6000fd5b505050506040513d60208110156109d257600080fd5b50516002546040805163289bac0760e01b815290519293506001600160a01b039091169163289bac0791600480820192602092909190829003018186803b158015610a1c57600080fd5b505afa158015610a30573d6000803e3d6000fd5b505050506040513d6020811015610a4657600080fd5b505160025460408051631c7680cd60e11b815290516001600160a01b03909216916338ed019a91600480820192602092909190829003018186803b158015610a8d57600080fd5b505afa158015610aa1573d6000803e3d6000fd5b505050506040513d6020811015610ab757600080fd5b505110610ac2575060005b6002546040805163289bac0760e01b815290516000926001600160a01b03169163289bac07916004808301926020929190829003018186803b158015610b0757600080fd5b505afa158015610b1b573d6000803e3d6000fd5b505050506040513d6020811015610b3157600080fd5b505160025460408051633b2c724960e21b815290519293506001600160a01b039091169163ecb1c92491600480820192602092909190829003018186803b158015610b7b57600080fd5b505afa158015610b8f573d6000803e3d6000fd5b505050506040513d6020811015610ba557600080fd5b50516002546040805163289bac0760e01b815290516001600160a01b039092169163289bac0791600480820192602092909190829003018186803b158015610bec57600080fd5b505afa158015610c00573d6000803e3d6000fd5b505050506040513d6020811015610c1657600080fd5b5051111580610d1c5750600260009054906101000a90046001600160a01b03166001600160a01b031663289bac076040518163ffffffff1660e01b815260040160206040518083038186803b158015610c6e57600080fd5b505afa158015610c82573d6000803e3d6000fd5b505050506040513d6020811015610c9857600080fd5b505160025460408051633b2c724960e21b81529051610d19926001600160a01b03169163ecb1c924916004808301926020929190829003018186803b158015610ce057600080fd5b505afa158015610cf4573d6000803e3d6000fd5b505050506040513d6020811015610d0a57600080fd5b5051849063ffffffff6113ba16565b10155b15610da257600260009054906101000a90046001600160a01b03166001600160a01b031663289bac076040518163ffffffff1660e01b815260040160206040518083038186803b158015610d6f57600080fd5b505afa158015610d83573d6000803e3d6000fd5b505050506040513d6020811015610d9957600080fd5b50519050610e24565b60025460408051633b2c724960e21b81529051610e21926001600160a01b03169163ecb1c924916004808301926020929190829003018186803b158015610de857600080fd5b505afa158015610dfc573d6000803e3d6000fd5b505050506040513d6020811015610e1257600080fd5b5051839063ffffffff6113ba16565b90505b610e2c610678565b815b818110156111995760025460408051635832d57160e01b815260048101849052905160009260039284926001600160a01b0390921691635832d57191602480820192602092909190829003018186803b158015610e8a57600080fd5b505afa158015610e9e573d6000803e3d6000fd5b505050506040513d6020811015610eb457600080fd5b50516001600160a01b03908116825260208281019390935260409182016000206002548351635832d57160e01b81526004810188905293519195509091169263dc6e13e1928492635832d57192602480840193919291829003018186803b158015610f1e57600080fd5b505afa158015610f32573d6000803e3d6000fd5b505050506040513d6020811015610f4857600080fd5b5051604080516001600160e01b031960e085901b1681526001600160a01b03909216600483015251602480830192610120929190829003018186803b158015610f9057600080fd5b505afa158015610fa4573d6000803e3d6000fd5b505050506040513d610120811015610fbb57600080fd5b50518082556001820154600654600092610feb929161065f9164e8d4a5100091610653919063ffffffff6112d416565b6001830154909150611003908263ffffffff6113ba16565b6001830155801561118f576110c18160046000600260009054906101000a90046001600160a01b03166001600160a01b0316635832d571886040518263ffffffff1660e01b81526004018082815260200191505060206040518083038186803b15801561106f57600080fd5b505afa158015611083573d6000803e3d6000fd5b505050506040513d602081101561109957600080fd5b50516001600160a01b031681526020810191909152604001600020549063ffffffff6113ba16565b60025460408051635832d57160e01b81526004818101889052915191926000926001600160a01b0390911691635832d571916024808301926020929190829003018186803b15801561111257600080fd5b505afa158015611126573d6000803e3d6000fd5b505050506040513d602081101561113c57600080fd5b50516001600160a01b031681526020810191909152604001600090812091909155600154611179906127109061065390859063ffffffff6112d416565b905061118b878263ffffffff6113ba16565b9650505b5050600101610e2e565b50436005556111d86001600160a01b037f000000000000000000000000000000000000000000000000000000000000000016338563ffffffff61128216565b505050565b60065481565b6103e881565b60015481565b6003602052600090815260409020805460019091015482565b61121061127e565b6000546001600160a01b03908116911614611260576040805162461bcd60e51b815260206004820181905260248201526000805160206118aa833981519152604482015290519081900360640190fd5b61126981611414565b50565b60046020526000908152604090205481565b3390565b604080516001600160a01b038416602482015260448082018490528251808303909101815260649091019091526020810180516001600160e01b031663a9059cbb60e01b1790526111d89084906114b4565b6000826112e357506000611330565b828202828482816112f057fe5b041461132d5760405162461bcd60e51b81526004018080602001828103825260218152602001806118896021913960400191505060405180910390fd5b90505b92915050565b600061132d83836040518060400160405280601a81526020017f536166654d6174683a206469766973696f6e206279207a65726f000000000000815250611565565b600061132d83836040518060400160405280601e81526020017f536166654d6174683a207375627472616374696f6e206f766572666c6f770000815250611607565b60008282018381101561132d576040805162461bcd60e51b815260206004820152601b60248201527f536166654d6174683a206164646974696f6e206f766572666c6f770000000000604482015290519081900360640190fd5b6001600160a01b0381166114595760405162461bcd60e51b81526004018080602001828103825260268152602001806118636026913960400191505060405180910390fd5b600080546040516001600160a01b03808516939216917f8be0079c531659141344cd1fd0a4f28419497f9722a3daafe3b4186f6b6457e091a3600080546001600160a01b0319166001600160a01b0392909216919091179055565b6060611509826040518060400160405280602081526020017f5361666542455032303a206c6f772d6c6576656c2063616c6c206661696c6564815250856001600160a01b03166116619092919063ffffffff16565b8051909150156111d85780806020019051602081101561152857600080fd5b50516111d85760405162461bcd60e51b815260040180806020018281038252602a815260200180611839602a913960400191505060405180910390fd5b600081836115f15760405162461bcd60e51b81526004018080602001828103825283818151815260200191508051906020019080838360005b838110156115b657818101518382015260200161159e565b50505050905090810190601f1680156115e35780820380516001836020036101000a031916815260200191505b509250505060405180910390fd5b5060008385816115fd57fe5b0495945050505050565b600081848411156116595760405162461bcd60e51b81526020600482018181528351602484015283519092839260449091019190850190808383600083156115b657818101518382015260200161159e565b505050900390565b60606116708484600085611678565b949350505050565b6060611683856117e5565b6116d4576040805162461bcd60e51b815260206004820152601d60248201527f416464726573733a2063616c6c20746f206e6f6e2d636f6e7472616374000000604482015290519081900360640190fd5b60006060866001600160a01b031685876040518082805190602001908083835b602083106117135780518252601f1990920191602091820191016116f4565b6001836020036101000a03801982511681845116808217855250505050505090500191505060006040518083038185875af1925050503d8060008114611775576040519150601f19603f3d011682016040523d82523d6000602084013e61177a565b606091505b5091509150811561178e5791506116709050565b80511561179e5780518082602001fd5b60405162461bcd60e51b81526020600482018181528651602484015286518793919283926044019190850190808383600083156115b657818101518382015260200161159e565b6000813f7fc5d2460186f7233c927e7db2dcc703c0e500b653ca82273b7bfad8045d85a470818114801590611670575050151592915050565b60405180604001604052806000815260200160008152509056fe5361666542455032303a204245503230206f7065726174696f6e20646964206e6f7420737563636565644f776e61626c653a206e6577206f776e657220697320746865207a65726f2061646472657373536166654d6174683a206d756c7469706c69636174696f6e206f766572666c6f774f776e61626c653a2063616c6c6572206973206e6f7420746865206f776e6572a2646970667358221220d988840da7ce50630ffd6df8e7bb56ff24cc6f2d1cbaaf6984103729f117e96264736f6c63430006050033",
    "sourcePath": "/Users/umeralisajid/Documents/Frag/bitcrush/crush_contacts_old/contracts/niceStaking.sol",
    "compiler": {
        "name": "solc",
        "version": "0.6.5+commit.f956cc89"
    },
    "functionHashes": {
        "MAX_FEE()": "bc063e1a",
        "accProfitPerShare()": "b249e88e",
        "compoundAll()": "9b05ddb3",
        "deploymentTimeStamp()": "668579c9",
        "divisor()": "1f2dc5ef",
        "emergencyWithdraw()": "db2e21bc",
        "lastAutoCompoundBlock()": "4bf211b8",
        "nice()": "92cc410a",
        "niceRewards(address)": "fb777364",
        "owner()": "8da5cb5b",
        "pendingProfits(address)": "39cc1378",
        "performanceFeeCompounder()": "bca5503d",
        "renounceOwnership()": "715018a6",
        "setPerformanceFeeCompounder(uint256)": "26cba336",
        "setStakingPool(address)": "3028f63a",
        "stakingPool()": "0c56ae3b",
        "stakings(address)": "dc6e13e1",
        "totalProfitDistributed()": "2533830a",
        "transferOwnership(address)": "f2fde38b",
        "updateProfits()": "51496bbd",
        "withdrawNiceRewards()": "37ab5796"
    },
    "gasEstimates": {
        "creation": {
            "codeDepositCost": "1279800",
            "executionCost": "infinite",
            "totalCost": "infinite"
        },
        "external": {
            "MAX_FEE()": "220",
            "accProfitPerShare()": "1109",
            "compoundAll()": "infinite",
            "deploymentTimeStamp()": "1109",
            "divisor()": "244",
            "emergencyWithdraw()": "210",
            "lastAutoCompoundBlock()": "1065",
            "nice()": "infinite",
            "niceRewards(address)": "1256",
            "owner()": "1082",
            "pendingProfits(address)": "infinite",
            "performanceFeeCompounder()": "1042",
            "renounceOwnership()": "infinite",
            "setPerformanceFeeCompounder(uint256)": "infinite",
            "setStakingPool(address)": "infinite",
            "stakingPool()": "1061",
            "stakings(address)": "2051",
            "totalProfitDistributed()": "1066",
            "transferOwnership(address)": "infinite",
            "updateProfits()": "infinite",
            "withdrawNiceRewards()": "infinite"
        }
    }
}