{
    "contractName": "BitcrushLiveWallet",
    "abi": [
        {
            "inputs": [
                {
                    "internalType": "contract CRUSHToken",
                    "name": "_crush",
                    "type": "address"
                },
                {
                    "internalType": "contract BitcrushBankroll",
                    "name": "_bankroll",
                    "type": "address"
                }
            ],
            "stateMutability": "nonpayable",
            "type": "constructor"
        },
        {
            "anonymous": false,
            "inputs": [
                {
                    "indexed": true,
                    "internalType": "address",
                    "name": "previousOwner",
                    "type": "address"
                },
                {
                    "indexed": true,
                    "internalType": "address",
                    "name": "newOwner",
                    "type": "address"
                }
            ],
            "name": "OwnershipTransferred",
            "type": "event"
        },
        {
            "anonymous": false,
            "inputs": [
                {
                    "indexed": true,
                    "internalType": "uint256",
                    "name": "_gameId",
                    "type": "uint256"
                },
                {
                    "indexed": true,
                    "internalType": "address",
                    "name": "_address",
                    "type": "address"
                },
                {
                    "indexed": true,
                    "internalType": "uint256",
                    "name": "_amount",
                    "type": "uint256"
                }
            ],
            "name": "Withdraw",
            "type": "event"
        },
        {
            "inputs": [],
            "name": "DIVISOR",
            "outputs": [
                {
                    "internalType": "uint256",
                    "name": "",
                    "type": "uint256"
                }
            ],
            "stateMutability": "view",
            "type": "function"
        },
        {
            "inputs": [
                {
                    "internalType": "uint256",
                    "name": "_gameId",
                    "type": "uint256"
                },
                {
                    "internalType": "uint256",
                    "name": "_amount",
                    "type": "uint256"
                }
            ],
            "name": "WithdrawBet",
            "outputs": [],
            "stateMutability": "nonpayable",
            "type": "function"
        },
        {
            "inputs": [
                {
                    "internalType": "uint256",
                    "name": "_gameId",
                    "type": "uint256"
                },
                {
                    "internalType": "uint256",
                    "name": "_amount",
                    "type": "uint256"
                },
                {
                    "internalType": "address",
                    "name": "_user",
                    "type": "address"
                }
            ],
            "name": "addToUserWinnings",
            "outputs": [],
            "stateMutability": "nonpayable",
            "type": "function"
        },
        {
            "inputs": [
                {
                    "internalType": "uint256",
                    "name": "_amount",
                    "type": "uint256"
                },
                {
                    "internalType": "uint256",
                    "name": "_gameId",
                    "type": "uint256"
                }
            ],
            "name": "addbet",
            "outputs": [],
            "stateMutability": "nonpayable",
            "type": "function"
        },
        {
            "inputs": [
                {
                    "internalType": "uint256",
                    "name": "_gameId",
                    "type": "uint256"
                },
                {
                    "internalType": "address",
                    "name": "_user",
                    "type": "address"
                }
            ],
            "name": "balanceOf",
            "outputs": [
                {
                    "internalType": "uint256",
                    "name": "",
                    "type": "uint256"
                }
            ],
            "stateMutability": "view",
            "type": "function"
        },
        {
            "inputs": [],
            "name": "bankroll",
            "outputs": [
                {
                    "internalType": "contract BitcrushBankroll",
                    "name": "",
                    "type": "address"
                }
            ],
            "stateMutability": "view",
            "type": "function"
        },
        {
            "inputs": [
                {
                    "internalType": "uint256",
                    "name": "",
                    "type": "uint256"
                },
                {
                    "internalType": "address",
                    "name": "",
                    "type": "address"
                }
            ],
            "name": "betAmounts",
            "outputs": [
                {
                    "internalType": "uint256",
                    "name": "balance",
                    "type": "uint256"
                }
            ],
            "stateMutability": "view",
            "type": "function"
        },
        {
            "inputs": [],
            "name": "blacklistSelf",
            "outputs": [],
            "stateMutability": "nonpayable",
            "type": "function"
        },
        {
            "inputs": [
                {
                    "internalType": "address",
                    "name": "_address",
                    "type": "address"
                }
            ],
            "name": "blacklistUser",
            "outputs": [],
            "stateMutability": "nonpayable",
            "type": "function"
        },
        {
            "inputs": [
                {
                    "internalType": "address",
                    "name": "",
                    "type": "address"
                }
            ],
            "name": "blacklistedUsers",
            "outputs": [
                {
                    "internalType": "bool",
                    "name": "blacklisted",
                    "type": "bool"
                }
            ],
            "stateMutability": "view",
            "type": "function"
        },
        {
            "inputs": [],
            "name": "crush",
            "outputs": [
                {
                    "internalType": "contract CRUSHToken",
                    "name": "",
                    "type": "address"
                }
            ],
            "stateMutability": "view",
            "type": "function"
        },
        {
            "inputs": [],
            "name": "lossBurn",
            "outputs": [
                {
                    "internalType": "uint256",
                    "name": "",
                    "type": "uint256"
                }
            ],
            "stateMutability": "view",
            "type": "function"
        },
        {
            "inputs": [],
            "name": "owner",
            "outputs": [
                {
                    "internalType": "address",
                    "name": "",
                    "type": "address"
                }
            ],
            "stateMutability": "view",
            "type": "function"
        },
        {
            "inputs": [
                {
                    "internalType": "uint256[]",
                    "name": "_gameIds",
                    "type": "uint256[]"
                },
                {
                    "internalType": "uint256[]",
                    "name": "_bets",
                    "type": "uint256[]"
                },
                {
                    "internalType": "address[]",
                    "name": "_users",
                    "type": "address[]"
                }
            ],
            "name": "registerLoss",
            "outputs": [],
            "stateMutability": "nonpayable",
            "type": "function"
        },
        {
            "inputs": [
                {
                    "internalType": "uint256[]",
                    "name": "_gameIds",
                    "type": "uint256[]"
                },
                {
                    "internalType": "uint256[]",
                    "name": "_wins",
                    "type": "uint256[]"
                },
                {
                    "internalType": "address[]",
                    "name": "_users",
                    "type": "address[]"
                }
            ],
            "name": "registerWin",
            "outputs": [],
            "stateMutability": "nonpayable",
            "type": "function"
        },
        {
            "inputs": [],
            "name": "renounceOwnership",
            "outputs": [],
            "stateMutability": "nonpayable",
            "type": "function"
        },
        {
            "inputs": [
                {
                    "internalType": "uint256",
                    "name": "_lossBurn",
                    "type": "uint256"
                }
            ],
            "name": "setLossBurn",
            "outputs": [],
            "stateMutability": "nonpayable",
            "type": "function"
        },
        {
            "inputs": [
                {
                    "internalType": "address",
                    "name": "newOwner",
                    "type": "address"
                }
            ],
            "name": "transferOwnership",
            "outputs": [],
            "stateMutability": "nonpayable",
            "type": "function"
        },
        {
            "inputs": [
                {
                    "internalType": "address",
                    "name": "_address",
                    "type": "address"
                }
            ],
            "name": "whitelistUser",
            "outputs": [],
            "stateMutability": "nonpayable",
            "type": "function"
        }
    ],
    "bytecode": "6080604052600a60055534801561001557600080fd5b506040516117193803806117198339818101604052604081101561003857600080fd5b50805160209091015160006100546001600160e01b036100cf16565b600080546001600160a01b0319166001600160a01b0383169081178255604051929350917f8be0079c531659141344cd1fd0a4f28419497f9722a3daafe3b4186f6b6457e0908290a350600380546001600160a01b039384166001600160a01b031991821617909155600480549290931691161790556100d3565b3390565b611637806100e26000396000f3fe608060405234801561001057600080fd5b50600436106101215760003560e01c8063723ea115116100ad578063c025247d11610071578063c025247d14610440578063de9f89b01461045d578063ee493c1414610602578063f2fde38b14610625578063fcbca4561461064b57610121565b8063723ea115146103d957806375296003146103e15780638d813fa6146104045780638da5cb5b14610430578063b359a9f91461043857610121565b80633656eec2116100f45780633656eec2146101d25780634a4c560d146101fe57806356e57e8e14610224578063715018a6146103c9578063720fe1fd146103d157610121565b80630146938c146101265780630c657eb01461015a57806322c0aec71461017e5780633410fe6e146101b8575b600080fd5b6101586004803603606081101561013c57600080fd5b50803590602081013590604001356001600160a01b0316610671565b005b61016261072d565b604080516001600160a01b039092168252519081900360200190f35b6101a46004803603602081101561019457600080fd5b50356001600160a01b031661073c565b604080519115158252519081900360200190f35b6101c0610751565b60408051918252519081900360200190f35b6101c0600480360360408110156101e857600080fd5b50803590602001356001600160a01b0316610757565b6101586004803603602081101561021457600080fd5b50356001600160a01b0316610781565b6101586004803603606081101561023a57600080fd5b810190602081018135600160201b81111561025457600080fd5b82018360208201111561026657600080fd5b803590602001918460208302840111600160201b8311171561028757600080fd5b9190808060200260200160405190810160405280939291908181526020018383602002808284376000920191909152509295949360208101935035915050600160201b8111156102d657600080fd5b8201836020820111156102e857600080fd5b803590602001918460208302840111600160201b8311171561030957600080fd5b9190808060200260200160405190810160405280939291908181526020018383602002808284376000920191909152509295949360208101935035915050600160201b81111561035857600080fd5b82018360208201111561036a57600080fd5b803590602001918460208302840111600160201b8311171561038b57600080fd5b9190808060200260200160405190810160405280939291908181526020018383602002808284376000920191909152509295506107fa945050505050565b610158610999565b6101c0610a3b565b610158610a41565b610158600480360360408110156103f757600080fd5b5080359060200135610a60565b6101c06004803603604081101561041a57600080fd5b50803590602001356001600160a01b0316610bc9565b610162610be6565b610162610bf5565b6101586004803603602081101561045657600080fd5b5035610c04565b6101586004803603606081101561047357600080fd5b810190602081018135600160201b81111561048d57600080fd5b82018360208201111561049f57600080fd5b803590602001918460208302840111600160201b831117156104c057600080fd5b9190808060200260200160405190810160405280939291908181526020018383602002808284376000920191909152509295949360208101935035915050600160201b81111561050f57600080fd5b82018360208201111561052157600080fd5b803590602001918460208302840111600160201b8311171561054257600080fd5b9190808060200260200160405190810160405280939291908181526020018383602002808284376000920191909152509295949360208101935035915050600160201b81111561059157600080fd5b8201836020820111156105a357600080fd5b803590602001918460208302840111600160201b831117156105c457600080fd5b919080806020026020016040519081016040528093929190818152602001838360200280828437600092019190915250929550610cac945050505050565b6101586004803603604081101561061857600080fd5b5080359060200135610e8f565b6101586004803603602081101561063b57600080fd5b50356001600160a01b0316610ff5565b6101586004803603602081101561066157600080fd5b50356001600160a01b0316611059565b6004546001600160a01b031633146106d0576040805162461bcd60e51b815260206004820152601760248201527f43616c6c6572206d7573742062652062616e6b726f6c6c000000000000000000604482015290519081900360640190fd5b60008381526002602090815260408083206001600160a01b0385168452909152902054610703908363ffffffff6110d816565b60009384526002602090815260408086206001600160a01b03909416865292905292209190915550565b6004546001600160a01b031681565b60016020526000908152604090205460ff1681565b61271081565b60008281526002602090815260408083206001600160a01b03851684529091529020545b92915050565b610789611139565b6000546001600160a01b039081169116146107d9576040805162461bcd60e51b815260206004820181905260248201526000805160206115bf833981519152604482015290519081900360640190fd5b6001600160a01b03166000908152600160205260409020805460ff19169055565b610802611139565b6000546001600160a01b03908116911614610852576040805162461bcd60e51b815260206004820181905260248201526000805160206115bf833981519152604482015290519081900360640190fd5b81518351148015610864575080518351145b61089f5760405162461bcd60e51b815260040180806020018281038252602181526020018061157d6021913960400191505060405180910390fd5b60005b83518110156109935760008382815181106108b957fe5b6020026020010151111561098b576108f78382815181106108d657fe5b60200260200101518583815181106108ea57fe5b602002602001015161113d565b61095283828151811061090657fe5b60200260200101516002600087858151811061091e57fe5b602090810291909101810151825281810192909252604090810160009081203382529092529020549063ffffffff6112dd16565b6002600086848151811061096257fe5b602090810291909101810151825281810192909252604090810160009081203382529092529020555b6001016108a2565b50505050565b6109a1611139565b6000546001600160a01b039081169116146109f1576040805162461bcd60e51b815260206004820181905260248201526000805160206115bf833981519152604482015290519081900360640190fd5b600080546040516001600160a01b03909116907f8be0079c531659141344cd1fd0a4f28419497f9722a3daafe3b4186f6b6457e0908390a3600080546001600160a01b0319169055565b60055481565b336000908152600160208190526040909120805460ff19169091179055565b60008211610a9f5760405162461bcd60e51b81526004018080602001828103825260238152602001806115df6023913960400191505060405180910390fd5b3360009081526001602052604090205460ff1615610afb576040805162461bcd60e51b8152602060048201526014602482015273155cd95c881a5cc8189b1858dac8131a5cdd195960621b604482015290519081900360640190fd5b600354604080516323b872dd60e01b81523360048201523060248201526044810185905290516001600160a01b03909216916323b872dd916064808201926020929091908290030181600087803b158015610b5557600080fd5b505af1158015610b69573d6000803e3d6000fd5b505050506040513d6020811015610b7f57600080fd5b50506000818152600260209081526040808320338452909152902054610bab908363ffffffff6110d816565b60009182526002602090815260408084203385529091529091205550565b600260209081526000928352604080842090915290825290205481565b6000546001600160a01b031690565b6003546001600160a01b031681565b610c0c611139565b6000546001600160a01b03908116911614610c5c576040805162461bcd60e51b815260206004820181905260248201526000805160206115bf833981519152604482015290519081900360640190fd5b60008111610ca7576040805162461bcd60e51b815260206004820152601360248201527204c6f7373206275726e2063616e74206265203606c1b604482015290519081900360640190fd5b600555565b610cb4611139565b6000546001600160a01b03908116911614610d04576040805162461bcd60e51b815260206004820181905260248201526000805160206115bf833981519152604482015290519081900360640190fd5b81518351148015610d16575080518351145b610d515760405162461bcd60e51b815260040180806020018281038252602181526020018061157d6021913960400191505060405180910390fd5b60005b835181101561099357600060026000868481518110610d6f57fe5b602002602001015181526020019081526020016000206000848481518110610d9357fe5b60200260200101516001600160a01b03166001600160a01b03168152602001908152602001600020600001541115610e875760045483516001600160a01b0390911690636367f69790859084908110610de857fe5b6020026020010151848481518110610dfc57fe5b6020026020010151878581518110610e1057fe5b60200260200101516040518463ffffffff1660e01b815260040180848152602001836001600160a01b03166001600160a01b031681526020018281526020019350505050600060405180830381600087803b158015610e6e57600080fd5b505af1158015610e82573d6000803e3d6000fd5b505050505b600101610d54565b6000828152600260209081526040808320338452909152902054811115610efd576040805162461bcd60e51b815260206004820152601d60248201527f626574206c657373207468616e20616d6f756e74207769746864726177000000604482015290519081900360640190fd5b6000828152600260209081526040808320338452909152902054610f27908263ffffffff6112dd16565b60008381526002602090815260408083203380855290835281842094909455600354815163a9059cbb60e01b815260048101959095526024850186905290516001600160a01b039091169363a9059cbb9360448083019493928390030190829087803b158015610f9657600080fd5b505af1158015610faa573d6000803e3d6000fd5b505050506040513d6020811015610fc057600080fd5b50506040518190339084907f9da6493a92039daf47d1f2d7a782299c5994c6323eb1e972f69c432089ec52bf90600090a45050565b610ffd611139565b6000546001600160a01b0390811691161461104d576040805162461bcd60e51b815260206004820181905260248201526000805160206115bf833981519152604482015290519081900360640190fd5b6110568161131f565b50565b611061611139565b6000546001600160a01b039081169116146110b1576040805162461bcd60e51b815260206004820181905260248201526000805160206115bf833981519152604482015290519081900360640190fd5b6001600160a01b03166000908152600160208190526040909120805460ff19169091179055565b600082820183811015611132576040805162461bcd60e51b815260206004820152601b60248201527f536166654d6174683a206164646974696f6e206f766572666c6f770000000000604482015290519081900360640190fd5b9392505050565b3390565b600061116661271061115a600554866113bf90919063ffffffff16565b9063ffffffff61141816565b60035460408051630852cd8d60e31b81526004810184905290519293506001600160a01b03909116916342966c689160248082019260009290919082900301818387803b1580156111b657600080fd5b505af11580156111ca573d6000803e3d6000fd5b5050505060006111e382856112dd90919063ffffffff16565b600354600480546040805163095ea7b360e01b81526001600160a01b039283169381019390935260248301859052519394509091169163095ea7b3916044808201926020929091908290030181600087803b15801561124157600080fd5b505af1158015611255573d6000803e3d6000fd5b505050506040513d602081101561126b57600080fd5b50506004805460408051634ab48e5b60e01b815292830184905260248301869052516001600160a01b0390911691634ab48e5b91604480830192600092919082900301818387803b1580156112bf57600080fd5b505af11580156112d3573d6000803e3d6000fd5b5050505050505050565b600061113283836040518060400160405280601e81526020017f536166654d6174683a207375627472616374696f6e206f766572666c6f77000081525061145a565b6001600160a01b0381166113645760405162461bcd60e51b81526004018080602001828103825260268152602001806115576026913960400191505060405180910390fd5b600080546040516001600160a01b03808516939216917f8be0079c531659141344cd1fd0a4f28419497f9722a3daafe3b4186f6b6457e091a3600080546001600160a01b0319166001600160a01b0392909216919091179055565b6000826113ce5750600061077b565b828202828482816113db57fe5b04146111325760405162461bcd60e51b815260040180806020018281038252602181526020018061159e6021913960400191505060405180910390fd5b600061113283836040518060400160405280601a81526020017f536166654d6174683a206469766973696f6e206279207a65726f0000000000008152506114f1565b600081848411156114e95760405162461bcd60e51b81526004018080602001828103825283818151815260200191508051906020019080838360005b838110156114ae578181015183820152602001611496565b50505050905090810190601f1680156114db5780820380516001836020036101000a031916815260200191505b509250505060405180910390fd5b505050900390565b600081836115405760405162461bcd60e51b81526020600482018181528351602484015283519092839260449091019190850190808383600083156114ae578181015183820152602001611496565b50600083858161154c57fe5b049594505050505056fe4f776e61626c653a206e6577206f776e657220697320746865207a65726f2061646472657373506172616d65746572206c656e677468732073686f756c6420626520657175616c536166654d6174683a206d756c7469706c69636174696f6e206f766572666c6f774f776e61626c653a2063616c6c6572206973206e6f7420746865206f776e657242657420616d6f756e742073686f756c642062652067726561746572207468616e2030a2646970667358221220022c3c3914e2f394fc0b8d822e3d65ea854cc870d15a39d51e116a8d5d5f2f9464736f6c63430006020033",
    "sourcePath": "/Users/umerali/Desktop/FRAG/bitcrush/crush_contracts/contracts/LiveWallet.sol",
    "compiler": {
        "name": "solc",
        "version": "0.6.2+commit.bacdbe57"
    },
    "functionHashes": {
        "DIVISOR()": "3410fe6e",
        "WithdrawBet(uint256,uint256)": "ee493c14",
        "addToUserWinnings(uint256,uint256,address)": "0146938c",
        "addbet(uint256,uint256)": "75296003",
        "balanceOf(uint256,address)": "3656eec2",
        "bankroll()": "0c657eb0",
        "betAmounts(uint256,address)": "8d813fa6",
        "blacklistSelf()": "723ea115",
        "blacklistUser(address)": "fcbca456",
        "blacklistedUsers(address)": "22c0aec7",
        "crush()": "b359a9f9",
        "lossBurn()": "720fe1fd",
        "owner()": "8da5cb5b",
        "registerLoss(uint256[],uint256[],address[])": "56e57e8e",
        "registerWin(uint256[],uint256[],address[])": "de9f89b0",
        "renounceOwnership()": "715018a6",
        "setLossBurn(uint256)": "c025247d",
        "transferOwnership(address)": "f2fde38b",
        "whitelistUser(address)": "4a4c560d"
    },
    "gasEstimates": {
        "creation": {
            "codeDepositCost": "1137400",
            "executionCost": "infinite",
            "totalCost": "infinite"
        },
        "external": {
            "DIVISOR()": "288",
            "WithdrawBet(uint256,uint256)": "infinite",
            "addToUserWinnings(uint256,uint256,address)": "infinite",
            "addbet(uint256,uint256)": "infinite",
            "balanceOf(uint256,address)": "1260",
            "bankroll()": "1083",
            "betAmounts(uint256,address)": "1278",
            "blacklistSelf()": "21071",
            "blacklistUser(address)": "infinite",
            "blacklistedUsers(address)": "1204",
            "crush()": "1148",
            "lossBurn()": "1109",
            "owner()": "1126",
            "registerLoss(uint256[],uint256[],address[])": "infinite",
            "registerWin(uint256[],uint256[],address[])": "infinite",
            "renounceOwnership()": "infinite",
            "setLossBurn(uint256)": "infinite",
            "transferOwnership(address)": "infinite",
            "whitelistUser(address)": "infinite"
        },
        "internal": {
            "transferToBankroll(uint256,uint256)": "infinite"
        }
    }
}