{
  "contractName": "BitcrushNiceStaking",
  "abi": [
    {
      "inputs": [
        {
          "internalType": "contract IERC20",
          "name": "_nice",
          "type": "address"
        }
      ],
      "stateMutability": "nonpayable",
      "type": "constructor"
    },
    {
      "anonymous": false,
      "inputs": [
        {
          "indexed": true,
          "internalType": "address",
          "name": "previousOwner",
          "type": "address"
        },
        {
          "indexed": true,
          "internalType": "address",
          "name": "newOwner",
          "type": "address"
        }
      ],
      "name": "OwnershipTransferred",
      "type": "event"
    },
    {
      "anonymous": false,
      "inputs": [
        {
          "indexed": false,
          "internalType": "uint256",
          "name": "newFee",
          "type": "uint256"
        }
      ],
      "name": "PerformanceFeeUpdated",
      "type": "event"
    },
    {
      "anonymous": false,
      "inputs": [
        {
          "indexed": false,
          "internalType": "uint256",
          "name": "poolId",
          "type": "uint256"
        }
      ],
      "name": "PoolIdUpdated",
      "type": "event"
    },
    {
      "inputs": [],
      "name": "MAX_FEE",
      "outputs": [
        {
          "internalType": "uint256",
          "name": "",
          "type": "uint256"
        }
      ],
      "stateMutability": "view",
      "type": "function",
      "constant": true
    },
    {
      "inputs": [],
      "name": "accProfitPerShare",
      "outputs": [
        {
          "internalType": "uint256",
          "name": "",
          "type": "uint256"
        }
      ],
      "stateMutability": "view",
      "type": "function",
      "constant": true
    },
    {
      "inputs": [],
      "name": "deploymentTimeStamp",
      "outputs": [
        {
          "internalType": "uint256",
          "name": "",
          "type": "uint256"
        }
      ],
      "stateMutability": "view",
      "type": "function",
      "constant": true
    },
    {
      "inputs": [],
      "name": "divisor",
      "outputs": [
        {
          "internalType": "uint256",
          "name": "",
          "type": "uint256"
        }
      ],
      "stateMutability": "view",
      "type": "function",
      "constant": true
    },
    {
      "inputs": [],
      "name": "galacticChef",
      "outputs": [
        {
          "internalType": "contract GalacticChef",
          "name": "",
          "type": "address"
        }
      ],
      "stateMutability": "view",
      "type": "function",
      "constant": true
    },
    {
      "inputs": [],
      "name": "lastAutoCompoundBlock",
      "outputs": [
        {
          "internalType": "uint256",
          "name": "",
          "type": "uint256"
        }
      ],
      "stateMutability": "view",
      "type": "function",
      "constant": true
    },
    {
      "inputs": [],
      "name": "nice",
      "outputs": [
        {
          "internalType": "contract IERC20",
          "name": "",
          "type": "address"
        }
      ],
      "stateMutability": "view",
      "type": "function",
      "constant": true
    },
    {
      "inputs": [
        {
          "internalType": "address",
          "name": "",
          "type": "address"
        }
      ],
      "name": "niceRewards",
      "outputs": [
        {
          "internalType": "uint256",
          "name": "",
          "type": "uint256"
        }
      ],
      "stateMutability": "view",
      "type": "function",
      "constant": true
    },
    {
      "inputs": [],
      "name": "owner",
      "outputs": [
        {
          "internalType": "address",
          "name": "",
          "type": "address"
        }
      ],
      "stateMutability": "view",
      "type": "function",
      "constant": true
    },
    {
      "inputs": [],
      "name": "performanceFeeCompounder",
      "outputs": [
        {
          "internalType": "uint256",
          "name": "",
          "type": "uint256"
        }
      ],
      "stateMutability": "view",
      "type": "function",
      "constant": true
    },
    {
      "inputs": [],
      "name": "poolId",
      "outputs": [
        {
          "internalType": "uint256",
          "name": "",
          "type": "uint256"
        }
      ],
      "stateMutability": "view",
      "type": "function",
      "constant": true
    },
    {
      "inputs": [],
      "name": "renounceOwnership",
      "outputs": [],
      "stateMutability": "nonpayable",
      "type": "function"
    },
    {
      "inputs": [],
      "name": "stakingPool",
      "outputs": [
        {
          "internalType": "contract IStaking",
          "name": "",
          "type": "address"
        }
      ],
      "stateMutability": "view",
      "type": "function",
      "constant": true
    },
    {
      "inputs": [
        {
          "internalType": "address",
          "name": "",
          "type": "address"
        }
      ],
      "name": "stakings",
      "outputs": [
        {
          "internalType": "uint256",
          "name": "shares",
          "type": "uint256"
        },
        {
          "internalType": "uint256",
          "name": "profitBaseline",
          "type": "uint256"
        }
      ],
      "stateMutability": "view",
      "type": "function",
      "constant": true
    },
    {
      "inputs": [],
      "name": "totalProfitDistributed",
      "outputs": [
        {
          "internalType": "uint256",
          "name": "",
          "type": "uint256"
        }
      ],
      "stateMutability": "view",
      "type": "function",
      "constant": true
    },
    {
      "inputs": [
        {
          "internalType": "address",
          "name": "newOwner",
          "type": "address"
        }
      ],
      "name": "transferOwnership",
      "outputs": [],
      "stateMutability": "nonpayable",
      "type": "function"
    },
    {
      "inputs": [
        {
          "internalType": "contract IStaking",
          "name": "_staking",
          "type": "address"
        }
      ],
      "name": "setStakingPool",
      "outputs": [],
      "stateMutability": "nonpayable",
      "type": "function"
    },
    {
      "inputs": [
        {
          "internalType": "contract GalacticChef",
          "name": "_galacticChef",
          "type": "address"
        }
      ],
      "name": "setGalacticChef",
      "outputs": [],
      "stateMutability": "nonpayable",
      "type": "function"
    },
    {
      "inputs": [
        {
          "internalType": "uint256",
          "name": "_poolId",
          "type": "uint256"
        }
      ],
      "name": "setPoolId",
      "outputs": [],
      "stateMutability": "nonpayable",
      "type": "function"
    },
    {
      "inputs": [],
      "name": "updateProfits",
      "outputs": [],
      "stateMutability": "nonpayable",
      "type": "function"
    },
    {
      "inputs": [
        {
          "internalType": "address",
          "name": "_address",
          "type": "address"
        }
      ],
      "name": "pendingProfits",
      "outputs": [
        {
          "internalType": "uint256",
          "name": "",
          "type": "uint256"
        }
      ],
      "stateMutability": "nonpayable",
      "type": "function"
    },
    {
      "inputs": [],
      "name": "compoundAll",
      "outputs": [],
      "stateMutability": "nonpayable",
      "type": "function"
    },
    {
      "inputs": [],
      "name": "withdrawNiceRewards",
      "outputs": [],
      "stateMutability": "nonpayable",
      "type": "function"
    },
    {
      "inputs": [
        {
          "internalType": "uint256",
          "name": "_fee",
          "type": "uint256"
        }
      ],
      "name": "setPerformanceFeeCompounder",
      "outputs": [],
      "stateMutability": "nonpayable",
      "type": "function"
    },
    {
      "inputs": [],
      "name": "emergencyWithdraw",
      "outputs": [],
      "stateMutability": "nonpayable",
      "type": "function"
    }
  ],
  "bytecode": "0x60a0604052600a6001553480156200001657600080fd5b5060405162002b6a38038062002b6a83398181016040528101906200003c9190620001b4565b60006200004e6200012e60201b60201c565b9050806000806101000a81548173ffffffffffffffffffffffffffffffffffffffff021916908373ffffffffffffffffffffffffffffffffffffffff1602179055508073ffffffffffffffffffffffffffffffffffffffff16600073ffffffffffffffffffffffffffffffffffffffff167f8be0079c531659141344cd1fd0a4f28419497f9722a3daafe3b4186f6b6457e060405160405180910390a3508073ffffffffffffffffffffffffffffffffffffffff1660808173ffffffffffffffffffffffffffffffffffffffff168152505042600a8190555050620001e6565b600033905090565b600080fd5b600073ffffffffffffffffffffffffffffffffffffffff82169050919050565b600062000168826200013b565b9050919050565b60006200017c826200015b565b9050919050565b6200018e816200016f565b81146200019a57600080fd5b50565b600081519050620001ae8162000183565b92915050565b600060208284031215620001cd57620001cc62000136565b5b6000620001dd848285016200019d565b91505092915050565b608051612953620002176000396000818161097f01528181610f08015281816114de015261170b01526129536000f3fe608060405234801561001057600080fd5b50600436106101735760003560e01c8063668579c9116100de578063b249e88e11610097578063db2e21bc11610071578063db2e21bc146103a8578063dc6e13e1146103b2578063f2fde38b146103e3578063fb777364146103ff57610173565b8063b249e88e1461034e578063bc063e1a1461036c578063bca5503d1461038a57610173565b8063668579c9146102c4578063715018a6146102e25780638da5cb5b146102ec57806392cc410a1461030a5780639b05ddb314610328578063ac78012c1461033257610173565b80633028f63a116101305780633028f63a1461022857806337ab57961461024457806339cc13781461024e5780633e0dc34e1461027e5780634bf211b81461029c57806351496bbd146102ba57610173565b80630c56ae3b146101785780630c616882146101965780631f2dc5ef146101b25780632533830a146101d057806326cba336146101ee5780632aabc5921461020a575b600080fd5b61018061042f565b60405161018d9190611d09565b60405180910390f35b6101b060048036038101906101ab9190611d79565b610455565b005b6101ba6105a6565b6040516101c79190611dbf565b60405180910390f35b6101d86105ac565b6040516101e59190611dbf565b60405180910390f35b61020860048036038101906102039190611e06565b6105b2565b005b6102126106f6565b60405161021f9190611e54565b60405180910390f35b610242600480360381019061023d9190611ead565b61071c565b005b61024c61086d565b005b61026860048036038101906102639190611f06565b6109c6565b6040516102759190611dbf565b60405180910390f35b610286610b43565b6040516102939190611dbf565b60405180910390f35b6102a4610b49565b6040516102b19190611dbf565b60405180910390f35b6102c2610b4f565b005b6102cc610d9d565b6040516102d99190611dbf565b60405180910390f35b6102ea610da3565b005b6102f4610edd565b6040516103019190611f42565b60405180910390f35b610312610f06565b60405161031f9190611f7e565b60405180910390f35b610330610f2a565b005b61034c60048036038101906103479190611e06565b6115ac565b005b610356611669565b6040516103639190611dbf565b60405180910390f35b61037461166f565b6040516103819190611dbf565b60405180910390f35b610392611675565b60405161039f9190611dbf565b60405180910390f35b6103b061167b565b005b6103cc60048036038101906103c79190611f06565b611752565b6040516103da929190611f99565b60405180910390f35b6103fd60048036038101906103f89190611f06565b611776565b005b61041960048036038101906104149190611f06565b61191f565b6040516104269190611dbf565b60405180910390f35b600360009054906101000a900473ffffffffffffffffffffffffffffffffffffffff1681565b61045d611937565b73ffffffffffffffffffffffffffffffffffffffff1661047b610edd565b73ffffffffffffffffffffffffffffffffffffffff16146104d1576040517f08c379a00000000000000000000000000000000000000000000000000000000081526004016104c89061201f565b60405180910390fd5b600073ffffffffffffffffffffffffffffffffffffffff16600460009054906101000a900473ffffffffffffffffffffffffffffffffffffffff1673ffffffffffffffffffffffffffffffffffffffff1614610562576040517f08c379a00000000000000000000000000000000000000000000000000000000081526004016105599061208b565b60405180910390fd5b80600460006101000a81548173ffffffffffffffffffffffffffffffffffffffff021916908373ffffffffffffffffffffffffffffffffffffffff16021790555050565b61271081565b60095481565b6105ba611937565b73ffffffffffffffffffffffffffffffffffffffff166105d8610edd565b73ffffffffffffffffffffffffffffffffffffffff161461062e576040517f08c379a00000000000000000000000000000000000000000000000000000000081526004016106259061201f565b60405180910390fd5b60008111610671576040517f08c379a0000000000000000000000000000000000000000000000000000000008152600401610668906120f7565b60405180910390fd5b6103e881106106b5576040517f08c379a00000000000000000000000000000000000000000000000000000000081526004016106ac90612163565b60405180910390fd5b806001819055507f9b49d0cd76012d9c67241c2f68f836efbaf50ea29901a250040671402d5263f5816040516106eb9190611dbf565b60405180910390a150565b600460009054906101000a900473ffffffffffffffffffffffffffffffffffffffff1681565b610724611937565b73ffffffffffffffffffffffffffffffffffffffff16610742610edd565b73ffffffffffffffffffffffffffffffffffffffff1614610798576040517f08c379a000000000000000000000000000000000000000000000000000000000815260040161078f9061201f565b60405180910390fd5b600073ffffffffffffffffffffffffffffffffffffffff16600360009054906101000a900473ffffffffffffffffffffffffffffffffffffffff1673ffffffffffffffffffffffffffffffffffffffff1614610829576040517f08c379a00000000000000000000000000000000000000000000000000000000081526004016108209061208b565b60405180910390fd5b80600360006101000a81548173ffffffffffffffffffffffffffffffffffffffff021916908373ffffffffffffffffffffffffffffffffffffffff16021790555050565b6000600660003373ffffffffffffffffffffffffffffffffffffffff1673ffffffffffffffffffffffffffffffffffffffff16815260200190815260200160002054116108ef576040517f08c379a00000000000000000000000000000000000000000000000000000000081526004016108e6906121cf565b60405180910390fd5b6000600660003373ffffffffffffffffffffffffffffffffffffffff1673ffffffffffffffffffffffffffffffffffffffff1681526020019081526020016000205490506000600660003373ffffffffffffffffffffffffffffffffffffffff1673ffffffffffffffffffffffffffffffffffffffff168152602001908152602001600020819055506109c333827f000000000000000000000000000000000000000000000000000000000000000073ffffffffffffffffffffffffffffffffffffffff1661193f9092919063ffffffff16565b50565b600080600560008473ffffffffffffffffffffffffffffffffffffffff1673ffffffffffffffffffffffffffffffffffffffff168152602001908152602001600020604051806040016040529081600082015481526020016001820154815250509050600360009054906101000a900473ffffffffffffffffffffffffffffffffffffffff1673ffffffffffffffffffffffffffffffffffffffff1663dc6e13e1846040518263ffffffff1660e01b8152600401610a849190611f42565b610120604051808303816000875af1158015610aa4573d6000803e3d6000fd5b505050506040513d601f19601f82011682018060405250810190610ac89190612204565b909192939495965090919293949550909192939450909192935090919250909150905050816000018181525050610b3b8160200151610b2d64e8d4a51000610b1f60085486600001516119c590919063ffffffff16565b6119db90919063ffffffff16565b6119f190919063ffffffff16565b915050919050565b60025481565b60075481565b6000600360009054906101000a900473ffffffffffffffffffffffffffffffffffffffff1673ffffffffffffffffffffffffffffffffffffffff16633a98ef396040518163ffffffff1660e01b81526004016020604051808303816000875af1158015610bc0573d6000803e3d6000fd5b505050506040513d601f19601f82011682018060405250810190610be491906122ce565b1415610bef57610d9b565b6000600460009054906101000a900473ffffffffffffffffffffffffffffffffffffffff1673ffffffffffffffffffffffffffffffffffffffff16634828ced96002546040518263ffffffff1660e01b8152600401610c4e9190611dbf565b6020604051808303816000875af1158015610c6d573d6000803e3d6000fd5b505050506040513d601f19601f82011682018060405250810190610c9191906122ce565b90506000811415610ca25750610d9b565b610cb781600954611a0790919063ffffffff16565b6009819055506000610d7b600360009054906101000a900473ffffffffffffffffffffffffffffffffffffffff1673ffffffffffffffffffffffffffffffffffffffff16633a98ef396040518163ffffffff1660e01b81526004016020604051808303816000875af1158015610d31573d6000803e3d6000fd5b505050506040513d601f19601f82011682018060405250810190610d5591906122ce565b610d6d64e8d4a51000856119c590919063ffffffff16565b6119db90919063ffffffff16565b9050610d9281600854611a0790919063ffffffff16565b60088190555050505b565b600a5481565b610dab611937565b73ffffffffffffffffffffffffffffffffffffffff16610dc9610edd565b73ffffffffffffffffffffffffffffffffffffffff1614610e1f576040517f08c379a0000000000000000000000000000000000000000000000000000000008152600401610e169061201f565b60405180910390fd5b600073ffffffffffffffffffffffffffffffffffffffff1660008054906101000a900473ffffffffffffffffffffffffffffffffffffffff1673ffffffffffffffffffffffffffffffffffffffff167f8be0079c531659141344cd1fd0a4f28419497f9722a3daafe3b4186f6b6457e060405160405180910390a360008060006101000a81548173ffffffffffffffffffffffffffffffffffffffff021916908373ffffffffffffffffffffffffffffffffffffffff160217905550565b60008060009054906101000a900473ffffffffffffffffffffffffffffffffffffffff16905090565b7f000000000000000000000000000000000000000000000000000000000000000081565b436007541115610f6f576040517f08c379a0000000000000000000000000000000000000000000000000000000008152600401610f6690612347565b60405180910390fd5b600080600360009054906101000a900473ffffffffffffffffffffffffffffffffffffffff1673ffffffffffffffffffffffffffffffffffffffff166338ed019a6040518163ffffffff1660e01b81526004016020604051808303816000875af1158015610fe1573d6000803e3d6000fd5b505050506040513d601f19601f8201168201806040525081019061100591906122ce565b90506000600360009054906101000a900473ffffffffffffffffffffffffffffffffffffffff1673ffffffffffffffffffffffffffffffffffffffff1663289bac076040518163ffffffff1660e01b81526004016020604051808303816000875af1158015611078573d6000803e3d6000fd5b505050506040513d601f19601f8201168201806040525081019061109c91906122ce565b90506000600360009054906101000a900473ffffffffffffffffffffffffffffffffffffffff1673ffffffffffffffffffffffffffffffffffffffff1663ecb1c9246040518163ffffffff1660e01b81526004016020604051808303816000875af115801561110f573d6000803e3d6000fd5b505050506040513d601f19601f8201168201806040525081019061113391906122ce565b9050600083905082841061114657600090505b6000839050828411158061116c5750836111698484611a0790919063ffffffff16565b10155b156111795783905061118f565b61118c8383611a0790919063ffffffff16565b90505b611197610b4f565b60008290505b818110156114cf576000600360009054906101000a900473ffffffffffffffffffffffffffffffffffffffff1673ffffffffffffffffffffffffffffffffffffffff16635832d571836040518263ffffffff1660e01b81526004016112029190611dbf565b6020604051808303816000875af1158015611221573d6000803e3d6000fd5b505050506040513d601f19601f82011682018060405250810190611245919061237c565b90506000600560008373ffffffffffffffffffffffffffffffffffffffff1673ffffffffffffffffffffffffffffffffffffffff1681526020019081526020016000209050600360009054906101000a900473ffffffffffffffffffffffffffffffffffffffff1673ffffffffffffffffffffffffffffffffffffffff1663dc6e13e1836040518263ffffffff1660e01b81526004016112e59190611f42565b610120604051808303816000875af1158015611305573d6000803e3d6000fd5b505050506040513d601f19601f820116820180604052508101906113299190612204565b90919293949596509091929394955090919293945090919293509091925090915090505081600001600082919050555060006113a1826001015461139364e8d4a5100061138560085487600001546119c590919063ffffffff16565b6119db90919063ffffffff16565b6119f190919063ffffffff16565b90506113ba818360010154611a0790919063ffffffff16565b826001018190555060008111156114b95760006113f66127106113e8600154856119c590919063ffffffff16565b6119db90919063ffffffff16565b905061140b818c611a0790919063ffffffff16565b9a5061142081836119f190919063ffffffff16565b915061147482600660008773ffffffffffffffffffffffffffffffffffffffff1673ffffffffffffffffffffffffffffffffffffffff16815260200190815260200160002054611a0790919063ffffffff16565b600660008673ffffffffffffffffffffffffffffffffffffffff1673ffffffffffffffffffffffffffffffffffffffff16815260200190815260200160002081905550505b50505080806114c7906123d8565b91505061119d565b504360078190555061152233877f000000000000000000000000000000000000000000000000000000000000000073ffffffffffffffffffffffffffffffffffffffff1661193f9092919063ffffffff16565b600360009054906101000a900473ffffffffffffffffffffffffffffffffffffffff1673ffffffffffffffffffffffffffffffffffffffff16639b05ddb36040518163ffffffff1660e01b8152600401600060405180830381600087803b15801561158c57600080fd5b505af11580156115a0573d6000803e3d6000fd5b50505050505050505050565b6115b4611937565b73ffffffffffffffffffffffffffffffffffffffff166115d2610edd565b73ffffffffffffffffffffffffffffffffffffffff1614611628576040517f08c379a000000000000000000000000000000000000000000000000000000000815260040161161f9061201f565b60405180910390fd5b806002819055507f62aeae90d89735cc89a299ecb77480c7ed88f04481174a37ee38b11dc60515f78160405161165e9190611dbf565b60405180910390a150565b60085481565b6103e881565b60015481565b6000600660003373ffffffffffffffffffffffffffffffffffffffff1673ffffffffffffffffffffffffffffffffffffffff1681526020019081526020016000205490506000600660003373ffffffffffffffffffffffffffffffffffffffff1673ffffffffffffffffffffffffffffffffffffffff1681526020019081526020016000208190555061174f33827f000000000000000000000000000000000000000000000000000000000000000073ffffffffffffffffffffffffffffffffffffffff1661193f9092919063ffffffff16565b50565b60056020528060005260406000206000915090508060000154908060010154905082565b61177e611937565b73ffffffffffffffffffffffffffffffffffffffff1661179c610edd565b73ffffffffffffffffffffffffffffffffffffffff16146117f2576040517f08c379a00000000000000000000000000000000000000000000000000000000081526004016117e99061201f565b60405180910390fd5b600073ffffffffffffffffffffffffffffffffffffffff168173ffffffffffffffffffffffffffffffffffffffff161415611862576040517f08c379a000000000000000000000000000000000000000000000000000000000815260040161185990612493565b60405180910390fd5b8073ffffffffffffffffffffffffffffffffffffffff1660008054906101000a900473ffffffffffffffffffffffffffffffffffffffff1673ffffffffffffffffffffffffffffffffffffffff167f8be0079c531659141344cd1fd0a4f28419497f9722a3daafe3b4186f6b6457e060405160405180910390a3806000806101000a81548173ffffffffffffffffffffffffffffffffffffffff021916908373ffffffffffffffffffffffffffffffffffffffff16021790555050565b60066020528060005260406000206000915090505481565b600033905090565b6119c08363a9059cbb60e01b848460405160240161195e9291906124b3565b604051602081830303815290604052907bffffffffffffffffffffffffffffffffffffffffffffffffffffffff19166020820180517bffffffffffffffffffffffffffffffffffffffffffffffffffffffff8381831617835250505050611a1d565b505050565b600081836119d391906124dc565b905092915050565b600081836119e99190612565565b905092915050565b600081836119ff9190612596565b905092915050565b60008183611a1591906125ca565b905092915050565b6000611a7f826040518060400160405280602081526020017f5361666545524332303a206c6f772d6c6576656c2063616c6c206661696c65648152508573ffffffffffffffffffffffffffffffffffffffff16611ae49092919063ffffffff16565b9050600081511115611adf5780806020019051810190611a9f9190612658565b611ade576040517f08c379a0000000000000000000000000000000000000000000000000000000008152600401611ad5906126f7565b60405180910390fd5b5b505050565b6060611af38484600085611afc565b90509392505050565b606082471015611b41576040517f08c379a0000000000000000000000000000000000000000000000000000000008152600401611b3890612789565b60405180910390fd5b611b4a85611c10565b611b89576040517f08c379a0000000000000000000000000000000000000000000000000000000008152600401611b80906127f5565b60405180910390fd5b6000808673ffffffffffffffffffffffffffffffffffffffff168587604051611bb2919061288f565b60006040518083038185875af1925050503d8060008114611bef576040519150601f19603f3d011682016040523d82523d6000602084013e611bf4565b606091505b5091509150611c04828286611c23565b92505050949350505050565b600080823b905060008111915050919050565b60608315611c3357829050611c83565b600083511115611c465782518084602001fd5b816040517f08c379a0000000000000000000000000000000000000000000000000000000008152600401611c7a91906128fb565b60405180910390fd5b9392505050565b600073ffffffffffffffffffffffffffffffffffffffff82169050919050565b6000819050919050565b6000611ccf611cca611cc584611c8a565b611caa565b611c8a565b9050919050565b6000611ce182611cb4565b9050919050565b6000611cf382611cd6565b9050919050565b611d0381611ce8565b82525050565b6000602082019050611d1e6000830184611cfa565b92915050565b600080fd5b6000611d3482611c8a565b9050919050565b6000611d4682611d29565b9050919050565b611d5681611d3b565b8114611d6157600080fd5b50565b600081359050611d7381611d4d565b92915050565b600060208284031215611d8f57611d8e611d24565b5b6000611d9d84828501611d64565b91505092915050565b6000819050919050565b611db981611da6565b82525050565b6000602082019050611dd46000830184611db0565b92915050565b611de381611da6565b8114611dee57600080fd5b50565b600081359050611e0081611dda565b92915050565b600060208284031215611e1c57611e1b611d24565b5b6000611e2a84828501611df1565b91505092915050565b6000611e3e82611cd6565b9050919050565b611e4e81611e33565b82525050565b6000602082019050611e696000830184611e45565b92915050565b6000611e7a82611d29565b9050919050565b611e8a81611e6f565b8114611e9557600080fd5b50565b600081359050611ea781611e81565b92915050565b600060208284031215611ec357611ec2611d24565b5b6000611ed184828501611e98565b91505092915050565b611ee381611d29565b8114611eee57600080fd5b50565b600081359050611f0081611eda565b92915050565b600060208284031215611f1c57611f1b611d24565b5b6000611f2a84828501611ef1565b91505092915050565b611f3c81611d29565b82525050565b6000602082019050611f576000830184611f33565b92915050565b6000611f6882611cd6565b9050919050565b611f7881611f5d565b82525050565b6000602082019050611f936000830184611f6f565b92915050565b6000604082019050611fae6000830185611db0565b611fbb6020830184611db0565b9392505050565b600082825260208201905092915050565b7f4f776e61626c653a2063616c6c6572206973206e6f7420746865206f776e6572600082015250565b6000612009602083611fc2565b915061201482611fd3565b602082019050919050565b6000602082019050818103600083015261203881611ffc565b9050919050565b7f7374616b696e6720706f6f6c206164647265737320616c726561647920736574600082015250565b6000612075602083611fc2565b91506120808261203f565b602082019050919050565b600060208201905081810360008301526120a481612068565b9050919050565b7f466565206d7573742062652067726561746572207468616e2030000000000000600082015250565b60006120e1601a83611fc2565b91506120ec826120ab565b602082019050919050565b60006020820190508181036000830152612110816120d4565b9050919050565b7f466565206d757374206265206c657373207468616e2031302500000000000000600082015250565b600061214d601983611fc2565b915061215882612117565b602082019050919050565b6000602082019050818103600083015261217c81612140565b9050919050565b7f4e6f207265776172647320617661696c61626c65000000000000000000000000600082015250565b60006121b9601483611fc2565b91506121c482612183565b602082019050919050565b600060208201905081810360008301526121e8816121ac565b9050919050565b6000815190506121fe81611dda565b92915050565b60008060008060008060008060006101208a8c03121561222757612226611d24565b5b60006122358c828d016121ef565b99505060206122468c828d016121ef565b98505060406122578c828d016121ef565b97505060606122688c828d016121ef565b96505060806122798c828d016121ef565b95505060a061228a8c828d016121ef565b94505060c061229b8c828d016121ef565b93505060e06122ac8c828d016121ef565b9250506101006122be8c828d016121ef565b9150509295985092959850929598565b6000602082840312156122e4576122e3611d24565b5b60006122f2848285016121ef565b91505092915050565b7f436f6d706f756e6420416c6c206e6f7420796574206170706c696361626c652e600082015250565b6000612331602083611fc2565b915061233c826122fb565b602082019050919050565b6000602082019050818103600083015261236081612324565b9050919050565b60008151905061237681611eda565b92915050565b60006020828403121561239257612391611d24565b5b60006123a084828501612367565b91505092915050565b7f4e487b7100000000000000000000000000000000000000000000000000000000600052601160045260246000fd5b60006123e382611da6565b91507fffffffffffffffffffffffffffffffffffffffffffffffffffffffffffffffff821415612416576124156123a9565b5b600182019050919050565b7f4f776e61626c653a206e6577206f776e657220697320746865207a65726f206160008201527f6464726573730000000000000000000000000000000000000000000000000000602082015250565b600061247d602683611fc2565b915061248882612421565b604082019050919050565b600060208201905081810360008301526124ac81612470565b9050919050565b60006040820190506124c86000830185611f33565b6124d56020830184611db0565b9392505050565b60006124e782611da6565b91506124f283611da6565b9250817fffffffffffffffffffffffffffffffffffffffffffffffffffffffffffffffff048311821515161561252b5761252a6123a9565b5b828202905092915050565b7f4e487b7100000000000000000000000000000000000000000000000000000000600052601260045260246000fd5b600061257082611da6565b915061257b83611da6565b92508261258b5761258a612536565b5b828204905092915050565b60006125a182611da6565b91506125ac83611da6565b9250828210156125bf576125be6123a9565b5b828203905092915050565b60006125d582611da6565b91506125e083611da6565b9250827fffffffffffffffffffffffffffffffffffffffffffffffffffffffffffffffff03821115612615576126146123a9565b5b828201905092915050565b60008115159050919050565b61263581612620565b811461264057600080fd5b50565b6000815190506126528161262c565b92915050565b60006020828403121561266e5761266d611d24565b5b600061267c84828501612643565b91505092915050565b7f5361666545524332303a204552433230206f7065726174696f6e20646964206e60008201527f6f74207375636365656400000000000000000000000000000000000000000000602082015250565b60006126e1602a83611fc2565b91506126ec82612685565b604082019050919050565b60006020820190508181036000830152612710816126d4565b9050919050565b7f416464726573733a20696e73756666696369656e742062616c616e636520666f60008201527f722063616c6c0000000000000000000000000000000000000000000000000000602082015250565b6000612773602683611fc2565b915061277e82612717565b604082019050919050565b600060208201905081810360008301526127a281612766565b9050919050565b7f416464726573733a2063616c6c20746f206e6f6e2d636f6e7472616374000000600082015250565b60006127df601d83611fc2565b91506127ea826127a9565b602082019050919050565b6000602082019050818103600083015261280e816127d2565b9050919050565b600081519050919050565b600081905092915050565b60005b8381101561284957808201518184015260208101905061282e565b83811115612858576000848401525b50505050565b600061286982612815565b6128738185612820565b935061288381856020860161282b565b80840191505092915050565b600061289b828461285e565b915081905092915050565b600081519050919050565b6000601f19601f8301169050919050565b60006128cd826128a6565b6128d78185611fc2565b93506128e781856020860161282b565b6128f0816128b1565b840191505092915050565b6000602082019050818103600083015261291581846128c2565b90509291505056fea2646970667358221220bbaae1b0301bd22998ffd435ae154ee0aa87f999e7eefcbf91258925b8841afb64736f6c634300080c0033",
  "immutableReferences": {
    "6112": [
      {
        "length": 32,
        "start": 2431
      },
      {
        "length": 32,
        "start": 3848
      },
      {
        "length": 32,
        "start": 5342
      },
      {
        "length": 32,
        "start": 5899
      }
    ]
  },
  "source": "//SPDX-License-Identifier: MIT\npragma solidity 0.8.12;\n\nimport \"@openzeppelin/contracts/access/Ownable.sol\";\nimport \"@openzeppelin/contracts/utils/math/SafeMath.sol\";\nimport \"@openzeppelin/contracts/token/ERC20/utils/SafeERC20.sol\";\nimport \"./IStaking.sol\";\nimport \"./GalacticChef.sol\";\nimport \"./NiceToken.sol\";\ncontract BitcrushNiceStaking is Ownable {\n    using SafeMath for uint256;\n    using SafeERC20 for IERC20;\n    uint256 public performanceFeeCompounder = 10; // 10/10000 * 100 = 0.1%\n    uint256 public constant MAX_FEE = 1000; // 1000/10000 * 100 = 10%\n    uint256 public constant divisor = 10000;\n    uint256 public poolId;\n    // Contracts to Interact with\n    IStaking public stakingPool;\n    GalacticChef public galacticChef;\n    IERC20 public immutable nice;\n    \n    struct UserStaking {\n        uint256 shares;\n        uint256 profitBaseline;\n    }\n    mapping(address => UserStaking) public stakings;\n    mapping(address => uint256) public niceRewards;\n\n    uint256 public lastAutoCompoundBlock;\n\n    // Profit Accumulated Reward Per Share\n    uint256 public accProfitPerShare;\n\n    // Tracking Totals\n    uint256 public totalProfitDistributed; // Total Claimed as Profits\n\n    uint256 public deploymentTimeStamp;\n\n    event PerformanceFeeUpdated(uint256 newFee);\n    event PoolIdUpdated (uint256 poolId);\n\n    constructor(IERC20 _nice) {\n        nice = _nice;\n        deploymentTimeStamp = block.timestamp;\n    }\n\n    /// Store `_staking`.\n    /// @param _staking the new value to store\n    /// @dev stores the _staking address in the state variable `staking`\n    function setStakingPool(IStaking _staking) public onlyOwner {\n        require(\n            address(stakingPool) == address(0x0),\n            \"staking pool address already set\"\n        );\n        stakingPool = _staking;\n    }\n\n    /// Store `_galacticChef`.\n    /// @param _galacticChef the new value to store\n    /// @dev stores the _galacticChef address in the state variable `galacticChef`\n    function setGalacticChef(GalacticChef _galacticChef) public onlyOwner {\n        require(\n            address(galacticChef) == address(0x0),\n            \"staking pool address already set\"\n        );\n        galacticChef = _galacticChef;\n    }\n    \n    /// Store `_poolId`.\n    /// @param _poolId the new value to store\n    /// @dev stores the _poolId address in the state variable `poolId`\n    function setPoolId (uint256 _poolId) public onlyOwner {\n        poolId = _poolId;\n        emit PoolIdUpdated(_poolId);\n    }\n\n    /// @notice updates accProfitPerShare based on current Profit available and totalShares\n    /// @dev this allows for consistent profit reporting and no change on profits to distribute\n    function updateProfits() public {\n        if (stakingPool.totalShares() == 0) return;\n        //Todo replace with galatic chef rewards\n        uint256 requestedProfits = galacticChef.mintRewards(poolId);\n        if (requestedProfits == 0) return;\n        totalProfitDistributed = totalProfitDistributed.add(requestedProfits);\n        uint256 profitCalc = requestedProfits.mul(1e12).div(\n            stakingPool.totalShares()\n        );\n        accProfitPerShare = accProfitPerShare.add(profitCalc);\n    }\n\n    /// Get pending Profits to Claim\n    /// @param _address the user's wallet address to calculate profits\n    /// @return pending Profits to be claimed by this user\n    function pendingProfits(address _address) public returns (uint256) {\n        UserStaking memory user = stakings[_address];\n        (user.shares, , , , , , , , ) = stakingPool.stakings(_address);\n        return\n            user.shares.mul(accProfitPerShare).div(1e12).sub(\n                user.profitBaseline\n            );\n    }\n\n    /// compounds the rewards of all users in the pool\n    /// @dev compounds the rewards of all users in the pool while deducting fees\n    function compoundAll() public {\n        require(\n            lastAutoCompoundBlock <= block.number,\n            \"Compound All not yet applicable.\"\n        );\n        \n        uint256 compounderReward = 0;\n        uint256 batchStartingIndex = stakingPool.batchStartingIndex();\n        uint256 indexesLength = stakingPool.indexesLength();\n        uint256 autoCompundLimit = stakingPool.autoCompoundLimit();\n\n        uint256 batchStart = batchStartingIndex;\n        if (batchStartingIndex >= indexesLength) batchStart = 0;\n\n        uint256 batchLimit = indexesLength;\n        if (\n            indexesLength <= autoCompundLimit ||\n            batchStart.add(autoCompundLimit) >= indexesLength\n        ) batchLimit = indexesLength;\n        else batchLimit = batchStart.add(autoCompundLimit);\n\n        updateProfits();\n        for (uint256 i = batchStart; i < batchLimit; i++) {\n            address currentAddress = stakingPool.addressIndexes(i);\n            UserStaking storage currentUser = stakings[currentAddress];\n            (currentUser.shares, , , , , , , , ) = stakingPool.stakings(\n                currentAddress\n            );\n\n            uint256 stakerReward = currentUser\n                .shares\n                .mul(accProfitPerShare)\n                .div(1e12)\n                .sub(currentUser.profitBaseline);\n            currentUser.profitBaseline = currentUser.profitBaseline.add(\n                stakerReward\n            );\n\n            if (stakerReward > 0) {\n                uint256 cpAllReward = stakerReward\n                    .mul(performanceFeeCompounder)\n                    .div(divisor);\n                compounderReward = compounderReward.add(cpAllReward);\n                stakerReward = stakerReward.sub(cpAllReward);\n                niceRewards[currentAddress] = niceRewards[currentAddress].add(\n                    stakerReward\n                );\n            }\n        }\n\n        lastAutoCompoundBlock = block.number;\n        nice.safeTransfer(msg.sender, compounderReward);\n        stakingPool.compoundAll();\n    }\n\n    /// withdraw funds of users\n    /// @dev transfer all available funds of users to users wallet\n    function withdrawNiceRewards() public {\n        require(niceRewards[msg.sender] > 0, \"No rewards available\");\n        uint256 amount = niceRewards[msg.sender];\n        niceRewards[msg.sender] = 0;\n        nice.safeTransfer(msg.sender, amount);\n        \n    }\n\n    /// Store `_fee`.\n    /// @param _fee the new value to store\n    /// @dev stores the fee in the state variable `performanceFeeCompounder`\n    function setPerformanceFeeCompounder(uint256 _fee) public onlyOwner {\n        require(_fee > 0, \"Fee must be greater than 0\");\n        require(_fee < MAX_FEE, \"Fee must be less than 10%\");\n        performanceFeeCompounder = _fee;\n        emit PerformanceFeeUpdated(_fee);\n    }\n\n    /// emergency withdraw funds of users\n    /// @dev transfer all available funds of users to users wallet\n    function emergencyWithdraw() public {\n        uint256 amount = niceRewards[msg.sender];\n        niceRewards[msg.sender] = 0;\n        nice.safeTransfer(msg.sender, amount);\n    }\n}\n",
  "sourcePath": "/Users/umeralisajid/Documents/Frag/bitcrush/crush_contacts_old/contracts/niceStaking.sol",
  "compiler": {
    "name": "solc",
    "version": "0.8.12+commit.f00d7308.Emscripten.clang"
  },
  "schemaVersion": "3.4.4",
  "updatedAt": "2022-03-22T13:43:37.398Z",
  "networkType": "ethereum",
  "devdoc": {
    "kind": "dev",
    "methods": {
      "compoundAll()": {
        "details": "compounds the rewards of all users in the pool while deducting fees"
      },
      "emergencyWithdraw()": {
        "details": "transfer all available funds of users to users wallet"
      },
      "owner()": {
        "details": "Returns the address of the current owner."
      },
      "pendingProfits(address)": {
        "params": {
          "_address": "the user's wallet address to calculate profits"
        },
        "returns": {
          "_0": "pending Profits to be claimed by this user"
        }
      },
      "renounceOwnership()": {
        "details": "Leaves the contract without owner. It will not be possible to call `onlyOwner` functions anymore. Can only be called by the current owner. NOTE: Renouncing ownership will leave the contract without an owner, thereby removing any functionality that is only available to the owner."
      },
      "setGalacticChef(address)": {
        "details": "stores the _galacticChef address in the state variable `galacticChef`",
        "params": {
          "_galacticChef": "the new value to store"
        }
      },
      "setPerformanceFeeCompounder(uint256)": {
        "details": "stores the fee in the state variable `performanceFeeCompounder`",
        "params": {
          "_fee": "the new value to store"
        }
      },
      "setPoolId(uint256)": {
        "details": "stores the _poolId address in the state variable `poolId`",
        "params": {
          "_poolId": "the new value to store"
        }
      },
      "setStakingPool(address)": {
        "details": "stores the _staking address in the state variable `staking`",
        "params": {
          "_staking": "the new value to store"
        }
      },
      "transferOwnership(address)": {
        "details": "Transfers ownership of the contract to a new account (`newOwner`). Can only be called by the current owner."
      },
      "updateProfits()": {
        "details": "this allows for consistent profit reporting and no change on profits to distribute"
      },
      "withdrawNiceRewards()": {
        "details": "transfer all available funds of users to users wallet"
      }
    },
    "version": 1
  },
  "userdoc": {
    "kind": "user",
    "methods": {
      "compoundAll()": {
        "notice": "compounds the rewards of all users in the pool"
      },
      "emergencyWithdraw()": {
        "notice": "emergency withdraw funds of users"
      },
      "pendingProfits(address)": {
        "notice": "Get pending Profits to Claim"
      },
      "setGalacticChef(address)": {
        "notice": "Store `_galacticChef`."
      },
      "setPerformanceFeeCompounder(uint256)": {
        "notice": "Store `_fee`."
      },
      "setPoolId(uint256)": {
        "notice": "Store `_poolId`."
      },
      "setStakingPool(address)": {
        "notice": "Store `_staking`."
      },
      "updateProfits()": {
        "notice": "updates accProfitPerShare based on current Profit available and totalShares"
      },
      "withdrawNiceRewards()": {
        "notice": "withdraw funds of users"
      }
    },
    "version": 1
  }
}