{
  "abi": [
    {
      "inputs": [
        {
          "internalType": "contract CRUSHToken",
          "name": "_crush",
          "type": "address"
        },
        {
          "internalType": "contract BitcrushBankroll",
          "name": "_bankroll",
          "type": "address"
        },
        {
          "internalType": "address",
          "name": "_reserveAddress",
          "type": "address"
        }
      ],
      "stateMutability": "nonpayable",
      "type": "constructor"
    },
    {
      "anonymous": false,
      "inputs": [
        {
          "indexed": true,
          "internalType": "address",
          "name": "_address",
          "type": "address"
        },
        {
          "indexed": true,
          "internalType": "uint256",
          "name": "_amount",
          "type": "uint256"
        }
      ],
      "name": "Deposit",
      "type": "event"
    },
    {
      "anonymous": false,
      "inputs": [
        {
          "indexed": true,
          "internalType": "address",
          "name": "_address",
          "type": "address"
        },
        {
          "indexed": true,
          "internalType": "uint256",
          "name": "_amount",
          "type": "uint256"
        }
      ],
      "name": "DepositWin",
      "type": "event"
    },
    {
      "anonymous": false,
      "inputs": [
        {
          "indexed": true,
          "internalType": "uint256",
          "name": "_lockPeriod",
          "type": "uint256"
        }
      ],
      "name": "LockPeriodUpdated",
      "type": "event"
    },
    {
      "anonymous": false,
      "inputs": [
        {
          "indexed": true,
          "internalType": "address",
          "name": "previousOwner",
          "type": "address"
        },
        {
          "indexed": true,
          "internalType": "address",
          "name": "newOwner",
          "type": "address"
        }
      ],
      "name": "OwnershipTransferred",
      "type": "event"
    },
    {
      "anonymous": false,
      "inputs": [
        {
          "indexed": true,
          "internalType": "address",
          "name": "_address",
          "type": "address"
        },
        {
          "indexed": true,
          "internalType": "uint256",
          "name": "_amount",
          "type": "uint256"
        }
      ],
      "name": "Withdraw",
      "type": "event"
    },
    {
      "inputs": [],
      "name": "DIVISOR",
      "outputs": [
        {
          "internalType": "uint256",
          "name": "",
          "type": "uint256"
        }
      ],
      "stateMutability": "view",
      "type": "function"
    },
    {
      "inputs": [
        {
          "internalType": "uint256",
          "name": "_amount",
          "type": "uint256"
        },
        {
          "internalType": "address",
          "name": "_user",
          "type": "address"
        }
      ],
      "name": "addToUserWinnings",
      "outputs": [],
      "stateMutability": "nonpayable",
      "type": "function"
    },
    {
      "inputs": [
        {
          "internalType": "uint256",
          "name": "_amount",
          "type": "uint256"
        }
      ],
      "name": "addbet",
      "outputs": [],
      "stateMutability": "nonpayable",
      "type": "function"
    },
    {
      "inputs": [
        {
          "internalType": "uint256",
          "name": "_amount",
          "type": "uint256"
        },
        {
          "internalType": "address",
          "name": "_user",
          "type": "address"
        }
      ],
      "name": "addbetWithAddress",
      "outputs": [],
      "stateMutability": "nonpayable",
      "type": "function"
    },
    {
      "inputs": [
        {
          "internalType": "address",
          "name": "_user",
          "type": "address"
        }
      ],
      "name": "balanceOf",
      "outputs": [
        {
          "internalType": "uint256",
          "name": "",
          "type": "uint256"
        }
      ],
      "stateMutability": "view",
      "type": "function"
    },
    {
      "inputs": [],
      "name": "bankroll",
      "outputs": [
        {
          "internalType": "contract BitcrushBankroll",
          "name": "",
          "type": "address"
        }
      ],
      "stateMutability": "view",
      "type": "function"
    },
    {
      "inputs": [
        {
          "internalType": "address",
          "name": "",
          "type": "address"
        }
      ],
      "name": "betAmounts",
      "outputs": [
        {
          "internalType": "uint256",
          "name": "balance",
          "type": "uint256"
        },
        {
          "internalType": "uint256",
          "name": "lockTimeStamp",
          "type": "uint256"
        }
      ],
      "stateMutability": "view",
      "type": "function"
    },
    {
      "inputs": [],
      "name": "blacklistSelf",
      "outputs": [],
      "stateMutability": "nonpayable",
      "type": "function"
    },
    {
      "inputs": [
        {
          "internalType": "address",
          "name": "_address",
          "type": "address"
        }
      ],
      "name": "blacklistUser",
      "outputs": [],
      "stateMutability": "nonpayable",
      "type": "function"
    },
    {
      "inputs": [
        {
          "internalType": "address",
          "name": "",
          "type": "address"
        }
      ],
      "name": "blacklistedUsers",
      "outputs": [
        {
          "internalType": "bool",
          "name": "",
          "type": "bool"
        }
      ],
      "stateMutability": "view",
      "type": "function"
    },
    {
      "inputs": [],
      "name": "crush",
      "outputs": [
        {
          "internalType": "contract CRUSHToken",
          "name": "",
          "type": "address"
        }
      ],
      "stateMutability": "view",
      "type": "function"
    },
    {
      "inputs": [],
      "name": "earlyWithdrawFee",
      "outputs": [
        {
          "internalType": "uint256",
          "name": "",
          "type": "uint256"
        }
      ],
      "stateMutability": "view",
      "type": "function"
    },
    {
      "inputs": [],
      "name": "lockPeriod",
      "outputs": [
        {
          "internalType": "uint256",
          "name": "",
          "type": "uint256"
        }
      ],
      "stateMutability": "view",
      "type": "function"
    },
    {
      "inputs": [],
      "name": "owner",
      "outputs": [
        {
          "internalType": "address",
          "name": "",
          "type": "address"
        }
      ],
      "stateMutability": "view",
      "type": "function"
    },
    {
      "inputs": [
        {
          "internalType": "uint256[]",
          "name": "_bets",
          "type": "uint256[]"
        },
        {
          "internalType": "address[]",
          "name": "_users",
          "type": "address[]"
        }
      ],
      "name": "registerLoss",
      "outputs": [],
      "stateMutability": "nonpayable",
      "type": "function"
    },
    {
      "inputs": [
        {
          "internalType": "uint256[]",
          "name": "_wins",
          "type": "uint256[]"
        },
        {
          "internalType": "address[]",
          "name": "_users",
          "type": "address[]"
        }
      ],
      "name": "registerWin",
      "outputs": [],
      "stateMutability": "nonpayable",
      "type": "function"
    },
    {
      "inputs": [
        {
          "internalType": "address[]",
          "name": "_users",
          "type": "address[]"
        }
      ],
      "name": "releaseBetLock",
      "outputs": [],
      "stateMutability": "nonpayable",
      "type": "function"
    },
    {
      "inputs": [],
      "name": "renounceOwnership",
      "outputs": [],
      "stateMutability": "nonpayable",
      "type": "function"
    },
    {
      "inputs": [],
      "name": "reserveAddress",
      "outputs": [
        {
          "internalType": "address",
          "name": "",
          "type": "address"
        }
      ],
      "stateMutability": "view",
      "type": "function"
    },
    {
      "inputs": [
        {
          "internalType": "uint256",
          "name": "_earlyWithdrawFee",
          "type": "uint256"
        }
      ],
      "name": "setEarlyWithdrawFee",
      "outputs": [],
      "stateMutability": "nonpayable",
      "type": "function"
    },
    {
      "inputs": [
        {
          "internalType": "uint256",
          "name": "_lockPeriod",
          "type": "uint256"
        }
      ],
      "name": "setLockPeriod",
      "outputs": [],
      "stateMutability": "nonpayable",
      "type": "function"
    },
    {
      "inputs": [
        {
          "internalType": "address",
          "name": "_reserveAddress",
          "type": "address"
        }
      ],
      "name": "setReserveAddress",
      "outputs": [],
      "stateMutability": "nonpayable",
      "type": "function"
    },
    {
      "inputs": [
        {
          "internalType": "contract BitcrushStaking",
          "name": "_stakingPool",
          "type": "address"
        }
      ],
      "name": "setStakingPool",
      "outputs": [],
      "stateMutability": "nonpayable",
      "type": "function"
    },
    {
      "inputs": [],
      "name": "stakingPool",
      "outputs": [
        {
          "internalType": "contract BitcrushStaking",
          "name": "",
          "type": "address"
        }
      ],
      "stateMutability": "view",
      "type": "function"
    },
    {
      "inputs": [
        {
          "internalType": "address",
          "name": "newOwner",
          "type": "address"
        }
      ],
      "name": "transferOwnership",
      "outputs": [],
      "stateMutability": "nonpayable",
      "type": "function"
    },
    {
      "inputs": [
        {
          "internalType": "address[]",
          "name": "_users",
          "type": "address[]"
        }
      ],
      "name": "updateBetLock",
      "outputs": [],
      "stateMutability": "nonpayable",
      "type": "function"
    },
    {
      "inputs": [
        {
          "internalType": "address",
          "name": "_address",
          "type": "address"
        }
      ],
      "name": "whitelistUser",
      "outputs": [],
      "stateMutability": "nonpayable",
      "type": "function"
    },
    {
      "inputs": [
        {
          "internalType": "uint256",
          "name": "_amount",
          "type": "uint256"
        }
      ],
      "name": "withdrawBet",
      "outputs": [],
      "stateMutability": "nonpayable",
      "type": "function"
    },
    {
      "inputs": [
        {
          "internalType": "uint256",
          "name": "_amount",
          "type": "uint256"
        },
        {
          "internalType": "address",
          "name": "_user",
          "type": "address"
        }
      ],
      "name": "withdrawBetForUser",
      "outputs": [],
      "stateMutability": "nonpayable",
      "type": "function"
    }
  ],
  "bytecode": "60c0604052612a3060045560326006553480156200001c57600080fd5b5060405162001dce38038062001dce8339810160408190526200003f91620000e2565b6200004a3362000079565b6001600160a01b0392831660805290821660a052600580546001600160a01b0319169190921617905562000136565b600080546001600160a01b038381166001600160a01b0319831681178455604051919092169283917f8be0079c531659141344cd1fd0a4f28419497f9722a3daafe3b4186f6b6457e09190a35050565b6001600160a01b0381168114620000df57600080fd5b50565b600080600060608486031215620000f857600080fd5b83516200010581620000c9565b60208501519093506200011881620000c9565b60408501519092506200012b81620000c9565b809150509250925092565b60805160a051611c2c620001a26000396000818161020901528181611057015281816111d20152818161141c01526114cf0152600081816103b00152818161065c0152818161086a01528181610ac801528181610fa101528181610fd7015261144b0152611c2c6000f3fe608060405234801561001057600080fd5b50600436106101cf5760003560e01c8063815b738611610104578063c22982f4116100a2578063f2fde38b11610071578063f2fde38b14610447578063f62cf8d01461045a578063f79ed94b1461046d578063fcbca4561461048057600080fd5b8063c22982f4146103d2578063d4b9661c146103e5578063ebcfcf6b146103f8578063f2150bbb1461043457600080fd5b8063a4ae1c56116100de578063a4ae1c561461037c578063a80a78821461038f578063afb62d7014610398578063b359a9f9146103ab57600080fd5b8063815b7386146103455780638da5cb5b14610358578063a2b1a2cc1461036957600080fd5b80634a4c560d11610171578063715018a61161014b578063715018a6146102f5578063723ea115146102fd578063779972da1461031f5780637efd38131461033257600080fd5b80634a4c560d146102a65780636145b22c146102b957806370a08231146102cc57600080fd5b806322c0aec7116101ad57806322c0aec7146102405780633028f63a146102735780633410fe6e146102865780633fd8b02f1461029d57600080fd5b80630c56ae3b146101d45780630c657eb01461020457806314673d311461022b575b600080fd5b6003546101e7906001600160a01b031681565b6040516001600160a01b0390911681526020015b60405180910390f35b6101e77f000000000000000000000000000000000000000000000000000000000000000081565b61023e6102393660046117b6565b610493565b005b61026361024e3660046117b6565b60016020526000908152604090205460ff1681565b60405190151581526020016101fb565b61023e6102813660046117b6565b6104e8565b61028f61271081565b6040519081526020016101fb565b61028f60045481565b61023e6102b43660046117b6565b61058d565b61023e6102c73660046117d3565b6105d8565b61028f6102da3660046117b6565b6001600160a01b031660009081526002602052604090205490565b61023e6106e5565b61023e336000908152600160208190526040909120805460ff19169091179055565b61023e61032d3660046117d3565b61071b565b61023e6103403660046117ec565b6107dd565b61023e6103533660046118fb565b610906565b6000546001600160a01b03166101e7565b61023e6103773660046117d3565b61099a565b61023e61038a366004611930565b610b27565b61028f60065481565b61023e6103a63660046118fb565b610d45565b6101e77f000000000000000000000000000000000000000000000000000000000000000081565b61023e6103e03660046117d3565b610dd4565b61023e6103f33660046117ec565b610e65565b61041f6104063660046117b6565b6002602052600090815260409020805460019091015482565b604080519283526020830191909152016101fb565b61023e610442366004611930565b610ffe565b61023e6104553660046117b6565b61112c565b61023e6104683660046117ec565b6111c7565b6005546101e7906001600160a01b031681565b61023e61048e3660046117b6565b6112a4565b6000546001600160a01b031633146104c65760405162461bcd60e51b81526004016104bd906119e9565b60405180910390fd5b600580546001600160a01b0319166001600160a01b0392909216919091179055565b6000546001600160a01b031633146105125760405162461bcd60e51b81526004016104bd906119e9565b6003546001600160a01b03161561056b5760405162461bcd60e51b815260206004820181905260248201527f7374616b696e6720706f6f6c206164647265737320616c72656164792073657460448201526064016104bd565b600380546001600160a01b0319166001600160a01b0392909216919091179055565b6000546001600160a01b031633146105b75760405162461bcd60e51b81526004016104bd906119e9565b6001600160a01b03166000908152600160205260409020805460ff19169055565b600081116105f85760405162461bcd60e51b81526004016104bd90611a1e565b3360009081526001602052604090205460ff161561064f5760405162461bcd60e51b8152602060048201526014602482015273155cd95c881a5cc8189b1858dac8131a5cdd195960621b60448201526064016104bd565b6106846001600160a01b037f0000000000000000000000000000000000000000000000000000000000000000163330846112f5565b3360009081526002602052604090205461069e9082611366565b3360008181526002602052604080822093845542600190940193909355915183927fe1fffcc4923d04b559f4d29a8bfc6cda04eb5b0d3c460751c2402c5c5cc9109c91a350565b6000546001600160a01b0316331461070f5760405162461bcd60e51b81526004016104bd906119e9565b6107196000611379565b565b6000546001600160a01b031633146107455760405162461bcd60e51b81526004016104bd906119e9565b62093a808111156107aa5760405162461bcd60e51b815260206004820152602960248201527f4c6f636b20706572696f642063616e6e6f742062652067726561746572207468604482015268616e2031207765656b60b81b60648201526084016104bd565b600481905560405181907f8249ec545e68f6f1e1230133ca48c704d831a7f8e635ded80f3dd9e99b09bb2f90600090a250565b600082116107fd5760405162461bcd60e51b81526004016104bd90611a1e565b6001600160a01b03811660009081526001602052604090205460ff161561085d5760405162461bcd60e51b8152602060048201526014602482015273155cd95c881a5cc8189b1858dac8131a5cdd195960621b60448201526064016104bd565b6108926001600160a01b037f0000000000000000000000000000000000000000000000000000000000000000163330856112f5565b6001600160a01b0381166000908152600260205260409020546108b59083611366565b6001600160a01b03821660008181526002602052604080822093845542600190940193909355915184927f40a0b865ae77859153eafc5cde95d936f135cc12158b807a1ec5f644bea4111e91a35050565b6000546001600160a01b031633146109305760405162461bcd60e51b81526004016104bd906119e9565b60005b81518110156109965760006002600084848151811061095457610954611a61565b60200260200101516001600160a01b03166001600160a01b0316815260200190815260200160002060010181905550808061098e90611a8d565b915050610933565b5050565b336000908152600260205260409020548111156109f95760405162461bcd60e51b815260206004820152601d60248201527f626574206c657373207468616e20616d6f756e7420776974686472617700000060448201526064016104bd565b336000908152600260205260409020600101541580610a375750600454336000908152600260205260409020600101544291610a359190611366565b105b610a955760405162461bcd60e51b815260206004820152602960248201527f42657420416d6f756e74206c6f636b65642c20706c656173652074727920616760448201526830b4b7103630ba32b960b91b60648201526084016104bd565b33600090815260026020526040902054610aaf90826113c9565b33600081815260026020526040902091909155610af7907f00000000000000000000000000000000000000000000000000000000000000006001600160a01b031690836113d5565b604051819033907f884edad9ce6fa2440d8a54cc123490eb96d2768479d49ff9c7366125a942436490600090a350565b6000546001600160a01b03163314610b515760405162461bcd60e51b81526004016104bd906119e9565b8051825114610b725760405162461bcd60e51b81526004016104bd90611aa8565b60005b8151811015610d40576000838281518110610b9257610b92611a61565b60200260200101511115610d2e57828181518110610bb257610bb2611a61565b602002602001015160026000848481518110610bd057610bd0611a61565b60200260200101516001600160a01b03166001600160a01b03168152602001908152602001600020600001541015610c645760405162461bcd60e51b815260206004820152603160248201527f4c6f73732062657420616d6f756e742069732067726561746572207468616e20604482015270617661696c61626c652062616c616e636560781b60648201526084016104bd565b610c86838281518110610c7957610c79611a61565b6020026020010151611405565b610cf3838281518110610c9b57610c9b611a61565b602002602001015160026000858581518110610cb957610cb9611a61565b60200260200101516001600160a01b03166001600160a01b03168152602001908152602001600020600001546113c990919063ffffffff16565b60026000848481518110610d0957610d09611a61565b6020908102919091018101516001600160a01b03168252810191909152604001600020555b80610d3881611a8d565b915050610b75565b505050565b6000546001600160a01b03163314610d6f5760405162461bcd60e51b81526004016104bd906119e9565b60005b8151811015610996574260026000848481518110610d9257610d92611a61565b60200260200101516001600160a01b03166001600160a01b03168152602001908152602001600020600101819055508080610dcc90611a8d565b915050610d72565b6000546001600160a01b03163314610dfe5760405162461bcd60e51b81526004016104bd906119e9565b610fa08110610e605760405162461bcd60e51b815260206004820152602860248201527f4561726c7920776974686472617720666565206d757374206265206c657373206044820152677468616e2034302560c01b60648201526084016104bd565b600655565b6000546001600160a01b03163314610e8f5760405162461bcd60e51b81526004016104bd906119e9565b6001600160a01b038116600090815260026020526040902054821115610ef75760405162461bcd60e51b815260206004820152601d60248201527f626574206c657373207468616e20616d6f756e7420776974686472617700000060448201526064016104bd565b6001600160a01b038116600090815260026020526040902054610f1a90836113c9565b6001600160a01b03821660008181526002602052604080822093909355915184927f884edad9ce6fa2440d8a54cc123490eb96d2768479d49ff9c7366125a942436491a36000610f81612710610f7b6006548661153690919063ffffffff16565b90611542565b9050610f8d83826113c9565b600554909350610fca906001600160a01b037f000000000000000000000000000000000000000000000000000000000000000081169116836113d5565b610d406001600160a01b037f00000000000000000000000000000000000000000000000000000000000000001683856113d5565b6000546001600160a01b031633146110285760405162461bcd60e51b81526004016104bd906119e9565b80518251146110495760405162461bcd60e51b81526004016104bd90611aa8565b60005b8151811015610d40577f00000000000000000000000000000000000000000000000000000000000000006001600160a01b03166361433d8884838151811061109657611096611a61565b60200260200101518484815181106110b0576110b0611a61565b60200260200101516040518363ffffffff1660e01b81526004016110e79291909182526001600160a01b0316602082015260400190565b600060405180830381600087803b15801561110157600080fd5b505af1158015611115573d6000803e3d6000fd5b50505050808061112490611a8d565b91505061104c565b6000546001600160a01b031633146111565760405162461bcd60e51b81526004016104bd906119e9565b6001600160a01b0381166111bb5760405162461bcd60e51b815260206004820152602660248201527f4f776e61626c653a206e6577206f776e657220697320746865207a65726f206160448201526564647265737360d01b60648201526084016104bd565b6111c481611379565b50565b336001600160a01b037f000000000000000000000000000000000000000000000000000000000000000016148061120857506003546001600160a01b031633145b6112645760405162461bcd60e51b815260206004820152602760248201527f43616c6c6572206d7573742062652062616e6b726f6c6c206f72207374616b696044820152661b99c81c1bdbdb60ca1b60648201526084016104bd565b6001600160a01b0381166000908152600260205260409020546112879083611366565b6001600160a01b0390911660009081526002602052604090205550565b6000546001600160a01b031633146112ce5760405162461bcd60e51b81526004016104bd906119e9565b6001600160a01b03166000908152600160208190526040909120805460ff19169091179055565b6040516001600160a01b03808516602483015283166044820152606481018290526113609085906323b872dd60e01b906084015b60408051601f198184030181529190526020810180516001600160e01b03166001600160e01b03199093169290921790915261154e565b50505050565b60006113728284611ae9565b9392505050565b600080546001600160a01b038381166001600160a01b0319831681178455604051919092169283917f8be0079c531659141344cd1fd0a4f28419497f9722a3daafe3b4186f6b6457e09190a35050565b60006113728284611b01565b6040516001600160a01b038316602482015260448101829052610d4090849063a9059cbb60e01b90606401611329565b60405163095ea7b360e01b81526001600160a01b037f000000000000000000000000000000000000000000000000000000000000000081166004830152602482018390527f0000000000000000000000000000000000000000000000000000000000000000169063095ea7b3906044016020604051808303816000875af1158015611494573d6000803e3d6000fd5b505050506040513d601f19601f820116820180604052508101906114b89190611b18565b50604051636172858b60e11b8152600481018290527f00000000000000000000000000000000000000000000000000000000000000006001600160a01b03169063c2e50b1690602401600060405180830381600087803b15801561151b57600080fd5b505af115801561152f573d6000803e3d6000fd5b5050505050565b60006113728284611b3a565b60006113728284611b59565b60006115a3826040518060400160405280602081526020017f5361666545524332303a206c6f772d6c6576656c2063616c6c206661696c6564815250856001600160a01b03166116209092919063ffffffff16565b805190915015610d4057808060200190518101906115c19190611b18565b610d405760405162461bcd60e51b815260206004820152602a60248201527f5361666545524332303a204552433230206f7065726174696f6e20646964206e6044820152691bdd081cdd58d8d9595960b21b60648201526084016104bd565b606061162f8484600085611637565b949350505050565b6060824710156116985760405162461bcd60e51b815260206004820152602660248201527f416464726573733a20696e73756666696369656e742062616c616e636520666f6044820152651c8818d85b1b60d21b60648201526084016104bd565b6001600160a01b0385163b6116ef5760405162461bcd60e51b815260206004820152601d60248201527f416464726573733a2063616c6c20746f206e6f6e2d636f6e747261637400000060448201526064016104bd565b600080866001600160a01b0316858760405161170b9190611ba7565b60006040518083038185875af1925050503d8060008114611748576040519150601f19603f3d011682016040523d82523d6000602084013e61174d565b606091505b509150915061175d828286611768565b979650505050505050565b60608315611777575081611372565b8251156117875782518084602001fd5b8160405162461bcd60e51b81526004016104bd9190611bc3565b6001600160a01b03811681146111c457600080fd5b6000602082840312156117c857600080fd5b8135611372816117a1565b6000602082840312156117e557600080fd5b5035919050565b600080604083850312156117ff57600080fd5b823591506020830135611811816117a1565b809150509250929050565b634e487b7160e01b600052604160045260246000fd5b604051601f8201601f1916810167ffffffffffffffff8111828210171561185b5761185b61181c565b604052919050565b600067ffffffffffffffff82111561187d5761187d61181c565b5060051b60200190565b600082601f83011261189857600080fd5b813560206118ad6118a883611863565b611832565b82815260059290921b840181019181810190868411156118cc57600080fd5b8286015b848110156118f05780356118e3816117a1565b83529183019183016118d0565b509695505050505050565b60006020828403121561190d57600080fd5b813567ffffffffffffffff81111561192457600080fd5b61162f84828501611887565b6000806040838503121561194357600080fd5b823567ffffffffffffffff8082111561195b57600080fd5b818501915085601f83011261196f57600080fd5b8135602061197f6118a883611863565b82815260059290921b8401810191818101908984111561199e57600080fd5b948201945b838610156119bc578535825294820194908201906119a3565b965050860135925050808211156119d257600080fd5b506119df85828601611887565b9150509250929050565b6020808252818101527f4f776e61626c653a2063616c6c6572206973206e6f7420746865206f776e6572604082015260600190565b60208082526023908201527f42657420616d6f756e742073686f756c6420626520677265617465722074686160408201526206e20360ec1b606082015260800190565b634e487b7160e01b600052603260045260246000fd5b634e487b7160e01b600052601160045260246000fd5b6000600019821415611aa157611aa1611a77565b5060010190565b60208082526021908201527f506172616d65746572206c656e677468732073686f756c6420626520657175616040820152601b60fa1b606082015260800190565b60008219821115611afc57611afc611a77565b500190565b600082821015611b1357611b13611a77565b500390565b600060208284031215611b2a57600080fd5b8151801515811461137257600080fd5b6000816000190483118215151615611b5457611b54611a77565b500290565b600082611b7657634e487b7160e01b600052601260045260246000fd5b500490565b60005b83811015611b96578181015183820152602001611b7e565b838111156113605750506000910152565b60008251611bb9818460208701611b7b565b9190910192915050565b6020815260008251806020840152611be2816040850160208701611b7b565b601f01601f1916919091016040019291505056fea2646970667358221220e5c8b6264c1a8b11c3681fc368ed0d0d9da4d164c54eae1ab76c628e0893cbc264736f6c634300080c0033",
  "bytecodeSha1": "e3ba8a5a06768f47877ff2a6a197799d8aa1c8cb",
  "compiler": {
    "evm_version": "istanbul",
    "optimizer": {
      "enabled": true,
      "runs": 200
    },
    "version": "0.8.12+commit.f00d7308"
  },
  "contractName": "BitcrushLiveWallet",
  "language": "Solidity",
  "natspec": {
    "kind": "dev",
    "methods": {
      "addToUserWinnings(uint256,address)": {
        "details": "add funds to the users live wallet as winnings",
        "notice": "add funds to the users live wallet on wins by either the bankroll or the staking pool"
      },
      "addbet(uint256)": {
        "details": "adds funds to the sender user's live wallets",
        "notice": "add funds to the senders live wallet"
      },
      "addbetWithAddress(uint256,address)": {
        "details": "adds funds to the specified users live wallets",
        "notice": "add funds to the provided users live wallet"
      },
      "balanceOf(address)": {
        "details": "return current the balance of provided user addrss in the live wallet",
        "notice": "return the current balance of user in the live wallet"
      },
      "blacklistSelf()": {
        "details": "prevent sender address from adding funds to the live wallet",
        "notice": "blacklist sender address from adding more funds to the pool"
      },
      "blacklistUser(address)": {
        "details": "prevent specified address from adding funds to the live wallet",
        "notice": "blacklist specified address from adding more funds to the pool"
      },
      "owner()": {
        "details": "Returns the address of the current owner."
      },
      "registerLoss(uint256[],address[])": {
        "details": "register loss for users during gameplay. loss is reported in aggregated form from the game server.",
        "notice": "register loss for users in game with amounts"
      },
      "registerWin(uint256[],address[])": {
        "details": "register wins for users during gameplay. wins are reported in aggregated form from the game server.",
        "notice": "register wins for users in game with amounts"
      },
      "releaseBetLock(address[])": {
        "details": "update bet lock to allow withdraws after gameplay",
        "notice": "update the lockTimeStamp of provided users to 0 to allow withdraws"
      },
      "renounceOwnership()": {
        "details": "Leaves the contract without owner. It will not be possible to call `onlyOwner` functions anymore. Can only be called by the current owner. NOTE: Renouncing ownership will leave the contract without an owner, thereby removing any functionality that is only available to the owner."
      },
      "setEarlyWithdrawFee(uint256)": {
        "details": "stores the _earlyWithdrawFee in the state variable `earlyWithdrawFee`",
        "notice": "Store `_earlyWithdrawFee`.",
        "params": {
          "_earlyWithdrawFee": "the new value to store"
        }
      },
      "setLockPeriod(uint256)": {
        "details": "stores the _lockPeriod in the state variable `lockPeriod`",
        "notice": "Store `_lockPeriod`.",
        "params": {
          "_lockPeriod": "the new value to store"
        }
      },
      "setReserveAddress(address)": {
        "details": "stores the _reserveAddress in the state variable `reserveAddress`",
        "notice": "Store `_reserveAddress`.",
        "params": {
          "_reserveAddress": "the new value to store"
        }
      },
      "setStakingPool(address)": {
        "details": "stores the _stakingPool address in the state variable `stakingPool`",
        "notice": "Store `_stakingPool`.",
        "params": {
          "_stakingPool": "the new value to store"
        }
      },
      "transferOwnership(address)": {
        "details": "Transfers ownership of the contract to a new account (`newOwner`). Can only be called by the current owner."
      },
      "updateBetLock(address[])": {
        "details": "update bet lock to prevent withdraws during gameplay",
        "notice": "update the lockTimeStamp of provided users to current timestamp to prevent withdraws"
      },
      "whitelistUser(address)": {
        "details": "allow previously blacklisted sender address to add funds to the live wallet",
        "notice": "whitelist sender address from adding more funds to the pool"
      },
      "withdrawBet(uint256)": {
        "details": "withdraw amount from users wallet if betlock isnt enabled",
        "notice": "withdraw funds from live wallet of the senders address"
      },
      "withdrawBetForUser(uint256,address)": {
        "details": "withdraw preapproved amount from users wallet sidestepping the timelock on withdrawals",
        "notice": "owner only function to override timelock and withdraw funds on behalf of user"
      }
    },
    "version": 1
  },
  "opcodes": "PUSH1 0x80 PUSH1 0x40 MSTORE CALLVALUE DUP1 ISZERO PUSH2 0x10 JUMPI PUSH1 0x0 DUP1 REVERT JUMPDEST POP PUSH1 0x4 CALLDATASIZE LT PUSH2 0x1CF JUMPI PUSH1 0x0 CALLDATALOAD PUSH1 0xE0 SHR DUP1 PUSH4 0x815B7386 GT PUSH2 0x104 JUMPI DUP1 PUSH4 0xC22982F4 GT PUSH2 0xA2 JUMPI DUP1 PUSH4 0xF2FDE38B GT PUSH2 0x71 JUMPI DUP1 PUSH4 0xF2FDE38B EQ PUSH2 0x447 JUMPI DUP1 PUSH4 0xF62CF8D0 EQ PUSH2 0x45A JUMPI DUP1 PUSH4 0xF79ED94B EQ PUSH2 0x46D JUMPI DUP1 PUSH4 0xFCBCA456 EQ PUSH2 0x480 JUMPI PUSH1 0x0 DUP1 REVERT JUMPDEST DUP1 PUSH4 0xC22982F4 EQ PUSH2 0x3D2 JUMPI DUP1 PUSH4 0xD4B9661C EQ PUSH2 0x3E5 JUMPI DUP1 PUSH4 0xEBCFCF6B EQ PUSH2 0x3F8 JUMPI DUP1 PUSH4 0xF2150BBB EQ PUSH2 0x434 JUMPI PUSH1 0x0 DUP1 REVERT JUMPDEST DUP1 PUSH4 0xA4AE1C56 GT PUSH2 0xDE JUMPI DUP1 PUSH4 0xA4AE1C56 EQ PUSH2 0x37C JUMPI DUP1 PUSH4 0xA80A7882 EQ PUSH2 0x38F JUMPI DUP1 PUSH4 0xAFB62D70 EQ PUSH2 0x398 JUMPI DUP1 PUSH4 0xB359A9F9 EQ PUSH2 0x3AB JUMPI PUSH1 0x0 DUP1 REVERT JUMPDEST DUP1 PUSH4 0x815B7386 EQ PUSH2 0x345 JUMPI DUP1 PUSH4 0x8DA5CB5B EQ PUSH2 0x358 JUMPI DUP1 PUSH4 0xA2B1A2CC EQ PUSH2 0x369 JUMPI PUSH1 0x0 DUP1 REVERT JUMPDEST DUP1 PUSH4 0x4A4C560D GT PUSH2 0x171 JUMPI DUP1 PUSH4 0x715018A6 GT PUSH2 0x14B JUMPI DUP1 PUSH4 0x715018A6 EQ PUSH2 0x2F5 JUMPI DUP1 PUSH4 0x723EA115 EQ PUSH2 0x2FD JUMPI DUP1 PUSH4 0x779972DA EQ PUSH2 0x31F JUMPI DUP1 PUSH4 0x7EFD3813 EQ PUSH2 0x332 JUMPI PUSH1 0x0 DUP1 REVERT JUMPDEST DUP1 PUSH4 0x4A4C560D EQ PUSH2 0x2A6 JUMPI DUP1 PUSH4 0x6145B22C EQ PUSH2 0x2B9 JUMPI DUP1 PUSH4 0x70A08231 EQ PUSH2 0x2CC JUMPI PUSH1 0x0 DUP1 REVERT JUMPDEST DUP1 PUSH4 0x22C0AEC7 GT PUSH2 0x1AD JUMPI DUP1 PUSH4 0x22C0AEC7 EQ PUSH2 0x240 JUMPI DUP1 PUSH4 0x3028F63A EQ PUSH2 0x273 JUMPI DUP1 PUSH4 0x3410FE6E EQ PUSH2 0x286 JUMPI DUP1 PUSH4 0x3FD8B02F EQ PUSH2 0x29D JUMPI PUSH1 0x0 DUP1 REVERT JUMPDEST DUP1 PUSH4 0xC56AE3B EQ PUSH2 0x1D4 JUMPI DUP1 PUSH4 0xC657EB0 EQ PUSH2 0x204 JUMPI DUP1 PUSH4 0x14673D31 EQ PUSH2 0x22B JUMPI JUMPDEST PUSH1 0x0 DUP1 REVERT JUMPDEST PUSH1 0x3 SLOAD PUSH2 0x1E7 SWAP1 PUSH1 0x1 PUSH1 0x1 PUSH1 0xA0 SHL SUB AND DUP2 JUMP JUMPDEST PUSH1 0x40 MLOAD PUSH1 0x1 PUSH1 0x1 PUSH1 0xA0 SHL SUB SWAP1 SWAP2 AND DUP2 MSTORE PUSH1 0x20 ADD JUMPDEST PUSH1 0x40 MLOAD DUP1 SWAP2 SUB SWAP1 RETURN JUMPDEST PUSH2 0x1E7 PUSH32 0x0 DUP2 JUMP JUMPDEST PUSH2 0x23E PUSH2 0x239 CALLDATASIZE PUSH1 0x4 PUSH2 0x17B6 JUMP JUMPDEST PUSH2 0x493 JUMP JUMPDEST STOP JUMPDEST PUSH2 0x263 PUSH2 0x24E CALLDATASIZE PUSH1 0x4 PUSH2 0x17B6 JUMP JUMPDEST PUSH1 0x1 PUSH1 0x20 MSTORE PUSH1 0x0 SWAP1 DUP2 MSTORE PUSH1 0x40 SWAP1 KECCAK256 SLOAD PUSH1 0xFF AND DUP2 JUMP JUMPDEST PUSH1 0x40 MLOAD SWAP1 ISZERO ISZERO DUP2 MSTORE PUSH1 0x20 ADD PUSH2 0x1FB JUMP JUMPDEST PUSH2 0x23E PUSH2 0x281 CALLDATASIZE PUSH1 0x4 PUSH2 0x17B6 JUMP JUMPDEST PUSH2 0x4E8 JUMP JUMPDEST PUSH2 0x28F PUSH2 0x2710 DUP2 JUMP JUMPDEST PUSH1 0x40 MLOAD SWAP1 DUP2 MSTORE PUSH1 0x20 ADD PUSH2 0x1FB JUMP JUMPDEST PUSH2 0x28F PUSH1 0x4 SLOAD DUP2 JUMP JUMPDEST PUSH2 0x23E PUSH2 0x2B4 CALLDATASIZE PUSH1 0x4 PUSH2 0x17B6 JUMP JUMPDEST PUSH2 0x58D JUMP JUMPDEST PUSH2 0x23E PUSH2 0x2C7 CALLDATASIZE PUSH1 0x4 PUSH2 0x17D3 JUMP JUMPDEST PUSH2 0x5D8 JUMP JUMPDEST PUSH2 0x28F PUSH2 0x2DA CALLDATASIZE PUSH1 0x4 PUSH2 0x17B6 JUMP JUMPDEST PUSH1 0x1 PUSH1 0x1 PUSH1 0xA0 SHL SUB AND PUSH1 0x0 SWAP1 DUP2 MSTORE PUSH1 0x2 PUSH1 0x20 MSTORE PUSH1 0x40 SWAP1 KECCAK256 SLOAD SWAP1 JUMP JUMPDEST PUSH2 0x23E PUSH2 0x6E5 JUMP JUMPDEST PUSH2 0x23E CALLER PUSH1 0x0 SWAP1 DUP2 MSTORE PUSH1 0x1 PUSH1 0x20 DUP2 SWAP1 MSTORE PUSH1 0x40 SWAP1 SWAP2 KECCAK256 DUP1 SLOAD PUSH1 0xFF NOT AND SWAP1 SWAP2 OR SWAP1 SSTORE JUMP JUMPDEST PUSH2 0x23E PUSH2 0x32D CALLDATASIZE PUSH1 0x4 PUSH2 0x17D3 JUMP JUMPDEST PUSH2 0x71B JUMP JUMPDEST PUSH2 0x23E PUSH2 0x340 CALLDATASIZE PUSH1 0x4 PUSH2 0x17EC JUMP JUMPDEST PUSH2 0x7DD JUMP JUMPDEST PUSH2 0x23E PUSH2 0x353 CALLDATASIZE PUSH1 0x4 PUSH2 0x18FB JUMP JUMPDEST PUSH2 0x906 JUMP JUMPDEST PUSH1 0x0 SLOAD PUSH1 0x1 PUSH1 0x1 PUSH1 0xA0 SHL SUB AND PUSH2 0x1E7 JUMP JUMPDEST PUSH2 0x23E PUSH2 0x377 CALLDATASIZE PUSH1 0x4 PUSH2 0x17D3 JUMP JUMPDEST PUSH2 0x99A JUMP JUMPDEST PUSH2 0x23E PUSH2 0x38A CALLDATASIZE PUSH1 0x4 PUSH2 0x1930 JUMP JUMPDEST PUSH2 0xB27 JUMP JUMPDEST PUSH2 0x28F PUSH1 0x6 SLOAD DUP2 JUMP JUMPDEST PUSH2 0x23E PUSH2 0x3A6 CALLDATASIZE PUSH1 0x4 PUSH2 0x18FB JUMP JUMPDEST PUSH2 0xD45 JUMP JUMPDEST PUSH2 0x1E7 PUSH32 0x0 DUP2 JUMP JUMPDEST PUSH2 0x23E PUSH2 0x3E0 CALLDATASIZE PUSH1 0x4 PUSH2 0x17D3 JUMP JUMPDEST PUSH2 0xDD4 JUMP JUMPDEST PUSH2 0x23E PUSH2 0x3F3 CALLDATASIZE PUSH1 0x4 PUSH2 0x17EC JUMP JUMPDEST PUSH2 0xE65 JUMP JUMPDEST PUSH2 0x41F PUSH2 0x406 CALLDATASIZE PUSH1 0x4 PUSH2 0x17B6 JUMP JUMPDEST PUSH1 0x2 PUSH1 0x20 MSTORE PUSH1 0x0 SWAP1 DUP2 MSTORE PUSH1 0x40 SWAP1 KECCAK256 DUP1 SLOAD PUSH1 0x1 SWAP1 SWAP2 ADD SLOAD DUP3 JUMP JUMPDEST PUSH1 0x40 DUP1 MLOAD SWAP3 DUP4 MSTORE PUSH1 0x20 DUP4 ADD SWAP2 SWAP1 SWAP2 MSTORE ADD PUSH2 0x1FB JUMP JUMPDEST PUSH2 0x23E PUSH2 0x442 CALLDATASIZE PUSH1 0x4 PUSH2 0x1930 JUMP JUMPDEST PUSH2 0xFFE JUMP JUMPDEST PUSH2 0x23E PUSH2 0x455 CALLDATASIZE PUSH1 0x4 PUSH2 0x17B6 JUMP JUMPDEST PUSH2 0x112C JUMP JUMPDEST PUSH2 0x23E PUSH2 0x468 CALLDATASIZE PUSH1 0x4 PUSH2 0x17EC JUMP JUMPDEST PUSH2 0x11C7 JUMP JUMPDEST PUSH1 0x5 SLOAD PUSH2 0x1E7 SWAP1 PUSH1 0x1 PUSH1 0x1 PUSH1 0xA0 SHL SUB AND DUP2 JUMP JUMPDEST PUSH2 0x23E PUSH2 0x48E CALLDATASIZE PUSH1 0x4 PUSH2 0x17B6 JUMP JUMPDEST PUSH2 0x12A4 JUMP JUMPDEST PUSH1 0x0 SLOAD PUSH1 0x1 PUSH1 0x1 PUSH1 0xA0 SHL SUB AND CALLER EQ PUSH2 0x4C6 JUMPI PUSH1 0x40 MLOAD PUSH3 0x461BCD PUSH1 0xE5 SHL DUP2 MSTORE PUSH1 0x4 ADD PUSH2 0x4BD SWAP1 PUSH2 0x19E9 JUMP JUMPDEST PUSH1 0x40 MLOAD DUP1 SWAP2 SUB SWAP1 REVERT JUMPDEST PUSH1 0x5 DUP1 SLOAD PUSH1 0x1 PUSH1 0x1 PUSH1 0xA0 SHL SUB NOT AND PUSH1 0x1 PUSH1 0x1 PUSH1 0xA0 SHL SUB SWAP3 SWAP1 SWAP3 AND SWAP2 SWAP1 SWAP2 OR SWAP1 SSTORE JUMP JUMPDEST PUSH1 0x0 SLOAD PUSH1 0x1 PUSH1 0x1 PUSH1 0xA0 SHL SUB AND CALLER EQ PUSH2 0x512 JUMPI PUSH1 0x40 MLOAD PUSH3 0x461BCD PUSH1 0xE5 SHL DUP2 MSTORE PUSH1 0x4 ADD PUSH2 0x4BD SWAP1 PUSH2 0x19E9 JUMP JUMPDEST PUSH1 0x3 SLOAD PUSH1 0x1 PUSH1 0x1 PUSH1 0xA0 SHL SUB AND ISZERO PUSH2 0x56B JUMPI PUSH1 0x40 MLOAD PUSH3 0x461BCD PUSH1 0xE5 SHL DUP2 MSTORE PUSH1 0x20 PUSH1 0x4 DUP3 ADD DUP2 SWAP1 MSTORE PUSH1 0x24 DUP3 ADD MSTORE PUSH32 0x7374616B696E6720706F6F6C206164647265737320616C726561647920736574 PUSH1 0x44 DUP3 ADD MSTORE PUSH1 0x64 ADD PUSH2 0x4BD JUMP JUMPDEST PUSH1 0x3 DUP1 SLOAD PUSH1 0x1 PUSH1 0x1 PUSH1 0xA0 SHL SUB NOT AND PUSH1 0x1 PUSH1 0x1 PUSH1 0xA0 SHL SUB SWAP3 SWAP1 SWAP3 AND SWAP2 SWAP1 SWAP2 OR SWAP1 SSTORE JUMP JUMPDEST PUSH1 0x0 SLOAD PUSH1 0x1 PUSH1 0x1 PUSH1 0xA0 SHL SUB AND CALLER EQ PUSH2 0x5B7 JUMPI PUSH1 0x40 MLOAD PUSH3 0x461BCD PUSH1 0xE5 SHL DUP2 MSTORE PUSH1 0x4 ADD PUSH2 0x4BD SWAP1 PUSH2 0x19E9 JUMP JUMPDEST PUSH1 0x1 PUSH1 0x1 PUSH1 0xA0 SHL SUB AND PUSH1 0x0 SWAP1 DUP2 MSTORE PUSH1 0x1 PUSH1 0x20 MSTORE PUSH1 0x40 SWAP1 KECCAK256 DUP1 SLOAD PUSH1 0xFF NOT AND SWAP1 SSTORE JUMP JUMPDEST PUSH1 0x0 DUP2 GT PUSH2 0x5F8 JUMPI PUSH1 0x40 MLOAD PUSH3 0x461BCD PUSH1 0xE5 SHL DUP2 MSTORE PUSH1 0x4 ADD PUSH2 0x4BD SWAP1 PUSH2 0x1A1E JUMP JUMPDEST CALLER PUSH1 0x0 SWAP1 DUP2 MSTORE PUSH1 0x1 PUSH1 0x20 MSTORE PUSH1 0x40 SWAP1 KECCAK256 SLOAD PUSH1 0xFF AND ISZERO PUSH2 0x64F JUMPI PUSH1 0x40 MLOAD PUSH3 0x461BCD PUSH1 0xE5 SHL DUP2 MSTORE PUSH1 0x20 PUSH1 0x4 DUP3 ADD MSTORE PUSH1 0x14 PUSH1 0x24 DUP3 ADD MSTORE PUSH20 0x155CD95C881A5CC8189B1858DAC8131A5CDD1959 PUSH1 0x62 SHL PUSH1 0x44 DUP3 ADD MSTORE PUSH1 0x64 ADD PUSH2 0x4BD JUMP JUMPDEST PUSH2 0x684 PUSH1 0x1 PUSH1 0x1 PUSH1 0xA0 SHL SUB PUSH32 0x0 AND CALLER ADDRESS DUP5 PUSH2 0x12F5 JUMP JUMPDEST CALLER PUSH1 0x0 SWAP1 DUP2 MSTORE PUSH1 0x2 PUSH1 0x20 MSTORE PUSH1 0x40 SWAP1 KECCAK256 SLOAD PUSH2 0x69E SWAP1 DUP3 PUSH2 0x1366 JUMP JUMPDEST CALLER PUSH1 0x0 DUP2 DUP2 MSTORE PUSH1 0x2 PUSH1 0x20 MSTORE PUSH1 0x40 DUP1 DUP3 KECCAK256 SWAP4 DUP5 SSTORE TIMESTAMP PUSH1 0x1 SWAP1 SWAP5 ADD SWAP4 SWAP1 SWAP4 SSTORE SWAP2 MLOAD DUP4 SWAP3 PUSH32 0xE1FFFCC4923D04B559F4D29A8BFC6CDA04EB5B0D3C460751C2402C5C5CC9109C SWAP2 LOG3 POP JUMP JUMPDEST PUSH1 0x0 SLOAD PUSH1 0x1 PUSH1 0x1 PUSH1 0xA0 SHL SUB AND CALLER EQ PUSH2 0x70F JUMPI PUSH1 0x40 MLOAD PUSH3 0x461BCD PUSH1 0xE5 SHL DUP2 MSTORE PUSH1 0x4 ADD PUSH2 0x4BD SWAP1 PUSH2 0x19E9 JUMP JUMPDEST PUSH2 0x719 PUSH1 0x0 PUSH2 0x1379 JUMP JUMPDEST JUMP JUMPDEST PUSH1 0x0 SLOAD PUSH1 0x1 PUSH1 0x1 PUSH1 0xA0 SHL SUB AND CALLER EQ PUSH2 0x745 JUMPI PUSH1 0x40 MLOAD PUSH3 0x461BCD PUSH1 0xE5 SHL DUP2 MSTORE PUSH1 0x4 ADD PUSH2 0x4BD SWAP1 PUSH2 0x19E9 JUMP JUMPDEST PUSH3 0x93A80 DUP2 GT ISZERO PUSH2 0x7AA JUMPI PUSH1 0x40 MLOAD PUSH3 0x461BCD PUSH1 0xE5 SHL DUP2 MSTORE PUSH1 0x20 PUSH1 0x4 DUP3 ADD MSTORE PUSH1 0x29 PUSH1 0x24 DUP3 ADD MSTORE PUSH32 0x4C6F636B20706572696F642063616E6E6F742062652067726561746572207468 PUSH1 0x44 DUP3 ADD MSTORE PUSH9 0x616E2031207765656B PUSH1 0xB8 SHL PUSH1 0x64 DUP3 ADD MSTORE PUSH1 0x84 ADD PUSH2 0x4BD JUMP JUMPDEST PUSH1 0x4 DUP2 SWAP1 SSTORE PUSH1 0x40 MLOAD DUP2 SWAP1 PUSH32 0x8249EC545E68F6F1E1230133CA48C704D831A7F8E635DED80F3DD9E99B09BB2F SWAP1 PUSH1 0x0 SWAP1 LOG2 POP JUMP JUMPDEST PUSH1 0x0 DUP3 GT PUSH2 0x7FD JUMPI PUSH1 0x40 MLOAD PUSH3 0x461BCD PUSH1 0xE5 SHL DUP2 MSTORE PUSH1 0x4 ADD PUSH2 0x4BD SWAP1 PUSH2 0x1A1E JUMP JUMPDEST PUSH1 0x1 PUSH1 0x1 PUSH1 0xA0 SHL SUB DUP2 AND PUSH1 0x0 SWAP1 DUP2 MSTORE PUSH1 0x1 PUSH1 0x20 MSTORE PUSH1 0x40 SWAP1 KECCAK256 SLOAD PUSH1 0xFF AND ISZERO PUSH2 0x85D JUMPI PUSH1 0x40 MLOAD PUSH3 0x461BCD PUSH1 0xE5 SHL DUP2 MSTORE PUSH1 0x20 PUSH1 0x4 DUP3 ADD MSTORE PUSH1 0x14 PUSH1 0x24 DUP3 ADD MSTORE PUSH20 0x155CD95C881A5CC8189B1858DAC8131A5CDD1959 PUSH1 0x62 SHL PUSH1 0x44 DUP3 ADD MSTORE PUSH1 0x64 ADD PUSH2 0x4BD JUMP JUMPDEST PUSH2 0x892 PUSH1 0x1 PUSH1 0x1 PUSH1 0xA0 SHL SUB PUSH32 0x0 AND CALLER ADDRESS DUP6 PUSH2 0x12F5 JUMP JUMPDEST PUSH1 0x1 PUSH1 0x1 PUSH1 0xA0 SHL SUB DUP2 AND PUSH1 0x0 SWAP1 DUP2 MSTORE PUSH1 0x2 PUSH1 0x20 MSTORE PUSH1 0x40 SWAP1 KECCAK256 SLOAD PUSH2 0x8B5 SWAP1 DUP4 PUSH2 0x1366 JUMP JUMPDEST PUSH1 0x1 PUSH1 0x1 PUSH1 0xA0 SHL SUB DUP3 AND PUSH1 0x0 DUP2 DUP2 MSTORE PUSH1 0x2 PUSH1 0x20 MSTORE PUSH1 0x40 DUP1 DUP3 KECCAK256 SWAP4 DUP5 SSTORE TIMESTAMP PUSH1 0x1 SWAP1 SWAP5 ADD SWAP4 SWAP1 SWAP4 SSTORE SWAP2 MLOAD DUP5 SWAP3 PUSH32 0x40A0B865AE77859153EAFC5CDE95D936F135CC12158B807A1EC5F644BEA4111E SWAP2 LOG3 POP POP JUMP JUMPDEST PUSH1 0x0 SLOAD PUSH1 0x1 PUSH1 0x1 PUSH1 0xA0 SHL SUB AND CALLER EQ PUSH2 0x930 JUMPI PUSH1 0x40 MLOAD PUSH3 0x461BCD PUSH1 0xE5 SHL DUP2 MSTORE PUSH1 0x4 ADD PUSH2 0x4BD SWAP1 PUSH2 0x19E9 JUMP JUMPDEST PUSH1 0x0 JUMPDEST DUP2 MLOAD DUP2 LT ISZERO PUSH2 0x996 JUMPI PUSH1 0x0 PUSH1 0x2 PUSH1 0x0 DUP5 DUP5 DUP2 MLOAD DUP2 LT PUSH2 0x954 JUMPI PUSH2 0x954 PUSH2 0x1A61 JUMP JUMPDEST PUSH1 0x20 MUL PUSH1 0x20 ADD ADD MLOAD PUSH1 0x1 PUSH1 0x1 PUSH1 0xA0 SHL SUB AND PUSH1 0x1 PUSH1 0x1 PUSH1 0xA0 SHL SUB AND DUP2 MSTORE PUSH1 0x20 ADD SWAP1 DUP2 MSTORE PUSH1 0x20 ADD PUSH1 0x0 KECCAK256 PUSH1 0x1 ADD DUP2 SWAP1 SSTORE POP DUP1 DUP1 PUSH2 0x98E SWAP1 PUSH2 0x1A8D JUMP JUMPDEST SWAP2 POP POP PUSH2 0x933 JUMP JUMPDEST POP POP JUMP JUMPDEST CALLER PUSH1 0x0 SWAP1 DUP2 MSTORE PUSH1 0x2 PUSH1 0x20 MSTORE PUSH1 0x40 SWAP1 KECCAK256 SLOAD DUP2 GT ISZERO PUSH2 0x9F9 JUMPI PUSH1 0x40 MLOAD PUSH3 0x461BCD PUSH1 0xE5 SHL DUP2 MSTORE PUSH1 0x20 PUSH1 0x4 DUP3 ADD MSTORE PUSH1 0x1D PUSH1 0x24 DUP3 ADD MSTORE PUSH32 0x626574206C657373207468616E20616D6F756E74207769746864726177000000 PUSH1 0x44 DUP3 ADD MSTORE PUSH1 0x64 ADD PUSH2 0x4BD JUMP JUMPDEST CALLER PUSH1 0x0 SWAP1 DUP2 MSTORE PUSH1 0x2 PUSH1 0x20 MSTORE PUSH1 0x40 SWAP1 KECCAK256 PUSH1 0x1 ADD SLOAD ISZERO DUP1 PUSH2 0xA37 JUMPI POP PUSH1 0x4 SLOAD CALLER PUSH1 0x0 SWAP1 DUP2 MSTORE PUSH1 0x2 PUSH1 0x20 MSTORE PUSH1 0x40 SWAP1 KECCAK256 PUSH1 0x1 ADD SLOAD TIMESTAMP SWAP2 PUSH2 0xA35 SWAP2 SWAP1 PUSH2 0x1366 JUMP JUMPDEST LT JUMPDEST PUSH2 0xA95 JUMPI PUSH1 0x40 MLOAD PUSH3 0x461BCD PUSH1 0xE5 SHL DUP2 MSTORE PUSH1 0x20 PUSH1 0x4 DUP3 ADD MSTORE PUSH1 0x29 PUSH1 0x24 DUP3 ADD MSTORE PUSH32 0x42657420416D6F756E74206C6F636B65642C20706C6561736520747279206167 PUSH1 0x44 DUP3 ADD MSTORE PUSH9 0x30B4B7103630BA32B9 PUSH1 0xB9 SHL PUSH1 0x64 DUP3 ADD MSTORE PUSH1 0x84 ADD PUSH2 0x4BD JUMP JUMPDEST CALLER PUSH1 0x0 SWAP1 DUP2 MSTORE PUSH1 0x2 PUSH1 0x20 MSTORE PUSH1 0x40 SWAP1 KECCAK256 SLOAD PUSH2 0xAAF SWAP1 DUP3 PUSH2 0x13C9 JUMP JUMPDEST CALLER PUSH1 0x0 DUP2 DUP2 MSTORE PUSH1 0x2 PUSH1 0x20 MSTORE PUSH1 0x40 SWAP1 KECCAK256 SWAP2 SWAP1 SWAP2 SSTORE PUSH2 0xAF7 SWAP1 PUSH32 0x0 PUSH1 0x1 PUSH1 0x1 PUSH1 0xA0 SHL SUB AND SWAP1 DUP4 PUSH2 0x13D5 JUMP JUMPDEST PUSH1 0x40 MLOAD DUP2 SWAP1 CALLER SWAP1 PUSH32 0x884EDAD9CE6FA2440D8A54CC123490EB96D2768479D49FF9C7366125A9424364 SWAP1 PUSH1 0x0 SWAP1 LOG3 POP JUMP JUMPDEST PUSH1 0x0 SLOAD PUSH1 0x1 PUSH1 0x1 PUSH1 0xA0 SHL SUB AND CALLER EQ PUSH2 0xB51 JUMPI PUSH1 0x40 MLOAD PUSH3 0x461BCD PUSH1 0xE5 SHL DUP2 MSTORE PUSH1 0x4 ADD PUSH2 0x4BD SWAP1 PUSH2 0x19E9 JUMP JUMPDEST DUP1 MLOAD DUP3 MLOAD EQ PUSH2 0xB72 JUMPI PUSH1 0x40 MLOAD PUSH3 0x461BCD PUSH1 0xE5 SHL DUP2 MSTORE PUSH1 0x4 ADD PUSH2 0x4BD SWAP1 PUSH2 0x1AA8 JUMP JUMPDEST PUSH1 0x0 JUMPDEST DUP2 MLOAD DUP2 LT ISZERO PUSH2 0xD40 JUMPI PUSH1 0x0 DUP4 DUP3 DUP2 MLOAD DUP2 LT PUSH2 0xB92 JUMPI PUSH2 0xB92 PUSH2 0x1A61 JUMP JUMPDEST PUSH1 0x20 MUL PUSH1 0x20 ADD ADD MLOAD GT ISZERO PUSH2 0xD2E JUMPI DUP3 DUP2 DUP2 MLOAD DUP2 LT PUSH2 0xBB2 JUMPI PUSH2 0xBB2 PUSH2 0x1A61 JUMP JUMPDEST PUSH1 0x20 MUL PUSH1 0x20 ADD ADD MLOAD PUSH1 0x2 PUSH1 0x0 DUP5 DUP5 DUP2 MLOAD DUP2 LT PUSH2 0xBD0 JUMPI PUSH2 0xBD0 PUSH2 0x1A61 JUMP JUMPDEST PUSH1 0x20 MUL PUSH1 0x20 ADD ADD MLOAD PUSH1 0x1 PUSH1 0x1 PUSH1 0xA0 SHL SUB AND PUSH1 0x1 PUSH1 0x1 PUSH1 0xA0 SHL SUB AND DUP2 MSTORE PUSH1 0x20 ADD SWAP1 DUP2 MSTORE PUSH1 0x20 ADD PUSH1 0x0 KECCAK256 PUSH1 0x0 ADD SLOAD LT ISZERO PUSH2 0xC64 JUMPI PUSH1 0x40 MLOAD PUSH3 0x461BCD PUSH1 0xE5 SHL DUP2 MSTORE PUSH1 0x20 PUSH1 0x4 DUP3 ADD MSTORE PUSH1 0x31 PUSH1 0x24 DUP3 ADD MSTORE PUSH32 0x4C6F73732062657420616D6F756E742069732067726561746572207468616E20 PUSH1 0x44 DUP3 ADD MSTORE PUSH17 0x617661696C61626C652062616C616E6365 PUSH1 0x78 SHL PUSH1 0x64 DUP3 ADD MSTORE PUSH1 0x84 ADD PUSH2 0x4BD JUMP JUMPDEST PUSH2 0xC86 DUP4 DUP3 DUP2 MLOAD DUP2 LT PUSH2 0xC79 JUMPI PUSH2 0xC79 PUSH2 0x1A61 JUMP JUMPDEST PUSH1 0x20 MUL PUSH1 0x20 ADD ADD MLOAD PUSH2 0x1405 JUMP JUMPDEST PUSH2 0xCF3 DUP4 DUP3 DUP2 MLOAD DUP2 LT PUSH2 0xC9B JUMPI PUSH2 0xC9B PUSH2 0x1A61 JUMP JUMPDEST PUSH1 0x20 MUL PUSH1 0x20 ADD ADD MLOAD PUSH1 0x2 PUSH1 0x0 DUP6 DUP6 DUP2 MLOAD DUP2 LT PUSH2 0xCB9 JUMPI PUSH2 0xCB9 PUSH2 0x1A61 JUMP JUMPDEST PUSH1 0x20 MUL PUSH1 0x20 ADD ADD MLOAD PUSH1 0x1 PUSH1 0x1 PUSH1 0xA0 SHL SUB AND PUSH1 0x1 PUSH1 0x1 PUSH1 0xA0 SHL SUB AND DUP2 MSTORE PUSH1 0x20 ADD SWAP1 DUP2 MSTORE PUSH1 0x20 ADD PUSH1 0x0 KECCAK256 PUSH1 0x0 ADD SLOAD PUSH2 0x13C9 SWAP1 SWAP2 SWAP1 PUSH4 0xFFFFFFFF AND JUMP JUMPDEST PUSH1 0x2 PUSH1 0x0 DUP5 DUP5 DUP2 MLOAD DUP2 LT PUSH2 0xD09 JUMPI PUSH2 0xD09 PUSH2 0x1A61 JUMP JUMPDEST PUSH1 0x20 SWAP1 DUP2 MUL SWAP2 SWAP1 SWAP2 ADD DUP2 ADD MLOAD PUSH1 0x1 PUSH1 0x1 PUSH1 0xA0 SHL SUB AND DUP3 MSTORE DUP2 ADD SWAP2 SWAP1 SWAP2 MSTORE PUSH1 0x40 ADD PUSH1 0x0 KECCAK256 SSTORE JUMPDEST DUP1 PUSH2 0xD38 DUP2 PUSH2 0x1A8D JUMP JUMPDEST SWAP2 POP POP PUSH2 0xB75 JUMP JUMPDEST POP POP POP JUMP JUMPDEST PUSH1 0x0 SLOAD PUSH1 0x1 PUSH1 0x1 PUSH1 0xA0 SHL SUB AND CALLER EQ PUSH2 0xD6F JUMPI PUSH1 0x40 MLOAD PUSH3 0x461BCD PUSH1 0xE5 SHL DUP2 MSTORE PUSH1 0x4 ADD PUSH2 0x4BD SWAP1 PUSH2 0x19E9 JUMP JUMPDEST PUSH1 0x0 JUMPDEST DUP2 MLOAD DUP2 LT ISZERO PUSH2 0x996 JUMPI TIMESTAMP PUSH1 0x2 PUSH1 0x0 DUP5 DUP5 DUP2 MLOAD DUP2 LT PUSH2 0xD92 JUMPI PUSH2 0xD92 PUSH2 0x1A61 JUMP JUMPDEST PUSH1 0x20 MUL PUSH1 0x20 ADD ADD MLOAD PUSH1 0x1 PUSH1 0x1 PUSH1 0xA0 SHL SUB AND PUSH1 0x1 PUSH1 0x1 PUSH1 0xA0 SHL SUB AND DUP2 MSTORE PUSH1 0x20 ADD SWAP1 DUP2 MSTORE PUSH1 0x20 ADD PUSH1 0x0 KECCAK256 PUSH1 0x1 ADD DUP2 SWAP1 SSTORE POP DUP1 DUP1 PUSH2 0xDCC SWAP1 PUSH2 0x1A8D JUMP JUMPDEST SWAP2 POP POP PUSH2 0xD72 JUMP JUMPDEST PUSH1 0x0 SLOAD PUSH1 0x1 PUSH1 0x1 PUSH1 0xA0 SHL SUB AND CALLER EQ PUSH2 0xDFE JUMPI PUSH1 0x40 MLOAD PUSH3 0x461BCD PUSH1 0xE5 SHL DUP2 MSTORE PUSH1 0x4 ADD PUSH2 0x4BD SWAP1 PUSH2 0x19E9 JUMP JUMPDEST PUSH2 0xFA0 DUP2 LT PUSH2 0xE60 JUMPI PUSH1 0x40 MLOAD PUSH3 0x461BCD PUSH1 0xE5 SHL DUP2 MSTORE PUSH1 0x20 PUSH1 0x4 DUP3 ADD MSTORE PUSH1 0x28 PUSH1 0x24 DUP3 ADD MSTORE PUSH32 0x4561726C7920776974686472617720666565206D757374206265206C65737320 PUSH1 0x44 DUP3 ADD MSTORE PUSH8 0x7468616E20343025 PUSH1 0xC0 SHL PUSH1 0x64 DUP3 ADD MSTORE PUSH1 0x84 ADD PUSH2 0x4BD JUMP JUMPDEST PUSH1 0x6 SSTORE JUMP JUMPDEST PUSH1 0x0 SLOAD PUSH1 0x1 PUSH1 0x1 PUSH1 0xA0 SHL SUB AND CALLER EQ PUSH2 0xE8F JUMPI PUSH1 0x40 MLOAD PUSH3 0x461BCD PUSH1 0xE5 SHL DUP2 MSTORE PUSH1 0x4 ADD PUSH2 0x4BD SWAP1 PUSH2 0x19E9 JUMP JUMPDEST PUSH1 0x1 PUSH1 0x1 PUSH1 0xA0 SHL SUB DUP2 AND PUSH1 0x0 SWAP1 DUP2 MSTORE PUSH1 0x2 PUSH1 0x20 MSTORE PUSH1 0x40 SWAP1 KECCAK256 SLOAD DUP3 GT ISZERO PUSH2 0xEF7 JUMPI PUSH1 0x40 MLOAD PUSH3 0x461BCD PUSH1 0xE5 SHL DUP2 MSTORE PUSH1 0x20 PUSH1 0x4 DUP3 ADD MSTORE PUSH1 0x1D PUSH1 0x24 DUP3 ADD MSTORE PUSH32 0x626574206C657373207468616E20616D6F756E74207769746864726177000000 PUSH1 0x44 DUP3 ADD MSTORE PUSH1 0x64 ADD PUSH2 0x4BD JUMP JUMPDEST PUSH1 0x1 PUSH1 0x1 PUSH1 0xA0 SHL SUB DUP2 AND PUSH1 0x0 SWAP1 DUP2 MSTORE PUSH1 0x2 PUSH1 0x20 MSTORE PUSH1 0x40 SWAP1 KECCAK256 SLOAD PUSH2 0xF1A SWAP1 DUP4 PUSH2 0x13C9 JUMP JUMPDEST PUSH1 0x1 PUSH1 0x1 PUSH1 0xA0 SHL SUB DUP3 AND PUSH1 0x0 DUP2 DUP2 MSTORE PUSH1 0x2 PUSH1 0x20 MSTORE PUSH1 0x40 DUP1 DUP3 KECCAK256 SWAP4 SWAP1 SWAP4 SSTORE SWAP2 MLOAD DUP5 SWAP3 PUSH32 0x884EDAD9CE6FA2440D8A54CC123490EB96D2768479D49FF9C7366125A9424364 SWAP2 LOG3 PUSH1 0x0 PUSH2 0xF81 PUSH2 0x2710 PUSH2 0xF7B PUSH1 0x6 SLOAD DUP7 PUSH2 0x1536 SWAP1 SWAP2 SWAP1 PUSH4 0xFFFFFFFF AND JUMP JUMPDEST SWAP1 PUSH2 0x1542 JUMP JUMPDEST SWAP1 POP PUSH2 0xF8D DUP4 DUP3 PUSH2 0x13C9 JUMP JUMPDEST PUSH1 0x5 SLOAD SWAP1 SWAP4 POP PUSH2 0xFCA SWAP1 PUSH1 0x1 PUSH1 0x1 PUSH1 0xA0 SHL SUB PUSH32 0x0 DUP2 AND SWAP2 AND DUP4 PUSH2 0x13D5 JUMP JUMPDEST PUSH2 0xD40 PUSH1 0x1 PUSH1 0x1 PUSH1 0xA0 SHL SUB PUSH32 0x0 AND DUP4 DUP6 PUSH2 0x13D5 JUMP JUMPDEST PUSH1 0x0 SLOAD PUSH1 0x1 PUSH1 0x1 PUSH1 0xA0 SHL SUB AND CALLER EQ PUSH2 0x1028 JUMPI PUSH1 0x40 MLOAD PUSH3 0x461BCD PUSH1 0xE5 SHL DUP2 MSTORE PUSH1 0x4 ADD PUSH2 0x4BD SWAP1 PUSH2 0x19E9 JUMP JUMPDEST DUP1 MLOAD DUP3 MLOAD EQ PUSH2 0x1049 JUMPI PUSH1 0x40 MLOAD PUSH3 0x461BCD PUSH1 0xE5 SHL DUP2 MSTORE PUSH1 0x4 ADD PUSH2 0x4BD SWAP1 PUSH2 0x1AA8 JUMP JUMPDEST PUSH1 0x0 JUMPDEST DUP2 MLOAD DUP2 LT ISZERO PUSH2 0xD40 JUMPI PUSH32 0x0 PUSH1 0x1 PUSH1 0x1 PUSH1 0xA0 SHL SUB AND PUSH4 0x61433D88 DUP5 DUP4 DUP2 MLOAD DUP2 LT PUSH2 0x1096 JUMPI PUSH2 0x1096 PUSH2 0x1A61 JUMP JUMPDEST PUSH1 0x20 MUL PUSH1 0x20 ADD ADD MLOAD DUP5 DUP5 DUP2 MLOAD DUP2 LT PUSH2 0x10B0 JUMPI PUSH2 0x10B0 PUSH2 0x1A61 JUMP JUMPDEST PUSH1 0x20 MUL PUSH1 0x20 ADD ADD MLOAD PUSH1 0x40 MLOAD DUP4 PUSH4 0xFFFFFFFF AND PUSH1 0xE0 SHL DUP2 MSTORE PUSH1 0x4 ADD PUSH2 0x10E7 SWAP3 SWAP2 SWAP1 SWAP2 DUP3 MSTORE PUSH1 0x1 PUSH1 0x1 PUSH1 0xA0 SHL SUB AND PUSH1 0x20 DUP3 ADD MSTORE PUSH1 0x40 ADD SWAP1 JUMP JUMPDEST PUSH1 0x0 PUSH1 0x40 MLOAD DUP1 DUP4 SUB DUP2 PUSH1 0x0 DUP8 DUP1 EXTCODESIZE ISZERO DUP1 ISZERO PUSH2 0x1101 JUMPI PUSH1 0x0 DUP1 REVERT JUMPDEST POP GAS CALL ISZERO DUP1 ISZERO PUSH2 0x1115 JUMPI RETURNDATASIZE PUSH1 0x0 DUP1 RETURNDATACOPY RETURNDATASIZE PUSH1 0x0 REVERT JUMPDEST POP POP POP POP DUP1 DUP1 PUSH2 0x1124 SWAP1 PUSH2 0x1A8D JUMP JUMPDEST SWAP2 POP POP PUSH2 0x104C JUMP JUMPDEST PUSH1 0x0 SLOAD PUSH1 0x1 PUSH1 0x1 PUSH1 0xA0 SHL SUB AND CALLER EQ PUSH2 0x1156 JUMPI PUSH1 0x40 MLOAD PUSH3 0x461BCD PUSH1 0xE5 SHL DUP2 MSTORE PUSH1 0x4 ADD PUSH2 0x4BD SWAP1 PUSH2 0x19E9 JUMP JUMPDEST PUSH1 0x1 PUSH1 0x1 PUSH1 0xA0 SHL SUB DUP2 AND PUSH2 0x11BB JUMPI PUSH1 0x40 MLOAD PUSH3 0x461BCD PUSH1 0xE5 SHL DUP2 MSTORE PUSH1 0x20 PUSH1 0x4 DUP3 ADD MSTORE PUSH1 0x26 PUSH1 0x24 DUP3 ADD MSTORE PUSH32 0x4F776E61626C653A206E6577206F776E657220697320746865207A65726F2061 PUSH1 0x44 DUP3 ADD MSTORE PUSH6 0x646472657373 PUSH1 0xD0 SHL PUSH1 0x64 DUP3 ADD MSTORE PUSH1 0x84 ADD PUSH2 0x4BD JUMP JUMPDEST PUSH2 0x11C4 DUP2 PUSH2 0x1379 JUMP JUMPDEST POP JUMP JUMPDEST CALLER PUSH1 0x1 PUSH1 0x1 PUSH1 0xA0 SHL SUB PUSH32 0x0 AND EQ DUP1 PUSH2 0x1208 JUMPI POP PUSH1 0x3 SLOAD PUSH1 0x1 PUSH1 0x1 PUSH1 0xA0 SHL SUB AND CALLER EQ JUMPDEST PUSH2 0x1264 JUMPI PUSH1 0x40 MLOAD PUSH3 0x461BCD PUSH1 0xE5 SHL DUP2 MSTORE PUSH1 0x20 PUSH1 0x4 DUP3 ADD MSTORE PUSH1 0x27 PUSH1 0x24 DUP3 ADD MSTORE PUSH32 0x43616C6C6572206D7573742062652062616E6B726F6C6C206F72207374616B69 PUSH1 0x44 DUP3 ADD MSTORE PUSH7 0x1B99C81C1BDBDB PUSH1 0xCA SHL PUSH1 0x64 DUP3 ADD MSTORE PUSH1 0x84 ADD PUSH2 0x4BD JUMP JUMPDEST PUSH1 0x1 PUSH1 0x1 PUSH1 0xA0 SHL SUB DUP2 AND PUSH1 0x0 SWAP1 DUP2 MSTORE PUSH1 0x2 PUSH1 0x20 MSTORE PUSH1 0x40 SWAP1 KECCAK256 SLOAD PUSH2 0x1287 SWAP1 DUP4 PUSH2 0x1366 JUMP JUMPDEST PUSH1 0x1 PUSH1 0x1 PUSH1 0xA0 SHL SUB SWAP1 SWAP2 AND PUSH1 0x0 SWAP1 DUP2 MSTORE PUSH1 0x2 PUSH1 0x20 MSTORE PUSH1 0x40 SWAP1 KECCAK256 SSTORE POP JUMP JUMPDEST PUSH1 0x0 SLOAD PUSH1 0x1 PUSH1 0x1 PUSH1 0xA0 SHL SUB AND CALLER EQ PUSH2 0x12CE JUMPI PUSH1 0x40 MLOAD PUSH3 0x461BCD PUSH1 0xE5 SHL DUP2 MSTORE PUSH1 0x4 ADD PUSH2 0x4BD SWAP1 PUSH2 0x19E9 JUMP JUMPDEST PUSH1 0x1 PUSH1 0x1 PUSH1 0xA0 SHL SUB AND PUSH1 0x0 SWAP1 DUP2 MSTORE PUSH1 0x1 PUSH1 0x20 DUP2 SWAP1 MSTORE PUSH1 0x40 SWAP1 SWAP2 KECCAK256 DUP1 SLOAD PUSH1 0xFF NOT AND SWAP1 SWAP2 OR SWAP1 SSTORE JUMP JUMPDEST PUSH1 0x40 MLOAD PUSH1 0x1 PUSH1 0x1 PUSH1 0xA0 SHL SUB DUP1 DUP6 AND PUSH1 0x24 DUP4 ADD MSTORE DUP4 AND PUSH1 0x44 DUP3 ADD MSTORE PUSH1 0x64 DUP2 ADD DUP3 SWAP1 MSTORE PUSH2 0x1360 SWAP1 DUP6 SWAP1 PUSH4 0x23B872DD PUSH1 0xE0 SHL SWAP1 PUSH1 0x84 ADD JUMPDEST PUSH1 0x40 DUP1 MLOAD PUSH1 0x1F NOT DUP2 DUP5 SUB ADD DUP2 MSTORE SWAP2 SWAP1 MSTORE PUSH1 0x20 DUP2 ADD DUP1 MLOAD PUSH1 0x1 PUSH1 0x1 PUSH1 0xE0 SHL SUB AND PUSH1 0x1 PUSH1 0x1 PUSH1 0xE0 SHL SUB NOT SWAP1 SWAP4 AND SWAP3 SWAP1 SWAP3 OR SWAP1 SWAP2 MSTORE PUSH2 0x154E JUMP JUMPDEST POP POP POP POP JUMP JUMPDEST PUSH1 0x0 PUSH2 0x1372 DUP3 DUP5 PUSH2 0x1AE9 JUMP JUMPDEST SWAP4 SWAP3 POP POP POP JUMP JUMPDEST PUSH1 0x0 DUP1 SLOAD PUSH1 0x1 PUSH1 0x1 PUSH1 0xA0 SHL SUB DUP4 DUP2 AND PUSH1 0x1 PUSH1 0x1 PUSH1 0xA0 SHL SUB NOT DUP4 AND DUP2 OR DUP5 SSTORE PUSH1 0x40 MLOAD SWAP2 SWAP1 SWAP3 AND SWAP3 DUP4 SWAP2 PUSH32 0x8BE0079C531659141344CD1FD0A4F28419497F9722A3DAAFE3B4186F6B6457E0 SWAP2 SWAP1 LOG3 POP POP JUMP JUMPDEST PUSH1 0x0 PUSH2 0x1372 DUP3 DUP5 PUSH2 0x1B01 JUMP JUMPDEST PUSH1 0x40 MLOAD PUSH1 0x1 PUSH1 0x1 PUSH1 0xA0 SHL SUB DUP4 AND PUSH1 0x24 DUP3 ADD MSTORE PUSH1 0x44 DUP2 ADD DUP3 SWAP1 MSTORE PUSH2 0xD40 SWAP1 DUP5 SWAP1 PUSH4 0xA9059CBB PUSH1 0xE0 SHL SWAP1 PUSH1 0x64 ADD PUSH2 0x1329 JUMP JUMPDEST PUSH1 0x40 MLOAD PUSH4 0x95EA7B3 PUSH1 0xE0 SHL DUP2 MSTORE PUSH1 0x1 PUSH1 0x1 PUSH1 0xA0 SHL SUB PUSH32 0x0 DUP2 AND PUSH1 0x4 DUP4 ADD MSTORE PUSH1 0x24 DUP3 ADD DUP4 SWAP1 MSTORE PUSH32 0x0 AND SWAP1 PUSH4 0x95EA7B3 SWAP1 PUSH1 0x44 ADD PUSH1 0x20 PUSH1 0x40 MLOAD DUP1 DUP4 SUB DUP2 PUSH1 0x0 DUP8 GAS CALL ISZERO DUP1 ISZERO PUSH2 0x1494 JUMPI RETURNDATASIZE PUSH1 0x0 DUP1 RETURNDATACOPY RETURNDATASIZE PUSH1 0x0 REVERT JUMPDEST POP POP POP POP PUSH1 0x40 MLOAD RETURNDATASIZE PUSH1 0x1F NOT PUSH1 0x1F DUP3 ADD AND DUP3 ADD DUP1 PUSH1 0x40 MSTORE POP DUP2 ADD SWAP1 PUSH2 0x14B8 SWAP2 SWAP1 PUSH2 0x1B18 JUMP JUMPDEST POP PUSH1 0x40 MLOAD PUSH4 0x6172858B PUSH1 0xE1 SHL DUP2 MSTORE PUSH1 0x4 DUP2 ADD DUP3 SWAP1 MSTORE PUSH32 0x0 PUSH1 0x1 PUSH1 0x1 PUSH1 0xA0 SHL SUB AND SWAP1 PUSH4 0xC2E50B16 SWAP1 PUSH1 0x24 ADD PUSH1 0x0 PUSH1 0x40 MLOAD DUP1 DUP4 SUB DUP2 PUSH1 0x0 DUP8 DUP1 EXTCODESIZE ISZERO DUP1 ISZERO PUSH2 0x151B JUMPI PUSH1 0x0 DUP1 REVERT JUMPDEST POP GAS CALL ISZERO DUP1 ISZERO PUSH2 0x152F JUMPI RETURNDATASIZE PUSH1 0x0 DUP1 RETURNDATACOPY RETURNDATASIZE PUSH1 0x0 REVERT JUMPDEST POP POP POP POP POP JUMP JUMPDEST PUSH1 0x0 PUSH2 0x1372 DUP3 DUP5 PUSH2 0x1B3A JUMP JUMPDEST PUSH1 0x0 PUSH2 0x1372 DUP3 DUP5 PUSH2 0x1B59 JUMP JUMPDEST PUSH1 0x0 PUSH2 0x15A3 DUP3 PUSH1 0x40 MLOAD DUP1 PUSH1 0x40 ADD PUSH1 0x40 MSTORE DUP1 PUSH1 0x20 DUP2 MSTORE PUSH1 0x20 ADD PUSH32 0x5361666545524332303A206C6F772D6C6576656C2063616C6C206661696C6564 DUP2 MSTORE POP DUP6 PUSH1 0x1 PUSH1 0x1 PUSH1 0xA0 SHL SUB AND PUSH2 0x1620 SWAP1 SWAP3 SWAP2 SWAP1 PUSH4 0xFFFFFFFF AND JUMP JUMPDEST DUP1 MLOAD SWAP1 SWAP2 POP ISZERO PUSH2 0xD40 JUMPI DUP1 DUP1 PUSH1 0x20 ADD SWAP1 MLOAD DUP2 ADD SWAP1 PUSH2 0x15C1 SWAP2 SWAP1 PUSH2 0x1B18 JUMP JUMPDEST PUSH2 0xD40 JUMPI PUSH1 0x40 MLOAD PUSH3 0x461BCD PUSH1 0xE5 SHL DUP2 MSTORE PUSH1 0x20 PUSH1 0x4 DUP3 ADD MSTORE PUSH1 0x2A PUSH1 0x24 DUP3 ADD MSTORE PUSH32 0x5361666545524332303A204552433230206F7065726174696F6E20646964206E PUSH1 0x44 DUP3 ADD MSTORE PUSH10 0x1BDD081CDD58D8D95959 PUSH1 0xB2 SHL PUSH1 0x64 DUP3 ADD MSTORE PUSH1 0x84 ADD PUSH2 0x4BD JUMP JUMPDEST PUSH1 0x60 PUSH2 0x162F DUP5 DUP5 PUSH1 0x0 DUP6 PUSH2 0x1637 JUMP JUMPDEST SWAP5 SWAP4 POP POP POP POP JUMP JUMPDEST PUSH1 0x60 DUP3 SELFBALANCE LT ISZERO PUSH2 0x1698 JUMPI PUSH1 0x40 MLOAD PUSH3 0x461BCD PUSH1 0xE5 SHL DUP2 MSTORE PUSH1 0x20 PUSH1 0x4 DUP3 ADD MSTORE PUSH1 0x26 PUSH1 0x24 DUP3 ADD MSTORE PUSH32 0x416464726573733A20696E73756666696369656E742062616C616E636520666F PUSH1 0x44 DUP3 ADD MSTORE PUSH6 0x1C8818D85B1B PUSH1 0xD2 SHL PUSH1 0x64 DUP3 ADD MSTORE PUSH1 0x84 ADD PUSH2 0x4BD JUMP JUMPDEST PUSH1 0x1 PUSH1 0x1 PUSH1 0xA0 SHL SUB DUP6 AND EXTCODESIZE PUSH2 0x16EF JUMPI PUSH1 0x40 MLOAD PUSH3 0x461BCD PUSH1 0xE5 SHL DUP2 MSTORE PUSH1 0x20 PUSH1 0x4 DUP3 ADD MSTORE PUSH1 0x1D PUSH1 0x24 DUP3 ADD MSTORE PUSH32 0x416464726573733A2063616C6C20746F206E6F6E2D636F6E7472616374000000 PUSH1 0x44 DUP3 ADD MSTORE PUSH1 0x64 ADD PUSH2 0x4BD JUMP JUMPDEST PUSH1 0x0 DUP1 DUP7 PUSH1 0x1 PUSH1 0x1 PUSH1 0xA0 SHL SUB AND DUP6 DUP8 PUSH1 0x40 MLOAD PUSH2 0x170B SWAP2 SWAP1 PUSH2 0x1BA7 JUMP JUMPDEST PUSH1 0x0 PUSH1 0x40 MLOAD DUP1 DUP4 SUB DUP2 DUP6 DUP8 GAS CALL SWAP3 POP POP POP RETURNDATASIZE DUP1 PUSH1 0x0 DUP2 EQ PUSH2 0x1748 JUMPI PUSH1 0x40 MLOAD SWAP2 POP PUSH1 0x1F NOT PUSH1 0x3F RETURNDATASIZE ADD AND DUP3 ADD PUSH1 0x40 MSTORE RETURNDATASIZE DUP3 MSTORE RETURNDATASIZE PUSH1 0x0 PUSH1 0x20 DUP5 ADD RETURNDATACOPY PUSH2 0x174D JUMP JUMPDEST PUSH1 0x60 SWAP2 POP JUMPDEST POP SWAP2 POP SWAP2 POP PUSH2 0x175D DUP3 DUP3 DUP7 PUSH2 0x1768 JUMP JUMPDEST SWAP8 SWAP7 POP POP POP POP POP POP POP JUMP JUMPDEST PUSH1 0x60 DUP4 ISZERO PUSH2 0x1777 JUMPI POP DUP2 PUSH2 0x1372 JUMP JUMPDEST DUP3 MLOAD ISZERO PUSH2 0x1787 JUMPI DUP3 MLOAD DUP1 DUP5 PUSH1 0x20 ADD REVERT JUMPDEST DUP2 PUSH1 0x40 MLOAD PUSH3 0x461BCD PUSH1 0xE5 SHL DUP2 MSTORE PUSH1 0x4 ADD PUSH2 0x4BD SWAP2 SWAP1 PUSH2 0x1BC3 JUMP JUMPDEST PUSH1 0x1 PUSH1 0x1 PUSH1 0xA0 SHL SUB DUP2 AND DUP2 EQ PUSH2 0x11C4 JUMPI PUSH1 0x0 DUP1 REVERT JUMPDEST PUSH1 0x0 PUSH1 0x20 DUP3 DUP5 SUB SLT ISZERO PUSH2 0x17C8 JUMPI PUSH1 0x0 DUP1 REVERT JUMPDEST DUP2 CALLDATALOAD PUSH2 0x1372 DUP2 PUSH2 0x17A1 JUMP JUMPDEST PUSH1 0x0 PUSH1 0x20 DUP3 DUP5 SUB SLT ISZERO PUSH2 0x17E5 JUMPI PUSH1 0x0 DUP1 REVERT JUMPDEST POP CALLDATALOAD SWAP2 SWAP1 POP JUMP JUMPDEST PUSH1 0x0 DUP1 PUSH1 0x40 DUP4 DUP6 SUB SLT ISZERO PUSH2 0x17FF JUMPI PUSH1 0x0 DUP1 REVERT JUMPDEST DUP3 CALLDATALOAD SWAP2 POP PUSH1 0x20 DUP4 ADD CALLDATALOAD PUSH2 0x1811 DUP2 PUSH2 0x17A1 JUMP JUMPDEST DUP1 SWAP2 POP POP SWAP3 POP SWAP3 SWAP1 POP JUMP JUMPDEST PUSH4 0x4E487B71 PUSH1 0xE0 SHL PUSH1 0x0 MSTORE PUSH1 0x41 PUSH1 0x4 MSTORE PUSH1 0x24 PUSH1 0x0 REVERT JUMPDEST PUSH1 0x40 MLOAD PUSH1 0x1F DUP3 ADD PUSH1 0x1F NOT AND DUP2 ADD PUSH8 0xFFFFFFFFFFFFFFFF DUP2 GT DUP3 DUP3 LT OR ISZERO PUSH2 0x185B JUMPI PUSH2 0x185B PUSH2 0x181C JUMP JUMPDEST PUSH1 0x40 MSTORE SWAP2 SWAP1 POP JUMP JUMPDEST PUSH1 0x0 PUSH8 0xFFFFFFFFFFFFFFFF DUP3 GT ISZERO PUSH2 0x187D JUMPI PUSH2 0x187D PUSH2 0x181C JUMP JUMPDEST POP PUSH1 0x5 SHL PUSH1 0x20 ADD SWAP1 JUMP JUMPDEST PUSH1 0x0 DUP3 PUSH1 0x1F DUP4 ADD SLT PUSH2 0x1898 JUMPI PUSH1 0x0 DUP1 REVERT JUMPDEST DUP2 CALLDATALOAD PUSH1 0x20 PUSH2 0x18AD PUSH2 0x18A8 DUP4 PUSH2 0x1863 JUMP JUMPDEST PUSH2 0x1832 JUMP JUMPDEST DUP3 DUP2 MSTORE PUSH1 0x5 SWAP3 SWAP1 SWAP3 SHL DUP5 ADD DUP2 ADD SWAP2 DUP2 DUP2 ADD SWAP1 DUP7 DUP5 GT ISZERO PUSH2 0x18CC JUMPI PUSH1 0x0 DUP1 REVERT JUMPDEST DUP3 DUP7 ADD JUMPDEST DUP5 DUP2 LT ISZERO PUSH2 0x18F0 JUMPI DUP1 CALLDATALOAD PUSH2 0x18E3 DUP2 PUSH2 0x17A1 JUMP JUMPDEST DUP4 MSTORE SWAP2 DUP4 ADD SWAP2 DUP4 ADD PUSH2 0x18D0 JUMP JUMPDEST POP SWAP7 SWAP6 POP POP POP POP POP POP JUMP JUMPDEST PUSH1 0x0 PUSH1 0x20 DUP3 DUP5 SUB SLT ISZERO PUSH2 0x190D JUMPI PUSH1 0x0 DUP1 REVERT JUMPDEST DUP2 CALLDATALOAD PUSH8 0xFFFFFFFFFFFFFFFF DUP2 GT ISZERO PUSH2 0x1924 JUMPI PUSH1 0x0 DUP1 REVERT JUMPDEST PUSH2 0x162F DUP5 DUP3 DUP6 ADD PUSH2 0x1887 JUMP JUMPDEST PUSH1 0x0 DUP1 PUSH1 0x40 DUP4 DUP6 SUB SLT ISZERO PUSH2 0x1943 JUMPI PUSH1 0x0 DUP1 REVERT JUMPDEST DUP3 CALLDATALOAD PUSH8 0xFFFFFFFFFFFFFFFF DUP1 DUP3 GT ISZERO PUSH2 0x195B JUMPI PUSH1 0x0 DUP1 REVERT JUMPDEST DUP2 DUP6 ADD SWAP2 POP DUP6 PUSH1 0x1F DUP4 ADD SLT PUSH2 0x196F JUMPI PUSH1 0x0 DUP1 REVERT JUMPDEST DUP2 CALLDATALOAD PUSH1 0x20 PUSH2 0x197F PUSH2 0x18A8 DUP4 PUSH2 0x1863 JUMP JUMPDEST DUP3 DUP2 MSTORE PUSH1 0x5 SWAP3 SWAP1 SWAP3 SHL DUP5 ADD DUP2 ADD SWAP2 DUP2 DUP2 ADD SWAP1 DUP10 DUP5 GT ISZERO PUSH2 0x199E JUMPI PUSH1 0x0 DUP1 REVERT JUMPDEST SWAP5 DUP3 ADD SWAP5 JUMPDEST DUP4 DUP7 LT ISZERO PUSH2 0x19BC JUMPI DUP6 CALLDATALOAD DUP3 MSTORE SWAP5 DUP3 ADD SWAP5 SWAP1 DUP3 ADD SWAP1 PUSH2 0x19A3 JUMP JUMPDEST SWAP7 POP POP DUP7 ADD CALLDATALOAD SWAP3 POP POP DUP1 DUP3 GT ISZERO PUSH2 0x19D2 JUMPI PUSH1 0x0 DUP1 REVERT JUMPDEST POP PUSH2 0x19DF DUP6 DUP3 DUP7 ADD PUSH2 0x1887 JUMP JUMPDEST SWAP2 POP POP SWAP3 POP SWAP3 SWAP1 POP JUMP JUMPDEST PUSH1 0x20 DUP1 DUP3 MSTORE DUP2 DUP2 ADD MSTORE PUSH32 0x4F776E61626C653A2063616C6C6572206973206E6F7420746865206F776E6572 PUSH1 0x40 DUP3 ADD MSTORE PUSH1 0x60 ADD SWAP1 JUMP JUMPDEST PUSH1 0x20 DUP1 DUP3 MSTORE PUSH1 0x23 SWAP1 DUP3 ADD MSTORE PUSH32 0x42657420616D6F756E742073686F756C64206265206772656174657220746861 PUSH1 0x40 DUP3 ADD MSTORE PUSH3 0x6E203 PUSH1 0xEC SHL PUSH1 0x60 DUP3 ADD MSTORE PUSH1 0x80 ADD SWAP1 JUMP JUMPDEST PUSH4 0x4E487B71 PUSH1 0xE0 SHL PUSH1 0x0 MSTORE PUSH1 0x32 PUSH1 0x4 MSTORE PUSH1 0x24 PUSH1 0x0 REVERT JUMPDEST PUSH4 0x4E487B71 PUSH1 0xE0 SHL PUSH1 0x0 MSTORE PUSH1 0x11 PUSH1 0x4 MSTORE PUSH1 0x24 PUSH1 0x0 REVERT JUMPDEST PUSH1 0x0 PUSH1 0x0 NOT DUP3 EQ ISZERO PUSH2 0x1AA1 JUMPI PUSH2 0x1AA1 PUSH2 0x1A77 JUMP JUMPDEST POP PUSH1 0x1 ADD SWAP1 JUMP JUMPDEST PUSH1 0x20 DUP1 DUP3 MSTORE PUSH1 0x21 SWAP1 DUP3 ADD MSTORE PUSH32 0x506172616D65746572206C656E677468732073686F756C642062652065717561 PUSH1 0x40 DUP3 ADD MSTORE PUSH1 0x1B PUSH1 0xFA SHL PUSH1 0x60 DUP3 ADD MSTORE PUSH1 0x80 ADD SWAP1 JUMP JUMPDEST PUSH1 0x0 DUP3 NOT DUP3 GT ISZERO PUSH2 0x1AFC JUMPI PUSH2 0x1AFC PUSH2 0x1A77 JUMP JUMPDEST POP ADD SWAP1 JUMP JUMPDEST PUSH1 0x0 DUP3 DUP3 LT ISZERO PUSH2 0x1B13 JUMPI PUSH2 0x1B13 PUSH2 0x1A77 JUMP JUMPDEST POP SUB SWAP1 JUMP JUMPDEST PUSH1 0x0 PUSH1 0x20 DUP3 DUP5 SUB SLT ISZERO PUSH2 0x1B2A JUMPI PUSH1 0x0 DUP1 REVERT JUMPDEST DUP2 MLOAD DUP1 ISZERO ISZERO DUP2 EQ PUSH2 0x1372 JUMPI PUSH1 0x0 DUP1 REVERT JUMPDEST PUSH1 0x0 DUP2 PUSH1 0x0 NOT DIV DUP4 GT DUP3 ISZERO ISZERO AND ISZERO PUSH2 0x1B54 JUMPI PUSH2 0x1B54 PUSH2 0x1A77 JUMP JUMPDEST POP MUL SWAP1 JUMP JUMPDEST PUSH1 0x0 DUP3 PUSH2 0x1B76 JUMPI PUSH4 0x4E487B71 PUSH1 0xE0 SHL PUSH1 0x0 MSTORE PUSH1 0x12 PUSH1 0x4 MSTORE PUSH1 0x24 PUSH1 0x0 REVERT JUMPDEST POP DIV SWAP1 JUMP JUMPDEST PUSH1 0x0 JUMPDEST DUP4 DUP2 LT ISZERO PUSH2 0x1B96 JUMPI DUP2 DUP2 ADD MLOAD DUP4 DUP3 ADD MSTORE PUSH1 0x20 ADD PUSH2 0x1B7E JUMP JUMPDEST DUP4 DUP2 GT ISZERO PUSH2 0x1360 JUMPI POP POP PUSH1 0x0 SWAP2 ADD MSTORE JUMP JUMPDEST PUSH1 0x0 DUP3 MLOAD PUSH2 0x1BB9 DUP2 DUP5 PUSH1 0x20 DUP8 ADD PUSH2 0x1B7B JUMP JUMPDEST SWAP2 SWAP1 SWAP2 ADD SWAP3 SWAP2 POP POP JUMP JUMPDEST PUSH1 0x20 DUP2 MSTORE PUSH1 0x0 DUP3 MLOAD DUP1 PUSH1 0x20 DUP5 ADD MSTORE PUSH2 0x1BE2 DUP2 PUSH1 0x40 DUP6 ADD PUSH1 0x20 DUP8 ADD PUSH2 0x1B7B JUMP JUMPDEST PUSH1 0x1F ADD PUSH1 0x1F NOT AND SWAP2 SWAP1 SWAP2 ADD PUSH1 0x40 ADD SWAP3 SWAP2 POP POP JUMP INVALID LOG2 PUSH5 0x6970667358 0x22 SLT KECCAK256 0xE5 0xC8 0xB6 0x26 0x4C BYTE DUP12 GT 0xC3 PUSH9 0x1FC368ED0D0D9DA4D1 PUSH5 0xC54EAE1AB7 PUSH13 0x628E0893CBC264736F6C634300 ADDMOD 0xC STOP CALLER ",
  "sha1": "7fd73e519c75a19bfb5d20818fde79f5a84d4872",
  "source": "//SPDX-License-Identifier: MIT\npragma solidity >=0.6.5;\n\n//BSC address: 0x5326C45a31DEEBa15EDC68055bF69b2682c9B215\n//openzeppelin\n//import \"@openzeppelin/contracts/access/Ownable.sol\";\nimport \"@openzeppelin/contracts/utils/math/SafeMath.sol\";\nimport \"@openzeppelin/contracts/token/ERC20/utils/SafeERC20.sol\";\n//bitcrush\nimport \"./CrushToken.sol\";\nimport \"./Bankroll.sol\";\nimport \"./BankStaking.sol\";\n\ncontract BitcrushLiveWallet is Ownable {\n    using SafeMath for uint256;\n    using SafeERC20 for CRUSHToken;\n    struct wallet {\n        //rename to balance\n        uint256 balance;\n        uint256 lockTimeStamp;\n    }\n\n    mapping(address => bool) public blacklistedUsers;\n    //mapping users address with bet amount\n    mapping(address => wallet) public betAmounts;\n\n    //address of the crush token\n    CRUSHToken public immutable crush;\n    BitcrushBankroll public immutable bankroll;\n    BitcrushStaking public stakingPool;\n\n    uint256 public constant DIVISOR = 10000;\n    uint256 public lockPeriod = 10800;\n    address public reserveAddress;\n    uint256 public earlyWithdrawFee = 50; // 50/10000 * 100 = 0.5%\n\n    event Withdraw(address indexed _address, uint256 indexed _amount);\n    event Deposit(address indexed _address, uint256 indexed _amount);\n    event DepositWin(address indexed _address, uint256 indexed _amount);\n    event LockPeriodUpdated(uint256 indexed _lockPeriod);\n\n    constructor(\n        CRUSHToken _crush,\n        BitcrushBankroll _bankroll,\n        address _reserveAddress\n    ) {\n        crush = _crush;\n        bankroll = _bankroll;\n        reserveAddress = _reserveAddress;\n    }\n\n    /// add funds to the senders live wallet\n    /// @dev adds funds to the sender user's live wallets\n    function addbet(uint256 _amount) public {\n        require(_amount > 0, \"Bet amount should be greater than 0\");\n        require(blacklistedUsers[msg.sender] == false, \"User is black Listed\");\n        crush.safeTransferFrom(msg.sender, address(this), _amount);\n        betAmounts[msg.sender].balance = betAmounts[msg.sender].balance.add(\n            _amount\n        );\n        betAmounts[msg.sender].lockTimeStamp = block.timestamp;\n        emit Deposit(msg.sender, _amount);\n    }\n\n    /// add funds to the provided users live wallet\n    /// @dev adds funds to the specified users live wallets\n    function addbetWithAddress(uint256 _amount, address _user) public {\n        require(_amount > 0, \"Bet amount should be greater than 0\");\n        require(blacklistedUsers[_user] == false, \"User is black Listed\");\n        crush.safeTransferFrom(msg.sender, address(this), _amount);\n        betAmounts[_user].balance = betAmounts[_user].balance.add(_amount);\n        betAmounts[_user].lockTimeStamp = block.timestamp;\n        emit DepositWin(_user, _amount);\n    }\n\n    /// return the current balance of user in the live wallet\n    /// @dev return current the balance of provided user addrss in the live wallet\n    function balanceOf(address _user) public view returns (uint256) {\n        return betAmounts[_user].balance;\n    }\n\n    /// register wins for users in game with amounts\n    /// @dev register wins for users during gameplay. wins are reported in aggregated form from the game server.\n    function registerWin(uint256[] memory _wins, address[] memory _users)\n        public\n        onlyOwner\n    {\n        require(\n            _wins.length == _users.length,\n            \"Parameter lengths should be equal\"\n        );\n        for (uint256 i = 0; i < _users.length; i++) {\n            bankroll.payOutUserWinning(_wins[i], _users[i]);\n        }\n    }\n\n    /// register loss for users in game with amounts\n    /// @dev register loss for users during gameplay. loss is reported in aggregated form from the game server.\n    function registerLoss(uint256[] memory _bets, address[] memory _users)\n        public\n        onlyOwner\n    {\n        require(\n            _bets.length == _users.length,\n            \"Parameter lengths should be equal\"\n        );\n        for (uint256 i = 0; i < _users.length; i++) {\n            if (_bets[i] > 0) {\n                require(\n                    betAmounts[_users[i]].balance >= _bets[i],\n                    \"Loss bet amount is greater than available balance\"\n                );\n                transferToBankroll(_bets[i]);\n                betAmounts[_users[i]].balance = betAmounts[_users[i]]\n                    .balance\n                    .sub(_bets[i]);\n            }\n        }\n    }\n\n    /// transfer funds from live wallet to the bankroll on user loss\n    /// @dev transfer funds to the bankroll contract when users lose in game\n    function transferToBankroll(uint256 _amount) internal {\n        crush.approve(address(bankroll), _amount);\n        bankroll.addUserLoss(_amount);\n    }\n\n    /// withdraw funds from live wallet of the senders address\n    /// @dev withdraw amount from users wallet if betlock isnt enabled\n    function withdrawBet(uint256 _amount) public {\n        require(\n            betAmounts[msg.sender].balance >= _amount,\n            \"bet less than amount withdraw\"\n        );\n        require(\n            betAmounts[msg.sender].lockTimeStamp == 0 ||\n                betAmounts[msg.sender].lockTimeStamp.add(lockPeriod) <\n                block.timestamp,\n            \"Bet Amount locked, please try again later\"\n        );\n        betAmounts[msg.sender].balance = betAmounts[msg.sender].balance.sub(\n            _amount\n        );\n        crush.safeTransfer(msg.sender, _amount);\n        emit Withdraw(msg.sender, _amount);\n    }\n\n    /// owner only function to override timelock and withdraw funds on behalf of user\n    /// @dev withdraw preapproved amount from users wallet sidestepping the timelock on withdrawals\n    function withdrawBetForUser(uint256 _amount, address _user)\n        public\n        onlyOwner\n    {\n        require(\n            betAmounts[_user].balance >= _amount,\n            \"bet less than amount withdraw\"\n        );\n        betAmounts[_user].balance = betAmounts[_user].balance.sub(_amount);\n        emit Withdraw(_user, _amount);\n        uint256 withdrawalFee = _amount.mul(earlyWithdrawFee).div(DIVISOR);\n        _amount = _amount.sub(withdrawalFee);\n        crush.safeTransfer(reserveAddress, withdrawalFee);\n        crush.safeTransfer(_user, _amount);\n    }\n\n    /// add funds to the users live wallet on wins by either the bankroll or the staking pool\n    /// @dev add funds to the users live wallet as winnings\n    function addToUserWinnings(uint256 _amount, address _user) public {\n        require(\n            msg.sender == address(bankroll) ||\n                msg.sender == address(stakingPool),\n            \"Caller must be bankroll or staking pool\"\n        );\n        betAmounts[_user].balance = betAmounts[_user].balance.add(_amount);\n    }\n\n    /// update the lockTimeStamp of provided users to current timestamp to prevent withdraws\n    /// @dev update bet lock to prevent withdraws during gameplay\n    function updateBetLock(address[] memory _users) public onlyOwner {\n        for (uint256 i = 0; i < _users.length; i++) {\n            betAmounts[_users[i]].lockTimeStamp = block.timestamp;\n        }\n    }\n\n    /// update the lockTimeStamp of provided users to 0 to allow withdraws\n    /// @dev update bet lock to allow withdraws after gameplay\n    function releaseBetLock(address[] memory _users) public onlyOwner {\n        for (uint256 i = 0; i < _users.length; i++) {\n            betAmounts[_users[i]].lockTimeStamp = 0;\n        }\n    }\n\n    /// blacklist specified address from adding more funds to the pool\n    /// @dev prevent specified address from adding funds to the live wallet\n    function blacklistUser(address _address) public onlyOwner {\n        blacklistedUsers[_address] = true;\n    }\n\n    /// whitelist sender address from adding more funds to the pool\n    /// @dev allow previously blacklisted sender address to add funds to the live wallet\n    function whitelistUser(address _address) public onlyOwner {\n        delete blacklistedUsers[_address];\n    }\n\n    /// blacklist sender address from adding more funds to the pool\n    /// @dev prevent sender address from adding funds to the live wallet\n    function blacklistSelf() public {\n        blacklistedUsers[msg.sender] = true;\n    }\n\n    /// Store `_lockPeriod`.\n    /// @param _lockPeriod the new value to store\n    /// @dev stores the _lockPeriod in the state variable `lockPeriod`\n    function setLockPeriod(uint256 _lockPeriod) public onlyOwner {\n        require(\n            _lockPeriod <= 604800,\n            \"Lock period cannot be greater than 1 week\"\n        );\n        lockPeriod = _lockPeriod;\n        emit LockPeriodUpdated(lockPeriod);\n    }\n\n    /// Store `_reserveAddress`.\n    /// @param _reserveAddress the new value to store\n    /// @dev stores the _reserveAddress in the state variable `reserveAddress`\n    function setReserveAddress(address _reserveAddress) public onlyOwner {\n        reserveAddress = _reserveAddress;\n    }\n\n    /// Store `_earlyWithdrawFee`.\n    /// @param _earlyWithdrawFee the new value to store\n    /// @dev stores the _earlyWithdrawFee in the state variable `earlyWithdrawFee`\n    function setEarlyWithdrawFee(uint256 _earlyWithdrawFee) public onlyOwner {\n        require(\n            _earlyWithdrawFee < 4000,\n            \"Early withdraw fee must be less than 40%\"\n        );\n        earlyWithdrawFee = _earlyWithdrawFee;\n    }\n\n    /// Store `_stakingPool`.\n    /// @param _stakingPool the new value to store\n    /// @dev stores the _stakingPool address in the state variable `stakingPool`\n    function setStakingPool(BitcrushStaking _stakingPool) public onlyOwner {\n        require(\n            address(stakingPool) == address(0),\n            \"staking pool address already set\"\n        );\n        stakingPool = _stakingPool;\n    }\n}\n",
  "sourcePath": "contracts/LiveWallet.sol",
  "type": "contract"
}