{
  "abi": [
    {
      "inputs": [
        {
          "internalType": "contract CRUSHToken",
          "name": "_crush",
          "type": "address"
        },
        {
          "internalType": "uint256",
          "name": "_crushPerBlock",
          "type": "uint256"
        },
        {
          "internalType": "address",
          "name": "_reserveAddress",
          "type": "address"
        }
      ],
      "stateMutability": "nonpayable",
      "type": "constructor"
    },
    {
      "anonymous": false,
      "inputs": [
        {
          "indexed": true,
          "internalType": "address",
          "name": "previousOwner",
          "type": "address"
        },
        {
          "indexed": true,
          "internalType": "address",
          "name": "newOwner",
          "type": "address"
        }
      ],
      "name": "OwnershipTransferred",
      "type": "event"
    },
    {
      "anonymous": false,
      "inputs": [
        {
          "indexed": true,
          "internalType": "uint256",
          "name": "_totalPool",
          "type": "uint256"
        }
      ],
      "name": "RewardPoolUpdated",
      "type": "event"
    },
    {
      "anonymous": false,
      "inputs": [
        {
          "indexed": true,
          "internalType": "address",
          "name": "recipeint",
          "type": "address"
        },
        {
          "indexed": true,
          "internalType": "uint256",
          "name": "_amount",
          "type": "uint256"
        }
      ],
      "name": "StakeUpdated",
      "type": "event"
    },
    {
      "inputs": [],
      "name": "MAX_CRUSH_PER_BLOCK",
      "outputs": [
        {
          "internalType": "uint256",
          "name": "",
          "type": "uint256"
        }
      ],
      "stateMutability": "view",
      "type": "function"
    },
    {
      "inputs": [],
      "name": "MAX_FEE",
      "outputs": [
        {
          "internalType": "uint256",
          "name": "",
          "type": "uint256"
        }
      ],
      "stateMutability": "view",
      "type": "function"
    },
    {
      "inputs": [],
      "name": "accProfitPerShare",
      "outputs": [
        {
          "internalType": "uint256",
          "name": "",
          "type": "uint256"
        }
      ],
      "stateMutability": "view",
      "type": "function"
    },
    {
      "inputs": [],
      "name": "accRewardPerShare",
      "outputs": [
        {
          "internalType": "uint256",
          "name": "",
          "type": "uint256"
        }
      ],
      "stateMutability": "view",
      "type": "function"
    },
    {
      "inputs": [
        {
          "internalType": "uint256",
          "name": "_amount",
          "type": "uint256"
        }
      ],
      "name": "addRewardToPool",
      "outputs": [],
      "stateMutability": "nonpayable",
      "type": "function"
    },
    {
      "inputs": [
        {
          "internalType": "uint256",
          "name": "",
          "type": "uint256"
        }
      ],
      "name": "addressIndexes",
      "outputs": [
        {
          "internalType": "address",
          "name": "",
          "type": "address"
        }
      ],
      "stateMutability": "view",
      "type": "function"
    },
    {
      "inputs": [],
      "name": "apyBoost",
      "outputs": [
        {
          "internalType": "uint256",
          "name": "",
          "type": "uint256"
        }
      ],
      "stateMutability": "view",
      "type": "function"
    },
    {
      "inputs": [],
      "name": "autoCompoundLimit",
      "outputs": [
        {
          "internalType": "uint256",
          "name": "",
          "type": "uint256"
        }
      ],
      "stateMutability": "view",
      "type": "function"
    },
    {
      "inputs": [],
      "name": "bankroll",
      "outputs": [
        {
          "internalType": "contract BitcrushBankroll",
          "name": "",
          "type": "address"
        }
      ],
      "stateMutability": "view",
      "type": "function"
    },
    {
      "inputs": [],
      "name": "batchStartingIndex",
      "outputs": [
        {
          "internalType": "uint256",
          "name": "",
          "type": "uint256"
        }
      ],
      "stateMutability": "view",
      "type": "function"
    },
    {
      "inputs": [],
      "name": "blockPerSecond",
      "outputs": [
        {
          "internalType": "uint256",
          "name": "",
          "type": "uint256"
        }
      ],
      "stateMutability": "view",
      "type": "function"
    },
    {
      "inputs": [],
      "name": "compoundAll",
      "outputs": [],
      "stateMutability": "nonpayable",
      "type": "function"
    },
    {
      "inputs": [],
      "name": "crush",
      "outputs": [
        {
          "internalType": "contract CRUSHToken",
          "name": "",
          "type": "address"
        }
      ],
      "stateMutability": "view",
      "type": "function"
    },
    {
      "inputs": [],
      "name": "crushPerBlock",
      "outputs": [
        {
          "internalType": "uint256",
          "name": "",
          "type": "uint256"
        }
      ],
      "stateMutability": "view",
      "type": "function"
    },
    {
      "inputs": [],
      "name": "deploymentTimeStamp",
      "outputs": [
        {
          "internalType": "uint256",
          "name": "",
          "type": "uint256"
        }
      ],
      "stateMutability": "view",
      "type": "function"
    },
    {
      "inputs": [],
      "name": "divisor",
      "outputs": [
        {
          "internalType": "uint256",
          "name": "",
          "type": "uint256"
        }
      ],
      "stateMutability": "view",
      "type": "function"
    },
    {
      "inputs": [],
      "name": "earlyWithdrawFee",
      "outputs": [
        {
          "internalType": "uint256",
          "name": "",
          "type": "uint256"
        }
      ],
      "stateMutability": "view",
      "type": "function"
    },
    {
      "inputs": [],
      "name": "earlyWithdrawFeeTime",
      "outputs": [
        {
          "internalType": "uint256",
          "name": "",
          "type": "uint256"
        }
      ],
      "stateMutability": "view",
      "type": "function"
    },
    {
      "inputs": [],
      "name": "emergencyWithdraw",
      "outputs": [],
      "stateMutability": "nonpayable",
      "type": "function"
    },
    {
      "inputs": [
        {
          "internalType": "uint256",
          "name": "_amount",
          "type": "uint256"
        }
      ],
      "name": "enterStaking",
      "outputs": [],
      "stateMutability": "nonpayable",
      "type": "function"
    },
    {
      "inputs": [
        {
          "internalType": "uint256",
          "name": "_amount",
          "type": "uint256"
        },
        {
          "internalType": "address",
          "name": "_recipient",
          "type": "address"
        },
        {
          "internalType": "address",
          "name": "_lwAddress",
          "type": "address"
        }
      ],
      "name": "freezeStaking",
      "outputs": [],
      "stateMutability": "nonpayable",
      "type": "function"
    },
    {
      "inputs": [],
      "name": "frozenEarlyWithdrawFee",
      "outputs": [
        {
          "internalType": "uint256",
          "name": "",
          "type": "uint256"
        }
      ],
      "stateMutability": "view",
      "type": "function"
    },
    {
      "inputs": [],
      "name": "frozenEarlyWithdrawFeeTime",
      "outputs": [
        {
          "internalType": "uint256",
          "name": "",
          "type": "uint256"
        }
      ],
      "stateMutability": "view",
      "type": "function"
    },
    {
      "inputs": [],
      "name": "indexesLength",
      "outputs": [
        {
          "internalType": "uint256",
          "name": "_addressesLength",
          "type": "uint256"
        }
      ],
      "stateMutability": "view",
      "type": "function"
    },
    {
      "inputs": [],
      "name": "lastAutoCompoundBlock",
      "outputs": [
        {
          "internalType": "uint256",
          "name": "",
          "type": "uint256"
        }
      ],
      "stateMutability": "view",
      "type": "function"
    },
    {
      "inputs": [],
      "name": "lastRewardBlock",
      "outputs": [
        {
          "internalType": "uint256",
          "name": "",
          "type": "uint256"
        }
      ],
      "stateMutability": "view",
      "type": "function"
    },
    {
      "inputs": [
        {
          "internalType": "uint256",
          "name": "_amount",
          "type": "uint256"
        },
        {
          "internalType": "bool",
          "name": "_liveWallet",
          "type": "bool"
        }
      ],
      "name": "leaveStaking",
      "outputs": [],
      "stateMutability": "nonpayable",
      "type": "function"
    },
    {
      "inputs": [],
      "name": "liveWallet",
      "outputs": [
        {
          "internalType": "contract BitcrushLiveWallet",
          "name": "",
          "type": "address"
        }
      ],
      "stateMutability": "view",
      "type": "function"
    },
    {
      "inputs": [],
      "name": "owner",
      "outputs": [
        {
          "internalType": "address",
          "name": "",
          "type": "address"
        }
      ],
      "stateMutability": "view",
      "type": "function"
    },
    {
      "inputs": [
        {
          "internalType": "address",
          "name": "_address",
          "type": "address"
        }
      ],
      "name": "pendingProfits",
      "outputs": [
        {
          "internalType": "uint256",
          "name": "",
          "type": "uint256"
        }
      ],
      "stateMutability": "view",
      "type": "function"
    },
    {
      "inputs": [
        {
          "internalType": "address",
          "name": "_address",
          "type": "address"
        }
      ],
      "name": "pendingReward",
      "outputs": [
        {
          "internalType": "uint256",
          "name": "",
          "type": "uint256"
        }
      ],
      "stateMutability": "view",
      "type": "function"
    },
    {
      "inputs": [],
      "name": "performanceFeeBurn",
      "outputs": [
        {
          "internalType": "uint256",
          "name": "",
          "type": "uint256"
        }
      ],
      "stateMutability": "view",
      "type": "function"
    },
    {
      "inputs": [],
      "name": "performanceFeeCompounder",
      "outputs": [
        {
          "internalType": "uint256",
          "name": "",
          "type": "uint256"
        }
      ],
      "stateMutability": "view",
      "type": "function"
    },
    {
      "inputs": [],
      "name": "performanceFeeReserve",
      "outputs": [
        {
          "internalType": "uint256",
          "name": "",
          "type": "uint256"
        }
      ],
      "stateMutability": "view",
      "type": "function"
    },
    {
      "inputs": [],
      "name": "renounceOwnership",
      "outputs": [],
      "stateMutability": "nonpayable",
      "type": "function"
    },
    {
      "inputs": [],
      "name": "reserveAddress",
      "outputs": [
        {
          "internalType": "address",
          "name": "",
          "type": "address"
        }
      ],
      "stateMutability": "view",
      "type": "function"
    },
    {
      "inputs": [
        {
          "internalType": "uint256",
          "name": "_limit",
          "type": "uint256"
        }
      ],
      "name": "setAutoCompoundLimit",
      "outputs": [],
      "stateMutability": "nonpayable",
      "type": "function"
    },
    {
      "inputs": [
        {
          "internalType": "contract BitcrushBankroll",
          "name": "_bankroll",
          "type": "address"
        }
      ],
      "name": "setBankroll",
      "outputs": [],
      "stateMutability": "nonpayable",
      "type": "function"
    },
    {
      "inputs": [
        {
          "internalType": "uint256",
          "name": "_amount",
          "type": "uint256"
        }
      ],
      "name": "setCrushPerBlock",
      "outputs": [],
      "stateMutability": "nonpayable",
      "type": "function"
    },
    {
      "inputs": [
        {
          "internalType": "uint256",
          "name": "_fee",
          "type": "uint256"
        }
      ],
      "name": "setEarlyWithdrawFee",
      "outputs": [],
      "stateMutability": "nonpayable",
      "type": "function"
    },
    {
      "inputs": [
        {
          "internalType": "uint256",
          "name": "_time",
          "type": "uint256"
        }
      ],
      "name": "setEarlyWithdrawFeeTime",
      "outputs": [],
      "stateMutability": "nonpayable",
      "type": "function"
    },
    {
      "inputs": [
        {
          "internalType": "contract BitcrushLiveWallet",
          "name": "_liveWallet",
          "type": "address"
        }
      ],
      "name": "setLiveWallet",
      "outputs": [],
      "stateMutability": "nonpayable",
      "type": "function"
    },
    {
      "inputs": [
        {
          "internalType": "uint256",
          "name": "_fee",
          "type": "uint256"
        }
      ],
      "name": "setPerformanceFeeBurn",
      "outputs": [],
      "stateMutability": "nonpayable",
      "type": "function"
    },
    {
      "inputs": [
        {
          "internalType": "uint256",
          "name": "_fee",
          "type": "uint256"
        }
      ],
      "name": "setPerformanceFeeCompounder",
      "outputs": [],
      "stateMutability": "nonpayable",
      "type": "function"
    },
    {
      "inputs": [
        {
          "internalType": "uint256",
          "name": "_fee",
          "type": "uint256"
        }
      ],
      "name": "setPerformanceFeeReserve",
      "outputs": [],
      "stateMutability": "nonpayable",
      "type": "function"
    },
    {
      "inputs": [
        {
          "internalType": "address",
          "name": "",
          "type": "address"
        }
      ],
      "name": "stakings",
      "outputs": [
        {
          "internalType": "uint256",
          "name": "shares",
          "type": "uint256"
        },
        {
          "internalType": "uint256",
          "name": "stakedAmount",
          "type": "uint256"
        },
        {
          "internalType": "uint256",
          "name": "claimedAmount",
          "type": "uint256"
        },
        {
          "internalType": "uint256",
          "name": "lastBlockCompounded",
          "type": "uint256"
        },
        {
          "internalType": "uint256",
          "name": "lastBlockStaked",
          "type": "uint256"
        },
        {
          "internalType": "uint256",
          "name": "index",
          "type": "uint256"
        },
        {
          "internalType": "uint256",
          "name": "lastFrozenWithdraw",
          "type": "uint256"
        },
        {
          "internalType": "uint256",
          "name": "apyBaseline",
          "type": "uint256"
        },
        {
          "internalType": "uint256",
          "name": "profitBaseline",
          "type": "uint256"
        }
      ],
      "stateMutability": "view",
      "type": "function"
    },
    {
      "inputs": [],
      "name": "totalClaimed",
      "outputs": [
        {
          "internalType": "uint256",
          "name": "",
          "type": "uint256"
        }
      ],
      "stateMutability": "view",
      "type": "function"
    },
    {
      "inputs": [],
      "name": "totalFrozen",
      "outputs": [
        {
          "internalType": "uint256",
          "name": "",
          "type": "uint256"
        }
      ],
      "stateMutability": "view",
      "type": "function"
    },
    {
      "inputs": [],
      "name": "totalPool",
      "outputs": [
        {
          "internalType": "uint256",
          "name": "",
          "type": "uint256"
        }
      ],
      "stateMutability": "view",
      "type": "function"
    },
    {
      "inputs": [],
      "name": "totalProfitDistributed",
      "outputs": [
        {
          "internalType": "uint256",
          "name": "",
          "type": "uint256"
        }
      ],
      "stateMutability": "view",
      "type": "function"
    },
    {
      "inputs": [],
      "name": "totalProfitsClaimed",
      "outputs": [
        {
          "internalType": "uint256",
          "name": "",
          "type": "uint256"
        }
      ],
      "stateMutability": "view",
      "type": "function"
    },
    {
      "inputs": [],
      "name": "totalShares",
      "outputs": [
        {
          "internalType": "uint256",
          "name": "",
          "type": "uint256"
        }
      ],
      "stateMutability": "view",
      "type": "function"
    },
    {
      "inputs": [],
      "name": "totalStaked",
      "outputs": [
        {
          "internalType": "uint256",
          "name": "",
          "type": "uint256"
        }
      ],
      "stateMutability": "view",
      "type": "function"
    },
    {
      "inputs": [
        {
          "internalType": "address",
          "name": "newOwner",
          "type": "address"
        }
      ],
      "name": "transferOwnership",
      "outputs": [],
      "stateMutability": "nonpayable",
      "type": "function"
    },
    {
      "inputs": [
        {
          "internalType": "uint256",
          "name": "_amount",
          "type": "uint256"
        }
      ],
      "name": "unfreezeStaking",
      "outputs": [],
      "stateMutability": "nonpayable",
      "type": "function"
    },
    {
      "inputs": [],
      "name": "updateDistribution",
      "outputs": [],
      "stateMutability": "nonpayable",
      "type": "function"
    },
    {
      "inputs": [],
      "name": "updateProfits",
      "outputs": [],
      "stateMutability": "nonpayable",
      "type": "function"
    }
  ],
  "bytecode": "60a0604052600a600155606460025560326003556105dc60045560be600555612a3060065560036007556007546203f4806200003c919062000134565b6008556109c4600955674c53ecdc18a60000601255600a601c553480156200006357600080fd5b506040516200308738038062003087833981016040819052620000869162000170565b6200009133620000e4565b6001600160a01b038316608052678ac7230489e800008211620000b45760128290555b600d80546001600160a01b0319166001600160a01b0392909216919091179055505042601d5543601455620001b8565b600080546001600160a01b038381166001600160a01b0319831681178455604051919092169283917f8be0079c531659141344cd1fd0a4f28419497f9722a3daafe3b4186f6b6457e09190a35050565b6000826200015257634e487b7160e01b600052601260045260246000fd5b500490565b6001600160a01b03811681146200016d57600080fd5b50565b6000806000606084860312156200018657600080fd5b8351620001938162000157565b602085015160408601519194509250620001ad8162000157565b809150509250925092565b608051612e3c6200024b6000396000818161059e01528181610824015281816108d20152818161094001528181610a3701528181610b7801528181610ff00152818161113301528181611170015281816111c50152818161182e01528181611be101528181611c5201528181611c8c015281816121f30152818161228e01528181612312015261234a0152612e3c6000f3fe608060405234801561001057600080fd5b50600436106103835760003560e01c8063817b1cd2116101de578063bde8a93e1161010f578063e39faaa4116100ad578063f2fde38b1161007c578063f2fde38b146106fd578063f40f0f5214610710578063f79ed94b14610723578063fa2b8a5d1461073657600080fd5b8063e39faaa4146106c5578063e3aeeb46146106d8578063ecb1c924146106eb578063ecfb49a3146106f457600080fd5b8063c61f1c0b116100e9578063c61f1c0b1461060b578063d54ad2a114610614578063db2e21bc1461061d578063dc6e13e11461062557600080fd5b8063bde8a93e146105d2578063c22982f4146105e5578063c53f871f146105f857600080fd5b8063a80a78821161017c578063b249e88e11610156578063b249e88e14610590578063b359a9f914610599578063bc063e1a146105c0578063bca5503d146105c957600080fd5b8063a80a788214610576578063a9f8d1811461057f578063aa8badc11461058857600080fd5b8063939d6237116101b8578063939d62371461053f5780639b05ddb3146105485780639e13900c14610550578063a775573a1461056357600080fd5b8063817b1cd2146105125780638da5cb5b1461051b5780638f44ebfc1461052c57600080fd5b806349535ef5116102b8578063668579c9116102565780636e74d2e2116102305780636e74d2e2146104db5780636f90e046146104e4578063715018a6146104f757806376e9e6c0146104ff57600080fd5b8063668579c9146104c05780636874d620146104c95780636903d0b6146104d257600080fd5b806351496bbd1161029257806351496bbd146104895780635832d5711461049157806364a9c480146104a45780636535fc66146104ad57600080fd5b806349535ef51461046e5780634b37f006146104775780634bf211b81461048057600080fd5b80632e0ae2f2116103255780633a53ed49116102ff5780633a53ed491461042c5780633a98ef391461043f57806341441d3b14610448578063445e76881461045b57600080fd5b80632e0ae2f21461040757806338ed019a1461041057806339cc13781461041957600080fd5b80631f2dc5ef116103615780631f2dc5ef146103d85780632533830a146103e157806326cba336146103ea578063289bac07146103ff57600080fd5b80630a3960bc146103885780630c657eb0146103a45780631e7f87bc146103cf575b600080fd5b61039160055481565b6040519081526020015b60405180910390f35b600b546103b7906001600160a01b031681565b6040516001600160a01b03909116815260200161039b565b61039160195481565b61039161271081565b610391601b5481565b6103fd6103f8366004612a81565b610745565b005b600f54610391565b61039160045481565b61039160115481565b610391610427366004612aaf565b6107be565b6103fd61043a366004612a81565b61080d565b610391600a5481565b6103fd610456366004612a81565b610929565b6103fd610469366004612ada565b610c9d565b61039160095481565b61039160075481565b61039160105481565b6103fd6113e4565b6103b761049f366004612a81565b6114a6565b610391601a5481565b6103fd6104bb366004612a81565b6114d0565b610391601d5481565b61039160065481565b61039160085481565b61039160025481565b6103fd6104f2366004612a81565b611541565b6103fd6115c0565b6103fd61050d366004612a81565b6115f6565b61039160175481565b6000546001600160a01b03166103b7565b6103fd61053a366004612b0a565b6116ce565b61039160135481565b6103fd61186d565b6103fd61055e366004612aaf565b611cbd565b6103fd610571366004612a81565b611d62565b61039160035481565b61039160145481565b6103fd611df9565b61039160155481565b6103b77f000000000000000000000000000000000000000000000000000000000000000081565b6103916103e881565b61039160015481565b6103fd6105e0366004612aaf565b611eb0565b6103fd6105f3366004612a81565b611f55565b6103fd610606366004612a81565b611fc5565b61039160125481565b61039160185481565b6103fd612035565b610681610633366004612aaf565b600e6020528060005260406000206000915090508060000154908060010154908060020154908060030154908060040154908060050154908060060154908060070154908060080154905089565b60408051998a5260208a0198909852968801959095526060870193909352608086019190915260a085015260c084015260e08301526101008201526101200161039b565b6103fd6106d3366004612a81565b612493565b600c546103b7906001600160a01b031681565b610391601c5481565b61039160165481565b6103fd61070b366004612aaf565b612588565b61039161071e366004612aaf565b612620565b600d546103b7906001600160a01b031681565b610391678ac7230489e8000081565b6000546001600160a01b031633146107785760405162461bcd60e51b815260040161076f90612b4c565b60405180910390fd5b600081116107985760405162461bcd60e51b815260040161076f90612b81565b6103e881106107b95760405162461bcd60e51b815260040161076f90612bb8565b600155565b6001600160a01b0381166000908152600e602052604081206008810154601554825461080692916108009164e8d4a51000916107fa919061270e565b9061271a565b90612726565b9392505050565b6040516370a0823160e01b815233600482015281907f00000000000000000000000000000000000000000000000000000000000000006001600160a01b0316906370a0823190602401602060405180830381865afa158015610873573d6000803e3d6000fd5b505050506040513d601f19601f820116820180604052508101906108979190612bef565b10156108b55760405162461bcd60e51b815260040161076f90612c08565b6016546108c29082612732565b6016556108fa6001600160a01b037f00000000000000000000000000000000000000000000000000000000000000001633308461273e565b6016546040517f1ef37ab665f7c977b577275d7a49e72cd18d1143eccd1112f1198e4a39d1428c90600090a250565b6040516370a0823160e01b815233600482015281907f00000000000000000000000000000000000000000000000000000000000000006001600160a01b0316906370a0823190602401602060405180830381865afa15801561098f573d6000803e3d6000fd5b505050506040513d601f19601f820116820180604052508101906109b39190612bef565b10156109d15760405162461bcd60e51b815260040161076f90612c08565b60008111610a1a5760405162461bcd60e51b8152602060048201526016602482015275125b9d985b1a59081cdd185ada5b99c8185b5bdd5b9d60521b604482015260640161076f565b610a22611df9565b610a2a6113e4565b610a5f6001600160a01b037f00000000000000000000000000000000000000000000000000000000000000001633308461273e565b601754610a6b57436010555b336000908152600e602052604090206001810154610ae357436003820155600f80546001818101835560008390527f8d1108e10bcb7c27dddfc02ed9d693a074039d026cf4ea4240b40f7d581ac80290910180546001600160a01b031916331790559054610ad99190612c64565b6005820155610bd7565b6000610b0f826007015461080064e8d4a510006107fa601354876000015461270e90919063ffffffff16565b9050601654811115610b2057506016545b601654610b2d9082612726565b60165560088201546015548354600092610b579290916108009164e8d4a51000916107fa9161270e565b9050610b638282612732565b91508115610bd457610b9f6001600160a01b037f00000000000000000000000000000000000000000000000000000000000000001633846127a9565b6002830154610bae9083612732565b6002840155601854610bc09083612732565b601855601a54610bd09082612732565b601a555b50505b6000600a54600014610c0557610bfe6017546107fa600a548661270e90919063ffffffff16565b9050610c08565b50815b601754610c159084612732565b601755600a54610c259082612732565b600a558154610c35574360038301555b8154610c419082612732565b808355601554610c5b9164e8d4a51000916107fa9161270e565b60088301558154601354610c799164e8d4a51000916107fa9161270e565b60078301556001820154610c8d9084612732565b6001830155504360049091015550565b610ca5611df9565b610cad6113e4565b336000908152600e6020526040812060078101546013548254929392610ce392916108009164e8d4a51000916107fa919061270e565b90506000610d11836008015461080064e8d4a510006107fa601554886000015461270e90919063ffffffff16565b9050601654821115610d235760165491505b601654610d309083612726565b601655610d3d8282612732565b601a54909250610d4d9082612732565b601a55436003840155600183015460195415610e0257610d8c610d856017546107fa876001015460195461270e90919063ffffffff16565b8290612726565b905085811015610dfd5760405162461bcd60e51b815260206004820152603660248201527f46726f7a656e2046756e64733a2043616e2774207769746864726177206d6f7260448201527565207468616e20417661696c61626c652066756e647360501b606482015260840161076f565b610e14565b600684015415610e1457600060068501555b85811015610e8a5760405162461bcd60e51b815260206004820152603f60248201527f576974686472617720616d6f756e742063616e206e6f7420626520677265617460448201527f6572207468616e20617661696c61626c65207374616b656420616d6f756e7400606482015260840161076f565b601754610e979087612726565b60175560018401548454600091610eb3916107fa908a9061270e565b6001860154909150610ec59088612726565b60018601558454610ed69082612726565b8555600a54610ee59082612726565b600a556013548554610f019164e8d4a51000916107fa9161270e565b60078601556015548554610f1f9164e8d4a51000916107fa9161270e565b6008860155610f2e8785612732565b601954909750156110de57600685015415610f72576006805490860154610f5491612732565b4211610f725760405162461bcd60e51b815260040161076f90612c7b565b6000610f8f6127106107fa6004548b61270e90919063ffffffff16565b4260068801559050610fa18882612726565b9750601954811115611069576000610fc46019548361272690919063ffffffff16565b600b5460405163095ea7b360e01b81526001600160a01b039182166004820152602481018390529192507f0000000000000000000000000000000000000000000000000000000000000000169063095ea7b3906044016020604051808303816000875af1158015611039573d6000803e3d6000fd5b505050506040513d601f19601f8201168201806040525081019061105d9190612cce565b5050600060195561107a565b6019546110769082612726565b6019555b600b546040516316714ff560e21b8152600481018390526001600160a01b03909116906359c53fd490602401600060405180830381600087803b1580156110c057600080fd5b505af11580156110d4573d6000803e3d6000fd5b505050505061115e565b60085460048601546110ef91612732565b43101561115e5760006111136127106107fa6003548b61270e90919063ffffffff16565b905061111f8882612726565b600d5490985061115c906001600160a01b037f000000000000000000000000000000000000000000000000000000000000000081169116836127a9565b505b8561119c576111976001600160a01b037f00000000000000000000000000000000000000000000000000000000000000001633896127a9565b61129a565b600c5460405163095ea7b360e01b81526001600160a01b039182166004820152602481018990527f00000000000000000000000000000000000000000000000000000000000000009091169063095ea7b3906044016020604051808303816000875af1158015611210573d6000803e3d6000fd5b505050506040513d601f19601f820116820180604052508101906112349190612cce565b50600c54604051637efd381360e01b8152600481018990523360248201526001600160a01b0390911690637efd381390604401600060405180830381600087803b15801561128157600080fd5b505af1158015611295573d6000803e3d6000fd5b505050505b60028501546112a99085612732565b60028601556018546112bb9085612732565b60185560018501546113af57600f546112d690600190612c64565b85600501541461137b57600f8054600091906112f490600190612c64565b8154811061130457611304612ceb565b9060005260206000200160009054906101000a90046001600160a01b0316905080600f87600501548154811061133c5761133c612ceb565b600091825260208083209190910180546001600160a01b0319166001600160a01b03948516179055600589810154949093168252600e90526040902001555b600f80548061138c5761138c612d01565b600082815260209020810160001990810180546001600160a01b03191690550190555b6016546040517f1ef37ab665f7c977b577275d7a49e72cd18d1143eccd1112f1198e4a39d1428c90600090a250505050505050565b600a546113ed57565b600b54604080516345c9c1d160e01b815290516000926001600160a01b0316916345c9c1d1916004808301926020929190829003018187875af1158015611438573d6000803e3d6000fd5b505050506040513d601f19601f8201168201806040525081019061145c9190612bef565b9050806114665750565b601b546114739082612732565b601b55600a5460009061148f906107fa8464e8d4a5100061270e565b60155490915061149f9082612732565b6015555050565b600f81815481106114b657600080fd5b6000918252602090912001546001600160a01b0316905081565b6000546001600160a01b031633146114fa5760405162461bcd60e51b815260040161076f90612b4c565b6000811161151a5760405162461bcd60e51b815260040161076f90612b81565b6103e881111561153c5760405162461bcd60e51b815260040161076f90612bb8565b600555565b6000546001600160a01b0316331461156b5760405162461bcd60e51b815260040161076f90612b4c565b600081116115bb5760405162461bcd60e51b815260206004820152601b60248201527f54696d65206d7573742062652067726561746572207468616e20300000000000604482015260640161076f565b600855565b6000546001600160a01b031633146115ea5760405162461bcd60e51b815260040161076f90612b4c565b6115f460006127de565b565b6000546001600160a01b031633146116205760405162461bcd60e51b815260040161076f90612b4c565b600081116116655760405162461bcd60e51b815260206004820152601260248201527104c696d69742063616e206e6f7420626520360741b604482015260640161076f565b601e81106116c95760405162461bcd60e51b815260206004820152602b60248201527f4d6178206175746f636f6d706f756e64206c696d69742063616e6e6f7420626560448201526a020677265617465722033360ac1b606482015260840161076f565b601c55565b600b546001600160a01b031633146117285760405162461bcd60e51b815260206004820152601760248201527f43616c6c6574206d7573742062652062616e6b726f6c6c000000000000000000604482015260640161076f565b60195460175461173791612726565b8311156117ac5760405162461bcd60e51b815260206004820152603d60248201527f467265657a6520616d6f756e742073686f756c64206265206c6573732074686160448201527f6e206f7220657175616c20746f20617661696c61626c652066756e6473000000606482015260840161076f565b6019546117b99084612732565b601955604051630f62cf8d60e41b8152600481018490526001600160a01b03838116602483015282919082169063f62cf8d090604401600060405180830381600087803b15801561180957600080fd5b505af115801561181d573d6000803e3d6000fd5b506118579250506001600160a01b037f000000000000000000000000000000000000000000000000000000000000000016905083866127a9565b61185f611df9565b6118676113e4565b50505050565b4360105411156118bf5760405162461bcd60e51b815260206004820181905260248201527f436f6d706f756e6420416c6c206e6f7420796574206170706c696361626c652e604482015260640161076f565b6000601754116119115760405162461bcd60e51b815260206004820152601a60248201527f4e6f205374616b6564207265776172647320746f20636c61696d000000000000604482015260640161076f565b601154600f54600091829182918291811061192a575060005b600f54601c548111158061194d5750600f54601c5461194a908490612732565b10155b1561195b5750600f5461196c565b601c54611969908390612732565b90505b6119746113e4565b61197c611df9565b815b81811015611ba2576000600e6000600f848154811061199f5761199f612ceb565b60009182526020808320909101546001600160a01b031683528201929092526040018120600781015460135482549294506119e8926108009164e8d4a51000916107fa9161270e565b90506119f48682612732565b6016541015611a0d57601654611a0a9087612726565b90505b6007820154611a1c9082612732565b60078301558015611a3457611a318682612732565b95505b6000611a60836008015461080064e8d4a510006107fa601554886000015461270e90919063ffffffff16565b6008840154909150611a729082612732565b6008840155611a818282612732565b91508115611b8757601a54611a969082612732565b601a55601854611aa69083612732565b601855600254600090611ac290612710906107fa90869061270e565b9050611ace8b82612732565b9a506000611aed6127106107fa6001548761270e90919063ffffffff16565b9050611af98a82612732565b99506000611b186127106107fa6005548861270e90919063ffffffff16565b9050611b248c82612732565b9b50611b308584612726565b9450611b3c8583612726565b9450611b488582612726565b6002870154909550611b5a9086612732565b60028701556001860154611b6e9086612732565b6001870155601754611b809086612732565b6017555050505b50504360039091015580611b9a81612d17565b91505061197e565b506011819055600f548110611bb75760006011555b601654611bc49084612726565b60165543601055604051630852cd8d60e31b8152600481018790527f00000000000000000000000000000000000000000000000000000000000000006001600160a01b0316906342966c6890602401600060405180830381600087803b158015611c2d57600080fd5b505af1158015611c41573d6000803e3d6000fd5b50611c7b9250506001600160a01b037f000000000000000000000000000000000000000000000000000000000000000016905033866127a9565b600d54611cb5906001600160a01b037f000000000000000000000000000000000000000000000000000000000000000081169116876127a9565b505050505050565b6000546001600160a01b03163314611ce75760405162461bcd60e51b815260040161076f90612b4c565b600c546001600160a01b031615611d405760405162461bcd60e51b815260206004820152601f60248201527f4c6976652057616c6c6574206164647265737320616c72656164792073657400604482015260640161076f565b600c80546001600160a01b0319166001600160a01b0392909216919091179055565b6000546001600160a01b03163314611d8c5760405162461bcd60e51b815260040161076f90612b4c565b678ac7230489e80000811115611df45760405162461bcd60e51b815260206004820152602760248201527f43727573682050657220426c6f636b2063616e206e6f74206265206d6f72652060448201526607468616e2031360cc1b606482015260840161076f565b601255565b6014544311611e0457565b601754611e115743601455565b60125460195415611e4657611e43611e3c6127106107fa60095460125461270e90919063ffffffff16565b8290612732565b90505b601654611e51575060005b6000611e686014544361272690919063ffffffff16565b90506000611e94600a546107fa64e8d4a51000611e8e878761270e90919063ffffffff16565b9061270e565b601354909150611ea49082612732565b60135550504360145550565b6000546001600160a01b03163314611eda5760405162461bcd60e51b815260040161076f90612b4c565b600b546001600160a01b031615611f335760405162461bcd60e51b815260206004820152601c60248201527f42616e6b726f6c6c206164647265737320616c72656164792073657400000000604482015260640161076f565b600b80546001600160a01b0319166001600160a01b0392909216919091179055565b6000546001600160a01b03163314611f7f5760405162461bcd60e51b815260040161076f90612b4c565b60008111611f9f5760405162461bcd60e51b815260040161076f90612b81565b6103e88110611fc05760405162461bcd60e51b815260040161076f90612bb8565b600355565b6000546001600160a01b03163314611fef5760405162461bcd60e51b815260040161076f90612b4c565b6000811161200f5760405162461bcd60e51b815260040161076f90612b81565b6103e881106120305760405162461bcd60e51b815260040161076f90612bb8565b600255565b61203d611df9565b336000908152600e6020526040902043600382015560018101546019541561208857612081610d856017546107fa856001015460195461270e90919063ffffffff16565b905061209a565b60068201541561209a57600060068301555b6017546120a79082612726565b601755600182015482546000916120c3916107fa90859061270e565b60018401549091506120d59083612726565b600184015582546120e69082612726565b8355600a546120f59082612726565b600a5560135483546121119164e8d4a51000916107fa9161270e565b6007840155601554835461212f9164e8d4a51000916107fa9161270e565b6008840155601954156122bd5760068301541561217557600680549084015461215791612732565b42116121755760405162461bcd60e51b815260040161076f90612c7b565b60006121926127106107fa6004548661270e90919063ffffffff16565b42600686015590506121a48382612726565b925060195481111561226c5760006121c76019548361272690919063ffffffff16565b600b5460405163095ea7b360e01b81526001600160a01b039182166004820152602481018390529192507f0000000000000000000000000000000000000000000000000000000000000000169063095ea7b3906044016020604051808303816000875af115801561223c573d6000803e3d6000fd5b505050506040513d601f19601f820116820180604052508101906122609190612cce565b5050600060195561227d565b6019546122799082612726565b6019555b600d546122b7906001600160a01b037f000000000000000000000000000000000000000000000000000000000000000081169116836127a9565b5061233d565b60085460048401546122ce91612732565b43101561233d5760006122f26127106107fa6003548661270e90919063ffffffff16565b90506122fe8382612726565b600d5490935061233b906001600160a01b037f000000000000000000000000000000000000000000000000000000000000000081169116836127a9565b505b6123716001600160a01b037f00000000000000000000000000000000000000000000000000000000000000001633846127a9565b600183015461246257600f5461238990600190612c64565b83600501541461242e57600f8054600091906123a790600190612c64565b815481106123b7576123b7612ceb565b9060005260206000200160009054906101000a90046001600160a01b0316905080600f8560050154815481106123ef576123ef612ceb565b600091825260208083209190910180546001600160a01b0319166001600160a01b03948516179055600587810154949093168252600e90526040902001555b600f80548061243f5761243f612d01565b600082815260209020810160001990810180546001600160a01b03191690550190555b6016546040517f1ef37ab665f7c977b577275d7a49e72cd18d1143eccd1112f1198e4a39d1428c90600090a2505050565b600b546001600160a01b031633146124ed5760405162461bcd60e51b815260206004820152601760248201527f43616c6c6572206d7573742062652062616e6b726f6c6c000000000000000000604482015260640161076f565b6019548111156125655760405162461bcd60e51b815260206004820152603c60248201527f756e667265657a6520616d6f756e742063616e7420626520677265617465722060448201527f7468616e2063757272656e746c792066726f7a656e20616d6f756e7400000000606482015260840161076f565b6019546125729082612726565b60195561257d611df9565b6125856113e4565b50565b6000546001600160a01b031633146125b25760405162461bcd60e51b815260040161076f90612b4c565b6001600160a01b0381166126175760405162461bcd60e51b815260206004820152602660248201527f4f776e61626c653a206e6577206f776e657220697320746865207a65726f206160448201526564647265737360d01b606482015260840161076f565b612585816127de565b6001600160a01b0381166000908152600e602052604081206012546019541561266657612663611e3c6127106107fa60095460125461270e90919063ffffffff16565b90505b601654612671575060005b601354601454431180156126865750600a5415155b156126dd5760006126a26014544361272690919063ffffffff16565b905060006126c8600a546107fa64e8d4a51000611e8e888761270e90919063ffffffff16565b6013549091506126d89082612732565b925050505b612705836007015461080064e8d4a510006107fa85886000015461270e90919063ffffffff16565b95945050505050565b60006108068284612d32565b60006108068284612d51565b60006108068284612c64565b60006108068284612d73565b6040516001600160a01b03808516602483015283166044820152606481018290526118679085906323b872dd60e01b906084015b60408051601f198184030181529190526020810180516001600160e01b03166001600160e01b03199093169290921790915261282e565b6040516001600160a01b0383166024820152604481018290526127d990849063a9059cbb60e01b90606401612772565b505050565b600080546001600160a01b038381166001600160a01b0319831681178455604051919092169283917f8be0079c531659141344cd1fd0a4f28419497f9722a3daafe3b4186f6b6457e09190a35050565b6000612883826040518060400160405280602081526020017f5361666545524332303a206c6f772d6c6576656c2063616c6c206661696c6564815250856001600160a01b03166129009092919063ffffffff16565b8051909150156127d957808060200190518101906128a19190612cce565b6127d95760405162461bcd60e51b815260206004820152602a60248201527f5361666545524332303a204552433230206f7065726174696f6e20646964206e6044820152691bdd081cdd58d8d9595960b21b606482015260840161076f565b606061290f8484600085612917565b949350505050565b6060824710156129785760405162461bcd60e51b815260206004820152602660248201527f416464726573733a20696e73756666696369656e742062616c616e636520666f6044820152651c8818d85b1b60d21b606482015260840161076f565b6001600160a01b0385163b6129cf5760405162461bcd60e51b815260206004820152601d60248201527f416464726573733a2063616c6c20746f206e6f6e2d636f6e7472616374000000604482015260640161076f565b600080866001600160a01b031685876040516129eb9190612db7565b60006040518083038185875af1925050503d8060008114612a28576040519150601f19603f3d011682016040523d82523d6000602084013e612a2d565b606091505b5091509150612a3d828286612a48565b979650505050505050565b60608315612a57575081610806565b825115612a675782518084602001fd5b8160405162461bcd60e51b815260040161076f9190612dd3565b600060208284031215612a9357600080fd5b5035919050565b6001600160a01b038116811461258557600080fd5b600060208284031215612ac157600080fd5b813561080681612a9a565b801515811461258557600080fd5b60008060408385031215612aed57600080fd5b823591506020830135612aff81612acc565b809150509250929050565b600080600060608486031215612b1f57600080fd5b833592506020840135612b3181612a9a565b91506040840135612b4181612a9a565b809150509250925092565b6020808252818101527f4f776e61626c653a2063616c6c6572206973206e6f7420746865206f776e6572604082015260600190565b6020808252601a908201527f466565206d7573742062652067726561746572207468616e2030000000000000604082015260600190565b60208082526019908201527f466565206d757374206265206c657373207468616e2031302500000000000000604082015260600190565b600060208284031215612c0157600080fd5b5051919050565b60208082526026908201527f496e73756666696369656e7420437275736820746f6b656e7320666f7220747260408201526530b739b332b960d11b606082015260800190565b634e487b7160e01b600052601160045260246000fd5b600082821015612c7657612c76612c4e565b500390565b60208082526033908201527f4f6e6c79204f6e6520576974686472617720616c6c6f77656420706572203320604082015272686f75727320647572696e6720667265657a6560681b606082015260800190565b600060208284031215612ce057600080fd5b815161080681612acc565b634e487b7160e01b600052603260045260246000fd5b634e487b7160e01b600052603160045260246000fd5b6000600019821415612d2b57612d2b612c4e565b5060010190565b6000816000190483118215151615612d4c57612d4c612c4e565b500290565b600082612d6e57634e487b7160e01b600052601260045260246000fd5b500490565b60008219821115612d8657612d86612c4e565b500190565b60005b83811015612da6578181015183820152602001612d8e565b838111156118675750506000910152565b60008251612dc9818460208701612d8b565b9190910192915050565b6020815260008251806020840152612df2816040850160208701612d8b565b601f01601f1916919091016040019291505056fea264697066735822122016fad45700e4e2e7141164aa7f88556eb99f0a943364762557b2b289ba5953a664736f6c634300080c0033",
  "bytecodeSha1": "928fbd27bf2116c5eeaf11e12b95c0374ee7c4d3",
  "compiler": {
    "evm_version": "istanbul",
    "optimizer": {
      "enabled": true,
      "runs": 200
    },
    "version": "0.8.12+commit.f00d7308"
  },
  "contractName": "BitcrushStaking",
  "language": "Solidity",
  "natspec": {
    "kind": "dev",
    "methods": {
      "addRewardToPool(uint256)": {
        "details": "adds the provided amount to `totalPool` state variable",
        "notice": "Adds the provided amount to the totalPool",
        "params": {
          "_amount": "the amount to add"
        }
      },
      "compoundAll()": {
        "details": "compounds the rewards of all users in the pool add adds it into their staked amount while deducting fees",
        "notice": "compounds the rewards of all users in the pool"
      },
      "emergencyWithdraw()": {
        "details": "transfer all available funds of users to users wallet",
        "notice": "emergency withdraw funds of users"
      },
      "enterStaking(uint256)": {
        "details": "stakes the provided amount",
        "notice": "Stake the provided amount",
        "params": {
          "_amount": "the amount to stake"
        }
      },
      "freezeStaking(uint256,address,address)": {
        "details": "adds the provided amount to the total frozen variablle",
        "notice": "freeze certain funds in the staking pool and transfer them to the live wallet address"
      },
      "indexesLength()": {
        "details": "returns the total stakers in the staking pool by reading length of addressIndexes array",
        "notice": "returns the total count of users in the staking pool."
      },
      "leaveStaking(uint256,bool)": {
        "details": "leaves staking and deducts total pool by the users reward. early withdrawal fee applied if withdraw is made before earlyWithdrawFeeTime",
        "notice": "Leaves staking for a user by the specified amount and transfering staked amount and reward to users address",
        "params": {
          "_amount": "the amount to unstake"
        }
      },
      "owner()": {
        "details": "Returns the address of the current owner."
      },
      "pendingProfits(address)": {
        "notice": "Get pending Profits to Claim",
        "params": {
          "_address": "the user's wallet address to calculate profits"
        },
        "returns": {
          "_0": "pending Profits to be claimed by this user"
        }
      },
      "pendingReward(address)": {
        "details": "calculates potential reward for the address provided based on crush per block",
        "notice": "Get pending rewards of a user for UI",
        "params": {
          "_address": "the address to calculate the reward for"
        }
      },
      "renounceOwnership()": {
        "details": "Leaves the contract without owner. It will not be possible to call `onlyOwner` functions anymore. Can only be called by the current owner. NOTE: Renouncing ownership will leave the contract without an owner, thereby removing any functionality that is only available to the owner."
      },
      "setAutoCompoundLimit(uint256)": {
        "details": "stores the limit in the state variable `autoCompoundLimit`",
        "notice": "Store `_limit`.",
        "params": {
          "_limit": "the new value to store"
        }
      },
      "setBankroll(address)": {
        "details": "stores the _bankroll address in the state variable `bankroll`",
        "notice": "Store `_bankroll`.",
        "params": {
          "_bankroll": "the new value to store"
        }
      },
      "setEarlyWithdrawFee(uint256)": {
        "details": "stores the fee in the state variable `earlyWithdrawFee`",
        "notice": "Store `_fee`.",
        "params": {
          "_fee": "the new value to store"
        }
      },
      "setEarlyWithdrawFeeTime(uint256)": {
        "details": "stores the time in the state variable `earlyWithdrawFeeTime`",
        "notice": "Store `_time`.",
        "params": {
          "_time": "the new value to store"
        }
      },
      "setLiveWallet(address)": {
        "details": "stores the _liveWallet address in the state variable `liveWallet`",
        "notice": "Store `_liveWallet`.",
        "params": {
          "_liveWallet": "the new value to store"
        }
      },
      "setPerformanceFeeBurn(uint256)": {
        "details": "stores the fee in the state variable `performanceFeeBurn`",
        "notice": "Store `_fee`.",
        "params": {
          "_fee": "the new value to store"
        }
      },
      "setPerformanceFeeCompounder(uint256)": {
        "details": "stores the fee in the state variable `performanceFeeCompounder`",
        "notice": "Store `_fee`.",
        "params": {
          "_fee": "the new value to store"
        }
      },
      "setPerformanceFeeReserve(uint256)": {
        "details": "stores the fee in the state variable `performanceFeeReserve`",
        "notice": "Store `_fee`.",
        "params": {
          "_fee": "the new value to store"
        }
      },
      "transferOwnership(address)": {
        "details": "Transfers ownership of the contract to a new account (`newOwner`). Can only be called by the current owner."
      },
      "unfreezeStaking(uint256)": {
        "details": "deducts the provided amount from the total frozen variablle",
        "notice": "unfreeze previously frozen funds from the staking pool"
      },
      "updateDistribution()": {
        "details": "accRewardPerShare is accumulative, meaning it always holds the total historic rewardPerShare making apyBaseline necessary to keep rewards fair",
        "notice": "updates accRewardPerShare based on the last block calculated and totalShares"
      },
      "updateProfits()": {
        "details": "this allows for consistent profit reporting and no change on profits to distribute",
        "notice": "updates accProfitPerShare based on current Profit available and totalShares"
      }
    },
    "version": 1
  },
  "opcodes": "PUSH1 0x80 PUSH1 0x40 MSTORE CALLVALUE DUP1 ISZERO PUSH2 0x10 JUMPI PUSH1 0x0 DUP1 REVERT JUMPDEST POP PUSH1 0x4 CALLDATASIZE LT PUSH2 0x383 JUMPI PUSH1 0x0 CALLDATALOAD PUSH1 0xE0 SHR DUP1 PUSH4 0x817B1CD2 GT PUSH2 0x1DE JUMPI DUP1 PUSH4 0xBDE8A93E GT PUSH2 0x10F JUMPI DUP1 PUSH4 0xE39FAAA4 GT PUSH2 0xAD JUMPI DUP1 PUSH4 0xF2FDE38B GT PUSH2 0x7C JUMPI DUP1 PUSH4 0xF2FDE38B EQ PUSH2 0x6FD JUMPI DUP1 PUSH4 0xF40F0F52 EQ PUSH2 0x710 JUMPI DUP1 PUSH4 0xF79ED94B EQ PUSH2 0x723 JUMPI DUP1 PUSH4 0xFA2B8A5D EQ PUSH2 0x736 JUMPI PUSH1 0x0 DUP1 REVERT JUMPDEST DUP1 PUSH4 0xE39FAAA4 EQ PUSH2 0x6C5 JUMPI DUP1 PUSH4 0xE3AEEB46 EQ PUSH2 0x6D8 JUMPI DUP1 PUSH4 0xECB1C924 EQ PUSH2 0x6EB JUMPI DUP1 PUSH4 0xECFB49A3 EQ PUSH2 0x6F4 JUMPI PUSH1 0x0 DUP1 REVERT JUMPDEST DUP1 PUSH4 0xC61F1C0B GT PUSH2 0xE9 JUMPI DUP1 PUSH4 0xC61F1C0B EQ PUSH2 0x60B JUMPI DUP1 PUSH4 0xD54AD2A1 EQ PUSH2 0x614 JUMPI DUP1 PUSH4 0xDB2E21BC EQ PUSH2 0x61D JUMPI DUP1 PUSH4 0xDC6E13E1 EQ PUSH2 0x625 JUMPI PUSH1 0x0 DUP1 REVERT JUMPDEST DUP1 PUSH4 0xBDE8A93E EQ PUSH2 0x5D2 JUMPI DUP1 PUSH4 0xC22982F4 EQ PUSH2 0x5E5 JUMPI DUP1 PUSH4 0xC53F871F EQ PUSH2 0x5F8 JUMPI PUSH1 0x0 DUP1 REVERT JUMPDEST DUP1 PUSH4 0xA80A7882 GT PUSH2 0x17C JUMPI DUP1 PUSH4 0xB249E88E GT PUSH2 0x156 JUMPI DUP1 PUSH4 0xB249E88E EQ PUSH2 0x590 JUMPI DUP1 PUSH4 0xB359A9F9 EQ PUSH2 0x599 JUMPI DUP1 PUSH4 0xBC063E1A EQ PUSH2 0x5C0 JUMPI DUP1 PUSH4 0xBCA5503D EQ PUSH2 0x5C9 JUMPI PUSH1 0x0 DUP1 REVERT JUMPDEST DUP1 PUSH4 0xA80A7882 EQ PUSH2 0x576 JUMPI DUP1 PUSH4 0xA9F8D181 EQ PUSH2 0x57F JUMPI DUP1 PUSH4 0xAA8BADC1 EQ PUSH2 0x588 JUMPI PUSH1 0x0 DUP1 REVERT JUMPDEST DUP1 PUSH4 0x939D6237 GT PUSH2 0x1B8 JUMPI DUP1 PUSH4 0x939D6237 EQ PUSH2 0x53F JUMPI DUP1 PUSH4 0x9B05DDB3 EQ PUSH2 0x548 JUMPI DUP1 PUSH4 0x9E13900C EQ PUSH2 0x550 JUMPI DUP1 PUSH4 0xA775573A EQ PUSH2 0x563 JUMPI PUSH1 0x0 DUP1 REVERT JUMPDEST DUP1 PUSH4 0x817B1CD2 EQ PUSH2 0x512 JUMPI DUP1 PUSH4 0x8DA5CB5B EQ PUSH2 0x51B JUMPI DUP1 PUSH4 0x8F44EBFC EQ PUSH2 0x52C JUMPI PUSH1 0x0 DUP1 REVERT JUMPDEST DUP1 PUSH4 0x49535EF5 GT PUSH2 0x2B8 JUMPI DUP1 PUSH4 0x668579C9 GT PUSH2 0x256 JUMPI DUP1 PUSH4 0x6E74D2E2 GT PUSH2 0x230 JUMPI DUP1 PUSH4 0x6E74D2E2 EQ PUSH2 0x4DB JUMPI DUP1 PUSH4 0x6F90E046 EQ PUSH2 0x4E4 JUMPI DUP1 PUSH4 0x715018A6 EQ PUSH2 0x4F7 JUMPI DUP1 PUSH4 0x76E9E6C0 EQ PUSH2 0x4FF JUMPI PUSH1 0x0 DUP1 REVERT JUMPDEST DUP1 PUSH4 0x668579C9 EQ PUSH2 0x4C0 JUMPI DUP1 PUSH4 0x6874D620 EQ PUSH2 0x4C9 JUMPI DUP1 PUSH4 0x6903D0B6 EQ PUSH2 0x4D2 JUMPI PUSH1 0x0 DUP1 REVERT JUMPDEST DUP1 PUSH4 0x51496BBD GT PUSH2 0x292 JUMPI DUP1 PUSH4 0x51496BBD EQ PUSH2 0x489 JUMPI DUP1 PUSH4 0x5832D571 EQ PUSH2 0x491 JUMPI DUP1 PUSH4 0x64A9C480 EQ PUSH2 0x4A4 JUMPI DUP1 PUSH4 0x6535FC66 EQ PUSH2 0x4AD JUMPI PUSH1 0x0 DUP1 REVERT JUMPDEST DUP1 PUSH4 0x49535EF5 EQ PUSH2 0x46E JUMPI DUP1 PUSH4 0x4B37F006 EQ PUSH2 0x477 JUMPI DUP1 PUSH4 0x4BF211B8 EQ PUSH2 0x480 JUMPI PUSH1 0x0 DUP1 REVERT JUMPDEST DUP1 PUSH4 0x2E0AE2F2 GT PUSH2 0x325 JUMPI DUP1 PUSH4 0x3A53ED49 GT PUSH2 0x2FF JUMPI DUP1 PUSH4 0x3A53ED49 EQ PUSH2 0x42C JUMPI DUP1 PUSH4 0x3A98EF39 EQ PUSH2 0x43F JUMPI DUP1 PUSH4 0x41441D3B EQ PUSH2 0x448 JUMPI DUP1 PUSH4 0x445E7688 EQ PUSH2 0x45B JUMPI PUSH1 0x0 DUP1 REVERT JUMPDEST DUP1 PUSH4 0x2E0AE2F2 EQ PUSH2 0x407 JUMPI DUP1 PUSH4 0x38ED019A EQ PUSH2 0x410 JUMPI DUP1 PUSH4 0x39CC1378 EQ PUSH2 0x419 JUMPI PUSH1 0x0 DUP1 REVERT JUMPDEST DUP1 PUSH4 0x1F2DC5EF GT PUSH2 0x361 JUMPI DUP1 PUSH4 0x1F2DC5EF EQ PUSH2 0x3D8 JUMPI DUP1 PUSH4 0x2533830A EQ PUSH2 0x3E1 JUMPI DUP1 PUSH4 0x26CBA336 EQ PUSH2 0x3EA JUMPI DUP1 PUSH4 0x289BAC07 EQ PUSH2 0x3FF JUMPI PUSH1 0x0 DUP1 REVERT JUMPDEST DUP1 PUSH4 0xA3960BC EQ PUSH2 0x388 JUMPI DUP1 PUSH4 0xC657EB0 EQ PUSH2 0x3A4 JUMPI DUP1 PUSH4 0x1E7F87BC EQ PUSH2 0x3CF JUMPI JUMPDEST PUSH1 0x0 DUP1 REVERT JUMPDEST PUSH2 0x391 PUSH1 0x5 SLOAD DUP2 JUMP JUMPDEST PUSH1 0x40 MLOAD SWAP1 DUP2 MSTORE PUSH1 0x20 ADD JUMPDEST PUSH1 0x40 MLOAD DUP1 SWAP2 SUB SWAP1 RETURN JUMPDEST PUSH1 0xB SLOAD PUSH2 0x3B7 SWAP1 PUSH1 0x1 PUSH1 0x1 PUSH1 0xA0 SHL SUB AND DUP2 JUMP JUMPDEST PUSH1 0x40 MLOAD PUSH1 0x1 PUSH1 0x1 PUSH1 0xA0 SHL SUB SWAP1 SWAP2 AND DUP2 MSTORE PUSH1 0x20 ADD PUSH2 0x39B JUMP JUMPDEST PUSH2 0x391 PUSH1 0x19 SLOAD DUP2 JUMP JUMPDEST PUSH2 0x391 PUSH2 0x2710 DUP2 JUMP JUMPDEST PUSH2 0x391 PUSH1 0x1B SLOAD DUP2 JUMP JUMPDEST PUSH2 0x3FD PUSH2 0x3F8 CALLDATASIZE PUSH1 0x4 PUSH2 0x2A81 JUMP JUMPDEST PUSH2 0x745 JUMP JUMPDEST STOP JUMPDEST PUSH1 0xF SLOAD PUSH2 0x391 JUMP JUMPDEST PUSH2 0x391 PUSH1 0x4 SLOAD DUP2 JUMP JUMPDEST PUSH2 0x391 PUSH1 0x11 SLOAD DUP2 JUMP JUMPDEST PUSH2 0x391 PUSH2 0x427 CALLDATASIZE PUSH1 0x4 PUSH2 0x2AAF JUMP JUMPDEST PUSH2 0x7BE JUMP JUMPDEST PUSH2 0x3FD PUSH2 0x43A CALLDATASIZE PUSH1 0x4 PUSH2 0x2A81 JUMP JUMPDEST PUSH2 0x80D JUMP JUMPDEST PUSH2 0x391 PUSH1 0xA SLOAD DUP2 JUMP JUMPDEST PUSH2 0x3FD PUSH2 0x456 CALLDATASIZE PUSH1 0x4 PUSH2 0x2A81 JUMP JUMPDEST PUSH2 0x929 JUMP JUMPDEST PUSH2 0x3FD PUSH2 0x469 CALLDATASIZE PUSH1 0x4 PUSH2 0x2ADA JUMP JUMPDEST PUSH2 0xC9D JUMP JUMPDEST PUSH2 0x391 PUSH1 0x9 SLOAD DUP2 JUMP JUMPDEST PUSH2 0x391 PUSH1 0x7 SLOAD DUP2 JUMP JUMPDEST PUSH2 0x391 PUSH1 0x10 SLOAD DUP2 JUMP JUMPDEST PUSH2 0x3FD PUSH2 0x13E4 JUMP JUMPDEST PUSH2 0x3B7 PUSH2 0x49F CALLDATASIZE PUSH1 0x4 PUSH2 0x2A81 JUMP JUMPDEST PUSH2 0x14A6 JUMP JUMPDEST PUSH2 0x391 PUSH1 0x1A SLOAD DUP2 JUMP JUMPDEST PUSH2 0x3FD PUSH2 0x4BB CALLDATASIZE PUSH1 0x4 PUSH2 0x2A81 JUMP JUMPDEST PUSH2 0x14D0 JUMP JUMPDEST PUSH2 0x391 PUSH1 0x1D SLOAD DUP2 JUMP JUMPDEST PUSH2 0x391 PUSH1 0x6 SLOAD DUP2 JUMP JUMPDEST PUSH2 0x391 PUSH1 0x8 SLOAD DUP2 JUMP JUMPDEST PUSH2 0x391 PUSH1 0x2 SLOAD DUP2 JUMP JUMPDEST PUSH2 0x3FD PUSH2 0x4F2 CALLDATASIZE PUSH1 0x4 PUSH2 0x2A81 JUMP JUMPDEST PUSH2 0x1541 JUMP JUMPDEST PUSH2 0x3FD PUSH2 0x15C0 JUMP JUMPDEST PUSH2 0x3FD PUSH2 0x50D CALLDATASIZE PUSH1 0x4 PUSH2 0x2A81 JUMP JUMPDEST PUSH2 0x15F6 JUMP JUMPDEST PUSH2 0x391 PUSH1 0x17 SLOAD DUP2 JUMP JUMPDEST PUSH1 0x0 SLOAD PUSH1 0x1 PUSH1 0x1 PUSH1 0xA0 SHL SUB AND PUSH2 0x3B7 JUMP JUMPDEST PUSH2 0x3FD PUSH2 0x53A CALLDATASIZE PUSH1 0x4 PUSH2 0x2B0A JUMP JUMPDEST PUSH2 0x16CE JUMP JUMPDEST PUSH2 0x391 PUSH1 0x13 SLOAD DUP2 JUMP JUMPDEST PUSH2 0x3FD PUSH2 0x186D JUMP JUMPDEST PUSH2 0x3FD PUSH2 0x55E CALLDATASIZE PUSH1 0x4 PUSH2 0x2AAF JUMP JUMPDEST PUSH2 0x1CBD JUMP JUMPDEST PUSH2 0x3FD PUSH2 0x571 CALLDATASIZE PUSH1 0x4 PUSH2 0x2A81 JUMP JUMPDEST PUSH2 0x1D62 JUMP JUMPDEST PUSH2 0x391 PUSH1 0x3 SLOAD DUP2 JUMP JUMPDEST PUSH2 0x391 PUSH1 0x14 SLOAD DUP2 JUMP JUMPDEST PUSH2 0x3FD PUSH2 0x1DF9 JUMP JUMPDEST PUSH2 0x391 PUSH1 0x15 SLOAD DUP2 JUMP JUMPDEST PUSH2 0x3B7 PUSH32 0x0 DUP2 JUMP JUMPDEST PUSH2 0x391 PUSH2 0x3E8 DUP2 JUMP JUMPDEST PUSH2 0x391 PUSH1 0x1 SLOAD DUP2 JUMP JUMPDEST PUSH2 0x3FD PUSH2 0x5E0 CALLDATASIZE PUSH1 0x4 PUSH2 0x2AAF JUMP JUMPDEST PUSH2 0x1EB0 JUMP JUMPDEST PUSH2 0x3FD PUSH2 0x5F3 CALLDATASIZE PUSH1 0x4 PUSH2 0x2A81 JUMP JUMPDEST PUSH2 0x1F55 JUMP JUMPDEST PUSH2 0x3FD PUSH2 0x606 CALLDATASIZE PUSH1 0x4 PUSH2 0x2A81 JUMP JUMPDEST PUSH2 0x1FC5 JUMP JUMPDEST PUSH2 0x391 PUSH1 0x12 SLOAD DUP2 JUMP JUMPDEST PUSH2 0x391 PUSH1 0x18 SLOAD DUP2 JUMP JUMPDEST PUSH2 0x3FD PUSH2 0x2035 JUMP JUMPDEST PUSH2 0x681 PUSH2 0x633 CALLDATASIZE PUSH1 0x4 PUSH2 0x2AAF JUMP JUMPDEST PUSH1 0xE PUSH1 0x20 MSTORE DUP1 PUSH1 0x0 MSTORE PUSH1 0x40 PUSH1 0x0 KECCAK256 PUSH1 0x0 SWAP2 POP SWAP1 POP DUP1 PUSH1 0x0 ADD SLOAD SWAP1 DUP1 PUSH1 0x1 ADD SLOAD SWAP1 DUP1 PUSH1 0x2 ADD SLOAD SWAP1 DUP1 PUSH1 0x3 ADD SLOAD SWAP1 DUP1 PUSH1 0x4 ADD SLOAD SWAP1 DUP1 PUSH1 0x5 ADD SLOAD SWAP1 DUP1 PUSH1 0x6 ADD SLOAD SWAP1 DUP1 PUSH1 0x7 ADD SLOAD SWAP1 DUP1 PUSH1 0x8 ADD SLOAD SWAP1 POP DUP10 JUMP JUMPDEST PUSH1 0x40 DUP1 MLOAD SWAP10 DUP11 MSTORE PUSH1 0x20 DUP11 ADD SWAP9 SWAP1 SWAP9 MSTORE SWAP7 DUP9 ADD SWAP6 SWAP1 SWAP6 MSTORE PUSH1 0x60 DUP8 ADD SWAP4 SWAP1 SWAP4 MSTORE PUSH1 0x80 DUP7 ADD SWAP2 SWAP1 SWAP2 MSTORE PUSH1 0xA0 DUP6 ADD MSTORE PUSH1 0xC0 DUP5 ADD MSTORE PUSH1 0xE0 DUP4 ADD MSTORE PUSH2 0x100 DUP3 ADD MSTORE PUSH2 0x120 ADD PUSH2 0x39B JUMP JUMPDEST PUSH2 0x3FD PUSH2 0x6D3 CALLDATASIZE PUSH1 0x4 PUSH2 0x2A81 JUMP JUMPDEST PUSH2 0x2493 JUMP JUMPDEST PUSH1 0xC SLOAD PUSH2 0x3B7 SWAP1 PUSH1 0x1 PUSH1 0x1 PUSH1 0xA0 SHL SUB AND DUP2 JUMP JUMPDEST PUSH2 0x391 PUSH1 0x1C SLOAD DUP2 JUMP JUMPDEST PUSH2 0x391 PUSH1 0x16 SLOAD DUP2 JUMP JUMPDEST PUSH2 0x3FD PUSH2 0x70B CALLDATASIZE PUSH1 0x4 PUSH2 0x2AAF JUMP JUMPDEST PUSH2 0x2588 JUMP JUMPDEST PUSH2 0x391 PUSH2 0x71E CALLDATASIZE PUSH1 0x4 PUSH2 0x2AAF JUMP JUMPDEST PUSH2 0x2620 JUMP JUMPDEST PUSH1 0xD SLOAD PUSH2 0x3B7 SWAP1 PUSH1 0x1 PUSH1 0x1 PUSH1 0xA0 SHL SUB AND DUP2 JUMP JUMPDEST PUSH2 0x391 PUSH8 0x8AC7230489E80000 DUP2 JUMP JUMPDEST PUSH1 0x0 SLOAD PUSH1 0x1 PUSH1 0x1 PUSH1 0xA0 SHL SUB AND CALLER EQ PUSH2 0x778 JUMPI PUSH1 0x40 MLOAD PUSH3 0x461BCD PUSH1 0xE5 SHL DUP2 MSTORE PUSH1 0x4 ADD PUSH2 0x76F SWAP1 PUSH2 0x2B4C JUMP JUMPDEST PUSH1 0x40 MLOAD DUP1 SWAP2 SUB SWAP1 REVERT JUMPDEST PUSH1 0x0 DUP2 GT PUSH2 0x798 JUMPI PUSH1 0x40 MLOAD PUSH3 0x461BCD PUSH1 0xE5 SHL DUP2 MSTORE PUSH1 0x4 ADD PUSH2 0x76F SWAP1 PUSH2 0x2B81 JUMP JUMPDEST PUSH2 0x3E8 DUP2 LT PUSH2 0x7B9 JUMPI PUSH1 0x40 MLOAD PUSH3 0x461BCD PUSH1 0xE5 SHL DUP2 MSTORE PUSH1 0x4 ADD PUSH2 0x76F SWAP1 PUSH2 0x2BB8 JUMP JUMPDEST PUSH1 0x1 SSTORE JUMP JUMPDEST PUSH1 0x1 PUSH1 0x1 PUSH1 0xA0 SHL SUB DUP2 AND PUSH1 0x0 SWAP1 DUP2 MSTORE PUSH1 0xE PUSH1 0x20 MSTORE PUSH1 0x40 DUP2 KECCAK256 PUSH1 0x8 DUP2 ADD SLOAD PUSH1 0x15 SLOAD DUP3 SLOAD PUSH2 0x806 SWAP3 SWAP2 PUSH2 0x800 SWAP2 PUSH5 0xE8D4A51000 SWAP2 PUSH2 0x7FA SWAP2 SWAP1 PUSH2 0x270E JUMP JUMPDEST SWAP1 PUSH2 0x271A JUMP JUMPDEST SWAP1 PUSH2 0x2726 JUMP JUMPDEST SWAP4 SWAP3 POP POP POP JUMP JUMPDEST PUSH1 0x40 MLOAD PUSH4 0x70A08231 PUSH1 0xE0 SHL DUP2 MSTORE CALLER PUSH1 0x4 DUP3 ADD MSTORE DUP2 SWAP1 PUSH32 0x0 PUSH1 0x1 PUSH1 0x1 PUSH1 0xA0 SHL SUB AND SWAP1 PUSH4 0x70A08231 SWAP1 PUSH1 0x24 ADD PUSH1 0x20 PUSH1 0x40 MLOAD DUP1 DUP4 SUB DUP2 DUP7 GAS STATICCALL ISZERO DUP1 ISZERO PUSH2 0x873 JUMPI RETURNDATASIZE PUSH1 0x0 DUP1 RETURNDATACOPY RETURNDATASIZE PUSH1 0x0 REVERT JUMPDEST POP POP POP POP PUSH1 0x40 MLOAD RETURNDATASIZE PUSH1 0x1F NOT PUSH1 0x1F DUP3 ADD AND DUP3 ADD DUP1 PUSH1 0x40 MSTORE POP DUP2 ADD SWAP1 PUSH2 0x897 SWAP2 SWAP1 PUSH2 0x2BEF JUMP JUMPDEST LT ISZERO PUSH2 0x8B5 JUMPI PUSH1 0x40 MLOAD PUSH3 0x461BCD PUSH1 0xE5 SHL DUP2 MSTORE PUSH1 0x4 ADD PUSH2 0x76F SWAP1 PUSH2 0x2C08 JUMP JUMPDEST PUSH1 0x16 SLOAD PUSH2 0x8C2 SWAP1 DUP3 PUSH2 0x2732 JUMP JUMPDEST PUSH1 0x16 SSTORE PUSH2 0x8FA PUSH1 0x1 PUSH1 0x1 PUSH1 0xA0 SHL SUB PUSH32 0x0 AND CALLER ADDRESS DUP5 PUSH2 0x273E JUMP JUMPDEST PUSH1 0x16 SLOAD PUSH1 0x40 MLOAD PUSH32 0x1EF37AB665F7C977B577275D7A49E72CD18D1143ECCD1112F1198E4A39D1428C SWAP1 PUSH1 0x0 SWAP1 LOG2 POP JUMP JUMPDEST PUSH1 0x40 MLOAD PUSH4 0x70A08231 PUSH1 0xE0 SHL DUP2 MSTORE CALLER PUSH1 0x4 DUP3 ADD MSTORE DUP2 SWAP1 PUSH32 0x0 PUSH1 0x1 PUSH1 0x1 PUSH1 0xA0 SHL SUB AND SWAP1 PUSH4 0x70A08231 SWAP1 PUSH1 0x24 ADD PUSH1 0x20 PUSH1 0x40 MLOAD DUP1 DUP4 SUB DUP2 DUP7 GAS STATICCALL ISZERO DUP1 ISZERO PUSH2 0x98F JUMPI RETURNDATASIZE PUSH1 0x0 DUP1 RETURNDATACOPY RETURNDATASIZE PUSH1 0x0 REVERT JUMPDEST POP POP POP POP PUSH1 0x40 MLOAD RETURNDATASIZE PUSH1 0x1F NOT PUSH1 0x1F DUP3 ADD AND DUP3 ADD DUP1 PUSH1 0x40 MSTORE POP DUP2 ADD SWAP1 PUSH2 0x9B3 SWAP2 SWAP1 PUSH2 0x2BEF JUMP JUMPDEST LT ISZERO PUSH2 0x9D1 JUMPI PUSH1 0x40 MLOAD PUSH3 0x461BCD PUSH1 0xE5 SHL DUP2 MSTORE PUSH1 0x4 ADD PUSH2 0x76F SWAP1 PUSH2 0x2C08 JUMP JUMPDEST PUSH1 0x0 DUP2 GT PUSH2 0xA1A JUMPI PUSH1 0x40 MLOAD PUSH3 0x461BCD PUSH1 0xE5 SHL DUP2 MSTORE PUSH1 0x20 PUSH1 0x4 DUP3 ADD MSTORE PUSH1 0x16 PUSH1 0x24 DUP3 ADD MSTORE PUSH22 0x125B9D985B1A59081CDD185ADA5B99C8185B5BDD5B9D PUSH1 0x52 SHL PUSH1 0x44 DUP3 ADD MSTORE PUSH1 0x64 ADD PUSH2 0x76F JUMP JUMPDEST PUSH2 0xA22 PUSH2 0x1DF9 JUMP JUMPDEST PUSH2 0xA2A PUSH2 0x13E4 JUMP JUMPDEST PUSH2 0xA5F PUSH1 0x1 PUSH1 0x1 PUSH1 0xA0 SHL SUB PUSH32 0x0 AND CALLER ADDRESS DUP5 PUSH2 0x273E JUMP JUMPDEST PUSH1 0x17 SLOAD PUSH2 0xA6B JUMPI NUMBER PUSH1 0x10 SSTORE JUMPDEST CALLER PUSH1 0x0 SWAP1 DUP2 MSTORE PUSH1 0xE PUSH1 0x20 MSTORE PUSH1 0x40 SWAP1 KECCAK256 PUSH1 0x1 DUP2 ADD SLOAD PUSH2 0xAE3 JUMPI NUMBER PUSH1 0x3 DUP3 ADD SSTORE PUSH1 0xF DUP1 SLOAD PUSH1 0x1 DUP2 DUP2 ADD DUP4 SSTORE PUSH1 0x0 DUP4 SWAP1 MSTORE PUSH32 0x8D1108E10BCB7C27DDDFC02ED9D693A074039D026CF4EA4240B40F7D581AC802 SWAP1 SWAP2 ADD DUP1 SLOAD PUSH1 0x1 PUSH1 0x1 PUSH1 0xA0 SHL SUB NOT AND CALLER OR SWAP1 SSTORE SWAP1 SLOAD PUSH2 0xAD9 SWAP2 SWAP1 PUSH2 0x2C64 JUMP JUMPDEST PUSH1 0x5 DUP3 ADD SSTORE PUSH2 0xBD7 JUMP JUMPDEST PUSH1 0x0 PUSH2 0xB0F DUP3 PUSH1 0x7 ADD SLOAD PUSH2 0x800 PUSH5 0xE8D4A51000 PUSH2 0x7FA PUSH1 0x13 SLOAD DUP8 PUSH1 0x0 ADD SLOAD PUSH2 0x270E SWAP1 SWAP2 SWAP1 PUSH4 0xFFFFFFFF AND JUMP JUMPDEST SWAP1 POP PUSH1 0x16 SLOAD DUP2 GT ISZERO PUSH2 0xB20 JUMPI POP PUSH1 0x16 SLOAD JUMPDEST PUSH1 0x16 SLOAD PUSH2 0xB2D SWAP1 DUP3 PUSH2 0x2726 JUMP JUMPDEST PUSH1 0x16 SSTORE PUSH1 0x8 DUP3 ADD SLOAD PUSH1 0x15 SLOAD DUP4 SLOAD PUSH1 0x0 SWAP3 PUSH2 0xB57 SWAP3 SWAP1 SWAP2 PUSH2 0x800 SWAP2 PUSH5 0xE8D4A51000 SWAP2 PUSH2 0x7FA SWAP2 PUSH2 0x270E JUMP JUMPDEST SWAP1 POP PUSH2 0xB63 DUP3 DUP3 PUSH2 0x2732 JUMP JUMPDEST SWAP2 POP DUP2 ISZERO PUSH2 0xBD4 JUMPI PUSH2 0xB9F PUSH1 0x1 PUSH1 0x1 PUSH1 0xA0 SHL SUB PUSH32 0x0 AND CALLER DUP5 PUSH2 0x27A9 JUMP JUMPDEST PUSH1 0x2 DUP4 ADD SLOAD PUSH2 0xBAE SWAP1 DUP4 PUSH2 0x2732 JUMP JUMPDEST PUSH1 0x2 DUP5 ADD SSTORE PUSH1 0x18 SLOAD PUSH2 0xBC0 SWAP1 DUP4 PUSH2 0x2732 JUMP JUMPDEST PUSH1 0x18 SSTORE PUSH1 0x1A SLOAD PUSH2 0xBD0 SWAP1 DUP3 PUSH2 0x2732 JUMP JUMPDEST PUSH1 0x1A SSTORE JUMPDEST POP POP JUMPDEST PUSH1 0x0 PUSH1 0xA SLOAD PUSH1 0x0 EQ PUSH2 0xC05 JUMPI PUSH2 0xBFE PUSH1 0x17 SLOAD PUSH2 0x7FA PUSH1 0xA SLOAD DUP7 PUSH2 0x270E SWAP1 SWAP2 SWAP1 PUSH4 0xFFFFFFFF AND JUMP JUMPDEST SWAP1 POP PUSH2 0xC08 JUMP JUMPDEST POP DUP2 JUMPDEST PUSH1 0x17 SLOAD PUSH2 0xC15 SWAP1 DUP5 PUSH2 0x2732 JUMP JUMPDEST PUSH1 0x17 SSTORE PUSH1 0xA SLOAD PUSH2 0xC25 SWAP1 DUP3 PUSH2 0x2732 JUMP JUMPDEST PUSH1 0xA SSTORE DUP2 SLOAD PUSH2 0xC35 JUMPI NUMBER PUSH1 0x3 DUP4 ADD SSTORE JUMPDEST DUP2 SLOAD PUSH2 0xC41 SWAP1 DUP3 PUSH2 0x2732 JUMP JUMPDEST DUP1 DUP4 SSTORE PUSH1 0x15 SLOAD PUSH2 0xC5B SWAP2 PUSH5 0xE8D4A51000 SWAP2 PUSH2 0x7FA SWAP2 PUSH2 0x270E JUMP JUMPDEST PUSH1 0x8 DUP4 ADD SSTORE DUP2 SLOAD PUSH1 0x13 SLOAD PUSH2 0xC79 SWAP2 PUSH5 0xE8D4A51000 SWAP2 PUSH2 0x7FA SWAP2 PUSH2 0x270E JUMP JUMPDEST PUSH1 0x7 DUP4 ADD SSTORE PUSH1 0x1 DUP3 ADD SLOAD PUSH2 0xC8D SWAP1 DUP5 PUSH2 0x2732 JUMP JUMPDEST PUSH1 0x1 DUP4 ADD SSTORE POP NUMBER PUSH1 0x4 SWAP1 SWAP2 ADD SSTORE POP JUMP JUMPDEST PUSH2 0xCA5 PUSH2 0x1DF9 JUMP JUMPDEST PUSH2 0xCAD PUSH2 0x13E4 JUMP JUMPDEST CALLER PUSH1 0x0 SWAP1 DUP2 MSTORE PUSH1 0xE PUSH1 0x20 MSTORE PUSH1 0x40 DUP2 KECCAK256 PUSH1 0x7 DUP2 ADD SLOAD PUSH1 0x13 SLOAD DUP3 SLOAD SWAP3 SWAP4 SWAP3 PUSH2 0xCE3 SWAP3 SWAP2 PUSH2 0x800 SWAP2 PUSH5 0xE8D4A51000 SWAP2 PUSH2 0x7FA SWAP2 SWAP1 PUSH2 0x270E JUMP JUMPDEST SWAP1 POP PUSH1 0x0 PUSH2 0xD11 DUP4 PUSH1 0x8 ADD SLOAD PUSH2 0x800 PUSH5 0xE8D4A51000 PUSH2 0x7FA PUSH1 0x15 SLOAD DUP9 PUSH1 0x0 ADD SLOAD PUSH2 0x270E SWAP1 SWAP2 SWAP1 PUSH4 0xFFFFFFFF AND JUMP JUMPDEST SWAP1 POP PUSH1 0x16 SLOAD DUP3 GT ISZERO PUSH2 0xD23 JUMPI PUSH1 0x16 SLOAD SWAP2 POP JUMPDEST PUSH1 0x16 SLOAD PUSH2 0xD30 SWAP1 DUP4 PUSH2 0x2726 JUMP JUMPDEST PUSH1 0x16 SSTORE PUSH2 0xD3D DUP3 DUP3 PUSH2 0x2732 JUMP JUMPDEST PUSH1 0x1A SLOAD SWAP1 SWAP3 POP PUSH2 0xD4D SWAP1 DUP3 PUSH2 0x2732 JUMP JUMPDEST PUSH1 0x1A SSTORE NUMBER PUSH1 0x3 DUP5 ADD SSTORE PUSH1 0x1 DUP4 ADD SLOAD PUSH1 0x19 SLOAD ISZERO PUSH2 0xE02 JUMPI PUSH2 0xD8C PUSH2 0xD85 PUSH1 0x17 SLOAD PUSH2 0x7FA DUP8 PUSH1 0x1 ADD SLOAD PUSH1 0x19 SLOAD PUSH2 0x270E SWAP1 SWAP2 SWAP1 PUSH4 0xFFFFFFFF AND JUMP JUMPDEST DUP3 SWAP1 PUSH2 0x2726 JUMP JUMPDEST SWAP1 POP DUP6 DUP2 LT ISZERO PUSH2 0xDFD JUMPI PUSH1 0x40 MLOAD PUSH3 0x461BCD PUSH1 0xE5 SHL DUP2 MSTORE PUSH1 0x20 PUSH1 0x4 DUP3 ADD MSTORE PUSH1 0x36 PUSH1 0x24 DUP3 ADD MSTORE PUSH32 0x46726F7A656E2046756E64733A2043616E2774207769746864726177206D6F72 PUSH1 0x44 DUP3 ADD MSTORE PUSH22 0x65207468616E20417661696C61626C652066756E6473 PUSH1 0x50 SHL PUSH1 0x64 DUP3 ADD MSTORE PUSH1 0x84 ADD PUSH2 0x76F JUMP JUMPDEST PUSH2 0xE14 JUMP JUMPDEST PUSH1 0x6 DUP5 ADD SLOAD ISZERO PUSH2 0xE14 JUMPI PUSH1 0x0 PUSH1 0x6 DUP6 ADD SSTORE JUMPDEST DUP6 DUP2 LT ISZERO PUSH2 0xE8A JUMPI PUSH1 0x40 MLOAD PUSH3 0x461BCD PUSH1 0xE5 SHL DUP2 MSTORE PUSH1 0x20 PUSH1 0x4 DUP3 ADD MSTORE PUSH1 0x3F PUSH1 0x24 DUP3 ADD MSTORE PUSH32 0x576974686472617720616D6F756E742063616E206E6F74206265206772656174 PUSH1 0x44 DUP3 ADD MSTORE PUSH32 0x6572207468616E20617661696C61626C65207374616B656420616D6F756E7400 PUSH1 0x64 DUP3 ADD MSTORE PUSH1 0x84 ADD PUSH2 0x76F JUMP JUMPDEST PUSH1 0x17 SLOAD PUSH2 0xE97 SWAP1 DUP8 PUSH2 0x2726 JUMP JUMPDEST PUSH1 0x17 SSTORE PUSH1 0x1 DUP5 ADD SLOAD DUP5 SLOAD PUSH1 0x0 SWAP2 PUSH2 0xEB3 SWAP2 PUSH2 0x7FA SWAP1 DUP11 SWAP1 PUSH2 0x270E JUMP JUMPDEST PUSH1 0x1 DUP7 ADD SLOAD SWAP1 SWAP2 POP PUSH2 0xEC5 SWAP1 DUP9 PUSH2 0x2726 JUMP JUMPDEST PUSH1 0x1 DUP7 ADD SSTORE DUP5 SLOAD PUSH2 0xED6 SWAP1 DUP3 PUSH2 0x2726 JUMP JUMPDEST DUP6 SSTORE PUSH1 0xA SLOAD PUSH2 0xEE5 SWAP1 DUP3 PUSH2 0x2726 JUMP JUMPDEST PUSH1 0xA SSTORE PUSH1 0x13 SLOAD DUP6 SLOAD PUSH2 0xF01 SWAP2 PUSH5 0xE8D4A51000 SWAP2 PUSH2 0x7FA SWAP2 PUSH2 0x270E JUMP JUMPDEST PUSH1 0x7 DUP7 ADD SSTORE PUSH1 0x15 SLOAD DUP6 SLOAD PUSH2 0xF1F SWAP2 PUSH5 0xE8D4A51000 SWAP2 PUSH2 0x7FA SWAP2 PUSH2 0x270E JUMP JUMPDEST PUSH1 0x8 DUP7 ADD SSTORE PUSH2 0xF2E DUP8 DUP6 PUSH2 0x2732 JUMP JUMPDEST PUSH1 0x19 SLOAD SWAP1 SWAP8 POP ISZERO PUSH2 0x10DE JUMPI PUSH1 0x6 DUP6 ADD SLOAD ISZERO PUSH2 0xF72 JUMPI PUSH1 0x6 DUP1 SLOAD SWAP1 DUP7 ADD SLOAD PUSH2 0xF54 SWAP2 PUSH2 0x2732 JUMP JUMPDEST TIMESTAMP GT PUSH2 0xF72 JUMPI PUSH1 0x40 MLOAD PUSH3 0x461BCD PUSH1 0xE5 SHL DUP2 MSTORE PUSH1 0x4 ADD PUSH2 0x76F SWAP1 PUSH2 0x2C7B JUMP JUMPDEST PUSH1 0x0 PUSH2 0xF8F PUSH2 0x2710 PUSH2 0x7FA PUSH1 0x4 SLOAD DUP12 PUSH2 0x270E SWAP1 SWAP2 SWAP1 PUSH4 0xFFFFFFFF AND JUMP JUMPDEST TIMESTAMP PUSH1 0x6 DUP9 ADD SSTORE SWAP1 POP PUSH2 0xFA1 DUP9 DUP3 PUSH2 0x2726 JUMP JUMPDEST SWAP8 POP PUSH1 0x19 SLOAD DUP2 GT ISZERO PUSH2 0x1069 JUMPI PUSH1 0x0 PUSH2 0xFC4 PUSH1 0x19 SLOAD DUP4 PUSH2 0x2726 SWAP1 SWAP2 SWAP1 PUSH4 0xFFFFFFFF AND JUMP JUMPDEST PUSH1 0xB SLOAD PUSH1 0x40 MLOAD PUSH4 0x95EA7B3 PUSH1 0xE0 SHL DUP2 MSTORE PUSH1 0x1 PUSH1 0x1 PUSH1 0xA0 SHL SUB SWAP2 DUP3 AND PUSH1 0x4 DUP3 ADD MSTORE PUSH1 0x24 DUP2 ADD DUP4 SWAP1 MSTORE SWAP2 SWAP3 POP PUSH32 0x0 AND SWAP1 PUSH4 0x95EA7B3 SWAP1 PUSH1 0x44 ADD PUSH1 0x20 PUSH1 0x40 MLOAD DUP1 DUP4 SUB DUP2 PUSH1 0x0 DUP8 GAS CALL ISZERO DUP1 ISZERO PUSH2 0x1039 JUMPI RETURNDATASIZE PUSH1 0x0 DUP1 RETURNDATACOPY RETURNDATASIZE PUSH1 0x0 REVERT JUMPDEST POP POP POP POP PUSH1 0x40 MLOAD RETURNDATASIZE PUSH1 0x1F NOT PUSH1 0x1F DUP3 ADD AND DUP3 ADD DUP1 PUSH1 0x40 MSTORE POP DUP2 ADD SWAP1 PUSH2 0x105D SWAP2 SWAP1 PUSH2 0x2CCE JUMP JUMPDEST POP POP PUSH1 0x0 PUSH1 0x19 SSTORE PUSH2 0x107A JUMP JUMPDEST PUSH1 0x19 SLOAD PUSH2 0x1076 SWAP1 DUP3 PUSH2 0x2726 JUMP JUMPDEST PUSH1 0x19 SSTORE JUMPDEST PUSH1 0xB SLOAD PUSH1 0x40 MLOAD PUSH4 0x16714FF5 PUSH1 0xE2 SHL DUP2 MSTORE PUSH1 0x4 DUP2 ADD DUP4 SWAP1 MSTORE PUSH1 0x1 PUSH1 0x1 PUSH1 0xA0 SHL SUB SWAP1 SWAP2 AND SWAP1 PUSH4 0x59C53FD4 SWAP1 PUSH1 0x24 ADD PUSH1 0x0 PUSH1 0x40 MLOAD DUP1 DUP4 SUB DUP2 PUSH1 0x0 DUP8 DUP1 EXTCODESIZE ISZERO DUP1 ISZERO PUSH2 0x10C0 JUMPI PUSH1 0x0 DUP1 REVERT JUMPDEST POP GAS CALL ISZERO DUP1 ISZERO PUSH2 0x10D4 JUMPI RETURNDATASIZE PUSH1 0x0 DUP1 RETURNDATACOPY RETURNDATASIZE PUSH1 0x0 REVERT JUMPDEST POP POP POP POP POP PUSH2 0x115E JUMP JUMPDEST PUSH1 0x8 SLOAD PUSH1 0x4 DUP7 ADD SLOAD PUSH2 0x10EF SWAP2 PUSH2 0x2732 JUMP JUMPDEST NUMBER LT ISZERO PUSH2 0x115E JUMPI PUSH1 0x0 PUSH2 0x1113 PUSH2 0x2710 PUSH2 0x7FA PUSH1 0x3 SLOAD DUP12 PUSH2 0x270E SWAP1 SWAP2 SWAP1 PUSH4 0xFFFFFFFF AND JUMP JUMPDEST SWAP1 POP PUSH2 0x111F DUP9 DUP3 PUSH2 0x2726 JUMP JUMPDEST PUSH1 0xD SLOAD SWAP1 SWAP9 POP PUSH2 0x115C SWAP1 PUSH1 0x1 PUSH1 0x1 PUSH1 0xA0 SHL SUB PUSH32 0x0 DUP2 AND SWAP2 AND DUP4 PUSH2 0x27A9 JUMP JUMPDEST POP JUMPDEST DUP6 PUSH2 0x119C JUMPI PUSH2 0x1197 PUSH1 0x1 PUSH1 0x1 PUSH1 0xA0 SHL SUB PUSH32 0x0 AND CALLER DUP10 PUSH2 0x27A9 JUMP JUMPDEST PUSH2 0x129A JUMP JUMPDEST PUSH1 0xC SLOAD PUSH1 0x40 MLOAD PUSH4 0x95EA7B3 PUSH1 0xE0 SHL DUP2 MSTORE PUSH1 0x1 PUSH1 0x1 PUSH1 0xA0 SHL SUB SWAP2 DUP3 AND PUSH1 0x4 DUP3 ADD MSTORE PUSH1 0x24 DUP2 ADD DUP10 SWAP1 MSTORE PUSH32 0x0 SWAP1 SWAP2 AND SWAP1 PUSH4 0x95EA7B3 SWAP1 PUSH1 0x44 ADD PUSH1 0x20 PUSH1 0x40 MLOAD DUP1 DUP4 SUB DUP2 PUSH1 0x0 DUP8 GAS CALL ISZERO DUP1 ISZERO PUSH2 0x1210 JUMPI RETURNDATASIZE PUSH1 0x0 DUP1 RETURNDATACOPY RETURNDATASIZE PUSH1 0x0 REVERT JUMPDEST POP POP POP POP PUSH1 0x40 MLOAD RETURNDATASIZE PUSH1 0x1F NOT PUSH1 0x1F DUP3 ADD AND DUP3 ADD DUP1 PUSH1 0x40 MSTORE POP DUP2 ADD SWAP1 PUSH2 0x1234 SWAP2 SWAP1 PUSH2 0x2CCE JUMP JUMPDEST POP PUSH1 0xC SLOAD PUSH1 0x40 MLOAD PUSH4 0x7EFD3813 PUSH1 0xE0 SHL DUP2 MSTORE PUSH1 0x4 DUP2 ADD DUP10 SWAP1 MSTORE CALLER PUSH1 0x24 DUP3 ADD MSTORE PUSH1 0x1 PUSH1 0x1 PUSH1 0xA0 SHL SUB SWAP1 SWAP2 AND SWAP1 PUSH4 0x7EFD3813 SWAP1 PUSH1 0x44 ADD PUSH1 0x0 PUSH1 0x40 MLOAD DUP1 DUP4 SUB DUP2 PUSH1 0x0 DUP8 DUP1 EXTCODESIZE ISZERO DUP1 ISZERO PUSH2 0x1281 JUMPI PUSH1 0x0 DUP1 REVERT JUMPDEST POP GAS CALL ISZERO DUP1 ISZERO PUSH2 0x1295 JUMPI RETURNDATASIZE PUSH1 0x0 DUP1 RETURNDATACOPY RETURNDATASIZE PUSH1 0x0 REVERT JUMPDEST POP POP POP POP JUMPDEST PUSH1 0x2 DUP6 ADD SLOAD PUSH2 0x12A9 SWAP1 DUP6 PUSH2 0x2732 JUMP JUMPDEST PUSH1 0x2 DUP7 ADD SSTORE PUSH1 0x18 SLOAD PUSH2 0x12BB SWAP1 DUP6 PUSH2 0x2732 JUMP JUMPDEST PUSH1 0x18 SSTORE PUSH1 0x1 DUP6 ADD SLOAD PUSH2 0x13AF JUMPI PUSH1 0xF SLOAD PUSH2 0x12D6 SWAP1 PUSH1 0x1 SWAP1 PUSH2 0x2C64 JUMP JUMPDEST DUP6 PUSH1 0x5 ADD SLOAD EQ PUSH2 0x137B JUMPI PUSH1 0xF DUP1 SLOAD PUSH1 0x0 SWAP2 SWAP1 PUSH2 0x12F4 SWAP1 PUSH1 0x1 SWAP1 PUSH2 0x2C64 JUMP JUMPDEST DUP2 SLOAD DUP2 LT PUSH2 0x1304 JUMPI PUSH2 0x1304 PUSH2 0x2CEB JUMP JUMPDEST SWAP1 PUSH1 0x0 MSTORE PUSH1 0x20 PUSH1 0x0 KECCAK256 ADD PUSH1 0x0 SWAP1 SLOAD SWAP1 PUSH2 0x100 EXP SWAP1 DIV PUSH1 0x1 PUSH1 0x1 PUSH1 0xA0 SHL SUB AND SWAP1 POP DUP1 PUSH1 0xF DUP8 PUSH1 0x5 ADD SLOAD DUP2 SLOAD DUP2 LT PUSH2 0x133C JUMPI PUSH2 0x133C PUSH2 0x2CEB JUMP JUMPDEST PUSH1 0x0 SWAP2 DUP3 MSTORE PUSH1 0x20 DUP1 DUP4 KECCAK256 SWAP2 SWAP1 SWAP2 ADD DUP1 SLOAD PUSH1 0x1 PUSH1 0x1 PUSH1 0xA0 SHL SUB NOT AND PUSH1 0x1 PUSH1 0x1 PUSH1 0xA0 SHL SUB SWAP5 DUP6 AND OR SWAP1 SSTORE PUSH1 0x5 DUP10 DUP2 ADD SLOAD SWAP5 SWAP1 SWAP4 AND DUP3 MSTORE PUSH1 0xE SWAP1 MSTORE PUSH1 0x40 SWAP1 KECCAK256 ADD SSTORE JUMPDEST PUSH1 0xF DUP1 SLOAD DUP1 PUSH2 0x138C JUMPI PUSH2 0x138C PUSH2 0x2D01 JUMP JUMPDEST PUSH1 0x0 DUP3 DUP2 MSTORE PUSH1 0x20 SWAP1 KECCAK256 DUP2 ADD PUSH1 0x0 NOT SWAP1 DUP2 ADD DUP1 SLOAD PUSH1 0x1 PUSH1 0x1 PUSH1 0xA0 SHL SUB NOT AND SWAP1 SSTORE ADD SWAP1 SSTORE JUMPDEST PUSH1 0x16 SLOAD PUSH1 0x40 MLOAD PUSH32 0x1EF37AB665F7C977B577275D7A49E72CD18D1143ECCD1112F1198E4A39D1428C SWAP1 PUSH1 0x0 SWAP1 LOG2 POP POP POP POP POP POP POP JUMP JUMPDEST PUSH1 0xA SLOAD PUSH2 0x13ED JUMPI JUMP JUMPDEST PUSH1 0xB SLOAD PUSH1 0x40 DUP1 MLOAD PUSH4 0x45C9C1D1 PUSH1 0xE0 SHL DUP2 MSTORE SWAP1 MLOAD PUSH1 0x0 SWAP3 PUSH1 0x1 PUSH1 0x1 PUSH1 0xA0 SHL SUB AND SWAP2 PUSH4 0x45C9C1D1 SWAP2 PUSH1 0x4 DUP1 DUP4 ADD SWAP3 PUSH1 0x20 SWAP3 SWAP2 SWAP1 DUP3 SWAP1 SUB ADD DUP2 DUP8 DUP8 GAS CALL ISZERO DUP1 ISZERO PUSH2 0x1438 JUMPI RETURNDATASIZE PUSH1 0x0 DUP1 RETURNDATACOPY RETURNDATASIZE PUSH1 0x0 REVERT JUMPDEST POP POP POP POP PUSH1 0x40 MLOAD RETURNDATASIZE PUSH1 0x1F NOT PUSH1 0x1F DUP3 ADD AND DUP3 ADD DUP1 PUSH1 0x40 MSTORE POP DUP2 ADD SWAP1 PUSH2 0x145C SWAP2 SWAP1 PUSH2 0x2BEF JUMP JUMPDEST SWAP1 POP DUP1 PUSH2 0x1466 JUMPI POP JUMP JUMPDEST PUSH1 0x1B SLOAD PUSH2 0x1473 SWAP1 DUP3 PUSH2 0x2732 JUMP JUMPDEST PUSH1 0x1B SSTORE PUSH1 0xA SLOAD PUSH1 0x0 SWAP1 PUSH2 0x148F SWAP1 PUSH2 0x7FA DUP5 PUSH5 0xE8D4A51000 PUSH2 0x270E JUMP JUMPDEST PUSH1 0x15 SLOAD SWAP1 SWAP2 POP PUSH2 0x149F SWAP1 DUP3 PUSH2 0x2732 JUMP JUMPDEST PUSH1 0x15 SSTORE POP POP JUMP JUMPDEST PUSH1 0xF DUP2 DUP2 SLOAD DUP2 LT PUSH2 0x14B6 JUMPI PUSH1 0x0 DUP1 REVERT JUMPDEST PUSH1 0x0 SWAP2 DUP3 MSTORE PUSH1 0x20 SWAP1 SWAP2 KECCAK256 ADD SLOAD PUSH1 0x1 PUSH1 0x1 PUSH1 0xA0 SHL SUB AND SWAP1 POP DUP2 JUMP JUMPDEST PUSH1 0x0 SLOAD PUSH1 0x1 PUSH1 0x1 PUSH1 0xA0 SHL SUB AND CALLER EQ PUSH2 0x14FA JUMPI PUSH1 0x40 MLOAD PUSH3 0x461BCD PUSH1 0xE5 SHL DUP2 MSTORE PUSH1 0x4 ADD PUSH2 0x76F SWAP1 PUSH2 0x2B4C JUMP JUMPDEST PUSH1 0x0 DUP2 GT PUSH2 0x151A JUMPI PUSH1 0x40 MLOAD PUSH3 0x461BCD PUSH1 0xE5 SHL DUP2 MSTORE PUSH1 0x4 ADD PUSH2 0x76F SWAP1 PUSH2 0x2B81 JUMP JUMPDEST PUSH2 0x3E8 DUP2 GT ISZERO PUSH2 0x153C JUMPI PUSH1 0x40 MLOAD PUSH3 0x461BCD PUSH1 0xE5 SHL DUP2 MSTORE PUSH1 0x4 ADD PUSH2 0x76F SWAP1 PUSH2 0x2BB8 JUMP JUMPDEST PUSH1 0x5 SSTORE JUMP JUMPDEST PUSH1 0x0 SLOAD PUSH1 0x1 PUSH1 0x1 PUSH1 0xA0 SHL SUB AND CALLER EQ PUSH2 0x156B JUMPI PUSH1 0x40 MLOAD PUSH3 0x461BCD PUSH1 0xE5 SHL DUP2 MSTORE PUSH1 0x4 ADD PUSH2 0x76F SWAP1 PUSH2 0x2B4C JUMP JUMPDEST PUSH1 0x0 DUP2 GT PUSH2 0x15BB JUMPI PUSH1 0x40 MLOAD PUSH3 0x461BCD PUSH1 0xE5 SHL DUP2 MSTORE PUSH1 0x20 PUSH1 0x4 DUP3 ADD MSTORE PUSH1 0x1B PUSH1 0x24 DUP3 ADD MSTORE PUSH32 0x54696D65206D7573742062652067726561746572207468616E20300000000000 PUSH1 0x44 DUP3 ADD MSTORE PUSH1 0x64 ADD PUSH2 0x76F JUMP JUMPDEST PUSH1 0x8 SSTORE JUMP JUMPDEST PUSH1 0x0 SLOAD PUSH1 0x1 PUSH1 0x1 PUSH1 0xA0 SHL SUB AND CALLER EQ PUSH2 0x15EA JUMPI PUSH1 0x40 MLOAD PUSH3 0x461BCD PUSH1 0xE5 SHL DUP2 MSTORE PUSH1 0x4 ADD PUSH2 0x76F SWAP1 PUSH2 0x2B4C JUMP JUMPDEST PUSH2 0x15F4 PUSH1 0x0 PUSH2 0x27DE JUMP JUMPDEST JUMP JUMPDEST PUSH1 0x0 SLOAD PUSH1 0x1 PUSH1 0x1 PUSH1 0xA0 SHL SUB AND CALLER EQ PUSH2 0x1620 JUMPI PUSH1 0x40 MLOAD PUSH3 0x461BCD PUSH1 0xE5 SHL DUP2 MSTORE PUSH1 0x4 ADD PUSH2 0x76F SWAP1 PUSH2 0x2B4C JUMP JUMPDEST PUSH1 0x0 DUP2 GT PUSH2 0x1665 JUMPI PUSH1 0x40 MLOAD PUSH3 0x461BCD PUSH1 0xE5 SHL DUP2 MSTORE PUSH1 0x20 PUSH1 0x4 DUP3 ADD MSTORE PUSH1 0x12 PUSH1 0x24 DUP3 ADD MSTORE PUSH18 0x4C696D69742063616E206E6F74206265203 PUSH1 0x74 SHL PUSH1 0x44 DUP3 ADD MSTORE PUSH1 0x64 ADD PUSH2 0x76F JUMP JUMPDEST PUSH1 0x1E DUP2 LT PUSH2 0x16C9 JUMPI PUSH1 0x40 MLOAD PUSH3 0x461BCD PUSH1 0xE5 SHL DUP2 MSTORE PUSH1 0x20 PUSH1 0x4 DUP3 ADD MSTORE PUSH1 0x2B PUSH1 0x24 DUP3 ADD MSTORE PUSH32 0x4D6178206175746F636F6D706F756E64206C696D69742063616E6E6F74206265 PUSH1 0x44 DUP3 ADD MSTORE PUSH11 0x206772656174657220333 PUSH1 0xAC SHL PUSH1 0x64 DUP3 ADD MSTORE PUSH1 0x84 ADD PUSH2 0x76F JUMP JUMPDEST PUSH1 0x1C SSTORE JUMP JUMPDEST PUSH1 0xB SLOAD PUSH1 0x1 PUSH1 0x1 PUSH1 0xA0 SHL SUB AND CALLER EQ PUSH2 0x1728 JUMPI PUSH1 0x40 MLOAD PUSH3 0x461BCD PUSH1 0xE5 SHL DUP2 MSTORE PUSH1 0x20 PUSH1 0x4 DUP3 ADD MSTORE PUSH1 0x17 PUSH1 0x24 DUP3 ADD MSTORE PUSH32 0x43616C6C6574206D7573742062652062616E6B726F6C6C000000000000000000 PUSH1 0x44 DUP3 ADD MSTORE PUSH1 0x64 ADD PUSH2 0x76F JUMP JUMPDEST PUSH1 0x19 SLOAD PUSH1 0x17 SLOAD PUSH2 0x1737 SWAP2 PUSH2 0x2726 JUMP JUMPDEST DUP4 GT ISZERO PUSH2 0x17AC JUMPI PUSH1 0x40 MLOAD PUSH3 0x461BCD PUSH1 0xE5 SHL DUP2 MSTORE PUSH1 0x20 PUSH1 0x4 DUP3 ADD MSTORE PUSH1 0x3D PUSH1 0x24 DUP3 ADD MSTORE PUSH32 0x467265657A6520616D6F756E742073686F756C64206265206C65737320746861 PUSH1 0x44 DUP3 ADD MSTORE PUSH32 0x6E206F7220657175616C20746F20617661696C61626C652066756E6473000000 PUSH1 0x64 DUP3 ADD MSTORE PUSH1 0x84 ADD PUSH2 0x76F JUMP JUMPDEST PUSH1 0x19 SLOAD PUSH2 0x17B9 SWAP1 DUP5 PUSH2 0x2732 JUMP JUMPDEST PUSH1 0x19 SSTORE PUSH1 0x40 MLOAD PUSH4 0xF62CF8D PUSH1 0xE4 SHL DUP2 MSTORE PUSH1 0x4 DUP2 ADD DUP5 SWAP1 MSTORE PUSH1 0x1 PUSH1 0x1 PUSH1 0xA0 SHL SUB DUP4 DUP2 AND PUSH1 0x24 DUP4 ADD MSTORE DUP3 SWAP2 SWAP1 DUP3 AND SWAP1 PUSH4 0xF62CF8D0 SWAP1 PUSH1 0x44 ADD PUSH1 0x0 PUSH1 0x40 MLOAD DUP1 DUP4 SUB DUP2 PUSH1 0x0 DUP8 DUP1 EXTCODESIZE ISZERO DUP1 ISZERO PUSH2 0x1809 JUMPI PUSH1 0x0 DUP1 REVERT JUMPDEST POP GAS CALL ISZERO DUP1 ISZERO PUSH2 0x181D JUMPI RETURNDATASIZE PUSH1 0x0 DUP1 RETURNDATACOPY RETURNDATASIZE PUSH1 0x0 REVERT JUMPDEST POP PUSH2 0x1857 SWAP3 POP POP PUSH1 0x1 PUSH1 0x1 PUSH1 0xA0 SHL SUB PUSH32 0x0 AND SWAP1 POP DUP4 DUP7 PUSH2 0x27A9 JUMP JUMPDEST PUSH2 0x185F PUSH2 0x1DF9 JUMP JUMPDEST PUSH2 0x1867 PUSH2 0x13E4 JUMP JUMPDEST POP POP POP POP JUMP JUMPDEST NUMBER PUSH1 0x10 SLOAD GT ISZERO PUSH2 0x18BF JUMPI PUSH1 0x40 MLOAD PUSH3 0x461BCD PUSH1 0xE5 SHL DUP2 MSTORE PUSH1 0x20 PUSH1 0x4 DUP3 ADD DUP2 SWAP1 MSTORE PUSH1 0x24 DUP3 ADD MSTORE PUSH32 0x436F6D706F756E6420416C6C206E6F7420796574206170706C696361626C652E PUSH1 0x44 DUP3 ADD MSTORE PUSH1 0x64 ADD PUSH2 0x76F JUMP JUMPDEST PUSH1 0x0 PUSH1 0x17 SLOAD GT PUSH2 0x1911 JUMPI PUSH1 0x40 MLOAD PUSH3 0x461BCD PUSH1 0xE5 SHL DUP2 MSTORE PUSH1 0x20 PUSH1 0x4 DUP3 ADD MSTORE PUSH1 0x1A PUSH1 0x24 DUP3 ADD MSTORE PUSH32 0x4E6F205374616B6564207265776172647320746F20636C61696D000000000000 PUSH1 0x44 DUP3 ADD MSTORE PUSH1 0x64 ADD PUSH2 0x76F JUMP JUMPDEST PUSH1 0x11 SLOAD PUSH1 0xF SLOAD PUSH1 0x0 SWAP2 DUP3 SWAP2 DUP3 SWAP2 DUP3 SWAP2 DUP2 LT PUSH2 0x192A JUMPI POP PUSH1 0x0 JUMPDEST PUSH1 0xF SLOAD PUSH1 0x1C SLOAD DUP2 GT ISZERO DUP1 PUSH2 0x194D JUMPI POP PUSH1 0xF SLOAD PUSH1 0x1C SLOAD PUSH2 0x194A SWAP1 DUP5 SWAP1 PUSH2 0x2732 JUMP JUMPDEST LT ISZERO JUMPDEST ISZERO PUSH2 0x195B JUMPI POP PUSH1 0xF SLOAD PUSH2 0x196C JUMP JUMPDEST PUSH1 0x1C SLOAD PUSH2 0x1969 SWAP1 DUP4 SWAP1 PUSH2 0x2732 JUMP JUMPDEST SWAP1 POP JUMPDEST PUSH2 0x1974 PUSH2 0x13E4 JUMP JUMPDEST PUSH2 0x197C PUSH2 0x1DF9 JUMP JUMPDEST DUP2 JUMPDEST DUP2 DUP2 LT ISZERO PUSH2 0x1BA2 JUMPI PUSH1 0x0 PUSH1 0xE PUSH1 0x0 PUSH1 0xF DUP5 DUP2 SLOAD DUP2 LT PUSH2 0x199F JUMPI PUSH2 0x199F PUSH2 0x2CEB JUMP JUMPDEST PUSH1 0x0 SWAP2 DUP3 MSTORE PUSH1 0x20 DUP1 DUP4 KECCAK256 SWAP1 SWAP2 ADD SLOAD PUSH1 0x1 PUSH1 0x1 PUSH1 0xA0 SHL SUB AND DUP4 MSTORE DUP3 ADD SWAP3 SWAP1 SWAP3 MSTORE PUSH1 0x40 ADD DUP2 KECCAK256 PUSH1 0x7 DUP2 ADD SLOAD PUSH1 0x13 SLOAD DUP3 SLOAD SWAP3 SWAP5 POP PUSH2 0x19E8 SWAP3 PUSH2 0x800 SWAP2 PUSH5 0xE8D4A51000 SWAP2 PUSH2 0x7FA SWAP2 PUSH2 0x270E JUMP JUMPDEST SWAP1 POP PUSH2 0x19F4 DUP7 DUP3 PUSH2 0x2732 JUMP JUMPDEST PUSH1 0x16 SLOAD LT ISZERO PUSH2 0x1A0D JUMPI PUSH1 0x16 SLOAD PUSH2 0x1A0A SWAP1 DUP8 PUSH2 0x2726 JUMP JUMPDEST SWAP1 POP JUMPDEST PUSH1 0x7 DUP3 ADD SLOAD PUSH2 0x1A1C SWAP1 DUP3 PUSH2 0x2732 JUMP JUMPDEST PUSH1 0x7 DUP4 ADD SSTORE DUP1 ISZERO PUSH2 0x1A34 JUMPI PUSH2 0x1A31 DUP7 DUP3 PUSH2 0x2732 JUMP JUMPDEST SWAP6 POP JUMPDEST PUSH1 0x0 PUSH2 0x1A60 DUP4 PUSH1 0x8 ADD SLOAD PUSH2 0x800 PUSH5 0xE8D4A51000 PUSH2 0x7FA PUSH1 0x15 SLOAD DUP9 PUSH1 0x0 ADD SLOAD PUSH2 0x270E SWAP1 SWAP2 SWAP1 PUSH4 0xFFFFFFFF AND JUMP JUMPDEST PUSH1 0x8 DUP5 ADD SLOAD SWAP1 SWAP2 POP PUSH2 0x1A72 SWAP1 DUP3 PUSH2 0x2732 JUMP JUMPDEST PUSH1 0x8 DUP5 ADD SSTORE PUSH2 0x1A81 DUP3 DUP3 PUSH2 0x2732 JUMP JUMPDEST SWAP2 POP DUP2 ISZERO PUSH2 0x1B87 JUMPI PUSH1 0x1A SLOAD PUSH2 0x1A96 SWAP1 DUP3 PUSH2 0x2732 JUMP JUMPDEST PUSH1 0x1A SSTORE PUSH1 0x18 SLOAD PUSH2 0x1AA6 SWAP1 DUP4 PUSH2 0x2732 JUMP JUMPDEST PUSH1 0x18 SSTORE PUSH1 0x2 SLOAD PUSH1 0x0 SWAP1 PUSH2 0x1AC2 SWAP1 PUSH2 0x2710 SWAP1 PUSH2 0x7FA SWAP1 DUP7 SWAP1 PUSH2 0x270E JUMP JUMPDEST SWAP1 POP PUSH2 0x1ACE DUP12 DUP3 PUSH2 0x2732 JUMP JUMPDEST SWAP11 POP PUSH1 0x0 PUSH2 0x1AED PUSH2 0x2710 PUSH2 0x7FA PUSH1 0x1 SLOAD DUP8 PUSH2 0x270E SWAP1 SWAP2 SWAP1 PUSH4 0xFFFFFFFF AND JUMP JUMPDEST SWAP1 POP PUSH2 0x1AF9 DUP11 DUP3 PUSH2 0x2732 JUMP JUMPDEST SWAP10 POP PUSH1 0x0 PUSH2 0x1B18 PUSH2 0x2710 PUSH2 0x7FA PUSH1 0x5 SLOAD DUP9 PUSH2 0x270E SWAP1 SWAP2 SWAP1 PUSH4 0xFFFFFFFF AND JUMP JUMPDEST SWAP1 POP PUSH2 0x1B24 DUP13 DUP3 PUSH2 0x2732 JUMP JUMPDEST SWAP12 POP PUSH2 0x1B30 DUP6 DUP5 PUSH2 0x2726 JUMP JUMPDEST SWAP5 POP PUSH2 0x1B3C DUP6 DUP4 PUSH2 0x2726 JUMP JUMPDEST SWAP5 POP PUSH2 0x1B48 DUP6 DUP3 PUSH2 0x2726 JUMP JUMPDEST PUSH1 0x2 DUP8 ADD SLOAD SWAP1 SWAP6 POP PUSH2 0x1B5A SWAP1 DUP7 PUSH2 0x2732 JUMP JUMPDEST PUSH1 0x2 DUP8 ADD SSTORE PUSH1 0x1 DUP7 ADD SLOAD PUSH2 0x1B6E SWAP1 DUP7 PUSH2 0x2732 JUMP JUMPDEST PUSH1 0x1 DUP8 ADD SSTORE PUSH1 0x17 SLOAD PUSH2 0x1B80 SWAP1 DUP7 PUSH2 0x2732 JUMP JUMPDEST PUSH1 0x17 SSTORE POP POP POP JUMPDEST POP POP NUMBER PUSH1 0x3 SWAP1 SWAP2 ADD SSTORE DUP1 PUSH2 0x1B9A DUP2 PUSH2 0x2D17 JUMP JUMPDEST SWAP2 POP POP PUSH2 0x197E JUMP JUMPDEST POP PUSH1 0x11 DUP2 SWAP1 SSTORE PUSH1 0xF SLOAD DUP2 LT PUSH2 0x1BB7 JUMPI PUSH1 0x0 PUSH1 0x11 SSTORE JUMPDEST PUSH1 0x16 SLOAD PUSH2 0x1BC4 SWAP1 DUP5 PUSH2 0x2726 JUMP JUMPDEST PUSH1 0x16 SSTORE NUMBER PUSH1 0x10 SSTORE PUSH1 0x40 MLOAD PUSH4 0x852CD8D PUSH1 0xE3 SHL DUP2 MSTORE PUSH1 0x4 DUP2 ADD DUP8 SWAP1 MSTORE PUSH32 0x0 PUSH1 0x1 PUSH1 0x1 PUSH1 0xA0 SHL SUB AND SWAP1 PUSH4 0x42966C68 SWAP1 PUSH1 0x24 ADD PUSH1 0x0 PUSH1 0x40 MLOAD DUP1 DUP4 SUB DUP2 PUSH1 0x0 DUP8 DUP1 EXTCODESIZE ISZERO DUP1 ISZERO PUSH2 0x1C2D JUMPI PUSH1 0x0 DUP1 REVERT JUMPDEST POP GAS CALL ISZERO DUP1 ISZERO PUSH2 0x1C41 JUMPI RETURNDATASIZE PUSH1 0x0 DUP1 RETURNDATACOPY RETURNDATASIZE PUSH1 0x0 REVERT JUMPDEST POP PUSH2 0x1C7B SWAP3 POP POP PUSH1 0x1 PUSH1 0x1 PUSH1 0xA0 SHL SUB PUSH32 0x0 AND SWAP1 POP CALLER DUP7 PUSH2 0x27A9 JUMP JUMPDEST PUSH1 0xD SLOAD PUSH2 0x1CB5 SWAP1 PUSH1 0x1 PUSH1 0x1 PUSH1 0xA0 SHL SUB PUSH32 0x0 DUP2 AND SWAP2 AND DUP8 PUSH2 0x27A9 JUMP JUMPDEST POP POP POP POP POP POP JUMP JUMPDEST PUSH1 0x0 SLOAD PUSH1 0x1 PUSH1 0x1 PUSH1 0xA0 SHL SUB AND CALLER EQ PUSH2 0x1CE7 JUMPI PUSH1 0x40 MLOAD PUSH3 0x461BCD PUSH1 0xE5 SHL DUP2 MSTORE PUSH1 0x4 ADD PUSH2 0x76F SWAP1 PUSH2 0x2B4C JUMP JUMPDEST PUSH1 0xC SLOAD PUSH1 0x1 PUSH1 0x1 PUSH1 0xA0 SHL SUB AND ISZERO PUSH2 0x1D40 JUMPI PUSH1 0x40 MLOAD PUSH3 0x461BCD PUSH1 0xE5 SHL DUP2 MSTORE PUSH1 0x20 PUSH1 0x4 DUP3 ADD MSTORE PUSH1 0x1F PUSH1 0x24 DUP3 ADD MSTORE PUSH32 0x4C6976652057616C6C6574206164647265737320616C72656164792073657400 PUSH1 0x44 DUP3 ADD MSTORE PUSH1 0x64 ADD PUSH2 0x76F JUMP JUMPDEST PUSH1 0xC DUP1 SLOAD PUSH1 0x1 PUSH1 0x1 PUSH1 0xA0 SHL SUB NOT AND PUSH1 0x1 PUSH1 0x1 PUSH1 0xA0 SHL SUB SWAP3 SWAP1 SWAP3 AND SWAP2 SWAP1 SWAP2 OR SWAP1 SSTORE JUMP JUMPDEST PUSH1 0x0 SLOAD PUSH1 0x1 PUSH1 0x1 PUSH1 0xA0 SHL SUB AND CALLER EQ PUSH2 0x1D8C JUMPI PUSH1 0x40 MLOAD PUSH3 0x461BCD PUSH1 0xE5 SHL DUP2 MSTORE PUSH1 0x4 ADD PUSH2 0x76F SWAP1 PUSH2 0x2B4C JUMP JUMPDEST PUSH8 0x8AC7230489E80000 DUP2 GT ISZERO PUSH2 0x1DF4 JUMPI PUSH1 0x40 MLOAD PUSH3 0x461BCD PUSH1 0xE5 SHL DUP2 MSTORE PUSH1 0x20 PUSH1 0x4 DUP3 ADD MSTORE PUSH1 0x27 PUSH1 0x24 DUP3 ADD MSTORE PUSH32 0x43727573682050657220426C6F636B2063616E206E6F74206265206D6F726520 PUSH1 0x44 DUP3 ADD MSTORE PUSH7 0x7468616E20313 PUSH1 0xCC SHL PUSH1 0x64 DUP3 ADD MSTORE PUSH1 0x84 ADD PUSH2 0x76F JUMP JUMPDEST PUSH1 0x12 SSTORE JUMP JUMPDEST PUSH1 0x14 SLOAD NUMBER GT PUSH2 0x1E04 JUMPI JUMP JUMPDEST PUSH1 0x17 SLOAD PUSH2 0x1E11 JUMPI NUMBER PUSH1 0x14 SSTORE JUMP JUMPDEST PUSH1 0x12 SLOAD PUSH1 0x19 SLOAD ISZERO PUSH2 0x1E46 JUMPI PUSH2 0x1E43 PUSH2 0x1E3C PUSH2 0x2710 PUSH2 0x7FA PUSH1 0x9 SLOAD PUSH1 0x12 SLOAD PUSH2 0x270E SWAP1 SWAP2 SWAP1 PUSH4 0xFFFFFFFF AND JUMP JUMPDEST DUP3 SWAP1 PUSH2 0x2732 JUMP JUMPDEST SWAP1 POP JUMPDEST PUSH1 0x16 SLOAD PUSH2 0x1E51 JUMPI POP PUSH1 0x0 JUMPDEST PUSH1 0x0 PUSH2 0x1E68 PUSH1 0x14 SLOAD NUMBER PUSH2 0x2726 SWAP1 SWAP2 SWAP1 PUSH4 0xFFFFFFFF AND JUMP JUMPDEST SWAP1 POP PUSH1 0x0 PUSH2 0x1E94 PUSH1 0xA SLOAD PUSH2 0x7FA PUSH5 0xE8D4A51000 PUSH2 0x1E8E DUP8 DUP8 PUSH2 0x270E SWAP1 SWAP2 SWAP1 PUSH4 0xFFFFFFFF AND JUMP JUMPDEST SWAP1 PUSH2 0x270E JUMP JUMPDEST PUSH1 0x13 SLOAD SWAP1 SWAP2 POP PUSH2 0x1EA4 SWAP1 DUP3 PUSH2 0x2732 JUMP JUMPDEST PUSH1 0x13 SSTORE POP POP NUMBER PUSH1 0x14 SSTORE POP JUMP JUMPDEST PUSH1 0x0 SLOAD PUSH1 0x1 PUSH1 0x1 PUSH1 0xA0 SHL SUB AND CALLER EQ PUSH2 0x1EDA JUMPI PUSH1 0x40 MLOAD PUSH3 0x461BCD PUSH1 0xE5 SHL DUP2 MSTORE PUSH1 0x4 ADD PUSH2 0x76F SWAP1 PUSH2 0x2B4C JUMP JUMPDEST PUSH1 0xB SLOAD PUSH1 0x1 PUSH1 0x1 PUSH1 0xA0 SHL SUB AND ISZERO PUSH2 0x1F33 JUMPI PUSH1 0x40 MLOAD PUSH3 0x461BCD PUSH1 0xE5 SHL DUP2 MSTORE PUSH1 0x20 PUSH1 0x4 DUP3 ADD MSTORE PUSH1 0x1C PUSH1 0x24 DUP3 ADD MSTORE PUSH32 0x42616E6B726F6C6C206164647265737320616C72656164792073657400000000 PUSH1 0x44 DUP3 ADD MSTORE PUSH1 0x64 ADD PUSH2 0x76F JUMP JUMPDEST PUSH1 0xB DUP1 SLOAD PUSH1 0x1 PUSH1 0x1 PUSH1 0xA0 SHL SUB NOT AND PUSH1 0x1 PUSH1 0x1 PUSH1 0xA0 SHL SUB SWAP3 SWAP1 SWAP3 AND SWAP2 SWAP1 SWAP2 OR SWAP1 SSTORE JUMP JUMPDEST PUSH1 0x0 SLOAD PUSH1 0x1 PUSH1 0x1 PUSH1 0xA0 SHL SUB AND CALLER EQ PUSH2 0x1F7F JUMPI PUSH1 0x40 MLOAD PUSH3 0x461BCD PUSH1 0xE5 SHL DUP2 MSTORE PUSH1 0x4 ADD PUSH2 0x76F SWAP1 PUSH2 0x2B4C JUMP JUMPDEST PUSH1 0x0 DUP2 GT PUSH2 0x1F9F JUMPI PUSH1 0x40 MLOAD PUSH3 0x461BCD PUSH1 0xE5 SHL DUP2 MSTORE PUSH1 0x4 ADD PUSH2 0x76F SWAP1 PUSH2 0x2B81 JUMP JUMPDEST PUSH2 0x3E8 DUP2 LT PUSH2 0x1FC0 JUMPI PUSH1 0x40 MLOAD PUSH3 0x461BCD PUSH1 0xE5 SHL DUP2 MSTORE PUSH1 0x4 ADD PUSH2 0x76F SWAP1 PUSH2 0x2BB8 JUMP JUMPDEST PUSH1 0x3 SSTORE JUMP JUMPDEST PUSH1 0x0 SLOAD PUSH1 0x1 PUSH1 0x1 PUSH1 0xA0 SHL SUB AND CALLER EQ PUSH2 0x1FEF JUMPI PUSH1 0x40 MLOAD PUSH3 0x461BCD PUSH1 0xE5 SHL DUP2 MSTORE PUSH1 0x4 ADD PUSH2 0x76F SWAP1 PUSH2 0x2B4C JUMP JUMPDEST PUSH1 0x0 DUP2 GT PUSH2 0x200F JUMPI PUSH1 0x40 MLOAD PUSH3 0x461BCD PUSH1 0xE5 SHL DUP2 MSTORE PUSH1 0x4 ADD PUSH2 0x76F SWAP1 PUSH2 0x2B81 JUMP JUMPDEST PUSH2 0x3E8 DUP2 LT PUSH2 0x2030 JUMPI PUSH1 0x40 MLOAD PUSH3 0x461BCD PUSH1 0xE5 SHL DUP2 MSTORE PUSH1 0x4 ADD PUSH2 0x76F SWAP1 PUSH2 0x2BB8 JUMP JUMPDEST PUSH1 0x2 SSTORE JUMP JUMPDEST PUSH2 0x203D PUSH2 0x1DF9 JUMP JUMPDEST CALLER PUSH1 0x0 SWAP1 DUP2 MSTORE PUSH1 0xE PUSH1 0x20 MSTORE PUSH1 0x40 SWAP1 KECCAK256 NUMBER PUSH1 0x3 DUP3 ADD SSTORE PUSH1 0x1 DUP2 ADD SLOAD PUSH1 0x19 SLOAD ISZERO PUSH2 0x2088 JUMPI PUSH2 0x2081 PUSH2 0xD85 PUSH1 0x17 SLOAD PUSH2 0x7FA DUP6 PUSH1 0x1 ADD SLOAD PUSH1 0x19 SLOAD PUSH2 0x270E SWAP1 SWAP2 SWAP1 PUSH4 0xFFFFFFFF AND JUMP JUMPDEST SWAP1 POP PUSH2 0x209A JUMP JUMPDEST PUSH1 0x6 DUP3 ADD SLOAD ISZERO PUSH2 0x209A JUMPI PUSH1 0x0 PUSH1 0x6 DUP4 ADD SSTORE JUMPDEST PUSH1 0x17 SLOAD PUSH2 0x20A7 SWAP1 DUP3 PUSH2 0x2726 JUMP JUMPDEST PUSH1 0x17 SSTORE PUSH1 0x1 DUP3 ADD SLOAD DUP3 SLOAD PUSH1 0x0 SWAP2 PUSH2 0x20C3 SWAP2 PUSH2 0x7FA SWAP1 DUP6 SWAP1 PUSH2 0x270E JUMP JUMPDEST PUSH1 0x1 DUP5 ADD SLOAD SWAP1 SWAP2 POP PUSH2 0x20D5 SWAP1 DUP4 PUSH2 0x2726 JUMP JUMPDEST PUSH1 0x1 DUP5 ADD SSTORE DUP3 SLOAD PUSH2 0x20E6 SWAP1 DUP3 PUSH2 0x2726 JUMP JUMPDEST DUP4 SSTORE PUSH1 0xA SLOAD PUSH2 0x20F5 SWAP1 DUP3 PUSH2 0x2726 JUMP JUMPDEST PUSH1 0xA SSTORE PUSH1 0x13 SLOAD DUP4 SLOAD PUSH2 0x2111 SWAP2 PUSH5 0xE8D4A51000 SWAP2 PUSH2 0x7FA SWAP2 PUSH2 0x270E JUMP JUMPDEST PUSH1 0x7 DUP5 ADD SSTORE PUSH1 0x15 SLOAD DUP4 SLOAD PUSH2 0x212F SWAP2 PUSH5 0xE8D4A51000 SWAP2 PUSH2 0x7FA SWAP2 PUSH2 0x270E JUMP JUMPDEST PUSH1 0x8 DUP5 ADD SSTORE PUSH1 0x19 SLOAD ISZERO PUSH2 0x22BD JUMPI PUSH1 0x6 DUP4 ADD SLOAD ISZERO PUSH2 0x2175 JUMPI PUSH1 0x6 DUP1 SLOAD SWAP1 DUP5 ADD SLOAD PUSH2 0x2157 SWAP2 PUSH2 0x2732 JUMP JUMPDEST TIMESTAMP GT PUSH2 0x2175 JUMPI PUSH1 0x40 MLOAD PUSH3 0x461BCD PUSH1 0xE5 SHL DUP2 MSTORE PUSH1 0x4 ADD PUSH2 0x76F SWAP1 PUSH2 0x2C7B JUMP JUMPDEST PUSH1 0x0 PUSH2 0x2192 PUSH2 0x2710 PUSH2 0x7FA PUSH1 0x4 SLOAD DUP7 PUSH2 0x270E SWAP1 SWAP2 SWAP1 PUSH4 0xFFFFFFFF AND JUMP JUMPDEST TIMESTAMP PUSH1 0x6 DUP7 ADD SSTORE SWAP1 POP PUSH2 0x21A4 DUP4 DUP3 PUSH2 0x2726 JUMP JUMPDEST SWAP3 POP PUSH1 0x19 SLOAD DUP2 GT ISZERO PUSH2 0x226C JUMPI PUSH1 0x0 PUSH2 0x21C7 PUSH1 0x19 SLOAD DUP4 PUSH2 0x2726 SWAP1 SWAP2 SWAP1 PUSH4 0xFFFFFFFF AND JUMP JUMPDEST PUSH1 0xB SLOAD PUSH1 0x40 MLOAD PUSH4 0x95EA7B3 PUSH1 0xE0 SHL DUP2 MSTORE PUSH1 0x1 PUSH1 0x1 PUSH1 0xA0 SHL SUB SWAP2 DUP3 AND PUSH1 0x4 DUP3 ADD MSTORE PUSH1 0x24 DUP2 ADD DUP4 SWAP1 MSTORE SWAP2 SWAP3 POP PUSH32 0x0 AND SWAP1 PUSH4 0x95EA7B3 SWAP1 PUSH1 0x44 ADD PUSH1 0x20 PUSH1 0x40 MLOAD DUP1 DUP4 SUB DUP2 PUSH1 0x0 DUP8 GAS CALL ISZERO DUP1 ISZERO PUSH2 0x223C JUMPI RETURNDATASIZE PUSH1 0x0 DUP1 RETURNDATACOPY RETURNDATASIZE PUSH1 0x0 REVERT JUMPDEST POP POP POP POP PUSH1 0x40 MLOAD RETURNDATASIZE PUSH1 0x1F NOT PUSH1 0x1F DUP3 ADD AND DUP3 ADD DUP1 PUSH1 0x40 MSTORE POP DUP2 ADD SWAP1 PUSH2 0x2260 SWAP2 SWAP1 PUSH2 0x2CCE JUMP JUMPDEST POP POP PUSH1 0x0 PUSH1 0x19 SSTORE PUSH2 0x227D JUMP JUMPDEST PUSH1 0x19 SLOAD PUSH2 0x2279 SWAP1 DUP3 PUSH2 0x2726 JUMP JUMPDEST PUSH1 0x19 SSTORE JUMPDEST PUSH1 0xD SLOAD PUSH2 0x22B7 SWAP1 PUSH1 0x1 PUSH1 0x1 PUSH1 0xA0 SHL SUB PUSH32 0x0 DUP2 AND SWAP2 AND DUP4 PUSH2 0x27A9 JUMP JUMPDEST POP PUSH2 0x233D JUMP JUMPDEST PUSH1 0x8 SLOAD PUSH1 0x4 DUP5 ADD SLOAD PUSH2 0x22CE SWAP2 PUSH2 0x2732 JUMP JUMPDEST NUMBER LT ISZERO PUSH2 0x233D JUMPI PUSH1 0x0 PUSH2 0x22F2 PUSH2 0x2710 PUSH2 0x7FA PUSH1 0x3 SLOAD DUP7 PUSH2 0x270E SWAP1 SWAP2 SWAP1 PUSH4 0xFFFFFFFF AND JUMP JUMPDEST SWAP1 POP PUSH2 0x22FE DUP4 DUP3 PUSH2 0x2726 JUMP JUMPDEST PUSH1 0xD SLOAD SWAP1 SWAP4 POP PUSH2 0x233B SWAP1 PUSH1 0x1 PUSH1 0x1 PUSH1 0xA0 SHL SUB PUSH32 0x0 DUP2 AND SWAP2 AND DUP4 PUSH2 0x27A9 JUMP JUMPDEST POP JUMPDEST PUSH2 0x2371 PUSH1 0x1 PUSH1 0x1 PUSH1 0xA0 SHL SUB PUSH32 0x0 AND CALLER DUP5 PUSH2 0x27A9 JUMP JUMPDEST PUSH1 0x1 DUP4 ADD SLOAD PUSH2 0x2462 JUMPI PUSH1 0xF SLOAD PUSH2 0x2389 SWAP1 PUSH1 0x1 SWAP1 PUSH2 0x2C64 JUMP JUMPDEST DUP4 PUSH1 0x5 ADD SLOAD EQ PUSH2 0x242E JUMPI PUSH1 0xF DUP1 SLOAD PUSH1 0x0 SWAP2 SWAP1 PUSH2 0x23A7 SWAP1 PUSH1 0x1 SWAP1 PUSH2 0x2C64 JUMP JUMPDEST DUP2 SLOAD DUP2 LT PUSH2 0x23B7 JUMPI PUSH2 0x23B7 PUSH2 0x2CEB JUMP JUMPDEST SWAP1 PUSH1 0x0 MSTORE PUSH1 0x20 PUSH1 0x0 KECCAK256 ADD PUSH1 0x0 SWAP1 SLOAD SWAP1 PUSH2 0x100 EXP SWAP1 DIV PUSH1 0x1 PUSH1 0x1 PUSH1 0xA0 SHL SUB AND SWAP1 POP DUP1 PUSH1 0xF DUP6 PUSH1 0x5 ADD SLOAD DUP2 SLOAD DUP2 LT PUSH2 0x23EF JUMPI PUSH2 0x23EF PUSH2 0x2CEB JUMP JUMPDEST PUSH1 0x0 SWAP2 DUP3 MSTORE PUSH1 0x20 DUP1 DUP4 KECCAK256 SWAP2 SWAP1 SWAP2 ADD DUP1 SLOAD PUSH1 0x1 PUSH1 0x1 PUSH1 0xA0 SHL SUB NOT AND PUSH1 0x1 PUSH1 0x1 PUSH1 0xA0 SHL SUB SWAP5 DUP6 AND OR SWAP1 SSTORE PUSH1 0x5 DUP8 DUP2 ADD SLOAD SWAP5 SWAP1 SWAP4 AND DUP3 MSTORE PUSH1 0xE SWAP1 MSTORE PUSH1 0x40 SWAP1 KECCAK256 ADD SSTORE JUMPDEST PUSH1 0xF DUP1 SLOAD DUP1 PUSH2 0x243F JUMPI PUSH2 0x243F PUSH2 0x2D01 JUMP JUMPDEST PUSH1 0x0 DUP3 DUP2 MSTORE PUSH1 0x20 SWAP1 KECCAK256 DUP2 ADD PUSH1 0x0 NOT SWAP1 DUP2 ADD DUP1 SLOAD PUSH1 0x1 PUSH1 0x1 PUSH1 0xA0 SHL SUB NOT AND SWAP1 SSTORE ADD SWAP1 SSTORE JUMPDEST PUSH1 0x16 SLOAD PUSH1 0x40 MLOAD PUSH32 0x1EF37AB665F7C977B577275D7A49E72CD18D1143ECCD1112F1198E4A39D1428C SWAP1 PUSH1 0x0 SWAP1 LOG2 POP POP POP JUMP JUMPDEST PUSH1 0xB SLOAD PUSH1 0x1 PUSH1 0x1 PUSH1 0xA0 SHL SUB AND CALLER EQ PUSH2 0x24ED JUMPI PUSH1 0x40 MLOAD PUSH3 0x461BCD PUSH1 0xE5 SHL DUP2 MSTORE PUSH1 0x20 PUSH1 0x4 DUP3 ADD MSTORE PUSH1 0x17 PUSH1 0x24 DUP3 ADD MSTORE PUSH32 0x43616C6C6572206D7573742062652062616E6B726F6C6C000000000000000000 PUSH1 0x44 DUP3 ADD MSTORE PUSH1 0x64 ADD PUSH2 0x76F JUMP JUMPDEST PUSH1 0x19 SLOAD DUP2 GT ISZERO PUSH2 0x2565 JUMPI PUSH1 0x40 MLOAD PUSH3 0x461BCD PUSH1 0xE5 SHL DUP2 MSTORE PUSH1 0x20 PUSH1 0x4 DUP3 ADD MSTORE PUSH1 0x3C PUSH1 0x24 DUP3 ADD MSTORE PUSH32 0x756E667265657A6520616D6F756E742063616E74206265206772656174657220 PUSH1 0x44 DUP3 ADD MSTORE PUSH32 0x7468616E2063757272656E746C792066726F7A656E20616D6F756E7400000000 PUSH1 0x64 DUP3 ADD MSTORE PUSH1 0x84 ADD PUSH2 0x76F JUMP JUMPDEST PUSH1 0x19 SLOAD PUSH2 0x2572 SWAP1 DUP3 PUSH2 0x2726 JUMP JUMPDEST PUSH1 0x19 SSTORE PUSH2 0x257D PUSH2 0x1DF9 JUMP JUMPDEST PUSH2 0x2585 PUSH2 0x13E4 JUMP JUMPDEST POP JUMP JUMPDEST PUSH1 0x0 SLOAD PUSH1 0x1 PUSH1 0x1 PUSH1 0xA0 SHL SUB AND CALLER EQ PUSH2 0x25B2 JUMPI PUSH1 0x40 MLOAD PUSH3 0x461BCD PUSH1 0xE5 SHL DUP2 MSTORE PUSH1 0x4 ADD PUSH2 0x76F SWAP1 PUSH2 0x2B4C JUMP JUMPDEST PUSH1 0x1 PUSH1 0x1 PUSH1 0xA0 SHL SUB DUP2 AND PUSH2 0x2617 JUMPI PUSH1 0x40 MLOAD PUSH3 0x461BCD PUSH1 0xE5 SHL DUP2 MSTORE PUSH1 0x20 PUSH1 0x4 DUP3 ADD MSTORE PUSH1 0x26 PUSH1 0x24 DUP3 ADD MSTORE PUSH32 0x4F776E61626C653A206E6577206F776E657220697320746865207A65726F2061 PUSH1 0x44 DUP3 ADD MSTORE PUSH6 0x646472657373 PUSH1 0xD0 SHL PUSH1 0x64 DUP3 ADD MSTORE PUSH1 0x84 ADD PUSH2 0x76F JUMP JUMPDEST PUSH2 0x2585 DUP2 PUSH2 0x27DE JUMP JUMPDEST PUSH1 0x1 PUSH1 0x1 PUSH1 0xA0 SHL SUB DUP2 AND PUSH1 0x0 SWAP1 DUP2 MSTORE PUSH1 0xE PUSH1 0x20 MSTORE PUSH1 0x40 DUP2 KECCAK256 PUSH1 0x12 SLOAD PUSH1 0x19 SLOAD ISZERO PUSH2 0x2666 JUMPI PUSH2 0x2663 PUSH2 0x1E3C PUSH2 0x2710 PUSH2 0x7FA PUSH1 0x9 SLOAD PUSH1 0x12 SLOAD PUSH2 0x270E SWAP1 SWAP2 SWAP1 PUSH4 0xFFFFFFFF AND JUMP JUMPDEST SWAP1 POP JUMPDEST PUSH1 0x16 SLOAD PUSH2 0x2671 JUMPI POP PUSH1 0x0 JUMPDEST PUSH1 0x13 SLOAD PUSH1 0x14 SLOAD NUMBER GT DUP1 ISZERO PUSH2 0x2686 JUMPI POP PUSH1 0xA SLOAD ISZERO ISZERO JUMPDEST ISZERO PUSH2 0x26DD JUMPI PUSH1 0x0 PUSH2 0x26A2 PUSH1 0x14 SLOAD NUMBER PUSH2 0x2726 SWAP1 SWAP2 SWAP1 PUSH4 0xFFFFFFFF AND JUMP JUMPDEST SWAP1 POP PUSH1 0x0 PUSH2 0x26C8 PUSH1 0xA SLOAD PUSH2 0x7FA PUSH5 0xE8D4A51000 PUSH2 0x1E8E DUP9 DUP8 PUSH2 0x270E SWAP1 SWAP2 SWAP1 PUSH4 0xFFFFFFFF AND JUMP JUMPDEST PUSH1 0x13 SLOAD SWAP1 SWAP2 POP PUSH2 0x26D8 SWAP1 DUP3 PUSH2 0x2732 JUMP JUMPDEST SWAP3 POP POP POP JUMPDEST PUSH2 0x2705 DUP4 PUSH1 0x7 ADD SLOAD PUSH2 0x800 PUSH5 0xE8D4A51000 PUSH2 0x7FA DUP6 DUP9 PUSH1 0x0 ADD SLOAD PUSH2 0x270E SWAP1 SWAP2 SWAP1 PUSH4 0xFFFFFFFF AND JUMP JUMPDEST SWAP6 SWAP5 POP POP POP POP POP JUMP JUMPDEST PUSH1 0x0 PUSH2 0x806 DUP3 DUP5 PUSH2 0x2D32 JUMP JUMPDEST PUSH1 0x0 PUSH2 0x806 DUP3 DUP5 PUSH2 0x2D51 JUMP JUMPDEST PUSH1 0x0 PUSH2 0x806 DUP3 DUP5 PUSH2 0x2C64 JUMP JUMPDEST PUSH1 0x0 PUSH2 0x806 DUP3 DUP5 PUSH2 0x2D73 JUMP JUMPDEST PUSH1 0x40 MLOAD PUSH1 0x1 PUSH1 0x1 PUSH1 0xA0 SHL SUB DUP1 DUP6 AND PUSH1 0x24 DUP4 ADD MSTORE DUP4 AND PUSH1 0x44 DUP3 ADD MSTORE PUSH1 0x64 DUP2 ADD DUP3 SWAP1 MSTORE PUSH2 0x1867 SWAP1 DUP6 SWAP1 PUSH4 0x23B872DD PUSH1 0xE0 SHL SWAP1 PUSH1 0x84 ADD JUMPDEST PUSH1 0x40 DUP1 MLOAD PUSH1 0x1F NOT DUP2 DUP5 SUB ADD DUP2 MSTORE SWAP2 SWAP1 MSTORE PUSH1 0x20 DUP2 ADD DUP1 MLOAD PUSH1 0x1 PUSH1 0x1 PUSH1 0xE0 SHL SUB AND PUSH1 0x1 PUSH1 0x1 PUSH1 0xE0 SHL SUB NOT SWAP1 SWAP4 AND SWAP3 SWAP1 SWAP3 OR SWAP1 SWAP2 MSTORE PUSH2 0x282E JUMP JUMPDEST PUSH1 0x40 MLOAD PUSH1 0x1 PUSH1 0x1 PUSH1 0xA0 SHL SUB DUP4 AND PUSH1 0x24 DUP3 ADD MSTORE PUSH1 0x44 DUP2 ADD DUP3 SWAP1 MSTORE PUSH2 0x27D9 SWAP1 DUP5 SWAP1 PUSH4 0xA9059CBB PUSH1 0xE0 SHL SWAP1 PUSH1 0x64 ADD PUSH2 0x2772 JUMP JUMPDEST POP POP POP JUMP JUMPDEST PUSH1 0x0 DUP1 SLOAD PUSH1 0x1 PUSH1 0x1 PUSH1 0xA0 SHL SUB DUP4 DUP2 AND PUSH1 0x1 PUSH1 0x1 PUSH1 0xA0 SHL SUB NOT DUP4 AND DUP2 OR DUP5 SSTORE PUSH1 0x40 MLOAD SWAP2 SWAP1 SWAP3 AND SWAP3 DUP4 SWAP2 PUSH32 0x8BE0079C531659141344CD1FD0A4F28419497F9722A3DAAFE3B4186F6B6457E0 SWAP2 SWAP1 LOG3 POP POP JUMP JUMPDEST PUSH1 0x0 PUSH2 0x2883 DUP3 PUSH1 0x40 MLOAD DUP1 PUSH1 0x40 ADD PUSH1 0x40 MSTORE DUP1 PUSH1 0x20 DUP2 MSTORE PUSH1 0x20 ADD PUSH32 0x5361666545524332303A206C6F772D6C6576656C2063616C6C206661696C6564 DUP2 MSTORE POP DUP6 PUSH1 0x1 PUSH1 0x1 PUSH1 0xA0 SHL SUB AND PUSH2 0x2900 SWAP1 SWAP3 SWAP2 SWAP1 PUSH4 0xFFFFFFFF AND JUMP JUMPDEST DUP1 MLOAD SWAP1 SWAP2 POP ISZERO PUSH2 0x27D9 JUMPI DUP1 DUP1 PUSH1 0x20 ADD SWAP1 MLOAD DUP2 ADD SWAP1 PUSH2 0x28A1 SWAP2 SWAP1 PUSH2 0x2CCE JUMP JUMPDEST PUSH2 0x27D9 JUMPI PUSH1 0x40 MLOAD PUSH3 0x461BCD PUSH1 0xE5 SHL DUP2 MSTORE PUSH1 0x20 PUSH1 0x4 DUP3 ADD MSTORE PUSH1 0x2A PUSH1 0x24 DUP3 ADD MSTORE PUSH32 0x5361666545524332303A204552433230206F7065726174696F6E20646964206E PUSH1 0x44 DUP3 ADD MSTORE PUSH10 0x1BDD081CDD58D8D95959 PUSH1 0xB2 SHL PUSH1 0x64 DUP3 ADD MSTORE PUSH1 0x84 ADD PUSH2 0x76F JUMP JUMPDEST PUSH1 0x60 PUSH2 0x290F DUP5 DUP5 PUSH1 0x0 DUP6 PUSH2 0x2917 JUMP JUMPDEST SWAP5 SWAP4 POP POP POP POP JUMP JUMPDEST PUSH1 0x60 DUP3 SELFBALANCE LT ISZERO PUSH2 0x2978 JUMPI PUSH1 0x40 MLOAD PUSH3 0x461BCD PUSH1 0xE5 SHL DUP2 MSTORE PUSH1 0x20 PUSH1 0x4 DUP3 ADD MSTORE PUSH1 0x26 PUSH1 0x24 DUP3 ADD MSTORE PUSH32 0x416464726573733A20696E73756666696369656E742062616C616E636520666F PUSH1 0x44 DUP3 ADD MSTORE PUSH6 0x1C8818D85B1B PUSH1 0xD2 SHL PUSH1 0x64 DUP3 ADD MSTORE PUSH1 0x84 ADD PUSH2 0x76F JUMP JUMPDEST PUSH1 0x1 PUSH1 0x1 PUSH1 0xA0 SHL SUB DUP6 AND EXTCODESIZE PUSH2 0x29CF JUMPI PUSH1 0x40 MLOAD PUSH3 0x461BCD PUSH1 0xE5 SHL DUP2 MSTORE PUSH1 0x20 PUSH1 0x4 DUP3 ADD MSTORE PUSH1 0x1D PUSH1 0x24 DUP3 ADD MSTORE PUSH32 0x416464726573733A2063616C6C20746F206E6F6E2D636F6E7472616374000000 PUSH1 0x44 DUP3 ADD MSTORE PUSH1 0x64 ADD PUSH2 0x76F JUMP JUMPDEST PUSH1 0x0 DUP1 DUP7 PUSH1 0x1 PUSH1 0x1 PUSH1 0xA0 SHL SUB AND DUP6 DUP8 PUSH1 0x40 MLOAD PUSH2 0x29EB SWAP2 SWAP1 PUSH2 0x2DB7 JUMP JUMPDEST PUSH1 0x0 PUSH1 0x40 MLOAD DUP1 DUP4 SUB DUP2 DUP6 DUP8 GAS CALL SWAP3 POP POP POP RETURNDATASIZE DUP1 PUSH1 0x0 DUP2 EQ PUSH2 0x2A28 JUMPI PUSH1 0x40 MLOAD SWAP2 POP PUSH1 0x1F NOT PUSH1 0x3F RETURNDATASIZE ADD AND DUP3 ADD PUSH1 0x40 MSTORE RETURNDATASIZE DUP3 MSTORE RETURNDATASIZE PUSH1 0x0 PUSH1 0x20 DUP5 ADD RETURNDATACOPY PUSH2 0x2A2D JUMP JUMPDEST PUSH1 0x60 SWAP2 POP JUMPDEST POP SWAP2 POP SWAP2 POP PUSH2 0x2A3D DUP3 DUP3 DUP7 PUSH2 0x2A48 JUMP JUMPDEST SWAP8 SWAP7 POP POP POP POP POP POP POP JUMP JUMPDEST PUSH1 0x60 DUP4 ISZERO PUSH2 0x2A57 JUMPI POP DUP2 PUSH2 0x806 JUMP JUMPDEST DUP3 MLOAD ISZERO PUSH2 0x2A67 JUMPI DUP3 MLOAD DUP1 DUP5 PUSH1 0x20 ADD REVERT JUMPDEST DUP2 PUSH1 0x40 MLOAD PUSH3 0x461BCD PUSH1 0xE5 SHL DUP2 MSTORE PUSH1 0x4 ADD PUSH2 0x76F SWAP2 SWAP1 PUSH2 0x2DD3 JUMP JUMPDEST PUSH1 0x0 PUSH1 0x20 DUP3 DUP5 SUB SLT ISZERO PUSH2 0x2A93 JUMPI PUSH1 0x0 DUP1 REVERT JUMPDEST POP CALLDATALOAD SWAP2 SWAP1 POP JUMP JUMPDEST PUSH1 0x1 PUSH1 0x1 PUSH1 0xA0 SHL SUB DUP2 AND DUP2 EQ PUSH2 0x2585 JUMPI PUSH1 0x0 DUP1 REVERT JUMPDEST PUSH1 0x0 PUSH1 0x20 DUP3 DUP5 SUB SLT ISZERO PUSH2 0x2AC1 JUMPI PUSH1 0x0 DUP1 REVERT JUMPDEST DUP2 CALLDATALOAD PUSH2 0x806 DUP2 PUSH2 0x2A9A JUMP JUMPDEST DUP1 ISZERO ISZERO DUP2 EQ PUSH2 0x2585 JUMPI PUSH1 0x0 DUP1 REVERT JUMPDEST PUSH1 0x0 DUP1 PUSH1 0x40 DUP4 DUP6 SUB SLT ISZERO PUSH2 0x2AED JUMPI PUSH1 0x0 DUP1 REVERT JUMPDEST DUP3 CALLDATALOAD SWAP2 POP PUSH1 0x20 DUP4 ADD CALLDATALOAD PUSH2 0x2AFF DUP2 PUSH2 0x2ACC JUMP JUMPDEST DUP1 SWAP2 POP POP SWAP3 POP SWAP3 SWAP1 POP JUMP JUMPDEST PUSH1 0x0 DUP1 PUSH1 0x0 PUSH1 0x60 DUP5 DUP7 SUB SLT ISZERO PUSH2 0x2B1F JUMPI PUSH1 0x0 DUP1 REVERT JUMPDEST DUP4 CALLDATALOAD SWAP3 POP PUSH1 0x20 DUP5 ADD CALLDATALOAD PUSH2 0x2B31 DUP2 PUSH2 0x2A9A JUMP JUMPDEST SWAP2 POP PUSH1 0x40 DUP5 ADD CALLDATALOAD PUSH2 0x2B41 DUP2 PUSH2 0x2A9A JUMP JUMPDEST DUP1 SWAP2 POP POP SWAP3 POP SWAP3 POP SWAP3 JUMP JUMPDEST PUSH1 0x20 DUP1 DUP3 MSTORE DUP2 DUP2 ADD MSTORE PUSH32 0x4F776E61626C653A2063616C6C6572206973206E6F7420746865206F776E6572 PUSH1 0x40 DUP3 ADD MSTORE PUSH1 0x60 ADD SWAP1 JUMP JUMPDEST PUSH1 0x20 DUP1 DUP3 MSTORE PUSH1 0x1A SWAP1 DUP3 ADD MSTORE PUSH32 0x466565206D7573742062652067726561746572207468616E2030000000000000 PUSH1 0x40 DUP3 ADD MSTORE PUSH1 0x60 ADD SWAP1 JUMP JUMPDEST PUSH1 0x20 DUP1 DUP3 MSTORE PUSH1 0x19 SWAP1 DUP3 ADD MSTORE PUSH32 0x466565206D757374206265206C657373207468616E2031302500000000000000 PUSH1 0x40 DUP3 ADD MSTORE PUSH1 0x60 ADD SWAP1 JUMP JUMPDEST PUSH1 0x0 PUSH1 0x20 DUP3 DUP5 SUB SLT ISZERO PUSH2 0x2C01 JUMPI PUSH1 0x0 DUP1 REVERT JUMPDEST POP MLOAD SWAP2 SWAP1 POP JUMP JUMPDEST PUSH1 0x20 DUP1 DUP3 MSTORE PUSH1 0x26 SWAP1 DUP3 ADD MSTORE PUSH32 0x496E73756666696369656E7420437275736820746F6B656E7320666F72207472 PUSH1 0x40 DUP3 ADD MSTORE PUSH6 0x30B739B332B9 PUSH1 0xD1 SHL PUSH1 0x60 DUP3 ADD MSTORE PUSH1 0x80 ADD SWAP1 JUMP JUMPDEST PUSH4 0x4E487B71 PUSH1 0xE0 SHL PUSH1 0x0 MSTORE PUSH1 0x11 PUSH1 0x4 MSTORE PUSH1 0x24 PUSH1 0x0 REVERT JUMPDEST PUSH1 0x0 DUP3 DUP3 LT ISZERO PUSH2 0x2C76 JUMPI PUSH2 0x2C76 PUSH2 0x2C4E JUMP JUMPDEST POP SUB SWAP1 JUMP JUMPDEST PUSH1 0x20 DUP1 DUP3 MSTORE PUSH1 0x33 SWAP1 DUP3 ADD MSTORE PUSH32 0x4F6E6C79204F6E6520576974686472617720616C6C6F77656420706572203320 PUSH1 0x40 DUP3 ADD MSTORE PUSH19 0x686F75727320647572696E6720667265657A65 PUSH1 0x68 SHL PUSH1 0x60 DUP3 ADD MSTORE PUSH1 0x80 ADD SWAP1 JUMP JUMPDEST PUSH1 0x0 PUSH1 0x20 DUP3 DUP5 SUB SLT ISZERO PUSH2 0x2CE0 JUMPI PUSH1 0x0 DUP1 REVERT JUMPDEST DUP2 MLOAD PUSH2 0x806 DUP2 PUSH2 0x2ACC JUMP JUMPDEST PUSH4 0x4E487B71 PUSH1 0xE0 SHL PUSH1 0x0 MSTORE PUSH1 0x32 PUSH1 0x4 MSTORE PUSH1 0x24 PUSH1 0x0 REVERT JUMPDEST PUSH4 0x4E487B71 PUSH1 0xE0 SHL PUSH1 0x0 MSTORE PUSH1 0x31 PUSH1 0x4 MSTORE PUSH1 0x24 PUSH1 0x0 REVERT JUMPDEST PUSH1 0x0 PUSH1 0x0 NOT DUP3 EQ ISZERO PUSH2 0x2D2B JUMPI PUSH2 0x2D2B PUSH2 0x2C4E JUMP JUMPDEST POP PUSH1 0x1 ADD SWAP1 JUMP JUMPDEST PUSH1 0x0 DUP2 PUSH1 0x0 NOT DIV DUP4 GT DUP3 ISZERO ISZERO AND ISZERO PUSH2 0x2D4C JUMPI PUSH2 0x2D4C PUSH2 0x2C4E JUMP JUMPDEST POP MUL SWAP1 JUMP JUMPDEST PUSH1 0x0 DUP3 PUSH2 0x2D6E JUMPI PUSH4 0x4E487B71 PUSH1 0xE0 SHL PUSH1 0x0 MSTORE PUSH1 0x12 PUSH1 0x4 MSTORE PUSH1 0x24 PUSH1 0x0 REVERT JUMPDEST POP DIV SWAP1 JUMP JUMPDEST PUSH1 0x0 DUP3 NOT DUP3 GT ISZERO PUSH2 0x2D86 JUMPI PUSH2 0x2D86 PUSH2 0x2C4E JUMP JUMPDEST POP ADD SWAP1 JUMP JUMPDEST PUSH1 0x0 JUMPDEST DUP4 DUP2 LT ISZERO PUSH2 0x2DA6 JUMPI DUP2 DUP2 ADD MLOAD DUP4 DUP3 ADD MSTORE PUSH1 0x20 ADD PUSH2 0x2D8E JUMP JUMPDEST DUP4 DUP2 GT ISZERO PUSH2 0x1867 JUMPI POP POP PUSH1 0x0 SWAP2 ADD MSTORE JUMP JUMPDEST PUSH1 0x0 DUP3 MLOAD PUSH2 0x2DC9 DUP2 DUP5 PUSH1 0x20 DUP8 ADD PUSH2 0x2D8B JUMP JUMPDEST SWAP2 SWAP1 SWAP2 ADD SWAP3 SWAP2 POP POP JUMP JUMPDEST PUSH1 0x20 DUP2 MSTORE PUSH1 0x0 DUP3 MLOAD DUP1 PUSH1 0x20 DUP5 ADD MSTORE PUSH2 0x2DF2 DUP2 PUSH1 0x40 DUP6 ADD PUSH1 0x20 DUP8 ADD PUSH2 0x2D8B JUMP JUMPDEST PUSH1 0x1F ADD PUSH1 0x1F NOT AND SWAP2 SWAP1 SWAP2 ADD PUSH1 0x40 ADD SWAP3 SWAP2 POP POP JUMP INVALID LOG2 PUSH5 0x6970667358 0x22 SLT KECCAK256 AND STATICCALL 0xD4 JUMPI STOP 0xE4 0xE2 0xE7 EQ GT PUSH5 0xAA7F88556E 0xB9 SWAP16 EXP SWAP5 CALLER PUSH5 0x762557B2B2 DUP10 0xBA MSIZE MSTORE8 0xA6 PUSH5 0x736F6C6343 STOP ADDMOD 0xC STOP CALLER ",
  "sha1": "294eb8b1d675c9a576b643640a892836408a795b",
  "source": "//SPDX-License-Identifier: MIT\npragma solidity >=0.6.5;\n\n//BSC Address: 0x9D1Bc6843130fCAc8A609Bd9cb02Fb8A1E95630e\n//openzeppelin\nimport \"@openzeppelin/contracts/access/Ownable.sol\";\nimport \"@openzeppelin/contracts/utils/math/SafeMath.sol\";\nimport \"@openzeppelin/contracts/token/ERC20/utils/SafeERC20.sol\";\n\n//bitcrush\nimport \"./CrushToken.sol\";\nimport \"./Bankroll.sol\";\n\n//import \"./LiveWallet.sol\";\n\ncontract BitcrushStaking is Ownable {\n    using SafeMath for uint256;\n    using SafeERC20 for CRUSHToken;\n    uint256 public constant MAX_CRUSH_PER_BLOCK = 10000000000000000000;\n    uint256 public constant MAX_FEE = 1000; // 1000/10000 * 100 = 10%\n    uint256 public performanceFeeCompounder = 10; // 10/10000 * 100 = 0.1%\n    uint256 public performanceFeeBurn = 100; // 100/10000 * 100 = 1%\n    uint256 public constant divisor = 10000;\n\n    uint256 public earlyWithdrawFee = 50; // 50/10000 * 100 = 0.5%\n    uint256 public frozenEarlyWithdrawFee = 1500; // 1500/10000 * 100 = 15%\n    uint256 public performanceFeeReserve = 190; // 190/10000 * 100 = 1.9%\n\n    uint256 public frozenEarlyWithdrawFeeTime = 10800;\n\n    uint256 public blockPerSecond = 3;\n    uint256 public earlyWithdrawFeeTime = (72 * 60 * 60) / blockPerSecond;\n    uint256 public apyBoost = 2500; //2500/10000 * 100 = 25%\n    uint256 public totalShares;\n\n    // Contracts to Interact with\n    CRUSHToken public immutable crush;\n    BitcrushBankroll public bankroll;\n    BitcrushLiveWallet public liveWallet;\n    // Team address to maintain funds\n    address public reserveAddress;\n\n    struct UserStaking {\n        uint256 shares;\n        uint256 stakedAmount;\n        uint256 claimedAmount;\n        uint256 lastBlockCompounded;\n        uint256 lastBlockStaked;\n        uint256 index;\n        uint256 lastFrozenWithdraw;\n        uint256 apyBaseline;\n        uint256 profitBaseline;\n    }\n    mapping(address => UserStaking) public stakings;\n    address[] public addressIndexes;\n\n    uint256 public lastAutoCompoundBlock;\n\n    uint256 public batchStartingIndex;\n    uint256 public crushPerBlock = 5500000000000000000;\n    // Pool Accumulated Reward Per Share (APY)\n    uint256 public accRewardPerShare;\n    uint256 public lastRewardBlock;\n    // Profit Accumulated Reward Per Share\n    uint256 public accProfitPerShare;\n    // Tracking Totals\n    uint256 public totalPool; // Reward for Staking\n    uint256 public totalStaked;\n    uint256 public totalClaimed; // Total Claimed as rewards\n    uint256 public totalFrozen;\n    uint256 public totalProfitsClaimed;\n    uint256 public totalProfitDistributed; // Total Claimed as Profits\n\n    uint256 public autoCompoundLimit = 10; // Max Batch Size\n\n    uint256 public deploymentTimeStamp;\n\n    event RewardPoolUpdated(uint256 indexed _totalPool);\n    event StakeUpdated(address indexed recipeint, uint256 indexed _amount);\n\n    constructor(\n        CRUSHToken _crush,\n        uint256 _crushPerBlock,\n        address _reserveAddress\n    ) {\n        crush = _crush;\n        if (_crushPerBlock <= MAX_CRUSH_PER_BLOCK) {\n            crushPerBlock = _crushPerBlock;\n        }\n        reserveAddress = _reserveAddress;\n        deploymentTimeStamp = block.timestamp;\n        lastRewardBlock = block.number;\n    }\n\n    /// Store `_bankroll`.\n    /// @param _bankroll the new value to store\n    /// @dev stores the _bankroll address in the state variable `bankroll`\n    function setBankroll(BitcrushBankroll _bankroll) public onlyOwner {\n        require(\n            address(bankroll) == address(0),\n            \"Bankroll address already set\"\n        );\n        bankroll = _bankroll;\n    }\n\n    /// Store `_liveWallet`.\n    /// @param _liveWallet the new value to store\n    /// @dev stores the _liveWallet address in the state variable `liveWallet`\n    function setLiveWallet(BitcrushLiveWallet _liveWallet) public onlyOwner {\n        require(\n            address(liveWallet) == address(0),\n            \"Live Wallet address already set\"\n        );\n        liveWallet = _liveWallet;\n    }\n\n    /// Adds the provided amount to the totalPool\n    /// @param _amount the amount to add\n    /// @dev adds the provided amount to `totalPool` state variable\n    function addRewardToPool(uint256 _amount) public {\n        require(\n            crush.balanceOf(msg.sender) >= _amount,\n            \"Insufficient Crush tokens for transfer\"\n        );\n        totalPool = totalPool.add(_amount);\n        crush.safeTransferFrom(msg.sender, address(this), _amount);\n        emit RewardPoolUpdated(totalPool);\n    }\n\n    /// @notice updates accRewardPerShare based on the last block calculated and totalShares\n    /// @dev accRewardPerShare is accumulative, meaning it always holds the total historic\n    /// rewardPerShare making apyBaseline necessary to keep rewards fair\n    function updateDistribution() public {\n        if (block.number <= lastRewardBlock) return;\n        if (totalStaked == 0) {\n            lastRewardBlock = block.number;\n            return;\n        }\n        uint256 rewardPerBlock = crushPerBlock;\n        if (totalFrozen > 0)\n            rewardPerBlock = rewardPerBlock.add(\n                crushPerBlock.mul(apyBoost).div(divisor)\n            );\n        if (totalPool == 0) rewardPerBlock = 0;\n        uint256 blocksSinceCalc = block.number.sub(lastRewardBlock);\n        uint256 rewardCalc = blocksSinceCalc.mul(rewardPerBlock).mul(1e12).div(\n            totalShares\n        );\n        accRewardPerShare = accRewardPerShare.add(rewardCalc);\n        lastRewardBlock = block.number;\n    }\n\n    /// @notice updates accProfitPerShare based on current Profit available and totalShares\n    /// @dev this allows for consistent profit reporting and no change on profits to distribute\n    function updateProfits() public {\n        if (totalShares == 0) return;\n        uint256 requestedProfits = bankroll.transferProfit();\n        if (requestedProfits == 0) return;\n        totalProfitDistributed = totalProfitDistributed.add(requestedProfits);\n        uint256 profitCalc = requestedProfits.mul(1e12).div(totalShares);\n        accProfitPerShare = accProfitPerShare.add(profitCalc);\n    }\n\n    function setCrushPerBlock(uint256 _amount) public onlyOwner {\n        require(_amount >= 0, \"Crush per Block can not be negative\");\n        require(\n            _amount <= MAX_CRUSH_PER_BLOCK,\n            \"Crush Per Block can not be more than 10\"\n        );\n        crushPerBlock = _amount;\n    }\n\n    /// Stake the provided amount\n    /// @param _amount the amount to stake\n    /// @dev stakes the provided amount\n    function enterStaking(uint256 _amount) public {\n        require(\n            crush.balanceOf(msg.sender) >= _amount,\n            \"Insufficient Crush tokens for transfer\"\n        );\n        require(_amount > 0, \"Invalid staking amount\");\n\n        updateDistribution();\n        updateProfits();\n        crush.safeTransferFrom(msg.sender, address(this), _amount);\n        if (totalStaked == 0) {\n            lastAutoCompoundBlock = block.number;\n        }\n        UserStaking storage user = stakings[msg.sender];\n\n        if (user.stakedAmount == 0) {\n            user.lastBlockCompounded = block.number;\n            addressIndexes.push(msg.sender);\n            user.index = addressIndexes.length - 1;\n        } else {\n            uint256 pending = user.shares.mul(accRewardPerShare).div(1e12).sub(\n                user.apyBaseline\n            );\n            if (pending > totalPool) pending = totalPool;\n            totalPool = totalPool.sub(pending);\n            uint256 profitPending = user\n                .shares\n                .mul(accProfitPerShare)\n                .div(1e12)\n                .sub(user.profitBaseline);\n            pending = pending.add(profitPending);\n            if (pending > 0) {\n                crush.safeTransfer(msg.sender, pending);\n                user.claimedAmount = user.claimedAmount.add(pending);\n                totalClaimed = totalClaimed.add(pending);\n                totalProfitsClaimed = totalProfitsClaimed.add(profitPending);\n            }\n        }\n\n        uint256 currentShares = 0;\n        if (totalShares != 0)\n            currentShares = _amount.mul(totalShares).div(totalStaked);\n        else currentShares = _amount;\n\n        totalStaked = totalStaked.add(_amount);\n        totalShares = totalShares.add(currentShares);\n        if (user.shares == 0) {\n            user.lastBlockCompounded = block.number;\n        }\n        user.shares = user.shares.add(currentShares);\n        user.profitBaseline = accProfitPerShare.mul(user.shares).div(1e12);\n        user.apyBaseline = accRewardPerShare.mul(user.shares).div(1e12);\n        user.stakedAmount = user.stakedAmount.add(_amount);\n        user.lastBlockStaked = block.number;\n    }\n\n    /// Leaves staking for a user by the specified amount and transfering staked amount and reward to users address\n    /// @param _amount the amount to unstake\n    /// @dev leaves staking and deducts total pool by the users reward. early withdrawal fee applied if withdraw is made before earlyWithdrawFeeTime\n    function leaveStaking(uint256 _amount, bool _liveWallet) external {\n        updateDistribution();\n        updateProfits();\n        UserStaking storage user = stakings[msg.sender];\n        uint256 reward = user.shares.mul(accRewardPerShare).div(1e12).sub(\n            user.apyBaseline\n        );\n        uint256 profitShare = user.shares.mul(accProfitPerShare).div(1e12).sub(\n            user.profitBaseline\n        );\n        if (reward > totalPool) reward = totalPool;\n        totalPool = totalPool.sub(reward);\n        reward = reward.add(profitShare);\n        totalProfitsClaimed = totalProfitsClaimed.add(profitShare);\n        user.lastBlockCompounded = block.number;\n\n        uint256 availableStaked = user.stakedAmount;\n        if (totalFrozen > 0) {\n            availableStaked = availableStaked.sub(\n                totalFrozen.mul(user.stakedAmount).div(totalStaked)\n            );\n            require(\n                availableStaked >= _amount,\n                \"Frozen Funds: Can't withdraw more than Available funds\"\n            );\n        } else if (user.lastFrozenWithdraw > 0) {\n            user.lastFrozenWithdraw = 0;\n        }\n        require(\n            availableStaked >= _amount,\n            \"Withdraw amount can not be greater than available staked amount\"\n        );\n        totalStaked = totalStaked.sub(_amount);\n\n        uint256 shareReduction = _amount.mul(user.shares).div(\n            user.stakedAmount\n        );\n        user.stakedAmount = user.stakedAmount.sub(_amount);\n        user.shares = user.shares.sub(shareReduction);\n        totalShares = totalShares.sub(shareReduction);\n        user.apyBaseline = user.shares.mul(accRewardPerShare).div(1e12);\n        user.profitBaseline = user.shares.mul(accProfitPerShare).div(1e12);\n        _amount = _amount.add(reward);\n        if (totalFrozen > 0) {\n            if (user.lastFrozenWithdraw > 0)\n                require(\n                    block.timestamp >\n                        user.lastFrozenWithdraw.add(frozenEarlyWithdrawFeeTime),\n                    \"Only One Withdraw allowed per 3 hours during freeze\"\n                );\n\n            uint256 withdrawalFee = _amount.mul(frozenEarlyWithdrawFee).div(\n                divisor\n            );\n            user.lastFrozenWithdraw = block.timestamp;\n            _amount = _amount.sub(withdrawalFee);\n\n            if (withdrawalFee > totalFrozen) {\n                uint256 remainder = withdrawalFee.sub(totalFrozen);\n                crush.approve(address(bankroll), remainder);\n                totalFrozen = 0;\n            } else totalFrozen = totalFrozen.sub(withdrawalFee);\n\n            bankroll.recoverBankroll(withdrawalFee);\n        } else if (\n            block.number < user.lastBlockStaked.add(earlyWithdrawFeeTime)\n        ) {\n            //apply fee\n            uint256 withdrawalFee = _amount.mul(earlyWithdrawFee).div(divisor);\n            _amount = _amount.sub(withdrawalFee);\n            crush.safeTransfer(reserveAddress, withdrawalFee);\n        }\n\n        if (_liveWallet == false) crush.safeTransfer(msg.sender, _amount);\n        else {\n            crush.approve(address(liveWallet), _amount);\n            liveWallet.addbetWithAddress(_amount, msg.sender);\n        }\n        user.claimedAmount = user.claimedAmount.add(reward);\n        totalClaimed = totalClaimed.add(reward);\n        //remove from batchig array\n        if (user.stakedAmount == 0) {\n            if (user.index != addressIndexes.length - 1) {\n                address lastAddress = addressIndexes[addressIndexes.length - 1];\n                addressIndexes[user.index] = lastAddress;\n                stakings[lastAddress].index = user.index;\n            }\n            addressIndexes.pop();\n        }\n        emit RewardPoolUpdated(totalPool);\n    }\n\n    /// Get pending rewards of a user for UI\n    /// @param _address the address to calculate the reward for\n    /// @dev calculates potential reward for the address provided based on crush per block\n    function pendingReward(address _address) external view returns (uint256) {\n        UserStaking storage user = stakings[_address];\n        uint256 rewardPerBlock = crushPerBlock;\n        if (totalFrozen > 0)\n            rewardPerBlock = rewardPerBlock.add(\n                crushPerBlock.mul(apyBoost).div(divisor)\n            );\n        if (totalPool == 0) rewardPerBlock = 0;\n        uint256 localAccRewardPerShare = accRewardPerShare;\n        if (block.number > lastRewardBlock && totalShares != 0) {\n            uint256 blocksSinceCalc = block.number.sub(lastRewardBlock);\n            uint256 rewardCalc = blocksSinceCalc\n                .mul(rewardPerBlock)\n                .mul(1e12)\n                .div(totalShares);\n            localAccRewardPerShare = accRewardPerShare.add(rewardCalc);\n        }\n        return\n            user.shares.mul(localAccRewardPerShare).div(1e12).sub(\n                user.apyBaseline\n            );\n    }\n\n    /// Get pending Profits to Claim\n    /// @param _address the user's wallet address to calculate profits\n    /// @return pending Profits to be claimed by this user\n    function pendingProfits(address _address) public view returns (uint256) {\n        UserStaking storage user = stakings[_address];\n        return\n            user.shares.mul(accProfitPerShare).div(1e12).sub(\n                user.profitBaseline\n            );\n    }\n\n    /// compounds the rewards of all users in the pool\n    /// @dev compounds the rewards of all users in the pool add adds it into their staked amount while deducting fees\n    function compoundAll() public {\n        require(\n            lastAutoCompoundBlock <= block.number,\n            \"Compound All not yet applicable.\"\n        );\n        require(totalStaked > 0, \"No Staked rewards to claim\");\n        uint256 crushToBurn = 0;\n        uint256 performanceFee = 0;\n\n        uint256 compounderReward = 0;\n        uint256 totalPoolDeducted = 0;\n\n        uint256 batchStart = batchStartingIndex;\n        if (batchStartingIndex >= addressIndexes.length) batchStart = 0;\n\n        uint256 batchLimit = addressIndexes.length;\n        if (\n            addressIndexes.length <= autoCompoundLimit ||\n            batchStart.add(autoCompoundLimit) >= addressIndexes.length\n        ) batchLimit = addressIndexes.length;\n        else batchLimit = batchStart.add(autoCompoundLimit);\n\n        updateProfits();\n        updateDistribution();\n        for (uint256 i = batchStart; i < batchLimit; i++) {\n            UserStaking storage currentUser = stakings[addressIndexes[i]];\n            uint256 stakerReward = currentUser\n                .shares\n                .mul(accRewardPerShare)\n                .div(1e12)\n                .sub(currentUser.apyBaseline);\n            if (totalPool < totalPoolDeducted.add(stakerReward)) {\n                stakerReward = totalPool.sub(totalPoolDeducted);\n            }\n            currentUser.apyBaseline = currentUser.apyBaseline.add(stakerReward);\n            if (stakerReward > 0)\n                totalPoolDeducted = totalPoolDeducted.add(stakerReward);\n            uint256 profitReward = currentUser\n                .shares\n                .mul(accProfitPerShare)\n                .div(1e12)\n                .sub(currentUser.profitBaseline);\n            currentUser.profitBaseline = currentUser.profitBaseline.add(\n                profitReward\n            );\n            stakerReward = stakerReward.add(profitReward);\n            if (stakerReward > 0) {\n                totalProfitsClaimed = totalProfitsClaimed.add(profitReward);\n                totalClaimed = totalClaimed.add(stakerReward);\n                uint256 stakerBurn = stakerReward.mul(performanceFeeBurn).div(\n                    divisor\n                );\n                crushToBurn = crushToBurn.add(stakerBurn);\n\n                uint256 cpAllReward = stakerReward\n                    .mul(performanceFeeCompounder)\n                    .div(divisor);\n                compounderReward = compounderReward.add(cpAllReward);\n\n                uint256 feeReserve = stakerReward\n                    .mul(performanceFeeReserve)\n                    .div(divisor);\n                performanceFee = performanceFee.add(feeReserve);\n                stakerReward = stakerReward.sub(stakerBurn);\n                stakerReward = stakerReward.sub(cpAllReward);\n                stakerReward = stakerReward.sub(feeReserve);\n                currentUser.claimedAmount = currentUser.claimedAmount.add(\n                    stakerReward\n                );\n                currentUser.stakedAmount = currentUser.stakedAmount.add(\n                    stakerReward\n                );\n\n                totalStaked = totalStaked.add(stakerReward);\n            }\n            currentUser.lastBlockCompounded = block.number;\n        }\n        batchStartingIndex = batchLimit;\n        if (batchStartingIndex >= addressIndexes.length) {\n            batchStartingIndex = 0;\n        }\n        totalPool = totalPool.sub(totalPoolDeducted);\n        lastAutoCompoundBlock = block.number;\n        crush.burn(crushToBurn);\n        crush.safeTransfer(msg.sender, compounderReward);\n        crush.safeTransfer(reserveAddress, performanceFee);\n    }\n\n    /// freeze certain funds in the staking pool and transfer them to the live wallet address\n    /// @dev adds the provided amount to the total frozen variablle\n    function freezeStaking(\n        uint256 _amount,\n        address _recipient,\n        address _lwAddress\n    ) public {\n        require(msg.sender == address(bankroll), \"Callet must be bankroll\");\n        //divide amount over users\n        //update user mapping to reflect frozen amount\n        require(\n            _amount <= totalStaked.sub(totalFrozen),\n            \"Freeze amount should be less than or equal to available funds\"\n        );\n        totalFrozen = totalFrozen.add(_amount);\n        BitcrushLiveWallet currentLw = BitcrushLiveWallet(_lwAddress);\n        currentLw.addToUserWinnings(_amount, _recipient);\n        crush.safeTransfer(address(_lwAddress), _amount);\n        updateDistribution();\n        updateProfits();\n    }\n\n    /// unfreeze previously frozen funds from the staking pool\n    /// @dev deducts the provided amount from the total frozen variablle\n    function unfreezeStaking(uint256 _amount) public {\n        require(msg.sender == address(bankroll), \"Caller must be bankroll\");\n        require(\n            _amount <= totalFrozen,\n            \"unfreeze amount cant be greater than currently frozen amount\"\n        );\n        totalFrozen = totalFrozen.sub(_amount);\n        updateDistribution();\n        updateProfits();\n    }\n\n    /// returns the total count of users in the staking pool.\n    /// @dev returns the total stakers in the staking pool by reading length of addressIndexes array\n    function indexesLength() external view returns (uint256 _addressesLength) {\n        _addressesLength = addressIndexes.length;\n    }\n\n    /// Store `_fee`.\n    /// @param _fee the new value to store\n    /// @dev stores the fee in the state variable `performanceFeeCompounder`\n    function setPerformanceFeeCompounder(uint256 _fee) public onlyOwner {\n        require(_fee > 0, \"Fee must be greater than 0\");\n        require(_fee < MAX_FEE, \"Fee must be less than 10%\");\n        performanceFeeCompounder = _fee;\n    }\n\n    /// Store `_fee`.\n    /// @param _fee the new value to store\n    /// @dev stores the fee in the state variable `performanceFeeBurn`\n    function setPerformanceFeeBurn(uint256 _fee) public onlyOwner {\n        require(_fee > 0, \"Fee must be greater than 0\");\n        require(_fee < MAX_FEE, \"Fee must be less than 10%\");\n        performanceFeeBurn = _fee;\n    }\n\n    /// Store `_fee`.\n    /// @param _fee the new value to store\n    /// @dev stores the fee in the state variable `earlyWithdrawFee`\n    function setEarlyWithdrawFee(uint256 _fee) public onlyOwner {\n        require(_fee > 0, \"Fee must be greater than 0\");\n        require(_fee < MAX_FEE, \"Fee must be less than 10%\");\n        earlyWithdrawFee = _fee;\n    }\n\n    /// Store `_fee`.\n    /// @param _fee the new value to store\n    /// @dev stores the fee in the state variable `performanceFeeReserve`\n    function setPerformanceFeeReserve(uint256 _fee) public onlyOwner {\n        require(_fee > 0, \"Fee must be greater than 0\");\n        require(_fee <= MAX_FEE, \"Fee must be less than 10%\");\n        performanceFeeReserve = _fee;\n    }\n\n    /// Store `_time`.\n    /// @param _time the new value to store\n    /// @dev stores the time in the state variable `earlyWithdrawFeeTime`\n    function setEarlyWithdrawFeeTime(uint256 _time) public onlyOwner {\n        require(_time > 0, \"Time must be greater than 0\");\n        earlyWithdrawFeeTime = _time;\n    }\n\n    /// Store `_limit`.\n    /// @param _limit the new value to store\n    /// @dev stores the limit in the state variable `autoCompoundLimit`\n    function setAutoCompoundLimit(uint256 _limit) public onlyOwner {\n        require(_limit > 0, \"Limit can not be 0\");\n        require(_limit < 30, \"Max autocompound limit cannot be greater 30\");\n        autoCompoundLimit = _limit;\n    }\n\n    /// emergency withdraw funds of users\n    /// @dev transfer all available funds of users to users wallet\n    function emergencyWithdraw() public {\n        updateDistribution();\n\n        UserStaking storage user = stakings[msg.sender];\n        user.lastBlockCompounded = block.number;\n\n        uint256 availableStaked = user.stakedAmount;\n        if (totalFrozen > 0) {\n            availableStaked = availableStaked.sub(\n                totalFrozen.mul(user.stakedAmount).div(totalStaked)\n            );\n        } else if (user.lastFrozenWithdraw > 0) {\n            user.lastFrozenWithdraw = 0;\n        }\n\n        totalStaked = totalStaked.sub(availableStaked);\n\n        uint256 shareReduction = availableStaked.mul(user.shares).div(\n            user.stakedAmount\n        );\n        user.stakedAmount = user.stakedAmount.sub(availableStaked);\n        user.shares = user.shares.sub(shareReduction);\n        totalShares = totalShares.sub(shareReduction);\n        user.apyBaseline = user.shares.mul(accRewardPerShare).div(1e12);\n        user.profitBaseline = user.shares.mul(accProfitPerShare).div(1e12);\n\n        if (totalFrozen > 0) {\n            if (user.lastFrozenWithdraw > 0)\n                require(\n                    block.timestamp >\n                        user.lastFrozenWithdraw.add(frozenEarlyWithdrawFeeTime),\n                    \"Only One Withdraw allowed per 3 hours during freeze\"\n                );\n\n            uint256 withdrawalFee = availableStaked\n                .mul(frozenEarlyWithdrawFee)\n                .div(divisor);\n            user.lastFrozenWithdraw = block.timestamp;\n            availableStaked = availableStaked.sub(withdrawalFee);\n\n            if (withdrawalFee > totalFrozen) {\n                uint256 remainder = withdrawalFee.sub(totalFrozen);\n                crush.approve(address(bankroll), remainder);\n                totalFrozen = 0;\n            } else totalFrozen = totalFrozen.sub(withdrawalFee);\n\n            crush.safeTransfer(reserveAddress, withdrawalFee);\n        } else if (\n            block.number < user.lastBlockStaked.add(earlyWithdrawFeeTime)\n        ) {\n            //apply fee\n            uint256 withdrawalFee = availableStaked.mul(earlyWithdrawFee).div(\n                divisor\n            );\n            availableStaked = availableStaked.sub(withdrawalFee);\n            crush.safeTransfer(reserveAddress, withdrawalFee);\n        }\n\n        crush.safeTransfer(msg.sender, availableStaked);\n\n        //remove from batchig array\n        if (user.stakedAmount == 0) {\n            if (user.index != addressIndexes.length - 1) {\n                address lastAddress = addressIndexes[addressIndexes.length - 1];\n                addressIndexes[user.index] = lastAddress;\n                stakings[lastAddress].index = user.index;\n            }\n            addressIndexes.pop();\n        }\n        emit RewardPoolUpdated(totalPool);\n    }\n}\n",
  "sourcePath": "contracts/BankStaking.sol",
  "type": "contract"
}