{
  "abi": [
    {
      "inputs": [
        {
          "internalType": "contract ERC20Burnable",
          "name": "_crush",
          "type": "address"
        },
        {
          "internalType": "contract BitcrushStaking",
          "name": "_stakingPool",
          "type": "address"
        },
        {
          "internalType": "address",
          "name": "_reserve",
          "type": "address"
        },
        {
          "internalType": "address",
          "name": "_lottery",
          "type": "address"
        },
        {
          "internalType": "uint256",
          "name": "_profitShare",
          "type": "uint256"
        },
        {
          "internalType": "uint256",
          "name": "_houseBankrollShare",
          "type": "uint256"
        },
        {
          "internalType": "uint256",
          "name": "_lotteryShare",
          "type": "uint256"
        },
        {
          "internalType": "uint256",
          "name": "_reserveShare",
          "type": "uint256"
        },
        {
          "internalType": "address",
          "name": "_admin",
          "type": "address"
        }
      ],
      "stateMutability": "nonpayable",
      "type": "constructor"
    },
    {
      "anonymous": false,
      "inputs": [
        {
          "indexed": true,
          "internalType": "address",
          "name": "previousOwner",
          "type": "address"
        },
        {
          "indexed": true,
          "internalType": "address",
          "name": "newOwner",
          "type": "address"
        }
      ],
      "name": "OwnershipTransferred",
      "type": "event"
    },
    {
      "anonymous": false,
      "inputs": [
        {
          "indexed": false,
          "internalType": "uint256",
          "name": "_houseBankrollShare",
          "type": "uint256"
        },
        {
          "indexed": false,
          "internalType": "uint256",
          "name": "_profitShare",
          "type": "uint256"
        },
        {
          "indexed": false,
          "internalType": "uint256",
          "name": "_lotteryShare",
          "type": "uint256"
        },
        {
          "indexed": false,
          "internalType": "uint256",
          "name": "_reserveShare",
          "type": "uint256"
        }
      ],
      "name": "SharesUpdated",
      "type": "event"
    },
    {
      "inputs": [],
      "name": "BURN_RATE",
      "outputs": [
        {
          "internalType": "uint256",
          "name": "",
          "type": "uint256"
        }
      ],
      "stateMutability": "view",
      "type": "function"
    },
    {
      "inputs": [],
      "name": "DIVISOR",
      "outputs": [
        {
          "internalType": "uint256",
          "name": "",
          "type": "uint256"
        }
      ],
      "stateMutability": "view",
      "type": "function"
    },
    {
      "inputs": [
        {
          "internalType": "uint256",
          "name": "_amount",
          "type": "uint256"
        }
      ],
      "name": "addToBankroll",
      "outputs": [],
      "stateMutability": "nonpayable",
      "type": "function"
    },
    {
      "inputs": [
        {
          "internalType": "uint256",
          "name": "_amount",
          "type": "uint256"
        }
      ],
      "name": "addUserLoss",
      "outputs": [],
      "stateMutability": "nonpayable",
      "type": "function"
    },
    {
      "inputs": [
        {
          "internalType": "address",
          "name": "_address",
          "type": "address"
        }
      ],
      "name": "authorizeAddress",
      "outputs": [],
      "stateMutability": "nonpayable",
      "type": "function"
    },
    {
      "inputs": [
        {
          "internalType": "address",
          "name": "",
          "type": "address"
        }
      ],
      "name": "authorizedAddresses",
      "outputs": [
        {
          "internalType": "bool",
          "name": "",
          "type": "bool"
        }
      ],
      "stateMutability": "view",
      "type": "function"
    },
    {
      "inputs": [],
      "name": "brSinceCompound",
      "outputs": [
        {
          "internalType": "uint256",
          "name": "",
          "type": "uint256"
        }
      ],
      "stateMutability": "view",
      "type": "function"
    },
    {
      "inputs": [],
      "name": "crush",
      "outputs": [
        {
          "internalType": "contract ERC20Burnable",
          "name": "",
          "type": "address"
        }
      ],
      "stateMutability": "view",
      "type": "function"
    },
    {
      "inputs": [],
      "name": "houseBankrollShare",
      "outputs": [
        {
          "internalType": "uint256",
          "name": "",
          "type": "uint256"
        }
      ],
      "stateMutability": "view",
      "type": "function"
    },
    {
      "inputs": [],
      "name": "lottery",
      "outputs": [
        {
          "internalType": "address",
          "name": "",
          "type": "address"
        }
      ],
      "stateMutability": "view",
      "type": "function"
    },
    {
      "inputs": [],
      "name": "lotteryShare",
      "outputs": [
        {
          "internalType": "uint256",
          "name": "",
          "type": "uint256"
        }
      ],
      "stateMutability": "view",
      "type": "function"
    },
    {
      "inputs": [],
      "name": "negativeBankroll",
      "outputs": [
        {
          "internalType": "uint256",
          "name": "",
          "type": "uint256"
        }
      ],
      "stateMutability": "view",
      "type": "function"
    },
    {
      "inputs": [],
      "name": "negativeBrSinceCompound",
      "outputs": [
        {
          "internalType": "uint256",
          "name": "",
          "type": "uint256"
        }
      ],
      "stateMutability": "view",
      "type": "function"
    },
    {
      "inputs": [],
      "name": "owner",
      "outputs": [
        {
          "internalType": "address",
          "name": "",
          "type": "address"
        }
      ],
      "stateMutability": "view",
      "type": "function"
    },
    {
      "inputs": [
        {
          "internalType": "uint256",
          "name": "_amount",
          "type": "uint256"
        },
        {
          "internalType": "address",
          "name": "_winner",
          "type": "address"
        }
      ],
      "name": "payOutUserWinning",
      "outputs": [],
      "stateMutability": "nonpayable",
      "type": "function"
    },
    {
      "inputs": [],
      "name": "poolDepleted",
      "outputs": [
        {
          "internalType": "bool",
          "name": "",
          "type": "bool"
        }
      ],
      "stateMutability": "view",
      "type": "function"
    },
    {
      "inputs": [],
      "name": "profitShare",
      "outputs": [
        {
          "internalType": "uint256",
          "name": "",
          "type": "uint256"
        }
      ],
      "stateMutability": "view",
      "type": "function"
    },
    {
      "inputs": [],
      "name": "profitThreshold",
      "outputs": [
        {
          "internalType": "uint256",
          "name": "",
          "type": "uint256"
        }
      ],
      "stateMutability": "view",
      "type": "function"
    },
    {
      "inputs": [
        {
          "internalType": "uint256",
          "name": "_amount",
          "type": "uint256"
        }
      ],
      "name": "recoverBankroll",
      "outputs": [],
      "stateMutability": "nonpayable",
      "type": "function"
    },
    {
      "inputs": [
        {
          "internalType": "address",
          "name": "_address",
          "type": "address"
        }
      ],
      "name": "removeAuthorization",
      "outputs": [],
      "stateMutability": "nonpayable",
      "type": "function"
    },
    {
      "inputs": [],
      "name": "renounceOwnership",
      "outputs": [],
      "stateMutability": "nonpayable",
      "type": "function"
    },
    {
      "inputs": [],
      "name": "reserve",
      "outputs": [
        {
          "internalType": "address",
          "name": "",
          "type": "address"
        }
      ],
      "stateMutability": "view",
      "type": "function"
    },
    {
      "inputs": [],
      "name": "reserveShare",
      "outputs": [
        {
          "internalType": "uint256",
          "name": "",
          "type": "uint256"
        }
      ],
      "stateMutability": "view",
      "type": "function"
    },
    {
      "inputs": [
        {
          "internalType": "address",
          "name": "_admin",
          "type": "address"
        }
      ],
      "name": "setAdmin",
      "outputs": [],
      "stateMutability": "nonpayable",
      "type": "function"
    },
    {
      "inputs": [
        {
          "internalType": "address",
          "name": "_lottery",
          "type": "address"
        }
      ],
      "name": "setLotteryAddress",
      "outputs": [],
      "stateMutability": "nonpayable",
      "type": "function"
    },
    {
      "inputs": [
        {
          "internalType": "uint256",
          "name": "_threshold",
          "type": "uint256"
        }
      ],
      "name": "setProfitThreshold",
      "outputs": [],
      "stateMutability": "nonpayable",
      "type": "function"
    },
    {
      "inputs": [
        {
          "internalType": "address",
          "name": "_reserve",
          "type": "address"
        }
      ],
      "name": "setReserveAddress",
      "outputs": [],
      "stateMutability": "nonpayable",
      "type": "function"
    },
    {
      "inputs": [
        {
          "internalType": "uint256",
          "name": "_houseBankrollShare",
          "type": "uint256"
        },
        {
          "internalType": "uint256",
          "name": "_profitShare",
          "type": "uint256"
        },
        {
          "internalType": "uint256",
          "name": "_lotteryShare",
          "type": "uint256"
        },
        {
          "internalType": "uint256",
          "name": "_reserveShare",
          "type": "uint256"
        }
      ],
      "name": "setShares",
      "outputs": [],
      "stateMutability": "nonpayable",
      "type": "function"
    },
    {
      "inputs": [],
      "name": "stakingPool",
      "outputs": [
        {
          "internalType": "contract BitcrushStaking",
          "name": "",
          "type": "address"
        }
      ],
      "stateMutability": "view",
      "type": "function"
    },
    {
      "inputs": [],
      "name": "totalBankroll",
      "outputs": [
        {
          "internalType": "uint256",
          "name": "",
          "type": "uint256"
        }
      ],
      "stateMutability": "view",
      "type": "function"
    },
    {
      "inputs": [],
      "name": "totalProfit",
      "outputs": [
        {
          "internalType": "uint256",
          "name": "",
          "type": "uint256"
        }
      ],
      "stateMutability": "view",
      "type": "function"
    },
    {
      "inputs": [],
      "name": "totalWinnings",
      "outputs": [
        {
          "internalType": "uint256",
          "name": "",
          "type": "uint256"
        }
      ],
      "stateMutability": "view",
      "type": "function"
    },
    {
      "inputs": [
        {
          "internalType": "address",
          "name": "newOwner",
          "type": "address"
        }
      ],
      "name": "transferOwnership",
      "outputs": [],
      "stateMutability": "nonpayable",
      "type": "function"
    },
    {
      "inputs": [],
      "name": "transferProfit",
      "outputs": [
        {
          "internalType": "uint256",
          "name": "",
          "type": "uint256"
        }
      ],
      "stateMutability": "nonpayable",
      "type": "function"
    }
  ],
  "bytecode": "60c06040523480156200001157600080fd5b5060405162001d8b38038062001d8b833981016040819052620000349162000105565b6200003f336200009c565b6001600160a01b0398891660805296881660a052600480549689166001600160a01b03199788161790556005805495891695871695909517909455600792909255600855600955600a55600f8054929093169116179055620001ad565b600080546001600160a01b038381166001600160a01b0319831681178455604051919092169283917f8be0079c531659141344cd1fd0a4f28419497f9722a3daafe3b4186f6b6457e09190a35050565b6001600160a01b03811681146200010257600080fd5b50565b60008060008060008060008060006101208a8c0312156200012557600080fd5b89516200013281620000ec565b60208b01519099506200014581620000ec565b60408b01519098506200015881620000ec565b60608b01519097506200016b81620000ec565b8096505060808a0151945060a08a0151935060c08a0151925060e08a015191506101008a01516200019c81620000ec565b809150509295985092959850929598565b60805160a051611b0262000289600039600081816102100152818161054c015281816105c2015281816106ae015281816106e9015281816108d801528181610b7701528181610c1601528181610db301528181610fd80152818161104e0152818161113c015261117701526000818161038c01528181610570015281816106420152818161068b0152818161076e015281816109cb01528181610a3101528181610a9301528181610b5501528181610cc101528181610ffc015281816110ce01528181611119015281816111fe01526114c70152611b026000f3fe608060405234801561001057600080fd5b50600436106102065760003560e01c8063860015191161011a578063c2e50b16116100ad578063f03b6ffc1161007c578063f03b6ffc1461040b578063f19e207e1461041e578063f2fde38b14610441578063f846a88514610454578063f974821a1461045c57600080fd5b8063c2e50b16146103d3578063cd3293de146103e6578063e3fd80dd146103f9578063e7cb3d671461040257600080fd5b8063b359a9f9116100e9578063b359a9f914610387578063b4055d15146103ae578063b72481f8146103b7578063ba13a572146103c057600080fd5b806386001519146103515780638da5cb5b1461035a5780638e4a61421461036b57806394f3f81d1461037457600080fd5b80633e1f55e41161019d57806359c53fd41161016c57806359c53fd41461030757806361433d881461031a578063704b6c021461032d578063715018a6146103405780637d903ecc1461034857600080fd5b80633e1f55e4146102da57806345c9c1d1146102e35780634a5db3b5146102eb5780634e584e11146102fe57600080fd5b806328821182116101d957806328821182146102945780632a332b2a146102a75780632feda8d4146102ba5780633410fe6e146102d157600080fd5b80630c56ae3b1461020b57806314673d311461024f578063151fac7b14610264578063203c27a614610277575b600080fd5b6102327f000000000000000000000000000000000000000000000000000000000000000081565b6040516001600160a01b0390911681526020015b60405180910390f35b61026261025d3660046118e2565b610465565b005b6102626102723660046118fd565b6104ba565b6002546102849060ff1681565b6040519015158152602001610246565b6102626102a23660046118fd565b6107aa565b6102626102b53660046118e2565b61087f565b6102c360085481565b604051908152602001610246565b6102c361271081565b6102c360075481565b6102c36108cb565b6102626102f93660046118e2565b610bbd565b6102c360095481565b6102626103153660046118fd565b610c0b565b610262610328366004611916565b610cf6565b61026261033b3660046118e2565b610e73565b610262610ebf565b6102c3600b5481565b6102c3600e5481565b6000546001600160a01b0316610232565b6102c3600c5481565b6102626103823660046118e2565b610ef5565b6102327f000000000000000000000000000000000000000000000000000000000000000081565b6102c360015481565b6102c3600d5481565b600554610232906001600160a01b031681565b6102626103e13660046118fd565b610f40565b600454610232906001600160a01b031681565b6102c360035481565b6102c3600a5481565b610262610419366004611942565b611240565b61028461042c3660046118e2565b60106020526000908152604090205460ff1681565b61026261044f3660046118e2565b611345565b6102c3606481565b6102c360065481565b6000546001600160a01b031633146104985760405162461bcd60e51b815260040161048f90611974565b60405180910390fd5b600480546001600160a01b0319166001600160a01b0392909216919091179055565b600f546001600160a01b031633146105145760405162461bcd60e51b815260206004820152601f60248201527f416363657373207265737472696374656420746f2061646d696e206f6e6c7900604482015260640161048f565b60025460ff1615156001141561076157600354811061067e576000610544600354836113dd90919063ffffffff16565b90506105a8337f00000000000000000000000000000000000000000000000000000000000000006003547f00000000000000000000000000000000000000000000000000000000000000006001600160a01b03166113f0909392919063ffffffff16565b6003546040516338e7eaa960e21b815260048101919091527f00000000000000000000000000000000000000000000000000000000000000006001600160a01b03169063e39faaa490602401600060405180830381600087803b15801561060e57600080fd5b505af1158015610622573d6000803e3d6000fd5b5050600060035550506002805460ff1916905561066a6001600160a01b037f0000000000000000000000000000000000000000000000000000000000000000163330846113f0565b6001546106779082611461565b6001555050565b6106d36001600160a01b037f000000000000000000000000000000000000000000000000000000000000000016337f0000000000000000000000000000000000000000000000000000000000000000846113f0565b6040516338e7eaa960e21b8152600481018290527f00000000000000000000000000000000000000000000000000000000000000006001600160a01b03169063e39faaa490602401600060405180830381600087803b15801561073557600080fd5b505af1158015610749573d6000803e3d6000fd5b505060035461075b92509050826113dd565b60035550565b6107966001600160a01b037f0000000000000000000000000000000000000000000000000000000000000000163330846113f0565b6001546107a39082611461565b6001555b50565b600f546001600160a01b031633146108045760405162461bcd60e51b815260206004820152601f60248201527f416363657373207265737472696374656420746f2061646d696e206f6e6c7900604482015260640161048f565b69152d02c7e14af6800000811061087a5760405162461bcd60e51b815260206004820152603460248201527f4d61782070726f666974207468726573686f6c642063616e74206265206772656044820152730c2e8cae440e8d0c2dc40626060d64086e4eae6d60631b606482015260840161048f565b600655565b6000546001600160a01b031633146108a95760405162461bcd60e51b815260040161048f90611974565b600580546001600160a01b0319166001600160a01b0392909216919091179055565b6000336001600160a01b037f000000000000000000000000000000000000000000000000000000000000000016146109455760405162461bcd60e51b815260206004820152601b60248201527f43616c6c6572206d757374206265207374616b696e6720706f6f6c0000000000604482015260640161048f565b600654600b5410610bb7576007546000901561099057600061098061271061097a600754600b5461146d90919063ffffffff16565b90611479565b905061098c8282611461565b9150505b600a54156109f65760006109b761271061097a600a54600b5461146d90919063ffffffff16565b6004549091506109f4906001600160a01b037f00000000000000000000000000000000000000000000000000000000000000008116911683611485565b505b60095415610a5c576000610a1d61271061097a600954600b5461146d90919063ffffffff16565b600554909150610a5a906001600160a01b037f00000000000000000000000000000000000000000000000000000000000000008116911683611485565b505b6000610a7a61271061097a6064600b5461146d90919063ffffffff16565b604051630852cd8d60e31b8152600481018290529091507f00000000000000000000000000000000000000000000000000000000000000006001600160a01b0316906342966c6890602401600060405180830381600087803b158015610adf57600080fd5b505af1158015610af3573d6000803e3d6000fd5b5050505060006008541115610b36576000610b2161271061097a600854600b5461146d90919063ffffffff16565b600b54909150610b3190826113dd565b600b55505b600b54600154610b45916113dd565b600155610b9c6001600160a01b037f0000000000000000000000000000000000000000000000000000000000000000167f000000000000000000000000000000000000000000000000000000000000000084611485565b600e54610ba99083611461565b600e55506000600b55919050565b50600090565b6000546001600160a01b03163314610be75760405162461bcd60e51b815260040161048f90611974565b6001600160a01b03166000908152601060205260409020805460ff19166001179055565b336001600160a01b037f00000000000000000000000000000000000000000000000000000000000000001614610c835760405162461bcd60e51b815260206004820152601b60248201527f43616c6c6572206d757374206265207374616b696e6720706f6f6c0000000000604482015260640161048f565b6003548110610ce9576000610ca3600354836113dd90919063ffffffff16565b60006003556002805460ff19169055905061066a6001600160a01b037f0000000000000000000000000000000000000000000000000000000000000000163330846113f0565b60035461075b90826113dd565b3360009081526010602052604090205460ff161515600114610d565760405162461bcd60e51b815260206004820152601960248201527810d85b1b195c881b5d5cdd08189948185d5d1a1bdc9a5e9959603a1b604482015260640161048f565b600154821115610e3b576000610d77600154846113dd90919063ffffffff16565b6002805460ff191660011790556040516323d13aff60e21b8152600481018290526001600160a01b0384811660248301523360448301529192507f000000000000000000000000000000000000000000000000000000000000000090911690638f44ebfc90606401600060405180830381600087803b158015610df957600080fd5b505af1158015610e0d573d6000803e3d6000fd5b5050600354610e1f9250905082611461565b600355600154610e309083336114ba565b506000600155610e56565b600154610e4890836113dd565b600155610e568282336114ba565b610e5f82611559565b600d54610e6c9083611461565b600d555050565b6000546001600160a01b03163314610e9d5760405162461bcd60e51b815260040161048f90611974565b600f80546001600160a01b0319166001600160a01b0392909216919091179055565b6000546001600160a01b03163314610ee95760405162461bcd60e51b815260040161048f90611974565b610ef360006115c4565b565b6000546001600160a01b03163314610f1f5760405162461bcd60e51b815260040161048f90611974565b6001600160a01b03166000908152601060205260409020805460ff19169055565b3360009081526010602052604090205460ff161515600114610fa05760405162461bcd60e51b815260206004820152601960248201527810d85b1b195c881b5d5cdd08189948185d5d1a1bdc9a5e9959603a1b604482015260640161048f565b60025460ff161515600114156111f157600354811061110c576000610fd0600354836113dd90919063ffffffff16565b9050611034337f00000000000000000000000000000000000000000000000000000000000000006003547f00000000000000000000000000000000000000000000000000000000000000006001600160a01b03166113f0909392919063ffffffff16565b6003546040516338e7eaa960e21b815260048101919091527f00000000000000000000000000000000000000000000000000000000000000006001600160a01b03169063e39faaa490602401600060405180830381600087803b15801561109a57600080fd5b505af11580156110ae573d6000803e3d6000fd5b5050600060035550506002805460ff191690556110f66001600160a01b037f0000000000000000000000000000000000000000000000000000000000000000163330846113f0565b6001546111039082611461565b60015550611237565b6111616001600160a01b037f000000000000000000000000000000000000000000000000000000000000000016337f0000000000000000000000000000000000000000000000000000000000000000846113f0565b6040516338e7eaa960e21b8152600481018290527f00000000000000000000000000000000000000000000000000000000000000006001600160a01b03169063e39faaa490602401600060405180830381600087803b1580156111c357600080fd5b505af11580156111d7573d6000803e3d6000fd5b50506003546111e992509050826113dd565b600355611237565b6112266001600160a01b037f0000000000000000000000000000000000000000000000000000000000000000163330846113f0565b6001546112339082611461565b6001555b6107a781611614565b6000546001600160a01b0316331461126a5760405162461bcd60e51b815260040161048f90611974565b6127106112866064611280848187818b8b611461565b90611461565b146112e35760405162461bcd60e51b815260206004820152602760248201527f53756d206f6620616c6c207368617265732073686f756c642061646420757020604482015266746f203130302560c81b606482015260840161048f565b600884905560078390556009829055600a8190556040805185815260208101859052908101839052606081018290527f1ab182163a0683cd3182c000705483ef0ccdc375a845ab7b68678f89d90de4d79060800160405180910390a150505050565b6000546001600160a01b0316331461136f5760405162461bcd60e51b815260040161048f90611974565b6001600160a01b0381166113d45760405162461bcd60e51b815260206004820152602660248201527f4f776e61626c653a206e6577206f776e657220697320746865207a65726f206160448201526564647265737360d01b606482015260840161048f565b6107a7816115c4565b60006113e982846119bf565b9392505050565b6040516001600160a01b038085166024830152831660448201526064810182905261145b9085906323b872dd60e01b906084015b60408051601f198184030181529190526020810180516001600160e01b03166001600160e01b031990931692909217909152611673565b50505050565b60006113e982846119d6565b60006113e982846119ee565b60006113e98284611a0d565b6040516001600160a01b0383166024820152604481018290526114b590849063a9059cbb60e01b90606401611424565b505050565b6114ee6001600160a01b037f0000000000000000000000000000000000000000000000000000000000000000168285611485565b604051630f62cf8d60e41b8152600481018490526001600160a01b03838116602483015282919082169063f62cf8d090604401600060405180830381600087803b15801561153b57600080fd5b505af115801561154f573d6000803e3d6000fd5b5050505050505050565b600c541561157457600c5461156e9082611461565b600c5550565b600b548111156115b1576000611595600b54836113dd90919063ffffffff16565b6000600b55600c549091506115aa9082611461565b600c555050565b600b546115be90826113dd565b600b5550565b600080546001600160a01b038381166001600160a01b0319831681178455604051919092169283917f8be0079c531659141344cd1fd0a4f28419497f9722a3daafe3b4186f6b6457e09190a35050565b600c541561166657600c5481111561165957600061163d600c54836113dd90919063ffffffff16565b6000600c55600b549091506116529082611461565b600b555050565b600c5461156e90826113dd565b600b546115be9082611461565b60006116c8826040518060400160405280602081526020017f5361666545524332303a206c6f772d6c6576656c2063616c6c206661696c6564815250856001600160a01b03166117459092919063ffffffff16565b8051909150156114b557808060200190518101906116e69190611a2f565b6114b55760405162461bcd60e51b815260206004820152602a60248201527f5361666545524332303a204552433230206f7065726174696f6e20646964206e6044820152691bdd081cdd58d8d9595960b21b606482015260840161048f565b6060611754848460008561175c565b949350505050565b6060824710156117bd5760405162461bcd60e51b815260206004820152602660248201527f416464726573733a20696e73756666696369656e742062616c616e636520666f6044820152651c8818d85b1b60d21b606482015260840161048f565b6001600160a01b0385163b6118145760405162461bcd60e51b815260206004820152601d60248201527f416464726573733a2063616c6c20746f206e6f6e2d636f6e7472616374000000604482015260640161048f565b600080866001600160a01b031685876040516118309190611a7d565b60006040518083038185875af1925050503d806000811461186d576040519150601f19603f3d011682016040523d82523d6000602084013e611872565b606091505b509150915061188282828661188d565b979650505050505050565b6060831561189c5750816113e9565b8251156118ac5782518084602001fd5b8160405162461bcd60e51b815260040161048f9190611a99565b80356001600160a01b03811681146118dd57600080fd5b919050565b6000602082840312156118f457600080fd5b6113e9826118c6565b60006020828403121561190f57600080fd5b5035919050565b6000806040838503121561192957600080fd5b82359150611939602084016118c6565b90509250929050565b6000806000806080858703121561195857600080fd5b5050823594602084013594506040840135936060013592509050565b6020808252818101527f4f776e61626c653a2063616c6c6572206973206e6f7420746865206f776e6572604082015260600190565b634e487b7160e01b600052601160045260246000fd5b6000828210156119d1576119d16119a9565b500390565b600082198211156119e9576119e96119a9565b500190565b6000816000190483118215151615611a0857611a086119a9565b500290565b600082611a2a57634e487b7160e01b600052601260045260246000fd5b500490565b600060208284031215611a4157600080fd5b815180151581146113e957600080fd5b60005b83811015611a6c578181015183820152602001611a54565b8381111561145b5750506000910152565b60008251611a8f818460208701611a51565b9190910192915050565b6020815260008251806020840152611ab8816040850160208701611a51565b601f01601f1916919091016040019291505056fea26469706673582212207d4ebba5406932198cf1e9258319fdabfe73f6be96f4034ad125377b56fd6f6a64736f6c634300080c0033",
  "bytecodeSha1": "9109e33de1e2d19af123d627e3b84b9b9ef53b74",
  "compiler": {
    "evm_version": "istanbul",
    "optimizer": {
      "enabled": true,
      "runs": 200
    },
    "version": "0.8.12+commit.f00d7308"
  },
  "contractName": "BitcrushBankroll",
  "language": "Solidity",
  "natspec": {
    "kind": "dev",
    "methods": {
      "addToBankroll(uint256)": {
        "details": "adds funds to the bankroll",
        "notice": "Add funds to the bankroll",
        "params": {
          "_amount": "the amount to add"
        }
      },
      "addUserLoss(uint256)": {
        "details": "adds funds to the bankroll if bankroll is in positive, otherwise its transfered to the staking pool to recover frozen funds",
        "notice": "Add users loss to the bankroll",
        "params": {
          "_amount": "the amount to add"
        }
      },
      "authorizeAddress(address)": {
        "details": "updates the authorizedAddresses mapping to true for given address",
        "notice": "authorize address to register wins and losses",
        "params": {
          "_address": "the address to be authorized"
        }
      },
      "owner()": {
        "details": "Returns the address of the current owner."
      },
      "payOutUserWinning(uint256,address)": {
        "details": "deducts funds from the bankroll if bankroll is in positive, otherwise theyre pulled from staking pool and bankroll marked as negative",
        "notice": "Deduct users win from the bankroll",
        "params": {
          "_amount": "the amount to deduct"
        }
      },
      "removeAuthorization(address)": {
        "details": "updates the authorizedAddresses mapping by deleting entry for given address",
        "notice": "remove authorization of an address from register wins and losses",
        "params": {
          "_address": "the address to be removed"
        }
      },
      "renounceOwnership()": {
        "details": "Leaves the contract without owner. It will not be possible to call `onlyOwner` functions anymore. Can only be called by the current owner. NOTE: Renouncing ownership will leave the contract without an owner, thereby removing any functionality that is only available to the owner."
      },
      "setAdmin(address)": {
        "details": "changes the address which is used by the adminOnly modifier",
        "notice": "store new address in admin address",
        "params": {
          "_admin": "the new address to store"
        }
      },
      "setLotteryAddress(address)": {
        "details": "changes the address which recieves lottery fees",
        "notice": "store new address in lottery address",
        "params": {
          "_lottery": "the new address to store"
        }
      },
      "setProfitThreshold(uint256)": {
        "details": "stores the _threshold address in the state variable `profitThreshold`",
        "notice": "Store `_threshold`.",
        "params": {
          "_threshold": "the new value to store"
        }
      },
      "setReserveAddress(address)": {
        "details": "changes the address which recieves reserve fees",
        "notice": "store new address in reserve address",
        "params": {
          "_reserve": "the new address to store"
        }
      },
      "setShares(uint256,uint256,uint256,uint256)": {
        "details": "stores the _houseBankrollShare address in the state variable `houseBankrollShare`",
        "notice": "updates all share percentage values",
        "params": {
          "_houseBankrollShare": "the new value to store",
          "_lotteryShare": "the new value to store",
          "_profitShare": "the new value to store",
          "_reserveShare": "the new value to store"
        }
      },
      "transferOwnership(address)": {
        "details": "Transfers ownership of the contract to a new account (`newOwner`). Can only be called by the current owner."
      },
      "transferProfit()": {
        "details": "transfer profits since last compound to the staking pool while taking out necessary fees.",
        "notice": "transfer profits to staking pool to be ditributed to stakers."
      }
    },
    "version": 1
  },
  "opcodes": "PUSH1 0x80 PUSH1 0x40 MSTORE CALLVALUE DUP1 ISZERO PUSH2 0x10 JUMPI PUSH1 0x0 DUP1 REVERT JUMPDEST POP PUSH1 0x4 CALLDATASIZE LT PUSH2 0x206 JUMPI PUSH1 0x0 CALLDATALOAD PUSH1 0xE0 SHR DUP1 PUSH4 0x86001519 GT PUSH2 0x11A JUMPI DUP1 PUSH4 0xC2E50B16 GT PUSH2 0xAD JUMPI DUP1 PUSH4 0xF03B6FFC GT PUSH2 0x7C JUMPI DUP1 PUSH4 0xF03B6FFC EQ PUSH2 0x40B JUMPI DUP1 PUSH4 0xF19E207E EQ PUSH2 0x41E JUMPI DUP1 PUSH4 0xF2FDE38B EQ PUSH2 0x441 JUMPI DUP1 PUSH4 0xF846A885 EQ PUSH2 0x454 JUMPI DUP1 PUSH4 0xF974821A EQ PUSH2 0x45C JUMPI PUSH1 0x0 DUP1 REVERT JUMPDEST DUP1 PUSH4 0xC2E50B16 EQ PUSH2 0x3D3 JUMPI DUP1 PUSH4 0xCD3293DE EQ PUSH2 0x3E6 JUMPI DUP1 PUSH4 0xE3FD80DD EQ PUSH2 0x3F9 JUMPI DUP1 PUSH4 0xE7CB3D67 EQ PUSH2 0x402 JUMPI PUSH1 0x0 DUP1 REVERT JUMPDEST DUP1 PUSH4 0xB359A9F9 GT PUSH2 0xE9 JUMPI DUP1 PUSH4 0xB359A9F9 EQ PUSH2 0x387 JUMPI DUP1 PUSH4 0xB4055D15 EQ PUSH2 0x3AE JUMPI DUP1 PUSH4 0xB72481F8 EQ PUSH2 0x3B7 JUMPI DUP1 PUSH4 0xBA13A572 EQ PUSH2 0x3C0 JUMPI PUSH1 0x0 DUP1 REVERT JUMPDEST DUP1 PUSH4 0x86001519 EQ PUSH2 0x351 JUMPI DUP1 PUSH4 0x8DA5CB5B EQ PUSH2 0x35A JUMPI DUP1 PUSH4 0x8E4A6142 EQ PUSH2 0x36B JUMPI DUP1 PUSH4 0x94F3F81D EQ PUSH2 0x374 JUMPI PUSH1 0x0 DUP1 REVERT JUMPDEST DUP1 PUSH4 0x3E1F55E4 GT PUSH2 0x19D JUMPI DUP1 PUSH4 0x59C53FD4 GT PUSH2 0x16C JUMPI DUP1 PUSH4 0x59C53FD4 EQ PUSH2 0x307 JUMPI DUP1 PUSH4 0x61433D88 EQ PUSH2 0x31A JUMPI DUP1 PUSH4 0x704B6C02 EQ PUSH2 0x32D JUMPI DUP1 PUSH4 0x715018A6 EQ PUSH2 0x340 JUMPI DUP1 PUSH4 0x7D903ECC EQ PUSH2 0x348 JUMPI PUSH1 0x0 DUP1 REVERT JUMPDEST DUP1 PUSH4 0x3E1F55E4 EQ PUSH2 0x2DA JUMPI DUP1 PUSH4 0x45C9C1D1 EQ PUSH2 0x2E3 JUMPI DUP1 PUSH4 0x4A5DB3B5 EQ PUSH2 0x2EB JUMPI DUP1 PUSH4 0x4E584E11 EQ PUSH2 0x2FE JUMPI PUSH1 0x0 DUP1 REVERT JUMPDEST DUP1 PUSH4 0x28821182 GT PUSH2 0x1D9 JUMPI DUP1 PUSH4 0x28821182 EQ PUSH2 0x294 JUMPI DUP1 PUSH4 0x2A332B2A EQ PUSH2 0x2A7 JUMPI DUP1 PUSH4 0x2FEDA8D4 EQ PUSH2 0x2BA JUMPI DUP1 PUSH4 0x3410FE6E EQ PUSH2 0x2D1 JUMPI PUSH1 0x0 DUP1 REVERT JUMPDEST DUP1 PUSH4 0xC56AE3B EQ PUSH2 0x20B JUMPI DUP1 PUSH4 0x14673D31 EQ PUSH2 0x24F JUMPI DUP1 PUSH4 0x151FAC7B EQ PUSH2 0x264 JUMPI DUP1 PUSH4 0x203C27A6 EQ PUSH2 0x277 JUMPI JUMPDEST PUSH1 0x0 DUP1 REVERT JUMPDEST PUSH2 0x232 PUSH32 0x0 DUP2 JUMP JUMPDEST PUSH1 0x40 MLOAD PUSH1 0x1 PUSH1 0x1 PUSH1 0xA0 SHL SUB SWAP1 SWAP2 AND DUP2 MSTORE PUSH1 0x20 ADD JUMPDEST PUSH1 0x40 MLOAD DUP1 SWAP2 SUB SWAP1 RETURN JUMPDEST PUSH2 0x262 PUSH2 0x25D CALLDATASIZE PUSH1 0x4 PUSH2 0x18E2 JUMP JUMPDEST PUSH2 0x465 JUMP JUMPDEST STOP JUMPDEST PUSH2 0x262 PUSH2 0x272 CALLDATASIZE PUSH1 0x4 PUSH2 0x18FD JUMP JUMPDEST PUSH2 0x4BA JUMP JUMPDEST PUSH1 0x2 SLOAD PUSH2 0x284 SWAP1 PUSH1 0xFF AND DUP2 JUMP JUMPDEST PUSH1 0x40 MLOAD SWAP1 ISZERO ISZERO DUP2 MSTORE PUSH1 0x20 ADD PUSH2 0x246 JUMP JUMPDEST PUSH2 0x262 PUSH2 0x2A2 CALLDATASIZE PUSH1 0x4 PUSH2 0x18FD JUMP JUMPDEST PUSH2 0x7AA JUMP JUMPDEST PUSH2 0x262 PUSH2 0x2B5 CALLDATASIZE PUSH1 0x4 PUSH2 0x18E2 JUMP JUMPDEST PUSH2 0x87F JUMP JUMPDEST PUSH2 0x2C3 PUSH1 0x8 SLOAD DUP2 JUMP JUMPDEST PUSH1 0x40 MLOAD SWAP1 DUP2 MSTORE PUSH1 0x20 ADD PUSH2 0x246 JUMP JUMPDEST PUSH2 0x2C3 PUSH2 0x2710 DUP2 JUMP JUMPDEST PUSH2 0x2C3 PUSH1 0x7 SLOAD DUP2 JUMP JUMPDEST PUSH2 0x2C3 PUSH2 0x8CB JUMP JUMPDEST PUSH2 0x262 PUSH2 0x2F9 CALLDATASIZE PUSH1 0x4 PUSH2 0x18E2 JUMP JUMPDEST PUSH2 0xBBD JUMP JUMPDEST PUSH2 0x2C3 PUSH1 0x9 SLOAD DUP2 JUMP JUMPDEST PUSH2 0x262 PUSH2 0x315 CALLDATASIZE PUSH1 0x4 PUSH2 0x18FD JUMP JUMPDEST PUSH2 0xC0B JUMP JUMPDEST PUSH2 0x262 PUSH2 0x328 CALLDATASIZE PUSH1 0x4 PUSH2 0x1916 JUMP JUMPDEST PUSH2 0xCF6 JUMP JUMPDEST PUSH2 0x262 PUSH2 0x33B CALLDATASIZE PUSH1 0x4 PUSH2 0x18E2 JUMP JUMPDEST PUSH2 0xE73 JUMP JUMPDEST PUSH2 0x262 PUSH2 0xEBF JUMP JUMPDEST PUSH2 0x2C3 PUSH1 0xB SLOAD DUP2 JUMP JUMPDEST PUSH2 0x2C3 PUSH1 0xE SLOAD DUP2 JUMP JUMPDEST PUSH1 0x0 SLOAD PUSH1 0x1 PUSH1 0x1 PUSH1 0xA0 SHL SUB AND PUSH2 0x232 JUMP JUMPDEST PUSH2 0x2C3 PUSH1 0xC SLOAD DUP2 JUMP JUMPDEST PUSH2 0x262 PUSH2 0x382 CALLDATASIZE PUSH1 0x4 PUSH2 0x18E2 JUMP JUMPDEST PUSH2 0xEF5 JUMP JUMPDEST PUSH2 0x232 PUSH32 0x0 DUP2 JUMP JUMPDEST PUSH2 0x2C3 PUSH1 0x1 SLOAD DUP2 JUMP JUMPDEST PUSH2 0x2C3 PUSH1 0xD SLOAD DUP2 JUMP JUMPDEST PUSH1 0x5 SLOAD PUSH2 0x232 SWAP1 PUSH1 0x1 PUSH1 0x1 PUSH1 0xA0 SHL SUB AND DUP2 JUMP JUMPDEST PUSH2 0x262 PUSH2 0x3E1 CALLDATASIZE PUSH1 0x4 PUSH2 0x18FD JUMP JUMPDEST PUSH2 0xF40 JUMP JUMPDEST PUSH1 0x4 SLOAD PUSH2 0x232 SWAP1 PUSH1 0x1 PUSH1 0x1 PUSH1 0xA0 SHL SUB AND DUP2 JUMP JUMPDEST PUSH2 0x2C3 PUSH1 0x3 SLOAD DUP2 JUMP JUMPDEST PUSH2 0x2C3 PUSH1 0xA SLOAD DUP2 JUMP JUMPDEST PUSH2 0x262 PUSH2 0x419 CALLDATASIZE PUSH1 0x4 PUSH2 0x1942 JUMP JUMPDEST PUSH2 0x1240 JUMP JUMPDEST PUSH2 0x284 PUSH2 0x42C CALLDATASIZE PUSH1 0x4 PUSH2 0x18E2 JUMP JUMPDEST PUSH1 0x10 PUSH1 0x20 MSTORE PUSH1 0x0 SWAP1 DUP2 MSTORE PUSH1 0x40 SWAP1 KECCAK256 SLOAD PUSH1 0xFF AND DUP2 JUMP JUMPDEST PUSH2 0x262 PUSH2 0x44F CALLDATASIZE PUSH1 0x4 PUSH2 0x18E2 JUMP JUMPDEST PUSH2 0x1345 JUMP JUMPDEST PUSH2 0x2C3 PUSH1 0x64 DUP2 JUMP JUMPDEST PUSH2 0x2C3 PUSH1 0x6 SLOAD DUP2 JUMP JUMPDEST PUSH1 0x0 SLOAD PUSH1 0x1 PUSH1 0x1 PUSH1 0xA0 SHL SUB AND CALLER EQ PUSH2 0x498 JUMPI PUSH1 0x40 MLOAD PUSH3 0x461BCD PUSH1 0xE5 SHL DUP2 MSTORE PUSH1 0x4 ADD PUSH2 0x48F SWAP1 PUSH2 0x1974 JUMP JUMPDEST PUSH1 0x40 MLOAD DUP1 SWAP2 SUB SWAP1 REVERT JUMPDEST PUSH1 0x4 DUP1 SLOAD PUSH1 0x1 PUSH1 0x1 PUSH1 0xA0 SHL SUB NOT AND PUSH1 0x1 PUSH1 0x1 PUSH1 0xA0 SHL SUB SWAP3 SWAP1 SWAP3 AND SWAP2 SWAP1 SWAP2 OR SWAP1 SSTORE JUMP JUMPDEST PUSH1 0xF SLOAD PUSH1 0x1 PUSH1 0x1 PUSH1 0xA0 SHL SUB AND CALLER EQ PUSH2 0x514 JUMPI PUSH1 0x40 MLOAD PUSH3 0x461BCD PUSH1 0xE5 SHL DUP2 MSTORE PUSH1 0x20 PUSH1 0x4 DUP3 ADD MSTORE PUSH1 0x1F PUSH1 0x24 DUP3 ADD MSTORE PUSH32 0x416363657373207265737472696374656420746F2061646D696E206F6E6C7900 PUSH1 0x44 DUP3 ADD MSTORE PUSH1 0x64 ADD PUSH2 0x48F JUMP JUMPDEST PUSH1 0x2 SLOAD PUSH1 0xFF AND ISZERO ISZERO PUSH1 0x1 EQ ISZERO PUSH2 0x761 JUMPI PUSH1 0x3 SLOAD DUP2 LT PUSH2 0x67E JUMPI PUSH1 0x0 PUSH2 0x544 PUSH1 0x3 SLOAD DUP4 PUSH2 0x13DD SWAP1 SWAP2 SWAP1 PUSH4 0xFFFFFFFF AND JUMP JUMPDEST SWAP1 POP PUSH2 0x5A8 CALLER PUSH32 0x0 PUSH1 0x3 SLOAD PUSH32 0x0 PUSH1 0x1 PUSH1 0x1 PUSH1 0xA0 SHL SUB AND PUSH2 0x13F0 SWAP1 SWAP4 SWAP3 SWAP2 SWAP1 PUSH4 0xFFFFFFFF AND JUMP JUMPDEST PUSH1 0x3 SLOAD PUSH1 0x40 MLOAD PUSH4 0x38E7EAA9 PUSH1 0xE2 SHL DUP2 MSTORE PUSH1 0x4 DUP2 ADD SWAP2 SWAP1 SWAP2 MSTORE PUSH32 0x0 PUSH1 0x1 PUSH1 0x1 PUSH1 0xA0 SHL SUB AND SWAP1 PUSH4 0xE39FAAA4 SWAP1 PUSH1 0x24 ADD PUSH1 0x0 PUSH1 0x40 MLOAD DUP1 DUP4 SUB DUP2 PUSH1 0x0 DUP8 DUP1 EXTCODESIZE ISZERO DUP1 ISZERO PUSH2 0x60E JUMPI PUSH1 0x0 DUP1 REVERT JUMPDEST POP GAS CALL ISZERO DUP1 ISZERO PUSH2 0x622 JUMPI RETURNDATASIZE PUSH1 0x0 DUP1 RETURNDATACOPY RETURNDATASIZE PUSH1 0x0 REVERT JUMPDEST POP POP PUSH1 0x0 PUSH1 0x3 SSTORE POP POP PUSH1 0x2 DUP1 SLOAD PUSH1 0xFF NOT AND SWAP1 SSTORE PUSH2 0x66A PUSH1 0x1 PUSH1 0x1 PUSH1 0xA0 SHL SUB PUSH32 0x0 AND CALLER ADDRESS DUP5 PUSH2 0x13F0 JUMP JUMPDEST PUSH1 0x1 SLOAD PUSH2 0x677 SWAP1 DUP3 PUSH2 0x1461 JUMP JUMPDEST PUSH1 0x1 SSTORE POP POP JUMP JUMPDEST PUSH2 0x6D3 PUSH1 0x1 PUSH1 0x1 PUSH1 0xA0 SHL SUB PUSH32 0x0 AND CALLER PUSH32 0x0 DUP5 PUSH2 0x13F0 JUMP JUMPDEST PUSH1 0x40 MLOAD PUSH4 0x38E7EAA9 PUSH1 0xE2 SHL DUP2 MSTORE PUSH1 0x4 DUP2 ADD DUP3 SWAP1 MSTORE PUSH32 0x0 PUSH1 0x1 PUSH1 0x1 PUSH1 0xA0 SHL SUB AND SWAP1 PUSH4 0xE39FAAA4 SWAP1 PUSH1 0x24 ADD PUSH1 0x0 PUSH1 0x40 MLOAD DUP1 DUP4 SUB DUP2 PUSH1 0x0 DUP8 DUP1 EXTCODESIZE ISZERO DUP1 ISZERO PUSH2 0x735 JUMPI PUSH1 0x0 DUP1 REVERT JUMPDEST POP GAS CALL ISZERO DUP1 ISZERO PUSH2 0x749 JUMPI RETURNDATASIZE PUSH1 0x0 DUP1 RETURNDATACOPY RETURNDATASIZE PUSH1 0x0 REVERT JUMPDEST POP POP PUSH1 0x3 SLOAD PUSH2 0x75B SWAP3 POP SWAP1 POP DUP3 PUSH2 0x13DD JUMP JUMPDEST PUSH1 0x3 SSTORE POP JUMP JUMPDEST PUSH2 0x796 PUSH1 0x1 PUSH1 0x1 PUSH1 0xA0 SHL SUB PUSH32 0x0 AND CALLER ADDRESS DUP5 PUSH2 0x13F0 JUMP JUMPDEST PUSH1 0x1 SLOAD PUSH2 0x7A3 SWAP1 DUP3 PUSH2 0x1461 JUMP JUMPDEST PUSH1 0x1 SSTORE JUMPDEST POP JUMP JUMPDEST PUSH1 0xF SLOAD PUSH1 0x1 PUSH1 0x1 PUSH1 0xA0 SHL SUB AND CALLER EQ PUSH2 0x804 JUMPI PUSH1 0x40 MLOAD PUSH3 0x461BCD PUSH1 0xE5 SHL DUP2 MSTORE PUSH1 0x20 PUSH1 0x4 DUP3 ADD MSTORE PUSH1 0x1F PUSH1 0x24 DUP3 ADD MSTORE PUSH32 0x416363657373207265737472696374656420746F2061646D696E206F6E6C7900 PUSH1 0x44 DUP3 ADD MSTORE PUSH1 0x64 ADD PUSH2 0x48F JUMP JUMPDEST PUSH10 0x152D02C7E14AF6800000 DUP2 LT PUSH2 0x87A JUMPI PUSH1 0x40 MLOAD PUSH3 0x461BCD PUSH1 0xE5 SHL DUP2 MSTORE PUSH1 0x20 PUSH1 0x4 DUP3 ADD MSTORE PUSH1 0x34 PUSH1 0x24 DUP3 ADD MSTORE PUSH32 0x4D61782070726F666974207468726573686F6C642063616E7420626520677265 PUSH1 0x44 DUP3 ADD MSTORE PUSH20 0xC2E8CAE440E8D0C2DC40626060D64086E4EAE6D PUSH1 0x63 SHL PUSH1 0x64 DUP3 ADD MSTORE PUSH1 0x84 ADD PUSH2 0x48F JUMP JUMPDEST PUSH1 0x6 SSTORE JUMP JUMPDEST PUSH1 0x0 SLOAD PUSH1 0x1 PUSH1 0x1 PUSH1 0xA0 SHL SUB AND CALLER EQ PUSH2 0x8A9 JUMPI PUSH1 0x40 MLOAD PUSH3 0x461BCD PUSH1 0xE5 SHL DUP2 MSTORE PUSH1 0x4 ADD PUSH2 0x48F SWAP1 PUSH2 0x1974 JUMP JUMPDEST PUSH1 0x5 DUP1 SLOAD PUSH1 0x1 PUSH1 0x1 PUSH1 0xA0 SHL SUB NOT AND PUSH1 0x1 PUSH1 0x1 PUSH1 0xA0 SHL SUB SWAP3 SWAP1 SWAP3 AND SWAP2 SWAP1 SWAP2 OR SWAP1 SSTORE JUMP JUMPDEST PUSH1 0x0 CALLER PUSH1 0x1 PUSH1 0x1 PUSH1 0xA0 SHL SUB PUSH32 0x0 AND EQ PUSH2 0x945 JUMPI PUSH1 0x40 MLOAD PUSH3 0x461BCD PUSH1 0xE5 SHL DUP2 MSTORE PUSH1 0x20 PUSH1 0x4 DUP3 ADD MSTORE PUSH1 0x1B PUSH1 0x24 DUP3 ADD MSTORE PUSH32 0x43616C6C6572206D757374206265207374616B696E6720706F6F6C0000000000 PUSH1 0x44 DUP3 ADD MSTORE PUSH1 0x64 ADD PUSH2 0x48F JUMP JUMPDEST PUSH1 0x6 SLOAD PUSH1 0xB SLOAD LT PUSH2 0xBB7 JUMPI PUSH1 0x7 SLOAD PUSH1 0x0 SWAP1 ISZERO PUSH2 0x990 JUMPI PUSH1 0x0 PUSH2 0x980 PUSH2 0x2710 PUSH2 0x97A PUSH1 0x7 SLOAD PUSH1 0xB SLOAD PUSH2 0x146D SWAP1 SWAP2 SWAP1 PUSH4 0xFFFFFFFF AND JUMP JUMPDEST SWAP1 PUSH2 0x1479 JUMP JUMPDEST SWAP1 POP PUSH2 0x98C DUP3 DUP3 PUSH2 0x1461 JUMP JUMPDEST SWAP2 POP POP JUMPDEST PUSH1 0xA SLOAD ISZERO PUSH2 0x9F6 JUMPI PUSH1 0x0 PUSH2 0x9B7 PUSH2 0x2710 PUSH2 0x97A PUSH1 0xA SLOAD PUSH1 0xB SLOAD PUSH2 0x146D SWAP1 SWAP2 SWAP1 PUSH4 0xFFFFFFFF AND JUMP JUMPDEST PUSH1 0x4 SLOAD SWAP1 SWAP2 POP PUSH2 0x9F4 SWAP1 PUSH1 0x1 PUSH1 0x1 PUSH1 0xA0 SHL SUB PUSH32 0x0 DUP2 AND SWAP2 AND DUP4 PUSH2 0x1485 JUMP JUMPDEST POP JUMPDEST PUSH1 0x9 SLOAD ISZERO PUSH2 0xA5C JUMPI PUSH1 0x0 PUSH2 0xA1D PUSH2 0x2710 PUSH2 0x97A PUSH1 0x9 SLOAD PUSH1 0xB SLOAD PUSH2 0x146D SWAP1 SWAP2 SWAP1 PUSH4 0xFFFFFFFF AND JUMP JUMPDEST PUSH1 0x5 SLOAD SWAP1 SWAP2 POP PUSH2 0xA5A SWAP1 PUSH1 0x1 PUSH1 0x1 PUSH1 0xA0 SHL SUB PUSH32 0x0 DUP2 AND SWAP2 AND DUP4 PUSH2 0x1485 JUMP JUMPDEST POP JUMPDEST PUSH1 0x0 PUSH2 0xA7A PUSH2 0x2710 PUSH2 0x97A PUSH1 0x64 PUSH1 0xB SLOAD PUSH2 0x146D SWAP1 SWAP2 SWAP1 PUSH4 0xFFFFFFFF AND JUMP JUMPDEST PUSH1 0x40 MLOAD PUSH4 0x852CD8D PUSH1 0xE3 SHL DUP2 MSTORE PUSH1 0x4 DUP2 ADD DUP3 SWAP1 MSTORE SWAP1 SWAP2 POP PUSH32 0x0 PUSH1 0x1 PUSH1 0x1 PUSH1 0xA0 SHL SUB AND SWAP1 PUSH4 0x42966C68 SWAP1 PUSH1 0x24 ADD PUSH1 0x0 PUSH1 0x40 MLOAD DUP1 DUP4 SUB DUP2 PUSH1 0x0 DUP8 DUP1 EXTCODESIZE ISZERO DUP1 ISZERO PUSH2 0xADF JUMPI PUSH1 0x0 DUP1 REVERT JUMPDEST POP GAS CALL ISZERO DUP1 ISZERO PUSH2 0xAF3 JUMPI RETURNDATASIZE PUSH1 0x0 DUP1 RETURNDATACOPY RETURNDATASIZE PUSH1 0x0 REVERT JUMPDEST POP POP POP POP PUSH1 0x0 PUSH1 0x8 SLOAD GT ISZERO PUSH2 0xB36 JUMPI PUSH1 0x0 PUSH2 0xB21 PUSH2 0x2710 PUSH2 0x97A PUSH1 0x8 SLOAD PUSH1 0xB SLOAD PUSH2 0x146D SWAP1 SWAP2 SWAP1 PUSH4 0xFFFFFFFF AND JUMP JUMPDEST PUSH1 0xB SLOAD SWAP1 SWAP2 POP PUSH2 0xB31 SWAP1 DUP3 PUSH2 0x13DD JUMP JUMPDEST PUSH1 0xB SSTORE POP JUMPDEST PUSH1 0xB SLOAD PUSH1 0x1 SLOAD PUSH2 0xB45 SWAP2 PUSH2 0x13DD JUMP JUMPDEST PUSH1 0x1 SSTORE PUSH2 0xB9C PUSH1 0x1 PUSH1 0x1 PUSH1 0xA0 SHL SUB PUSH32 0x0 AND PUSH32 0x0 DUP5 PUSH2 0x1485 JUMP JUMPDEST PUSH1 0xE SLOAD PUSH2 0xBA9 SWAP1 DUP4 PUSH2 0x1461 JUMP JUMPDEST PUSH1 0xE SSTORE POP PUSH1 0x0 PUSH1 0xB SSTORE SWAP2 SWAP1 POP JUMP JUMPDEST POP PUSH1 0x0 SWAP1 JUMP JUMPDEST PUSH1 0x0 SLOAD PUSH1 0x1 PUSH1 0x1 PUSH1 0xA0 SHL SUB AND CALLER EQ PUSH2 0xBE7 JUMPI PUSH1 0x40 MLOAD PUSH3 0x461BCD PUSH1 0xE5 SHL DUP2 MSTORE PUSH1 0x4 ADD PUSH2 0x48F SWAP1 PUSH2 0x1974 JUMP JUMPDEST PUSH1 0x1 PUSH1 0x1 PUSH1 0xA0 SHL SUB AND PUSH1 0x0 SWAP1 DUP2 MSTORE PUSH1 0x10 PUSH1 0x20 MSTORE PUSH1 0x40 SWAP1 KECCAK256 DUP1 SLOAD PUSH1 0xFF NOT AND PUSH1 0x1 OR SWAP1 SSTORE JUMP JUMPDEST CALLER PUSH1 0x1 PUSH1 0x1 PUSH1 0xA0 SHL SUB PUSH32 0x0 AND EQ PUSH2 0xC83 JUMPI PUSH1 0x40 MLOAD PUSH3 0x461BCD PUSH1 0xE5 SHL DUP2 MSTORE PUSH1 0x20 PUSH1 0x4 DUP3 ADD MSTORE PUSH1 0x1B PUSH1 0x24 DUP3 ADD MSTORE PUSH32 0x43616C6C6572206D757374206265207374616B696E6720706F6F6C0000000000 PUSH1 0x44 DUP3 ADD MSTORE PUSH1 0x64 ADD PUSH2 0x48F JUMP JUMPDEST PUSH1 0x3 SLOAD DUP2 LT PUSH2 0xCE9 JUMPI PUSH1 0x0 PUSH2 0xCA3 PUSH1 0x3 SLOAD DUP4 PUSH2 0x13DD SWAP1 SWAP2 SWAP1 PUSH4 0xFFFFFFFF AND JUMP JUMPDEST PUSH1 0x0 PUSH1 0x3 SSTORE PUSH1 0x2 DUP1 SLOAD PUSH1 0xFF NOT AND SWAP1 SSTORE SWAP1 POP PUSH2 0x66A PUSH1 0x1 PUSH1 0x1 PUSH1 0xA0 SHL SUB PUSH32 0x0 AND CALLER ADDRESS DUP5 PUSH2 0x13F0 JUMP JUMPDEST PUSH1 0x3 SLOAD PUSH2 0x75B SWAP1 DUP3 PUSH2 0x13DD JUMP JUMPDEST CALLER PUSH1 0x0 SWAP1 DUP2 MSTORE PUSH1 0x10 PUSH1 0x20 MSTORE PUSH1 0x40 SWAP1 KECCAK256 SLOAD PUSH1 0xFF AND ISZERO ISZERO PUSH1 0x1 EQ PUSH2 0xD56 JUMPI PUSH1 0x40 MLOAD PUSH3 0x461BCD PUSH1 0xE5 SHL DUP2 MSTORE PUSH1 0x20 PUSH1 0x4 DUP3 ADD MSTORE PUSH1 0x19 PUSH1 0x24 DUP3 ADD MSTORE PUSH25 0x10D85B1B195C881B5D5CDD08189948185D5D1A1BDC9A5E9959 PUSH1 0x3A SHL PUSH1 0x44 DUP3 ADD MSTORE PUSH1 0x64 ADD PUSH2 0x48F JUMP JUMPDEST PUSH1 0x1 SLOAD DUP3 GT ISZERO PUSH2 0xE3B JUMPI PUSH1 0x0 PUSH2 0xD77 PUSH1 0x1 SLOAD DUP5 PUSH2 0x13DD SWAP1 SWAP2 SWAP1 PUSH4 0xFFFFFFFF AND JUMP JUMPDEST PUSH1 0x2 DUP1 SLOAD PUSH1 0xFF NOT AND PUSH1 0x1 OR SWAP1 SSTORE PUSH1 0x40 MLOAD PUSH4 0x23D13AFF PUSH1 0xE2 SHL DUP2 MSTORE PUSH1 0x4 DUP2 ADD DUP3 SWAP1 MSTORE PUSH1 0x1 PUSH1 0x1 PUSH1 0xA0 SHL SUB DUP5 DUP2 AND PUSH1 0x24 DUP4 ADD MSTORE CALLER PUSH1 0x44 DUP4 ADD MSTORE SWAP2 SWAP3 POP PUSH32 0x0 SWAP1 SWAP2 AND SWAP1 PUSH4 0x8F44EBFC SWAP1 PUSH1 0x64 ADD PUSH1 0x0 PUSH1 0x40 MLOAD DUP1 DUP4 SUB DUP2 PUSH1 0x0 DUP8 DUP1 EXTCODESIZE ISZERO DUP1 ISZERO PUSH2 0xDF9 JUMPI PUSH1 0x0 DUP1 REVERT JUMPDEST POP GAS CALL ISZERO DUP1 ISZERO PUSH2 0xE0D JUMPI RETURNDATASIZE PUSH1 0x0 DUP1 RETURNDATACOPY RETURNDATASIZE PUSH1 0x0 REVERT JUMPDEST POP POP PUSH1 0x3 SLOAD PUSH2 0xE1F SWAP3 POP SWAP1 POP DUP3 PUSH2 0x1461 JUMP JUMPDEST PUSH1 0x3 SSTORE PUSH1 0x1 SLOAD PUSH2 0xE30 SWAP1 DUP4 CALLER PUSH2 0x14BA JUMP JUMPDEST POP PUSH1 0x0 PUSH1 0x1 SSTORE PUSH2 0xE56 JUMP JUMPDEST PUSH1 0x1 SLOAD PUSH2 0xE48 SWAP1 DUP4 PUSH2 0x13DD JUMP JUMPDEST PUSH1 0x1 SSTORE PUSH2 0xE56 DUP3 DUP3 CALLER PUSH2 0x14BA JUMP JUMPDEST PUSH2 0xE5F DUP3 PUSH2 0x1559 JUMP JUMPDEST PUSH1 0xD SLOAD PUSH2 0xE6C SWAP1 DUP4 PUSH2 0x1461 JUMP JUMPDEST PUSH1 0xD SSTORE POP POP JUMP JUMPDEST PUSH1 0x0 SLOAD PUSH1 0x1 PUSH1 0x1 PUSH1 0xA0 SHL SUB AND CALLER EQ PUSH2 0xE9D JUMPI PUSH1 0x40 MLOAD PUSH3 0x461BCD PUSH1 0xE5 SHL DUP2 MSTORE PUSH1 0x4 ADD PUSH2 0x48F SWAP1 PUSH2 0x1974 JUMP JUMPDEST PUSH1 0xF DUP1 SLOAD PUSH1 0x1 PUSH1 0x1 PUSH1 0xA0 SHL SUB NOT AND PUSH1 0x1 PUSH1 0x1 PUSH1 0xA0 SHL SUB SWAP3 SWAP1 SWAP3 AND SWAP2 SWAP1 SWAP2 OR SWAP1 SSTORE JUMP JUMPDEST PUSH1 0x0 SLOAD PUSH1 0x1 PUSH1 0x1 PUSH1 0xA0 SHL SUB AND CALLER EQ PUSH2 0xEE9 JUMPI PUSH1 0x40 MLOAD PUSH3 0x461BCD PUSH1 0xE5 SHL DUP2 MSTORE PUSH1 0x4 ADD PUSH2 0x48F SWAP1 PUSH2 0x1974 JUMP JUMPDEST PUSH2 0xEF3 PUSH1 0x0 PUSH2 0x15C4 JUMP JUMPDEST JUMP JUMPDEST PUSH1 0x0 SLOAD PUSH1 0x1 PUSH1 0x1 PUSH1 0xA0 SHL SUB AND CALLER EQ PUSH2 0xF1F JUMPI PUSH1 0x40 MLOAD PUSH3 0x461BCD PUSH1 0xE5 SHL DUP2 MSTORE PUSH1 0x4 ADD PUSH2 0x48F SWAP1 PUSH2 0x1974 JUMP JUMPDEST PUSH1 0x1 PUSH1 0x1 PUSH1 0xA0 SHL SUB AND PUSH1 0x0 SWAP1 DUP2 MSTORE PUSH1 0x10 PUSH1 0x20 MSTORE PUSH1 0x40 SWAP1 KECCAK256 DUP1 SLOAD PUSH1 0xFF NOT AND SWAP1 SSTORE JUMP JUMPDEST CALLER PUSH1 0x0 SWAP1 DUP2 MSTORE PUSH1 0x10 PUSH1 0x20 MSTORE PUSH1 0x40 SWAP1 KECCAK256 SLOAD PUSH1 0xFF AND ISZERO ISZERO PUSH1 0x1 EQ PUSH2 0xFA0 JUMPI PUSH1 0x40 MLOAD PUSH3 0x461BCD PUSH1 0xE5 SHL DUP2 MSTORE PUSH1 0x20 PUSH1 0x4 DUP3 ADD MSTORE PUSH1 0x19 PUSH1 0x24 DUP3 ADD MSTORE PUSH25 0x10D85B1B195C881B5D5CDD08189948185D5D1A1BDC9A5E9959 PUSH1 0x3A SHL PUSH1 0x44 DUP3 ADD MSTORE PUSH1 0x64 ADD PUSH2 0x48F JUMP JUMPDEST PUSH1 0x2 SLOAD PUSH1 0xFF AND ISZERO ISZERO PUSH1 0x1 EQ ISZERO PUSH2 0x11F1 JUMPI PUSH1 0x3 SLOAD DUP2 LT PUSH2 0x110C JUMPI PUSH1 0x0 PUSH2 0xFD0 PUSH1 0x3 SLOAD DUP4 PUSH2 0x13DD SWAP1 SWAP2 SWAP1 PUSH4 0xFFFFFFFF AND JUMP JUMPDEST SWAP1 POP PUSH2 0x1034 CALLER PUSH32 0x0 PUSH1 0x3 SLOAD PUSH32 0x0 PUSH1 0x1 PUSH1 0x1 PUSH1 0xA0 SHL SUB AND PUSH2 0x13F0 SWAP1 SWAP4 SWAP3 SWAP2 SWAP1 PUSH4 0xFFFFFFFF AND JUMP JUMPDEST PUSH1 0x3 SLOAD PUSH1 0x40 MLOAD PUSH4 0x38E7EAA9 PUSH1 0xE2 SHL DUP2 MSTORE PUSH1 0x4 DUP2 ADD SWAP2 SWAP1 SWAP2 MSTORE PUSH32 0x0 PUSH1 0x1 PUSH1 0x1 PUSH1 0xA0 SHL SUB AND SWAP1 PUSH4 0xE39FAAA4 SWAP1 PUSH1 0x24 ADD PUSH1 0x0 PUSH1 0x40 MLOAD DUP1 DUP4 SUB DUP2 PUSH1 0x0 DUP8 DUP1 EXTCODESIZE ISZERO DUP1 ISZERO PUSH2 0x109A JUMPI PUSH1 0x0 DUP1 REVERT JUMPDEST POP GAS CALL ISZERO DUP1 ISZERO PUSH2 0x10AE JUMPI RETURNDATASIZE PUSH1 0x0 DUP1 RETURNDATACOPY RETURNDATASIZE PUSH1 0x0 REVERT JUMPDEST POP POP PUSH1 0x0 PUSH1 0x3 SSTORE POP POP PUSH1 0x2 DUP1 SLOAD PUSH1 0xFF NOT AND SWAP1 SSTORE PUSH2 0x10F6 PUSH1 0x1 PUSH1 0x1 PUSH1 0xA0 SHL SUB PUSH32 0x0 AND CALLER ADDRESS DUP5 PUSH2 0x13F0 JUMP JUMPDEST PUSH1 0x1 SLOAD PUSH2 0x1103 SWAP1 DUP3 PUSH2 0x1461 JUMP JUMPDEST PUSH1 0x1 SSTORE POP PUSH2 0x1237 JUMP JUMPDEST PUSH2 0x1161 PUSH1 0x1 PUSH1 0x1 PUSH1 0xA0 SHL SUB PUSH32 0x0 AND CALLER PUSH32 0x0 DUP5 PUSH2 0x13F0 JUMP JUMPDEST PUSH1 0x40 MLOAD PUSH4 0x38E7EAA9 PUSH1 0xE2 SHL DUP2 MSTORE PUSH1 0x4 DUP2 ADD DUP3 SWAP1 MSTORE PUSH32 0x0 PUSH1 0x1 PUSH1 0x1 PUSH1 0xA0 SHL SUB AND SWAP1 PUSH4 0xE39FAAA4 SWAP1 PUSH1 0x24 ADD PUSH1 0x0 PUSH1 0x40 MLOAD DUP1 DUP4 SUB DUP2 PUSH1 0x0 DUP8 DUP1 EXTCODESIZE ISZERO DUP1 ISZERO PUSH2 0x11C3 JUMPI PUSH1 0x0 DUP1 REVERT JUMPDEST POP GAS CALL ISZERO DUP1 ISZERO PUSH2 0x11D7 JUMPI RETURNDATASIZE PUSH1 0x0 DUP1 RETURNDATACOPY RETURNDATASIZE PUSH1 0x0 REVERT JUMPDEST POP POP PUSH1 0x3 SLOAD PUSH2 0x11E9 SWAP3 POP SWAP1 POP DUP3 PUSH2 0x13DD JUMP JUMPDEST PUSH1 0x3 SSTORE PUSH2 0x1237 JUMP JUMPDEST PUSH2 0x1226 PUSH1 0x1 PUSH1 0x1 PUSH1 0xA0 SHL SUB PUSH32 0x0 AND CALLER ADDRESS DUP5 PUSH2 0x13F0 JUMP JUMPDEST PUSH1 0x1 SLOAD PUSH2 0x1233 SWAP1 DUP3 PUSH2 0x1461 JUMP JUMPDEST PUSH1 0x1 SSTORE JUMPDEST PUSH2 0x7A7 DUP2 PUSH2 0x1614 JUMP JUMPDEST PUSH1 0x0 SLOAD PUSH1 0x1 PUSH1 0x1 PUSH1 0xA0 SHL SUB AND CALLER EQ PUSH2 0x126A JUMPI PUSH1 0x40 MLOAD PUSH3 0x461BCD PUSH1 0xE5 SHL DUP2 MSTORE PUSH1 0x4 ADD PUSH2 0x48F SWAP1 PUSH2 0x1974 JUMP JUMPDEST PUSH2 0x2710 PUSH2 0x1286 PUSH1 0x64 PUSH2 0x1280 DUP5 DUP2 DUP8 DUP2 DUP12 DUP12 PUSH2 0x1461 JUMP JUMPDEST SWAP1 PUSH2 0x1461 JUMP JUMPDEST EQ PUSH2 0x12E3 JUMPI PUSH1 0x40 MLOAD PUSH3 0x461BCD PUSH1 0xE5 SHL DUP2 MSTORE PUSH1 0x20 PUSH1 0x4 DUP3 ADD MSTORE PUSH1 0x27 PUSH1 0x24 DUP3 ADD MSTORE PUSH32 0x53756D206F6620616C6C207368617265732073686F756C642061646420757020 PUSH1 0x44 DUP3 ADD MSTORE PUSH7 0x746F2031303025 PUSH1 0xC8 SHL PUSH1 0x64 DUP3 ADD MSTORE PUSH1 0x84 ADD PUSH2 0x48F JUMP JUMPDEST PUSH1 0x8 DUP5 SWAP1 SSTORE PUSH1 0x7 DUP4 SWAP1 SSTORE PUSH1 0x9 DUP3 SWAP1 SSTORE PUSH1 0xA DUP2 SWAP1 SSTORE PUSH1 0x40 DUP1 MLOAD DUP6 DUP2 MSTORE PUSH1 0x20 DUP2 ADD DUP6 SWAP1 MSTORE SWAP1 DUP2 ADD DUP4 SWAP1 MSTORE PUSH1 0x60 DUP2 ADD DUP3 SWAP1 MSTORE PUSH32 0x1AB182163A0683CD3182C000705483EF0CCDC375A845AB7B68678F89D90DE4D7 SWAP1 PUSH1 0x80 ADD PUSH1 0x40 MLOAD DUP1 SWAP2 SUB SWAP1 LOG1 POP POP POP POP JUMP JUMPDEST PUSH1 0x0 SLOAD PUSH1 0x1 PUSH1 0x1 PUSH1 0xA0 SHL SUB AND CALLER EQ PUSH2 0x136F JUMPI PUSH1 0x40 MLOAD PUSH3 0x461BCD PUSH1 0xE5 SHL DUP2 MSTORE PUSH1 0x4 ADD PUSH2 0x48F SWAP1 PUSH2 0x1974 JUMP JUMPDEST PUSH1 0x1 PUSH1 0x1 PUSH1 0xA0 SHL SUB DUP2 AND PUSH2 0x13D4 JUMPI PUSH1 0x40 MLOAD PUSH3 0x461BCD PUSH1 0xE5 SHL DUP2 MSTORE PUSH1 0x20 PUSH1 0x4 DUP3 ADD MSTORE PUSH1 0x26 PUSH1 0x24 DUP3 ADD MSTORE PUSH32 0x4F776E61626C653A206E6577206F776E657220697320746865207A65726F2061 PUSH1 0x44 DUP3 ADD MSTORE PUSH6 0x646472657373 PUSH1 0xD0 SHL PUSH1 0x64 DUP3 ADD MSTORE PUSH1 0x84 ADD PUSH2 0x48F JUMP JUMPDEST PUSH2 0x7A7 DUP2 PUSH2 0x15C4 JUMP JUMPDEST PUSH1 0x0 PUSH2 0x13E9 DUP3 DUP5 PUSH2 0x19BF JUMP JUMPDEST SWAP4 SWAP3 POP POP POP JUMP JUMPDEST PUSH1 0x40 MLOAD PUSH1 0x1 PUSH1 0x1 PUSH1 0xA0 SHL SUB DUP1 DUP6 AND PUSH1 0x24 DUP4 ADD MSTORE DUP4 AND PUSH1 0x44 DUP3 ADD MSTORE PUSH1 0x64 DUP2 ADD DUP3 SWAP1 MSTORE PUSH2 0x145B SWAP1 DUP6 SWAP1 PUSH4 0x23B872DD PUSH1 0xE0 SHL SWAP1 PUSH1 0x84 ADD JUMPDEST PUSH1 0x40 DUP1 MLOAD PUSH1 0x1F NOT DUP2 DUP5 SUB ADD DUP2 MSTORE SWAP2 SWAP1 MSTORE PUSH1 0x20 DUP2 ADD DUP1 MLOAD PUSH1 0x1 PUSH1 0x1 PUSH1 0xE0 SHL SUB AND PUSH1 0x1 PUSH1 0x1 PUSH1 0xE0 SHL SUB NOT SWAP1 SWAP4 AND SWAP3 SWAP1 SWAP3 OR SWAP1 SWAP2 MSTORE PUSH2 0x1673 JUMP JUMPDEST POP POP POP POP JUMP JUMPDEST PUSH1 0x0 PUSH2 0x13E9 DUP3 DUP5 PUSH2 0x19D6 JUMP JUMPDEST PUSH1 0x0 PUSH2 0x13E9 DUP3 DUP5 PUSH2 0x19EE JUMP JUMPDEST PUSH1 0x0 PUSH2 0x13E9 DUP3 DUP5 PUSH2 0x1A0D JUMP JUMPDEST PUSH1 0x40 MLOAD PUSH1 0x1 PUSH1 0x1 PUSH1 0xA0 SHL SUB DUP4 AND PUSH1 0x24 DUP3 ADD MSTORE PUSH1 0x44 DUP2 ADD DUP3 SWAP1 MSTORE PUSH2 0x14B5 SWAP1 DUP5 SWAP1 PUSH4 0xA9059CBB PUSH1 0xE0 SHL SWAP1 PUSH1 0x64 ADD PUSH2 0x1424 JUMP JUMPDEST POP POP POP JUMP JUMPDEST PUSH2 0x14EE PUSH1 0x1 PUSH1 0x1 PUSH1 0xA0 SHL SUB PUSH32 0x0 AND DUP3 DUP6 PUSH2 0x1485 JUMP JUMPDEST PUSH1 0x40 MLOAD PUSH4 0xF62CF8D PUSH1 0xE4 SHL DUP2 MSTORE PUSH1 0x4 DUP2 ADD DUP5 SWAP1 MSTORE PUSH1 0x1 PUSH1 0x1 PUSH1 0xA0 SHL SUB DUP4 DUP2 AND PUSH1 0x24 DUP4 ADD MSTORE DUP3 SWAP2 SWAP1 DUP3 AND SWAP1 PUSH4 0xF62CF8D0 SWAP1 PUSH1 0x44 ADD PUSH1 0x0 PUSH1 0x40 MLOAD DUP1 DUP4 SUB DUP2 PUSH1 0x0 DUP8 DUP1 EXTCODESIZE ISZERO DUP1 ISZERO PUSH2 0x153B JUMPI PUSH1 0x0 DUP1 REVERT JUMPDEST POP GAS CALL ISZERO DUP1 ISZERO PUSH2 0x154F JUMPI RETURNDATASIZE PUSH1 0x0 DUP1 RETURNDATACOPY RETURNDATASIZE PUSH1 0x0 REVERT JUMPDEST POP POP POP POP POP POP POP POP JUMP JUMPDEST PUSH1 0xC SLOAD ISZERO PUSH2 0x1574 JUMPI PUSH1 0xC SLOAD PUSH2 0x156E SWAP1 DUP3 PUSH2 0x1461 JUMP JUMPDEST PUSH1 0xC SSTORE POP JUMP JUMPDEST PUSH1 0xB SLOAD DUP2 GT ISZERO PUSH2 0x15B1 JUMPI PUSH1 0x0 PUSH2 0x1595 PUSH1 0xB SLOAD DUP4 PUSH2 0x13DD SWAP1 SWAP2 SWAP1 PUSH4 0xFFFFFFFF AND JUMP JUMPDEST PUSH1 0x0 PUSH1 0xB SSTORE PUSH1 0xC SLOAD SWAP1 SWAP2 POP PUSH2 0x15AA SWAP1 DUP3 PUSH2 0x1461 JUMP JUMPDEST PUSH1 0xC SSTORE POP POP JUMP JUMPDEST PUSH1 0xB SLOAD PUSH2 0x15BE SWAP1 DUP3 PUSH2 0x13DD JUMP JUMPDEST PUSH1 0xB SSTORE POP JUMP JUMPDEST PUSH1 0x0 DUP1 SLOAD PUSH1 0x1 PUSH1 0x1 PUSH1 0xA0 SHL SUB DUP4 DUP2 AND PUSH1 0x1 PUSH1 0x1 PUSH1 0xA0 SHL SUB NOT DUP4 AND DUP2 OR DUP5 SSTORE PUSH1 0x40 MLOAD SWAP2 SWAP1 SWAP3 AND SWAP3 DUP4 SWAP2 PUSH32 0x8BE0079C531659141344CD1FD0A4F28419497F9722A3DAAFE3B4186F6B6457E0 SWAP2 SWAP1 LOG3 POP POP JUMP JUMPDEST PUSH1 0xC SLOAD ISZERO PUSH2 0x1666 JUMPI PUSH1 0xC SLOAD DUP2 GT ISZERO PUSH2 0x1659 JUMPI PUSH1 0x0 PUSH2 0x163D PUSH1 0xC SLOAD DUP4 PUSH2 0x13DD SWAP1 SWAP2 SWAP1 PUSH4 0xFFFFFFFF AND JUMP JUMPDEST PUSH1 0x0 PUSH1 0xC SSTORE PUSH1 0xB SLOAD SWAP1 SWAP2 POP PUSH2 0x1652 SWAP1 DUP3 PUSH2 0x1461 JUMP JUMPDEST PUSH1 0xB SSTORE POP POP JUMP JUMPDEST PUSH1 0xC SLOAD PUSH2 0x156E SWAP1 DUP3 PUSH2 0x13DD JUMP JUMPDEST PUSH1 0xB SLOAD PUSH2 0x15BE SWAP1 DUP3 PUSH2 0x1461 JUMP JUMPDEST PUSH1 0x0 PUSH2 0x16C8 DUP3 PUSH1 0x40 MLOAD DUP1 PUSH1 0x40 ADD PUSH1 0x40 MSTORE DUP1 PUSH1 0x20 DUP2 MSTORE PUSH1 0x20 ADD PUSH32 0x5361666545524332303A206C6F772D6C6576656C2063616C6C206661696C6564 DUP2 MSTORE POP DUP6 PUSH1 0x1 PUSH1 0x1 PUSH1 0xA0 SHL SUB AND PUSH2 0x1745 SWAP1 SWAP3 SWAP2 SWAP1 PUSH4 0xFFFFFFFF AND JUMP JUMPDEST DUP1 MLOAD SWAP1 SWAP2 POP ISZERO PUSH2 0x14B5 JUMPI DUP1 DUP1 PUSH1 0x20 ADD SWAP1 MLOAD DUP2 ADD SWAP1 PUSH2 0x16E6 SWAP2 SWAP1 PUSH2 0x1A2F JUMP JUMPDEST PUSH2 0x14B5 JUMPI PUSH1 0x40 MLOAD PUSH3 0x461BCD PUSH1 0xE5 SHL DUP2 MSTORE PUSH1 0x20 PUSH1 0x4 DUP3 ADD MSTORE PUSH1 0x2A PUSH1 0x24 DUP3 ADD MSTORE PUSH32 0x5361666545524332303A204552433230206F7065726174696F6E20646964206E PUSH1 0x44 DUP3 ADD MSTORE PUSH10 0x1BDD081CDD58D8D95959 PUSH1 0xB2 SHL PUSH1 0x64 DUP3 ADD MSTORE PUSH1 0x84 ADD PUSH2 0x48F JUMP JUMPDEST PUSH1 0x60 PUSH2 0x1754 DUP5 DUP5 PUSH1 0x0 DUP6 PUSH2 0x175C JUMP JUMPDEST SWAP5 SWAP4 POP POP POP POP JUMP JUMPDEST PUSH1 0x60 DUP3 SELFBALANCE LT ISZERO PUSH2 0x17BD JUMPI PUSH1 0x40 MLOAD PUSH3 0x461BCD PUSH1 0xE5 SHL DUP2 MSTORE PUSH1 0x20 PUSH1 0x4 DUP3 ADD MSTORE PUSH1 0x26 PUSH1 0x24 DUP3 ADD MSTORE PUSH32 0x416464726573733A20696E73756666696369656E742062616C616E636520666F PUSH1 0x44 DUP3 ADD MSTORE PUSH6 0x1C8818D85B1B PUSH1 0xD2 SHL PUSH1 0x64 DUP3 ADD MSTORE PUSH1 0x84 ADD PUSH2 0x48F JUMP JUMPDEST PUSH1 0x1 PUSH1 0x1 PUSH1 0xA0 SHL SUB DUP6 AND EXTCODESIZE PUSH2 0x1814 JUMPI PUSH1 0x40 MLOAD PUSH3 0x461BCD PUSH1 0xE5 SHL DUP2 MSTORE PUSH1 0x20 PUSH1 0x4 DUP3 ADD MSTORE PUSH1 0x1D PUSH1 0x24 DUP3 ADD MSTORE PUSH32 0x416464726573733A2063616C6C20746F206E6F6E2D636F6E7472616374000000 PUSH1 0x44 DUP3 ADD MSTORE PUSH1 0x64 ADD PUSH2 0x48F JUMP JUMPDEST PUSH1 0x0 DUP1 DUP7 PUSH1 0x1 PUSH1 0x1 PUSH1 0xA0 SHL SUB AND DUP6 DUP8 PUSH1 0x40 MLOAD PUSH2 0x1830 SWAP2 SWAP1 PUSH2 0x1A7D JUMP JUMPDEST PUSH1 0x0 PUSH1 0x40 MLOAD DUP1 DUP4 SUB DUP2 DUP6 DUP8 GAS CALL SWAP3 POP POP POP RETURNDATASIZE DUP1 PUSH1 0x0 DUP2 EQ PUSH2 0x186D JUMPI PUSH1 0x40 MLOAD SWAP2 POP PUSH1 0x1F NOT PUSH1 0x3F RETURNDATASIZE ADD AND DUP3 ADD PUSH1 0x40 MSTORE RETURNDATASIZE DUP3 MSTORE RETURNDATASIZE PUSH1 0x0 PUSH1 0x20 DUP5 ADD RETURNDATACOPY PUSH2 0x1872 JUMP JUMPDEST PUSH1 0x60 SWAP2 POP JUMPDEST POP SWAP2 POP SWAP2 POP PUSH2 0x1882 DUP3 DUP3 DUP7 PUSH2 0x188D JUMP JUMPDEST SWAP8 SWAP7 POP POP POP POP POP POP POP JUMP JUMPDEST PUSH1 0x60 DUP4 ISZERO PUSH2 0x189C JUMPI POP DUP2 PUSH2 0x13E9 JUMP JUMPDEST DUP3 MLOAD ISZERO PUSH2 0x18AC JUMPI DUP3 MLOAD DUP1 DUP5 PUSH1 0x20 ADD REVERT JUMPDEST DUP2 PUSH1 0x40 MLOAD PUSH3 0x461BCD PUSH1 0xE5 SHL DUP2 MSTORE PUSH1 0x4 ADD PUSH2 0x48F SWAP2 SWAP1 PUSH2 0x1A99 JUMP JUMPDEST DUP1 CALLDATALOAD PUSH1 0x1 PUSH1 0x1 PUSH1 0xA0 SHL SUB DUP2 AND DUP2 EQ PUSH2 0x18DD JUMPI PUSH1 0x0 DUP1 REVERT JUMPDEST SWAP2 SWAP1 POP JUMP JUMPDEST PUSH1 0x0 PUSH1 0x20 DUP3 DUP5 SUB SLT ISZERO PUSH2 0x18F4 JUMPI PUSH1 0x0 DUP1 REVERT JUMPDEST PUSH2 0x13E9 DUP3 PUSH2 0x18C6 JUMP JUMPDEST PUSH1 0x0 PUSH1 0x20 DUP3 DUP5 SUB SLT ISZERO PUSH2 0x190F JUMPI PUSH1 0x0 DUP1 REVERT JUMPDEST POP CALLDATALOAD SWAP2 SWAP1 POP JUMP JUMPDEST PUSH1 0x0 DUP1 PUSH1 0x40 DUP4 DUP6 SUB SLT ISZERO PUSH2 0x1929 JUMPI PUSH1 0x0 DUP1 REVERT JUMPDEST DUP3 CALLDATALOAD SWAP2 POP PUSH2 0x1939 PUSH1 0x20 DUP5 ADD PUSH2 0x18C6 JUMP JUMPDEST SWAP1 POP SWAP3 POP SWAP3 SWAP1 POP JUMP JUMPDEST PUSH1 0x0 DUP1 PUSH1 0x0 DUP1 PUSH1 0x80 DUP6 DUP8 SUB SLT ISZERO PUSH2 0x1958 JUMPI PUSH1 0x0 DUP1 REVERT JUMPDEST POP POP DUP3 CALLDATALOAD SWAP5 PUSH1 0x20 DUP5 ADD CALLDATALOAD SWAP5 POP PUSH1 0x40 DUP5 ADD CALLDATALOAD SWAP4 PUSH1 0x60 ADD CALLDATALOAD SWAP3 POP SWAP1 POP JUMP JUMPDEST PUSH1 0x20 DUP1 DUP3 MSTORE DUP2 DUP2 ADD MSTORE PUSH32 0x4F776E61626C653A2063616C6C6572206973206E6F7420746865206F776E6572 PUSH1 0x40 DUP3 ADD MSTORE PUSH1 0x60 ADD SWAP1 JUMP JUMPDEST PUSH4 0x4E487B71 PUSH1 0xE0 SHL PUSH1 0x0 MSTORE PUSH1 0x11 PUSH1 0x4 MSTORE PUSH1 0x24 PUSH1 0x0 REVERT JUMPDEST PUSH1 0x0 DUP3 DUP3 LT ISZERO PUSH2 0x19D1 JUMPI PUSH2 0x19D1 PUSH2 0x19A9 JUMP JUMPDEST POP SUB SWAP1 JUMP JUMPDEST PUSH1 0x0 DUP3 NOT DUP3 GT ISZERO PUSH2 0x19E9 JUMPI PUSH2 0x19E9 PUSH2 0x19A9 JUMP JUMPDEST POP ADD SWAP1 JUMP JUMPDEST PUSH1 0x0 DUP2 PUSH1 0x0 NOT DIV DUP4 GT DUP3 ISZERO ISZERO AND ISZERO PUSH2 0x1A08 JUMPI PUSH2 0x1A08 PUSH2 0x19A9 JUMP JUMPDEST POP MUL SWAP1 JUMP JUMPDEST PUSH1 0x0 DUP3 PUSH2 0x1A2A JUMPI PUSH4 0x4E487B71 PUSH1 0xE0 SHL PUSH1 0x0 MSTORE PUSH1 0x12 PUSH1 0x4 MSTORE PUSH1 0x24 PUSH1 0x0 REVERT JUMPDEST POP DIV SWAP1 JUMP JUMPDEST PUSH1 0x0 PUSH1 0x20 DUP3 DUP5 SUB SLT ISZERO PUSH2 0x1A41 JUMPI PUSH1 0x0 DUP1 REVERT JUMPDEST DUP2 MLOAD DUP1 ISZERO ISZERO DUP2 EQ PUSH2 0x13E9 JUMPI PUSH1 0x0 DUP1 REVERT JUMPDEST PUSH1 0x0 JUMPDEST DUP4 DUP2 LT ISZERO PUSH2 0x1A6C JUMPI DUP2 DUP2 ADD MLOAD DUP4 DUP3 ADD MSTORE PUSH1 0x20 ADD PUSH2 0x1A54 JUMP JUMPDEST DUP4 DUP2 GT ISZERO PUSH2 0x145B JUMPI POP POP PUSH1 0x0 SWAP2 ADD MSTORE JUMP JUMPDEST PUSH1 0x0 DUP3 MLOAD PUSH2 0x1A8F DUP2 DUP5 PUSH1 0x20 DUP8 ADD PUSH2 0x1A51 JUMP JUMPDEST SWAP2 SWAP1 SWAP2 ADD SWAP3 SWAP2 POP POP JUMP JUMPDEST PUSH1 0x20 DUP2 MSTORE PUSH1 0x0 DUP3 MLOAD DUP1 PUSH1 0x20 DUP5 ADD MSTORE PUSH2 0x1AB8 DUP2 PUSH1 0x40 DUP6 ADD PUSH1 0x20 DUP8 ADD PUSH2 0x1A51 JUMP JUMPDEST PUSH1 0x1F ADD PUSH1 0x1F NOT AND SWAP2 SWAP1 SWAP2 ADD PUSH1 0x40 ADD SWAP3 SWAP2 POP POP JUMP INVALID LOG2 PUSH5 0x6970667358 0x22 SLT KECCAK256 PUSH30 0x4EBBA5406932198CF1E9258319FDABFE73F6BE96F4034AD125377B56FD6F PUSH11 0x64736F6C634300080C0033 ",
  "sha1": "64b6320d0907ff793508d8ab6e730c8115061de6",
  "source": "//SPDX-License-Identifier: MIT\npragma solidity >=0.6.5;\n\n//BSC Address: 0xF43A7d04DcD76601dE0B0d03D761B09fBF095502\n//openzeppelin\nimport \"@openzeppelin/contracts/access/Ownable.sol\";\nimport \"@openzeppelin/contracts/token/ERC20/utils/SafeERC20.sol\";\nimport \"@openzeppelin/contracts/utils/math/SafeMath.sol\";\nimport \"@openzeppelin/contracts/token/ERC20/extensions/ERC20Burnable.sol\";\n//bitcrush\nimport \"./BankStaking.sol\";\nimport \"./LiveWallet.sol\";\n\ncontract BitcrushBankroll is Ownable {\n    using SafeMath for uint256;\n    using SafeERC20 for ERC20Burnable;\n    uint256 public totalBankroll;\n    bool public poolDepleted;\n    uint256 public negativeBankroll;\n    //address of the crush token\n    ERC20Burnable public immutable crush;\n    BitcrushStaking public immutable stakingPool;\n\n    address public reserve;\n    address public lottery;\n\n    uint256 public constant DIVISOR = 10000;\n    uint256 public constant BURN_RATE = 100;\n    uint256 public profitThreshold;\n\n    //consistent 1% burn\n    uint256 public profitShare;\n    uint256 public houseBankrollShare;\n    uint256 public lotteryShare;\n    uint256 public reserveShare;\n\n    //profit tracking\n    uint256 public brSinceCompound;\n    uint256 public negativeBrSinceCompound;\n\n    //tracking historical winnings and profits\n    uint256 public totalWinnings;\n    uint256 public totalProfit;\n\n    address admin;\n    // MODIFIERS\n    modifier adminOnly() {\n        require(\n            msg.sender == address(admin),\n            \"Access restricted to admin only\"\n        );\n        _;\n    }\n\n    //authorized addresses\n    mapping(address => bool) public authorizedAddresses;\n    event SharesUpdated(\n        uint256 _houseBankrollShare,\n        uint256 _profitShare,\n        uint256 _lotteryShare,\n        uint256 _reserveShare\n    );\n\n    constructor(\n        ERC20Burnable _crush,\n        BitcrushStaking _stakingPool,\n        address _reserve,\n        address _lottery,\n        uint256 _profitShare,\n        uint256 _houseBankrollShare,\n        uint256 _lotteryShare,\n        uint256 _reserveShare,\n        address _admin\n    ) {\n        crush = _crush;\n        stakingPool = _stakingPool;\n        reserve = _reserve;\n        lottery = _lottery;\n        profitShare = _profitShare;\n        houseBankrollShare = _houseBankrollShare;\n        lotteryShare = _lotteryShare;\n        reserveShare = _reserveShare;\n        admin = _admin;\n    }\n\n    /// authorize address to register wins and losses\n    /// @param _address the address to be authorized\n    /// @dev updates the authorizedAddresses mapping to true for given address\n    function authorizeAddress(address _address) public onlyOwner {\n        authorizedAddresses[_address] = true;\n    }\n\n    /// remove authorization of an address from register wins and losses\n    /// @param _address the address to be removed\n    /// @dev updates the authorizedAddresses mapping by deleting entry for given address\n    function removeAuthorization(address _address) public onlyOwner {\n        delete authorizedAddresses[_address];\n    }\n\n    /// Add funds to the bankroll\n    /// @param _amount the amount to add\n    /// @dev adds funds to the bankroll\n    function addToBankroll(uint256 _amount) public adminOnly {\n        if (poolDepleted == true) {\n            if (_amount >= negativeBankroll) {\n                uint256 remainder = _amount.sub(negativeBankroll);\n                crush.safeTransferFrom(\n                    msg.sender,\n                    address(stakingPool),\n                    negativeBankroll\n                );\n                stakingPool.unfreezeStaking(negativeBankroll);\n                negativeBankroll = 0;\n                poolDepleted = false;\n                crush.safeTransferFrom(msg.sender, address(this), remainder);\n                totalBankroll = totalBankroll.add(remainder);\n            } else {\n                crush.safeTransferFrom(\n                    msg.sender,\n                    address(stakingPool),\n                    _amount\n                );\n                stakingPool.unfreezeStaking(_amount);\n                negativeBankroll = negativeBankroll.sub(_amount);\n            }\n        } else {\n            crush.safeTransferFrom(msg.sender, address(this), _amount);\n            totalBankroll = totalBankroll.add(_amount);\n        }\n    }\n\n    /// Add users loss to the bankroll\n    /// @param _amount the amount to add\n    /// @dev adds funds to the bankroll if bankroll is in positive, otherwise its transfered to the staking pool to recover frozen funds\n    function addUserLoss(uint256 _amount) public {\n        require(\n            authorizedAddresses[msg.sender] == true,\n            \"Caller must be authorized\"\n        );\n        //make game specific\n        //check if bankroll is in negative\n        //uint is unsigned, keep a bool to track\n        //if negative send to staking to replenish\n        //otherwise add to bankroll and check for profit\n        if (poolDepleted == true) {\n            if (_amount >= negativeBankroll) {\n                uint256 remainder = _amount.sub(negativeBankroll);\n                crush.safeTransferFrom(\n                    msg.sender,\n                    address(stakingPool),\n                    negativeBankroll\n                );\n                stakingPool.unfreezeStaking(negativeBankroll);\n                negativeBankroll = 0;\n                poolDepleted = false;\n                crush.safeTransferFrom(msg.sender, address(this), remainder);\n                totalBankroll = totalBankroll.add(remainder);\n            } else {\n                crush.safeTransferFrom(\n                    msg.sender,\n                    address(stakingPool),\n                    _amount\n                );\n                stakingPool.unfreezeStaking(_amount);\n                negativeBankroll = negativeBankroll.sub(_amount);\n            }\n        } else {\n            crush.safeTransferFrom(msg.sender, address(this), _amount);\n            totalBankroll = totalBankroll.add(_amount);\n        }\n        addToBrSinceCompound(_amount);\n    }\n\n    function recoverBankroll(uint256 _amount) public {\n        require(\n            msg.sender == address(stakingPool),\n            \"Caller must be staking pool\"\n        );\n        if (_amount >= negativeBankroll) {\n            uint256 remainder = _amount.sub(negativeBankroll);\n            negativeBankroll = 0;\n            poolDepleted = false;\n            crush.safeTransferFrom(msg.sender, address(this), remainder);\n            totalBankroll = totalBankroll.add(remainder);\n        } else {\n            negativeBankroll = negativeBankroll.sub(_amount);\n        }\n    }\n\n    /// Deduct users win from the bankroll\n    /// @param _amount the amount to deduct\n    /// @dev deducts funds from the bankroll if bankroll is in positive, otherwise theyre pulled from staking pool and bankroll marked as negative\n    function payOutUserWinning(uint256 _amount, address _winner) public {\n        require(\n            authorizedAddresses[msg.sender] == true,\n            \"Caller must be authorized\"\n        );\n\n        //check if bankroll has funds available\n        //if not dip into staking pool for any remainder\n        // update bankroll accordingly\n        if (_amount > totalBankroll) {\n            uint256 remainder = _amount.sub(totalBankroll);\n            poolDepleted = true;\n            stakingPool.freezeStaking(remainder, _winner, msg.sender);\n            negativeBankroll = negativeBankroll.add(remainder);\n            transferWinnings(totalBankroll, _winner, msg.sender);\n\n            totalBankroll = 0;\n        } else {\n            totalBankroll = totalBankroll.sub(_amount);\n            transferWinnings(_amount, _winner, msg.sender);\n        }\n        removeFromBrSinceCompound(_amount);\n        totalWinnings = totalWinnings.add(_amount);\n    }\n\n    /// transfer winnings from bankroll contract to live wallet\n    /// @param _amount the amount to tranfer\n    /// @param _winner the winners address\n    /// @dev transfers funds from the bankroll to the live wallet as users winnings\n    function transferWinnings(\n        uint256 _amount,\n        address _winner,\n        address _lwAddress\n    ) internal {\n        crush.safeTransfer(_lwAddress, _amount);\n        BitcrushLiveWallet currentLw = BitcrushLiveWallet(_lwAddress);\n        currentLw.addToUserWinnings(_amount, _winner);\n    }\n\n    /// track funds added since last compound and profit transfer\n    /// @param _amount the amount to add\n    /// @dev add funds to the variable brSinceCompound\n    function addToBrSinceCompound(uint256 _amount) internal {\n        if (negativeBrSinceCompound > 0) {\n            if (_amount > negativeBrSinceCompound) {\n                uint256 difference = _amount.sub(negativeBrSinceCompound);\n                negativeBrSinceCompound = 0;\n                brSinceCompound = brSinceCompound.add(difference);\n            } else {\n                negativeBrSinceCompound = negativeBrSinceCompound.sub(_amount);\n            }\n        } else {\n            brSinceCompound = brSinceCompound.add(_amount);\n        }\n    }\n\n    /// track funds remvoed since last compound and profit transfer\n    /// @param _amount the amount to remove\n    /// @dev deduct funds to the variable brSinceCompound\n    function removeFromBrSinceCompound(uint256 _amount) internal {\n        if (negativeBrSinceCompound > 0) {\n            negativeBrSinceCompound = negativeBrSinceCompound.add(_amount);\n        } else {\n            if (_amount > brSinceCompound) {\n                uint256 difference = _amount.sub(brSinceCompound);\n                brSinceCompound = 0;\n                negativeBrSinceCompound = negativeBrSinceCompound.add(\n                    difference\n                );\n            } else {\n                brSinceCompound = brSinceCompound.sub(_amount);\n            }\n        }\n    }\n\n    /// transfer profits to staking pool to be ditributed to stakers.\n    /// @dev transfer profits since last compound to the staking pool while taking out necessary fees.\n    function transferProfit() public returns (uint256) {\n        require(\n            msg.sender == address(stakingPool),\n            \"Caller must be staking pool\"\n        );\n        if (brSinceCompound >= profitThreshold) {\n            //-----\n            uint256 profit = 0;\n            if (profitShare > 0) {\n                uint256 stakingBankrollProfit = brSinceCompound\n                    .mul(profitShare)\n                    .div(DIVISOR);\n                profit = profit.add(stakingBankrollProfit);\n            }\n            if (reserveShare > 0) {\n                uint256 reserveCrush = brSinceCompound.mul(reserveShare).div(\n                    DIVISOR\n                );\n                crush.safeTransfer(reserve, reserveCrush);\n            }\n            if (lotteryShare > 0) {\n                uint256 lotteryCrush = brSinceCompound.mul(lotteryShare).div(\n                    DIVISOR\n                );\n                crush.safeTransfer(lottery, lotteryCrush);\n            }\n\n            uint256 burn = brSinceCompound.mul(BURN_RATE).div(DIVISOR);\n            crush.burn(burn);\n\n            if (houseBankrollShare > 0) {\n                uint256 bankrollShare = brSinceCompound\n                    .mul(houseBankrollShare)\n                    .div(DIVISOR);\n                brSinceCompound = brSinceCompound.sub(bankrollShare);\n            }\n\n            totalBankroll = totalBankroll.sub(brSinceCompound);\n            //-----\n            crush.safeTransfer(address(stakingPool), profit);\n            totalProfit = totalProfit.add(profit);\n            brSinceCompound = 0;\n            return profit;\n        } else {\n            return 0;\n        }\n    }\n\n    /// Store `_threshold`.\n    /// @param _threshold the new value to store\n    /// @dev stores the _threshold address in the state variable `profitThreshold`\n    function setProfitThreshold(uint256 _threshold) public adminOnly {\n        require(\n            _threshold < 100000000000000000000000,\n            \"Max profit threshold cant be greater than 100k Crush\"\n        );\n        profitThreshold = _threshold;\n    }\n\n    /// updates all share percentage values\n    /// @param _houseBankrollShare the new value to store\n    /// @param _profitShare the new value to store\n    /// @param _lotteryShare the new value to store\n    /// @param _reserveShare the new value to store\n    /// @dev stores the _houseBankrollShare address in the state variable `houseBankrollShare`\n    function setShares(\n        uint256 _houseBankrollShare,\n        uint256 _profitShare,\n        uint256 _lotteryShare,\n        uint256 _reserveShare\n    ) public onlyOwner {\n        require(\n            _houseBankrollShare\n                .add(_profitShare)\n                .add(_lotteryShare)\n                .add(_reserveShare)\n                .add(BURN_RATE) == DIVISOR,\n            \"Sum of all shares should add up to 100%\"\n        );\n        houseBankrollShare = _houseBankrollShare;\n        profitShare = _profitShare;\n        lotteryShare = _lotteryShare;\n        reserveShare = _reserveShare;\n        emit SharesUpdated(\n            _houseBankrollShare,\n            _profitShare,\n            _lotteryShare,\n            _reserveShare\n        );\n    }\n\n    ///store new address in reserve address\n    /// @param _reserve the new address to store\n    /// @dev changes the address which recieves reserve fees\n    function setReserveAddress(address _reserve) public onlyOwner {\n        reserve = _reserve;\n    }\n\n    ///store new address in lottery address\n    /// @param _lottery the new address to store\n    /// @dev changes the address which recieves lottery fees\n    function setLotteryAddress(address _lottery) public onlyOwner {\n        lottery = _lottery;\n    }\n\n    ///store new address in admin address\n    /// @param _admin the new address to store\n    /// @dev changes the address which is used by the adminOnly modifier\n    function setAdmin(address _admin) public onlyOwner {\n        admin = _admin;\n    }\n}\n",
  "sourcePath": "contracts/Bankroll.sol",
  "type": "contract"
}