{
  "contractName": "BitcrushLiquidityBankroll",
  "abi": [
    {
      "inputs": [
        {
          "internalType": "address",
          "name": "_admin",
          "type": "address"
        }
      ],
      "stateMutability": "nonpayable",
      "type": "constructor"
    },
    {
      "anonymous": false,
      "inputs": [
        {
          "indexed": true,
          "internalType": "address",
          "name": "previousOwner",
          "type": "address"
        },
        {
          "indexed": true,
          "internalType": "address",
          "name": "newOwner",
          "type": "address"
        }
      ],
      "name": "OwnershipTransferred",
      "type": "event"
    },
    {
      "inputs": [
        {
          "internalType": "address",
          "name": "",
          "type": "address"
        }
      ],
      "name": "authorizedAddresses",
      "outputs": [
        {
          "internalType": "bool",
          "name": "",
          "type": "bool"
        }
      ],
      "stateMutability": "view",
      "type": "function"
    },
    {
      "inputs": [
        {
          "internalType": "address",
          "name": "",
          "type": "address"
        }
      ],
      "name": "bankroll",
      "outputs": [
        {
          "internalType": "uint256",
          "name": "",
          "type": "uint256"
        }
      ],
      "stateMutability": "view",
      "type": "function"
    },
    {
      "inputs": [],
      "name": "owner",
      "outputs": [
        {
          "internalType": "address",
          "name": "",
          "type": "address"
        }
      ],
      "stateMutability": "view",
      "type": "function"
    },
    {
      "inputs": [],
      "name": "renounceOwnership",
      "outputs": [],
      "stateMutability": "nonpayable",
      "type": "function"
    },
    {
      "inputs": [
        {
          "internalType": "address",
          "name": "newOwner",
          "type": "address"
        }
      ],
      "name": "transferOwnership",
      "outputs": [],
      "stateMutability": "nonpayable",
      "type": "function"
    },
    {
      "inputs": [
        {
          "internalType": "address",
          "name": "_address",
          "type": "address"
        }
      ],
      "name": "authorizeAddress",
      "outputs": [],
      "stateMutability": "nonpayable",
      "type": "function"
    },
    {
      "inputs": [
        {
          "internalType": "address",
          "name": "_address",
          "type": "address"
        }
      ],
      "name": "removeAuthorization",
      "outputs": [],
      "stateMutability": "nonpayable",
      "type": "function"
    },
    {
      "inputs": [
        {
          "internalType": "uint256",
          "name": "_amount",
          "type": "uint256"
        },
        {
          "internalType": "address",
          "name": "_token",
          "type": "address"
        }
      ],
      "name": "addToBankroll",
      "outputs": [],
      "stateMutability": "nonpayable",
      "type": "function"
    },
    {
      "inputs": [
        {
          "internalType": "uint256",
          "name": "_amount",
          "type": "uint256"
        },
        {
          "internalType": "address",
          "name": "_token",
          "type": "address"
        }
      ],
      "name": "addUserLoss",
      "outputs": [],
      "stateMutability": "nonpayable",
      "type": "function"
    },
    {
      "inputs": [
        {
          "internalType": "uint256",
          "name": "_amount",
          "type": "uint256"
        },
        {
          "internalType": "address",
          "name": "_winner",
          "type": "address"
        },
        {
          "internalType": "address",
          "name": "_token",
          "type": "address"
        }
      ],
      "name": "payOutUserWinning",
      "outputs": [],
      "stateMutability": "nonpayable",
      "type": "function"
    },
    {
      "inputs": [
        {
          "internalType": "address",
          "name": "_token",
          "type": "address"
        }
      ],
      "name": "balance",
      "outputs": [
        {
          "internalType": "uint256",
          "name": "",
          "type": "uint256"
        }
      ],
      "stateMutability": "view",
      "type": "function"
    },
    {
      "inputs": [
        {
          "internalType": "address",
          "name": "_admin",
          "type": "address"
        }
      ],
      "name": "setAdmin",
      "outputs": [],
      "stateMutability": "nonpayable",
      "type": "function"
    },
    {
      "inputs": [
        {
          "internalType": "address",
          "name": "_token",
          "type": "address"
        }
      ],
      "name": "withdrawAllFunds",
      "outputs": [],
      "stateMutability": "nonpayable",
      "type": "function"
    }
  ],
  "bytecode": "0x608060405234801561001057600080fd5b50604051610fbd380380610fbd8339818101604052602081101561003357600080fd5b505160006100486001600160e01b036100b716565b600080546001600160a01b0319166001600160a01b0383169081178255604051929350917f8be0079c531659141344cd1fd0a4f28419497f9722a3daafe3b4186f6b6457e0908290a350600280546001600160a01b0319166001600160a01b03929092169190911790556100bb565b3390565b610ef3806100ca6000396000f3fe608060405234801561001057600080fd5b50600436106100df5760003560e01c8063bb11ecd51161008c578063e3d670d711610066578063e3d670d714610242578063ef8ce9fb14610268578063f19e207e14610294578063f2fde38b146102ce576100df565b8063bb11ecd5146101aa578063bfd454ed146101de578063c0f369701461020a576100df565b8063715018a6116100bd578063715018a6146101585780638da5cb5b1461016057806394f3f81d14610184576100df565b806332dee40b146100e45780634a5db3b51461010c578063704b6c0214610132575b600080fd5b61010a600480360360208110156100fa57600080fd5b50356001600160a01b03166102f4565b005b61010a6004803603602081101561012257600080fd5b50356001600160a01b031661038c565b61010a6004803603602081101561014857600080fd5b50356001600160a01b031661041a565b61010a6104b3565b610168610574565b604080516001600160a01b039092168252519081900360200190f35b61010a6004803603602081101561019a57600080fd5b50356001600160a01b0316610583565b61010a600480360360608110156101c057600080fd5b508035906001600160a01b036020820135811691604001351661060e565b61010a600480360360408110156101f457600080fd5b50803590602001356001600160a01b03166106ca565b6102306004803603602081101561022057600080fd5b50356001600160a01b031661072b565b60408051918252519081900360200190f35b6102306004803603602081101561025857600080fd5b50356001600160a01b031661073d565b61010a6004803603604081101561027e57600080fd5b50803590602001356001600160a01b0316610758565b6102ba600480360360208110156102aa57600080fd5b50356001600160a01b03166107b7565b604080519115158252519081900360200190f35b61010a600480360360208110156102e457600080fd5b50356001600160a01b03166107cc565b6102fc61083f565b6000546001600160a01b0390811691161461035e576040805162461bcd60e51b815260206004820181905260248201527f4f776e61626c653a2063616c6c6572206973206e6f7420746865206f776e6572604482015290519081900360640190fd5b6001600160a01b0381166000818152600160205260409020546103899190339063ffffffff61084316565b50565b61039461083f565b6000546001600160a01b039081169116146103f6576040805162461bcd60e51b815260206004820181905260248201527f4f776e61626c653a2063616c6c6572206973206e6f7420746865206f776e6572604482015290519081900360640190fd5b6001600160a01b03166000908152600360205260409020805460ff19166001179055565b61042261083f565b6000546001600160a01b03908116911614610484576040805162461bcd60e51b815260206004820181905260248201527f4f776e61626c653a2063616c6c6572206973206e6f7420746865206f776e6572604482015290519081900360640190fd5b6002805473ffffffffffffffffffffffffffffffffffffffff19166001600160a01b0392909216919091179055565b6104bb61083f565b6000546001600160a01b0390811691161461051d576040805162461bcd60e51b815260206004820181905260248201527f4f776e61626c653a2063616c6c6572206973206e6f7420746865206f776e6572604482015290519081900360640190fd5b600080546040516001600160a01b03909116907f8be0079c531659141344cd1fd0a4f28419497f9722a3daafe3b4186f6b6457e0908390a36000805473ffffffffffffffffffffffffffffffffffffffff19169055565b6000546001600160a01b031690565b61058b61083f565b6000546001600160a01b039081169116146105ed576040805162461bcd60e51b815260206004820181905260248201527f4f776e61626c653a2063616c6c6572206973206e6f7420746865206f776e6572604482015290519081900360640190fd5b6001600160a01b03166000908152600360205260409020805460ff19169055565b3360009081526003602052604090205460ff161515600114610677576040805162461bcd60e51b815260206004820152601960248201527f43616c6c6572206d75737420626520617574686f72697a656400000000000000604482015290519081900360640190fd5b610683838333846108c8565b6001600160a01b0381166000908152600160205260409020546106ac908463ffffffff61096c16565b6001600160a01b039091166000908152600160205260409020555050565b6106e56001600160a01b03821633308563ffffffff6109b516565b6001600160a01b03811660009081526001602052604090205461070e908363ffffffff610a4316565b6001600160a01b0390911660009081526001602052604090205550565b60016020526000908152604090205481565b6001600160a01b031660009081526001602052604090205490565b6002546001600160a01b031633146106ca576040805162461bcd60e51b815260206004820152601f60248201527f416363657373207265737472696374656420746f2061646d696e206f6e6c7900604482015290519081900360640190fd5b60036020526000908152604090205460ff1681565b6107d461083f565b6000546001600160a01b03908116911614610836576040805162461bcd60e51b815260206004820181905260248201527f4f776e61626c653a2063616c6c6572206973206e6f7420746865206f776e6572604482015290519081900360640190fd5b61038981610a9d565b3390565b604080516001600160a01b038416602482015260448082018490528251808303909101815260649091019091526020810180517bffffffffffffffffffffffffffffffffffffffffffffffffffffffff167fa9059cbb000000000000000000000000000000000000000000000000000000001790526108c3908490610b4a565b505050565b6108e26001600160a01b038216838663ffffffff61084316565b604080517f6d069b9e000000000000000000000000000000000000000000000000000000008152600481018690526001600160a01b03858116602483015291518492831691636d069b9e91604480830192600092919082900301818387803b15801561094d57600080fd5b505af1158015610961573d6000803e3d6000fd5b505050505050505050565b60006109ae83836040518060400160405280601e81526020017f536166654d6174683a207375627472616374696f6e206f766572666c6f770000815250610bfb565b9392505050565b604080516001600160a01b0380861660248301528416604482015260648082018490528251808303909101815260849091019091526020810180517bffffffffffffffffffffffffffffffffffffffffffffffffffffffff167f23b872dd00000000000000000000000000000000000000000000000000000000179052610a3d908590610b4a565b50505050565b6000828201838110156109ae576040805162461bcd60e51b815260206004820152601b60248201527f536166654d6174683a206164646974696f6e206f766572666c6f770000000000604482015290519081900360640190fd5b6001600160a01b038116610ae25760405162461bcd60e51b8152600401808060200182810382526026815260200180610e986026913960400191505060405180910390fd5b600080546040516001600160a01b03808516939216917f8be0079c531659141344cd1fd0a4f28419497f9722a3daafe3b4186f6b6457e091a36000805473ffffffffffffffffffffffffffffffffffffffff19166001600160a01b0392909216919091179055565b6060610b9f826040518060400160405280602081526020017f5361666542455032303a206c6f772d6c6576656c2063616c6c206661696c6564815250856001600160a01b0316610c929092919063ffffffff16565b8051909150156108c357808060200190516020811015610bbe57600080fd5b50516108c35760405162461bcd60e51b815260040180806020018281038252602a815260200180610e6e602a913960400191505060405180910390fd5b60008184841115610c8a5760405162461bcd60e51b81526004018080602001828103825283818151815260200191508051906020019080838360005b83811015610c4f578181015183820152602001610c37565b50505050905090810190601f168015610c7c5780820380516001836020036101000a031916815260200191505b509250505060405180910390fd5b505050900390565b6060610ca18484600085610ca9565b949350505050565b6060610cb485610e34565b610d05576040805162461bcd60e51b815260206004820152601d60248201527f416464726573733a2063616c6c20746f206e6f6e2d636f6e7472616374000000604482015290519081900360640190fd5b60006060866001600160a01b031685876040518082805190602001908083835b60208310610d6257805182527fffffffffffffffffffffffffffffffffffffffffffffffffffffffffffffffe09092019160209182019101610d25565b6001836020036101000a03801982511681845116808217855250505050505090500191505060006040518083038185875af1925050503d8060008114610dc4576040519150601f19603f3d011682016040523d82523d6000602084013e610dc9565b606091505b50915091508115610ddd579150610ca19050565b805115610ded5780518082602001fd5b60405162461bcd60e51b8152602060048201818152865160248401528651879391928392604401919085019080838360008315610c4f578181015183820152602001610c37565b6000813f7fc5d2460186f7233c927e7db2dcc703c0e500b653ca82273b7bfad8045d85a470818114801590610ca157505015159291505056fe5361666542455032303a204245503230206f7065726174696f6e20646964206e6f7420737563636565644f776e61626c653a206e6577206f776e657220697320746865207a65726f2061646472657373a264697066735822122082ac318d26c3605227cf04f9bec8e28ecba6928dd2581fe290dcee3ffd55195564736f6c63430006050033",
  "immutableReferences": {},
  "source": "//SPDX-License-Identifier: MIT\npragma solidity >=0.6.5;\nimport \"@pancakeswap/pancake-swap-lib/contracts/access/Ownable.sol\";\nimport \"@pancakeswap/pancake-swap-lib/contracts/math/SafeMath.sol\";\nimport \"@pancakeswap/pancake-swap-lib/contracts/token/BEP20/SafeBEP20.sol\";\nimport \"@pancakeswap/pancake-swap-lib/contracts/token/BEP20/BEP20.sol\";\nimport \"./TokenLiveWallet.sol\";\n\ncontract BitcrushLiquidityBankroll is Ownable {\n    using SafeMath for uint256;\n    using SafeBEP20 for BEP20;\n    mapping (address => uint256) public bankroll;\n    address admin;\n    // MODIFIERS\n    modifier adminOnly() {\n        require(\n            msg.sender == address(admin),\n            \"Access restricted to admin only\"\n        );\n        _;\n    }\n\n    //authorized addresses\n    mapping(address => bool) public authorizedAddresses;\n\n    constructor( address _admin) public {\n        admin = _admin;\n    }\n\n    /// authorize address to register wins and losses\n    /// @param _address the address to be authorized\n    /// @dev updates the authorizedAddresses mapping to true for given address\n    function authorizeAddress(address _address) public onlyOwner {\n        authorizedAddresses[_address] = true;\n    }\n\n    /// remove authorization of an address from register wins and losses\n    /// @param _address the address to be removed\n    /// @dev updates the authorizedAddresses mapping by deleting entry for given address\n    function removeAuthorization(address _address) public onlyOwner {\n        delete authorizedAddresses[_address];\n    }\n\n    /// Add funds to the bankroll\n    /// @param _amount the amount to add\n    /// @dev adds funds to the bankroll\n    function addToBankroll(uint256 _amount, address _token) public adminOnly {\n        BEP20(_token).safeTransferFrom(msg.sender, address(this), _amount);\n        bankroll[_token] = bankroll[_token].add(_amount);\n    }\n\n    /// Add users loss to the bankroll\n    /// @param _amount the amount to add\n    /// @dev adds funds to the bankroll if bankroll is in positive, otherwise its transfered to the staking pool to recover frozen funds\n    function addUserLoss(uint256 _amount, address _token) public {\n        BEP20(_token).safeTransferFrom(msg.sender, address(this), _amount);\n        bankroll[_token] = bankroll[_token].add(_amount);\n    }\n\n\n    /// Deduct users win from the bankroll\n    /// @param _amount the amount to deduct\n    /// @dev deducts funds from the bankroll if bankroll is in positive, otherwise theyre pulled from staking pool and bankroll marked as negative\n    function payOutUserWinning(uint256 _amount, address _winner, address _token) public {\n        require(\n            authorizedAddresses[msg.sender] == true,\n            \"Caller must be authorized\"\n        );\n        transferWinnings(_amount, _winner, msg.sender, _token);\n        bankroll[_token] = bankroll[_token].sub(_amount);\n    }\n    /// transfer winnings from bankroll contract to live wallet\n    /// @param _amount the amount to tranfer\n    /// @param _winner the winners address\n    /// @dev transfers funds from the bankroll to the live wallet as users winnings\n    function transferWinnings(\n        uint256 _amount,\n        address _winner,\n        address _lwAddress,\n        address _token\n    ) internal {\n        BEP20(_token).safeTransfer(_lwAddress, _amount);\n        BitcrushTokenLiveWallet currentLw = BitcrushTokenLiveWallet( _lwAddress);\n        currentLw.addToUserWinningsNative(_amount, _winner);\n    }\n    /// return the current balance of user in the live wallet\n    /// @dev return current the balance of provided user addrss in the live wallet\n    function balance(address _token) public view returns (uint256) {\n        return bankroll[_token];\n    }\n\n    ///store new address in admin address\n    /// @param _admin the new address to store\n    /// @dev changes the address which is used by the adminOnly modifier\n    function setAdmin(address _admin) public onlyOwner {\n        admin = _admin;\n    }\n\n    function withdrawAllFunds (address _token)public onlyOwner {\n        BEP20(_token).safeTransfer(msg.sender, bankroll[_token]);\n    }\n}\n",
  "sourcePath": "/Users/umeralisajid/Documents/Frag/bitcrush/crush_contacts_old/contracts/LiquidityBankroll.sol",
  "compiler": {
    "name": "solc",
    "version": "0.6.5+commit.f956cc89.Emscripten.clang"
  },
  "schemaVersion": "3.4.4",
  "updatedAt": "2022-01-23T12:41:19.970Z",
  "devdoc": {
    "methods": {
      "addToBankroll(uint256,address)": {
        "details": "adds funds to the bankroll",
        "params": {
          "_amount": "the amount to add"
        }
      },
      "addUserLoss(uint256,address)": {
        "details": "adds funds to the bankroll if bankroll is in positive, otherwise its transfered to the staking pool to recover frozen funds",
        "params": {
          "_amount": "the amount to add"
        }
      },
      "authorizeAddress(address)": {
        "details": "updates the authorizedAddresses mapping to true for given address",
        "params": {
          "_address": "the address to be authorized"
        }
      },
      "balance(address)": {
        "details": "return current the balance of provided user addrss in the live wallet"
      },
      "owner()": {
        "details": "Returns the address of the current owner."
      },
      "payOutUserWinning(uint256,address,address)": {
        "details": "deducts funds from the bankroll if bankroll is in positive, otherwise theyre pulled from staking pool and bankroll marked as negative",
        "params": {
          "_amount": "the amount to deduct"
        }
      },
      "removeAuthorization(address)": {
        "details": "updates the authorizedAddresses mapping by deleting entry for given address",
        "params": {
          "_address": "the address to be removed"
        }
      },
      "renounceOwnership()": {
        "details": "Leaves the contract without owner. It will not be possible to call `onlyOwner` functions anymore. Can only be called by the current owner.     * NOTE: Renouncing ownership will leave the contract without an owner, thereby removing any functionality that is only available to the owner."
      },
      "setAdmin(address)": {
        "details": "changes the address which is used by the adminOnly modifier",
        "params": {
          "_admin": "the new address to store"
        }
      },
      "transferOwnership(address)": {
        "details": "Transfers ownership of the contract to a new account (`newOwner`). Can only be called by the current owner."
      }
    }
  },
  "userdoc": {
    "methods": {
      "addToBankroll(uint256,address)": {
        "notice": "Add funds to the bankroll"
      },
      "addUserLoss(uint256,address)": {
        "notice": "Add users loss to the bankroll"
      },
      "authorizeAddress(address)": {
        "notice": "authorize address to register wins and losses"
      },
      "balance(address)": {
        "notice": "return the current balance of user in the live wallet"
      },
      "payOutUserWinning(uint256,address,address)": {
        "notice": "Deduct users win from the bankroll"
      },
      "removeAuthorization(address)": {
        "notice": "remove authorization of an address from register wins and losses"
      },
      "setAdmin(address)": {
        "notice": "store new address in admin address"
      }
    }
  }
}