{
  "contractName": "BitcrushLiquidityBankroll",
  "abi": [
    {
      "inputs": [
        {
          "internalType": "contract BEP20",
          "name": "_token",
          "type": "address"
        },
        {
          "internalType": "address",
          "name": "_admin",
          "type": "address"
        }
      ],
      "stateMutability": "nonpayable",
      "type": "constructor"
    },
    {
      "anonymous": false,
      "inputs": [
        {
          "indexed": true,
          "internalType": "address",
          "name": "previousOwner",
          "type": "address"
        },
        {
          "indexed": true,
          "internalType": "address",
          "name": "newOwner",
          "type": "address"
        }
      ],
      "name": "OwnershipTransferred",
      "type": "event"
    },
    {
      "inputs": [
        {
          "internalType": "address",
          "name": "",
          "type": "address"
        }
      ],
      "name": "authorizedAddresses",
      "outputs": [
        {
          "internalType": "bool",
          "name": "",
          "type": "bool"
        }
      ],
      "stateMutability": "view",
      "type": "function"
    },
    {
      "inputs": [
        {
          "internalType": "address",
          "name": "",
          "type": "address"
        }
      ],
      "name": "bankroll",
      "outputs": [
        {
          "internalType": "uint256",
          "name": "",
          "type": "uint256"
        }
      ],
      "stateMutability": "view",
      "type": "function"
    },
    {
      "inputs": [],
      "name": "owner",
      "outputs": [
        {
          "internalType": "address",
          "name": "",
          "type": "address"
        }
      ],
      "stateMutability": "view",
      "type": "function"
    },
    {
      "inputs": [],
      "name": "renounceOwnership",
      "outputs": [],
      "stateMutability": "nonpayable",
      "type": "function"
    },
    {
      "inputs": [],
      "name": "token",
      "outputs": [
        {
          "internalType": "contract BEP20",
          "name": "",
          "type": "address"
        }
      ],
      "stateMutability": "view",
      "type": "function"
    },
    {
      "inputs": [],
      "name": "totalBankroll",
      "outputs": [
        {
          "internalType": "uint256",
          "name": "",
          "type": "uint256"
        }
      ],
      "stateMutability": "view",
      "type": "function"
    },
    {
      "inputs": [
        {
          "internalType": "address",
          "name": "newOwner",
          "type": "address"
        }
      ],
      "name": "transferOwnership",
      "outputs": [],
      "stateMutability": "nonpayable",
      "type": "function"
    },
    {
      "inputs": [
        {
          "internalType": "address",
          "name": "_address",
          "type": "address"
        }
      ],
      "name": "authorizeAddress",
      "outputs": [],
      "stateMutability": "nonpayable",
      "type": "function"
    },
    {
      "inputs": [
        {
          "internalType": "address",
          "name": "_address",
          "type": "address"
        }
      ],
      "name": "removeAuthorization",
      "outputs": [],
      "stateMutability": "nonpayable",
      "type": "function"
    },
    {
      "inputs": [
        {
          "internalType": "uint256",
          "name": "_amount",
          "type": "uint256"
        },
        {
          "internalType": "address",
          "name": "_token",
          "type": "address"
        }
      ],
      "name": "addToBankroll",
      "outputs": [],
      "stateMutability": "nonpayable",
      "type": "function"
    },
    {
      "inputs": [
        {
          "internalType": "uint256",
          "name": "_amount",
          "type": "uint256"
        },
        {
          "internalType": "address",
          "name": "_token",
          "type": "address"
        }
      ],
      "name": "addUserLoss",
      "outputs": [],
      "stateMutability": "nonpayable",
      "type": "function"
    },
    {
      "inputs": [
        {
          "internalType": "uint256",
          "name": "_amount",
          "type": "uint256"
        },
        {
          "internalType": "address",
          "name": "_winner",
          "type": "address"
        },
        {
          "internalType": "address",
          "name": "_token",
          "type": "address"
        }
      ],
      "name": "payOutUserWinning",
      "outputs": [],
      "stateMutability": "nonpayable",
      "type": "function"
    },
    {
      "inputs": [
        {
          "internalType": "address",
          "name": "_token",
          "type": "address"
        }
      ],
      "name": "balance",
      "outputs": [
        {
          "internalType": "uint256",
          "name": "",
          "type": "uint256"
        }
      ],
      "stateMutability": "view",
      "type": "function"
    },
    {
      "inputs": [
        {
          "internalType": "address",
          "name": "_admin",
          "type": "address"
        }
      ],
      "name": "setAdmin",
      "outputs": [],
      "stateMutability": "nonpayable",
      "type": "function"
    }
  ],
  "bytecode": "0x60a060405234801561001057600080fd5b50604051610f6e380380610f6e8339818101604052604081101561003357600080fd5b508051602090910151600061004f6001600160e01b036100d016565b600080546001600160a01b0319166001600160a01b0383169081178255604051929350917f8be0079c531659141344cd1fd0a4f28419497f9722a3daafe3b4186f6b6457e0908290a35060609190911b6001600160601b031916608052600380546001600160a01b0319166001600160a01b039092169190911790556100d4565b3390565b60805160601c610e7d6100f1600039806107a75250610e7d6000f3fe608060405234801561001057600080fd5b50600436106100ea5760003560e01c8063bfd454ed1161008c578063ef8ce9fb11610066578063ef8ce9fb14610255578063f19e207e14610281578063f2fde38b146102bb578063fc0c546a146102e1576100ea565b8063bfd454ed146101dd578063c0f3697014610209578063e3d670d71461022f576100ea565b80638da5cb5b116100c85780638da5cb5b1461014557806394f3f81d14610169578063b4055d151461018f578063bb11ecd5146101a9576100ea565b80634a5db3b5146100ef578063704b6c0214610117578063715018a61461013d575b600080fd5b6101156004803603602081101561010557600080fd5b50356001600160a01b03166102e9565b005b6101156004803603602081101561012d57600080fd5b50356001600160a01b0316610377565b610115610410565b61014d6104d1565b604080516001600160a01b039092168252519081900360200190f35b6101156004803603602081101561017f57600080fd5b50356001600160a01b03166104e0565b61019761056b565b60408051918252519081900360200190f35b610115600480360360608110156101bf57600080fd5b508035906001600160a01b0360208201358116916040013516610571565b610115600480360360408110156101f357600080fd5b50803590602001356001600160a01b031661062d565b6101976004803603602081101561021f57600080fd5b50356001600160a01b031661068e565b6101976004803603602081101561024557600080fd5b50356001600160a01b03166106a0565b6101156004803603604081101561026b57600080fd5b50803590602001356001600160a01b03166106bb565b6102a76004803603602081101561029757600080fd5b50356001600160a01b031661071a565b604080519115158252519081900360200190f35b610115600480360360208110156102d157600080fd5b50356001600160a01b031661072f565b61014d6107a5565b6102f16107c9565b6000546001600160a01b03908116911614610353576040805162461bcd60e51b815260206004820181905260248201527f4f776e61626c653a2063616c6c6572206973206e6f7420746865206f776e6572604482015290519081900360640190fd5b6001600160a01b03166000908152600460205260409020805460ff19166001179055565b61037f6107c9565b6000546001600160a01b039081169116146103e1576040805162461bcd60e51b815260206004820181905260248201527f4f776e61626c653a2063616c6c6572206973206e6f7420746865206f776e6572604482015290519081900360640190fd5b6003805473ffffffffffffffffffffffffffffffffffffffff19166001600160a01b0392909216919091179055565b6104186107c9565b6000546001600160a01b0390811691161461047a576040805162461bcd60e51b815260206004820181905260248201527f4f776e61626c653a2063616c6c6572206973206e6f7420746865206f776e6572604482015290519081900360640190fd5b600080546040516001600160a01b03909116907f8be0079c531659141344cd1fd0a4f28419497f9722a3daafe3b4186f6b6457e0908390a36000805473ffffffffffffffffffffffffffffffffffffffff19169055565b6000546001600160a01b031690565b6104e86107c9565b6000546001600160a01b0390811691161461054a576040805162461bcd60e51b815260206004820181905260248201527f4f776e61626c653a2063616c6c6572206973206e6f7420746865206f776e6572604482015290519081900360640190fd5b6001600160a01b03166000908152600460205260409020805460ff19169055565b60015481565b3360009081526004602052604090205460ff1615156001146105da576040805162461bcd60e51b815260206004820152601960248201527f43616c6c6572206d75737420626520617574686f72697a656400000000000000604482015290519081900360640190fd5b6105e6838333846107cd565b6001600160a01b03811660009081526002602052604090205461060f908463ffffffff61087116565b6001600160a01b039091166000908152600260205260409020555050565b6106486001600160a01b03821633308563ffffffff6108ba16565b6001600160a01b038116600090815260026020526040902054610671908363ffffffff61094816565b6001600160a01b0390911660009081526002602052604090205550565b60026020526000908152604090205481565b6001600160a01b031660009081526002602052604090205490565b6003546001600160a01b0316331461062d576040805162461bcd60e51b815260206004820152601f60248201527f416363657373207265737472696374656420746f2061646d696e206f6e6c7900604482015290519081900360640190fd5b60046020526000908152604090205460ff1681565b6107376107c9565b6000546001600160a01b03908116911614610799576040805162461bcd60e51b815260206004820181905260248201527f4f776e61626c653a2063616c6c6572206973206e6f7420746865206f776e6572604482015290519081900360640190fd5b6107a2816109a2565b50565b7f000000000000000000000000000000000000000000000000000000000000000081565b3390565b6107e76001600160a01b038216838663ffffffff610a4f16565b604080517f6d069b9e000000000000000000000000000000000000000000000000000000008152600481018690526001600160a01b03858116602483015291518492831691636d069b9e91604480830192600092919082900301818387803b15801561085257600080fd5b505af1158015610866573d6000803e3d6000fd5b505050505050505050565b60006108b383836040518060400160405280601e81526020017f536166654d6174683a207375627472616374696f6e206f766572666c6f770000815250610ad4565b9392505050565b604080516001600160a01b0380861660248301528416604482015260648082018490528251808303909101815260849091019091526020810180517bffffffffffffffffffffffffffffffffffffffffffffffffffffffff167f23b872dd00000000000000000000000000000000000000000000000000000000179052610942908590610b6b565b50505050565b6000828201838110156108b3576040805162461bcd60e51b815260206004820152601b60248201527f536166654d6174683a206164646974696f6e206f766572666c6f770000000000604482015290519081900360640190fd5b6001600160a01b0381166109e75760405162461bcd60e51b8152600401808060200182810382526026815260200180610e226026913960400191505060405180910390fd5b600080546040516001600160a01b03808516939216917f8be0079c531659141344cd1fd0a4f28419497f9722a3daafe3b4186f6b6457e091a36000805473ffffffffffffffffffffffffffffffffffffffff19166001600160a01b0392909216919091179055565b604080516001600160a01b038416602482015260448082018490528251808303909101815260649091019091526020810180517bffffffffffffffffffffffffffffffffffffffffffffffffffffffff167fa9059cbb00000000000000000000000000000000000000000000000000000000179052610acf908490610b6b565b505050565b60008184841115610b635760405162461bcd60e51b81526004018080602001828103825283818151815260200191508051906020019080838360005b83811015610b28578181015183820152602001610b10565b50505050905090810190601f168015610b555780820380516001836020036101000a031916815260200191505b509250505060405180910390fd5b505050900390565b6060610bc0826040518060400160405280602081526020017f5361666542455032303a206c6f772d6c6576656c2063616c6c206661696c6564815250856001600160a01b0316610c1c9092919063ffffffff16565b805190915015610acf57808060200190516020811015610bdf57600080fd5b5051610acf5760405162461bcd60e51b815260040180806020018281038252602a815260200180610df8602a913960400191505060405180910390fd5b6060610c2b8484600085610c33565b949350505050565b6060610c3e85610dbe565b610c8f576040805162461bcd60e51b815260206004820152601d60248201527f416464726573733a2063616c6c20746f206e6f6e2d636f6e7472616374000000604482015290519081900360640190fd5b60006060866001600160a01b031685876040518082805190602001908083835b60208310610cec57805182527fffffffffffffffffffffffffffffffffffffffffffffffffffffffffffffffe09092019160209182019101610caf565b6001836020036101000a03801982511681845116808217855250505050505090500191505060006040518083038185875af1925050503d8060008114610d4e576040519150601f19603f3d011682016040523d82523d6000602084013e610d53565b606091505b50915091508115610d67579150610c2b9050565b805115610d775780518082602001fd5b60405162461bcd60e51b8152602060048201818152865160248401528651879391928392604401919085019080838360008315610b28578181015183820152602001610b10565b6000813f7fc5d2460186f7233c927e7db2dcc703c0e500b653ca82273b7bfad8045d85a470818114801590610c2b57505015159291505056fe5361666542455032303a204245503230206f7065726174696f6e20646964206e6f7420737563636565644f776e61626c653a206e6577206f776e657220697320746865207a65726f2061646472657373a2646970667358221220dc5c00c2a6521cf8edb43e1f4d79d6f760cd1a3a197d6263c12f4eb9bca7020164736f6c63430006050033",
  "immutableReferences": {
    "2547": [
      {
        "length": 32,
        "start": 1959
      }
    ]
  },
  "source": "//SPDX-License-Identifier: MIT\npragma solidity >=0.6.5;\nimport \"@pancakeswap/pancake-swap-lib/contracts/access/Ownable.sol\";\nimport \"@pancakeswap/pancake-swap-lib/contracts/math/SafeMath.sol\";\nimport \"@pancakeswap/pancake-swap-lib/contracts/token/BEP20/SafeBEP20.sol\";\nimport \"@pancakeswap/pancake-swap-lib/contracts/token/BEP20/BEP20.sol\";\nimport \"./TokenLiveWallet.sol\";\n\ncontract BitcrushLiquidityBankroll is Ownable {\n    using SafeMath for uint256;\n\n    using SafeBEP20 for BEP20;\n    uint256 public totalBankroll;\n    BEP20 public immutable token;\n\n    mapping (address => uint256) public bankroll;\n\n    address admin;\n    // MODIFIERS\n    modifier adminOnly() {\n        require(\n            msg.sender == address(admin),\n            \"Access restricted to admin only\"\n        );\n        _;\n    }\n\n    //authorized addresses\n    mapping(address => bool) public authorizedAddresses;\n\n    constructor(BEP20 _token, address _admin) public {\n        token = _token;\n        admin = _admin;\n    }\n\n    /// authorize address to register wins and losses\n    /// @param _address the address to be authorized\n    /// @dev updates the authorizedAddresses mapping to true for given address\n    function authorizeAddress(address _address) public onlyOwner {\n        authorizedAddresses[_address] = true;\n    }\n\n    /// remove authorization of an address from register wins and losses\n    /// @param _address the address to be removed\n    /// @dev updates the authorizedAddresses mapping by deleting entry for given address\n    function removeAuthorization(address _address) public onlyOwner {\n        delete authorizedAddresses[_address];\n    }\n\n    /// Add funds to the bankroll\n    /// @param _amount the amount to add\n    /// @dev adds funds to the bankroll\n    function addToBankroll(uint256 _amount, address _token) public adminOnly {\n        BEP20(_token).safeTransferFrom(msg.sender, address(this), _amount);\n        bankroll[_token] = bankroll[_token].add(_amount);\n    }\n\n    /// Add users loss to the bankroll\n    /// @param _amount the amount to add\n    /// @dev adds funds to the bankroll if bankroll is in positive, otherwise its transfered to the staking pool to recover frozen funds\n    function addUserLoss(uint256 _amount, address _token) public {\n        BEP20(_token).safeTransferFrom(msg.sender, address(this), _amount);\n        bankroll[_token] = bankroll[_token].add(_amount);\n    }\n\n\n    /// Deduct users win from the bankroll\n    /// @param _amount the amount to deduct\n    /// @dev deducts funds from the bankroll if bankroll is in positive, otherwise theyre pulled from staking pool and bankroll marked as negative\n    function payOutUserWinning(uint256 _amount, address _winner, address _token) public {\n        require(\n            authorizedAddresses[msg.sender] == true,\n            \"Caller must be authorized\"\n        );\n        transferWinnings(_amount, _winner, msg.sender, _token);\n        bankroll[_token] = bankroll[_token].sub(_amount);\n    }\n    /// transfer winnings from bankroll contract to live wallet\n    /// @param _amount the amount to tranfer\n    /// @param _winner the winners address\n    /// @dev transfers funds from the bankroll to the live wallet as users winnings\n    function transferWinnings(\n        uint256 _amount,\n        address _winner,\n        address _lwAddress,\n        address _token\n    ) internal {\n        BEP20(_token).safeTransfer(_lwAddress, _amount);\n        BitcrushTokenLiveWallet currentLw = BitcrushTokenLiveWallet( _lwAddress);\n        currentLw.addToUserWinningsNative(_amount, _winner);\n    }\n    /// return the current balance of user in the live wallet\n    /// @dev return current the balance of provided user addrss in the live wallet\n    function balance(address _token) public view returns (uint256) {\n        return bankroll[_token];\n    }\n\n    ///store new address in admin address\n    /// @param _admin the new address to store\n    /// @dev changes the address which is used by the adminOnly modifier\n    function setAdmin(address _admin) public onlyOwner {\n        admin = _admin;\n    }\n}\n",
  "sourcePath": "/Users/umeralisajid/Documents/Frag/bitcrush/crush_contacts_old/contracts/LiquidityBankroll.sol",
  "compiler": {
    "name": "solc",
    "version": "0.6.5+commit.f956cc89.Emscripten.clang"
  },
  "schemaVersion": "3.4.4",
  "updatedAt": "2022-01-21T00:15:08.051Z",
  "devdoc": {
    "methods": {
      "addToBankroll(uint256,address)": {
        "details": "adds funds to the bankroll",
        "params": {
          "_amount": "the amount to add"
        }
      },
      "addUserLoss(uint256,address)": {
        "details": "adds funds to the bankroll if bankroll is in positive, otherwise its transfered to the staking pool to recover frozen funds",
        "params": {
          "_amount": "the amount to add"
        }
      },
      "authorizeAddress(address)": {
        "details": "updates the authorizedAddresses mapping to true for given address",
        "params": {
          "_address": "the address to be authorized"
        }
      },
      "balance(address)": {
        "details": "return current the balance of provided user addrss in the live wallet"
      },
      "owner()": {
        "details": "Returns the address of the current owner."
      },
      "payOutUserWinning(uint256,address,address)": {
        "details": "deducts funds from the bankroll if bankroll is in positive, otherwise theyre pulled from staking pool and bankroll marked as negative",
        "params": {
          "_amount": "the amount to deduct"
        }
      },
      "removeAuthorization(address)": {
        "details": "updates the authorizedAddresses mapping by deleting entry for given address",
        "params": {
          "_address": "the address to be removed"
        }
      },
      "renounceOwnership()": {
        "details": "Leaves the contract without owner. It will not be possible to call `onlyOwner` functions anymore. Can only be called by the current owner.     * NOTE: Renouncing ownership will leave the contract without an owner, thereby removing any functionality that is only available to the owner."
      },
      "setAdmin(address)": {
        "details": "changes the address which is used by the adminOnly modifier",
        "params": {
          "_admin": "the new address to store"
        }
      },
      "transferOwnership(address)": {
        "details": "Transfers ownership of the contract to a new account (`newOwner`). Can only be called by the current owner."
      }
    }
  },
  "userdoc": {
    "methods": {
      "addToBankroll(uint256,address)": {
        "notice": "Add funds to the bankroll"
      },
      "addUserLoss(uint256,address)": {
        "notice": "Add users loss to the bankroll"
      },
      "authorizeAddress(address)": {
        "notice": "authorize address to register wins and losses"
      },
      "balance(address)": {
        "notice": "return the current balance of user in the live wallet"
      },
      "payOutUserWinning(uint256,address,address)": {
        "notice": "Deduct users win from the bankroll"
      },
      "removeAuthorization(address)": {
        "notice": "remove authorization of an address from register wins and losses"
      },
      "setAdmin(address)": {
        "notice": "store new address in admin address"
      }
    }
  }
}