{
  "abi": [
    {
      "inputs": [
        {
          "internalType": "contract IERC20",
          "name": "_nice",
          "type": "address"
        }
      ],
      "stateMutability": "nonpayable",
      "type": "constructor"
    },
    {
      "anonymous": false,
      "inputs": [
        {
          "indexed": true,
          "internalType": "address",
          "name": "previousOwner",
          "type": "address"
        },
        {
          "indexed": true,
          "internalType": "address",
          "name": "newOwner",
          "type": "address"
        }
      ],
      "name": "OwnershipTransferred",
      "type": "event"
    },
    {
      "anonymous": false,
      "inputs": [
        {
          "indexed": false,
          "internalType": "uint256",
          "name": "newFee",
          "type": "uint256"
        }
      ],
      "name": "PerformanceFeeUpdated",
      "type": "event"
    },
    {
      "anonymous": false,
      "inputs": [
        {
          "indexed": false,
          "internalType": "uint256",
          "name": "poolId",
          "type": "uint256"
        }
      ],
      "name": "PoolIdUpdated",
      "type": "event"
    },
    {
      "inputs": [],
      "name": "MAX_FEE",
      "outputs": [
        {
          "internalType": "uint256",
          "name": "",
          "type": "uint256"
        }
      ],
      "stateMutability": "view",
      "type": "function"
    },
    {
      "inputs": [],
      "name": "accProfitPerShare",
      "outputs": [
        {
          "internalType": "uint256",
          "name": "",
          "type": "uint256"
        }
      ],
      "stateMutability": "view",
      "type": "function"
    },
    {
      "inputs": [],
      "name": "compoundAll",
      "outputs": [],
      "stateMutability": "nonpayable",
      "type": "function"
    },
    {
      "inputs": [],
      "name": "deploymentTimeStamp",
      "outputs": [
        {
          "internalType": "uint256",
          "name": "",
          "type": "uint256"
        }
      ],
      "stateMutability": "view",
      "type": "function"
    },
    {
      "inputs": [],
      "name": "divisor",
      "outputs": [
        {
          "internalType": "uint256",
          "name": "",
          "type": "uint256"
        }
      ],
      "stateMutability": "view",
      "type": "function"
    },
    {
      "inputs": [],
      "name": "emergencyWithdraw",
      "outputs": [],
      "stateMutability": "nonpayable",
      "type": "function"
    },
    {
      "inputs": [],
      "name": "galacticChef",
      "outputs": [
        {
          "internalType": "contract GalacticChef",
          "name": "",
          "type": "address"
        }
      ],
      "stateMutability": "view",
      "type": "function"
    },
    {
      "inputs": [],
      "name": "lastAutoCompoundBlock",
      "outputs": [
        {
          "internalType": "uint256",
          "name": "",
          "type": "uint256"
        }
      ],
      "stateMutability": "view",
      "type": "function"
    },
    {
      "inputs": [],
      "name": "nice",
      "outputs": [
        {
          "internalType": "contract IERC20",
          "name": "",
          "type": "address"
        }
      ],
      "stateMutability": "view",
      "type": "function"
    },
    {
      "inputs": [
        {
          "internalType": "address",
          "name": "",
          "type": "address"
        }
      ],
      "name": "niceRewards",
      "outputs": [
        {
          "internalType": "uint256",
          "name": "",
          "type": "uint256"
        }
      ],
      "stateMutability": "view",
      "type": "function"
    },
    {
      "inputs": [],
      "name": "owner",
      "outputs": [
        {
          "internalType": "address",
          "name": "",
          "type": "address"
        }
      ],
      "stateMutability": "view",
      "type": "function"
    },
    {
      "inputs": [
        {
          "internalType": "address",
          "name": "_address",
          "type": "address"
        }
      ],
      "name": "pendingProfits",
      "outputs": [
        {
          "internalType": "uint256",
          "name": "",
          "type": "uint256"
        }
      ],
      "stateMutability": "nonpayable",
      "type": "function"
    },
    {
      "inputs": [],
      "name": "performanceFeeCompounder",
      "outputs": [
        {
          "internalType": "uint256",
          "name": "",
          "type": "uint256"
        }
      ],
      "stateMutability": "view",
      "type": "function"
    },
    {
      "inputs": [],
      "name": "poolId",
      "outputs": [
        {
          "internalType": "uint256",
          "name": "",
          "type": "uint256"
        }
      ],
      "stateMutability": "view",
      "type": "function"
    },
    {
      "inputs": [],
      "name": "renounceOwnership",
      "outputs": [],
      "stateMutability": "nonpayable",
      "type": "function"
    },
    {
      "inputs": [
        {
          "internalType": "contract GalacticChef",
          "name": "_galacticChef",
          "type": "address"
        }
      ],
      "name": "setGalacticChef",
      "outputs": [],
      "stateMutability": "nonpayable",
      "type": "function"
    },
    {
      "inputs": [
        {
          "internalType": "uint256",
          "name": "_fee",
          "type": "uint256"
        }
      ],
      "name": "setPerformanceFeeCompounder",
      "outputs": [],
      "stateMutability": "nonpayable",
      "type": "function"
    },
    {
      "inputs": [
        {
          "internalType": "uint256",
          "name": "_poolId",
          "type": "uint256"
        }
      ],
      "name": "setPoolId",
      "outputs": [],
      "stateMutability": "nonpayable",
      "type": "function"
    },
    {
      "inputs": [
        {
          "internalType": "contract IStaking",
          "name": "_staking",
          "type": "address"
        }
      ],
      "name": "setStakingPool",
      "outputs": [],
      "stateMutability": "nonpayable",
      "type": "function"
    },
    {
      "inputs": [],
      "name": "stakingPool",
      "outputs": [
        {
          "internalType": "contract IStaking",
          "name": "",
          "type": "address"
        }
      ],
      "stateMutability": "view",
      "type": "function"
    },
    {
      "inputs": [
        {
          "internalType": "address",
          "name": "",
          "type": "address"
        }
      ],
      "name": "stakings",
      "outputs": [
        {
          "internalType": "uint256",
          "name": "shares",
          "type": "uint256"
        },
        {
          "internalType": "uint256",
          "name": "profitBaseline",
          "type": "uint256"
        }
      ],
      "stateMutability": "view",
      "type": "function"
    },
    {
      "inputs": [],
      "name": "totalProfitDistributed",
      "outputs": [
        {
          "internalType": "uint256",
          "name": "",
          "type": "uint256"
        }
      ],
      "stateMutability": "view",
      "type": "function"
    },
    {
      "inputs": [
        {
          "internalType": "address",
          "name": "newOwner",
          "type": "address"
        }
      ],
      "name": "transferOwnership",
      "outputs": [],
      "stateMutability": "nonpayable",
      "type": "function"
    },
    {
      "inputs": [],
      "name": "updateProfits",
      "outputs": [],
      "stateMutability": "nonpayable",
      "type": "function"
    },
    {
      "inputs": [],
      "name": "withdrawNiceRewards",
      "outputs": [],
      "stateMutability": "nonpayable",
      "type": "function"
    }
  ],
  "bytecode": "60a0604052600a60015534801561001557600080fd5b5060405161153e38038061153e833981016040819052610034916100a2565b61003d33610052565b6001600160a01b031660805242600a556100d2565b600080546001600160a01b038381166001600160a01b0319831681178455604051919092169283917f8be0079c531659141344cd1fd0a4f28419497f9722a3daafe3b4186f6b6457e09190a35050565b6000602082840312156100b457600080fd5b81516001600160a01b03811681146100cb57600080fd5b9392505050565b6080516114436100fb60003960008181610272015281816106090152610cf401526114436000f3fe608060405234801561001057600080fd5b50600436106101735760003560e01c8063668579c9116100de578063b249e88e11610097578063db2e21bc11610071578063db2e21bc146102ca578063dc6e13e1146102d2578063f2fde38b1461030e578063fb7773641461032157600080fd5b8063b249e88e146102af578063bc063e1a146102b8578063bca5503d146102c157600080fd5b8063668579c91461024b578063715018a6146102545780638da5cb5b1461025c57806392cc410a1461026d5780639b05ddb314610294578063ac78012c1461029c57600080fd5b80633028f63a116101305780633028f63a1461020357806337ab57961461021657806339cc13781461021e5780633e0dc34e146102315780634bf211b81461023a57806351496bbd1461024357600080fd5b80630c56ae3b146101785780630c616882146101a85780631f2dc5ef146101bd5780632533830a146101d457806326cba336146101dd5780632aabc592146101f0575b600080fd5b60035461018b906001600160a01b031681565b6040516001600160a01b0390911681526020015b60405180910390f35b6101bb6101b63660046111c1565b610341565b005b6101c661271081565b60405190815260200161019f565b6101c660095481565b6101bb6101eb3660046111de565b6103ef565b60045461018b906001600160a01b031681565b6101bb6102113660046111c1565b6104f6565b6101bb61059b565b6101c661022c3660046111c1565b61063b565b6101c660025481565b6101c660075481565b6101bb61071a565b6101c6600a5481565b6101bb6108c2565b6000546001600160a01b031661018b565b61018b7f000000000000000000000000000000000000000000000000000000000000000081565b6101bb6108f8565b6101bb6102aa3660046111de565b610d8b565b6101c660085481565b6101c66103e881565b6101c660015481565b6101bb6105ee565b6102f96102e03660046111c1565b6005602052600090815260409020805460019091015482565b6040805192835260208301919091520161019f565b6101bb61031c3660046111c1565b610dea565b6101c661032f3660046111c1565b60066020526000908152604090205481565b6000546001600160a01b031633146103745760405162461bcd60e51b815260040161036b906111f7565b60405180910390fd5b6004546001600160a01b0316156103cd5760405162461bcd60e51b815260206004820181905260248201527f7374616b696e6720706f6f6c206164647265737320616c726561647920736574604482015260640161036b565b600480546001600160a01b0319166001600160a01b0392909216919091179055565b6000546001600160a01b031633146104195760405162461bcd60e51b815260040161036b906111f7565b600081116104695760405162461bcd60e51b815260206004820152601a60248201527f466565206d7573742062652067726561746572207468616e2030000000000000604482015260640161036b565b6103e881106104ba5760405162461bcd60e51b815260206004820152601960248201527f466565206d757374206265206c657373207468616e2031302500000000000000604482015260640161036b565b60018190556040518181527f9b49d0cd76012d9c67241c2f68f836efbaf50ea29901a250040671402d5263f5906020015b60405180910390a150565b6000546001600160a01b031633146105205760405162461bcd60e51b815260040161036b906111f7565b6003546001600160a01b0316156105795760405162461bcd60e51b815260206004820181905260248201527f7374616b696e6720706f6f6c206164647265737320616c726561647920736574604482015260640161036b565b600380546001600160a01b0319166001600160a01b0392909216919091179055565b336000908152600660205260409020546105ee5760405162461bcd60e51b81526020600482015260146024820152734e6f207265776172647320617661696c61626c6560601b604482015260640161036b565b336000818152600660205260408120805491905590610638907f00000000000000000000000000000000000000000000000000000000000000006001600160a01b03169083610e82565b50565b6001600160a01b038181166000818152600560209081526040808320815180830183528154815260019091015492810192909252600354905163dc6e13e160e01b815260048101949094529193909291169063dc6e13e190602401610120604051808303816000875af11580156106b6573d6000803e3d6000fd5b505050506040513d601f19601f820116820180604052508101906106da919061122c565b50505085875250505060208401516008546107139491935061070d925064e8d4a510009161070791610ed9565b90610ee5565b90610ef1565b9392505050565b600360009054906101000a90046001600160a01b03166001600160a01b0316633a98ef396040518163ffffffff1660e01b81526004016020604051808303816000875af115801561076f573d6000803e3d6000fd5b505050506040513d601f19601f820116820180604052508101906107939190611295565b61079957565b60048054600254604051634828ced960e01b8152928301526000916001600160a01b0390911690634828ced9906024016020604051808303816000875af11580156107e8573d6000803e3d6000fd5b505050506040513d601f19601f8201168201806040525081019061080c9190611295565b9050806108165750565b6009546108239082610efd565b60095560035460408051633a98ef3960e01b815290516000926108ab926001600160a01b0390911691633a98ef3991600480820192602092909190829003018188875af1158015610878573d6000803e3d6000fd5b505050506040513d601f19601f8201168201806040525081019061089c9190611295565b6107078464e8d4a51000610ed9565b6008549091506108bb9082610efd565b6008555050565b6000546001600160a01b031633146108ec5760405162461bcd60e51b815260040161036b906111f7565b6108f66000610f09565b565b43600754111561094a5760405162461bcd60e51b815260206004820181905260248201527f436f6d706f756e6420416c6c206e6f7420796574206170706c696361626c652e604482015260640161036b565b600080600360009054906101000a90046001600160a01b03166001600160a01b03166338ed019a6040518163ffffffff1660e01b81526004016020604051808303816000875af11580156109a2573d6000803e3d6000fd5b505050506040513d601f19601f820116820180604052508101906109c69190611295565b90506000600360009054906101000a90046001600160a01b03166001600160a01b031663289bac076040518163ffffffff1660e01b81526004016020604051808303816000875af1158015610a1f573d6000803e3d6000fd5b505050506040513d601f19601f82011682018060405250810190610a439190611295565b90506000600360009054906101000a90046001600160a01b03166001600160a01b031663ecb1c9246040518163ffffffff1660e01b81526004016020604051808303816000875af1158015610a9c573d6000803e3d6000fd5b505050506040513d601f19601f82011682018060405250810190610ac09190611295565b905082828110610ace575060005b828281111580610ae7575083610ae48385610efd565b10155b15610af3575082610b00565b610afd8284610efd565b90505b610b0861071a565b815b81811015610ce257600354604051635832d57160e01b8152600481018390526000916001600160a01b031690635832d571906024016020604051808303816000875af1158015610b5e573d6000803e3d6000fd5b505050506040513d601f19601f82011682018060405250810190610b8291906112ae565b6001600160a01b0381811660008181526005602052604090819020600354915163dc6e13e160e01b815260048101939093529394509091169063dc6e13e190602401610120604051808303816000875af1158015610be4573d6000803e3d6000fd5b505050506040513d601f19601f82011682018060405250810190610c08919061122c565b5050508587555050506001840154600854600094610c39945091925061070d9164e8d4a51000916107079190610ed9565b6001830154909150610c4b9082610efd565b60018301558015610ccc576000610c7361271061070760015485610ed990919063ffffffff16565b9050610c7f8b82610efd565b9a50610c8b8282610ef1565b6001600160a01b038516600090815260066020526040902054909250610cb19083610efd565b6001600160a01b038516600090815260066020526040902055505b5050508080610cda906112e1565b915050610b0a565b5043600755610d1b6001600160a01b037f0000000000000000000000000000000000000000000000000000000000000000163388610e82565b600360009054906101000a90046001600160a01b03166001600160a01b0316639b05ddb36040518163ffffffff1660e01b8152600401600060405180830381600087803b158015610d6b57600080fd5b505af1158015610d7f573d6000803e3d6000fd5b50505050505050505050565b6000546001600160a01b03163314610db55760405162461bcd60e51b815260040161036b906111f7565b60028190556040518181527f62aeae90d89735cc89a299ecb77480c7ed88f04481174a37ee38b11dc60515f7906020016104eb565b6000546001600160a01b03163314610e145760405162461bcd60e51b815260040161036b906111f7565b6001600160a01b038116610e795760405162461bcd60e51b815260206004820152602660248201527f4f776e61626c653a206e6577206f776e657220697320746865207a65726f206160448201526564647265737360d01b606482015260840161036b565b61063881610f09565b604080516001600160a01b038416602482015260448082018490528251808303909101815260649091019091526020810180516001600160e01b031663a9059cbb60e01b179052610ed4908490610f59565b505050565b600061071382846112fc565b6000610713828461131b565b6000610713828461133d565b60006107138284611354565b600080546001600160a01b038381166001600160a01b0319831681178455604051919092169283917f8be0079c531659141344cd1fd0a4f28419497f9722a3daafe3b4186f6b6457e09190a35050565b6000610fae826040518060400160405280602081526020017f5361666545524332303a206c6f772d6c6576656c2063616c6c206661696c6564815250856001600160a01b031661102b9092919063ffffffff16565b805190915015610ed45780806020019051810190610fcc919061136c565b610ed45760405162461bcd60e51b815260206004820152602a60248201527f5361666545524332303a204552433230206f7065726174696f6e20646964206e6044820152691bdd081cdd58d8d9595960b21b606482015260840161036b565b606061103a8484600085611042565b949350505050565b6060824710156110a35760405162461bcd60e51b815260206004820152602660248201527f416464726573733a20696e73756666696369656e742062616c616e636520666f6044820152651c8818d85b1b60d21b606482015260840161036b565b6001600160a01b0385163b6110fa5760405162461bcd60e51b815260206004820152601d60248201527f416464726573733a2063616c6c20746f206e6f6e2d636f6e7472616374000000604482015260640161036b565b600080866001600160a01b0316858760405161111691906113be565b60006040518083038185875af1925050503d8060008114611153576040519150601f19603f3d011682016040523d82523d6000602084013e611158565b606091505b5091509150611168828286611173565b979650505050505050565b60608315611182575081610713565b8251156111925782518084602001fd5b8160405162461bcd60e51b815260040161036b91906113da565b6001600160a01b038116811461063857600080fd5b6000602082840312156111d357600080fd5b8135610713816111ac565b6000602082840312156111f057600080fd5b5035919050565b6020808252818101527f4f776e61626c653a2063616c6c6572206973206e6f7420746865206f776e6572604082015260600190565b60008060008060008060008060006101208a8c03121561124b57600080fd5b8951985060208a0151975060408a0151965060608a0151955060808a0151945060a08a0151935060c08a0151925060e08a015191506101008a015190509295985092959850929598565b6000602082840312156112a757600080fd5b5051919050565b6000602082840312156112c057600080fd5b8151610713816111ac565b634e487b7160e01b600052601160045260246000fd5b60006000198214156112f5576112f56112cb565b5060010190565b6000816000190483118215151615611316576113166112cb565b500290565b60008261133857634e487b7160e01b600052601260045260246000fd5b500490565b60008282101561134f5761134f6112cb565b500390565b60008219821115611367576113676112cb565b500190565b60006020828403121561137e57600080fd5b8151801515811461071357600080fd5b60005b838110156113a9578181015183820152602001611391565b838111156113b8576000848401525b50505050565b600082516113d081846020870161138e565b9190910192915050565b60208152600082518060208401526113f981604085016020870161138e565b601f01601f1916919091016040019291505056fea2646970667358221220499321630e36dc6d77710a97dc043b1cf063affecc9202b582f104eff737cf4164736f6c634300080c0033",
  "bytecodeSha1": "03fcc8e1cdc0ad6419dbef79d2459bc3514d01ef",
  "compiler": {
    "evm_version": "istanbul",
    "optimizer": {
      "enabled": true,
      "runs": 200
    },
    "version": "0.8.12+commit.f00d7308"
  },
  "contractName": "BitcrushNiceStaking",
  "language": "Solidity",
  "natspec": {
    "kind": "dev",
    "methods": {
      "compoundAll()": {
        "details": "compounds the rewards of all users in the pool while deducting fees",
        "notice": "compounds the rewards of all users in the pool"
      },
      "emergencyWithdraw()": {
        "details": "transfer all available funds of users to users wallet",
        "notice": "emergency withdraw funds of users"
      },
      "owner()": {
        "details": "Returns the address of the current owner."
      },
      "pendingProfits(address)": {
        "notice": "Get pending Profits to Claim",
        "params": {
          "_address": "the user's wallet address to calculate profits"
        },
        "returns": {
          "_0": "pending Profits to be claimed by this user"
        }
      },
      "renounceOwnership()": {
        "details": "Leaves the contract without owner. It will not be possible to call `onlyOwner` functions anymore. Can only be called by the current owner. NOTE: Renouncing ownership will leave the contract without an owner, thereby removing any functionality that is only available to the owner."
      },
      "setGalacticChef(address)": {
        "details": "stores the _galacticChef address in the state variable `galacticChef`",
        "notice": "Store `_galacticChef`.",
        "params": {
          "_galacticChef": "the new value to store"
        }
      },
      "setPerformanceFeeCompounder(uint256)": {
        "details": "stores the fee in the state variable `performanceFeeCompounder`",
        "notice": "Store `_fee`.",
        "params": {
          "_fee": "the new value to store"
        }
      },
      "setPoolId(uint256)": {
        "details": "stores the _poolId address in the state variable `poolId`",
        "notice": "Store `_poolId`.",
        "params": {
          "_poolId": "the new value to store"
        }
      },
      "setStakingPool(address)": {
        "details": "stores the _staking address in the state variable `staking`",
        "notice": "Store `_staking`.",
        "params": {
          "_staking": "the new value to store"
        }
      },
      "transferOwnership(address)": {
        "details": "Transfers ownership of the contract to a new account (`newOwner`). Can only be called by the current owner."
      },
      "updateProfits()": {
        "details": "this allows for consistent profit reporting and no change on profits to distribute",
        "notice": "updates accProfitPerShare based on current Profit available and totalShares"
      },
      "withdrawNiceRewards()": {
        "details": "transfer all available funds of users to users wallet",
        "notice": "withdraw funds of users"
      }
    },
    "version": 1
  },
  "opcodes": "PUSH1 0x80 PUSH1 0x40 MSTORE CALLVALUE DUP1 ISZERO PUSH2 0x10 JUMPI PUSH1 0x0 DUP1 REVERT JUMPDEST POP PUSH1 0x4 CALLDATASIZE LT PUSH2 0x173 JUMPI PUSH1 0x0 CALLDATALOAD PUSH1 0xE0 SHR DUP1 PUSH4 0x668579C9 GT PUSH2 0xDE JUMPI DUP1 PUSH4 0xB249E88E GT PUSH2 0x97 JUMPI DUP1 PUSH4 0xDB2E21BC GT PUSH2 0x71 JUMPI DUP1 PUSH4 0xDB2E21BC EQ PUSH2 0x2CA JUMPI DUP1 PUSH4 0xDC6E13E1 EQ PUSH2 0x2D2 JUMPI DUP1 PUSH4 0xF2FDE38B EQ PUSH2 0x30E JUMPI DUP1 PUSH4 0xFB777364 EQ PUSH2 0x321 JUMPI PUSH1 0x0 DUP1 REVERT JUMPDEST DUP1 PUSH4 0xB249E88E EQ PUSH2 0x2AF JUMPI DUP1 PUSH4 0xBC063E1A EQ PUSH2 0x2B8 JUMPI DUP1 PUSH4 0xBCA5503D EQ PUSH2 0x2C1 JUMPI PUSH1 0x0 DUP1 REVERT JUMPDEST DUP1 PUSH4 0x668579C9 EQ PUSH2 0x24B JUMPI DUP1 PUSH4 0x715018A6 EQ PUSH2 0x254 JUMPI DUP1 PUSH4 0x8DA5CB5B EQ PUSH2 0x25C JUMPI DUP1 PUSH4 0x92CC410A EQ PUSH2 0x26D JUMPI DUP1 PUSH4 0x9B05DDB3 EQ PUSH2 0x294 JUMPI DUP1 PUSH4 0xAC78012C EQ PUSH2 0x29C JUMPI PUSH1 0x0 DUP1 REVERT JUMPDEST DUP1 PUSH4 0x3028F63A GT PUSH2 0x130 JUMPI DUP1 PUSH4 0x3028F63A EQ PUSH2 0x203 JUMPI DUP1 PUSH4 0x37AB5796 EQ PUSH2 0x216 JUMPI DUP1 PUSH4 0x39CC1378 EQ PUSH2 0x21E JUMPI DUP1 PUSH4 0x3E0DC34E EQ PUSH2 0x231 JUMPI DUP1 PUSH4 0x4BF211B8 EQ PUSH2 0x23A JUMPI DUP1 PUSH4 0x51496BBD EQ PUSH2 0x243 JUMPI PUSH1 0x0 DUP1 REVERT JUMPDEST DUP1 PUSH4 0xC56AE3B EQ PUSH2 0x178 JUMPI DUP1 PUSH4 0xC616882 EQ PUSH2 0x1A8 JUMPI DUP1 PUSH4 0x1F2DC5EF EQ PUSH2 0x1BD JUMPI DUP1 PUSH4 0x2533830A EQ PUSH2 0x1D4 JUMPI DUP1 PUSH4 0x26CBA336 EQ PUSH2 0x1DD JUMPI DUP1 PUSH4 0x2AABC592 EQ PUSH2 0x1F0 JUMPI JUMPDEST PUSH1 0x0 DUP1 REVERT JUMPDEST PUSH1 0x3 SLOAD PUSH2 0x18B SWAP1 PUSH1 0x1 PUSH1 0x1 PUSH1 0xA0 SHL SUB AND DUP2 JUMP JUMPDEST PUSH1 0x40 MLOAD PUSH1 0x1 PUSH1 0x1 PUSH1 0xA0 SHL SUB SWAP1 SWAP2 AND DUP2 MSTORE PUSH1 0x20 ADD JUMPDEST PUSH1 0x40 MLOAD DUP1 SWAP2 SUB SWAP1 RETURN JUMPDEST PUSH2 0x1BB PUSH2 0x1B6 CALLDATASIZE PUSH1 0x4 PUSH2 0x11C1 JUMP JUMPDEST PUSH2 0x341 JUMP JUMPDEST STOP JUMPDEST PUSH2 0x1C6 PUSH2 0x2710 DUP2 JUMP JUMPDEST PUSH1 0x40 MLOAD SWAP1 DUP2 MSTORE PUSH1 0x20 ADD PUSH2 0x19F JUMP JUMPDEST PUSH2 0x1C6 PUSH1 0x9 SLOAD DUP2 JUMP JUMPDEST PUSH2 0x1BB PUSH2 0x1EB CALLDATASIZE PUSH1 0x4 PUSH2 0x11DE JUMP JUMPDEST PUSH2 0x3EF JUMP JUMPDEST PUSH1 0x4 SLOAD PUSH2 0x18B SWAP1 PUSH1 0x1 PUSH1 0x1 PUSH1 0xA0 SHL SUB AND DUP2 JUMP JUMPDEST PUSH2 0x1BB PUSH2 0x211 CALLDATASIZE PUSH1 0x4 PUSH2 0x11C1 JUMP JUMPDEST PUSH2 0x4F6 JUMP JUMPDEST PUSH2 0x1BB PUSH2 0x59B JUMP JUMPDEST PUSH2 0x1C6 PUSH2 0x22C CALLDATASIZE PUSH1 0x4 PUSH2 0x11C1 JUMP JUMPDEST PUSH2 0x63B JUMP JUMPDEST PUSH2 0x1C6 PUSH1 0x2 SLOAD DUP2 JUMP JUMPDEST PUSH2 0x1C6 PUSH1 0x7 SLOAD DUP2 JUMP JUMPDEST PUSH2 0x1BB PUSH2 0x71A JUMP JUMPDEST PUSH2 0x1C6 PUSH1 0xA SLOAD DUP2 JUMP JUMPDEST PUSH2 0x1BB PUSH2 0x8C2 JUMP JUMPDEST PUSH1 0x0 SLOAD PUSH1 0x1 PUSH1 0x1 PUSH1 0xA0 SHL SUB AND PUSH2 0x18B JUMP JUMPDEST PUSH2 0x18B PUSH32 0x0 DUP2 JUMP JUMPDEST PUSH2 0x1BB PUSH2 0x8F8 JUMP JUMPDEST PUSH2 0x1BB PUSH2 0x2AA CALLDATASIZE PUSH1 0x4 PUSH2 0x11DE JUMP JUMPDEST PUSH2 0xD8B JUMP JUMPDEST PUSH2 0x1C6 PUSH1 0x8 SLOAD DUP2 JUMP JUMPDEST PUSH2 0x1C6 PUSH2 0x3E8 DUP2 JUMP JUMPDEST PUSH2 0x1C6 PUSH1 0x1 SLOAD DUP2 JUMP JUMPDEST PUSH2 0x1BB PUSH2 0x5EE JUMP JUMPDEST PUSH2 0x2F9 PUSH2 0x2E0 CALLDATASIZE PUSH1 0x4 PUSH2 0x11C1 JUMP JUMPDEST PUSH1 0x5 PUSH1 0x20 MSTORE PUSH1 0x0 SWAP1 DUP2 MSTORE PUSH1 0x40 SWAP1 KECCAK256 DUP1 SLOAD PUSH1 0x1 SWAP1 SWAP2 ADD SLOAD DUP3 JUMP JUMPDEST PUSH1 0x40 DUP1 MLOAD SWAP3 DUP4 MSTORE PUSH1 0x20 DUP4 ADD SWAP2 SWAP1 SWAP2 MSTORE ADD PUSH2 0x19F JUMP JUMPDEST PUSH2 0x1BB PUSH2 0x31C CALLDATASIZE PUSH1 0x4 PUSH2 0x11C1 JUMP JUMPDEST PUSH2 0xDEA JUMP JUMPDEST PUSH2 0x1C6 PUSH2 0x32F CALLDATASIZE PUSH1 0x4 PUSH2 0x11C1 JUMP JUMPDEST PUSH1 0x6 PUSH1 0x20 MSTORE PUSH1 0x0 SWAP1 DUP2 MSTORE PUSH1 0x40 SWAP1 KECCAK256 SLOAD DUP2 JUMP JUMPDEST PUSH1 0x0 SLOAD PUSH1 0x1 PUSH1 0x1 PUSH1 0xA0 SHL SUB AND CALLER EQ PUSH2 0x374 JUMPI PUSH1 0x40 MLOAD PUSH3 0x461BCD PUSH1 0xE5 SHL DUP2 MSTORE PUSH1 0x4 ADD PUSH2 0x36B SWAP1 PUSH2 0x11F7 JUMP JUMPDEST PUSH1 0x40 MLOAD DUP1 SWAP2 SUB SWAP1 REVERT JUMPDEST PUSH1 0x4 SLOAD PUSH1 0x1 PUSH1 0x1 PUSH1 0xA0 SHL SUB AND ISZERO PUSH2 0x3CD JUMPI PUSH1 0x40 MLOAD PUSH3 0x461BCD PUSH1 0xE5 SHL DUP2 MSTORE PUSH1 0x20 PUSH1 0x4 DUP3 ADD DUP2 SWAP1 MSTORE PUSH1 0x24 DUP3 ADD MSTORE PUSH32 0x7374616B696E6720706F6F6C206164647265737320616C726561647920736574 PUSH1 0x44 DUP3 ADD MSTORE PUSH1 0x64 ADD PUSH2 0x36B JUMP JUMPDEST PUSH1 0x4 DUP1 SLOAD PUSH1 0x1 PUSH1 0x1 PUSH1 0xA0 SHL SUB NOT AND PUSH1 0x1 PUSH1 0x1 PUSH1 0xA0 SHL SUB SWAP3 SWAP1 SWAP3 AND SWAP2 SWAP1 SWAP2 OR SWAP1 SSTORE JUMP JUMPDEST PUSH1 0x0 SLOAD PUSH1 0x1 PUSH1 0x1 PUSH1 0xA0 SHL SUB AND CALLER EQ PUSH2 0x419 JUMPI PUSH1 0x40 MLOAD PUSH3 0x461BCD PUSH1 0xE5 SHL DUP2 MSTORE PUSH1 0x4 ADD PUSH2 0x36B SWAP1 PUSH2 0x11F7 JUMP JUMPDEST PUSH1 0x0 DUP2 GT PUSH2 0x469 JUMPI PUSH1 0x40 MLOAD PUSH3 0x461BCD PUSH1 0xE5 SHL DUP2 MSTORE PUSH1 0x20 PUSH1 0x4 DUP3 ADD MSTORE PUSH1 0x1A PUSH1 0x24 DUP3 ADD MSTORE PUSH32 0x466565206D7573742062652067726561746572207468616E2030000000000000 PUSH1 0x44 DUP3 ADD MSTORE PUSH1 0x64 ADD PUSH2 0x36B JUMP JUMPDEST PUSH2 0x3E8 DUP2 LT PUSH2 0x4BA JUMPI PUSH1 0x40 MLOAD PUSH3 0x461BCD PUSH1 0xE5 SHL DUP2 MSTORE PUSH1 0x20 PUSH1 0x4 DUP3 ADD MSTORE PUSH1 0x19 PUSH1 0x24 DUP3 ADD MSTORE PUSH32 0x466565206D757374206265206C657373207468616E2031302500000000000000 PUSH1 0x44 DUP3 ADD MSTORE PUSH1 0x64 ADD PUSH2 0x36B JUMP JUMPDEST PUSH1 0x1 DUP2 SWAP1 SSTORE PUSH1 0x40 MLOAD DUP2 DUP2 MSTORE PUSH32 0x9B49D0CD76012D9C67241C2F68F836EFBAF50EA29901A250040671402D5263F5 SWAP1 PUSH1 0x20 ADD JUMPDEST PUSH1 0x40 MLOAD DUP1 SWAP2 SUB SWAP1 LOG1 POP JUMP JUMPDEST PUSH1 0x0 SLOAD PUSH1 0x1 PUSH1 0x1 PUSH1 0xA0 SHL SUB AND CALLER EQ PUSH2 0x520 JUMPI PUSH1 0x40 MLOAD PUSH3 0x461BCD PUSH1 0xE5 SHL DUP2 MSTORE PUSH1 0x4 ADD PUSH2 0x36B SWAP1 PUSH2 0x11F7 JUMP JUMPDEST PUSH1 0x3 SLOAD PUSH1 0x1 PUSH1 0x1 PUSH1 0xA0 SHL SUB AND ISZERO PUSH2 0x579 JUMPI PUSH1 0x40 MLOAD PUSH3 0x461BCD PUSH1 0xE5 SHL DUP2 MSTORE PUSH1 0x20 PUSH1 0x4 DUP3 ADD DUP2 SWAP1 MSTORE PUSH1 0x24 DUP3 ADD MSTORE PUSH32 0x7374616B696E6720706F6F6C206164647265737320616C726561647920736574 PUSH1 0x44 DUP3 ADD MSTORE PUSH1 0x64 ADD PUSH2 0x36B JUMP JUMPDEST PUSH1 0x3 DUP1 SLOAD PUSH1 0x1 PUSH1 0x1 PUSH1 0xA0 SHL SUB NOT AND PUSH1 0x1 PUSH1 0x1 PUSH1 0xA0 SHL SUB SWAP3 SWAP1 SWAP3 AND SWAP2 SWAP1 SWAP2 OR SWAP1 SSTORE JUMP JUMPDEST CALLER PUSH1 0x0 SWAP1 DUP2 MSTORE PUSH1 0x6 PUSH1 0x20 MSTORE PUSH1 0x40 SWAP1 KECCAK256 SLOAD PUSH2 0x5EE JUMPI PUSH1 0x40 MLOAD PUSH3 0x461BCD PUSH1 0xE5 SHL DUP2 MSTORE PUSH1 0x20 PUSH1 0x4 DUP3 ADD MSTORE PUSH1 0x14 PUSH1 0x24 DUP3 ADD MSTORE PUSH20 0x4E6F207265776172647320617661696C61626C65 PUSH1 0x60 SHL PUSH1 0x44 DUP3 ADD MSTORE PUSH1 0x64 ADD PUSH2 0x36B JUMP JUMPDEST CALLER PUSH1 0x0 DUP2 DUP2 MSTORE PUSH1 0x6 PUSH1 0x20 MSTORE PUSH1 0x40 DUP2 KECCAK256 DUP1 SLOAD SWAP2 SWAP1 SSTORE SWAP1 PUSH2 0x638 SWAP1 PUSH32 0x0 PUSH1 0x1 PUSH1 0x1 PUSH1 0xA0 SHL SUB AND SWAP1 DUP4 PUSH2 0xE82 JUMP JUMPDEST POP JUMP JUMPDEST PUSH1 0x1 PUSH1 0x1 PUSH1 0xA0 SHL SUB DUP2 DUP2 AND PUSH1 0x0 DUP2 DUP2 MSTORE PUSH1 0x5 PUSH1 0x20 SWAP1 DUP2 MSTORE PUSH1 0x40 DUP1 DUP4 KECCAK256 DUP2 MLOAD DUP1 DUP4 ADD DUP4 MSTORE DUP2 SLOAD DUP2 MSTORE PUSH1 0x1 SWAP1 SWAP2 ADD SLOAD SWAP3 DUP2 ADD SWAP3 SWAP1 SWAP3 MSTORE PUSH1 0x3 SLOAD SWAP1 MLOAD PUSH4 0xDC6E13E1 PUSH1 0xE0 SHL DUP2 MSTORE PUSH1 0x4 DUP2 ADD SWAP5 SWAP1 SWAP5 MSTORE SWAP2 SWAP4 SWAP1 SWAP3 SWAP2 AND SWAP1 PUSH4 0xDC6E13E1 SWAP1 PUSH1 0x24 ADD PUSH2 0x120 PUSH1 0x40 MLOAD DUP1 DUP4 SUB DUP2 PUSH1 0x0 DUP8 GAS CALL ISZERO DUP1 ISZERO PUSH2 0x6B6 JUMPI RETURNDATASIZE PUSH1 0x0 DUP1 RETURNDATACOPY RETURNDATASIZE PUSH1 0x0 REVERT JUMPDEST POP POP POP POP PUSH1 0x40 MLOAD RETURNDATASIZE PUSH1 0x1F NOT PUSH1 0x1F DUP3 ADD AND DUP3 ADD DUP1 PUSH1 0x40 MSTORE POP DUP2 ADD SWAP1 PUSH2 0x6DA SWAP2 SWAP1 PUSH2 0x122C JUMP JUMPDEST POP POP POP DUP6 DUP8 MSTORE POP POP POP PUSH1 0x20 DUP5 ADD MLOAD PUSH1 0x8 SLOAD PUSH2 0x713 SWAP5 SWAP2 SWAP4 POP PUSH2 0x70D SWAP3 POP PUSH5 0xE8D4A51000 SWAP2 PUSH2 0x707 SWAP2 PUSH2 0xED9 JUMP JUMPDEST SWAP1 PUSH2 0xEE5 JUMP JUMPDEST SWAP1 PUSH2 0xEF1 JUMP JUMPDEST SWAP4 SWAP3 POP POP POP JUMP JUMPDEST PUSH1 0x3 PUSH1 0x0 SWAP1 SLOAD SWAP1 PUSH2 0x100 EXP SWAP1 DIV PUSH1 0x1 PUSH1 0x1 PUSH1 0xA0 SHL SUB AND PUSH1 0x1 PUSH1 0x1 PUSH1 0xA0 SHL SUB AND PUSH4 0x3A98EF39 PUSH1 0x40 MLOAD DUP2 PUSH4 0xFFFFFFFF AND PUSH1 0xE0 SHL DUP2 MSTORE PUSH1 0x4 ADD PUSH1 0x20 PUSH1 0x40 MLOAD DUP1 DUP4 SUB DUP2 PUSH1 0x0 DUP8 GAS CALL ISZERO DUP1 ISZERO PUSH2 0x76F JUMPI RETURNDATASIZE PUSH1 0x0 DUP1 RETURNDATACOPY RETURNDATASIZE PUSH1 0x0 REVERT JUMPDEST POP POP POP POP PUSH1 0x40 MLOAD RETURNDATASIZE PUSH1 0x1F NOT PUSH1 0x1F DUP3 ADD AND DUP3 ADD DUP1 PUSH1 0x40 MSTORE POP DUP2 ADD SWAP1 PUSH2 0x793 SWAP2 SWAP1 PUSH2 0x1295 JUMP JUMPDEST PUSH2 0x799 JUMPI JUMP JUMPDEST PUSH1 0x4 DUP1 SLOAD PUSH1 0x2 SLOAD PUSH1 0x40 MLOAD PUSH4 0x4828CED9 PUSH1 0xE0 SHL DUP2 MSTORE SWAP3 DUP4 ADD MSTORE PUSH1 0x0 SWAP2 PUSH1 0x1 PUSH1 0x1 PUSH1 0xA0 SHL SUB SWAP1 SWAP2 AND SWAP1 PUSH4 0x4828CED9 SWAP1 PUSH1 0x24 ADD PUSH1 0x20 PUSH1 0x40 MLOAD DUP1 DUP4 SUB DUP2 PUSH1 0x0 DUP8 GAS CALL ISZERO DUP1 ISZERO PUSH2 0x7E8 JUMPI RETURNDATASIZE PUSH1 0x0 DUP1 RETURNDATACOPY RETURNDATASIZE PUSH1 0x0 REVERT JUMPDEST POP POP POP POP PUSH1 0x40 MLOAD RETURNDATASIZE PUSH1 0x1F NOT PUSH1 0x1F DUP3 ADD AND DUP3 ADD DUP1 PUSH1 0x40 MSTORE POP DUP2 ADD SWAP1 PUSH2 0x80C SWAP2 SWAP1 PUSH2 0x1295 JUMP JUMPDEST SWAP1 POP DUP1 PUSH2 0x816 JUMPI POP JUMP JUMPDEST PUSH1 0x9 SLOAD PUSH2 0x823 SWAP1 DUP3 PUSH2 0xEFD JUMP JUMPDEST PUSH1 0x9 SSTORE PUSH1 0x3 SLOAD PUSH1 0x40 DUP1 MLOAD PUSH4 0x3A98EF39 PUSH1 0xE0 SHL DUP2 MSTORE SWAP1 MLOAD PUSH1 0x0 SWAP3 PUSH2 0x8AB SWAP3 PUSH1 0x1 PUSH1 0x1 PUSH1 0xA0 SHL SUB SWAP1 SWAP2 AND SWAP2 PUSH4 0x3A98EF39 SWAP2 PUSH1 0x4 DUP1 DUP3 ADD SWAP3 PUSH1 0x20 SWAP3 SWAP1 SWAP2 SWAP1 DUP3 SWAP1 SUB ADD DUP2 DUP9 DUP8 GAS CALL ISZERO DUP1 ISZERO PUSH2 0x878 JUMPI RETURNDATASIZE PUSH1 0x0 DUP1 RETURNDATACOPY RETURNDATASIZE PUSH1 0x0 REVERT JUMPDEST POP POP POP POP PUSH1 0x40 MLOAD RETURNDATASIZE PUSH1 0x1F NOT PUSH1 0x1F DUP3 ADD AND DUP3 ADD DUP1 PUSH1 0x40 MSTORE POP DUP2 ADD SWAP1 PUSH2 0x89C SWAP2 SWAP1 PUSH2 0x1295 JUMP JUMPDEST PUSH2 0x707 DUP5 PUSH5 0xE8D4A51000 PUSH2 0xED9 JUMP JUMPDEST PUSH1 0x8 SLOAD SWAP1 SWAP2 POP PUSH2 0x8BB SWAP1 DUP3 PUSH2 0xEFD JUMP JUMPDEST PUSH1 0x8 SSTORE POP POP JUMP JUMPDEST PUSH1 0x0 SLOAD PUSH1 0x1 PUSH1 0x1 PUSH1 0xA0 SHL SUB AND CALLER EQ PUSH2 0x8EC JUMPI PUSH1 0x40 MLOAD PUSH3 0x461BCD PUSH1 0xE5 SHL DUP2 MSTORE PUSH1 0x4 ADD PUSH2 0x36B SWAP1 PUSH2 0x11F7 JUMP JUMPDEST PUSH2 0x8F6 PUSH1 0x0 PUSH2 0xF09 JUMP JUMPDEST JUMP JUMPDEST NUMBER PUSH1 0x7 SLOAD GT ISZERO PUSH2 0x94A JUMPI PUSH1 0x40 MLOAD PUSH3 0x461BCD PUSH1 0xE5 SHL DUP2 MSTORE PUSH1 0x20 PUSH1 0x4 DUP3 ADD DUP2 SWAP1 MSTORE PUSH1 0x24 DUP3 ADD MSTORE PUSH32 0x436F6D706F756E6420416C6C206E6F7420796574206170706C696361626C652E PUSH1 0x44 DUP3 ADD MSTORE PUSH1 0x64 ADD PUSH2 0x36B JUMP JUMPDEST PUSH1 0x0 DUP1 PUSH1 0x3 PUSH1 0x0 SWAP1 SLOAD SWAP1 PUSH2 0x100 EXP SWAP1 DIV PUSH1 0x1 PUSH1 0x1 PUSH1 0xA0 SHL SUB AND PUSH1 0x1 PUSH1 0x1 PUSH1 0xA0 SHL SUB AND PUSH4 0x38ED019A PUSH1 0x40 MLOAD DUP2 PUSH4 0xFFFFFFFF AND PUSH1 0xE0 SHL DUP2 MSTORE PUSH1 0x4 ADD PUSH1 0x20 PUSH1 0x40 MLOAD DUP1 DUP4 SUB DUP2 PUSH1 0x0 DUP8 GAS CALL ISZERO DUP1 ISZERO PUSH2 0x9A2 JUMPI RETURNDATASIZE PUSH1 0x0 DUP1 RETURNDATACOPY RETURNDATASIZE PUSH1 0x0 REVERT JUMPDEST POP POP POP POP PUSH1 0x40 MLOAD RETURNDATASIZE PUSH1 0x1F NOT PUSH1 0x1F DUP3 ADD AND DUP3 ADD DUP1 PUSH1 0x40 MSTORE POP DUP2 ADD SWAP1 PUSH2 0x9C6 SWAP2 SWAP1 PUSH2 0x1295 JUMP JUMPDEST SWAP1 POP PUSH1 0x0 PUSH1 0x3 PUSH1 0x0 SWAP1 SLOAD SWAP1 PUSH2 0x100 EXP SWAP1 DIV PUSH1 0x1 PUSH1 0x1 PUSH1 0xA0 SHL SUB AND PUSH1 0x1 PUSH1 0x1 PUSH1 0xA0 SHL SUB AND PUSH4 0x289BAC07 PUSH1 0x40 MLOAD DUP2 PUSH4 0xFFFFFFFF AND PUSH1 0xE0 SHL DUP2 MSTORE PUSH1 0x4 ADD PUSH1 0x20 PUSH1 0x40 MLOAD DUP1 DUP4 SUB DUP2 PUSH1 0x0 DUP8 GAS CALL ISZERO DUP1 ISZERO PUSH2 0xA1F JUMPI RETURNDATASIZE PUSH1 0x0 DUP1 RETURNDATACOPY RETURNDATASIZE PUSH1 0x0 REVERT JUMPDEST POP POP POP POP PUSH1 0x40 MLOAD RETURNDATASIZE PUSH1 0x1F NOT PUSH1 0x1F DUP3 ADD AND DUP3 ADD DUP1 PUSH1 0x40 MSTORE POP DUP2 ADD SWAP1 PUSH2 0xA43 SWAP2 SWAP1 PUSH2 0x1295 JUMP JUMPDEST SWAP1 POP PUSH1 0x0 PUSH1 0x3 PUSH1 0x0 SWAP1 SLOAD SWAP1 PUSH2 0x100 EXP SWAP1 DIV PUSH1 0x1 PUSH1 0x1 PUSH1 0xA0 SHL SUB AND PUSH1 0x1 PUSH1 0x1 PUSH1 0xA0 SHL SUB AND PUSH4 0xECB1C924 PUSH1 0x40 MLOAD DUP2 PUSH4 0xFFFFFFFF AND PUSH1 0xE0 SHL DUP2 MSTORE PUSH1 0x4 ADD PUSH1 0x20 PUSH1 0x40 MLOAD DUP1 DUP4 SUB DUP2 PUSH1 0x0 DUP8 GAS CALL ISZERO DUP1 ISZERO PUSH2 0xA9C JUMPI RETURNDATASIZE PUSH1 0x0 DUP1 RETURNDATACOPY RETURNDATASIZE PUSH1 0x0 REVERT JUMPDEST POP POP POP POP PUSH1 0x40 MLOAD RETURNDATASIZE PUSH1 0x1F NOT PUSH1 0x1F DUP3 ADD AND DUP3 ADD DUP1 PUSH1 0x40 MSTORE POP DUP2 ADD SWAP1 PUSH2 0xAC0 SWAP2 SWAP1 PUSH2 0x1295 JUMP JUMPDEST SWAP1 POP DUP3 DUP3 DUP2 LT PUSH2 0xACE JUMPI POP PUSH1 0x0 JUMPDEST DUP3 DUP3 DUP2 GT ISZERO DUP1 PUSH2 0xAE7 JUMPI POP DUP4 PUSH2 0xAE4 DUP4 DUP6 PUSH2 0xEFD JUMP JUMPDEST LT ISZERO JUMPDEST ISZERO PUSH2 0xAF3 JUMPI POP DUP3 PUSH2 0xB00 JUMP JUMPDEST PUSH2 0xAFD DUP3 DUP5 PUSH2 0xEFD JUMP JUMPDEST SWAP1 POP JUMPDEST PUSH2 0xB08 PUSH2 0x71A JUMP JUMPDEST DUP2 JUMPDEST DUP2 DUP2 LT ISZERO PUSH2 0xCE2 JUMPI PUSH1 0x3 SLOAD PUSH1 0x40 MLOAD PUSH4 0x5832D571 PUSH1 0xE0 SHL DUP2 MSTORE PUSH1 0x4 DUP2 ADD DUP4 SWAP1 MSTORE PUSH1 0x0 SWAP2 PUSH1 0x1 PUSH1 0x1 PUSH1 0xA0 SHL SUB AND SWAP1 PUSH4 0x5832D571 SWAP1 PUSH1 0x24 ADD PUSH1 0x20 PUSH1 0x40 MLOAD DUP1 DUP4 SUB DUP2 PUSH1 0x0 DUP8 GAS CALL ISZERO DUP1 ISZERO PUSH2 0xB5E JUMPI RETURNDATASIZE PUSH1 0x0 DUP1 RETURNDATACOPY RETURNDATASIZE PUSH1 0x0 REVERT JUMPDEST POP POP POP POP PUSH1 0x40 MLOAD RETURNDATASIZE PUSH1 0x1F NOT PUSH1 0x1F DUP3 ADD AND DUP3 ADD DUP1 PUSH1 0x40 MSTORE POP DUP2 ADD SWAP1 PUSH2 0xB82 SWAP2 SWAP1 PUSH2 0x12AE JUMP JUMPDEST PUSH1 0x1 PUSH1 0x1 PUSH1 0xA0 SHL SUB DUP2 DUP2 AND PUSH1 0x0 DUP2 DUP2 MSTORE PUSH1 0x5 PUSH1 0x20 MSTORE PUSH1 0x40 SWAP1 DUP2 SWAP1 KECCAK256 PUSH1 0x3 SLOAD SWAP2 MLOAD PUSH4 0xDC6E13E1 PUSH1 0xE0 SHL DUP2 MSTORE PUSH1 0x4 DUP2 ADD SWAP4 SWAP1 SWAP4 MSTORE SWAP4 SWAP5 POP SWAP1 SWAP2 AND SWAP1 PUSH4 0xDC6E13E1 SWAP1 PUSH1 0x24 ADD PUSH2 0x120 PUSH1 0x40 MLOAD DUP1 DUP4 SUB DUP2 PUSH1 0x0 DUP8 GAS CALL ISZERO DUP1 ISZERO PUSH2 0xBE4 JUMPI RETURNDATASIZE PUSH1 0x0 DUP1 RETURNDATACOPY RETURNDATASIZE PUSH1 0x0 REVERT JUMPDEST POP POP POP POP PUSH1 0x40 MLOAD RETURNDATASIZE PUSH1 0x1F NOT PUSH1 0x1F DUP3 ADD AND DUP3 ADD DUP1 PUSH1 0x40 MSTORE POP DUP2 ADD SWAP1 PUSH2 0xC08 SWAP2 SWAP1 PUSH2 0x122C JUMP JUMPDEST POP POP POP DUP6 DUP8 SSTORE POP POP POP PUSH1 0x1 DUP5 ADD SLOAD PUSH1 0x8 SLOAD PUSH1 0x0 SWAP5 PUSH2 0xC39 SWAP5 POP SWAP2 SWAP3 POP PUSH2 0x70D SWAP2 PUSH5 0xE8D4A51000 SWAP2 PUSH2 0x707 SWAP2 SWAP1 PUSH2 0xED9 JUMP JUMPDEST PUSH1 0x1 DUP4 ADD SLOAD SWAP1 SWAP2 POP PUSH2 0xC4B SWAP1 DUP3 PUSH2 0xEFD JUMP JUMPDEST PUSH1 0x1 DUP4 ADD SSTORE DUP1 ISZERO PUSH2 0xCCC JUMPI PUSH1 0x0 PUSH2 0xC73 PUSH2 0x2710 PUSH2 0x707 PUSH1 0x1 SLOAD DUP6 PUSH2 0xED9 SWAP1 SWAP2 SWAP1 PUSH4 0xFFFFFFFF AND JUMP JUMPDEST SWAP1 POP PUSH2 0xC7F DUP12 DUP3 PUSH2 0xEFD JUMP JUMPDEST SWAP11 POP PUSH2 0xC8B DUP3 DUP3 PUSH2 0xEF1 JUMP JUMPDEST PUSH1 0x1 PUSH1 0x1 PUSH1 0xA0 SHL SUB DUP6 AND PUSH1 0x0 SWAP1 DUP2 MSTORE PUSH1 0x6 PUSH1 0x20 MSTORE PUSH1 0x40 SWAP1 KECCAK256 SLOAD SWAP1 SWAP3 POP PUSH2 0xCB1 SWAP1 DUP4 PUSH2 0xEFD JUMP JUMPDEST PUSH1 0x1 PUSH1 0x1 PUSH1 0xA0 SHL SUB DUP6 AND PUSH1 0x0 SWAP1 DUP2 MSTORE PUSH1 0x6 PUSH1 0x20 MSTORE PUSH1 0x40 SWAP1 KECCAK256 SSTORE POP JUMPDEST POP POP POP DUP1 DUP1 PUSH2 0xCDA SWAP1 PUSH2 0x12E1 JUMP JUMPDEST SWAP2 POP POP PUSH2 0xB0A JUMP JUMPDEST POP NUMBER PUSH1 0x7 SSTORE PUSH2 0xD1B PUSH1 0x1 PUSH1 0x1 PUSH1 0xA0 SHL SUB PUSH32 0x0 AND CALLER DUP9 PUSH2 0xE82 JUMP JUMPDEST PUSH1 0x3 PUSH1 0x0 SWAP1 SLOAD SWAP1 PUSH2 0x100 EXP SWAP1 DIV PUSH1 0x1 PUSH1 0x1 PUSH1 0xA0 SHL SUB AND PUSH1 0x1 PUSH1 0x1 PUSH1 0xA0 SHL SUB AND PUSH4 0x9B05DDB3 PUSH1 0x40 MLOAD DUP2 PUSH4 0xFFFFFFFF AND PUSH1 0xE0 SHL DUP2 MSTORE PUSH1 0x4 ADD PUSH1 0x0 PUSH1 0x40 MLOAD DUP1 DUP4 SUB DUP2 PUSH1 0x0 DUP8 DUP1 EXTCODESIZE ISZERO DUP1 ISZERO PUSH2 0xD6B JUMPI PUSH1 0x0 DUP1 REVERT JUMPDEST POP GAS CALL ISZERO DUP1 ISZERO PUSH2 0xD7F JUMPI RETURNDATASIZE PUSH1 0x0 DUP1 RETURNDATACOPY RETURNDATASIZE PUSH1 0x0 REVERT JUMPDEST POP POP POP POP POP POP POP POP POP POP JUMP JUMPDEST PUSH1 0x0 SLOAD PUSH1 0x1 PUSH1 0x1 PUSH1 0xA0 SHL SUB AND CALLER EQ PUSH2 0xDB5 JUMPI PUSH1 0x40 MLOAD PUSH3 0x461BCD PUSH1 0xE5 SHL DUP2 MSTORE PUSH1 0x4 ADD PUSH2 0x36B SWAP1 PUSH2 0x11F7 JUMP JUMPDEST PUSH1 0x2 DUP2 SWAP1 SSTORE PUSH1 0x40 MLOAD DUP2 DUP2 MSTORE PUSH32 0x62AEAE90D89735CC89A299ECB77480C7ED88F04481174A37EE38B11DC60515F7 SWAP1 PUSH1 0x20 ADD PUSH2 0x4EB JUMP JUMPDEST PUSH1 0x0 SLOAD PUSH1 0x1 PUSH1 0x1 PUSH1 0xA0 SHL SUB AND CALLER EQ PUSH2 0xE14 JUMPI PUSH1 0x40 MLOAD PUSH3 0x461BCD PUSH1 0xE5 SHL DUP2 MSTORE PUSH1 0x4 ADD PUSH2 0x36B SWAP1 PUSH2 0x11F7 JUMP JUMPDEST PUSH1 0x1 PUSH1 0x1 PUSH1 0xA0 SHL SUB DUP2 AND PUSH2 0xE79 JUMPI PUSH1 0x40 MLOAD PUSH3 0x461BCD PUSH1 0xE5 SHL DUP2 MSTORE PUSH1 0x20 PUSH1 0x4 DUP3 ADD MSTORE PUSH1 0x26 PUSH1 0x24 DUP3 ADD MSTORE PUSH32 0x4F776E61626C653A206E6577206F776E657220697320746865207A65726F2061 PUSH1 0x44 DUP3 ADD MSTORE PUSH6 0x646472657373 PUSH1 0xD0 SHL PUSH1 0x64 DUP3 ADD MSTORE PUSH1 0x84 ADD PUSH2 0x36B JUMP JUMPDEST PUSH2 0x638 DUP2 PUSH2 0xF09 JUMP JUMPDEST PUSH1 0x40 DUP1 MLOAD PUSH1 0x1 PUSH1 0x1 PUSH1 0xA0 SHL SUB DUP5 AND PUSH1 0x24 DUP3 ADD MSTORE PUSH1 0x44 DUP1 DUP3 ADD DUP5 SWAP1 MSTORE DUP3 MLOAD DUP1 DUP4 SUB SWAP1 SWAP2 ADD DUP2 MSTORE PUSH1 0x64 SWAP1 SWAP2 ADD SWAP1 SWAP2 MSTORE PUSH1 0x20 DUP2 ADD DUP1 MLOAD PUSH1 0x1 PUSH1 0x1 PUSH1 0xE0 SHL SUB AND PUSH4 0xA9059CBB PUSH1 0xE0 SHL OR SWAP1 MSTORE PUSH2 0xED4 SWAP1 DUP5 SWAP1 PUSH2 0xF59 JUMP JUMPDEST POP POP POP JUMP JUMPDEST PUSH1 0x0 PUSH2 0x713 DUP3 DUP5 PUSH2 0x12FC JUMP JUMPDEST PUSH1 0x0 PUSH2 0x713 DUP3 DUP5 PUSH2 0x131B JUMP JUMPDEST PUSH1 0x0 PUSH2 0x713 DUP3 DUP5 PUSH2 0x133D JUMP JUMPDEST PUSH1 0x0 PUSH2 0x713 DUP3 DUP5 PUSH2 0x1354 JUMP JUMPDEST PUSH1 0x0 DUP1 SLOAD PUSH1 0x1 PUSH1 0x1 PUSH1 0xA0 SHL SUB DUP4 DUP2 AND PUSH1 0x1 PUSH1 0x1 PUSH1 0xA0 SHL SUB NOT DUP4 AND DUP2 OR DUP5 SSTORE PUSH1 0x40 MLOAD SWAP2 SWAP1 SWAP3 AND SWAP3 DUP4 SWAP2 PUSH32 0x8BE0079C531659141344CD1FD0A4F28419497F9722A3DAAFE3B4186F6B6457E0 SWAP2 SWAP1 LOG3 POP POP JUMP JUMPDEST PUSH1 0x0 PUSH2 0xFAE DUP3 PUSH1 0x40 MLOAD DUP1 PUSH1 0x40 ADD PUSH1 0x40 MSTORE DUP1 PUSH1 0x20 DUP2 MSTORE PUSH1 0x20 ADD PUSH32 0x5361666545524332303A206C6F772D6C6576656C2063616C6C206661696C6564 DUP2 MSTORE POP DUP6 PUSH1 0x1 PUSH1 0x1 PUSH1 0xA0 SHL SUB AND PUSH2 0x102B SWAP1 SWAP3 SWAP2 SWAP1 PUSH4 0xFFFFFFFF AND JUMP JUMPDEST DUP1 MLOAD SWAP1 SWAP2 POP ISZERO PUSH2 0xED4 JUMPI DUP1 DUP1 PUSH1 0x20 ADD SWAP1 MLOAD DUP2 ADD SWAP1 PUSH2 0xFCC SWAP2 SWAP1 PUSH2 0x136C JUMP JUMPDEST PUSH2 0xED4 JUMPI PUSH1 0x40 MLOAD PUSH3 0x461BCD PUSH1 0xE5 SHL DUP2 MSTORE PUSH1 0x20 PUSH1 0x4 DUP3 ADD MSTORE PUSH1 0x2A PUSH1 0x24 DUP3 ADD MSTORE PUSH32 0x5361666545524332303A204552433230206F7065726174696F6E20646964206E PUSH1 0x44 DUP3 ADD MSTORE PUSH10 0x1BDD081CDD58D8D95959 PUSH1 0xB2 SHL PUSH1 0x64 DUP3 ADD MSTORE PUSH1 0x84 ADD PUSH2 0x36B JUMP JUMPDEST PUSH1 0x60 PUSH2 0x103A DUP5 DUP5 PUSH1 0x0 DUP6 PUSH2 0x1042 JUMP JUMPDEST SWAP5 SWAP4 POP POP POP POP JUMP JUMPDEST PUSH1 0x60 DUP3 SELFBALANCE LT ISZERO PUSH2 0x10A3 JUMPI PUSH1 0x40 MLOAD PUSH3 0x461BCD PUSH1 0xE5 SHL DUP2 MSTORE PUSH1 0x20 PUSH1 0x4 DUP3 ADD MSTORE PUSH1 0x26 PUSH1 0x24 DUP3 ADD MSTORE PUSH32 0x416464726573733A20696E73756666696369656E742062616C616E636520666F PUSH1 0x44 DUP3 ADD MSTORE PUSH6 0x1C8818D85B1B PUSH1 0xD2 SHL PUSH1 0x64 DUP3 ADD MSTORE PUSH1 0x84 ADD PUSH2 0x36B JUMP JUMPDEST PUSH1 0x1 PUSH1 0x1 PUSH1 0xA0 SHL SUB DUP6 AND EXTCODESIZE PUSH2 0x10FA JUMPI PUSH1 0x40 MLOAD PUSH3 0x461BCD PUSH1 0xE5 SHL DUP2 MSTORE PUSH1 0x20 PUSH1 0x4 DUP3 ADD MSTORE PUSH1 0x1D PUSH1 0x24 DUP3 ADD MSTORE PUSH32 0x416464726573733A2063616C6C20746F206E6F6E2D636F6E7472616374000000 PUSH1 0x44 DUP3 ADD MSTORE PUSH1 0x64 ADD PUSH2 0x36B JUMP JUMPDEST PUSH1 0x0 DUP1 DUP7 PUSH1 0x1 PUSH1 0x1 PUSH1 0xA0 SHL SUB AND DUP6 DUP8 PUSH1 0x40 MLOAD PUSH2 0x1116 SWAP2 SWAP1 PUSH2 0x13BE JUMP JUMPDEST PUSH1 0x0 PUSH1 0x40 MLOAD DUP1 DUP4 SUB DUP2 DUP6 DUP8 GAS CALL SWAP3 POP POP POP RETURNDATASIZE DUP1 PUSH1 0x0 DUP2 EQ PUSH2 0x1153 JUMPI PUSH1 0x40 MLOAD SWAP2 POP PUSH1 0x1F NOT PUSH1 0x3F RETURNDATASIZE ADD AND DUP3 ADD PUSH1 0x40 MSTORE RETURNDATASIZE DUP3 MSTORE RETURNDATASIZE PUSH1 0x0 PUSH1 0x20 DUP5 ADD RETURNDATACOPY PUSH2 0x1158 JUMP JUMPDEST PUSH1 0x60 SWAP2 POP JUMPDEST POP SWAP2 POP SWAP2 POP PUSH2 0x1168 DUP3 DUP3 DUP7 PUSH2 0x1173 JUMP JUMPDEST SWAP8 SWAP7 POP POP POP POP POP POP POP JUMP JUMPDEST PUSH1 0x60 DUP4 ISZERO PUSH2 0x1182 JUMPI POP DUP2 PUSH2 0x713 JUMP JUMPDEST DUP3 MLOAD ISZERO PUSH2 0x1192 JUMPI DUP3 MLOAD DUP1 DUP5 PUSH1 0x20 ADD REVERT JUMPDEST DUP2 PUSH1 0x40 MLOAD PUSH3 0x461BCD PUSH1 0xE5 SHL DUP2 MSTORE PUSH1 0x4 ADD PUSH2 0x36B SWAP2 SWAP1 PUSH2 0x13DA JUMP JUMPDEST PUSH1 0x1 PUSH1 0x1 PUSH1 0xA0 SHL SUB DUP2 AND DUP2 EQ PUSH2 0x638 JUMPI PUSH1 0x0 DUP1 REVERT JUMPDEST PUSH1 0x0 PUSH1 0x20 DUP3 DUP5 SUB SLT ISZERO PUSH2 0x11D3 JUMPI PUSH1 0x0 DUP1 REVERT JUMPDEST DUP2 CALLDATALOAD PUSH2 0x713 DUP2 PUSH2 0x11AC JUMP JUMPDEST PUSH1 0x0 PUSH1 0x20 DUP3 DUP5 SUB SLT ISZERO PUSH2 0x11F0 JUMPI PUSH1 0x0 DUP1 REVERT JUMPDEST POP CALLDATALOAD SWAP2 SWAP1 POP JUMP JUMPDEST PUSH1 0x20 DUP1 DUP3 MSTORE DUP2 DUP2 ADD MSTORE PUSH32 0x4F776E61626C653A2063616C6C6572206973206E6F7420746865206F776E6572 PUSH1 0x40 DUP3 ADD MSTORE PUSH1 0x60 ADD SWAP1 JUMP JUMPDEST PUSH1 0x0 DUP1 PUSH1 0x0 DUP1 PUSH1 0x0 DUP1 PUSH1 0x0 DUP1 PUSH1 0x0 PUSH2 0x120 DUP11 DUP13 SUB SLT ISZERO PUSH2 0x124B JUMPI PUSH1 0x0 DUP1 REVERT JUMPDEST DUP10 MLOAD SWAP9 POP PUSH1 0x20 DUP11 ADD MLOAD SWAP8 POP PUSH1 0x40 DUP11 ADD MLOAD SWAP7 POP PUSH1 0x60 DUP11 ADD MLOAD SWAP6 POP PUSH1 0x80 DUP11 ADD MLOAD SWAP5 POP PUSH1 0xA0 DUP11 ADD MLOAD SWAP4 POP PUSH1 0xC0 DUP11 ADD MLOAD SWAP3 POP PUSH1 0xE0 DUP11 ADD MLOAD SWAP2 POP PUSH2 0x100 DUP11 ADD MLOAD SWAP1 POP SWAP3 SWAP6 SWAP9 POP SWAP3 SWAP6 SWAP9 POP SWAP3 SWAP6 SWAP9 JUMP JUMPDEST PUSH1 0x0 PUSH1 0x20 DUP3 DUP5 SUB SLT ISZERO PUSH2 0x12A7 JUMPI PUSH1 0x0 DUP1 REVERT JUMPDEST POP MLOAD SWAP2 SWAP1 POP JUMP JUMPDEST PUSH1 0x0 PUSH1 0x20 DUP3 DUP5 SUB SLT ISZERO PUSH2 0x12C0 JUMPI PUSH1 0x0 DUP1 REVERT JUMPDEST DUP2 MLOAD PUSH2 0x713 DUP2 PUSH2 0x11AC JUMP JUMPDEST PUSH4 0x4E487B71 PUSH1 0xE0 SHL PUSH1 0x0 MSTORE PUSH1 0x11 PUSH1 0x4 MSTORE PUSH1 0x24 PUSH1 0x0 REVERT JUMPDEST PUSH1 0x0 PUSH1 0x0 NOT DUP3 EQ ISZERO PUSH2 0x12F5 JUMPI PUSH2 0x12F5 PUSH2 0x12CB JUMP JUMPDEST POP PUSH1 0x1 ADD SWAP1 JUMP JUMPDEST PUSH1 0x0 DUP2 PUSH1 0x0 NOT DIV DUP4 GT DUP3 ISZERO ISZERO AND ISZERO PUSH2 0x1316 JUMPI PUSH2 0x1316 PUSH2 0x12CB JUMP JUMPDEST POP MUL SWAP1 JUMP JUMPDEST PUSH1 0x0 DUP3 PUSH2 0x1338 JUMPI PUSH4 0x4E487B71 PUSH1 0xE0 SHL PUSH1 0x0 MSTORE PUSH1 0x12 PUSH1 0x4 MSTORE PUSH1 0x24 PUSH1 0x0 REVERT JUMPDEST POP DIV SWAP1 JUMP JUMPDEST PUSH1 0x0 DUP3 DUP3 LT ISZERO PUSH2 0x134F JUMPI PUSH2 0x134F PUSH2 0x12CB JUMP JUMPDEST POP SUB SWAP1 JUMP JUMPDEST PUSH1 0x0 DUP3 NOT DUP3 GT ISZERO PUSH2 0x1367 JUMPI PUSH2 0x1367 PUSH2 0x12CB JUMP JUMPDEST POP ADD SWAP1 JUMP JUMPDEST PUSH1 0x0 PUSH1 0x20 DUP3 DUP5 SUB SLT ISZERO PUSH2 0x137E JUMPI PUSH1 0x0 DUP1 REVERT JUMPDEST DUP2 MLOAD DUP1 ISZERO ISZERO DUP2 EQ PUSH2 0x713 JUMPI PUSH1 0x0 DUP1 REVERT JUMPDEST PUSH1 0x0 JUMPDEST DUP4 DUP2 LT ISZERO PUSH2 0x13A9 JUMPI DUP2 DUP2 ADD MLOAD DUP4 DUP3 ADD MSTORE PUSH1 0x20 ADD PUSH2 0x1391 JUMP JUMPDEST DUP4 DUP2 GT ISZERO PUSH2 0x13B8 JUMPI PUSH1 0x0 DUP5 DUP5 ADD MSTORE JUMPDEST POP POP POP POP JUMP JUMPDEST PUSH1 0x0 DUP3 MLOAD PUSH2 0x13D0 DUP2 DUP5 PUSH1 0x20 DUP8 ADD PUSH2 0x138E JUMP JUMPDEST SWAP2 SWAP1 SWAP2 ADD SWAP3 SWAP2 POP POP JUMP JUMPDEST PUSH1 0x20 DUP2 MSTORE PUSH1 0x0 DUP3 MLOAD DUP1 PUSH1 0x20 DUP5 ADD MSTORE PUSH2 0x13F9 DUP2 PUSH1 0x40 DUP6 ADD PUSH1 0x20 DUP8 ADD PUSH2 0x138E JUMP JUMPDEST PUSH1 0x1F ADD PUSH1 0x1F NOT AND SWAP2 SWAP1 SWAP2 ADD PUSH1 0x40 ADD SWAP3 SWAP2 POP POP JUMP INVALID LOG2 PUSH5 0x6970667358 0x22 SLT KECCAK256 0x49 SWAP4 0x21 PUSH4 0xE36DC6D PUSH24 0x710A97DC043B1CF063AFFECC9202B582F104EFF737CF4164 PUSH20 0x6F6C634300080C00330000000000000000000000 ",
  "sha1": "340b3df5311b0fa3e0e835d996f50db6ef7b3702",
  "source": "//SPDX-License-Identifier: MIT\npragma solidity 0.8.12;\n\nimport \"@openzeppelin/contracts/access/Ownable.sol\";\nimport \"@openzeppelin/contracts/utils/math/SafeMath.sol\";\nimport \"@openzeppelin/contracts/token/ERC20/utils/SafeERC20.sol\";\nimport \"../interfaces/IStaking.sol\";\nimport \"./GalacticChef.sol\";\nimport \"./NICEToken.sol\";\n\ncontract BitcrushNiceStaking is Ownable {\n    using SafeMath for uint256;\n    using SafeERC20 for IERC20;\n    uint256 public performanceFeeCompounder = 10; // 10/10000 * 100 = 0.1%\n    uint256 public constant MAX_FEE = 1000; // 1000/10000 * 100 = 10%\n    uint256 public constant divisor = 10000;\n    uint256 public poolId;\n    // Contracts to Interact with\n    IStaking public stakingPool;\n    GalacticChef public galacticChef;\n    IERC20 public immutable nice;\n\n    struct UserStaking {\n        uint256 shares;\n        uint256 profitBaseline;\n    }\n    mapping(address => UserStaking) public stakings;\n    mapping(address => uint256) public niceRewards;\n\n    uint256 public lastAutoCompoundBlock;\n\n    // Profit Accumulated Reward Per Share\n    uint256 public accProfitPerShare;\n\n    // Tracking Totals\n    uint256 public totalProfitDistributed; // Total Claimed as Profits\n\n    uint256 public deploymentTimeStamp;\n\n    event PerformanceFeeUpdated(uint256 newFee);\n    event PoolIdUpdated(uint256 poolId);\n\n    constructor(IERC20 _nice) {\n        nice = _nice;\n        deploymentTimeStamp = block.timestamp;\n    }\n\n    /// Store `_staking`.\n    /// @param _staking the new value to store\n    /// @dev stores the _staking address in the state variable `staking`\n    function setStakingPool(IStaking _staking) public onlyOwner {\n        require(\n            address(stakingPool) == address(0x0),\n            \"staking pool address already set\"\n        );\n        stakingPool = _staking;\n    }\n\n    /// Store `_galacticChef`.\n    /// @param _galacticChef the new value to store\n    /// @dev stores the _galacticChef address in the state variable `galacticChef`\n    function setGalacticChef(GalacticChef _galacticChef) public onlyOwner {\n        require(\n            address(galacticChef) == address(0x0),\n            \"staking pool address already set\"\n        );\n        galacticChef = _galacticChef;\n    }\n\n    /// Store `_poolId`.\n    /// @param _poolId the new value to store\n    /// @dev stores the _poolId address in the state variable `poolId`\n    function setPoolId(uint256 _poolId) public onlyOwner {\n        poolId = _poolId;\n        emit PoolIdUpdated(_poolId);\n    }\n\n    /// @notice updates accProfitPerShare based on current Profit available and totalShares\n    /// @dev this allows for consistent profit reporting and no change on profits to distribute\n    function updateProfits() public {\n        if (stakingPool.totalShares() == 0) return;\n        //Todo replace with galatic chef rewards\n        uint256 requestedProfits = galacticChef.mintRewards(poolId);\n        if (requestedProfits == 0) return;\n        totalProfitDistributed = totalProfitDistributed.add(requestedProfits);\n        uint256 profitCalc = requestedProfits.mul(1e12).div(\n            stakingPool.totalShares()\n        );\n        accProfitPerShare = accProfitPerShare.add(profitCalc);\n    }\n\n    /// Get pending Profits to Claim\n    /// @param _address the user's wallet address to calculate profits\n    /// @return pending Profits to be claimed by this user\n    function pendingProfits(address _address) public returns (uint256) {\n        UserStaking memory user = stakings[_address];\n        (user.shares, , , , , , , , ) = stakingPool.stakings(_address);\n        return\n            user.shares.mul(accProfitPerShare).div(1e12).sub(\n                user.profitBaseline\n            );\n    }\n\n    /// compounds the rewards of all users in the pool\n    /// @dev compounds the rewards of all users in the pool while deducting fees\n    function compoundAll() public {\n        require(\n            lastAutoCompoundBlock <= block.number,\n            \"Compound All not yet applicable.\"\n        );\n\n        uint256 compounderReward = 0;\n        uint256 batchStartingIndex = stakingPool.batchStartingIndex();\n        uint256 indexesLength = stakingPool.indexesLength();\n        uint256 autoCompundLimit = stakingPool.autoCompoundLimit();\n\n        uint256 batchStart = batchStartingIndex;\n        if (batchStartingIndex >= indexesLength) batchStart = 0;\n\n        uint256 batchLimit = indexesLength;\n        if (\n            indexesLength <= autoCompundLimit ||\n            batchStart.add(autoCompundLimit) >= indexesLength\n        ) batchLimit = indexesLength;\n        else batchLimit = batchStart.add(autoCompundLimit);\n\n        updateProfits();\n        for (uint256 i = batchStart; i < batchLimit; i++) {\n            address currentAddress = stakingPool.addressIndexes(i);\n            UserStaking storage currentUser = stakings[currentAddress];\n            (currentUser.shares, , , , , , , , ) = stakingPool.stakings(\n                currentAddress\n            );\n\n            uint256 stakerReward = currentUser\n                .shares\n                .mul(accProfitPerShare)\n                .div(1e12)\n                .sub(currentUser.profitBaseline);\n            currentUser.profitBaseline = currentUser.profitBaseline.add(\n                stakerReward\n            );\n\n            if (stakerReward > 0) {\n                uint256 cpAllReward = stakerReward\n                    .mul(performanceFeeCompounder)\n                    .div(divisor);\n                compounderReward = compounderReward.add(cpAllReward);\n                stakerReward = stakerReward.sub(cpAllReward);\n                niceRewards[currentAddress] = niceRewards[currentAddress].add(\n                    stakerReward\n                );\n            }\n        }\n\n        lastAutoCompoundBlock = block.number;\n        nice.safeTransfer(msg.sender, compounderReward);\n        stakingPool.compoundAll();\n    }\n\n    /// withdraw funds of users\n    /// @dev transfer all available funds of users to users wallet\n    function withdrawNiceRewards() public {\n        require(niceRewards[msg.sender] > 0, \"No rewards available\");\n        uint256 amount = niceRewards[msg.sender];\n        niceRewards[msg.sender] = 0;\n        nice.safeTransfer(msg.sender, amount);\n    }\n\n    /// Store `_fee`.\n    /// @param _fee the new value to store\n    /// @dev stores the fee in the state variable `performanceFeeCompounder`\n    function setPerformanceFeeCompounder(uint256 _fee) public onlyOwner {\n        require(_fee > 0, \"Fee must be greater than 0\");\n        require(_fee < MAX_FEE, \"Fee must be less than 10%\");\n        performanceFeeCompounder = _fee;\n        emit PerformanceFeeUpdated(_fee);\n    }\n\n    /// emergency withdraw funds of users\n    /// @dev transfer all available funds of users to users wallet\n    function emergencyWithdraw() public {\n        uint256 amount = niceRewards[msg.sender];\n        niceRewards[msg.sender] = 0;\n        nice.safeTransfer(msg.sender, amount);\n    }\n}\n",
  "sourcePath": "contracts/NiceStaking.sol",
  "type": "contract"
}