{
  "contractName": "BitcrushTokenLiveWallet",
  "abi": [
    {
      "inputs": [
        {
          "internalType": "contract BEP20",
          "name": "_token",
          "type": "address"
        },
        {
          "internalType": "contract CRUSHToken",
          "name": "_crush",
          "type": "address"
        },
        {
          "internalType": "contract BitcrushBankroll",
          "name": "_bankroll",
          "type": "address"
        },
        {
          "internalType": "address",
          "name": "_reserveAddress",
          "type": "address"
        },
        {
          "internalType": "contract IApeRouter02",
          "name": "_swapRouter",
          "type": "address"
        },
        {
          "internalType": "contract BitcrushLiquidityBankroll",
          "name": "_liquidityBankroll",
          "type": "address"
        }
      ],
      "stateMutability": "nonpayable",
      "type": "constructor"
    },
    {
      "anonymous": false,
      "inputs": [
        {
          "indexed": true,
          "internalType": "address",
          "name": "_address",
          "type": "address"
        },
        {
          "indexed": true,
          "internalType": "uint256",
          "name": "_amount",
          "type": "uint256"
        }
      ],
      "name": "Deposit",
      "type": "event"
    },
    {
      "anonymous": false,
      "inputs": [
        {
          "indexed": true,
          "internalType": "address",
          "name": "_address",
          "type": "address"
        },
        {
          "indexed": true,
          "internalType": "uint256",
          "name": "_amount",
          "type": "uint256"
        }
      ],
      "name": "DepositWin",
      "type": "event"
    },
    {
      "anonymous": false,
      "inputs": [
        {
          "indexed": true,
          "internalType": "uint256",
          "name": "_lockPeriod",
          "type": "uint256"
        }
      ],
      "name": "LockPeriodUpdated",
      "type": "event"
    },
    {
      "anonymous": false,
      "inputs": [
        {
          "indexed": true,
          "internalType": "address",
          "name": "previousOwner",
          "type": "address"
        },
        {
          "indexed": true,
          "internalType": "address",
          "name": "newOwner",
          "type": "address"
        }
      ],
      "name": "OwnershipTransferred",
      "type": "event"
    },
    {
      "anonymous": false,
      "inputs": [
        {
          "indexed": true,
          "internalType": "address",
          "name": "_address",
          "type": "address"
        },
        {
          "indexed": true,
          "internalType": "uint256",
          "name": "_amount",
          "type": "uint256"
        }
      ],
      "name": "Withdraw",
      "type": "event"
    },
    {
      "inputs": [],
      "name": "DIVISOR",
      "outputs": [
        {
          "internalType": "uint256",
          "name": "",
          "type": "uint256"
        }
      ],
      "stateMutability": "view",
      "type": "function"
    },
    {
      "inputs": [],
      "name": "bankroll",
      "outputs": [
        {
          "internalType": "contract BitcrushBankroll",
          "name": "",
          "type": "address"
        }
      ],
      "stateMutability": "view",
      "type": "function"
    },
    {
      "inputs": [],
      "name": "bankrollShare",
      "outputs": [
        {
          "internalType": "uint256",
          "name": "",
          "type": "uint256"
        }
      ],
      "stateMutability": "view",
      "type": "function"
    },
    {
      "inputs": [
        {
          "internalType": "address",
          "name": "",
          "type": "address"
        }
      ],
      "name": "betAmounts",
      "outputs": [
        {
          "internalType": "uint256",
          "name": "balance",
          "type": "uint256"
        },
        {
          "internalType": "uint256",
          "name": "lockTimeStamp",
          "type": "uint256"
        },
        {
          "internalType": "uint256",
          "name": "amountToBorrow",
          "type": "uint256"
        }
      ],
      "stateMutability": "view",
      "type": "function"
    },
    {
      "inputs": [
        {
          "internalType": "address",
          "name": "",
          "type": "address"
        }
      ],
      "name": "blacklistedUsers",
      "outputs": [
        {
          "internalType": "bool",
          "name": "",
          "type": "bool"
        }
      ],
      "stateMutability": "view",
      "type": "function"
    },
    {
      "inputs": [],
      "name": "borrowedCrush",
      "outputs": [
        {
          "internalType": "uint256",
          "name": "",
          "type": "uint256"
        }
      ],
      "stateMutability": "view",
      "type": "function"
    },
    {
      "inputs": [],
      "name": "crush",
      "outputs": [
        {
          "internalType": "contract CRUSHToken",
          "name": "",
          "type": "address"
        }
      ],
      "stateMutability": "view",
      "type": "function"
    },
    {
      "inputs": [],
      "name": "earlyWithdrawFee",
      "outputs": [
        {
          "internalType": "uint256",
          "name": "",
          "type": "uint256"
        }
      ],
      "stateMutability": "view",
      "type": "function"
    },
    {
      "inputs": [],
      "name": "liquidityBankroll",
      "outputs": [
        {
          "internalType": "contract BitcrushLiquidityBankroll",
          "name": "",
          "type": "address"
        }
      ],
      "stateMutability": "view",
      "type": "function"
    },
    {
      "inputs": [],
      "name": "lockPeriod",
      "outputs": [
        {
          "internalType": "uint256",
          "name": "",
          "type": "uint256"
        }
      ],
      "stateMutability": "view",
      "type": "function"
    },
    {
      "inputs": [],
      "name": "owner",
      "outputs": [
        {
          "internalType": "address",
          "name": "",
          "type": "address"
        }
      ],
      "stateMutability": "view",
      "type": "function"
    },
    {
      "inputs": [],
      "name": "pendingBakrollThreshold",
      "outputs": [
        {
          "internalType": "uint256",
          "name": "",
          "type": "uint256"
        }
      ],
      "stateMutability": "view",
      "type": "function"
    },
    {
      "inputs": [],
      "name": "pendingBankroll",
      "outputs": [
        {
          "internalType": "uint256",
          "name": "",
          "type": "uint256"
        }
      ],
      "stateMutability": "view",
      "type": "function"
    },
    {
      "inputs": [],
      "name": "renounceOwnership",
      "outputs": [],
      "stateMutability": "nonpayable",
      "type": "function"
    },
    {
      "inputs": [],
      "name": "reserveAddress",
      "outputs": [
        {
          "internalType": "address",
          "name": "",
          "type": "address"
        }
      ],
      "stateMutability": "view",
      "type": "function"
    },
    {
      "inputs": [],
      "name": "slipage",
      "outputs": [
        {
          "internalType": "uint256",
          "name": "",
          "type": "uint256"
        }
      ],
      "stateMutability": "view",
      "type": "function"
    },
    {
      "inputs": [],
      "name": "stakingPool",
      "outputs": [
        {
          "internalType": "contract BitcrushStaking",
          "name": "",
          "type": "address"
        }
      ],
      "stateMutability": "view",
      "type": "function"
    },
    {
      "inputs": [],
      "name": "swapRouter",
      "outputs": [
        {
          "internalType": "contract IApeRouter02",
          "name": "",
          "type": "address"
        }
      ],
      "stateMutability": "view",
      "type": "function"
    },
    {
      "inputs": [],
      "name": "token",
      "outputs": [
        {
          "internalType": "contract BEP20",
          "name": "",
          "type": "address"
        }
      ],
      "stateMutability": "view",
      "type": "function"
    },
    {
      "inputs": [
        {
          "internalType": "address",
          "name": "newOwner",
          "type": "address"
        }
      ],
      "name": "transferOwnership",
      "outputs": [],
      "stateMutability": "nonpayable",
      "type": "function"
    },
    {
      "inputs": [
        {
          "internalType": "uint256",
          "name": "_amount",
          "type": "uint256"
        }
      ],
      "name": "addbet",
      "outputs": [],
      "stateMutability": "nonpayable",
      "type": "function"
    },
    {
      "inputs": [
        {
          "internalType": "uint256",
          "name": "_amount",
          "type": "uint256"
        },
        {
          "internalType": "address",
          "name": "_user",
          "type": "address"
        }
      ],
      "name": "addbetWithAddress",
      "outputs": [],
      "stateMutability": "nonpayable",
      "type": "function"
    },
    {
      "inputs": [
        {
          "internalType": "address",
          "name": "_user",
          "type": "address"
        }
      ],
      "name": "balanceOf",
      "outputs": [
        {
          "internalType": "uint256",
          "name": "",
          "type": "uint256"
        }
      ],
      "stateMutability": "view",
      "type": "function"
    },
    {
      "inputs": [
        {
          "internalType": "uint256[]",
          "name": "_wins",
          "type": "uint256[]"
        },
        {
          "internalType": "address[]",
          "name": "_users",
          "type": "address[]"
        }
      ],
      "name": "registerWin",
      "outputs": [],
      "stateMutability": "nonpayable",
      "type": "function"
    },
    {
      "inputs": [
        {
          "internalType": "uint256[]",
          "name": "_bets",
          "type": "uint256[]"
        },
        {
          "internalType": "address[]",
          "name": "_users",
          "type": "address[]"
        }
      ],
      "name": "registerLoss",
      "outputs": [],
      "stateMutability": "nonpayable",
      "type": "function"
    },
    {
      "inputs": [
        {
          "internalType": "uint256",
          "name": "_amount",
          "type": "uint256"
        }
      ],
      "name": "withdrawBet",
      "outputs": [],
      "stateMutability": "nonpayable",
      "type": "function"
    },
    {
      "inputs": [
        {
          "internalType": "uint256",
          "name": "_amount",
          "type": "uint256"
        },
        {
          "internalType": "address",
          "name": "_user",
          "type": "address"
        }
      ],
      "name": "withdrawBetForUser",
      "outputs": [],
      "stateMutability": "nonpayable",
      "type": "function"
    },
    {
      "inputs": [
        {
          "internalType": "uint256",
          "name": "_amount",
          "type": "uint256"
        },
        {
          "internalType": "address",
          "name": "_user",
          "type": "address"
        }
      ],
      "name": "addToUserWinnings",
      "outputs": [],
      "stateMutability": "nonpayable",
      "type": "function"
    },
    {
      "inputs": [
        {
          "internalType": "uint256",
          "name": "_amount",
          "type": "uint256"
        },
        {
          "internalType": "address",
          "name": "_user",
          "type": "address"
        }
      ],
      "name": "addToUserWinningsNative",
      "outputs": [],
      "stateMutability": "nonpayable",
      "type": "function"
    },
    {
      "inputs": [
        {
          "internalType": "address[]",
          "name": "_users",
          "type": "address[]"
        }
      ],
      "name": "updateBetLock",
      "outputs": [],
      "stateMutability": "nonpayable",
      "type": "function"
    },
    {
      "inputs": [
        {
          "internalType": "address[]",
          "name": "_users",
          "type": "address[]"
        }
      ],
      "name": "releaseBetLock",
      "outputs": [],
      "stateMutability": "nonpayable",
      "type": "function"
    },
    {
      "inputs": [
        {
          "internalType": "address",
          "name": "_address",
          "type": "address"
        }
      ],
      "name": "blacklistUser",
      "outputs": [],
      "stateMutability": "nonpayable",
      "type": "function"
    },
    {
      "inputs": [
        {
          "internalType": "address",
          "name": "_address",
          "type": "address"
        }
      ],
      "name": "whitelistUser",
      "outputs": [],
      "stateMutability": "nonpayable",
      "type": "function"
    },
    {
      "inputs": [],
      "name": "blacklistSelf",
      "outputs": [],
      "stateMutability": "nonpayable",
      "type": "function"
    },
    {
      "inputs": [
        {
          "internalType": "uint256",
          "name": "_lockPeriod",
          "type": "uint256"
        }
      ],
      "name": "setLockPeriod",
      "outputs": [],
      "stateMutability": "nonpayable",
      "type": "function"
    },
    {
      "inputs": [
        {
          "internalType": "address",
          "name": "_reserveAddress",
          "type": "address"
        }
      ],
      "name": "setReserveAddress",
      "outputs": [],
      "stateMutability": "nonpayable",
      "type": "function"
    },
    {
      "inputs": [
        {
          "internalType": "uint256",
          "name": "_earlyWithdrawFee",
          "type": "uint256"
        }
      ],
      "name": "setEarlyWithdrawFee",
      "outputs": [],
      "stateMutability": "nonpayable",
      "type": "function"
    },
    {
      "inputs": [
        {
          "internalType": "contract BitcrushStaking",
          "name": "_stakingPool",
          "type": "address"
        }
      ],
      "name": "setStakingPool",
      "outputs": [],
      "stateMutability": "nonpayable",
      "type": "function"
    },
    {
      "inputs": [
        {
          "internalType": "uint256",
          "name": "_amount",
          "type": "uint256"
        }
      ],
      "name": "setPendingBankrollThreshold",
      "outputs": [],
      "stateMutability": "nonpayable",
      "type": "function"
    },
    {
      "inputs": [
        {
          "internalType": "uint256",
          "name": "_amount",
          "type": "uint256"
        }
      ],
      "name": "setBankrollShare",
      "outputs": [],
      "stateMutability": "nonpayable",
      "type": "function"
    },
    {
      "inputs": [
        {
          "internalType": "uint256",
          "name": "_amount",
          "type": "uint256"
        }
      ],
      "name": "setSlipage",
      "outputs": [],
      "stateMutability": "nonpayable",
      "type": "function"
    }
  ],
  "bytecode": "0x610100604052612a30600555603260075561177060095569021e19e0c9bab2400000600b556064600c553480156200003657600080fd5b5060405162004b1438038062004b14833981810160405260c08110156200005c57600080fd5b508051602082015160408301516060840151608085015160a09095015193949293919290916000620000966001600160e01b036200013d16565b600080546001600160a01b0319166001600160a01b0383169081178255604051929350917f8be0079c531659141344cd1fd0a4f28419497f9722a3daafe3b4186f6b6457e0908290a350606095861b6001600160601b031990811660a05294861b851660c05292851b841660e052600680546001600160a01b03199081166001600160a01b0394851617909155941b90921660805260048054909316911617905562000141565b3390565b60805160601c60a05160601c60c05160601c60e05160601c61489c6200027860003980610a1a528061210a5280612b29528061332152806133dc5280613874528061392f5280613f345280613fef5250806116e6528061219d528061223952806128bd5280612cbe52806132f252806138455280613ab15280613f05525080610d2f52806110e7528061139a5280611acc5280611b025280611cef5280611dcc5280611f3b52806121eb5280612521528061261952806126b7528061290b5280612c7052806130685280613471528061354a52806135db5280613a635280613c9852806140ca528061417b52508061187e52806122685280612367528061295b5280612d0e5280612ebc52806130975280613141528061360a52806136f25280613b015280613cc75280613db4525061489c6000f3fe608060405234801561001057600080fd5b50600436106102d35760003560e01c8063a4ae1c5611610186578063d48b0226116100e3578063f2150bbb11610097578063f79ed94b11610071578063f79ed94b146109d3578063fc0c546a146109db578063fcbca456146109e3576102d3565b8063f2150bbb1461085a578063f2fde38b14610981578063f62cf8d0146109a7576102d3565b8063e6d1c465116100c8578063e6d1c465146107f1578063ebcfcf6b146107f9578063ec7babec1461083d576102d3565b8063d48b0226146107a8578063d4b9661c146107c5576102d3565b8063b9c8c4ba1161013a578063c31c9c071161011f578063c31c9c0714610790578063c452779314610798578063d0b4541d146107a0576102d3565b8063b9c8c4ba14610756578063c22982f414610773576102d3565b8063afb62d701161016b578063afb62d70146106a3578063b2a139db14610746578063b359a9f91461074e576102d3565b8063a4ae1c5614610574578063a80a78821461069b576102d3565b80636d069b9e116102345780637efd3813116101e85780638da5cb5b116101cd5780638da5cb5b14610547578063903cf7641461054f578063a2b1a2cc14610557576102d3565b80637efd381314610478578063815b7386146104a4576102d3565b8063715018a611610219578063715018a61461044b578063723ea11514610453578063779972da1461045b576102d3565b80636d069b9e146103f957806370a0823114610425576102d3565b80633028f63a1161028b5780633fd8b02f116102705780633fd8b02f146103ae5780634a4c560d146103b65780636145b22c146103dc576102d3565b80633028f63a146103805780633410fe6e146103a6576102d3565b80630da20192116102bc5780630da201921461030457806314673d311461031e57806322c0aec714610346576102d3565b80630c56ae3b146102d85780630c657eb0146102fc575b600080fd5b6102e0610a09565b604080516001600160a01b039092168252519081900360200190f35b6102e0610a18565b61030c610a3c565b60408051918252519081900360200190f35b6103446004803603602081101561033457600080fd5b50356001600160a01b0316610a42565b005b61036c6004803603602081101561035c57600080fd5b50356001600160a01b0316610adb565b604080519115158252519081900360200190f35b6103446004803603602081101561039657600080fd5b50356001600160a01b0316610af0565b61030c610be7565b61030c610bed565b610344600480360360208110156103cc57600080fd5b50356001600160a01b0316610bf3565b610344600480360360208110156103f257600080fd5b5035610c7e565b6103446004803603604081101561040f57600080fd5b50803590602001356001600160a01b0316610dc4565b61030c6004803603602081101561043b57600080fd5b50356001600160a01b0316610e53565b610344610e6e565b610344610f2f565b6103446004803603602081101561047157600080fd5b5035610f4e565b6103446004803603604081101561048e57600080fd5b50803590602001356001600160a01b031661102d565b610344600480360360208110156104ba57600080fd5b8101906020810181356401000000008111156104d557600080fd5b8201836020820111156104e757600080fd5b8035906020019184602083028401116401000000008311171561050957600080fd5b91908080602002602001604051908101604052809392919081815260200183836020028082843760009201919091525092955061118f945050505050565b6102e0611257565b61030c611266565b6103446004803603602081101561056d57600080fd5b503561126c565b6103446004803603604081101561058a57600080fd5b8101906020810181356401000000008111156105a557600080fd5b8201836020820111156105b757600080fd5b803590602001918460208302840111640100000000831117156105d957600080fd5b919080806020026020016040519081016040528093929190818152602001838360200280828437600092019190915250929594936020810193503591505064010000000081111561062957600080fd5b82018360208201111561063b57600080fd5b8035906020019184602083028401116401000000008311171561065d57600080fd5b9190808060200260200160405190810160405280939291908181526020018383602002808284376000920191909152509295506113f7945050505050565b61030c611615565b610344600480360360208110156106b957600080fd5b8101906020810181356401000000008111156106d457600080fd5b8201836020820111156106e657600080fd5b8035906020019184602083028401116401000000008311171561070857600080fd5b91908080602002602001604051908101604052809392919081815260200183836020028082843760009201919091525092955061161b945050505050565b61030c6116de565b6102e06116e4565b6103446004803603602081101561076c57600080fd5b5035611708565b6103446004803603602081101561078957600080fd5b50356117cd565b6102e061187c565b6102e06118a0565b61030c6118af565b610344600480360360208110156107be57600080fd5b50356118b5565b610344600480360360408110156107db57600080fd5b50803590602001356001600160a01b0316611924565b61030c611b2f565b61081f6004803603602081101561080f57600080fd5b50356001600160a01b0316611b35565b60408051938452602084019290925282820152519081900360600190f35b6103446004803603602081101561085357600080fd5b5035611b55565b6103446004803603604081101561087057600080fd5b81019060208101813564010000000081111561088b57600080fd5b82018360208201111561089d57600080fd5b803590602001918460208302840111640100000000831117156108bf57600080fd5b919080806020026020016040519081016040528093929190818152602001838360200280828437600092019190915250929594936020810193503591505064010000000081111561090f57600080fd5b82018360208201111561092157600080fd5b8035906020019184602083028401116401000000008311171561094357600080fd5b919080806020026020016040519081016040528093929190818152602001838360200280828437600092019190915250929550611c04945050505050565b6103446004803603602081101561099757600080fd5b50356001600160a01b0316612089565b610344600480360360408110156109bd57600080fd5b50803590602001356001600160a01b03166120ff565b6102e06126a6565b6102e06126b5565b610344600480360360208110156109f957600080fd5b50356001600160a01b03166126d9565b6003546001600160a01b031681565b7f000000000000000000000000000000000000000000000000000000000000000081565b60085481565b610a4a61276a565b6000546001600160a01b03908116911614610aac576040805162461bcd60e51b815260206004820181905260248201527f4f776e61626c653a2063616c6c6572206973206e6f7420746865206f776e6572604482015290519081900360640190fd5b6006805473ffffffffffffffffffffffffffffffffffffffff19166001600160a01b0392909216919091179055565b60016020526000908152604090205460ff1681565b610af861276a565b6000546001600160a01b03908116911614610b5a576040805162461bcd60e51b815260206004820181905260248201527f4f776e61626c653a2063616c6c6572206973206e6f7420746865206f776e6572604482015290519081900360640190fd5b6003546001600160a01b031615610bb8576040805162461bcd60e51b815260206004820181905260248201527f7374616b696e6720706f6f6c206164647265737320616c726561647920736574604482015290519081900360640190fd5b6003805473ffffffffffffffffffffffffffffffffffffffff19166001600160a01b0392909216919091179055565b61271081565b60055481565b610bfb61276a565b6000546001600160a01b03908116911614610c5d576040805162461bcd60e51b815260206004820181905260248201527f4f776e61626c653a2063616c6c6572206973206e6f7420746865206f776e6572604482015290519081900360640190fd5b6001600160a01b03166000908152600160205260409020805460ff19169055565b60008111610cbd5760405162461bcd60e51b81526004018080602001828103825260238152602001806148446023913960400191505060405180910390fd5b3360009081526001602052604090205460ff1615610d22576040805162461bcd60e51b815260206004820152601460248201527f5573657220697320626c61636b204c6973746564000000000000000000000000604482015290519081900360640190fd5b610d5d6001600160a01b037f00000000000000000000000000000000000000000000000000000000000000001633308463ffffffff61276e16565b33600090815260026020526040902054610d7d908263ffffffff6127f616565b3360008181526002602052604080822093845542600190940193909355915183927fe1fffcc4923d04b559f4d29a8bfc6cda04eb5b0d3c460751c2402c5c5cc9109c91a350565b6004546001600160a01b03163314610e0d5760405162461bcd60e51b81526004018080602001828103825260218152602001806147fc6021913960400191505060405180910390fd5b6001600160a01b038116600090815260026020526040902054610e36908363ffffffff6127f616565b6001600160a01b0390911660009081526002602052604090205550565b6001600160a01b031660009081526002602052604090205490565b610e7661276a565b6000546001600160a01b03908116911614610ed8576040805162461bcd60e51b815260206004820181905260248201527f4f776e61626c653a2063616c6c6572206973206e6f7420746865206f776e6572604482015290519081900360640190fd5b600080546040516001600160a01b03909116907f8be0079c531659141344cd1fd0a4f28419497f9722a3daafe3b4186f6b6457e0908390a36000805473ffffffffffffffffffffffffffffffffffffffff19169055565b336000908152600160208190526040909120805460ff19169091179055565b610f5661276a565b6000546001600160a01b03908116911614610fb8576040805162461bcd60e51b815260206004820181905260248201527f4f776e61626c653a2063616c6c6572206973206e6f7420746865206f776e6572604482015290519081900360640190fd5b62093a80811115610ffa5760405162461bcd60e51b81526004018080602001828103825260298152602001806147666029913960400191505060405180910390fd5b600581905560405181907f8249ec545e68f6f1e1230133ca48c704d831a7f8e635ded80f3dd9e99b09bb2f90600090a250565b6000821161106c5760405162461bcd60e51b81526004018080602001828103825260238152602001806148446023913960400191505060405180910390fd5b6001600160a01b03811660009081526001602052604090205460ff16156110da576040805162461bcd60e51b815260206004820152601460248201527f5573657220697320626c61636b204c6973746564000000000000000000000000604482015290519081900360640190fd5b6111156001600160a01b037f00000000000000000000000000000000000000000000000000000000000000001633308563ffffffff61276e16565b6001600160a01b03811660009081526002602052604090205461113e908363ffffffff6127f616565b6001600160a01b03821660008181526002602052604080822093845542600190940193909355915184927f40a0b865ae77859153eafc5cde95d936f135cc12158b807a1ec5f644bea4111e91a35050565b61119761276a565b6000546001600160a01b039081169116146111f9576040805162461bcd60e51b815260206004820181905260248201527f4f776e61626c653a2063616c6c6572206973206e6f7420746865206f776e6572604482015290519081900360640190fd5b60005b81518110156112535760006002600084848151811061121757fe5b60200260200101516001600160a01b03166001600160a01b031681526020019081526020016000206001018190555080806001019150506111fc565b5050565b6000546001600160a01b031690565b600c5481565b336000908152600260205260409020548111156112d0576040805162461bcd60e51b815260206004820152601d60248201527f626574206c657373207468616e20616d6f756e74207769746864726177000000604482015290519081900360640190fd5b3360009081526002602052604090206001015415806113145750600554336000908152600260205260409020600101544291611312919063ffffffff6127f616565b105b61134f5760405162461bcd60e51b815260040180806020018281038252602981526020018061469b6029913960400191505060405180910390fd5b3360009081526002602052604090205461136f908263ffffffff61285916565b3360008181526002602052604090209190915561138d90829061289b565b6113c76001600160a01b037f000000000000000000000000000000000000000000000000000000000000000016338363ffffffff612bc616565b604051819033907f884edad9ce6fa2440d8a54cc123490eb96d2768479d49ff9c7366125a942436490600090a350565b6113ff61276a565b6000546001600160a01b03908116911614611461576040805162461bcd60e51b815260206004820181905260248201527f4f776e61626c653a2063616c6c6572206973206e6f7420746865206f776e6572604482015290519081900360640190fd5b80518251146114a15760405162461bcd60e51b81526004018080602001828103825260218152602001806147456021913960400191505060405180910390fd5b60005b81518110156116105760008382815181106114bb57fe5b60200260200101511115611608578281815181106114d557fe5b6020026020010151600260008484815181106114ed57fe5b60200260200101516001600160a01b03166001600160a01b031681526020019081526020016000206000015410156115565760405162461bcd60e51b81526004018080602001828103825260318152602001806147146031913960400191505060405180910390fd5b61157283828151811061156557fe5b6020026020010151612c46565b6115d383828151811061158157fe5b60200260200101516002600085858151811061159957fe5b60200260200101516001600160a01b03166001600160a01b031681526020019081526020016000206000015461285990919063ffffffff16565b600260008484815181106115e357fe5b6020908102919091018101516001600160a01b03168252810191909152604001600020555b6001016114a4565b505050565b60075481565b61162361276a565b6000546001600160a01b03908116911614611685576040805162461bcd60e51b815260206004820181905260248201527f4f776e61626c653a2063616c6c6572206973206e6f7420746865206f776e6572604482015290519081900360640190fd5b60005b81518110156112535742600260008484815181106116a257fe5b60200260200101516001600160a01b03166001600160a01b03168152602001908152602001600020600101819055508080600101915050611688565b600b5481565b7f000000000000000000000000000000000000000000000000000000000000000081565b61171061276a565b6000546001600160a01b03908116911614611772576040805162461bcd60e51b815260206004820181905260248201527f4f776e61626c653a2063616c6c6572206973206e6f7420746865206f776e6572604482015290519081900360640190fd5b6103e881106117c8576040805162461bcd60e51b815260206004820152601d60248201527f736c6970616765206d757374206265206c657373207468616e20313025000000604482015290519081900360640190fd5b600c55565b6117d561276a565b6000546001600160a01b03908116911614611837576040805162461bcd60e51b815260206004820181905260248201527f4f776e61626c653a2063616c6c6572206973206e6f7420746865206f776e6572604482015290519081900360640190fd5b610fa081106118775760405162461bcd60e51b81526004018080602001828103825260288152602001806147d46028913960400191505060405180910390fd5b600755565b7f000000000000000000000000000000000000000000000000000000000000000081565b6004546001600160a01b031681565b60095481565b6118bd61276a565b6000546001600160a01b0390811691161461191f576040805162461bcd60e51b815260206004820181905260248201527f4f776e61626c653a2063616c6c6572206973206e6f7420746865206f776e6572604482015290519081900360640190fd5b600b55565b61192c61276a565b6000546001600160a01b0390811691161461198e576040805162461bcd60e51b815260206004820181905260248201527f4f776e61626c653a2063616c6c6572206973206e6f7420746865206f776e6572604482015290519081900360640190fd5b6001600160a01b0381166000908152600260205260409020548211156119fb576040805162461bcd60e51b815260206004820152601d60248201527f626574206c657373207468616e20616d6f756e74207769746864726177000000604482015290519081900360640190fd5b6001600160a01b038116600090815260026020526040902054611a24908363ffffffff61285916565b6001600160a01b038216600090815260026020526040902055611a47828261289b565b60405182906001600160a01b038316907f884edad9ce6fa2440d8a54cc123490eb96d2768479d49ff9c7366125a942436490600090a36000611aa6612710611a9a600754866141e890919063ffffffff16565b9063ffffffff61424116565b9050611ab8838263ffffffff61285916565b600654909350611af5906001600160a01b037f00000000000000000000000000000000000000000000000000000000000000008116911683612bc6565b6116106001600160a01b037f000000000000000000000000000000000000000000000000000000000000000016838563ffffffff612bc616565b600a5481565b600260208190526000918252604090912080546001820154919092015483565b611b5d61276a565b6000546001600160a01b03908116911614611bbf576040805162461bcd60e51b815260206004820181905260248201527f4f776e61626c653a2063616c6c6572206973206e6f7420746865206f776e6572604482015290519081900360640190fd5b6123288110611bff5760405162461bcd60e51b81526004018080602001828103825260248152602001806147b06024913960400191505060405180910390fd5b600955565b611c0c61276a565b6000546001600160a01b03908116911614611c6e576040805162461bcd60e51b815260206004820181905260248201527f4f776e61626c653a2063616c6c6572206973206e6f7420746865206f776e6572604482015290519081900360640190fd5b8051825114611cae5760405162461bcd60e51b81526004018080602001828103825260218152602001806147456021913960400191505060405180910390fd5b60005b81518110156116105760048054604080517fe3d670d70000000000000000000000000000000000000000000000000000000081526001600160a01b037f00000000000000000000000000000000000000000000000000000000000000008116948201949094529051929091169163e3d670d791602480820192602092909190829003018186803b158015611d4457600080fd5b505afa158015611d58573d6000803e3d6000fd5b505050506040513d6020811015611d6e57600080fd5b50518351849083908110611d7e57fe5b602002602001015111611e705760045483516001600160a01b039091169063bb11ecd590859084908110611dae57fe5b6020026020010151848481518110611dc257fe5b60200260200101517f00000000000000000000000000000000000000000000000000000000000000006040518463ffffffff1660e01b815260040180848152602001836001600160a01b03166001600160a01b03168152602001826001600160a01b03166001600160a01b031681526020019350505050600060405180830381600087803b158015611e5357600080fd5b505af1158015611e67573d6000803e3d6000fd5b50505050612081565b611ed1838281518110611e7f57fe5b602002602001015160026000858581518110611e9757fe5b60200260200101516001600160a01b03166001600160a01b03168152602001908152602001600020600001546127f690919063ffffffff16565b60026000848481518110611ee157fe5b60200260200101516001600160a01b03166001600160a01b03168152602001908152602001600020600001819055506000611ff0600460009054906101000a90046001600160a01b03166001600160a01b031663e3d670d77f00000000000000000000000000000000000000000000000000000000000000006040518263ffffffff1660e01b815260040180826001600160a01b03166001600160a01b0316815260200191505060206040518083038186803b158015611fa057600080fd5b505afa158015611fb4573d6000803e3d6000fd5b505050506040513d6020811015611fca57600080fd5b50518551869085908110611fda57fe5b602002602001015161285990919063ffffffff16565b9050612040816002600086868151811061200657fe5b60200260200101516001600160a01b03166001600160a01b03168152602001908152602001600020600201546127f690919063ffffffff16565b6002600085858151811061205057fe5b60200260200101516001600160a01b03166001600160a01b0316815260200190815260200160002060020181905550505b600101611cb1565b61209161276a565b6000546001600160a01b039081169116146120f3576040805162461bcd60e51b815260206004820181905260248201527f4f776e61626c653a2063616c6c6572206973206e6f7420746865206f776e6572604482015290519081900360640190fd5b6120fc81614283565b50565b336001600160a01b037f000000000000000000000000000000000000000000000000000000000000000016148061214057506003546001600160a01b031633145b61217b5760405162461bcd60e51b815260040180806020018281038252602781526020018061481d6027913960400191505060405180910390fd5b60408051600280825260608083018452926020830190803683370190505090507f0000000000000000000000000000000000000000000000000000000000000000816000815181106121c957fe5b60200260200101906001600160a01b031690816001600160a01b0316815250507f00000000000000000000000000000000000000000000000000000000000000008160018151811061221757fe5b60200260200101906001600160a01b031690816001600160a01b0316815250507f00000000000000000000000000000000000000000000000000000000000000006001600160a01b031663095ea7b37f0000000000000000000000000000000000000000000000000000000000000000856040518363ffffffff1660e01b815260040180836001600160a01b03166001600160a01b0316815260200182815260200192505050602060405180830381600087803b1580156122d757600080fd5b505af11580156122eb573d6000803e3d6000fd5b505050506040513d602081101561230157600080fd5b50506001600160a01b0382811660009081526002602081815260408084209092015491516338ed173960e01b815260048101888152602482018490523060648301819052600542016084840181905260a060448501908152895160a486015289516060997f000000000000000000000000000000000000000000000000000000000000000016986338ed1739988e9890978d97949360c4909101928883019291909102908190849084905b838110156123c45781810151838201526020016123ac565b505050509050019650505050505050600060405180830381600087803b1580156123ed57600080fd5b505af1158015612401573d6000803e3d6000fd5b505050506040513d6000823e601f3d908101601f19168201604052602081101561242a57600080fd5b810190808051604051939291908464010000000082111561244a57600080fd5b90830190602082018581111561245f57600080fd5b825186602082028301116401000000008211171561247c57600080fd5b82525081516020918201928201910280838360005b838110156124a9578181015183820152602001612491565b505050509190910160409081526001600160a01b03891660009081526002602081905291812090910181905585519596509486945060019350831091506124ee905057fe5b602002602001015111156126a0576004546001600160a01b038481166000908152600260208190526040909120015483517f000000000000000000000000000000000000000000000000000000000000000083169363095ea7b393169161255c9186906001908110611fda57fe5b6040518363ffffffff1660e01b815260040180836001600160a01b03166001600160a01b0316815260200182815260200192505050602060405180830381600087803b1580156125ab57600080fd5b505af11580156125bf573d6000803e3d6000fd5b505050506040513d60208110156125d557600080fd5b50506004546001600160a01b03848116600090815260026020819052604090912001548351919092169163bfd454ed91612617919085906001908110611fda57fe5b7f00000000000000000000000000000000000000000000000000000000000000006040518363ffffffff1660e01b815260040180838152602001826001600160a01b03166001600160a01b0316815260200192505050600060405180830381600087803b15801561268757600080fd5b505af115801561269b573d6000803e3d6000fd5b505050505b50505050565b6006546001600160a01b031681565b7f000000000000000000000000000000000000000000000000000000000000000081565b6126e161276a565b6000546001600160a01b03908116911614612743576040805162461bcd60e51b815260206004820181905260248201527f4f776e61626c653a2063616c6c6572206973206e6f7420746865206f776e6572604482015290519081900360640190fd5b6001600160a01b03166000908152600160208190526040909120805460ff19169091179055565b3390565b604080516001600160a01b0380861660248301528416604482015260648082018490528251808303909101815260849091019091526020810180517bffffffffffffffffffffffffffffffffffffffffffffffffffffffff167f23b872dd000000000000000000000000000000000000000000000000000000001790526126a0908590614330565b600082820183811015612850576040805162461bcd60e51b815260206004820152601b60248201527f536166654d6174683a206164646974696f6e206f766572666c6f770000000000604482015290519081900360640190fd5b90505b92915050565b600061285083836040518060400160405280601e81526020017f536166654d6174683a207375627472616374696f6e206f766572666c6f7700008152506143e1565b60408051600280825260608083018452926020830190803683370190505090507f0000000000000000000000000000000000000000000000000000000000000000816000815181106128e957fe5b60200260200101906001600160a01b031690816001600160a01b0316815250507f00000000000000000000000000000000000000000000000000000000000000008160018151811061293757fe5b60200260200101906001600160a01b031690816001600160a01b03168152505060607f00000000000000000000000000000000000000000000000000000000000000006001600160a01b0316631f00ca7485846040518363ffffffff1660e01b81526004018083815260200180602001828103825283818151815260200191508051906020019060200280838360005b838110156129df5781810151838201526020016129c7565b50505050905001935050505060006040518083038186803b158015612a0357600080fd5b505afa158015612a17573d6000803e3d6000fd5b505050506040513d6000823e601f3d908101601f191682016040526020811015612a4057600080fd5b8101908080516040519392919084640100000000821115612a6057600080fd5b908301906020820185811115612a7557600080fd5b8251866020820283011164010000000082111715612a9257600080fd5b82525081516020918201928201910280838360005b83811015612abf578181015183820152602001612aa7565b5050505090500160405250505090506000612b25612b02612710611a9a600c5486600081518110612aec57fe5b60200260200101516141e890919063ffffffff16565b83600081518110612b0f57fe5b60200260200101516127f690919063ffffffff16565b90507f00000000000000000000000000000000000000000000000000000000000000006001600160a01b03166361433d8882866040518363ffffffff1660e01b815260040180838152602001826001600160a01b03166001600160a01b0316815260200192505050600060405180830381600087803b158015612ba757600080fd5b505af1158015612bbb573d6000803e3d6000fd5b505050505050505050565b604080516001600160a01b038416602482015260448082018490528251808303909101815260649091019091526020810180517bffffffffffffffffffffffffffffffffffffffffffffffffffffffff167fa9059cbb00000000000000000000000000000000000000000000000000000000179052611610908490614330565b600854156139ef5760408051600280825260608083018452926020830190803683370190505090507f000000000000000000000000000000000000000000000000000000000000000081600081518110612c9c57fe5b60200260200101906001600160a01b031690816001600160a01b0316815250507f000000000000000000000000000000000000000000000000000000000000000081600181518110612cea57fe5b60200260200101906001600160a01b031690816001600160a01b03168152505060607f00000000000000000000000000000000000000000000000000000000000000006001600160a01b031663d06ca61f84846040518363ffffffff1660e01b81526004018083815260200180602001828103825283818151815260200191508051906020019060200280838360005b83811015612d92578181015183820152602001612d7a565b50505050905001935050505060006040518083038186803b158015612db657600080fd5b505afa158015612dca573d6000803e3d6000fd5b505050506040513d6000823e601f3d908101601f191682016040526020811015612df357600080fd5b8101908080516040519392919084640100000000821115612e1357600080fd5b908301906020820185811115612e2857600080fd5b8251866020820283011164010000000082111715612e4557600080fd5b82525081516020918201928201910280838360005b83811015612e72578181015183820152602001612e5a565b5050505090500160405250505090506000612eac612e9f612710611a9a600c5486600181518110612aec57fe5b83600181518110611fda57fe5b90506008548111156135d95760607f00000000000000000000000000000000000000000000000000000000000000006001600160a01b0316631f00ca74600854866040518363ffffffff1660e01b81526004018083815260200180602001828103825283818151815260200191508051906020019060200280838360005b83811015612f42578181015183820152602001612f2a565b50505050905001935050505060006040518083038186803b158015612f6657600080fd5b505afa158015612f7a573d6000803e3d6000fd5b505050506040513d6000823e601f3d908101601f191682016040526020811015612fa357600080fd5b8101908080516040519392919084640100000000821115612fc357600080fd5b908301906020820185811115612fd857600080fd5b8251866020820283011164010000000082111715612ff557600080fd5b82525081516020918201928201910280838360005b8381101561302257818101518382015260200161300a565b505050509050016040525050509050600061305c61304f612710611a9a600c5486600181518110612aec57fe5b83600181518110612b0f57fe5b9050858111156135d2577f00000000000000000000000000000000000000000000000000000000000000006001600160a01b031663095ea7b37f0000000000000000000000000000000000000000000000000000000000000000836040518363ffffffff1660e01b815260040180836001600160a01b03166001600160a01b0316815260200182815260200192505050602060405180830381600087803b15801561310657600080fd5b505af115801561311a573d6000803e3d6000fd5b505050506040513d602081101561313057600080fd5b505081516060906001600160a01b037f000000000000000000000000000000000000000000000000000000000000000016906338ed1739908490869060009061317557fe5b60200260200101518930426005016040518663ffffffff1660e01b81526004018086815260200185815260200180602001846001600160a01b03166001600160a01b03168152602001838152602001828103825285818151815260200191508051906020019060200280838360005b838110156131fc5781810151838201526020016131e4565b505050509050019650505050505050600060405180830381600087803b15801561322557600080fd5b505af1158015613239573d6000803e3d6000fd5b505050506040513d6000823e601f3d908101601f19168201604052602081101561326257600080fd5b810190808051604051939291908464010000000082111561328257600080fd5b90830190602082018581111561329757600080fd5b82518660208202830111640100000000821117156132b457600080fd5b82525081516020918201928201910280838360005b838110156132e15781810151838201526020016132c9565b5050505090500160405250505090507f00000000000000000000000000000000000000000000000000000000000000006001600160a01b031663095ea7b37f00000000000000000000000000000000000000000000000000000000000000008360018151811061334d57fe5b60200260200101516040518363ffffffff1660e01b815260040180836001600160a01b03166001600160a01b0316815260200182815260200192505050602060405180830381600087803b1580156133a457600080fd5b505af11580156133b8573d6000803e3d6000fd5b505050506040513d60208110156133ce57600080fd5b505080516001600160a01b037f0000000000000000000000000000000000000000000000000000000000000000169063c2e50b16908390600190811061341057fe5b60200260200101516040518263ffffffff1660e01b815260040180828152602001915050600060405180830381600087803b15801561344e57600080fd5b505af1158015613462573d6000803e3d6000fd5b50506004546001600160a01b037f00000000000000000000000000000000000000000000000000000000000000008116935063095ea7b39250166134ac8a8663ffffffff61285916565b6040518363ffffffff1660e01b815260040180836001600160a01b03166001600160a01b0316815260200182815260200192505050602060405180830381600087803b1580156134fb57600080fd5b505af115801561350f573d6000803e3d6000fd5b505050506040513d602081101561352557600080fd5b50506004546001600160a01b031663bfd454ed613548898563ffffffff61285916565b7f00000000000000000000000000000000000000000000000000000000000000006040518363ffffffff1660e01b815260040180838152602001826001600160a01b03166001600160a01b0316815260200192505050600060405180830381600087803b1580156135b857600080fd5b505af11580156135cc573d6000803e3d6000fd5b50505050505b50506139e7565b7f00000000000000000000000000000000000000000000000000000000000000006001600160a01b031663095ea7b37f0000000000000000000000000000000000000000000000000000000000000000866040518363ffffffff1660e01b815260040180836001600160a01b03166001600160a01b0316815260200182815260200192505050602060405180830381600087803b15801561367957600080fd5b505af115801561368d573d6000803e3d6000fd5b505050506040513d60208110156136a357600080fd5b50506040516338ed173960e01b815260048101858152602482018390523060648301819052600542016084840181905260a060448501908152875160a486015287516060956001600160a01b037f000000000000000000000000000000000000000000000000000000000000000016956338ed1739958c958a958d959294919392909160c401906020878101910280838360005b8381101561374f578181015183820152602001613737565b505050509050019650505050505050600060405180830381600087803b15801561377857600080fd5b505af115801561378c573d6000803e3d6000fd5b505050506040513d6000823e601f3d908101601f1916820160405260208110156137b557600080fd5b81019080805160405193929190846401000000008211156137d557600080fd5b9083019060208201858111156137ea57600080fd5b825186602082028301116401000000008211171561380757600080fd5b82525081516020918201928201910280838360005b8381101561383457818101518382015260200161381c565b5050505090500160405250505090507f00000000000000000000000000000000000000000000000000000000000000006001600160a01b031663095ea7b37f0000000000000000000000000000000000000000000000000000000000000000836001815181106138a057fe5b60200260200101516040518363ffffffff1660e01b815260040180836001600160a01b03166001600160a01b0316815260200182815260200192505050602060405180830381600087803b1580156138f757600080fd5b505af115801561390b573d6000803e3d6000fd5b505050506040513d602081101561392157600080fd5b505080516001600160a01b037f0000000000000000000000000000000000000000000000000000000000000000169063c2e50b16908390600190811061396357fe5b60200260200101516040518263ffffffff1660e01b815260040180828152602001915050600060405180830381600087803b1580156139a157600080fd5b505af11580156139b5573d6000803e3d6000fd5b505050506139e2816001815181106139c957fe5b602002602001015160085461285990919063ffffffff16565b600855505b5050506120fc565b6000613a0c612710611a9a600954856141e890919063ffffffff16565b9050613a1e828263ffffffff61285916565b600a54909250613a34908263ffffffff6127f616565b600a819055600b54116140835760408051600280825260608083018452926020830190803683370190505090507f000000000000000000000000000000000000000000000000000000000000000081600081518110613a8f57fe5b60200260200101906001600160a01b031690816001600160a01b0316815250507f000000000000000000000000000000000000000000000000000000000000000081600181518110613add57fe5b60200260200101906001600160a01b031690816001600160a01b03168152505060607f00000000000000000000000000000000000000000000000000000000000000006001600160a01b031663d06ca61f600a54846040518363ffffffff1660e01b81526004018083815260200180602001828103825283818151815260200191508051906020019060200280838360005b83811015613b87578181015183820152602001613b6f565b50505050905001935050505060006040518083038186803b158015613bab57600080fd5b505afa158015613bbf573d6000803e3d6000fd5b505050506040513d6000823e601f3d908101601f191682016040526020811015613be857600080fd5b8101908080516040519392919084640100000000821115613c0857600080fd5b908301906020820185811115613c1d57600080fd5b8251866020820283011164010000000082111715613c3a57600080fd5b82525081516020918201928201910280838360005b83811015613c67578181015183820152602001613c4f565b5050505090500160405250505090506000613c94612e9f612710611a9a600c5486600181518110612aec57fe5b90507f00000000000000000000000000000000000000000000000000000000000000006001600160a01b031663095ea7b37f0000000000000000000000000000000000000000000000000000000000000000600a546040518363ffffffff1660e01b815260040180836001600160a01b03166001600160a01b0316815260200182815260200192505050602060405180830381600087803b158015613d3857600080fd5b505af1158015613d4c573d6000803e3d6000fd5b505050506040513d6020811015613d6257600080fd5b5050600a546040516338ed173960e01b815260048101828152602482018490523060648301819052600542016084840181905260a060448501908152885160a486015288516060966001600160a01b037f000000000000000000000000000000000000000000000000000000000000000016966338ed17399691958a958d95919490939260c401906020878101910280838360005b83811015613e0f578181015183820152602001613df7565b505050509050019650505050505050600060405180830381600087803b158015613e3857600080fd5b505af1158015613e4c573d6000803e3d6000fd5b505050506040513d6000823e601f3d908101601f191682016040526020811015613e7557600080fd5b8101908080516040519392919084640100000000821115613e9557600080fd5b908301906020820185811115613eaa57600080fd5b8251866020820283011164010000000082111715613ec757600080fd5b82525081516020918201928201910280838360005b83811015613ef4578181015183820152602001613edc565b5050505090500160405250505090507f00000000000000000000000000000000000000000000000000000000000000006001600160a01b031663095ea7b37f000000000000000000000000000000000000000000000000000000000000000083600181518110613f6057fe5b60200260200101516040518363ffffffff1660e01b815260040180836001600160a01b03166001600160a01b0316815260200182815260200192505050602060405180830381600087803b158015613fb757600080fd5b505af1158015613fcb573d6000803e3d6000fd5b505050506040513d6020811015613fe157600080fd5b505080516001600160a01b037f0000000000000000000000000000000000000000000000000000000000000000169063c2e50b16908390600190811061402357fe5b60200260200101516040518263ffffffff1660e01b815260040180828152602001915050600060405180830381600087803b15801561406157600080fd5b505af1158015614075573d6000803e3d6000fd5b50506000600a555050505050505b60048054604080517f095ea7b30000000000000000000000000000000000000000000000000000000081526001600160a01b039283169381019390935260248301859052517f00000000000000000000000000000000000000000000000000000000000000009091169163095ea7b39160448083019260209291908290030181600087803b15801561411457600080fd5b505af1158015614128573d6000803e3d6000fd5b505050506040513d602081101561413e57600080fd5b505060048054604080517fbfd454ed0000000000000000000000000000000000000000000000000000000081529283018590526001600160a01b037f000000000000000000000000000000000000000000000000000000000000000081166024850152905191169163bfd454ed91604480830192600092919082900301818387803b1580156141cc57600080fd5b505af11580156141e0573d6000803e3d6000fd5b505050505050565b6000826141f757506000612853565b8282028284828161420457fe5b04146128505760405162461bcd60e51b815260040180806020018281038252602181526020018061478f6021913960400191505060405180910390fd5b600061285083836040518060400160405280601a81526020017f536166654d6174683a206469766973696f6e206279207a65726f000000000000815250614478565b6001600160a01b0381166142c85760405162461bcd60e51b81526004018080602001828103825260268152602001806146ee6026913960400191505060405180910390fd5b600080546040516001600160a01b03808516939216917f8be0079c531659141344cd1fd0a4f28419497f9722a3daafe3b4186f6b6457e091a36000805473ffffffffffffffffffffffffffffffffffffffff19166001600160a01b0392909216919091179055565b6060614385826040518060400160405280602081526020017f5361666542455032303a206c6f772d6c6576656c2063616c6c206661696c6564815250856001600160a01b03166144dd9092919063ffffffff16565b805190915015611610578080602001905160208110156143a457600080fd5b50516116105760405162461bcd60e51b815260040180806020018281038252602a8152602001806146c4602a913960400191505060405180910390fd5b600081848411156144705760405162461bcd60e51b81526004018080602001828103825283818151815260200191508051906020019080838360005b8381101561443557818101518382015260200161441d565b50505050905090810190601f1680156144625780820380516001836020036101000a031916815260200191505b509250505060405180910390fd5b505050900390565b600081836144c75760405162461bcd60e51b815260206004820181815283516024840152835190928392604490910191908501908083836000831561443557818101518382015260200161441d565b5060008385816144d357fe5b0495945050505050565b60606144ec84846000856144f4565b949350505050565b60606144ff85614661565b614550576040805162461bcd60e51b815260206004820152601d60248201527f416464726573733a2063616c6c20746f206e6f6e2d636f6e7472616374000000604482015290519081900360640190fd5b60006060866001600160a01b031685876040518082805190602001908083835b6020831061458f5780518252601f199092019160209182019101614570565b6001836020036101000a03801982511681845116808217855250505050505090500191505060006040518083038185875af1925050503d80600081146145f1576040519150601f19603f3d011682016040523d82523d6000602084013e6145f6565b606091505b5091509150811561460a5791506144ec9050565b80511561461a5780518082602001fd5b60405162461bcd60e51b815260206004820181815286516024840152865187939192839260440191908501908083836000831561443557818101518382015260200161441d565b6000813f7fc5d2460186f7233c927e7db2dcc703c0e500b653ca82273b7bfad8045d85a4708181148015906144ec57505015159291505056fe42657420416d6f756e74206c6f636b65642c20706c656173652074727920616761696e206c617465725361666542455032303a204245503230206f7065726174696f6e20646964206e6f7420737563636565644f776e61626c653a206e6577206f776e657220697320746865207a65726f20616464726573734c6f73732062657420616d6f756e742069732067726561746572207468616e20617661696c61626c652062616c616e6365506172616d65746572206c656e677468732073686f756c6420626520657175616c4c6f636b20706572696f642063616e6e6f742062652067726561746572207468616e2031207765656b536166654d6174683a206d756c7469706c69636174696f6e206f766572666c6f7742616e6b726f6c6c207368617265206d757374206265206c657373207468616e203930254561726c7920776974686472617720666565206d757374206265206c657373207468616e2034302543616c6c6572206d757374206265206c69717569646974792062616e6b726f6c6c43616c6c6572206d7573742062652062616e6b726f6c6c206f72207374616b696e6720706f6f6c42657420616d6f756e742073686f756c642062652067726561746572207468616e2030a2646970667358221220cbb64e4e27f7360f5c615a842fff9ed3ba16ec799e9cdf7d8217e944b863774f64736f6c63430006050033",
  "immutableReferences": {
    "3569": [
      {
        "length": 32,
        "start": 6270
      },
      {
        "length": 32,
        "start": 8808
      },
      {
        "length": 32,
        "start": 9063
      },
      {
        "length": 32,
        "start": 10587
      },
      {
        "length": 32,
        "start": 11534
      },
      {
        "length": 32,
        "start": 11964
      },
      {
        "length": 32,
        "start": 12439
      },
      {
        "length": 32,
        "start": 12609
      },
      {
        "length": 32,
        "start": 13834
      },
      {
        "length": 32,
        "start": 14066
      },
      {
        "length": 32,
        "start": 15105
      },
      {
        "length": 32,
        "start": 15559
      },
      {
        "length": 32,
        "start": 15796
      }
    ],
    "3586": [
      {
        "length": 32,
        "start": 3375
      },
      {
        "length": 32,
        "start": 4327
      },
      {
        "length": 32,
        "start": 5018
      },
      {
        "length": 32,
        "start": 6860
      },
      {
        "length": 32,
        "start": 6914
      },
      {
        "length": 32,
        "start": 7407
      },
      {
        "length": 32,
        "start": 7628
      },
      {
        "length": 32,
        "start": 7995
      },
      {
        "length": 32,
        "start": 8683
      },
      {
        "length": 32,
        "start": 9505
      },
      {
        "length": 32,
        "start": 9753
      },
      {
        "length": 32,
        "start": 9911
      },
      {
        "length": 32,
        "start": 10507
      },
      {
        "length": 32,
        "start": 11376
      },
      {
        "length": 32,
        "start": 12392
      },
      {
        "length": 32,
        "start": 13425
      },
      {
        "length": 32,
        "start": 13642
      },
      {
        "length": 32,
        "start": 13787
      },
      {
        "length": 32,
        "start": 14947
      },
      {
        "length": 32,
        "start": 15512
      },
      {
        "length": 32,
        "start": 16586
      },
      {
        "length": 32,
        "start": 16763
      }
    ],
    "3588": [
      {
        "length": 32,
        "start": 5862
      },
      {
        "length": 32,
        "start": 8605
      },
      {
        "length": 32,
        "start": 8761
      },
      {
        "length": 32,
        "start": 10429
      },
      {
        "length": 32,
        "start": 11454
      },
      {
        "length": 32,
        "start": 13042
      },
      {
        "length": 32,
        "start": 14405
      },
      {
        "length": 32,
        "start": 15025
      },
      {
        "length": 32,
        "start": 16133
      }
    ],
    "3590": [
      {
        "length": 32,
        "start": 2586
      },
      {
        "length": 32,
        "start": 8458
      },
      {
        "length": 32,
        "start": 11049
      },
      {
        "length": 32,
        "start": 13089
      },
      {
        "length": 32,
        "start": 13276
      },
      {
        "length": 32,
        "start": 14452
      },
      {
        "length": 32,
        "start": 14639
      },
      {
        "length": 32,
        "start": 16180
      },
      {
        "length": 32,
        "start": 16367
      }
    ]
  },
  "source": "//SPDX-License-Identifier: MIT\npragma solidity >=0.6.5;\nimport \"@pancakeswap/pancake-swap-lib/contracts/access/Ownable.sol\";\nimport \"./CrushCoin.sol\";\nimport \"./HouseBankroll.sol\";\nimport \"./LiquidityBankroll.sol\";\nimport \"./staking.sol\";\nimport \"@pancakeswap/pancake-swap-lib/contracts/token/BEP20/SafeBEP20.sol\";\nimport \"@pancakeswap/pancake-swap-lib/contracts/token/BEP20/BEP20.sol\";\nimport \"@pancakeswap/pancake-swap-lib/contracts/math/SafeMath.sol\";\nimport \"./libraries/IApeRouter02.sol\";\ncontract BitcrushTokenLiveWallet is Ownable {\n    using SafeMath for uint256;\n    using SafeBEP20 for BEP20;\n    using SafeBEP20 for CRUSHToken;\n\n     IApeRouter02 public immutable swapRouter;\n\n    struct wallet {\n        uint256 balance;\n        uint256 lockTimeStamp;\n        uint256 amountToBorrow;\n    }\n    \n    \n    mapping (address => bool) public blacklistedUsers;\n    //mapping users address with bet amount\n    mapping (address => wallet) public betAmounts;\n    \n    //address of the crush token\n    BEP20 public immutable token;\n    CRUSHToken public immutable crush;\n    BitcrushBankroll public immutable bankroll;\n    BitcrushStaking public stakingPool;\n    BitcrushLiquidityBankroll public liquidityBankroll;\n    \n    \n    uint256 constant public DIVISOR = 10000;\n    uint256 public lockPeriod = 10800;\n    address public reserveAddress;\n    uint256 public earlyWithdrawFee = 50; // 50/10000 * 100 = 0.5% \n    \n    uint256 public borrowedCrush;\n    uint256 public bankrollShare = 6000;\n    uint256 public pendingBankroll;\n    uint256 public pendingBakrollThreshold = 10000000000000000000000;\n    uint256 public slipage = 100;\n\n    event Withdraw (address indexed _address, uint256 indexed _amount);\n    event Deposit (address indexed _address, uint256 indexed _amount);\n    event DepositWin (address indexed _address, uint256 indexed _amount);\n    event LockPeriodUpdated (uint256 indexed _lockPeriod);\n\n    constructor (BEP20 _token, CRUSHToken _crush, BitcrushBankroll _bankroll, address _reserveAddress, IApeRouter02 _swapRouter, BitcrushLiquidityBankroll _liquidityBankroll) public {\n        token = _token;\n        crush = _crush;\n        bankroll = _bankroll;\n        reserveAddress = _reserveAddress;\n        swapRouter = _swapRouter;\n        liquidityBankroll = _liquidityBankroll;\n        \n    }\n\n    /// add funds to the senders live wallet \n    /// @dev adds funds to the sender user's live wallets\n    function addbet (uint256 _amount) public {\n        require(_amount > 0, \"Bet amount should be greater than 0\");\n        require(blacklistedUsers[msg.sender] == false, \"User is black Listed\");\n        token.safeTransferFrom(msg.sender, address(this), _amount);\n        betAmounts[msg.sender].balance = betAmounts[msg.sender].balance.add(_amount);\n        betAmounts[msg.sender].lockTimeStamp = block.timestamp;\n        emit Deposit(msg.sender, _amount);\n        \n    }\n\n    /// add funds to the provided users live wallet \n    /// @dev adds funds to the specified users live wallets\n    function addbetWithAddress (uint256 _amount, address _user) public {\n        require(_amount > 0, \"Bet amount should be greater than 0\");\n        require(blacklistedUsers[_user] == false, \"User is black Listed\");\n        token.safeTransferFrom(msg.sender, address(this), _amount);\n        betAmounts[_user].balance = betAmounts[_user].balance.add(_amount);\n        betAmounts[_user].lockTimeStamp = block.timestamp;\n        emit DepositWin(_user, _amount);\n    }\n\n    /// return the current balance of user in the live wallet\n    /// @dev return current the balance of provided user addrss in the live wallet\n    function balanceOf ( address _user) public view returns (uint256){\n        return betAmounts[_user].balance;\n    }\n\n    /// register wins for users in game with amounts\n    /// @dev register wins for users during gameplay. wins are reported in aggregated form from the game server.\n    function registerWin (uint256[] memory _wins, address[] memory _users) public onlyOwner {\n        require (_wins.length == _users.length, \"Parameter lengths should be equal\");\n        for(uint256 i=0; i < _users.length; i++){\n                if(_wins[i] <= liquidityBankroll.balance(address(token))){\n                    liquidityBankroll.payOutUserWinning(_wins[i], _users[i],address(token));\n                }else {\n                    //win is greater than reserves, add to be borrowed\n                    betAmounts[_users[i]].balance = betAmounts[_users[i]].balance.add(_wins[i]);\n                    uint256 difference = _wins[i].sub(liquidityBankroll.balance(address(token)));\n                    betAmounts[_users[i]].amountToBorrow = betAmounts[_users[i]].amountToBorrow.add(difference);\n                }\n        }\n    }\n    \n    /// register loss for users in game with amounts\n    /// @dev register loss for users during gameplay. loss is reported in aggregated form from the game server.\n    function registerLoss (uint256[] memory _bets, address[] memory _users) public onlyOwner {\n        require (_bets.length == _users.length, \"Parameter lengths should be equal\");\n        for(uint256 i=0; i < _users.length; i++){\n            if(_bets[i] > 0){\n            require(betAmounts[_users[i]].balance >= _bets[i], \"Loss bet amount is greater than available balance\");    \n            transferToBankroll(_bets[i]);\n            betAmounts[_users[i]].balance = betAmounts[_users[i]].balance.sub(_bets[i]);\n            }\n            \n        }\n    }\n\n    /// transfer funds from live wallet to the bankroll on user loss\n    /// @dev transfer funds to the bankroll contract when users lose in game\n    function transferToBankroll (uint256 _amount) internal { \n        //todo check if bankroll is in negative, if yes trasnfer all, if more than needed then compute required and then do a 60/40 split betweek bankroll and liquidity bankroll\n        if(borrowedCrush > 0){\n            //send all to bankroll\n            address[] memory  tmp = new address[](2);\n            tmp[0] = address(token);\n            tmp[1] = address(crush);\n            uint256[] memory amount = swapRouter.getAmountsOut(_amount, tmp);\n            uint256 amountAdjusted = amount[1].sub(amount[1].mul(slipage).div(DIVISOR));\n            if(amountAdjusted > borrowedCrush){\n                //divide spillover between both bankrolls\n                uint256[] memory requiredAmount = swapRouter.getAmountsIn(borrowedCrush, tmp);\n                uint256 requiredAmountAdjusted = requiredAmount[1].add(requiredAmount[1].mul(slipage).div(DIVISOR));\n                if(requiredAmountAdjusted > _amount){\n                    //swap required amount and send to bankroll, send rest to liquidity\n                    token.approve(address(swapRouter), requiredAmountAdjusted);\n                    uint256[] memory amountSwapped = swapRouter.swapExactTokensForTokens(requiredAmountAdjusted, requiredAmount[0], tmp, address(this), block.timestamp+5);\n                    crush.approve(address(bankroll), amountSwapped[1]);\n                    bankroll.addUserLoss(amountSwapped[1]);\n                    \n                    token.approve(address(liquidityBankroll), _amount.sub(requiredAmountAdjusted));\n                    liquidityBankroll.addUserLoss(_amount.sub(requiredAmountAdjusted),address(token));       \n\n                }\n                \n\n            }else {\n                token.approve(address(swapRouter), _amount);\n                uint256[] memory amountSwapped = swapRouter.swapExactTokensForTokens(_amount, amountAdjusted, tmp, address(this), block.timestamp+5);\n                crush.approve(address(bankroll), amountSwapped[1]);\n                bankroll.addUserLoss(amountSwapped[1]);\n                borrowedCrush = borrowedCrush.sub(amountSwapped[1]);\n            }\n\n        }else {\n            uint256 bankrollAmount = _amount.mul(bankrollShare).div(DIVISOR);\n            _amount = _amount.sub(bankrollAmount);\n            pendingBankroll = pendingBankroll.add(bankrollAmount);\n            if(pendingBankroll >= pendingBakrollThreshold){\n                //execute swap and transfer\n                address[] memory  tmp = new address[](2);\n                tmp[0] = address(token);\n                tmp[1] = address(crush);\n                \n                uint256[] memory amount = swapRouter.getAmountsOut(pendingBankroll, tmp);\n                uint256 amountAdjusted = amount[1].sub(amount[1].mul(slipage).div(DIVISOR));\n                token.approve(address(swapRouter), pendingBankroll);\n                uint256[] memory amountSwapped = swapRouter.swapExactTokensForTokens(pendingBankroll, amountAdjusted, tmp, address(this), block.timestamp+5);\n                crush.approve(address(bankroll), amountSwapped[1]);\n                bankroll.addUserLoss(amountSwapped[1]);\n                pendingBankroll = 0;\n                \n            }\n            token.approve(address(liquidityBankroll), _amount);\n            liquidityBankroll.addUserLoss(_amount,address(token));       \n        }\n        \n    }\n\n    /// withdraw funds from live wallet of the senders address\n    /// @dev withdraw amount from users wallet if betlock isnt enabled\n    function withdrawBet(uint256 _amount) public {\n        require(betAmounts[msg.sender].balance >= _amount, \"bet less than amount withdraw\");\n        require(betAmounts[msg.sender].lockTimeStamp == 0 || betAmounts[msg.sender].lockTimeStamp.add(lockPeriod) < block.timestamp, \"Bet Amount locked, please try again later\");\n        betAmounts[msg.sender].balance = betAmounts[msg.sender].balance.sub(_amount);\n        fetchAmountOwed(_amount, msg.sender);\n        token.safeTransfer(msg.sender, _amount);\n        emit Withdraw(msg.sender, _amount);\n    }\n\n    /// owner only function to override timelock and withdraw funds on behalf of user\n    /// @dev withdraw preapproved amount from users wallet sidestepping the timelock on withdrawals\n    function withdrawBetForUser(uint256 _amount, address _user) public onlyOwner {\n        require(betAmounts[_user].balance >= _amount, \"bet less than amount withdraw\");\n        betAmounts[_user].balance = betAmounts[_user].balance.sub(_amount);\n        fetchAmountOwed(_amount, _user);\n        emit Withdraw(_user, _amount);\n        uint256 withdrawalFee = _amount.mul(earlyWithdrawFee).div(DIVISOR);\n        _amount = _amount.sub(withdrawalFee);\n        token.safeTransfer(reserveAddress, withdrawalFee);\n        token.safeTransfer(_user, _amount);\n    }\n\n    function fetchAmountOwed (uint256 _amount, address _winner) internal {\n        //register loss in crush bankroll for required amount;\n        address[] memory  tmp = new address[](2);\n        tmp[0] = address(crush);\n        tmp[1] = address(token);\n        uint256[] memory requiredAmount = swapRouter.getAmountsIn(_amount, tmp);\n        uint256 requiredAmountAdjusted = requiredAmount[0].add(requiredAmount[0].mul(slipage).div(DIVISOR));\n        bankroll.payOutUserWinning(requiredAmountAdjusted, _winner);\n        \n    }\n\n    /// add funds to the users live wallet on wins by either the bankroll or the staking pool\n    /// @dev add funds to the users live wallet as winnings\n    function addToUserWinnings (uint256 _amount, address _user) public {\n        //todo change to liquidity bankroll\n        require(msg.sender == address(bankroll)  || msg.sender == address(stakingPool) ,\"Caller must be bankroll or staking pool\");\n        //swap for token\n        address[] memory  tmp = new address[](2);\n        tmp[0] = address(crush);\n        tmp[1] = address(token);\n        crush.approve(address(swapRouter), _amount);\n        uint256[] memory swappedAmount = swapRouter.swapExactTokensForTokens(_amount, betAmounts[_user].amountToBorrow, tmp, address(this), block.timestamp+5);\n        betAmounts[_user].amountToBorrow = 0;\n        if(swappedAmount[1] > betAmounts[_user].amountToBorrow){\n            token.approve(address(liquidityBankroll), swappedAmount[1].sub(betAmounts[_user].amountToBorrow));\n            liquidityBankroll.addUserLoss(swappedAmount[1].sub(betAmounts[_user].amountToBorrow), address(token));\n        }\n        \n\n    }\n\n    /// add funds to the users live wallet on wins by either the bankroll or the staking pool\n    /// @dev add funds to the users live wallet as winnings\n    function addToUserWinningsNative (uint256 _amount, address _user) public {\n        //todo change to liquidity bankroll\n        require(msg.sender == address(liquidityBankroll),\"Caller must be liquidity bankroll\");\n        betAmounts[_user].balance = betAmounts[_user].balance.add(_amount);\n\n    }\n    \n    /// update the lockTimeStamp of provided users to current timestamp to prevent withdraws\n    /// @dev update bet lock to prevent withdraws during gameplay\n    function updateBetLock (address[] memory _users) public onlyOwner {\n        for(uint256 i=0; i < _users.length; i++){\n            betAmounts[_users[i]].lockTimeStamp = block.timestamp;\n        }\n        \n    }\n    /// update the lockTimeStamp of provided users to 0 to allow withdraws\n    /// @dev update bet lock to allow withdraws after gameplay\n    function releaseBetLock (address[] memory _users) public onlyOwner {\n        for(uint256 i=0; i < _users.length; i++){\n            betAmounts[_users[i]].lockTimeStamp = 0;\n        }\n    }\n\n    /// blacklist specified address from adding more funds to the pool\n    /// @dev prevent specified address from adding funds to the live wallet\n    function blacklistUser (address _address) public onlyOwner {\n        blacklistedUsers[_address] = true;\n    }\n\n    /// whitelist sender address from adding more funds to the pool\n    /// @dev allow previously blacklisted sender address to add funds to the live wallet\n    function whitelistUser (address _address) public onlyOwner {\n        delete blacklistedUsers[_address];\n    }\n\n    /// blacklist sender address from adding more funds to the pool\n    /// @dev prevent sender address from adding funds to the live wallet\n    function blacklistSelf () public  {\n        blacklistedUsers[msg.sender] = true;\n    }\n\n\n    /// Store `_lockPeriod`.\n    /// @param _lockPeriod the new value to store\n    /// @dev stores the _lockPeriod in the state variable `lockPeriod`\n    function setLockPeriod (uint256 _lockPeriod) public onlyOwner {\n        require(_lockPeriod <= 604800, \"Lock period cannot be greater than 1 week\");\n        lockPeriod = _lockPeriod;\n        emit LockPeriodUpdated(lockPeriod);\n    }\n\n    /// Store `_reserveAddress`.\n    /// @param _reserveAddress the new value to store\n    /// @dev stores the _reserveAddress in the state variable `reserveAddress`\n    function setReserveAddress (address _reserveAddress) public onlyOwner {\n        reserveAddress = _reserveAddress;\n    }\n\n    /// Store `_earlyWithdrawFee`.\n    /// @param _earlyWithdrawFee the new value to store\n    /// @dev stores the _earlyWithdrawFee in the state variable `earlyWithdrawFee`\n    function setEarlyWithdrawFee (uint256 _earlyWithdrawFee ) public onlyOwner {\n        require(_earlyWithdrawFee < 4000, \"Early withdraw fee must be less than 40%\");\n        earlyWithdrawFee = _earlyWithdrawFee;\n    }\n\n   \n\n    /// Store `_stakingPool`.\n    /// @param _stakingPool the new value to store\n    /// @dev stores the _stakingPool address in the state variable `stakingPool`\n    function setStakingPool (BitcrushStaking _stakingPool) public onlyOwner {\n        require(stakingPool == BitcrushStaking(0x0), \"staking pool address already set\");\n        stakingPool = _stakingPool;\n    }\n\n    function setPendingBankrollThreshold (uint256 _amount) public onlyOwner {\n        pendingBakrollThreshold = _amount;\n    }\n\n    function setBankrollShare (uint256 _amount) public onlyOwner {\n        require(_amount < 9000, \"Bankroll share must be less than 90%\");\n        bankrollShare = _amount;\n    }\n\n    function setSlipage (uint256 _amount) public onlyOwner {\n        require(_amount < 1000, \"slipage must be less than 10%\");\n        slipage = _amount;\n    }\n\n}",
  "sourcePath": "/Users/umeralisajid/Documents/Frag/bitcrush/crush_contacts_old/contracts/TokenLiveWallet.sol",
  "compiler": {
    "name": "solc",
    "version": "0.6.5+commit.f956cc89.Emscripten.clang"
  },
  "schemaVersion": "3.4.4",
  "updatedAt": "2022-01-23T12:41:19.977Z",
  "devdoc": {
    "methods": {
      "addToUserWinnings(uint256,address)": {
        "details": "add funds to the users live wallet as winnings"
      },
      "addToUserWinningsNative(uint256,address)": {
        "details": "add funds to the users live wallet as winnings"
      },
      "addbet(uint256)": {
        "details": "adds funds to the sender user's live wallets"
      },
      "addbetWithAddress(uint256,address)": {
        "details": "adds funds to the specified users live wallets"
      },
      "balanceOf(address)": {
        "details": "return current the balance of provided user addrss in the live wallet"
      },
      "blacklistSelf()": {
        "details": "prevent sender address from adding funds to the live wallet"
      },
      "blacklistUser(address)": {
        "details": "prevent specified address from adding funds to the live wallet"
      },
      "owner()": {
        "details": "Returns the address of the current owner."
      },
      "registerLoss(uint256[],address[])": {
        "details": "register loss for users during gameplay. loss is reported in aggregated form from the game server."
      },
      "registerWin(uint256[],address[])": {
        "details": "register wins for users during gameplay. wins are reported in aggregated form from the game server."
      },
      "releaseBetLock(address[])": {
        "details": "update bet lock to allow withdraws after gameplay"
      },
      "renounceOwnership()": {
        "details": "Leaves the contract without owner. It will not be possible to call `onlyOwner` functions anymore. Can only be called by the current owner.     * NOTE: Renouncing ownership will leave the contract without an owner, thereby removing any functionality that is only available to the owner."
      },
      "setEarlyWithdrawFee(uint256)": {
        "details": "stores the _earlyWithdrawFee in the state variable `earlyWithdrawFee`",
        "params": {
          "_earlyWithdrawFee": "the new value to store"
        }
      },
      "setLockPeriod(uint256)": {
        "details": "stores the _lockPeriod in the state variable `lockPeriod`",
        "params": {
          "_lockPeriod": "the new value to store"
        }
      },
      "setReserveAddress(address)": {
        "details": "stores the _reserveAddress in the state variable `reserveAddress`",
        "params": {
          "_reserveAddress": "the new value to store"
        }
      },
      "setStakingPool(address)": {
        "details": "stores the _stakingPool address in the state variable `stakingPool`",
        "params": {
          "_stakingPool": "the new value to store"
        }
      },
      "transferOwnership(address)": {
        "details": "Transfers ownership of the contract to a new account (`newOwner`). Can only be called by the current owner."
      },
      "updateBetLock(address[])": {
        "details": "update bet lock to prevent withdraws during gameplay"
      },
      "whitelistUser(address)": {
        "details": "allow previously blacklisted sender address to add funds to the live wallet"
      },
      "withdrawBet(uint256)": {
        "details": "withdraw amount from users wallet if betlock isnt enabled"
      },
      "withdrawBetForUser(uint256,address)": {
        "details": "withdraw preapproved amount from users wallet sidestepping the timelock on withdrawals"
      }
    }
  },
  "userdoc": {
    "methods": {
      "addToUserWinnings(uint256,address)": {
        "notice": "add funds to the users live wallet on wins by either the bankroll or the staking pool"
      },
      "addToUserWinningsNative(uint256,address)": {
        "notice": "add funds to the users live wallet on wins by either the bankroll or the staking pool"
      },
      "addbet(uint256)": {
        "notice": "add funds to the senders live wallet "
      },
      "addbetWithAddress(uint256,address)": {
        "notice": "add funds to the provided users live wallet "
      },
      "balanceOf(address)": {
        "notice": "return the current balance of user in the live wallet"
      },
      "blacklistSelf()": {
        "notice": "blacklist sender address from adding more funds to the pool"
      },
      "blacklistUser(address)": {
        "notice": "blacklist specified address from adding more funds to the pool"
      },
      "registerLoss(uint256[],address[])": {
        "notice": "register loss for users in game with amounts"
      },
      "registerWin(uint256[],address[])": {
        "notice": "register wins for users in game with amounts"
      },
      "releaseBetLock(address[])": {
        "notice": "update the lockTimeStamp of provided users to 0 to allow withdraws"
      },
      "setEarlyWithdrawFee(uint256)": {
        "notice": "Store `_earlyWithdrawFee`."
      },
      "setLockPeriod(uint256)": {
        "notice": "Store `_lockPeriod`."
      },
      "setReserveAddress(address)": {
        "notice": "Store `_reserveAddress`."
      },
      "setStakingPool(address)": {
        "notice": "Store `_stakingPool`."
      },
      "updateBetLock(address[])": {
        "notice": "update the lockTimeStamp of provided users to current timestamp to prevent withdraws"
      },
      "whitelistUser(address)": {
        "notice": "whitelist sender address from adding more funds to the pool"
      },
      "withdrawBet(uint256)": {
        "notice": "withdraw funds from live wallet of the senders address"
      },
      "withdrawBetForUser(uint256,address)": {
        "notice": "owner only function to override timelock and withdraw funds on behalf of user"
      }
    }
  }
}