{
  "contractName": "BitcrushTestingBankroll",
  "abi": [
    {
      "inputs": [
        {
          "internalType": "address",
          "name": "_admin",
          "type": "address"
        },
        {
          "internalType": "address",
          "name": "token",
          "type": "address"
        }
      ],
      "stateMutability": "nonpayable",
      "type": "constructor"
    },
    {
      "anonymous": false,
      "inputs": [
        {
          "indexed": true,
          "internalType": "address",
          "name": "previousOwner",
          "type": "address"
        },
        {
          "indexed": true,
          "internalType": "address",
          "name": "newOwner",
          "type": "address"
        }
      ],
      "name": "OwnershipTransferred",
      "type": "event"
    },
    {
      "inputs": [
        {
          "internalType": "address",
          "name": "",
          "type": "address"
        }
      ],
      "name": "authorizedAddresses",
      "outputs": [
        {
          "internalType": "bool",
          "name": "",
          "type": "bool"
        }
      ],
      "stateMutability": "view",
      "type": "function",
      "constant": true
    },
    {
      "inputs": [
        {
          "internalType": "address",
          "name": "",
          "type": "address"
        }
      ],
      "name": "bankroll",
      "outputs": [
        {
          "internalType": "uint256",
          "name": "",
          "type": "uint256"
        }
      ],
      "stateMutability": "view",
      "type": "function",
      "constant": true
    },
    {
      "inputs": [],
      "name": "owner",
      "outputs": [
        {
          "internalType": "address",
          "name": "",
          "type": "address"
        }
      ],
      "stateMutability": "view",
      "type": "function",
      "constant": true
    },
    {
      "inputs": [],
      "name": "renounceOwnership",
      "outputs": [],
      "stateMutability": "nonpayable",
      "type": "function"
    },
    {
      "inputs": [
        {
          "internalType": "address",
          "name": "newOwner",
          "type": "address"
        }
      ],
      "name": "transferOwnership",
      "outputs": [],
      "stateMutability": "nonpayable",
      "type": "function"
    },
    {
      "inputs": [
        {
          "internalType": "address",
          "name": "_address",
          "type": "address"
        }
      ],
      "name": "authorizeAddress",
      "outputs": [],
      "stateMutability": "nonpayable",
      "type": "function"
    },
    {
      "inputs": [
        {
          "internalType": "address",
          "name": "_address",
          "type": "address"
        }
      ],
      "name": "removeAuthorization",
      "outputs": [],
      "stateMutability": "nonpayable",
      "type": "function"
    },
    {
      "inputs": [
        {
          "internalType": "uint256",
          "name": "_amount",
          "type": "uint256"
        }
      ],
      "name": "addToBankroll",
      "outputs": [],
      "stateMutability": "nonpayable",
      "type": "function"
    },
    {
      "inputs": [
        {
          "internalType": "uint256",
          "name": "_amount",
          "type": "uint256"
        }
      ],
      "name": "addUserLoss",
      "outputs": [],
      "stateMutability": "nonpayable",
      "type": "function"
    },
    {
      "inputs": [
        {
          "internalType": "uint256",
          "name": "_amount",
          "type": "uint256"
        },
        {
          "internalType": "address",
          "name": "_winner",
          "type": "address"
        }
      ],
      "name": "payOutUserWinning",
      "outputs": [],
      "stateMutability": "nonpayable",
      "type": "function"
    },
    {
      "inputs": [],
      "name": "balance",
      "outputs": [
        {
          "internalType": "uint256",
          "name": "",
          "type": "uint256"
        }
      ],
      "stateMutability": "view",
      "type": "function",
      "constant": true
    },
    {
      "inputs": [
        {
          "internalType": "address",
          "name": "_admin",
          "type": "address"
        }
      ],
      "name": "setAdmin",
      "outputs": [],
      "stateMutability": "nonpayable",
      "type": "function"
    },
    {
      "inputs": [],
      "name": "withdrawAllFunds",
      "outputs": [],
      "stateMutability": "nonpayable",
      "type": "function"
    }
  ],
  "bytecode": "0x608060405234801561001057600080fd5b50604051610f7f380380610f7f8339818101604052604081101561003357600080fd5b508051602090910151600061004f6001600160e01b036100ca16565b600080546001600160a01b0319166001600160a01b0383169081178255604051929350917f8be0079c531659141344cd1fd0a4f28419497f9722a3daafe3b4186f6b6457e0908290a350600380546001600160a01b039384166001600160a01b031991821617909155600280549290931691161790556100ce565b3390565b610ea2806100dd6000396000f3fe608060405234801561001057600080fd5b50600436106100df5760003560e01c80638da5cb5b1161008c578063c0f3697011610066578063c0f36970146101ef578063c2e50b1614610215578063f19e207e14610232578063f2fde38b1461026c576100df565b80638da5cb5b1461018b57806394f3f81d146101af578063b69ef8a8146101d5576100df565b806361433d88116100bd57806361433d8814610131578063704b6c021461015d578063715018a614610183576100df565b8063151fac7b146100e457806349649fbf146101035780634a5db3b51461010b575b600080fd5b610101600480360360208110156100fa57600080fd5b5035610292565b005b610101610358565b6101016004803603602081101561012157600080fd5b50356001600160a01b03166103f1565b6101016004803603604081101561014757600080fd5b50803590602001356001600160a01b031661047f565b6101016004803603602081101561017357600080fd5b50356001600160a01b031661053d565b6101016105d6565b610193610697565b604080516001600160a01b039092168252519081900360200190f35b610101600480360360208110156101c557600080fd5b50356001600160a01b03166106a6565b6101dd610731565b60408051918252519081900360200190f35b6101dd6004803603602081101561020557600080fd5b50356001600160a01b031661074f565b6101016004803603602081101561022b57600080fd5b50356102f1565b6102586004803603602081101561024857600080fd5b50356001600160a01b0316610761565b604080519115158252519081900360200190f35b6101016004803603602081101561028257600080fd5b50356001600160a01b0316610776565b6003546001600160a01b031633146102f1576040805162461bcd60e51b815260206004820152601f60248201527f416363657373207265737472696374656420746f2061646d696e206f6e6c7900604482015290519081900360640190fd5b60025461030f906001600160a01b031633308463ffffffff6107ec16565b6002546001600160a01b031660009081526001602052604090205461033a908263ffffffff61087a16565b6002546001600160a01b031660009081526001602052604090205550565b6103606108db565b6000546001600160a01b039081169116146103c2576040805162461bcd60e51b815260206004820181905260248201527f4f776e61626c653a2063616c6c6572206973206e6f7420746865206f776e6572604482015290519081900360640190fd5b6002546001600160a01b03166000818152600160205260409020546103ef9190339063ffffffff6108df16565b565b6103f96108db565b6000546001600160a01b0390811691161461045b576040805162461bcd60e51b815260206004820181905260248201527f4f776e61626c653a2063616c6c6572206973206e6f7420746865206f776e6572604482015290519081900360640190fd5b6001600160a01b03166000908152600460205260409020805460ff19166001179055565b3360009081526004602052604090205460ff1615156001146104e8576040805162461bcd60e51b815260206004820152601960248201527f43616c6c6572206d75737420626520617574686f72697a656400000000000000604482015290519081900360640190fd5b6104f3828233610964565b6002546001600160a01b031660009081526001602052604090205461051e908363ffffffff610a0a16565b6002546001600160a01b03166000908152600160205260409020555050565b6105456108db565b6000546001600160a01b039081169116146105a7576040805162461bcd60e51b815260206004820181905260248201527f4f776e61626c653a2063616c6c6572206973206e6f7420746865206f776e6572604482015290519081900360640190fd5b6003805473ffffffffffffffffffffffffffffffffffffffff19166001600160a01b0392909216919091179055565b6105de6108db565b6000546001600160a01b03908116911614610640576040805162461bcd60e51b815260206004820181905260248201527f4f776e61626c653a2063616c6c6572206973206e6f7420746865206f776e6572604482015290519081900360640190fd5b600080546040516001600160a01b03909116907f8be0079c531659141344cd1fd0a4f28419497f9722a3daafe3b4186f6b6457e0908390a36000805473ffffffffffffffffffffffffffffffffffffffff19169055565b6000546001600160a01b031690565b6106ae6108db565b6000546001600160a01b03908116911614610710576040805162461bcd60e51b815260206004820181905260248201527f4f776e61626c653a2063616c6c6572206973206e6f7420746865206f776e6572604482015290519081900360640190fd5b6001600160a01b03166000908152600460205260409020805460ff19169055565b6002546001600160a01b031660009081526001602052604090205490565b60016020526000908152604090205481565b60046020526000908152604090205460ff1681565b61077e6108db565b6000546001600160a01b039081169116146107e0576040805162461bcd60e51b815260206004820181905260248201527f4f776e61626c653a2063616c6c6572206973206e6f7420746865206f776e6572604482015290519081900360640190fd5b6107e981610a4c565b50565b604080516001600160a01b0380861660248301528416604482015260648082018490528251808303909101815260849091019091526020810180517bffffffffffffffffffffffffffffffffffffffffffffffffffffffff167f23b872dd00000000000000000000000000000000000000000000000000000000179052610874908590610af9565b50505050565b6000828201838110156108d4576040805162461bcd60e51b815260206004820152601b60248201527f536166654d6174683a206164646974696f6e206f766572666c6f770000000000604482015290519081900360640190fd5b9392505050565b3390565b604080516001600160a01b038416602482015260448082018490528251808303909101815260649091019091526020810180517bffffffffffffffffffffffffffffffffffffffffffffffffffffffff167fa9059cbb0000000000000000000000000000000000000000000000000000000017905261095f908490610af9565b505050565b600254610981906001600160a01b0316828563ffffffff6108df16565b604080517ff62cf8d0000000000000000000000000000000000000000000000000000000008152600481018590526001600160a01b0384811660248301529151839283169163f62cf8d091604480830192600092919082900301818387803b1580156109ec57600080fd5b505af1158015610a00573d6000803e3d6000fd5b5050505050505050565b60006108d483836040518060400160405280601e81526020017f536166654d6174683a207375627472616374696f6e206f766572666c6f770000815250610baa565b6001600160a01b038116610a915760405162461bcd60e51b8152600401808060200182810382526026815260200180610e476026913960400191505060405180910390fd5b600080546040516001600160a01b03808516939216917f8be0079c531659141344cd1fd0a4f28419497f9722a3daafe3b4186f6b6457e091a36000805473ffffffffffffffffffffffffffffffffffffffff19166001600160a01b0392909216919091179055565b6060610b4e826040518060400160405280602081526020017f5361666542455032303a206c6f772d6c6576656c2063616c6c206661696c6564815250856001600160a01b0316610c419092919063ffffffff16565b80519091501561095f57808060200190516020811015610b6d57600080fd5b505161095f5760405162461bcd60e51b815260040180806020018281038252602a815260200180610e1d602a913960400191505060405180910390fd5b60008184841115610c395760405162461bcd60e51b81526004018080602001828103825283818151815260200191508051906020019080838360005b83811015610bfe578181015183820152602001610be6565b50505050905090810190601f168015610c2b5780820380516001836020036101000a031916815260200191505b509250505060405180910390fd5b505050900390565b6060610c508484600085610c58565b949350505050565b6060610c6385610de3565b610cb4576040805162461bcd60e51b815260206004820152601d60248201527f416464726573733a2063616c6c20746f206e6f6e2d636f6e7472616374000000604482015290519081900360640190fd5b60006060866001600160a01b031685876040518082805190602001908083835b60208310610d1157805182527fffffffffffffffffffffffffffffffffffffffffffffffffffffffffffffffe09092019160209182019101610cd4565b6001836020036101000a03801982511681845116808217855250505050505090500191505060006040518083038185875af1925050503d8060008114610d73576040519150601f19603f3d011682016040523d82523d6000602084013e610d78565b606091505b50915091508115610d8c579150610c509050565b805115610d9c5780518082602001fd5b60405162461bcd60e51b8152602060048201818152865160248401528651879391928392604401919085019080838360008315610bfe578181015183820152602001610be6565b6000813f7fc5d2460186f7233c927e7db2dcc703c0e500b653ca82273b7bfad8045d85a470818114801590610c5057505015159291505056fe5361666542455032303a204245503230206f7065726174696f6e20646964206e6f7420737563636565644f776e61626c653a206e6577206f776e657220697320746865207a65726f2061646472657373a2646970667358221220864b30926bcddd059311f08750e56b9a556a75b756bb05a05cc010b0abd3e81364736f6c63430006050033",
  "immutableReferences": {},
  "source": "//SPDX-License-Identifier: MIT\npragma solidity >=0.6.5;\nimport \"@pancakeswap/pancake-swap-lib/contracts/access/Ownable.sol\";\nimport \"@pancakeswap/pancake-swap-lib/contracts/math/SafeMath.sol\";\nimport \"@pancakeswap/pancake-swap-lib/contracts/token/BEP20/SafeBEP20.sol\";\nimport \"@pancakeswap/pancake-swap-lib/contracts/token/BEP20/BEP20.sol\";\nimport \"./TokenLiveWallet.sol\";\n\ncontract BitcrushTestingBankroll is Ownable {\n    using SafeMath for uint256;\n    using SafeBEP20 for BEP20;\n    mapping (address => uint256) public bankroll;\n     address _token ;\n    address admin;\n    // MODIFIERS\n    modifier adminOnly() {\n        require(\n            msg.sender == address(admin),\n            \"Access restricted to admin only\"\n        );\n        _;\n    }\n\n    //authorized addresses\n    mapping(address => bool) public authorizedAddresses;\n\n    constructor( address _admin, address token) public {\n        admin = _admin;\n        _token = token;\n    }\n\n    /// authorize address to register wins and losses\n    /// @param _address the address to be authorized\n    /// @dev updates the authorizedAddresses mapping to true for given address\n    function authorizeAddress(address _address) public onlyOwner {\n        authorizedAddresses[_address] = true;\n    }\n\n    /// remove authorization of an address from register wins and losses\n    /// @param _address the address to be removed\n    /// @dev updates the authorizedAddresses mapping by deleting entry for given address\n    function removeAuthorization(address _address) public onlyOwner {\n        delete authorizedAddresses[_address];\n    }\n\n    /// Add funds to the bankroll\n    /// @param _amount the amount to add\n    /// @dev adds funds to the bankroll\n    function addToBankroll(uint256 _amount) public adminOnly {\n        BEP20(_token).safeTransferFrom(msg.sender, address(this), _amount);\n        bankroll[_token] = bankroll[_token].add(_amount);\n    }\n\n    /// Add users loss to the bankroll\n    /// @param _amount the amount to add\n    /// @dev adds funds to the bankroll if bankroll is in positive, otherwise its transfered to the staking pool to recover frozen funds\n    function addUserLoss(uint256 _amount) public {\n        BEP20(_token).safeTransferFrom(msg.sender, address(this), _amount);\n        bankroll[_token] = bankroll[_token].add(_amount);\n    }\n\n\n    /// Deduct users win from the bankroll\n    /// @param _amount the amount to deduct\n    /// @dev deducts funds from the bankroll if bankroll is in positive, otherwise theyre pulled from staking pool and bankroll marked as negative\n    function payOutUserWinning(uint256 _amount, address _winner) public {\n        require(\n            authorizedAddresses[msg.sender] == true,\n            \"Caller must be authorized\"\n        );\n        transferWinnings(_amount, _winner, msg.sender);\n        bankroll[_token] = bankroll[_token].sub(_amount);\n    }\n    /// transfer winnings from bankroll contract to live wallet\n    /// @param _amount the amount to tranfer\n    /// @param _winner the winners address\n    /// @dev transfers funds from the bankroll to the live wallet as users winnings\n    function transferWinnings(\n        uint256 _amount,\n        address _winner,\n        address _lwAddress\n    ) internal {\n        BEP20(_token).safeTransfer(_lwAddress, _amount);\n        BitcrushTokenLiveWallet currentLw = BitcrushTokenLiveWallet( _lwAddress);\n        currentLw.addToUserWinnings(_amount, _winner);\n    }\n    /// return the current balance of user in the live wallet\n    /// @dev return current the balance of provided user addrss in the live wallet\n    function balance() public view returns (uint256) {\n        return bankroll[_token];\n    }\n\n    ///store new address in admin address\n    /// @param _admin the new address to store\n    /// @dev changes the address which is used by the adminOnly modifier\n    function setAdmin(address _admin) public onlyOwner {\n        admin = _admin;\n    }\n\n    //todo remove before audit and deploying\n    function withdrawAllFunds ()public onlyOwner {\n        BEP20(_token).safeTransfer(msg.sender, bankroll[_token]);\n    }\n}\n",
  "sourcePath": "/Users/umeralisajid/Documents/Frag/bitcrush/crush_contacts_old/contracts/TestingBankroll.sol",
  "compiler": {
    "name": "solc",
    "version": "0.6.5+commit.f956cc89.Emscripten.clang"
  },
  "schemaVersion": "3.4.4",
  "updatedAt": "2022-02-04T08:36:16.213Z",
  "networkType": "ethereum",
  "devdoc": {
    "methods": {
      "addToBankroll(uint256)": {
        "details": "adds funds to the bankroll",
        "params": {
          "_amount": "the amount to add"
        }
      },
      "addUserLoss(uint256)": {
        "details": "adds funds to the bankroll if bankroll is in positive, otherwise its transfered to the staking pool to recover frozen funds",
        "params": {
          "_amount": "the amount to add"
        }
      },
      "authorizeAddress(address)": {
        "details": "updates the authorizedAddresses mapping to true for given address",
        "params": {
          "_address": "the address to be authorized"
        }
      },
      "balance()": {
        "details": "return current the balance of provided user addrss in the live wallet"
      },
      "owner()": {
        "details": "Returns the address of the current owner."
      },
      "payOutUserWinning(uint256,address)": {
        "details": "deducts funds from the bankroll if bankroll is in positive, otherwise theyre pulled from staking pool and bankroll marked as negative",
        "params": {
          "_amount": "the amount to deduct"
        }
      },
      "removeAuthorization(address)": {
        "details": "updates the authorizedAddresses mapping by deleting entry for given address",
        "params": {
          "_address": "the address to be removed"
        }
      },
      "renounceOwnership()": {
        "details": "Leaves the contract without owner. It will not be possible to call `onlyOwner` functions anymore. Can only be called by the current owner.     * NOTE: Renouncing ownership will leave the contract without an owner, thereby removing any functionality that is only available to the owner."
      },
      "setAdmin(address)": {
        "details": "changes the address which is used by the adminOnly modifier",
        "params": {
          "_admin": "the new address to store"
        }
      },
      "transferOwnership(address)": {
        "details": "Transfers ownership of the contract to a new account (`newOwner`). Can only be called by the current owner."
      }
    }
  },
  "userdoc": {
    "methods": {
      "addToBankroll(uint256)": {
        "notice": "Add funds to the bankroll"
      },
      "addUserLoss(uint256)": {
        "notice": "Add users loss to the bankroll"
      },
      "authorizeAddress(address)": {
        "notice": "authorize address to register wins and losses"
      },
      "balance()": {
        "notice": "return the current balance of user in the live wallet"
      },
      "payOutUserWinning(uint256,address)": {
        "notice": "Deduct users win from the bankroll"
      },
      "removeAuthorization(address)": {
        "notice": "remove authorization of an address from register wins and losses"
      },
      "setAdmin(address)": {
        "notice": "store new address in admin address"
      }
    }
  }
}