{
  "contractName": "BitcrushBankroll",
  "abi": [
    {
      "inputs": [
        {
          "internalType": "contract CRUSHToken",
          "name": "_crush",
          "type": "address"
        },
        {
          "internalType": "contract BitcrushStaking",
          "name": "_stakingPool",
          "type": "address"
        },
        {
          "internalType": "address",
          "name": "_reserve",
          "type": "address"
        },
        {
          "internalType": "address",
          "name": "_lottery",
          "type": "address"
        },
        {
          "internalType": "uint256",
          "name": "_profitShare",
          "type": "uint256"
        },
        {
          "internalType": "uint256",
          "name": "_houseBankrollShare",
          "type": "uint256"
        },
        {
          "internalType": "uint256",
          "name": "_lotteryShare",
          "type": "uint256"
        },
        {
          "internalType": "uint256",
          "name": "_reserveShare",
          "type": "uint256"
        },
        {
          "internalType": "address",
          "name": "_admin",
          "type": "address"
        }
      ],
      "stateMutability": "nonpayable",
      "type": "constructor"
    },
    {
      "anonymous": false,
      "inputs": [
        {
          "indexed": true,
          "internalType": "address",
          "name": "previousOwner",
          "type": "address"
        },
        {
          "indexed": true,
          "internalType": "address",
          "name": "newOwner",
          "type": "address"
        }
      ],
      "name": "OwnershipTransferred",
      "type": "event"
    },
    {
      "anonymous": false,
      "inputs": [
        {
          "indexed": false,
          "internalType": "uint256",
          "name": "_houseBankrollShare",
          "type": "uint256"
        },
        {
          "indexed": false,
          "internalType": "uint256",
          "name": "_profitShare",
          "type": "uint256"
        },
        {
          "indexed": false,
          "internalType": "uint256",
          "name": "_lotteryShare",
          "type": "uint256"
        },
        {
          "indexed": false,
          "internalType": "uint256",
          "name": "_reserveShare",
          "type": "uint256"
        }
      ],
      "name": "SharesUpdated",
      "type": "event"
    },
    {
      "inputs": [],
      "name": "BURN_RATE",
      "outputs": [
        {
          "internalType": "uint256",
          "name": "",
          "type": "uint256"
        }
      ],
      "stateMutability": "view",
      "type": "function"
    },
    {
      "inputs": [],
      "name": "DIVISOR",
      "outputs": [
        {
          "internalType": "uint256",
          "name": "",
          "type": "uint256"
        }
      ],
      "stateMutability": "view",
      "type": "function"
    },
    {
      "inputs": [
        {
          "internalType": "address",
          "name": "",
          "type": "address"
        }
      ],
      "name": "authorizedAddresses",
      "outputs": [
        {
          "internalType": "bool",
          "name": "",
          "type": "bool"
        }
      ],
      "stateMutability": "view",
      "type": "function"
    },
    {
      "inputs": [],
      "name": "brSinceCompound",
      "outputs": [
        {
          "internalType": "uint256",
          "name": "",
          "type": "uint256"
        }
      ],
      "stateMutability": "view",
      "type": "function"
    },
    {
      "inputs": [],
      "name": "crush",
      "outputs": [
        {
          "internalType": "contract CRUSHToken",
          "name": "",
          "type": "address"
        }
      ],
      "stateMutability": "view",
      "type": "function"
    },
    {
      "inputs": [],
      "name": "houseBankrollShare",
      "outputs": [
        {
          "internalType": "uint256",
          "name": "",
          "type": "uint256"
        }
      ],
      "stateMutability": "view",
      "type": "function"
    },
    {
      "inputs": [],
      "name": "lottery",
      "outputs": [
        {
          "internalType": "address",
          "name": "",
          "type": "address"
        }
      ],
      "stateMutability": "view",
      "type": "function"
    },
    {
      "inputs": [],
      "name": "lotteryShare",
      "outputs": [
        {
          "internalType": "uint256",
          "name": "",
          "type": "uint256"
        }
      ],
      "stateMutability": "view",
      "type": "function"
    },
    {
      "inputs": [],
      "name": "negativeBankroll",
      "outputs": [
        {
          "internalType": "uint256",
          "name": "",
          "type": "uint256"
        }
      ],
      "stateMutability": "view",
      "type": "function"
    },
    {
      "inputs": [],
      "name": "negativeBrSinceCompound",
      "outputs": [
        {
          "internalType": "uint256",
          "name": "",
          "type": "uint256"
        }
      ],
      "stateMutability": "view",
      "type": "function"
    },
    {
      "inputs": [],
      "name": "owner",
      "outputs": [
        {
          "internalType": "address",
          "name": "",
          "type": "address"
        }
      ],
      "stateMutability": "view",
      "type": "function"
    },
    {
      "inputs": [],
      "name": "poolDepleted",
      "outputs": [
        {
          "internalType": "bool",
          "name": "",
          "type": "bool"
        }
      ],
      "stateMutability": "view",
      "type": "function"
    },
    {
      "inputs": [],
      "name": "profitShare",
      "outputs": [
        {
          "internalType": "uint256",
          "name": "",
          "type": "uint256"
        }
      ],
      "stateMutability": "view",
      "type": "function"
    },
    {
      "inputs": [],
      "name": "profitThreshold",
      "outputs": [
        {
          "internalType": "uint256",
          "name": "",
          "type": "uint256"
        }
      ],
      "stateMutability": "view",
      "type": "function"
    },
    {
      "inputs": [],
      "name": "renounceOwnership",
      "outputs": [],
      "stateMutability": "nonpayable",
      "type": "function"
    },
    {
      "inputs": [],
      "name": "reserve",
      "outputs": [
        {
          "internalType": "address",
          "name": "",
          "type": "address"
        }
      ],
      "stateMutability": "view",
      "type": "function"
    },
    {
      "inputs": [],
      "name": "reserveShare",
      "outputs": [
        {
          "internalType": "uint256",
          "name": "",
          "type": "uint256"
        }
      ],
      "stateMutability": "view",
      "type": "function"
    },
    {
      "inputs": [],
      "name": "stakingPool",
      "outputs": [
        {
          "internalType": "contract BitcrushStaking",
          "name": "",
          "type": "address"
        }
      ],
      "stateMutability": "view",
      "type": "function"
    },
    {
      "inputs": [],
      "name": "totalBankroll",
      "outputs": [
        {
          "internalType": "uint256",
          "name": "",
          "type": "uint256"
        }
      ],
      "stateMutability": "view",
      "type": "function"
    },
    {
      "inputs": [],
      "name": "totalProfit",
      "outputs": [
        {
          "internalType": "uint256",
          "name": "",
          "type": "uint256"
        }
      ],
      "stateMutability": "view",
      "type": "function"
    },
    {
      "inputs": [],
      "name": "totalWinnings",
      "outputs": [
        {
          "internalType": "uint256",
          "name": "",
          "type": "uint256"
        }
      ],
      "stateMutability": "view",
      "type": "function"
    },
    {
      "inputs": [
        {
          "internalType": "address",
          "name": "newOwner",
          "type": "address"
        }
      ],
      "name": "transferOwnership",
      "outputs": [],
      "stateMutability": "nonpayable",
      "type": "function"
    },
    {
      "inputs": [
        {
          "internalType": "address",
          "name": "_address",
          "type": "address"
        }
      ],
      "name": "authorizeAddress",
      "outputs": [],
      "stateMutability": "nonpayable",
      "type": "function"
    },
    {
      "inputs": [
        {
          "internalType": "address",
          "name": "_address",
          "type": "address"
        }
      ],
      "name": "removeAuthorization",
      "outputs": [],
      "stateMutability": "nonpayable",
      "type": "function"
    },
    {
      "inputs": [
        {
          "internalType": "uint256",
          "name": "_amount",
          "type": "uint256"
        }
      ],
      "name": "addToBankroll",
      "outputs": [],
      "stateMutability": "nonpayable",
      "type": "function"
    },
    {
      "inputs": [
        {
          "internalType": "uint256",
          "name": "_amount",
          "type": "uint256"
        }
      ],
      "name": "addUserLoss",
      "outputs": [],
      "stateMutability": "nonpayable",
      "type": "function"
    },
    {
      "inputs": [
        {
          "internalType": "uint256",
          "name": "_amount",
          "type": "uint256"
        }
      ],
      "name": "recoverBankroll",
      "outputs": [],
      "stateMutability": "nonpayable",
      "type": "function"
    },
    {
      "inputs": [
        {
          "internalType": "uint256",
          "name": "_amount",
          "type": "uint256"
        },
        {
          "internalType": "address",
          "name": "_winner",
          "type": "address"
        }
      ],
      "name": "payOutUserWinning",
      "outputs": [],
      "stateMutability": "nonpayable",
      "type": "function"
    },
    {
      "inputs": [],
      "name": "transferProfit",
      "outputs": [
        {
          "internalType": "uint256",
          "name": "",
          "type": "uint256"
        }
      ],
      "stateMutability": "nonpayable",
      "type": "function"
    },
    {
      "inputs": [
        {
          "internalType": "uint256",
          "name": "_threshold",
          "type": "uint256"
        }
      ],
      "name": "setProfitThreshold",
      "outputs": [],
      "stateMutability": "nonpayable",
      "type": "function"
    },
    {
      "inputs": [
        {
          "internalType": "uint256",
          "name": "_houseBankrollShare",
          "type": "uint256"
        },
        {
          "internalType": "uint256",
          "name": "_profitShare",
          "type": "uint256"
        },
        {
          "internalType": "uint256",
          "name": "_lotteryShare",
          "type": "uint256"
        },
        {
          "internalType": "uint256",
          "name": "_reserveShare",
          "type": "uint256"
        }
      ],
      "name": "setShares",
      "outputs": [],
      "stateMutability": "nonpayable",
      "type": "function"
    },
    {
      "inputs": [
        {
          "internalType": "address",
          "name": "_reserve",
          "type": "address"
        }
      ],
      "name": "setReserveAddress",
      "outputs": [],
      "stateMutability": "nonpayable",
      "type": "function"
    },
    {
      "inputs": [
        {
          "internalType": "address",
          "name": "_lottery",
          "type": "address"
        }
      ],
      "name": "setLotteryAddress",
      "outputs": [],
      "stateMutability": "nonpayable",
      "type": "function"
    },
    {
      "inputs": [
        {
          "internalType": "address",
          "name": "_admin",
          "type": "address"
        }
      ],
      "name": "setAdmin",
      "outputs": [],
      "stateMutability": "nonpayable",
      "type": "function"
    }
  ],
  "bytecode": "0x60c060405234801561001057600080fd5b50604051612345380380612345833981810160405261012081101561003457600080fd5b508051602082015160408301516060840151608085015160a086015160c087015160e08801516101009098015196979596949593949293919290919060006100836001600160e01b0361013e16565b600080546001600160a01b0319166001600160a01b0383169081178255604051929350917f8be0079c531659141344cd1fd0a4f28419497f9722a3daafe3b4186f6b6457e0908290a3506001600160601b03196060998a1b81166080529790981b90961660a052600480546001600160a01b039687166001600160a01b0319918216179091556005805495871695821695909517909455600792909255600855600955600a92909255600f8054919093169116179055610142565b3390565b60805160601c60a05160601c6121586101ed600039806104f2528061064452806106a252806107b652806107e35280610a3e5280610cfd5280610df15280610fe652806113a3528061140152806115155280611542525080610668528061073c528061079352806108895280610b425280610ba85280610bf55280610cdb5280610ea152806112c552806113c7528061149b52806114f252806115e85280611a7752506121586000f3fe608060405234801561001057600080fd5b50600436106102265760003560e01c8063860015191161012a578063c2e50b16116100bd578063f03b6ffc1161008c578063f2fde38b11610071578063f2fde38b146104ba578063f846a885146104e0578063f974821a146104e857610226565b8063f03b6ffc14610465578063f19e207e1461049457610226565b8063c2e50b1614610430578063cd3293de1461044d578063e3fd80dd14610455578063e7cb3d671461045d57610226565b8063b359a9f9116100f9578063b359a9f914610410578063b4055d1514610418578063b72481f814610420578063ba13a5721461042857610226565b806386001519146103d25780638da5cb5b146103da5780638e4a6142146103e257806394f3f81d146103ea57610226565b80633e1f55e4116101bd57806359c53fd41161018c578063704b6c0211610171578063704b6c021461039c578063715018a6146103c25780637d903ecc146103ca57610226565b806359c53fd41461035357806361433d881461037057610226565b80633e1f55e41461031557806345c9c1d11461031d5780634a5db3b5146103255780634e584e111461034b57610226565b806328821182116101f957806328821182146102b05780632a332b2a146102cd5780632feda8d4146102f35780633410fe6e1461030d57610226565b80630c56ae3b1461022b57806314673d311461024f578063151fac7b14610277578063203c27a614610294575b600080fd5b6102336104f0565b604080516001600160a01b039092168252519081900360200190f35b6102756004803603602081101561026557600080fd5b50356001600160a01b0316610514565b005b6102756004803603602081101561028d57600080fd5b50356105ad565b61029c6108d1565b604080519115158252519081900360200190f35b610275600480360360208110156102c657600080fd5b50356108da565b610275600480360360208110156102e357600080fd5b50356001600160a01b0316610986565b6102fb610a1f565b60408051918252519081900360200190f35b6102fb610a25565b6102fb610a2b565b6102fb610a31565b6102756004803603602081101561033b57600080fd5b50356001600160a01b0316610d52565b6102fb610de0565b6102756004803603602081101561036957600080fd5b5035610de6565b6102756004803603604081101561038657600080fd5b50803590602001356001600160a01b0316610f04565b610275600480360360208110156103b257600080fd5b50356001600160a01b03166110bd565b610275611156565b6102fb611217565b6102fb61121d565b610233611223565b6102fb611232565b6102756004803603602081101561040057600080fd5b50356001600160a01b0316611238565b6102336112c3565b6102fb6112e7565b6102fb6112ed565b6102336112f3565b6102756004803603602081101561044657600080fd5b5035611302565b610233611636565b6102fb611645565b6102fb61164b565b6102756004803603608081101561047b57600080fd5b5080359060208101359060408101359060600135611651565b61029c600480360360208110156104aa57600080fd5b50356001600160a01b0316611780565b610275600480360360208110156104d057600080fd5b50356001600160a01b0316611795565b6102fb611808565b6102fb61180d565b7f000000000000000000000000000000000000000000000000000000000000000081565b61051c611813565b6000546001600160a01b0390811691161461057e576040805162461bcd60e51b815260206004820181905260248201527f4f776e61626c653a2063616c6c6572206973206e6f7420746865206f776e6572604482015290519081900360640190fd5b6004805473ffffffffffffffffffffffffffffffffffffffff19166001600160a01b0392909216919091179055565b600f546001600160a01b0316331461060c576040805162461bcd60e51b815260206004820152601f60248201527f416363657373207265737472696374656420746f2061646d696e206f6e6c7900604482015290519081900360640190fd5b60025460ff1615156001141561087c57600354811061078657600061063c6003548361181790919063ffffffff16565b90506106a0337f00000000000000000000000000000000000000000000000000000000000000006003547f00000000000000000000000000000000000000000000000000000000000000006001600160a01b0316611862909392919063ffffffff16565b7f00000000000000000000000000000000000000000000000000000000000000006001600160a01b031663e39faaa46003546040518263ffffffff1660e01b815260040180828152602001915050600060405180830381600087803b15801561070857600080fd5b505af115801561071c573d6000803e3d6000fd5b5050600060035550506002805460ff1916905561076a6001600160a01b037f00000000000000000000000000000000000000000000000000000000000000001633308463ffffffff61186216565b60015461077d908263ffffffff6118f016565b60015550610877565b6107e16001600160a01b037f000000000000000000000000000000000000000000000000000000000000000016337f00000000000000000000000000000000000000000000000000000000000000008463ffffffff61186216565b7f00000000000000000000000000000000000000000000000000000000000000006001600160a01b031663e39faaa4826040518263ffffffff1660e01b815260040180828152602001915050600060405180830381600087803b15801561084757600080fd5b505af115801561085b573d6000803e3d6000fd5b5050600354610873925090508263ffffffff61181716565b6003555b6108ce565b6108b76001600160a01b037f00000000000000000000000000000000000000000000000000000000000000001633308463ffffffff61186216565b6001546108ca908263ffffffff6118f016565b6001555b50565b60025460ff1681565b600f546001600160a01b03163314610939576040805162461bcd60e51b815260206004820152601f60248201527f416363657373207265737472696374656420746f2061646d696e206f6e6c7900604482015290519081900360640190fd5b69152d02c7e14af680000081106109815760405162461bcd60e51b81526004018080602001828103825260348152602001806120ef6034913960400191505060405180910390fd5b600655565b61098e611813565b6000546001600160a01b039081169116146109f0576040805162461bcd60e51b815260206004820181905260248201527f4f776e61626c653a2063616c6c6572206973206e6f7420746865206f776e6572604482015290519081900360640190fd5b6005805473ffffffffffffffffffffffffffffffffffffffff19166001600160a01b0392909216919091179055565b60085481565b61271081565b60075481565b6000336001600160a01b037f00000000000000000000000000000000000000000000000000000000000000001614610ab0576040805162461bcd60e51b815260206004820152601b60248201527f43616c6c6572206d757374206265207374616b696e6720706f6f6c0000000000604482015290519081900360640190fd5b600654600b5410610d4b5760075460009015610b07576000610af1612710610ae5600754600b5461194a90919063ffffffff16565b9063ffffffff6119a316565b9050610b03828263ffffffff6118f016565b9150505b600a5415610b6d576000610b2e612710610ae5600a54600b5461194a90919063ffffffff16565b600454909150610b6b906001600160a01b037f000000000000000000000000000000000000000000000000000000000000000081169116836119e5565b505b60095415610bd3576000610b94612710610ae5600954600b5461194a90919063ffffffff16565b600554909150610bd1906001600160a01b037f000000000000000000000000000000000000000000000000000000000000000081169116836119e5565b505b6000610bf1612710610ae56064600b5461194a90919063ffffffff16565b90507f00000000000000000000000000000000000000000000000000000000000000006001600160a01b03166342966c68826040518263ffffffff1660e01b815260040180828152602001915050600060405180830381600087803b158015610c5957600080fd5b505af1158015610c6d573d6000803e3d6000fd5b5050505060006008541115610cb6576000610c9b612710610ae5600854600b5461194a90919063ffffffff16565b600b54909150610cb1908263ffffffff61181716565b600b55505b600b54600154610ccb9163ffffffff61181716565b600155610d286001600160a01b037f0000000000000000000000000000000000000000000000000000000000000000167f00000000000000000000000000000000000000000000000000000000000000008463ffffffff6119e516565b600e54610d3b908363ffffffff6118f016565b600e55506000600b559050610d4f565b5060005b90565b610d5a611813565b6000546001600160a01b03908116911614610dbc576040805162461bcd60e51b815260206004820181905260248201527f4f776e61626c653a2063616c6c6572206973206e6f7420746865206f776e6572604482015290519081900360640190fd5b6001600160a01b03166000908152601060205260409020805460ff19166001179055565b60095481565b336001600160a01b037f00000000000000000000000000000000000000000000000000000000000000001614610e63576040805162461bcd60e51b815260206004820152601b60248201527f43616c6c6572206d757374206265207374616b696e6720706f6f6c0000000000604482015290519081900360640190fd5b6003548110610eeb576000610e836003548361181790919063ffffffff16565b60006003556002805460ff191690559050610ecf6001600160a01b037f00000000000000000000000000000000000000000000000000000000000000001633308463ffffffff61186216565b600154610ee2908263ffffffff6118f016565b600155506108ce565b600354610efe908263ffffffff61181716565b60035550565b3360009081526010602052604090205460ff161515600114610f6d576040805162461bcd60e51b815260206004820152601960248201527f43616c6c6572206d75737420626520617574686f72697a656400000000000000604482015290519081900360640190fd5b600154821115611079576000610f8e6001548461181790919063ffffffff16565b6002805460ff19166001179055604080517f8f44ebfc000000000000000000000000000000000000000000000000000000008152600481018390526001600160a01b03858116602483015233604483015291519293507f00000000000000000000000000000000000000000000000000000000000000009190911691638f44ebfc9160648082019260009290919082900301818387803b15801561103157600080fd5b505af1158015611045573d6000803e3d6000fd5b505060035461105d925090508263ffffffff6118f016565b60035560015461106e908333611a6a565b50600060015561109a565b60015461108c908363ffffffff61181716565b60015561109a828233611a6a565b6110a382611b2d565b600d546110b6908363ffffffff6118f016565b600d555050565b6110c5611813565b6000546001600160a01b03908116911614611127576040805162461bcd60e51b815260206004820181905260248201527f4f776e61626c653a2063616c6c6572206973206e6f7420746865206f776e6572604482015290519081900360640190fd5b600f805473ffffffffffffffffffffffffffffffffffffffff19166001600160a01b0392909216919091179055565b61115e611813565b6000546001600160a01b039081169116146111c0576040805162461bcd60e51b815260206004820181905260248201527f4f776e61626c653a2063616c6c6572206973206e6f7420746865206f776e6572604482015290519081900360640190fd5b600080546040516001600160a01b03909116907f8be0079c531659141344cd1fd0a4f28419497f9722a3daafe3b4186f6b6457e0908390a36000805473ffffffffffffffffffffffffffffffffffffffff19169055565b600b5481565b600e5481565b6000546001600160a01b031690565b600c5481565b611240611813565b6000546001600160a01b039081169116146112a2576040805162461bcd60e51b815260206004820181905260248201527f4f776e61626c653a2063616c6c6572206973206e6f7420746865206f776e6572604482015290519081900360640190fd5b6001600160a01b03166000908152601060205260409020805460ff19169055565b7f000000000000000000000000000000000000000000000000000000000000000081565b60015481565b600d5481565b6005546001600160a01b031681565b3360009081526010602052604090205460ff16151560011461136b576040805162461bcd60e51b815260206004820152601960248201527f43616c6c6572206d75737420626520617574686f72697a656400000000000000604482015290519081900360640190fd5b60025460ff161515600114156115db5760035481106114e557600061139b6003548361181790919063ffffffff16565b90506113ff337f00000000000000000000000000000000000000000000000000000000000000006003547f00000000000000000000000000000000000000000000000000000000000000006001600160a01b0316611862909392919063ffffffff16565b7f00000000000000000000000000000000000000000000000000000000000000006001600160a01b031663e39faaa46003546040518263ffffffff1660e01b815260040180828152602001915050600060405180830381600087803b15801561146757600080fd5b505af115801561147b573d6000803e3d6000fd5b5050600060035550506002805460ff191690556114c96001600160a01b037f00000000000000000000000000000000000000000000000000000000000000001633308463ffffffff61186216565b6001546114dc908263ffffffff6118f016565b600155506115d6565b6115406001600160a01b037f000000000000000000000000000000000000000000000000000000000000000016337f00000000000000000000000000000000000000000000000000000000000000008463ffffffff61186216565b7f00000000000000000000000000000000000000000000000000000000000000006001600160a01b031663e39faaa4826040518263ffffffff1660e01b815260040180828152602001915050600060405180830381600087803b1580156115a657600080fd5b505af11580156115ba573d6000803e3d6000fd5b50506003546115d2925090508263ffffffff61181716565b6003555b61162d565b6116166001600160a01b037f00000000000000000000000000000000000000000000000000000000000000001633308463ffffffff61186216565b600154611629908263ffffffff6118f016565b6001555b6108ce81611bae565b6004546001600160a01b031681565b60035481565b600a5481565b611659611813565b6000546001600160a01b039081169116146116bb576040805162461bcd60e51b815260206004820181905260248201527f4f776e61626c653a2063616c6c6572206973206e6f7420746865206f776e6572604482015290519081900360640190fd5b6127106116e360646116d7848187818b8b63ffffffff6118f016565b9063ffffffff6118f016565b1461171f5760405162461bcd60e51b81526004018080602001828103825260278152602001806120a76027913960400191505060405180910390fd5b600884905560078390556009829055600a81905560408051858152602081018590528082018490526060810183905290517f1ab182163a0683cd3182c000705483ef0ccdc375a845ab7b68678f89d90de4d79181900360800190a150505050565b60106020526000908152604090205460ff1681565b61179d611813565b6000546001600160a01b039081169116146117ff576040805162461bcd60e51b815260206004820181905260248201527f4f776e61626c653a2063616c6c6572206973206e6f7420746865206f776e6572604482015290519081900360640190fd5b6108ce81611c21565b606481565b60065481565b3390565b600061185983836040518060400160405280601e81526020017f536166654d6174683a207375627472616374696f6e206f766572666c6f770000815250611cce565b90505b92915050565b604080516001600160a01b0380861660248301528416604482015260648082018490528251808303909101815260849091019091526020810180517bffffffffffffffffffffffffffffffffffffffffffffffffffffffff167f23b872dd000000000000000000000000000000000000000000000000000000001790526118ea908590611d65565b50505050565b600082820183811015611859576040805162461bcd60e51b815260206004820152601b60248201527f536166654d6174683a206164646974696f6e206f766572666c6f770000000000604482015290519081900360640190fd5b6000826119595750600061185c565b8282028284828161196657fe5b04146118595760405162461bcd60e51b81526004018080602001828103825260218152602001806120ce6021913960400191505060405180910390fd5b600061185983836040518060400160405280601a81526020017f536166654d6174683a206469766973696f6e206279207a65726f000000000000815250611e16565b604080516001600160a01b038416602482015260448082018490528251808303909101815260649091019091526020810180517bffffffffffffffffffffffffffffffffffffffffffffffffffffffff167fa9059cbb00000000000000000000000000000000000000000000000000000000179052611a65908490611d65565b505050565b611aa46001600160a01b037f000000000000000000000000000000000000000000000000000000000000000016828563ffffffff6119e516565b604080517ff62cf8d0000000000000000000000000000000000000000000000000000000008152600481018590526001600160a01b0384811660248301529151839283169163f62cf8d091604480830192600092919082900301818387803b158015611b0f57600080fd5b505af1158015611b23573d6000803e3d6000fd5b5050505050505050565b600c5415611b5057600c54611b48908263ffffffff6118f016565b600c556108ce565b600b54811115611b95576000611b71600b548361181790919063ffffffff16565b6000600b55600c54909150611b8c908263ffffffff6118f016565b600c55506108ce565b600b54611ba8908263ffffffff61181716565b600b5550565b600c5415611c0e57600c54811115611bfb576000611bd7600c548361181790919063ffffffff16565b6000600c55600b54909150611bf2908263ffffffff6118f016565b600b5550610877565b600c54611b48908263ffffffff61181716565b600b54611ba8908263ffffffff6118f016565b6001600160a01b038116611c665760405162461bcd60e51b81526004018080602001828103825260268152602001806120816026913960400191505060405180910390fd5b600080546040516001600160a01b03808516939216917f8be0079c531659141344cd1fd0a4f28419497f9722a3daafe3b4186f6b6457e091a36000805473ffffffffffffffffffffffffffffffffffffffff19166001600160a01b0392909216919091179055565b60008184841115611d5d5760405162461bcd60e51b81526004018080602001828103825283818151815260200191508051906020019080838360005b83811015611d22578181015183820152602001611d0a565b50505050905090810190601f168015611d4f5780820380516001836020036101000a031916815260200191505b509250505060405180910390fd5b505050900390565b6060611dba826040518060400160405280602081526020017f5361666542455032303a206c6f772d6c6576656c2063616c6c206661696c6564815250856001600160a01b0316611e7b9092919063ffffffff16565b805190915015611a6557808060200190516020811015611dd957600080fd5b5051611a655760405162461bcd60e51b815260040180806020018281038252602a815260200180612057602a913960400191505060405180910390fd5b60008183611e655760405162461bcd60e51b8152602060048201818152835160248401528351909283926044909101919085019080838360008315611d22578181015183820152602001611d0a565b506000838581611e7157fe5b0495945050505050565b6060611e8a8484600085611e92565b949350505050565b6060611e9d8561201d565b611eee576040805162461bcd60e51b815260206004820152601d60248201527f416464726573733a2063616c6c20746f206e6f6e2d636f6e7472616374000000604482015290519081900360640190fd5b60006060866001600160a01b031685876040518082805190602001908083835b60208310611f4b57805182527fffffffffffffffffffffffffffffffffffffffffffffffffffffffffffffffe09092019160209182019101611f0e565b6001836020036101000a03801982511681845116808217855250505050505090500191505060006040518083038185875af1925050503d8060008114611fad576040519150601f19603f3d011682016040523d82523d6000602084013e611fb2565b606091505b50915091508115611fc6579150611e8a9050565b805115611fd65780518082602001fd5b60405162461bcd60e51b8152602060048201818152865160248401528651879391928392604401919085019080838360008315611d22578181015183820152602001611d0a565b6000813f7fc5d2460186f7233c927e7db2dcc703c0e500b653ca82273b7bfad8045d85a470818114801590611e8a57505015159291505056fe5361666542455032303a204245503230206f7065726174696f6e20646964206e6f7420737563636565644f776e61626c653a206e6577206f776e657220697320746865207a65726f206164647265737353756d206f6620616c6c207368617265732073686f756c642061646420757020746f2031303025536166654d6174683a206d756c7469706c69636174696f6e206f766572666c6f774d61782070726f666974207468726573686f6c642063616e742062652067726561746572207468616e203130306b204372757368a264697066735822122098d8924b30e4cac672b3d9b9ab643c7258a715c67ecd26735631dee26b0b813864736f6c63430006050033",
  "immutableReferences": {
    "1568": [
      {
        "length": 32,
        "start": 1640
      },
      {
        "length": 32,
        "start": 1852
      },
      {
        "length": 32,
        "start": 1939
      },
      {
        "length": 32,
        "start": 2185
      },
      {
        "length": 32,
        "start": 2882
      },
      {
        "length": 32,
        "start": 2984
      },
      {
        "length": 32,
        "start": 3061
      },
      {
        "length": 32,
        "start": 3291
      },
      {
        "length": 32,
        "start": 3745
      },
      {
        "length": 32,
        "start": 4805
      },
      {
        "length": 32,
        "start": 5063
      },
      {
        "length": 32,
        "start": 5275
      },
      {
        "length": 32,
        "start": 5362
      },
      {
        "length": 32,
        "start": 5608
      },
      {
        "length": 32,
        "start": 6775
      }
    ],
    "1570": [
      {
        "length": 32,
        "start": 1266
      },
      {
        "length": 32,
        "start": 1604
      },
      {
        "length": 32,
        "start": 1698
      },
      {
        "length": 32,
        "start": 1974
      },
      {
        "length": 32,
        "start": 2019
      },
      {
        "length": 32,
        "start": 2622
      },
      {
        "length": 32,
        "start": 3325
      },
      {
        "length": 32,
        "start": 3569
      },
      {
        "length": 32,
        "start": 4070
      },
      {
        "length": 32,
        "start": 5027
      },
      {
        "length": 32,
        "start": 5121
      },
      {
        "length": 32,
        "start": 5397
      },
      {
        "length": 32,
        "start": 5442
      }
    ]
  },
  "source": "//SPDX-License-Identifier: MIT\npragma solidity >=0.6.5;\nimport \"@pancakeswap/pancake-swap-lib/contracts/access/Ownable.sol\";\nimport \"./CrushCoin.sol\";\nimport \"@pancakeswap/pancake-swap-lib/contracts/math/SafeMath.sol\";\nimport \"@pancakeswap/pancake-swap-lib/contracts/token/BEP20/SafeBEP20.sol\";\nimport \"./staking.sol\";\nimport \"./HouseBankroll.sol\";\nimport \"./LiveWallet.sol\";\ncontract BitcrushBankroll is Ownable {\n    \n    using SafeMath for uint256;\n    using SafeBEP20 for CRUSHToken;\n    uint256 public totalBankroll;\n    bool public poolDepleted;\n    uint256 public negativeBankroll;\n    //address of the crush token\n    CRUSHToken public immutable crush;\n    BitcrushStaking public immutable stakingPool;\n    \n    address public reserve;\n    address public lottery;\n    \n    uint256 public constant DIVISOR = 10000;\n    uint256 public constant BURN_RATE = 100;\n    uint256 public profitThreshold ;\n    \n    //consistent 1% burn\n    uint256 public profitShare;\n    uint256 public houseBankrollShare;\n    uint256 public lotteryShare;\n    uint256 public reserveShare;\n    \n    //profit tracking\n    uint256 public brSinceCompound;\n    uint256 public negativeBrSinceCompound;\n\n    //tracking historical winnings and profits\n    uint256 public totalWinnings;\n    uint256 public totalProfit;\n\n    address admin;\n    // MODIFIERS\n    modifier adminOnly {\n        require(  msg.sender == address(admin), 'Access restricted to admin only');\n        _;\n    }\n\n    //authorized addresses\n    mapping (address => bool) public authorizedAddresses;\n    event SharesUpdated (uint256  _houseBankrollShare, uint256  _profitShare, uint256  _lotteryShare,  uint256  _reserveShare);\n    constructor(\n        CRUSHToken _crush,\n        BitcrushStaking _stakingPool,\n        address _reserve,\n        address _lottery,\n        uint256 _profitShare,\n        uint256 _houseBankrollShare,\n        uint256 _lotteryShare,\n        uint256 _reserveShare,\n        address _admin\n    ) public {\n        crush = _crush;\n        stakingPool = _stakingPool;\n        reserve = _reserve;\n        lottery = _lottery;\n        profitShare = _profitShare;\n        houseBankrollShare = _houseBankrollShare;\n        lotteryShare = _lotteryShare;\n        reserveShare = _reserveShare;\n        admin = _admin;\n    }\n\n    \n    /// authorize address to register wins and losses\n    /// @param _address the address to be authorized\n    /// @dev updates the authorizedAddresses mapping to true for given address\n    function authorizeAddress (address _address) public onlyOwner {\n        authorizedAddresses[_address] = true;\n    }\n\n    /// remove authorization of an address from register wins and losses\n    /// @param _address the address to be removed\n    /// @dev updates the authorizedAddresses mapping by deleting entry for given address\n    function removeAuthorization (address _address) public onlyOwner {\n        delete authorizedAddresses[_address];\n    }\n    \n    /// Add funds to the bankroll\n    /// @param _amount the amount to add\n    /// @dev adds funds to the bankroll\n    function addToBankroll(uint256 _amount) public adminOnly {\n\n        \n        if (poolDepleted == true) {\n            if (_amount >= negativeBankroll) {\n                uint256 remainder = _amount.sub(negativeBankroll);\n                crush.safeTransferFrom(\n                    msg.sender,\n                    address(stakingPool),\n                    negativeBankroll\n                );\n                stakingPool.unfreezeStaking(negativeBankroll);\n                negativeBankroll = 0;\n                poolDepleted = false;\n                crush.safeTransferFrom(msg.sender, address(this), remainder);\n                totalBankroll = totalBankroll.add(remainder);\n                \n            } else {\n                crush.safeTransferFrom(msg.sender, address(stakingPool), _amount);\n                stakingPool.unfreezeStaking(_amount);\n                negativeBankroll = negativeBankroll.sub(_amount);\n            }\n        } else {\n            crush.safeTransferFrom(msg.sender, address(this), _amount);\n            totalBankroll = totalBankroll.add(_amount);\n            \n        }\n\n\n\n\n        \n    }\n\n    /// Add users loss to the bankroll\n    /// @param _amount the amount to add\n    /// @dev adds funds to the bankroll if bankroll is in positive, otherwise its transfered to the staking pool to recover frozen funds\n    function addUserLoss(uint256 _amount) public {\n        require(\n            authorizedAddresses[msg.sender] == true,\n            \"Caller must be authorized\"\n        );\n        //make game specific\n        //check if bankroll is in negative\n        //uint is unsigned, keep a bool to track\n        //if negative send to staking to replenish\n        //otherwise add to bankroll and check for profit\n        if (poolDepleted == true) {\n            if (_amount >= negativeBankroll) {\n                uint256 remainder = _amount.sub(negativeBankroll);\n                crush.safeTransferFrom(\n                    msg.sender,\n                    address(stakingPool),\n                    negativeBankroll\n                );\n                stakingPool.unfreezeStaking(negativeBankroll);\n                negativeBankroll = 0;\n                poolDepleted = false;\n                crush.safeTransferFrom(msg.sender, address(this), remainder);\n                totalBankroll = totalBankroll.add(remainder);\n                \n            } else {\n                crush.safeTransferFrom(msg.sender, address(stakingPool), _amount);\n                stakingPool.unfreezeStaking(_amount);\n                negativeBankroll = negativeBankroll.sub(_amount);\n            }\n        } else {\n            crush.safeTransferFrom(msg.sender, address(this), _amount);\n            totalBankroll = totalBankroll.add(_amount);\n            \n        }\n        addToBrSinceCompound(_amount);\n    }\n\n\n    function recoverBankroll (uint256 _amount) public {\n        require(\n            msg.sender == address(stakingPool),\n            \"Caller must be staking pool\"\n        );\n        if (_amount >= negativeBankroll) {\n                uint256 remainder = _amount.sub(negativeBankroll);\n                negativeBankroll = 0;\n                poolDepleted = false;\n                crush.safeTransferFrom(msg.sender, address(this), remainder);\n                totalBankroll = totalBankroll.add(remainder);\n                \n            } else {\n                \n                negativeBankroll = negativeBankroll.sub(_amount);\n            }\n    }\n\n\n    /// Deduct users win from the bankroll\n    /// @param _amount the amount to deduct\n    /// @dev deducts funds from the bankroll if bankroll is in positive, otherwise theyre pulled from staking pool and bankroll marked as negative\n    function payOutUserWinning(\n        uint256 _amount,\n        address _winner\n    ) public {\n        require(\n            authorizedAddresses[msg.sender] == true,\n            \"Caller must be authorized\"\n        );\n        \n        \n        //check if bankroll has funds available\n        //if not dip into staking pool for any remainder\n        // update bankroll accordingly\n        if (_amount > totalBankroll) {\n            uint256 remainder = _amount.sub(totalBankroll);\n            poolDepleted = true;\n            stakingPool.freezeStaking(remainder, _winner, msg.sender);\n            negativeBankroll = negativeBankroll.add(remainder);\n            transferWinnings(totalBankroll, _winner, msg.sender);\n\n            totalBankroll = 0;\n        } else {\n            totalBankroll = totalBankroll.sub(_amount);\n            transferWinnings(_amount, _winner, msg.sender);\n        }\n        removeFromBrSinceCompound(_amount);\n        totalWinnings = totalWinnings.add(_amount);\n    }\n\n    /// transfer winnings from bankroll contract to live wallet\n    /// @param _amount the amount to tranfer\n    /// @param _winner the winners address\n    /// @dev transfers funds from the bankroll to the live wallet as users winnings\n    function transferWinnings(\n        uint256 _amount,\n        address _winner,\n        address _lwAddress\n    ) internal {\n        crush.safeTransfer(_lwAddress, _amount);\n        BitcrushLiveWallet currentLw = BitcrushLiveWallet( _lwAddress);\n        currentLw.addToUserWinnings(_amount, _winner);\n    }\n\n    /// track funds added since last compound and profit transfer\n    /// @param _amount the amount to add\n    /// @dev add funds to the variable brSinceCompound\n    function addToBrSinceCompound (uint256 _amount) internal{\n        if(negativeBrSinceCompound > 0){\n            if(_amount > negativeBrSinceCompound){\n                uint256 difference = _amount.sub(negativeBrSinceCompound);\n                negativeBrSinceCompound = 0;\n                brSinceCompound = brSinceCompound.add(difference);\n            }else {\n                negativeBrSinceCompound = negativeBrSinceCompound.sub(_amount);\n            }\n        }else {\n            brSinceCompound = brSinceCompound.add(_amount);\n        }\n    }\n\n    /// track funds remvoed since last compound and profit transfer\n    /// @param _amount the amount to remove\n    /// @dev deduct funds to the variable brSinceCompound\n    function removeFromBrSinceCompound (uint256 _amount) internal{\n        if(negativeBrSinceCompound > 0 ){\n            negativeBrSinceCompound = negativeBrSinceCompound.add(_amount);\n            \n        }else {\n            if(_amount > brSinceCompound){\n                uint256 difference = _amount.sub(brSinceCompound);\n                brSinceCompound = 0;\n                negativeBrSinceCompound = negativeBrSinceCompound.add(difference);\n            }else {\n                brSinceCompound = brSinceCompound.sub(_amount);\n            }\n        }\n    }\n\n    /// transfer profits to staking pool to be ditributed to stakers.\n    /// @dev transfer profits since last compound to the staking pool while taking out necessary fees.\n    function transferProfit() public returns (uint256) {\n        require(\n            msg.sender == address(stakingPool),\n            \"Caller must be staking pool\"\n        );\n        if (brSinceCompound >= profitThreshold) {\n\n            //-----\n            uint256 profit = 0;\n            if(profitShare > 0 ){\n                uint256 stakingBankrollProfit = brSinceCompound.mul(profitShare).div(DIVISOR);\n                profit = profit.add(stakingBankrollProfit);\n            }\n            if(reserveShare > 0 ){\n                uint256 reserveCrush = brSinceCompound.mul(reserveShare).div(DIVISOR);\n                crush.safeTransfer(reserve, reserveCrush);\n            }\n            if(lotteryShare > 0){\n                uint256 lotteryCrush = brSinceCompound.mul(lotteryShare).div(DIVISOR);\n                crush.safeTransfer(lottery, lotteryCrush);\n            }\n            \n            uint256 burn = brSinceCompound.mul(BURN_RATE).div(DIVISOR);\n            crush.burn(burn); \n\n            if(houseBankrollShare > 0){\n                uint256 bankrollShare = brSinceCompound.mul(houseBankrollShare).div(DIVISOR);\n                brSinceCompound = brSinceCompound.sub(bankrollShare);\n            }\n\n            totalBankroll = totalBankroll.sub(brSinceCompound);\n            //-----\n            crush.safeTransfer(address(stakingPool), profit);\n            totalProfit= totalProfit.add(profit);\n            brSinceCompound = 0;\n            return profit;\n        } else {\n            return 0;\n        }\n    }\n\n    /// Store `_threshold`.\n    /// @param _threshold the new value to store\n    /// @dev stores the _threshold address in the state variable `profitThreshold`\n    function setProfitThreshold(uint256 _threshold) public adminOnly {\n        require(_threshold < 100000000000000000000000, \"Max profit threshold cant be greater than 100k Crush\");\n        profitThreshold = _threshold;\n    }\n\n    /// updates all share percentage values\n    /// @param _houseBankrollShare the new value to store\n    /// @param _profitShare the new value to store\n    /// @param _lotteryShare the new value to store\n    /// @param _reserveShare the new value to store\n    /// @dev stores the _houseBankrollShare address in the state variable `houseBankrollShare`\n    function setShares (uint256 _houseBankrollShare, uint256 _profitShare, uint256 _lotteryShare,  uint256 _reserveShare) public onlyOwner {\n        require(\n            _houseBankrollShare\n            .add(_profitShare)\n            .add(_lotteryShare)\n            .add(_reserveShare)\n            .add(BURN_RATE) == DIVISOR,\n            \"Sum of all shares should add up to 100%\"\n            );\n        houseBankrollShare = _houseBankrollShare;   \n        profitShare = _profitShare;\n        lotteryShare = _lotteryShare;\n        reserveShare = _reserveShare;\n        emit SharesUpdated(_houseBankrollShare, _profitShare, _lotteryShare,  _reserveShare);\n    }\n\n\n    ///store new address in reserve address\n    /// @param _reserve the new address to store\n    /// @dev changes the address which recieves reserve fees\n    function setReserveAddress (address _reserve ) public onlyOwner {\n        reserve = _reserve;\n    }\n    \n\n    ///store new address in lottery address\n    /// @param _lottery the new address to store\n    /// @dev changes the address which recieves lottery fees\n    function setLotteryAddress (address _lottery) public onlyOwner {\n        lottery = _lottery;\n    }\n    \n    ///store new address in admin address\n    /// @param _admin the new address to store\n    /// @dev changes the address which is used by the adminOnly modifier\n    function setAdmin (address _admin) public onlyOwner {\n        admin = _admin;\n    }\n   \n\n}\n",
  "sourcePath": "/Users/umeralisajid/Documents/Frag/bitcrush/crush_contacts_old/contracts/HouseBankroll.sol",
  "compiler": {
    "name": "solc",
    "version": "0.6.5+commit.f956cc89.Emscripten.clang"
  },
  "schemaVersion": "3.4.4",
  "updatedAt": "2022-02-04T08:36:16.168Z",
  "networkType": "ethereum",
  "devdoc": {
    "methods": {
      "addToBankroll(uint256)": {
        "details": "adds funds to the bankroll",
        "params": {
          "_amount": "the amount to add"
        }
      },
      "addUserLoss(uint256)": {
        "details": "adds funds to the bankroll if bankroll is in positive, otherwise its transfered to the staking pool to recover frozen funds",
        "params": {
          "_amount": "the amount to add"
        }
      },
      "authorizeAddress(address)": {
        "details": "updates the authorizedAddresses mapping to true for given address",
        "params": {
          "_address": "the address to be authorized"
        }
      },
      "owner()": {
        "details": "Returns the address of the current owner."
      },
      "payOutUserWinning(uint256,address)": {
        "details": "deducts funds from the bankroll if bankroll is in positive, otherwise theyre pulled from staking pool and bankroll marked as negative",
        "params": {
          "_amount": "the amount to deduct"
        }
      },
      "removeAuthorization(address)": {
        "details": "updates the authorizedAddresses mapping by deleting entry for given address",
        "params": {
          "_address": "the address to be removed"
        }
      },
      "renounceOwnership()": {
        "details": "Leaves the contract without owner. It will not be possible to call `onlyOwner` functions anymore. Can only be called by the current owner.     * NOTE: Renouncing ownership will leave the contract without an owner, thereby removing any functionality that is only available to the owner."
      },
      "setAdmin(address)": {
        "details": "changes the address which is used by the adminOnly modifier",
        "params": {
          "_admin": "the new address to store"
        }
      },
      "setLotteryAddress(address)": {
        "details": "changes the address which recieves lottery fees",
        "params": {
          "_lottery": "the new address to store"
        }
      },
      "setProfitThreshold(uint256)": {
        "details": "stores the _threshold address in the state variable `profitThreshold`",
        "params": {
          "_threshold": "the new value to store"
        }
      },
      "setReserveAddress(address)": {
        "details": "changes the address which recieves reserve fees",
        "params": {
          "_reserve": "the new address to store"
        }
      },
      "setShares(uint256,uint256,uint256,uint256)": {
        "details": "stores the _houseBankrollShare address in the state variable `houseBankrollShare`",
        "params": {
          "_houseBankrollShare": "the new value to store",
          "_lotteryShare": "the new value to store",
          "_profitShare": "the new value to store",
          "_reserveShare": "the new value to store"
        }
      },
      "transferOwnership(address)": {
        "details": "Transfers ownership of the contract to a new account (`newOwner`). Can only be called by the current owner."
      },
      "transferProfit()": {
        "details": "transfer profits since last compound to the staking pool while taking out necessary fees."
      }
    }
  },
  "userdoc": {
    "methods": {
      "addToBankroll(uint256)": {
        "notice": "Add funds to the bankroll"
      },
      "addUserLoss(uint256)": {
        "notice": "Add users loss to the bankroll"
      },
      "authorizeAddress(address)": {
        "notice": "authorize address to register wins and losses"
      },
      "payOutUserWinning(uint256,address)": {
        "notice": "Deduct users win from the bankroll"
      },
      "removeAuthorization(address)": {
        "notice": "remove authorization of an address from register wins and losses"
      },
      "setAdmin(address)": {
        "notice": "store new address in admin address"
      },
      "setLotteryAddress(address)": {
        "notice": "store new address in lottery address"
      },
      "setProfitThreshold(uint256)": {
        "notice": "Store `_threshold`."
      },
      "setReserveAddress(address)": {
        "notice": "store new address in reserve address"
      },
      "setShares(uint256,uint256,uint256,uint256)": {
        "notice": "updates all share percentage values"
      },
      "transferProfit()": {
        "notice": "transfer profits to staking pool to be ditributed to stakers."
      }
    }
  }
}