{
  "contractName": "BitcrushStaking",
  "abi": [
    {
      "inputs": [
        {
          "internalType": "contract CRUSHToken",
          "name": "_crush",
          "type": "address"
        },
        {
          "internalType": "uint256",
          "name": "_crushPerBlock",
          "type": "uint256"
        },
        {
          "internalType": "address",
          "name": "_reserveAddress",
          "type": "address"
        }
      ],
      "stateMutability": "nonpayable",
      "type": "constructor"
    },
    {
      "anonymous": false,
      "inputs": [
        {
          "indexed": true,
          "internalType": "address",
          "name": "previousOwner",
          "type": "address"
        },
        {
          "indexed": true,
          "internalType": "address",
          "name": "newOwner",
          "type": "address"
        }
      ],
      "name": "OwnershipTransferred",
      "type": "event"
    },
    {
      "anonymous": false,
      "inputs": [
        {
          "indexed": true,
          "internalType": "uint256",
          "name": "_totalPool",
          "type": "uint256"
        }
      ],
      "name": "RewardPoolUpdated",
      "type": "event"
    },
    {
      "anonymous": false,
      "inputs": [
        {
          "indexed": true,
          "internalType": "address",
          "name": "recipeint",
          "type": "address"
        },
        {
          "indexed": true,
          "internalType": "uint256",
          "name": "_amount",
          "type": "uint256"
        }
      ],
      "name": "StakeUpdated",
      "type": "event"
    },
    {
      "inputs": [],
      "name": "MAX_CRUSH_PER_BLOCK",
      "outputs": [
        {
          "internalType": "uint256",
          "name": "",
          "type": "uint256"
        }
      ],
      "stateMutability": "view",
      "type": "function",
      "constant": true
    },
    {
      "inputs": [],
      "name": "MAX_FEE",
      "outputs": [
        {
          "internalType": "uint256",
          "name": "",
          "type": "uint256"
        }
      ],
      "stateMutability": "view",
      "type": "function",
      "constant": true
    },
    {
      "inputs": [],
      "name": "accProfitPerShare",
      "outputs": [
        {
          "internalType": "uint256",
          "name": "",
          "type": "uint256"
        }
      ],
      "stateMutability": "view",
      "type": "function",
      "constant": true
    },
    {
      "inputs": [],
      "name": "accRewardPerShare",
      "outputs": [
        {
          "internalType": "uint256",
          "name": "",
          "type": "uint256"
        }
      ],
      "stateMutability": "view",
      "type": "function",
      "constant": true
    },
    {
      "inputs": [
        {
          "internalType": "uint256",
          "name": "",
          "type": "uint256"
        }
      ],
      "name": "addressIndexes",
      "outputs": [
        {
          "internalType": "address",
          "name": "",
          "type": "address"
        }
      ],
      "stateMutability": "view",
      "type": "function",
      "constant": true
    },
    {
      "inputs": [],
      "name": "apyBoost",
      "outputs": [
        {
          "internalType": "uint256",
          "name": "",
          "type": "uint256"
        }
      ],
      "stateMutability": "view",
      "type": "function",
      "constant": true
    },
    {
      "inputs": [],
      "name": "autoCompoundLimit",
      "outputs": [
        {
          "internalType": "uint256",
          "name": "",
          "type": "uint256"
        }
      ],
      "stateMutability": "view",
      "type": "function",
      "constant": true
    },
    {
      "inputs": [],
      "name": "bankroll",
      "outputs": [
        {
          "internalType": "contract BitcrushBankroll",
          "name": "",
          "type": "address"
        }
      ],
      "stateMutability": "view",
      "type": "function",
      "constant": true
    },
    {
      "inputs": [],
      "name": "batchStartingIndex",
      "outputs": [
        {
          "internalType": "uint256",
          "name": "",
          "type": "uint256"
        }
      ],
      "stateMutability": "view",
      "type": "function",
      "constant": true
    },
    {
      "inputs": [],
      "name": "blockPerSecond",
      "outputs": [
        {
          "internalType": "uint256",
          "name": "",
          "type": "uint256"
        }
      ],
      "stateMutability": "view",
      "type": "function",
      "constant": true
    },
    {
      "inputs": [],
      "name": "crush",
      "outputs": [
        {
          "internalType": "contract CRUSHToken",
          "name": "",
          "type": "address"
        }
      ],
      "stateMutability": "view",
      "type": "function",
      "constant": true
    },
    {
      "inputs": [],
      "name": "crushPerBlock",
      "outputs": [
        {
          "internalType": "uint256",
          "name": "",
          "type": "uint256"
        }
      ],
      "stateMutability": "view",
      "type": "function",
      "constant": true
    },
    {
      "inputs": [],
      "name": "deploymentTimeStamp",
      "outputs": [
        {
          "internalType": "uint256",
          "name": "",
          "type": "uint256"
        }
      ],
      "stateMutability": "view",
      "type": "function",
      "constant": true
    },
    {
      "inputs": [],
      "name": "divisor",
      "outputs": [
        {
          "internalType": "uint256",
          "name": "",
          "type": "uint256"
        }
      ],
      "stateMutability": "view",
      "type": "function",
      "constant": true
    },
    {
      "inputs": [],
      "name": "earlyWithdrawFee",
      "outputs": [
        {
          "internalType": "uint256",
          "name": "",
          "type": "uint256"
        }
      ],
      "stateMutability": "view",
      "type": "function",
      "constant": true
    },
    {
      "inputs": [],
      "name": "earlyWithdrawFeeTime",
      "outputs": [
        {
          "internalType": "uint256",
          "name": "",
          "type": "uint256"
        }
      ],
      "stateMutability": "view",
      "type": "function",
      "constant": true
    },
    {
      "inputs": [],
      "name": "frozenEarlyWithdrawFee",
      "outputs": [
        {
          "internalType": "uint256",
          "name": "",
          "type": "uint256"
        }
      ],
      "stateMutability": "view",
      "type": "function",
      "constant": true
    },
    {
      "inputs": [],
      "name": "frozenEarlyWithdrawFeeTime",
      "outputs": [
        {
          "internalType": "uint256",
          "name": "",
          "type": "uint256"
        }
      ],
      "stateMutability": "view",
      "type": "function",
      "constant": true
    },
    {
      "inputs": [],
      "name": "lastAutoCompoundBlock",
      "outputs": [
        {
          "internalType": "uint256",
          "name": "",
          "type": "uint256"
        }
      ],
      "stateMutability": "view",
      "type": "function",
      "constant": true
    },
    {
      "inputs": [],
      "name": "lastRewardBlock",
      "outputs": [
        {
          "internalType": "uint256",
          "name": "",
          "type": "uint256"
        }
      ],
      "stateMutability": "view",
      "type": "function",
      "constant": true
    },
    {
      "inputs": [],
      "name": "liveWallet",
      "outputs": [
        {
          "internalType": "contract BitcrushLiveWallet",
          "name": "",
          "type": "address"
        }
      ],
      "stateMutability": "view",
      "type": "function",
      "constant": true
    },
    {
      "inputs": [],
      "name": "owner",
      "outputs": [
        {
          "internalType": "address",
          "name": "",
          "type": "address"
        }
      ],
      "stateMutability": "view",
      "type": "function",
      "constant": true
    },
    {
      "inputs": [],
      "name": "performanceFeeBurn",
      "outputs": [
        {
          "internalType": "uint256",
          "name": "",
          "type": "uint256"
        }
      ],
      "stateMutability": "view",
      "type": "function",
      "constant": true
    },
    {
      "inputs": [],
      "name": "performanceFeeCompounder",
      "outputs": [
        {
          "internalType": "uint256",
          "name": "",
          "type": "uint256"
        }
      ],
      "stateMutability": "view",
      "type": "function",
      "constant": true
    },
    {
      "inputs": [],
      "name": "performanceFeeReserve",
      "outputs": [
        {
          "internalType": "uint256",
          "name": "",
          "type": "uint256"
        }
      ],
      "stateMutability": "view",
      "type": "function",
      "constant": true
    },
    {
      "inputs": [],
      "name": "renounceOwnership",
      "outputs": [],
      "stateMutability": "nonpayable",
      "type": "function"
    },
    {
      "inputs": [],
      "name": "reserveAddress",
      "outputs": [
        {
          "internalType": "address",
          "name": "",
          "type": "address"
        }
      ],
      "stateMutability": "view",
      "type": "function",
      "constant": true
    },
    {
      "inputs": [
        {
          "internalType": "address",
          "name": "",
          "type": "address"
        }
      ],
      "name": "stakings",
      "outputs": [
        {
          "internalType": "uint256",
          "name": "shares",
          "type": "uint256"
        },
        {
          "internalType": "uint256",
          "name": "stakedAmount",
          "type": "uint256"
        },
        {
          "internalType": "uint256",
          "name": "claimedAmount",
          "type": "uint256"
        },
        {
          "internalType": "uint256",
          "name": "lastBlockCompounded",
          "type": "uint256"
        },
        {
          "internalType": "uint256",
          "name": "lastBlockStaked",
          "type": "uint256"
        },
        {
          "internalType": "uint256",
          "name": "index",
          "type": "uint256"
        },
        {
          "internalType": "uint256",
          "name": "lastFrozenWithdraw",
          "type": "uint256"
        },
        {
          "internalType": "uint256",
          "name": "apyBaseline",
          "type": "uint256"
        },
        {
          "internalType": "uint256",
          "name": "profitBaseline",
          "type": "uint256"
        }
      ],
      "stateMutability": "view",
      "type": "function",
      "constant": true
    },
    {
      "inputs": [],
      "name": "totalClaimed",
      "outputs": [
        {
          "internalType": "uint256",
          "name": "",
          "type": "uint256"
        }
      ],
      "stateMutability": "view",
      "type": "function",
      "constant": true
    },
    {
      "inputs": [],
      "name": "totalFrozen",
      "outputs": [
        {
          "internalType": "uint256",
          "name": "",
          "type": "uint256"
        }
      ],
      "stateMutability": "view",
      "type": "function",
      "constant": true
    },
    {
      "inputs": [],
      "name": "totalPool",
      "outputs": [
        {
          "internalType": "uint256",
          "name": "",
          "type": "uint256"
        }
      ],
      "stateMutability": "view",
      "type": "function",
      "constant": true
    },
    {
      "inputs": [],
      "name": "totalProfitDistributed",
      "outputs": [
        {
          "internalType": "uint256",
          "name": "",
          "type": "uint256"
        }
      ],
      "stateMutability": "view",
      "type": "function",
      "constant": true
    },
    {
      "inputs": [],
      "name": "totalProfitsClaimed",
      "outputs": [
        {
          "internalType": "uint256",
          "name": "",
          "type": "uint256"
        }
      ],
      "stateMutability": "view",
      "type": "function",
      "constant": true
    },
    {
      "inputs": [],
      "name": "totalShares",
      "outputs": [
        {
          "internalType": "uint256",
          "name": "",
          "type": "uint256"
        }
      ],
      "stateMutability": "view",
      "type": "function",
      "constant": true
    },
    {
      "inputs": [],
      "name": "totalStaked",
      "outputs": [
        {
          "internalType": "uint256",
          "name": "",
          "type": "uint256"
        }
      ],
      "stateMutability": "view",
      "type": "function",
      "constant": true
    },
    {
      "inputs": [
        {
          "internalType": "address",
          "name": "newOwner",
          "type": "address"
        }
      ],
      "name": "transferOwnership",
      "outputs": [],
      "stateMutability": "nonpayable",
      "type": "function"
    },
    {
      "inputs": [
        {
          "internalType": "contract BitcrushBankroll",
          "name": "_bankroll",
          "type": "address"
        }
      ],
      "name": "setBankroll",
      "outputs": [],
      "stateMutability": "nonpayable",
      "type": "function"
    },
    {
      "inputs": [
        {
          "internalType": "contract BitcrushLiveWallet",
          "name": "_liveWallet",
          "type": "address"
        }
      ],
      "name": "setLiveWallet",
      "outputs": [],
      "stateMutability": "nonpayable",
      "type": "function"
    },
    {
      "inputs": [
        {
          "internalType": "uint256",
          "name": "_amount",
          "type": "uint256"
        }
      ],
      "name": "addRewardToPool",
      "outputs": [],
      "stateMutability": "nonpayable",
      "type": "function"
    },
    {
      "inputs": [],
      "name": "updateDistribution",
      "outputs": [],
      "stateMutability": "nonpayable",
      "type": "function"
    },
    {
      "inputs": [],
      "name": "updateProfits",
      "outputs": [],
      "stateMutability": "nonpayable",
      "type": "function"
    },
    {
      "inputs": [
        {
          "internalType": "uint256",
          "name": "_amount",
          "type": "uint256"
        }
      ],
      "name": "setCrushPerBlock",
      "outputs": [],
      "stateMutability": "nonpayable",
      "type": "function"
    },
    {
      "inputs": [
        {
          "internalType": "uint256",
          "name": "_amount",
          "type": "uint256"
        }
      ],
      "name": "enterStaking",
      "outputs": [],
      "stateMutability": "nonpayable",
      "type": "function"
    },
    {
      "inputs": [
        {
          "internalType": "uint256",
          "name": "_amount",
          "type": "uint256"
        },
        {
          "internalType": "bool",
          "name": "_liveWallet",
          "type": "bool"
        }
      ],
      "name": "leaveStaking",
      "outputs": [],
      "stateMutability": "nonpayable",
      "type": "function"
    },
    {
      "inputs": [
        {
          "internalType": "address",
          "name": "_address",
          "type": "address"
        }
      ],
      "name": "pendingReward",
      "outputs": [
        {
          "internalType": "uint256",
          "name": "",
          "type": "uint256"
        }
      ],
      "stateMutability": "view",
      "type": "function",
      "constant": true
    },
    {
      "inputs": [
        {
          "internalType": "address",
          "name": "_address",
          "type": "address"
        }
      ],
      "name": "pendingProfits",
      "outputs": [
        {
          "internalType": "uint256",
          "name": "",
          "type": "uint256"
        }
      ],
      "stateMutability": "view",
      "type": "function",
      "constant": true
    },
    {
      "inputs": [],
      "name": "compoundAll",
      "outputs": [],
      "stateMutability": "nonpayable",
      "type": "function"
    },
    {
      "inputs": [
        {
          "internalType": "uint256",
          "name": "_amount",
          "type": "uint256"
        },
        {
          "internalType": "address",
          "name": "_recipient",
          "type": "address"
        },
        {
          "internalType": "address",
          "name": "_lwAddress",
          "type": "address"
        }
      ],
      "name": "freezeStaking",
      "outputs": [],
      "stateMutability": "nonpayable",
      "type": "function"
    },
    {
      "inputs": [
        {
          "internalType": "uint256",
          "name": "_amount",
          "type": "uint256"
        }
      ],
      "name": "unfreezeStaking",
      "outputs": [],
      "stateMutability": "nonpayable",
      "type": "function"
    },
    {
      "inputs": [],
      "name": "indexesLength",
      "outputs": [
        {
          "internalType": "uint256",
          "name": "_addressesLength",
          "type": "uint256"
        }
      ],
      "stateMutability": "view",
      "type": "function",
      "constant": true
    },
    {
      "inputs": [
        {
          "internalType": "uint256",
          "name": "_fee",
          "type": "uint256"
        }
      ],
      "name": "setPerformanceFeeCompounder",
      "outputs": [],
      "stateMutability": "nonpayable",
      "type": "function"
    },
    {
      "inputs": [
        {
          "internalType": "uint256",
          "name": "_fee",
          "type": "uint256"
        }
      ],
      "name": "setPerformanceFeeBurn",
      "outputs": [],
      "stateMutability": "nonpayable",
      "type": "function"
    },
    {
      "inputs": [
        {
          "internalType": "uint256",
          "name": "_fee",
          "type": "uint256"
        }
      ],
      "name": "setEarlyWithdrawFee",
      "outputs": [],
      "stateMutability": "nonpayable",
      "type": "function"
    },
    {
      "inputs": [
        {
          "internalType": "uint256",
          "name": "_fee",
          "type": "uint256"
        }
      ],
      "name": "setPerformanceFeeReserve",
      "outputs": [],
      "stateMutability": "nonpayable",
      "type": "function"
    },
    {
      "inputs": [
        {
          "internalType": "uint256",
          "name": "_time",
          "type": "uint256"
        }
      ],
      "name": "setEarlyWithdrawFeeTime",
      "outputs": [],
      "stateMutability": "nonpayable",
      "type": "function"
    },
    {
      "inputs": [
        {
          "internalType": "uint256",
          "name": "_limit",
          "type": "uint256"
        }
      ],
      "name": "setAutoCompoundLimit",
      "outputs": [],
      "stateMutability": "nonpayable",
      "type": "function"
    },
    {
      "inputs": [],
      "name": "emergencyWithdraw",
      "outputs": [],
      "stateMutability": "nonpayable",
      "type": "function"
    }
  ],
  "bytecode": "0x60a0604052600a600155606460025560326003556105dc60045560be600555612a3060065560036007556007546203f480816200003857fe5b046008556109c4600955674c53ecdc18a60000601255600a601c553480156200006057600080fd5b5060405162003a5738038062003a57833981810160405260608110156200008657600080fd5b50805160208201516040909201519091906000620000ac6001600160e01b036200014e16565b600080546001600160a01b0319166001600160a01b0383169081178255604051929350917f8be0079c531659141344cd1fd0a4f28419497f9722a3daafe3b4186f6b6457e0908290a3506001600160601b0319606084901b16608052678ac7230489e8000082116200011e5760128290555b600d80546001600160a01b0319166001600160a01b0392909216919091179055505042601d554360145562000152565b3390565b60805160601c613892620001c56000398061099a5280610a6d5280610b0b5280610c2d5280610d89528061125152806113cf528061140c528061146a5280611d14528061217552806121e1528061222152806124e25280612a5d5280612b075280612b975280612bcf52506138926000f3fe608060405234801561001057600080fd5b50600436106103835760003560e01c8063817b1cd2116101de578063bde8a93e1161010f578063e39faaa4116100ad578063f2fde38b1161007c578063f2fde38b1461074f578063f40f0f5214610775578063f79ed94b1461079b578063fa2b8a5d146107a357610383565b8063e39faaa41461071a578063e3aeeb4614610737578063ecb1c9241461073f578063ecfb49a31461074757610383565b8063c61f1c0b116100e9578063c61f1c0b14610695578063d54ad2a11461069d578063db2e21bc146106a5578063dc6e13e1146106ad57610383565b8063bde8a93e14610635578063c22982f41461065b578063c53f871f1461067857610383565b8063a80a78821161017c578063b249e88e11610156578063b249e88e14610615578063b359a9f91461061d578063bc063e1a14610625578063bca5503d1461062d57610383565b8063a80a7882146105fd578063a9f8d18114610605578063aa8badc11461060d57610383565b8063939d6237116101b8578063939d6237146105aa5780639b05ddb3146105b25780639e13900c146105ba578063a775573a146105e057610383565b8063817b1cd2146105665780638da5cb5b1461056e5780638f44ebfc1461057657610383565b806349535ef5116102b8578063668579c9116102565780636e74d2e2116102305780636e74d2e21461051c5780636f90e04614610524578063715018a61461054157806376e9e6c01461054957610383565b8063668579c9146105045780636874d6201461050c5780636903d0b61461051457610383565b806351496bbd1161029257806351496bbd146104ba5780635832d571146104c257806364a9c480146104df5780636535fc66146104e757610383565b806349535ef5146104a25780634b37f006146104aa5780634bf211b8146104b257610383565b80632e0ae2f2116103255780633a53ed49116102ff5780633a53ed491461043b5780633a98ef391461045857806341441d3b14610460578063445e76881461047d57610383565b80632e0ae2f21461040557806338ed019a1461040d57806339cc13781461041557610383565b80631f2dc5ef116103615780631f2dc5ef146103ce5780632533830a146103d657806326cba336146103de578063289bac07146103fd57610383565b80630a3960bc146103885780630c657eb0146103a25780631e7f87bc146103c6575b600080fd5b6103906107ab565b60408051918252519081900360200190f35b6103aa6107b1565b604080516001600160a01b039092168252519081900360200190f35b6103906107c0565b6103906107c6565b6103906107cc565b6103fb600480360360208110156103f457600080fd5b50356107d2565b005b6103906108ec565b6103906108f2565b6103906108f8565b6103906004803603602081101561042b57600080fd5b50356001600160a01b03166108fe565b6103fb6004803603602081101561045157600080fd5b503561095f565b610390610aca565b6103fb6004803603602081101561047657600080fd5b5035610ad0565b6103fb6004803603604081101561049357600080fd5b50803590602001351515610ee9565b6103906116b6565b6103906116bc565b6103906116c2565b6103fb6116c8565b6103aa600480360360208110156104d857600080fd5b50356117bf565b6103906117e6565b6103fb600480360360208110156104fd57600080fd5b50356117ec565b610390611907565b61039061190d565b610390611913565b610390611919565b6103fb6004803603602081101561053a57600080fd5b503561191f565b6103fb6119e3565b6103fb6004803603602081101561055f57600080fd5b5035611aa4565b610390611ba7565b6103aa611bad565b6103fb6004803603606081101561058c57600080fd5b508035906001600160a01b0360208201358116916040013516611bbc565b610390611d59565b6103fb611d5f565b6103fb600480360360208110156105d057600080fd5b50356001600160a01b0316612252565b6103fb600480360360208110156105f657600080fd5b5035612349565b6103906123ff565b610390612405565b6103fb61240b565b6103906124da565b6103aa6124e0565b610390612504565b61039061250a565b6103fb6004803603602081101561064b57600080fd5b50356001600160a01b0316612510565b6103fb6004803603602081101561067157600080fd5b5035612607565b6103fb6004803603602081101561068e57600080fd5b5035612721565b61039061283b565b610390612841565b6103fb612847565b6106d3600480360360208110156106c357600080fd5b50356001600160a01b0316612d18565b60408051998a5260208a0198909852888801969096526060880194909452608087019290925260a086015260c085015260e084015261010083015251908190036101200190f35b6103fb6004803603602081101561073057600080fd5b5035612d66565b6103aa612e2f565b610390612e3e565b610390612e44565b6103fb6004803603602081101561076557600080fd5b50356001600160a01b0316612e4a565b6103906004803603602081101561078b57600080fd5b50356001600160a01b0316612ebd565b6103aa612fb1565b610390612fc0565b60055481565b600b546001600160a01b031681565b60195481565b61271081565b601b5481565b6107da612fcc565b6000546001600160a01b0390811691161461083c576040805162461bcd60e51b815260206004820181905260248201527f4f776e61626c653a2063616c6c6572206973206e6f7420746865206f776e6572604482015290519081900360640190fd5b60008111610891576040805162461bcd60e51b815260206004820152601a60248201527f466565206d7573742062652067726561746572207468616e2030000000000000604482015290519081900360640190fd5b6103e881106108e7576040805162461bcd60e51b815260206004820152601960248201527f466565206d757374206265206c657373207468616e2031302500000000000000604482015290519081900360640190fd5b600155565b600f5490565b60045481565b60115481565b6001600160a01b0381166000908152600e6020526040812060088101546015548254610958929161094c9164e8d4a5100091610940919063ffffffff612fd016565b9063ffffffff61303216565b9063ffffffff61307416565b9392505050565b604080517f70a08231000000000000000000000000000000000000000000000000000000008152336004820152905182916001600160a01b037f000000000000000000000000000000000000000000000000000000000000000016916370a0823191602480820192602092909190829003018186803b1580156109e157600080fd5b505afa1580156109f5573d6000803e3d6000fd5b505050506040513d6020811015610a0b57600080fd5b50511015610a4a5760405162461bcd60e51b81526004018080602001828103825260268152602001806137fa6026913960400191505060405180910390fd5b601654610a5d908263ffffffff6130b616565b601655610a9b6001600160a01b037f00000000000000000000000000000000000000000000000000000000000000001633308463ffffffff61311016565b6016546040517f1ef37ab665f7c977b577275d7a49e72cd18d1143eccd1112f1198e4a39d1428c90600090a250565b600a5481565b604080517f70a08231000000000000000000000000000000000000000000000000000000008152336004820152905182916001600160a01b037f000000000000000000000000000000000000000000000000000000000000000016916370a0823191602480820192602092909190829003018186803b158015610b5257600080fd5b505afa158015610b66573d6000803e3d6000fd5b505050506040513d6020811015610b7c57600080fd5b50511015610bbb5760405162461bcd60e51b81526004018080602001828103825260268152602001806137fa6026913960400191505060405180910390fd5b60008111610c10576040805162461bcd60e51b815260206004820152601660248201527f496e76616c6964207374616b696e6720616d6f756e7400000000000000000000604482015290519081900360640190fd5b610c1861240b565b610c206116c8565b610c5b6001600160a01b037f00000000000000000000000000000000000000000000000000000000000000001633308463ffffffff61311016565b601754610c6757436010555b336000908152600e602052604090206001810154610ce257436003820155600f805460018101825560008290527f8d1108e10bcb7c27dddfc02ed9d693a074039d026cf4ea4240b40f7d581ac80201805473ffffffffffffffffffffffffffffffffffffffff19163317905554600019016005820155610e00565b6000610d0e826007015461094c64e8d4a510006109406013548760000154612fd090919063ffffffff16565b9050601654811115610d1f57506016545b601654610d32908263ffffffff61307416565b60165560088201546015548354600092610d6292909161094c9164e8d4a51000916109409163ffffffff612fd016565b9050610d74828263ffffffff6130b616565b91508115610dfd57610db66001600160a01b037f000000000000000000000000000000000000000000000000000000000000000016338463ffffffff61319816565b6002830154610dcb908363ffffffff6130b616565b6002840155601854610de3908363ffffffff6130b616565b601855601a54610df9908263ffffffff6130b616565b601a555b50505b600a5460009015610e2d57610e26601754610940600a5486612fd090919063ffffffff16565b9050610e30565b50815b601754610e43908463ffffffff6130b616565b601755600a54610e59908263ffffffff6130b616565b600a558154610e69574360038301555b8154610e7b908263ffffffff6130b616565b808355601554610e9b9164e8d4a51000916109409163ffffffff612fd016565b60088301558154601354610ebf9164e8d4a51000916109409163ffffffff612fd016565b60078301556001820154610ed9908463ffffffff6130b616565b6001830155504360049091015550565b610ef161240b565b610ef96116c8565b336000908152600e6020526040812060078101546013548254929392610f35929161094c9164e8d4a5100091610940919063ffffffff612fd016565b90506000610f63836008015461094c64e8d4a510006109406015548860000154612fd090919063ffffffff16565b9050601654821115610f755760165491505b601654610f88908363ffffffff61307416565b601655610f9b828263ffffffff6130b616565b601a54909250610fb1908263ffffffff6130b616565b601a5543600384015560018301546019541561103c57610ff6610fe96017546109408760010154601954612fd090919063ffffffff16565b829063ffffffff61307416565b9050858110156110375760405162461bcd60e51b81526004018080602001828103825260368152602001806137706036913960400191505060405180910390fd5b61104e565b60068401541561104e57600060068501555b8581101561108d5760405162461bcd60e51b815260040180806020018281038252603f81526020018061368f603f913960400191505060405180910390fd5b6017546110a0908763ffffffff61307416565b601755600184015484546000916110c291610940908a9063ffffffff612fd016565b60018601549091506110da908863ffffffff61307416565b600186015584546110f1908263ffffffff61307416565b8555600a54611106908263ffffffff61307416565b600a5560135485546111289164e8d4a51000916109409163ffffffff612fd016565b6007860155601554855461114c9164e8d4a51000916109409163ffffffff612fd016565b6008860155611161878563ffffffff6130b616565b6019549097501561136e576006850154156111ca57600680549086015461118d9163ffffffff6130b616565b42116111ca5760405162461bcd60e51b81526004018080602001828103825260338152602001806137c76033913960400191505060405180910390fd5b60006111e76127106109406004548b612fd090919063ffffffff16565b42600688015590506111ff888263ffffffff61307416565b97506019548111156112d35760006112226019548361307490919063ffffffff16565b600b546040805163095ea7b360e01b81526001600160a01b0392831660048201526024810184905290519293507f00000000000000000000000000000000000000000000000000000000000000009091169163095ea7b3916044808201926020929091908290030181600087803b15801561129c57600080fd5b505af11580156112b0573d6000803e3d6000fd5b505050506040513d60208110156112c657600080fd5b50506000601955506112ea565b6019546112e6908263ffffffff61307416565b6019555b600b54604080517f59c53fd40000000000000000000000000000000000000000000000000000000081526004810184905290516001600160a01b03909216916359c53fd49160248082019260009290919082900301818387803b15801561135057600080fd5b505af1158015611364573d6000803e3d6000fd5b50505050506113fa565b60085460048601546113859163ffffffff6130b616565b4310156113fa5760006113a96127106109406003548b612fd090919063ffffffff16565b90506113bb888263ffffffff61307416565b600d549098506113f8906001600160a01b037f00000000000000000000000000000000000000000000000000000000000000008116911683613198565b505b8561143e576114396001600160a01b037f000000000000000000000000000000000000000000000000000000000000000016338963ffffffff61319816565b611566565b600c546040805163095ea7b360e01b81526001600160a01b039283166004820152602481018a905290517f00000000000000000000000000000000000000000000000000000000000000009092169163095ea7b3916044808201926020929091908290030181600087803b1580156114b557600080fd5b505af11580156114c9573d6000803e3d6000fd5b505050506040513d60208110156114df57600080fd5b5050600c54604080517f7efd3813000000000000000000000000000000000000000000000000000000008152600481018a905233602482015290516001600160a01b0390921691637efd38139160448082019260009290919082900301818387803b15801561154d57600080fd5b505af1158015611561573d6000803e3d6000fd5b505050505b600285015461157b908563ffffffff6130b616565b6002860155601854611593908563ffffffff6130b616565b601855600185015461168157600f5460058601546000199091011461164657600f80546000919060001981019081106115c857fe5b9060005260206000200160009054906101000a90046001600160a01b0316905080600f8760050154815481106115fa57fe5b6000918252602080832091909101805473ffffffffffffffffffffffffffffffffffffffff19166001600160a01b03948516179055600589810154949093168252600e90526040902001555b600f80548061165157fe5b6000828152602090208101600019908101805473ffffffffffffffffffffffffffffffffffffffff191690550190555b6016546040517f1ef37ab665f7c977b577275d7a49e72cd18d1143eccd1112f1198e4a39d1428c90600090a250505050505050565b60095481565b60075481565b60105481565b600a546116d4576117bd565b600b54604080517f45c9c1d100000000000000000000000000000000000000000000000000000000815290516000926001600160a01b0316916345c9c1d191600480830192602092919082900301818787803b15801561173357600080fd5b505af1158015611747573d6000803e3d6000fd5b505050506040513d602081101561175d57600080fd5b505190508061176c57506117bd565b601b5461177f908263ffffffff6130b616565b601b55600a546000906117a1906109408464e8d4a5100063ffffffff612fd016565b6015549091506117b7908263ffffffff6130b616565b60155550505b565b600f81815481106117cc57fe5b6000918252602090912001546001600160a01b0316905081565b601a5481565b6117f4612fcc565b6000546001600160a01b03908116911614611856576040805162461bcd60e51b815260206004820181905260248201527f4f776e61626c653a2063616c6c6572206973206e6f7420746865206f776e6572604482015290519081900360640190fd5b600081116118ab576040805162461bcd60e51b815260206004820152601a60248201527f466565206d7573742062652067726561746572207468616e2030000000000000604482015290519081900360640190fd5b6103e8811115611902576040805162461bcd60e51b815260206004820152601960248201527f466565206d757374206265206c657373207468616e2031302500000000000000604482015290519081900360640190fd5b600555565b601d5481565b60065481565b60085481565b60025481565b611927612fcc565b6000546001600160a01b03908116911614611989576040805162461bcd60e51b815260206004820181905260248201527f4f776e61626c653a2063616c6c6572206973206e6f7420746865206f776e6572604482015290519081900360640190fd5b600081116119de576040805162461bcd60e51b815260206004820152601b60248201527f54696d65206d7573742062652067726561746572207468616e20300000000000604482015290519081900360640190fd5b600855565b6119eb612fcc565b6000546001600160a01b03908116911614611a4d576040805162461bcd60e51b815260206004820181905260248201527f4f776e61626c653a2063616c6c6572206973206e6f7420746865206f776e6572604482015290519081900360640190fd5b600080546040516001600160a01b03909116907f8be0079c531659141344cd1fd0a4f28419497f9722a3daafe3b4186f6b6457e0908390a36000805473ffffffffffffffffffffffffffffffffffffffff19169055565b611aac612fcc565b6000546001600160a01b03908116911614611b0e576040805162461bcd60e51b815260206004820181905260248201527f4f776e61626c653a2063616c6c6572206973206e6f7420746865206f776e6572604482015290519081900360640190fd5b60008111611b63576040805162461bcd60e51b815260206004820152601260248201527f4c696d69742063616e206e6f7420626520300000000000000000000000000000604482015290519081900360640190fd5b601e8110611ba25760405162461bcd60e51b815260040180806020018281038252602b815260200180613745602b913960400191505060405180910390fd5b601c55565b60175481565b6000546001600160a01b031690565b600b546001600160a01b03163314611c1b576040805162461bcd60e51b815260206004820152601760248201527f43616c6c6574206d7573742062652062616e6b726f6c6c000000000000000000604482015290519081900360640190fd5b601954601754611c309163ffffffff61307416565b831115611c6e5760405162461bcd60e51b815260040180806020018281038252603d815260200180613820603d913960400191505060405180910390fd5b601954611c81908463ffffffff6130b616565b601955604080517ff62cf8d0000000000000000000000000000000000000000000000000000000008152600481018590526001600160a01b0384811660248301529151839283169163f62cf8d091604480830192600092919082900301818387803b158015611cef57600080fd5b505af1158015611d03573d6000803e3d6000fd5b50611d439250506001600160a01b037f0000000000000000000000000000000000000000000000000000000000000000169050838663ffffffff61319816565b611d4b61240b565b611d536116c8565b50505050565b60135481565b436010541115611db6576040805162461bcd60e51b815260206004820181905260248201527f436f6d706f756e6420416c6c206e6f7420796574206170706c696361626c652e604482015290519081900360640190fd5b600060175411611e0d576040805162461bcd60e51b815260206004820152601a60248201527f4e6f205374616b6564207265776172647320746f20636c61696d000000000000604482015290519081900360640190fd5b601154600f546000918291829182918110611e26575060005b600f54601c5481111580611e4f5750600f54601c54611e4c90849063ffffffff6130b616565b10155b15611e5d5750600f54611e74565b601c54611e7190839063ffffffff6130b616565b90505b611e7c6116c8565b611e8461240b565b815b8181101561210c576000600e6000600f8481548110611ea157fe5b60009182526020808320909101546001600160a01b03168352820192909252604001812060078101546013548254929450611ef09261094c9164e8d4a51000916109409163ffffffff612fd016565b9050611f02868263ffffffff6130b616565b6016541015611f2157601654611f1e908763ffffffff61307416565b90505b6007820154611f36908263ffffffff6130b616565b60078301558015611f5457611f51868263ffffffff6130b616565b95505b6000611f80836008015461094c64e8d4a510006109406015548860000154612fd090919063ffffffff16565b6008840154909150611f98908263ffffffff6130b616565b6008840155611fad828263ffffffff6130b616565b915081156120fb57601a54611fc8908263ffffffff6130b616565b601a55601854611fde908363ffffffff6130b616565b601855600254600090612000906127109061094090869063ffffffff612fd016565b90506120128b8263ffffffff6130b616565b9a50600061203161271061094060015487612fd090919063ffffffff16565b90506120438a8263ffffffff6130b616565b9950600061206261271061094060055488612fd090919063ffffffff16565b90506120748c8263ffffffff6130b616565b9b50612086858463ffffffff61307416565b9450612098858363ffffffff61307416565b94506120aa858263ffffffff61307416565b60028701549095506120c2908663ffffffff6130b616565b600287015560018601546120dc908663ffffffff6130b616565b60018701556017546120f4908663ffffffff6130b616565b6017555050505b505043600390910155600101611e86565b506011819055600f5481106121215760006011555b601654612134908463ffffffff61307416565b60165543601055604080517f42966c680000000000000000000000000000000000000000000000000000000081526004810188905290516001600160a01b037f000000000000000000000000000000000000000000000000000000000000000016916342966c6891602480830192600092919082900301818387803b1580156121bc57600080fd5b505af11580156121d0573d6000803e3d6000fd5b506122109250506001600160a01b037f0000000000000000000000000000000000000000000000000000000000000000169050338663ffffffff61319816565b600d5461224a906001600160a01b037f00000000000000000000000000000000000000000000000000000000000000008116911687613198565b505050505050565b61225a612fcc565b6000546001600160a01b039081169116146122bc576040805162461bcd60e51b815260206004820181905260248201527f4f776e61626c653a2063616c6c6572206973206e6f7420746865206f776e6572604482015290519081900360640190fd5b600c546001600160a01b03161561231a576040805162461bcd60e51b815260206004820152601f60248201527f4c6976652057616c6c6574206164647265737320616c72656164792073657400604482015290519081900360640190fd5b600c805473ffffffffffffffffffffffffffffffffffffffff19166001600160a01b0392909216919091179055565b612351612fcc565b6000546001600160a01b039081169116146123b3576040805162461bcd60e51b815260206004820181905260248201527f4f776e61626c653a2063616c6c6572206973206e6f7420746865206f776e6572604482015290519081900360640190fd5b678ac7230489e800008111156123fa5760405162461bcd60e51b815260040180806020018281038252602781526020018061371e6027913960400191505060405180910390fd5b601255565b60035481565b60145481565b6014544311612419576117bd565b60175461242957436014556117bd565b6012546019541561246457612461612454612710610940600954601254612fd090919063ffffffff16565b829063ffffffff6130b616565b90505b60165461246f575060005b60006124866014544361307490919063ffffffff16565b905060006124b8600a5461094064e8d4a510006124ac8787612fd090919063ffffffff16565b9063ffffffff612fd016565b6013549091506124ce908263ffffffff6130b616565b60135550504360145550565b60155481565b7f000000000000000000000000000000000000000000000000000000000000000081565b6103e881565b60015481565b612518612fcc565b6000546001600160a01b0390811691161461257a576040805162461bcd60e51b815260206004820181905260248201527f4f776e61626c653a2063616c6c6572206973206e6f7420746865206f776e6572604482015290519081900360640190fd5b600b546001600160a01b0316156125d8576040805162461bcd60e51b815260206004820152601c60248201527f42616e6b726f6c6c206164647265737320616c72656164792073657400000000604482015290519081900360640190fd5b600b805473ffffffffffffffffffffffffffffffffffffffff19166001600160a01b0392909216919091179055565b61260f612fcc565b6000546001600160a01b03908116911614612671576040805162461bcd60e51b815260206004820181905260248201527f4f776e61626c653a2063616c6c6572206973206e6f7420746865206f776e6572604482015290519081900360640190fd5b600081116126c6576040805162461bcd60e51b815260206004820152601a60248201527f466565206d7573742062652067726561746572207468616e2030000000000000604482015290519081900360640190fd5b6103e8811061271c576040805162461bcd60e51b815260206004820152601960248201527f466565206d757374206265206c657373207468616e2031302500000000000000604482015290519081900360640190fd5b600355565b612729612fcc565b6000546001600160a01b0390811691161461278b576040805162461bcd60e51b815260206004820181905260248201527f4f776e61626c653a2063616c6c6572206973206e6f7420746865206f776e6572604482015290519081900360640190fd5b600081116127e0576040805162461bcd60e51b815260206004820152601a60248201527f466565206d7573742062652067726561746572207468616e2030000000000000604482015290519081900360640190fd5b6103e88110612836576040805162461bcd60e51b815260206004820152601960248201527f466565206d757374206265206c657373207468616e2031302500000000000000604482015290519081900360640190fd5b600255565b60125481565b60185481565b61284f61240b565b336000908152600e6020526040902043600382015560018101546019541561289a57612893610fe96017546109408560010154601954612fd090919063ffffffff16565b90506128ac565b6006820154156128ac57600060068301555b6017546128bf908263ffffffff61307416565b601755600182015482546000916128e19161094090859063ffffffff612fd016565b60018401549091506128f9908363ffffffff61307416565b60018401558254612910908263ffffffff61307416565b8355600a54612925908263ffffffff61307416565b600a5560135483546129479164e8d4a51000916109409163ffffffff612fd016565b6007840155601554835461296b9164e8d4a51000916109409163ffffffff612fd016565b600884015560195415612b36576006830154156129d65760068054908401546129999163ffffffff6130b616565b42116129d65760405162461bcd60e51b81526004018080602001828103825260338152602001806137c76033913960400191505060405180910390fd5b60006129f361271061094060045486612fd090919063ffffffff16565b4260068601559050612a0b838263ffffffff61307416565b9250601954811115612adf576000612a2e6019548361307490919063ffffffff16565b600b546040805163095ea7b360e01b81526001600160a01b0392831660048201526024810184905290519293507f00000000000000000000000000000000000000000000000000000000000000009091169163095ea7b3916044808201926020929091908290030181600087803b158015612aa857600080fd5b505af1158015612abc573d6000803e3d6000fd5b505050506040513d6020811015612ad257600080fd5b5050600060195550612af6565b601954612af2908263ffffffff61307416565b6019555b600d54612b30906001600160a01b037f00000000000000000000000000000000000000000000000000000000000000008116911683613198565b50612bc2565b6008546004840154612b4d9163ffffffff6130b616565b431015612bc2576000612b7161271061094060035486612fd090919063ffffffff16565b9050612b83838263ffffffff61307416565b600d54909350612bc0906001600160a01b037f00000000000000000000000000000000000000000000000000000000000000008116911683613198565b505b612bfc6001600160a01b037f000000000000000000000000000000000000000000000000000000000000000016338463ffffffff61319816565b6001830154612ce757600f54600584015460001990910114612cac57600f8054600091906000198101908110612c2e57fe5b9060005260206000200160009054906101000a90046001600160a01b0316905080600f856005015481548110612c6057fe5b6000918252602080832091909101805473ffffffffffffffffffffffffffffffffffffffff19166001600160a01b03948516179055600587810154949093168252600e90526040902001555b600f805480612cb757fe5b6000828152602090208101600019908101805473ffffffffffffffffffffffffffffffffffffffff191690550190555b6016546040517f1ef37ab665f7c977b577275d7a49e72cd18d1143eccd1112f1198e4a39d1428c90600090a2505050565b600e6020528060005260406000206000915090508060000154908060010154908060020154908060030154908060040154908060050154908060060154908060070154908060080154905089565b600b546001600160a01b03163314612dc5576040805162461bcd60e51b815260206004820152601760248201527f43616c6c6572206d7573742062652062616e6b726f6c6c000000000000000000604482015290519081900360640190fd5b601954811115612e065760405162461bcd60e51b815260040180806020018281038252603c815260200180613653603c913960400191505060405180910390fd5b601954612e19908263ffffffff61307416565b601955612e2461240b565b612e2c6116c8565b50565b600c546001600160a01b031681565b601c5481565b60165481565b612e52612fcc565b6000546001600160a01b03908116911614612eb4576040805162461bcd60e51b815260206004820181905260248201527f4f776e61626c653a2063616c6c6572206973206e6f7420746865206f776e6572604482015290519081900360640190fd5b612e2c8161321d565b6001600160a01b0381166000908152600e6020526040812060125460195415612f0357612f00612454612710610940600954601254612fd090919063ffffffff16565b90505b601654612f0e575060005b60135460145443118015612f235750600a5415155b15612f80576000612f3f6014544361307490919063ffffffff16565b90506000612f65600a5461094064e8d4a510006124ac8887612fd090919063ffffffff16565b601354909150612f7b908263ffffffff6130b616565b925050505b612fa8836007015461094c64e8d4a51000610940858860000154612fd090919063ffffffff16565b95945050505050565b600d546001600160a01b031681565b678ac7230489e8000081565b3390565b600082612fdf5750600061302c565b82820282848281612fec57fe5b04146130295760405162461bcd60e51b81526004018080602001828103825260218152602001806137a66021913960400191505060405180910390fd5b90505b92915050565b600061302983836040518060400160405280601a81526020017f536166654d6174683a206469766973696f6e206279207a65726f0000000000008152506132ca565b600061302983836040518060400160405280601e81526020017f536166654d6174683a207375627472616374696f6e206f766572666c6f77000081525061336c565b600082820183811015613029576040805162461bcd60e51b815260206004820152601b60248201527f536166654d6174683a206164646974696f6e206f766572666c6f770000000000604482015290519081900360640190fd5b604080516001600160a01b0380861660248301528416604482015260648082018490528251808303909101815260849091019091526020810180517bffffffffffffffffffffffffffffffffffffffffffffffffffffffff167f23b872dd00000000000000000000000000000000000000000000000000000000179052611d539085906133c6565b604080516001600160a01b038416602482015260448082018490528251808303909101815260649091019091526020810180517bffffffffffffffffffffffffffffffffffffffffffffffffffffffff167fa9059cbb000000000000000000000000000000000000000000000000000000001790526132189084906133c6565b505050565b6001600160a01b0381166132625760405162461bcd60e51b81526004018080602001828103825260268152602001806136f86026913960400191505060405180910390fd5b600080546040516001600160a01b03808516939216917f8be0079c531659141344cd1fd0a4f28419497f9722a3daafe3b4186f6b6457e091a36000805473ffffffffffffffffffffffffffffffffffffffff19166001600160a01b0392909216919091179055565b600081836133565760405162461bcd60e51b81526004018080602001828103825283818151815260200191508051906020019080838360005b8381101561331b578181015183820152602001613303565b50505050905090810190601f1680156133485780820380516001836020036101000a031916815260200191505b509250505060405180910390fd5b50600083858161336257fe5b0495945050505050565b600081848411156133be5760405162461bcd60e51b815260206004820181815283516024840152835190928392604490910191908501908083836000831561331b578181015183820152602001613303565b505050900390565b606061341b826040518060400160405280602081526020017f5361666542455032303a206c6f772d6c6576656c2063616c6c206661696c6564815250856001600160a01b03166134779092919063ffffffff16565b8051909150156132185780806020019051602081101561343a57600080fd5b50516132185760405162461bcd60e51b815260040180806020018281038252602a8152602001806136ce602a913960400191505060405180910390fd5b6060613486848460008561348e565b949350505050565b606061349985613619565b6134ea576040805162461bcd60e51b815260206004820152601d60248201527f416464726573733a2063616c6c20746f206e6f6e2d636f6e7472616374000000604482015290519081900360640190fd5b60006060866001600160a01b031685876040518082805190602001908083835b6020831061354757805182527fffffffffffffffffffffffffffffffffffffffffffffffffffffffffffffffe0909201916020918201910161350a565b6001836020036101000a03801982511681845116808217855250505050505090500191505060006040518083038185875af1925050503d80600081146135a9576040519150601f19603f3d011682016040523d82523d6000602084013e6135ae565b606091505b509150915081156135c25791506134869050565b8051156135d25780518082602001fd5b60405162461bcd60e51b815260206004820181815286516024840152865187939192839260440191908501908083836000831561331b578181015183820152602001613303565b6000813f7fc5d2460186f7233c927e7db2dcc703c0e500b653ca82273b7bfad8045d85a47081811480159061348657505015159291505056fe756e667265657a6520616d6f756e742063616e742062652067726561746572207468616e2063757272656e746c792066726f7a656e20616d6f756e74576974686472617720616d6f756e742063616e206e6f742062652067726561746572207468616e20617661696c61626c65207374616b656420616d6f756e745361666542455032303a204245503230206f7065726174696f6e20646964206e6f7420737563636565644f776e61626c653a206e6577206f776e657220697320746865207a65726f206164647265737343727573682050657220426c6f636b2063616e206e6f74206265206d6f7265207468616e2031304d6178206175746f636f6d706f756e64206c696d69742063616e6e6f74206265206772656174657220333046726f7a656e2046756e64733a2043616e2774207769746864726177206d6f7265207468616e20417661696c61626c652066756e6473536166654d6174683a206d756c7469706c69636174696f6e206f766572666c6f774f6e6c79204f6e6520576974686472617720616c6c6f77656420706572203320686f75727320647572696e6720667265657a65496e73756666696369656e7420437275736820746f6b656e7320666f72207472616e73666572467265657a6520616d6f756e742073686f756c64206265206c657373207468616e206f7220657175616c20746f20617661696c61626c652066756e6473a26469706673582212208e2d6b099d9764e052fddd23c519c89893e462e78119f820e0aa73d3201d0fe864736f6c63430006050033",
  "immutableReferences": {
    "5651": [
      {
        "length": 32,
        "start": 2458
      },
      {
        "length": 32,
        "start": 2669
      },
      {
        "length": 32,
        "start": 2827
      },
      {
        "length": 32,
        "start": 3117
      },
      {
        "length": 32,
        "start": 3465
      },
      {
        "length": 32,
        "start": 4689
      },
      {
        "length": 32,
        "start": 5071
      },
      {
        "length": 32,
        "start": 5132
      },
      {
        "length": 32,
        "start": 5226
      },
      {
        "length": 32,
        "start": 7444
      },
      {
        "length": 32,
        "start": 8565
      },
      {
        "length": 32,
        "start": 8673
      },
      {
        "length": 32,
        "start": 8737
      },
      {
        "length": 32,
        "start": 9442
      },
      {
        "length": 32,
        "start": 10845
      },
      {
        "length": 32,
        "start": 11015
      },
      {
        "length": 32,
        "start": 11159
      },
      {
        "length": 32,
        "start": 11215
      }
    ]
  },
  "source": "//SPDX-License-Identifier: MIT\npragma solidity >=0.6.5;\n\nimport \"@pancakeswap/pancake-swap-lib/contracts/access/Ownable.sol\";\nimport \"./CrushCoin.sol\";\nimport \"@pancakeswap/pancake-swap-lib/contracts/math/SafeMath.sol\";\nimport \"@pancakeswap/pancake-swap-lib/contracts/token/BEP20/SafeBEP20.sol\";\nimport \"./HouseBankroll.sol\";\nimport \"./LiveWallet.sol\";\ncontract BitcrushStaking is Ownable {\n    using SafeMath for uint256;\n    using SafeBEP20 for CRUSHToken;\n    uint256 public constant MAX_CRUSH_PER_BLOCK = 10000000000000000000;\n    uint256 public constant MAX_FEE = 1000; // 1000/10000 * 100 = 10%\n    uint256 public performanceFeeCompounder = 10; // 10/10000 * 100 = 0.1%\n    uint256 public performanceFeeBurn       = 100; // 100/10000 * 100 = 1%\n    uint256 public constant divisor = 10000;\n    \n    uint256  public earlyWithdrawFee         = 50; // 50/10000 * 100 = 0.5% \n    uint256  public frozenEarlyWithdrawFee   = 1500; // 1500/10000 * 100 = 15% \n    uint256  public performanceFeeReserve    = 190; // 190/10000 * 100 = 1.9%\n    \n    uint256  public frozenEarlyWithdrawFeeTime   = 10800;\n\n    \n    uint256 public blockPerSecond = 3;\n    uint256 public earlyWithdrawFeeTime = 72 * 60 * 60 / blockPerSecond;\n    uint256 public apyBoost = 2500; //2500/10000 * 100 = 25%\n    uint256 public totalShares;\n\n    // Contracts to Interact with\n    CRUSHToken public immutable crush;\n    BitcrushBankroll public bankroll;\n    BitcrushLiveWallet public liveWallet;\n    // Team address to maintain funds\n    address public reserveAddress;\n    \n    struct UserStaking {\n        uint256 shares;\n        uint256 stakedAmount;\n        uint256 claimedAmount;\n        uint256 lastBlockCompounded;\n        uint256 lastBlockStaked;\n        uint256 index;\n        uint256 lastFrozenWithdraw;\n        uint256 apyBaseline;\n        uint256 profitBaseline;\n    }\n    mapping (address => UserStaking) public stakings;\n    address[] public addressIndexes;\n\n    uint256 public lastAutoCompoundBlock;\n\n    uint256 public batchStartingIndex;\n    uint256 public crushPerBlock = 5500000000000000000;\n    // Pool Accumulated Reward Per Share (APY)\n    uint256 public accRewardPerShare;\n    uint256 public lastRewardBlock;\n    // Profit Accumulated Reward Per Share\n    uint256 public accProfitPerShare;\n    // Tracking Totals\n    uint256 public totalPool; // Reward for Staking\n    uint256 public totalStaked;\n    uint256 public totalClaimed; // Total Claimed as rewards\n    uint256 public totalFrozen;\n    uint256 public totalProfitsClaimed;\n    uint256 public totalProfitDistributed; // Total Claimed as Profits\n    \n    uint256 public autoCompoundLimit = 10; // Max Batch Size\n\n    uint256 public deploymentTimeStamp;\n\n    event RewardPoolUpdated (uint256 indexed _totalPool);\n    event StakeUpdated (address indexed recipeint, uint256 indexed _amount);\n    \n    constructor (CRUSHToken _crush, uint256 _crushPerBlock, address _reserveAddress) public{\n        crush = _crush;\n        if(_crushPerBlock <= MAX_CRUSH_PER_BLOCK){\n            crushPerBlock = _crushPerBlock;\n        }\n        reserveAddress = _reserveAddress;\n        deploymentTimeStamp = block.timestamp;\n        lastRewardBlock = block.number;\n    }\n    /// Store `_bankroll`.\n    /// @param _bankroll the new value to store\n    /// @dev stores the _bankroll address in the state variable `bankroll`\n    function setBankroll (BitcrushBankroll _bankroll) public onlyOwner{\n        require(bankroll == BitcrushBankroll(0x0), \"Bankroll address already set\");\n        bankroll = _bankroll;\n    }\n\n    /// Store `_liveWallet`.\n    /// @param _liveWallet the new value to store\n    /// @dev stores the _liveWallet address in the state variable `liveWallet`\n    function setLiveWallet (BitcrushLiveWallet _liveWallet) public onlyOwner{\n        require(liveWallet == BitcrushLiveWallet(0x0), \"Live Wallet address already set\");\n        liveWallet = _liveWallet;\n    }\n\n    /// Adds the provided amount to the totalPool\n    /// @param _amount the amount to add\n    /// @dev adds the provided amount to `totalPool` state variable\n    function addRewardToPool (uint256 _amount) public  {\n        require(crush.balanceOf(msg.sender) >= _amount, \"Insufficient Crush tokens for transfer\");\n        totalPool = totalPool.add(_amount);\n        crush.safeTransferFrom(msg.sender, address(this), _amount);\n        emit RewardPoolUpdated(totalPool);\n    }\n\n    /// @notice updates accRewardPerShare based on the last block calculated and totalShares\n    /// @dev accRewardPerShare is accumulative, meaning it always holds the total historic \n    /// rewardPerShare making apyBaseline necessary to keep rewards fair\n    function updateDistribution() public {\n        if(block.number <= lastRewardBlock)\n            return;\n        if(totalStaked == 0){\n            lastRewardBlock = block.number;\n            return;\n        }\n        uint256 rewardPerBlock = crushPerBlock;\n        if(totalFrozen > 0)\n            rewardPerBlock = rewardPerBlock.add(crushPerBlock.mul(apyBoost).div(divisor));\n        if(totalPool == 0)\n            rewardPerBlock = 0;\n        uint256 blocksSinceCalc = block.number.sub(lastRewardBlock);\n        uint256 rewardCalc = blocksSinceCalc.mul(rewardPerBlock).mul(1e12).div(totalShares);\n        accRewardPerShare = accRewardPerShare.add( rewardCalc );\n        lastRewardBlock = block.number;\n    }\n\n    /// @notice updates accProfitPerShare based on current Profit available and totalShares\n    /// @dev this allows for consistent profit reporting and no change on profits to distribute\n    function updateProfits() public {\n        if(totalShares == 0)\n            return;\n        uint256 requestedProfits = bankroll.transferProfit();\n        if(requestedProfits == 0)\n            return;\n        totalProfitDistributed = totalProfitDistributed.add(requestedProfits);\n        uint256 profitCalc = requestedProfits.mul(1e12).div(totalShares);\n        accProfitPerShare = accProfitPerShare.add( profitCalc );\n    }\n\n    \n    function setCrushPerBlock (uint256 _amount) public onlyOwner {\n        require(_amount >= 0, \"Crush per Block can not be negative\" );\n        require(_amount <= MAX_CRUSH_PER_BLOCK, \"Crush Per Block can not be more than 10\");\n        crushPerBlock = _amount;\n    }\n\n\n    /// Stake the provided amount\n    /// @param _amount the amount to stake\n    /// @dev stakes the provided amount\n    function enterStaking (uint256 _amount) public  {\n        require(crush.balanceOf(msg.sender) >= _amount, \"Insufficient Crush tokens for transfer\");\n        require(_amount > 0,\"Invalid staking amount\");\n        \n        \n        updateDistribution();\n        updateProfits();\n        crush.safeTransferFrom(msg.sender, address(this), _amount);\n        if(totalStaked == 0){\n            lastAutoCompoundBlock = block.number;\n        }\n        UserStaking storage user = stakings[msg.sender];\n\n        if(user.stakedAmount == 0) {\n            user.lastBlockCompounded = block.number;\n            addressIndexes.push(msg.sender);\n            user.index = addressIndexes.length-1;\n        }\n        else {\n            uint256 pending = user.shares.mul(accRewardPerShare).div(1e12).sub(user.apyBaseline);\n            if( pending > totalPool)\n                pending = totalPool;\n            totalPool = totalPool.sub(pending);\n            uint256 profitPending = user.shares.mul(accProfitPerShare).div(1e12).sub(user.profitBaseline);\n            pending = pending.add(profitPending);\n            if( pending > 0) {\n                crush.safeTransfer(msg.sender, pending);\n                user.claimedAmount = user.claimedAmount.add(pending);\n                totalClaimed = totalClaimed.add(pending);\n                totalProfitsClaimed = totalProfitsClaimed.add(profitPending);\n            }\n        }\n        \n\n        uint256 currentShares = 0;\n        if (totalShares != 0)\n            currentShares = _amount.mul(totalShares).div(totalStaked);\n        else\n            currentShares = _amount;\n\n        totalStaked = totalStaked.add(_amount);\n        totalShares = totalShares.add(currentShares);\n        if( user.shares == 0){\n            user.lastBlockCompounded = block.number;\n        }\n        user.shares = user.shares.add(currentShares);\n        user.profitBaseline = accProfitPerShare.mul(user.shares).div(1e12);\n        user.apyBaseline = accRewardPerShare.mul(user.shares).div(1e12);\n        user.stakedAmount = user.stakedAmount.add(_amount);\n        user.lastBlockStaked = block.number;\n    }\n\n\n\n    /// Leaves staking for a user by the specified amount and transfering staked amount and reward to users address\n    /// @param _amount the amount to unstake\n    /// @dev leaves staking and deducts total pool by the users reward. early withdrawal fee applied if withdraw is made before earlyWithdrawFeeTime\n    function leaveStaking (uint256 _amount, bool _liveWallet) external  {\n        \n        updateDistribution();\n        updateProfits();\n        UserStaking storage user = stakings[msg.sender];\n        uint256 reward = user.shares.mul(accRewardPerShare).div(1e12).sub(user.apyBaseline);\n        uint256 profitShare = user.shares.mul(accProfitPerShare).div(1e12).sub(user.profitBaseline);\n        if( reward > totalPool )\n            reward = totalPool;\n        totalPool = totalPool.sub(reward);\n        reward = reward.add(profitShare);\n        totalProfitsClaimed = totalProfitsClaimed.add(profitShare);\n        user.lastBlockCompounded = block.number;\n        \n        uint256 availableStaked = user.stakedAmount;\n        if(totalFrozen > 0){\n            availableStaked = availableStaked.sub(totalFrozen.mul(user.stakedAmount).div(totalStaked));\n            require(availableStaked >= _amount, \"Frozen Funds: Can't withdraw more than Available funds\");\n        }else if(user.lastFrozenWithdraw > 0){\n            user.lastFrozenWithdraw = 0;\n        }\n        require(availableStaked >= _amount, \"Withdraw amount can not be greater than available staked amount\");\n        totalStaked = totalStaked.sub(_amount);\n        \n        uint256 shareReduction = _amount.mul( user.shares ).div( user.stakedAmount );\n        user.stakedAmount = user.stakedAmount.sub(_amount);\n        user.shares = user.shares.sub( shareReduction );\n        totalShares = totalShares.sub( shareReduction );\n        user.apyBaseline = user.shares.mul(accRewardPerShare).div(1e12);\n        user.profitBaseline = user.shares.mul(accProfitPerShare).div(1e12);\n        _amount = _amount.add(reward);\n        if(totalFrozen > 0 ){\n            if(user.lastFrozenWithdraw > 0 ) \n                require(block.timestamp > user.lastFrozenWithdraw.add(frozenEarlyWithdrawFeeTime),\"Only One Withdraw allowed per 3 hours during freeze\");\n            \n            uint256 withdrawalFee = _amount.mul(frozenEarlyWithdrawFee).div(divisor);\n            user.lastFrozenWithdraw = block.timestamp;\n            _amount = _amount.sub(withdrawalFee);\n            \n            if(withdrawalFee > totalFrozen){\n                uint256 remainder = withdrawalFee.sub(totalFrozen);\n                crush.approve(address(bankroll), remainder);\n                totalFrozen = 0;\n            }else\n                totalFrozen = totalFrozen.sub(withdrawalFee);\n            \n            bankroll.recoverBankroll(withdrawalFee);\n            \n        }\n        else if(block.number < user.lastBlockStaked.add(earlyWithdrawFeeTime)){\n            //apply fee\n            uint256 withdrawalFee = _amount.mul(earlyWithdrawFee).div(divisor);\n            _amount = _amount.sub(withdrawalFee);\n            crush.safeTransfer(reserveAddress, withdrawalFee);\n        }\n        \n        if(_liveWallet == false)\n            crush.safeTransfer(msg.sender, _amount);\n        else  {\n            crush.approve(address(liveWallet), _amount);\n            liveWallet.addbetWithAddress(_amount, msg.sender);\n        }\n        user.claimedAmount = user.claimedAmount.add(reward);\n        totalClaimed = totalClaimed.add(reward);\n        //remove from batchig array\n        if(user.stakedAmount == 0){\n            if(user.index != addressIndexes.length-1){\n                address lastAddress = addressIndexes[addressIndexes.length-1];\n                addressIndexes[user.index] = lastAddress;\n                stakings[lastAddress].index = user.index;\n            }\n            addressIndexes.pop();\n        }\n        emit RewardPoolUpdated(totalPool);\n    }\n\n    /// Get pending rewards of a user for UI\n    /// @param _address the address to calculate the reward for\n    /// @dev calculates potential reward for the address provided based on crush per block\n    function pendingReward (address _address) external view returns (uint256){\n        UserStaking storage user = stakings[_address];\n        uint256 rewardPerBlock = crushPerBlock;\n        if(totalFrozen > 0)\n            rewardPerBlock = rewardPerBlock.add(crushPerBlock.mul(apyBoost).div(divisor));\n        if(totalPool == 0)\n            rewardPerBlock = 0;\n        uint256 localAccRewardPerShare = accRewardPerShare;\n        if(block.number > lastRewardBlock && totalShares !=0){\n            uint256 blocksSinceCalc = block.number.sub(lastRewardBlock);\n            uint256 rewardCalc = blocksSinceCalc.mul(rewardPerBlock).mul(1e12).div(totalShares);\n            localAccRewardPerShare = accRewardPerShare.add( rewardCalc );\n        }\n        return user.shares.mul(localAccRewardPerShare).div(1e12).sub(user.apyBaseline);\n    }\n\n    /// Get pending Profits to Claim\n    /// @param _address the user's wallet address to calculate profits\n    /// @return pending Profits to be claimed by this user\n    function pendingProfits(address _address) public view returns(uint256) {\n        UserStaking storage user = stakings[_address];\n        return user.shares.mul(accProfitPerShare).div(1e12).sub(user.profitBaseline);\n    }\n\n    /// compounds the rewards of all users in the pool\n    /// @dev compounds the rewards of all users in the pool add adds it into their staked amount while deducting fees\n    function compoundAll () public  {\n        require(lastAutoCompoundBlock <= block.number, \"Compound All not yet applicable.\");\n        require(totalStaked > 0, \"No Staked rewards to claim\" );\n        uint256 crushToBurn = 0;\n        uint256 performanceFee = 0;\n        \n        uint256 compounderReward = 0;\n        uint totalPoolDeducted = 0;\n\n        uint256 batchStart = batchStartingIndex;\n        if( batchStartingIndex >= addressIndexes.length )\n            batchStart = 0;\n        \n        uint256 batchLimit = addressIndexes.length;\n        if(addressIndexes.length <= autoCompoundLimit || batchStart.add(autoCompoundLimit) >= addressIndexes.length)\n            batchLimit = addressIndexes.length;\n        else\n            batchLimit = batchStart.add(autoCompoundLimit);\n\n        updateProfits();\n        updateDistribution();\n        for(uint256 i=batchStart; i < batchLimit; i++){\n            UserStaking storage currentUser = stakings[addressIndexes[i]];\n            uint256 stakerReward = currentUser.shares.mul(accRewardPerShare).div(1e12).sub(currentUser.apyBaseline);\n            if(totalPool < totalPoolDeducted.add(stakerReward)){\n                stakerReward = totalPool.sub(totalPoolDeducted);\n            }\n            currentUser.apyBaseline = currentUser.apyBaseline.add(stakerReward);\n            if(stakerReward > 0)\n                totalPoolDeducted = totalPoolDeducted.add(stakerReward);\n            uint256 profitReward = currentUser.shares.mul(accProfitPerShare).div(1e12).sub(currentUser.profitBaseline);\n            currentUser.profitBaseline = currentUser.profitBaseline.add(profitReward);\n            stakerReward = stakerReward.add(profitReward);\n            if(stakerReward > 0){\n                totalProfitsClaimed = totalProfitsClaimed.add(profitReward);\n                totalClaimed = totalClaimed.add(stakerReward);\n                uint256 stakerBurn = stakerReward.mul(performanceFeeBurn).div(divisor);\n                crushToBurn = crushToBurn.add(stakerBurn);\n            \n                uint256 cpAllReward = stakerReward.mul(performanceFeeCompounder).div(divisor);\n                compounderReward = compounderReward.add(cpAllReward);\n            \n                uint256 feeReserve = stakerReward.mul(performanceFeeReserve).div(divisor);\n                performanceFee = performanceFee.add(feeReserve);\n                stakerReward = stakerReward.sub(stakerBurn);\n                stakerReward = stakerReward.sub(cpAllReward);\n                stakerReward = stakerReward.sub(feeReserve);\n                currentUser.claimedAmount = currentUser.claimedAmount.add(stakerReward);\n                currentUser.stakedAmount = currentUser.stakedAmount.add(stakerReward);\n                \n                totalStaked = totalStaked.add(stakerReward);\n            }    \n            currentUser.lastBlockCompounded = block.number;\n        }\n        batchStartingIndex = batchLimit;\n        if(batchStartingIndex >= addressIndexes.length){\n            batchStartingIndex = 0;\n        }\n        totalPool = totalPool.sub(totalPoolDeducted);\n        lastAutoCompoundBlock = block.number;\n        crush.burn(crushToBurn);\n        crush.safeTransfer(msg.sender, compounderReward);\n        crush.safeTransfer(reserveAddress, performanceFee);\n        \n    }\n\n    /// freeze certain funds in the staking pool and transfer them to the live wallet address\n    /// @dev adds the provided amount to the total frozen variablle\n    function freezeStaking (uint256 _amount, address _recipient, address _lwAddress) public  {\n        require(msg.sender == address(bankroll), \"Callet must be bankroll\");\n        //divide amount over users\n        //update user mapping to reflect frozen amount\n         require(_amount <= totalStaked.sub(totalFrozen), \"Freeze amount should be less than or equal to available funds\");\n         totalFrozen = totalFrozen.add(_amount);\n         BitcrushLiveWallet currentLw = BitcrushLiveWallet(_lwAddress);\n         currentLw.addToUserWinnings(_amount, _recipient);\n         crush.safeTransfer(address(_lwAddress), _amount);\n         updateDistribution();\n         updateProfits();\n    }\n    \n    /// unfreeze previously frozen funds from the staking pool\n    /// @dev deducts the provided amount from the total frozen variablle\n    function unfreezeStaking (uint256 _amount) public {\n        require(msg.sender == address(bankroll), \"Caller must be bankroll\");\n         require(_amount <= totalFrozen, \"unfreeze amount cant be greater than currently frozen amount\");\n         totalFrozen = totalFrozen.sub(_amount);\n         updateDistribution();\n         updateProfits();\n    }\n\n\n\n    /// returns the total count of users in the staking pool.\n    /// @dev returns the total stakers in the staking pool by reading length of addressIndexes array\n    function indexesLength() external view returns(uint256 _addressesLength){\n        _addressesLength = addressIndexes.length;\n    }\n\n    /// Store `_fee`.\n    /// @param _fee the new value to store\n    /// @dev stores the fee in the state variable `performanceFeeCompounder`\n    function setPerformanceFeeCompounder (uint256 _fee) public onlyOwner{\n        require(_fee > 0, \"Fee must be greater than 0\");\n        require(_fee < MAX_FEE, \"Fee must be less than 10%\");\n        performanceFeeCompounder = _fee;\n    }\n\n    /// Store `_fee`.\n    /// @param _fee the new value to store\n    /// @dev stores the fee in the state variable `performanceFeeBurn`\n    function setPerformanceFeeBurn (uint256 _fee) public onlyOwner {\n        require(_fee > 0, \"Fee must be greater than 0\");\n        require(_fee < MAX_FEE, \"Fee must be less than 10%\");\n        performanceFeeBurn = _fee;\n    }\n\n    /// Store `_fee`.\n    /// @param _fee the new value to store\n    /// @dev stores the fee in the state variable `earlyWithdrawFee`\n    function setEarlyWithdrawFee (uint256 _fee) public onlyOwner {\n        require(_fee > 0, \"Fee must be greater than 0\");\n        require(_fee < MAX_FEE, \"Fee must be less than 10%\");\n        earlyWithdrawFee = _fee;\n    }\n\n\n    /// Store `_fee`.\n    /// @param _fee the new value to store\n    /// @dev stores the fee in the state variable `performanceFeeReserve`\n    function setPerformanceFeeReserve (uint256 _fee) public onlyOwner {\n        require(_fee > 0, \"Fee must be greater than 0\");\n        require(_fee <= MAX_FEE, \"Fee must be less than 10%\");\n        performanceFeeReserve = _fee;\n    }\n\n    /// Store `_time`.\n    /// @param _time the new value to store\n    /// @dev stores the time in the state variable `earlyWithdrawFeeTime`\n    function setEarlyWithdrawFeeTime (uint256 _time) public onlyOwner {\n        require(_time > 0, \"Time must be greater than 0\");\n        earlyWithdrawFeeTime = _time;\n    }\n    /// Store `_limit`.\n    /// @param _limit the new value to store\n    /// @dev stores the limit in the state variable `autoCompoundLimit`\n    function setAutoCompoundLimit (uint256 _limit) public onlyOwner {\n        require(_limit > 0, \"Limit can not be 0\");\n        require(_limit < 30, \"Max autocompound limit cannot be greater 30\");\n        autoCompoundLimit = _limit;\n    }\n\n\n    /// emergency withdraw funds of users\n    /// @dev transfer all available funds of users to users wallet\n    function emergencyWithdraw () public {\n        \n        updateDistribution();\n        \n        UserStaking storage user = stakings[msg.sender];\n        user.lastBlockCompounded = block.number;\n        \n        uint256 availableStaked = user.stakedAmount;\n        if(totalFrozen > 0){\n            availableStaked = availableStaked.sub(totalFrozen.mul(user.stakedAmount).div(totalStaked));\n        }else if(user.lastFrozenWithdraw > 0){\n            user.lastFrozenWithdraw = 0;\n        }\n        \n        totalStaked = totalStaked.sub(availableStaked);\n        \n        uint256 shareReduction = availableStaked.mul( user.shares ).div( user.stakedAmount );\n        user.stakedAmount = user.stakedAmount.sub(availableStaked);\n        user.shares = user.shares.sub( shareReduction );\n        totalShares = totalShares.sub( shareReduction );\n        user.apyBaseline = user.shares.mul(accRewardPerShare).div(1e12);\n        user.profitBaseline = user.shares.mul(accProfitPerShare).div(1e12);\n        \n        if(totalFrozen > 0 ){\n            if(user.lastFrozenWithdraw > 0 ) \n                require(block.timestamp > user.lastFrozenWithdraw.add(frozenEarlyWithdrawFeeTime),\"Only One Withdraw allowed per 3 hours during freeze\");\n            \n            uint256 withdrawalFee = availableStaked.mul(frozenEarlyWithdrawFee).div(divisor);\n            user.lastFrozenWithdraw = block.timestamp;\n            availableStaked = availableStaked.sub(withdrawalFee);\n            \n            if(withdrawalFee > totalFrozen){\n                uint256 remainder = withdrawalFee.sub(totalFrozen);\n                crush.approve(address(bankroll), remainder);\n                totalFrozen = 0;\n            }else\n                totalFrozen = totalFrozen.sub(withdrawalFee);\n            \n            crush.safeTransfer(reserveAddress, withdrawalFee);\n\n            \n        }\n        else if(block.number < user.lastBlockStaked.add(earlyWithdrawFeeTime)){\n            //apply fee\n            uint256 withdrawalFee = availableStaked.mul(earlyWithdrawFee).div(divisor);\n            availableStaked = availableStaked.sub(withdrawalFee);\n            crush.safeTransfer(reserveAddress, withdrawalFee);\n        }\n        \n        \n        crush.safeTransfer(msg.sender, availableStaked);\n        \n        \n        //remove from batchig array\n        if(user.stakedAmount == 0){\n            if(user.index != addressIndexes.length-1){\n                address lastAddress = addressIndexes[addressIndexes.length-1];\n                addressIndexes[user.index] = lastAddress;\n                stakings[lastAddress].index = user.index;\n            }\n            addressIndexes.pop();\n        }\n        emit RewardPoolUpdated(totalPool);\n\n    }\n   \n\n   \n}\n",
  "sourcePath": "/Users/umeralisajid/Documents/Frag/bitcrush/crush_contacts_old/contracts/staking.sol",
  "compiler": {
    "name": "solc",
    "version": "0.6.5+commit.f956cc89.Emscripten.clang"
  },
  "schemaVersion": "3.4.4",
  "updatedAt": "2022-02-04T08:36:16.141Z",
  "networkType": "ethereum",
  "devdoc": {
    "methods": {
      "addRewardToPool(uint256)": {
        "details": "adds the provided amount to `totalPool` state variable",
        "params": {
          "_amount": "the amount to add"
        }
      },
      "compoundAll()": {
        "details": "compounds the rewards of all users in the pool add adds it into their staked amount while deducting fees"
      },
      "emergencyWithdraw()": {
        "details": "transfer all available funds of users to users wallet"
      },
      "enterStaking(uint256)": {
        "details": "stakes the provided amount",
        "params": {
          "_amount": "the amount to stake"
        }
      },
      "freezeStaking(uint256,address,address)": {
        "details": "adds the provided amount to the total frozen variablle"
      },
      "indexesLength()": {
        "details": "returns the total stakers in the staking pool by reading length of addressIndexes array"
      },
      "leaveStaking(uint256,bool)": {
        "details": "leaves staking and deducts total pool by the users reward. early withdrawal fee applied if withdraw is made before earlyWithdrawFeeTime",
        "params": {
          "_amount": "the amount to unstake"
        }
      },
      "owner()": {
        "details": "Returns the address of the current owner."
      },
      "pendingProfits(address)": {
        "params": {
          "_address": "the user's wallet address to calculate profits"
        },
        "returns": {
          "_0": "pending Profits to be claimed by this user"
        }
      },
      "pendingReward(address)": {
        "details": "calculates potential reward for the address provided based on crush per block",
        "params": {
          "_address": "the address to calculate the reward for"
        }
      },
      "renounceOwnership()": {
        "details": "Leaves the contract without owner. It will not be possible to call `onlyOwner` functions anymore. Can only be called by the current owner.     * NOTE: Renouncing ownership will leave the contract without an owner, thereby removing any functionality that is only available to the owner."
      },
      "setAutoCompoundLimit(uint256)": {
        "details": "stores the limit in the state variable `autoCompoundLimit`",
        "params": {
          "_limit": "the new value to store"
        }
      },
      "setBankroll(address)": {
        "details": "stores the _bankroll address in the state variable `bankroll`",
        "params": {
          "_bankroll": "the new value to store"
        }
      },
      "setEarlyWithdrawFee(uint256)": {
        "details": "stores the fee in the state variable `earlyWithdrawFee`",
        "params": {
          "_fee": "the new value to store"
        }
      },
      "setEarlyWithdrawFeeTime(uint256)": {
        "details": "stores the time in the state variable `earlyWithdrawFeeTime`",
        "params": {
          "_time": "the new value to store"
        }
      },
      "setLiveWallet(address)": {
        "details": "stores the _liveWallet address in the state variable `liveWallet`",
        "params": {
          "_liveWallet": "the new value to store"
        }
      },
      "setPerformanceFeeBurn(uint256)": {
        "details": "stores the fee in the state variable `performanceFeeBurn`",
        "params": {
          "_fee": "the new value to store"
        }
      },
      "setPerformanceFeeCompounder(uint256)": {
        "details": "stores the fee in the state variable `performanceFeeCompounder`",
        "params": {
          "_fee": "the new value to store"
        }
      },
      "setPerformanceFeeReserve(uint256)": {
        "details": "stores the fee in the state variable `performanceFeeReserve`",
        "params": {
          "_fee": "the new value to store"
        }
      },
      "transferOwnership(address)": {
        "details": "Transfers ownership of the contract to a new account (`newOwner`). Can only be called by the current owner."
      },
      "unfreezeStaking(uint256)": {
        "details": "deducts the provided amount from the total frozen variablle"
      },
      "updateDistribution()": {
        "details": "accRewardPerShare is accumulative, meaning it always holds the total historic  rewardPerShare making apyBaseline necessary to keep rewards fair"
      },
      "updateProfits()": {
        "details": "this allows for consistent profit reporting and no change on profits to distribute"
      }
    }
  },
  "userdoc": {
    "methods": {
      "addRewardToPool(uint256)": {
        "notice": "Adds the provided amount to the totalPool"
      },
      "compoundAll()": {
        "notice": "compounds the rewards of all users in the pool"
      },
      "emergencyWithdraw()": {
        "notice": "emergency withdraw funds of users"
      },
      "enterStaking(uint256)": {
        "notice": "Stake the provided amount"
      },
      "freezeStaking(uint256,address,address)": {
        "notice": "freeze certain funds in the staking pool and transfer them to the live wallet address"
      },
      "indexesLength()": {
        "notice": "returns the total count of users in the staking pool."
      },
      "leaveStaking(uint256,bool)": {
        "notice": "Leaves staking for a user by the specified amount and transfering staked amount and reward to users address"
      },
      "pendingProfits(address)": {
        "notice": "Get pending Profits to Claim"
      },
      "pendingReward(address)": {
        "notice": "Get pending rewards of a user for UI"
      },
      "setAutoCompoundLimit(uint256)": {
        "notice": "Store `_limit`."
      },
      "setBankroll(address)": {
        "notice": "Store `_bankroll`."
      },
      "setEarlyWithdrawFee(uint256)": {
        "notice": "Store `_fee`."
      },
      "setEarlyWithdrawFeeTime(uint256)": {
        "notice": "Store `_time`."
      },
      "setLiveWallet(address)": {
        "notice": "Store `_liveWallet`."
      },
      "setPerformanceFeeBurn(uint256)": {
        "notice": "Store `_fee`."
      },
      "setPerformanceFeeCompounder(uint256)": {
        "notice": "Store `_fee`."
      },
      "setPerformanceFeeReserve(uint256)": {
        "notice": "Store `_fee`."
      },
      "unfreezeStaking(uint256)": {
        "notice": "unfreeze previously frozen funds from the staking pool"
      },
      "updateDistribution()": {
        "notice": "updates accRewardPerShare based on the last block calculated and totalShares"
      },
      "updateProfits()": {
        "notice": "updates accProfitPerShare based on current Profit available and totalShares"
      }
    }
  }
}