{
  "contractName": "CRUSHToken",
  "abi": [
    {
      "inputs": [],
      "stateMutability": "nonpayable",
      "type": "constructor"
    },
    {
      "anonymous": false,
      "inputs": [
        {
          "indexed": true,
          "internalType": "address",
          "name": "owner",
          "type": "address"
        },
        {
          "indexed": true,
          "internalType": "address",
          "name": "spender",
          "type": "address"
        },
        {
          "indexed": false,
          "internalType": "uint256",
          "name": "value",
          "type": "uint256"
        }
      ],
      "name": "Approval",
      "type": "event"
    },
    {
      "anonymous": false,
      "inputs": [
        {
          "indexed": true,
          "internalType": "address",
          "name": "previousOwner",
          "type": "address"
        },
        {
          "indexed": true,
          "internalType": "address",
          "name": "newOwner",
          "type": "address"
        }
      ],
      "name": "OwnershipTransferred",
      "type": "event"
    },
    {
      "anonymous": false,
      "inputs": [
        {
          "indexed": true,
          "internalType": "address",
          "name": "from",
          "type": "address"
        },
        {
          "indexed": true,
          "internalType": "address",
          "name": "to",
          "type": "address"
        },
        {
          "indexed": false,
          "internalType": "uint256",
          "name": "value",
          "type": "uint256"
        }
      ],
      "name": "Transfer",
      "type": "event"
    },
    {
      "inputs": [],
      "name": "MAX_SUPPLY",
      "outputs": [
        {
          "internalType": "uint256",
          "name": "",
          "type": "uint256"
        }
      ],
      "stateMutability": "view",
      "type": "function"
    },
    {
      "inputs": [
        {
          "internalType": "address",
          "name": "owner",
          "type": "address"
        },
        {
          "internalType": "address",
          "name": "spender",
          "type": "address"
        }
      ],
      "name": "allowance",
      "outputs": [
        {
          "internalType": "uint256",
          "name": "",
          "type": "uint256"
        }
      ],
      "stateMutability": "view",
      "type": "function"
    },
    {
      "inputs": [
        {
          "internalType": "address",
          "name": "spender",
          "type": "address"
        },
        {
          "internalType": "uint256",
          "name": "amount",
          "type": "uint256"
        }
      ],
      "name": "approve",
      "outputs": [
        {
          "internalType": "bool",
          "name": "",
          "type": "bool"
        }
      ],
      "stateMutability": "nonpayable",
      "type": "function"
    },
    {
      "inputs": [
        {
          "internalType": "address",
          "name": "account",
          "type": "address"
        }
      ],
      "name": "balanceOf",
      "outputs": [
        {
          "internalType": "uint256",
          "name": "",
          "type": "uint256"
        }
      ],
      "stateMutability": "view",
      "type": "function"
    },
    {
      "inputs": [],
      "name": "decimals",
      "outputs": [
        {
          "internalType": "uint8",
          "name": "",
          "type": "uint8"
        }
      ],
      "stateMutability": "view",
      "type": "function"
    },
    {
      "inputs": [
        {
          "internalType": "address",
          "name": "spender",
          "type": "address"
        },
        {
          "internalType": "uint256",
          "name": "subtractedValue",
          "type": "uint256"
        }
      ],
      "name": "decreaseAllowance",
      "outputs": [
        {
          "internalType": "bool",
          "name": "",
          "type": "bool"
        }
      ],
      "stateMutability": "nonpayable",
      "type": "function"
    },
    {
      "inputs": [],
      "name": "getOwner",
      "outputs": [
        {
          "internalType": "address",
          "name": "",
          "type": "address"
        }
      ],
      "stateMutability": "view",
      "type": "function"
    },
    {
      "inputs": [
        {
          "internalType": "address",
          "name": "spender",
          "type": "address"
        },
        {
          "internalType": "uint256",
          "name": "addedValue",
          "type": "uint256"
        }
      ],
      "name": "increaseAllowance",
      "outputs": [
        {
          "internalType": "bool",
          "name": "",
          "type": "bool"
        }
      ],
      "stateMutability": "nonpayable",
      "type": "function"
    },
    {
      "inputs": [],
      "name": "name",
      "outputs": [
        {
          "internalType": "string",
          "name": "",
          "type": "string"
        }
      ],
      "stateMutability": "view",
      "type": "function"
    },
    {
      "inputs": [],
      "name": "owner",
      "outputs": [
        {
          "internalType": "address",
          "name": "",
          "type": "address"
        }
      ],
      "stateMutability": "view",
      "type": "function"
    },
    {
      "inputs": [],
      "name": "renounceOwnership",
      "outputs": [],
      "stateMutability": "nonpayable",
      "type": "function"
    },
    {
      "inputs": [],
      "name": "symbol",
      "outputs": [
        {
          "internalType": "string",
          "name": "",
          "type": "string"
        }
      ],
      "stateMutability": "view",
      "type": "function"
    },
    {
      "inputs": [],
      "name": "tokensBurned",
      "outputs": [
        {
          "internalType": "uint256",
          "name": "",
          "type": "uint256"
        }
      ],
      "stateMutability": "view",
      "type": "function"
    },
    {
      "inputs": [],
      "name": "totalSupply",
      "outputs": [
        {
          "internalType": "uint256",
          "name": "",
          "type": "uint256"
        }
      ],
      "stateMutability": "view",
      "type": "function"
    },
    {
      "inputs": [
        {
          "internalType": "address",
          "name": "recipient",
          "type": "address"
        },
        {
          "internalType": "uint256",
          "name": "amount",
          "type": "uint256"
        }
      ],
      "name": "transfer",
      "outputs": [
        {
          "internalType": "bool",
          "name": "",
          "type": "bool"
        }
      ],
      "stateMutability": "nonpayable",
      "type": "function"
    },
    {
      "inputs": [
        {
          "internalType": "address",
          "name": "sender",
          "type": "address"
        },
        {
          "internalType": "address",
          "name": "recipient",
          "type": "address"
        },
        {
          "internalType": "uint256",
          "name": "amount",
          "type": "uint256"
        }
      ],
      "name": "transferFrom",
      "outputs": [
        {
          "internalType": "bool",
          "name": "",
          "type": "bool"
        }
      ],
      "stateMutability": "nonpayable",
      "type": "function"
    },
    {
      "inputs": [
        {
          "internalType": "address",
          "name": "newOwner",
          "type": "address"
        }
      ],
      "name": "transferOwnership",
      "outputs": [],
      "stateMutability": "nonpayable",
      "type": "function"
    },
    {
      "inputs": [
        {
          "internalType": "address",
          "name": "_benefactor",
          "type": "address"
        },
        {
          "internalType": "uint256",
          "name": "_amount",
          "type": "uint256"
        }
      ],
      "name": "mint",
      "outputs": [],
      "stateMutability": "nonpayable",
      "type": "function"
    },
    {
      "inputs": [
        {
          "internalType": "uint256",
          "name": "amount",
          "type": "uint256"
        }
      ],
      "name": "mint",
      "outputs": [
        {
          "internalType": "bool",
          "name": "",
          "type": "bool"
        }
      ],
      "stateMutability": "nonpayable",
      "type": "function"
    },
    {
      "inputs": [
        {
          "internalType": "uint256",
          "name": "_amount",
          "type": "uint256"
        }
      ],
      "name": "burn",
      "outputs": [],
      "stateMutability": "nonpayable",
      "type": "function"
    }
  ],
  "bytecode": "0x608060405260006007553480156200001657600080fd5b506040518060400160405280600a81526020016921b93ab9b41021b7b4b760b11b81525060405180604001604052806005815260200164086a4aaa6960db1b81525060006200006a620000f560201b60201c565b600080546001600160a01b0319166001600160a01b0383169081178255604051929350917f8be0079c531659141344cd1fd0a4f28419497f9722a3daafe3b4186f6b6457e0908290a3508151620000c9906004906020850190620000fa565b508051620000df906005906020840190620000fa565b50506006805460ff19166012179055506200019c565b335b90565b828054600181600116156101000203166002900490600052602060002090601f016020900481019282601f106200013d57805160ff19168380011785556200016d565b828001600101855582156200016d579182015b828111156200016d57825182559160200191906001019062000150565b506200017b9291506200017f565b5090565b620000f791905b808211156200017b576000815560010162000186565b61121180620001ac6000396000f3fe608060405234801561001057600080fd5b506004361061016c5760003560e01c8063715018a6116100cd578063a457c2d711610081578063dd62ed3e11610066578063dd62ed3e146103f2578063e7873b5814610420578063f2fde38b146104285761016c565b8063a457c2d71461039a578063a9059cbb146103c65761016c565b80638da5cb5b116100b25780638da5cb5b1461036d57806395d89b4114610375578063a0712d681461037d5761016c565b8063715018a614610341578063893d20e8146103495761016c565b806332cb6b0c1161012457806340c10f191161010957806340c10f19146102d057806342966c68146102fe57806370a082311461031b5761016c565b806332cb6b0c1461029c57806339509351146102a45761016c565b806318160ddd1161015557806318160ddd1461022e57806323b872dd14610248578063313ce5671461027e5761016c565b806306fdde0314610171578063095ea7b3146101ee575b600080fd5b61017961044e565b6040805160208082528351818301528351919283929083019185019080838360005b838110156101b357818101518382015260200161019b565b50505050905090810190601f1680156101e05780820380516001836020036101000a031916815260200191505b509250505060405180910390f35b61021a6004803603604081101561020457600080fd5b506001600160a01b0381351690602001356104e4565b604080519115158252519081900360200190f35b610236610501565b60408051918252519081900360200190f35b61021a6004803603606081101561025e57600080fd5b506001600160a01b03813581169160208101359091169060400135610507565b610286610594565b6040805160ff9092168252519081900360200190f35b61023661059d565b61021a600480360360408110156102ba57600080fd5b506001600160a01b0381351690602001356105ac565b6102fc600480360360408110156102e657600080fd5b506001600160a01b038135169060200135610600565b005b6102fc6004803603602081101561031457600080fd5b503561070f565b6102366004803603602081101561033157600080fd5b50356001600160a01b0316610732565b6102fc61074d565b610351610819565b604080516001600160a01b039092168252519081900360200190f35b610351610828565b610179610837565b61021a6004803603602081101561039357600080fd5b5035610898565b61021a600480360360408110156103b057600080fd5b506001600160a01b03813516906020013561091d565b61021a600480360360408110156103dc57600080fd5b506001600160a01b03813516906020013561098b565b6102366004803603604081101561040857600080fd5b506001600160a01b038135811691602001351661099f565b6102366109ca565b6102fc6004803603602081101561043e57600080fd5b50356001600160a01b03166109d0565b60048054604080516020601f60026000196101006001881615020190951694909404938401819004810282018101909252828152606093909290918301828280156104da5780601f106104af576101008083540402835291602001916104da565b820191906000526020600020905b8154815290600101906020018083116104bd57829003601f168201915b5050505050905090565b60006104f86104f1610a43565b8484610a47565b50600192915050565b60035490565b6000610514848484610b33565b61058a84610520610a43565b610585856040518060600160405280602881526020016110e1602891396001600160a01b038a1660009081526002602052604081209061055e610a43565b6001600160a01b03168152602081019190915260400160002054919063ffffffff610c9116565b610a47565b5060019392505050565b60065460ff1690565b6a18d0bf423c03d8de00000081565b60006104f86105b9610a43565b8461058585600260006105ca610a43565b6001600160a01b03908116825260208083019390935260409182016000908120918c16815292529020549063ffffffff610d2816565b610608610a43565b6000546001600160a01b0390811691161461066a576040805162461bcd60e51b815260206004820181905260248201527f4f776e61626c653a2063616c6c6572206973206e6f7420746865206f776e6572604482015290519081900360640190fd5b6000610684610677610501565b839063ffffffff610d2816565b905060006106a86007546a18d0bf423c03d8de000000610d8990919063ffffffff16565b9050808211156106ff576040805162461bcd60e51b815260206004820152601960248201527f63616e2774206d696e74206d6f7265207468616e206d61782e00000000000000604482015290519081900360640190fd5b6107098484610dcb565b50505050565b600754610722908263ffffffff610d2816565b60075561072f3382610ebd565b50565b6001600160a01b031660009081526001602052604090205490565b610755610a43565b6000546001600160a01b039081169116146107b7576040805162461bcd60e51b815260206004820181905260248201527f4f776e61626c653a2063616c6c6572206973206e6f7420746865206f776e6572604482015290519081900360640190fd5b600080546040516001600160a01b03909116907f8be0079c531659141344cd1fd0a4f28419497f9722a3daafe3b4186f6b6457e0908390a3600080547fffffffffffffffffffffffff0000000000000000000000000000000000000000169055565b6000610823610828565b905090565b6000546001600160a01b031690565b60058054604080516020601f60026000196101006001881615020190951694909404938401819004810282018101909252828152606093909290918301828280156104da5780601f106104af576101008083540402835291602001916104da565b60006108a2610a43565b6000546001600160a01b03908116911614610904576040805162461bcd60e51b815260206004820181905260248201527f4f776e61626c653a2063616c6c6572206973206e6f7420746865206f776e6572604482015290519081900360640190fd5b61091561090f610a43565b83610dcb565b506001919050565b60006104f861092a610a43565b84610585856040518060600160405280602581526020016111526025913960026000610954610a43565b6001600160a01b03908116825260208083019390935260409182016000908120918d1681529252902054919063ffffffff610c9116565b60006104f8610998610a43565b8484610b33565b6001600160a01b03918216600090815260026020908152604080832093909416825291909152205490565b60075481565b6109d8610a43565b6000546001600160a01b03908116911614610a3a576040805162461bcd60e51b815260206004820181905260248201527f4f776e61626c653a2063616c6c6572206973206e6f7420746865206f776e6572604482015290519081900360640190fd5b61072f81610fb9565b3390565b6001600160a01b038316610a8c5760405162461bcd60e51b81526004018080602001828103825260248152602001806110976024913960400191505060405180910390fd5b6001600160a01b038216610ad15760405162461bcd60e51b81526004018080602001828103825260228152602001806111ba6022913960400191505060405180910390fd5b6001600160a01b03808416600081815260026020908152604080832094871680845294825291829020859055815185815291517f8c5be1e5ebec7d5bd14f71427d1e84f3dd0314c0f7b2291e5b200ac8c7c3b9259281900390910190a3505050565b6001600160a01b038316610b785760405162461bcd60e51b81526004018080602001828103825260258152602001806110726025913960400191505060405180910390fd5b6001600160a01b038216610bbd5760405162461bcd60e51b815260040180806020018281038252602381526020018061112f6023913960400191505060405180910390fd5b610c0081604051806060016040528060268152602001611109602691396001600160a01b038616600090815260016020526040902054919063ffffffff610c9116565b6001600160a01b038085166000908152600160205260408082209390935590841681522054610c35908263ffffffff610d2816565b6001600160a01b0380841660008181526001602090815260409182902094909455805185815290519193928716927fddf252ad1be2c89b69c2b068fc378daa952ba7f163c4a11628f55a4df523b3ef92918290030190a3505050565b60008184841115610d205760405162461bcd60e51b81526004018080602001828103825283818151815260200191508051906020019080838360005b83811015610ce5578181015183820152602001610ccd565b50505050905090810190601f168015610d125780820380516001836020036101000a031916815260200191505b509250505060405180910390fd5b505050900390565b600082820183811015610d82576040805162461bcd60e51b815260206004820152601b60248201527f536166654d6174683a206164646974696f6e206f766572666c6f770000000000604482015290519081900360640190fd5b9392505050565b6000610d8283836040518060400160405280601e81526020017f536166654d6174683a207375627472616374696f6e206f766572666c6f770000815250610c91565b6001600160a01b038216610e26576040805162461bcd60e51b815260206004820152601f60248201527f42455032303a206d696e7420746f20746865207a65726f206164647265737300604482015290519081900360640190fd5b600354610e39908263ffffffff610d2816565b6003556001600160a01b038216600090815260016020526040902054610e65908263ffffffff610d2816565b6001600160a01b03831660008181526001602090815260408083209490945583518581529351929391927fddf252ad1be2c89b69c2b068fc378daa952ba7f163c4a11628f55a4df523b3ef9281900390910190a35050565b6001600160a01b038216610f025760405162461bcd60e51b81526004018080602001828103825260218152602001806111776021913960400191505060405180910390fd5b610f4581604051806060016040528060228152602001611198602291396001600160a01b038516600090815260016020526040902054919063ffffffff610c9116565b6001600160a01b038316600090815260016020526040902055600354610f71908263ffffffff610d8916565b6003556040805182815290516000916001600160a01b038516917fddf252ad1be2c89b69c2b068fc378daa952ba7f163c4a11628f55a4df523b3ef9181900360200190a35050565b6001600160a01b038116610ffe5760405162461bcd60e51b81526004018080602001828103825260268152602001806110bb6026913960400191505060405180910390fd5b600080546040516001600160a01b03808516939216917f8be0079c531659141344cd1fd0a4f28419497f9722a3daafe3b4186f6b6457e091a3600080547fffffffffffffffffffffffff0000000000000000000000000000000000000000166001600160a01b039290921691909117905556fe42455032303a207472616e736665722066726f6d20746865207a65726f206164647265737342455032303a20617070726f76652066726f6d20746865207a65726f20616464726573734f776e61626c653a206e6577206f776e657220697320746865207a65726f206164647265737342455032303a207472616e7366657220616d6f756e74206578636565647320616c6c6f77616e636542455032303a207472616e7366657220616d6f756e7420657863656564732062616c616e636542455032303a207472616e7366657220746f20746865207a65726f206164647265737342455032303a2064656372656173656420616c6c6f77616e63652062656c6f77207a65726f42455032303a206275726e2066726f6d20746865207a65726f206164647265737342455032303a206275726e20616d6f756e7420657863656564732062616c616e636542455032303a20617070726f766520746f20746865207a65726f2061646472657373a2646970667358221220f098636111420b4e524e36083fa423090b80681722195a27302c8279bc1226bd64736f6c63430006050033",
  "immutableReferences": {},
  "source": "//SPDX-License-Identifier: MIT\n\npragma solidity >=0.6.2;\n\nimport \"@pancakeswap/pancake-swap-lib/contracts/token/BEP20/BEP20.sol\";\nimport \"@pancakeswap/pancake-swap-lib/contracts/access/Ownable.sol\";\nimport \"@pancakeswap/pancake-swap-lib/contracts/math/SafeMath.sol\";\n\ncontract CRUSHToken is BEP20 (\"Crush Coin\", \"CRUSH\") {\n\n  using SafeMath for uint256;\n  // Constants\n  uint256 constant public MAX_SUPPLY = 30 * 10 ** 24; //30 million tokens are the max Supply\n  \n  // Variables\n  uint256 public tokensBurned = 0;\n\n  constructor() public {}\n\n  function mint(address _benefactor,uint256 _amount) public onlyOwner {\n    uint256 draftSupply = _amount.add( totalSupply() );\n    uint256 maxSupply = MAX_SUPPLY.sub( tokensBurned );\n    require( draftSupply <= maxSupply, \"can't mint more than max.\" );\n    _mint(_benefactor, _amount);\n  }\n\n  function burn(uint256 _amount) public {\n    tokensBurned = tokensBurned.add( _amount ) ;\n    _burn( msg.sender, _amount );\n  }\n\n}",
  "sourcePath": "/Users/umeralisajid/Documents/Frag/bitcrush/crush_contacts_old/contracts/CrushCoin.sol",
  "compiler": {
    "name": "solc",
    "version": "0.6.5+commit.f956cc89.Emscripten.clang"
  },
  "schemaVersion": "3.4.4",
  "updatedAt": "2022-01-21T00:15:08.040Z",
  "devdoc": {
    "methods": {
      "allowance(address,address)": {
        "details": "See {BEP20-allowance}."
      },
      "approve(address,uint256)": {
        "details": "See {BEP20-approve}.     * Requirements:     * - `spender` cannot be the zero address."
      },
      "balanceOf(address)": {
        "details": "See {BEP20-balanceOf}."
      },
      "decimals()": {
        "details": "Returns the token decimals."
      },
      "decreaseAllowance(address,uint256)": {
        "details": "Atomically decreases the allowance granted to `spender` by the caller.     * This is an alternative to {approve} that can be used as a mitigation for problems described in {BEP20-approve}.     * Emits an {Approval} event indicating the updated allowance.     * Requirements:     * - `spender` cannot be the zero address. - `spender` must have allowance for the caller of at least `subtractedValue`."
      },
      "getOwner()": {
        "details": "Returns the bep token owner."
      },
      "increaseAllowance(address,uint256)": {
        "details": "Atomically increases the allowance granted to `spender` by the caller.     * This is an alternative to {approve} that can be used as a mitigation for problems described in {BEP20-approve}.     * Emits an {Approval} event indicating the updated allowance.     * Requirements:     * - `spender` cannot be the zero address."
      },
      "mint(uint256)": {
        "details": "Creates `amount` tokens and assigns them to `msg.sender`, increasing the total supply.     * Requirements     * - `msg.sender` must be the token owner"
      },
      "name()": {
        "details": "Returns the token name."
      },
      "owner()": {
        "details": "Returns the address of the current owner."
      },
      "renounceOwnership()": {
        "details": "Leaves the contract without owner. It will not be possible to call `onlyOwner` functions anymore. Can only be called by the current owner.     * NOTE: Renouncing ownership will leave the contract without an owner, thereby removing any functionality that is only available to the owner."
      },
      "symbol()": {
        "details": "Returns the token symbol."
      },
      "totalSupply()": {
        "details": "See {BEP20-totalSupply}."
      },
      "transfer(address,uint256)": {
        "details": "See {BEP20-transfer}.     * Requirements:     * - `recipient` cannot be the zero address. - the caller must have a balance of at least `amount`."
      },
      "transferFrom(address,address,uint256)": {
        "details": "See {BEP20-transferFrom}.     * Emits an {Approval} event indicating the updated allowance. This is not required by the EIP. See the note at the beginning of {BEP20};     * Requirements: - `sender` and `recipient` cannot be the zero address. - `sender` must have a balance of at least `amount`. - the caller must have allowance for `sender`'s tokens of at least `amount`."
      },
      "transferOwnership(address)": {
        "details": "Transfers ownership of the contract to a new account (`newOwner`). Can only be called by the current owner."
      }
    }
  },
  "userdoc": {
    "methods": {}
  }
}