{
  "abi": [
    {
      "inputs": [
        {
          "internalType": "address",
          "name": "_chef",
          "type": "address"
        },
        {
          "internalType": "address",
          "name": "_baseWrapped",
          "type": "address"
        },
        {
          "internalType": "uint256",
          "name": "_idoPrice",
          "type": "uint256"
        }
      ],
      "stateMutability": "nonpayable",
      "type": "constructor"
    },
    {
      "anonymous": false,
      "inputs": [
        {
          "indexed": true,
          "internalType": "uint256",
          "name": "_pid",
          "type": "uint256"
        }
      ],
      "name": "AddPoolFee",
      "type": "event"
    },
    {
      "anonymous": false,
      "inputs": [
        {
          "indexed": true,
          "internalType": "uint256",
          "name": "_pid",
          "type": "uint256"
        },
        {
          "indexed": false,
          "internalType": "uint256",
          "name": "bb",
          "type": "uint256"
        },
        {
          "indexed": false,
          "internalType": "uint256",
          "name": "liq",
          "type": "uint256"
        },
        {
          "indexed": false,
          "internalType": "uint256",
          "name": "team",
          "type": "uint256"
        }
      ],
      "name": "EditFee",
      "type": "event"
    },
    {
      "anonymous": false,
      "inputs": [
        {
          "indexed": true,
          "internalType": "address",
          "name": "previousOwner",
          "type": "address"
        },
        {
          "indexed": true,
          "internalType": "address",
          "name": "newOwner",
          "type": "address"
        }
      ],
      "name": "OwnershipTransferred",
      "type": "event"
    },
    {
      "anonymous": false,
      "inputs": [
        {
          "indexed": false,
          "internalType": "bool",
          "name": "isNice",
          "type": "bool"
        },
        {
          "indexed": false,
          "internalType": "address",
          "name": "liquidity",
          "type": "address"
        },
        {
          "indexed": false,
          "internalType": "uint256",
          "name": "pathSize",
          "type": "uint256"
        }
      ],
      "name": "UpdateCore",
      "type": "event"
    },
    {
      "anonymous": false,
      "inputs": [
        {
          "indexed": true,
          "internalType": "uint256",
          "name": "_pid",
          "type": "uint256"
        },
        {
          "indexed": false,
          "internalType": "address",
          "name": "router",
          "type": "address"
        }
      ],
      "name": "UpdatePath",
      "type": "event"
    },
    {
      "anonymous": false,
      "inputs": [
        {
          "indexed": true,
          "internalType": "uint256",
          "name": "_pid",
          "type": "uint256"
        },
        {
          "indexed": false,
          "internalType": "address",
          "name": "router",
          "type": "address"
        }
      ],
      "name": "UpdateRouter",
      "type": "event"
    },
    {
      "anonymous": false,
      "inputs": [
        {
          "indexed": false,
          "internalType": "address",
          "name": "_router",
          "type": "address"
        }
      ],
      "name": "UpdateRouter",
      "type": "event"
    },
    {
      "anonymous": false,
      "inputs": [
        {
          "indexed": false,
          "internalType": "address",
          "name": "_teamW",
          "type": "address"
        }
      ],
      "name": "UpdateTeamWallet",
      "type": "event"
    },
    {
      "inputs": [],
      "name": "DIVISOR",
      "outputs": [
        {
          "internalType": "uint256",
          "name": "",
          "type": "uint256"
        }
      ],
      "stateMutability": "view",
      "type": "function"
    },
    {
      "inputs": [
        {
          "internalType": "uint256[5]",
          "name": "_fees",
          "type": "uint256[5]"
        },
        {
          "internalType": "bool",
          "name": "_bbNice",
          "type": "bool"
        },
        {
          "internalType": "bool",
          "name": "_liqNice",
          "type": "bool"
        },
        {
          "internalType": "address",
          "name": "router",
          "type": "address"
        },
        {
          "internalType": "address[]",
          "name": "_tokens",
          "type": "address[]"
        },
        {
          "internalType": "address[]",
          "name": "_token0Path",
          "type": "address[]"
        },
        {
          "internalType": "address[]",
          "name": "_token1Path",
          "type": "address[]"
        }
      ],
      "name": "addorEditFee",
      "outputs": [],
      "stateMutability": "nonpayable",
      "type": "function"
    },
    {
      "inputs": [],
      "name": "baseToken",
      "outputs": [
        {
          "internalType": "address",
          "name": "",
          "type": "address"
        }
      ],
      "stateMutability": "view",
      "type": "function"
    },
    {
      "inputs": [],
      "name": "checkPrice",
      "outputs": [
        {
          "internalType": "bool",
          "name": "_aboveIDO",
          "type": "bool"
        }
      ],
      "stateMutability": "view",
      "type": "function"
    },
    {
      "inputs": [],
      "name": "chef",
      "outputs": [
        {
          "internalType": "contract GalacticChef",
          "name": "",
          "type": "address"
        }
      ],
      "stateMutability": "view",
      "type": "function"
    },
    {
      "inputs": [],
      "name": "crushLiquidity",
      "outputs": [
        {
          "internalType": "address",
          "name": "",
          "type": "address"
        }
      ],
      "stateMutability": "view",
      "type": "function"
    },
    {
      "inputs": [
        {
          "internalType": "uint256",
          "name": "",
          "type": "uint256"
        }
      ],
      "name": "crushPath",
      "outputs": [
        {
          "internalType": "address",
          "name": "",
          "type": "address"
        }
      ],
      "stateMutability": "view",
      "type": "function"
    },
    {
      "inputs": [],
      "name": "deadWallet",
      "outputs": [
        {
          "internalType": "address",
          "name": "",
          "type": "address"
        }
      ],
      "stateMutability": "view",
      "type": "function"
    },
    {
      "inputs": [
        {
          "internalType": "uint256",
          "name": "",
          "type": "uint256"
        }
      ],
      "name": "feeData",
      "outputs": [
        {
          "internalType": "uint256",
          "name": "buyback",
          "type": "uint256"
        },
        {
          "internalType": "uint256",
          "name": "liquidity",
          "type": "uint256"
        },
        {
          "internalType": "uint256",
          "name": "team",
          "type": "uint256"
        },
        {
          "internalType": "bool",
          "name": "bbNice",
          "type": "bool"
        },
        {
          "internalType": "bool",
          "name": "liqNice",
          "type": "bool"
        },
        {
          "internalType": "contract IPancakeRouter",
          "name": "router",
          "type": "address"
        },
        {
          "internalType": "uint256",
          "name": "slippage",
          "type": "uint256"
        }
      ],
      "stateMutability": "view",
      "type": "function"
    },
    {
      "inputs": [],
      "name": "idoPrice",
      "outputs": [
        {
          "internalType": "uint256",
          "name": "",
          "type": "uint256"
        }
      ],
      "stateMutability": "view",
      "type": "function"
    },
    {
      "inputs": [],
      "name": "niceLiquidity",
      "outputs": [
        {
          "internalType": "address",
          "name": "",
          "type": "address"
        }
      ],
      "stateMutability": "view",
      "type": "function"
    },
    {
      "inputs": [
        {
          "internalType": "uint256",
          "name": "",
          "type": "uint256"
        }
      ],
      "name": "nicePath",
      "outputs": [
        {
          "internalType": "address",
          "name": "",
          "type": "address"
        }
      ],
      "stateMutability": "view",
      "type": "function"
    },
    {
      "inputs": [],
      "name": "owner",
      "outputs": [
        {
          "internalType": "address",
          "name": "",
          "type": "address"
        }
      ],
      "stateMutability": "view",
      "type": "function"
    },
    {
      "inputs": [
        {
          "internalType": "uint256",
          "name": "_pid",
          "type": "uint256"
        },
        {
          "internalType": "uint256",
          "name": "_amount",
          "type": "uint256"
        }
      ],
      "name": "receiveFees",
      "outputs": [],
      "stateMutability": "nonpayable",
      "type": "function"
    },
    {
      "inputs": [],
      "name": "renounceOwnership",
      "outputs": [],
      "stateMutability": "nonpayable",
      "type": "function"
    },
    {
      "inputs": [
        {
          "internalType": "address",
          "name": "_newRouter",
          "type": "address"
        }
      ],
      "name": "setBaseRouter",
      "outputs": [],
      "stateMutability": "nonpayable",
      "type": "function"
    },
    {
      "inputs": [
        {
          "internalType": "bool",
          "name": "_isNice",
          "type": "bool"
        },
        {
          "internalType": "address",
          "name": "_liquidity",
          "type": "address"
        },
        {
          "internalType": "address[]",
          "name": "_path",
          "type": "address[]"
        }
      ],
      "name": "setBaseRouting",
      "outputs": [],
      "stateMutability": "nonpayable",
      "type": "function"
    },
    {
      "inputs": [
        {
          "internalType": "address",
          "name": "_newTeamW",
          "type": "address"
        }
      ],
      "name": "setTeamWallet",
      "outputs": [],
      "stateMutability": "nonpayable",
      "type": "function"
    },
    {
      "inputs": [],
      "name": "teamWallet",
      "outputs": [
        {
          "internalType": "address",
          "name": "",
          "type": "address"
        }
      ],
      "stateMutability": "view",
      "type": "function"
    },
    {
      "inputs": [
        {
          "internalType": "uint256",
          "name": "",
          "type": "uint256"
        },
        {
          "internalType": "uint256",
          "name": "",
          "type": "uint256"
        }
      ],
      "name": "token0Path",
      "outputs": [
        {
          "internalType": "address",
          "name": "",
          "type": "address"
        }
      ],
      "stateMutability": "view",
      "type": "function"
    },
    {
      "inputs": [
        {
          "internalType": "uint256",
          "name": "",
          "type": "uint256"
        },
        {
          "internalType": "uint256",
          "name": "",
          "type": "uint256"
        }
      ],
      "name": "token1Path",
      "outputs": [
        {
          "internalType": "address",
          "name": "",
          "type": "address"
        }
      ],
      "stateMutability": "view",
      "type": "function"
    },
    {
      "inputs": [
        {
          "internalType": "uint256",
          "name": "",
          "type": "uint256"
        },
        {
          "internalType": "uint256",
          "name": "",
          "type": "uint256"
        }
      ],
      "name": "tokenPath",
      "outputs": [
        {
          "internalType": "address",
          "name": "",
          "type": "address"
        }
      ],
      "stateMutability": "view",
      "type": "function"
    },
    {
      "inputs": [],
      "name": "tokenRouter",
      "outputs": [
        {
          "internalType": "contract IPancakeRouter",
          "name": "",
          "type": "address"
        }
      ],
      "stateMutability": "view",
      "type": "function"
    },
    {
      "inputs": [
        {
          "internalType": "address",
          "name": "newOwner",
          "type": "address"
        }
      ],
      "name": "transferOwnership",
      "outputs": [],
      "stateMutability": "nonpayable",
      "type": "function"
    }
  ],
  "bytecode": "60e060405261dead60a0523480156200001757600080fd5b5060405162002f3638038062002f368339810160408190526200003a916200013d565b6200004533620000d0565b6001600160a01b038316158015906200006657506001600160a01b03821615155b620000a65760405162461bcd60e51b815260206004820152600c60248201526b5a65726f206164647265737360a01b604482015260640160405180910390fd5b600780546001600160a01b0319166001600160a01b03948516179055911660805260c0526200017e565b600080546001600160a01b038381166001600160a01b0319831681178455604051919092169283917f8be0079c531659141344cd1fd0a4f28419497f9722a3daafe3b4186f6b6457e09190a35050565b80516001600160a01b03811681146200013857600080fd5b919050565b6000806000606084860312156200015357600080fd5b6200015e8462000120565b92506200016e6020850162000120565b9150604084015190509250925092565b60805160a05160c051612d50620001e6600039600081816103a901526113530152600081816102e601528181610d0701528181610f2201528181611cc20152611ec101526000818161036f01528181610bfa01528181610e0d01526120770152612d506000f3fe608060405234801561001057600080fd5b50600436106101585760003560e01c806385141a77116100c3578063c55dae631161007c578063c55dae631461036a578063ca52e29214610391578063cd80fe0d146103a4578063e937a876146103cb578063f2fde38b146103de578063f8b70f03146103f157600080fd5b806385141a77146102e15780638da5cb5b146103085780638e222d23146103195780638fc3047d1461032c578063a562bdba14610344578063b409f4d21461035757600080fd5b80634f348758116101155780634f3487581461027a578063599270441461028d578063659f4bf9146102a0578063715018a6146102b35780637a254a41146102bb5780637d04feff146102ce57600080fd5b8063075b42ab1461015d5780631525ff7d1461018d578063176edd85146101a25780631fc8bc5d146101b55780633410fe6e146101c85780633843418d146101df575b600080fd5b600454610170906001600160a01b031681565b6040516001600160a01b0390911681526020015b60405180910390f35b6101a061019b366004612631565b610404565b005b6101a06101b03660046126b3565b6104cf565b600754610170906001600160a01b031681565b6101d161271081565b604051908152602001610184565b61023a6101ed36600461279d565b6008602052600090815260409020805460018201546002830154600384015460049094015492939192909160ff808216926101008304909116916201000090046001600160a01b03169087565b604080519788526020880196909652948601939093529015156060850152151560808401526001600160a01b031660a083015260c082015260e001610184565b6101a06102883660046127b6565b6107c9565b600654610170906001600160a01b031681565b6101706102ae3660046127b6565b6111db565b6101a0611213565b6101706102c93660046127b6565b611249565b6101706102dc3660046127b6565b611265565b6101707f000000000000000000000000000000000000000000000000000000000000000081565b6000546001600160a01b0316610170565b61017061032736600461279d565b611281565b6103346112ab565b6040519015158152602001610184565b600554610170906001600160a01b031681565b61017061036536600461279d565b611397565b6101707f000000000000000000000000000000000000000000000000000000000000000081565b6101a061039f3660046127d8565b6113a7565b6101d17f000000000000000000000000000000000000000000000000000000000000000081565b600354610170906001600160a01b031681565b6101a06103ec366004612631565b611502565b6101a06103ff366004612631565b61159d565b6000546001600160a01b031633146104375760405162461bcd60e51b815260040161042e9061283d565b60405180910390fd5b6001600160a01b03811661047a5760405162461bcd60e51b815260206004820152600a602482015269043616e742070617920360b41b604482015260640161042e565b600680546001600160a01b0319166001600160a01b0383169081179091556040519081527f88b8edda57af64d7425b090e9e8d925c96d2cc1360afdc15f0da29752103e705906020015b60405180910390a150565b6000546001600160a01b031633146104f95760405162461bcd60e51b815260040161042e9061283d565b61271060608b013561051360408d013560208e013561289e565b61051d919061289e565b1461056a5760405162461bcd60e51b815260206004820152601a60248201527f496e636f72726563742046656520646973747269627574696f6e000000000000604482015260640161042e565b6001600160a01b0387166105b35760405162461bcd60e51b815260206004820152601060248201526f24b731b7b93932b1ba102937baba32b960811b604482015260640161042e565b846105f65760405162461bcd60e51b81526020600482015260136024820152726e6565642061207061746820746f206261736560681b604482015260640161042e565b603260808b01351080159061061157506107d060808b013511155b6106505760405162461bcd60e51b815260206004820152601060248201526f736c69707061676520746f6f206c6f7760801b604482015260640161042e565b6040805160e08101825260208c81013582528c830135908201529081018b6003602002013581526020018a151581526020018915158152602001886001600160a01b031681526020018b6004600581106106ac576106ac612872565b602090810291909101359091528b356000908152600882526040808220845181558484015160018201558482015160028201556060850151600382018054608088015160a08901516001600160a01b0316620100000262010000600160b01b03199115156101000261ff00199515159590951661ffff1990931692909217939093179290921691909117905560c090940151600490940193909355600990915220610758908787612594565b5089356000908152600a60205260409020610774908585612594565b5089356000908152600b60205260409020610790908383612594565b506040518a35907ff7eb02141ad38ebc5b61e51e5bb0e913cea227b9dfc94ea034fb39a9f5fe809f90600090a250505050505050505050565b6007546001600160a01b0316331461080e5760405162461bcd60e51b815260206004820152600860248201526737b7363ca1b432b360c11b604482015260640161042e565b600754604051631526fe2760e01b81526004810184905260009182916001600160a01b0390911690631526fe279060240160e060405180830381865afa15801561085c573d6000803e3d6000fd5b505050506040513d601f19601f8201168201806040525081019061088091906128b6565b60075493985096506108a99550506001600160a01b038088169450909116915030905086611655565b6040516370a0823160e01b815230600482015283906001600160a01b038416906370a0823190602401602060405180830381865afa1580156108ef573d6000803e3d6000fd5b505050506040513d601f19601f82011682018060405250810190610913919061292c565b101561094e5760405162461bcd60e51b815260206004820152600a60248201526973656e642066756e647360b01b604482015260640161042e565b6000848152600860205260408120908215611016576003820154600087815260096020526040808220905163d06ca61f60e01b815291926201000090046001600160a01b03169163d06ca61f916109aa918a919060040161298e565b600060405180830381865afa1580156109c7573d6000803e3d6000fd5b505050506040513d6000823e601f3d908101601f191682016040526109ef91908101906129bd565b600384015460405163095ea7b360e01b81526001600160a01b0362010000909204821660048201526024810189905291925086169063095ea7b3906044016020604051808303816000875af1158015610a4c573d6000803e3d6000fd5b505050506040513d601f19601f82011682018060405250810190610a709190612a7b565b5060038301546000888152600960205260408120805491928392620100009091046001600160a01b03169163baa2abde918490610aaf57610aaf612872565b60009182526020808320909101548d83526009909152604090912080546001600160a01b03909216916001908110610ae957610ae9612872565b600091825260208220015487516001600160a01b03909116918d91899190610b1357610b13612872565b602002602001015188600181518110610b2e57610b2e612872565b602002602001015130426005610b44919061289e565b60405160e089901b6001600160e01b03191681526001600160a01b039788166004820152958716602487015260448601949094526064850192909252608484015290921660a482015260c481019190915260e40160408051808303816000875af1158015610bb6573d6000803e3d6000fd5b505050506040513d601f19601f82011682018060405250810190610bda9190612a98565b60008b815260096020526040812080549395509193506001600160a01b037f00000000000000000000000000000000000000000000000000000000000000001692610c2757610c27612872565b6000918252602090912001546001600160a01b031614610de6576000898152600a60205260409020610c5b908390876116b5565b84600081518110610c6e57610c6e612872565b6020026020010185600181518110610c8857610c88612872565b6020026020010182815250828152505050600083600081518110610cae57610cae612872565b602002602001015183610cc19190612abc565b1115610db95760008981526009602052604081208054909190610ce657610ce6612872565b600091825260208220015484516001600160a01b039091169163a9059cbb917f0000000000000000000000000000000000000000000000000000000000000000918791610d3557610d35612872565b602002602001015185610d489190612abc565b6040516001600160e01b031960e085901b1681526001600160a01b03909216600483015260248201526044016020604051808303816000875af1158015610d93573d6000803e3d6000fd5b505050506040513d601f19601f82011682018060405250810190610db79190612a7b565b505b82600181518110610dcc57610dcc612872565b602002602001015184610ddf919061289e565b9350610df3565b610df0828561289e565b93505b600089815260096020526040902080546001600160a01b037f00000000000000000000000000000000000000000000000000000000000000001691906001908110610e4057610e40612872565b6000918252602090912001546001600160a01b031614611001576000898152600b60205260409020610e74908290876116b5565b84600081518110610e8757610e87612872565b6020026020010185600181518110610ea157610ea1612872565b6020026020010182815250828152505050600083600081518110610ec757610ec7612872565b602002602001015183610eda9190612abc565b1115610fd457600089815260096020526040902080546001908110610f0157610f01612872565b600091825260208220015484516001600160a01b039091169163a9059cbb917f0000000000000000000000000000000000000000000000000000000000000000918791610f5057610f50612872565b602002602001015184610f639190612abc565b6040516001600160e01b031960e085901b1681526001600160a01b03909216600483015260248201526044016020604051808303816000875af1158015610fae573d6000803e3d6000fd5b505050506040513d601f19601f82011682018060405250810190610fd29190612a7b565b505b82600181518110610fe757610fe7612872565b602002602001015184610ffa919061289e565b935061100e565b61100b818561289e565b93505b5050506111c9565b60038201546000878152600a6020526040808220905163d06ca61f60e01b815291926201000090046001600160a01b03169163d06ca61f9161105d918a919060040161298e565b600060405180830381865afa15801561107a573d6000803e3d6000fd5b505050506040513d6000823e601f3d908101601f191682016040526110a291908101906129bd565b600384015460048501549192506201000090046001600160a01b0316906338ed1739908890612710906110d59082612abc565b6110df9190612ad3565b84600186516110ee9190612abc565b815181106110fe576110fe612872565b60200260200101516111109190612af5565b60008b8152600a602052604090203061112a42600561289e565b6040518663ffffffff1660e01b815260040161114a959493929190612b14565b6000604051808303816000875af1158015611169573d6000803e3d6000fd5b505050506040513d6000823e601f3d908101601f1916820160405261119191908101906129bd565b905080600182516111a29190612abc565b815181106111b2576111b2612872565b6020026020010151826111c5919061289e565b9150505b6111d38183611878565b505050505050565b600a60205281600052604060002081815481106111f757600080fd5b6000918252602090912001546001600160a01b03169150829050565b6000546001600160a01b0316331461123d5760405162461bcd60e51b815260040161042e9061283d565b61124760006120f5565b565b600960205281600052604060002081815481106111f757600080fd5b600b60205281600052604060002081815481106111f757600080fd5b6001818154811061129157600080fd5b6000918252602090912001546001600160a01b0316905081565b6000806000600460009054906101000a90046001600160a01b03166001600160a01b0316630902f1ac6040518163ffffffff1660e01b8152600401606060405180830381865afa158015611303573d6000803e3d6000fd5b505050506040513d601f19601f820116820180604052508101906113279190612b67565b506001600160701b031691506001600160701b031691506000811161134d57600161134f565b805b90507f00000000000000000000000000000000000000000000000000000000000000008161138584670de0b6b3a7640000612af5565b61138f9190612ad3565b119250505090565b6002818154811061129157600080fd5b6000546001600160a01b031633146113d15760405162461bcd60e51b815260040161042e9061283d565b6001600160a01b0383166114115760405162461bcd60e51b81526020600482015260076024820152664e6f207a65726f60c81b604482015260640161042e565b600181116114555760405162461bcd60e51b81526020600482015260116024820152706174206c65617374203220746f6b656e7360781b604482015260640161042e565b831561148857600480546001600160a01b0319166001600160a01b03851617905561148260028383612594565b506114b1565b600380546001600160a01b0319166001600160a01b0385161790556114af60018383612594565b505b6040805185151581526001600160a01b03851660208201529081018290527f5666e569c2406262a3ff05c271806a13818161ed87e8b17f5eeb09865d8e5b709060600160405180910390a150505050565b6000546001600160a01b0316331461152c5760405162461bcd60e51b815260040161042e9061283d565b6001600160a01b0381166115915760405162461bcd60e51b815260206004820152602660248201527f4f776e61626c653a206e6577206f776e657220697320746865207a65726f206160448201526564647265737360d01b606482015260840161042e565b61159a816120f5565b50565b6000546001600160a01b031633146115c75760405162461bcd60e51b815260040161042e9061283d565b6001600160a01b0381166116075760405162461bcd60e51b81526020600482015260076024820152664e6f207a65726f60c81b604482015260640161042e565b600580546001600160a01b0319166001600160a01b0383169081179091556040519081527fd5f5b4d616f94f5e10b2955392470790b3fdde7c0c0b68bd1f3ea635e2caa8d7906020016104c4565b604080516001600160a01b0385811660248301528416604482015260648082018490528251808303909101815260849091019091526020810180516001600160e01b03166323b872dd60e01b1790526116af908590612145565b50505050565b600381015460405163d06ca61f60e01b8152600091829182916201000090046001600160a01b03169063d06ca61f906116f4908990899060040161298e565b600060405180830381865afa158015611711573d6000803e3d6000fd5b505050506040513d6000823e601f3d908101601f1916820160405261173991908101906129bd565b600385015460048601549192506201000090046001600160a01b0316906338ed17399088906127109061176c9082612abc565b6117769190612ad3565b8854859061178690600190612abc565b8151811061179657611796612872565b60200260200101516117a89190612af5565b88306117b542600a61289e565b6040518663ffffffff1660e01b81526004016117d5959493929190612b14565b6000604051808303816000875af11580156117f4573d6000803e3d6000fd5b505050506040513d6000823e601f3d908101601f1916820160405261181c91908101906129bd565b90508060008151811061183157611831612872565b6020026020010151866118449190612abc565b925080600182516118559190612abc565b8151811061186557611865612872565b6020026020010151915050935093915050565b805482906000906127109061188d9084612af5565b6118979190612ad3565b60035460045491925060009182918291829182916001600160a01b0391821691166118c06112ab565b15611a9d5760008a60020154116118e0576118db888c612abc565b6118fd565b6127108a600101548c6118f39190612af5565b6118fd9190612ad3565b955061190a600287612ad3565b60038b0154909750610100900460ff166119245786611927565b60005b60038b015460ff16611939578861193c565b60005b611946919061289e565b60038b0154909550610100900460ff16611961576000611963565b865b60038b015460ff16611976576000611978565b885b611982919061289e565b60038b0154909450610100900460ff1661199c578461199e565b835b95508415611a1d57611a0b85826002805480602002602001604051908101604052809291908181526020018280548015611a0157602002820191906000526020600020905b81546001600160a01b031681526001909101906020018083116119e3575b505050505061221c565b9095509250611a1a838a612abc565b98505b8315611a9857611a8684836001805480602002602001604051908101604052809291908181526020018280548015611a01576020028201919060005260206000209081546001600160a01b031681526001909101906020018083116119e357505050505061221c565b9094509250611a95838a612abc565b98505b611b12565b611b008b826002805480602002602001604051908101604052809291908181526020018280548015611a01576020028201919060005260206000209081546001600160a01b031681526001909101906020018083116119e357505050505061221c565b9095509250611b0f838a612abc565b98505b8615611f4557600086611b2a8964e8d4a51000612af5565b611b349190612ad3565b60038c0154909150610100900460ff1615611d485764e8d4a51000611b598288612af5565b611b639190612ad3565b600554600280549293506001600160a01b039091169163e8e337009190600090611b8f57611b8f612872565b600091825260209091200154600280546001600160a01b03909216916001908110611bbc57611bbc612872565b6000918252602090912001546001600160a01b03168b64e8d4a51000611be2878d612af5565b611bec9190612ad3565b612710611bfa8f6064612af5565b611c049190612ad3565b612710611c128e6064612af5565b611c1c9190612ad3565b30611c2842600561289e565b6040518963ffffffff1660e01b8152600401611c4b989796959493929190612bb7565b6060604051808303816000875af1158015611c6a573d6000803e3d6000fd5b505050506040513d601f19601f82011682018060405250810190611c8e9190612c00565b99509097509050611c9f8187612abc565b9550611cab878b612abc565b60405163a9059cbb60e01b81526001600160a01b037f000000000000000000000000000000000000000000000000000000000000000081166004830152602482018b9052919b509083169063a9059cbb906044016020604051808303816000875af1158015611d1e573d6000803e3d6000fd5b505050506040513d601f19601f82011682018060405250810190611d429190612a7b565b50611f43565b64e8d4a51000611d588287612af5565b611d629190612ad3565b600554600280549293506001600160a01b039091169163e8e337009190600090611d8e57611d8e612872565b600091825260209091200154600280546001600160a01b03909216916001908110611dbb57611dbb612872565b6000918252602090912001546001600160a01b03168b64e8d4a51000611de1878c612af5565b611deb9190612ad3565b612710611df98f6064612af5565b611e039190612ad3565b612710611e118d6064612af5565b611e1b9190612ad3565b30611e2742600561289e565b6040518963ffffffff1660e01b8152600401611e4a989796959493929190612bb7565b6060604051808303816000875af1158015611e69573d6000803e3d6000fd5b505050506040513d601f19601f82011682018060405250810190611e8d9190612c00565b99509097509050611e9e8186612abc565b9450611eaa878b612abc565b60405163a9059cbb60e01b81526001600160a01b037f000000000000000000000000000000000000000000000000000000000000000081166004830152602482018b9052919b509084169063a9059cbb906044016020604051808303816000875af1158015611f1d573d6000803e3d6000fd5b505050506040513d601f19601f82011682018060405250810190611f419190612a7b565b505b505b8415611fc7576002600181548110611f5f57611f5f612872565b600091825260209091200154604051630852cd8d60e31b8152600481018790526001600160a01b03909116906342966c6890602401600060405180830381600087803b158015611fae57600080fd5b505af1158015611fc2573d6000803e3d6000fd5b505050505b83156120485760018081548110611fe057611fe0612872565b600091825260209091200154604051630852cd8d60e31b8152600481018690526001600160a01b03909116906342966c6890602401600060405180830381600087803b15801561202f57600080fd5b505af1158015612043573d6000803e3d6000fd5b505050505b88156120e85760065460405163a9059cbb60e01b81526001600160a01b039182166004820152602481018b90527f00000000000000000000000000000000000000000000000000000000000000009091169063a9059cbb906044016020604051808303816000875af11580156120c2573d6000803e3d6000fd5b505050506040513d601f19601f820116820180604052508101906120e69190612a7b565b505b5050505050505050505050565b600080546001600160a01b038381166001600160a01b0319831681178455604051919092169283917f8be0079c531659141344cd1fd0a4f28419497f9722a3daafe3b4186f6b6457e09190a35050565b600061219a826040518060400160405280602081526020017f5361666545524332303a206c6f772d6c6576656c2063616c6c206661696c6564815250856001600160a01b03166124119092919063ffffffff16565b80519091501561221757808060200190518101906121b89190612a7b565b6122175760405162461bcd60e51b815260206004820152602a60248201527f5361666545524332303a204552433230206f7065726174696f6e20646964206e6044820152691bdd081cdd58d8d9595960b21b606482015260840161042e565b505050565b600080600080856001600160a01b0316630902f1ac6040518163ffffffff1660e01b8152600401606060405180830381865afa158015612260573d6000803e3d6000fd5b505050506040513d601f19601f820116820180604052508101906122849190612b67565b50600554604051630153543560e21b8152600481018b90526001600160701b039384166024820181905292909316604484018190529194509092506000916001600160a01b039091169063054d50d490606401602060405180830381865afa1580156122f4573d6000803e3d6000fd5b505050506040513d601f19601f82011682018060405250810190612318919061292c565b6005549091506000906001600160a01b03166338ed17398a6103e861233f866103de612af5565b6123499190612ad3565b8a3061235642600561289e565b6040518663ffffffff1660e01b8152600401612376959493929190612c2e565b6000604051808303816000875af1158015612395573d6000803e3d6000fd5b505050506040513d6000823e601f3d908101601f191682016040526123bd91908101906129bd565b905080600182516123ce9190612abc565b815181106123de576123de612872565b60200260200101519550806000815181106123fb576123fb612872565b6020026020010151945050505050935093915050565b6060612420848460008561242a565b90505b9392505050565b60608247101561248b5760405162461bcd60e51b815260206004820152602660248201527f416464726573733a20696e73756666696369656e742062616c616e636520666f6044820152651c8818d85b1b60d21b606482015260840161042e565b6001600160a01b0385163b6124e25760405162461bcd60e51b815260206004820152601d60248201527f416464726573733a2063616c6c20746f206e6f6e2d636f6e7472616374000000604482015260640161042e565b600080866001600160a01b031685876040516124fe9190612ccb565b60006040518083038185875af1925050503d806000811461253b576040519150601f19603f3d011682016040523d82523d6000602084013e612540565b606091505b509150915061255082828661255b565b979650505050505050565b6060831561256a575081612423565b82511561257a5782518084602001fd5b8160405162461bcd60e51b815260040161042e9190612ce7565b8280548282559060005260206000209081019282156125e7579160200282015b828111156125e75781546001600160a01b0319166001600160a01b038435161782556020909201916001909101906125b4565b506125f39291506125f7565b5090565b5b808211156125f357600081556001016125f8565b6001600160a01b038116811461159a57600080fd5b803561262c8161260c565b919050565b60006020828403121561264357600080fd5b81356124238161260c565b801515811461159a57600080fd5b803561262c8161264e565b60008083601f84011261267957600080fd5b50813567ffffffffffffffff81111561269157600080fd5b6020830191508360208260051b85010111156126ac57600080fd5b9250929050565b6000806000806000806000806000806101608b8d0312156126d357600080fd5b60a08b018c8111156126e457600080fd5b8b9a506126f08161265c565b9950506126ff60c08c0161265c565b975061270d60e08c01612621565b96506101008b013567ffffffffffffffff8082111561272b57600080fd5b6127378e838f01612667565b90985096506101208d013591508082111561275157600080fd5b61275d8e838f01612667565b90965094506101408d013591508082111561277757600080fd5b506127848d828e01612667565b915080935050809150509295989b9194979a5092959850565b6000602082840312156127af57600080fd5b5035919050565b600080604083850312156127c957600080fd5b50508035926020909101359150565b600080600080606085870312156127ee57600080fd5b84356127f98161264e565b935060208501356128098161260c565b9250604085013567ffffffffffffffff81111561282557600080fd5b61283187828801612667565b95989497509550505050565b6020808252818101527f4f776e61626c653a2063616c6c6572206973206e6f7420746865206f776e6572604082015260600190565b634e487b7160e01b600052603260045260246000fd5b634e487b7160e01b600052601160045260246000fd5b600082198211156128b1576128b1612888565b500190565b600080600080600080600060e0888a0312156128d157600080fd5b87516128dc8161264e565b80975050602088015195506040880151945060608801516128fc8161260c565b809450506080880151925060a0880151915060c088015161291c8161264e565b8091505092959891949750929550565b60006020828403121561293e57600080fd5b5051919050565b6000815480845260208085019450836000528060002060005b838110156129835781546001600160a01b03168752958201956001918201910161295e565b509495945050505050565b8281526040602082015260006124206040830184612945565b634e487b7160e01b600052604160045260246000fd5b600060208083850312156129d057600080fd5b825167ffffffffffffffff808211156129e857600080fd5b818501915085601f8301126129fc57600080fd5b815181811115612a0e57612a0e6129a7565b8060051b604051601f19603f83011681018181108582111715612a3357612a336129a7565b604052918252848201925083810185019188831115612a5157600080fd5b938501935b82851015612a6f57845184529385019392850192612a56565b98975050505050505050565b600060208284031215612a8d57600080fd5b81516124238161264e565b60008060408385031215612aab57600080fd5b505080516020909101519092909150565b600082821015612ace57612ace612888565b500390565b600082612af057634e487b7160e01b600052601260045260246000fd5b500490565b6000816000190483118215151615612b0f57612b0f612888565b500290565b85815284602082015260a060408201526000612b3360a0830186612945565b6001600160a01b0394909416606083015250608001529392505050565b80516001600160701b038116811461262c57600080fd5b600080600060608486031215612b7c57600080fd5b612b8584612b50565b9250612b9360208501612b50565b9150604084015163ffffffff81168114612bac57600080fd5b809150509250925092565b6001600160a01b039889168152968816602088015260408701959095526060860193909352608085019190915260a084015290921660c082015260e08101919091526101000190565b600080600060608486031215612c1557600080fd5b8351925060208401519150604084015190509250925092565b600060a082018783526020878185015260a0604085015281875180845260c086019150828901935060005b81811015612c7e5784516001600160a01b031683529383019391830191600101612c59565b50506001600160a01b03969096166060850152505050608001529392505050565b60005b83811015612cba578181015183820152602001612ca2565b838111156116af5750506000910152565b60008251612cdd818460208701612c9f565b9190910192915050565b6020815260008251806020840152612d06816040850160208701612c9f565b601f01601f1916919091016040019291505056fea2646970667358221220b54e46dd48f40c5492cf7df8434851c71c262be68206a0616c088b705aa329fe64736f6c634300080c0033",
  "bytecodeSha1": "98678634a190c60aed551cf1738fbc504c8461b6",
  "compiler": {
    "evm_version": "istanbul",
    "optimizer": {
      "enabled": true,
      "runs": 200
    },
    "version": "0.8.12+commit.f00d7308"
  },
  "contractName": "FeeDistributor",
  "language": "Solidity",
  "natspec": {
    "kind": "dev",
    "methods": {
      "checkPrice()": {
        "details": "",
        "notice": "Check that current Nice Price is above IDO"
      },
      "owner()": {
        "details": "Returns the address of the current owner."
      },
      "receiveFees(uint256,uint256)": {
        "details": "This function requires funds to be sent beforehand to this contract",
        "notice": "Function that distributes fees to the respective flows"
      },
      "renounceOwnership()": {
        "details": "Leaves the contract without owner. It will not be possible to call `onlyOwner` functions anymore. Can only be called by the current owner. NOTE: Renouncing ownership will leave the contract without an owner, thereby removing any functionality that is only available to the owner."
      },
      "transferOwnership(address)": {
        "details": "Transfers ownership of the contract to a new account (`newOwner`). Can only be called by the current owner."
      }
    },
    "version": 1
  },
  "opcodes": "PUSH1 0x80 PUSH1 0x40 MSTORE CALLVALUE DUP1 ISZERO PUSH2 0x10 JUMPI PUSH1 0x0 DUP1 REVERT JUMPDEST POP PUSH1 0x4 CALLDATASIZE LT PUSH2 0x158 JUMPI PUSH1 0x0 CALLDATALOAD PUSH1 0xE0 SHR DUP1 PUSH4 0x85141A77 GT PUSH2 0xC3 JUMPI DUP1 PUSH4 0xC55DAE63 GT PUSH2 0x7C JUMPI DUP1 PUSH4 0xC55DAE63 EQ PUSH2 0x36A JUMPI DUP1 PUSH4 0xCA52E292 EQ PUSH2 0x391 JUMPI DUP1 PUSH4 0xCD80FE0D EQ PUSH2 0x3A4 JUMPI DUP1 PUSH4 0xE937A876 EQ PUSH2 0x3CB JUMPI DUP1 PUSH4 0xF2FDE38B EQ PUSH2 0x3DE JUMPI DUP1 PUSH4 0xF8B70F03 EQ PUSH2 0x3F1 JUMPI PUSH1 0x0 DUP1 REVERT JUMPDEST DUP1 PUSH4 0x85141A77 EQ PUSH2 0x2E1 JUMPI DUP1 PUSH4 0x8DA5CB5B EQ PUSH2 0x308 JUMPI DUP1 PUSH4 0x8E222D23 EQ PUSH2 0x319 JUMPI DUP1 PUSH4 0x8FC3047D EQ PUSH2 0x32C JUMPI DUP1 PUSH4 0xA562BDBA EQ PUSH2 0x344 JUMPI DUP1 PUSH4 0xB409F4D2 EQ PUSH2 0x357 JUMPI PUSH1 0x0 DUP1 REVERT JUMPDEST DUP1 PUSH4 0x4F348758 GT PUSH2 0x115 JUMPI DUP1 PUSH4 0x4F348758 EQ PUSH2 0x27A JUMPI DUP1 PUSH4 0x59927044 EQ PUSH2 0x28D JUMPI DUP1 PUSH4 0x659F4BF9 EQ PUSH2 0x2A0 JUMPI DUP1 PUSH4 0x715018A6 EQ PUSH2 0x2B3 JUMPI DUP1 PUSH4 0x7A254A41 EQ PUSH2 0x2BB JUMPI DUP1 PUSH4 0x7D04FEFF EQ PUSH2 0x2CE JUMPI PUSH1 0x0 DUP1 REVERT JUMPDEST DUP1 PUSH4 0x75B42AB EQ PUSH2 0x15D JUMPI DUP1 PUSH4 0x1525FF7D EQ PUSH2 0x18D JUMPI DUP1 PUSH4 0x176EDD85 EQ PUSH2 0x1A2 JUMPI DUP1 PUSH4 0x1FC8BC5D EQ PUSH2 0x1B5 JUMPI DUP1 PUSH4 0x3410FE6E EQ PUSH2 0x1C8 JUMPI DUP1 PUSH4 0x3843418D EQ PUSH2 0x1DF JUMPI JUMPDEST PUSH1 0x0 DUP1 REVERT JUMPDEST PUSH1 0x4 SLOAD PUSH2 0x170 SWAP1 PUSH1 0x1 PUSH1 0x1 PUSH1 0xA0 SHL SUB AND DUP2 JUMP JUMPDEST PUSH1 0x40 MLOAD PUSH1 0x1 PUSH1 0x1 PUSH1 0xA0 SHL SUB SWAP1 SWAP2 AND DUP2 MSTORE PUSH1 0x20 ADD JUMPDEST PUSH1 0x40 MLOAD DUP1 SWAP2 SUB SWAP1 RETURN JUMPDEST PUSH2 0x1A0 PUSH2 0x19B CALLDATASIZE PUSH1 0x4 PUSH2 0x2631 JUMP JUMPDEST PUSH2 0x404 JUMP JUMPDEST STOP JUMPDEST PUSH2 0x1A0 PUSH2 0x1B0 CALLDATASIZE PUSH1 0x4 PUSH2 0x26B3 JUMP JUMPDEST PUSH2 0x4CF JUMP JUMPDEST PUSH1 0x7 SLOAD PUSH2 0x170 SWAP1 PUSH1 0x1 PUSH1 0x1 PUSH1 0xA0 SHL SUB AND DUP2 JUMP JUMPDEST PUSH2 0x1D1 PUSH2 0x2710 DUP2 JUMP JUMPDEST PUSH1 0x40 MLOAD SWAP1 DUP2 MSTORE PUSH1 0x20 ADD PUSH2 0x184 JUMP JUMPDEST PUSH2 0x23A PUSH2 0x1ED CALLDATASIZE PUSH1 0x4 PUSH2 0x279D JUMP JUMPDEST PUSH1 0x8 PUSH1 0x20 MSTORE PUSH1 0x0 SWAP1 DUP2 MSTORE PUSH1 0x40 SWAP1 KECCAK256 DUP1 SLOAD PUSH1 0x1 DUP3 ADD SLOAD PUSH1 0x2 DUP4 ADD SLOAD PUSH1 0x3 DUP5 ADD SLOAD PUSH1 0x4 SWAP1 SWAP5 ADD SLOAD SWAP3 SWAP4 SWAP2 SWAP3 SWAP1 SWAP2 PUSH1 0xFF DUP1 DUP3 AND SWAP3 PUSH2 0x100 DUP4 DIV SWAP1 SWAP2 AND SWAP2 PUSH3 0x10000 SWAP1 DIV PUSH1 0x1 PUSH1 0x1 PUSH1 0xA0 SHL SUB AND SWAP1 DUP8 JUMP JUMPDEST PUSH1 0x40 DUP1 MLOAD SWAP8 DUP9 MSTORE PUSH1 0x20 DUP9 ADD SWAP7 SWAP1 SWAP7 MSTORE SWAP5 DUP7 ADD SWAP4 SWAP1 SWAP4 MSTORE SWAP1 ISZERO ISZERO PUSH1 0x60 DUP6 ADD MSTORE ISZERO ISZERO PUSH1 0x80 DUP5 ADD MSTORE PUSH1 0x1 PUSH1 0x1 PUSH1 0xA0 SHL SUB AND PUSH1 0xA0 DUP4 ADD MSTORE PUSH1 0xC0 DUP3 ADD MSTORE PUSH1 0xE0 ADD PUSH2 0x184 JUMP JUMPDEST PUSH2 0x1A0 PUSH2 0x288 CALLDATASIZE PUSH1 0x4 PUSH2 0x27B6 JUMP JUMPDEST PUSH2 0x7C9 JUMP JUMPDEST PUSH1 0x6 SLOAD PUSH2 0x170 SWAP1 PUSH1 0x1 PUSH1 0x1 PUSH1 0xA0 SHL SUB AND DUP2 JUMP JUMPDEST PUSH2 0x170 PUSH2 0x2AE CALLDATASIZE PUSH1 0x4 PUSH2 0x27B6 JUMP JUMPDEST PUSH2 0x11DB JUMP JUMPDEST PUSH2 0x1A0 PUSH2 0x1213 JUMP JUMPDEST PUSH2 0x170 PUSH2 0x2C9 CALLDATASIZE PUSH1 0x4 PUSH2 0x27B6 JUMP JUMPDEST PUSH2 0x1249 JUMP JUMPDEST PUSH2 0x170 PUSH2 0x2DC CALLDATASIZE PUSH1 0x4 PUSH2 0x27B6 JUMP JUMPDEST PUSH2 0x1265 JUMP JUMPDEST PUSH2 0x170 PUSH32 0x0 DUP2 JUMP JUMPDEST PUSH1 0x0 SLOAD PUSH1 0x1 PUSH1 0x1 PUSH1 0xA0 SHL SUB AND PUSH2 0x170 JUMP JUMPDEST PUSH2 0x170 PUSH2 0x327 CALLDATASIZE PUSH1 0x4 PUSH2 0x279D JUMP JUMPDEST PUSH2 0x1281 JUMP JUMPDEST PUSH2 0x334 PUSH2 0x12AB JUMP JUMPDEST PUSH1 0x40 MLOAD SWAP1 ISZERO ISZERO DUP2 MSTORE PUSH1 0x20 ADD PUSH2 0x184 JUMP JUMPDEST PUSH1 0x5 SLOAD PUSH2 0x170 SWAP1 PUSH1 0x1 PUSH1 0x1 PUSH1 0xA0 SHL SUB AND DUP2 JUMP JUMPDEST PUSH2 0x170 PUSH2 0x365 CALLDATASIZE PUSH1 0x4 PUSH2 0x279D JUMP JUMPDEST PUSH2 0x1397 JUMP JUMPDEST PUSH2 0x170 PUSH32 0x0 DUP2 JUMP JUMPDEST PUSH2 0x1A0 PUSH2 0x39F CALLDATASIZE PUSH1 0x4 PUSH2 0x27D8 JUMP JUMPDEST PUSH2 0x13A7 JUMP JUMPDEST PUSH2 0x1D1 PUSH32 0x0 DUP2 JUMP JUMPDEST PUSH1 0x3 SLOAD PUSH2 0x170 SWAP1 PUSH1 0x1 PUSH1 0x1 PUSH1 0xA0 SHL SUB AND DUP2 JUMP JUMPDEST PUSH2 0x1A0 PUSH2 0x3EC CALLDATASIZE PUSH1 0x4 PUSH2 0x2631 JUMP JUMPDEST PUSH2 0x1502 JUMP JUMPDEST PUSH2 0x1A0 PUSH2 0x3FF CALLDATASIZE PUSH1 0x4 PUSH2 0x2631 JUMP JUMPDEST PUSH2 0x159D JUMP JUMPDEST PUSH1 0x0 SLOAD PUSH1 0x1 PUSH1 0x1 PUSH1 0xA0 SHL SUB AND CALLER EQ PUSH2 0x437 JUMPI PUSH1 0x40 MLOAD PUSH3 0x461BCD PUSH1 0xE5 SHL DUP2 MSTORE PUSH1 0x4 ADD PUSH2 0x42E SWAP1 PUSH2 0x283D JUMP JUMPDEST PUSH1 0x40 MLOAD DUP1 SWAP2 SUB SWAP1 REVERT JUMPDEST PUSH1 0x1 PUSH1 0x1 PUSH1 0xA0 SHL SUB DUP2 AND PUSH2 0x47A JUMPI PUSH1 0x40 MLOAD PUSH3 0x461BCD PUSH1 0xE5 SHL DUP2 MSTORE PUSH1 0x20 PUSH1 0x4 DUP3 ADD MSTORE PUSH1 0xA PUSH1 0x24 DUP3 ADD MSTORE PUSH10 0x43616E7420706179203 PUSH1 0xB4 SHL PUSH1 0x44 DUP3 ADD MSTORE PUSH1 0x64 ADD PUSH2 0x42E JUMP JUMPDEST PUSH1 0x6 DUP1 SLOAD PUSH1 0x1 PUSH1 0x1 PUSH1 0xA0 SHL SUB NOT AND PUSH1 0x1 PUSH1 0x1 PUSH1 0xA0 SHL SUB DUP4 AND SWAP1 DUP2 OR SWAP1 SWAP2 SSTORE PUSH1 0x40 MLOAD SWAP1 DUP2 MSTORE PUSH32 0x88B8EDDA57AF64D7425B090E9E8D925C96D2CC1360AFDC15F0DA29752103E705 SWAP1 PUSH1 0x20 ADD JUMPDEST PUSH1 0x40 MLOAD DUP1 SWAP2 SUB SWAP1 LOG1 POP JUMP JUMPDEST PUSH1 0x0 SLOAD PUSH1 0x1 PUSH1 0x1 PUSH1 0xA0 SHL SUB AND CALLER EQ PUSH2 0x4F9 JUMPI PUSH1 0x40 MLOAD PUSH3 0x461BCD PUSH1 0xE5 SHL DUP2 MSTORE PUSH1 0x4 ADD PUSH2 0x42E SWAP1 PUSH2 0x283D JUMP JUMPDEST PUSH2 0x2710 PUSH1 0x60 DUP12 ADD CALLDATALOAD PUSH2 0x513 PUSH1 0x40 DUP14 ADD CALLDATALOAD PUSH1 0x20 DUP15 ADD CALLDATALOAD PUSH2 0x289E JUMP JUMPDEST PUSH2 0x51D SWAP2 SWAP1 PUSH2 0x289E JUMP JUMPDEST EQ PUSH2 0x56A JUMPI PUSH1 0x40 MLOAD PUSH3 0x461BCD PUSH1 0xE5 SHL DUP2 MSTORE PUSH1 0x20 PUSH1 0x4 DUP3 ADD MSTORE PUSH1 0x1A PUSH1 0x24 DUP3 ADD MSTORE PUSH32 0x496E636F72726563742046656520646973747269627574696F6E000000000000 PUSH1 0x44 DUP3 ADD MSTORE PUSH1 0x64 ADD PUSH2 0x42E JUMP JUMPDEST PUSH1 0x1 PUSH1 0x1 PUSH1 0xA0 SHL SUB DUP8 AND PUSH2 0x5B3 JUMPI PUSH1 0x40 MLOAD PUSH3 0x461BCD PUSH1 0xE5 SHL DUP2 MSTORE PUSH1 0x20 PUSH1 0x4 DUP3 ADD MSTORE PUSH1 0x10 PUSH1 0x24 DUP3 ADD MSTORE PUSH16 0x24B731B7B93932B1BA102937BABA32B9 PUSH1 0x81 SHL PUSH1 0x44 DUP3 ADD MSTORE PUSH1 0x64 ADD PUSH2 0x42E JUMP JUMPDEST DUP5 PUSH2 0x5F6 JUMPI PUSH1 0x40 MLOAD PUSH3 0x461BCD PUSH1 0xE5 SHL DUP2 MSTORE PUSH1 0x20 PUSH1 0x4 DUP3 ADD MSTORE PUSH1 0x13 PUSH1 0x24 DUP3 ADD MSTORE PUSH19 0x6E6565642061207061746820746F2062617365 PUSH1 0x68 SHL PUSH1 0x44 DUP3 ADD MSTORE PUSH1 0x64 ADD PUSH2 0x42E JUMP JUMPDEST PUSH1 0x32 PUSH1 0x80 DUP12 ADD CALLDATALOAD LT DUP1 ISZERO SWAP1 PUSH2 0x611 JUMPI POP PUSH2 0x7D0 PUSH1 0x80 DUP12 ADD CALLDATALOAD GT ISZERO JUMPDEST PUSH2 0x650 JUMPI PUSH1 0x40 MLOAD PUSH3 0x461BCD PUSH1 0xE5 SHL DUP2 MSTORE PUSH1 0x20 PUSH1 0x4 DUP3 ADD MSTORE PUSH1 0x10 PUSH1 0x24 DUP3 ADD MSTORE PUSH16 0x736C69707061676520746F6F206C6F77 PUSH1 0x80 SHL PUSH1 0x44 DUP3 ADD MSTORE PUSH1 0x64 ADD PUSH2 0x42E JUMP JUMPDEST PUSH1 0x40 DUP1 MLOAD PUSH1 0xE0 DUP2 ADD DUP3 MSTORE PUSH1 0x20 DUP13 DUP2 ADD CALLDATALOAD DUP3 MSTORE DUP13 DUP4 ADD CALLDATALOAD SWAP1 DUP3 ADD MSTORE SWAP1 DUP2 ADD DUP12 PUSH1 0x3 PUSH1 0x20 MUL ADD CALLDATALOAD DUP2 MSTORE PUSH1 0x20 ADD DUP11 ISZERO ISZERO DUP2 MSTORE PUSH1 0x20 ADD DUP10 ISZERO ISZERO DUP2 MSTORE PUSH1 0x20 ADD DUP9 PUSH1 0x1 PUSH1 0x1 PUSH1 0xA0 SHL SUB AND DUP2 MSTORE PUSH1 0x20 ADD DUP12 PUSH1 0x4 PUSH1 0x5 DUP2 LT PUSH2 0x6AC JUMPI PUSH2 0x6AC PUSH2 0x2872 JUMP JUMPDEST PUSH1 0x20 SWAP1 DUP2 MUL SWAP2 SWAP1 SWAP2 ADD CALLDATALOAD SWAP1 SWAP2 MSTORE DUP12 CALLDATALOAD PUSH1 0x0 SWAP1 DUP2 MSTORE PUSH1 0x8 DUP3 MSTORE PUSH1 0x40 DUP1 DUP3 KECCAK256 DUP5 MLOAD DUP2 SSTORE DUP5 DUP5 ADD MLOAD PUSH1 0x1 DUP3 ADD SSTORE DUP5 DUP3 ADD MLOAD PUSH1 0x2 DUP3 ADD SSTORE PUSH1 0x60 DUP6 ADD MLOAD PUSH1 0x3 DUP3 ADD DUP1 SLOAD PUSH1 0x80 DUP9 ADD MLOAD PUSH1 0xA0 DUP10 ADD MLOAD PUSH1 0x1 PUSH1 0x1 PUSH1 0xA0 SHL SUB AND PUSH3 0x10000 MUL PUSH3 0x10000 PUSH1 0x1 PUSH1 0xB0 SHL SUB NOT SWAP2 ISZERO ISZERO PUSH2 0x100 MUL PUSH2 0xFF00 NOT SWAP6 ISZERO ISZERO SWAP6 SWAP1 SWAP6 AND PUSH2 0xFFFF NOT SWAP1 SWAP4 AND SWAP3 SWAP1 SWAP3 OR SWAP4 SWAP1 SWAP4 OR SWAP3 SWAP1 SWAP3 AND SWAP2 SWAP1 SWAP2 OR SWAP1 SSTORE PUSH1 0xC0 SWAP1 SWAP5 ADD MLOAD PUSH1 0x4 SWAP1 SWAP5 ADD SWAP4 SWAP1 SWAP4 SSTORE PUSH1 0x9 SWAP1 SWAP2 MSTORE KECCAK256 PUSH2 0x758 SWAP1 DUP8 DUP8 PUSH2 0x2594 JUMP JUMPDEST POP DUP10 CALLDATALOAD PUSH1 0x0 SWAP1 DUP2 MSTORE PUSH1 0xA PUSH1 0x20 MSTORE PUSH1 0x40 SWAP1 KECCAK256 PUSH2 0x774 SWAP1 DUP6 DUP6 PUSH2 0x2594 JUMP JUMPDEST POP DUP10 CALLDATALOAD PUSH1 0x0 SWAP1 DUP2 MSTORE PUSH1 0xB PUSH1 0x20 MSTORE PUSH1 0x40 SWAP1 KECCAK256 PUSH2 0x790 SWAP1 DUP4 DUP4 PUSH2 0x2594 JUMP JUMPDEST POP PUSH1 0x40 MLOAD DUP11 CALLDATALOAD SWAP1 PUSH32 0xF7EB02141AD38EBC5B61E51E5BB0E913CEA227B9DFC94EA034FB39A9F5FE809F SWAP1 PUSH1 0x0 SWAP1 LOG2 POP POP POP POP POP POP POP POP POP POP JUMP JUMPDEST PUSH1 0x7 SLOAD PUSH1 0x1 PUSH1 0x1 PUSH1 0xA0 SHL SUB AND CALLER EQ PUSH2 0x80E JUMPI PUSH1 0x40 MLOAD PUSH3 0x461BCD PUSH1 0xE5 SHL DUP2 MSTORE PUSH1 0x20 PUSH1 0x4 DUP3 ADD MSTORE PUSH1 0x8 PUSH1 0x24 DUP3 ADD MSTORE PUSH8 0x37B7363CA1B432B3 PUSH1 0xC1 SHL PUSH1 0x44 DUP3 ADD MSTORE PUSH1 0x64 ADD PUSH2 0x42E JUMP JUMPDEST PUSH1 0x7 SLOAD PUSH1 0x40 MLOAD PUSH4 0x1526FE27 PUSH1 0xE0 SHL DUP2 MSTORE PUSH1 0x4 DUP2 ADD DUP5 SWAP1 MSTORE PUSH1 0x0 SWAP2 DUP3 SWAP2 PUSH1 0x1 PUSH1 0x1 PUSH1 0xA0 SHL SUB SWAP1 SWAP2 AND SWAP1 PUSH4 0x1526FE27 SWAP1 PUSH1 0x24 ADD PUSH1 0xE0 PUSH1 0x40 MLOAD DUP1 DUP4 SUB DUP2 DUP7 GAS STATICCALL ISZERO DUP1 ISZERO PUSH2 0x85C JUMPI RETURNDATASIZE PUSH1 0x0 DUP1 RETURNDATACOPY RETURNDATASIZE PUSH1 0x0 REVERT JUMPDEST POP POP POP POP PUSH1 0x40 MLOAD RETURNDATASIZE PUSH1 0x1F NOT PUSH1 0x1F DUP3 ADD AND DUP3 ADD DUP1 PUSH1 0x40 MSTORE POP DUP2 ADD SWAP1 PUSH2 0x880 SWAP2 SWAP1 PUSH2 0x28B6 JUMP JUMPDEST PUSH1 0x7 SLOAD SWAP4 SWAP9 POP SWAP7 POP PUSH2 0x8A9 SWAP6 POP POP PUSH1 0x1 PUSH1 0x1 PUSH1 0xA0 SHL SUB DUP1 DUP9 AND SWAP5 POP SWAP1 SWAP2 AND SWAP2 POP ADDRESS SWAP1 POP DUP7 PUSH2 0x1655 JUMP JUMPDEST PUSH1 0x40 MLOAD PUSH4 0x70A08231 PUSH1 0xE0 SHL DUP2 MSTORE ADDRESS PUSH1 0x4 DUP3 ADD MSTORE DUP4 SWAP1 PUSH1 0x1 PUSH1 0x1 PUSH1 0xA0 SHL SUB DUP5 AND SWAP1 PUSH4 0x70A08231 SWAP1 PUSH1 0x24 ADD PUSH1 0x20 PUSH1 0x40 MLOAD DUP1 DUP4 SUB DUP2 DUP7 GAS STATICCALL ISZERO DUP1 ISZERO PUSH2 0x8EF JUMPI RETURNDATASIZE PUSH1 0x0 DUP1 RETURNDATACOPY RETURNDATASIZE PUSH1 0x0 REVERT JUMPDEST POP POP POP POP PUSH1 0x40 MLOAD RETURNDATASIZE PUSH1 0x1F NOT PUSH1 0x1F DUP3 ADD AND DUP3 ADD DUP1 PUSH1 0x40 MSTORE POP DUP2 ADD SWAP1 PUSH2 0x913 SWAP2 SWAP1 PUSH2 0x292C JUMP JUMPDEST LT ISZERO PUSH2 0x94E JUMPI PUSH1 0x40 MLOAD PUSH3 0x461BCD PUSH1 0xE5 SHL DUP2 MSTORE PUSH1 0x20 PUSH1 0x4 DUP3 ADD MSTORE PUSH1 0xA PUSH1 0x24 DUP3 ADD MSTORE PUSH10 0x73656E642066756E6473 PUSH1 0xB0 SHL PUSH1 0x44 DUP3 ADD MSTORE PUSH1 0x64 ADD PUSH2 0x42E JUMP JUMPDEST PUSH1 0x0 DUP5 DUP2 MSTORE PUSH1 0x8 PUSH1 0x20 MSTORE PUSH1 0x40 DUP2 KECCAK256 SWAP1 DUP3 ISZERO PUSH2 0x1016 JUMPI PUSH1 0x3 DUP3 ADD SLOAD PUSH1 0x0 DUP8 DUP2 MSTORE PUSH1 0x9 PUSH1 0x20 MSTORE PUSH1 0x40 DUP1 DUP3 KECCAK256 SWAP1 MLOAD PUSH4 0xD06CA61F PUSH1 0xE0 SHL DUP2 MSTORE SWAP2 SWAP3 PUSH3 0x10000 SWAP1 DIV PUSH1 0x1 PUSH1 0x1 PUSH1 0xA0 SHL SUB AND SWAP2 PUSH4 0xD06CA61F SWAP2 PUSH2 0x9AA SWAP2 DUP11 SWAP2 SWAP1 PUSH1 0x4 ADD PUSH2 0x298E JUMP JUMPDEST PUSH1 0x0 PUSH1 0x40 MLOAD DUP1 DUP4 SUB DUP2 DUP7 GAS STATICCALL ISZERO DUP1 ISZERO PUSH2 0x9C7 JUMPI RETURNDATASIZE PUSH1 0x0 DUP1 RETURNDATACOPY RETURNDATASIZE PUSH1 0x0 REVERT JUMPDEST POP POP POP POP PUSH1 0x40 MLOAD RETURNDATASIZE PUSH1 0x0 DUP3 RETURNDATACOPY PUSH1 0x1F RETURNDATASIZE SWAP1 DUP2 ADD PUSH1 0x1F NOT AND DUP3 ADD PUSH1 0x40 MSTORE PUSH2 0x9EF SWAP2 SWAP1 DUP2 ADD SWAP1 PUSH2 0x29BD JUMP JUMPDEST PUSH1 0x3 DUP5 ADD SLOAD PUSH1 0x40 MLOAD PUSH4 0x95EA7B3 PUSH1 0xE0 SHL DUP2 MSTORE PUSH1 0x1 PUSH1 0x1 PUSH1 0xA0 SHL SUB PUSH3 0x10000 SWAP1 SWAP3 DIV DUP3 AND PUSH1 0x4 DUP3 ADD MSTORE PUSH1 0x24 DUP2 ADD DUP10 SWAP1 MSTORE SWAP2 SWAP3 POP DUP7 AND SWAP1 PUSH4 0x95EA7B3 SWAP1 PUSH1 0x44 ADD PUSH1 0x20 PUSH1 0x40 MLOAD DUP1 DUP4 SUB DUP2 PUSH1 0x0 DUP8 GAS CALL ISZERO DUP1 ISZERO PUSH2 0xA4C JUMPI RETURNDATASIZE PUSH1 0x0 DUP1 RETURNDATACOPY RETURNDATASIZE PUSH1 0x0 REVERT JUMPDEST POP POP POP POP PUSH1 0x40 MLOAD RETURNDATASIZE PUSH1 0x1F NOT PUSH1 0x1F DUP3 ADD AND DUP3 ADD DUP1 PUSH1 0x40 MSTORE POP DUP2 ADD SWAP1 PUSH2 0xA70 SWAP2 SWAP1 PUSH2 0x2A7B JUMP JUMPDEST POP PUSH1 0x3 DUP4 ADD SLOAD PUSH1 0x0 DUP9 DUP2 MSTORE PUSH1 0x9 PUSH1 0x20 MSTORE PUSH1 0x40 DUP2 KECCAK256 DUP1 SLOAD SWAP2 SWAP3 DUP4 SWAP3 PUSH3 0x10000 SWAP1 SWAP2 DIV PUSH1 0x1 PUSH1 0x1 PUSH1 0xA0 SHL SUB AND SWAP2 PUSH4 0xBAA2ABDE SWAP2 DUP5 SWAP1 PUSH2 0xAAF JUMPI PUSH2 0xAAF PUSH2 0x2872 JUMP JUMPDEST PUSH1 0x0 SWAP2 DUP3 MSTORE PUSH1 0x20 DUP1 DUP4 KECCAK256 SWAP1 SWAP2 ADD SLOAD DUP14 DUP4 MSTORE PUSH1 0x9 SWAP1 SWAP2 MSTORE PUSH1 0x40 SWAP1 SWAP2 KECCAK256 DUP1 SLOAD PUSH1 0x1 PUSH1 0x1 PUSH1 0xA0 SHL SUB SWAP1 SWAP3 AND SWAP2 PUSH1 0x1 SWAP1 DUP2 LT PUSH2 0xAE9 JUMPI PUSH2 0xAE9 PUSH2 0x2872 JUMP JUMPDEST PUSH1 0x0 SWAP2 DUP3 MSTORE PUSH1 0x20 DUP3 KECCAK256 ADD SLOAD DUP8 MLOAD PUSH1 0x1 PUSH1 0x1 PUSH1 0xA0 SHL SUB SWAP1 SWAP2 AND SWAP2 DUP14 SWAP2 DUP10 SWAP2 SWAP1 PUSH2 0xB13 JUMPI PUSH2 0xB13 PUSH2 0x2872 JUMP JUMPDEST PUSH1 0x20 MUL PUSH1 0x20 ADD ADD MLOAD DUP9 PUSH1 0x1 DUP2 MLOAD DUP2 LT PUSH2 0xB2E JUMPI PUSH2 0xB2E PUSH2 0x2872 JUMP JUMPDEST PUSH1 0x20 MUL PUSH1 0x20 ADD ADD MLOAD ADDRESS TIMESTAMP PUSH1 0x5 PUSH2 0xB44 SWAP2 SWAP1 PUSH2 0x289E JUMP JUMPDEST PUSH1 0x40 MLOAD PUSH1 0xE0 DUP10 SWAP1 SHL PUSH1 0x1 PUSH1 0x1 PUSH1 0xE0 SHL SUB NOT AND DUP2 MSTORE PUSH1 0x1 PUSH1 0x1 PUSH1 0xA0 SHL SUB SWAP8 DUP9 AND PUSH1 0x4 DUP3 ADD MSTORE SWAP6 DUP8 AND PUSH1 0x24 DUP8 ADD MSTORE PUSH1 0x44 DUP7 ADD SWAP5 SWAP1 SWAP5 MSTORE PUSH1 0x64 DUP6 ADD SWAP3 SWAP1 SWAP3 MSTORE PUSH1 0x84 DUP5 ADD MSTORE SWAP1 SWAP3 AND PUSH1 0xA4 DUP3 ADD MSTORE PUSH1 0xC4 DUP2 ADD SWAP2 SWAP1 SWAP2 MSTORE PUSH1 0xE4 ADD PUSH1 0x40 DUP1 MLOAD DUP1 DUP4 SUB DUP2 PUSH1 0x0 DUP8 GAS CALL ISZERO DUP1 ISZERO PUSH2 0xBB6 JUMPI RETURNDATASIZE PUSH1 0x0 DUP1 RETURNDATACOPY RETURNDATASIZE PUSH1 0x0 REVERT JUMPDEST POP POP POP POP PUSH1 0x40 MLOAD RETURNDATASIZE PUSH1 0x1F NOT PUSH1 0x1F DUP3 ADD AND DUP3 ADD DUP1 PUSH1 0x40 MSTORE POP DUP2 ADD SWAP1 PUSH2 0xBDA SWAP2 SWAP1 PUSH2 0x2A98 JUMP JUMPDEST PUSH1 0x0 DUP12 DUP2 MSTORE PUSH1 0x9 PUSH1 0x20 MSTORE PUSH1 0x40 DUP2 KECCAK256 DUP1 SLOAD SWAP4 SWAP6 POP SWAP2 SWAP4 POP PUSH1 0x1 PUSH1 0x1 PUSH1 0xA0 SHL SUB PUSH32 0x0 AND SWAP3 PUSH2 0xC27 JUMPI PUSH2 0xC27 PUSH2 0x2872 JUMP JUMPDEST PUSH1 0x0 SWAP2 DUP3 MSTORE PUSH1 0x20 SWAP1 SWAP2 KECCAK256 ADD SLOAD PUSH1 0x1 PUSH1 0x1 PUSH1 0xA0 SHL SUB AND EQ PUSH2 0xDE6 JUMPI PUSH1 0x0 DUP10 DUP2 MSTORE PUSH1 0xA PUSH1 0x20 MSTORE PUSH1 0x40 SWAP1 KECCAK256 PUSH2 0xC5B SWAP1 DUP4 SWAP1 DUP8 PUSH2 0x16B5 JUMP JUMPDEST DUP5 PUSH1 0x0 DUP2 MLOAD DUP2 LT PUSH2 0xC6E JUMPI PUSH2 0xC6E PUSH2 0x2872 JUMP JUMPDEST PUSH1 0x20 MUL PUSH1 0x20 ADD ADD DUP6 PUSH1 0x1 DUP2 MLOAD DUP2 LT PUSH2 0xC88 JUMPI PUSH2 0xC88 PUSH2 0x2872 JUMP JUMPDEST PUSH1 0x20 MUL PUSH1 0x20 ADD ADD DUP3 DUP2 MSTORE POP DUP3 DUP2 MSTORE POP POP POP PUSH1 0x0 DUP4 PUSH1 0x0 DUP2 MLOAD DUP2 LT PUSH2 0xCAE JUMPI PUSH2 0xCAE PUSH2 0x2872 JUMP JUMPDEST PUSH1 0x20 MUL PUSH1 0x20 ADD ADD MLOAD DUP4 PUSH2 0xCC1 SWAP2 SWAP1 PUSH2 0x2ABC JUMP JUMPDEST GT ISZERO PUSH2 0xDB9 JUMPI PUSH1 0x0 DUP10 DUP2 MSTORE PUSH1 0x9 PUSH1 0x20 MSTORE PUSH1 0x40 DUP2 KECCAK256 DUP1 SLOAD SWAP1 SWAP2 SWAP1 PUSH2 0xCE6 JUMPI PUSH2 0xCE6 PUSH2 0x2872 JUMP JUMPDEST PUSH1 0x0 SWAP2 DUP3 MSTORE PUSH1 0x20 DUP3 KECCAK256 ADD SLOAD DUP5 MLOAD PUSH1 0x1 PUSH1 0x1 PUSH1 0xA0 SHL SUB SWAP1 SWAP2 AND SWAP2 PUSH4 0xA9059CBB SWAP2 PUSH32 0x0 SWAP2 DUP8 SWAP2 PUSH2 0xD35 JUMPI PUSH2 0xD35 PUSH2 0x2872 JUMP JUMPDEST PUSH1 0x20 MUL PUSH1 0x20 ADD ADD MLOAD DUP6 PUSH2 0xD48 SWAP2 SWAP1 PUSH2 0x2ABC JUMP JUMPDEST PUSH1 0x40 MLOAD PUSH1 0x1 PUSH1 0x1 PUSH1 0xE0 SHL SUB NOT PUSH1 0xE0 DUP6 SWAP1 SHL AND DUP2 MSTORE PUSH1 0x1 PUSH1 0x1 PUSH1 0xA0 SHL SUB SWAP1 SWAP3 AND PUSH1 0x4 DUP4 ADD MSTORE PUSH1 0x24 DUP3 ADD MSTORE PUSH1 0x44 ADD PUSH1 0x20 PUSH1 0x40 MLOAD DUP1 DUP4 SUB DUP2 PUSH1 0x0 DUP8 GAS CALL ISZERO DUP1 ISZERO PUSH2 0xD93 JUMPI RETURNDATASIZE PUSH1 0x0 DUP1 RETURNDATACOPY RETURNDATASIZE PUSH1 0x0 REVERT JUMPDEST POP POP POP POP PUSH1 0x40 MLOAD RETURNDATASIZE PUSH1 0x1F NOT PUSH1 0x1F DUP3 ADD AND DUP3 ADD DUP1 PUSH1 0x40 MSTORE POP DUP2 ADD SWAP1 PUSH2 0xDB7 SWAP2 SWAP1 PUSH2 0x2A7B JUMP JUMPDEST POP JUMPDEST DUP3 PUSH1 0x1 DUP2 MLOAD DUP2 LT PUSH2 0xDCC JUMPI PUSH2 0xDCC PUSH2 0x2872 JUMP JUMPDEST PUSH1 0x20 MUL PUSH1 0x20 ADD ADD MLOAD DUP5 PUSH2 0xDDF SWAP2 SWAP1 PUSH2 0x289E JUMP JUMPDEST SWAP4 POP PUSH2 0xDF3 JUMP JUMPDEST PUSH2 0xDF0 DUP3 DUP6 PUSH2 0x289E JUMP JUMPDEST SWAP4 POP JUMPDEST PUSH1 0x0 DUP10 DUP2 MSTORE PUSH1 0x9 PUSH1 0x20 MSTORE PUSH1 0x40 SWAP1 KECCAK256 DUP1 SLOAD PUSH1 0x1 PUSH1 0x1 PUSH1 0xA0 SHL SUB PUSH32 0x0 AND SWAP2 SWAP1 PUSH1 0x1 SWAP1 DUP2 LT PUSH2 0xE40 JUMPI PUSH2 0xE40 PUSH2 0x2872 JUMP JUMPDEST PUSH1 0x0 SWAP2 DUP3 MSTORE PUSH1 0x20 SWAP1 SWAP2 KECCAK256 ADD SLOAD PUSH1 0x1 PUSH1 0x1 PUSH1 0xA0 SHL SUB AND EQ PUSH2 0x1001 JUMPI PUSH1 0x0 DUP10 DUP2 MSTORE PUSH1 0xB PUSH1 0x20 MSTORE PUSH1 0x40 SWAP1 KECCAK256 PUSH2 0xE74 SWAP1 DUP3 SWAP1 DUP8 PUSH2 0x16B5 JUMP JUMPDEST DUP5 PUSH1 0x0 DUP2 MLOAD DUP2 LT PUSH2 0xE87 JUMPI PUSH2 0xE87 PUSH2 0x2872 JUMP JUMPDEST PUSH1 0x20 MUL PUSH1 0x20 ADD ADD DUP6 PUSH1 0x1 DUP2 MLOAD DUP2 LT PUSH2 0xEA1 JUMPI PUSH2 0xEA1 PUSH2 0x2872 JUMP JUMPDEST PUSH1 0x20 MUL PUSH1 0x20 ADD ADD DUP3 DUP2 MSTORE POP DUP3 DUP2 MSTORE POP POP POP PUSH1 0x0 DUP4 PUSH1 0x0 DUP2 MLOAD DUP2 LT PUSH2 0xEC7 JUMPI PUSH2 0xEC7 PUSH2 0x2872 JUMP JUMPDEST PUSH1 0x20 MUL PUSH1 0x20 ADD ADD MLOAD DUP4 PUSH2 0xEDA SWAP2 SWAP1 PUSH2 0x2ABC JUMP JUMPDEST GT ISZERO PUSH2 0xFD4 JUMPI PUSH1 0x0 DUP10 DUP2 MSTORE PUSH1 0x9 PUSH1 0x20 MSTORE PUSH1 0x40 SWAP1 KECCAK256 DUP1 SLOAD PUSH1 0x1 SWAP1 DUP2 LT PUSH2 0xF01 JUMPI PUSH2 0xF01 PUSH2 0x2872 JUMP JUMPDEST PUSH1 0x0 SWAP2 DUP3 MSTORE PUSH1 0x20 DUP3 KECCAK256 ADD SLOAD DUP5 MLOAD PUSH1 0x1 PUSH1 0x1 PUSH1 0xA0 SHL SUB SWAP1 SWAP2 AND SWAP2 PUSH4 0xA9059CBB SWAP2 PUSH32 0x0 SWAP2 DUP8 SWAP2 PUSH2 0xF50 JUMPI PUSH2 0xF50 PUSH2 0x2872 JUMP JUMPDEST PUSH1 0x20 MUL PUSH1 0x20 ADD ADD MLOAD DUP5 PUSH2 0xF63 SWAP2 SWAP1 PUSH2 0x2ABC JUMP JUMPDEST PUSH1 0x40 MLOAD PUSH1 0x1 PUSH1 0x1 PUSH1 0xE0 SHL SUB NOT PUSH1 0xE0 DUP6 SWAP1 SHL AND DUP2 MSTORE PUSH1 0x1 PUSH1 0x1 PUSH1 0xA0 SHL SUB SWAP1 SWAP3 AND PUSH1 0x4 DUP4 ADD MSTORE PUSH1 0x24 DUP3 ADD MSTORE PUSH1 0x44 ADD PUSH1 0x20 PUSH1 0x40 MLOAD DUP1 DUP4 SUB DUP2 PUSH1 0x0 DUP8 GAS CALL ISZERO DUP1 ISZERO PUSH2 0xFAE JUMPI RETURNDATASIZE PUSH1 0x0 DUP1 RETURNDATACOPY RETURNDATASIZE PUSH1 0x0 REVERT JUMPDEST POP POP POP POP PUSH1 0x40 MLOAD RETURNDATASIZE PUSH1 0x1F NOT PUSH1 0x1F DUP3 ADD AND DUP3 ADD DUP1 PUSH1 0x40 MSTORE POP DUP2 ADD SWAP1 PUSH2 0xFD2 SWAP2 SWAP1 PUSH2 0x2A7B JUMP JUMPDEST POP JUMPDEST DUP3 PUSH1 0x1 DUP2 MLOAD DUP2 LT PUSH2 0xFE7 JUMPI PUSH2 0xFE7 PUSH2 0x2872 JUMP JUMPDEST PUSH1 0x20 MUL PUSH1 0x20 ADD ADD MLOAD DUP5 PUSH2 0xFFA SWAP2 SWAP1 PUSH2 0x289E JUMP JUMPDEST SWAP4 POP PUSH2 0x100E JUMP JUMPDEST PUSH2 0x100B DUP2 DUP6 PUSH2 0x289E JUMP JUMPDEST SWAP4 POP JUMPDEST POP POP POP PUSH2 0x11C9 JUMP JUMPDEST PUSH1 0x3 DUP3 ADD SLOAD PUSH1 0x0 DUP8 DUP2 MSTORE PUSH1 0xA PUSH1 0x20 MSTORE PUSH1 0x40 DUP1 DUP3 KECCAK256 SWAP1 MLOAD PUSH4 0xD06CA61F PUSH1 0xE0 SHL DUP2 MSTORE SWAP2 SWAP3 PUSH3 0x10000 SWAP1 DIV PUSH1 0x1 PUSH1 0x1 PUSH1 0xA0 SHL SUB AND SWAP2 PUSH4 0xD06CA61F SWAP2 PUSH2 0x105D SWAP2 DUP11 SWAP2 SWAP1 PUSH1 0x4 ADD PUSH2 0x298E JUMP JUMPDEST PUSH1 0x0 PUSH1 0x40 MLOAD DUP1 DUP4 SUB DUP2 DUP7 GAS STATICCALL ISZERO DUP1 ISZERO PUSH2 0x107A JUMPI RETURNDATASIZE PUSH1 0x0 DUP1 RETURNDATACOPY RETURNDATASIZE PUSH1 0x0 REVERT JUMPDEST POP POP POP POP PUSH1 0x40 MLOAD RETURNDATASIZE PUSH1 0x0 DUP3 RETURNDATACOPY PUSH1 0x1F RETURNDATASIZE SWAP1 DUP2 ADD PUSH1 0x1F NOT AND DUP3 ADD PUSH1 0x40 MSTORE PUSH2 0x10A2 SWAP2 SWAP1 DUP2 ADD SWAP1 PUSH2 0x29BD JUMP JUMPDEST PUSH1 0x3 DUP5 ADD SLOAD PUSH1 0x4 DUP6 ADD SLOAD SWAP2 SWAP3 POP PUSH3 0x10000 SWAP1 DIV PUSH1 0x1 PUSH1 0x1 PUSH1 0xA0 SHL SUB AND SWAP1 PUSH4 0x38ED1739 SWAP1 DUP9 SWAP1 PUSH2 0x2710 SWAP1 PUSH2 0x10D5 SWAP1 DUP3 PUSH2 0x2ABC JUMP JUMPDEST PUSH2 0x10DF SWAP2 SWAP1 PUSH2 0x2AD3 JUMP JUMPDEST DUP5 PUSH1 0x1 DUP7 MLOAD PUSH2 0x10EE SWAP2 SWAP1 PUSH2 0x2ABC JUMP JUMPDEST DUP2 MLOAD DUP2 LT PUSH2 0x10FE JUMPI PUSH2 0x10FE PUSH2 0x2872 JUMP JUMPDEST PUSH1 0x20 MUL PUSH1 0x20 ADD ADD MLOAD PUSH2 0x1110 SWAP2 SWAP1 PUSH2 0x2AF5 JUMP JUMPDEST PUSH1 0x0 DUP12 DUP2 MSTORE PUSH1 0xA PUSH1 0x20 MSTORE PUSH1 0x40 SWAP1 KECCAK256 ADDRESS PUSH2 0x112A TIMESTAMP PUSH1 0x5 PUSH2 0x289E JUMP JUMPDEST PUSH1 0x40 MLOAD DUP7 PUSH4 0xFFFFFFFF AND PUSH1 0xE0 SHL DUP2 MSTORE PUSH1 0x4 ADD PUSH2 0x114A SWAP6 SWAP5 SWAP4 SWAP3 SWAP2 SWAP1 PUSH2 0x2B14 JUMP JUMPDEST PUSH1 0x0 PUSH1 0x40 MLOAD DUP1 DUP4 SUB DUP2 PUSH1 0x0 DUP8 GAS CALL ISZERO DUP1 ISZERO PUSH2 0x1169 JUMPI RETURNDATASIZE PUSH1 0x0 DUP1 RETURNDATACOPY RETURNDATASIZE PUSH1 0x0 REVERT JUMPDEST POP POP POP POP PUSH1 0x40 MLOAD RETURNDATASIZE PUSH1 0x0 DUP3 RETURNDATACOPY PUSH1 0x1F RETURNDATASIZE SWAP1 DUP2 ADD PUSH1 0x1F NOT AND DUP3 ADD PUSH1 0x40 MSTORE PUSH2 0x1191 SWAP2 SWAP1 DUP2 ADD SWAP1 PUSH2 0x29BD JUMP JUMPDEST SWAP1 POP DUP1 PUSH1 0x1 DUP3 MLOAD PUSH2 0x11A2 SWAP2 SWAP1 PUSH2 0x2ABC JUMP JUMPDEST DUP2 MLOAD DUP2 LT PUSH2 0x11B2 JUMPI PUSH2 0x11B2 PUSH2 0x2872 JUMP JUMPDEST PUSH1 0x20 MUL PUSH1 0x20 ADD ADD MLOAD DUP3 PUSH2 0x11C5 SWAP2 SWAP1 PUSH2 0x289E JUMP JUMPDEST SWAP2 POP POP JUMPDEST PUSH2 0x11D3 DUP2 DUP4 PUSH2 0x1878 JUMP JUMPDEST POP POP POP POP POP POP JUMP JUMPDEST PUSH1 0xA PUSH1 0x20 MSTORE DUP2 PUSH1 0x0 MSTORE PUSH1 0x40 PUSH1 0x0 KECCAK256 DUP2 DUP2 SLOAD DUP2 LT PUSH2 0x11F7 JUMPI PUSH1 0x0 DUP1 REVERT JUMPDEST PUSH1 0x0 SWAP2 DUP3 MSTORE PUSH1 0x20 SWAP1 SWAP2 KECCAK256 ADD SLOAD PUSH1 0x1 PUSH1 0x1 PUSH1 0xA0 SHL SUB AND SWAP2 POP DUP3 SWAP1 POP JUMP JUMPDEST PUSH1 0x0 SLOAD PUSH1 0x1 PUSH1 0x1 PUSH1 0xA0 SHL SUB AND CALLER EQ PUSH2 0x123D JUMPI PUSH1 0x40 MLOAD PUSH3 0x461BCD PUSH1 0xE5 SHL DUP2 MSTORE PUSH1 0x4 ADD PUSH2 0x42E SWAP1 PUSH2 0x283D JUMP JUMPDEST PUSH2 0x1247 PUSH1 0x0 PUSH2 0x20F5 JUMP JUMPDEST JUMP JUMPDEST PUSH1 0x9 PUSH1 0x20 MSTORE DUP2 PUSH1 0x0 MSTORE PUSH1 0x40 PUSH1 0x0 KECCAK256 DUP2 DUP2 SLOAD DUP2 LT PUSH2 0x11F7 JUMPI PUSH1 0x0 DUP1 REVERT JUMPDEST PUSH1 0xB PUSH1 0x20 MSTORE DUP2 PUSH1 0x0 MSTORE PUSH1 0x40 PUSH1 0x0 KECCAK256 DUP2 DUP2 SLOAD DUP2 LT PUSH2 0x11F7 JUMPI PUSH1 0x0 DUP1 REVERT JUMPDEST PUSH1 0x1 DUP2 DUP2 SLOAD DUP2 LT PUSH2 0x1291 JUMPI PUSH1 0x0 DUP1 REVERT JUMPDEST PUSH1 0x0 SWAP2 DUP3 MSTORE PUSH1 0x20 SWAP1 SWAP2 KECCAK256 ADD SLOAD PUSH1 0x1 PUSH1 0x1 PUSH1 0xA0 SHL SUB AND SWAP1 POP DUP2 JUMP JUMPDEST PUSH1 0x0 DUP1 PUSH1 0x0 PUSH1 0x4 PUSH1 0x0 SWAP1 SLOAD SWAP1 PUSH2 0x100 EXP SWAP1 DIV PUSH1 0x1 PUSH1 0x1 PUSH1 0xA0 SHL SUB AND PUSH1 0x1 PUSH1 0x1 PUSH1 0xA0 SHL SUB AND PUSH4 0x902F1AC PUSH1 0x40 MLOAD DUP2 PUSH4 0xFFFFFFFF AND PUSH1 0xE0 SHL DUP2 MSTORE PUSH1 0x4 ADD PUSH1 0x60 PUSH1 0x40 MLOAD DUP1 DUP4 SUB DUP2 DUP7 GAS STATICCALL ISZERO DUP1 ISZERO PUSH2 0x1303 JUMPI RETURNDATASIZE PUSH1 0x0 DUP1 RETURNDATACOPY RETURNDATASIZE PUSH1 0x0 REVERT JUMPDEST POP POP POP POP PUSH1 0x40 MLOAD RETURNDATASIZE PUSH1 0x1F NOT PUSH1 0x1F DUP3 ADD AND DUP3 ADD DUP1 PUSH1 0x40 MSTORE POP DUP2 ADD SWAP1 PUSH2 0x1327 SWAP2 SWAP1 PUSH2 0x2B67 JUMP JUMPDEST POP PUSH1 0x1 PUSH1 0x1 PUSH1 0x70 SHL SUB AND SWAP2 POP PUSH1 0x1 PUSH1 0x1 PUSH1 0x70 SHL SUB AND SWAP2 POP PUSH1 0x0 DUP2 GT PUSH2 0x134D JUMPI PUSH1 0x1 PUSH2 0x134F JUMP JUMPDEST DUP1 JUMPDEST SWAP1 POP PUSH32 0x0 DUP2 PUSH2 0x1385 DUP5 PUSH8 0xDE0B6B3A7640000 PUSH2 0x2AF5 JUMP JUMPDEST PUSH2 0x138F SWAP2 SWAP1 PUSH2 0x2AD3 JUMP JUMPDEST GT SWAP3 POP POP POP SWAP1 JUMP JUMPDEST PUSH1 0x2 DUP2 DUP2 SLOAD DUP2 LT PUSH2 0x1291 JUMPI PUSH1 0x0 DUP1 REVERT JUMPDEST PUSH1 0x0 SLOAD PUSH1 0x1 PUSH1 0x1 PUSH1 0xA0 SHL SUB AND CALLER EQ PUSH2 0x13D1 JUMPI PUSH1 0x40 MLOAD PUSH3 0x461BCD PUSH1 0xE5 SHL DUP2 MSTORE PUSH1 0x4 ADD PUSH2 0x42E SWAP1 PUSH2 0x283D JUMP JUMPDEST PUSH1 0x1 PUSH1 0x1 PUSH1 0xA0 SHL SUB DUP4 AND PUSH2 0x1411 JUMPI PUSH1 0x40 MLOAD PUSH3 0x461BCD PUSH1 0xE5 SHL DUP2 MSTORE PUSH1 0x20 PUSH1 0x4 DUP3 ADD MSTORE PUSH1 0x7 PUSH1 0x24 DUP3 ADD MSTORE PUSH7 0x4E6F207A65726F PUSH1 0xC8 SHL PUSH1 0x44 DUP3 ADD MSTORE PUSH1 0x64 ADD PUSH2 0x42E JUMP JUMPDEST PUSH1 0x1 DUP2 GT PUSH2 0x1455 JUMPI PUSH1 0x40 MLOAD PUSH3 0x461BCD PUSH1 0xE5 SHL DUP2 MSTORE PUSH1 0x20 PUSH1 0x4 DUP3 ADD MSTORE PUSH1 0x11 PUSH1 0x24 DUP3 ADD MSTORE PUSH17 0x6174206C65617374203220746F6B656E73 PUSH1 0x78 SHL PUSH1 0x44 DUP3 ADD MSTORE PUSH1 0x64 ADD PUSH2 0x42E JUMP JUMPDEST DUP4 ISZERO PUSH2 0x1488 JUMPI PUSH1 0x4 DUP1 SLOAD PUSH1 0x1 PUSH1 0x1 PUSH1 0xA0 SHL SUB NOT AND PUSH1 0x1 PUSH1 0x1 PUSH1 0xA0 SHL SUB DUP6 AND OR SWAP1 SSTORE PUSH2 0x1482 PUSH1 0x2 DUP4 DUP4 PUSH2 0x2594 JUMP JUMPDEST POP PUSH2 0x14B1 JUMP JUMPDEST PUSH1 0x3 DUP1 SLOAD PUSH1 0x1 PUSH1 0x1 PUSH1 0xA0 SHL SUB NOT AND PUSH1 0x1 PUSH1 0x1 PUSH1 0xA0 SHL SUB DUP6 AND OR SWAP1 SSTORE PUSH2 0x14AF PUSH1 0x1 DUP4 DUP4 PUSH2 0x2594 JUMP JUMPDEST POP JUMPDEST PUSH1 0x40 DUP1 MLOAD DUP6 ISZERO ISZERO DUP2 MSTORE PUSH1 0x1 PUSH1 0x1 PUSH1 0xA0 SHL SUB DUP6 AND PUSH1 0x20 DUP3 ADD MSTORE SWAP1 DUP2 ADD DUP3 SWAP1 MSTORE PUSH32 0x5666E569C2406262A3FF05C271806A13818161ED87E8B17F5EEB09865D8E5B70 SWAP1 PUSH1 0x60 ADD PUSH1 0x40 MLOAD DUP1 SWAP2 SUB SWAP1 LOG1 POP POP POP POP JUMP JUMPDEST PUSH1 0x0 SLOAD PUSH1 0x1 PUSH1 0x1 PUSH1 0xA0 SHL SUB AND CALLER EQ PUSH2 0x152C JUMPI PUSH1 0x40 MLOAD PUSH3 0x461BCD PUSH1 0xE5 SHL DUP2 MSTORE PUSH1 0x4 ADD PUSH2 0x42E SWAP1 PUSH2 0x283D JUMP JUMPDEST PUSH1 0x1 PUSH1 0x1 PUSH1 0xA0 SHL SUB DUP2 AND PUSH2 0x1591 JUMPI PUSH1 0x40 MLOAD PUSH3 0x461BCD PUSH1 0xE5 SHL DUP2 MSTORE PUSH1 0x20 PUSH1 0x4 DUP3 ADD MSTORE PUSH1 0x26 PUSH1 0x24 DUP3 ADD MSTORE PUSH32 0x4F776E61626C653A206E6577206F776E657220697320746865207A65726F2061 PUSH1 0x44 DUP3 ADD MSTORE PUSH6 0x646472657373 PUSH1 0xD0 SHL PUSH1 0x64 DUP3 ADD MSTORE PUSH1 0x84 ADD PUSH2 0x42E JUMP JUMPDEST PUSH2 0x159A DUP2 PUSH2 0x20F5 JUMP JUMPDEST POP JUMP JUMPDEST PUSH1 0x0 SLOAD PUSH1 0x1 PUSH1 0x1 PUSH1 0xA0 SHL SUB AND CALLER EQ PUSH2 0x15C7 JUMPI PUSH1 0x40 MLOAD PUSH3 0x461BCD PUSH1 0xE5 SHL DUP2 MSTORE PUSH1 0x4 ADD PUSH2 0x42E SWAP1 PUSH2 0x283D JUMP JUMPDEST PUSH1 0x1 PUSH1 0x1 PUSH1 0xA0 SHL SUB DUP2 AND PUSH2 0x1607 JUMPI PUSH1 0x40 MLOAD PUSH3 0x461BCD PUSH1 0xE5 SHL DUP2 MSTORE PUSH1 0x20 PUSH1 0x4 DUP3 ADD MSTORE PUSH1 0x7 PUSH1 0x24 DUP3 ADD MSTORE PUSH7 0x4E6F207A65726F PUSH1 0xC8 SHL PUSH1 0x44 DUP3 ADD MSTORE PUSH1 0x64 ADD PUSH2 0x42E JUMP JUMPDEST PUSH1 0x5 DUP1 SLOAD PUSH1 0x1 PUSH1 0x1 PUSH1 0xA0 SHL SUB NOT AND PUSH1 0x1 PUSH1 0x1 PUSH1 0xA0 SHL SUB DUP4 AND SWAP1 DUP2 OR SWAP1 SWAP2 SSTORE PUSH1 0x40 MLOAD SWAP1 DUP2 MSTORE PUSH32 0xD5F5B4D616F94F5E10B2955392470790B3FDDE7C0C0B68BD1F3EA635E2CAA8D7 SWAP1 PUSH1 0x20 ADD PUSH2 0x4C4 JUMP JUMPDEST PUSH1 0x40 DUP1 MLOAD PUSH1 0x1 PUSH1 0x1 PUSH1 0xA0 SHL SUB DUP6 DUP2 AND PUSH1 0x24 DUP4 ADD MSTORE DUP5 AND PUSH1 0x44 DUP3 ADD MSTORE PUSH1 0x64 DUP1 DUP3 ADD DUP5 SWAP1 MSTORE DUP3 MLOAD DUP1 DUP4 SUB SWAP1 SWAP2 ADD DUP2 MSTORE PUSH1 0x84 SWAP1 SWAP2 ADD SWAP1 SWAP2 MSTORE PUSH1 0x20 DUP2 ADD DUP1 MLOAD PUSH1 0x1 PUSH1 0x1 PUSH1 0xE0 SHL SUB AND PUSH4 0x23B872DD PUSH1 0xE0 SHL OR SWAP1 MSTORE PUSH2 0x16AF SWAP1 DUP6 SWAP1 PUSH2 0x2145 JUMP JUMPDEST POP POP POP POP JUMP JUMPDEST PUSH1 0x3 DUP2 ADD SLOAD PUSH1 0x40 MLOAD PUSH4 0xD06CA61F PUSH1 0xE0 SHL DUP2 MSTORE PUSH1 0x0 SWAP2 DUP3 SWAP2 DUP3 SWAP2 PUSH3 0x10000 SWAP1 DIV PUSH1 0x1 PUSH1 0x1 PUSH1 0xA0 SHL SUB AND SWAP1 PUSH4 0xD06CA61F SWAP1 PUSH2 0x16F4 SWAP1 DUP10 SWAP1 DUP10 SWAP1 PUSH1 0x4 ADD PUSH2 0x298E JUMP JUMPDEST PUSH1 0x0 PUSH1 0x40 MLOAD DUP1 DUP4 SUB DUP2 DUP7 GAS STATICCALL ISZERO DUP1 ISZERO PUSH2 0x1711 JUMPI RETURNDATASIZE PUSH1 0x0 DUP1 RETURNDATACOPY RETURNDATASIZE PUSH1 0x0 REVERT JUMPDEST POP POP POP POP PUSH1 0x40 MLOAD RETURNDATASIZE PUSH1 0x0 DUP3 RETURNDATACOPY PUSH1 0x1F RETURNDATASIZE SWAP1 DUP2 ADD PUSH1 0x1F NOT AND DUP3 ADD PUSH1 0x40 MSTORE PUSH2 0x1739 SWAP2 SWAP1 DUP2 ADD SWAP1 PUSH2 0x29BD JUMP JUMPDEST PUSH1 0x3 DUP6 ADD SLOAD PUSH1 0x4 DUP7 ADD SLOAD SWAP2 SWAP3 POP PUSH3 0x10000 SWAP1 DIV PUSH1 0x1 PUSH1 0x1 PUSH1 0xA0 SHL SUB AND SWAP1 PUSH4 0x38ED1739 SWAP1 DUP9 SWAP1 PUSH2 0x2710 SWAP1 PUSH2 0x176C SWAP1 DUP3 PUSH2 0x2ABC JUMP JUMPDEST PUSH2 0x1776 SWAP2 SWAP1 PUSH2 0x2AD3 JUMP JUMPDEST DUP9 SLOAD DUP6 SWAP1 PUSH2 0x1786 SWAP1 PUSH1 0x1 SWAP1 PUSH2 0x2ABC JUMP JUMPDEST DUP2 MLOAD DUP2 LT PUSH2 0x1796 JUMPI PUSH2 0x1796 PUSH2 0x2872 JUMP JUMPDEST PUSH1 0x20 MUL PUSH1 0x20 ADD ADD MLOAD PUSH2 0x17A8 SWAP2 SWAP1 PUSH2 0x2AF5 JUMP JUMPDEST DUP9 ADDRESS PUSH2 0x17B5 TIMESTAMP PUSH1 0xA PUSH2 0x289E JUMP JUMPDEST PUSH1 0x40 MLOAD DUP7 PUSH4 0xFFFFFFFF AND PUSH1 0xE0 SHL DUP2 MSTORE PUSH1 0x4 ADD PUSH2 0x17D5 SWAP6 SWAP5 SWAP4 SWAP3 SWAP2 SWAP1 PUSH2 0x2B14 JUMP JUMPDEST PUSH1 0x0 PUSH1 0x40 MLOAD DUP1 DUP4 SUB DUP2 PUSH1 0x0 DUP8 GAS CALL ISZERO DUP1 ISZERO PUSH2 0x17F4 JUMPI RETURNDATASIZE PUSH1 0x0 DUP1 RETURNDATACOPY RETURNDATASIZE PUSH1 0x0 REVERT JUMPDEST POP POP POP POP PUSH1 0x40 MLOAD RETURNDATASIZE PUSH1 0x0 DUP3 RETURNDATACOPY PUSH1 0x1F RETURNDATASIZE SWAP1 DUP2 ADD PUSH1 0x1F NOT AND DUP3 ADD PUSH1 0x40 MSTORE PUSH2 0x181C SWAP2 SWAP1 DUP2 ADD SWAP1 PUSH2 0x29BD JUMP JUMPDEST SWAP1 POP DUP1 PUSH1 0x0 DUP2 MLOAD DUP2 LT PUSH2 0x1831 JUMPI PUSH2 0x1831 PUSH2 0x2872 JUMP JUMPDEST PUSH1 0x20 MUL PUSH1 0x20 ADD ADD MLOAD DUP7 PUSH2 0x1844 SWAP2 SWAP1 PUSH2 0x2ABC JUMP JUMPDEST SWAP3 POP DUP1 PUSH1 0x1 DUP3 MLOAD PUSH2 0x1855 SWAP2 SWAP1 PUSH2 0x2ABC JUMP JUMPDEST DUP2 MLOAD DUP2 LT PUSH2 0x1865 JUMPI PUSH2 0x1865 PUSH2 0x2872 JUMP JUMPDEST PUSH1 0x20 MUL PUSH1 0x20 ADD ADD MLOAD SWAP2 POP POP SWAP4 POP SWAP4 SWAP2 POP POP JUMP JUMPDEST DUP1 SLOAD DUP3 SWAP1 PUSH1 0x0 SWAP1 PUSH2 0x2710 SWAP1 PUSH2 0x188D SWAP1 DUP5 PUSH2 0x2AF5 JUMP JUMPDEST PUSH2 0x1897 SWAP2 SWAP1 PUSH2 0x2AD3 JUMP JUMPDEST PUSH1 0x3 SLOAD PUSH1 0x4 SLOAD SWAP2 SWAP3 POP PUSH1 0x0 SWAP2 DUP3 SWAP2 DUP3 SWAP2 DUP3 SWAP2 DUP3 SWAP2 PUSH1 0x1 PUSH1 0x1 PUSH1 0xA0 SHL SUB SWAP2 DUP3 AND SWAP2 AND PUSH2 0x18C0 PUSH2 0x12AB JUMP JUMPDEST ISZERO PUSH2 0x1A9D JUMPI PUSH1 0x0 DUP11 PUSH1 0x2 ADD SLOAD GT PUSH2 0x18E0 JUMPI PUSH2 0x18DB DUP9 DUP13 PUSH2 0x2ABC JUMP JUMPDEST PUSH2 0x18FD JUMP JUMPDEST PUSH2 0x2710 DUP11 PUSH1 0x1 ADD SLOAD DUP13 PUSH2 0x18F3 SWAP2 SWAP1 PUSH2 0x2AF5 JUMP JUMPDEST PUSH2 0x18FD SWAP2 SWAP1 PUSH2 0x2AD3 JUMP JUMPDEST SWAP6 POP PUSH2 0x190A PUSH1 0x2 DUP8 PUSH2 0x2AD3 JUMP JUMPDEST PUSH1 0x3 DUP12 ADD SLOAD SWAP1 SWAP8 POP PUSH2 0x100 SWAP1 DIV PUSH1 0xFF AND PUSH2 0x1924 JUMPI DUP7 PUSH2 0x1927 JUMP JUMPDEST PUSH1 0x0 JUMPDEST PUSH1 0x3 DUP12 ADD SLOAD PUSH1 0xFF AND PUSH2 0x1939 JUMPI DUP9 PUSH2 0x193C JUMP JUMPDEST PUSH1 0x0 JUMPDEST PUSH2 0x1946 SWAP2 SWAP1 PUSH2 0x289E JUMP JUMPDEST PUSH1 0x3 DUP12 ADD SLOAD SWAP1 SWAP6 POP PUSH2 0x100 SWAP1 DIV PUSH1 0xFF AND PUSH2 0x1961 JUMPI PUSH1 0x0 PUSH2 0x1963 JUMP JUMPDEST DUP7 JUMPDEST PUSH1 0x3 DUP12 ADD SLOAD PUSH1 0xFF AND PUSH2 0x1976 JUMPI PUSH1 0x0 PUSH2 0x1978 JUMP JUMPDEST DUP9 JUMPDEST PUSH2 0x1982 SWAP2 SWAP1 PUSH2 0x289E JUMP JUMPDEST PUSH1 0x3 DUP12 ADD SLOAD SWAP1 SWAP5 POP PUSH2 0x100 SWAP1 DIV PUSH1 0xFF AND PUSH2 0x199C JUMPI DUP5 PUSH2 0x199E JUMP JUMPDEST DUP4 JUMPDEST SWAP6 POP DUP5 ISZERO PUSH2 0x1A1D JUMPI PUSH2 0x1A0B DUP6 DUP3 PUSH1 0x2 DUP1 SLOAD DUP1 PUSH1 0x20 MUL PUSH1 0x20 ADD PUSH1 0x40 MLOAD SWAP1 DUP2 ADD PUSH1 0x40 MSTORE DUP1 SWAP3 SWAP2 SWAP1 DUP2 DUP2 MSTORE PUSH1 0x20 ADD DUP3 DUP1 SLOAD DUP1 ISZERO PUSH2 0x1A01 JUMPI PUSH1 0x20 MUL DUP3 ADD SWAP2 SWAP1 PUSH1 0x0 MSTORE PUSH1 0x20 PUSH1 0x0 KECCAK256 SWAP1 JUMPDEST DUP2 SLOAD PUSH1 0x1 PUSH1 0x1 PUSH1 0xA0 SHL SUB AND DUP2 MSTORE PUSH1 0x1 SWAP1 SWAP2 ADD SWAP1 PUSH1 0x20 ADD DUP1 DUP4 GT PUSH2 0x19E3 JUMPI JUMPDEST POP POP POP POP POP PUSH2 0x221C JUMP JUMPDEST SWAP1 SWAP6 POP SWAP3 POP PUSH2 0x1A1A DUP4 DUP11 PUSH2 0x2ABC JUMP JUMPDEST SWAP9 POP JUMPDEST DUP4 ISZERO PUSH2 0x1A98 JUMPI PUSH2 0x1A86 DUP5 DUP4 PUSH1 0x1 DUP1 SLOAD DUP1 PUSH1 0x20 MUL PUSH1 0x20 ADD PUSH1 0x40 MLOAD SWAP1 DUP2 ADD PUSH1 0x40 MSTORE DUP1 SWAP3 SWAP2 SWAP1 DUP2 DUP2 MSTORE PUSH1 0x20 ADD DUP3 DUP1 SLOAD DUP1 ISZERO PUSH2 0x1A01 JUMPI PUSH1 0x20 MUL DUP3 ADD SWAP2 SWAP1 PUSH1 0x0 MSTORE PUSH1 0x20 PUSH1 0x0 KECCAK256 SWAP1 DUP2 SLOAD PUSH1 0x1 PUSH1 0x1 PUSH1 0xA0 SHL SUB AND DUP2 MSTORE PUSH1 0x1 SWAP1 SWAP2 ADD SWAP1 PUSH1 0x20 ADD DUP1 DUP4 GT PUSH2 0x19E3 JUMPI POP POP POP POP POP PUSH2 0x221C JUMP JUMPDEST SWAP1 SWAP5 POP SWAP3 POP PUSH2 0x1A95 DUP4 DUP11 PUSH2 0x2ABC JUMP JUMPDEST SWAP9 POP JUMPDEST PUSH2 0x1B12 JUMP JUMPDEST PUSH2 0x1B00 DUP12 DUP3 PUSH1 0x2 DUP1 SLOAD DUP1 PUSH1 0x20 MUL PUSH1 0x20 ADD PUSH1 0x40 MLOAD SWAP1 DUP2 ADD PUSH1 0x40 MSTORE DUP1 SWAP3 SWAP2 SWAP1 DUP2 DUP2 MSTORE PUSH1 0x20 ADD DUP3 DUP1 SLOAD DUP1 ISZERO PUSH2 0x1A01 JUMPI PUSH1 0x20 MUL DUP3 ADD SWAP2 SWAP1 PUSH1 0x0 MSTORE PUSH1 0x20 PUSH1 0x0 KECCAK256 SWAP1 DUP2 SLOAD PUSH1 0x1 PUSH1 0x1 PUSH1 0xA0 SHL SUB AND DUP2 MSTORE PUSH1 0x1 SWAP1 SWAP2 ADD SWAP1 PUSH1 0x20 ADD DUP1 DUP4 GT PUSH2 0x19E3 JUMPI POP POP POP POP POP PUSH2 0x221C JUMP JUMPDEST SWAP1 SWAP6 POP SWAP3 POP PUSH2 0x1B0F DUP4 DUP11 PUSH2 0x2ABC JUMP JUMPDEST SWAP9 POP JUMPDEST DUP7 ISZERO PUSH2 0x1F45 JUMPI PUSH1 0x0 DUP7 PUSH2 0x1B2A DUP10 PUSH5 0xE8D4A51000 PUSH2 0x2AF5 JUMP JUMPDEST PUSH2 0x1B34 SWAP2 SWAP1 PUSH2 0x2AD3 JUMP JUMPDEST PUSH1 0x3 DUP13 ADD SLOAD SWAP1 SWAP2 POP PUSH2 0x100 SWAP1 DIV PUSH1 0xFF AND ISZERO PUSH2 0x1D48 JUMPI PUSH5 0xE8D4A51000 PUSH2 0x1B59 DUP3 DUP9 PUSH2 0x2AF5 JUMP JUMPDEST PUSH2 0x1B63 SWAP2 SWAP1 PUSH2 0x2AD3 JUMP JUMPDEST PUSH1 0x5 SLOAD PUSH1 0x2 DUP1 SLOAD SWAP3 SWAP4 POP PUSH1 0x1 PUSH1 0x1 PUSH1 0xA0 SHL SUB SWAP1 SWAP2 AND SWAP2 PUSH4 0xE8E33700 SWAP2 SWAP1 PUSH1 0x0 SWAP1 PUSH2 0x1B8F JUMPI PUSH2 0x1B8F PUSH2 0x2872 JUMP JUMPDEST PUSH1 0x0 SWAP2 DUP3 MSTORE PUSH1 0x20 SWAP1 SWAP2 KECCAK256 ADD SLOAD PUSH1 0x2 DUP1 SLOAD PUSH1 0x1 PUSH1 0x1 PUSH1 0xA0 SHL SUB SWAP1 SWAP3 AND SWAP2 PUSH1 0x1 SWAP1 DUP2 LT PUSH2 0x1BBC JUMPI PUSH2 0x1BBC PUSH2 0x2872 JUMP JUMPDEST PUSH1 0x0 SWAP2 DUP3 MSTORE PUSH1 0x20 SWAP1 SWAP2 KECCAK256 ADD SLOAD PUSH1 0x1 PUSH1 0x1 PUSH1 0xA0 SHL SUB AND DUP12 PUSH5 0xE8D4A51000 PUSH2 0x1BE2 DUP8 DUP14 PUSH2 0x2AF5 JUMP JUMPDEST PUSH2 0x1BEC SWAP2 SWAP1 PUSH2 0x2AD3 JUMP JUMPDEST PUSH2 0x2710 PUSH2 0x1BFA DUP16 PUSH1 0x64 PUSH2 0x2AF5 JUMP JUMPDEST PUSH2 0x1C04 SWAP2 SWAP1 PUSH2 0x2AD3 JUMP JUMPDEST PUSH2 0x2710 PUSH2 0x1C12 DUP15 PUSH1 0x64 PUSH2 0x2AF5 JUMP JUMPDEST PUSH2 0x1C1C SWAP2 SWAP1 PUSH2 0x2AD3 JUMP JUMPDEST ADDRESS PUSH2 0x1C28 TIMESTAMP PUSH1 0x5 PUSH2 0x289E JUMP JUMPDEST PUSH1 0x40 MLOAD DUP10 PUSH4 0xFFFFFFFF AND PUSH1 0xE0 SHL DUP2 MSTORE PUSH1 0x4 ADD PUSH2 0x1C4B SWAP9 SWAP8 SWAP7 SWAP6 SWAP5 SWAP4 SWAP3 SWAP2 SWAP1 PUSH2 0x2BB7 JUMP JUMPDEST PUSH1 0x60 PUSH1 0x40 MLOAD DUP1 DUP4 SUB DUP2 PUSH1 0x0 DUP8 GAS CALL ISZERO DUP1 ISZERO PUSH2 0x1C6A JUMPI RETURNDATASIZE PUSH1 0x0 DUP1 RETURNDATACOPY RETURNDATASIZE PUSH1 0x0 REVERT JUMPDEST POP POP POP POP PUSH1 0x40 MLOAD RETURNDATASIZE PUSH1 0x1F NOT PUSH1 0x1F DUP3 ADD AND DUP3 ADD DUP1 PUSH1 0x40 MSTORE POP DUP2 ADD SWAP1 PUSH2 0x1C8E SWAP2 SWAP1 PUSH2 0x2C00 JUMP JUMPDEST SWAP10 POP SWAP1 SWAP8 POP SWAP1 POP PUSH2 0x1C9F DUP2 DUP8 PUSH2 0x2ABC JUMP JUMPDEST SWAP6 POP PUSH2 0x1CAB DUP8 DUP12 PUSH2 0x2ABC JUMP JUMPDEST PUSH1 0x40 MLOAD PUSH4 0xA9059CBB PUSH1 0xE0 SHL DUP2 MSTORE PUSH1 0x1 PUSH1 0x1 PUSH1 0xA0 SHL SUB PUSH32 0x0 DUP2 AND PUSH1 0x4 DUP4 ADD MSTORE PUSH1 0x24 DUP3 ADD DUP12 SWAP1 MSTORE SWAP2 SWAP12 POP SWAP1 DUP4 AND SWAP1 PUSH4 0xA9059CBB SWAP1 PUSH1 0x44 ADD PUSH1 0x20 PUSH1 0x40 MLOAD DUP1 DUP4 SUB DUP2 PUSH1 0x0 DUP8 GAS CALL ISZERO DUP1 ISZERO PUSH2 0x1D1E JUMPI RETURNDATASIZE PUSH1 0x0 DUP1 RETURNDATACOPY RETURNDATASIZE PUSH1 0x0 REVERT JUMPDEST POP POP POP POP PUSH1 0x40 MLOAD RETURNDATASIZE PUSH1 0x1F NOT PUSH1 0x1F DUP3 ADD AND DUP3 ADD DUP1 PUSH1 0x40 MSTORE POP DUP2 ADD SWAP1 PUSH2 0x1D42 SWAP2 SWAP1 PUSH2 0x2A7B JUMP JUMPDEST POP PUSH2 0x1F43 JUMP JUMPDEST PUSH5 0xE8D4A51000 PUSH2 0x1D58 DUP3 DUP8 PUSH2 0x2AF5 JUMP JUMPDEST PUSH2 0x1D62 SWAP2 SWAP1 PUSH2 0x2AD3 JUMP JUMPDEST PUSH1 0x5 SLOAD PUSH1 0x2 DUP1 SLOAD SWAP3 SWAP4 POP PUSH1 0x1 PUSH1 0x1 PUSH1 0xA0 SHL SUB SWAP1 SWAP2 AND SWAP2 PUSH4 0xE8E33700 SWAP2 SWAP1 PUSH1 0x0 SWAP1 PUSH2 0x1D8E JUMPI PUSH2 0x1D8E PUSH2 0x2872 JUMP JUMPDEST PUSH1 0x0 SWAP2 DUP3 MSTORE PUSH1 0x20 SWAP1 SWAP2 KECCAK256 ADD SLOAD PUSH1 0x2 DUP1 SLOAD PUSH1 0x1 PUSH1 0x1 PUSH1 0xA0 SHL SUB SWAP1 SWAP3 AND SWAP2 PUSH1 0x1 SWAP1 DUP2 LT PUSH2 0x1DBB JUMPI PUSH2 0x1DBB PUSH2 0x2872 JUMP JUMPDEST PUSH1 0x0 SWAP2 DUP3 MSTORE PUSH1 0x20 SWAP1 SWAP2 KECCAK256 ADD SLOAD PUSH1 0x1 PUSH1 0x1 PUSH1 0xA0 SHL SUB AND DUP12 PUSH5 0xE8D4A51000 PUSH2 0x1DE1 DUP8 DUP13 PUSH2 0x2AF5 JUMP JUMPDEST PUSH2 0x1DEB SWAP2 SWAP1 PUSH2 0x2AD3 JUMP JUMPDEST PUSH2 0x2710 PUSH2 0x1DF9 DUP16 PUSH1 0x64 PUSH2 0x2AF5 JUMP JUMPDEST PUSH2 0x1E03 SWAP2 SWAP1 PUSH2 0x2AD3 JUMP JUMPDEST PUSH2 0x2710 PUSH2 0x1E11 DUP14 PUSH1 0x64 PUSH2 0x2AF5 JUMP JUMPDEST PUSH2 0x1E1B SWAP2 SWAP1 PUSH2 0x2AD3 JUMP JUMPDEST ADDRESS PUSH2 0x1E27 TIMESTAMP PUSH1 0x5 PUSH2 0x289E JUMP JUMPDEST PUSH1 0x40 MLOAD DUP10 PUSH4 0xFFFFFFFF AND PUSH1 0xE0 SHL DUP2 MSTORE PUSH1 0x4 ADD PUSH2 0x1E4A SWAP9 SWAP8 SWAP7 SWAP6 SWAP5 SWAP4 SWAP3 SWAP2 SWAP1 PUSH2 0x2BB7 JUMP JUMPDEST PUSH1 0x60 PUSH1 0x40 MLOAD DUP1 DUP4 SUB DUP2 PUSH1 0x0 DUP8 GAS CALL ISZERO DUP1 ISZERO PUSH2 0x1E69 JUMPI RETURNDATASIZE PUSH1 0x0 DUP1 RETURNDATACOPY RETURNDATASIZE PUSH1 0x0 REVERT JUMPDEST POP POP POP POP PUSH1 0x40 MLOAD RETURNDATASIZE PUSH1 0x1F NOT PUSH1 0x1F DUP3 ADD AND DUP3 ADD DUP1 PUSH1 0x40 MSTORE POP DUP2 ADD SWAP1 PUSH2 0x1E8D SWAP2 SWAP1 PUSH2 0x2C00 JUMP JUMPDEST SWAP10 POP SWAP1 SWAP8 POP SWAP1 POP PUSH2 0x1E9E DUP2 DUP7 PUSH2 0x2ABC JUMP JUMPDEST SWAP5 POP PUSH2 0x1EAA DUP8 DUP12 PUSH2 0x2ABC JUMP JUMPDEST PUSH1 0x40 MLOAD PUSH4 0xA9059CBB PUSH1 0xE0 SHL DUP2 MSTORE PUSH1 0x1 PUSH1 0x1 PUSH1 0xA0 SHL SUB PUSH32 0x0 DUP2 AND PUSH1 0x4 DUP4 ADD MSTORE PUSH1 0x24 DUP3 ADD DUP12 SWAP1 MSTORE SWAP2 SWAP12 POP SWAP1 DUP5 AND SWAP1 PUSH4 0xA9059CBB SWAP1 PUSH1 0x44 ADD PUSH1 0x20 PUSH1 0x40 MLOAD DUP1 DUP4 SUB DUP2 PUSH1 0x0 DUP8 GAS CALL ISZERO DUP1 ISZERO PUSH2 0x1F1D JUMPI RETURNDATASIZE PUSH1 0x0 DUP1 RETURNDATACOPY RETURNDATASIZE PUSH1 0x0 REVERT JUMPDEST POP POP POP POP PUSH1 0x40 MLOAD RETURNDATASIZE PUSH1 0x1F NOT PUSH1 0x1F DUP3 ADD AND DUP3 ADD DUP1 PUSH1 0x40 MSTORE POP DUP2 ADD SWAP1 PUSH2 0x1F41 SWAP2 SWAP1 PUSH2 0x2A7B JUMP JUMPDEST POP JUMPDEST POP JUMPDEST DUP5 ISZERO PUSH2 0x1FC7 JUMPI PUSH1 0x2 PUSH1 0x1 DUP2 SLOAD DUP2 LT PUSH2 0x1F5F JUMPI PUSH2 0x1F5F PUSH2 0x2872 JUMP JUMPDEST PUSH1 0x0 SWAP2 DUP3 MSTORE PUSH1 0x20 SWAP1 SWAP2 KECCAK256 ADD SLOAD PUSH1 0x40 MLOAD PUSH4 0x852CD8D PUSH1 0xE3 SHL DUP2 MSTORE PUSH1 0x4 DUP2 ADD DUP8 SWAP1 MSTORE PUSH1 0x1 PUSH1 0x1 PUSH1 0xA0 SHL SUB SWAP1 SWAP2 AND SWAP1 PUSH4 0x42966C68 SWAP1 PUSH1 0x24 ADD PUSH1 0x0 PUSH1 0x40 MLOAD DUP1 DUP4 SUB DUP2 PUSH1 0x0 DUP8 DUP1 EXTCODESIZE ISZERO DUP1 ISZERO PUSH2 0x1FAE JUMPI PUSH1 0x0 DUP1 REVERT JUMPDEST POP GAS CALL ISZERO DUP1 ISZERO PUSH2 0x1FC2 JUMPI RETURNDATASIZE PUSH1 0x0 DUP1 RETURNDATACOPY RETURNDATASIZE PUSH1 0x0 REVERT JUMPDEST POP POP POP POP JUMPDEST DUP4 ISZERO PUSH2 0x2048 JUMPI PUSH1 0x1 DUP1 DUP2 SLOAD DUP2 LT PUSH2 0x1FE0 JUMPI PUSH2 0x1FE0 PUSH2 0x2872 JUMP JUMPDEST PUSH1 0x0 SWAP2 DUP3 MSTORE PUSH1 0x20 SWAP1 SWAP2 KECCAK256 ADD SLOAD PUSH1 0x40 MLOAD PUSH4 0x852CD8D PUSH1 0xE3 SHL DUP2 MSTORE PUSH1 0x4 DUP2 ADD DUP7 SWAP1 MSTORE PUSH1 0x1 PUSH1 0x1 PUSH1 0xA0 SHL SUB SWAP1 SWAP2 AND SWAP1 PUSH4 0x42966C68 SWAP1 PUSH1 0x24 ADD PUSH1 0x0 PUSH1 0x40 MLOAD DUP1 DUP4 SUB DUP2 PUSH1 0x0 DUP8 DUP1 EXTCODESIZE ISZERO DUP1 ISZERO PUSH2 0x202F JUMPI PUSH1 0x0 DUP1 REVERT JUMPDEST POP GAS CALL ISZERO DUP1 ISZERO PUSH2 0x2043 JUMPI RETURNDATASIZE PUSH1 0x0 DUP1 RETURNDATACOPY RETURNDATASIZE PUSH1 0x0 REVERT JUMPDEST POP POP POP POP JUMPDEST DUP9 ISZERO PUSH2 0x20E8 JUMPI PUSH1 0x6 SLOAD PUSH1 0x40 MLOAD PUSH4 0xA9059CBB PUSH1 0xE0 SHL DUP2 MSTORE PUSH1 0x1 PUSH1 0x1 PUSH1 0xA0 SHL SUB SWAP2 DUP3 AND PUSH1 0x4 DUP3 ADD MSTORE PUSH1 0x24 DUP2 ADD DUP12 SWAP1 MSTORE PUSH32 0x0 SWAP1 SWAP2 AND SWAP1 PUSH4 0xA9059CBB SWAP1 PUSH1 0x44 ADD PUSH1 0x20 PUSH1 0x40 MLOAD DUP1 DUP4 SUB DUP2 PUSH1 0x0 DUP8 GAS CALL ISZERO DUP1 ISZERO PUSH2 0x20C2 JUMPI RETURNDATASIZE PUSH1 0x0 DUP1 RETURNDATACOPY RETURNDATASIZE PUSH1 0x0 REVERT JUMPDEST POP POP POP POP PUSH1 0x40 MLOAD RETURNDATASIZE PUSH1 0x1F NOT PUSH1 0x1F DUP3 ADD AND DUP3 ADD DUP1 PUSH1 0x40 MSTORE POP DUP2 ADD SWAP1 PUSH2 0x20E6 SWAP2 SWAP1 PUSH2 0x2A7B JUMP JUMPDEST POP JUMPDEST POP POP POP POP POP POP POP POP POP POP POP JUMP JUMPDEST PUSH1 0x0 DUP1 SLOAD PUSH1 0x1 PUSH1 0x1 PUSH1 0xA0 SHL SUB DUP4 DUP2 AND PUSH1 0x1 PUSH1 0x1 PUSH1 0xA0 SHL SUB NOT DUP4 AND DUP2 OR DUP5 SSTORE PUSH1 0x40 MLOAD SWAP2 SWAP1 SWAP3 AND SWAP3 DUP4 SWAP2 PUSH32 0x8BE0079C531659141344CD1FD0A4F28419497F9722A3DAAFE3B4186F6B6457E0 SWAP2 SWAP1 LOG3 POP POP JUMP JUMPDEST PUSH1 0x0 PUSH2 0x219A DUP3 PUSH1 0x40 MLOAD DUP1 PUSH1 0x40 ADD PUSH1 0x40 MSTORE DUP1 PUSH1 0x20 DUP2 MSTORE PUSH1 0x20 ADD PUSH32 0x5361666545524332303A206C6F772D6C6576656C2063616C6C206661696C6564 DUP2 MSTORE POP DUP6 PUSH1 0x1 PUSH1 0x1 PUSH1 0xA0 SHL SUB AND PUSH2 0x2411 SWAP1 SWAP3 SWAP2 SWAP1 PUSH4 0xFFFFFFFF AND JUMP JUMPDEST DUP1 MLOAD SWAP1 SWAP2 POP ISZERO PUSH2 0x2217 JUMPI DUP1 DUP1 PUSH1 0x20 ADD SWAP1 MLOAD DUP2 ADD SWAP1 PUSH2 0x21B8 SWAP2 SWAP1 PUSH2 0x2A7B JUMP JUMPDEST PUSH2 0x2217 JUMPI PUSH1 0x40 MLOAD PUSH3 0x461BCD PUSH1 0xE5 SHL DUP2 MSTORE PUSH1 0x20 PUSH1 0x4 DUP3 ADD MSTORE PUSH1 0x2A PUSH1 0x24 DUP3 ADD MSTORE PUSH32 0x5361666545524332303A204552433230206F7065726174696F6E20646964206E PUSH1 0x44 DUP3 ADD MSTORE PUSH10 0x1BDD081CDD58D8D95959 PUSH1 0xB2 SHL PUSH1 0x64 DUP3 ADD MSTORE PUSH1 0x84 ADD PUSH2 0x42E JUMP JUMPDEST POP POP POP JUMP JUMPDEST PUSH1 0x0 DUP1 PUSH1 0x0 DUP1 DUP6 PUSH1 0x1 PUSH1 0x1 PUSH1 0xA0 SHL SUB AND PUSH4 0x902F1AC PUSH1 0x40 MLOAD DUP2 PUSH4 0xFFFFFFFF AND PUSH1 0xE0 SHL DUP2 MSTORE PUSH1 0x4 ADD PUSH1 0x60 PUSH1 0x40 MLOAD DUP1 DUP4 SUB DUP2 DUP7 GAS STATICCALL ISZERO DUP1 ISZERO PUSH2 0x2260 JUMPI RETURNDATASIZE PUSH1 0x0 DUP1 RETURNDATACOPY RETURNDATASIZE PUSH1 0x0 REVERT JUMPDEST POP POP POP POP PUSH1 0x40 MLOAD RETURNDATASIZE PUSH1 0x1F NOT PUSH1 0x1F DUP3 ADD AND DUP3 ADD DUP1 PUSH1 0x40 MSTORE POP DUP2 ADD SWAP1 PUSH2 0x2284 SWAP2 SWAP1 PUSH2 0x2B67 JUMP JUMPDEST POP PUSH1 0x5 SLOAD PUSH1 0x40 MLOAD PUSH4 0x1535435 PUSH1 0xE2 SHL DUP2 MSTORE PUSH1 0x4 DUP2 ADD DUP12 SWAP1 MSTORE PUSH1 0x1 PUSH1 0x1 PUSH1 0x70 SHL SUB SWAP4 DUP5 AND PUSH1 0x24 DUP3 ADD DUP2 SWAP1 MSTORE SWAP3 SWAP1 SWAP4 AND PUSH1 0x44 DUP5 ADD DUP2 SWAP1 MSTORE SWAP2 SWAP5 POP SWAP1 SWAP3 POP PUSH1 0x0 SWAP2 PUSH1 0x1 PUSH1 0x1 PUSH1 0xA0 SHL SUB SWAP1 SWAP2 AND SWAP1 PUSH4 0x54D50D4 SWAP1 PUSH1 0x64 ADD PUSH1 0x20 PUSH1 0x40 MLOAD DUP1 DUP4 SUB DUP2 DUP7 GAS STATICCALL ISZERO DUP1 ISZERO PUSH2 0x22F4 JUMPI RETURNDATASIZE PUSH1 0x0 DUP1 RETURNDATACOPY RETURNDATASIZE PUSH1 0x0 REVERT JUMPDEST POP POP POP POP PUSH1 0x40 MLOAD RETURNDATASIZE PUSH1 0x1F NOT PUSH1 0x1F DUP3 ADD AND DUP3 ADD DUP1 PUSH1 0x40 MSTORE POP DUP2 ADD SWAP1 PUSH2 0x2318 SWAP2 SWAP1 PUSH2 0x292C JUMP JUMPDEST PUSH1 0x5 SLOAD SWAP1 SWAP2 POP PUSH1 0x0 SWAP1 PUSH1 0x1 PUSH1 0x1 PUSH1 0xA0 SHL SUB AND PUSH4 0x38ED1739 DUP11 PUSH2 0x3E8 PUSH2 0x233F DUP7 PUSH2 0x3DE PUSH2 0x2AF5 JUMP JUMPDEST PUSH2 0x2349 SWAP2 SWAP1 PUSH2 0x2AD3 JUMP JUMPDEST DUP11 ADDRESS PUSH2 0x2356 TIMESTAMP PUSH1 0x5 PUSH2 0x289E JUMP JUMPDEST PUSH1 0x40 MLOAD DUP7 PUSH4 0xFFFFFFFF AND PUSH1 0xE0 SHL DUP2 MSTORE PUSH1 0x4 ADD PUSH2 0x2376 SWAP6 SWAP5 SWAP4 SWAP3 SWAP2 SWAP1 PUSH2 0x2C2E JUMP JUMPDEST PUSH1 0x0 PUSH1 0x40 MLOAD DUP1 DUP4 SUB DUP2 PUSH1 0x0 DUP8 GAS CALL ISZERO DUP1 ISZERO PUSH2 0x2395 JUMPI RETURNDATASIZE PUSH1 0x0 DUP1 RETURNDATACOPY RETURNDATASIZE PUSH1 0x0 REVERT JUMPDEST POP POP POP POP PUSH1 0x40 MLOAD RETURNDATASIZE PUSH1 0x0 DUP3 RETURNDATACOPY PUSH1 0x1F RETURNDATASIZE SWAP1 DUP2 ADD PUSH1 0x1F NOT AND DUP3 ADD PUSH1 0x40 MSTORE PUSH2 0x23BD SWAP2 SWAP1 DUP2 ADD SWAP1 PUSH2 0x29BD JUMP JUMPDEST SWAP1 POP DUP1 PUSH1 0x1 DUP3 MLOAD PUSH2 0x23CE SWAP2 SWAP1 PUSH2 0x2ABC JUMP JUMPDEST DUP2 MLOAD DUP2 LT PUSH2 0x23DE JUMPI PUSH2 0x23DE PUSH2 0x2872 JUMP JUMPDEST PUSH1 0x20 MUL PUSH1 0x20 ADD ADD MLOAD SWAP6 POP DUP1 PUSH1 0x0 DUP2 MLOAD DUP2 LT PUSH2 0x23FB JUMPI PUSH2 0x23FB PUSH2 0x2872 JUMP JUMPDEST PUSH1 0x20 MUL PUSH1 0x20 ADD ADD MLOAD SWAP5 POP POP POP POP POP SWAP4 POP SWAP4 SWAP2 POP POP JUMP JUMPDEST PUSH1 0x60 PUSH2 0x2420 DUP5 DUP5 PUSH1 0x0 DUP6 PUSH2 0x242A JUMP JUMPDEST SWAP1 POP JUMPDEST SWAP4 SWAP3 POP POP POP JUMP JUMPDEST PUSH1 0x60 DUP3 SELFBALANCE LT ISZERO PUSH2 0x248B JUMPI PUSH1 0x40 MLOAD PUSH3 0x461BCD PUSH1 0xE5 SHL DUP2 MSTORE PUSH1 0x20 PUSH1 0x4 DUP3 ADD MSTORE PUSH1 0x26 PUSH1 0x24 DUP3 ADD MSTORE PUSH32 0x416464726573733A20696E73756666696369656E742062616C616E636520666F PUSH1 0x44 DUP3 ADD MSTORE PUSH6 0x1C8818D85B1B PUSH1 0xD2 SHL PUSH1 0x64 DUP3 ADD MSTORE PUSH1 0x84 ADD PUSH2 0x42E JUMP JUMPDEST PUSH1 0x1 PUSH1 0x1 PUSH1 0xA0 SHL SUB DUP6 AND EXTCODESIZE PUSH2 0x24E2 JUMPI PUSH1 0x40 MLOAD PUSH3 0x461BCD PUSH1 0xE5 SHL DUP2 MSTORE PUSH1 0x20 PUSH1 0x4 DUP3 ADD MSTORE PUSH1 0x1D PUSH1 0x24 DUP3 ADD MSTORE PUSH32 0x416464726573733A2063616C6C20746F206E6F6E2D636F6E7472616374000000 PUSH1 0x44 DUP3 ADD MSTORE PUSH1 0x64 ADD PUSH2 0x42E JUMP JUMPDEST PUSH1 0x0 DUP1 DUP7 PUSH1 0x1 PUSH1 0x1 PUSH1 0xA0 SHL SUB AND DUP6 DUP8 PUSH1 0x40 MLOAD PUSH2 0x24FE SWAP2 SWAP1 PUSH2 0x2CCB JUMP JUMPDEST PUSH1 0x0 PUSH1 0x40 MLOAD DUP1 DUP4 SUB DUP2 DUP6 DUP8 GAS CALL SWAP3 POP POP POP RETURNDATASIZE DUP1 PUSH1 0x0 DUP2 EQ PUSH2 0x253B JUMPI PUSH1 0x40 MLOAD SWAP2 POP PUSH1 0x1F NOT PUSH1 0x3F RETURNDATASIZE ADD AND DUP3 ADD PUSH1 0x40 MSTORE RETURNDATASIZE DUP3 MSTORE RETURNDATASIZE PUSH1 0x0 PUSH1 0x20 DUP5 ADD RETURNDATACOPY PUSH2 0x2540 JUMP JUMPDEST PUSH1 0x60 SWAP2 POP JUMPDEST POP SWAP2 POP SWAP2 POP PUSH2 0x2550 DUP3 DUP3 DUP7 PUSH2 0x255B JUMP JUMPDEST SWAP8 SWAP7 POP POP POP POP POP POP POP JUMP JUMPDEST PUSH1 0x60 DUP4 ISZERO PUSH2 0x256A JUMPI POP DUP2 PUSH2 0x2423 JUMP JUMPDEST DUP3 MLOAD ISZERO PUSH2 0x257A JUMPI DUP3 MLOAD DUP1 DUP5 PUSH1 0x20 ADD REVERT JUMPDEST DUP2 PUSH1 0x40 MLOAD PUSH3 0x461BCD PUSH1 0xE5 SHL DUP2 MSTORE PUSH1 0x4 ADD PUSH2 0x42E SWAP2 SWAP1 PUSH2 0x2CE7 JUMP JUMPDEST DUP3 DUP1 SLOAD DUP3 DUP3 SSTORE SWAP1 PUSH1 0x0 MSTORE PUSH1 0x20 PUSH1 0x0 KECCAK256 SWAP1 DUP2 ADD SWAP3 DUP3 ISZERO PUSH2 0x25E7 JUMPI SWAP2 PUSH1 0x20 MUL DUP3 ADD JUMPDEST DUP3 DUP2 GT ISZERO PUSH2 0x25E7 JUMPI DUP2 SLOAD PUSH1 0x1 PUSH1 0x1 PUSH1 0xA0 SHL SUB NOT AND PUSH1 0x1 PUSH1 0x1 PUSH1 0xA0 SHL SUB DUP5 CALLDATALOAD AND OR DUP3 SSTORE PUSH1 0x20 SWAP1 SWAP3 ADD SWAP2 PUSH1 0x1 SWAP1 SWAP2 ADD SWAP1 PUSH2 0x25B4 JUMP JUMPDEST POP PUSH2 0x25F3 SWAP3 SWAP2 POP PUSH2 0x25F7 JUMP JUMPDEST POP SWAP1 JUMP JUMPDEST JUMPDEST DUP1 DUP3 GT ISZERO PUSH2 0x25F3 JUMPI PUSH1 0x0 DUP2 SSTORE PUSH1 0x1 ADD PUSH2 0x25F8 JUMP JUMPDEST PUSH1 0x1 PUSH1 0x1 PUSH1 0xA0 SHL SUB DUP2 AND DUP2 EQ PUSH2 0x159A JUMPI PUSH1 0x0 DUP1 REVERT JUMPDEST DUP1 CALLDATALOAD PUSH2 0x262C DUP2 PUSH2 0x260C JUMP JUMPDEST SWAP2 SWAP1 POP JUMP JUMPDEST PUSH1 0x0 PUSH1 0x20 DUP3 DUP5 SUB SLT ISZERO PUSH2 0x2643 JUMPI PUSH1 0x0 DUP1 REVERT JUMPDEST DUP2 CALLDATALOAD PUSH2 0x2423 DUP2 PUSH2 0x260C JUMP JUMPDEST DUP1 ISZERO ISZERO DUP2 EQ PUSH2 0x159A JUMPI PUSH1 0x0 DUP1 REVERT JUMPDEST DUP1 CALLDATALOAD PUSH2 0x262C DUP2 PUSH2 0x264E JUMP JUMPDEST PUSH1 0x0 DUP1 DUP4 PUSH1 0x1F DUP5 ADD SLT PUSH2 0x2679 JUMPI PUSH1 0x0 DUP1 REVERT JUMPDEST POP DUP2 CALLDATALOAD PUSH8 0xFFFFFFFFFFFFFFFF DUP2 GT ISZERO PUSH2 0x2691 JUMPI PUSH1 0x0 DUP1 REVERT JUMPDEST PUSH1 0x20 DUP4 ADD SWAP2 POP DUP4 PUSH1 0x20 DUP3 PUSH1 0x5 SHL DUP6 ADD ADD GT ISZERO PUSH2 0x26AC JUMPI PUSH1 0x0 DUP1 REVERT JUMPDEST SWAP3 POP SWAP3 SWAP1 POP JUMP JUMPDEST PUSH1 0x0 DUP1 PUSH1 0x0 DUP1 PUSH1 0x0 DUP1 PUSH1 0x0 DUP1 PUSH1 0x0 DUP1 PUSH2 0x160 DUP12 DUP14 SUB SLT ISZERO PUSH2 0x26D3 JUMPI PUSH1 0x0 DUP1 REVERT JUMPDEST PUSH1 0xA0 DUP12 ADD DUP13 DUP2 GT ISZERO PUSH2 0x26E4 JUMPI PUSH1 0x0 DUP1 REVERT JUMPDEST DUP12 SWAP11 POP PUSH2 0x26F0 DUP2 PUSH2 0x265C JUMP JUMPDEST SWAP10 POP POP PUSH2 0x26FF PUSH1 0xC0 DUP13 ADD PUSH2 0x265C JUMP JUMPDEST SWAP8 POP PUSH2 0x270D PUSH1 0xE0 DUP13 ADD PUSH2 0x2621 JUMP JUMPDEST SWAP7 POP PUSH2 0x100 DUP12 ADD CALLDATALOAD PUSH8 0xFFFFFFFFFFFFFFFF DUP1 DUP3 GT ISZERO PUSH2 0x272B JUMPI PUSH1 0x0 DUP1 REVERT JUMPDEST PUSH2 0x2737 DUP15 DUP4 DUP16 ADD PUSH2 0x2667 JUMP JUMPDEST SWAP1 SWAP9 POP SWAP7 POP PUSH2 0x120 DUP14 ADD CALLDATALOAD SWAP2 POP DUP1 DUP3 GT ISZERO PUSH2 0x2751 JUMPI PUSH1 0x0 DUP1 REVERT JUMPDEST PUSH2 0x275D DUP15 DUP4 DUP16 ADD PUSH2 0x2667 JUMP JUMPDEST SWAP1 SWAP7 POP SWAP5 POP PUSH2 0x140 DUP14 ADD CALLDATALOAD SWAP2 POP DUP1 DUP3 GT ISZERO PUSH2 0x2777 JUMPI PUSH1 0x0 DUP1 REVERT JUMPDEST POP PUSH2 0x2784 DUP14 DUP3 DUP15 ADD PUSH2 0x2667 JUMP JUMPDEST SWAP2 POP DUP1 SWAP4 POP POP DUP1 SWAP2 POP POP SWAP3 SWAP6 SWAP9 SWAP12 SWAP2 SWAP5 SWAP8 SWAP11 POP SWAP3 SWAP6 SWAP9 POP JUMP JUMPDEST PUSH1 0x0 PUSH1 0x20 DUP3 DUP5 SUB SLT ISZERO PUSH2 0x27AF JUMPI PUSH1 0x0 DUP1 REVERT JUMPDEST POP CALLDATALOAD SWAP2 SWAP1 POP JUMP JUMPDEST PUSH1 0x0 DUP1 PUSH1 0x40 DUP4 DUP6 SUB SLT ISZERO PUSH2 0x27C9 JUMPI PUSH1 0x0 DUP1 REVERT JUMPDEST POP POP DUP1 CALLDATALOAD SWAP3 PUSH1 0x20 SWAP1 SWAP2 ADD CALLDATALOAD SWAP2 POP JUMP JUMPDEST PUSH1 0x0 DUP1 PUSH1 0x0 DUP1 PUSH1 0x60 DUP6 DUP8 SUB SLT ISZERO PUSH2 0x27EE JUMPI PUSH1 0x0 DUP1 REVERT JUMPDEST DUP5 CALLDATALOAD PUSH2 0x27F9 DUP2 PUSH2 0x264E JUMP JUMPDEST SWAP4 POP PUSH1 0x20 DUP6 ADD CALLDATALOAD PUSH2 0x2809 DUP2 PUSH2 0x260C JUMP JUMPDEST SWAP3 POP PUSH1 0x40 DUP6 ADD CALLDATALOAD PUSH8 0xFFFFFFFFFFFFFFFF DUP2 GT ISZERO PUSH2 0x2825 JUMPI PUSH1 0x0 DUP1 REVERT JUMPDEST PUSH2 0x2831 DUP8 DUP3 DUP9 ADD PUSH2 0x2667 JUMP JUMPDEST SWAP6 SWAP9 SWAP5 SWAP8 POP SWAP6 POP POP POP POP JUMP JUMPDEST PUSH1 0x20 DUP1 DUP3 MSTORE DUP2 DUP2 ADD MSTORE PUSH32 0x4F776E61626C653A2063616C6C6572206973206E6F7420746865206F776E6572 PUSH1 0x40 DUP3 ADD MSTORE PUSH1 0x60 ADD SWAP1 JUMP JUMPDEST PUSH4 0x4E487B71 PUSH1 0xE0 SHL PUSH1 0x0 MSTORE PUSH1 0x32 PUSH1 0x4 MSTORE PUSH1 0x24 PUSH1 0x0 REVERT JUMPDEST PUSH4 0x4E487B71 PUSH1 0xE0 SHL PUSH1 0x0 MSTORE PUSH1 0x11 PUSH1 0x4 MSTORE PUSH1 0x24 PUSH1 0x0 REVERT JUMPDEST PUSH1 0x0 DUP3 NOT DUP3 GT ISZERO PUSH2 0x28B1 JUMPI PUSH2 0x28B1 PUSH2 0x2888 JUMP JUMPDEST POP ADD SWAP1 JUMP JUMPDEST PUSH1 0x0 DUP1 PUSH1 0x0 DUP1 PUSH1 0x0 DUP1 PUSH1 0x0 PUSH1 0xE0 DUP9 DUP11 SUB SLT ISZERO PUSH2 0x28D1 JUMPI PUSH1 0x0 DUP1 REVERT JUMPDEST DUP8 MLOAD PUSH2 0x28DC DUP2 PUSH2 0x264E JUMP JUMPDEST DUP1 SWAP8 POP POP PUSH1 0x20 DUP9 ADD MLOAD SWAP6 POP PUSH1 0x40 DUP9 ADD MLOAD SWAP5 POP PUSH1 0x60 DUP9 ADD MLOAD PUSH2 0x28FC DUP2 PUSH2 0x260C JUMP JUMPDEST DUP1 SWAP5 POP POP PUSH1 0x80 DUP9 ADD MLOAD SWAP3 POP PUSH1 0xA0 DUP9 ADD MLOAD SWAP2 POP PUSH1 0xC0 DUP9 ADD MLOAD PUSH2 0x291C DUP2 PUSH2 0x264E JUMP JUMPDEST DUP1 SWAP2 POP POP SWAP3 SWAP6 SWAP9 SWAP2 SWAP5 SWAP8 POP SWAP3 SWAP6 POP JUMP JUMPDEST PUSH1 0x0 PUSH1 0x20 DUP3 DUP5 SUB SLT ISZERO PUSH2 0x293E JUMPI PUSH1 0x0 DUP1 REVERT JUMPDEST POP MLOAD SWAP2 SWAP1 POP JUMP JUMPDEST PUSH1 0x0 DUP2 SLOAD DUP1 DUP5 MSTORE PUSH1 0x20 DUP1 DUP6 ADD SWAP5 POP DUP4 PUSH1 0x0 MSTORE DUP1 PUSH1 0x0 KECCAK256 PUSH1 0x0 JUMPDEST DUP4 DUP2 LT ISZERO PUSH2 0x2983 JUMPI DUP2 SLOAD PUSH1 0x1 PUSH1 0x1 PUSH1 0xA0 SHL SUB AND DUP8 MSTORE SWAP6 DUP3 ADD SWAP6 PUSH1 0x1 SWAP2 DUP3 ADD SWAP2 ADD PUSH2 0x295E JUMP JUMPDEST POP SWAP5 SWAP6 SWAP5 POP POP POP POP POP JUMP JUMPDEST DUP3 DUP2 MSTORE PUSH1 0x40 PUSH1 0x20 DUP3 ADD MSTORE PUSH1 0x0 PUSH2 0x2420 PUSH1 0x40 DUP4 ADD DUP5 PUSH2 0x2945 JUMP JUMPDEST PUSH4 0x4E487B71 PUSH1 0xE0 SHL PUSH1 0x0 MSTORE PUSH1 0x41 PUSH1 0x4 MSTORE PUSH1 0x24 PUSH1 0x0 REVERT JUMPDEST PUSH1 0x0 PUSH1 0x20 DUP1 DUP4 DUP6 SUB SLT ISZERO PUSH2 0x29D0 JUMPI PUSH1 0x0 DUP1 REVERT JUMPDEST DUP3 MLOAD PUSH8 0xFFFFFFFFFFFFFFFF DUP1 DUP3 GT ISZERO PUSH2 0x29E8 JUMPI PUSH1 0x0 DUP1 REVERT JUMPDEST DUP2 DUP6 ADD SWAP2 POP DUP6 PUSH1 0x1F DUP4 ADD SLT PUSH2 0x29FC JUMPI PUSH1 0x0 DUP1 REVERT JUMPDEST DUP2 MLOAD DUP2 DUP2 GT ISZERO PUSH2 0x2A0E JUMPI PUSH2 0x2A0E PUSH2 0x29A7 JUMP JUMPDEST DUP1 PUSH1 0x5 SHL PUSH1 0x40 MLOAD PUSH1 0x1F NOT PUSH1 0x3F DUP4 ADD AND DUP2 ADD DUP2 DUP2 LT DUP6 DUP3 GT OR ISZERO PUSH2 0x2A33 JUMPI PUSH2 0x2A33 PUSH2 0x29A7 JUMP JUMPDEST PUSH1 0x40 MSTORE SWAP2 DUP3 MSTORE DUP5 DUP3 ADD SWAP3 POP DUP4 DUP2 ADD DUP6 ADD SWAP2 DUP9 DUP4 GT ISZERO PUSH2 0x2A51 JUMPI PUSH1 0x0 DUP1 REVERT JUMPDEST SWAP4 DUP6 ADD SWAP4 JUMPDEST DUP3 DUP6 LT ISZERO PUSH2 0x2A6F JUMPI DUP5 MLOAD DUP5 MSTORE SWAP4 DUP6 ADD SWAP4 SWAP3 DUP6 ADD SWAP3 PUSH2 0x2A56 JUMP JUMPDEST SWAP9 SWAP8 POP POP POP POP POP POP POP POP JUMP JUMPDEST PUSH1 0x0 PUSH1 0x20 DUP3 DUP5 SUB SLT ISZERO PUSH2 0x2A8D JUMPI PUSH1 0x0 DUP1 REVERT JUMPDEST DUP2 MLOAD PUSH2 0x2423 DUP2 PUSH2 0x264E JUMP JUMPDEST PUSH1 0x0 DUP1 PUSH1 0x40 DUP4 DUP6 SUB SLT ISZERO PUSH2 0x2AAB JUMPI PUSH1 0x0 DUP1 REVERT JUMPDEST POP POP DUP1 MLOAD PUSH1 0x20 SWAP1 SWAP2 ADD MLOAD SWAP1 SWAP3 SWAP1 SWAP2 POP JUMP JUMPDEST PUSH1 0x0 DUP3 DUP3 LT ISZERO PUSH2 0x2ACE JUMPI PUSH2 0x2ACE PUSH2 0x2888 JUMP JUMPDEST POP SUB SWAP1 JUMP JUMPDEST PUSH1 0x0 DUP3 PUSH2 0x2AF0 JUMPI PUSH4 0x4E487B71 PUSH1 0xE0 SHL PUSH1 0x0 MSTORE PUSH1 0x12 PUSH1 0x4 MSTORE PUSH1 0x24 PUSH1 0x0 REVERT JUMPDEST POP DIV SWAP1 JUMP JUMPDEST PUSH1 0x0 DUP2 PUSH1 0x0 NOT DIV DUP4 GT DUP3 ISZERO ISZERO AND ISZERO PUSH2 0x2B0F JUMPI PUSH2 0x2B0F PUSH2 0x2888 JUMP JUMPDEST POP MUL SWAP1 JUMP JUMPDEST DUP6 DUP2 MSTORE DUP5 PUSH1 0x20 DUP3 ADD MSTORE PUSH1 0xA0 PUSH1 0x40 DUP3 ADD MSTORE PUSH1 0x0 PUSH2 0x2B33 PUSH1 0xA0 DUP4 ADD DUP7 PUSH2 0x2945 JUMP JUMPDEST PUSH1 0x1 PUSH1 0x1 PUSH1 0xA0 SHL SUB SWAP5 SWAP1 SWAP5 AND PUSH1 0x60 DUP4 ADD MSTORE POP PUSH1 0x80 ADD MSTORE SWAP4 SWAP3 POP POP POP JUMP JUMPDEST DUP1 MLOAD PUSH1 0x1 PUSH1 0x1 PUSH1 0x70 SHL SUB DUP2 AND DUP2 EQ PUSH2 0x262C JUMPI PUSH1 0x0 DUP1 REVERT JUMPDEST PUSH1 0x0 DUP1 PUSH1 0x0 PUSH1 0x60 DUP5 DUP7 SUB SLT ISZERO PUSH2 0x2B7C JUMPI PUSH1 0x0 DUP1 REVERT JUMPDEST PUSH2 0x2B85 DUP5 PUSH2 0x2B50 JUMP JUMPDEST SWAP3 POP PUSH2 0x2B93 PUSH1 0x20 DUP6 ADD PUSH2 0x2B50 JUMP JUMPDEST SWAP2 POP PUSH1 0x40 DUP5 ADD MLOAD PUSH4 0xFFFFFFFF DUP2 AND DUP2 EQ PUSH2 0x2BAC JUMPI PUSH1 0x0 DUP1 REVERT JUMPDEST DUP1 SWAP2 POP POP SWAP3 POP SWAP3 POP SWAP3 JUMP JUMPDEST PUSH1 0x1 PUSH1 0x1 PUSH1 0xA0 SHL SUB SWAP9 DUP10 AND DUP2 MSTORE SWAP7 DUP9 AND PUSH1 0x20 DUP9 ADD MSTORE PUSH1 0x40 DUP8 ADD SWAP6 SWAP1 SWAP6 MSTORE PUSH1 0x60 DUP7 ADD SWAP4 SWAP1 SWAP4 MSTORE PUSH1 0x80 DUP6 ADD SWAP2 SWAP1 SWAP2 MSTORE PUSH1 0xA0 DUP5 ADD MSTORE SWAP1 SWAP3 AND PUSH1 0xC0 DUP3 ADD MSTORE PUSH1 0xE0 DUP2 ADD SWAP2 SWAP1 SWAP2 MSTORE PUSH2 0x100 ADD SWAP1 JUMP JUMPDEST PUSH1 0x0 DUP1 PUSH1 0x0 PUSH1 0x60 DUP5 DUP7 SUB SLT ISZERO PUSH2 0x2C15 JUMPI PUSH1 0x0 DUP1 REVERT JUMPDEST DUP4 MLOAD SWAP3 POP PUSH1 0x20 DUP5 ADD MLOAD SWAP2 POP PUSH1 0x40 DUP5 ADD MLOAD SWAP1 POP SWAP3 POP SWAP3 POP SWAP3 JUMP JUMPDEST PUSH1 0x0 PUSH1 0xA0 DUP3 ADD DUP8 DUP4 MSTORE PUSH1 0x20 DUP8 DUP2 DUP6 ADD MSTORE PUSH1 0xA0 PUSH1 0x40 DUP6 ADD MSTORE DUP2 DUP8 MLOAD DUP1 DUP5 MSTORE PUSH1 0xC0 DUP7 ADD SWAP2 POP DUP3 DUP10 ADD SWAP4 POP PUSH1 0x0 JUMPDEST DUP2 DUP2 LT ISZERO PUSH2 0x2C7E JUMPI DUP5 MLOAD PUSH1 0x1 PUSH1 0x1 PUSH1 0xA0 SHL SUB AND DUP4 MSTORE SWAP4 DUP4 ADD SWAP4 SWAP2 DUP4 ADD SWAP2 PUSH1 0x1 ADD PUSH2 0x2C59 JUMP JUMPDEST POP POP PUSH1 0x1 PUSH1 0x1 PUSH1 0xA0 SHL SUB SWAP7 SWAP1 SWAP7 AND PUSH1 0x60 DUP6 ADD MSTORE POP POP POP PUSH1 0x80 ADD MSTORE SWAP4 SWAP3 POP POP POP JUMP JUMPDEST PUSH1 0x0 JUMPDEST DUP4 DUP2 LT ISZERO PUSH2 0x2CBA JUMPI DUP2 DUP2 ADD MLOAD DUP4 DUP3 ADD MSTORE PUSH1 0x20 ADD PUSH2 0x2CA2 JUMP JUMPDEST DUP4 DUP2 GT ISZERO PUSH2 0x16AF JUMPI POP POP PUSH1 0x0 SWAP2 ADD MSTORE JUMP JUMPDEST PUSH1 0x0 DUP3 MLOAD PUSH2 0x2CDD DUP2 DUP5 PUSH1 0x20 DUP8 ADD PUSH2 0x2C9F JUMP JUMPDEST SWAP2 SWAP1 SWAP2 ADD SWAP3 SWAP2 POP POP JUMP JUMPDEST PUSH1 0x20 DUP2 MSTORE PUSH1 0x0 DUP3 MLOAD DUP1 PUSH1 0x20 DUP5 ADD MSTORE PUSH2 0x2D06 DUP2 PUSH1 0x40 DUP6 ADD PUSH1 0x20 DUP8 ADD PUSH2 0x2C9F JUMP JUMPDEST PUSH1 0x1F ADD PUSH1 0x1F NOT AND SWAP2 SWAP1 SWAP2 ADD PUSH1 0x40 ADD SWAP3 SWAP2 POP POP JUMP INVALID LOG2 PUSH5 0x6970667358 0x22 SLT KECCAK256 0xB5 0x4E CHAINID 0xDD BASEFEE DELEGATECALL 0xC SLOAD SWAP3 0xCF PUSH30 0xF8434851C71C262BE68206A0616C088B705AA329FE64736F6C634300080C STOP CALLER ",
  "sha1": "2d3fa86a46250c9c51e9267729ab3e89c39c46e6",
  "source": "// SPDX-License-Identifier: MIT\npragma solidity 0.8.12;\n\nimport \"@openzeppelin/contracts/access/Ownable.sol\";\nimport \"@openzeppelin/contracts/token/ERC20/IERC20.sol\";\nimport \"@openzeppelin/contracts/token/ERC20/extensions/ERC20Burnable.sol\";\nimport \"@openzeppelin/contracts/token/ERC20/utils/SafeERC20.sol\";\nimport \"./GalacticChef.sol\";\nimport \"../interfaces/IPancakePair.sol\";\nimport \"../interfaces/IPancakeRouter.sol\";\n\ncontract FeeDistributor is Ownable {\n    using SafeERC20 for ERC20Burnable;\n    using SafeERC20 for IERC20;\n\n    struct FeeData {\n        uint256 buyback;\n        uint256 liquidity;\n        uint256 team;\n        bool bbNice;\n        bool liqNice;\n        /**\n            if it's an LP token we can definitely burn it to get the contained tokens\n            else it's a Single asset token and have to swap it for base eth token \n            before buying anything else.\n            bbNice token to buyback and burn\n            is it CRUSH (false) or NICE (true)\n            liqNice token to get liquidity for\n            is it CRUSH/BNB(false) or NICE/BNB (true)\n        **/\n        IPancakeRouter router; // main router for this token\n        uint256 slippage;\n    }\n    address public immutable baseToken; // wBNB || wETH || etc\n    address[] public crushPath; // [0]wBNB to [1]CRUSH\n    address[] public nicePath; // [0]wBNB to [1]NICE\n    address public crushLiquidity; // for swapping / adding Liquidity\n    address public niceLiquidity; // for swapping / adding Liquidity\n    address public immutable deadWallet =\n        0x000000000000000000000000000000000000dEaD;\n    IPancakeRouter public tokenRouter;\n    uint256 public immutable idoPrice;\n    address public teamWallet;\n\n    uint256 public constant DIVISOR = 10000;\n    GalacticChef public chef;\n\n    mapping(uint256 => FeeData) public feeData;\n    mapping(uint256 => address[]) public tokenPath; // RECEIVED TOKEN TO WBNB\n    mapping(uint256 => address[]) public token0Path; // LP TOKEN 0 TO WBNB\n    mapping(uint256 => address[]) public token1Path; // LP TOKEN 1 TO WBNB\n\n    event AddPoolFee(uint256 indexed _pid);\n    event EditFee(uint256 indexed _pid, uint256 bb, uint256 liq, uint256 team);\n    event UpdateRouter(uint256 indexed _pid, address router);\n    event UpdatePath(uint256 indexed _pid, address router);\n    event UpdateTeamWallet(address _teamW);\n    event UpdateRouter(address _router);\n    event UpdateCore(bool isNice, address liquidity, uint256 pathSize);\n\n    modifier onlyChef() {\n        require(msg.sender == address(chef), \"onlyChef\");\n        _;\n    }\n\n    constructor(\n        address _chef,\n        address _baseWrapped,\n        uint256 _idoPrice\n    ) {\n        require(\n            _chef != address(0) && _baseWrapped != address(0),\n            \"Zero address\"\n        );\n        chef = GalacticChef(_chef);\n        baseToken = _baseWrapped;\n        // _idoPrice must be NICE/BNB NOT BNB/NICE\n        idoPrice = _idoPrice;\n    }\n\n    function addorEditFee(\n        uint256[5] calldata _fees, // 0 pid, 1 buyback, 2 liquidity, 3 team, 4 slippage\n        bool _bbNice,\n        bool _liqNice,\n        address router,\n        address[] calldata _tokens,\n        address[] calldata _token0Path,\n        address[] calldata _token1Path\n    ) external onlyOwner {\n        require(\n            _fees[1] + _fees[2] + _fees[3] == DIVISOR,\n            \"Incorrect Fee distribution\"\n        );\n        require(router != address(0), \"Incorrect Router\");\n        require(_tokens.length > 0, \"need a path to base\");\n        require(_fees[4] >= 50 && _fees[4] <= 2000, \"slippage too low\");\n        feeData[_fees[0]] = FeeData(\n            _fees[1],\n            _fees[2],\n            _fees[3],\n            _bbNice,\n            _liqNice,\n            IPancakeRouter(router),\n            _fees[4]\n        );\n        tokenPath[_fees[0]] = _tokens;\n        token0Path[_fees[0]] = _token0Path;\n        token1Path[_fees[0]] = _token1Path;\n        emit AddPoolFee(_fees[0]);\n    }\n\n    /// @notice Function that distributes fees to the respective flows\n    /// @dev This function requires funds to be sent beforehand to this contract\n    function receiveFees(uint256 _pid, uint256 _amount) external onlyChef {\n        (, , , IERC20 token, , , bool isLP) = chef.poolInfo(_pid);\n        token.safeTransferFrom(address(chef), address(this), _amount);\n        // Check if token was received\n        require(token.balanceOf(address(this)) >= _amount, \"send funds\");\n        FeeData storage feeInfo = feeData[_pid];\n        uint256 wBNBtoWorkWith;\n        // IS LP TOKEN ?\n        if (isLP) {\n            // YES SWAP LP FLOW;\n            uint256[] memory minAmounts = feeInfo.router.getAmountsOut(\n                _amount,\n                tokenPath[_pid]\n            );\n\n            token.approve(address(feeInfo.router), _amount);\n            // remove liquidity\n            (uint256 returnedA, uint256 returnedB) = feeInfo\n                .router\n                .removeLiquidity(\n                    tokenPath[_pid][0],\n                    tokenPath[_pid][1],\n                    _amount,\n                    minAmounts[0], //A AMOUNT\n                    minAmounts[1], //B AMOUNT\n                    address(this),\n                    block.timestamp + 5 // recommended by arishali\n                );\n            // swap token0 for wBNB\n            if (tokenPath[_pid][0] != baseToken) {\n                (minAmounts[0], minAmounts[1]) = swapForWrap(\n                    returnedA,\n                    token0Path[_pid],\n                    feeInfo\n                );\n                if (returnedA - minAmounts[0] > 0)\n                    IERC20(tokenPath[_pid][0]).transfer(\n                        deadWallet,\n                        returnedA - minAmounts[0]\n                    );\n                wBNBtoWorkWith += minAmounts[1];\n            } else wBNBtoWorkWith += returnedA;\n            // swap token1 for wBNB (if necessary)\n            if (tokenPath[_pid][1] != baseToken) {\n                (minAmounts[0], minAmounts[1]) = swapForWrap(\n                    returnedB,\n                    token1Path[_pid],\n                    feeInfo\n                );\n                if (returnedA - minAmounts[0] > 0)\n                    IERC20(tokenPath[_pid][1]).transfer(\n                        deadWallet,\n                        returnedB - minAmounts[0]\n                    );\n                wBNBtoWorkWith += minAmounts[1];\n            } else wBNBtoWorkWith += returnedB;\n        } else {\n            // NO SWAP ERC FLOW\n            uint256[] memory minAmount = feeInfo.router.getAmountsOut(\n                _amount,\n                token0Path[_pid]\n            );\n            minAmount = feeInfo.router.swapExactTokensForTokens(\n                _amount,\n                minAmount[minAmount.length - 1] *\n                    ((DIVISOR - feeInfo.slippage) / DIVISOR),\n                token0Path[_pid],\n                address(this),\n                block.timestamp + 5\n            );\n            wBNBtoWorkWith += minAmount[minAmount.length - 1];\n        }\n        // GET PORTION AMOUNTS\n        getFeesAndDistribute(wBNBtoWorkWith, feeInfo);\n    }\n\n    /// @notice math to figure out the distribution portions of wBNB to use and swap\n    function getFeesAndDistribute(uint256 _wBnb, FeeData storage _feeInfo)\n        internal\n    {\n        uint256 workBnb = _wBnb;\n        uint256 buyback = (_wBnb * _feeInfo.buyback) / DIVISOR;\n        uint256 liquidity;\n        uint256 bnbLiquidity;\n        uint256 niceGot;\n        uint256 crushGot;\n        uint256 _team;\n        IPancakePair crushLiq = IPancakePair(crushLiquidity);\n        IPancakePair niceLiq = IPancakePair(niceLiquidity);\n        // IS Nice above IDO?\n        if (checkPrice()) {\n            //PROCEED\n            bnbLiquidity = _feeInfo.team > 0\n                ? (_wBnb * _feeInfo.liquidity) / DIVISOR\n                : _wBnb - buyback;\n            liquidity = bnbLiquidity / 2;\n            niceGot =\n                (_feeInfo.bbNice ? 0 : buyback) +\n                (_feeInfo.liqNice ? 0 : liquidity);\n            crushGot =\n                (_feeInfo.bbNice ? buyback : 0) +\n                (_feeInfo.liqNice ? liquidity : 0);\n            bnbLiquidity = (_feeInfo.liqNice ? crushGot : niceGot);\n            if (niceGot > 0) {\n                (niceGot, _team) = swapWrapForToken(niceGot, niceLiq, nicePath);\n                workBnb -= _team;\n            }\n            if (crushGot > 0) {\n                (crushGot, _team) = swapWrapForToken(\n                    crushGot,\n                    crushLiq,\n                    crushPath\n                );\n                workBnb -= _team;\n            }\n        } else {\n            //FULL BUYBACK OF NICE\n            (niceGot, _team) = swapWrapForToken(_wBnb, niceLiq, nicePath);\n            workBnb -= _team;\n        }\n        // ADD LIQUIDITY AND BURN (TRANSFER TO DEAD ADDRESS)\n        if (liquidity > 0) {\n            uint256 tokensForLiquidity = (liquidity * 1e12) / bnbLiquidity;\n            if (_feeInfo.liqNice) {\n                // add liquidity to NICE\n                tokensForLiquidity = (niceGot * tokensForLiquidity) / 1e12;\n                (bnbLiquidity, tokensForLiquidity, liquidity) = tokenRouter\n                    .addLiquidity(\n                        nicePath[0],\n                        nicePath[1],\n                        liquidity,\n                        (niceGot * tokensForLiquidity) / 1e12,\n                        (liquidity * 100) / DIVISOR,\n                        (niceGot * 100) / DIVISOR,\n                        address(this),\n                        block.timestamp + 5\n                    );\n                niceGot -= tokensForLiquidity;\n                workBnb -= bnbLiquidity;\n                // transfer liquidity to dead wallet\n                niceLiq.transfer(deadWallet, liquidity);\n            } else {\n                // add liquidity to NICE\n                tokensForLiquidity = (crushGot * tokensForLiquidity) / 1e12;\n                (bnbLiquidity, tokensForLiquidity, liquidity) = tokenRouter\n                    .addLiquidity(\n                        nicePath[0],\n                        nicePath[1],\n                        liquidity,\n                        (crushGot * tokensForLiquidity) / 1e12,\n                        (liquidity * 100) / DIVISOR,\n                        (crushGot * 100) / DIVISOR,\n                        address(this),\n                        block.timestamp + 5\n                    );\n                crushGot -= tokensForLiquidity;\n                workBnb -= bnbLiquidity;\n                // transfer liquidity to dead wallet\n                crushLiq.transfer(deadWallet, liquidity);\n            }\n        }\n        if (niceGot > 0) {\n            ERC20Burnable(nicePath[1]).burn(niceGot);\n        }\n        if (crushGot > 0) {\n            ERC20Burnable(crushPath[1]).burn(crushGot);\n        }\n\n        if (workBnb > 0) IERC20(baseToken).transfer(teamWallet, workBnb);\n    }\n\n    /// @notice simplify swap request\n    /// @dev ONLY FOR NICE AND CRUSH SWAPPING\n    function swapWrapForToken(\n        uint256 _amountWBnb,\n        IPancakePair _pair,\n        address[] memory path\n    ) internal returns (uint256 tokensReceived, uint256 _wBnbUsed) {\n        (uint256 res0, uint256 res1, ) = _pair.getReserves();\n        uint256 minToGet = tokenRouter.getAmountOut(_amountWBnb, res0, res1);\n        uint256[] memory swappedTokens = tokenRouter.swapExactTokensForTokens(\n            _amountWBnb,\n            (minToGet * 990) / 1000,\n            path,\n            address(this),\n            block.timestamp + 5\n        );\n        tokensReceived = swappedTokens[swappedTokens.length - 1];\n        _wBnbUsed = swappedTokens[0];\n    }\n\n    /// @notice Check that current Nice Price is above IDO\n    /// @dev \n    function checkPrice() public view returns (bool _aboveIDO) {\n        (uint256 reserve0, uint256 reserve1, ) = IPancakePair(niceLiquidity)\n            .getReserves();\n        reserve1 = reserve1 > 0 ? reserve1 : 1; //just in case\n        _aboveIDO = ((reserve0 * 1 ether) / reserve1) > idoPrice;\n    }\n\n    function swapForWrap(\n        uint256 inputAmount,\n        address[] storage path,\n        FeeData storage feeInfo\n    ) internal returns (uint256 amountLeft, uint256 wBnbReturned) {\n        uint256[] memory swapAmounts = feeInfo.router.getAmountsOut(\n            inputAmount,\n            path\n        );\n        swapAmounts = feeInfo.router.swapExactTokensForTokens(\n            inputAmount,\n            swapAmounts[path.length - 1] *\n                ((DIVISOR - feeInfo.slippage) / DIVISOR),\n            path,\n            address(this),\n            block.timestamp + 10\n        );\n        amountLeft = inputAmount - swapAmounts[0];\n        wBnbReturned = swapAmounts[swapAmounts.length - 1];\n    }\n\n    function setBaseRouter(address _newRouter) external onlyOwner {\n        require(_newRouter != address(0), \"No zero\");\n        tokenRouter = IPancakeRouter(_newRouter);\n        emit UpdateRouter(_newRouter);\n    }\n\n    function setBaseRouting(\n        bool _isNice,\n        address _liquidity,\n        address[] calldata _path\n    ) external onlyOwner {\n        require(_liquidity != address(0), \"No zero\");\n        require(_path.length > 1, \"at least 2 tokens\");\n        if (_isNice) {\n            niceLiquidity = _liquidity;\n            nicePath = _path;\n        } else {\n            crushLiquidity = _liquidity;\n            crushPath = _path;\n        }\n        emit UpdateCore(_isNice, _liquidity, _path.length);\n    }\n\n    function setTeamWallet(address _newTeamW) external onlyOwner {\n        require(_newTeamW != address(0), \"Cant pay 0\");\n        teamWallet = _newTeamW;\n        emit UpdateTeamWallet(_newTeamW);\n    }\n}\n",
  "sourcePath": "contracts/FeeDistributor.sol",
  "type": "contract"
}