{
  "contractName": "FeeDistributor",
  "abi": [
    {
      "inputs": [
        {
          "internalType": "address",
          "name": "_chef",
          "type": "address"
        },
        {
          "internalType": "address",
          "name": "_baseWrapped",
          "type": "address"
        },
        {
          "internalType": "uint256",
          "name": "_idoPrice",
          "type": "uint256"
        }
      ],
      "stateMutability": "nonpayable",
      "type": "constructor"
    },
    {
      "anonymous": false,
      "inputs": [
        {
          "indexed": true,
          "internalType": "uint256",
          "name": "_pid",
          "type": "uint256"
        }
      ],
      "name": "AddPoolFee",
      "type": "event"
    },
    {
      "anonymous": false,
      "inputs": [
        {
          "indexed": true,
          "internalType": "uint256",
          "name": "_pid",
          "type": "uint256"
        },
        {
          "indexed": false,
          "internalType": "uint256",
          "name": "bb",
          "type": "uint256"
        },
        {
          "indexed": false,
          "internalType": "uint256",
          "name": "liq",
          "type": "uint256"
        },
        {
          "indexed": false,
          "internalType": "uint256",
          "name": "team",
          "type": "uint256"
        }
      ],
      "name": "EditFee",
      "type": "event"
    },
    {
      "anonymous": false,
      "inputs": [
        {
          "indexed": true,
          "internalType": "address",
          "name": "previousOwner",
          "type": "address"
        },
        {
          "indexed": true,
          "internalType": "address",
          "name": "newOwner",
          "type": "address"
        }
      ],
      "name": "OwnershipTransferred",
      "type": "event"
    },
    {
      "anonymous": false,
      "inputs": [
        {
          "indexed": false,
          "internalType": "bool",
          "name": "isNice",
          "type": "bool"
        },
        {
          "indexed": false,
          "internalType": "address",
          "name": "liquidity",
          "type": "address"
        },
        {
          "indexed": false,
          "internalType": "uint256",
          "name": "pathSize",
          "type": "uint256"
        }
      ],
      "name": "UpdateCore",
      "type": "event"
    },
    {
      "anonymous": false,
      "inputs": [
        {
          "indexed": true,
          "internalType": "uint256",
          "name": "_pid",
          "type": "uint256"
        },
        {
          "indexed": false,
          "internalType": "address",
          "name": "router",
          "type": "address"
        }
      ],
      "name": "UpdatePath",
      "type": "event"
    },
    {
      "anonymous": false,
      "inputs": [
        {
          "indexed": true,
          "internalType": "uint256",
          "name": "_pid",
          "type": "uint256"
        },
        {
          "indexed": false,
          "internalType": "address",
          "name": "router",
          "type": "address"
        }
      ],
      "name": "UpdateRouter",
      "type": "event"
    },
    {
      "anonymous": false,
      "inputs": [
        {
          "indexed": false,
          "internalType": "address",
          "name": "_router",
          "type": "address"
        }
      ],
      "name": "UpdateRouter",
      "type": "event"
    },
    {
      "anonymous": false,
      "inputs": [
        {
          "indexed": false,
          "internalType": "address",
          "name": "_teamW",
          "type": "address"
        }
      ],
      "name": "UpdateTeamWallet",
      "type": "event"
    },
    {
      "inputs": [],
      "name": "DIVISOR",
      "outputs": [
        {
          "internalType": "uint256",
          "name": "",
          "type": "uint256"
        }
      ],
      "stateMutability": "view",
      "type": "function"
    },
    {
      "inputs": [],
      "name": "baseToken",
      "outputs": [
        {
          "internalType": "address",
          "name": "",
          "type": "address"
        }
      ],
      "stateMutability": "view",
      "type": "function"
    },
    {
      "inputs": [],
      "name": "chef",
      "outputs": [
        {
          "internalType": "contract GalacticChef",
          "name": "",
          "type": "address"
        }
      ],
      "stateMutability": "view",
      "type": "function"
    },
    {
      "inputs": [],
      "name": "crushLiquidity",
      "outputs": [
        {
          "internalType": "address",
          "name": "",
          "type": "address"
        }
      ],
      "stateMutability": "view",
      "type": "function"
    },
    {
      "inputs": [
        {
          "internalType": "uint256",
          "name": "",
          "type": "uint256"
        }
      ],
      "name": "crushPath",
      "outputs": [
        {
          "internalType": "address",
          "name": "",
          "type": "address"
        }
      ],
      "stateMutability": "view",
      "type": "function"
    },
    {
      "inputs": [],
      "name": "deadWallet",
      "outputs": [
        {
          "internalType": "address",
          "name": "",
          "type": "address"
        }
      ],
      "stateMutability": "view",
      "type": "function"
    },
    {
      "inputs": [
        {
          "internalType": "uint256",
          "name": "",
          "type": "uint256"
        }
      ],
      "name": "feeData",
      "outputs": [
        {
          "internalType": "uint256",
          "name": "buyback",
          "type": "uint256"
        },
        {
          "internalType": "uint256",
          "name": "liquidity",
          "type": "uint256"
        },
        {
          "internalType": "uint256",
          "name": "team",
          "type": "uint256"
        },
        {
          "internalType": "bool",
          "name": "bbNice",
          "type": "bool"
        },
        {
          "internalType": "bool",
          "name": "liqNice",
          "type": "bool"
        },
        {
          "internalType": "contract IPancakeRouter",
          "name": "router",
          "type": "address"
        },
        {
          "internalType": "uint256",
          "name": "slippage",
          "type": "uint256"
        }
      ],
      "stateMutability": "view",
      "type": "function"
    },
    {
      "inputs": [],
      "name": "idoPrice",
      "outputs": [
        {
          "internalType": "uint256",
          "name": "",
          "type": "uint256"
        }
      ],
      "stateMutability": "view",
      "type": "function"
    },
    {
      "inputs": [],
      "name": "niceLiquidity",
      "outputs": [
        {
          "internalType": "address",
          "name": "",
          "type": "address"
        }
      ],
      "stateMutability": "view",
      "type": "function"
    },
    {
      "inputs": [
        {
          "internalType": "uint256",
          "name": "",
          "type": "uint256"
        }
      ],
      "name": "nicePath",
      "outputs": [
        {
          "internalType": "address",
          "name": "",
          "type": "address"
        }
      ],
      "stateMutability": "view",
      "type": "function"
    },
    {
      "inputs": [],
      "name": "owner",
      "outputs": [
        {
          "internalType": "address",
          "name": "",
          "type": "address"
        }
      ],
      "stateMutability": "view",
      "type": "function"
    },
    {
      "inputs": [],
      "name": "renounceOwnership",
      "outputs": [],
      "stateMutability": "nonpayable",
      "type": "function"
    },
    {
      "inputs": [],
      "name": "teamWallet",
      "outputs": [
        {
          "internalType": "address",
          "name": "",
          "type": "address"
        }
      ],
      "stateMutability": "view",
      "type": "function"
    },
    {
      "inputs": [
        {
          "internalType": "uint256",
          "name": "",
          "type": "uint256"
        },
        {
          "internalType": "uint256",
          "name": "",
          "type": "uint256"
        }
      ],
      "name": "token0Path",
      "outputs": [
        {
          "internalType": "address",
          "name": "",
          "type": "address"
        }
      ],
      "stateMutability": "view",
      "type": "function"
    },
    {
      "inputs": [
        {
          "internalType": "uint256",
          "name": "",
          "type": "uint256"
        },
        {
          "internalType": "uint256",
          "name": "",
          "type": "uint256"
        }
      ],
      "name": "token1Path",
      "outputs": [
        {
          "internalType": "address",
          "name": "",
          "type": "address"
        }
      ],
      "stateMutability": "view",
      "type": "function"
    },
    {
      "inputs": [
        {
          "internalType": "uint256",
          "name": "",
          "type": "uint256"
        },
        {
          "internalType": "uint256",
          "name": "",
          "type": "uint256"
        }
      ],
      "name": "tokenPath",
      "outputs": [
        {
          "internalType": "address",
          "name": "",
          "type": "address"
        }
      ],
      "stateMutability": "view",
      "type": "function"
    },
    {
      "inputs": [],
      "name": "tokenRouter",
      "outputs": [
        {
          "internalType": "contract IPancakeRouter",
          "name": "",
          "type": "address"
        }
      ],
      "stateMutability": "view",
      "type": "function"
    },
    {
      "inputs": [
        {
          "internalType": "address",
          "name": "newOwner",
          "type": "address"
        }
      ],
      "name": "transferOwnership",
      "outputs": [],
      "stateMutability": "nonpayable",
      "type": "function"
    },
    {
      "inputs": [
        {
          "internalType": "uint256[5]",
          "name": "_fees",
          "type": "uint256[5]"
        },
        {
          "internalType": "bool",
          "name": "_bbNice",
          "type": "bool"
        },
        {
          "internalType": "bool",
          "name": "_liqNice",
          "type": "bool"
        },
        {
          "internalType": "address",
          "name": "router",
          "type": "address"
        },
        {
          "internalType": "address[]",
          "name": "_tokens",
          "type": "address[]"
        },
        {
          "internalType": "address[]",
          "name": "_token0Path",
          "type": "address[]"
        },
        {
          "internalType": "address[]",
          "name": "_token1Path",
          "type": "address[]"
        }
      ],
      "name": "addorEditFee",
      "outputs": [],
      "stateMutability": "nonpayable",
      "type": "function"
    },
    {
      "inputs": [
        {
          "internalType": "uint256",
          "name": "_pid",
          "type": "uint256"
        },
        {
          "internalType": "uint256",
          "name": "_amount",
          "type": "uint256"
        }
      ],
      "name": "receiveFees",
      "outputs": [],
      "stateMutability": "nonpayable",
      "type": "function"
    },
    {
      "inputs": [],
      "name": "checkPrice",
      "outputs": [
        {
          "internalType": "bool",
          "name": "_aboveIDO",
          "type": "bool"
        }
      ],
      "stateMutability": "view",
      "type": "function"
    },
    {
      "inputs": [
        {
          "internalType": "address",
          "name": "_newRouter",
          "type": "address"
        }
      ],
      "name": "setBaseRouter",
      "outputs": [],
      "stateMutability": "nonpayable",
      "type": "function"
    },
    {
      "inputs": [
        {
          "internalType": "bool",
          "name": "_isNice",
          "type": "bool"
        },
        {
          "internalType": "address",
          "name": "_liquidity",
          "type": "address"
        },
        {
          "internalType": "address[]",
          "name": "_path",
          "type": "address[]"
        }
      ],
      "name": "setBaseRouting",
      "outputs": [],
      "stateMutability": "nonpayable",
      "type": "function"
    },
    {
      "inputs": [
        {
          "internalType": "address",
          "name": "_newTeamW",
          "type": "address"
        }
      ],
      "name": "setTeamWallet",
      "outputs": [],
      "stateMutability": "nonpayable",
      "type": "function"
    }
  ],
  "bytecode": "0x60e060405261dead73ffffffffffffffffffffffffffffffffffffffff1660a09073ffffffffffffffffffffffffffffffffffffffff168152503480156200004657600080fd5b50604051620051993803806200519983398181016040528101906200006c9190620002fc565b60006200007e6200024f60201b60201c565b9050806000806101000a81548173ffffffffffffffffffffffffffffffffffffffff021916908373ffffffffffffffffffffffffffffffffffffffff1602179055508073ffffffffffffffffffffffffffffffffffffffff16600073ffffffffffffffffffffffffffffffffffffffff167f8be0079c531659141344cd1fd0a4f28419497f9722a3daafe3b4186f6b6457e060405160405180910390a350600073ffffffffffffffffffffffffffffffffffffffff168373ffffffffffffffffffffffffffffffffffffffff1614158015620001875750600073ffffffffffffffffffffffffffffffffffffffff168273ffffffffffffffffffffffffffffffffffffffff1614155b620001c9576040517f08c379a0000000000000000000000000000000000000000000000000000000008152600401620001c090620003b9565b60405180910390fd5b82600760006101000a81548173ffffffffffffffffffffffffffffffffffffffff021916908373ffffffffffffffffffffffffffffffffffffffff1602179055508173ffffffffffffffffffffffffffffffffffffffff1660808173ffffffffffffffffffffffffffffffffffffffff16815250508060c08181525050505050620003db565b600033905090565b600080fd5b600073ffffffffffffffffffffffffffffffffffffffff82169050919050565b600062000289826200025c565b9050919050565b6200029b816200027c565b8114620002a757600080fd5b50565b600081519050620002bb8162000290565b92915050565b6000819050919050565b620002d681620002c1565b8114620002e257600080fd5b50565b600081519050620002f681620002cb565b92915050565b60008060006060848603121562000318576200031762000257565b5b60006200032886828701620002aa565b93505060206200033b86828701620002aa565b92505060406200034e86828701620002e5565b9150509250925092565b600082825260208201905092915050565b7f5a65726f20616464726573730000000000000000000000000000000000000000600082015250565b6000620003a1600c8362000358565b9150620003ae8262000369565b602082019050919050565b60006020820190508181036000830152620003d48162000392565b9050919050565b60805160a05160c051614d566200044360003960008181611bbd0152611eb60152600081816112870152818161150901528181611a6301528181612a730152612ce00152600081816110ec0152818161136e01528181611c6a0152612ed60152614d566000f3fe608060405234801561001057600080fd5b50600436106101585760003560e01c806385141a77116100c3578063c55dae631161007c578063c55dae63146103d1578063ca52e292146103ef578063cd80fe0d1461040b578063e937a87614610429578063f2fde38b14610447578063f8b70f031461046357610158565b806385141a77146102f95780638da5cb5b146103175780638e222d23146103355780638fc3047d14610365578063a562bdba14610383578063b409f4d2146103a157610158565b80634f348758116101155780634f348758146102255780635992704414610241578063659f4bf91461025f578063715018a61461028f5780637a254a41146102995780637d04feff146102c957610158565b8063075b42ab1461015d5780631525ff7d1461017b578063176edd85146101975780631fc8bc5d146101b35780633410fe6e146101d15780633843418d146101ef575b600080fd5b61016561047f565b6040516101729190613575565b60405180910390f35b610195600480360381019061019091906135d0565b6104a5565b005b6101b160048036038101906101ac91906136bc565b61060c565b005b6101bb610aee565b6040516101c89190613822565b60405180910390f35b6101d9610b14565b6040516101e69190613856565b60405180910390f35b6102096004803603810190610204919061389d565b610b1a565b60405161021c97969594939291906138fa565b60405180910390f35b61023f600480360381019061023a9190613969565b610b96565b005b610249611817565b6040516102569190613575565b60405180910390f35b61027960048036038101906102749190613969565b61183d565b6040516102869190613575565b60405180910390f35b61029761188b565b005b6102b360048036038101906102ae9190613969565b6119c5565b6040516102c09190613575565b60405180910390f35b6102e360048036038101906102de9190613969565b611a13565b6040516102f09190613575565b60405180910390f35b610301611a61565b60405161030e9190613575565b60405180910390f35b61031f611a85565b60405161032c9190613575565b60405180910390f35b61034f600480360381019061034a919061389d565b611aae565b60405161035c9190613575565b60405180910390f35b61036d611aed565b60405161037a91906139a9565b60405180910390f35b61038b611c03565b60405161039891906139c4565b60405180910390f35b6103bb60048036038101906103b6919061389d565b611c29565b6040516103c89190613575565b60405180910390f35b6103d9611c68565b6040516103e69190613575565b60405180910390f35b610409600480360381019061040491906139df565b611c8c565b005b610413611eb4565b6040516104209190613856565b60405180910390f35b610431611ed8565b60405161043e9190613575565b60405180910390f35b610461600480360381019061045c91906135d0565b611efe565b005b61047d600480360381019061047891906135d0565b6120a7565b005b600460009054906101000a900473ffffffffffffffffffffffffffffffffffffffff1681565b6104ad61220e565b73ffffffffffffffffffffffffffffffffffffffff166104cb611a85565b73ffffffffffffffffffffffffffffffffffffffff1614610521576040517f08c379a000000000000000000000000000000000000000000000000000000000815260040161051890613ab0565b60405180910390fd5b600073ffffffffffffffffffffffffffffffffffffffff168173ffffffffffffffffffffffffffffffffffffffff161415610591576040517f08c379a000000000000000000000000000000000000000000000000000000000815260040161058890613b1c565b60405180910390fd5b80600660006101000a81548173ffffffffffffffffffffffffffffffffffffffff021916908373ffffffffffffffffffffffffffffffffffffffff1602179055507f88b8edda57af64d7425b090e9e8d925c96d2cc1360afdc15f0da29752103e705816040516106019190613575565b60405180910390a150565b61061461220e565b73ffffffffffffffffffffffffffffffffffffffff16610632611a85565b73ffffffffffffffffffffffffffffffffffffffff1614610688576040517f08c379a000000000000000000000000000000000000000000000000000000000815260040161067f90613ab0565b60405180910390fd5b6127108a60036005811061069f5761069e613b3c565b5b60200201358b6002600581106106b8576106b7613b3c565b5b60200201358c6001600581106106d1576106d0613b3c565b5b60200201356106e09190613b9a565b6106ea9190613b9a565b1461072a576040517f08c379a000000000000000000000000000000000000000000000000000000000815260040161072190613c3c565b60405180910390fd5b600073ffffffffffffffffffffffffffffffffffffffff168773ffffffffffffffffffffffffffffffffffffffff16141561079a576040517f08c379a000000000000000000000000000000000000000000000000000000000815260040161079190613ca8565b60405180910390fd5b600086869050116107e0576040517f08c379a00000000000000000000000000000000000000000000000000000000081526004016107d790613d14565b60405180910390fd5b60328a6004600581106107f6576107f5613b3c565b5b60200201351015801561082357506107d08a60046005811061081b5761081a613b3c565b5b602002013511155b610862576040517f08c379a000000000000000000000000000000000000000000000000000000000815260040161085990613d80565b60405180910390fd5b6040518060e001604052808b60016005811061088157610880613b3c565b5b602002013581526020018b60026005811061089f5761089e613b3c565b5b602002013581526020018b6003600581106108bd576108bc613b3c565b5b602002013581526020018a1515815260200189151581526020018873ffffffffffffffffffffffffffffffffffffffff1681526020018b60046005811061090757610906613b3c565b5b6020020135815250600860008c60006005811061092757610926613b3c565b5b6020020135815260200190815260200160002060008201518160000155602082015181600101556040820151816002015560608201518160030160006101000a81548160ff02191690831515021790555060808201518160030160016101000a81548160ff02191690831515021790555060a08201518160030160026101000a81548173ffffffffffffffffffffffffffffffffffffffff021916908373ffffffffffffffffffffffffffffffffffffffff16021790555060c082015181600401559050508585600960008d600060058110610a0657610a05613b3c565b5b602002013581526020019081526020016000209190610a26929190613477565b508383600a60008d600060058110610a4157610a40613b3c565b5b602002013581526020019081526020016000209190610a61929190613477565b508181600b60008d600060058110610a7c57610a7b613b3c565b5b602002013581526020019081526020016000209190610a9c929190613477565b5089600060058110610ab157610ab0613b3c565b5b60200201357ff7eb02141ad38ebc5b61e51e5bb0e913cea227b9dfc94ea034fb39a9f5fe809f60405160405180910390a250505050505050505050565b600760009054906101000a900473ffffffffffffffffffffffffffffffffffffffff1681565b61271081565b60086020528060005260406000206000915090508060000154908060010154908060020154908060030160009054906101000a900460ff16908060030160019054906101000a900460ff16908060030160029054906101000a900473ffffffffffffffffffffffffffffffffffffffff16908060040154905087565b600760009054906101000a900473ffffffffffffffffffffffffffffffffffffffff1673ffffffffffffffffffffffffffffffffffffffff163373ffffffffffffffffffffffffffffffffffffffff1614610c26576040517f08c379a0000000000000000000000000000000000000000000000000000000008152600401610c1d90613dec565b60405180910390fd5b600080600760009054906101000a900473ffffffffffffffffffffffffffffffffffffffff1673ffffffffffffffffffffffffffffffffffffffff16631526fe27856040518263ffffffff1660e01b8152600401610c849190613856565b60e060405180830381865afa158015610ca1573d6000803e3d6000fd5b505050506040513d601f19601f82011682018060405250810190610cc59190613e74565b965050509450505050610d1d600760009054906101000a900473ffffffffffffffffffffffffffffffffffffffff1630858573ffffffffffffffffffffffffffffffffffffffff16612216909392919063ffffffff16565b828273ffffffffffffffffffffffffffffffffffffffff166370a08231306040518263ffffffff1660e01b8152600401610d579190613575565b602060405180830381865afa158015610d74573d6000803e3d6000fd5b505050506040513d601f19601f82011682018060405250810190610d989190613f16565b1015610dd9576040517f08c379a0000000000000000000000000000000000000000000000000000000008152600401610dd090613f8f565b60405180910390fd5b6000600860008681526020019081526020016000209050600082156115f65760008260030160029054906101000a900473ffffffffffffffffffffffffffffffffffffffff1673ffffffffffffffffffffffffffffffffffffffff1663d06ca61f87600960008b81526020019081526020016000206040518363ffffffff1660e01b8152600401610e6b9291906140d3565b600060405180830381865afa158015610e88573d6000803e3d6000fd5b505050506040513d6000823e3d601f19601f82011682018060405250810190610eb19190614252565b90508473ffffffffffffffffffffffffffffffffffffffff1663095ea7b38460030160029054906101000a900473ffffffffffffffffffffffffffffffffffffffff16886040518363ffffffff1660e01b8152600401610f1292919061429b565b6020604051808303816000875af1158015610f31573d6000803e3d6000fd5b505050506040513d601f19601f82011682018060405250810190610f5591906142c4565b506000808460030160029054906101000a900473ffffffffffffffffffffffffffffffffffffffff1673ffffffffffffffffffffffffffffffffffffffff1663baa2abde600960008c8152602001908152602001600020600081548110610fbf57610fbe613b3c565b5b9060005260206000200160009054906101000a900473ffffffffffffffffffffffffffffffffffffffff16600960008d81526020019081526020016000206001815481106110105761100f613b3c565b5b9060005260206000200160009054906101000a900473ffffffffffffffffffffffffffffffffffffffff168b876000815181106110505761104f613b3c565b5b60200260200101518860018151811061106c5761106b613b3c565b5b6020026020010151306005426110829190613b9a565b6040518863ffffffff1660e01b81526004016110a497969594939291906142f1565b60408051808303816000875af11580156110c2573d6000803e3d6000fd5b505050506040513d601f19601f820116820180604052508101906110e69190614360565b915091507f000000000000000000000000000000000000000000000000000000000000000073ffffffffffffffffffffffffffffffffffffffff16600960008b815260200190815260200160002060008154811061114757611146613b3c565b5b9060005260206000200160009054906101000a900473ffffffffffffffffffffffffffffffffffffffff1673ffffffffffffffffffffffffffffffffffffffff161461135d576111aa82600a60008c81526020019081526020016000208761229f565b846000815181106111be576111bd613b3c565b5b60200260200101856001815181106111d9576111d8613b3c565b5b6020026020010182815250828152505050600083600081518110611200576111ff613b3c565b5b60200260200101518361121391906143a0565b111561132f57600960008a815260200190815260200160002060008154811061123f5761123e613b3c565b5b9060005260206000200160009054906101000a900473ffffffffffffffffffffffffffffffffffffffff1673ffffffffffffffffffffffffffffffffffffffff1663a9059cbb7f0000000000000000000000000000000000000000000000000000000000000000856000815181106112ba576112b9613b3c565b5b6020026020010151856112cd91906143a0565b6040518363ffffffff1660e01b81526004016112ea92919061429b565b6020604051808303816000875af1158015611309573d6000803e3d6000fd5b505050506040513d601f19601f8201168201806040525081019061132d91906142c4565b505b8260018151811061134357611342613b3c565b5b6020026020010151846113569190613b9a565b935061136c565b81846113699190613b9a565b93505b7f000000000000000000000000000000000000000000000000000000000000000073ffffffffffffffffffffffffffffffffffffffff16600960008b81526020019081526020016000206001815481106113c9576113c8613b3c565b5b9060005260206000200160009054906101000a900473ffffffffffffffffffffffffffffffffffffffff1673ffffffffffffffffffffffffffffffffffffffff16146115df5761142c81600b60008c81526020019081526020016000208761229f565b846000815181106114405761143f613b3c565b5b602002602001018560018151811061145b5761145a613b3c565b5b602002602001018281525082815250505060008360008151811061148257611481613b3c565b5b60200260200101518361149591906143a0565b11156115b157600960008a81526020019081526020016000206001815481106114c1576114c0613b3c565b5b9060005260206000200160009054906101000a900473ffffffffffffffffffffffffffffffffffffffff1673ffffffffffffffffffffffffffffffffffffffff1663a9059cbb7f00000000000000000000000000000000000000000000000000000000000000008560008151811061153c5761153b613b3c565b5b60200260200101518461154f91906143a0565b6040518363ffffffff1660e01b815260040161156c92919061429b565b6020604051808303816000875af115801561158b573d6000803e3d6000fd5b505050506040513d601f19601f820116820180604052508101906115af91906142c4565b505b826001815181106115c5576115c4613b3c565b5b6020026020010151846115d89190613b9a565b93506115ee565b80846115eb9190613b9a565b93505b505050611805565b60008260030160029054906101000a900473ffffffffffffffffffffffffffffffffffffffff1673ffffffffffffffffffffffffffffffffffffffff1663d06ca61f87600a60008b81526020019081526020016000206040518363ffffffff1660e01b81526004016116699291906140d3565b600060405180830381865afa158015611686573d6000803e3d6000fd5b505050506040513d6000823e3d601f19601f820116820180604052508101906116af9190614252565b90508260030160029054906101000a900473ffffffffffffffffffffffffffffffffffffffff1673ffffffffffffffffffffffffffffffffffffffff166338ed173987612710866004015461271061170791906143a0565b6117119190614403565b846001865161172091906143a0565b8151811061173157611730613b3c565b5b60200260200101516117439190614434565b600a60008c8152602001908152602001600020306005426117649190613b9a565b6040518663ffffffff1660e01b815260040161178495949392919061448e565b6000604051808303816000875af11580156117a3573d6000803e3d6000fd5b505050506040513d6000823e3d601f19601f820116820180604052508101906117cc9190614252565b905080600182516117dd91906143a0565b815181106117ee576117ed613b3c565b5b6020026020010151826118019190613b9a565b9150505b61180f81836124b5565b505050505050565b600660009054906101000a900473ffffffffffffffffffffffffffffffffffffffff1681565b600a602052816000526040600020818154811061185957600080fd5b906000526020600020016000915091509054906101000a900473ffffffffffffffffffffffffffffffffffffffff1681565b61189361220e565b73ffffffffffffffffffffffffffffffffffffffff166118b1611a85565b73ffffffffffffffffffffffffffffffffffffffff1614611907576040517f08c379a00000000000000000000000000000000000000000000000000000000081526004016118fe90613ab0565b60405180910390fd5b600073ffffffffffffffffffffffffffffffffffffffff1660008054906101000a900473ffffffffffffffffffffffffffffffffffffffff1673ffffffffffffffffffffffffffffffffffffffff167f8be0079c531659141344cd1fd0a4f28419497f9722a3daafe3b4186f6b6457e060405160405180910390a360008060006101000a81548173ffffffffffffffffffffffffffffffffffffffff021916908373ffffffffffffffffffffffffffffffffffffffff160217905550565b600960205281600052604060002081815481106119e157600080fd5b906000526020600020016000915091509054906101000a900473ffffffffffffffffffffffffffffffffffffffff1681565b600b6020528160005260406000208181548110611a2f57600080fd5b906000526020600020016000915091509054906101000a900473ffffffffffffffffffffffffffffffffffffffff1681565b7f000000000000000000000000000000000000000000000000000000000000000081565b60008060009054906101000a900473ffffffffffffffffffffffffffffffffffffffff16905090565b60018181548110611abe57600080fd5b906000526020600020016000915054906101000a900473ffffffffffffffffffffffffffffffffffffffff1681565b6000806000600460009054906101000a900473ffffffffffffffffffffffffffffffffffffffff1673ffffffffffffffffffffffffffffffffffffffff16630902f1ac6040518163ffffffff1660e01b8152600401606060405180830381865afa158015611b5f573d6000803e3d6000fd5b505050506040513d601f19601f82011682018060405250810190611b83919061456a565b506dffffffffffffffffffffffffffff1691506dffffffffffffffffffffffffffff16915060008111611bb7576001611bb9565b805b90507f000000000000000000000000000000000000000000000000000000000000000081670de0b6b3a764000084611bf19190614434565b611bfb9190614403565b119250505090565b600560009054906101000a900473ffffffffffffffffffffffffffffffffffffffff1681565b60028181548110611c3957600080fd5b906000526020600020016000915054906101000a900473ffffffffffffffffffffffffffffffffffffffff1681565b7f000000000000000000000000000000000000000000000000000000000000000081565b611c9461220e565b73ffffffffffffffffffffffffffffffffffffffff16611cb2611a85565b73ffffffffffffffffffffffffffffffffffffffff1614611d08576040517f08c379a0000000000000000000000000000000000000000000000000000000008152600401611cff90613ab0565b60405180910390fd5b600073ffffffffffffffffffffffffffffffffffffffff168373ffffffffffffffffffffffffffffffffffffffff161415611d78576040517f08c379a0000000000000000000000000000000000000000000000000000000008152600401611d6f90614609565b60405180910390fd5b60018282905011611dbe576040517f08c379a0000000000000000000000000000000000000000000000000000000008152600401611db590614675565b60405180910390fd5b8315611e1c5782600460006101000a81548173ffffffffffffffffffffffffffffffffffffffff021916908373ffffffffffffffffffffffffffffffffffffffff160217905550818160029190611e16929190613477565b50611e70565b82600360006101000a81548173ffffffffffffffffffffffffffffffffffffffff021916908373ffffffffffffffffffffffffffffffffffffffff160217905550818160019190611e6e929190613477565b505b7f5666e569c2406262a3ff05c271806a13818161ed87e8b17f5eeb09865d8e5b70848484849050604051611ea693929190614695565b60405180910390a150505050565b7f000000000000000000000000000000000000000000000000000000000000000081565b600360009054906101000a900473ffffffffffffffffffffffffffffffffffffffff1681565b611f0661220e565b73ffffffffffffffffffffffffffffffffffffffff16611f24611a85565b73ffffffffffffffffffffffffffffffffffffffff1614611f7a576040517f08c379a0000000000000000000000000000000000000000000000000000000008152600401611f7190613ab0565b60405180910390fd5b600073ffffffffffffffffffffffffffffffffffffffff168173ffffffffffffffffffffffffffffffffffffffff161415611fea576040517f08c379a0000000000000000000000000000000000000000000000000000000008152600401611fe19061473e565b60405180910390fd5b8073ffffffffffffffffffffffffffffffffffffffff1660008054906101000a900473ffffffffffffffffffffffffffffffffffffffff1673ffffffffffffffffffffffffffffffffffffffff167f8be0079c531659141344cd1fd0a4f28419497f9722a3daafe3b4186f6b6457e060405160405180910390a3806000806101000a81548173ffffffffffffffffffffffffffffffffffffffff021916908373ffffffffffffffffffffffffffffffffffffffff16021790555050565b6120af61220e565b73ffffffffffffffffffffffffffffffffffffffff166120cd611a85565b73ffffffffffffffffffffffffffffffffffffffff1614612123576040517f08c379a000000000000000000000000000000000000000000000000000000000815260040161211a90613ab0565b60405180910390fd5b600073ffffffffffffffffffffffffffffffffffffffff168173ffffffffffffffffffffffffffffffffffffffff161415612193576040517f08c379a000000000000000000000000000000000000000000000000000000000815260040161218a90614609565b60405180910390fd5b80600560006101000a81548173ffffffffffffffffffffffffffffffffffffffff021916908373ffffffffffffffffffffffffffffffffffffffff1602179055507fd5f5b4d616f94f5e10b2955392470790b3fdde7c0c0b68bd1f3ea635e2caa8d7816040516122039190613575565b60405180910390a150565b600033905090565b612299846323b872dd60e01b8585856040516024016122379392919061475e565b604051602081830303815290604052907bffffffffffffffffffffffffffffffffffffffffffffffffffffffff19166020820180517bffffffffffffffffffffffffffffffffffffffffffffffffffffffff8381831617835250505050612fa3565b50505050565b60008060008360030160029054906101000a900473ffffffffffffffffffffffffffffffffffffffff1673ffffffffffffffffffffffffffffffffffffffff1663d06ca61f87876040518363ffffffff1660e01b8152600401612303929190614827565b600060405180830381865afa158015612320573d6000803e3d6000fd5b505050506040513d6000823e3d601f19601f820116820180604052508101906123499190614252565b90508360030160029054906101000a900473ffffffffffffffffffffffffffffffffffffffff1673ffffffffffffffffffffffffffffffffffffffff166338ed17398761271087600401546127106123a191906143a0565b6123ab9190614403565b8460018a805490506123bd91906143a0565b815181106123ce576123cd613b3c565b5b60200260200101516123e09190614434565b8830600a426123ef9190613b9a565b6040518663ffffffff1660e01b815260040161240f959493929190614857565b6000604051808303816000875af115801561242e573d6000803e3d6000fd5b505050506040513d6000823e3d601f19601f820116820180604052508101906124579190614252565b90508060008151811061246d5761246c613b3c565b5b60200260200101518661248091906143a0565b9250806001825161249191906143a0565b815181106124a2576124a1613b3c565b5b6020026020010151915050935093915050565b600082905060006127108360000154856124cf9190614434565b6124d99190614403565b9050600080600080600080600360009054906101000a900473ffffffffffffffffffffffffffffffffffffffff1690506000600460009054906101000a900473ffffffffffffffffffffffffffffffffffffffff169050612538611aed565b156127a45760008a600201541161255a57878b61255591906143a0565b612578565b6127108a600101548c61256d9190614434565b6125779190614403565b5b95506002866125879190614403565b96508960030160019054906101000a900460ff166125a557866125a8565b60005b8a60030160009054906101000a900460ff166125c457886125c7565b60005b6125d19190613b9a565b94508960030160019054906101000a900460ff166125f05760006125f2565b865b8a60030160009054906101000a900460ff1661260f576000612611565b885b61261b9190613b9a565b93508960030160019054906101000a900460ff16612639578461263b565b835b955060008511156126ee576126d7858260028054806020026020016040519081016040528092919081815260200182805480156126cd57602002820191906000526020600020905b8160009054906101000a900473ffffffffffffffffffffffffffffffffffffffff1673ffffffffffffffffffffffffffffffffffffffff1681526020019060010190808311612683575b505050505061306a565b809450819650505082896126eb91906143a0565b98505b600084111561279f576127888483600180548060200260200160405190810160405280929190818152602001828054801561277e57602002820191906000526020600020905b8160009054906101000a900473ffffffffffffffffffffffffffffffffffffffff1673ffffffffffffffffffffffffffffffffffffffff1681526020019060010190808311612734575b505050505061306a565b8094508195505050828961279c91906143a0565b98505b61284c565b6128358b82600280548060200260200160405190810160405280929190818152602001828054801561282b57602002820191906000526020600020905b8160009054906101000a900473ffffffffffffffffffffffffffffffffffffffff1673ffffffffffffffffffffffffffffffffffffffff16815260200190600101908083116127e1575b505050505061306a565b8094508196505050828961284991906143a0565b98505b6000871115612d645760008664e8d4a51000896128699190614434565b6128739190614403565b90508a60030160019054906101000a900460ff1615612af95764e8d4a51000818761289e9190614434565b6128a89190614403565b9050600560009054906101000a900473ffffffffffffffffffffffffffffffffffffffff1673ffffffffffffffffffffffffffffffffffffffff1663e8e3370060026000815481106128fd576128fc613b3c565b5b9060005260206000200160009054906101000a900473ffffffffffffffffffffffffffffffffffffffff16600260018154811061293d5761293c613b3c565b5b9060005260206000200160009054906101000a900473ffffffffffffffffffffffffffffffffffffffff168b64e8d4a51000868c61297b9190614434565b6129859190614403565b61271060648f6129959190614434565b61299f9190614403565b61271060648e6129af9190614434565b6129b99190614403565b306005426129c79190613b9a565b6040518963ffffffff1660e01b81526004016129ea9897969594939291906148b1565b6060604051808303816000875af1158015612a09573d6000803e3d6000fd5b505050506040513d601f19601f82011682018060405250810190612a2d919061492f565b809a508193508299505050508086612a4591906143a0565b9550868a612a5391906143a0565b99508173ffffffffffffffffffffffffffffffffffffffff1663a9059cbb7f00000000000000000000000000000000000000000000000000000000000000008a6040518363ffffffff1660e01b8152600401612ab092919061429b565b6020604051808303816000875af1158015612acf573d6000803e3d6000fd5b505050506040513d601f19601f82011682018060405250810190612af391906142c4565b50612d62565b64e8d4a510008186612b0b9190614434565b612b159190614403565b9050600560009054906101000a900473ffffffffffffffffffffffffffffffffffffffff1673ffffffffffffffffffffffffffffffffffffffff1663e8e337006002600081548110612b6a57612b69613b3c565b5b9060005260206000200160009054906101000a900473ffffffffffffffffffffffffffffffffffffffff166002600181548110612baa57612ba9613b3c565b5b9060005260206000200160009054906101000a900473ffffffffffffffffffffffffffffffffffffffff168b64e8d4a51000868b612be89190614434565b612bf29190614403565b61271060648f612c029190614434565b612c0c9190614403565b61271060648d612c1c9190614434565b612c269190614403565b30600542612c349190613b9a565b6040518963ffffffff1660e01b8152600401612c579897969594939291906148b1565b6060604051808303816000875af1158015612c76573d6000803e3d6000fd5b505050506040513d601f19601f82011682018060405250810190612c9a919061492f565b809a508193508299505050508085612cb291906143a0565b9450868a612cc091906143a0565b99508273ffffffffffffffffffffffffffffffffffffffff1663a9059cbb7f00000000000000000000000000000000000000000000000000000000000000008a6040518363ffffffff1660e01b8152600401612d1d92919061429b565b6020604051808303816000875af1158015612d3c573d6000803e3d6000fd5b505050506040513d601f19601f82011682018060405250810190612d6091906142c4565b505b505b6000851115612e18576002600181548110612d8257612d81613b3c565b5b9060005260206000200160009054906101000a900473ffffffffffffffffffffffffffffffffffffffff1673ffffffffffffffffffffffffffffffffffffffff166342966c68866040518263ffffffff1660e01b8152600401612de59190613856565b600060405180830381600087803b158015612dff57600080fd5b505af1158015612e13573d6000803e3d6000fd5b505050505b6000841115612ecb5760018081548110612e3557612e34613b3c565b5b9060005260206000200160009054906101000a900473ffffffffffffffffffffffffffffffffffffffff1673ffffffffffffffffffffffffffffffffffffffff166342966c68856040518263ffffffff1660e01b8152600401612e989190613856565b600060405180830381600087803b158015612eb257600080fd5b505af1158015612ec6573d6000803e3d6000fd5b505050505b6000891115612f96577f000000000000000000000000000000000000000000000000000000000000000073ffffffffffffffffffffffffffffffffffffffff1663a9059cbb600660009054906101000a900473ffffffffffffffffffffffffffffffffffffffff168b6040518363ffffffff1660e01b8152600401612f5192919061429b565b6020604051808303816000875af1158015612f70573d6000803e3d6000fd5b505050506040513d601f19601f82011682018060405250810190612f9491906142c4565b505b5050505050505050505050565b6000613005826040518060400160405280602081526020017f5361666545524332303a206c6f772d6c6576656c2063616c6c206661696c65648152508573ffffffffffffffffffffffffffffffffffffffff166132d19092919063ffffffff16565b9050600081511115613065578080602001905181019061302591906142c4565b613064576040517f08c379a000000000000000000000000000000000000000000000000000000000815260040161305b906149f4565b60405180910390fd5b5b505050565b6000806000808573ffffffffffffffffffffffffffffffffffffffff16630902f1ac6040518163ffffffff1660e01b8152600401606060405180830381865afa1580156130bb573d6000803e3d6000fd5b505050506040513d601f19601f820116820180604052508101906130df919061456a565b506dffffffffffffffffffffffffffff1691506dffffffffffffffffffffffffffff1691506000600560009054906101000a900473ffffffffffffffffffffffffffffffffffffffff1673ffffffffffffffffffffffffffffffffffffffff1663054d50d48985856040518463ffffffff1660e01b815260040161316593929190614a14565b602060405180830381865afa158015613182573d6000803e3d6000fd5b505050506040513d601f19601f820116820180604052508101906131a69190613f16565b90506000600560009054906101000a900473ffffffffffffffffffffffffffffffffffffffff1673ffffffffffffffffffffffffffffffffffffffff166338ed17398a6103e86103de866131fa9190614434565b6132049190614403565b8a306005426132139190613b9a565b6040518663ffffffff1660e01b8152600401613233959493929190614ad1565b6000604051808303816000875af1158015613252573d6000803e3d6000fd5b505050506040513d6000823e3d601f19601f8201168201806040525081019061327b9190614252565b9050806001825161328c91906143a0565b8151811061329d5761329c613b3c565b5b60200260200101519550806000815181106132bb576132ba613b3c565b5b6020026020010151945050505050935093915050565b60606132e084846000856132e9565b90509392505050565b60608247101561332e576040517f08c379a000000000000000000000000000000000000000000000000000000000815260040161332590614b9d565b60405180910390fd5b613337856133fd565b613376576040517f08c379a000000000000000000000000000000000000000000000000000000000815260040161336d90614c09565b60405180910390fd5b6000808673ffffffffffffffffffffffffffffffffffffffff16858760405161339f9190614ca3565b60006040518083038185875af1925050503d80600081146133dc576040519150601f19603f3d011682016040523d82523d6000602084013e6133e1565b606091505b50915091506133f1828286613410565b92505050949350505050565b600080823b905060008111915050919050565b6060831561342057829050613470565b6000835111156134335782518084602001fd5b816040517f08c379a00000000000000000000000000000000000000000000000000000000081526004016134679190614cfe565b60405180910390fd5b9392505050565b828054828255906000526020600020908101928215613506579160200282015b8281111561350557823573ffffffffffffffffffffffffffffffffffffffff168260006101000a81548173ffffffffffffffffffffffffffffffffffffffff021916908373ffffffffffffffffffffffffffffffffffffffff16021790555091602001919060010190613497565b5b5090506135139190613517565b5090565b5b80821115613530576000816000905550600101613518565b5090565b600073ffffffffffffffffffffffffffffffffffffffff82169050919050565b600061355f82613534565b9050919050565b61356f81613554565b82525050565b600060208201905061358a6000830184613566565b92915050565b6000604051905090565b600080fd5b600080fd5b6135ad81613554565b81146135b857600080fd5b50565b6000813590506135ca816135a4565b92915050565b6000602082840312156135e6576135e561359a565b5b60006135f4848285016135bb565b91505092915050565b600080fd5b60008190508260206005028201111561361e5761361d6135fd565b5b92915050565b60008115159050919050565b61363981613624565b811461364457600080fd5b50565b60008135905061365681613630565b92915050565b600080fd5b600080fd5b60008083601f84011261367c5761367b61365c565b5b8235905067ffffffffffffffff81111561369957613698613661565b5b6020830191508360208202830111156136b5576136b46135fd565b5b9250929050565b6000806000806000806000806000806101608b8d0312156136e0576136df61359a565b5b60006136ee8d828e01613602565b9a505060a06136ff8d828e01613647565b99505060c06137108d828e01613647565b98505060e06137218d828e016135bb565b9750506101008b013567ffffffffffffffff8111156137435761374261359f565b5b61374f8d828e01613666565b96509650506101208b013567ffffffffffffffff8111156137735761377261359f565b5b61377f8d828e01613666565b94509450506101408b013567ffffffffffffffff8111156137a3576137a261359f565b5b6137af8d828e01613666565b92509250509295989b9194979a5092959850565b6000819050919050565b60006137e86137e36137de84613534565b6137c3565b613534565b9050919050565b60006137fa826137cd565b9050919050565b600061380c826137ef565b9050919050565b61381c81613801565b82525050565b60006020820190506138376000830184613813565b92915050565b6000819050919050565b6138508161383d565b82525050565b600060208201905061386b6000830184613847565b92915050565b61387a8161383d565b811461388557600080fd5b50565b60008135905061389781613871565b92915050565b6000602082840312156138b3576138b261359a565b5b60006138c184828501613888565b91505092915050565b6138d381613624565b82525050565b60006138e4826137ef565b9050919050565b6138f4816138d9565b82525050565b600060e08201905061390f600083018a613847565b61391c6020830189613847565b6139296040830188613847565b61393660608301876138ca565b61394360808301866138ca565b61395060a08301856138eb565b61395d60c0830184613847565b98975050505050505050565b600080604083850312156139805761397f61359a565b5b600061398e85828601613888565b925050602061399f85828601613888565b9150509250929050565b60006020820190506139be60008301846138ca565b92915050565b60006020820190506139d960008301846138eb565b92915050565b600080600080606085870312156139f9576139f861359a565b5b6000613a0787828801613647565b9450506020613a18878288016135bb565b935050604085013567ffffffffffffffff811115613a3957613a3861359f565b5b613a4587828801613666565b925092505092959194509250565b600082825260208201905092915050565b7f4f776e61626c653a2063616c6c6572206973206e6f7420746865206f776e6572600082015250565b6000613a9a602083613a53565b9150613aa582613a64565b602082019050919050565b60006020820190508181036000830152613ac981613a8d565b9050919050565b7f43616e7420706179203000000000000000000000000000000000000000000000600082015250565b6000613b06600a83613a53565b9150613b1182613ad0565b602082019050919050565b60006020820190508181036000830152613b3581613af9565b9050919050565b7f4e487b7100000000000000000000000000000000000000000000000000000000600052603260045260246000fd5b7f4e487b7100000000000000000000000000000000000000000000000000000000600052601160045260246000fd5b6000613ba58261383d565b9150613bb08361383d565b9250827fffffffffffffffffffffffffffffffffffffffffffffffffffffffffffffffff03821115613be557613be4613b6b565b5b828201905092915050565b7f496e636f72726563742046656520646973747269627574696f6e000000000000600082015250565b6000613c26601a83613a53565b9150613c3182613bf0565b602082019050919050565b60006020820190508181036000830152613c5581613c19565b9050919050565b7f496e636f727265637420526f7574657200000000000000000000000000000000600082015250565b6000613c92601083613a53565b9150613c9d82613c5c565b602082019050919050565b60006020820190508181036000830152613cc181613c85565b9050919050565b7f6e6565642061207061746820746f206261736500000000000000000000000000600082015250565b6000613cfe601383613a53565b9150613d0982613cc8565b602082019050919050565b60006020820190508181036000830152613d2d81613cf1565b9050919050565b7f736c69707061676520746f6f206c6f7700000000000000000000000000000000600082015250565b6000613d6a601083613a53565b9150613d7582613d34565b602082019050919050565b60006020820190508181036000830152613d9981613d5d565b9050919050565b7f6f6e6c7943686566000000000000000000000000000000000000000000000000600082015250565b6000613dd6600883613a53565b9150613de182613da0565b602082019050919050565b60006020820190508181036000830152613e0581613dc9565b9050919050565b600081519050613e1b81613630565b92915050565b600081519050613e3081613871565b92915050565b6000613e4182613554565b9050919050565b613e5181613e36565b8114613e5c57600080fd5b50565b600081519050613e6e81613e48565b92915050565b600080600080600080600060e0888a031215613e9357613e9261359a565b5b6000613ea18a828b01613e0c565b9750506020613eb28a828b01613e21565b9650506040613ec38a828b01613e21565b9550506060613ed48a828b01613e5f565b9450506080613ee58a828b01613e21565b93505060a0613ef68a828b01613e21565b92505060c0613f078a828b01613e0c565b91505092959891949750929550565b600060208284031215613f2c57613f2b61359a565b5b6000613f3a84828501613e21565b91505092915050565b7f73656e642066756e647300000000000000000000000000000000000000000000600082015250565b6000613f79600a83613a53565b9150613f8482613f43565b602082019050919050565b60006020820190508181036000830152613fa881613f6c565b9050919050565b600081549050919050565b600082825260208201905092915050565b60008190508160005260206000209050919050565b613fe981613554565b82525050565b6000613ffb8383613fe0565b60208301905092915050565b60008160001c9050919050565b600073ffffffffffffffffffffffffffffffffffffffff82169050919050565b600061404761404283614007565b614014565b9050919050565b600061405a8254614034565b9050919050565b6000600182019050919050565b600061407982613faf565b6140838185613fba565b935061408e83613fcb565b8060005b838110156140c6576140a38261404e565b6140ad8882613fef565b97506140b883614061565b925050600181019050614092565b5085935050505092915050565b60006040820190506140e86000830185613847565b81810360208301526140fa818461406e565b90509392505050565b6000601f19601f8301169050919050565b7f4e487b7100000000000000000000000000000000000000000000000000000000600052604160045260246000fd5b61414c82614103565b810181811067ffffffffffffffff8211171561416b5761416a614114565b5b80604052505050565b600061417e613590565b905061418a8282614143565b919050565b600067ffffffffffffffff8211156141aa576141a9614114565b5b602082029050602081019050919050565b60006141ce6141c98461418f565b614174565b905080838252602082019050602084028301858111156141f1576141f06135fd565b5b835b8181101561421a57806142068882613e21565b8452602084019350506020810190506141f3565b5050509392505050565b600082601f8301126142395761423861365c565b5b81516142498482602086016141bb565b91505092915050565b6000602082840312156142685761426761359a565b5b600082015167ffffffffffffffff8111156142865761428561359f565b5b61429284828501614224565b91505092915050565b60006040820190506142b06000830185613566565b6142bd6020830184613847565b9392505050565b6000602082840312156142da576142d961359a565b5b60006142e884828501613e0c565b91505092915050565b600060e082019050614306600083018a613566565b6143136020830189613566565b6143206040830188613847565b61432d6060830187613847565b61433a6080830186613847565b61434760a0830185613566565b61435460c0830184613847565b98975050505050505050565b600080604083850312156143775761437661359a565b5b600061438585828601613e21565b925050602061439685828601613e21565b9150509250929050565b60006143ab8261383d565b91506143b68361383d565b9250828210156143c9576143c8613b6b565b5b828203905092915050565b7f4e487b7100000000000000000000000000000000000000000000000000000000600052601260045260246000fd5b600061440e8261383d565b91506144198361383d565b925082614429576144286143d4565b5b828204905092915050565b600061443f8261383d565b915061444a8361383d565b9250817fffffffffffffffffffffffffffffffffffffffffffffffffffffffffffffffff048311821515161561448357614482613b6b565b5b828202905092915050565b600060a0820190506144a36000830188613847565b6144b06020830187613847565b81810360408301526144c2818661406e565b90506144d16060830185613566565b6144de6080830184613847565b9695505050505050565b60006dffffffffffffffffffffffffffff82169050919050565b61450b816144e8565b811461451657600080fd5b50565b60008151905061452881614502565b92915050565b600063ffffffff82169050919050565b6145478161452e565b811461455257600080fd5b50565b6000815190506145648161453e565b92915050565b6000806000606084860312156145835761458261359a565b5b600061459186828701614519565b93505060206145a286828701614519565b92505060406145b386828701614555565b9150509250925092565b7f4e6f207a65726f00000000000000000000000000000000000000000000000000600082015250565b60006145f3600783613a53565b91506145fe826145bd565b602082019050919050565b60006020820190508181036000830152614622816145e6565b9050919050565b7f6174206c65617374203220746f6b656e73000000000000000000000000000000600082015250565b600061465f601183613a53565b915061466a82614629565b602082019050919050565b6000602082019050818103600083015261468e81614652565b9050919050565b60006060820190506146aa60008301866138ca565b6146b76020830185613566565b6146c46040830184613847565b949350505050565b7f4f776e61626c653a206e6577206f776e657220697320746865207a65726f206160008201527f6464726573730000000000000000000000000000000000000000000000000000602082015250565b6000614728602683613a53565b9150614733826146cc565b604082019050919050565b600060208201905081810360008301526147578161471b565b9050919050565b60006060820190506147736000830186613566565b6147806020830185613566565b61478d6040830184613847565b949350505050565b600081549050919050565b60008190508160005260206000209050919050565b6000600182019050919050565b60006147cd82614795565b6147d78185613fba565b93506147e2836147a0565b8060005b8381101561481a576147f78261404e565b6148018882613fef565b975061480c836147b5565b9250506001810190506147e6565b5085935050505092915050565b600060408201905061483c6000830185613847565b818103602083015261484e81846147c2565b90509392505050565b600060a08201905061486c6000830188613847565b6148796020830187613847565b818103604083015261488b81866147c2565b905061489a6060830185613566565b6148a76080830184613847565b9695505050505050565b6000610100820190506148c7600083018b613566565b6148d4602083018a613566565b6148e16040830189613847565b6148ee6060830188613847565b6148fb6080830187613847565b61490860a0830186613847565b61491560c0830185613566565b61492260e0830184613847565b9998505050505050505050565b6000806000606084860312156149485761494761359a565b5b600061495686828701613e21565b935050602061496786828701613e21565b925050604061497886828701613e21565b9150509250925092565b7f5361666545524332303a204552433230206f7065726174696f6e20646964206e60008201527f6f74207375636365656400000000000000000000000000000000000000000000602082015250565b60006149de602a83613a53565b91506149e982614982565b604082019050919050565b60006020820190508181036000830152614a0d816149d1565b9050919050565b6000606082019050614a296000830186613847565b614a366020830185613847565b614a436040830184613847565b949350505050565b600081519050919050565b6000819050602082019050919050565b6000602082019050919050565b6000614a7e82614a4b565b614a888185613fba565b9350614a9383614a56565b8060005b83811015614ac4578151614aab8882613fef565b9750614ab683614a66565b925050600181019050614a97565b5085935050505092915050565b600060a082019050614ae66000830188613847565b614af36020830187613847565b8181036040830152614b058186614a73565b9050614b146060830185613566565b614b216080830184613847565b9695505050505050565b7f416464726573733a20696e73756666696369656e742062616c616e636520666f60008201527f722063616c6c0000000000000000000000000000000000000000000000000000602082015250565b6000614b87602683613a53565b9150614b9282614b2b565b604082019050919050565b60006020820190508181036000830152614bb681614b7a565b9050919050565b7f416464726573733a2063616c6c20746f206e6f6e2d636f6e7472616374000000600082015250565b6000614bf3601d83613a53565b9150614bfe82614bbd565b602082019050919050565b60006020820190508181036000830152614c2281614be6565b9050919050565b600081519050919050565b600081905092915050565b60005b83811015614c5d578082015181840152602081019050614c42565b83811115614c6c576000848401525b50505050565b6000614c7d82614c29565b614c878185614c34565b9350614c97818560208601614c3f565b80840191505092915050565b6000614caf8284614c72565b915081905092915050565b600081519050919050565b6000614cd082614cba565b614cda8185613a53565b9350614cea818560208601614c3f565b614cf381614103565b840191505092915050565b60006020820190508181036000830152614d188184614cc5565b90509291505056fea264697066735822122053e706bd3538abe5b50c49e6be1df76553e9794a8dd894177cbd4af23f96577264736f6c634300080c0033",
  "immutableReferences": {
    "1713": [
      {
        "length": 32,
        "start": 4332
      },
      {
        "length": 32,
        "start": 4974
      },
      {
        "length": 32,
        "start": 7274
      },
      {
        "length": 32,
        "start": 11990
      }
    ],
    "1726": [
      {
        "length": 32,
        "start": 4743
      },
      {
        "length": 32,
        "start": 5385
      },
      {
        "length": 32,
        "start": 6755
      },
      {
        "length": 32,
        "start": 10867
      },
      {
        "length": 32,
        "start": 11488
      }
    ],
    "1731": [
      {
        "length": 32,
        "start": 7101
      },
      {
        "length": 32,
        "start": 7862
      }
    ]
  },
  "source": "// SPDX-License-Identifier: MIT\npragma solidity 0.8.12;\n\nimport \"@openzeppelin/contracts/access/Ownable.sol\";\nimport \"@openzeppelin/contracts/token/ERC20/IERC20.sol\";\nimport \"@openzeppelin/contracts/token/ERC20/extensions/ERC20Burnable.sol\";\nimport \"@openzeppelin/contracts/token/ERC20/utils/SafeERC20.sol\";\nimport \"./GalacticChef.sol\";\nimport \"./IPancakePair.sol\";\nimport \"./IPancakeRouter.sol\";\n\ncontract FeeDistributor is Ownable {\n    using SafeERC20 for ERC20Burnable;\n    using SafeERC20 for IERC20;\n\n    struct FeeData {\n        uint256 buyback;\n        uint256 liquidity;\n        uint256 team;\n        bool bbNice;\n        bool liqNice;\n        /**\n      if it's an LP token we can definitely burn it to get the contained tokens\n      else it's a Single asset token and have to swap it for base eth token \n      before buying anything else.\n     bbNice token to buyback and burn\n      is it CRUSH (false) or NICE (true)\n     liqNice token to get liquidity for\n      is it CRUSH/BNB(false) or NICE/BNB (true)\n    **/\n        IPancakeRouter router; // main router for this token\n        uint256 slippage;\n    }\n    address public immutable baseToken; // wBNB || wETH || etc\n    address[] public crushPath; // [0]wBNB to [1]CRUSH\n    address[] public nicePath; // [0]wBNB to [1]NICE\n    address public crushLiquidity; // for swapping / adding Liquidity\n    address public niceLiquidity; // for swapping / adding Liquidity\n    address public immutable deadWallet =\n        0x000000000000000000000000000000000000dEaD;\n    IPancakeRouter public tokenRouter;\n    uint256 public immutable idoPrice;\n    address public teamWallet;\n\n    uint256 public constant DIVISOR = 10000;\n    GalacticChef public chef;\n\n    mapping(uint256 => FeeData) public feeData;\n    mapping(uint256 => address[]) public tokenPath; // RECEIVED TOKEN TO WBNB\n    mapping(uint256 => address[]) public token0Path; // LP TOKEN 0 TO WBNB\n    mapping(uint256 => address[]) public token1Path; // LP TOKEN 1 TO WBNB\n\n    event AddPoolFee(uint256 indexed _pid);\n    event EditFee(uint256 indexed _pid, uint256 bb, uint256 liq, uint256 team);\n    event UpdateRouter(uint256 indexed _pid, address router);\n    event UpdatePath(uint256 indexed _pid, address router);\n    event UpdateTeamWallet(address _teamW);\n    event UpdateRouter(address _router);\n    event UpdateCore(bool isNice, address liquidity, uint256 pathSize);\n\n    modifier onlyChef() {\n        require(msg.sender == address(chef), \"onlyChef\");\n        _;\n    }\n\n    constructor(\n        address _chef,\n        address _baseWrapped,\n        uint256 _idoPrice\n    ) {\n        require(\n            _chef != address(0) && _baseWrapped != address(0),\n            \"Zero address\"\n        );\n        chef = GalacticChef(_chef);\n        baseToken = _baseWrapped;\n        // _idoPrice must be NICE/BNB NOT BNB/NICE\n        idoPrice = _idoPrice;\n    }\n\n    function addorEditFee(\n        uint256[5] calldata _fees, // 0 pid, 1 buyback, 2 liquidity, 3 team, 4 slippage\n        bool _bbNice,\n        bool _liqNice,\n        address router,\n        address[] calldata _tokens,\n        address[] calldata _token0Path,\n        address[] calldata _token1Path\n    ) external onlyOwner {\n        require(\n            _fees[1] + _fees[2] + _fees[3] == DIVISOR,\n            \"Incorrect Fee distribution\"\n        );\n        require(router != address(0), \"Incorrect Router\");\n        require(_tokens.length > 0, \"need a path to base\");\n        require(_fees[4] >= 50 && _fees[4] <= 2000, \"slippage too low\");\n        feeData[_fees[0]] = FeeData(\n            _fees[1],\n            _fees[2],\n            _fees[3],\n            _bbNice,\n            _liqNice,\n            IPancakeRouter(router),\n            _fees[4]\n        );\n        tokenPath[_fees[0]] = _tokens;\n        token0Path[_fees[0]] = _token0Path;\n        token1Path[_fees[0]] = _token1Path;\n        emit AddPoolFee(_fees[0]);\n    }\n\n    /// @notice Function that distributes fees to the respective flows\n    /// @dev This function requires funds to be sent beforehand to this contract\n    function receiveFees(uint256 _pid, uint256 _amount) external onlyChef {\n        (, , , IERC20 token, , , bool isLP) = chef.poolInfo(_pid);\n        token.safeTransferFrom(address(chef), address(this), _amount);\n        // Check if token was received\n        require(token.balanceOf(address(this)) >= _amount, \"send funds\");\n        FeeData storage feeInfo = feeData[_pid];\n        uint256 wBNBtoWorkWith;\n        // IS LP TOKEN ?\n        if (isLP) {\n            // YES SWAP LP FLOW;\n            uint256[] memory minAmounts = feeInfo.router.getAmountsOut(\n                _amount,\n                tokenPath[_pid]\n            );\n\n            token.approve(address(feeInfo.router), _amount);\n            // remove liquidity\n            (uint256 returnedA, uint256 returnedB) = feeInfo\n                .router\n                .removeLiquidity(\n                    tokenPath[_pid][0],\n                    tokenPath[_pid][1],\n                    _amount,\n                    minAmounts[0], //A AMOUNT\n                    minAmounts[1], //B AMOUNT\n                    address(this),\n                    block.timestamp + 5 // recommended by arishali\n                );\n            // swap token0 for wBNB\n            if (tokenPath[_pid][0] != baseToken) {\n                (minAmounts[0], minAmounts[1]) = swapForWrap(\n                    returnedA,\n                    token0Path[_pid],\n                    feeInfo\n                );\n                if (returnedA - minAmounts[0] > 0)\n                    IERC20(tokenPath[_pid][0]).transfer(\n                        deadWallet,\n                        returnedA - minAmounts[0]\n                    );\n                wBNBtoWorkWith += minAmounts[1];\n            } else wBNBtoWorkWith += returnedA;\n            // swap token1 for wBNB (if necessary)\n            if (tokenPath[_pid][1] != baseToken) {\n                (minAmounts[0], minAmounts[1]) = swapForWrap(\n                    returnedB,\n                    token1Path[_pid],\n                    feeInfo\n                );\n                if (returnedA - minAmounts[0] > 0)\n                    IERC20(tokenPath[_pid][1]).transfer(\n                        deadWallet,\n                        returnedB - minAmounts[0]\n                    );\n                wBNBtoWorkWith += minAmounts[1];\n            } else wBNBtoWorkWith += returnedB;\n        } else {\n            // NO SWAP ERC FLOW\n            uint256[] memory minAmount = feeInfo.router.getAmountsOut(\n                _amount,\n                token0Path[_pid]\n            );\n            minAmount = feeInfo.router.swapExactTokensForTokens(\n                _amount,\n                minAmount[minAmount.length - 1] *\n                    ((DIVISOR - feeInfo.slippage) / DIVISOR),\n                token0Path[_pid],\n                address(this),\n                block.timestamp + 5\n            );\n            wBNBtoWorkWith += minAmount[minAmount.length - 1];\n        }\n        // GET PORTION AMOUNTS\n        getFeesAndDistribute(wBNBtoWorkWith, feeInfo);\n    }\n\n    /// @notice math to figure out the distribution portions of wBNB to use and swap\n    function getFeesAndDistribute(uint256 _wBnb, FeeData storage _feeInfo)\n        internal\n    {\n        uint256 workBnb = _wBnb;\n        uint256 buyback = (_wBnb * _feeInfo.buyback) / DIVISOR;\n        uint256 liquidity;\n        uint256 bnbLiquidity;\n        uint256 niceGot;\n        uint256 crushGot;\n        uint256 _team;\n        IPancakePair crushLiq = IPancakePair(crushLiquidity);\n        IPancakePair niceLiq = IPancakePair(niceLiquidity);\n        // IS Nice above IDO?\n        if (checkPrice()) {\n            //PROCEED\n            bnbLiquidity = _feeInfo.team > 0\n                ? (_wBnb * _feeInfo.liquidity) / DIVISOR\n                : _wBnb - buyback;\n            liquidity = bnbLiquidity / 2;\n            niceGot =\n                (_feeInfo.bbNice ? 0 : buyback) +\n                (_feeInfo.liqNice ? 0 : liquidity);\n            crushGot =\n                (_feeInfo.bbNice ? buyback : 0) +\n                (_feeInfo.liqNice ? liquidity : 0);\n            bnbLiquidity = (_feeInfo.liqNice ? crushGot : niceGot);\n            if (niceGot > 0) {\n                (niceGot, _team) = swapWrapForToken(niceGot, niceLiq, nicePath);\n                workBnb -= _team;\n            }\n            if (crushGot > 0) {\n                (crushGot, _team) = swapWrapForToken(\n                    crushGot,\n                    crushLiq,\n                    crushPath\n                );\n                workBnb -= _team;\n            }\n        } else {\n            //FULL BUYBACK OF NICE\n            (niceGot, _team) = swapWrapForToken(_wBnb, niceLiq, nicePath);\n            workBnb -= _team;\n        }\n        // ADD LIQUIDITY AND BURN (TRANSFER TO DEAD ADDRESS)\n        if (liquidity > 0) {\n            uint256 tokensForLiquidity = (liquidity * 1e12) / bnbLiquidity;\n            if (_feeInfo.liqNice) {\n                // add liquidity to NICE\n                tokensForLiquidity = (niceGot * tokensForLiquidity) / 1e12;\n                (bnbLiquidity, tokensForLiquidity, liquidity) = tokenRouter\n                    .addLiquidity(\n                        nicePath[0],\n                        nicePath[1],\n                        liquidity,\n                        (niceGot * tokensForLiquidity) / 1e12,\n                        (liquidity * 100) / DIVISOR,\n                        (niceGot * 100) / DIVISOR,\n                        address(this),\n                        block.timestamp + 5\n                    );\n                niceGot -= tokensForLiquidity;\n                workBnb -= bnbLiquidity;\n                // transfer liquidity to dead wallet\n                niceLiq.transfer(deadWallet, liquidity);\n            } else {\n                // add liquidity to NICE\n                tokensForLiquidity = (crushGot * tokensForLiquidity) / 1e12;\n                (bnbLiquidity, tokensForLiquidity, liquidity) = tokenRouter\n                    .addLiquidity(\n                        nicePath[0],\n                        nicePath[1],\n                        liquidity,\n                        (crushGot * tokensForLiquidity) / 1e12,\n                        (liquidity * 100) / DIVISOR,\n                        (crushGot * 100) / DIVISOR,\n                        address(this),\n                        block.timestamp + 5\n                    );\n                crushGot -= tokensForLiquidity;\n                workBnb -= bnbLiquidity;\n                // transfer liquidity to dead wallet\n                crushLiq.transfer(deadWallet, liquidity);\n            }\n        }\n        if (niceGot > 0) {\n            ERC20Burnable(nicePath[1]).burn(niceGot);\n        }\n        if (crushGot > 0) {\n            ERC20Burnable(crushPath[1]).burn(crushGot);\n        }\n\n        if (workBnb > 0) IERC20(baseToken).transfer(teamWallet, workBnb);\n    }\n\n    /// @notice simplify swap request\n    /// @dev ONLY FOR NICE AND CRUSH SWAPPING\n    function swapWrapForToken(\n        uint256 _amountWBnb,\n        IPancakePair _pair,\n        address[] memory path\n    ) internal returns (uint256 tokensReceived, uint256 _wBnbUsed) {\n        (uint256 res0, uint256 res1, ) = _pair.getReserves();\n        uint256 minToGet = tokenRouter.getAmountOut(_amountWBnb, res0, res1);\n        uint256[] memory swappedTokens = tokenRouter.swapExactTokensForTokens(\n            _amountWBnb,\n            (minToGet * 990) / 1000,\n            path,\n            address(this),\n            block.timestamp + 5\n        );\n        tokensReceived = swappedTokens[swappedTokens.length - 1];\n        _wBnbUsed = swappedTokens[0];\n    }\n\n    /// @notice Check that current Nice Price is above IDO\n    /// @dev \n    function checkPrice() public view returns (bool _aboveIDO) {\n        (uint256 reserve0, uint256 reserve1, ) = IPancakePair(niceLiquidity)\n            .getReserves();\n        reserve1 = reserve1 > 0 ? reserve1 : 1; //just in case\n        _aboveIDO = ((reserve0 * 1 ether) / reserve1) > idoPrice;\n    }\n\n    function swapForWrap(\n        uint256 inputAmount,\n        address[] storage path,\n        FeeData storage feeInfo\n    ) internal returns (uint256 amountLeft, uint256 wBnbReturned) {\n        uint256[] memory swapAmounts = feeInfo.router.getAmountsOut(\n            inputAmount,\n            path\n        );\n        swapAmounts = feeInfo.router.swapExactTokensForTokens(\n            inputAmount,\n            swapAmounts[path.length - 1] *\n                ((DIVISOR - feeInfo.slippage) / DIVISOR),\n            path,\n            address(this),\n            block.timestamp + 10\n        );\n        amountLeft = inputAmount - swapAmounts[0];\n        wBnbReturned = swapAmounts[swapAmounts.length - 1];\n    }\n\n    function setBaseRouter(address _newRouter) external onlyOwner {\n        require(_newRouter != address(0), \"No zero\");\n        tokenRouter = IPancakeRouter(_newRouter);\n        emit UpdateRouter(_newRouter);\n    }\n\n    function setBaseRouting(\n        bool _isNice,\n        address _liquidity,\n        address[] calldata _path\n    ) external onlyOwner {\n        require(_liquidity != address(0), \"No zero\");\n        require(_path.length > 1, \"at least 2 tokens\");\n        if (_isNice) {\n            niceLiquidity = _liquidity;\n            nicePath = _path;\n        } else {\n            crushLiquidity = _liquidity;\n            crushPath = _path;\n        }\n        emit UpdateCore(_isNice, _liquidity, _path.length);\n    }\n\n    function setTeamWallet(address _newTeamW) external onlyOwner {\n        require(_newTeamW != address(0), \"Cant pay 0\");\n        teamWallet = _newTeamW;\n        emit UpdateTeamWallet(_newTeamW);\n    }\n}\n",
  "sourcePath": "/Users/umeralisajid/Documents/Frag/bitcrush/crush_contacts_old/contracts/FeeDistributor.sol",
  "compiler": {
    "name": "solc",
    "version": "0.8.12+commit.f00d7308.Emscripten.clang"
  },
  "schemaVersion": "3.4.4",
  "updatedAt": "2022-03-22T13:41:38.220Z",
  "devdoc": {
    "kind": "dev",
    "methods": {
      "checkPrice()": {
        "details": ""
      },
      "owner()": {
        "details": "Returns the address of the current owner."
      },
      "receiveFees(uint256,uint256)": {
        "details": "This function requires funds to be sent beforehand to this contract"
      },
      "renounceOwnership()": {
        "details": "Leaves the contract without owner. It will not be possible to call `onlyOwner` functions anymore. Can only be called by the current owner. NOTE: Renouncing ownership will leave the contract without an owner, thereby removing any functionality that is only available to the owner."
      },
      "transferOwnership(address)": {
        "details": "Transfers ownership of the contract to a new account (`newOwner`). Can only be called by the current owner."
      }
    },
    "version": 1
  },
  "userdoc": {
    "kind": "user",
    "methods": {
      "checkPrice()": {
        "notice": "Check that current Nice Price is above IDO"
      },
      "receiveFees(uint256,uint256)": {
        "notice": "Function that distributes fees to the respective flows"
      }
    },
    "version": 1
  }
}