{
  "abi": [
    {
      "inputs": [
        {
          "internalType": "address",
          "name": "_niceToken",
          "type": "address"
        },
        {
          "internalType": "uint256",
          "name": "_maxEmission",
          "type": "uint256"
        },
        {
          "internalType": "uint256",
          "name": "_nextEmission",
          "type": "uint256"
        },
        {
          "internalType": "uint256",
          "name": "_chains",
          "type": "uint256"
        }
      ],
      "stateMutability": "nonpayable",
      "type": "constructor"
    },
    {
      "anonymous": false,
      "inputs": [
        {
          "indexed": true,
          "internalType": "address",
          "name": "user",
          "type": "address"
        },
        {
          "indexed": true,
          "internalType": "uint256",
          "name": "pid",
          "type": "uint256"
        },
        {
          "indexed": false,
          "internalType": "uint256",
          "name": "amount",
          "type": "uint256"
        }
      ],
      "name": "Deposit",
      "type": "event"
    },
    {
      "anonymous": false,
      "inputs": [
        {
          "indexed": true,
          "internalType": "address",
          "name": "user",
          "type": "address"
        },
        {
          "indexed": true,
          "internalType": "uint256",
          "name": "pid",
          "type": "uint256"
        },
        {
          "indexed": false,
          "internalType": "uint256",
          "name": "amount",
          "type": "uint256"
        }
      ],
      "name": "EmergencyWithdraw",
      "type": "event"
    },
    {
      "anonymous": false,
      "inputs": [
        {
          "indexed": false,
          "internalType": "address",
          "name": "_newAddress",
          "type": "address"
        },
        {
          "indexed": false,
          "internalType": "bool",
          "name": "_isContract",
          "type": "bool"
        }
      ],
      "name": "FeeAddressEdit",
      "type": "event"
    },
    {
      "anonymous": false,
      "inputs": [
        {
          "indexed": false,
          "internalType": "uint256",
          "name": "number",
          "type": "uint256"
        },
        {
          "indexed": false,
          "internalType": "string",
          "name": "data",
          "type": "string"
        }
      ],
      "name": "LogEvent",
      "type": "event"
    },
    {
      "anonymous": false,
      "inputs": [
        {
          "indexed": true,
          "internalType": "address",
          "name": "previousOwner",
          "type": "address"
        },
        {
          "indexed": true,
          "internalType": "address",
          "name": "newOwner",
          "type": "address"
        }
      ],
      "name": "OwnershipTransferred",
      "type": "event"
    },
    {
      "anonymous": false,
      "inputs": [
        {
          "indexed": false,
          "internalType": "address",
          "name": "token",
          "type": "address"
        },
        {
          "indexed": false,
          "internalType": "uint256",
          "name": "multiplier",
          "type": "uint256"
        },
        {
          "indexed": false,
          "internalType": "uint256",
          "name": "fee",
          "type": "uint256"
        },
        {
          "indexed": false,
          "internalType": "bool",
          "name": "_type",
          "type": "bool"
        },
        {
          "indexed": false,
          "internalType": "uint256",
          "name": "_pid",
          "type": "uint256"
        }
      ],
      "name": "PoolAdded",
      "type": "event"
    },
    {
      "anonymous": false,
      "inputs": [
        {
          "indexed": false,
          "internalType": "uint256",
          "name": "amount",
          "type": "uint256"
        }
      ],
      "name": "UpdateEmissions",
      "type": "event"
    },
    {
      "anonymous": false,
      "inputs": [
        {
          "indexed": true,
          "internalType": "uint256",
          "name": "pid",
          "type": "uint256"
        },
        {
          "indexed": false,
          "internalType": "uint256",
          "name": "mult",
          "type": "uint256"
        },
        {
          "indexed": false,
          "internalType": "uint256",
          "name": "fee",
          "type": "uint256"
        }
      ],
      "name": "UpdatePool",
      "type": "event"
    },
    {
      "anonymous": false,
      "inputs": [
        {
          "indexed": false,
          "internalType": "uint256[]",
          "name": "pid",
          "type": "uint256[]"
        },
        {
          "indexed": false,
          "internalType": "uint256[]",
          "name": "mult",
          "type": "uint256[]"
        }
      ],
      "name": "UpdatePools",
      "type": "event"
    },
    {
      "anonymous": false,
      "inputs": [
        {
          "indexed": true,
          "internalType": "address",
          "name": "user",
          "type": "address"
        },
        {
          "indexed": true,
          "internalType": "uint256",
          "name": "pid",
          "type": "uint256"
        },
        {
          "indexed": false,
          "internalType": "uint256",
          "name": "amount",
          "type": "uint256"
        }
      ],
      "name": "Withdraw",
      "type": "event"
    },
    {
      "inputs": [],
      "name": "FEE_DIV",
      "outputs": [
        {
          "internalType": "uint256",
          "name": "",
          "type": "uint256"
        }
      ],
      "stateMutability": "view",
      "type": "function"
    },
    {
      "inputs": [],
      "name": "NICE",
      "outputs": [
        {
          "internalType": "contract NICEToken",
          "name": "",
          "type": "address"
        }
      ],
      "stateMutability": "view",
      "type": "function"
    },
    {
      "inputs": [],
      "name": "PERCENT",
      "outputs": [
        {
          "internalType": "uint256",
          "name": "",
          "type": "uint256"
        }
      ],
      "stateMutability": "view",
      "type": "function"
    },
    {
      "inputs": [],
      "name": "addChain",
      "outputs": [],
      "stateMutability": "nonpayable",
      "type": "function"
    },
    {
      "inputs": [
        {
          "internalType": "address",
          "name": "_token",
          "type": "address"
        },
        {
          "internalType": "uint256",
          "name": "_mult",
          "type": "uint256"
        },
        {
          "internalType": "bool",
          "name": "_type",
          "type": "bool"
        },
        {
          "internalType": "uint256",
          "name": "_fee",
          "type": "uint256"
        },
        {
          "internalType": "bool",
          "name": "_isLP",
          "type": "bool"
        },
        {
          "internalType": "uint256[]",
          "name": "_pidEdit",
          "type": "uint256[]"
        },
        {
          "internalType": "uint256[]",
          "name": "_pidMulEdit",
          "type": "uint256[]"
        }
      ],
      "name": "addPool",
      "outputs": [],
      "stateMutability": "nonpayable",
      "type": "function"
    },
    {
      "inputs": [],
      "name": "chains",
      "outputs": [
        {
          "internalType": "uint256",
          "name": "",
          "type": "uint256"
        }
      ],
      "stateMutability": "view",
      "type": "function"
    },
    {
      "inputs": [],
      "name": "currentMax",
      "outputs": [
        {
          "internalType": "uint256",
          "name": "",
          "type": "uint256"
        }
      ],
      "stateMutability": "view",
      "type": "function"
    },
    {
      "inputs": [
        {
          "internalType": "uint256",
          "name": "_amount",
          "type": "uint256"
        },
        {
          "internalType": "uint256",
          "name": "_pid",
          "type": "uint256"
        }
      ],
      "name": "deposit",
      "outputs": [],
      "stateMutability": "nonpayable",
      "type": "function"
    },
    {
      "inputs": [
        {
          "internalType": "address",
          "name": "_feeReceiver",
          "type": "address"
        },
        {
          "internalType": "bool",
          "name": "_isContract",
          "type": "bool"
        }
      ],
      "name": "editFeeAddress",
      "outputs": [],
      "stateMutability": "nonpayable",
      "type": "function"
    },
    {
      "inputs": [
        {
          "internalType": "uint256",
          "name": "_pid",
          "type": "uint256"
        },
        {
          "internalType": "uint256",
          "name": "_fee",
          "type": "uint256"
        }
      ],
      "name": "editPoolFee",
      "outputs": [],
      "stateMutability": "nonpayable",
      "type": "function"
    },
    {
      "inputs": [
        {
          "internalType": "uint256[]",
          "name": "_pidEdit",
          "type": "uint256[]"
        },
        {
          "internalType": "uint256[]",
          "name": "_pidMulEdit",
          "type": "uint256[]"
        }
      ],
      "name": "editPoolMult",
      "outputs": [],
      "stateMutability": "nonpayable",
      "type": "function"
    },
    {
      "inputs": [
        {
          "internalType": "uint256",
          "name": "_pid",
          "type": "uint256"
        }
      ],
      "name": "emergencyWithdraw",
      "outputs": [],
      "stateMutability": "nonpayable",
      "type": "function"
    },
    {
      "inputs": [],
      "name": "feeAddress",
      "outputs": [
        {
          "internalType": "address",
          "name": "",
          "type": "address"
        }
      ],
      "stateMutability": "view",
      "type": "function"
    },
    {
      "inputs": [],
      "name": "feeDistributor",
      "outputs": [
        {
          "internalType": "contract IFeeDistributor",
          "name": "",
          "type": "address"
        }
      ],
      "stateMutability": "view",
      "type": "function"
    },
    {
      "inputs": [
        {
          "internalType": "uint256",
          "name": "_pid",
          "type": "uint256"
        }
      ],
      "name": "getCurrentEmissions",
      "outputs": [
        {
          "internalType": "uint256",
          "name": "_emissions",
          "type": "uint256"
        }
      ],
      "stateMutability": "view",
      "type": "function"
    },
    {
      "inputs": [],
      "name": "initMax",
      "outputs": [
        {
          "internalType": "uint256",
          "name": "",
          "type": "uint256"
        }
      ],
      "stateMutability": "view",
      "type": "function"
    },
    {
      "inputs": [],
      "name": "massUpdatePools",
      "outputs": [],
      "stateMutability": "nonpayable",
      "type": "function"
    },
    {
      "inputs": [],
      "name": "maxMult",
      "outputs": [
        {
          "internalType": "uint256",
          "name": "",
          "type": "uint256"
        }
      ],
      "stateMutability": "view",
      "type": "function"
    },
    {
      "inputs": [
        {
          "internalType": "uint256",
          "name": "_pid",
          "type": "uint256"
        }
      ],
      "name": "mintRewards",
      "outputs": [
        {
          "internalType": "uint256",
          "name": "_rewardsGiven",
          "type": "uint256"
        }
      ],
      "stateMutability": "nonpayable",
      "type": "function"
    },
    {
      "inputs": [],
      "name": "nextMax",
      "outputs": [
        {
          "internalType": "uint256",
          "name": "",
          "type": "uint256"
        }
      ],
      "stateMutability": "view",
      "type": "function"
    },
    {
      "inputs": [],
      "name": "owner",
      "outputs": [
        {
          "internalType": "address",
          "name": "",
          "type": "address"
        }
      ],
      "stateMutability": "view",
      "type": "function"
    },
    {
      "inputs": [
        {
          "internalType": "address",
          "name": "_user",
          "type": "address"
        },
        {
          "internalType": "uint256",
          "name": "_pid",
          "type": "uint256"
        }
      ],
      "name": "pendingRewards",
      "outputs": [
        {
          "internalType": "uint256",
          "name": "_pendingRewards",
          "type": "uint256"
        }
      ],
      "stateMutability": "view",
      "type": "function"
    },
    {
      "inputs": [],
      "name": "poolCounter",
      "outputs": [
        {
          "internalType": "uint256",
          "name": "",
          "type": "uint256"
        }
      ],
      "stateMutability": "view",
      "type": "function"
    },
    {
      "inputs": [
        {
          "internalType": "uint256",
          "name": "",
          "type": "uint256"
        }
      ],
      "name": "poolInfo",
      "outputs": [
        {
          "internalType": "bool",
          "name": "poolType",
          "type": "bool"
        },
        {
          "internalType": "uint256",
          "name": "mult",
          "type": "uint256"
        },
        {
          "internalType": "uint256",
          "name": "fee",
          "type": "uint256"
        },
        {
          "internalType": "contract IERC20",
          "name": "token",
          "type": "address"
        },
        {
          "internalType": "uint256",
          "name": "accRewardPerShare",
          "type": "uint256"
        },
        {
          "internalType": "uint256",
          "name": "lastRewardTs",
          "type": "uint256"
        },
        {
          "internalType": "bool",
          "name": "isLP",
          "type": "bool"
        }
      ],
      "stateMutability": "view",
      "type": "function"
    },
    {
      "inputs": [],
      "name": "renounceOwnership",
      "outputs": [],
      "stateMutability": "nonpayable",
      "type": "function"
    },
    {
      "inputs": [
        {
          "internalType": "address",
          "name": "",
          "type": "address"
        }
      ],
      "name": "tokenPools",
      "outputs": [
        {
          "internalType": "uint256",
          "name": "",
          "type": "uint256"
        }
      ],
      "stateMutability": "view",
      "type": "function"
    },
    {
      "inputs": [
        {
          "internalType": "uint256",
          "name": "",
          "type": "uint256"
        }
      ],
      "name": "tpPools",
      "outputs": [
        {
          "internalType": "address",
          "name": "",
          "type": "address"
        }
      ],
      "stateMutability": "view",
      "type": "function"
    },
    {
      "inputs": [
        {
          "internalType": "address",
          "name": "newOwner",
          "type": "address"
        }
      ],
      "name": "transferOwnership",
      "outputs": [],
      "stateMutability": "nonpayable",
      "type": "function"
    },
    {
      "inputs": [
        {
          "internalType": "uint256",
          "name": "_pid",
          "type": "uint256"
        }
      ],
      "name": "updatePool",
      "outputs": [],
      "stateMutability": "nonpayable",
      "type": "function"
    },
    {
      "inputs": [
        {
          "internalType": "uint256",
          "name": "",
          "type": "uint256"
        },
        {
          "internalType": "address",
          "name": "",
          "type": "address"
        }
      ],
      "name": "userInfo",
      "outputs": [
        {
          "internalType": "uint256",
          "name": "amount",
          "type": "uint256"
        },
        {
          "internalType": "uint256",
          "name": "accClaim",
          "type": "uint256"
        }
      ],
      "stateMutability": "view",
      "type": "function"
    },
    {
      "inputs": [
        {
          "internalType": "uint256",
          "name": "_amount",
          "type": "uint256"
        },
        {
          "internalType": "uint256",
          "name": "_pid",
          "type": "uint256"
        }
      ],
      "name": "withdraw",
      "outputs": [],
      "stateMutability": "nonpayable",
      "type": "function"
    }
  ],
  "bytecode": "60c06040523480156200001157600080fd5b5060405162002c8738038062002c878339810160408190526200003491620000cf565b6200003f336200007f565b60018055600680546001600160a01b039095166001600160a01b031995861617905560038054909416331790935560809190915260a0526004556200011c565b600080546001600160a01b038381166001600160a01b0319831681178455604051919092169283917f8be0079c531659141344cd1fd0a4f28419497f9722a3daafe3b4186f6b6457e09190a35050565b60008060008060808587031215620000e657600080fd5b84516001600160a01b0381168114620000fe57600080fd5b60208601516040870151606090970151919890975090945092505050565b60805160a051612b296200015e600039600081816101ef01528181611a4b01528181611b190152611b400152600081816103f10152611a250152612b296000f3fe608060405234801561001057600080fd5b50600436106101e55760003560e01c8063667b72d01161010f578063b85a8b20116100a2578063e155225211610071578063e1552252146104ce578063e2bbb158146104e1578063f2fde38b146104f4578063f5baf4e31461050757600080fd5b8063b85a8b2014610487578063bc8f71e914610493578063c38f1fbc146104a6578063c3d2c3c1146104ae57600080fd5b80638da5cb5b116100de5780638da5cb5b146104135780638f2a37fc1461042457806393f1a40b146104375780639e3079cb1461047e57600080fd5b8063667b72d0146103b25780636a188052146103db578063715018a6146103e45780637379dd19146103ec57600080fd5b80634b5edd84116101875780635bf67b62116101565780635bf67b62146103715780635e399c59146103845780636099ecb214610397578063630b5ba1146103aa57600080fd5b80634b5edd841461033857806351eb05a6146103425780635312ea8e1461035557806358a8b85f1461036857600080fd5b806330926486116101c357806330926486146102ea57806341275358146102fd578063441a3e70146103105780634828ced91461032557600080fd5b8063031b1ee3146101ea5780630d43e8ad146102245780631526fe271461024f575b600080fd5b6102117f000000000000000000000000000000000000000000000000000000000000000081565b6040519081526020015b60405180910390f35b600754610237906001600160a01b031681565b6040516001600160a01b03909116815260200161021b565b6102a961025d366004612417565b600960205260009081526040902080546001820154600283015460038401546004850154600586015460069096015460ff95861696949593946001600160a01b03909316939192911687565b6040805197151588526020880196909652948601939093526001600160a01b039091166060850152608084015260a0830152151560c082015260e00161021b565b600654610237906001600160a01b031681565b600354610237906001600160a01b031681565b61032361031e366004612430565b610510565b005b610211610333366004612417565b610748565b610211620f424081565b610323610350366004612417565b6107f5565b610323610363366004612417565b610903565b61021160045481565b61032361037f36600461249e565b610a6f565b610323610392366004612430565b610ae8565b6102116103a5366004612526565b610bf8565b610323610d44565b6102376103c0366004612417565b600a602052600090815260409020546001600160a01b031681565b61021160025481565b610323610e0b565b6102117f000000000000000000000000000000000000000000000000000000000000000081565b6000546001600160a01b0316610237565b610211610432366004612417565b610e41565b610469610445366004612550565b60086020908152600092835260408084209091529082529020805460019091015482565b6040805192835260208301919091520161021b565b61021160055481565b61021164e8d4a5100081565b6103236104a136600461258a565b610e89565b610323610f81565b6102116104bc3660046125c1565b600b6020526000908152604090205481565b6103236104dc3660046125dc565b610fc6565b6103236104ef366004612430565b61130d565b6103236105023660046125c1565b611803565b61021161271081565b6002600154141561053c5760405162461bcd60e51b815260040161053390612697565b60405180910390fd5b6002600155600081815260096020908152604080832060088352818420338552909252909120815460ff16156105a85760405162461bcd60e51b815260206004820152601160248201527015da5d1a191c985dce88151c08141bdbdb607a1b6044820152606401610533565b80548411156105f45760405162461bcd60e51b815260206004820152601860248201527715da5d1a191c985dce881a5b9d985b1a5908185b5bdd5b9d60421b6044820152606401610533565b6105fd836107f5565b6000816001015464e8d4a510008460040154846000015461061e91906126e4565b6106289190612719565b610632919061272d565b905080156106b1576006546040516340c10f1960e01b8152336004820152602481018390526001600160a01b03909116906340c10f19906044016020604051808303816000875af115801561068b573d6000803e3d6000fd5b505050506040513d601f19601f820116820180604052508101906106af9190612744565b505b84156106df5781546106c490869061272d565b825560038301546106df906001600160a01b0316338761189b565b6004830154825464e8d4a51000916106f6916126e4565b6107009190612719565b6001830155604051858152849033907ff279e6a1f5e320cca91135676d9cb6e44ca8a08c0b88342bcdb1144f6511b568906020015b60405180910390a3505060018055505050565b60006002600154141561076d5760405162461bcd60e51b815260040161053390612697565b60026001556000828152600960205260409020805460ff1680156107a757506000838152600a60205260409020546001600160a01b031633145b6107e15760405162461bcd60e51b815260206004820152600b60248201526a139bdd081d1c081c1bdbdb60aa1b6044820152606401610533565b6107ea83611903565b600180559392505050565b600081815260096020526040808220600381015491516370a0823160e01b81523060048201529092916001600160a01b0316906370a0823190602401602060405180830381865afa15801561084e573d6000803e3d6000fd5b505050506040513d601f19601f820116820180604052508101906108729190612761565b9050816001015460001480610885575080155b80610894575081600501544211155b156108a457504260059091015550565b6000816002546108b491906126e4565b905060008184600101546108c7866119e4565b6108d191906126e4565b6108db9190612719565b42600586015560048501549091506108f490829061277a565b84600401819055505050505050565b600260015414156109265760405162461bcd60e51b815260040161053390612697565b6002600155600081815260096020908152604080832060088352818420338552909252909120815460ff16156109925760405162461bcd60e51b81526020600482015260116024820152701dda5d1a191c985dce88151c08141bdbdb607a1b6044820152606401610533565b80546109db5760405162461bcd60e51b815260206004820152601860248201527715da5d1a191c985dce881a5b9d985b1a5908185b5bdd5b9d60421b6044820152606401610533565b80546040805180820182526000808252602080830182815288835260088252848320338085529252939091209151825591516001909101556003840154610a2e916001600160a01b03909116908361189b565b604051818152849033907fbb757047c2b5f3974fe26b7c10f732e7bce710b0952a71082702781e62ae05959060200160405180910390a35050600180555050565b6000546001600160a01b03163314610a995760405162461bcd60e51b815260040161053390612792565b610aa584848484611c4d565b7f2a46f3e26dd9e5eeedeb561e5e212df0d3b0f82ad30bd3b55e548212c057b16384848484604051610ada94939291906127fd565b60405180910390a150505050565b6000546001600160a01b03163314610b125760405162461bcd60e51b815260040161053390612792565b600082815260096020526040902060038101546001600160a01b0316610b6a5760405162461bcd60e51b815260206004820152600d60248201526c19591a5d0e881a5b9d985b1a59609a1b6044820152606401610533565b6109c58210610bac5760405162461bcd60e51b815260206004820152600e60248201526d656469743a20686967682066656560901b6044820152606401610533565b600281018290556001810154604080519182526020820184905284917ff5d2d72d9b25d6853afd7d0554a113b705234b6a68bb36b7f143662994632411910160405180910390a2505050565b6000818152600960209081526040808320600883528184206001600160a01b038716855290925282208054610c3257600092505050610d3e565b60048281015460038401546040516370a0823160e01b8152309381019390935290916000916001600160a01b0316906370a0823190602401602060405180830381865afa158015610c87573d6000803e3d6000fd5b505050506040513d601f19601f82011682018060405250810190610cab9190612761565b9050836005015442118015610cc05750600081115b15610d1c5760008460010154610cd5866119e4565b610cdf91906126e4565b9050600064e8d4a5100083600254610cf791906126e4565b610d0191906126e4565b9050610d0d8183612719565b610d17908561277a565b935050505b60018301548354610d2d90846126e4565b610d37919061272d565b9450505050505b92915050565b60015b6005548111610e08577f0d5a0dba7395a48387b3738f86b7958feb691d5f5db50749c87d270ba92ddadc81604051610da4918152604060208201819052600b908201526a706f6f6c2075706461746560a81b606082015260800190565b60405180910390a1600081815260096020526040902060010154610dc757610df6565b60008181526009602052604090205460ff16610deb57610de6816107f5565b610df6565b610df481611903565b505b80610e0081612824565b915050610d47565b50565b6000546001600160a01b03163314610e355760405162461bcd60e51b815260040161053390612792565b610e3f6000611e19565b565b600081815260096020526040812060038101546001600160a01b03161580610e6b57506001810154155b15610e795750600092915050565b610e82816119e4565b9392505050565b6000546001600160a01b03163314610eb35760405162461bcd60e51b815260040161053390612792565b8015610ed957600780546001600160a01b0319166001600160a01b038416179055610f3a565b6001600160a01b038216610f1e5760405162461bcd60e51b815260206004820152600c60248201526b39b2ba103932b1b2b4bb32b960a11b6044820152606401610533565b600380546001600160a01b0319166001600160a01b0384161790555b604080516001600160a01b038416815282151560208201527fcd51f9f86222e46143649f996c1603de7585e14c114955985ccc53117ef39f26910160405180910390a15050565b6000546001600160a01b03163314610fab5760405162461bcd60e51b815260040161053390612792565b610fb3610d44565b600454610fc190600161277a565b600455565b6000546001600160a01b03163314610ff05760405162461bcd60e51b815260040161053390612792565b8281146110325760405162461bcd60e51b815260206004820152601060248201526f6164643a2077726f6e6720656469747360801b6044820152606401610533565b61138986106110765760405162461bcd60e51b815260206004820152601060248201526f6164643a20696e76616c69642066656560801b6044820152606401610533565b6001600160a01b0389166000908152600b6020526040902054156110d25760405162461bcd60e51b81526020600482015260136024820152721859190e881d1bdad95b881c995c19585d1959606a1b6044820152606401610533565b6110de84848484611c4d565b620f4240886002546110f0919061277a565b11156111365760405162461bcd60e51b815260206004820152601560248201527430b2321d103bb937b7339036bab63a34b83634b2b960591b6044820152606401610533565b87600254611144919061277a565b6002556005805490600061115783612824565b91905055506040518060e0016040528088151581526020018981526020018781526020018a6001600160a01b031681526020016000815260200142815260200186151581525060096000600554815260200190815260200160002060008201518160000160006101000a81548160ff021916908315150217905550602082015181600101556040820151816002015560608201518160030160006101000a8154816001600160a01b0302191690836001600160a01b031602179055506080820151816004015560a0820151816005015560c08201518160060160006101000a81548160ff021916908315150217905550905050600554600b60008b6001600160a01b03166001600160a01b031681526020019081526020016000208190555086156112a7576005546000908152600a6020526040902080546001600160a01b0319166001600160a01b038b161790555b600554604080516001600160a01b038c168152602081018b905280820189905289151560608201526080810192909252517fd5d9095da54a196ff732904e2f9e23dcb985825a8fd9a6b80f9b8d69fca774a29181900360a00190a1505050505050505050565b600260015414156113305760405162461bcd60e51b815260040161053390612697565b60026001908155600082815260096020908152604080832060088352818420338552909252909120918101549091906113a45760405162461bcd60e51b815260206004820152601660248201527511195c1bdcda5d0e88141bdbdb08191a5cd8589b195960521b6044820152606401610533565b815460ff16156113e95760405162461bcd60e51b815260206004820152601060248201526f11195c1bdcda5d0e88151c08141bdbdb60821b6044820152606401610533565b6113f2836107f5565b8054156114af576000816001015464e8d4a510008460040154846000015461141a91906126e4565b6114249190612719565b61142e919061272d565b905080156114ad576006546040516340c10f1960e01b8152336004820152602481018390526001600160a01b03909116906340c10f19906044016020604051808303816000875af1158015611487573d6000803e3d6000fd5b505050506040513d601f19601f820116820180604052508101906114ab9190612744565b505b505b8380156117a957600283015415611780576127108360020154826114d391906126e4565b6114dd9190612719565b6007549091506001600160a01b0316611516576003805490840154611511916001600160a01b039182169133911684611e69565b611773565b600383015460075460405163095ea7b360e01b81526001600160a01b0391821660048201526024810184905291169063095ea7b3906044016020604051808303816000875af115801561156d573d6000803e3d6000fd5b505050506040513d601f19601f820116820180604052508101906115919190612744565b506007546040516309e690eb60e31b815260048101869052602481018390526001600160a01b0390911690634f34875890604401600060405180830381600087803b1580156115df57600080fd5b505af19250505080156115f0575060015b611704577f0d5a0dba7395a48387b3738f86b7958feb691d5f5db50749c87d270ba92ddadc8160405161165a9181526040602082018190526017908201527f4661696c65642046656520446973747269627574696f6e000000000000000000606082015260800190565b60405180910390a16003805490840154611683916001600160a01b039182169133911684611e69565b600383015460075460405163095ea7b360e01b81526001600160a01b0391821660048201526000602482015291169063095ea7b3906044016020604051808303816000875af11580156116da573d6000803e3d6000fd5b505050506040513d601f19601f820116820180604052508101906116fe9190612744565b50611773565b7f0d5a0dba7395a48387b3738f86b7958feb691d5f5db50749c87d270ba92ddadc8160405161176a9181526040602082018190526018908201527f537563636573732046656520446973747269627574696f6e0000000000000000606082015260800190565b60405180910390a15b61177d818661272d565b90505b815461178d90829061277a565b825560038301546117a9906001600160a01b0316333084611e69565b6004830154825464e8d4a51000916117c0916126e4565b6117ca9190612719565b6001830155604051858152849033907f90890809c654f11d6e72a28fa60149770a0d11ec6c92319d6ceb2bb0a4ea1a1590602001610735565b6000546001600160a01b0316331461182d5760405162461bcd60e51b815260040161053390612792565b6001600160a01b0381166118925760405162461bcd60e51b815260206004820152602660248201527f4f776e61626c653a206e6577206f776e657220697320746865207a65726f206160448201526564647265737360d01b6064820152608401610533565b610e0881611e19565b6040516001600160a01b0383166024820152604481018290526118fe90849063a9059cbb60e01b906064015b60408051601f198184030181529190526020810180516001600160e01b03166001600160e01b031990931692909217909152611ea1565b505050565b6000818152600960205260408120600581015442116119255750600092915050565b64e8d4a5100060025461193891906126e4565b8160010154611946836119e4565b61195091906126e4565b61195a9190612719565b42600583015560065460038301546040516340c10f1960e01b81526001600160a01b0391821660048201526024810184905292945016906340c10f19906044016020604051808303816000875af11580156119b9573d6000803e3d6000fd5b505050506040513d601f19601f820116820180604052508101906119dd9190612744565b5050919050565b6000806119f042611f73565b505090506000611a038460050154611f73565b505090506000808284611a16919061272d565b905060006107e68411611a49577f0000000000000000000000000000000000000000000000000000000000000000611a6b565b7f00000000000000000000000000000000000000000000000000000000000000005b90506107ea841115611a84575060009695505050505050565b6107e7841115611aaa57611a9a6107e78561272d565b611aa5906002612923565b611aad565b60015b92508115611bfe5760008760050154611acd876001806000806000611f99565b611ad7919061272d565b905083600454611ae791906126e4565b64e8d4a51000611af783856126e4565b611b0191906126e4565b611b0b9190612719565b611b15908861277a565b96507f00000000000000000000000000000000000000000000000000000000000000008214611b62577f000000000000000000000000000000000000000000000000000000000000000091505b856107e714611b8757611b776107e78761272d565b611b82906002612923565b611b8a565b60015b93506107ea8611611bb557611ba6866001806000806000611f99565b611bb0904261272d565b611bb8565b60005b905083600454611bc891906126e4565b64e8d4a51000611bd883856126e4565b611be291906126e4565b611bec9190612719565b611bf6908861277a565b965050611c43565b82600454611c0c91906126e4565b64e8d4a51000886005015442611c22919061272d565b611c2c90846126e4565b611c3691906126e4565b611c409190612719565b95505b5050505050919050565b82611c5757611e13565b60025460005b84811015611dc7576000600981888885818110611c7c57611c7c61292f565b60209081029290920135835250810191909152604001600020600301546001600160a01b03161415611ce95760405162461bcd60e51b81526020600482015260166024820152751b5d5b1d0e881b9bdb995e1a5cdd195b9d081c1bdbdb60521b6044820152606401610533565b611d0a868683818110611cfe57611cfe61292f565b905060200201356107f5565b838382818110611d1c57611d1c61292f565b9050602002013560096000888885818110611d3957611d3961292f565b9050602002013581526020019081526020016000206001015483611d5d919061272d565b611d67919061277a565b9150838382818110611d7b57611d7b61292f565b9050602002013560096000888885818110611d9857611d9861292f565b905060200201358152602001908152602001600020600101819055508080611dbf90612824565b915050611c5d565b50620f4240811115611e0f5760405162461bcd60e51b81526020600482015260116024820152700daead8e87440caf0c6cacac8e640dac2f607b1b6044820152606401610533565b6002555b50505050565b600080546001600160a01b038381166001600160a01b0319831681178455604051919092169283917f8be0079c531659141344cd1fd0a4f28419497f9722a3daafe3b4186f6b6457e09190a35050565b6040516001600160a01b0380851660248301528316604482015260648101829052611e139085906323b872dd60e01b906084016118c7565b6000611ef6826040518060400160405280602081526020017f5361666545524332303a206c6f772d6c6576656c2063616c6c206661696c6564815250856001600160a01b0316611ff59092919063ffffffff16565b8051909150156118fe5780806020019051810190611f149190612744565b6118fe5760405162461bcd60e51b815260206004820152602a60248201527f5361666545524332303a204552433230206f7065726174696f6e20646964206e6044820152691bdd081cdd58d8d9595960b21b6064820152608401610533565b60008080611f8c611f876201518086612719565b61200c565b9196909550909350915050565b600081611fa7603c856126e4565b611fb3610e10876126e4565b62015180611fc28b8b8b612180565b611fcc91906126e4565b611fd6919061277a565b611fe0919061277a565b611fea919061277a565b979650505050505050565b606061200484846000856122bd565b949350505050565b60008080838162253d8c6120238362010bd9612945565b61202d9190612945565b9050600062023ab1612040836004612986565b61204a9190612a0b565b9050600461205b8262023ab1612986565b612066906003612945565b6120709190612a0b565b61207a9083612a39565b9150600062164b0961208d846001612945565b61209990610fa0612986565b6120a39190612a0b565b905060046120b3826105b5612986565b6120bd9190612a0b565b6120c79084612a39565b6120d290601f612945565b9250600061098f6120e4856050612986565b6120ee9190612a0b565b9050600060506121008361098f612986565b61210a9190612a0b565b6121149086612a39565b9050612121600b83612a0b565b945061212e85600c612986565b612139836002612945565b6121439190612a39565b91508483612152603187612a39565b61215d906064612986565b6121679190612945565b6121719190612945565b9a919950975095505050505050565b60006107b284101561219157600080fd5b838383600062253d8c60046064600c6121ab600e88612a39565b6121b59190612a0b565b6121c188611324612945565b6121cb9190612945565b6121d59190612a0b565b6121e0906003612986565b6121ea9190612a0b565b600c806121f8600e88612a39565b6122029190612a0b565b61220d90600c612986565b612218600288612a39565b6122229190612a39565b61222e9061016f612986565b6122389190612a0b565b6004600c612247600e89612a39565b6122519190612a0b565b61225d896112c0612945565b6122679190612945565b612273906105b5612986565b61227d9190612a0b565b612289617d4b87612a39565b6122939190612945565b61229d9190612945565b6122a79190612a39565b6122b19190612a39565b98975050505050505050565b60608247101561231e5760405162461bcd60e51b815260206004820152602660248201527f416464726573733a20696e73756666696369656e742062616c616e636520666f6044820152651c8818d85b1b60d21b6064820152608401610533565b6001600160a01b0385163b6123755760405162461bcd60e51b815260206004820152601d60248201527f416464726573733a2063616c6c20746f206e6f6e2d636f6e74726163740000006044820152606401610533565b600080866001600160a01b031685876040516123919190612aa4565b60006040518083038185875af1925050503d80600081146123ce576040519150601f19603f3d011682016040523d82523d6000602084013e6123d3565b606091505b5091509150611fea828286606083156123ed575081610e82565b8251156123fd5782518084602001fd5b8160405162461bcd60e51b81526004016105339190612ac0565b60006020828403121561242957600080fd5b5035919050565b6000806040838503121561244357600080fd5b50508035926020909101359150565b60008083601f84011261246457600080fd5b50813567ffffffffffffffff81111561247c57600080fd5b6020830191508360208260051b850101111561249757600080fd5b9250929050565b600080600080604085870312156124b457600080fd5b843567ffffffffffffffff808211156124cc57600080fd5b6124d888838901612452565b909650945060208701359150808211156124f157600080fd5b506124fe87828801612452565b95989497509550505050565b80356001600160a01b038116811461252157600080fd5b919050565b6000806040838503121561253957600080fd5b6125428361250a565b946020939093013593505050565b6000806040838503121561256357600080fd5b823591506125736020840161250a565b90509250929050565b8015158114610e0857600080fd5b6000806040838503121561259d57600080fd5b6125a68361250a565b915060208301356125b68161257c565b809150509250929050565b6000602082840312156125d357600080fd5b610e828261250a565b600080600080600080600080600060e08a8c0312156125fa57600080fd5b6126038a61250a565b985060208a0135975060408a013561261a8161257c565b965060608a0135955060808a01356126318161257c565b945060a08a013567ffffffffffffffff8082111561264e57600080fd5b61265a8d838e01612452565b909650945060c08c013591508082111561267357600080fd5b506126808c828d01612452565b915080935050809150509295985092959850929598565b6020808252601f908201527f5265656e7472616e637947756172643a207265656e7472616e742063616c6c00604082015260600190565b634e487b7160e01b600052601160045260246000fd5b60008160001904831182151516156126fe576126fe6126ce565b500290565b634e487b7160e01b600052601260045260246000fd5b60008261272857612728612703565b500490565b60008282101561273f5761273f6126ce565b500390565b60006020828403121561275657600080fd5b8151610e828161257c565b60006020828403121561277357600080fd5b5051919050565b6000821982111561278d5761278d6126ce565b500190565b6020808252818101527f4f776e61626c653a2063616c6c6572206973206e6f7420746865206f776e6572604082015260600190565b81835260006001600160fb1b038311156127e057600080fd5b8260051b8083602087013760009401602001938452509192915050565b6040815260006128116040830186886127c7565b8281036020840152611fea8185876127c7565b6000600019821415612838576128386126ce565b5060010190565b600181815b8085111561287a578160001904821115612860576128606126ce565b8085161561286d57918102915b93841c9390800290612844565b509250929050565b60008261289157506001610d3e565b8161289e57506000610d3e565b81600181146128b457600281146128be576128da565b6001915050610d3e565b60ff8411156128cf576128cf6126ce565b50506001821b610d3e565b5060208310610133831016604e8410600b84101617156128fd575081810a610d3e565b612907838361283f565b806000190482111561291b5761291b6126ce565b029392505050565b6000610e828383612882565b634e487b7160e01b600052603260045260246000fd5b600080821280156001600160ff1b0384900385131615612967576129676126ce565b600160ff1b8390038412811615612980576129806126ce565b50500190565b60006001600160ff1b03818413828413808216868404861116156129ac576129ac6126ce565b600160ff1b60008712828116878305891216156129cb576129cb6126ce565b600087129250878205871284841616156129e7576129e76126ce565b878505871281841616156129fd576129fd6126ce565b505050929093029392505050565b600082612a1a57612a1a612703565b600160ff1b821460001984141615612a3457612a346126ce565b500590565b60008083128015600160ff1b850184121615612a5757612a576126ce565b6001600160ff1b0384018313811615612a7257612a726126ce565b50500390565b60005b83811015612a93578181015183820152602001612a7b565b83811115611e135750506000910152565b60008251612ab6818460208701612a78565b9190910192915050565b6020815260008251806020840152612adf816040850160208701612a78565b601f01601f1916919091016040019291505056fea2646970667358221220aa82154e8e7aae321ee7e4893afe8dad277d9479be4b7ee27f5f8f1e2e72fae264736f6c634300080c0033",
  "bytecodeSha1": "b4aed68e9251996c52b1239da1ff6dcd9b7af82c",
  "compiler": {
    "evm_version": "istanbul",
    "optimizer": {
      "enabled": true,
      "runs": 200
    },
    "version": "0.8.12+commit.f00d7308"
  },
  "contractName": "GalacticChef",
  "language": "Solidity",
  "natspec": {
    "kind": "dev",
    "methods": {
      "addChain()": {
        "notice": "Adds 1 to the amount of chains to which emissions are split This factor is used in the emissions calculation"
      },
      "addPool(address,uint256,bool,uint256,bool,uint256[],uint256[])": {
        "notice": "Add Farm of a specific token",
        "params": {
          "_fee": "the fee to deposit on the pool",
          "_isLP": "is the token an LP token",
          "_mult": "the multiplier the pool will have",
          "_pidEdit": "is it a regular pool or a third party pool ( TRUE = ThirdParty )",
          "_pidMulEdit": "is it a regular pool or a third party pool ( TRUE = ThirdParty )",
          "_token": "the token that will be collected, Taken as address since ThirdParty pools will handle their own logic",
          "_type": "is it a regular pool or a third party pool ( TRUE = ThirdParty )"
        }
      },
      "deposit(uint256,uint256)": {
        "notice": "Allows user to deposit pool token to chef. Transfers rewards to user.",
        "params": {
          "_amount": "Amount of pool tokens to stake",
          "_pid": "Pool ID which indicates the type of token"
        }
      },
      "editPoolFee(uint256,uint256)": {
        "notice": "Edits pool fee and updates pools with new params",
        "params": {
          "_fee": "New pool fee",
          "_pid": "Pool Id"
        }
      },
      "editPoolMult(uint256[],uint256[])": {
        "notice": "Edits the pool multiplier and updates pools with new params",
        "params": {
          "_pidEdit": "Pool ID",
          "_pidMulEdit": "New multiplier"
        }
      },
      "emergencyWithdraw(uint256)": {
        "notice": "Emergency withdraws all the pool tokens from chef. In this case there's no reward.",
        "params": {
          "_pid": "Pool ID which indicates the type of token"
        }
      },
      "getCurrentEmissions(uint256)": {
        "notice": "getCurrentEmissions allows external users to get the current reward emissions It Uses getTimeEmissions to get the current emissions for the pool between last reward emission and current emission",
        "params": {
          "_pid": "Pool Id  from which we need emissions calculated"
        },
        "returns": {
          "_emissions": "emissions for the given pool between"
        }
      },
      "massUpdatePools()": {
        "details": "this might be expensive to call...",
        "notice": "Update all pools accPerShare"
      },
      "mintRewards(uint256)": {
        "notice": "This is for Third party pools only. This handles the reward.",
        "params": {
          "_pid": "ID of the third party pool that requests minted rewards"
        },
        "returns": {
          "_rewardsGiven": "Amount of rewards minted to the third party pool"
        }
      },
      "owner()": {
        "details": "Returns the address of the current owner."
      },
      "pendingRewards(address,uint256)": {
        "notice": "this is for frontend only, calculates the pending reward for a particular user in a specific pool.",
        "params": {
          "_pid": "Pool Id to calculate rewards of",
          "_user": "User to calculate rewards to"
        }
      },
      "renounceOwnership()": {
        "details": "Leaves the contract without owner. It will not be possible to call `onlyOwner` functions anymore. Can only be called by the current owner. NOTE: Renouncing ownership will leave the contract without an owner, thereby removing any functionality that is only available to the owner."
      },
      "transferOwnership(address)": {
        "details": "Transfers ownership of the contract to a new account (`newOwner`). Can only be called by the current owner."
      },
      "updatePool(uint256)": {
        "notice": "Update the accRewardPerShare for a specific pool",
        "params": {
          "_pid": "Pool Id to update the accumulated rewards"
        }
      },
      "withdraw(uint256,uint256)": {
        "notice": "Withdraws pool token from chef. Transfers rewards to user.",
        "params": {
          "_amount": "Amount of pool tokens to withdraw.",
          "_pid": "Pool ID which indicates the type of token"
        }
      }
    },
    "version": 1
  },
  "opcodes": "PUSH1 0x80 PUSH1 0x40 MSTORE CALLVALUE DUP1 ISZERO PUSH2 0x10 JUMPI PUSH1 0x0 DUP1 REVERT JUMPDEST POP PUSH1 0x4 CALLDATASIZE LT PUSH2 0x1E5 JUMPI PUSH1 0x0 CALLDATALOAD PUSH1 0xE0 SHR DUP1 PUSH4 0x667B72D0 GT PUSH2 0x10F JUMPI DUP1 PUSH4 0xB85A8B20 GT PUSH2 0xA2 JUMPI DUP1 PUSH4 0xE1552252 GT PUSH2 0x71 JUMPI DUP1 PUSH4 0xE1552252 EQ PUSH2 0x4CE JUMPI DUP1 PUSH4 0xE2BBB158 EQ PUSH2 0x4E1 JUMPI DUP1 PUSH4 0xF2FDE38B EQ PUSH2 0x4F4 JUMPI DUP1 PUSH4 0xF5BAF4E3 EQ PUSH2 0x507 JUMPI PUSH1 0x0 DUP1 REVERT JUMPDEST DUP1 PUSH4 0xB85A8B20 EQ PUSH2 0x487 JUMPI DUP1 PUSH4 0xBC8F71E9 EQ PUSH2 0x493 JUMPI DUP1 PUSH4 0xC38F1FBC EQ PUSH2 0x4A6 JUMPI DUP1 PUSH4 0xC3D2C3C1 EQ PUSH2 0x4AE JUMPI PUSH1 0x0 DUP1 REVERT JUMPDEST DUP1 PUSH4 0x8DA5CB5B GT PUSH2 0xDE JUMPI DUP1 PUSH4 0x8DA5CB5B EQ PUSH2 0x413 JUMPI DUP1 PUSH4 0x8F2A37FC EQ PUSH2 0x424 JUMPI DUP1 PUSH4 0x93F1A40B EQ PUSH2 0x437 JUMPI DUP1 PUSH4 0x9E3079CB EQ PUSH2 0x47E JUMPI PUSH1 0x0 DUP1 REVERT JUMPDEST DUP1 PUSH4 0x667B72D0 EQ PUSH2 0x3B2 JUMPI DUP1 PUSH4 0x6A188052 EQ PUSH2 0x3DB JUMPI DUP1 PUSH4 0x715018A6 EQ PUSH2 0x3E4 JUMPI DUP1 PUSH4 0x7379DD19 EQ PUSH2 0x3EC JUMPI PUSH1 0x0 DUP1 REVERT JUMPDEST DUP1 PUSH4 0x4B5EDD84 GT PUSH2 0x187 JUMPI DUP1 PUSH4 0x5BF67B62 GT PUSH2 0x156 JUMPI DUP1 PUSH4 0x5BF67B62 EQ PUSH2 0x371 JUMPI DUP1 PUSH4 0x5E399C59 EQ PUSH2 0x384 JUMPI DUP1 PUSH4 0x6099ECB2 EQ PUSH2 0x397 JUMPI DUP1 PUSH4 0x630B5BA1 EQ PUSH2 0x3AA JUMPI PUSH1 0x0 DUP1 REVERT JUMPDEST DUP1 PUSH4 0x4B5EDD84 EQ PUSH2 0x338 JUMPI DUP1 PUSH4 0x51EB05A6 EQ PUSH2 0x342 JUMPI DUP1 PUSH4 0x5312EA8E EQ PUSH2 0x355 JUMPI DUP1 PUSH4 0x58A8B85F EQ PUSH2 0x368 JUMPI PUSH1 0x0 DUP1 REVERT JUMPDEST DUP1 PUSH4 0x30926486 GT PUSH2 0x1C3 JUMPI DUP1 PUSH4 0x30926486 EQ PUSH2 0x2EA JUMPI DUP1 PUSH4 0x41275358 EQ PUSH2 0x2FD JUMPI DUP1 PUSH4 0x441A3E70 EQ PUSH2 0x310 JUMPI DUP1 PUSH4 0x4828CED9 EQ PUSH2 0x325 JUMPI PUSH1 0x0 DUP1 REVERT JUMPDEST DUP1 PUSH4 0x31B1EE3 EQ PUSH2 0x1EA JUMPI DUP1 PUSH4 0xD43E8AD EQ PUSH2 0x224 JUMPI DUP1 PUSH4 0x1526FE27 EQ PUSH2 0x24F JUMPI JUMPDEST PUSH1 0x0 DUP1 REVERT JUMPDEST PUSH2 0x211 PUSH32 0x0 DUP2 JUMP JUMPDEST PUSH1 0x40 MLOAD SWAP1 DUP2 MSTORE PUSH1 0x20 ADD JUMPDEST PUSH1 0x40 MLOAD DUP1 SWAP2 SUB SWAP1 RETURN JUMPDEST PUSH1 0x7 SLOAD PUSH2 0x237 SWAP1 PUSH1 0x1 PUSH1 0x1 PUSH1 0xA0 SHL SUB AND DUP2 JUMP JUMPDEST PUSH1 0x40 MLOAD PUSH1 0x1 PUSH1 0x1 PUSH1 0xA0 SHL SUB SWAP1 SWAP2 AND DUP2 MSTORE PUSH1 0x20 ADD PUSH2 0x21B JUMP JUMPDEST PUSH2 0x2A9 PUSH2 0x25D CALLDATASIZE PUSH1 0x4 PUSH2 0x2417 JUMP JUMPDEST PUSH1 0x9 PUSH1 0x20 MSTORE PUSH1 0x0 SWAP1 DUP2 MSTORE PUSH1 0x40 SWAP1 KECCAK256 DUP1 SLOAD PUSH1 0x1 DUP3 ADD SLOAD PUSH1 0x2 DUP4 ADD SLOAD PUSH1 0x3 DUP5 ADD SLOAD PUSH1 0x4 DUP6 ADD SLOAD PUSH1 0x5 DUP7 ADD SLOAD PUSH1 0x6 SWAP1 SWAP7 ADD SLOAD PUSH1 0xFF SWAP6 DUP7 AND SWAP7 SWAP5 SWAP6 SWAP4 SWAP5 PUSH1 0x1 PUSH1 0x1 PUSH1 0xA0 SHL SUB SWAP1 SWAP4 AND SWAP4 SWAP2 SWAP3 SWAP2 AND DUP8 JUMP JUMPDEST PUSH1 0x40 DUP1 MLOAD SWAP8 ISZERO ISZERO DUP9 MSTORE PUSH1 0x20 DUP9 ADD SWAP7 SWAP1 SWAP7 MSTORE SWAP5 DUP7 ADD SWAP4 SWAP1 SWAP4 MSTORE PUSH1 0x1 PUSH1 0x1 PUSH1 0xA0 SHL SUB SWAP1 SWAP2 AND PUSH1 0x60 DUP6 ADD MSTORE PUSH1 0x80 DUP5 ADD MSTORE PUSH1 0xA0 DUP4 ADD MSTORE ISZERO ISZERO PUSH1 0xC0 DUP3 ADD MSTORE PUSH1 0xE0 ADD PUSH2 0x21B JUMP JUMPDEST PUSH1 0x6 SLOAD PUSH2 0x237 SWAP1 PUSH1 0x1 PUSH1 0x1 PUSH1 0xA0 SHL SUB AND DUP2 JUMP JUMPDEST PUSH1 0x3 SLOAD PUSH2 0x237 SWAP1 PUSH1 0x1 PUSH1 0x1 PUSH1 0xA0 SHL SUB AND DUP2 JUMP JUMPDEST PUSH2 0x323 PUSH2 0x31E CALLDATASIZE PUSH1 0x4 PUSH2 0x2430 JUMP JUMPDEST PUSH2 0x510 JUMP JUMPDEST STOP JUMPDEST PUSH2 0x211 PUSH2 0x333 CALLDATASIZE PUSH1 0x4 PUSH2 0x2417 JUMP JUMPDEST PUSH2 0x748 JUMP JUMPDEST PUSH2 0x211 PUSH3 0xF4240 DUP2 JUMP JUMPDEST PUSH2 0x323 PUSH2 0x350 CALLDATASIZE PUSH1 0x4 PUSH2 0x2417 JUMP JUMPDEST PUSH2 0x7F5 JUMP JUMPDEST PUSH2 0x323 PUSH2 0x363 CALLDATASIZE PUSH1 0x4 PUSH2 0x2417 JUMP JUMPDEST PUSH2 0x903 JUMP JUMPDEST PUSH2 0x211 PUSH1 0x4 SLOAD DUP2 JUMP JUMPDEST PUSH2 0x323 PUSH2 0x37F CALLDATASIZE PUSH1 0x4 PUSH2 0x249E JUMP JUMPDEST PUSH2 0xA6F JUMP JUMPDEST PUSH2 0x323 PUSH2 0x392 CALLDATASIZE PUSH1 0x4 PUSH2 0x2430 JUMP JUMPDEST PUSH2 0xAE8 JUMP JUMPDEST PUSH2 0x211 PUSH2 0x3A5 CALLDATASIZE PUSH1 0x4 PUSH2 0x2526 JUMP JUMPDEST PUSH2 0xBF8 JUMP JUMPDEST PUSH2 0x323 PUSH2 0xD44 JUMP JUMPDEST PUSH2 0x237 PUSH2 0x3C0 CALLDATASIZE PUSH1 0x4 PUSH2 0x2417 JUMP JUMPDEST PUSH1 0xA PUSH1 0x20 MSTORE PUSH1 0x0 SWAP1 DUP2 MSTORE PUSH1 0x40 SWAP1 KECCAK256 SLOAD PUSH1 0x1 PUSH1 0x1 PUSH1 0xA0 SHL SUB AND DUP2 JUMP JUMPDEST PUSH2 0x211 PUSH1 0x2 SLOAD DUP2 JUMP JUMPDEST PUSH2 0x323 PUSH2 0xE0B JUMP JUMPDEST PUSH2 0x211 PUSH32 0x0 DUP2 JUMP JUMPDEST PUSH1 0x0 SLOAD PUSH1 0x1 PUSH1 0x1 PUSH1 0xA0 SHL SUB AND PUSH2 0x237 JUMP JUMPDEST PUSH2 0x211 PUSH2 0x432 CALLDATASIZE PUSH1 0x4 PUSH2 0x2417 JUMP JUMPDEST PUSH2 0xE41 JUMP JUMPDEST PUSH2 0x469 PUSH2 0x445 CALLDATASIZE PUSH1 0x4 PUSH2 0x2550 JUMP JUMPDEST PUSH1 0x8 PUSH1 0x20 SWAP1 DUP2 MSTORE PUSH1 0x0 SWAP3 DUP4 MSTORE PUSH1 0x40 DUP1 DUP5 KECCAK256 SWAP1 SWAP2 MSTORE SWAP1 DUP3 MSTORE SWAP1 KECCAK256 DUP1 SLOAD PUSH1 0x1 SWAP1 SWAP2 ADD SLOAD DUP3 JUMP JUMPDEST PUSH1 0x40 DUP1 MLOAD SWAP3 DUP4 MSTORE PUSH1 0x20 DUP4 ADD SWAP2 SWAP1 SWAP2 MSTORE ADD PUSH2 0x21B JUMP JUMPDEST PUSH2 0x211 PUSH1 0x5 SLOAD DUP2 JUMP JUMPDEST PUSH2 0x211 PUSH5 0xE8D4A51000 DUP2 JUMP JUMPDEST PUSH2 0x323 PUSH2 0x4A1 CALLDATASIZE PUSH1 0x4 PUSH2 0x258A JUMP JUMPDEST PUSH2 0xE89 JUMP JUMPDEST PUSH2 0x323 PUSH2 0xF81 JUMP JUMPDEST PUSH2 0x211 PUSH2 0x4BC CALLDATASIZE PUSH1 0x4 PUSH2 0x25C1 JUMP JUMPDEST PUSH1 0xB PUSH1 0x20 MSTORE PUSH1 0x0 SWAP1 DUP2 MSTORE PUSH1 0x40 SWAP1 KECCAK256 SLOAD DUP2 JUMP JUMPDEST PUSH2 0x323 PUSH2 0x4DC CALLDATASIZE PUSH1 0x4 PUSH2 0x25DC JUMP JUMPDEST PUSH2 0xFC6 JUMP JUMPDEST PUSH2 0x323 PUSH2 0x4EF CALLDATASIZE PUSH1 0x4 PUSH2 0x2430 JUMP JUMPDEST PUSH2 0x130D JUMP JUMPDEST PUSH2 0x323 PUSH2 0x502 CALLDATASIZE PUSH1 0x4 PUSH2 0x25C1 JUMP JUMPDEST PUSH2 0x1803 JUMP JUMPDEST PUSH2 0x211 PUSH2 0x2710 DUP2 JUMP JUMPDEST PUSH1 0x2 PUSH1 0x1 SLOAD EQ ISZERO PUSH2 0x53C JUMPI PUSH1 0x40 MLOAD PUSH3 0x461BCD PUSH1 0xE5 SHL DUP2 MSTORE PUSH1 0x4 ADD PUSH2 0x533 SWAP1 PUSH2 0x2697 JUMP JUMPDEST PUSH1 0x40 MLOAD DUP1 SWAP2 SUB SWAP1 REVERT JUMPDEST PUSH1 0x2 PUSH1 0x1 SSTORE PUSH1 0x0 DUP2 DUP2 MSTORE PUSH1 0x9 PUSH1 0x20 SWAP1 DUP2 MSTORE PUSH1 0x40 DUP1 DUP4 KECCAK256 PUSH1 0x8 DUP4 MSTORE DUP2 DUP5 KECCAK256 CALLER DUP6 MSTORE SWAP1 SWAP3 MSTORE SWAP1 SWAP2 KECCAK256 DUP2 SLOAD PUSH1 0xFF AND ISZERO PUSH2 0x5A8 JUMPI PUSH1 0x40 MLOAD PUSH3 0x461BCD PUSH1 0xE5 SHL DUP2 MSTORE PUSH1 0x20 PUSH1 0x4 DUP3 ADD MSTORE PUSH1 0x11 PUSH1 0x24 DUP3 ADD MSTORE PUSH17 0x15DA5D1A191C985DCE88151C08141BDBDB PUSH1 0x7A SHL PUSH1 0x44 DUP3 ADD MSTORE PUSH1 0x64 ADD PUSH2 0x533 JUMP JUMPDEST DUP1 SLOAD DUP5 GT ISZERO PUSH2 0x5F4 JUMPI PUSH1 0x40 MLOAD PUSH3 0x461BCD PUSH1 0xE5 SHL DUP2 MSTORE PUSH1 0x20 PUSH1 0x4 DUP3 ADD MSTORE PUSH1 0x18 PUSH1 0x24 DUP3 ADD MSTORE PUSH24 0x15DA5D1A191C985DCE881A5B9D985B1A5908185B5BDD5B9D PUSH1 0x42 SHL PUSH1 0x44 DUP3 ADD MSTORE PUSH1 0x64 ADD PUSH2 0x533 JUMP JUMPDEST PUSH2 0x5FD DUP4 PUSH2 0x7F5 JUMP JUMPDEST PUSH1 0x0 DUP2 PUSH1 0x1 ADD SLOAD PUSH5 0xE8D4A51000 DUP5 PUSH1 0x4 ADD SLOAD DUP5 PUSH1 0x0 ADD SLOAD PUSH2 0x61E SWAP2 SWAP1 PUSH2 0x26E4 JUMP JUMPDEST PUSH2 0x628 SWAP2 SWAP1 PUSH2 0x2719 JUMP JUMPDEST PUSH2 0x632 SWAP2 SWAP1 PUSH2 0x272D JUMP JUMPDEST SWAP1 POP DUP1 ISZERO PUSH2 0x6B1 JUMPI PUSH1 0x6 SLOAD PUSH1 0x40 MLOAD PUSH4 0x40C10F19 PUSH1 0xE0 SHL DUP2 MSTORE CALLER PUSH1 0x4 DUP3 ADD MSTORE PUSH1 0x24 DUP2 ADD DUP4 SWAP1 MSTORE PUSH1 0x1 PUSH1 0x1 PUSH1 0xA0 SHL SUB SWAP1 SWAP2 AND SWAP1 PUSH4 0x40C10F19 SWAP1 PUSH1 0x44 ADD PUSH1 0x20 PUSH1 0x40 MLOAD DUP1 DUP4 SUB DUP2 PUSH1 0x0 DUP8 GAS CALL ISZERO DUP1 ISZERO PUSH2 0x68B JUMPI RETURNDATASIZE PUSH1 0x0 DUP1 RETURNDATACOPY RETURNDATASIZE PUSH1 0x0 REVERT JUMPDEST POP POP POP POP PUSH1 0x40 MLOAD RETURNDATASIZE PUSH1 0x1F NOT PUSH1 0x1F DUP3 ADD AND DUP3 ADD DUP1 PUSH1 0x40 MSTORE POP DUP2 ADD SWAP1 PUSH2 0x6AF SWAP2 SWAP1 PUSH2 0x2744 JUMP JUMPDEST POP JUMPDEST DUP5 ISZERO PUSH2 0x6DF JUMPI DUP2 SLOAD PUSH2 0x6C4 SWAP1 DUP7 SWAP1 PUSH2 0x272D JUMP JUMPDEST DUP3 SSTORE PUSH1 0x3 DUP4 ADD SLOAD PUSH2 0x6DF SWAP1 PUSH1 0x1 PUSH1 0x1 PUSH1 0xA0 SHL SUB AND CALLER DUP8 PUSH2 0x189B JUMP JUMPDEST PUSH1 0x4 DUP4 ADD SLOAD DUP3 SLOAD PUSH5 0xE8D4A51000 SWAP2 PUSH2 0x6F6 SWAP2 PUSH2 0x26E4 JUMP JUMPDEST PUSH2 0x700 SWAP2 SWAP1 PUSH2 0x2719 JUMP JUMPDEST PUSH1 0x1 DUP4 ADD SSTORE PUSH1 0x40 MLOAD DUP6 DUP2 MSTORE DUP5 SWAP1 CALLER SWAP1 PUSH32 0xF279E6A1F5E320CCA91135676D9CB6E44CA8A08C0B88342BCDB1144F6511B568 SWAP1 PUSH1 0x20 ADD JUMPDEST PUSH1 0x40 MLOAD DUP1 SWAP2 SUB SWAP1 LOG3 POP POP PUSH1 0x1 DUP1 SSTORE POP POP POP JUMP JUMPDEST PUSH1 0x0 PUSH1 0x2 PUSH1 0x1 SLOAD EQ ISZERO PUSH2 0x76D JUMPI PUSH1 0x40 MLOAD PUSH3 0x461BCD PUSH1 0xE5 SHL DUP2 MSTORE PUSH1 0x4 ADD PUSH2 0x533 SWAP1 PUSH2 0x2697 JUMP JUMPDEST PUSH1 0x2 PUSH1 0x1 SSTORE PUSH1 0x0 DUP3 DUP2 MSTORE PUSH1 0x9 PUSH1 0x20 MSTORE PUSH1 0x40 SWAP1 KECCAK256 DUP1 SLOAD PUSH1 0xFF AND DUP1 ISZERO PUSH2 0x7A7 JUMPI POP PUSH1 0x0 DUP4 DUP2 MSTORE PUSH1 0xA PUSH1 0x20 MSTORE PUSH1 0x40 SWAP1 KECCAK256 SLOAD PUSH1 0x1 PUSH1 0x1 PUSH1 0xA0 SHL SUB AND CALLER EQ JUMPDEST PUSH2 0x7E1 JUMPI PUSH1 0x40 MLOAD PUSH3 0x461BCD PUSH1 0xE5 SHL DUP2 MSTORE PUSH1 0x20 PUSH1 0x4 DUP3 ADD MSTORE PUSH1 0xB PUSH1 0x24 DUP3 ADD MSTORE PUSH11 0x139BDD081D1C081C1BDBDB PUSH1 0xAA SHL PUSH1 0x44 DUP3 ADD MSTORE PUSH1 0x64 ADD PUSH2 0x533 JUMP JUMPDEST PUSH2 0x7EA DUP4 PUSH2 0x1903 JUMP JUMPDEST PUSH1 0x1 DUP1 SSTORE SWAP4 SWAP3 POP POP POP JUMP JUMPDEST PUSH1 0x0 DUP2 DUP2 MSTORE PUSH1 0x9 PUSH1 0x20 MSTORE PUSH1 0x40 DUP1 DUP3 KECCAK256 PUSH1 0x3 DUP2 ADD SLOAD SWAP2 MLOAD PUSH4 0x70A08231 PUSH1 0xE0 SHL DUP2 MSTORE ADDRESS PUSH1 0x4 DUP3 ADD MSTORE SWAP1 SWAP3 SWAP2 PUSH1 0x1 PUSH1 0x1 PUSH1 0xA0 SHL SUB AND SWAP1 PUSH4 0x70A08231 SWAP1 PUSH1 0x24 ADD PUSH1 0x20 PUSH1 0x40 MLOAD DUP1 DUP4 SUB DUP2 DUP7 GAS STATICCALL ISZERO DUP1 ISZERO PUSH2 0x84E JUMPI RETURNDATASIZE PUSH1 0x0 DUP1 RETURNDATACOPY RETURNDATASIZE PUSH1 0x0 REVERT JUMPDEST POP POP POP POP PUSH1 0x40 MLOAD RETURNDATASIZE PUSH1 0x1F NOT PUSH1 0x1F DUP3 ADD AND DUP3 ADD DUP1 PUSH1 0x40 MSTORE POP DUP2 ADD SWAP1 PUSH2 0x872 SWAP2 SWAP1 PUSH2 0x2761 JUMP JUMPDEST SWAP1 POP DUP2 PUSH1 0x1 ADD SLOAD PUSH1 0x0 EQ DUP1 PUSH2 0x885 JUMPI POP DUP1 ISZERO JUMPDEST DUP1 PUSH2 0x894 JUMPI POP DUP2 PUSH1 0x5 ADD SLOAD TIMESTAMP GT ISZERO JUMPDEST ISZERO PUSH2 0x8A4 JUMPI POP TIMESTAMP PUSH1 0x5 SWAP1 SWAP2 ADD SSTORE POP JUMP JUMPDEST PUSH1 0x0 DUP2 PUSH1 0x2 SLOAD PUSH2 0x8B4 SWAP2 SWAP1 PUSH2 0x26E4 JUMP JUMPDEST SWAP1 POP PUSH1 0x0 DUP2 DUP5 PUSH1 0x1 ADD SLOAD PUSH2 0x8C7 DUP7 PUSH2 0x19E4 JUMP JUMPDEST PUSH2 0x8D1 SWAP2 SWAP1 PUSH2 0x26E4 JUMP JUMPDEST PUSH2 0x8DB SWAP2 SWAP1 PUSH2 0x2719 JUMP JUMPDEST TIMESTAMP PUSH1 0x5 DUP7 ADD SSTORE PUSH1 0x4 DUP6 ADD SLOAD SWAP1 SWAP2 POP PUSH2 0x8F4 SWAP1 DUP3 SWAP1 PUSH2 0x277A JUMP JUMPDEST DUP5 PUSH1 0x4 ADD DUP2 SWAP1 SSTORE POP POP POP POP POP POP JUMP JUMPDEST PUSH1 0x2 PUSH1 0x1 SLOAD EQ ISZERO PUSH2 0x926 JUMPI PUSH1 0x40 MLOAD PUSH3 0x461BCD PUSH1 0xE5 SHL DUP2 MSTORE PUSH1 0x4 ADD PUSH2 0x533 SWAP1 PUSH2 0x2697 JUMP JUMPDEST PUSH1 0x2 PUSH1 0x1 SSTORE PUSH1 0x0 DUP2 DUP2 MSTORE PUSH1 0x9 PUSH1 0x20 SWAP1 DUP2 MSTORE PUSH1 0x40 DUP1 DUP4 KECCAK256 PUSH1 0x8 DUP4 MSTORE DUP2 DUP5 KECCAK256 CALLER DUP6 MSTORE SWAP1 SWAP3 MSTORE SWAP1 SWAP2 KECCAK256 DUP2 SLOAD PUSH1 0xFF AND ISZERO PUSH2 0x992 JUMPI PUSH1 0x40 MLOAD PUSH3 0x461BCD PUSH1 0xE5 SHL DUP2 MSTORE PUSH1 0x20 PUSH1 0x4 DUP3 ADD MSTORE PUSH1 0x11 PUSH1 0x24 DUP3 ADD MSTORE PUSH17 0x1DDA5D1A191C985DCE88151C08141BDBDB PUSH1 0x7A SHL PUSH1 0x44 DUP3 ADD MSTORE PUSH1 0x64 ADD PUSH2 0x533 JUMP JUMPDEST DUP1 SLOAD PUSH2 0x9DB JUMPI PUSH1 0x40 MLOAD PUSH3 0x461BCD PUSH1 0xE5 SHL DUP2 MSTORE PUSH1 0x20 PUSH1 0x4 DUP3 ADD MSTORE PUSH1 0x18 PUSH1 0x24 DUP3 ADD MSTORE PUSH24 0x15DA5D1A191C985DCE881A5B9D985B1A5908185B5BDD5B9D PUSH1 0x42 SHL PUSH1 0x44 DUP3 ADD MSTORE PUSH1 0x64 ADD PUSH2 0x533 JUMP JUMPDEST DUP1 SLOAD PUSH1 0x40 DUP1 MLOAD DUP1 DUP3 ADD DUP3 MSTORE PUSH1 0x0 DUP1 DUP3 MSTORE PUSH1 0x20 DUP1 DUP4 ADD DUP3 DUP2 MSTORE DUP9 DUP4 MSTORE PUSH1 0x8 DUP3 MSTORE DUP5 DUP4 KECCAK256 CALLER DUP1 DUP6 MSTORE SWAP3 MSTORE SWAP4 SWAP1 SWAP2 KECCAK256 SWAP2 MLOAD DUP3 SSTORE SWAP2 MLOAD PUSH1 0x1 SWAP1 SWAP2 ADD SSTORE PUSH1 0x3 DUP5 ADD SLOAD PUSH2 0xA2E SWAP2 PUSH1 0x1 PUSH1 0x1 PUSH1 0xA0 SHL SUB SWAP1 SWAP2 AND SWAP1 DUP4 PUSH2 0x189B JUMP JUMPDEST PUSH1 0x40 MLOAD DUP2 DUP2 MSTORE DUP5 SWAP1 CALLER SWAP1 PUSH32 0xBB757047C2B5F3974FE26B7C10F732E7BCE710B0952A71082702781E62AE0595 SWAP1 PUSH1 0x20 ADD PUSH1 0x40 MLOAD DUP1 SWAP2 SUB SWAP1 LOG3 POP POP PUSH1 0x1 DUP1 SSTORE POP POP JUMP JUMPDEST PUSH1 0x0 SLOAD PUSH1 0x1 PUSH1 0x1 PUSH1 0xA0 SHL SUB AND CALLER EQ PUSH2 0xA99 JUMPI PUSH1 0x40 MLOAD PUSH3 0x461BCD PUSH1 0xE5 SHL DUP2 MSTORE PUSH1 0x4 ADD PUSH2 0x533 SWAP1 PUSH2 0x2792 JUMP JUMPDEST PUSH2 0xAA5 DUP5 DUP5 DUP5 DUP5 PUSH2 0x1C4D JUMP JUMPDEST PUSH32 0x2A46F3E26DD9E5EEEDEB561E5E212DF0D3B0F82AD30BD3B55E548212C057B163 DUP5 DUP5 DUP5 DUP5 PUSH1 0x40 MLOAD PUSH2 0xADA SWAP5 SWAP4 SWAP3 SWAP2 SWAP1 PUSH2 0x27FD JUMP JUMPDEST PUSH1 0x40 MLOAD DUP1 SWAP2 SUB SWAP1 LOG1 POP POP POP POP JUMP JUMPDEST PUSH1 0x0 SLOAD PUSH1 0x1 PUSH1 0x1 PUSH1 0xA0 SHL SUB AND CALLER EQ PUSH2 0xB12 JUMPI PUSH1 0x40 MLOAD PUSH3 0x461BCD PUSH1 0xE5 SHL DUP2 MSTORE PUSH1 0x4 ADD PUSH2 0x533 SWAP1 PUSH2 0x2792 JUMP JUMPDEST PUSH1 0x0 DUP3 DUP2 MSTORE PUSH1 0x9 PUSH1 0x20 MSTORE PUSH1 0x40 SWAP1 KECCAK256 PUSH1 0x3 DUP2 ADD SLOAD PUSH1 0x1 PUSH1 0x1 PUSH1 0xA0 SHL SUB AND PUSH2 0xB6A JUMPI PUSH1 0x40 MLOAD PUSH3 0x461BCD PUSH1 0xE5 SHL DUP2 MSTORE PUSH1 0x20 PUSH1 0x4 DUP3 ADD MSTORE PUSH1 0xD PUSH1 0x24 DUP3 ADD MSTORE PUSH13 0x19591A5D0E881A5B9D985B1A59 PUSH1 0x9A SHL PUSH1 0x44 DUP3 ADD MSTORE PUSH1 0x64 ADD PUSH2 0x533 JUMP JUMPDEST PUSH2 0x9C5 DUP3 LT PUSH2 0xBAC JUMPI PUSH1 0x40 MLOAD PUSH3 0x461BCD PUSH1 0xE5 SHL DUP2 MSTORE PUSH1 0x20 PUSH1 0x4 DUP3 ADD MSTORE PUSH1 0xE PUSH1 0x24 DUP3 ADD MSTORE PUSH14 0x656469743A206869676820666565 PUSH1 0x90 SHL PUSH1 0x44 DUP3 ADD MSTORE PUSH1 0x64 ADD PUSH2 0x533 JUMP JUMPDEST PUSH1 0x2 DUP2 ADD DUP3 SWAP1 SSTORE PUSH1 0x1 DUP2 ADD SLOAD PUSH1 0x40 DUP1 MLOAD SWAP2 DUP3 MSTORE PUSH1 0x20 DUP3 ADD DUP5 SWAP1 MSTORE DUP5 SWAP2 PUSH32 0xF5D2D72D9B25D6853AFD7D0554A113B705234B6A68BB36B7F143662994632411 SWAP2 ADD PUSH1 0x40 MLOAD DUP1 SWAP2 SUB SWAP1 LOG2 POP POP POP JUMP JUMPDEST PUSH1 0x0 DUP2 DUP2 MSTORE PUSH1 0x9 PUSH1 0x20 SWAP1 DUP2 MSTORE PUSH1 0x40 DUP1 DUP4 KECCAK256 PUSH1 0x8 DUP4 MSTORE DUP2 DUP5 KECCAK256 PUSH1 0x1 PUSH1 0x1 PUSH1 0xA0 SHL SUB DUP8 AND DUP6 MSTORE SWAP1 SWAP3 MSTORE DUP3 KECCAK256 DUP1 SLOAD PUSH2 0xC32 JUMPI PUSH1 0x0 SWAP3 POP POP POP PUSH2 0xD3E JUMP JUMPDEST PUSH1 0x4 DUP3 DUP2 ADD SLOAD PUSH1 0x3 DUP5 ADD SLOAD PUSH1 0x40 MLOAD PUSH4 0x70A08231 PUSH1 0xE0 SHL DUP2 MSTORE ADDRESS SWAP4 DUP2 ADD SWAP4 SWAP1 SWAP4 MSTORE SWAP1 SWAP2 PUSH1 0x0 SWAP2 PUSH1 0x1 PUSH1 0x1 PUSH1 0xA0 SHL SUB AND SWAP1 PUSH4 0x70A08231 SWAP1 PUSH1 0x24 ADD PUSH1 0x20 PUSH1 0x40 MLOAD DUP1 DUP4 SUB DUP2 DUP7 GAS STATICCALL ISZERO DUP1 ISZERO PUSH2 0xC87 JUMPI RETURNDATASIZE PUSH1 0x0 DUP1 RETURNDATACOPY RETURNDATASIZE PUSH1 0x0 REVERT JUMPDEST POP POP POP POP PUSH1 0x40 MLOAD RETURNDATASIZE PUSH1 0x1F NOT PUSH1 0x1F DUP3 ADD AND DUP3 ADD DUP1 PUSH1 0x40 MSTORE POP DUP2 ADD SWAP1 PUSH2 0xCAB SWAP2 SWAP1 PUSH2 0x2761 JUMP JUMPDEST SWAP1 POP DUP4 PUSH1 0x5 ADD SLOAD TIMESTAMP GT DUP1 ISZERO PUSH2 0xCC0 JUMPI POP PUSH1 0x0 DUP2 GT JUMPDEST ISZERO PUSH2 0xD1C JUMPI PUSH1 0x0 DUP5 PUSH1 0x1 ADD SLOAD PUSH2 0xCD5 DUP7 PUSH2 0x19E4 JUMP JUMPDEST PUSH2 0xCDF SWAP2 SWAP1 PUSH2 0x26E4 JUMP JUMPDEST SWAP1 POP PUSH1 0x0 PUSH5 0xE8D4A51000 DUP4 PUSH1 0x2 SLOAD PUSH2 0xCF7 SWAP2 SWAP1 PUSH2 0x26E4 JUMP JUMPDEST PUSH2 0xD01 SWAP2 SWAP1 PUSH2 0x26E4 JUMP JUMPDEST SWAP1 POP PUSH2 0xD0D DUP2 DUP4 PUSH2 0x2719 JUMP JUMPDEST PUSH2 0xD17 SWAP1 DUP6 PUSH2 0x277A JUMP JUMPDEST SWAP4 POP POP POP JUMPDEST PUSH1 0x1 DUP4 ADD SLOAD DUP4 SLOAD PUSH2 0xD2D SWAP1 DUP5 PUSH2 0x26E4 JUMP JUMPDEST PUSH2 0xD37 SWAP2 SWAP1 PUSH2 0x272D JUMP JUMPDEST SWAP5 POP POP POP POP POP JUMPDEST SWAP3 SWAP2 POP POP JUMP JUMPDEST PUSH1 0x1 JUMPDEST PUSH1 0x5 SLOAD DUP2 GT PUSH2 0xE08 JUMPI PUSH32 0xD5A0DBA7395A48387B3738F86B7958FEB691D5F5DB50749C87D270BA92DDADC DUP2 PUSH1 0x40 MLOAD PUSH2 0xDA4 SWAP2 DUP2 MSTORE PUSH1 0x40 PUSH1 0x20 DUP3 ADD DUP2 SWAP1 MSTORE PUSH1 0xB SWAP1 DUP3 ADD MSTORE PUSH11 0x706F6F6C20757064617465 PUSH1 0xA8 SHL PUSH1 0x60 DUP3 ADD MSTORE PUSH1 0x80 ADD SWAP1 JUMP JUMPDEST PUSH1 0x40 MLOAD DUP1 SWAP2 SUB SWAP1 LOG1 PUSH1 0x0 DUP2 DUP2 MSTORE PUSH1 0x9 PUSH1 0x20 MSTORE PUSH1 0x40 SWAP1 KECCAK256 PUSH1 0x1 ADD SLOAD PUSH2 0xDC7 JUMPI PUSH2 0xDF6 JUMP JUMPDEST PUSH1 0x0 DUP2 DUP2 MSTORE PUSH1 0x9 PUSH1 0x20 MSTORE PUSH1 0x40 SWAP1 KECCAK256 SLOAD PUSH1 0xFF AND PUSH2 0xDEB JUMPI PUSH2 0xDE6 DUP2 PUSH2 0x7F5 JUMP JUMPDEST PUSH2 0xDF6 JUMP JUMPDEST PUSH2 0xDF4 DUP2 PUSH2 0x1903 JUMP JUMPDEST POP JUMPDEST DUP1 PUSH2 0xE00 DUP2 PUSH2 0x2824 JUMP JUMPDEST SWAP2 POP POP PUSH2 0xD47 JUMP JUMPDEST POP JUMP JUMPDEST PUSH1 0x0 SLOAD PUSH1 0x1 PUSH1 0x1 PUSH1 0xA0 SHL SUB AND CALLER EQ PUSH2 0xE35 JUMPI PUSH1 0x40 MLOAD PUSH3 0x461BCD PUSH1 0xE5 SHL DUP2 MSTORE PUSH1 0x4 ADD PUSH2 0x533 SWAP1 PUSH2 0x2792 JUMP JUMPDEST PUSH2 0xE3F PUSH1 0x0 PUSH2 0x1E19 JUMP JUMPDEST JUMP JUMPDEST PUSH1 0x0 DUP2 DUP2 MSTORE PUSH1 0x9 PUSH1 0x20 MSTORE PUSH1 0x40 DUP2 KECCAK256 PUSH1 0x3 DUP2 ADD SLOAD PUSH1 0x1 PUSH1 0x1 PUSH1 0xA0 SHL SUB AND ISZERO DUP1 PUSH2 0xE6B JUMPI POP PUSH1 0x1 DUP2 ADD SLOAD ISZERO JUMPDEST ISZERO PUSH2 0xE79 JUMPI POP PUSH1 0x0 SWAP3 SWAP2 POP POP JUMP JUMPDEST PUSH2 0xE82 DUP2 PUSH2 0x19E4 JUMP JUMPDEST SWAP4 SWAP3 POP POP POP JUMP JUMPDEST PUSH1 0x0 SLOAD PUSH1 0x1 PUSH1 0x1 PUSH1 0xA0 SHL SUB AND CALLER EQ PUSH2 0xEB3 JUMPI PUSH1 0x40 MLOAD PUSH3 0x461BCD PUSH1 0xE5 SHL DUP2 MSTORE PUSH1 0x4 ADD PUSH2 0x533 SWAP1 PUSH2 0x2792 JUMP JUMPDEST DUP1 ISZERO PUSH2 0xED9 JUMPI PUSH1 0x7 DUP1 SLOAD PUSH1 0x1 PUSH1 0x1 PUSH1 0xA0 SHL SUB NOT AND PUSH1 0x1 PUSH1 0x1 PUSH1 0xA0 SHL SUB DUP5 AND OR SWAP1 SSTORE PUSH2 0xF3A JUMP JUMPDEST PUSH1 0x1 PUSH1 0x1 PUSH1 0xA0 SHL SUB DUP3 AND PUSH2 0xF1E JUMPI PUSH1 0x40 MLOAD PUSH3 0x461BCD PUSH1 0xE5 SHL DUP2 MSTORE PUSH1 0x20 PUSH1 0x4 DUP3 ADD MSTORE PUSH1 0xC PUSH1 0x24 DUP3 ADD MSTORE PUSH12 0x39B2BA103932B1B2B4BB32B9 PUSH1 0xA1 SHL PUSH1 0x44 DUP3 ADD MSTORE PUSH1 0x64 ADD PUSH2 0x533 JUMP JUMPDEST PUSH1 0x3 DUP1 SLOAD PUSH1 0x1 PUSH1 0x1 PUSH1 0xA0 SHL SUB NOT AND PUSH1 0x1 PUSH1 0x1 PUSH1 0xA0 SHL SUB DUP5 AND OR SWAP1 SSTORE JUMPDEST PUSH1 0x40 DUP1 MLOAD PUSH1 0x1 PUSH1 0x1 PUSH1 0xA0 SHL SUB DUP5 AND DUP2 MSTORE DUP3 ISZERO ISZERO PUSH1 0x20 DUP3 ADD MSTORE PUSH32 0xCD51F9F86222E46143649F996C1603DE7585E14C114955985CCC53117EF39F26 SWAP2 ADD PUSH1 0x40 MLOAD DUP1 SWAP2 SUB SWAP1 LOG1 POP POP JUMP JUMPDEST PUSH1 0x0 SLOAD PUSH1 0x1 PUSH1 0x1 PUSH1 0xA0 SHL SUB AND CALLER EQ PUSH2 0xFAB JUMPI PUSH1 0x40 MLOAD PUSH3 0x461BCD PUSH1 0xE5 SHL DUP2 MSTORE PUSH1 0x4 ADD PUSH2 0x533 SWAP1 PUSH2 0x2792 JUMP JUMPDEST PUSH2 0xFB3 PUSH2 0xD44 JUMP JUMPDEST PUSH1 0x4 SLOAD PUSH2 0xFC1 SWAP1 PUSH1 0x1 PUSH2 0x277A JUMP JUMPDEST PUSH1 0x4 SSTORE JUMP JUMPDEST PUSH1 0x0 SLOAD PUSH1 0x1 PUSH1 0x1 PUSH1 0xA0 SHL SUB AND CALLER EQ PUSH2 0xFF0 JUMPI PUSH1 0x40 MLOAD PUSH3 0x461BCD PUSH1 0xE5 SHL DUP2 MSTORE PUSH1 0x4 ADD PUSH2 0x533 SWAP1 PUSH2 0x2792 JUMP JUMPDEST DUP3 DUP2 EQ PUSH2 0x1032 JUMPI PUSH1 0x40 MLOAD PUSH3 0x461BCD PUSH1 0xE5 SHL DUP2 MSTORE PUSH1 0x20 PUSH1 0x4 DUP3 ADD MSTORE PUSH1 0x10 PUSH1 0x24 DUP3 ADD MSTORE PUSH16 0x6164643A2077726F6E67206564697473 PUSH1 0x80 SHL PUSH1 0x44 DUP3 ADD MSTORE PUSH1 0x64 ADD PUSH2 0x533 JUMP JUMPDEST PUSH2 0x1389 DUP7 LT PUSH2 0x1076 JUMPI PUSH1 0x40 MLOAD PUSH3 0x461BCD PUSH1 0xE5 SHL DUP2 MSTORE PUSH1 0x20 PUSH1 0x4 DUP3 ADD MSTORE PUSH1 0x10 PUSH1 0x24 DUP3 ADD MSTORE PUSH16 0x6164643A20696E76616C696420666565 PUSH1 0x80 SHL PUSH1 0x44 DUP3 ADD MSTORE PUSH1 0x64 ADD PUSH2 0x533 JUMP JUMPDEST PUSH1 0x1 PUSH1 0x1 PUSH1 0xA0 SHL SUB DUP10 AND PUSH1 0x0 SWAP1 DUP2 MSTORE PUSH1 0xB PUSH1 0x20 MSTORE PUSH1 0x40 SWAP1 KECCAK256 SLOAD ISZERO PUSH2 0x10D2 JUMPI PUSH1 0x40 MLOAD PUSH3 0x461BCD PUSH1 0xE5 SHL DUP2 MSTORE PUSH1 0x20 PUSH1 0x4 DUP3 ADD MSTORE PUSH1 0x13 PUSH1 0x24 DUP3 ADD MSTORE PUSH19 0x1859190E881D1BDAD95B881C995C19585D1959 PUSH1 0x6A SHL PUSH1 0x44 DUP3 ADD MSTORE PUSH1 0x64 ADD PUSH2 0x533 JUMP JUMPDEST PUSH2 0x10DE DUP5 DUP5 DUP5 DUP5 PUSH2 0x1C4D JUMP JUMPDEST PUSH3 0xF4240 DUP9 PUSH1 0x2 SLOAD PUSH2 0x10F0 SWAP2 SWAP1 PUSH2 0x277A JUMP JUMPDEST GT ISZERO PUSH2 0x1136 JUMPI PUSH1 0x40 MLOAD PUSH3 0x461BCD PUSH1 0xE5 SHL DUP2 MSTORE PUSH1 0x20 PUSH1 0x4 DUP3 ADD MSTORE PUSH1 0x15 PUSH1 0x24 DUP3 ADD MSTORE PUSH21 0x30B2321D103BB937B7339036BAB63A34B83634B2B9 PUSH1 0x59 SHL PUSH1 0x44 DUP3 ADD MSTORE PUSH1 0x64 ADD PUSH2 0x533 JUMP JUMPDEST DUP8 PUSH1 0x2 SLOAD PUSH2 0x1144 SWAP2 SWAP1 PUSH2 0x277A JUMP JUMPDEST PUSH1 0x2 SSTORE PUSH1 0x5 DUP1 SLOAD SWAP1 PUSH1 0x0 PUSH2 0x1157 DUP4 PUSH2 0x2824 JUMP JUMPDEST SWAP2 SWAP1 POP SSTORE POP PUSH1 0x40 MLOAD DUP1 PUSH1 0xE0 ADD PUSH1 0x40 MSTORE DUP1 DUP9 ISZERO ISZERO DUP2 MSTORE PUSH1 0x20 ADD DUP10 DUP2 MSTORE PUSH1 0x20 ADD DUP8 DUP2 MSTORE PUSH1 0x20 ADD DUP11 PUSH1 0x1 PUSH1 0x1 PUSH1 0xA0 SHL SUB AND DUP2 MSTORE PUSH1 0x20 ADD PUSH1 0x0 DUP2 MSTORE PUSH1 0x20 ADD TIMESTAMP DUP2 MSTORE PUSH1 0x20 ADD DUP7 ISZERO ISZERO DUP2 MSTORE POP PUSH1 0x9 PUSH1 0x0 PUSH1 0x5 SLOAD DUP2 MSTORE PUSH1 0x20 ADD SWAP1 DUP2 MSTORE PUSH1 0x20 ADD PUSH1 0x0 KECCAK256 PUSH1 0x0 DUP3 ADD MLOAD DUP2 PUSH1 0x0 ADD PUSH1 0x0 PUSH2 0x100 EXP DUP2 SLOAD DUP2 PUSH1 0xFF MUL NOT AND SWAP1 DUP4 ISZERO ISZERO MUL OR SWAP1 SSTORE POP PUSH1 0x20 DUP3 ADD MLOAD DUP2 PUSH1 0x1 ADD SSTORE PUSH1 0x40 DUP3 ADD MLOAD DUP2 PUSH1 0x2 ADD SSTORE PUSH1 0x60 DUP3 ADD MLOAD DUP2 PUSH1 0x3 ADD PUSH1 0x0 PUSH2 0x100 EXP DUP2 SLOAD DUP2 PUSH1 0x1 PUSH1 0x1 PUSH1 0xA0 SHL SUB MUL NOT AND SWAP1 DUP4 PUSH1 0x1 PUSH1 0x1 PUSH1 0xA0 SHL SUB AND MUL OR SWAP1 SSTORE POP PUSH1 0x80 DUP3 ADD MLOAD DUP2 PUSH1 0x4 ADD SSTORE PUSH1 0xA0 DUP3 ADD MLOAD DUP2 PUSH1 0x5 ADD SSTORE PUSH1 0xC0 DUP3 ADD MLOAD DUP2 PUSH1 0x6 ADD PUSH1 0x0 PUSH2 0x100 EXP DUP2 SLOAD DUP2 PUSH1 0xFF MUL NOT AND SWAP1 DUP4 ISZERO ISZERO MUL OR SWAP1 SSTORE POP SWAP1 POP POP PUSH1 0x5 SLOAD PUSH1 0xB PUSH1 0x0 DUP12 PUSH1 0x1 PUSH1 0x1 PUSH1 0xA0 SHL SUB AND PUSH1 0x1 PUSH1 0x1 PUSH1 0xA0 SHL SUB AND DUP2 MSTORE PUSH1 0x20 ADD SWAP1 DUP2 MSTORE PUSH1 0x20 ADD PUSH1 0x0 KECCAK256 DUP2 SWAP1 SSTORE POP DUP7 ISZERO PUSH2 0x12A7 JUMPI PUSH1 0x5 SLOAD PUSH1 0x0 SWAP1 DUP2 MSTORE PUSH1 0xA PUSH1 0x20 MSTORE PUSH1 0x40 SWAP1 KECCAK256 DUP1 SLOAD PUSH1 0x1 PUSH1 0x1 PUSH1 0xA0 SHL SUB NOT AND PUSH1 0x1 PUSH1 0x1 PUSH1 0xA0 SHL SUB DUP12 AND OR SWAP1 SSTORE JUMPDEST PUSH1 0x5 SLOAD PUSH1 0x40 DUP1 MLOAD PUSH1 0x1 PUSH1 0x1 PUSH1 0xA0 SHL SUB DUP13 AND DUP2 MSTORE PUSH1 0x20 DUP2 ADD DUP12 SWAP1 MSTORE DUP1 DUP3 ADD DUP10 SWAP1 MSTORE DUP10 ISZERO ISZERO PUSH1 0x60 DUP3 ADD MSTORE PUSH1 0x80 DUP2 ADD SWAP3 SWAP1 SWAP3 MSTORE MLOAD PUSH32 0xD5D9095DA54A196FF732904E2F9E23DCB985825A8FD9A6B80F9B8D69FCA774A2 SWAP2 DUP2 SWAP1 SUB PUSH1 0xA0 ADD SWAP1 LOG1 POP POP POP POP POP POP POP POP POP JUMP JUMPDEST PUSH1 0x2 PUSH1 0x1 SLOAD EQ ISZERO PUSH2 0x1330 JUMPI PUSH1 0x40 MLOAD PUSH3 0x461BCD PUSH1 0xE5 SHL DUP2 MSTORE PUSH1 0x4 ADD PUSH2 0x533 SWAP1 PUSH2 0x2697 JUMP JUMPDEST PUSH1 0x2 PUSH1 0x1 SWAP1 DUP2 SSTORE PUSH1 0x0 DUP3 DUP2 MSTORE PUSH1 0x9 PUSH1 0x20 SWAP1 DUP2 MSTORE PUSH1 0x40 DUP1 DUP4 KECCAK256 PUSH1 0x8 DUP4 MSTORE DUP2 DUP5 KECCAK256 CALLER DUP6 MSTORE SWAP1 SWAP3 MSTORE SWAP1 SWAP2 KECCAK256 SWAP2 DUP2 ADD SLOAD SWAP1 SWAP2 SWAP1 PUSH2 0x13A4 JUMPI PUSH1 0x40 MLOAD PUSH3 0x461BCD PUSH1 0xE5 SHL DUP2 MSTORE PUSH1 0x20 PUSH1 0x4 DUP3 ADD MSTORE PUSH1 0x16 PUSH1 0x24 DUP3 ADD MSTORE PUSH22 0x11195C1BDCDA5D0E88141BDBDB08191A5CD8589B1959 PUSH1 0x52 SHL PUSH1 0x44 DUP3 ADD MSTORE PUSH1 0x64 ADD PUSH2 0x533 JUMP JUMPDEST DUP2 SLOAD PUSH1 0xFF AND ISZERO PUSH2 0x13E9 JUMPI PUSH1 0x40 MLOAD PUSH3 0x461BCD PUSH1 0xE5 SHL DUP2 MSTORE PUSH1 0x20 PUSH1 0x4 DUP3 ADD MSTORE PUSH1 0x10 PUSH1 0x24 DUP3 ADD MSTORE PUSH16 0x11195C1BDCDA5D0E88151C08141BDBDB PUSH1 0x82 SHL PUSH1 0x44 DUP3 ADD MSTORE PUSH1 0x64 ADD PUSH2 0x533 JUMP JUMPDEST PUSH2 0x13F2 DUP4 PUSH2 0x7F5 JUMP JUMPDEST DUP1 SLOAD ISZERO PUSH2 0x14AF JUMPI PUSH1 0x0 DUP2 PUSH1 0x1 ADD SLOAD PUSH5 0xE8D4A51000 DUP5 PUSH1 0x4 ADD SLOAD DUP5 PUSH1 0x0 ADD SLOAD PUSH2 0x141A SWAP2 SWAP1 PUSH2 0x26E4 JUMP JUMPDEST PUSH2 0x1424 SWAP2 SWAP1 PUSH2 0x2719 JUMP JUMPDEST PUSH2 0x142E SWAP2 SWAP1 PUSH2 0x272D JUMP JUMPDEST SWAP1 POP DUP1 ISZERO PUSH2 0x14AD JUMPI PUSH1 0x6 SLOAD PUSH1 0x40 MLOAD PUSH4 0x40C10F19 PUSH1 0xE0 SHL DUP2 MSTORE CALLER PUSH1 0x4 DUP3 ADD MSTORE PUSH1 0x24 DUP2 ADD DUP4 SWAP1 MSTORE PUSH1 0x1 PUSH1 0x1 PUSH1 0xA0 SHL SUB SWAP1 SWAP2 AND SWAP1 PUSH4 0x40C10F19 SWAP1 PUSH1 0x44 ADD PUSH1 0x20 PUSH1 0x40 MLOAD DUP1 DUP4 SUB DUP2 PUSH1 0x0 DUP8 GAS CALL ISZERO DUP1 ISZERO PUSH2 0x1487 JUMPI RETURNDATASIZE PUSH1 0x0 DUP1 RETURNDATACOPY RETURNDATASIZE PUSH1 0x0 REVERT JUMPDEST POP POP POP POP PUSH1 0x40 MLOAD RETURNDATASIZE PUSH1 0x1F NOT PUSH1 0x1F DUP3 ADD AND DUP3 ADD DUP1 PUSH1 0x40 MSTORE POP DUP2 ADD SWAP1 PUSH2 0x14AB SWAP2 SWAP1 PUSH2 0x2744 JUMP JUMPDEST POP JUMPDEST POP JUMPDEST DUP4 DUP1 ISZERO PUSH2 0x17A9 JUMPI PUSH1 0x2 DUP4 ADD SLOAD ISZERO PUSH2 0x1780 JUMPI PUSH2 0x2710 DUP4 PUSH1 0x2 ADD SLOAD DUP3 PUSH2 0x14D3 SWAP2 SWAP1 PUSH2 0x26E4 JUMP JUMPDEST PUSH2 0x14DD SWAP2 SWAP1 PUSH2 0x2719 JUMP JUMPDEST PUSH1 0x7 SLOAD SWAP1 SWAP2 POP PUSH1 0x1 PUSH1 0x1 PUSH1 0xA0 SHL SUB AND PUSH2 0x1516 JUMPI PUSH1 0x3 DUP1 SLOAD SWAP1 DUP5 ADD SLOAD PUSH2 0x1511 SWAP2 PUSH1 0x1 PUSH1 0x1 PUSH1 0xA0 SHL SUB SWAP2 DUP3 AND SWAP2 CALLER SWAP2 AND DUP5 PUSH2 0x1E69 JUMP JUMPDEST PUSH2 0x1773 JUMP JUMPDEST PUSH1 0x3 DUP4 ADD SLOAD PUSH1 0x7 SLOAD PUSH1 0x40 MLOAD PUSH4 0x95EA7B3 PUSH1 0xE0 SHL DUP2 MSTORE PUSH1 0x1 PUSH1 0x1 PUSH1 0xA0 SHL SUB SWAP2 DUP3 AND PUSH1 0x4 DUP3 ADD MSTORE PUSH1 0x24 DUP2 ADD DUP5 SWAP1 MSTORE SWAP2 AND SWAP1 PUSH4 0x95EA7B3 SWAP1 PUSH1 0x44 ADD PUSH1 0x20 PUSH1 0x40 MLOAD DUP1 DUP4 SUB DUP2 PUSH1 0x0 DUP8 GAS CALL ISZERO DUP1 ISZERO PUSH2 0x156D JUMPI RETURNDATASIZE PUSH1 0x0 DUP1 RETURNDATACOPY RETURNDATASIZE PUSH1 0x0 REVERT JUMPDEST POP POP POP POP PUSH1 0x40 MLOAD RETURNDATASIZE PUSH1 0x1F NOT PUSH1 0x1F DUP3 ADD AND DUP3 ADD DUP1 PUSH1 0x40 MSTORE POP DUP2 ADD SWAP1 PUSH2 0x1591 SWAP2 SWAP1 PUSH2 0x2744 JUMP JUMPDEST POP PUSH1 0x7 SLOAD PUSH1 0x40 MLOAD PUSH4 0x9E690EB PUSH1 0xE3 SHL DUP2 MSTORE PUSH1 0x4 DUP2 ADD DUP7 SWAP1 MSTORE PUSH1 0x24 DUP2 ADD DUP4 SWAP1 MSTORE PUSH1 0x1 PUSH1 0x1 PUSH1 0xA0 SHL SUB SWAP1 SWAP2 AND SWAP1 PUSH4 0x4F348758 SWAP1 PUSH1 0x44 ADD PUSH1 0x0 PUSH1 0x40 MLOAD DUP1 DUP4 SUB DUP2 PUSH1 0x0 DUP8 DUP1 EXTCODESIZE ISZERO DUP1 ISZERO PUSH2 0x15DF JUMPI PUSH1 0x0 DUP1 REVERT JUMPDEST POP GAS CALL SWAP3 POP POP POP DUP1 ISZERO PUSH2 0x15F0 JUMPI POP PUSH1 0x1 JUMPDEST PUSH2 0x1704 JUMPI PUSH32 0xD5A0DBA7395A48387B3738F86B7958FEB691D5F5DB50749C87D270BA92DDADC DUP2 PUSH1 0x40 MLOAD PUSH2 0x165A SWAP2 DUP2 MSTORE PUSH1 0x40 PUSH1 0x20 DUP3 ADD DUP2 SWAP1 MSTORE PUSH1 0x17 SWAP1 DUP3 ADD MSTORE PUSH32 0x4661696C65642046656520446973747269627574696F6E000000000000000000 PUSH1 0x60 DUP3 ADD MSTORE PUSH1 0x80 ADD SWAP1 JUMP JUMPDEST PUSH1 0x40 MLOAD DUP1 SWAP2 SUB SWAP1 LOG1 PUSH1 0x3 DUP1 SLOAD SWAP1 DUP5 ADD SLOAD PUSH2 0x1683 SWAP2 PUSH1 0x1 PUSH1 0x1 PUSH1 0xA0 SHL SUB SWAP2 DUP3 AND SWAP2 CALLER SWAP2 AND DUP5 PUSH2 0x1E69 JUMP JUMPDEST PUSH1 0x3 DUP4 ADD SLOAD PUSH1 0x7 SLOAD PUSH1 0x40 MLOAD PUSH4 0x95EA7B3 PUSH1 0xE0 SHL DUP2 MSTORE PUSH1 0x1 PUSH1 0x1 PUSH1 0xA0 SHL SUB SWAP2 DUP3 AND PUSH1 0x4 DUP3 ADD MSTORE PUSH1 0x0 PUSH1 0x24 DUP3 ADD MSTORE SWAP2 AND SWAP1 PUSH4 0x95EA7B3 SWAP1 PUSH1 0x44 ADD PUSH1 0x20 PUSH1 0x40 MLOAD DUP1 DUP4 SUB DUP2 PUSH1 0x0 DUP8 GAS CALL ISZERO DUP1 ISZERO PUSH2 0x16DA JUMPI RETURNDATASIZE PUSH1 0x0 DUP1 RETURNDATACOPY RETURNDATASIZE PUSH1 0x0 REVERT JUMPDEST POP POP POP POP PUSH1 0x40 MLOAD RETURNDATASIZE PUSH1 0x1F NOT PUSH1 0x1F DUP3 ADD AND DUP3 ADD DUP1 PUSH1 0x40 MSTORE POP DUP2 ADD SWAP1 PUSH2 0x16FE SWAP2 SWAP1 PUSH2 0x2744 JUMP JUMPDEST POP PUSH2 0x1773 JUMP JUMPDEST PUSH32 0xD5A0DBA7395A48387B3738F86B7958FEB691D5F5DB50749C87D270BA92DDADC DUP2 PUSH1 0x40 MLOAD PUSH2 0x176A SWAP2 DUP2 MSTORE PUSH1 0x40 PUSH1 0x20 DUP3 ADD DUP2 SWAP1 MSTORE PUSH1 0x18 SWAP1 DUP3 ADD MSTORE PUSH32 0x537563636573732046656520446973747269627574696F6E0000000000000000 PUSH1 0x60 DUP3 ADD MSTORE PUSH1 0x80 ADD SWAP1 JUMP JUMPDEST PUSH1 0x40 MLOAD DUP1 SWAP2 SUB SWAP1 LOG1 JUMPDEST PUSH2 0x177D DUP2 DUP7 PUSH2 0x272D JUMP JUMPDEST SWAP1 POP JUMPDEST DUP2 SLOAD PUSH2 0x178D SWAP1 DUP3 SWAP1 PUSH2 0x277A JUMP JUMPDEST DUP3 SSTORE PUSH1 0x3 DUP4 ADD SLOAD PUSH2 0x17A9 SWAP1 PUSH1 0x1 PUSH1 0x1 PUSH1 0xA0 SHL SUB AND CALLER ADDRESS DUP5 PUSH2 0x1E69 JUMP JUMPDEST PUSH1 0x4 DUP4 ADD SLOAD DUP3 SLOAD PUSH5 0xE8D4A51000 SWAP2 PUSH2 0x17C0 SWAP2 PUSH2 0x26E4 JUMP JUMPDEST PUSH2 0x17CA SWAP2 SWAP1 PUSH2 0x2719 JUMP JUMPDEST PUSH1 0x1 DUP4 ADD SSTORE PUSH1 0x40 MLOAD DUP6 DUP2 MSTORE DUP5 SWAP1 CALLER SWAP1 PUSH32 0x90890809C654F11D6E72A28FA60149770A0D11EC6C92319D6CEB2BB0A4EA1A15 SWAP1 PUSH1 0x20 ADD PUSH2 0x735 JUMP JUMPDEST PUSH1 0x0 SLOAD PUSH1 0x1 PUSH1 0x1 PUSH1 0xA0 SHL SUB AND CALLER EQ PUSH2 0x182D JUMPI PUSH1 0x40 MLOAD PUSH3 0x461BCD PUSH1 0xE5 SHL DUP2 MSTORE PUSH1 0x4 ADD PUSH2 0x533 SWAP1 PUSH2 0x2792 JUMP JUMPDEST PUSH1 0x1 PUSH1 0x1 PUSH1 0xA0 SHL SUB DUP2 AND PUSH2 0x1892 JUMPI PUSH1 0x40 MLOAD PUSH3 0x461BCD PUSH1 0xE5 SHL DUP2 MSTORE PUSH1 0x20 PUSH1 0x4 DUP3 ADD MSTORE PUSH1 0x26 PUSH1 0x24 DUP3 ADD MSTORE PUSH32 0x4F776E61626C653A206E6577206F776E657220697320746865207A65726F2061 PUSH1 0x44 DUP3 ADD MSTORE PUSH6 0x646472657373 PUSH1 0xD0 SHL PUSH1 0x64 DUP3 ADD MSTORE PUSH1 0x84 ADD PUSH2 0x533 JUMP JUMPDEST PUSH2 0xE08 DUP2 PUSH2 0x1E19 JUMP JUMPDEST PUSH1 0x40 MLOAD PUSH1 0x1 PUSH1 0x1 PUSH1 0xA0 SHL SUB DUP4 AND PUSH1 0x24 DUP3 ADD MSTORE PUSH1 0x44 DUP2 ADD DUP3 SWAP1 MSTORE PUSH2 0x18FE SWAP1 DUP5 SWAP1 PUSH4 0xA9059CBB PUSH1 0xE0 SHL SWAP1 PUSH1 0x64 ADD JUMPDEST PUSH1 0x40 DUP1 MLOAD PUSH1 0x1F NOT DUP2 DUP5 SUB ADD DUP2 MSTORE SWAP2 SWAP1 MSTORE PUSH1 0x20 DUP2 ADD DUP1 MLOAD PUSH1 0x1 PUSH1 0x1 PUSH1 0xE0 SHL SUB AND PUSH1 0x1 PUSH1 0x1 PUSH1 0xE0 SHL SUB NOT SWAP1 SWAP4 AND SWAP3 SWAP1 SWAP3 OR SWAP1 SWAP2 MSTORE PUSH2 0x1EA1 JUMP JUMPDEST POP POP POP JUMP JUMPDEST PUSH1 0x0 DUP2 DUP2 MSTORE PUSH1 0x9 PUSH1 0x20 MSTORE PUSH1 0x40 DUP2 KECCAK256 PUSH1 0x5 DUP2 ADD SLOAD TIMESTAMP GT PUSH2 0x1925 JUMPI POP PUSH1 0x0 SWAP3 SWAP2 POP POP JUMP JUMPDEST PUSH5 0xE8D4A51000 PUSH1 0x2 SLOAD PUSH2 0x1938 SWAP2 SWAP1 PUSH2 0x26E4 JUMP JUMPDEST DUP2 PUSH1 0x1 ADD SLOAD PUSH2 0x1946 DUP4 PUSH2 0x19E4 JUMP JUMPDEST PUSH2 0x1950 SWAP2 SWAP1 PUSH2 0x26E4 JUMP JUMPDEST PUSH2 0x195A SWAP2 SWAP1 PUSH2 0x2719 JUMP JUMPDEST TIMESTAMP PUSH1 0x5 DUP4 ADD SSTORE PUSH1 0x6 SLOAD PUSH1 0x3 DUP4 ADD SLOAD PUSH1 0x40 MLOAD PUSH4 0x40C10F19 PUSH1 0xE0 SHL DUP2 MSTORE PUSH1 0x1 PUSH1 0x1 PUSH1 0xA0 SHL SUB SWAP2 DUP3 AND PUSH1 0x4 DUP3 ADD MSTORE PUSH1 0x24 DUP2 ADD DUP5 SWAP1 MSTORE SWAP3 SWAP5 POP AND SWAP1 PUSH4 0x40C10F19 SWAP1 PUSH1 0x44 ADD PUSH1 0x20 PUSH1 0x40 MLOAD DUP1 DUP4 SUB DUP2 PUSH1 0x0 DUP8 GAS CALL ISZERO DUP1 ISZERO PUSH2 0x19B9 JUMPI RETURNDATASIZE PUSH1 0x0 DUP1 RETURNDATACOPY RETURNDATASIZE PUSH1 0x0 REVERT JUMPDEST POP POP POP POP PUSH1 0x40 MLOAD RETURNDATASIZE PUSH1 0x1F NOT PUSH1 0x1F DUP3 ADD AND DUP3 ADD DUP1 PUSH1 0x40 MSTORE POP DUP2 ADD SWAP1 PUSH2 0x19DD SWAP2 SWAP1 PUSH2 0x2744 JUMP JUMPDEST POP POP SWAP2 SWAP1 POP JUMP JUMPDEST PUSH1 0x0 DUP1 PUSH2 0x19F0 TIMESTAMP PUSH2 0x1F73 JUMP JUMPDEST POP POP SWAP1 POP PUSH1 0x0 PUSH2 0x1A03 DUP5 PUSH1 0x5 ADD SLOAD PUSH2 0x1F73 JUMP JUMPDEST POP POP SWAP1 POP PUSH1 0x0 DUP1 DUP3 DUP5 PUSH2 0x1A16 SWAP2 SWAP1 PUSH2 0x272D JUMP JUMPDEST SWAP1 POP PUSH1 0x0 PUSH2 0x7E6 DUP5 GT PUSH2 0x1A49 JUMPI PUSH32 0x0 PUSH2 0x1A6B JUMP JUMPDEST PUSH32 0x0 JUMPDEST SWAP1 POP PUSH2 0x7EA DUP5 GT ISZERO PUSH2 0x1A84 JUMPI POP PUSH1 0x0 SWAP7 SWAP6 POP POP POP POP POP POP JUMP JUMPDEST PUSH2 0x7E7 DUP5 GT ISZERO PUSH2 0x1AAA JUMPI PUSH2 0x1A9A PUSH2 0x7E7 DUP6 PUSH2 0x272D JUMP JUMPDEST PUSH2 0x1AA5 SWAP1 PUSH1 0x2 PUSH2 0x2923 JUMP JUMPDEST PUSH2 0x1AAD JUMP JUMPDEST PUSH1 0x1 JUMPDEST SWAP3 POP DUP2 ISZERO PUSH2 0x1BFE JUMPI PUSH1 0x0 DUP8 PUSH1 0x5 ADD SLOAD PUSH2 0x1ACD DUP8 PUSH1 0x1 DUP1 PUSH1 0x0 DUP1 PUSH1 0x0 PUSH2 0x1F99 JUMP JUMPDEST PUSH2 0x1AD7 SWAP2 SWAP1 PUSH2 0x272D JUMP JUMPDEST SWAP1 POP DUP4 PUSH1 0x4 SLOAD PUSH2 0x1AE7 SWAP2 SWAP1 PUSH2 0x26E4 JUMP JUMPDEST PUSH5 0xE8D4A51000 PUSH2 0x1AF7 DUP4 DUP6 PUSH2 0x26E4 JUMP JUMPDEST PUSH2 0x1B01 SWAP2 SWAP1 PUSH2 0x26E4 JUMP JUMPDEST PUSH2 0x1B0B SWAP2 SWAP1 PUSH2 0x2719 JUMP JUMPDEST PUSH2 0x1B15 SWAP1 DUP9 PUSH2 0x277A JUMP JUMPDEST SWAP7 POP PUSH32 0x0 DUP3 EQ PUSH2 0x1B62 JUMPI PUSH32 0x0 SWAP2 POP JUMPDEST DUP6 PUSH2 0x7E7 EQ PUSH2 0x1B87 JUMPI PUSH2 0x1B77 PUSH2 0x7E7 DUP8 PUSH2 0x272D JUMP JUMPDEST PUSH2 0x1B82 SWAP1 PUSH1 0x2 PUSH2 0x2923 JUMP JUMPDEST PUSH2 0x1B8A JUMP JUMPDEST PUSH1 0x1 JUMPDEST SWAP4 POP PUSH2 0x7EA DUP7 GT PUSH2 0x1BB5 JUMPI PUSH2 0x1BA6 DUP7 PUSH1 0x1 DUP1 PUSH1 0x0 DUP1 PUSH1 0x0 PUSH2 0x1F99 JUMP JUMPDEST PUSH2 0x1BB0 SWAP1 TIMESTAMP PUSH2 0x272D JUMP JUMPDEST PUSH2 0x1BB8 JUMP JUMPDEST PUSH1 0x0 JUMPDEST SWAP1 POP DUP4 PUSH1 0x4 SLOAD PUSH2 0x1BC8 SWAP2 SWAP1 PUSH2 0x26E4 JUMP JUMPDEST PUSH5 0xE8D4A51000 PUSH2 0x1BD8 DUP4 DUP6 PUSH2 0x26E4 JUMP JUMPDEST PUSH2 0x1BE2 SWAP2 SWAP1 PUSH2 0x26E4 JUMP JUMPDEST PUSH2 0x1BEC SWAP2 SWAP1 PUSH2 0x2719 JUMP JUMPDEST PUSH2 0x1BF6 SWAP1 DUP9 PUSH2 0x277A JUMP JUMPDEST SWAP7 POP POP PUSH2 0x1C43 JUMP JUMPDEST DUP3 PUSH1 0x4 SLOAD PUSH2 0x1C0C SWAP2 SWAP1 PUSH2 0x26E4 JUMP JUMPDEST PUSH5 0xE8D4A51000 DUP9 PUSH1 0x5 ADD SLOAD TIMESTAMP PUSH2 0x1C22 SWAP2 SWAP1 PUSH2 0x272D JUMP JUMPDEST PUSH2 0x1C2C SWAP1 DUP5 PUSH2 0x26E4 JUMP JUMPDEST PUSH2 0x1C36 SWAP2 SWAP1 PUSH2 0x26E4 JUMP JUMPDEST PUSH2 0x1C40 SWAP2 SWAP1 PUSH2 0x2719 JUMP JUMPDEST SWAP6 POP JUMPDEST POP POP POP POP POP SWAP2 SWAP1 POP JUMP JUMPDEST DUP3 PUSH2 0x1C57 JUMPI PUSH2 0x1E13 JUMP JUMPDEST PUSH1 0x2 SLOAD PUSH1 0x0 JUMPDEST DUP5 DUP2 LT ISZERO PUSH2 0x1DC7 JUMPI PUSH1 0x0 PUSH1 0x9 DUP2 DUP9 DUP9 DUP6 DUP2 DUP2 LT PUSH2 0x1C7C JUMPI PUSH2 0x1C7C PUSH2 0x292F JUMP JUMPDEST PUSH1 0x20 SWAP1 DUP2 MUL SWAP3 SWAP1 SWAP3 ADD CALLDATALOAD DUP4 MSTORE POP DUP2 ADD SWAP2 SWAP1 SWAP2 MSTORE PUSH1 0x40 ADD PUSH1 0x0 KECCAK256 PUSH1 0x3 ADD SLOAD PUSH1 0x1 PUSH1 0x1 PUSH1 0xA0 SHL SUB AND EQ ISZERO PUSH2 0x1CE9 JUMPI PUSH1 0x40 MLOAD PUSH3 0x461BCD PUSH1 0xE5 SHL DUP2 MSTORE PUSH1 0x20 PUSH1 0x4 DUP3 ADD MSTORE PUSH1 0x16 PUSH1 0x24 DUP3 ADD MSTORE PUSH22 0x1B5D5B1D0E881B9BDB995E1A5CDD195B9D081C1BDBDB PUSH1 0x52 SHL PUSH1 0x44 DUP3 ADD MSTORE PUSH1 0x64 ADD PUSH2 0x533 JUMP JUMPDEST PUSH2 0x1D0A DUP7 DUP7 DUP4 DUP2 DUP2 LT PUSH2 0x1CFE JUMPI PUSH2 0x1CFE PUSH2 0x292F JUMP JUMPDEST SWAP1 POP PUSH1 0x20 MUL ADD CALLDATALOAD PUSH2 0x7F5 JUMP JUMPDEST DUP4 DUP4 DUP3 DUP2 DUP2 LT PUSH2 0x1D1C JUMPI PUSH2 0x1D1C PUSH2 0x292F JUMP JUMPDEST SWAP1 POP PUSH1 0x20 MUL ADD CALLDATALOAD PUSH1 0x9 PUSH1 0x0 DUP9 DUP9 DUP6 DUP2 DUP2 LT PUSH2 0x1D39 JUMPI PUSH2 0x1D39 PUSH2 0x292F JUMP JUMPDEST SWAP1 POP PUSH1 0x20 MUL ADD CALLDATALOAD DUP2 MSTORE PUSH1 0x20 ADD SWAP1 DUP2 MSTORE PUSH1 0x20 ADD PUSH1 0x0 KECCAK256 PUSH1 0x1 ADD SLOAD DUP4 PUSH2 0x1D5D SWAP2 SWAP1 PUSH2 0x272D JUMP JUMPDEST PUSH2 0x1D67 SWAP2 SWAP1 PUSH2 0x277A JUMP JUMPDEST SWAP2 POP DUP4 DUP4 DUP3 DUP2 DUP2 LT PUSH2 0x1D7B JUMPI PUSH2 0x1D7B PUSH2 0x292F JUMP JUMPDEST SWAP1 POP PUSH1 0x20 MUL ADD CALLDATALOAD PUSH1 0x9 PUSH1 0x0 DUP9 DUP9 DUP6 DUP2 DUP2 LT PUSH2 0x1D98 JUMPI PUSH2 0x1D98 PUSH2 0x292F JUMP JUMPDEST SWAP1 POP PUSH1 0x20 MUL ADD CALLDATALOAD DUP2 MSTORE PUSH1 0x20 ADD SWAP1 DUP2 MSTORE PUSH1 0x20 ADD PUSH1 0x0 KECCAK256 PUSH1 0x1 ADD DUP2 SWAP1 SSTORE POP DUP1 DUP1 PUSH2 0x1DBF SWAP1 PUSH2 0x2824 JUMP JUMPDEST SWAP2 POP POP PUSH2 0x1C5D JUMP JUMPDEST POP PUSH3 0xF4240 DUP2 GT ISZERO PUSH2 0x1E0F JUMPI PUSH1 0x40 MLOAD PUSH3 0x461BCD PUSH1 0xE5 SHL DUP2 MSTORE PUSH1 0x20 PUSH1 0x4 DUP3 ADD MSTORE PUSH1 0x11 PUSH1 0x24 DUP3 ADD MSTORE PUSH17 0xDAEAD8E87440CAF0C6CACAC8E640DAC2F PUSH1 0x7B SHL PUSH1 0x44 DUP3 ADD MSTORE PUSH1 0x64 ADD PUSH2 0x533 JUMP JUMPDEST PUSH1 0x2 SSTORE JUMPDEST POP POP POP POP JUMP JUMPDEST PUSH1 0x0 DUP1 SLOAD PUSH1 0x1 PUSH1 0x1 PUSH1 0xA0 SHL SUB DUP4 DUP2 AND PUSH1 0x1 PUSH1 0x1 PUSH1 0xA0 SHL SUB NOT DUP4 AND DUP2 OR DUP5 SSTORE PUSH1 0x40 MLOAD SWAP2 SWAP1 SWAP3 AND SWAP3 DUP4 SWAP2 PUSH32 0x8BE0079C531659141344CD1FD0A4F28419497F9722A3DAAFE3B4186F6B6457E0 SWAP2 SWAP1 LOG3 POP POP JUMP JUMPDEST PUSH1 0x40 MLOAD PUSH1 0x1 PUSH1 0x1 PUSH1 0xA0 SHL SUB DUP1 DUP6 AND PUSH1 0x24 DUP4 ADD MSTORE DUP4 AND PUSH1 0x44 DUP3 ADD MSTORE PUSH1 0x64 DUP2 ADD DUP3 SWAP1 MSTORE PUSH2 0x1E13 SWAP1 DUP6 SWAP1 PUSH4 0x23B872DD PUSH1 0xE0 SHL SWAP1 PUSH1 0x84 ADD PUSH2 0x18C7 JUMP JUMPDEST PUSH1 0x0 PUSH2 0x1EF6 DUP3 PUSH1 0x40 MLOAD DUP1 PUSH1 0x40 ADD PUSH1 0x40 MSTORE DUP1 PUSH1 0x20 DUP2 MSTORE PUSH1 0x20 ADD PUSH32 0x5361666545524332303A206C6F772D6C6576656C2063616C6C206661696C6564 DUP2 MSTORE POP DUP6 PUSH1 0x1 PUSH1 0x1 PUSH1 0xA0 SHL SUB AND PUSH2 0x1FF5 SWAP1 SWAP3 SWAP2 SWAP1 PUSH4 0xFFFFFFFF AND JUMP JUMPDEST DUP1 MLOAD SWAP1 SWAP2 POP ISZERO PUSH2 0x18FE JUMPI DUP1 DUP1 PUSH1 0x20 ADD SWAP1 MLOAD DUP2 ADD SWAP1 PUSH2 0x1F14 SWAP2 SWAP1 PUSH2 0x2744 JUMP JUMPDEST PUSH2 0x18FE JUMPI PUSH1 0x40 MLOAD PUSH3 0x461BCD PUSH1 0xE5 SHL DUP2 MSTORE PUSH1 0x20 PUSH1 0x4 DUP3 ADD MSTORE PUSH1 0x2A PUSH1 0x24 DUP3 ADD MSTORE PUSH32 0x5361666545524332303A204552433230206F7065726174696F6E20646964206E PUSH1 0x44 DUP3 ADD MSTORE PUSH10 0x1BDD081CDD58D8D95959 PUSH1 0xB2 SHL PUSH1 0x64 DUP3 ADD MSTORE PUSH1 0x84 ADD PUSH2 0x533 JUMP JUMPDEST PUSH1 0x0 DUP1 DUP1 PUSH2 0x1F8C PUSH2 0x1F87 PUSH3 0x15180 DUP7 PUSH2 0x2719 JUMP JUMPDEST PUSH2 0x200C JUMP JUMPDEST SWAP2 SWAP7 SWAP1 SWAP6 POP SWAP1 SWAP4 POP SWAP2 POP POP JUMP JUMPDEST PUSH1 0x0 DUP2 PUSH2 0x1FA7 PUSH1 0x3C DUP6 PUSH2 0x26E4 JUMP JUMPDEST PUSH2 0x1FB3 PUSH2 0xE10 DUP8 PUSH2 0x26E4 JUMP JUMPDEST PUSH3 0x15180 PUSH2 0x1FC2 DUP12 DUP12 DUP12 PUSH2 0x2180 JUMP JUMPDEST PUSH2 0x1FCC SWAP2 SWAP1 PUSH2 0x26E4 JUMP JUMPDEST PUSH2 0x1FD6 SWAP2 SWAP1 PUSH2 0x277A JUMP JUMPDEST PUSH2 0x1FE0 SWAP2 SWAP1 PUSH2 0x277A JUMP JUMPDEST PUSH2 0x1FEA SWAP2 SWAP1 PUSH2 0x277A JUMP JUMPDEST SWAP8 SWAP7 POP POP POP POP POP POP POP JUMP JUMPDEST PUSH1 0x60 PUSH2 0x2004 DUP5 DUP5 PUSH1 0x0 DUP6 PUSH2 0x22BD JUMP JUMPDEST SWAP5 SWAP4 POP POP POP POP JUMP JUMPDEST PUSH1 0x0 DUP1 DUP1 DUP4 DUP2 PUSH3 0x253D8C PUSH2 0x2023 DUP4 PUSH3 0x10BD9 PUSH2 0x2945 JUMP JUMPDEST PUSH2 0x202D SWAP2 SWAP1 PUSH2 0x2945 JUMP JUMPDEST SWAP1 POP PUSH1 0x0 PUSH3 0x23AB1 PUSH2 0x2040 DUP4 PUSH1 0x4 PUSH2 0x2986 JUMP JUMPDEST PUSH2 0x204A SWAP2 SWAP1 PUSH2 0x2A0B JUMP JUMPDEST SWAP1 POP PUSH1 0x4 PUSH2 0x205B DUP3 PUSH3 0x23AB1 PUSH2 0x2986 JUMP JUMPDEST PUSH2 0x2066 SWAP1 PUSH1 0x3 PUSH2 0x2945 JUMP JUMPDEST PUSH2 0x2070 SWAP2 SWAP1 PUSH2 0x2A0B JUMP JUMPDEST PUSH2 0x207A SWAP1 DUP4 PUSH2 0x2A39 JUMP JUMPDEST SWAP2 POP PUSH1 0x0 PUSH3 0x164B09 PUSH2 0x208D DUP5 PUSH1 0x1 PUSH2 0x2945 JUMP JUMPDEST PUSH2 0x2099 SWAP1 PUSH2 0xFA0 PUSH2 0x2986 JUMP JUMPDEST PUSH2 0x20A3 SWAP2 SWAP1 PUSH2 0x2A0B JUMP JUMPDEST SWAP1 POP PUSH1 0x4 PUSH2 0x20B3 DUP3 PUSH2 0x5B5 PUSH2 0x2986 JUMP JUMPDEST PUSH2 0x20BD SWAP2 SWAP1 PUSH2 0x2A0B JUMP JUMPDEST PUSH2 0x20C7 SWAP1 DUP5 PUSH2 0x2A39 JUMP JUMPDEST PUSH2 0x20D2 SWAP1 PUSH1 0x1F PUSH2 0x2945 JUMP JUMPDEST SWAP3 POP PUSH1 0x0 PUSH2 0x98F PUSH2 0x20E4 DUP6 PUSH1 0x50 PUSH2 0x2986 JUMP JUMPDEST PUSH2 0x20EE SWAP2 SWAP1 PUSH2 0x2A0B JUMP JUMPDEST SWAP1 POP PUSH1 0x0 PUSH1 0x50 PUSH2 0x2100 DUP4 PUSH2 0x98F PUSH2 0x2986 JUMP JUMPDEST PUSH2 0x210A SWAP2 SWAP1 PUSH2 0x2A0B JUMP JUMPDEST PUSH2 0x2114 SWAP1 DUP7 PUSH2 0x2A39 JUMP JUMPDEST SWAP1 POP PUSH2 0x2121 PUSH1 0xB DUP4 PUSH2 0x2A0B JUMP JUMPDEST SWAP5 POP PUSH2 0x212E DUP6 PUSH1 0xC PUSH2 0x2986 JUMP JUMPDEST PUSH2 0x2139 DUP4 PUSH1 0x2 PUSH2 0x2945 JUMP JUMPDEST PUSH2 0x2143 SWAP2 SWAP1 PUSH2 0x2A39 JUMP JUMPDEST SWAP2 POP DUP5 DUP4 PUSH2 0x2152 PUSH1 0x31 DUP8 PUSH2 0x2A39 JUMP JUMPDEST PUSH2 0x215D SWAP1 PUSH1 0x64 PUSH2 0x2986 JUMP JUMPDEST PUSH2 0x2167 SWAP2 SWAP1 PUSH2 0x2945 JUMP JUMPDEST PUSH2 0x2171 SWAP2 SWAP1 PUSH2 0x2945 JUMP JUMPDEST SWAP11 SWAP2 SWAP10 POP SWAP8 POP SWAP6 POP POP POP POP POP POP JUMP JUMPDEST PUSH1 0x0 PUSH2 0x7B2 DUP5 LT ISZERO PUSH2 0x2191 JUMPI PUSH1 0x0 DUP1 REVERT JUMPDEST DUP4 DUP4 DUP4 PUSH1 0x0 PUSH3 0x253D8C PUSH1 0x4 PUSH1 0x64 PUSH1 0xC PUSH2 0x21AB PUSH1 0xE DUP9 PUSH2 0x2A39 JUMP JUMPDEST PUSH2 0x21B5 SWAP2 SWAP1 PUSH2 0x2A0B JUMP JUMPDEST PUSH2 0x21C1 DUP9 PUSH2 0x1324 PUSH2 0x2945 JUMP JUMPDEST PUSH2 0x21CB SWAP2 SWAP1 PUSH2 0x2945 JUMP JUMPDEST PUSH2 0x21D5 SWAP2 SWAP1 PUSH2 0x2A0B JUMP JUMPDEST PUSH2 0x21E0 SWAP1 PUSH1 0x3 PUSH2 0x2986 JUMP JUMPDEST PUSH2 0x21EA SWAP2 SWAP1 PUSH2 0x2A0B JUMP JUMPDEST PUSH1 0xC DUP1 PUSH2 0x21F8 PUSH1 0xE DUP9 PUSH2 0x2A39 JUMP JUMPDEST PUSH2 0x2202 SWAP2 SWAP1 PUSH2 0x2A0B JUMP JUMPDEST PUSH2 0x220D SWAP1 PUSH1 0xC PUSH2 0x2986 JUMP JUMPDEST PUSH2 0x2218 PUSH1 0x2 DUP9 PUSH2 0x2A39 JUMP JUMPDEST PUSH2 0x2222 SWAP2 SWAP1 PUSH2 0x2A39 JUMP JUMPDEST PUSH2 0x222E SWAP1 PUSH2 0x16F PUSH2 0x2986 JUMP JUMPDEST PUSH2 0x2238 SWAP2 SWAP1 PUSH2 0x2A0B JUMP JUMPDEST PUSH1 0x4 PUSH1 0xC PUSH2 0x2247 PUSH1 0xE DUP10 PUSH2 0x2A39 JUMP JUMPDEST PUSH2 0x2251 SWAP2 SWAP1 PUSH2 0x2A0B JUMP JUMPDEST PUSH2 0x225D DUP10 PUSH2 0x12C0 PUSH2 0x2945 JUMP JUMPDEST PUSH2 0x2267 SWAP2 SWAP1 PUSH2 0x2945 JUMP JUMPDEST PUSH2 0x2273 SWAP1 PUSH2 0x5B5 PUSH2 0x2986 JUMP JUMPDEST PUSH2 0x227D SWAP2 SWAP1 PUSH2 0x2A0B JUMP JUMPDEST PUSH2 0x2289 PUSH2 0x7D4B DUP8 PUSH2 0x2A39 JUMP JUMPDEST PUSH2 0x2293 SWAP2 SWAP1 PUSH2 0x2945 JUMP JUMPDEST PUSH2 0x229D SWAP2 SWAP1 PUSH2 0x2945 JUMP JUMPDEST PUSH2 0x22A7 SWAP2 SWAP1 PUSH2 0x2A39 JUMP JUMPDEST PUSH2 0x22B1 SWAP2 SWAP1 PUSH2 0x2A39 JUMP JUMPDEST SWAP9 SWAP8 POP POP POP POP POP POP POP POP JUMP JUMPDEST PUSH1 0x60 DUP3 SELFBALANCE LT ISZERO PUSH2 0x231E JUMPI PUSH1 0x40 MLOAD PUSH3 0x461BCD PUSH1 0xE5 SHL DUP2 MSTORE PUSH1 0x20 PUSH1 0x4 DUP3 ADD MSTORE PUSH1 0x26 PUSH1 0x24 DUP3 ADD MSTORE PUSH32 0x416464726573733A20696E73756666696369656E742062616C616E636520666F PUSH1 0x44 DUP3 ADD MSTORE PUSH6 0x1C8818D85B1B PUSH1 0xD2 SHL PUSH1 0x64 DUP3 ADD MSTORE PUSH1 0x84 ADD PUSH2 0x533 JUMP JUMPDEST PUSH1 0x1 PUSH1 0x1 PUSH1 0xA0 SHL SUB DUP6 AND EXTCODESIZE PUSH2 0x2375 JUMPI PUSH1 0x40 MLOAD PUSH3 0x461BCD PUSH1 0xE5 SHL DUP2 MSTORE PUSH1 0x20 PUSH1 0x4 DUP3 ADD MSTORE PUSH1 0x1D PUSH1 0x24 DUP3 ADD MSTORE PUSH32 0x416464726573733A2063616C6C20746F206E6F6E2D636F6E7472616374000000 PUSH1 0x44 DUP3 ADD MSTORE PUSH1 0x64 ADD PUSH2 0x533 JUMP JUMPDEST PUSH1 0x0 DUP1 DUP7 PUSH1 0x1 PUSH1 0x1 PUSH1 0xA0 SHL SUB AND DUP6 DUP8 PUSH1 0x40 MLOAD PUSH2 0x2391 SWAP2 SWAP1 PUSH2 0x2AA4 JUMP JUMPDEST PUSH1 0x0 PUSH1 0x40 MLOAD DUP1 DUP4 SUB DUP2 DUP6 DUP8 GAS CALL SWAP3 POP POP POP RETURNDATASIZE DUP1 PUSH1 0x0 DUP2 EQ PUSH2 0x23CE JUMPI PUSH1 0x40 MLOAD SWAP2 POP PUSH1 0x1F NOT PUSH1 0x3F RETURNDATASIZE ADD AND DUP3 ADD PUSH1 0x40 MSTORE RETURNDATASIZE DUP3 MSTORE RETURNDATASIZE PUSH1 0x0 PUSH1 0x20 DUP5 ADD RETURNDATACOPY PUSH2 0x23D3 JUMP JUMPDEST PUSH1 0x60 SWAP2 POP JUMPDEST POP SWAP2 POP SWAP2 POP PUSH2 0x1FEA DUP3 DUP3 DUP7 PUSH1 0x60 DUP4 ISZERO PUSH2 0x23ED JUMPI POP DUP2 PUSH2 0xE82 JUMP JUMPDEST DUP3 MLOAD ISZERO PUSH2 0x23FD JUMPI DUP3 MLOAD DUP1 DUP5 PUSH1 0x20 ADD REVERT JUMPDEST DUP2 PUSH1 0x40 MLOAD PUSH3 0x461BCD PUSH1 0xE5 SHL DUP2 MSTORE PUSH1 0x4 ADD PUSH2 0x533 SWAP2 SWAP1 PUSH2 0x2AC0 JUMP JUMPDEST PUSH1 0x0 PUSH1 0x20 DUP3 DUP5 SUB SLT ISZERO PUSH2 0x2429 JUMPI PUSH1 0x0 DUP1 REVERT JUMPDEST POP CALLDATALOAD SWAP2 SWAP1 POP JUMP JUMPDEST PUSH1 0x0 DUP1 PUSH1 0x40 DUP4 DUP6 SUB SLT ISZERO PUSH2 0x2443 JUMPI PUSH1 0x0 DUP1 REVERT JUMPDEST POP POP DUP1 CALLDATALOAD SWAP3 PUSH1 0x20 SWAP1 SWAP2 ADD CALLDATALOAD SWAP2 POP JUMP JUMPDEST PUSH1 0x0 DUP1 DUP4 PUSH1 0x1F DUP5 ADD SLT PUSH2 0x2464 JUMPI PUSH1 0x0 DUP1 REVERT JUMPDEST POP DUP2 CALLDATALOAD PUSH8 0xFFFFFFFFFFFFFFFF DUP2 GT ISZERO PUSH2 0x247C JUMPI PUSH1 0x0 DUP1 REVERT JUMPDEST PUSH1 0x20 DUP4 ADD SWAP2 POP DUP4 PUSH1 0x20 DUP3 PUSH1 0x5 SHL DUP6 ADD ADD GT ISZERO PUSH2 0x2497 JUMPI PUSH1 0x0 DUP1 REVERT JUMPDEST SWAP3 POP SWAP3 SWAP1 POP JUMP JUMPDEST PUSH1 0x0 DUP1 PUSH1 0x0 DUP1 PUSH1 0x40 DUP6 DUP8 SUB SLT ISZERO PUSH2 0x24B4 JUMPI PUSH1 0x0 DUP1 REVERT JUMPDEST DUP5 CALLDATALOAD PUSH8 0xFFFFFFFFFFFFFFFF DUP1 DUP3 GT ISZERO PUSH2 0x24CC JUMPI PUSH1 0x0 DUP1 REVERT JUMPDEST PUSH2 0x24D8 DUP9 DUP4 DUP10 ADD PUSH2 0x2452 JUMP JUMPDEST SWAP1 SWAP7 POP SWAP5 POP PUSH1 0x20 DUP8 ADD CALLDATALOAD SWAP2 POP DUP1 DUP3 GT ISZERO PUSH2 0x24F1 JUMPI PUSH1 0x0 DUP1 REVERT JUMPDEST POP PUSH2 0x24FE DUP8 DUP3 DUP9 ADD PUSH2 0x2452 JUMP JUMPDEST SWAP6 SWAP9 SWAP5 SWAP8 POP SWAP6 POP POP POP POP JUMP JUMPDEST DUP1 CALLDATALOAD PUSH1 0x1 PUSH1 0x1 PUSH1 0xA0 SHL SUB DUP2 AND DUP2 EQ PUSH2 0x2521 JUMPI PUSH1 0x0 DUP1 REVERT JUMPDEST SWAP2 SWAP1 POP JUMP JUMPDEST PUSH1 0x0 DUP1 PUSH1 0x40 DUP4 DUP6 SUB SLT ISZERO PUSH2 0x2539 JUMPI PUSH1 0x0 DUP1 REVERT JUMPDEST PUSH2 0x2542 DUP4 PUSH2 0x250A JUMP JUMPDEST SWAP5 PUSH1 0x20 SWAP4 SWAP1 SWAP4 ADD CALLDATALOAD SWAP4 POP POP POP JUMP JUMPDEST PUSH1 0x0 DUP1 PUSH1 0x40 DUP4 DUP6 SUB SLT ISZERO PUSH2 0x2563 JUMPI PUSH1 0x0 DUP1 REVERT JUMPDEST DUP3 CALLDATALOAD SWAP2 POP PUSH2 0x2573 PUSH1 0x20 DUP5 ADD PUSH2 0x250A JUMP JUMPDEST SWAP1 POP SWAP3 POP SWAP3 SWAP1 POP JUMP JUMPDEST DUP1 ISZERO ISZERO DUP2 EQ PUSH2 0xE08 JUMPI PUSH1 0x0 DUP1 REVERT JUMPDEST PUSH1 0x0 DUP1 PUSH1 0x40 DUP4 DUP6 SUB SLT ISZERO PUSH2 0x259D JUMPI PUSH1 0x0 DUP1 REVERT JUMPDEST PUSH2 0x25A6 DUP4 PUSH2 0x250A JUMP JUMPDEST SWAP2 POP PUSH1 0x20 DUP4 ADD CALLDATALOAD PUSH2 0x25B6 DUP2 PUSH2 0x257C JUMP JUMPDEST DUP1 SWAP2 POP POP SWAP3 POP SWAP3 SWAP1 POP JUMP JUMPDEST PUSH1 0x0 PUSH1 0x20 DUP3 DUP5 SUB SLT ISZERO PUSH2 0x25D3 JUMPI PUSH1 0x0 DUP1 REVERT JUMPDEST PUSH2 0xE82 DUP3 PUSH2 0x250A JUMP JUMPDEST PUSH1 0x0 DUP1 PUSH1 0x0 DUP1 PUSH1 0x0 DUP1 PUSH1 0x0 DUP1 PUSH1 0x0 PUSH1 0xE0 DUP11 DUP13 SUB SLT ISZERO PUSH2 0x25FA JUMPI PUSH1 0x0 DUP1 REVERT JUMPDEST PUSH2 0x2603 DUP11 PUSH2 0x250A JUMP JUMPDEST SWAP9 POP PUSH1 0x20 DUP11 ADD CALLDATALOAD SWAP8 POP PUSH1 0x40 DUP11 ADD CALLDATALOAD PUSH2 0x261A DUP2 PUSH2 0x257C JUMP JUMPDEST SWAP7 POP PUSH1 0x60 DUP11 ADD CALLDATALOAD SWAP6 POP PUSH1 0x80 DUP11 ADD CALLDATALOAD PUSH2 0x2631 DUP2 PUSH2 0x257C JUMP JUMPDEST SWAP5 POP PUSH1 0xA0 DUP11 ADD CALLDATALOAD PUSH8 0xFFFFFFFFFFFFFFFF DUP1 DUP3 GT ISZERO PUSH2 0x264E JUMPI PUSH1 0x0 DUP1 REVERT JUMPDEST PUSH2 0x265A DUP14 DUP4 DUP15 ADD PUSH2 0x2452 JUMP JUMPDEST SWAP1 SWAP7 POP SWAP5 POP PUSH1 0xC0 DUP13 ADD CALLDATALOAD SWAP2 POP DUP1 DUP3 GT ISZERO PUSH2 0x2673 JUMPI PUSH1 0x0 DUP1 REVERT JUMPDEST POP PUSH2 0x2680 DUP13 DUP3 DUP14 ADD PUSH2 0x2452 JUMP JUMPDEST SWAP2 POP DUP1 SWAP4 POP POP DUP1 SWAP2 POP POP SWAP3 SWAP6 SWAP9 POP SWAP3 SWAP6 SWAP9 POP SWAP3 SWAP6 SWAP9 JUMP JUMPDEST PUSH1 0x20 DUP1 DUP3 MSTORE PUSH1 0x1F SWAP1 DUP3 ADD MSTORE PUSH32 0x5265656E7472616E637947756172643A207265656E7472616E742063616C6C00 PUSH1 0x40 DUP3 ADD MSTORE PUSH1 0x60 ADD SWAP1 JUMP JUMPDEST PUSH4 0x4E487B71 PUSH1 0xE0 SHL PUSH1 0x0 MSTORE PUSH1 0x11 PUSH1 0x4 MSTORE PUSH1 0x24 PUSH1 0x0 REVERT JUMPDEST PUSH1 0x0 DUP2 PUSH1 0x0 NOT DIV DUP4 GT DUP3 ISZERO ISZERO AND ISZERO PUSH2 0x26FE JUMPI PUSH2 0x26FE PUSH2 0x26CE JUMP JUMPDEST POP MUL SWAP1 JUMP JUMPDEST PUSH4 0x4E487B71 PUSH1 0xE0 SHL PUSH1 0x0 MSTORE PUSH1 0x12 PUSH1 0x4 MSTORE PUSH1 0x24 PUSH1 0x0 REVERT JUMPDEST PUSH1 0x0 DUP3 PUSH2 0x2728 JUMPI PUSH2 0x2728 PUSH2 0x2703 JUMP JUMPDEST POP DIV SWAP1 JUMP JUMPDEST PUSH1 0x0 DUP3 DUP3 LT ISZERO PUSH2 0x273F JUMPI PUSH2 0x273F PUSH2 0x26CE JUMP JUMPDEST POP SUB SWAP1 JUMP JUMPDEST PUSH1 0x0 PUSH1 0x20 DUP3 DUP5 SUB SLT ISZERO PUSH2 0x2756 JUMPI PUSH1 0x0 DUP1 REVERT JUMPDEST DUP2 MLOAD PUSH2 0xE82 DUP2 PUSH2 0x257C JUMP JUMPDEST PUSH1 0x0 PUSH1 0x20 DUP3 DUP5 SUB SLT ISZERO PUSH2 0x2773 JUMPI PUSH1 0x0 DUP1 REVERT JUMPDEST POP MLOAD SWAP2 SWAP1 POP JUMP JUMPDEST PUSH1 0x0 DUP3 NOT DUP3 GT ISZERO PUSH2 0x278D JUMPI PUSH2 0x278D PUSH2 0x26CE JUMP JUMPDEST POP ADD SWAP1 JUMP JUMPDEST PUSH1 0x20 DUP1 DUP3 MSTORE DUP2 DUP2 ADD MSTORE PUSH32 0x4F776E61626C653A2063616C6C6572206973206E6F7420746865206F776E6572 PUSH1 0x40 DUP3 ADD MSTORE PUSH1 0x60 ADD SWAP1 JUMP JUMPDEST DUP2 DUP4 MSTORE PUSH1 0x0 PUSH1 0x1 PUSH1 0x1 PUSH1 0xFB SHL SUB DUP4 GT ISZERO PUSH2 0x27E0 JUMPI PUSH1 0x0 DUP1 REVERT JUMPDEST DUP3 PUSH1 0x5 SHL DUP1 DUP4 PUSH1 0x20 DUP8 ADD CALLDATACOPY PUSH1 0x0 SWAP5 ADD PUSH1 0x20 ADD SWAP4 DUP5 MSTORE POP SWAP2 SWAP3 SWAP2 POP POP JUMP JUMPDEST PUSH1 0x40 DUP2 MSTORE PUSH1 0x0 PUSH2 0x2811 PUSH1 0x40 DUP4 ADD DUP7 DUP9 PUSH2 0x27C7 JUMP JUMPDEST DUP3 DUP2 SUB PUSH1 0x20 DUP5 ADD MSTORE PUSH2 0x1FEA DUP2 DUP6 DUP8 PUSH2 0x27C7 JUMP JUMPDEST PUSH1 0x0 PUSH1 0x0 NOT DUP3 EQ ISZERO PUSH2 0x2838 JUMPI PUSH2 0x2838 PUSH2 0x26CE JUMP JUMPDEST POP PUSH1 0x1 ADD SWAP1 JUMP JUMPDEST PUSH1 0x1 DUP2 DUP2 JUMPDEST DUP1 DUP6 GT ISZERO PUSH2 0x287A JUMPI DUP2 PUSH1 0x0 NOT DIV DUP3 GT ISZERO PUSH2 0x2860 JUMPI PUSH2 0x2860 PUSH2 0x26CE JUMP JUMPDEST DUP1 DUP6 AND ISZERO PUSH2 0x286D JUMPI SWAP2 DUP2 MUL SWAP2 JUMPDEST SWAP4 DUP5 SHR SWAP4 SWAP1 DUP1 MUL SWAP1 PUSH2 0x2844 JUMP JUMPDEST POP SWAP3 POP SWAP3 SWAP1 POP JUMP JUMPDEST PUSH1 0x0 DUP3 PUSH2 0x2891 JUMPI POP PUSH1 0x1 PUSH2 0xD3E JUMP JUMPDEST DUP2 PUSH2 0x289E JUMPI POP PUSH1 0x0 PUSH2 0xD3E JUMP JUMPDEST DUP2 PUSH1 0x1 DUP2 EQ PUSH2 0x28B4 JUMPI PUSH1 0x2 DUP2 EQ PUSH2 0x28BE JUMPI PUSH2 0x28DA JUMP JUMPDEST PUSH1 0x1 SWAP2 POP POP PUSH2 0xD3E JUMP JUMPDEST PUSH1 0xFF DUP5 GT ISZERO PUSH2 0x28CF JUMPI PUSH2 0x28CF PUSH2 0x26CE JUMP JUMPDEST POP POP PUSH1 0x1 DUP3 SHL PUSH2 0xD3E JUMP JUMPDEST POP PUSH1 0x20 DUP4 LT PUSH2 0x133 DUP4 LT AND PUSH1 0x4E DUP5 LT PUSH1 0xB DUP5 LT AND OR ISZERO PUSH2 0x28FD JUMPI POP DUP2 DUP2 EXP PUSH2 0xD3E JUMP JUMPDEST PUSH2 0x2907 DUP4 DUP4 PUSH2 0x283F JUMP JUMPDEST DUP1 PUSH1 0x0 NOT DIV DUP3 GT ISZERO PUSH2 0x291B JUMPI PUSH2 0x291B PUSH2 0x26CE JUMP JUMPDEST MUL SWAP4 SWAP3 POP POP POP JUMP JUMPDEST PUSH1 0x0 PUSH2 0xE82 DUP4 DUP4 PUSH2 0x2882 JUMP JUMPDEST PUSH4 0x4E487B71 PUSH1 0xE0 SHL PUSH1 0x0 MSTORE PUSH1 0x32 PUSH1 0x4 MSTORE PUSH1 0x24 PUSH1 0x0 REVERT JUMPDEST PUSH1 0x0 DUP1 DUP3 SLT DUP1 ISZERO PUSH1 0x1 PUSH1 0x1 PUSH1 0xFF SHL SUB DUP5 SWAP1 SUB DUP6 SGT AND ISZERO PUSH2 0x2967 JUMPI PUSH2 0x2967 PUSH2 0x26CE JUMP JUMPDEST PUSH1 0x1 PUSH1 0xFF SHL DUP4 SWAP1 SUB DUP5 SLT DUP2 AND ISZERO PUSH2 0x2980 JUMPI PUSH2 0x2980 PUSH2 0x26CE JUMP JUMPDEST POP POP ADD SWAP1 JUMP JUMPDEST PUSH1 0x0 PUSH1 0x1 PUSH1 0x1 PUSH1 0xFF SHL SUB DUP2 DUP5 SGT DUP3 DUP5 SGT DUP1 DUP3 AND DUP7 DUP5 DIV DUP7 GT AND ISZERO PUSH2 0x29AC JUMPI PUSH2 0x29AC PUSH2 0x26CE JUMP JUMPDEST PUSH1 0x1 PUSH1 0xFF SHL PUSH1 0x0 DUP8 SLT DUP3 DUP2 AND DUP8 DUP4 SDIV DUP10 SLT AND ISZERO PUSH2 0x29CB JUMPI PUSH2 0x29CB PUSH2 0x26CE JUMP JUMPDEST PUSH1 0x0 DUP8 SLT SWAP3 POP DUP8 DUP3 SDIV DUP8 SLT DUP5 DUP5 AND AND ISZERO PUSH2 0x29E7 JUMPI PUSH2 0x29E7 PUSH2 0x26CE JUMP JUMPDEST DUP8 DUP6 SDIV DUP8 SLT DUP2 DUP5 AND AND ISZERO PUSH2 0x29FD JUMPI PUSH2 0x29FD PUSH2 0x26CE JUMP JUMPDEST POP POP POP SWAP3 SWAP1 SWAP4 MUL SWAP4 SWAP3 POP POP POP JUMP JUMPDEST PUSH1 0x0 DUP3 PUSH2 0x2A1A JUMPI PUSH2 0x2A1A PUSH2 0x2703 JUMP JUMPDEST PUSH1 0x1 PUSH1 0xFF SHL DUP3 EQ PUSH1 0x0 NOT DUP5 EQ AND ISZERO PUSH2 0x2A34 JUMPI PUSH2 0x2A34 PUSH2 0x26CE JUMP JUMPDEST POP SDIV SWAP1 JUMP JUMPDEST PUSH1 0x0 DUP1 DUP4 SLT DUP1 ISZERO PUSH1 0x1 PUSH1 0xFF SHL DUP6 ADD DUP5 SLT AND ISZERO PUSH2 0x2A57 JUMPI PUSH2 0x2A57 PUSH2 0x26CE JUMP JUMPDEST PUSH1 0x1 PUSH1 0x1 PUSH1 0xFF SHL SUB DUP5 ADD DUP4 SGT DUP2 AND ISZERO PUSH2 0x2A72 JUMPI PUSH2 0x2A72 PUSH2 0x26CE JUMP JUMPDEST POP POP SUB SWAP1 JUMP JUMPDEST PUSH1 0x0 JUMPDEST DUP4 DUP2 LT ISZERO PUSH2 0x2A93 JUMPI DUP2 DUP2 ADD MLOAD DUP4 DUP3 ADD MSTORE PUSH1 0x20 ADD PUSH2 0x2A7B JUMP JUMPDEST DUP4 DUP2 GT ISZERO PUSH2 0x1E13 JUMPI POP POP PUSH1 0x0 SWAP2 ADD MSTORE JUMP JUMPDEST PUSH1 0x0 DUP3 MLOAD PUSH2 0x2AB6 DUP2 DUP5 PUSH1 0x20 DUP8 ADD PUSH2 0x2A78 JUMP JUMPDEST SWAP2 SWAP1 SWAP2 ADD SWAP3 SWAP2 POP POP JUMP JUMPDEST PUSH1 0x20 DUP2 MSTORE PUSH1 0x0 DUP3 MLOAD DUP1 PUSH1 0x20 DUP5 ADD MSTORE PUSH2 0x2ADF DUP2 PUSH1 0x40 DUP6 ADD PUSH1 0x20 DUP8 ADD PUSH2 0x2A78 JUMP JUMPDEST PUSH1 0x1F ADD PUSH1 0x1F NOT AND SWAP2 SWAP1 SWAP2 ADD PUSH1 0x40 ADD SWAP3 SWAP2 POP POP JUMP INVALID LOG2 PUSH5 0x6970667358 0x22 SLT KECCAK256 0xAA DUP3 ISZERO 0x4E DUP15 PUSH27 0xAE321EE7E4893AFE8DAD277D9479BE4B7EE27F5F8F1E2E72FAE264 PUSH20 0x6F6C634300080C00330000000000000000000000 ",
  "sha1": "3c4ac0745461763b6b3e6a1287c5dec666737d60",
  "source": "// SPDX-License-Identifier: MIT\npragma solidity 0.8.12;\n\nimport \"@openzeppelin/contracts/access/Ownable.sol\";\nimport \"@openzeppelin/contracts/token/ERC20/IERC20.sol\";\nimport \"@openzeppelin/contracts/token/ERC20/utils/SafeERC20.sol\";\nimport \"@openzeppelin/contracts/security/ReentrancyGuard.sol\";\nimport \"./NICEToken.sol\";\nimport \"../interfaces/IFeeDistributor.sol\";\n\ncontract GalacticChef is Ownable, ReentrancyGuard {\n    using SafeERC20 for NICEToken;\n    using SafeERC20 for IERC20;\n\n    struct UserInfo {\n        uint256 amount; //Staked Amount\n        uint256 accClaim; //ClaimedReward accumulation\n    }\n\n    struct PoolInfo {\n        bool poolType;\n        uint256 mult;\n        uint256 fee;\n        IERC20 token;\n        uint256 accRewardPerShare;\n        uint256 lastRewardTs;\n        bool isLP;\n    }\n    /// Timestamp Specific\n    uint256 constant SECONDS_PER_DAY = 24 * 60 * 60;\n    uint256 constant SECONDS_PER_HOUR = 60 * 60;\n    uint256 constant SECONDS_PER_MINUTE = 60;\n    int256 constant OFFSET19700101 = 2440588;\n    /*\n     ** We have two different types of pools: Regular False, Third True\n     ** Nice has a fixed emission given per second due to tokenomics\n     ** So we decided to give a FIXED percentage reward to some pools\n     ** REGULAR pools distribute the remaining reward amongst their allocation\n     ** Third Party doesn't keep track of the user's info, but rather only keeps track of the rewards being given.\n     */\n\n    uint256 public constant PERCENT = 1e12; // Divisor for percentage calculations\n    uint256 public constant FEE_DIV = 10000; // Divisor for fee percentage 100.00\n    uint256 public constant maxMult = 1000000; // Max Multiplier 100.0000\n    uint256 public currentMax; // The current multiplier total. Always <= maxMult\n    address public feeAddress; // Address where fees will be sent to for Distribution/Reallocation\n\n    // The number of chains where a GalacticChef exists. This helps have a consistent emission across all chains.\n    uint256 public chains;\n    // Emissions per second. Since we'll have multiple Chefs across chains the emission set per second\n    uint256 public immutable initMax; // First year only\n    uint256 public immutable nextMax; // Subsequent Years\n    /*\n     ** Reward Calculation:\n     ** Fixed Pool Rewards = Emission*allocation / PERCENT\n     ** Regular Pool Rewards = Emission*( 1e12 - fixedAlloc*1e12/PERCENT) * allocation/regularAlloc / 1e12\n     ** 1e12 is used to cover for fraction issues\n     */\n    uint256 public poolCounter;\n\n    // Reward Token\n    NICEToken public NICE;\n\n    // FEE distribution\n    IFeeDistributor public feeDistributor;\n\n    mapping(uint256 => mapping(address => UserInfo)) public userInfo; // PID => USER_ADDRESS => userInfo\n    mapping(uint256 => PoolInfo) public poolInfo; // PID => PoolInfo\n    mapping(uint256 => address) public tpPools; //  PID => poolAddress\n    mapping(address => uint256) public tokenPools; // tokenAddress => poolId\n\n    event PoolAdded(\n        address token,\n        uint256 multiplier,\n        uint256 fee,\n        bool _type,\n        uint256 _pid\n    );\n    event Deposit(address indexed user, uint256 indexed pid, uint256 amount);\n    event Withdraw(address indexed user, uint256 indexed pid, uint256 amount);\n    event EmergencyWithdraw(\n        address indexed user,\n        uint256 indexed pid,\n        uint256 amount\n    );\n    event UpdatePools(uint256[] pid, uint256[] mult);\n    event UpdatePool(uint256 indexed pid, uint256 mult, uint256 fee);\n    event UpdateEmissions(uint256 amount);\n    event FeeAddressEdit(address _newAddress, bool _isContract);\n\n    event LogEvent(uint256 number, string data);\n\n    constructor(\n        address _niceToken,\n        uint256 _maxEmission,\n        uint256 _nextEmission,\n        uint256 _chains\n    ) {\n        NICE = NICEToken(_niceToken);\n        feeAddress = msg.sender;\n        initMax = _maxEmission; // 20\n        nextMax = _nextEmission; // 10\n        chains = _chains;\n    }\n\n    /// @notice Add Farm of a specific token\n    /// @param _token the token that will be collected, Taken as address since ThirdParty pools will handle their own logic\n    /// @param _mult the multiplier the pool will have\n    /// @param _fee the fee to deposit on the pool\n    /// @param _isLP is the token an LP token\n    /// @param _type is it a regular pool or a third party pool ( TRUE = ThirdParty )\n    /// @param _pidEdit is it a regular pool or a third party pool ( TRUE = ThirdParty )\n    /// @param _pidMulEdit is it a regular pool or a third party pool ( TRUE = ThirdParty )\n    function addPool(\n        address _token,\n        uint256 _mult,\n        bool _type,\n        uint256 _fee,\n        bool _isLP,\n        uint256[] calldata _pidEdit,\n        uint256[] calldata _pidMulEdit\n    ) external onlyOwner {\n        require(_pidEdit.length == _pidMulEdit.length, \"add: wrong edits\");\n        require(_fee < 5001, \"add: invalid fee\");\n        require(tokenPools[_token] == 0, \"add: token repeated\");\n        //update multipliers and current Max\n        updateMultipliers(_pidEdit, _pidMulEdit);\n        require(currentMax + _mult <= maxMult, \"add: wrong multiplier\");\n        currentMax = currentMax + _mult;\n        poolCounter++;\n        poolInfo[poolCounter] = PoolInfo(\n            _type,\n            _mult,\n            _fee,\n            IERC20(_token),\n            0,\n            block.timestamp,\n            _isLP\n        );\n        tokenPools[_token] = poolCounter;\n        if (_type) tpPools[poolCounter] = _token;\n        emit PoolAdded(_token, _mult, _fee, _type, poolCounter);\n    }\n\n    // Make sure multipliers match\n    /// @notice update the multipliers used\n    /// @param _pidEdit pool Id Array\n    /// @param _pidMulEdit multipliers edit array\n    /// @dev both param arrays must have matching lengths\n    function updateMultipliers(\n        uint256[] calldata _pidEdit,\n        uint256[] calldata _pidMulEdit\n    ) internal {\n        if (_pidEdit.length == 0) return;\n        // updateValues\n        uint256 newMax = currentMax;\n        for (uint256 i = 0; i < _pidEdit.length; i++) {\n            require(\n                address(poolInfo[_pidEdit[i]].token) != address(0),\n                \"mult: nonexistent pool\"\n            );\n            //Update the pool reward per share before editing the multiplier\n            updatePool(_pidEdit[i]);\n            newMax = newMax - poolInfo[_pidEdit[i]].mult + _pidMulEdit[i];\n            //decrease old val and increase new val\n            poolInfo[_pidEdit[i]].mult = _pidMulEdit[i];\n        }\n        require(newMax <= maxMult, \"mult: exceeds max\");\n        currentMax = newMax;\n    }\n\n    /// @notice this is for frontend only, calculates the pending reward for a particular user in a specific pool.\n    /// @param _user User to calculate rewards to\n    /// @param _pid Pool Id to calculate rewards of\n    function pendingRewards(address _user, uint256 _pid)\n        external\n        view\n        returns (uint256 _pendingRewards)\n    {\n        PoolInfo storage pool = poolInfo[_pid];\n        UserInfo storage user = userInfo[_pid][_user];\n        if (user.amount == 0) {\n            return 0;\n        }\n        uint256 updatedPerShare = pool.accRewardPerShare;\n        uint256 tokenSupply = pool.token.balanceOf(address(this));\n        if (block.timestamp > pool.lastRewardTs && tokenSupply > 0) {\n            uint256 multiplier = getTimeEmissions(pool) * pool.mult;\n            uint256 maxMultiplier = currentMax * tokenSupply * PERCENT;\n            updatedPerShare = updatedPerShare + (multiplier / maxMultiplier);\n        }\n        _pendingRewards = updatedPerShare * user.amount - user.accClaim;\n    }\n\n    /// @notice Update the accRewardPerShare for a specific pool\n    /// @param _pid Pool Id to update the accumulated rewards\n    function updatePool(uint256 _pid) public {\n        PoolInfo storage pool = poolInfo[_pid];\n        uint256 selfBal = pool.token.balanceOf(address(this));\n        if (\n            pool.mult == 0 ||\n            selfBal == 0 ||\n            block.timestamp <= pool.lastRewardTs\n        ) {\n            pool.lastRewardTs = block.timestamp;\n            return;\n        }\n        uint256 maxMultiplier = currentMax * selfBal;\n        uint256 periodReward = (getTimeEmissions(pool) * pool.mult) /\n            maxMultiplier;\n        pool.lastRewardTs = block.timestamp;\n        pool.accRewardPerShare = pool.accRewardPerShare + periodReward;\n    }\n\n    /// @notice getCurrentEmissions allows external users to get the current reward emissions\n    /// It Uses getTimeEmissions to get the current emissions for the pool between last reward emission and current emission\n    /// @param _pid Pool Id  from which we need emissions calculated\n    /// @return _emissions emissions for the given pool between\n    function getCurrentEmissions(uint256 _pid)\n        public\n        view\n        returns (uint256 _emissions)\n    {\n        PoolInfo storage pool = poolInfo[_pid];\n        if (address(pool.token) == address(0) || pool.mult == 0) return 0;\n        _emissions = getTimeEmissions(pool);\n    }\n\n    /// @notice getCurrentEmissions calculates the current rewards between last reward emission and current emission timestamps\n    /// The function takes into account if that period is within the same year or it spans across two different years, since the emission rate changes yearly\n    /// @param _pool Pool Id  from which we need emissions calculated\n    /// @return _emissions reward token emissions calculated between the last reward emission and the current emission\n    function getTimeEmissions(PoolInfo storage _pool)\n        internal\n        view\n        returns (uint256 _emissions)\n    {\n        (uint256 currentYear, , ) = timestampToDateTime(block.timestamp);\n        (uint256 poolYear, , ) = timestampToDateTime(_pool.lastRewardTs);\n        uint256 divPool;\n        uint256 yearDiff = currentYear - poolYear;\n        uint256 maxEmissions = poolYear > 2022 ? nextMax : initMax;\n        if (poolYear > 2026) return 0;\n\n        divPool = poolYear <= 2023 ? 1 : (2**(poolYear - 2023));\n\n        if (yearDiff > 0) {\n            //LAST YEAR EMISSIONS\n            uint256 timeDiff = timestampFromDateTime(\n                currentYear,\n                1,\n                1,\n                0,\n                0,\n                0\n            ) - _pool.lastRewardTs;\n            _emissions +=\n                (maxEmissions * timeDiff * PERCENT) /\n                (chains * divPool);\n            // NEW YEAR NEW EMISSIONS\n            if (maxEmissions != nextMax) maxEmissions = nextMax;\n            divPool = currentYear == 2023 ? 1 : (2**(currentYear - 2023));\n            timeDiff = currentYear > 2026\n                ? 0\n                : block.timestamp -\n                    timestampFromDateTime(currentYear, 1, 1, 0, 0, 0);\n            _emissions +=\n                (maxEmissions * timeDiff * PERCENT) /\n                (chains * divPool);\n        } else {\n            _emissions =\n                (maxEmissions *\n                    (block.timestamp - _pool.lastRewardTs) *\n                    PERCENT) /\n                (chains * divPool);\n        }\n    }\n\n    /// @notice Update all pools accPerShare\n    /// @dev this might be expensive to call...\n    function massUpdatePools() public {\n        for (uint256 id = 1; id <= poolCounter; id++) {\n            emit LogEvent(id, \"pool update\");\n            if (poolInfo[id].mult == 0) continue;\n            if (!poolInfo[id].poolType) updatePool(id);\n            else _mintRewards(id);\n        }\n    }\n\n    /// @notice This is for Third party pools only. This handles the reward.\n    /// @param _pid ID of the third party pool that requests minted rewards\n    /// @return _rewardsGiven Amount of rewards minted to the third party pool\n    function mintRewards(uint256 _pid)\n        external\n        nonReentrant\n        returns (uint256 _rewardsGiven)\n    {\n        PoolInfo storage pool = poolInfo[_pid];\n        require(pool.poolType && tpPools[_pid] == msg.sender, \"Not tp pool\");\n        _rewardsGiven = _mintRewards(_pid);\n    }\n\n    /// @notice Internal function that Mints the amount of rewards calculated between last emission and current emission\n    /// @param _pid ID of the third party pool that requests minted rewards\n    /// @return _minted Amount of rewards minted to the pool\n    function _mintRewards(uint256 _pid) internal returns (uint256 _minted) {\n        PoolInfo storage pool = poolInfo[_pid];\n        if (block.timestamp <= pool.lastRewardTs) return 0;\n        _minted = (getTimeEmissions(pool) * pool.mult) / (currentMax * PERCENT);\n        pool.lastRewardTs = block.timestamp;\n        NICE.mint(address(pool.token), _minted);\n    }\n\n    /// @notice Allows user to deposit pool token to chef. Transfers rewards to user.\n    /// @param _amount Amount of pool tokens to stake\n    /// @param _pid Pool ID which indicates the type of token\n    function deposit(uint256 _amount, uint256 _pid) external nonReentrant {\n        PoolInfo storage pool = poolInfo[_pid];\n        UserInfo storage user = userInfo[_pid][msg.sender];\n        require(pool.mult > 0, \"Deposit: Pool disabled\");\n        require(!pool.poolType, \"Deposit: Tp Pool\");\n        updatePool(_pid);\n        //Harvest Rewards\n        if (user.amount > 0) {\n            uint256 pending = ((user.amount * pool.accRewardPerShare) /\n                PERCENT) - user.accClaim;\n            if (pending > 0) NICE.mint(msg.sender, pending);\n        }\n        uint256 usedAmount = _amount;\n        if (usedAmount > 0) {\n            if (pool.fee > 0) {\n                usedAmount = (usedAmount * pool.fee) / FEE_DIV;\n                if (address(feeDistributor) == address(0))\n                    pool.token.safeTransferFrom(\n                        address(msg.sender),\n                        feeAddress,\n                        usedAmount\n                    );\n                else {\n                    pool.token.approve(address(feeDistributor), usedAmount);\n                    try feeDistributor.receiveFees(_pid, usedAmount) {\n                        emit LogEvent(usedAmount, \"Success Fee Distribution\");\n                    } catch {\n                        emit LogEvent(usedAmount, \"Failed Fee Distribution\");\n                        pool.token.safeTransferFrom(\n                            address(msg.sender),\n                            feeAddress,\n                            usedAmount\n                        );\n                        pool.token.approve(address(feeDistributor), 0);\n                    }\n                }\n                usedAmount = _amount - usedAmount;\n            }\n            user.amount = user.amount + usedAmount;\n            pool.token.safeTransferFrom(\n                address(msg.sender),\n                address(this),\n                usedAmount\n            );\n        }\n        user.accClaim = (user.amount * pool.accRewardPerShare) / PERCENT;\n        emit Deposit(msg.sender, _pid, _amount);\n    }\n\n    /// @notice Withdraws pool token from chef. Transfers rewards to user.\n    /// @param _amount Amount of pool tokens to withdraw.\n    /// @param _pid Pool ID which indicates the type of token\n    function withdraw(uint256 _amount, uint256 _pid) external nonReentrant {\n        PoolInfo storage pool = poolInfo[_pid];\n        UserInfo storage user = userInfo[_pid][msg.sender];\n        require(!pool.poolType, \"Withdraw: Tp Pool\");\n        require(user.amount >= _amount, \"Withdraw: invalid amount\");\n        updatePool(_pid);\n        uint256 pending = (user.amount * pool.accRewardPerShare) /\n            PERCENT -\n            user.accClaim;\n        if (pending > 0) {\n            NICE.mint(msg.sender, pending);\n        }\n        if (_amount > 0) {\n            user.amount = user.amount - _amount;\n            pool.token.safeTransfer(address(msg.sender), _amount);\n        }\n        user.accClaim = (user.amount * pool.accRewardPerShare) / PERCENT;\n        emit Withdraw(msg.sender, _pid, _amount);\n    }\n\n    /// @notice Emergency withdraws all the pool tokens from chef. In this case there's no reward.\n    /// @param _pid Pool ID which indicates the type of token\n    function emergencyWithdraw(uint256 _pid) external nonReentrant {\n        PoolInfo storage pool = poolInfo[_pid];\n        UserInfo storage user = userInfo[_pid][msg.sender];\n        require(!pool.poolType, \"withdraw: Tp Pool\");\n        require(user.amount > 0, \"Withdraw: invalid amount\");\n        uint256 _amount = user.amount;\n        userInfo[_pid][msg.sender] = UserInfo(0, 0);\n        pool.token.safeTransfer(address(msg.sender), _amount);\n        emit EmergencyWithdraw(msg.sender, _pid, _amount);\n    }\n\n    /// @notice Edits the pool multiplier and updates pools with new params\n    /// @param _pidEdit Pool ID\n    /// @param _pidMulEdit New multiplier\n    function editPoolMult(\n        uint256[] calldata _pidEdit,\n        uint256[] calldata _pidMulEdit\n    ) external onlyOwner {\n        updateMultipliers(_pidEdit, _pidMulEdit);\n        emit UpdatePools(_pidEdit, _pidMulEdit);\n    }\n\n    /// @notice Edits pool fee and updates pools with new params\n    /// @param _pid Pool Id\n    /// @param _fee New pool fee\n    function editPoolFee(uint256 _pid, uint256 _fee) external onlyOwner {\n        PoolInfo storage pool = poolInfo[_pid];\n        require(address(pool.token) != address(0), \"edit: invalid\");\n        require(_fee < 2501, \"edit: high fee\");\n        pool.fee = _fee;\n        emit UpdatePool(_pid, pool.mult, _fee);\n    }\n\n    /// @notice Adds 1 to the amount of chains to which emissions are split\n    /// This factor is used in the emissions calculation\n    function addChain() external onlyOwner {\n        massUpdatePools();\n        chains = chains + 1;\n    }\n\n    function editFeeAddress(address _feeReceiver, bool _isContract)\n        external\n        onlyOwner\n    {\n        if (_isContract) feeDistributor = IFeeDistributor(_feeReceiver);\n        else {\n            require(_feeReceiver != address(0), \"set receiver\");\n            feeAddress = _feeReceiver;\n        }\n        emit FeeAddressEdit(_feeReceiver, _isContract);\n    }\n\n    /// @notice Converts timestamp to date time\n    /// @param year Year\n    /// @param month Month\n    /// @param day Day\n    function timestampToDateTime(uint256 timestamp)\n        internal\n        pure\n        returns (\n            uint256 year,\n            uint256 month,\n            uint256 day\n        )\n    {\n        (year, month, day) = _daysToDate(timestamp / SECONDS_PER_DAY);\n    }\n\n    /// @notice Converts date time into timestamp\n    /// @param year Year\n    /// @param month Month\n    /// @param day Day\n    /// @param hour Hour\n    /// @param minute Minute\n    /// @param second Second\n    function timestampFromDateTime(\n        uint256 year,\n        uint256 month,\n        uint256 day,\n        uint256 hour,\n        uint256 minute,\n        uint256 second\n    ) internal pure returns (uint256 timestamp) {\n        timestamp =\n            _daysFromDate(year, month, day) *\n            SECONDS_PER_DAY +\n            hour *\n            SECONDS_PER_HOUR +\n            minute *\n            SECONDS_PER_MINUTE +\n            second;\n    }\n\n    // -------------------------------------------------------------------`\n    // Timestamp fns taken from BokkyPooBah's DateTime Library\n    //\n    // Gas efficient Solidity date and time library\n    //\n    // https://github.com/bokkypoobah/BokkyPooBahsDateTimeLibrary\n    //\n    // Enjoy. (c) BokkyPooBah / Bok Consulting Pty Ltd 2018.\n    //\n    // GNU Lesser General Public License 3.0\n    // https://www.gnu.org/licenses/lgpl-3.0.en.html\n    // ----------------------------------------------------------------------------\n\n    /// @notice converts days to date\n    /// @param _days amount of days\n    /// @return year\n    /// @return month\n    /// @return day\n    function _daysToDate(uint256 _days)\n        internal\n        pure\n        returns (\n            uint256 year,\n            uint256 month,\n            uint256 day\n        )\n    {\n        int256 __days = int256(_days);\n\n        int256 L = __days + 68569 + OFFSET19700101;\n        int256 N = (4 * L) / 146097;\n        L = L - (146097 * N + 3) / 4;\n        int256 _year = (4000 * (L + 1)) / 1461001;\n        L = L - (1461 * _year) / 4 + 31;\n        int256 _month = (80 * L) / 2447;\n        int256 _day = L - (2447 * _month) / 80;\n        L = _month / 11;\n        _month = _month + 2 - 12 * L;\n        _year = 100 * (N - 49) + _year + L;\n\n        year = uint256(_year);\n        month = uint256(_month);\n        day = uint256(_day);\n    }\n\n    /// @notice converts days to date\n    /// @param year Year\n    /// @param month Month\n    /// @param day Day\n    /// @return _days Days\n    function _daysFromDate(\n        uint256 year,\n        uint256 month,\n        uint256 day\n    ) internal pure returns (uint256 _days) {\n        require(year >= 1970);\n        int256 _year = int256(year);\n        int256 _month = int256(month);\n        int256 _day = int256(day);\n\n        int256 __days = _day -\n            32075 +\n            (1461 * (_year + 4800 + (_month - 14) / 12)) /\n            4 +\n            (367 * (_month - 2 - ((_month - 14) / 12) * 12)) /\n            12 -\n            (3 * ((_year + 4900 + (_month - 14) / 12) / 100)) /\n            4 -\n            OFFSET19700101;\n\n        _days = uint256(__days);\n    }\n}\n",
  "sourcePath": "contracts/GalacticChef.sol",
  "type": "contract"
}