{
  "contractName": "GalacticChef",
  "abi": [
    {
      "inputs": [
        {
          "internalType": "address",
          "name": "_niceToken",
          "type": "address"
        },
        {
          "internalType": "uint256",
          "name": "_maxEmission",
          "type": "uint256"
        },
        {
          "internalType": "uint256",
          "name": "_nextEmission",
          "type": "uint256"
        },
        {
          "internalType": "uint256",
          "name": "_chains",
          "type": "uint256"
        }
      ],
      "stateMutability": "nonpayable",
      "type": "constructor"
    },
    {
      "anonymous": false,
      "inputs": [
        {
          "indexed": true,
          "internalType": "address",
          "name": "user",
          "type": "address"
        },
        {
          "indexed": true,
          "internalType": "uint256",
          "name": "pid",
          "type": "uint256"
        },
        {
          "indexed": false,
          "internalType": "uint256",
          "name": "amount",
          "type": "uint256"
        }
      ],
      "name": "Deposit",
      "type": "event"
    },
    {
      "anonymous": false,
      "inputs": [
        {
          "indexed": true,
          "internalType": "address",
          "name": "user",
          "type": "address"
        },
        {
          "indexed": true,
          "internalType": "uint256",
          "name": "pid",
          "type": "uint256"
        },
        {
          "indexed": false,
          "internalType": "uint256",
          "name": "amount",
          "type": "uint256"
        }
      ],
      "name": "EmergencyWithdraw",
      "type": "event"
    },
    {
      "anonymous": false,
      "inputs": [
        {
          "indexed": false,
          "internalType": "address",
          "name": "_newAddress",
          "type": "address"
        },
        {
          "indexed": false,
          "internalType": "bool",
          "name": "_isContract",
          "type": "bool"
        }
      ],
      "name": "FeeAddressEdit",
      "type": "event"
    },
    {
      "anonymous": false,
      "inputs": [
        {
          "indexed": false,
          "internalType": "uint256",
          "name": "number",
          "type": "uint256"
        },
        {
          "indexed": false,
          "internalType": "string",
          "name": "data",
          "type": "string"
        }
      ],
      "name": "LogEvent",
      "type": "event"
    },
    {
      "anonymous": false,
      "inputs": [
        {
          "indexed": true,
          "internalType": "address",
          "name": "previousOwner",
          "type": "address"
        },
        {
          "indexed": true,
          "internalType": "address",
          "name": "newOwner",
          "type": "address"
        }
      ],
      "name": "OwnershipTransferred",
      "type": "event"
    },
    {
      "anonymous": false,
      "inputs": [
        {
          "indexed": false,
          "internalType": "address",
          "name": "token",
          "type": "address"
        },
        {
          "indexed": false,
          "internalType": "uint256",
          "name": "multiplier",
          "type": "uint256"
        },
        {
          "indexed": false,
          "internalType": "uint256",
          "name": "fee",
          "type": "uint256"
        },
        {
          "indexed": false,
          "internalType": "bool",
          "name": "_type",
          "type": "bool"
        },
        {
          "indexed": false,
          "internalType": "uint256",
          "name": "_pid",
          "type": "uint256"
        }
      ],
      "name": "PoolAdded",
      "type": "event"
    },
    {
      "anonymous": false,
      "inputs": [
        {
          "indexed": false,
          "internalType": "uint256",
          "name": "amount",
          "type": "uint256"
        }
      ],
      "name": "UpdateEmissions",
      "type": "event"
    },
    {
      "anonymous": false,
      "inputs": [
        {
          "indexed": true,
          "internalType": "uint256",
          "name": "pid",
          "type": "uint256"
        },
        {
          "indexed": false,
          "internalType": "uint256",
          "name": "mult",
          "type": "uint256"
        },
        {
          "indexed": false,
          "internalType": "uint256",
          "name": "fee",
          "type": "uint256"
        }
      ],
      "name": "UpdatePool",
      "type": "event"
    },
    {
      "anonymous": false,
      "inputs": [
        {
          "indexed": false,
          "internalType": "uint256[]",
          "name": "pid",
          "type": "uint256[]"
        },
        {
          "indexed": false,
          "internalType": "uint256[]",
          "name": "mult",
          "type": "uint256[]"
        }
      ],
      "name": "UpdatePools",
      "type": "event"
    },
    {
      "anonymous": false,
      "inputs": [
        {
          "indexed": true,
          "internalType": "address",
          "name": "user",
          "type": "address"
        },
        {
          "indexed": true,
          "internalType": "uint256",
          "name": "pid",
          "type": "uint256"
        },
        {
          "indexed": false,
          "internalType": "uint256",
          "name": "amount",
          "type": "uint256"
        }
      ],
      "name": "Withdraw",
      "type": "event"
    },
    {
      "inputs": [],
      "name": "FEE_DIV",
      "outputs": [
        {
          "internalType": "uint256",
          "name": "",
          "type": "uint256"
        }
      ],
      "stateMutability": "view",
      "type": "function"
    },
    {
      "inputs": [],
      "name": "NICE",
      "outputs": [
        {
          "internalType": "contract NiceToken",
          "name": "",
          "type": "address"
        }
      ],
      "stateMutability": "view",
      "type": "function"
    },
    {
      "inputs": [],
      "name": "PERCENT",
      "outputs": [
        {
          "internalType": "uint256",
          "name": "",
          "type": "uint256"
        }
      ],
      "stateMutability": "view",
      "type": "function"
    },
    {
      "inputs": [],
      "name": "chains",
      "outputs": [
        {
          "internalType": "uint256",
          "name": "",
          "type": "uint256"
        }
      ],
      "stateMutability": "view",
      "type": "function"
    },
    {
      "inputs": [],
      "name": "currentMax",
      "outputs": [
        {
          "internalType": "uint256",
          "name": "",
          "type": "uint256"
        }
      ],
      "stateMutability": "view",
      "type": "function"
    },
    {
      "inputs": [],
      "name": "feeAddress",
      "outputs": [
        {
          "internalType": "address",
          "name": "",
          "type": "address"
        }
      ],
      "stateMutability": "view",
      "type": "function"
    },
    {
      "inputs": [],
      "name": "feeDistributor",
      "outputs": [
        {
          "internalType": "contract IFeeDistributor",
          "name": "",
          "type": "address"
        }
      ],
      "stateMutability": "view",
      "type": "function"
    },
    {
      "inputs": [],
      "name": "initMax",
      "outputs": [
        {
          "internalType": "uint256",
          "name": "",
          "type": "uint256"
        }
      ],
      "stateMutability": "view",
      "type": "function"
    },
    {
      "inputs": [],
      "name": "maxMult",
      "outputs": [
        {
          "internalType": "uint256",
          "name": "",
          "type": "uint256"
        }
      ],
      "stateMutability": "view",
      "type": "function"
    },
    {
      "inputs": [],
      "name": "nextMax",
      "outputs": [
        {
          "internalType": "uint256",
          "name": "",
          "type": "uint256"
        }
      ],
      "stateMutability": "view",
      "type": "function"
    },
    {
      "inputs": [],
      "name": "owner",
      "outputs": [
        {
          "internalType": "address",
          "name": "",
          "type": "address"
        }
      ],
      "stateMutability": "view",
      "type": "function"
    },
    {
      "inputs": [],
      "name": "poolCounter",
      "outputs": [
        {
          "internalType": "uint256",
          "name": "",
          "type": "uint256"
        }
      ],
      "stateMutability": "view",
      "type": "function"
    },
    {
      "inputs": [
        {
          "internalType": "uint256",
          "name": "",
          "type": "uint256"
        }
      ],
      "name": "poolInfo",
      "outputs": [
        {
          "internalType": "bool",
          "name": "poolType",
          "type": "bool"
        },
        {
          "internalType": "uint256",
          "name": "mult",
          "type": "uint256"
        },
        {
          "internalType": "uint256",
          "name": "fee",
          "type": "uint256"
        },
        {
          "internalType": "contract IERC20",
          "name": "token",
          "type": "address"
        },
        {
          "internalType": "uint256",
          "name": "accRewardPerShare",
          "type": "uint256"
        },
        {
          "internalType": "uint256",
          "name": "lastRewardTs",
          "type": "uint256"
        },
        {
          "internalType": "bool",
          "name": "isLP",
          "type": "bool"
        }
      ],
      "stateMutability": "view",
      "type": "function"
    },
    {
      "inputs": [],
      "name": "renounceOwnership",
      "outputs": [],
      "stateMutability": "nonpayable",
      "type": "function"
    },
    {
      "inputs": [
        {
          "internalType": "address",
          "name": "",
          "type": "address"
        }
      ],
      "name": "tokenPools",
      "outputs": [
        {
          "internalType": "uint256",
          "name": "",
          "type": "uint256"
        }
      ],
      "stateMutability": "view",
      "type": "function"
    },
    {
      "inputs": [
        {
          "internalType": "uint256",
          "name": "",
          "type": "uint256"
        }
      ],
      "name": "tpPools",
      "outputs": [
        {
          "internalType": "address",
          "name": "",
          "type": "address"
        }
      ],
      "stateMutability": "view",
      "type": "function"
    },
    {
      "inputs": [
        {
          "internalType": "address",
          "name": "newOwner",
          "type": "address"
        }
      ],
      "name": "transferOwnership",
      "outputs": [],
      "stateMutability": "nonpayable",
      "type": "function"
    },
    {
      "inputs": [
        {
          "internalType": "uint256",
          "name": "",
          "type": "uint256"
        },
        {
          "internalType": "address",
          "name": "",
          "type": "address"
        }
      ],
      "name": "userInfo",
      "outputs": [
        {
          "internalType": "uint256",
          "name": "amount",
          "type": "uint256"
        },
        {
          "internalType": "uint256",
          "name": "accClaim",
          "type": "uint256"
        }
      ],
      "stateMutability": "view",
      "type": "function"
    },
    {
      "inputs": [
        {
          "internalType": "address",
          "name": "_token",
          "type": "address"
        },
        {
          "internalType": "uint256",
          "name": "_mult",
          "type": "uint256"
        },
        {
          "internalType": "bool",
          "name": "_type",
          "type": "bool"
        },
        {
          "internalType": "uint256",
          "name": "_fee",
          "type": "uint256"
        },
        {
          "internalType": "bool",
          "name": "_isLP",
          "type": "bool"
        },
        {
          "internalType": "uint256[]",
          "name": "_pidEdit",
          "type": "uint256[]"
        },
        {
          "internalType": "uint256[]",
          "name": "_pidMulEdit",
          "type": "uint256[]"
        }
      ],
      "name": "addPool",
      "outputs": [],
      "stateMutability": "nonpayable",
      "type": "function"
    },
    {
      "inputs": [
        {
          "internalType": "address",
          "name": "_user",
          "type": "address"
        },
        {
          "internalType": "uint256",
          "name": "_pid",
          "type": "uint256"
        }
      ],
      "name": "pendingRewards",
      "outputs": [
        {
          "internalType": "uint256",
          "name": "_pendingRewards",
          "type": "uint256"
        }
      ],
      "stateMutability": "view",
      "type": "function"
    },
    {
      "inputs": [
        {
          "internalType": "uint256",
          "name": "_pid",
          "type": "uint256"
        }
      ],
      "name": "updatePool",
      "outputs": [],
      "stateMutability": "nonpayable",
      "type": "function"
    },
    {
      "inputs": [
        {
          "internalType": "uint256",
          "name": "_pid",
          "type": "uint256"
        }
      ],
      "name": "getCurrentEmissions",
      "outputs": [
        {
          "internalType": "uint256",
          "name": "_emissions",
          "type": "uint256"
        }
      ],
      "stateMutability": "view",
      "type": "function"
    },
    {
      "inputs": [],
      "name": "massUpdatePools",
      "outputs": [],
      "stateMutability": "nonpayable",
      "type": "function"
    },
    {
      "inputs": [
        {
          "internalType": "uint256",
          "name": "_pid",
          "type": "uint256"
        }
      ],
      "name": "mintRewards",
      "outputs": [
        {
          "internalType": "uint256",
          "name": "_rewardsGiven",
          "type": "uint256"
        }
      ],
      "stateMutability": "nonpayable",
      "type": "function"
    },
    {
      "inputs": [
        {
          "internalType": "uint256",
          "name": "_amount",
          "type": "uint256"
        },
        {
          "internalType": "uint256",
          "name": "_pid",
          "type": "uint256"
        }
      ],
      "name": "deposit",
      "outputs": [],
      "stateMutability": "nonpayable",
      "type": "function"
    },
    {
      "inputs": [
        {
          "internalType": "uint256",
          "name": "_amount",
          "type": "uint256"
        },
        {
          "internalType": "uint256",
          "name": "_pid",
          "type": "uint256"
        }
      ],
      "name": "withdraw",
      "outputs": [],
      "stateMutability": "nonpayable",
      "type": "function"
    },
    {
      "inputs": [
        {
          "internalType": "uint256",
          "name": "_pid",
          "type": "uint256"
        }
      ],
      "name": "emergencyWithdraw",
      "outputs": [],
      "stateMutability": "nonpayable",
      "type": "function"
    },
    {
      "inputs": [
        {
          "internalType": "uint256[]",
          "name": "_pidEdit",
          "type": "uint256[]"
        },
        {
          "internalType": "uint256[]",
          "name": "_pidMulEdit",
          "type": "uint256[]"
        }
      ],
      "name": "editPoolMult",
      "outputs": [],
      "stateMutability": "nonpayable",
      "type": "function"
    },
    {
      "inputs": [
        {
          "internalType": "uint256",
          "name": "_pid",
          "type": "uint256"
        },
        {
          "internalType": "uint256",
          "name": "_fee",
          "type": "uint256"
        }
      ],
      "name": "editPoolFee",
      "outputs": [],
      "stateMutability": "nonpayable",
      "type": "function"
    },
    {
      "inputs": [],
      "name": "addChain",
      "outputs": [],
      "stateMutability": "nonpayable",
      "type": "function"
    },
    {
      "inputs": [
        {
          "internalType": "address",
          "name": "_feeReceiver",
          "type": "address"
        },
        {
          "internalType": "bool",
          "name": "_isContract",
          "type": "bool"
        }
      ],
      "name": "editFeeAddress",
      "outputs": [],
      "stateMutability": "nonpayable",
      "type": "function"
    }
  ],
  "bytecode": "0x60c06040523480156200001157600080fd5b50604051620050a5380380620050a583398181016040528101906200003791906200023e565b6000620000496200019160201b60201c565b9050806000806101000a81548173ffffffffffffffffffffffffffffffffffffffff021916908373ffffffffffffffffffffffffffffffffffffffff1602179055508073ffffffffffffffffffffffffffffffffffffffff16600073ffffffffffffffffffffffffffffffffffffffff167f8be0079c531659141344cd1fd0a4f28419497f9722a3daafe3b4186f6b6457e060405160405180910390a3506001808190555083600660006101000a81548173ffffffffffffffffffffffffffffffffffffffff021916908373ffffffffffffffffffffffffffffffffffffffff16021790555033600360006101000a81548173ffffffffffffffffffffffffffffffffffffffff021916908373ffffffffffffffffffffffffffffffffffffffff16021790555082608081815250508160a081815250508060048190555050505050620002b0565b600033905090565b600080fd5b600073ffffffffffffffffffffffffffffffffffffffff82169050919050565b6000620001cb826200019e565b9050919050565b620001dd81620001be565b8114620001e957600080fd5b50565b600081519050620001fd81620001d2565b92915050565b6000819050919050565b620002188162000203565b81146200022457600080fd5b50565b60008151905062000238816200020d565b92915050565b600080600080608085870312156200025b576200025a62000199565b5b60006200026b87828801620001ec565b94505060206200027e8782880162000227565b9350506040620002918782880162000227565b9250506060620002a48782880162000227565b91505092959194509250565b60805160a051614db3620002f2600039600081816105c5015281816128830152818161295b01526129820152600081816115b0015261285d0152614db36000f3fe608060405234801561001057600080fd5b50600436106101e55760003560e01c8063667b72d01161010f578063b85a8b20116100a2578063e155225211610071578063e155225214610551578063e2bbb1581461056d578063f2fde38b14610589578063f5baf4e3146105a5576101e5565b8063b85a8b20146104dd578063bc8f71e9146104fb578063c38f1fbc14610517578063c3d2c3c114610521576101e5565b80638da5cb5b116100de5780638da5cb5b146104405780638f2a37fc1461045e57806393f1a40b1461048e5780639e3079cb146104bf576101e5565b8063667b72d0146103ca5780636a188052146103fa578063715018a6146104185780637379dd1914610422576101e5565b80634b5edd84116101875780635bf67b62116101565780635bf67b62146103585780635e399c59146103745780636099ecb214610390578063630b5ba1146103c0576101e5565b80634b5edd84146102e457806351eb05a6146103025780635312ea8e1461031e57806358a8b85f1461033a576101e5565b806330926486116101c3578063309264861461025c578063412753581461027a578063441a3e70146102985780634828ced9146102b4576101e5565b8063031b1ee3146101ea5780630d43e8ad146102085780631526fe2714610226575b600080fd5b6101f26105c3565b6040516101ff919061335b565b60405180910390f35b6102106105e7565b60405161021d91906133f5565b60405180910390f35b610240600480360381019061023b9190613446565b61060d565b60405161025397969594939291906134af565b60405180910390f35b610264610689565b604051610271919061353f565b60405180910390f35b6102826106af565b60405161028f919061357b565b60405180910390f35b6102b260048036038101906102ad9190613596565b6106d5565b005b6102ce60048036038101906102c99190613446565b610a0c565b6040516102db919061335b565b60405180910390f35b6102ec610b46565b6040516102f9919061335b565b60405180910390f35b61031c60048036038101906103179190613446565b610b4d565b005b61033860048036038101906103339190613446565b610c9f565b005b610342610f23565b60405161034f919061335b565b60405180910390f35b610372600480360381019061036d919061363b565b610f29565b005b61038e60048036038101906103899190613596565b610ff4565b005b6103aa60048036038101906103a591906136e8565b6111ab565b6040516103b7919061335b565b60405180910390f35b6103c8611378565b005b6103e460048036038101906103df9190613446565b61143b565b6040516103f1919061357b565b60405180910390f35b61040261146e565b60405161040f919061335b565b60405180910390f35b610420611474565b005b61042a6115ae565b604051610437919061335b565b60405180910390f35b6104486115d2565b604051610455919061357b565b60405180910390f35b61047860048036038101906104739190613446565b6115fb565b604051610485919061335b565b60405180910390f35b6104a860048036038101906104a39190613728565b611697565b6040516104b6929190613768565b60405180910390f35b6104c76116c8565b6040516104d4919061335b565b60405180910390f35b6104e56116ce565b6040516104f2919061335b565b60405180910390f35b610515600480360381019061051091906137bd565b6116d7565b005b61051f61188e565b005b61053b600480360381019061053691906137fd565b611929565b604051610548919061335b565b60405180910390f35b61056b6004803603810190610566919061382a565b611941565b005b61058760048036038101906105829190613596565b611d58565b005b6105a3600480360381019061059e91906137fd565b6124ae565b005b6105ad612657565b6040516105ba919061335b565b60405180910390f35b7f000000000000000000000000000000000000000000000000000000000000000081565b600760009054906101000a900473ffffffffffffffffffffffffffffffffffffffff1681565b60096020528060005260406000206000915090508060000160009054906101000a900460ff16908060010154908060020154908060030160009054906101000a900473ffffffffffffffffffffffffffffffffffffffff16908060040154908060050154908060060160009054906101000a900460ff16905087565b600660009054906101000a900473ffffffffffffffffffffffffffffffffffffffff1681565b600360009054906101000a900473ffffffffffffffffffffffffffffffffffffffff1681565b6002600154141561071b576040517f08c379a000000000000000000000000000000000000000000000000000000000815260040161071290613969565b60405180910390fd5b6002600181905550600060096000838152602001908152602001600020905060006008600084815260200190815260200160002060003373ffffffffffffffffffffffffffffffffffffffff1673ffffffffffffffffffffffffffffffffffffffff16815260200190815260200160002090508160000160009054906101000a900460ff16156107e0576040517f08c379a00000000000000000000000000000000000000000000000000000000081526004016107d7906139d5565b60405180910390fd5b8381600001541015610827576040517f08c379a000000000000000000000000000000000000000000000000000000000815260040161081e90613a41565b60405180910390fd5b61083083610b4d565b6000816001015464e8d4a51000846004015484600001546108519190613a90565b61085b9190613b19565b6108659190613b4a565b9050600081111561091257600660009054906101000a900473ffffffffffffffffffffffffffffffffffffffff1673ffffffffffffffffffffffffffffffffffffffff166340c10f1933836040518363ffffffff1660e01b81526004016108cd929190613b7e565b6020604051808303816000875af11580156108ec573d6000803e3d6000fd5b505050506040513d601f19601f820116820180604052508101906109109190613bbc565b505b60008511156109835784826000015461092b9190613b4a565b826000018190555061098233868560030160009054906101000a900473ffffffffffffffffffffffffffffffffffffffff1673ffffffffffffffffffffffffffffffffffffffff1661265d9092919063ffffffff16565b5b64e8d4a510008360040154836000015461099d9190613a90565b6109a79190613b19565b8260010181905550833373ffffffffffffffffffffffffffffffffffffffff167ff279e6a1f5e320cca91135676d9cb6e44ca8a08c0b88342bcdb1144f6511b568876040516109f6919061335b565b60405180910390a3505050600180819055505050565b600060026001541415610a54576040517f08c379a0000000000000000000000000000000000000000000000000000000008152600401610a4b90613969565b60405180910390fd5b600260018190555060006009600084815260200190815260200160002090508060000160009054906101000a900460ff168015610aef57503373ffffffffffffffffffffffffffffffffffffffff16600a600085815260200190815260200160002060009054906101000a900473ffffffffffffffffffffffffffffffffffffffff1673ffffffffffffffffffffffffffffffffffffffff16145b610b2e576040517f08c379a0000000000000000000000000000000000000000000000000000000008152600401610b2590613c35565b60405180910390fd5b610b37836126e3565b91505060018081905550919050565b620f424081565b600060096000838152602001908152602001600020905060008160030160009054906101000a900473ffffffffffffffffffffffffffffffffffffffff1673ffffffffffffffffffffffffffffffffffffffff166370a08231306040518263ffffffff1660e01b8152600401610bc3919061357b565b602060405180830381865afa158015610be0573d6000803e3d6000fd5b505050506040513d601f19601f82011682018060405250810190610c049190613c6a565b9050600082600101541480610c195750600081145b80610c28575081600501544211155b15610c3d574282600501819055505050610c9c565b600081600254610c4d9190613a90565b90506000818460010154610c608661281c565b610c6a9190613a90565b610c749190613b19565b9050428460050181905550808460040154610c8f9190613c97565b8460040181905550505050505b50565b60026001541415610ce5576040517f08c379a0000000000000000000000000000000000000000000000000000000008152600401610cdc90613969565b60405180910390fd5b6002600181905550600060096000838152602001908152602001600020905060006008600084815260200190815260200160002060003373ffffffffffffffffffffffffffffffffffffffff1673ffffffffffffffffffffffffffffffffffffffff16815260200190815260200160002090508160000160009054906101000a900460ff1615610daa576040517f08c379a0000000000000000000000000000000000000000000000000000000008152600401610da190613d39565b60405180910390fd5b6000816000015411610df1576040517f08c379a0000000000000000000000000000000000000000000000000000000008152600401610de890613a41565b60405180910390fd5b60008160000154905060405180604001604052806000815260200160008152506008600086815260200190815260200160002060003373ffffffffffffffffffffffffffffffffffffffff1673ffffffffffffffffffffffffffffffffffffffff1681526020019081526020016000206000820151816000015560208201518160010155905050610ec733828560030160009054906101000a900473ffffffffffffffffffffffffffffffffffffffff1673ffffffffffffffffffffffffffffffffffffffff1661265d9092919063ffffffff16565b833373ffffffffffffffffffffffffffffffffffffffff167fbb757047c2b5f3974fe26b7c10f732e7bce710b0952a71082702781e62ae059583604051610f0e919061335b565b60405180910390a35050506001808190555050565b60045481565b610f31612a98565b73ffffffffffffffffffffffffffffffffffffffff16610f4f6115d2565b73ffffffffffffffffffffffffffffffffffffffff1614610fa5576040517f08c379a0000000000000000000000000000000000000000000000000000000008152600401610f9c90613da5565b60405180910390fd5b610fb184848484612aa0565b7f2a46f3e26dd9e5eeedeb561e5e212df0d3b0f82ad30bd3b55e548212c057b16384848484604051610fe69493929190613e46565b60405180910390a150505050565b610ffc612a98565b73ffffffffffffffffffffffffffffffffffffffff1661101a6115d2565b73ffffffffffffffffffffffffffffffffffffffff1614611070576040517f08c379a000000000000000000000000000000000000000000000000000000000815260040161106790613da5565b60405180910390fd5b6000600960008481526020019081526020016000209050600073ffffffffffffffffffffffffffffffffffffffff168160030160009054906101000a900473ffffffffffffffffffffffffffffffffffffffff1673ffffffffffffffffffffffffffffffffffffffff16141561111b576040517f08c379a000000000000000000000000000000000000000000000000000000000815260040161111290613ecd565b60405180910390fd5b6109c5821061115f576040517f08c379a000000000000000000000000000000000000000000000000000000000815260040161115690613f39565b60405180910390fd5b818160020181905550827ff5d2d72d9b25d6853afd7d0554a113b705234b6a68bb36b7f14366299463241182600101548460405161119e929190613768565b60405180910390a2505050565b60008060096000848152602001908152602001600020905060006008600085815260200190815260200160002060008673ffffffffffffffffffffffffffffffffffffffff1673ffffffffffffffffffffffffffffffffffffffff168152602001908152602001600020905060008160000154141561122f57600092505050611372565b60008260040154905060008360030160009054906101000a900473ffffffffffffffffffffffffffffffffffffffff1673ffffffffffffffffffffffffffffffffffffffff166370a08231306040518263ffffffff1660e01b8152600401611297919061357b565b602060405180830381865afa1580156112b4573d6000803e3d6000fd5b505050506040513d601f19601f820116820180604052508101906112d89190613c6a565b90508360050154421180156112ed5750600081115b1561134c57600084600101546113028661281c565b61130c9190613a90565b9050600064e8d4a51000836002546113249190613a90565b61132e9190613a90565b9050808261133c9190613b19565b846113479190613c97565b935050505b82600101548360000154836113619190613a90565b61136b9190613b4a565b9450505050505b92915050565b6000600190505b6005548111611438577f0d5a0dba7395a48387b3738f86b7958feb691d5f5db50749c87d270ba92ddadc816040516113b79190613fa5565b60405180910390a16000600960008381526020019081526020016000206001015414156113e357611425565b6009600082815260200190815260200160002060000160009054906101000a900460ff166114195761141481610b4d565b611424565b611422816126e3565b505b5b808061143090613fd3565b91505061137f565b50565b600a6020528060005260406000206000915054906101000a900473ffffffffffffffffffffffffffffffffffffffff1681565b60025481565b61147c612a98565b73ffffffffffffffffffffffffffffffffffffffff1661149a6115d2565b73ffffffffffffffffffffffffffffffffffffffff16146114f0576040517f08c379a00000000000000000000000000000000000000000000000000000000081526004016114e790613da5565b60405180910390fd5b600073ffffffffffffffffffffffffffffffffffffffff1660008054906101000a900473ffffffffffffffffffffffffffffffffffffffff1673ffffffffffffffffffffffffffffffffffffffff167f8be0079c531659141344cd1fd0a4f28419497f9722a3daafe3b4186f6b6457e060405160405180910390a360008060006101000a81548173ffffffffffffffffffffffffffffffffffffffff021916908373ffffffffffffffffffffffffffffffffffffffff160217905550565b7f000000000000000000000000000000000000000000000000000000000000000081565b60008060009054906101000a900473ffffffffffffffffffffffffffffffffffffffff16905090565b600080600960008481526020019081526020016000209050600073ffffffffffffffffffffffffffffffffffffffff168160030160009054906101000a900473ffffffffffffffffffffffffffffffffffffffff1673ffffffffffffffffffffffffffffffffffffffff161480611676575060008160010154145b15611685576000915050611692565b61168e8161281c565b9150505b919050565b6008602052816000526040600020602052806000526040600020600091509150508060000154908060010154905082565b60055481565b64e8d4a5100081565b6116df612a98565b73ffffffffffffffffffffffffffffffffffffffff166116fd6115d2565b73ffffffffffffffffffffffffffffffffffffffff1614611753576040517f08c379a000000000000000000000000000000000000000000000000000000000815260040161174a90613da5565b60405180910390fd5b801561179f5781600760006101000a81548173ffffffffffffffffffffffffffffffffffffffff021916908373ffffffffffffffffffffffffffffffffffffffff160217905550611851565b600073ffffffffffffffffffffffffffffffffffffffff168273ffffffffffffffffffffffffffffffffffffffff16141561180f576040517f08c379a000000000000000000000000000000000000000000000000000000000815260040161180690614068565b60405180910390fd5b81600360006101000a81548173ffffffffffffffffffffffffffffffffffffffff021916908373ffffffffffffffffffffffffffffffffffffffff1602179055505b7fcd51f9f86222e46143649f996c1603de7585e14c114955985ccc53117ef39f268282604051611882929190614088565b60405180910390a15050565b611896612a98565b73ffffffffffffffffffffffffffffffffffffffff166118b46115d2565b73ffffffffffffffffffffffffffffffffffffffff161461190a576040517f08c379a000000000000000000000000000000000000000000000000000000000815260040161190190613da5565b60405180910390fd5b611912611378565b60016004546119219190613c97565b600481905550565b600b6020528060005260406000206000915090505481565b611949612a98565b73ffffffffffffffffffffffffffffffffffffffff166119676115d2565b73ffffffffffffffffffffffffffffffffffffffff16146119bd576040517f08c379a00000000000000000000000000000000000000000000000000000000081526004016119b490613da5565b60405180910390fd5b818190508484905014611a05576040517f08c379a00000000000000000000000000000000000000000000000000000000081526004016119fc906140fd565b60405180910390fd5b6113898610611a49576040517f08c379a0000000000000000000000000000000000000000000000000000000008152600401611a4090614169565b60405180910390fd5b6000600b60008b73ffffffffffffffffffffffffffffffffffffffff1673ffffffffffffffffffffffffffffffffffffffff1681526020019081526020016000205414611acb576040517f08c379a0000000000000000000000000000000000000000000000000000000008152600401611ac2906141d5565b60405180910390fd5b611ad784848484612aa0565b620f424088600254611ae99190613c97565b1115611b2a576040517f08c379a0000000000000000000000000000000000000000000000000000000008152600401611b2190614241565b60405180910390fd5b87600254611b389190613c97565b60028190555060056000815480929190611b5190613fd3565b91905055506040518060e0016040528088151581526020018981526020018781526020018a73ffffffffffffffffffffffffffffffffffffffff1681526020016000815260200142815260200186151581525060096000600554815260200190815260200160002060008201518160000160006101000a81548160ff021916908315150217905550602082015181600101556040820151816002015560608201518160030160006101000a81548173ffffffffffffffffffffffffffffffffffffffff021916908373ffffffffffffffffffffffffffffffffffffffff1602179055506080820151816004015560a0820151816005015560c08201518160060160006101000a81548160ff021916908315150217905550905050600554600b60008b73ffffffffffffffffffffffffffffffffffffffff1673ffffffffffffffffffffffffffffffffffffffff168152602001908152602001600020819055508615611d0c5788600a6000600554815260200190815260200160002060006101000a81548173ffffffffffffffffffffffffffffffffffffffff021916908373ffffffffffffffffffffffffffffffffffffffff1602179055505b7fd5d9095da54a196ff732904e2f9e23dcb985825a8fd9a6b80f9b8d69fca774a28989888a600554604051611d45959493929190614261565b60405180910390a1505050505050505050565b60026001541415611d9e576040517f08c379a0000000000000000000000000000000000000000000000000000000008152600401611d9590613969565b60405180910390fd5b6002600181905550600060096000838152602001908152602001600020905060006008600084815260200190815260200160002060003373ffffffffffffffffffffffffffffffffffffffff1673ffffffffffffffffffffffffffffffffffffffff16815260200190815260200160002090506000826001015411611e58576040517f08c379a0000000000000000000000000000000000000000000000000000000008152600401611e4f90614300565b60405180910390fd5b8160000160009054906101000a900460ff1615611eaa576040517f08c379a0000000000000000000000000000000000000000000000000000000008152600401611ea19061436c565b60405180910390fd5b611eb383610b4d565b600081600001541115611fa4576000816001015464e8d4a5100084600401548460000154611ee19190613a90565b611eeb9190613b19565b611ef59190613b4a565b90506000811115611fa257600660009054906101000a900473ffffffffffffffffffffffffffffffffffffffff1673ffffffffffffffffffffffffffffffffffffffff166340c10f1933836040518363ffffffff1660e01b8152600401611f5d929190613b7e565b6020604051808303816000875af1158015611f7c573d6000803e3d6000fd5b505050506040513d601f19601f82011682018060405250810190611fa09190613bbc565b505b505b60008490506000811115612425576000836002015411156123bb57612710836002015482611fd29190613a90565b611fdc9190613b19565b9050600073ffffffffffffffffffffffffffffffffffffffff16600760009054906101000a900473ffffffffffffffffffffffffffffffffffffffff1673ffffffffffffffffffffffffffffffffffffffff1614156120ad576120a833600360009054906101000a900473ffffffffffffffffffffffffffffffffffffffff16838660030160009054906101000a900473ffffffffffffffffffffffffffffffffffffffff1673ffffffffffffffffffffffffffffffffffffffff16612cbe909392919063ffffffff16565b6123ac565b8260030160009054906101000a900473ffffffffffffffffffffffffffffffffffffffff1673ffffffffffffffffffffffffffffffffffffffff1663095ea7b3600760009054906101000a900473ffffffffffffffffffffffffffffffffffffffff16836040518363ffffffff1660e01b815260040161212e929190613b7e565b6020604051808303816000875af115801561214d573d6000803e3d6000fd5b505050506040513d601f19601f820116820180604052508101906121719190613bbc565b50600760009054906101000a900473ffffffffffffffffffffffffffffffffffffffff1673ffffffffffffffffffffffffffffffffffffffff16634f34875885836040518363ffffffff1660e01b81526004016121cf929190613768565b600060405180830381600087803b1580156121e957600080fd5b505af19250505080156121fa575060015b612373577f0d5a0dba7395a48387b3738f86b7958feb691d5f5db50749c87d270ba92ddadc8160405161222d91906143d8565b60405180910390a16122a833600360009054906101000a900473ffffffffffffffffffffffffffffffffffffffff16838660030160009054906101000a900473ffffffffffffffffffffffffffffffffffffffff1673ffffffffffffffffffffffffffffffffffffffff16612cbe909392919063ffffffff16565b8260030160009054906101000a900473ffffffffffffffffffffffffffffffffffffffff1673ffffffffffffffffffffffffffffffffffffffff1663095ea7b3600760009054906101000a900473ffffffffffffffffffffffffffffffffffffffff1660006040518363ffffffff1660e01b815260040161232a929190614441565b6020604051808303816000875af1158015612349573d6000803e3d6000fd5b505050506040513d601f19601f8201168201806040525081019061236d9190613bbc565b506123ab565b7f0d5a0dba7395a48387b3738f86b7958feb691d5f5db50749c87d270ba92ddadc816040516123a291906144b6565b60405180910390a15b5b80856123b89190613b4a565b90505b8082600001546123cb9190613c97565b82600001819055506124243330838660030160009054906101000a900473ffffffffffffffffffffffffffffffffffffffff1673ffffffffffffffffffffffffffffffffffffffff16612cbe909392919063ffffffff16565b5b64e8d4a510008360040154836000015461243f9190613a90565b6124499190613b19565b8260010181905550833373ffffffffffffffffffffffffffffffffffffffff167f90890809c654f11d6e72a28fa60149770a0d11ec6c92319d6ceb2bb0a4ea1a1587604051612498919061335b565b60405180910390a3505050600180819055505050565b6124b6612a98565b73ffffffffffffffffffffffffffffffffffffffff166124d46115d2565b73ffffffffffffffffffffffffffffffffffffffff161461252a576040517f08c379a000000000000000000000000000000000000000000000000000000000815260040161252190613da5565b60405180910390fd5b600073ffffffffffffffffffffffffffffffffffffffff168173ffffffffffffffffffffffffffffffffffffffff16141561259a576040517f08c379a000000000000000000000000000000000000000000000000000000000815260040161259190614556565b60405180910390fd5b8073ffffffffffffffffffffffffffffffffffffffff1660008054906101000a900473ffffffffffffffffffffffffffffffffffffffff1673ffffffffffffffffffffffffffffffffffffffff167f8be0079c531659141344cd1fd0a4f28419497f9722a3daafe3b4186f6b6457e060405160405180910390a3806000806101000a81548173ffffffffffffffffffffffffffffffffffffffff021916908373ffffffffffffffffffffffffffffffffffffffff16021790555050565b61271081565b6126de8363a9059cbb60e01b848460405160240161267c929190613b7e565b604051602081830303815290604052907bffffffffffffffffffffffffffffffffffffffffffffffffffffffff19166020820180517bffffffffffffffffffffffffffffffffffffffffffffffffffffffff8381831617835250505050612d47565b505050565b60008060096000848152602001908152602001600020905080600501544211612710576000915050612817565b64e8d4a510006002546127239190613a90565b81600101546127318361281c565b61273b9190613a90565b6127459190613b19565b9150428160050181905550600660009054906101000a900473ffffffffffffffffffffffffffffffffffffffff1673ffffffffffffffffffffffffffffffffffffffff166340c10f198260030160009054906101000a900473ffffffffffffffffffffffffffffffffffffffff16846040518363ffffffff1660e01b81526004016127d1929190613b7e565b6020604051808303816000875af11580156127f0573d6000803e3d6000fd5b505050506040513d601f19601f820116820180604052508101906128149190613bbc565b50505b919050565b60008061282842612e0e565b50509050600061283b8460050154612e0e565b50509050600080828461284e9190613b4a565b905060006107e68411612881577f00000000000000000000000000000000000000000000000000000000000000006128a3565b7f00000000000000000000000000000000000000000000000000000000000000005b90506107ea8411156128bd57600095505050505050612a93565b6107e78411156128e6576107e7846128d59190613b4a565b60026128e191906146a9565b6128e9565b60015b92506000821115612a47576000876005015461290c876001806000806000612e3d565b6129169190613b4a565b9050836004546129269190613a90565b64e8d4a5100082846129389190613a90565b6129429190613a90565b61294c9190613b19565b876129579190613c97565b96507f000000000000000000000000000000000000000000000000000000000000000082146129a4577f000000000000000000000000000000000000000000000000000000000000000091505b6107e786146129cc576107e7866129bb9190613b4a565b60026129c791906146a9565b6129cf565b60015b93506107ea86116129fb576129eb866001806000806000612e3d565b426129f69190613b4a565b6129fe565b60005b905083600454612a0e9190613a90565b64e8d4a510008284612a209190613a90565b612a2a9190613a90565b612a349190613b19565b87612a3f9190613c97565b965050612a8d565b82600454612a559190613a90565b64e8d4a51000886005015442612a6b9190613b4a565b83612a769190613a90565b612a809190613a90565b612a8a9190613b19565b95505b50505050505b919050565b600033905090565b6000848490501415612ab157612cb8565b6000600254905060005b85859050811015612c6857600073ffffffffffffffffffffffffffffffffffffffff1660096000888885818110612af557612af46146f4565b5b90506020020135815260200190815260200160002060030160009054906101000a900473ffffffffffffffffffffffffffffffffffffffff1673ffffffffffffffffffffffffffffffffffffffff161415612b85576040517f08c379a0000000000000000000000000000000000000000000000000000000008152600401612b7c9061476f565b60405180910390fd5b612ba7868683818110612b9b57612b9a6146f4565b5b90506020020135610b4d565b838382818110612bba57612bb96146f4565b5b9050602002013560096000888885818110612bd857612bd76146f4565b5b9050602002013581526020019081526020016000206001015483612bfc9190613b4a565b612c069190613c97565b9150838382818110612c1b57612c1a6146f4565b5b9050602002013560096000888885818110612c3957612c386146f4565b5b905060200201358152602001908152602001600020600101819055508080612c6090613fd3565b915050612abb565b50620f4240811115612caf576040517f08c379a0000000000000000000000000000000000000000000000000000000008152600401612ca6906147db565b60405180910390fd5b80600281905550505b50505050565b612d41846323b872dd60e01b858585604051602401612cdf939291906147fb565b604051602081830303815290604052907bffffffffffffffffffffffffffffffffffffffffffffffffffffffff19166020820180517bffffffffffffffffffffffffffffffffffffffffffffffffffffffff8381831617835250505050612d47565b50505050565b6000612da9826040518060400160405280602081526020017f5361666545524332303a206c6f772d6c6576656c2063616c6c206661696c65648152508573ffffffffffffffffffffffffffffffffffffffff16612e9e9092919063ffffffff16565b9050600081511115612e095780806020019051810190612dc99190613bbc565b612e08576040517f08c379a0000000000000000000000000000000000000000000000000000000008152600401612dff906148a4565b60405180910390fd5b5b505050565b6000806000612e2a6201518085612e259190613b19565b612eb6565b8093508194508295505050509193909250565b600081603c84612e4d9190613a90565b610e1086612e5b9190613a90565b62015180612e6a8b8b8b613055565b612e749190613a90565b612e7e9190613c97565b612e889190613c97565b612e929190613c97565b90509695505050505050565b6060612ead84846000856131b4565b90509392505050565b600080600080849050600062253d8c62010bd983612ed491906148ce565b612ede91906148ce565b9050600062023ab1826004612ef39190614962565b612efd9190614a79565b9050600460038262023ab1612f129190614962565b612f1c91906148ce565b612f269190614a79565b82612f319190614ae3565b9150600062164b09600184612f4691906148ce565b610fa0612f539190614962565b612f5d9190614a79565b9050601f6004826105b5612f719190614962565b612f7b9190614a79565b84612f869190614ae3565b612f9091906148ce565b9250600061098f846050612fa49190614962565b612fae9190614a79565b9050600060508261098f612fc29190614962565b612fcc9190614a79565b85612fd79190614ae3565b9050600b82612fe69190614a79565b945084600c612ff59190614962565b60028361300291906148ce565b61300c9190614ae3565b9150848360318661301d9190614ae3565b60646130299190614962565b61303391906148ce565b61303d91906148ce565b92508298508197508096505050505050509193909250565b60006107b284101561306657600080fd5b600084905060008490506000849050600062253d8c60046064600c600e8761308e9190614ae3565b6130989190614a79565b611324886130a691906148ce565b6130b091906148ce565b6130ba9190614a79565b60036130c69190614962565b6130d09190614a79565b600c80600c600e886130e29190614ae3565b6130ec9190614a79565b6130f69190614962565b6002876131039190614ae3565b61310d9190614ae3565b61016f61311a9190614962565b6131249190614a79565b6004600c600e886131359190614ae3565b61313f9190614a79565b6112c08961314d91906148ce565b61315791906148ce565b6105b56131649190614962565b61316e9190614a79565b617d4b8661317c9190614ae3565b61318691906148ce565b61319091906148ce565b61319a9190614ae3565b6131a49190614ae3565b9050809450505050509392505050565b6060824710156131f9576040517f08c379a00000000000000000000000000000000000000000000000000000000081526004016131f090614be9565b60405180910390fd5b613202856132c8565b613241576040517f08c379a000000000000000000000000000000000000000000000000000000000815260040161323890614c55565b60405180910390fd5b6000808673ffffffffffffffffffffffffffffffffffffffff16858760405161326a9190614cef565b60006040518083038185875af1925050503d80600081146132a7576040519150601f19603f3d011682016040523d82523d6000602084013e6132ac565b606091505b50915091506132bc8282866132db565b92505050949350505050565b600080823b905060008111915050919050565b606083156132eb5782905061333b565b6000835111156132fe5782518084602001fd5b816040517f08c379a00000000000000000000000000000000000000000000000000000000081526004016133329190614d5b565b60405180910390fd5b9392505050565b6000819050919050565b61335581613342565b82525050565b6000602082019050613370600083018461334c565b92915050565b600073ffffffffffffffffffffffffffffffffffffffff82169050919050565b6000819050919050565b60006133bb6133b66133b184613376565b613396565b613376565b9050919050565b60006133cd826133a0565b9050919050565b60006133df826133c2565b9050919050565b6133ef816133d4565b82525050565b600060208201905061340a60008301846133e6565b92915050565b600080fd5b600080fd5b61342381613342565b811461342e57600080fd5b50565b6000813590506134408161341a565b92915050565b60006020828403121561345c5761345b613410565b5b600061346a84828501613431565b91505092915050565b60008115159050919050565b61348881613473565b82525050565b6000613499826133c2565b9050919050565b6134a98161348e565b82525050565b600060e0820190506134c4600083018a61347f565b6134d1602083018961334c565b6134de604083018861334c565b6134eb60608301876134a0565b6134f8608083018661334c565b61350560a083018561334c565b61351260c083018461347f565b98975050505050505050565b6000613529826133c2565b9050919050565b6135398161351e565b82525050565b60006020820190506135546000830184613530565b92915050565b600061356582613376565b9050919050565b6135758161355a565b82525050565b6000602082019050613590600083018461356c565b92915050565b600080604083850312156135ad576135ac613410565b5b60006135bb85828601613431565b92505060206135cc85828601613431565b9150509250929050565b600080fd5b600080fd5b600080fd5b60008083601f8401126135fb576135fa6135d6565b5b8235905067ffffffffffffffff811115613618576136176135db565b5b602083019150836020820283011115613634576136336135e0565b5b9250929050565b6000806000806040858703121561365557613654613410565b5b600085013567ffffffffffffffff81111561367357613672613415565b5b61367f878288016135e5565b9450945050602085013567ffffffffffffffff8111156136a2576136a1613415565b5b6136ae878288016135e5565b925092505092959194509250565b6136c58161355a565b81146136d057600080fd5b50565b6000813590506136e2816136bc565b92915050565b600080604083850312156136ff576136fe613410565b5b600061370d858286016136d3565b925050602061371e85828601613431565b9150509250929050565b6000806040838503121561373f5761373e613410565b5b600061374d85828601613431565b925050602061375e858286016136d3565b9150509250929050565b600060408201905061377d600083018561334c565b61378a602083018461334c565b9392505050565b61379a81613473565b81146137a557600080fd5b50565b6000813590506137b781613791565b92915050565b600080604083850312156137d4576137d3613410565b5b60006137e2858286016136d3565b92505060206137f3858286016137a8565b9150509250929050565b60006020828403121561381357613812613410565b5b6000613821848285016136d3565b91505092915050565b600080600080600080600080600060e08a8c03121561384c5761384b613410565b5b600061385a8c828d016136d3565b995050602061386b8c828d01613431565b985050604061387c8c828d016137a8565b975050606061388d8c828d01613431565b965050608061389e8c828d016137a8565b95505060a08a013567ffffffffffffffff8111156138bf576138be613415565b5b6138cb8c828d016135e5565b945094505060c08a013567ffffffffffffffff8111156138ee576138ed613415565b5b6138fa8c828d016135e5565b92509250509295985092959850929598565b600082825260208201905092915050565b7f5265656e7472616e637947756172643a207265656e7472616e742063616c6c00600082015250565b6000613953601f8361390c565b915061395e8261391d565b602082019050919050565b6000602082019050818103600083015261398281613946565b9050919050565b7f57697468647261773a20547020506f6f6c000000000000000000000000000000600082015250565b60006139bf60118361390c565b91506139ca82613989565b602082019050919050565b600060208201905081810360008301526139ee816139b2565b9050919050565b7f57697468647261773a20696e76616c696420616d6f756e740000000000000000600082015250565b6000613a2b60188361390c565b9150613a36826139f5565b602082019050919050565b60006020820190508181036000830152613a5a81613a1e565b9050919050565b7f4e487b7100000000000000000000000000000000000000000000000000000000600052601160045260246000fd5b6000613a9b82613342565b9150613aa683613342565b9250817fffffffffffffffffffffffffffffffffffffffffffffffffffffffffffffffff0483118215151615613adf57613ade613a61565b5b828202905092915050565b7f4e487b7100000000000000000000000000000000000000000000000000000000600052601260045260246000fd5b6000613b2482613342565b9150613b2f83613342565b925082613b3f57613b3e613aea565b5b828204905092915050565b6000613b5582613342565b9150613b6083613342565b925082821015613b7357613b72613a61565b5b828203905092915050565b6000604082019050613b93600083018561356c565b613ba0602083018461334c565b9392505050565b600081519050613bb681613791565b92915050565b600060208284031215613bd257613bd1613410565b5b6000613be084828501613ba7565b91505092915050565b7f4e6f7420747020706f6f6c000000000000000000000000000000000000000000600082015250565b6000613c1f600b8361390c565b9150613c2a82613be9565b602082019050919050565b60006020820190508181036000830152613c4e81613c12565b9050919050565b600081519050613c648161341a565b92915050565b600060208284031215613c8057613c7f613410565b5b6000613c8e84828501613c55565b91505092915050565b6000613ca282613342565b9150613cad83613342565b9250827fffffffffffffffffffffffffffffffffffffffffffffffffffffffffffffffff03821115613ce257613ce1613a61565b5b828201905092915050565b7f77697468647261773a20547020506f6f6c000000000000000000000000000000600082015250565b6000613d2360118361390c565b9150613d2e82613ced565b602082019050919050565b60006020820190508181036000830152613d5281613d16565b9050919050565b7f4f776e61626c653a2063616c6c6572206973206e6f7420746865206f776e6572600082015250565b6000613d8f60208361390c565b9150613d9a82613d59565b602082019050919050565b60006020820190508181036000830152613dbe81613d82565b9050919050565b600082825260208201905092915050565b600080fd5b82818337600083830152505050565b6000613df68385613dc5565b93507f07ffffffffffffffffffffffffffffffffffffffffffffffffffffffffffffff831115613e2957613e28613dd6565b5b602083029250613e3a838584613ddb565b82840190509392505050565b60006040820190508181036000830152613e61818688613dea565b90508181036020830152613e76818486613dea565b905095945050505050565b7f656469743a20696e76616c696400000000000000000000000000000000000000600082015250565b6000613eb7600d8361390c565b9150613ec282613e81565b602082019050919050565b60006020820190508181036000830152613ee681613eaa565b9050919050565b7f656469743a206869676820666565000000000000000000000000000000000000600082015250565b6000613f23600e8361390c565b9150613f2e82613eed565b602082019050919050565b60006020820190508181036000830152613f5281613f16565b9050919050565b7f706f6f6c20757064617465000000000000000000000000000000000000000000600082015250565b6000613f8f600b8361390c565b9150613f9a82613f59565b602082019050919050565b6000604082019050613fba600083018461334c565b8181036020830152613fcb81613f82565b905092915050565b6000613fde82613342565b91507fffffffffffffffffffffffffffffffffffffffffffffffffffffffffffffffff82141561401157614010613a61565b5b600182019050919050565b7f7365742072656365697665720000000000000000000000000000000000000000600082015250565b6000614052600c8361390c565b915061405d8261401c565b602082019050919050565b6000602082019050818103600083015261408181614045565b9050919050565b600060408201905061409d600083018561356c565b6140aa602083018461347f565b9392505050565b7f6164643a2077726f6e6720656469747300000000000000000000000000000000600082015250565b60006140e760108361390c565b91506140f2826140b1565b602082019050919050565b60006020820190508181036000830152614116816140da565b9050919050565b7f6164643a20696e76616c69642066656500000000000000000000000000000000600082015250565b600061415360108361390c565b915061415e8261411d565b602082019050919050565b6000602082019050818103600083015261418281614146565b9050919050565b7f6164643a20746f6b656e20726570656174656400000000000000000000000000600082015250565b60006141bf60138361390c565b91506141ca82614189565b602082019050919050565b600060208201905081810360008301526141ee816141b2565b9050919050565b7f6164643a2077726f6e67206d756c7469706c6965720000000000000000000000600082015250565b600061422b60158361390c565b9150614236826141f5565b602082019050919050565b6000602082019050818103600083015261425a8161421e565b9050919050565b600060a082019050614276600083018861356c565b614283602083018761334c565b614290604083018661334c565b61429d606083018561347f565b6142aa608083018461334c565b9695505050505050565b7f4465706f7369743a20506f6f6c2064697361626c656400000000000000000000600082015250565b60006142ea60168361390c565b91506142f5826142b4565b602082019050919050565b60006020820190508181036000830152614319816142dd565b9050919050565b7f4465706f7369743a20547020506f6f6c00000000000000000000000000000000600082015250565b600061435660108361390c565b915061436182614320565b602082019050919050565b6000602082019050818103600083015261438581614349565b9050919050565b7f4661696c65642046656520446973747269627574696f6e000000000000000000600082015250565b60006143c260178361390c565b91506143cd8261438c565b602082019050919050565b60006040820190506143ed600083018461334c565b81810360208301526143fe816143b5565b905092915050565b6000819050919050565b600061442b61442661442184614406565b613396565b613342565b9050919050565b61443b81614410565b82525050565b6000604082019050614456600083018561356c565b6144636020830184614432565b9392505050565b7f537563636573732046656520446973747269627574696f6e0000000000000000600082015250565b60006144a060188361390c565b91506144ab8261446a565b602082019050919050565b60006040820190506144cb600083018461334c565b81810360208301526144dc81614493565b905092915050565b7f4f776e61626c653a206e6577206f776e657220697320746865207a65726f206160008201527f6464726573730000000000000000000000000000000000000000000000000000602082015250565b600061454060268361390c565b915061454b826144e4565b604082019050919050565b6000602082019050818103600083015261456f81614533565b9050919050565b60008160011c9050919050565b6000808291508390505b60018511156145cd578086048111156145a9576145a8613a61565b5b60018516156145b85780820291505b80810290506145c685614576565b945061458d565b94509492505050565b6000826145e657600190506146a2565b816145f457600090506146a2565b816001811461460a576002811461461457614643565b60019150506146a2565b60ff84111561462657614625613a61565b5b8360020a91508482111561463d5761463c613a61565b5b506146a2565b5060208310610133831016604e8410600b84101617156146785782820a90508381111561467357614672613a61565b5b6146a2565b6146858484846001614583565b9250905081840481111561469c5761469b613a61565b5b81810290505b9392505050565b60006146b482613342565b91506146bf83613342565b92506146ec7fffffffffffffffffffffffffffffffffffffffffffffffffffffffffffffffff84846145d6565b905092915050565b7f4e487b7100000000000000000000000000000000000000000000000000000000600052603260045260246000fd5b7f6d756c743a206e6f6e6578697374656e7420706f6f6c00000000000000000000600082015250565b600061475960168361390c565b915061476482614723565b602082019050919050565b600060208201905081810360008301526147888161474c565b9050919050565b7f6d756c743a2065786365656473206d6178000000000000000000000000000000600082015250565b60006147c560118361390c565b91506147d08261478f565b602082019050919050565b600060208201905081810360008301526147f4816147b8565b9050919050565b6000606082019050614810600083018661356c565b61481d602083018561356c565b61482a604083018461334c565b949350505050565b7f5361666545524332303a204552433230206f7065726174696f6e20646964206e60008201527f6f74207375636365656400000000000000000000000000000000000000000000602082015250565b600061488e602a8361390c565b915061489982614832565b604082019050919050565b600060208201905081810360008301526148bd81614881565b9050919050565b6000819050919050565b60006148d9826148c4565b91506148e4836148c4565b9250817f7fffffffffffffffffffffffffffffffffffffffffffffffffffffffffffffff0383136000831215161561491f5761491e613a61565b5b817f800000000000000000000000000000000000000000000000000000000000000003831260008312161561495757614956613a61565b5b828201905092915050565b600061496d826148c4565b9150614978836148c4565b9250827f7fffffffffffffffffffffffffffffffffffffffffffffffffffffffffffffff04821160008413600084131616156149b7576149b6613a61565b5b817f800000000000000000000000000000000000000000000000000000000000000005831260008412600084131616156149f4576149f3613a61565b5b827f80000000000000000000000000000000000000000000000000000000000000000582126000841360008412161615614a3157614a30613a61565b5b827f7fffffffffffffffffffffffffffffffffffffffffffffffffffffffffffffff0582126000841260008412161615614a6e57614a6d613a61565b5b828202905092915050565b6000614a84826148c4565b9150614a8f836148c4565b925082614a9f57614a9e613aea565b5b600160000383147f800000000000000000000000000000000000000000000000000000000000000083141615614ad857614ad7613a61565b5b828205905092915050565b6000614aee826148c4565b9150614af9836148c4565b9250827f800000000000000000000000000000000000000000000000000000000000000001821260008412151615614b3457614b33613a61565b5b827f7fffffffffffffffffffffffffffffffffffffffffffffffffffffffffffffff018213600084121615614b6c57614b6b613a61565b5b828203905092915050565b7f416464726573733a20696e73756666696369656e742062616c616e636520666f60008201527f722063616c6c0000000000000000000000000000000000000000000000000000602082015250565b6000614bd360268361390c565b9150614bde82614b77565b604082019050919050565b60006020820190508181036000830152614c0281614bc6565b9050919050565b7f416464726573733a2063616c6c20746f206e6f6e2d636f6e7472616374000000600082015250565b6000614c3f601d8361390c565b9150614c4a82614c09565b602082019050919050565b60006020820190508181036000830152614c6e81614c32565b9050919050565b600081519050919050565b600081905092915050565b60005b83811015614ca9578082015181840152602081019050614c8e565b83811115614cb8576000848401525b50505050565b6000614cc982614c75565b614cd38185614c80565b9350614ce3818560208601614c8b565b80840191505092915050565b6000614cfb8284614cbe565b915081905092915050565b600081519050919050565b6000601f19601f8301169050919050565b6000614d2d82614d06565b614d37818561390c565b9350614d47818560208601614c8b565b614d5081614d11565b840191505092915050565b60006020820190508181036000830152614d758184614d22565b90509291505056fea2646970667358221220667c49f8309683fd595507023d507035187913c322cb9b6025f551b72784104964736f6c634300080c0033",
  "immutableReferences": {
    "3034": [
      {
        "length": 32,
        "start": 5552
      },
      {
        "length": 32,
        "start": 10333
      }
    ],
    "3036": [
      {
        "length": 32,
        "start": 1477
      },
      {
        "length": 32,
        "start": 10371
      },
      {
        "length": 32,
        "start": 10587
      },
      {
        "length": 32,
        "start": 10626
      }
    ]
  },
  "source": "// SPDX-License-Identifier: MIT\npragma solidity 0.8.12;\n\nimport \"@openzeppelin/contracts/access/Ownable.sol\";\nimport \"@openzeppelin/contracts/token/ERC20/IERC20.sol\";\nimport \"@openzeppelin/contracts/token/ERC20/utils/SafeERC20.sol\";\nimport \"@openzeppelin/contracts/security/ReentrancyGuard.sol\";\nimport \"./NiceToken.sol\";\nimport \"./IFeeDistributor.sol\";\n\ncontract GalacticChef is Ownable, ReentrancyGuard {\n  using SafeERC20 for NiceToken;\n  using SafeERC20 for IERC20;\n\n  struct UserInfo {\n    uint amount; //Staked Amount\n    uint accClaim; //ClaimedReward accumulation\n  }\n\n  struct PoolInfo{\n    bool poolType;\n    uint mult;\n    uint fee;\n    IERC20 token;\n    uint accRewardPerShare;\n    uint lastRewardTs;\n    bool isLP;\n  }\n  /// Timestamp Specific\n  uint constant SECONDS_PER_DAY = 24 * 60 * 60;\n  uint constant SECONDS_PER_HOUR = 60 * 60;\n  uint constant SECONDS_PER_MINUTE = 60;\n  int constant OFFSET19700101 = 2440588;\n  /*\n  ** We have two different types of pools: Regular False, Third True\n  ** Nice has a fixed emission given per second due to tokenomics\n  ** So we decided to give a FIXED percentage reward to some pools\n  ** REGULAR pools distribute the remaining reward amongst their allocation\n  ** Third Party doesn't keep track of the user's info, but rather only keeps track of the rewards being given.\n  */\n\n  uint constant public PERCENT = 1e12; // Divisor for percentage calculations\n  uint constant public FEE_DIV = 10000; // Divisor for fee percentage 100.00\n  uint constant public maxMult = 1000000; // Max Multiplier 100.0000\n  uint public currentMax; // The current multiplier total. Always <= maxMult\n  address public feeAddress; // Address where fees will be sent to for Distribution/Reallocation\n\n  // The number of chains where a GalacticChef exists. This helps have a consistent emission across all chains.\n  uint public chains;\n  // Emissions per second. Since we'll have multiple Chefs across chains the emission set per second\n  uint public immutable initMax; // First year only\n  uint public immutable nextMax; // Subsequent Years\n  /*\n  ** Reward Calculation:\n  ** Fixed Pool Rewards = Emission*allocation / PERCENT\n  ** Regular Pool Rewards = Emission*( 1e12 - fixedAlloc*1e12/PERCENT) * allocation/regularAlloc / 1e12 \n  ** 1e12 is used to cover for fraction issues\n  */\n  uint public poolCounter;\n\n  // Reward Token\n  NiceToken public NICE;\n\n  // FEE distribution\n  IFeeDistributor public feeDistributor;\n\n  mapping( uint => mapping( address => UserInfo)) public userInfo; // PID => USER_ADDRESS => userInfo\n  mapping( uint => PoolInfo) public poolInfo; // PID => PoolInfo\n  mapping( uint => address ) public tpPools; //  PID => poolAddress\n  mapping( address => uint) public tokenPools; // tokenAddress => poolId\n\n  event PoolAdded(address token, uint multiplier, uint fee, bool _type, uint _pid);\n  event Deposit( address indexed user, uint indexed pid, uint amount);\n  event Withdraw( address indexed user, uint indexed pid, uint amount);\n  event EmergencyWithdraw( address indexed user, uint indexed pid, uint amount);\n  event UpdatePools( uint[] pid, uint[] mult );\n  event UpdatePool( uint indexed pid, uint mult, uint fee);\n  event UpdateEmissions(uint amount);\n  event FeeAddressEdit(address _newAddress, bool _isContract);\n\n  event LogEvent(uint number, string data);\n\n  constructor(address _niceToken, uint _maxEmission, uint _nextEmission,uint _chains){\n    NICE = NiceToken(_niceToken);\n    feeAddress = msg.sender;\n    initMax = _maxEmission ; // 20\n    nextMax = _nextEmission; // 10\n    chains = _chains;\n  }\n  /// @notice Add Farm of a specific token\n  /// @param _token the token that will be collected, Taken as address since ThirdParty pools will handle their own logic\n  /// @param _mult the multiplier the pool will have\n  /// @param _fee the fee to deposit on the pool\n  /// @param _isLP is the token an LP token\n  /// @param _type is it a regular pool or a third party pool ( TRUE = ThirdParty )\n  /// @param _pidEdit is it a regular pool or a third party pool ( TRUE = ThirdParty )\n  /// @param _pidMulEdit is it a regular pool or a third party pool ( TRUE = ThirdParty )\n  function addPool(\n    address _token,\n    uint _mult,\n    bool _type,\n    uint _fee,\n    bool _isLP,\n    uint[] calldata _pidEdit,\n    uint[] calldata _pidMulEdit\n  ) external onlyOwner {\n    require( _pidEdit.length == _pidMulEdit.length, \"add: wrong edits\");\n    require( _fee < 5001, \"add: invalid fee\");\n    require( tokenPools[_token] == 0, \"add: token repeated\");\n    //update multipliers and current Max\n    updateMultipliers(_pidEdit, _pidMulEdit);\n    require(currentMax + _mult <= maxMult, \"add: wrong multiplier\");\n    currentMax = currentMax + _mult;\n    poolCounter ++;\n    poolInfo[poolCounter] = PoolInfo(_type, _mult, _fee, IERC20(_token), 0, block.timestamp, _isLP);\n    tokenPools[_token] = poolCounter;\n    if(_type)\n      tpPools[poolCounter] = _token;\n    emit PoolAdded(_token, _mult, _fee, _type, poolCounter);\n  }\n  // Make sure multipliers match\n  /// @notice update the multipliers used\n  /// @param _pidEdit pool Id Array\n  /// @param _pidMulEdit multipliers edit array\n  /// @dev both param arrays must have matching lengths\n  function updateMultipliers(uint[] calldata _pidEdit, uint[] calldata _pidMulEdit) internal {\n    if(_pidEdit.length == 0)\n      return;\n      // updateValues\n    uint newMax = currentMax;\n    for(uint i = 0; i < _pidEdit.length; i++){\n      require(address(poolInfo[_pidEdit[i]].token) != address(0), \"mult: nonexistent pool\");\n      //Update the pool reward per share before editing the multiplier\n      updatePool(_pidEdit[i]);\n      newMax = newMax - poolInfo[_pidEdit[i]].mult + _pidMulEdit[i];\n      //decrease old val and increase new val\n      poolInfo[_pidEdit[i]].mult = _pidMulEdit[i];\n    }\n    require( newMax <= maxMult, \"mult: exceeds max\");\n    currentMax = newMax;\n  }\n\n  /// @notice this is for frontend only, calculates the pending reward for a particular user in a specific pool.\n  /// @param _user User to calculate rewards to\n  /// @param _pid Pool Id to calculate rewards of\n  function pendingRewards(address _user, uint _pid) external view returns(uint _pendingRewards) {\n    PoolInfo storage pool = poolInfo[_pid];\n    UserInfo storage user = userInfo[_pid][_user];\n    if(user.amount == 0){\n      return 0;\n    }\n    uint updatedPerShare = pool.accRewardPerShare;\n    uint tokenSupply = pool.token.balanceOf(address(this));\n    if(block.timestamp > pool.lastRewardTs && tokenSupply > 0){\n      uint multiplier = getTimeEmissions(pool) * pool.mult;\n      uint maxMultiplier = currentMax * tokenSupply * PERCENT;\n      updatedPerShare = updatedPerShare + (multiplier/maxMultiplier);\n    }\n    _pendingRewards = updatedPerShare * user.amount - user.accClaim;\n  }\n  /// @notice Update the accRewardPerShare for a specific pool\n  /// @param _pid Pool Id to update the accumulated rewards \n  function updatePool(uint _pid) public {\n    PoolInfo storage pool = poolInfo[_pid];\n    uint selfBal = pool.token.balanceOf(address(this));\n    if(pool.mult == 0 || selfBal == 0 || block.timestamp <= pool.lastRewardTs){\n      pool.lastRewardTs = block.timestamp;\n      return;\n    }\n    uint maxMultiplier = currentMax * selfBal;\n    uint periodReward = getTimeEmissions(pool) * pool.mult / maxMultiplier;\n    pool.lastRewardTs = block.timestamp;\n    pool.accRewardPerShare = pool.accRewardPerShare + periodReward;\n  }\n\n  /// @notice getCurrentEmissions allows external users to get the current reward emissions\n  /// It Uses getTimeEmissions to get the current emissions for the pool between last reward emission and current emission\n  /// @param _pid Pool Id  from which we need emissions calculated\n  /// @return _emissions emissions for the given pool between \n  function getCurrentEmissions(uint _pid) public view returns (uint _emissions){\n    PoolInfo storage pool = poolInfo[_pid];\n    if(address(pool.token) == address(0) || pool.mult == 0)\n      return 0;\n    _emissions = getTimeEmissions(pool);\n  }\n\n  /// @notice getCurrentEmissions calculates the current rewards between last reward emission and current emission timestamps\n  /// The function takes into account if that period is within the same year or it spans across two different years, since the emission rate changes yearly\n  /// @param _pool Pool Id  from which we need emissions calculated\n  /// @return _emissions reward token emissions calculated between the last reward emission and the current emission \n  function getTimeEmissions(PoolInfo storage _pool) internal view returns (uint _emissions){\n    (uint currentYear,,) = timestampToDateTime(block.timestamp);\n    (uint poolYear,,) = timestampToDateTime(_pool.lastRewardTs);\n    uint divPool;\n    uint yearDiff = currentYear - poolYear;\n    uint maxEmissions = poolYear > 2022 ? nextMax : initMax;\n    if(poolYear > 2026)\n      return 0;\n    \n    divPool = poolYear <= 2023 ? 1 : (2 ** (poolYear - 2023));\n\n    if(yearDiff > 0){\n      //LAST YEAR EMISSIONS\n      uint timeDiff = timestampFromDateTime(currentYear,1,1,0,0,0) - _pool.lastRewardTs;\n      _emissions += maxEmissions * timeDiff * PERCENT / (chains * divPool);\n      // NEW YEAR NEW EMISSIONS\n      if( maxEmissions != nextMax )\n        maxEmissions = nextMax;\n      divPool = currentYear == 2023 ? 1 : (2 ** (currentYear - 2023));\n      timeDiff = currentYear > 2026 ? 0 : block.timestamp - timestampFromDateTime(currentYear,1,1,0,0,0);\n      _emissions += maxEmissions * timeDiff * PERCENT / (chains * divPool);\n    }\n    else{\n      _emissions = maxEmissions * (block.timestamp - _pool.lastRewardTs) * PERCENT / ( chains * divPool);\n    }\n  }\n\n  /// @notice Update all pools accPerShare\n  /// @dev this might be expensive to call...\n  function massUpdatePools() public {\n    for(uint id = 1; id <= poolCounter; id ++){\n      emit LogEvent(id, \"pool update\");\n      if(poolInfo[id].mult == 0)\n        continue; \n      if(!poolInfo[id].poolType)\n        updatePool(id);\n      else\n        _mintRewards(id);\n    }\n  }\n\n  /// @notice This is for Third party pools only. This handles the reward. \n  /// @param _pid ID of the third party pool that requests minted rewards \n  /// @return _rewardsGiven Amount of rewards minted to the third party pool \n  function mintRewards(uint _pid) external nonReentrant returns(uint _rewardsGiven){\n    PoolInfo storage pool = poolInfo[_pid];\n    require(pool.poolType && tpPools[_pid] == msg.sender, \"Not tp pool\");\n    _rewardsGiven =_mintRewards(_pid);\n  }\n\n  /// @notice Internal function that Mints the amount of rewards calculated between last emission and current emission\n  /// @param _pid ID of the third party pool that requests minted rewards \n  /// @return _minted Amount of rewards minted to the pool \n  function _mintRewards(uint _pid) internal returns(uint _minted){\n    PoolInfo storage pool = poolInfo[_pid];\n    if(block.timestamp <= pool.lastRewardTs)\n      return 0;\n    _minted = getTimeEmissions(pool) * pool.mult / (currentMax * PERCENT);\n    pool.lastRewardTs = block.timestamp;\n    NICE.mint(address(pool.token), _minted);\n  }\n\n  /// @notice Allows user to deposit pool token to chef. Transfers rewards to user.\n  /// @param _amount Amount of pool tokens to stake \n  /// @param _pid Pool ID which indicates the type of token  \n  function deposit(uint _amount, uint _pid) external nonReentrant{\n    PoolInfo storage pool = poolInfo[_pid];\n    UserInfo storage user = userInfo[_pid][msg.sender];\n    require(pool.mult > 0, \"Deposit: Pool disabled\");\n    require(!pool.poolType, \"Deposit: Tp Pool\");\n    updatePool(_pid);\n    //Harvest Rewards\n    if(user.amount > 0){\n      uint pending = (user.amount * pool.accRewardPerShare / PERCENT) - user.accClaim;\n      if(pending > 0)\n        NICE.mint(msg.sender, pending);\n    }\n    uint usedAmount = _amount;\n    if(usedAmount > 0){\n      if(pool.fee > 0){\n        usedAmount = usedAmount * pool.fee / FEE_DIV;\n        if(address(feeDistributor) == address(0))\n          pool.token.safeTransferFrom(address(msg.sender), feeAddress, usedAmount);\n        else{\n          pool.token.approve(address(feeDistributor), usedAmount);\n          try feeDistributor.receiveFees(_pid, usedAmount){\n            emit LogEvent(usedAmount, \"Success Fee Distribution\");\n          }\n          catch{\n            emit LogEvent(usedAmount, \"Failed Fee Distribution\");\n            pool.token.safeTransferFrom(address(msg.sender), feeAddress, usedAmount);\n            pool.token.approve(address(feeDistributor),0);\n          }\n        }\n        usedAmount = _amount - usedAmount;\n      }\n      user.amount = user.amount + usedAmount;\n      pool.token.safeTransferFrom(address(msg.sender), address(this), usedAmount);\n    }\n    user.accClaim = user.amount * pool.accRewardPerShare / PERCENT;\n    emit Deposit(msg.sender, _pid, _amount);\n  }\n\n  /// @notice Withdraws pool token from chef. Transfers rewards to user. \n  /// @param _amount Amount of pool tokens to withdraw. \n  /// @param _pid Pool ID which indicates the type of token \n  function withdraw(uint _amount, uint _pid) external nonReentrant{\n    PoolInfo storage pool = poolInfo[_pid];\n    UserInfo storage user = userInfo[_pid][msg.sender];\n    require(!pool.poolType, \"Withdraw: Tp Pool\");\n    require(user.amount >= _amount, \"Withdraw: invalid amount\");\n    updatePool(_pid);\n    uint pending = user.amount * pool.accRewardPerShare / PERCENT - user.accClaim;\n    if(pending > 0){\n      NICE.mint(msg.sender, pending);\n    }\n    if(_amount > 0){\n      user.amount = user.amount - _amount;\n      pool.token.safeTransfer(address(msg.sender), _amount);\n    }\n    user.accClaim = user.amount * pool.accRewardPerShare / PERCENT;\n    emit Withdraw(msg.sender, _pid, _amount);\n  }\n\n  /// @notice Emergency withdraws all the pool tokens from chef. In this case there's no reward. \n  /// @param _pid Pool ID which indicates the type of token\n  function emergencyWithdraw(uint _pid) external nonReentrant{\n    PoolInfo storage pool = poolInfo[_pid];\n    UserInfo storage user = userInfo[_pid][msg.sender];\n    require(!pool.poolType, \"withdraw: Tp Pool\");\n    require(user.amount > 0, \"Withdraw: invalid amount\");\n    uint _amount = user.amount;\n    userInfo[_pid][msg.sender] = UserInfo(0,0);\n    pool.token.safeTransfer(address(msg.sender), _amount);\n    emit EmergencyWithdraw(msg.sender, _pid, _amount);\n  }\n\n  /// @notice Edits the pool multiplier and updates pools with new params\n  /// @param _pidEdit Pool ID\n  /// @param _pidMulEdit New multiplier\n  function editPoolMult(\n    uint[] calldata _pidEdit,\n    uint[] calldata _pidMulEdit\n  ) external onlyOwner{\n    updateMultipliers(_pidEdit, _pidMulEdit);\n    emit UpdatePools(_pidEdit, _pidMulEdit);\n  }\n  \n  /// @notice Edits pool fee and updates pools with new params\n  /// @param _pid Pool Id\n  /// @param _fee New pool fee\n  function editPoolFee(\n    uint _pid,\n    uint _fee\n  ) external onlyOwner{\n    PoolInfo storage pool = poolInfo[_pid];\n    require(address(pool.token) != address(0), \"edit: invalid\");\n    require( _fee < 2501, \"edit: high fee\");\n    pool.fee = _fee;\n    emit UpdatePool(_pid, pool.mult, _fee);\n  }\n\n  /// @notice Adds 1 to the amount of chains to which emissions are split\n  /// This factor is used in the emissions calculation\n  function addChain() external onlyOwner{\n    massUpdatePools();\n    chains = chains + 1;\n  }\n\n  function editFeeAddress(address _feeReceiver, bool _isContract) external onlyOwner{\n    if(_isContract)\n      feeDistributor = IFeeDistributor(_feeReceiver);\n    else{\n      require(_feeReceiver != address(0), \"set receiver\");\n      feeAddress = _feeReceiver;\n    }\n    emit FeeAddressEdit(_feeReceiver, _isContract);\n\n  }\n\n  /// @notice Converts timestamp to date time\n  /// @param year Year\n  /// @param month Month\n  /// @param day Day \n  function timestampToDateTime(uint timestamp) internal pure returns (uint year, uint month, uint day) {\n        (year, month, day) = _daysToDate(timestamp / SECONDS_PER_DAY);\n  }\n\n  /// @notice Converts date time into timestamp \n  /// @param year Year\n  /// @param month Month\n  /// @param day Day\n  /// @param hour Hour\n  /// @param minute Minute\n  /// @param second Second\n  function timestampFromDateTime(uint year, uint month, uint day, uint hour, uint minute, uint second) internal pure returns (uint timestamp) {\n      timestamp = _daysFromDate(year, month, day) * SECONDS_PER_DAY + hour * SECONDS_PER_HOUR + minute * SECONDS_PER_MINUTE + second;\n  }\n\n\n  // -------------------------------------------------------------------`\n  // Timestamp fns taken from BokkyPooBah's DateTime Library\n  //\n  // Gas efficient Solidity date and time library\n  //\n  // https://github.com/bokkypoobah/BokkyPooBahsDateTimeLibrary\n  //\n  // Enjoy. (c) BokkyPooBah / Bok Consulting Pty Ltd 2018.\n  //\n  // GNU Lesser General Public License 3.0\n  // https://www.gnu.org/licenses/lgpl-3.0.en.html\n  // ---------------------------------------------------------------------------- \n\n  /// @notice converts days to date\n  /// @param _days amount of days \n  /// @return year\n  /// @return month\n  /// @return day \n  function _daysToDate(uint _days) internal pure returns (uint year, uint month, uint day) {\n      int __days = int(_days);\n\n      int L = __days + 68569 + OFFSET19700101;\n      int N = 4 * L / 146097;\n      L = L - (146097 * N + 3) / 4;\n      int _year = 4000 * (L + 1) / 1461001;\n      L = L - 1461 * _year / 4 + 31;\n      int _month = 80 * L / 2447;\n      int _day = L - 2447 * _month / 80;\n      L = _month / 11;\n      _month = _month + 2 - 12 * L;\n      _year = 100 * (N - 49) + _year + L;\n\n      year = uint(_year);\n      month = uint(_month);\n      day = uint(_day);\n  }\n\n  /// @notice converts days to date\n  /// @param year Year\n  /// @param month Month\n  /// @param day Day\n  /// @return _days Days\n  function _daysFromDate(uint year, uint month, uint day) internal pure returns (uint _days) {\n      require(year >= 1970);\n      int _year = int(year);\n      int _month = int(month);\n      int _day = int(day);\n\n      int __days = _day\n        - 32075\n        + 1461 * (_year + 4800 + (_month - 14) / 12) / 4\n        + 367 * (_month - 2 - (_month - 14) / 12 * 12) / 12\n        - 3 * ((_year + 4900 + (_month - 14) / 12) / 100) / 4\n        - OFFSET19700101;\n\n      _days = uint(__days);\n  }\n\n}",
  "sourcePath": "/Users/umeralisajid/Documents/Frag/bitcrush/crush_contacts_old/contracts/GalacticChef.sol",
  "compiler": {
    "name": "solc",
    "version": "0.8.12+commit.f00d7308.Emscripten.clang"
  },
  "schemaVersion": "3.4.4",
  "updatedAt": "2022-03-22T13:41:38.265Z",
  "devdoc": {
    "kind": "dev",
    "methods": {
      "addPool(address,uint256,bool,uint256,bool,uint256[],uint256[])": {
        "params": {
          "_fee": "the fee to deposit on the pool",
          "_isLP": "is the token an LP token",
          "_mult": "the multiplier the pool will have",
          "_pidEdit": "is it a regular pool or a third party pool ( TRUE = ThirdParty )",
          "_pidMulEdit": "is it a regular pool or a third party pool ( TRUE = ThirdParty )",
          "_token": "the token that will be collected, Taken as address since ThirdParty pools will handle their own logic",
          "_type": "is it a regular pool or a third party pool ( TRUE = ThirdParty )"
        }
      },
      "deposit(uint256,uint256)": {
        "params": {
          "_amount": "Amount of pool tokens to stake ",
          "_pid": "Pool ID which indicates the type of token  "
        }
      },
      "editPoolFee(uint256,uint256)": {
        "params": {
          "_fee": "New pool fee",
          "_pid": "Pool Id"
        }
      },
      "editPoolMult(uint256[],uint256[])": {
        "params": {
          "_pidEdit": "Pool ID",
          "_pidMulEdit": "New multiplier"
        }
      },
      "emergencyWithdraw(uint256)": {
        "params": {
          "_pid": "Pool ID which indicates the type of token"
        }
      },
      "getCurrentEmissions(uint256)": {
        "params": {
          "_pid": "Pool Id  from which we need emissions calculated"
        },
        "returns": {
          "_emissions": "emissions for the given pool between "
        }
      },
      "massUpdatePools()": {
        "details": "this might be expensive to call..."
      },
      "mintRewards(uint256)": {
        "params": {
          "_pid": "ID of the third party pool that requests minted rewards "
        },
        "returns": {
          "_rewardsGiven": "Amount of rewards minted to the third party pool "
        }
      },
      "owner()": {
        "details": "Returns the address of the current owner."
      },
      "pendingRewards(address,uint256)": {
        "params": {
          "_pid": "Pool Id to calculate rewards of",
          "_user": "User to calculate rewards to"
        }
      },
      "renounceOwnership()": {
        "details": "Leaves the contract without owner. It will not be possible to call `onlyOwner` functions anymore. Can only be called by the current owner. NOTE: Renouncing ownership will leave the contract without an owner, thereby removing any functionality that is only available to the owner."
      },
      "transferOwnership(address)": {
        "details": "Transfers ownership of the contract to a new account (`newOwner`). Can only be called by the current owner."
      },
      "updatePool(uint256)": {
        "params": {
          "_pid": "Pool Id to update the accumulated rewards "
        }
      },
      "withdraw(uint256,uint256)": {
        "params": {
          "_amount": "Amount of pool tokens to withdraw. ",
          "_pid": "Pool ID which indicates the type of token "
        }
      }
    },
    "version": 1
  },
  "userdoc": {
    "kind": "user",
    "methods": {
      "addChain()": {
        "notice": "Adds 1 to the amount of chains to which emissions are split This factor is used in the emissions calculation"
      },
      "addPool(address,uint256,bool,uint256,bool,uint256[],uint256[])": {
        "notice": "Add Farm of a specific token"
      },
      "deposit(uint256,uint256)": {
        "notice": "Allows user to deposit pool token to chef. Transfers rewards to user."
      },
      "editPoolFee(uint256,uint256)": {
        "notice": "Edits pool fee and updates pools with new params"
      },
      "editPoolMult(uint256[],uint256[])": {
        "notice": "Edits the pool multiplier and updates pools with new params"
      },
      "emergencyWithdraw(uint256)": {
        "notice": "Emergency withdraws all the pool tokens from chef. In this case there's no reward. "
      },
      "getCurrentEmissions(uint256)": {
        "notice": "getCurrentEmissions allows external users to get the current reward emissions It Uses getTimeEmissions to get the current emissions for the pool between last reward emission and current emission"
      },
      "massUpdatePools()": {
        "notice": "Update all pools accPerShare"
      },
      "mintRewards(uint256)": {
        "notice": "This is for Third party pools only. This handles the reward. "
      },
      "pendingRewards(address,uint256)": {
        "notice": "this is for frontend only, calculates the pending reward for a particular user in a specific pool."
      },
      "updatePool(uint256)": {
        "notice": "Update the accRewardPerShare for a specific pool"
      },
      "withdraw(uint256,uint256)": {
        "notice": "Withdraws pool token from chef. Transfers rewards to user. "
      }
    },
    "version": 1
  }
}