{
  "abi": [
    {
      "inputs": [
        {
          "internalType": "address",
          "name": "_prevSale",
          "type": "address"
        }
      ],
      "stateMutability": "nonpayable",
      "type": "constructor"
    },
    {
      "anonymous": false,
      "inputs": [
        {
          "indexed": false,
          "internalType": "uint256",
          "name": "data1",
          "type": "uint256"
        },
        {
          "indexed": false,
          "internalType": "string",
          "name": "data2",
          "type": "string"
        }
      ],
      "name": "LogEvent",
      "type": "event"
    },
    {
      "anonymous": false,
      "inputs": [
        {
          "indexed": true,
          "internalType": "address",
          "name": "buyer",
          "type": "address"
        },
        {
          "indexed": false,
          "internalType": "uint256",
          "name": "busd",
          "type": "uint256"
        },
        {
          "indexed": false,
          "internalType": "uint256",
          "name": "nice",
          "type": "uint256"
        }
      ],
      "name": "NiceBought",
      "type": "event"
    },
    {
      "anonymous": false,
      "inputs": [
        {
          "indexed": true,
          "internalType": "address",
          "name": "buyer",
          "type": "address"
        },
        {
          "indexed": false,
          "internalType": "uint256",
          "name": "amount",
          "type": "uint256"
        }
      ],
      "name": "NiceClaimed",
      "type": "event"
    },
    {
      "anonymous": false,
      "inputs": [
        {
          "indexed": true,
          "internalType": "address",
          "name": "previousOwner",
          "type": "address"
        },
        {
          "indexed": true,
          "internalType": "address",
          "name": "newOwner",
          "type": "address"
        }
      ],
      "name": "OwnershipTransferred",
      "type": "event"
    },
    {
      "anonymous": false,
      "inputs": [
        {
          "indexed": false,
          "internalType": "uint256",
          "name": "startBlock",
          "type": "uint256"
        }
      ],
      "name": "SaleStarts",
      "type": "event"
    },
    {
      "anonymous": false,
      "inputs": [
        {
          "indexed": false,
          "internalType": "bool",
          "name": "status",
          "type": "bool"
        }
      ],
      "name": "WhitelistStarted",
      "type": "event"
    },
    {
      "inputs": [],
      "name": "busd",
      "outputs": [
        {
          "internalType": "contract ERC20",
          "name": "",
          "type": "address"
        }
      ],
      "stateMutability": "view",
      "type": "function"
    },
    {
      "inputs": [
        {
          "internalType": "uint256",
          "name": "_amount",
          "type": "uint256"
        }
      ],
      "name": "buyNice",
      "outputs": [],
      "stateMutability": "nonpayable",
      "type": "function"
    },
    {
      "inputs": [],
      "name": "claimRaised",
      "outputs": [],
      "stateMutability": "nonpayable",
      "type": "function"
    },
    {
      "inputs": [],
      "name": "claimTokens",
      "outputs": [],
      "stateMutability": "nonpayable",
      "type": "function"
    },
    {
      "inputs": [],
      "name": "currentRaised",
      "outputs": [
        {
          "internalType": "uint256",
          "name": "",
          "type": "uint256"
        }
      ],
      "stateMutability": "view",
      "type": "function"
    },
    {
      "inputs": [],
      "name": "devAddress",
      "outputs": [
        {
          "internalType": "address",
          "name": "",
          "type": "address"
        }
      ],
      "stateMutability": "view",
      "type": "function"
    },
    {
      "inputs": [],
      "name": "maxRaise",
      "outputs": [
        {
          "internalType": "uint256",
          "name": "",
          "type": "uint256"
        }
      ],
      "stateMutability": "view",
      "type": "function"
    },
    {
      "inputs": [],
      "name": "niceToken",
      "outputs": [
        {
          "internalType": "contract NICEToken",
          "name": "",
          "type": "address"
        }
      ],
      "stateMutability": "view",
      "type": "function"
    },
    {
      "inputs": [],
      "name": "owner",
      "outputs": [
        {
          "internalType": "address",
          "name": "",
          "type": "address"
        }
      ],
      "stateMutability": "view",
      "type": "function"
    },
    {
      "inputs": [],
      "name": "pause",
      "outputs": [
        {
          "internalType": "bool",
          "name": "",
          "type": "bool"
        }
      ],
      "stateMutability": "view",
      "type": "function"
    },
    {
      "inputs": [],
      "name": "pauseSale",
      "outputs": [],
      "stateMutability": "nonpayable",
      "type": "function"
    },
    {
      "inputs": [],
      "name": "prevSale",
      "outputs": [
        {
          "internalType": "contract PrevSale",
          "name": "",
          "type": "address"
        }
      ],
      "stateMutability": "view",
      "type": "function"
    },
    {
      "inputs": [],
      "name": "priceDec",
      "outputs": [
        {
          "internalType": "uint256",
          "name": "",
          "type": "uint256"
        }
      ],
      "stateMutability": "view",
      "type": "function"
    },
    {
      "inputs": [],
      "name": "pricePerToken",
      "outputs": [
        {
          "internalType": "uint256",
          "name": "",
          "type": "uint256"
        }
      ],
      "stateMutability": "view",
      "type": "function"
    },
    {
      "inputs": [],
      "name": "qualify",
      "outputs": [
        {
          "internalType": "bool",
          "name": "_isQualified",
          "type": "bool"
        }
      ],
      "stateMutability": "view",
      "type": "function"
    },
    {
      "inputs": [],
      "name": "renounceOwnership",
      "outputs": [],
      "stateMutability": "nonpayable",
      "type": "function"
    },
    {
      "inputs": [],
      "name": "saleStart",
      "outputs": [
        {
          "internalType": "uint256",
          "name": "",
          "type": "uint256"
        }
      ],
      "stateMutability": "view",
      "type": "function"
    },
    {
      "inputs": [
        {
          "internalType": "address",
          "name": "_tokenAddress",
          "type": "address"
        }
      ],
      "name": "setNiceToken",
      "outputs": [],
      "stateMutability": "nonpayable",
      "type": "function"
    },
    {
      "inputs": [],
      "name": "staking",
      "outputs": [
        {
          "internalType": "contract StakingTest",
          "name": "",
          "type": "address"
        }
      ],
      "stateMutability": "view",
      "type": "function"
    },
    {
      "inputs": [],
      "name": "totalRaised",
      "outputs": [
        {
          "internalType": "uint256",
          "name": "_total",
          "type": "uint256"
        }
      ],
      "stateMutability": "view",
      "type": "function"
    },
    {
      "inputs": [],
      "name": "totalSale",
      "outputs": [
        {
          "internalType": "uint256",
          "name": "",
          "type": "uint256"
        }
      ],
      "stateMutability": "view",
      "type": "function"
    },
    {
      "inputs": [
        {
          "internalType": "address",
          "name": "newOwner",
          "type": "address"
        }
      ],
      "name": "transferOwnership",
      "outputs": [],
      "stateMutability": "nonpayable",
      "type": "function"
    },
    {
      "inputs": [
        {
          "internalType": "address",
          "name": "",
          "type": "address"
        }
      ],
      "name": "userBought",
      "outputs": [
        {
          "internalType": "uint256",
          "name": "amountBought",
          "type": "uint256"
        },
        {
          "internalType": "uint256",
          "name": "amountClaimed",
          "type": "uint256"
        },
        {
          "internalType": "uint256",
          "name": "amountOwed",
          "type": "uint256"
        }
      ],
      "stateMutability": "view",
      "type": "function"
    },
    {
      "inputs": [],
      "name": "userData",
      "outputs": [
        {
          "internalType": "uint256",
          "name": "_totalBought",
          "type": "uint256"
        },
        {
          "internalType": "uint256",
          "name": "_totalOwed",
          "type": "uint256"
        },
        {
          "internalType": "uint256",
          "name": "_totalClaimed",
          "type": "uint256"
        }
      ],
      "stateMutability": "view",
      "type": "function"
    },
    {
      "inputs": [],
      "name": "vesting",
      "outputs": [
        {
          "internalType": "uint256",
          "name": "",
          "type": "uint256"
        }
      ],
      "stateMutability": "view",
      "type": "function"
    },
    {
      "inputs": [
        {
          "internalType": "address",
          "name": "",
          "type": "address"
        }
      ],
      "name": "whitelist",
      "outputs": [
        {
          "internalType": "uint256",
          "name": "",
          "type": "uint256"
        }
      ],
      "stateMutability": "view",
      "type": "function"
    }
  ],
  "bytecode": "60e06040526a15ffde39b363d8e9e40000600355612710600455602f600555691a784379d99db42000006006553480156200003957600080fd5b5060405162001695380380620016958339810160408190526200005c9162000215565b6200006733620001ac565b6001805560088054610100600160a81b0319166101006001600160a01b038481168202929092179283905560408051634cf088d960e01b815290519190930490911691634cf088d99160048083019260209291908290030181865afa158015620000d5573d6000803e3d6000fd5b505050506040513d601f19601f82011682018060405250810190620000fb919062000215565b6001600160a01b0390811660805260085460408051630f296c8d60e21b8152905161010090920490921691633ca5b2349160048083019260209291908290030181865afa15801562000151573d6000803e3d6000fd5b505050506040513d601f19601f8201168201806040525081019062000177919062000215565b6001600160a01b031660a0525073addb2b59d1b782e8392ee03d7e2ceaa240e7f1c060c0526008805460ff191690556200023c565b600080546001600160a01b038381166001600160a01b0319831681178455604051919092169283917f8be0079c531659141344cd1fd0a4f28419497f9722a3daafe3b4186f6b6457e09190a35050565b6001600160a01b03811681146200021257600080fd5b50565b6000602082840312156200022857600080fd5b81516200023581620001fc565b9392505050565b60805160a05160c0516114066200028f600039600081816101ad0152610d220152600081816101f10152818161096d01528181610c7e0152610d000152600081816102400152610bb301526114066000f3fe608060405234801561001057600080fd5b506004361061018e5760003560e01c80638da5cb5b116100de578063c4a717cf11610097578063e52a7e2411610071578063e52a7e2414610373578063ea4ce2391461037b578063eb04c9d714610384578063f2fde38b1461039757600080fd5b8063c4a717cf14610334578063c5c4744c14610363578063d862bcf51461036b57600080fd5b80638da5cb5b146102b957806391433883146102ca5780639181951b146102d35780639b19251a146102e6578063ab0bcc4114610306578063bea6998f1461031157600080fd5b80634cf088d91161014b578063715018a611610125578063715018a614610282578063719ec6b11461028a5780637b1b1de6146102935780638456cb591461029c57600080fd5b80634cf088d91461023b57806355367ba91461026257806360e43f5f1461026a57600080fd5b8063055ef013146101935780633ad10ef6146101a85780633ca5b234146101ec57806344c63eec1461021357806348c54b9d1461022a5780634c6e5ccc14610232575b600080fd5b6101a66101a136600461116a565b6103aa565b005b6101cf7f000000000000000000000000000000000000000000000000000000000000000081565b6040516001600160a01b0390911681526020015b60405180910390f35b6101cf7f000000000000000000000000000000000000000000000000000000000000000081565b61021c6109c481565b6040519081526020016101e3565b6101a661044c565b61021c60075481565b6101cf7f000000000000000000000000000000000000000000000000000000000000000081565b6101a661064a565b6008546101cf9061010090046001600160a01b031681565b6101a6610683565b61021c60065481565b61021c60055481565b6008546102a99060ff1681565b60405190151581526020016101e3565b6000546001600160a01b03166101cf565b61021c60045481565b6101a66102e1366004611193565b6106b9565b61021c6102f436600461116a565b60096020526000908152604090205481565b61021c636212d60081565b610319610a45565b604080519384526020840192909252908201526060016101e3565b61031961034236600461116a565b600a6020526000908152604090208054600182015460029092015490919083565b61021c610b06565b6102a9610b91565b6101a6610c3c565b61021c60035481565b6002546101cf906001600160a01b031681565b6101a66103a536600461116a565b610d4a565b6000546001600160a01b031633146103dd5760405162461bcd60e51b81526004016103d4906111ac565b60405180910390fd5b6002546001600160a01b03161561042a5760405162461bcd60e51b815260206004820152601160248201527009139250d148185b1c9958591e481cd95d607a1b60448201526064016103d4565b600280546001600160a01b0319166001600160a01b0392909216919091179055565b6002600154141561049f5760405162461bcd60e51b815260206004820152601f60248201527f5265656e7472616e637947756172643a207265656e7472616e742063616c6c0060448201526064016103d4565b600260015560085460ff166104e55760405162461bcd60e51b815260206004820152600c60248201526b53616c652052756e6e696e6760a01b60448201526064016103d4565b6002546001600160a01b031661052f5760405162461bcd60e51b815260206004820152600f60248201526e151bdad95b88139bdd081859191959608a1b60448201526064016103d4565b60008061053a610a45565b336000908152600a602052604090209194509250905082156105905760405162461bcd60e51b815260206004820152600f60248201526e105b1c9958591e4818db185a5b5959608a1b60448201526064016103d4565b6001818101556002546040516340c10f1960e01b8152336004820152602481018490526001600160a01b03909116906340c10f19906044016020604051808303816000875af11580156105e7573d6000803e3d6000fd5b505050506040513d601f19601f8201168201806040525081019061060b91906111e1565b5060405182815233907f577416e982a24935e58003a2bc88755d1018671696e08d0fc6ca1dd95e370a1d9060200160405180910390a250506001805550565b6000546001600160a01b031633146106745760405162461bcd60e51b81526004016103d4906111ac565b6008805460ff19166001179055565b6000546001600160a01b031633146106ad5760405162461bcd60e51b81526004016103d4906111ac565b6106b76000610dde565b565b6002600154141561070c5760405162461bcd60e51b815260206004820152601f60248201527f5265656e7472616e637947756172643a207265656e7472616e742063616c6c0060448201526064016103d4565b600260015560085460ff16156107535760405162461bcd60e51b815260206004820152600c60248201526b283932b9b0b6329027bb32b960a11b60448201526064016103d4565b61076581670de0b6b3a7640000610e2e565b156107a75760405162461bcd60e51b8152602060048201526012602482015271457861637420616d6f756e7473206f6e6c7960701b60448201526064016103d4565b68056bc75e2d631000008110156107f25760405162461bcd60e51b815260206004820152600f60248201526e135a5b9a5b5d5b481b9bdd081b595d608a1b60448201526064016103d4565b60085460405163c4a717cf60e01b815233600482015260009161010090046001600160a01b03169063c4a717cf90602401606060405180830381865afa158015610840573d6000803e3d6000fd5b505050506040513d601f19601f820116820180604052508101906108649190611203565b5050336000908152600a6020526040902090915069010f0cf064dd5920000083118015906108b25750805469010f0cf064dd59200000906108af906108a98686610e41565b90610e41565b11155b6108ed5760405162461bcd60e51b815260206004820152600c60248201526b436170206f766572666c6f7760a01b60448201526064016103d4565b60006108f7610b06565b9050600654811061093b5760405162461bcd60e51b815260206004820152600e60248201526d131a5b5a5d08115e18d95959195960921b60448201526064016103d4565b600654849061094a8383610e41565b11156109605760065461095d9083610e4d565b90505b6109956001600160a01b037f000000000000000000000000000000000000000000000000000000000000000016333084610e59565b6109c46109b96005546109b360045485610eca90919063ffffffff16565b90610ed6565b600285015490610e41565b600284015582546109d59082610e41565b83556007546109e49082610e41565b60075560055460045433917f96ea671ef97e3b0c25b75c51786366ec072e19ce8a92db8ee92004d88319a87d918491610a22916109b3908490610eca565b6040805192835260208301919091520160405180910390a2505060018055505050565b60085460405163c4a717cf60e01b8152336004820152600091829182918291829161010090046001600160a01b03169063c4a717cf90602401606060405180830381865afa158015610a9b573d6000803e3d6000fd5b505050506040513d601f19601f82011682018060405250810190610abf9190611203565b336000908152600a60205260409020805493955090935091610ae391508490611247565b9550818160020154610af59190611247565b945080600101549350505050909192565b6000600754600860019054906101000a90046001600160a01b03166001600160a01b031663c5c4744c6040518163ffffffff1660e01b8152600401602060405180830381865afa158015610b5e573d6000803e3d6000fd5b505050506040513d601f19601f82011682018060405250810190610b82919061125f565b610b8c9190611247565b905090565b60405163dc6e13e160e01b815233600482015260009081906001600160a01b037f0000000000000000000000000000000000000000000000000000000000000000169063dc6e13e19060240161012060405180830381865afa158015610bfb573d6000803e3d6000fd5b505050506040513d601f19601f82011682018060405250810190610c1f9190611278565b50505069021e19e0c9bab240000090941015979650505050505050565b6000546001600160a01b03163314610c665760405162461bcd60e51b81526004016103d4906111ac565b6040516370a0823160e01b81523060048201526000907f00000000000000000000000000000000000000000000000000000000000000006001600160a01b0316906370a0823190602401602060405180830381865afa158015610ccd573d6000803e3d6000fd5b505050506040513d601f19601f82011682018060405250810190610cf1919061125f565b9050610d476001600160a01b037f0000000000000000000000000000000000000000000000000000000000000000167f000000000000000000000000000000000000000000000000000000000000000083610ee2565b50565b6000546001600160a01b03163314610d745760405162461bcd60e51b81526004016103d4906111ac565b6001600160a01b038116610dd95760405162461bcd60e51b815260206004820152602660248201527f4f776e61626c653a206e6577206f776e657220697320746865207a65726f206160448201526564647265737360d01b60648201526084016103d4565b610d47815b600080546001600160a01b038381166001600160a01b0319831681178455604051919092169283917f8be0079c531659141344cd1fd0a4f28419497f9722a3daafe3b4186f6b6457e09190a35050565b6000610e3a82846112f7565b9392505050565b6000610e3a8284611247565b6000610e3a828461130b565b6040516001600160a01b0380851660248301528316604482015260648101829052610ec49085906323b872dd60e01b906084015b60408051601f198184030181529190526020810180516001600160e01b03166001600160e01b031990931692909217909152610f17565b50505050565b6000610e3a8284611322565b6000610e3a8284611341565b6040516001600160a01b038316602482015260448101829052610f1290849063a9059cbb60e01b90606401610e8d565b505050565b6000610f6c826040518060400160405280602081526020017f5361666545524332303a206c6f772d6c6576656c2063616c6c206661696c6564815250856001600160a01b0316610fe99092919063ffffffff16565b805190915015610f125780806020019051810190610f8a91906111e1565b610f125760405162461bcd60e51b815260206004820152602a60248201527f5361666545524332303a204552433230206f7065726174696f6e20646964206e6044820152691bdd081cdd58d8d9595960b21b60648201526084016103d4565b6060610ff88484600085611000565b949350505050565b6060824710156110615760405162461bcd60e51b815260206004820152602660248201527f416464726573733a20696e73756666696369656e742062616c616e636520666f6044820152651c8818d85b1b60d21b60648201526084016103d4565b6001600160a01b0385163b6110b85760405162461bcd60e51b815260206004820152601d60248201527f416464726573733a2063616c6c20746f206e6f6e2d636f6e747261637400000060448201526064016103d4565b600080866001600160a01b031685876040516110d49190611381565b60006040518083038185875af1925050503d8060008114611111576040519150601f19603f3d011682016040523d82523d6000602084013e611116565b606091505b5091509150611126828286611131565b979650505050505050565b60608315611140575081610e3a565b8251156111505782518084602001fd5b8160405162461bcd60e51b81526004016103d4919061139d565b60006020828403121561117c57600080fd5b81356001600160a01b0381168114610e3a57600080fd5b6000602082840312156111a557600080fd5b5035919050565b6020808252818101527f4f776e61626c653a2063616c6c6572206973206e6f7420746865206f776e6572604082015260600190565b6000602082840312156111f357600080fd5b81518015158114610e3a57600080fd5b60008060006060848603121561121857600080fd5b8351925060208401519150604084015190509250925092565b634e487b7160e01b600052601160045260246000fd5b6000821982111561125a5761125a611231565b500190565b60006020828403121561127157600080fd5b5051919050565b60008060008060008060008060006101208a8c03121561129757600080fd5b8951985060208a0151975060408a0151965060608a0151955060808a0151945060a08a0151935060c08a0151925060e08a015191506101008a015190509295985092959850929598565b634e487b7160e01b600052601260045260246000fd5b600082611306576113066112e1565b500690565b60008282101561131d5761131d611231565b500390565b600081600019048311821515161561133c5761133c611231565b500290565b600082611350576113506112e1565b500490565b60005b83811015611370578181015183820152602001611358565b83811115610ec45750506000910152565b60008251611393818460208701611355565b9190910192915050565b60208152600082518060208401526113bc816040850160208701611355565b601f01601f1916919091016040019291505056fea26469706673582212207be735a7705fa03690232b1613e1670faef7fe5173807af4e09feae34e5997bd64736f6c634300080c0033",
  "bytecodeSha1": "d19af0dbf830322b3b38dbdd3ae5d6fbe8205a09",
  "compiler": {
    "evm_version": "istanbul",
    "optimizer": {
      "enabled": true,
      "runs": 200
    },
    "version": "0.8.12+commit.f00d7308"
  },
  "contractName": "Presale",
  "language": "Solidity",
  "natspec": {
    "kind": "dev",
    "methods": {
      "buyNice(uint256)": {
        "details": "minimum of $100 BUSD, max of $5K BUSDif maxRaise is exceeded we will allocate just a portion of that amount.",
        "notice": "Reserve NICE allocation with BUSD",
        "params": {
          "_amount": "Amount of BUSD to lock NICE amount"
        }
      },
      "claimTokens()": {
        "details": "transfers NICE to the user directly by minting straight to their wallets",
        "notice": "function that gets available tokens to the user."
      },
      "owner()": {
        "details": "Returns the address of the current owner."
      },
      "pauseSale()": {
        "notice": "pause the presale"
      },
      "qualify()": {
        "details": "qualify is an overlook of the amount of CrushGod NFTs held and tokens staked",
        "notice": "qualify only checks quantity"
      },
      "renounceOwnership()": {
        "details": "Leaves the contract without owner. It will not be possible to call `onlyOwner` functions anymore. Can only be called by the current owner. NOTE: Renouncing ownership will leave the contract without an owner, thereby removing any functionality that is only available to the owner."
      },
      "totalRaised()": {
        "notice": "get the total Raised amount"
      },
      "transferOwnership(address)": {
        "details": "Transfers ownership of the contract to a new account (`newOwner`). Can only be called by the current owner."
      },
      "userData()": {
        "notice": "User info"
      }
    },
    "version": 1
  },
  "opcodes": "PUSH1 0x80 PUSH1 0x40 MSTORE CALLVALUE DUP1 ISZERO PUSH2 0x10 JUMPI PUSH1 0x0 DUP1 REVERT JUMPDEST POP PUSH1 0x4 CALLDATASIZE LT PUSH2 0x18E JUMPI PUSH1 0x0 CALLDATALOAD PUSH1 0xE0 SHR DUP1 PUSH4 0x8DA5CB5B GT PUSH2 0xDE JUMPI DUP1 PUSH4 0xC4A717CF GT PUSH2 0x97 JUMPI DUP1 PUSH4 0xE52A7E24 GT PUSH2 0x71 JUMPI DUP1 PUSH4 0xE52A7E24 EQ PUSH2 0x373 JUMPI DUP1 PUSH4 0xEA4CE239 EQ PUSH2 0x37B JUMPI DUP1 PUSH4 0xEB04C9D7 EQ PUSH2 0x384 JUMPI DUP1 PUSH4 0xF2FDE38B EQ PUSH2 0x397 JUMPI PUSH1 0x0 DUP1 REVERT JUMPDEST DUP1 PUSH4 0xC4A717CF EQ PUSH2 0x334 JUMPI DUP1 PUSH4 0xC5C4744C EQ PUSH2 0x363 JUMPI DUP1 PUSH4 0xD862BCF5 EQ PUSH2 0x36B JUMPI PUSH1 0x0 DUP1 REVERT JUMPDEST DUP1 PUSH4 0x8DA5CB5B EQ PUSH2 0x2B9 JUMPI DUP1 PUSH4 0x91433883 EQ PUSH2 0x2CA JUMPI DUP1 PUSH4 0x9181951B EQ PUSH2 0x2D3 JUMPI DUP1 PUSH4 0x9B19251A EQ PUSH2 0x2E6 JUMPI DUP1 PUSH4 0xAB0BCC41 EQ PUSH2 0x306 JUMPI DUP1 PUSH4 0xBEA6998F EQ PUSH2 0x311 JUMPI PUSH1 0x0 DUP1 REVERT JUMPDEST DUP1 PUSH4 0x4CF088D9 GT PUSH2 0x14B JUMPI DUP1 PUSH4 0x715018A6 GT PUSH2 0x125 JUMPI DUP1 PUSH4 0x715018A6 EQ PUSH2 0x282 JUMPI DUP1 PUSH4 0x719EC6B1 EQ PUSH2 0x28A JUMPI DUP1 PUSH4 0x7B1B1DE6 EQ PUSH2 0x293 JUMPI DUP1 PUSH4 0x8456CB59 EQ PUSH2 0x29C JUMPI PUSH1 0x0 DUP1 REVERT JUMPDEST DUP1 PUSH4 0x4CF088D9 EQ PUSH2 0x23B JUMPI DUP1 PUSH4 0x55367BA9 EQ PUSH2 0x262 JUMPI DUP1 PUSH4 0x60E43F5F EQ PUSH2 0x26A JUMPI PUSH1 0x0 DUP1 REVERT JUMPDEST DUP1 PUSH4 0x55EF013 EQ PUSH2 0x193 JUMPI DUP1 PUSH4 0x3AD10EF6 EQ PUSH2 0x1A8 JUMPI DUP1 PUSH4 0x3CA5B234 EQ PUSH2 0x1EC JUMPI DUP1 PUSH4 0x44C63EEC EQ PUSH2 0x213 JUMPI DUP1 PUSH4 0x48C54B9D EQ PUSH2 0x22A JUMPI DUP1 PUSH4 0x4C6E5CCC EQ PUSH2 0x232 JUMPI JUMPDEST PUSH1 0x0 DUP1 REVERT JUMPDEST PUSH2 0x1A6 PUSH2 0x1A1 CALLDATASIZE PUSH1 0x4 PUSH2 0x116A JUMP JUMPDEST PUSH2 0x3AA JUMP JUMPDEST STOP JUMPDEST PUSH2 0x1CF PUSH32 0x0 DUP2 JUMP JUMPDEST PUSH1 0x40 MLOAD PUSH1 0x1 PUSH1 0x1 PUSH1 0xA0 SHL SUB SWAP1 SWAP2 AND DUP2 MSTORE PUSH1 0x20 ADD JUMPDEST PUSH1 0x40 MLOAD DUP1 SWAP2 SUB SWAP1 RETURN JUMPDEST PUSH2 0x1CF PUSH32 0x0 DUP2 JUMP JUMPDEST PUSH2 0x21C PUSH2 0x9C4 DUP2 JUMP JUMPDEST PUSH1 0x40 MLOAD SWAP1 DUP2 MSTORE PUSH1 0x20 ADD PUSH2 0x1E3 JUMP JUMPDEST PUSH2 0x1A6 PUSH2 0x44C JUMP JUMPDEST PUSH2 0x21C PUSH1 0x7 SLOAD DUP2 JUMP JUMPDEST PUSH2 0x1CF PUSH32 0x0 DUP2 JUMP JUMPDEST PUSH2 0x1A6 PUSH2 0x64A JUMP JUMPDEST PUSH1 0x8 SLOAD PUSH2 0x1CF SWAP1 PUSH2 0x100 SWAP1 DIV PUSH1 0x1 PUSH1 0x1 PUSH1 0xA0 SHL SUB AND DUP2 JUMP JUMPDEST PUSH2 0x1A6 PUSH2 0x683 JUMP JUMPDEST PUSH2 0x21C PUSH1 0x6 SLOAD DUP2 JUMP JUMPDEST PUSH2 0x21C PUSH1 0x5 SLOAD DUP2 JUMP JUMPDEST PUSH1 0x8 SLOAD PUSH2 0x2A9 SWAP1 PUSH1 0xFF AND DUP2 JUMP JUMPDEST PUSH1 0x40 MLOAD SWAP1 ISZERO ISZERO DUP2 MSTORE PUSH1 0x20 ADD PUSH2 0x1E3 JUMP JUMPDEST PUSH1 0x0 SLOAD PUSH1 0x1 PUSH1 0x1 PUSH1 0xA0 SHL SUB AND PUSH2 0x1CF JUMP JUMPDEST PUSH2 0x21C PUSH1 0x4 SLOAD DUP2 JUMP JUMPDEST PUSH2 0x1A6 PUSH2 0x2E1 CALLDATASIZE PUSH1 0x4 PUSH2 0x1193 JUMP JUMPDEST PUSH2 0x6B9 JUMP JUMPDEST PUSH2 0x21C PUSH2 0x2F4 CALLDATASIZE PUSH1 0x4 PUSH2 0x116A JUMP JUMPDEST PUSH1 0x9 PUSH1 0x20 MSTORE PUSH1 0x0 SWAP1 DUP2 MSTORE PUSH1 0x40 SWAP1 KECCAK256 SLOAD DUP2 JUMP JUMPDEST PUSH2 0x21C PUSH4 0x6212D600 DUP2 JUMP JUMPDEST PUSH2 0x319 PUSH2 0xA45 JUMP JUMPDEST PUSH1 0x40 DUP1 MLOAD SWAP4 DUP5 MSTORE PUSH1 0x20 DUP5 ADD SWAP3 SWAP1 SWAP3 MSTORE SWAP1 DUP3 ADD MSTORE PUSH1 0x60 ADD PUSH2 0x1E3 JUMP JUMPDEST PUSH2 0x319 PUSH2 0x342 CALLDATASIZE PUSH1 0x4 PUSH2 0x116A JUMP JUMPDEST PUSH1 0xA PUSH1 0x20 MSTORE PUSH1 0x0 SWAP1 DUP2 MSTORE PUSH1 0x40 SWAP1 KECCAK256 DUP1 SLOAD PUSH1 0x1 DUP3 ADD SLOAD PUSH1 0x2 SWAP1 SWAP3 ADD SLOAD SWAP1 SWAP2 SWAP1 DUP4 JUMP JUMPDEST PUSH2 0x21C PUSH2 0xB06 JUMP JUMPDEST PUSH2 0x2A9 PUSH2 0xB91 JUMP JUMPDEST PUSH2 0x1A6 PUSH2 0xC3C JUMP JUMPDEST PUSH2 0x21C PUSH1 0x3 SLOAD DUP2 JUMP JUMPDEST PUSH1 0x2 SLOAD PUSH2 0x1CF SWAP1 PUSH1 0x1 PUSH1 0x1 PUSH1 0xA0 SHL SUB AND DUP2 JUMP JUMPDEST PUSH2 0x1A6 PUSH2 0x3A5 CALLDATASIZE PUSH1 0x4 PUSH2 0x116A JUMP JUMPDEST PUSH2 0xD4A JUMP JUMPDEST PUSH1 0x0 SLOAD PUSH1 0x1 PUSH1 0x1 PUSH1 0xA0 SHL SUB AND CALLER EQ PUSH2 0x3DD JUMPI PUSH1 0x40 MLOAD PUSH3 0x461BCD PUSH1 0xE5 SHL DUP2 MSTORE PUSH1 0x4 ADD PUSH2 0x3D4 SWAP1 PUSH2 0x11AC JUMP JUMPDEST PUSH1 0x40 MLOAD DUP1 SWAP2 SUB SWAP1 REVERT JUMPDEST PUSH1 0x2 SLOAD PUSH1 0x1 PUSH1 0x1 PUSH1 0xA0 SHL SUB AND ISZERO PUSH2 0x42A JUMPI PUSH1 0x40 MLOAD PUSH3 0x461BCD PUSH1 0xE5 SHL DUP2 MSTORE PUSH1 0x20 PUSH1 0x4 DUP3 ADD MSTORE PUSH1 0x11 PUSH1 0x24 DUP3 ADD MSTORE PUSH17 0x9139250D148185B1C9958591E481CD95D PUSH1 0x7A SHL PUSH1 0x44 DUP3 ADD MSTORE PUSH1 0x64 ADD PUSH2 0x3D4 JUMP JUMPDEST PUSH1 0x2 DUP1 SLOAD PUSH1 0x1 PUSH1 0x1 PUSH1 0xA0 SHL SUB NOT AND PUSH1 0x1 PUSH1 0x1 PUSH1 0xA0 SHL SUB SWAP3 SWAP1 SWAP3 AND SWAP2 SWAP1 SWAP2 OR SWAP1 SSTORE JUMP JUMPDEST PUSH1 0x2 PUSH1 0x1 SLOAD EQ ISZERO PUSH2 0x49F JUMPI PUSH1 0x40 MLOAD PUSH3 0x461BCD PUSH1 0xE5 SHL DUP2 MSTORE PUSH1 0x20 PUSH1 0x4 DUP3 ADD MSTORE PUSH1 0x1F PUSH1 0x24 DUP3 ADD MSTORE PUSH32 0x5265656E7472616E637947756172643A207265656E7472616E742063616C6C00 PUSH1 0x44 DUP3 ADD MSTORE PUSH1 0x64 ADD PUSH2 0x3D4 JUMP JUMPDEST PUSH1 0x2 PUSH1 0x1 SSTORE PUSH1 0x8 SLOAD PUSH1 0xFF AND PUSH2 0x4E5 JUMPI PUSH1 0x40 MLOAD PUSH3 0x461BCD PUSH1 0xE5 SHL DUP2 MSTORE PUSH1 0x20 PUSH1 0x4 DUP3 ADD MSTORE PUSH1 0xC PUSH1 0x24 DUP3 ADD MSTORE PUSH12 0x53616C652052756E6E696E67 PUSH1 0xA0 SHL PUSH1 0x44 DUP3 ADD MSTORE PUSH1 0x64 ADD PUSH2 0x3D4 JUMP JUMPDEST PUSH1 0x2 SLOAD PUSH1 0x1 PUSH1 0x1 PUSH1 0xA0 SHL SUB AND PUSH2 0x52F JUMPI PUSH1 0x40 MLOAD PUSH3 0x461BCD PUSH1 0xE5 SHL DUP2 MSTORE PUSH1 0x20 PUSH1 0x4 DUP3 ADD MSTORE PUSH1 0xF PUSH1 0x24 DUP3 ADD MSTORE PUSH15 0x151BDAD95B88139BDD081859191959 PUSH1 0x8A SHL PUSH1 0x44 DUP3 ADD MSTORE PUSH1 0x64 ADD PUSH2 0x3D4 JUMP JUMPDEST PUSH1 0x0 DUP1 PUSH2 0x53A PUSH2 0xA45 JUMP JUMPDEST CALLER PUSH1 0x0 SWAP1 DUP2 MSTORE PUSH1 0xA PUSH1 0x20 MSTORE PUSH1 0x40 SWAP1 KECCAK256 SWAP2 SWAP5 POP SWAP3 POP SWAP1 POP DUP3 ISZERO PUSH2 0x590 JUMPI PUSH1 0x40 MLOAD PUSH3 0x461BCD PUSH1 0xE5 SHL DUP2 MSTORE PUSH1 0x20 PUSH1 0x4 DUP3 ADD MSTORE PUSH1 0xF PUSH1 0x24 DUP3 ADD MSTORE PUSH15 0x105B1C9958591E4818DB185A5B5959 PUSH1 0x8A SHL PUSH1 0x44 DUP3 ADD MSTORE PUSH1 0x64 ADD PUSH2 0x3D4 JUMP JUMPDEST PUSH1 0x1 DUP2 DUP2 ADD SSTORE PUSH1 0x2 SLOAD PUSH1 0x40 MLOAD PUSH4 0x40C10F19 PUSH1 0xE0 SHL DUP2 MSTORE CALLER PUSH1 0x4 DUP3 ADD MSTORE PUSH1 0x24 DUP2 ADD DUP5 SWAP1 MSTORE PUSH1 0x1 PUSH1 0x1 PUSH1 0xA0 SHL SUB SWAP1 SWAP2 AND SWAP1 PUSH4 0x40C10F19 SWAP1 PUSH1 0x44 ADD PUSH1 0x20 PUSH1 0x40 MLOAD DUP1 DUP4 SUB DUP2 PUSH1 0x0 DUP8 GAS CALL ISZERO DUP1 ISZERO PUSH2 0x5E7 JUMPI RETURNDATASIZE PUSH1 0x0 DUP1 RETURNDATACOPY RETURNDATASIZE PUSH1 0x0 REVERT JUMPDEST POP POP POP POP PUSH1 0x40 MLOAD RETURNDATASIZE PUSH1 0x1F NOT PUSH1 0x1F DUP3 ADD AND DUP3 ADD DUP1 PUSH1 0x40 MSTORE POP DUP2 ADD SWAP1 PUSH2 0x60B SWAP2 SWAP1 PUSH2 0x11E1 JUMP JUMPDEST POP PUSH1 0x40 MLOAD DUP3 DUP2 MSTORE CALLER SWAP1 PUSH32 0x577416E982A24935E58003A2BC88755D1018671696E08D0FC6CA1DD95E370A1D SWAP1 PUSH1 0x20 ADD PUSH1 0x40 MLOAD DUP1 SWAP2 SUB SWAP1 LOG2 POP POP PUSH1 0x1 DUP1 SSTORE POP JUMP JUMPDEST PUSH1 0x0 SLOAD PUSH1 0x1 PUSH1 0x1 PUSH1 0xA0 SHL SUB AND CALLER EQ PUSH2 0x674 JUMPI PUSH1 0x40 MLOAD PUSH3 0x461BCD PUSH1 0xE5 SHL DUP2 MSTORE PUSH1 0x4 ADD PUSH2 0x3D4 SWAP1 PUSH2 0x11AC JUMP JUMPDEST PUSH1 0x8 DUP1 SLOAD PUSH1 0xFF NOT AND PUSH1 0x1 OR SWAP1 SSTORE JUMP JUMPDEST PUSH1 0x0 SLOAD PUSH1 0x1 PUSH1 0x1 PUSH1 0xA0 SHL SUB AND CALLER EQ PUSH2 0x6AD JUMPI PUSH1 0x40 MLOAD PUSH3 0x461BCD PUSH1 0xE5 SHL DUP2 MSTORE PUSH1 0x4 ADD PUSH2 0x3D4 SWAP1 PUSH2 0x11AC JUMP JUMPDEST PUSH2 0x6B7 PUSH1 0x0 PUSH2 0xDDE JUMP JUMPDEST JUMP JUMPDEST PUSH1 0x2 PUSH1 0x1 SLOAD EQ ISZERO PUSH2 0x70C JUMPI PUSH1 0x40 MLOAD PUSH3 0x461BCD PUSH1 0xE5 SHL DUP2 MSTORE PUSH1 0x20 PUSH1 0x4 DUP3 ADD MSTORE PUSH1 0x1F PUSH1 0x24 DUP3 ADD MSTORE PUSH32 0x5265656E7472616E637947756172643A207265656E7472616E742063616C6C00 PUSH1 0x44 DUP3 ADD MSTORE PUSH1 0x64 ADD PUSH2 0x3D4 JUMP JUMPDEST PUSH1 0x2 PUSH1 0x1 SSTORE PUSH1 0x8 SLOAD PUSH1 0xFF AND ISZERO PUSH2 0x753 JUMPI PUSH1 0x40 MLOAD PUSH3 0x461BCD PUSH1 0xE5 SHL DUP2 MSTORE PUSH1 0x20 PUSH1 0x4 DUP3 ADD MSTORE PUSH1 0xC PUSH1 0x24 DUP3 ADD MSTORE PUSH12 0x283932B9B0B6329027BB32B9 PUSH1 0xA1 SHL PUSH1 0x44 DUP3 ADD MSTORE PUSH1 0x64 ADD PUSH2 0x3D4 JUMP JUMPDEST PUSH2 0x765 DUP2 PUSH8 0xDE0B6B3A7640000 PUSH2 0xE2E JUMP JUMPDEST ISZERO PUSH2 0x7A7 JUMPI PUSH1 0x40 MLOAD PUSH3 0x461BCD PUSH1 0xE5 SHL DUP2 MSTORE PUSH1 0x20 PUSH1 0x4 DUP3 ADD MSTORE PUSH1 0x12 PUSH1 0x24 DUP3 ADD MSTORE PUSH18 0x457861637420616D6F756E7473206F6E6C79 PUSH1 0x70 SHL PUSH1 0x44 DUP3 ADD MSTORE PUSH1 0x64 ADD PUSH2 0x3D4 JUMP JUMPDEST PUSH9 0x56BC75E2D63100000 DUP2 LT ISZERO PUSH2 0x7F2 JUMPI PUSH1 0x40 MLOAD PUSH3 0x461BCD PUSH1 0xE5 SHL DUP2 MSTORE PUSH1 0x20 PUSH1 0x4 DUP3 ADD MSTORE PUSH1 0xF PUSH1 0x24 DUP3 ADD MSTORE PUSH15 0x135A5B9A5B5D5B481B9BDD081B595D PUSH1 0x8A SHL PUSH1 0x44 DUP3 ADD MSTORE PUSH1 0x64 ADD PUSH2 0x3D4 JUMP JUMPDEST PUSH1 0x8 SLOAD PUSH1 0x40 MLOAD PUSH4 0xC4A717CF PUSH1 0xE0 SHL DUP2 MSTORE CALLER PUSH1 0x4 DUP3 ADD MSTORE PUSH1 0x0 SWAP2 PUSH2 0x100 SWAP1 DIV PUSH1 0x1 PUSH1 0x1 PUSH1 0xA0 SHL SUB AND SWAP1 PUSH4 0xC4A717CF SWAP1 PUSH1 0x24 ADD PUSH1 0x60 PUSH1 0x40 MLOAD DUP1 DUP4 SUB DUP2 DUP7 GAS STATICCALL ISZERO DUP1 ISZERO PUSH2 0x840 JUMPI RETURNDATASIZE PUSH1 0x0 DUP1 RETURNDATACOPY RETURNDATASIZE PUSH1 0x0 REVERT JUMPDEST POP POP POP POP PUSH1 0x40 MLOAD RETURNDATASIZE PUSH1 0x1F NOT PUSH1 0x1F DUP3 ADD AND DUP3 ADD DUP1 PUSH1 0x40 MSTORE POP DUP2 ADD SWAP1 PUSH2 0x864 SWAP2 SWAP1 PUSH2 0x1203 JUMP JUMPDEST POP POP CALLER PUSH1 0x0 SWAP1 DUP2 MSTORE PUSH1 0xA PUSH1 0x20 MSTORE PUSH1 0x40 SWAP1 KECCAK256 SWAP1 SWAP2 POP PUSH10 0x10F0CF064DD59200000 DUP4 GT DUP1 ISZERO SWAP1 PUSH2 0x8B2 JUMPI POP DUP1 SLOAD PUSH10 0x10F0CF064DD59200000 SWAP1 PUSH2 0x8AF SWAP1 PUSH2 0x8A9 DUP7 DUP7 PUSH2 0xE41 JUMP JUMPDEST SWAP1 PUSH2 0xE41 JUMP JUMPDEST GT ISZERO JUMPDEST PUSH2 0x8ED JUMPI PUSH1 0x40 MLOAD PUSH3 0x461BCD PUSH1 0xE5 SHL DUP2 MSTORE PUSH1 0x20 PUSH1 0x4 DUP3 ADD MSTORE PUSH1 0xC PUSH1 0x24 DUP3 ADD MSTORE PUSH12 0x436170206F766572666C6F77 PUSH1 0xA0 SHL PUSH1 0x44 DUP3 ADD MSTORE PUSH1 0x64 ADD PUSH2 0x3D4 JUMP JUMPDEST PUSH1 0x0 PUSH2 0x8F7 PUSH2 0xB06 JUMP JUMPDEST SWAP1 POP PUSH1 0x6 SLOAD DUP2 LT PUSH2 0x93B JUMPI PUSH1 0x40 MLOAD PUSH3 0x461BCD PUSH1 0xE5 SHL DUP2 MSTORE PUSH1 0x20 PUSH1 0x4 DUP3 ADD MSTORE PUSH1 0xE PUSH1 0x24 DUP3 ADD MSTORE PUSH14 0x131A5B5A5D08115E18D959591959 PUSH1 0x92 SHL PUSH1 0x44 DUP3 ADD MSTORE PUSH1 0x64 ADD PUSH2 0x3D4 JUMP JUMPDEST PUSH1 0x6 SLOAD DUP5 SWAP1 PUSH2 0x94A DUP4 DUP4 PUSH2 0xE41 JUMP JUMPDEST GT ISZERO PUSH2 0x960 JUMPI PUSH1 0x6 SLOAD PUSH2 0x95D SWAP1 DUP4 PUSH2 0xE4D JUMP JUMPDEST SWAP1 POP JUMPDEST PUSH2 0x995 PUSH1 0x1 PUSH1 0x1 PUSH1 0xA0 SHL SUB PUSH32 0x0 AND CALLER ADDRESS DUP5 PUSH2 0xE59 JUMP JUMPDEST PUSH2 0x9C4 PUSH2 0x9B9 PUSH1 0x5 SLOAD PUSH2 0x9B3 PUSH1 0x4 SLOAD DUP6 PUSH2 0xECA SWAP1 SWAP2 SWAP1 PUSH4 0xFFFFFFFF AND JUMP JUMPDEST SWAP1 PUSH2 0xED6 JUMP JUMPDEST PUSH1 0x2 DUP6 ADD SLOAD SWAP1 PUSH2 0xE41 JUMP JUMPDEST PUSH1 0x2 DUP5 ADD SSTORE DUP3 SLOAD PUSH2 0x9D5 SWAP1 DUP3 PUSH2 0xE41 JUMP JUMPDEST DUP4 SSTORE PUSH1 0x7 SLOAD PUSH2 0x9E4 SWAP1 DUP3 PUSH2 0xE41 JUMP JUMPDEST PUSH1 0x7 SSTORE PUSH1 0x5 SLOAD PUSH1 0x4 SLOAD CALLER SWAP2 PUSH32 0x96EA671EF97E3B0C25B75C51786366EC072E19CE8A92DB8EE92004D88319A87D SWAP2 DUP5 SWAP2 PUSH2 0xA22 SWAP2 PUSH2 0x9B3 SWAP1 DUP5 SWAP1 PUSH2 0xECA JUMP JUMPDEST PUSH1 0x40 DUP1 MLOAD SWAP3 DUP4 MSTORE PUSH1 0x20 DUP4 ADD SWAP2 SWAP1 SWAP2 MSTORE ADD PUSH1 0x40 MLOAD DUP1 SWAP2 SUB SWAP1 LOG2 POP POP PUSH1 0x1 DUP1 SSTORE POP POP POP JUMP JUMPDEST PUSH1 0x8 SLOAD PUSH1 0x40 MLOAD PUSH4 0xC4A717CF PUSH1 0xE0 SHL DUP2 MSTORE CALLER PUSH1 0x4 DUP3 ADD MSTORE PUSH1 0x0 SWAP2 DUP3 SWAP2 DUP3 SWAP2 DUP3 SWAP2 DUP3 SWAP2 PUSH2 0x100 SWAP1 DIV PUSH1 0x1 PUSH1 0x1 PUSH1 0xA0 SHL SUB AND SWAP1 PUSH4 0xC4A717CF SWAP1 PUSH1 0x24 ADD PUSH1 0x60 PUSH1 0x40 MLOAD DUP1 DUP4 SUB DUP2 DUP7 GAS STATICCALL ISZERO DUP1 ISZERO PUSH2 0xA9B JUMPI RETURNDATASIZE PUSH1 0x0 DUP1 RETURNDATACOPY RETURNDATASIZE PUSH1 0x0 REVERT JUMPDEST POP POP POP POP PUSH1 0x40 MLOAD RETURNDATASIZE PUSH1 0x1F NOT PUSH1 0x1F DUP3 ADD AND DUP3 ADD DUP1 PUSH1 0x40 MSTORE POP DUP2 ADD SWAP1 PUSH2 0xABF SWAP2 SWAP1 PUSH2 0x1203 JUMP JUMPDEST CALLER PUSH1 0x0 SWAP1 DUP2 MSTORE PUSH1 0xA PUSH1 0x20 MSTORE PUSH1 0x40 SWAP1 KECCAK256 DUP1 SLOAD SWAP4 SWAP6 POP SWAP1 SWAP4 POP SWAP2 PUSH2 0xAE3 SWAP2 POP DUP5 SWAP1 PUSH2 0x1247 JUMP JUMPDEST SWAP6 POP DUP2 DUP2 PUSH1 0x2 ADD SLOAD PUSH2 0xAF5 SWAP2 SWAP1 PUSH2 0x1247 JUMP JUMPDEST SWAP5 POP DUP1 PUSH1 0x1 ADD SLOAD SWAP4 POP POP POP POP SWAP1 SWAP2 SWAP3 JUMP JUMPDEST PUSH1 0x0 PUSH1 0x7 SLOAD PUSH1 0x8 PUSH1 0x1 SWAP1 SLOAD SWAP1 PUSH2 0x100 EXP SWAP1 DIV PUSH1 0x1 PUSH1 0x1 PUSH1 0xA0 SHL SUB AND PUSH1 0x1 PUSH1 0x1 PUSH1 0xA0 SHL SUB AND PUSH4 0xC5C4744C PUSH1 0x40 MLOAD DUP2 PUSH4 0xFFFFFFFF AND PUSH1 0xE0 SHL DUP2 MSTORE PUSH1 0x4 ADD PUSH1 0x20 PUSH1 0x40 MLOAD DUP1 DUP4 SUB DUP2 DUP7 GAS STATICCALL ISZERO DUP1 ISZERO PUSH2 0xB5E JUMPI RETURNDATASIZE PUSH1 0x0 DUP1 RETURNDATACOPY RETURNDATASIZE PUSH1 0x0 REVERT JUMPDEST POP POP POP POP PUSH1 0x40 MLOAD RETURNDATASIZE PUSH1 0x1F NOT PUSH1 0x1F DUP3 ADD AND DUP3 ADD DUP1 PUSH1 0x40 MSTORE POP DUP2 ADD SWAP1 PUSH2 0xB82 SWAP2 SWAP1 PUSH2 0x125F JUMP JUMPDEST PUSH2 0xB8C SWAP2 SWAP1 PUSH2 0x1247 JUMP JUMPDEST SWAP1 POP SWAP1 JUMP JUMPDEST PUSH1 0x40 MLOAD PUSH4 0xDC6E13E1 PUSH1 0xE0 SHL DUP2 MSTORE CALLER PUSH1 0x4 DUP3 ADD MSTORE PUSH1 0x0 SWAP1 DUP2 SWAP1 PUSH1 0x1 PUSH1 0x1 PUSH1 0xA0 SHL SUB PUSH32 0x0 AND SWAP1 PUSH4 0xDC6E13E1 SWAP1 PUSH1 0x24 ADD PUSH2 0x120 PUSH1 0x40 MLOAD DUP1 DUP4 SUB DUP2 DUP7 GAS STATICCALL ISZERO DUP1 ISZERO PUSH2 0xBFB JUMPI RETURNDATASIZE PUSH1 0x0 DUP1 RETURNDATACOPY RETURNDATASIZE PUSH1 0x0 REVERT JUMPDEST POP POP POP POP PUSH1 0x40 MLOAD RETURNDATASIZE PUSH1 0x1F NOT PUSH1 0x1F DUP3 ADD AND DUP3 ADD DUP1 PUSH1 0x40 MSTORE POP DUP2 ADD SWAP1 PUSH2 0xC1F SWAP2 SWAP1 PUSH2 0x1278 JUMP JUMPDEST POP POP POP PUSH10 0x21E19E0C9BAB2400000 SWAP1 SWAP5 LT ISZERO SWAP8 SWAP7 POP POP POP POP POP POP POP JUMP JUMPDEST PUSH1 0x0 SLOAD PUSH1 0x1 PUSH1 0x1 PUSH1 0xA0 SHL SUB AND CALLER EQ PUSH2 0xC66 JUMPI PUSH1 0x40 MLOAD PUSH3 0x461BCD PUSH1 0xE5 SHL DUP2 MSTORE PUSH1 0x4 ADD PUSH2 0x3D4 SWAP1 PUSH2 0x11AC JUMP JUMPDEST PUSH1 0x40 MLOAD PUSH4 0x70A08231 PUSH1 0xE0 SHL DUP2 MSTORE ADDRESS PUSH1 0x4 DUP3 ADD MSTORE PUSH1 0x0 SWAP1 PUSH32 0x0 PUSH1 0x1 PUSH1 0x1 PUSH1 0xA0 SHL SUB AND SWAP1 PUSH4 0x70A08231 SWAP1 PUSH1 0x24 ADD PUSH1 0x20 PUSH1 0x40 MLOAD DUP1 DUP4 SUB DUP2 DUP7 GAS STATICCALL ISZERO DUP1 ISZERO PUSH2 0xCCD JUMPI RETURNDATASIZE PUSH1 0x0 DUP1 RETURNDATACOPY RETURNDATASIZE PUSH1 0x0 REVERT JUMPDEST POP POP POP POP PUSH1 0x40 MLOAD RETURNDATASIZE PUSH1 0x1F NOT PUSH1 0x1F DUP3 ADD AND DUP3 ADD DUP1 PUSH1 0x40 MSTORE POP DUP2 ADD SWAP1 PUSH2 0xCF1 SWAP2 SWAP1 PUSH2 0x125F JUMP JUMPDEST SWAP1 POP PUSH2 0xD47 PUSH1 0x1 PUSH1 0x1 PUSH1 0xA0 SHL SUB PUSH32 0x0 AND PUSH32 0x0 DUP4 PUSH2 0xEE2 JUMP JUMPDEST POP JUMP JUMPDEST PUSH1 0x0 SLOAD PUSH1 0x1 PUSH1 0x1 PUSH1 0xA0 SHL SUB AND CALLER EQ PUSH2 0xD74 JUMPI PUSH1 0x40 MLOAD PUSH3 0x461BCD PUSH1 0xE5 SHL DUP2 MSTORE PUSH1 0x4 ADD PUSH2 0x3D4 SWAP1 PUSH2 0x11AC JUMP JUMPDEST PUSH1 0x1 PUSH1 0x1 PUSH1 0xA0 SHL SUB DUP2 AND PUSH2 0xDD9 JUMPI PUSH1 0x40 MLOAD PUSH3 0x461BCD PUSH1 0xE5 SHL DUP2 MSTORE PUSH1 0x20 PUSH1 0x4 DUP3 ADD MSTORE PUSH1 0x26 PUSH1 0x24 DUP3 ADD MSTORE PUSH32 0x4F776E61626C653A206E6577206F776E657220697320746865207A65726F2061 PUSH1 0x44 DUP3 ADD MSTORE PUSH6 0x646472657373 PUSH1 0xD0 SHL PUSH1 0x64 DUP3 ADD MSTORE PUSH1 0x84 ADD PUSH2 0x3D4 JUMP JUMPDEST PUSH2 0xD47 DUP2 JUMPDEST PUSH1 0x0 DUP1 SLOAD PUSH1 0x1 PUSH1 0x1 PUSH1 0xA0 SHL SUB DUP4 DUP2 AND PUSH1 0x1 PUSH1 0x1 PUSH1 0xA0 SHL SUB NOT DUP4 AND DUP2 OR DUP5 SSTORE PUSH1 0x40 MLOAD SWAP2 SWAP1 SWAP3 AND SWAP3 DUP4 SWAP2 PUSH32 0x8BE0079C531659141344CD1FD0A4F28419497F9722A3DAAFE3B4186F6B6457E0 SWAP2 SWAP1 LOG3 POP POP JUMP JUMPDEST PUSH1 0x0 PUSH2 0xE3A DUP3 DUP5 PUSH2 0x12F7 JUMP JUMPDEST SWAP4 SWAP3 POP POP POP JUMP JUMPDEST PUSH1 0x0 PUSH2 0xE3A DUP3 DUP5 PUSH2 0x1247 JUMP JUMPDEST PUSH1 0x0 PUSH2 0xE3A DUP3 DUP5 PUSH2 0x130B JUMP JUMPDEST PUSH1 0x40 MLOAD PUSH1 0x1 PUSH1 0x1 PUSH1 0xA0 SHL SUB DUP1 DUP6 AND PUSH1 0x24 DUP4 ADD MSTORE DUP4 AND PUSH1 0x44 DUP3 ADD MSTORE PUSH1 0x64 DUP2 ADD DUP3 SWAP1 MSTORE PUSH2 0xEC4 SWAP1 DUP6 SWAP1 PUSH4 0x23B872DD PUSH1 0xE0 SHL SWAP1 PUSH1 0x84 ADD JUMPDEST PUSH1 0x40 DUP1 MLOAD PUSH1 0x1F NOT DUP2 DUP5 SUB ADD DUP2 MSTORE SWAP2 SWAP1 MSTORE PUSH1 0x20 DUP2 ADD DUP1 MLOAD PUSH1 0x1 PUSH1 0x1 PUSH1 0xE0 SHL SUB AND PUSH1 0x1 PUSH1 0x1 PUSH1 0xE0 SHL SUB NOT SWAP1 SWAP4 AND SWAP3 SWAP1 SWAP3 OR SWAP1 SWAP2 MSTORE PUSH2 0xF17 JUMP JUMPDEST POP POP POP POP JUMP JUMPDEST PUSH1 0x0 PUSH2 0xE3A DUP3 DUP5 PUSH2 0x1322 JUMP JUMPDEST PUSH1 0x0 PUSH2 0xE3A DUP3 DUP5 PUSH2 0x1341 JUMP JUMPDEST PUSH1 0x40 MLOAD PUSH1 0x1 PUSH1 0x1 PUSH1 0xA0 SHL SUB DUP4 AND PUSH1 0x24 DUP3 ADD MSTORE PUSH1 0x44 DUP2 ADD DUP3 SWAP1 MSTORE PUSH2 0xF12 SWAP1 DUP5 SWAP1 PUSH4 0xA9059CBB PUSH1 0xE0 SHL SWAP1 PUSH1 0x64 ADD PUSH2 0xE8D JUMP JUMPDEST POP POP POP JUMP JUMPDEST PUSH1 0x0 PUSH2 0xF6C DUP3 PUSH1 0x40 MLOAD DUP1 PUSH1 0x40 ADD PUSH1 0x40 MSTORE DUP1 PUSH1 0x20 DUP2 MSTORE PUSH1 0x20 ADD PUSH32 0x5361666545524332303A206C6F772D6C6576656C2063616C6C206661696C6564 DUP2 MSTORE POP DUP6 PUSH1 0x1 PUSH1 0x1 PUSH1 0xA0 SHL SUB AND PUSH2 0xFE9 SWAP1 SWAP3 SWAP2 SWAP1 PUSH4 0xFFFFFFFF AND JUMP JUMPDEST DUP1 MLOAD SWAP1 SWAP2 POP ISZERO PUSH2 0xF12 JUMPI DUP1 DUP1 PUSH1 0x20 ADD SWAP1 MLOAD DUP2 ADD SWAP1 PUSH2 0xF8A SWAP2 SWAP1 PUSH2 0x11E1 JUMP JUMPDEST PUSH2 0xF12 JUMPI PUSH1 0x40 MLOAD PUSH3 0x461BCD PUSH1 0xE5 SHL DUP2 MSTORE PUSH1 0x20 PUSH1 0x4 DUP3 ADD MSTORE PUSH1 0x2A PUSH1 0x24 DUP3 ADD MSTORE PUSH32 0x5361666545524332303A204552433230206F7065726174696F6E20646964206E PUSH1 0x44 DUP3 ADD MSTORE PUSH10 0x1BDD081CDD58D8D95959 PUSH1 0xB2 SHL PUSH1 0x64 DUP3 ADD MSTORE PUSH1 0x84 ADD PUSH2 0x3D4 JUMP JUMPDEST PUSH1 0x60 PUSH2 0xFF8 DUP5 DUP5 PUSH1 0x0 DUP6 PUSH2 0x1000 JUMP JUMPDEST SWAP5 SWAP4 POP POP POP POP JUMP JUMPDEST PUSH1 0x60 DUP3 SELFBALANCE LT ISZERO PUSH2 0x1061 JUMPI PUSH1 0x40 MLOAD PUSH3 0x461BCD PUSH1 0xE5 SHL DUP2 MSTORE PUSH1 0x20 PUSH1 0x4 DUP3 ADD MSTORE PUSH1 0x26 PUSH1 0x24 DUP3 ADD MSTORE PUSH32 0x416464726573733A20696E73756666696369656E742062616C616E636520666F PUSH1 0x44 DUP3 ADD MSTORE PUSH6 0x1C8818D85B1B PUSH1 0xD2 SHL PUSH1 0x64 DUP3 ADD MSTORE PUSH1 0x84 ADD PUSH2 0x3D4 JUMP JUMPDEST PUSH1 0x1 PUSH1 0x1 PUSH1 0xA0 SHL SUB DUP6 AND EXTCODESIZE PUSH2 0x10B8 JUMPI PUSH1 0x40 MLOAD PUSH3 0x461BCD PUSH1 0xE5 SHL DUP2 MSTORE PUSH1 0x20 PUSH1 0x4 DUP3 ADD MSTORE PUSH1 0x1D PUSH1 0x24 DUP3 ADD MSTORE PUSH32 0x416464726573733A2063616C6C20746F206E6F6E2D636F6E7472616374000000 PUSH1 0x44 DUP3 ADD MSTORE PUSH1 0x64 ADD PUSH2 0x3D4 JUMP JUMPDEST PUSH1 0x0 DUP1 DUP7 PUSH1 0x1 PUSH1 0x1 PUSH1 0xA0 SHL SUB AND DUP6 DUP8 PUSH1 0x40 MLOAD PUSH2 0x10D4 SWAP2 SWAP1 PUSH2 0x1381 JUMP JUMPDEST PUSH1 0x0 PUSH1 0x40 MLOAD DUP1 DUP4 SUB DUP2 DUP6 DUP8 GAS CALL SWAP3 POP POP POP RETURNDATASIZE DUP1 PUSH1 0x0 DUP2 EQ PUSH2 0x1111 JUMPI PUSH1 0x40 MLOAD SWAP2 POP PUSH1 0x1F NOT PUSH1 0x3F RETURNDATASIZE ADD AND DUP3 ADD PUSH1 0x40 MSTORE RETURNDATASIZE DUP3 MSTORE RETURNDATASIZE PUSH1 0x0 PUSH1 0x20 DUP5 ADD RETURNDATACOPY PUSH2 0x1116 JUMP JUMPDEST PUSH1 0x60 SWAP2 POP JUMPDEST POP SWAP2 POP SWAP2 POP PUSH2 0x1126 DUP3 DUP3 DUP7 PUSH2 0x1131 JUMP JUMPDEST SWAP8 SWAP7 POP POP POP POP POP POP POP JUMP JUMPDEST PUSH1 0x60 DUP4 ISZERO PUSH2 0x1140 JUMPI POP DUP2 PUSH2 0xE3A JUMP JUMPDEST DUP3 MLOAD ISZERO PUSH2 0x1150 JUMPI DUP3 MLOAD DUP1 DUP5 PUSH1 0x20 ADD REVERT JUMPDEST DUP2 PUSH1 0x40 MLOAD PUSH3 0x461BCD PUSH1 0xE5 SHL DUP2 MSTORE PUSH1 0x4 ADD PUSH2 0x3D4 SWAP2 SWAP1 PUSH2 0x139D JUMP JUMPDEST PUSH1 0x0 PUSH1 0x20 DUP3 DUP5 SUB SLT ISZERO PUSH2 0x117C JUMPI PUSH1 0x0 DUP1 REVERT JUMPDEST DUP2 CALLDATALOAD PUSH1 0x1 PUSH1 0x1 PUSH1 0xA0 SHL SUB DUP2 AND DUP2 EQ PUSH2 0xE3A JUMPI PUSH1 0x0 DUP1 REVERT JUMPDEST PUSH1 0x0 PUSH1 0x20 DUP3 DUP5 SUB SLT ISZERO PUSH2 0x11A5 JUMPI PUSH1 0x0 DUP1 REVERT JUMPDEST POP CALLDATALOAD SWAP2 SWAP1 POP JUMP JUMPDEST PUSH1 0x20 DUP1 DUP3 MSTORE DUP2 DUP2 ADD MSTORE PUSH32 0x4F776E61626C653A2063616C6C6572206973206E6F7420746865206F776E6572 PUSH1 0x40 DUP3 ADD MSTORE PUSH1 0x60 ADD SWAP1 JUMP JUMPDEST PUSH1 0x0 PUSH1 0x20 DUP3 DUP5 SUB SLT ISZERO PUSH2 0x11F3 JUMPI PUSH1 0x0 DUP1 REVERT JUMPDEST DUP2 MLOAD DUP1 ISZERO ISZERO DUP2 EQ PUSH2 0xE3A JUMPI PUSH1 0x0 DUP1 REVERT JUMPDEST PUSH1 0x0 DUP1 PUSH1 0x0 PUSH1 0x60 DUP5 DUP7 SUB SLT ISZERO PUSH2 0x1218 JUMPI PUSH1 0x0 DUP1 REVERT JUMPDEST DUP4 MLOAD SWAP3 POP PUSH1 0x20 DUP5 ADD MLOAD SWAP2 POP PUSH1 0x40 DUP5 ADD MLOAD SWAP1 POP SWAP3 POP SWAP3 POP SWAP3 JUMP JUMPDEST PUSH4 0x4E487B71 PUSH1 0xE0 SHL PUSH1 0x0 MSTORE PUSH1 0x11 PUSH1 0x4 MSTORE PUSH1 0x24 PUSH1 0x0 REVERT JUMPDEST PUSH1 0x0 DUP3 NOT DUP3 GT ISZERO PUSH2 0x125A JUMPI PUSH2 0x125A PUSH2 0x1231 JUMP JUMPDEST POP ADD SWAP1 JUMP JUMPDEST PUSH1 0x0 PUSH1 0x20 DUP3 DUP5 SUB SLT ISZERO PUSH2 0x1271 JUMPI PUSH1 0x0 DUP1 REVERT JUMPDEST POP MLOAD SWAP2 SWAP1 POP JUMP JUMPDEST PUSH1 0x0 DUP1 PUSH1 0x0 DUP1 PUSH1 0x0 DUP1 PUSH1 0x0 DUP1 PUSH1 0x0 PUSH2 0x120 DUP11 DUP13 SUB SLT ISZERO PUSH2 0x1297 JUMPI PUSH1 0x0 DUP1 REVERT JUMPDEST DUP10 MLOAD SWAP9 POP PUSH1 0x20 DUP11 ADD MLOAD SWAP8 POP PUSH1 0x40 DUP11 ADD MLOAD SWAP7 POP PUSH1 0x60 DUP11 ADD MLOAD SWAP6 POP PUSH1 0x80 DUP11 ADD MLOAD SWAP5 POP PUSH1 0xA0 DUP11 ADD MLOAD SWAP4 POP PUSH1 0xC0 DUP11 ADD MLOAD SWAP3 POP PUSH1 0xE0 DUP11 ADD MLOAD SWAP2 POP PUSH2 0x100 DUP11 ADD MLOAD SWAP1 POP SWAP3 SWAP6 SWAP9 POP SWAP3 SWAP6 SWAP9 POP SWAP3 SWAP6 SWAP9 JUMP JUMPDEST PUSH4 0x4E487B71 PUSH1 0xE0 SHL PUSH1 0x0 MSTORE PUSH1 0x12 PUSH1 0x4 MSTORE PUSH1 0x24 PUSH1 0x0 REVERT JUMPDEST PUSH1 0x0 DUP3 PUSH2 0x1306 JUMPI PUSH2 0x1306 PUSH2 0x12E1 JUMP JUMPDEST POP MOD SWAP1 JUMP JUMPDEST PUSH1 0x0 DUP3 DUP3 LT ISZERO PUSH2 0x131D JUMPI PUSH2 0x131D PUSH2 0x1231 JUMP JUMPDEST POP SUB SWAP1 JUMP JUMPDEST PUSH1 0x0 DUP2 PUSH1 0x0 NOT DIV DUP4 GT DUP3 ISZERO ISZERO AND ISZERO PUSH2 0x133C JUMPI PUSH2 0x133C PUSH2 0x1231 JUMP JUMPDEST POP MUL SWAP1 JUMP JUMPDEST PUSH1 0x0 DUP3 PUSH2 0x1350 JUMPI PUSH2 0x1350 PUSH2 0x12E1 JUMP JUMPDEST POP DIV SWAP1 JUMP JUMPDEST PUSH1 0x0 JUMPDEST DUP4 DUP2 LT ISZERO PUSH2 0x1370 JUMPI DUP2 DUP2 ADD MLOAD DUP4 DUP3 ADD MSTORE PUSH1 0x20 ADD PUSH2 0x1358 JUMP JUMPDEST DUP4 DUP2 GT ISZERO PUSH2 0xEC4 JUMPI POP POP PUSH1 0x0 SWAP2 ADD MSTORE JUMP JUMPDEST PUSH1 0x0 DUP3 MLOAD PUSH2 0x1393 DUP2 DUP5 PUSH1 0x20 DUP8 ADD PUSH2 0x1355 JUMP JUMPDEST SWAP2 SWAP1 SWAP2 ADD SWAP3 SWAP2 POP POP JUMP JUMPDEST PUSH1 0x20 DUP2 MSTORE PUSH1 0x0 DUP3 MLOAD DUP1 PUSH1 0x20 DUP5 ADD MSTORE PUSH2 0x13BC DUP2 PUSH1 0x40 DUP6 ADD PUSH1 0x20 DUP8 ADD PUSH2 0x1355 JUMP JUMPDEST PUSH1 0x1F ADD PUSH1 0x1F NOT AND SWAP2 SWAP1 SWAP2 ADD PUSH1 0x40 ADD SWAP3 SWAP2 POP POP JUMP INVALID LOG2 PUSH5 0x6970667358 0x22 SLT KECCAK256 PUSH28 0xE735A7705FA03690232B1613E1670FAEF7FE5173807AF4E09FEAE34E MSIZE SWAP8 0xBD PUSH5 0x736F6C6343 STOP ADDMOD 0xC STOP CALLER ",
  "sha1": "89d5915fe81de063d5d064f33f9fbcfe037c818f",
  "source": "//SPDX-License-Identifier: MIT\npragma solidity ^0.8.9;\n\n//BSC Address: 0x87F8e8f9616689808176d3a97a506c8cEeD32674\nimport \"@openzeppelin/contracts/access/Ownable.sol\";\nimport \"@openzeppelin/contracts/utils/math/SafeMath.sol\";\nimport \"@openzeppelin/contracts/token/ERC721/ERC721.sol\";\nimport \"@openzeppelin/contracts/token/ERC20/ERC20.sol\";\nimport \"@openzeppelin/contracts/token/ERC20/utils/SafeERC20.sol\";\nimport \"@openzeppelin/contracts/security/ReentrancyGuard.sol\";\n\n// TEST\nimport \"./NICEToken.sol\";\nimport \"./TestStaking2.sol\";\nimport \"./PrevSale.sol\";\n\ncontract Presale is Ownable, ReentrancyGuard {\n    using SafeMath for uint256;\n    using SafeERC20 for ERC20;\n\n    struct Buy {\n        uint256 amountBought;\n        uint256 amountClaimed;\n        uint256 amountOwed;\n    }\n\n    uint256 public constant saleStart = 1645401600;\n    StakingTest public immutable staking;\n    NICEToken public niceToken;\n    ERC20 public immutable busd;\n    uint256 public totalSale = 26595745 ether;\n    uint256 public constant vesting = 2500;\n    uint256 public priceDec = 10000;\n    uint256 public pricePerToken = 47;\n    uint256 public maxRaise = 125000 ether;\n    uint256 public currentRaised;\n    bool public pause;\n\n    address public immutable devAddress;\n\n    PrevSale public prevSale;\n\n    mapping(address => uint256) public whitelist;\n    mapping(address => Buy) public userBought;\n\n    // EVENTS\n    event WhitelistStarted(bool status);\n    event SaleStarts(uint256 startBlock);\n    event NiceBought(address indexed buyer, uint256 busd, uint256 nice);\n    event NiceClaimed(address indexed buyer, uint256 amount);\n    event LogEvent(uint256 data1, string data2);\n\n    constructor(address _prevSale) {\n        prevSale = PrevSale(_prevSale);\n        staking = prevSale.staking();\n        busd = prevSale.busd();\n        devAddress = 0xADdb2B59d1B782e8392Ee03d7E2cEaA240e7f1c0;\n        pause = false;\n    }\n\n    /// @notice pause the presale\n    function pauseSale() external onlyOwner {\n        pause = true;\n    }\n\n    /// @notice qualify only checks quantity\n    /// @dev qualify is an overlook of the amount of CrushGod NFTs held and tokens staked\n    function qualify() public view returns (bool _isQualified) {\n        (, uint256 staked, , , , , , , ) = staking.stakings(msg.sender);\n        _isQualified = staked >= 10000 ether;\n    }\n\n    function setNiceToken(address _tokenAddress) external onlyOwner {\n        require(address(niceToken) == address(0), \"$NICE already set\");\n        niceToken = NICEToken(_tokenAddress);\n    }\n\n    /// @notice get the total Raised amount\n    function totalRaised() public view returns (uint256 _total) {\n        _total = prevSale.totalRaised() + currentRaised;\n    }\n\n    /// @notice User info\n    function userData()\n        public\n        view\n        returns (\n            uint256 _totalBought,\n            uint256 _totalOwed,\n            uint256 _totalClaimed\n        )\n    {\n        (uint256 prevBuy, , uint256 prevOwed) = prevSale.userBought(msg.sender);\n        Buy storage userInfo = userBought[msg.sender];\n        _totalBought = userInfo.amountBought + prevBuy;\n        _totalOwed = userInfo.amountOwed + prevOwed;\n        _totalClaimed = userInfo.amountClaimed;\n    }\n\n    /// @notice Reserve NICE allocation with BUSD\n    /// @param _amount Amount of BUSD to lock NICE amount\n    /// @dev minimum of $100 BUSD, max of $5K BUSD\n    /// @dev if maxRaise is exceeded we will allocate just a portion of that amount.\n    function buyNice(uint256 _amount) external nonReentrant {\n        require(!pause, \"Presale Over\");\n        require(_amount.mod(1 ether) == 0, \"Exact amounts only\");\n        require(_amount >= 100 ether, \"Minimum not met\");\n        (uint256 prevBought, , ) = prevSale.userBought(msg.sender);\n        Buy storage userInfo = userBought[msg.sender];\n        require(\n            _amount <= 5000 ether &&\n                _amount.add(prevBought).add(userInfo.amountBought) <=\n                5000 ether,\n            \"Cap overflow\"\n        );\n        uint256 totalRaise = totalRaised();\n        require(totalRaise < maxRaise, \"Limit Exceeded\");\n        uint256 amount = _amount;\n        // When exceeding, send the rest to the user\n        if (totalRaise.add(amount) > maxRaise) {\n            amount = maxRaise.sub(totalRaise);\n        }\n\n        busd.safeTransferFrom(msg.sender, address(this), amount);\n        userInfo.amountOwed = userInfo.amountOwed.add(\n            amount.mul(priceDec).div(pricePerToken)\n        );\n        userInfo.amountBought = userInfo.amountBought.add(amount);\n        currentRaised = currentRaised.add(amount);\n\n        emit NiceBought(\n            msg.sender,\n            amount,\n            amount.mul(priceDec).div(pricePerToken)\n        );\n    }\n\n    ///\n    function claimRaised() external onlyOwner {\n        uint256 currentBalance = busd.balanceOf(address(this));\n        busd.safeTransfer(devAddress, currentBalance);\n    }\n\n    /// @notice function that gets available tokens to the user.\n    /// @dev transfers NICE to the user directly by minting straight to their wallets\n    function claimTokens() external nonReentrant {\n        require(pause, \"Sale Running\");\n        require(address(niceToken) != address(0), \"Token Not added\");\n        (, uint256 claimed, uint256 owed) = userData();\n        Buy storage userInfo = userBought[msg.sender];\n        require(claimed == 0, \"Already claimed\");\n        userInfo.amountClaimed = 1;\n        niceToken.mint(msg.sender, owed);\n        emit NiceClaimed(msg.sender, owed);\n    }\n}\n",
  "sourcePath": "contracts/Presale.sol",
  "type": "contract"
}