{
  "abi": [
    {
      "inputs": [
        {
          "internalType": "address",
          "name": "crushGodNft",
          "type": "address"
        },
        {
          "internalType": "address",
          "name": "stakingV2",
          "type": "address"
        },
        {
          "internalType": "address",
          "name": "_busd",
          "type": "address"
        }
      ],
      "stateMutability": "nonpayable",
      "type": "constructor"
    },
    {
      "anonymous": false,
      "inputs": [
        {
          "indexed": false,
          "internalType": "uint256",
          "name": "data1",
          "type": "uint256"
        },
        {
          "indexed": false,
          "internalType": "string",
          "name": "data2",
          "type": "string"
        }
      ],
      "name": "LogEvent",
      "type": "event"
    },
    {
      "anonymous": false,
      "inputs": [
        {
          "indexed": true,
          "internalType": "address",
          "name": "buyer",
          "type": "address"
        },
        {
          "indexed": false,
          "internalType": "uint256",
          "name": "busd",
          "type": "uint256"
        },
        {
          "indexed": false,
          "internalType": "uint256",
          "name": "nice",
          "type": "uint256"
        }
      ],
      "name": "NiceBought",
      "type": "event"
    },
    {
      "anonymous": false,
      "inputs": [
        {
          "indexed": true,
          "internalType": "address",
          "name": "buyer",
          "type": "address"
        },
        {
          "indexed": false,
          "internalType": "uint256",
          "name": "amount",
          "type": "uint256"
        }
      ],
      "name": "NiceClaimed",
      "type": "event"
    },
    {
      "anonymous": false,
      "inputs": [
        {
          "indexed": true,
          "internalType": "address",
          "name": "previousOwner",
          "type": "address"
        },
        {
          "indexed": true,
          "internalType": "address",
          "name": "newOwner",
          "type": "address"
        }
      ],
      "name": "OwnershipTransferred",
      "type": "event"
    },
    {
      "anonymous": false,
      "inputs": [
        {
          "indexed": false,
          "internalType": "uint256",
          "name": "startBlock",
          "type": "uint256"
        }
      ],
      "name": "SaleStarts",
      "type": "event"
    },
    {
      "anonymous": false,
      "inputs": [
        {
          "indexed": false,
          "internalType": "bool",
          "name": "status",
          "type": "bool"
        }
      ],
      "name": "WhitelistStarted",
      "type": "event"
    },
    {
      "inputs": [],
      "name": "DIVISOR",
      "outputs": [
        {
          "internalType": "uint256",
          "name": "",
          "type": "uint256"
        }
      ],
      "stateMutability": "view",
      "type": "function"
    },
    {
      "inputs": [],
      "name": "availableAmount",
      "outputs": [
        {
          "internalType": "uint256",
          "name": "_avail",
          "type": "uint256"
        }
      ],
      "stateMutability": "view",
      "type": "function"
    },
    {
      "inputs": [],
      "name": "busd",
      "outputs": [
        {
          "internalType": "contract ERC20",
          "name": "",
          "type": "address"
        }
      ],
      "stateMutability": "view",
      "type": "function"
    },
    {
      "inputs": [
        {
          "internalType": "uint256",
          "name": "_amount",
          "type": "uint256"
        }
      ],
      "name": "buyNice",
      "outputs": [],
      "stateMutability": "nonpayable",
      "type": "function"
    },
    {
      "inputs": [],
      "name": "claimRaised",
      "outputs": [],
      "stateMutability": "nonpayable",
      "type": "function"
    },
    {
      "inputs": [],
      "name": "claimTokens",
      "outputs": [],
      "stateMutability": "nonpayable",
      "type": "function"
    },
    {
      "inputs": [],
      "name": "crushGod",
      "outputs": [
        {
          "internalType": "contract ERC721",
          "name": "",
          "type": "address"
        }
      ],
      "stateMutability": "view",
      "type": "function"
    },
    {
      "inputs": [],
      "name": "devAddress",
      "outputs": [
        {
          "internalType": "address",
          "name": "",
          "type": "address"
        }
      ],
      "stateMutability": "view",
      "type": "function"
    },
    {
      "inputs": [],
      "name": "maxRaise",
      "outputs": [
        {
          "internalType": "uint256",
          "name": "",
          "type": "uint256"
        }
      ],
      "stateMutability": "view",
      "type": "function"
    },
    {
      "inputs": [
        {
          "internalType": "uint256",
          "name": "",
          "type": "uint256"
        }
      ],
      "name": "nftUsed",
      "outputs": [
        {
          "internalType": "address",
          "name": "",
          "type": "address"
        }
      ],
      "stateMutability": "view",
      "type": "function"
    },
    {
      "inputs": [],
      "name": "niceToken",
      "outputs": [
        {
          "internalType": "contract NICEToken",
          "name": "",
          "type": "address"
        }
      ],
      "stateMutability": "view",
      "type": "function"
    },
    {
      "inputs": [],
      "name": "owner",
      "outputs": [
        {
          "internalType": "address",
          "name": "",
          "type": "address"
        }
      ],
      "stateMutability": "view",
      "type": "function"
    },
    {
      "inputs": [],
      "name": "priceDec",
      "outputs": [
        {
          "internalType": "uint256",
          "name": "",
          "type": "uint256"
        }
      ],
      "stateMutability": "view",
      "type": "function"
    },
    {
      "inputs": [],
      "name": "pricePerToken",
      "outputs": [
        {
          "internalType": "uint256",
          "name": "",
          "type": "uint256"
        }
      ],
      "stateMutability": "view",
      "type": "function"
    },
    {
      "inputs": [],
      "name": "qualify",
      "outputs": [
        {
          "internalType": "bool",
          "name": "_isQualified",
          "type": "bool"
        }
      ],
      "stateMutability": "view",
      "type": "function"
    },
    {
      "inputs": [],
      "name": "renounceOwnership",
      "outputs": [],
      "stateMutability": "nonpayable",
      "type": "function"
    },
    {
      "inputs": [],
      "name": "saleEnd",
      "outputs": [
        {
          "internalType": "uint256",
          "name": "",
          "type": "uint256"
        }
      ],
      "stateMutability": "view",
      "type": "function"
    },
    {
      "inputs": [],
      "name": "saleStart",
      "outputs": [
        {
          "internalType": "uint256",
          "name": "",
          "type": "uint256"
        }
      ],
      "stateMutability": "view",
      "type": "function"
    },
    {
      "inputs": [
        {
          "internalType": "address",
          "name": "_tokenAddress",
          "type": "address"
        }
      ],
      "name": "setNiceToken",
      "outputs": [],
      "stateMutability": "nonpayable",
      "type": "function"
    },
    {
      "inputs": [],
      "name": "staking",
      "outputs": [
        {
          "internalType": "contract StakingTest",
          "name": "",
          "type": "address"
        }
      ],
      "stateMutability": "view",
      "type": "function"
    },
    {
      "inputs": [],
      "name": "totalRaised",
      "outputs": [
        {
          "internalType": "uint256",
          "name": "",
          "type": "uint256"
        }
      ],
      "stateMutability": "view",
      "type": "function"
    },
    {
      "inputs": [],
      "name": "totalSale",
      "outputs": [
        {
          "internalType": "uint256",
          "name": "",
          "type": "uint256"
        }
      ],
      "stateMutability": "view",
      "type": "function"
    },
    {
      "inputs": [
        {
          "internalType": "address",
          "name": "newOwner",
          "type": "address"
        }
      ],
      "name": "transferOwnership",
      "outputs": [],
      "stateMutability": "nonpayable",
      "type": "function"
    },
    {
      "inputs": [
        {
          "internalType": "address",
          "name": "",
          "type": "address"
        }
      ],
      "name": "userBought",
      "outputs": [
        {
          "internalType": "uint256",
          "name": "amountBought",
          "type": "uint256"
        },
        {
          "internalType": "uint256",
          "name": "amountClaimed",
          "type": "uint256"
        },
        {
          "internalType": "uint256",
          "name": "amountOwed",
          "type": "uint256"
        }
      ],
      "stateMutability": "view",
      "type": "function"
    },
    {
      "inputs": [],
      "name": "vesting",
      "outputs": [
        {
          "internalType": "uint256",
          "name": "",
          "type": "uint256"
        }
      ],
      "stateMutability": "view",
      "type": "function"
    },
    {
      "inputs": [],
      "name": "vestingDuration",
      "outputs": [
        {
          "internalType": "uint256",
          "name": "",
          "type": "uint256"
        }
      ],
      "stateMutability": "view",
      "type": "function"
    },
    {
      "inputs": [
        {
          "internalType": "address",
          "name": "",
          "type": "address"
        }
      ],
      "name": "whitelist",
      "outputs": [
        {
          "internalType": "uint256",
          "name": "",
          "type": "uint256"
        }
      ],
      "stateMutability": "view",
      "type": "function"
    },
    {
      "inputs": [
        {
          "internalType": "uint256",
          "name": "tokenId",
          "type": "uint256"
        }
      ],
      "name": "whitelistSelf",
      "outputs": [],
      "stateMutability": "nonpayable",
      "type": "function"
    }
  ],
  "bytecode": "6101006040526a15ffde39b363d8e9e40000600355612710600455602f600555691a784379d99db42000006006553480156200003a57600080fd5b5060405162001824380380620018248339810160408190526200005d916200010f565b6200006833620000a2565b600180556001600160a01b0392831660a0529082166080521660c05273addb2b59d1b782e8392ee03d7e2ceaa240e7f1c060e05262000159565b600080546001600160a01b038381166001600160a01b0319831681178455604051919092169283917f8be0079c531659141344cd1fd0a4f28419497f9722a3daafe3b4186f6b6457e09190a35050565b80516001600160a01b03811681146200010a57600080fd5b919050565b6000806000606084860312156200012557600080fd5b6200013084620000f2565b92506200014060208501620000f2565b91506200015060408501620000f2565b90509250925092565b60805160a05160c05160e051611660620001c46000396000818161024a0152610d87015260008181610271015281816109cb01528181610ce30152610d6501526000818161029801528181610c080152610f5b0152600081816102d00152610b7501526116606000f3fe608060405234801561001057600080fd5b50600436106101c45760003560e01c806391433883116100f9578063c5c4744c11610097578063ea4ce23911610071578063ea4ce239146103ea578063eb04c9d7146103f3578063f2fde38b14610406578063f78213e31461041957600080fd5b8063c5c4744c146103c1578063d862bcf5146103ca578063e52a7e24146103e257600080fd5b80639b19251a116100d35780639b19251a14610341578063ab0bcc4114610361578063c10b93581461036c578063c4a717cf1461037757600080fd5b8063914338831461031d5780639181951b1461032657806391f7cfb91461033957600080fd5b806344c63eec11610166578063715018a611610140578063715018a6146102f2578063719ec6b1146102fa5780637b1b1de6146103035780638da5cb5b1461030c57600080fd5b806344c63eec146102ba57806348c54b9d146102c35780634cf088d9146102cb57600080fd5b80633410fe6e116101a25780633410fe6e1461023c5780633ad10ef6146102455780633ca5b2341461026c5780633df62df01461029357600080fd5b8063055ef013146101c95780631514617e146101de578063223d65d4146101fb575b600080fd5b6101dc6101d73660046113e1565b61042c565b005b6101e86212750081565b6040519081526020015b60405180910390f35b6102246102093660046113fe565b6009602052600090815260409020546001600160a01b031681565b6040516001600160a01b0390911681526020016101f2565b6101e861271081565b6102247f000000000000000000000000000000000000000000000000000000000000000081565b6102247f000000000000000000000000000000000000000000000000000000000000000081565b6102247f000000000000000000000000000000000000000000000000000000000000000081565b6101e86109c481565b6101dc6104ce565b6102247f000000000000000000000000000000000000000000000000000000000000000081565b6101dc61071b565b6101e860065481565b6101e860055481565b6000546001600160a01b0316610224565b6101e860045481565b6101dc6103343660046113fe565b610751565b6101e8610a9b565b6101e861034f3660046113e1565b60086020526000908152604090205481565b6101e8636212d60081565b6101e8636216ca8081565b6103a66103853660046113e1565b600a6020526000908152604090208054600182015460029092015490919083565b604080519384526020840192909252908201526060016101f2565b6101e860075481565b6103d2610b53565b60405190151581526020016101f2565b6101dc610ca1565b6101e860035481565b600254610224906001600160a01b031681565b6101dc6104143660046113e1565b610daf565b6101dc6104273660046113fe565b610e47565b6000546001600160a01b0316331461045f5760405162461bcd60e51b815260040161045690611417565b60405180910390fd5b6002546001600160a01b0316156104ac5760405162461bcd60e51b815260206004820152601160248201527009139250d148185b1c9958591e481cd95d607a1b6044820152606401610456565b600280546001600160a01b0319166001600160a01b0392909216919091179055565b600260015414156105215760405162461bcd60e51b815260206004820152601f60248201527f5265656e7472616e637947756172643a207265656e7472616e742063616c6c006044820152606401610456565b6002600155336000908152600a60205260409020610546636216ca8062127500611040565b42116105885760405162461bcd60e51b8152602060048201526011602482015270436c61696d20556e617661696c61626c6560781b6044820152606401610456565b6002546001600160a01b03166105d25760405162461bcd60e51b815260206004820152600f60248201526e151bdad95b88139bdd081859191959608a1b6044820152606401610456565b60006105dc610a9b565b9050808260010154106106235760405162461bcd60e51b815260206004820152600f60248201526e105b1c9958591e4818db185a5b5959608a1b6044820152606401610456565b6001820154610633908290611053565b60018301549091506106459082611040565b600183015560028201546106679061271090610661908461105f565b9061106b565b6002546040516340c10f1960e01b8152336004820152602481018390529192506001600160a01b0316906340c10f19906044016020604051808303816000875af11580156106b9573d6000803e3d6000fd5b505050506040513d601f19601f820116820180604052508101906106dd919061144c565b5060405181815233907f577416e982a24935e58003a2bc88755d1018671696e08d0fc6ca1dd95e370a1d9060200160405180910390a2505060018055565b6000546001600160a01b031633146107455760405162461bcd60e51b815260040161045690611417565b61074f6000611077565b565b600260015414156107a45760405162461bcd60e51b815260206004820152601f60248201527f5265656e7472616e637947756172643a207265656e7472616e742063616c6c006044820152606401610456565b60026001556107bb81670de0b6b3a76400006110c7565b156107fd5760405162461bcd60e51b8152602060048201526012602482015271457861637420616d6f756e7473206f6e6c7960701b6044820152606401610456565b3360009081526008602052604090205461084a5760405162461bcd60e51b815260206004820152600e60248201526d57686974656c697374206f6e6c7960901b6044820152606401610456565b636216ca8042106108895760405162461bcd60e51b815260206004820152600960248201526814d85b19515b99195960ba1b6044820152606401610456565b68056bc75e2d631000008110156108d45760405162461bcd60e51b815260206004820152600f60248201526e135a5b9a5b5d5b481b9bdd081b595d608a1b6044820152606401610456565b336000908152600a6020526040902069010f0cf064dd5920000082118015906109145750805469010f0cf064dd5920000090610911908490611040565b11155b61094f5760405162461bcd60e51b815260206004820152600c60248201526b436170206f766572666c6f7760a01b6044820152606401610456565b600654600754106109935760405162461bcd60e51b815260206004820152600e60248201526d131a5b5a5d08115e18d95959195960921b6044820152606401610456565b6006546007548391906109a69083611040565b11156109be576007546006546109bb91611053565b90505b6109f36001600160a01b037f0000000000000000000000000000000000000000000000000000000000000000163330846110d3565b610a1c610a116005546106616004548561105f90919063ffffffff16565b600284015490611040565b60028301558154610a2d9082611040565b8255600754610a3c9082611040565b60075560055460045433917f96ea671ef97e3b0c25b75c51786366ec072e19ce8a92db8ee92004d88319a87d918491610a7a9161066190849061105f565b6040805192835260208301919091520160405180910390a250506001805550565b6000636216ca80421115610b5057610aba636216ca8062127500611040565b421115610ad057610acd816109c4611040565b90505b610aec610ae162127500600261105f565b636216ca8090611040565b421115610b0257610aff816109c4611040565b90505b610b13610ae162127500600361105f565b421115610b2957610b26816109c4611040565b90505b610b3a610ae162127500600461105f565b421115610b5057610b4d816109c4611040565b90505b90565b60405163dc6e13e160e01b815233600482015260009081906001600160a01b037f0000000000000000000000000000000000000000000000000000000000000000169063dc6e13e19060240161012060405180830381865afa158015610bbd573d6000803e3d6000fd5b505050506040513d601f19601f82011682018060405250810190610be1919061146e565b50506040516370a0823160e01b815233600482015295975060009650506001600160a01b037f000000000000000000000000000000000000000000000000000000000000000016946370a0823194506024019250610c3d915050565b602060405180830381865afa158015610c5a573d6000803e3d6000fd5b505050506040513d601f19601f82011682018060405250810190610c7e91906114d7565b9050600081118015610c9a575069021e19e0c9bab24000008210155b9250505090565b6000546001600160a01b03163314610ccb5760405162461bcd60e51b815260040161045690611417565b6040516370a0823160e01b81523060048201526000907f00000000000000000000000000000000000000000000000000000000000000006001600160a01b0316906370a0823190602401602060405180830381865afa158015610d32573d6000803e3d6000fd5b505050506040513d601f19601f82011682018060405250810190610d5691906114d7565b9050610dac6001600160a01b037f0000000000000000000000000000000000000000000000000000000000000000167f000000000000000000000000000000000000000000000000000000000000000083611144565b50565b6000546001600160a01b03163314610dd95760405162461bcd60e51b815260040161045690611417565b6001600160a01b038116610e3e5760405162461bcd60e51b815260206004820152602660248201527f4f776e61626c653a206e6577206f776e657220697320746865207a65726f206160448201526564647265737360d01b6064820152608401610456565b610dac81611077565b6000610e51610b53565b905080610e8e5760405162461bcd60e51b815260206004820152600b60248201526a155b9c5d585b1a599a595960aa1b6044820152606401610456565b3360009081526008602052604090205415610ee15760405162461bcd60e51b8152602060048201526013602482015272105b1c9958591e481dda1a5d195b1a5cdd1959606a1b6044820152606401610456565b6000828152600960205260409020546001600160a01b031615610f3b5760405162461bcd60e51b8152602060048201526012602482015271151bdad95b88185b1c9958591e481d5cd95960721b6044820152606401610456565b6040516331a9108f60e11b81526004810183905233906001600160a01b037f00000000000000000000000000000000000000000000000000000000000000001690636352211e90602401602060405180830381865afa158015610fa2573d6000803e3d6000fd5b505050506040513d601f19601f82011682018060405250810190610fc691906114f0565b6001600160a01b03161461100c5760405162461bcd60e51b815260206004820152600d60248201526c24b63632b3b0b61037bbb732b960991b6044820152606401610456565b50336000818152600860209081526040808320859055938252600990529190912080546001600160a01b0319169091179055565b600061104c8284611523565b9392505050565b600061104c828461153b565b600061104c8284611552565b600061104c8284611587565b600080546001600160a01b038381166001600160a01b0319831681178455604051919092169283917f8be0079c531659141344cd1fd0a4f28419497f9722a3daafe3b4186f6b6457e09190a35050565b600061104c828461159b565b6040516001600160a01b038085166024830152831660448201526064810182905261113e9085906323b872dd60e01b906084015b60408051601f198184030181529190526020810180516001600160e01b03166001600160e01b031990931692909217909152611179565b50505050565b6040516001600160a01b03831660248201526044810182905261117490849063a9059cbb60e01b90606401611107565b505050565b60006111ce826040518060400160405280602081526020017f5361666545524332303a206c6f772d6c6576656c2063616c6c206661696c6564815250856001600160a01b031661124b9092919063ffffffff16565b80519091501561117457808060200190518101906111ec919061144c565b6111745760405162461bcd60e51b815260206004820152602a60248201527f5361666545524332303a204552433230206f7065726174696f6e20646964206e6044820152691bdd081cdd58d8d9595960b21b6064820152608401610456565b606061125a8484600085611262565b949350505050565b6060824710156112c35760405162461bcd60e51b815260206004820152602660248201527f416464726573733a20696e73756666696369656e742062616c616e636520666f6044820152651c8818d85b1b60d21b6064820152608401610456565b6001600160a01b0385163b61131a5760405162461bcd60e51b815260206004820152601d60248201527f416464726573733a2063616c6c20746f206e6f6e2d636f6e74726163740000006044820152606401610456565b600080866001600160a01b0316858760405161133691906115db565b60006040518083038185875af1925050503d8060008114611373576040519150601f19603f3d011682016040523d82523d6000602084013e611378565b606091505b5091509150611388828286611393565b979650505050505050565b606083156113a257508161104c565b8251156113b25782518084602001fd5b8160405162461bcd60e51b815260040161045691906115f7565b6001600160a01b0381168114610dac57600080fd5b6000602082840312156113f357600080fd5b813561104c816113cc565b60006020828403121561141057600080fd5b5035919050565b6020808252818101527f4f776e61626c653a2063616c6c6572206973206e6f7420746865206f776e6572604082015260600190565b60006020828403121561145e57600080fd5b8151801515811461104c57600080fd5b60008060008060008060008060006101208a8c03121561148d57600080fd5b8951985060208a0151975060408a0151965060608a0151955060808a0151945060a08a0151935060c08a0151925060e08a015191506101008a015190509295985092959850929598565b6000602082840312156114e957600080fd5b5051919050565b60006020828403121561150257600080fd5b815161104c816113cc565b634e487b7160e01b600052601160045260246000fd5b600082198211156115365761153661150d565b500190565b60008282101561154d5761154d61150d565b500390565b600081600019048311821515161561156c5761156c61150d565b500290565b634e487b7160e01b600052601260045260246000fd5b60008261159657611596611571565b500490565b6000826115aa576115aa611571565b500690565b60005b838110156115ca5781810151838201526020016115b2565b8381111561113e5750506000910152565b600082516115ed8184602087016115af565b9190910192915050565b60208152600082518060208401526116168160408501602087016115af565b601f01601f1916919091016040019291505056fea264697066735822122096912f6248bd6548d7825cf5ad77f33201b87867398faf64be7efa0c41244ed264736f6c634300080c0033",
  "bytecodeSha1": "c71401ef7a3a9a46f6425f80be89ea2e1b396532",
  "compiler": {
    "evm_version": "istanbul",
    "optimizer": {
      "enabled": true,
      "runs": 200
    },
    "version": "0.8.12+commit.f00d7308"
  },
  "contractName": "PrevSale",
  "language": "Solidity",
  "natspec": {
    "kind": "dev",
    "methods": {
      "availableAmount()": {
        "details": "this function checks if time has passed to set the max amount claimable",
        "notice": "get claimable percentage after sale end",
        "returns": {
          "_avail": "percentage available to claim"
        }
      },
      "buyNice(uint256)": {
        "details": "minimum of $100 BUSD, max of $5K BUSDif maxRaise is exceeded we will allocate just a portion of that amount.",
        "notice": "Reserve NICE allocation with BUSD",
        "params": {
          "_amount": "Amount of BUSD to lock NICE amount"
        }
      },
      "claimTokens()": {
        "details": "transfers NICE to the user directly by minting straight to their wallets",
        "notice": "function that gets available tokens to the user."
      },
      "owner()": {
        "details": "Returns the address of the current owner."
      },
      "qualify()": {
        "details": "qualify is an overlook of the amount of CrushGod NFTs held and tokens staked",
        "notice": "qualify only checks quantity"
      },
      "renounceOwnership()": {
        "details": "Leaves the contract without owner. It will not be possible to call `onlyOwner` functions anymore. Can only be called by the current owner. NOTE: Renouncing ownership will leave the contract without an owner, thereby removing any functionality that is only available to the owner."
      },
      "transferOwnership(address)": {
        "details": "Transfers ownership of the contract to a new account (`newOwner`). Can only be called by the current owner."
      },
      "whitelistSelf(uint256)": {
        "details": "once whitelisted, the token locked to that wallet.",
        "notice": "user will need to self whitelist prior to the sale",
        "params": {
          "tokenId": "the NFT Id to register with"
        }
      }
    },
    "version": 1
  },
  "opcodes": "PUSH1 0x80 PUSH1 0x40 MSTORE CALLVALUE DUP1 ISZERO PUSH2 0x10 JUMPI PUSH1 0x0 DUP1 REVERT JUMPDEST POP PUSH1 0x4 CALLDATASIZE LT PUSH2 0x1C4 JUMPI PUSH1 0x0 CALLDATALOAD PUSH1 0xE0 SHR DUP1 PUSH4 0x91433883 GT PUSH2 0xF9 JUMPI DUP1 PUSH4 0xC5C4744C GT PUSH2 0x97 JUMPI DUP1 PUSH4 0xEA4CE239 GT PUSH2 0x71 JUMPI DUP1 PUSH4 0xEA4CE239 EQ PUSH2 0x3EA JUMPI DUP1 PUSH4 0xEB04C9D7 EQ PUSH2 0x3F3 JUMPI DUP1 PUSH4 0xF2FDE38B EQ PUSH2 0x406 JUMPI DUP1 PUSH4 0xF78213E3 EQ PUSH2 0x419 JUMPI PUSH1 0x0 DUP1 REVERT JUMPDEST DUP1 PUSH4 0xC5C4744C EQ PUSH2 0x3C1 JUMPI DUP1 PUSH4 0xD862BCF5 EQ PUSH2 0x3CA JUMPI DUP1 PUSH4 0xE52A7E24 EQ PUSH2 0x3E2 JUMPI PUSH1 0x0 DUP1 REVERT JUMPDEST DUP1 PUSH4 0x9B19251A GT PUSH2 0xD3 JUMPI DUP1 PUSH4 0x9B19251A EQ PUSH2 0x341 JUMPI DUP1 PUSH4 0xAB0BCC41 EQ PUSH2 0x361 JUMPI DUP1 PUSH4 0xC10B9358 EQ PUSH2 0x36C JUMPI DUP1 PUSH4 0xC4A717CF EQ PUSH2 0x377 JUMPI PUSH1 0x0 DUP1 REVERT JUMPDEST DUP1 PUSH4 0x91433883 EQ PUSH2 0x31D JUMPI DUP1 PUSH4 0x9181951B EQ PUSH2 0x326 JUMPI DUP1 PUSH4 0x91F7CFB9 EQ PUSH2 0x339 JUMPI PUSH1 0x0 DUP1 REVERT JUMPDEST DUP1 PUSH4 0x44C63EEC GT PUSH2 0x166 JUMPI DUP1 PUSH4 0x715018A6 GT PUSH2 0x140 JUMPI DUP1 PUSH4 0x715018A6 EQ PUSH2 0x2F2 JUMPI DUP1 PUSH4 0x719EC6B1 EQ PUSH2 0x2FA JUMPI DUP1 PUSH4 0x7B1B1DE6 EQ PUSH2 0x303 JUMPI DUP1 PUSH4 0x8DA5CB5B EQ PUSH2 0x30C JUMPI PUSH1 0x0 DUP1 REVERT JUMPDEST DUP1 PUSH4 0x44C63EEC EQ PUSH2 0x2BA JUMPI DUP1 PUSH4 0x48C54B9D EQ PUSH2 0x2C3 JUMPI DUP1 PUSH4 0x4CF088D9 EQ PUSH2 0x2CB JUMPI PUSH1 0x0 DUP1 REVERT JUMPDEST DUP1 PUSH4 0x3410FE6E GT PUSH2 0x1A2 JUMPI DUP1 PUSH4 0x3410FE6E EQ PUSH2 0x23C JUMPI DUP1 PUSH4 0x3AD10EF6 EQ PUSH2 0x245 JUMPI DUP1 PUSH4 0x3CA5B234 EQ PUSH2 0x26C JUMPI DUP1 PUSH4 0x3DF62DF0 EQ PUSH2 0x293 JUMPI PUSH1 0x0 DUP1 REVERT JUMPDEST DUP1 PUSH4 0x55EF013 EQ PUSH2 0x1C9 JUMPI DUP1 PUSH4 0x1514617E EQ PUSH2 0x1DE JUMPI DUP1 PUSH4 0x223D65D4 EQ PUSH2 0x1FB JUMPI JUMPDEST PUSH1 0x0 DUP1 REVERT JUMPDEST PUSH2 0x1DC PUSH2 0x1D7 CALLDATASIZE PUSH1 0x4 PUSH2 0x13E1 JUMP JUMPDEST PUSH2 0x42C JUMP JUMPDEST STOP JUMPDEST PUSH2 0x1E8 PUSH3 0x127500 DUP2 JUMP JUMPDEST PUSH1 0x40 MLOAD SWAP1 DUP2 MSTORE PUSH1 0x20 ADD JUMPDEST PUSH1 0x40 MLOAD DUP1 SWAP2 SUB SWAP1 RETURN JUMPDEST PUSH2 0x224 PUSH2 0x209 CALLDATASIZE PUSH1 0x4 PUSH2 0x13FE JUMP JUMPDEST PUSH1 0x9 PUSH1 0x20 MSTORE PUSH1 0x0 SWAP1 DUP2 MSTORE PUSH1 0x40 SWAP1 KECCAK256 SLOAD PUSH1 0x1 PUSH1 0x1 PUSH1 0xA0 SHL SUB AND DUP2 JUMP JUMPDEST PUSH1 0x40 MLOAD PUSH1 0x1 PUSH1 0x1 PUSH1 0xA0 SHL SUB SWAP1 SWAP2 AND DUP2 MSTORE PUSH1 0x20 ADD PUSH2 0x1F2 JUMP JUMPDEST PUSH2 0x1E8 PUSH2 0x2710 DUP2 JUMP JUMPDEST PUSH2 0x224 PUSH32 0x0 DUP2 JUMP JUMPDEST PUSH2 0x224 PUSH32 0x0 DUP2 JUMP JUMPDEST PUSH2 0x224 PUSH32 0x0 DUP2 JUMP JUMPDEST PUSH2 0x1E8 PUSH2 0x9C4 DUP2 JUMP JUMPDEST PUSH2 0x1DC PUSH2 0x4CE JUMP JUMPDEST PUSH2 0x224 PUSH32 0x0 DUP2 JUMP JUMPDEST PUSH2 0x1DC PUSH2 0x71B JUMP JUMPDEST PUSH2 0x1E8 PUSH1 0x6 SLOAD DUP2 JUMP JUMPDEST PUSH2 0x1E8 PUSH1 0x5 SLOAD DUP2 JUMP JUMPDEST PUSH1 0x0 SLOAD PUSH1 0x1 PUSH1 0x1 PUSH1 0xA0 SHL SUB AND PUSH2 0x224 JUMP JUMPDEST PUSH2 0x1E8 PUSH1 0x4 SLOAD DUP2 JUMP JUMPDEST PUSH2 0x1DC PUSH2 0x334 CALLDATASIZE PUSH1 0x4 PUSH2 0x13FE JUMP JUMPDEST PUSH2 0x751 JUMP JUMPDEST PUSH2 0x1E8 PUSH2 0xA9B JUMP JUMPDEST PUSH2 0x1E8 PUSH2 0x34F CALLDATASIZE PUSH1 0x4 PUSH2 0x13E1 JUMP JUMPDEST PUSH1 0x8 PUSH1 0x20 MSTORE PUSH1 0x0 SWAP1 DUP2 MSTORE PUSH1 0x40 SWAP1 KECCAK256 SLOAD DUP2 JUMP JUMPDEST PUSH2 0x1E8 PUSH4 0x6212D600 DUP2 JUMP JUMPDEST PUSH2 0x1E8 PUSH4 0x6216CA80 DUP2 JUMP JUMPDEST PUSH2 0x3A6 PUSH2 0x385 CALLDATASIZE PUSH1 0x4 PUSH2 0x13E1 JUMP JUMPDEST PUSH1 0xA PUSH1 0x20 MSTORE PUSH1 0x0 SWAP1 DUP2 MSTORE PUSH1 0x40 SWAP1 KECCAK256 DUP1 SLOAD PUSH1 0x1 DUP3 ADD SLOAD PUSH1 0x2 SWAP1 SWAP3 ADD SLOAD SWAP1 SWAP2 SWAP1 DUP4 JUMP JUMPDEST PUSH1 0x40 DUP1 MLOAD SWAP4 DUP5 MSTORE PUSH1 0x20 DUP5 ADD SWAP3 SWAP1 SWAP3 MSTORE SWAP1 DUP3 ADD MSTORE PUSH1 0x60 ADD PUSH2 0x1F2 JUMP JUMPDEST PUSH2 0x1E8 PUSH1 0x7 SLOAD DUP2 JUMP JUMPDEST PUSH2 0x3D2 PUSH2 0xB53 JUMP JUMPDEST PUSH1 0x40 MLOAD SWAP1 ISZERO ISZERO DUP2 MSTORE PUSH1 0x20 ADD PUSH2 0x1F2 JUMP JUMPDEST PUSH2 0x1DC PUSH2 0xCA1 JUMP JUMPDEST PUSH2 0x1E8 PUSH1 0x3 SLOAD DUP2 JUMP JUMPDEST PUSH1 0x2 SLOAD PUSH2 0x224 SWAP1 PUSH1 0x1 PUSH1 0x1 PUSH1 0xA0 SHL SUB AND DUP2 JUMP JUMPDEST PUSH2 0x1DC PUSH2 0x414 CALLDATASIZE PUSH1 0x4 PUSH2 0x13E1 JUMP JUMPDEST PUSH2 0xDAF JUMP JUMPDEST PUSH2 0x1DC PUSH2 0x427 CALLDATASIZE PUSH1 0x4 PUSH2 0x13FE JUMP JUMPDEST PUSH2 0xE47 JUMP JUMPDEST PUSH1 0x0 SLOAD PUSH1 0x1 PUSH1 0x1 PUSH1 0xA0 SHL SUB AND CALLER EQ PUSH2 0x45F JUMPI PUSH1 0x40 MLOAD PUSH3 0x461BCD PUSH1 0xE5 SHL DUP2 MSTORE PUSH1 0x4 ADD PUSH2 0x456 SWAP1 PUSH2 0x1417 JUMP JUMPDEST PUSH1 0x40 MLOAD DUP1 SWAP2 SUB SWAP1 REVERT JUMPDEST PUSH1 0x2 SLOAD PUSH1 0x1 PUSH1 0x1 PUSH1 0xA0 SHL SUB AND ISZERO PUSH2 0x4AC JUMPI PUSH1 0x40 MLOAD PUSH3 0x461BCD PUSH1 0xE5 SHL DUP2 MSTORE PUSH1 0x20 PUSH1 0x4 DUP3 ADD MSTORE PUSH1 0x11 PUSH1 0x24 DUP3 ADD MSTORE PUSH17 0x9139250D148185B1C9958591E481CD95D PUSH1 0x7A SHL PUSH1 0x44 DUP3 ADD MSTORE PUSH1 0x64 ADD PUSH2 0x456 JUMP JUMPDEST PUSH1 0x2 DUP1 SLOAD PUSH1 0x1 PUSH1 0x1 PUSH1 0xA0 SHL SUB NOT AND PUSH1 0x1 PUSH1 0x1 PUSH1 0xA0 SHL SUB SWAP3 SWAP1 SWAP3 AND SWAP2 SWAP1 SWAP2 OR SWAP1 SSTORE JUMP JUMPDEST PUSH1 0x2 PUSH1 0x1 SLOAD EQ ISZERO PUSH2 0x521 JUMPI PUSH1 0x40 MLOAD PUSH3 0x461BCD PUSH1 0xE5 SHL DUP2 MSTORE PUSH1 0x20 PUSH1 0x4 DUP3 ADD MSTORE PUSH1 0x1F PUSH1 0x24 DUP3 ADD MSTORE PUSH32 0x5265656E7472616E637947756172643A207265656E7472616E742063616C6C00 PUSH1 0x44 DUP3 ADD MSTORE PUSH1 0x64 ADD PUSH2 0x456 JUMP JUMPDEST PUSH1 0x2 PUSH1 0x1 SSTORE CALLER PUSH1 0x0 SWAP1 DUP2 MSTORE PUSH1 0xA PUSH1 0x20 MSTORE PUSH1 0x40 SWAP1 KECCAK256 PUSH2 0x546 PUSH4 0x6216CA80 PUSH3 0x127500 PUSH2 0x1040 JUMP JUMPDEST TIMESTAMP GT PUSH2 0x588 JUMPI PUSH1 0x40 MLOAD PUSH3 0x461BCD PUSH1 0xE5 SHL DUP2 MSTORE PUSH1 0x20 PUSH1 0x4 DUP3 ADD MSTORE PUSH1 0x11 PUSH1 0x24 DUP3 ADD MSTORE PUSH17 0x436C61696D20556E617661696C61626C65 PUSH1 0x78 SHL PUSH1 0x44 DUP3 ADD MSTORE PUSH1 0x64 ADD PUSH2 0x456 JUMP JUMPDEST PUSH1 0x2 SLOAD PUSH1 0x1 PUSH1 0x1 PUSH1 0xA0 SHL SUB AND PUSH2 0x5D2 JUMPI PUSH1 0x40 MLOAD PUSH3 0x461BCD PUSH1 0xE5 SHL DUP2 MSTORE PUSH1 0x20 PUSH1 0x4 DUP3 ADD MSTORE PUSH1 0xF PUSH1 0x24 DUP3 ADD MSTORE PUSH15 0x151BDAD95B88139BDD081859191959 PUSH1 0x8A SHL PUSH1 0x44 DUP3 ADD MSTORE PUSH1 0x64 ADD PUSH2 0x456 JUMP JUMPDEST PUSH1 0x0 PUSH2 0x5DC PUSH2 0xA9B JUMP JUMPDEST SWAP1 POP DUP1 DUP3 PUSH1 0x1 ADD SLOAD LT PUSH2 0x623 JUMPI PUSH1 0x40 MLOAD PUSH3 0x461BCD PUSH1 0xE5 SHL DUP2 MSTORE PUSH1 0x20 PUSH1 0x4 DUP3 ADD MSTORE PUSH1 0xF PUSH1 0x24 DUP3 ADD MSTORE PUSH15 0x105B1C9958591E4818DB185A5B5959 PUSH1 0x8A SHL PUSH1 0x44 DUP3 ADD MSTORE PUSH1 0x64 ADD PUSH2 0x456 JUMP JUMPDEST PUSH1 0x1 DUP3 ADD SLOAD PUSH2 0x633 SWAP1 DUP3 SWAP1 PUSH2 0x1053 JUMP JUMPDEST PUSH1 0x1 DUP4 ADD SLOAD SWAP1 SWAP2 POP PUSH2 0x645 SWAP1 DUP3 PUSH2 0x1040 JUMP JUMPDEST PUSH1 0x1 DUP4 ADD SSTORE PUSH1 0x2 DUP3 ADD SLOAD PUSH2 0x667 SWAP1 PUSH2 0x2710 SWAP1 PUSH2 0x661 SWAP1 DUP5 PUSH2 0x105F JUMP JUMPDEST SWAP1 PUSH2 0x106B JUMP JUMPDEST PUSH1 0x2 SLOAD PUSH1 0x40 MLOAD PUSH4 0x40C10F19 PUSH1 0xE0 SHL DUP2 MSTORE CALLER PUSH1 0x4 DUP3 ADD MSTORE PUSH1 0x24 DUP2 ADD DUP4 SWAP1 MSTORE SWAP2 SWAP3 POP PUSH1 0x1 PUSH1 0x1 PUSH1 0xA0 SHL SUB AND SWAP1 PUSH4 0x40C10F19 SWAP1 PUSH1 0x44 ADD PUSH1 0x20 PUSH1 0x40 MLOAD DUP1 DUP4 SUB DUP2 PUSH1 0x0 DUP8 GAS CALL ISZERO DUP1 ISZERO PUSH2 0x6B9 JUMPI RETURNDATASIZE PUSH1 0x0 DUP1 RETURNDATACOPY RETURNDATASIZE PUSH1 0x0 REVERT JUMPDEST POP POP POP POP PUSH1 0x40 MLOAD RETURNDATASIZE PUSH1 0x1F NOT PUSH1 0x1F DUP3 ADD AND DUP3 ADD DUP1 PUSH1 0x40 MSTORE POP DUP2 ADD SWAP1 PUSH2 0x6DD SWAP2 SWAP1 PUSH2 0x144C JUMP JUMPDEST POP PUSH1 0x40 MLOAD DUP2 DUP2 MSTORE CALLER SWAP1 PUSH32 0x577416E982A24935E58003A2BC88755D1018671696E08D0FC6CA1DD95E370A1D SWAP1 PUSH1 0x20 ADD PUSH1 0x40 MLOAD DUP1 SWAP2 SUB SWAP1 LOG2 POP POP PUSH1 0x1 DUP1 SSTORE JUMP JUMPDEST PUSH1 0x0 SLOAD PUSH1 0x1 PUSH1 0x1 PUSH1 0xA0 SHL SUB AND CALLER EQ PUSH2 0x745 JUMPI PUSH1 0x40 MLOAD PUSH3 0x461BCD PUSH1 0xE5 SHL DUP2 MSTORE PUSH1 0x4 ADD PUSH2 0x456 SWAP1 PUSH2 0x1417 JUMP JUMPDEST PUSH2 0x74F PUSH1 0x0 PUSH2 0x1077 JUMP JUMPDEST JUMP JUMPDEST PUSH1 0x2 PUSH1 0x1 SLOAD EQ ISZERO PUSH2 0x7A4 JUMPI PUSH1 0x40 MLOAD PUSH3 0x461BCD PUSH1 0xE5 SHL DUP2 MSTORE PUSH1 0x20 PUSH1 0x4 DUP3 ADD MSTORE PUSH1 0x1F PUSH1 0x24 DUP3 ADD MSTORE PUSH32 0x5265656E7472616E637947756172643A207265656E7472616E742063616C6C00 PUSH1 0x44 DUP3 ADD MSTORE PUSH1 0x64 ADD PUSH2 0x456 JUMP JUMPDEST PUSH1 0x2 PUSH1 0x1 SSTORE PUSH2 0x7BB DUP2 PUSH8 0xDE0B6B3A7640000 PUSH2 0x10C7 JUMP JUMPDEST ISZERO PUSH2 0x7FD JUMPI PUSH1 0x40 MLOAD PUSH3 0x461BCD PUSH1 0xE5 SHL DUP2 MSTORE PUSH1 0x20 PUSH1 0x4 DUP3 ADD MSTORE PUSH1 0x12 PUSH1 0x24 DUP3 ADD MSTORE PUSH18 0x457861637420616D6F756E7473206F6E6C79 PUSH1 0x70 SHL PUSH1 0x44 DUP3 ADD MSTORE PUSH1 0x64 ADD PUSH2 0x456 JUMP JUMPDEST CALLER PUSH1 0x0 SWAP1 DUP2 MSTORE PUSH1 0x8 PUSH1 0x20 MSTORE PUSH1 0x40 SWAP1 KECCAK256 SLOAD PUSH2 0x84A JUMPI PUSH1 0x40 MLOAD PUSH3 0x461BCD PUSH1 0xE5 SHL DUP2 MSTORE PUSH1 0x20 PUSH1 0x4 DUP3 ADD MSTORE PUSH1 0xE PUSH1 0x24 DUP3 ADD MSTORE PUSH14 0x57686974656C697374206F6E6C79 PUSH1 0x90 SHL PUSH1 0x44 DUP3 ADD MSTORE PUSH1 0x64 ADD PUSH2 0x456 JUMP JUMPDEST PUSH4 0x6216CA80 TIMESTAMP LT PUSH2 0x889 JUMPI PUSH1 0x40 MLOAD PUSH3 0x461BCD PUSH1 0xE5 SHL DUP2 MSTORE PUSH1 0x20 PUSH1 0x4 DUP3 ADD MSTORE PUSH1 0x9 PUSH1 0x24 DUP3 ADD MSTORE PUSH9 0x14D85B19515B991959 PUSH1 0xBA SHL PUSH1 0x44 DUP3 ADD MSTORE PUSH1 0x64 ADD PUSH2 0x456 JUMP JUMPDEST PUSH9 0x56BC75E2D63100000 DUP2 LT ISZERO PUSH2 0x8D4 JUMPI PUSH1 0x40 MLOAD PUSH3 0x461BCD PUSH1 0xE5 SHL DUP2 MSTORE PUSH1 0x20 PUSH1 0x4 DUP3 ADD MSTORE PUSH1 0xF PUSH1 0x24 DUP3 ADD MSTORE PUSH15 0x135A5B9A5B5D5B481B9BDD081B595D PUSH1 0x8A SHL PUSH1 0x44 DUP3 ADD MSTORE PUSH1 0x64 ADD PUSH2 0x456 JUMP JUMPDEST CALLER PUSH1 0x0 SWAP1 DUP2 MSTORE PUSH1 0xA PUSH1 0x20 MSTORE PUSH1 0x40 SWAP1 KECCAK256 PUSH10 0x10F0CF064DD59200000 DUP3 GT DUP1 ISZERO SWAP1 PUSH2 0x914 JUMPI POP DUP1 SLOAD PUSH10 0x10F0CF064DD59200000 SWAP1 PUSH2 0x911 SWAP1 DUP5 SWAP1 PUSH2 0x1040 JUMP JUMPDEST GT ISZERO JUMPDEST PUSH2 0x94F JUMPI PUSH1 0x40 MLOAD PUSH3 0x461BCD PUSH1 0xE5 SHL DUP2 MSTORE PUSH1 0x20 PUSH1 0x4 DUP3 ADD MSTORE PUSH1 0xC PUSH1 0x24 DUP3 ADD MSTORE PUSH12 0x436170206F766572666C6F77 PUSH1 0xA0 SHL PUSH1 0x44 DUP3 ADD MSTORE PUSH1 0x64 ADD PUSH2 0x456 JUMP JUMPDEST PUSH1 0x6 SLOAD PUSH1 0x7 SLOAD LT PUSH2 0x993 JUMPI PUSH1 0x40 MLOAD PUSH3 0x461BCD PUSH1 0xE5 SHL DUP2 MSTORE PUSH1 0x20 PUSH1 0x4 DUP3 ADD MSTORE PUSH1 0xE PUSH1 0x24 DUP3 ADD MSTORE PUSH14 0x131A5B5A5D08115E18D959591959 PUSH1 0x92 SHL PUSH1 0x44 DUP3 ADD MSTORE PUSH1 0x64 ADD PUSH2 0x456 JUMP JUMPDEST PUSH1 0x6 SLOAD PUSH1 0x7 SLOAD DUP4 SWAP2 SWAP1 PUSH2 0x9A6 SWAP1 DUP4 PUSH2 0x1040 JUMP JUMPDEST GT ISZERO PUSH2 0x9BE JUMPI PUSH1 0x7 SLOAD PUSH1 0x6 SLOAD PUSH2 0x9BB SWAP2 PUSH2 0x1053 JUMP JUMPDEST SWAP1 POP JUMPDEST PUSH2 0x9F3 PUSH1 0x1 PUSH1 0x1 PUSH1 0xA0 SHL SUB PUSH32 0x0 AND CALLER ADDRESS DUP5 PUSH2 0x10D3 JUMP JUMPDEST PUSH2 0xA1C PUSH2 0xA11 PUSH1 0x5 SLOAD PUSH2 0x661 PUSH1 0x4 SLOAD DUP6 PUSH2 0x105F SWAP1 SWAP2 SWAP1 PUSH4 0xFFFFFFFF AND JUMP JUMPDEST PUSH1 0x2 DUP5 ADD SLOAD SWAP1 PUSH2 0x1040 JUMP JUMPDEST PUSH1 0x2 DUP4 ADD SSTORE DUP2 SLOAD PUSH2 0xA2D SWAP1 DUP3 PUSH2 0x1040 JUMP JUMPDEST DUP3 SSTORE PUSH1 0x7 SLOAD PUSH2 0xA3C SWAP1 DUP3 PUSH2 0x1040 JUMP JUMPDEST PUSH1 0x7 SSTORE PUSH1 0x5 SLOAD PUSH1 0x4 SLOAD CALLER SWAP2 PUSH32 0x96EA671EF97E3B0C25B75C51786366EC072E19CE8A92DB8EE92004D88319A87D SWAP2 DUP5 SWAP2 PUSH2 0xA7A SWAP2 PUSH2 0x661 SWAP1 DUP5 SWAP1 PUSH2 0x105F JUMP JUMPDEST PUSH1 0x40 DUP1 MLOAD SWAP3 DUP4 MSTORE PUSH1 0x20 DUP4 ADD SWAP2 SWAP1 SWAP2 MSTORE ADD PUSH1 0x40 MLOAD DUP1 SWAP2 SUB SWAP1 LOG2 POP POP PUSH1 0x1 DUP1 SSTORE POP JUMP JUMPDEST PUSH1 0x0 PUSH4 0x6216CA80 TIMESTAMP GT ISZERO PUSH2 0xB50 JUMPI PUSH2 0xABA PUSH4 0x6216CA80 PUSH3 0x127500 PUSH2 0x1040 JUMP JUMPDEST TIMESTAMP GT ISZERO PUSH2 0xAD0 JUMPI PUSH2 0xACD DUP2 PUSH2 0x9C4 PUSH2 0x1040 JUMP JUMPDEST SWAP1 POP JUMPDEST PUSH2 0xAEC PUSH2 0xAE1 PUSH3 0x127500 PUSH1 0x2 PUSH2 0x105F JUMP JUMPDEST PUSH4 0x6216CA80 SWAP1 PUSH2 0x1040 JUMP JUMPDEST TIMESTAMP GT ISZERO PUSH2 0xB02 JUMPI PUSH2 0xAFF DUP2 PUSH2 0x9C4 PUSH2 0x1040 JUMP JUMPDEST SWAP1 POP JUMPDEST PUSH2 0xB13 PUSH2 0xAE1 PUSH3 0x127500 PUSH1 0x3 PUSH2 0x105F JUMP JUMPDEST TIMESTAMP GT ISZERO PUSH2 0xB29 JUMPI PUSH2 0xB26 DUP2 PUSH2 0x9C4 PUSH2 0x1040 JUMP JUMPDEST SWAP1 POP JUMPDEST PUSH2 0xB3A PUSH2 0xAE1 PUSH3 0x127500 PUSH1 0x4 PUSH2 0x105F JUMP JUMPDEST TIMESTAMP GT ISZERO PUSH2 0xB50 JUMPI PUSH2 0xB4D DUP2 PUSH2 0x9C4 PUSH2 0x1040 JUMP JUMPDEST SWAP1 POP JUMPDEST SWAP1 JUMP JUMPDEST PUSH1 0x40 MLOAD PUSH4 0xDC6E13E1 PUSH1 0xE0 SHL DUP2 MSTORE CALLER PUSH1 0x4 DUP3 ADD MSTORE PUSH1 0x0 SWAP1 DUP2 SWAP1 PUSH1 0x1 PUSH1 0x1 PUSH1 0xA0 SHL SUB PUSH32 0x0 AND SWAP1 PUSH4 0xDC6E13E1 SWAP1 PUSH1 0x24 ADD PUSH2 0x120 PUSH1 0x40 MLOAD DUP1 DUP4 SUB DUP2 DUP7 GAS STATICCALL ISZERO DUP1 ISZERO PUSH2 0xBBD JUMPI RETURNDATASIZE PUSH1 0x0 DUP1 RETURNDATACOPY RETURNDATASIZE PUSH1 0x0 REVERT JUMPDEST POP POP POP POP PUSH1 0x40 MLOAD RETURNDATASIZE PUSH1 0x1F NOT PUSH1 0x1F DUP3 ADD AND DUP3 ADD DUP1 PUSH1 0x40 MSTORE POP DUP2 ADD SWAP1 PUSH2 0xBE1 SWAP2 SWAP1 PUSH2 0x146E JUMP JUMPDEST POP POP PUSH1 0x40 MLOAD PUSH4 0x70A08231 PUSH1 0xE0 SHL DUP2 MSTORE CALLER PUSH1 0x4 DUP3 ADD MSTORE SWAP6 SWAP8 POP PUSH1 0x0 SWAP7 POP POP PUSH1 0x1 PUSH1 0x1 PUSH1 0xA0 SHL SUB PUSH32 0x0 AND SWAP5 PUSH4 0x70A08231 SWAP5 POP PUSH1 0x24 ADD SWAP3 POP PUSH2 0xC3D SWAP2 POP POP JUMP JUMPDEST PUSH1 0x20 PUSH1 0x40 MLOAD DUP1 DUP4 SUB DUP2 DUP7 GAS STATICCALL ISZERO DUP1 ISZERO PUSH2 0xC5A JUMPI RETURNDATASIZE PUSH1 0x0 DUP1 RETURNDATACOPY RETURNDATASIZE PUSH1 0x0 REVERT JUMPDEST POP POP POP POP PUSH1 0x40 MLOAD RETURNDATASIZE PUSH1 0x1F NOT PUSH1 0x1F DUP3 ADD AND DUP3 ADD DUP1 PUSH1 0x40 MSTORE POP DUP2 ADD SWAP1 PUSH2 0xC7E SWAP2 SWAP1 PUSH2 0x14D7 JUMP JUMPDEST SWAP1 POP PUSH1 0x0 DUP2 GT DUP1 ISZERO PUSH2 0xC9A JUMPI POP PUSH10 0x21E19E0C9BAB2400000 DUP3 LT ISZERO JUMPDEST SWAP3 POP POP POP SWAP1 JUMP JUMPDEST PUSH1 0x0 SLOAD PUSH1 0x1 PUSH1 0x1 PUSH1 0xA0 SHL SUB AND CALLER EQ PUSH2 0xCCB JUMPI PUSH1 0x40 MLOAD PUSH3 0x461BCD PUSH1 0xE5 SHL DUP2 MSTORE PUSH1 0x4 ADD PUSH2 0x456 SWAP1 PUSH2 0x1417 JUMP JUMPDEST PUSH1 0x40 MLOAD PUSH4 0x70A08231 PUSH1 0xE0 SHL DUP2 MSTORE ADDRESS PUSH1 0x4 DUP3 ADD MSTORE PUSH1 0x0 SWAP1 PUSH32 0x0 PUSH1 0x1 PUSH1 0x1 PUSH1 0xA0 SHL SUB AND SWAP1 PUSH4 0x70A08231 SWAP1 PUSH1 0x24 ADD PUSH1 0x20 PUSH1 0x40 MLOAD DUP1 DUP4 SUB DUP2 DUP7 GAS STATICCALL ISZERO DUP1 ISZERO PUSH2 0xD32 JUMPI RETURNDATASIZE PUSH1 0x0 DUP1 RETURNDATACOPY RETURNDATASIZE PUSH1 0x0 REVERT JUMPDEST POP POP POP POP PUSH1 0x40 MLOAD RETURNDATASIZE PUSH1 0x1F NOT PUSH1 0x1F DUP3 ADD AND DUP3 ADD DUP1 PUSH1 0x40 MSTORE POP DUP2 ADD SWAP1 PUSH2 0xD56 SWAP2 SWAP1 PUSH2 0x14D7 JUMP JUMPDEST SWAP1 POP PUSH2 0xDAC PUSH1 0x1 PUSH1 0x1 PUSH1 0xA0 SHL SUB PUSH32 0x0 AND PUSH32 0x0 DUP4 PUSH2 0x1144 JUMP JUMPDEST POP JUMP JUMPDEST PUSH1 0x0 SLOAD PUSH1 0x1 PUSH1 0x1 PUSH1 0xA0 SHL SUB AND CALLER EQ PUSH2 0xDD9 JUMPI PUSH1 0x40 MLOAD PUSH3 0x461BCD PUSH1 0xE5 SHL DUP2 MSTORE PUSH1 0x4 ADD PUSH2 0x456 SWAP1 PUSH2 0x1417 JUMP JUMPDEST PUSH1 0x1 PUSH1 0x1 PUSH1 0xA0 SHL SUB DUP2 AND PUSH2 0xE3E JUMPI PUSH1 0x40 MLOAD PUSH3 0x461BCD PUSH1 0xE5 SHL DUP2 MSTORE PUSH1 0x20 PUSH1 0x4 DUP3 ADD MSTORE PUSH1 0x26 PUSH1 0x24 DUP3 ADD MSTORE PUSH32 0x4F776E61626C653A206E6577206F776E657220697320746865207A65726F2061 PUSH1 0x44 DUP3 ADD MSTORE PUSH6 0x646472657373 PUSH1 0xD0 SHL PUSH1 0x64 DUP3 ADD MSTORE PUSH1 0x84 ADD PUSH2 0x456 JUMP JUMPDEST PUSH2 0xDAC DUP2 PUSH2 0x1077 JUMP JUMPDEST PUSH1 0x0 PUSH2 0xE51 PUSH2 0xB53 JUMP JUMPDEST SWAP1 POP DUP1 PUSH2 0xE8E JUMPI PUSH1 0x40 MLOAD PUSH3 0x461BCD PUSH1 0xE5 SHL DUP2 MSTORE PUSH1 0x20 PUSH1 0x4 DUP3 ADD MSTORE PUSH1 0xB PUSH1 0x24 DUP3 ADD MSTORE PUSH11 0x155B9C5D585B1A599A5959 PUSH1 0xAA SHL PUSH1 0x44 DUP3 ADD MSTORE PUSH1 0x64 ADD PUSH2 0x456 JUMP JUMPDEST CALLER PUSH1 0x0 SWAP1 DUP2 MSTORE PUSH1 0x8 PUSH1 0x20 MSTORE PUSH1 0x40 SWAP1 KECCAK256 SLOAD ISZERO PUSH2 0xEE1 JUMPI PUSH1 0x40 MLOAD PUSH3 0x461BCD PUSH1 0xE5 SHL DUP2 MSTORE PUSH1 0x20 PUSH1 0x4 DUP3 ADD MSTORE PUSH1 0x13 PUSH1 0x24 DUP3 ADD MSTORE PUSH19 0x105B1C9958591E481DDA1A5D195B1A5CDD1959 PUSH1 0x6A SHL PUSH1 0x44 DUP3 ADD MSTORE PUSH1 0x64 ADD PUSH2 0x456 JUMP JUMPDEST PUSH1 0x0 DUP3 DUP2 MSTORE PUSH1 0x9 PUSH1 0x20 MSTORE PUSH1 0x40 SWAP1 KECCAK256 SLOAD PUSH1 0x1 PUSH1 0x1 PUSH1 0xA0 SHL SUB AND ISZERO PUSH2 0xF3B JUMPI PUSH1 0x40 MLOAD PUSH3 0x461BCD PUSH1 0xE5 SHL DUP2 MSTORE PUSH1 0x20 PUSH1 0x4 DUP3 ADD MSTORE PUSH1 0x12 PUSH1 0x24 DUP3 ADD MSTORE PUSH18 0x151BDAD95B88185B1C9958591E481D5CD959 PUSH1 0x72 SHL PUSH1 0x44 DUP3 ADD MSTORE PUSH1 0x64 ADD PUSH2 0x456 JUMP JUMPDEST PUSH1 0x40 MLOAD PUSH4 0x31A9108F PUSH1 0xE1 SHL DUP2 MSTORE PUSH1 0x4 DUP2 ADD DUP4 SWAP1 MSTORE CALLER SWAP1 PUSH1 0x1 PUSH1 0x1 PUSH1 0xA0 SHL SUB PUSH32 0x0 AND SWAP1 PUSH4 0x6352211E SWAP1 PUSH1 0x24 ADD PUSH1 0x20 PUSH1 0x40 MLOAD DUP1 DUP4 SUB DUP2 DUP7 GAS STATICCALL ISZERO DUP1 ISZERO PUSH2 0xFA2 JUMPI RETURNDATASIZE PUSH1 0x0 DUP1 RETURNDATACOPY RETURNDATASIZE PUSH1 0x0 REVERT JUMPDEST POP POP POP POP PUSH1 0x40 MLOAD RETURNDATASIZE PUSH1 0x1F NOT PUSH1 0x1F DUP3 ADD AND DUP3 ADD DUP1 PUSH1 0x40 MSTORE POP DUP2 ADD SWAP1 PUSH2 0xFC6 SWAP2 SWAP1 PUSH2 0x14F0 JUMP JUMPDEST PUSH1 0x1 PUSH1 0x1 PUSH1 0xA0 SHL SUB AND EQ PUSH2 0x100C JUMPI PUSH1 0x40 MLOAD PUSH3 0x461BCD PUSH1 0xE5 SHL DUP2 MSTORE PUSH1 0x20 PUSH1 0x4 DUP3 ADD MSTORE PUSH1 0xD PUSH1 0x24 DUP3 ADD MSTORE PUSH13 0x24B63632B3B0B61037BBB732B9 PUSH1 0x99 SHL PUSH1 0x44 DUP3 ADD MSTORE PUSH1 0x64 ADD PUSH2 0x456 JUMP JUMPDEST POP CALLER PUSH1 0x0 DUP2 DUP2 MSTORE PUSH1 0x8 PUSH1 0x20 SWAP1 DUP2 MSTORE PUSH1 0x40 DUP1 DUP4 KECCAK256 DUP6 SWAP1 SSTORE SWAP4 DUP3 MSTORE PUSH1 0x9 SWAP1 MSTORE SWAP2 SWAP1 SWAP2 KECCAK256 DUP1 SLOAD PUSH1 0x1 PUSH1 0x1 PUSH1 0xA0 SHL SUB NOT AND SWAP1 SWAP2 OR SWAP1 SSTORE JUMP JUMPDEST PUSH1 0x0 PUSH2 0x104C DUP3 DUP5 PUSH2 0x1523 JUMP JUMPDEST SWAP4 SWAP3 POP POP POP JUMP JUMPDEST PUSH1 0x0 PUSH2 0x104C DUP3 DUP5 PUSH2 0x153B JUMP JUMPDEST PUSH1 0x0 PUSH2 0x104C DUP3 DUP5 PUSH2 0x1552 JUMP JUMPDEST PUSH1 0x0 PUSH2 0x104C DUP3 DUP5 PUSH2 0x1587 JUMP JUMPDEST PUSH1 0x0 DUP1 SLOAD PUSH1 0x1 PUSH1 0x1 PUSH1 0xA0 SHL SUB DUP4 DUP2 AND PUSH1 0x1 PUSH1 0x1 PUSH1 0xA0 SHL SUB NOT DUP4 AND DUP2 OR DUP5 SSTORE PUSH1 0x40 MLOAD SWAP2 SWAP1 SWAP3 AND SWAP3 DUP4 SWAP2 PUSH32 0x8BE0079C531659141344CD1FD0A4F28419497F9722A3DAAFE3B4186F6B6457E0 SWAP2 SWAP1 LOG3 POP POP JUMP JUMPDEST PUSH1 0x0 PUSH2 0x104C DUP3 DUP5 PUSH2 0x159B JUMP JUMPDEST PUSH1 0x40 MLOAD PUSH1 0x1 PUSH1 0x1 PUSH1 0xA0 SHL SUB DUP1 DUP6 AND PUSH1 0x24 DUP4 ADD MSTORE DUP4 AND PUSH1 0x44 DUP3 ADD MSTORE PUSH1 0x64 DUP2 ADD DUP3 SWAP1 MSTORE PUSH2 0x113E SWAP1 DUP6 SWAP1 PUSH4 0x23B872DD PUSH1 0xE0 SHL SWAP1 PUSH1 0x84 ADD JUMPDEST PUSH1 0x40 DUP1 MLOAD PUSH1 0x1F NOT DUP2 DUP5 SUB ADD DUP2 MSTORE SWAP2 SWAP1 MSTORE PUSH1 0x20 DUP2 ADD DUP1 MLOAD PUSH1 0x1 PUSH1 0x1 PUSH1 0xE0 SHL SUB AND PUSH1 0x1 PUSH1 0x1 PUSH1 0xE0 SHL SUB NOT SWAP1 SWAP4 AND SWAP3 SWAP1 SWAP3 OR SWAP1 SWAP2 MSTORE PUSH2 0x1179 JUMP JUMPDEST POP POP POP POP JUMP JUMPDEST PUSH1 0x40 MLOAD PUSH1 0x1 PUSH1 0x1 PUSH1 0xA0 SHL SUB DUP4 AND PUSH1 0x24 DUP3 ADD MSTORE PUSH1 0x44 DUP2 ADD DUP3 SWAP1 MSTORE PUSH2 0x1174 SWAP1 DUP5 SWAP1 PUSH4 0xA9059CBB PUSH1 0xE0 SHL SWAP1 PUSH1 0x64 ADD PUSH2 0x1107 JUMP JUMPDEST POP POP POP JUMP JUMPDEST PUSH1 0x0 PUSH2 0x11CE DUP3 PUSH1 0x40 MLOAD DUP1 PUSH1 0x40 ADD PUSH1 0x40 MSTORE DUP1 PUSH1 0x20 DUP2 MSTORE PUSH1 0x20 ADD PUSH32 0x5361666545524332303A206C6F772D6C6576656C2063616C6C206661696C6564 DUP2 MSTORE POP DUP6 PUSH1 0x1 PUSH1 0x1 PUSH1 0xA0 SHL SUB AND PUSH2 0x124B SWAP1 SWAP3 SWAP2 SWAP1 PUSH4 0xFFFFFFFF AND JUMP JUMPDEST DUP1 MLOAD SWAP1 SWAP2 POP ISZERO PUSH2 0x1174 JUMPI DUP1 DUP1 PUSH1 0x20 ADD SWAP1 MLOAD DUP2 ADD SWAP1 PUSH2 0x11EC SWAP2 SWAP1 PUSH2 0x144C JUMP JUMPDEST PUSH2 0x1174 JUMPI PUSH1 0x40 MLOAD PUSH3 0x461BCD PUSH1 0xE5 SHL DUP2 MSTORE PUSH1 0x20 PUSH1 0x4 DUP3 ADD MSTORE PUSH1 0x2A PUSH1 0x24 DUP3 ADD MSTORE PUSH32 0x5361666545524332303A204552433230206F7065726174696F6E20646964206E PUSH1 0x44 DUP3 ADD MSTORE PUSH10 0x1BDD081CDD58D8D95959 PUSH1 0xB2 SHL PUSH1 0x64 DUP3 ADD MSTORE PUSH1 0x84 ADD PUSH2 0x456 JUMP JUMPDEST PUSH1 0x60 PUSH2 0x125A DUP5 DUP5 PUSH1 0x0 DUP6 PUSH2 0x1262 JUMP JUMPDEST SWAP5 SWAP4 POP POP POP POP JUMP JUMPDEST PUSH1 0x60 DUP3 SELFBALANCE LT ISZERO PUSH2 0x12C3 JUMPI PUSH1 0x40 MLOAD PUSH3 0x461BCD PUSH1 0xE5 SHL DUP2 MSTORE PUSH1 0x20 PUSH1 0x4 DUP3 ADD MSTORE PUSH1 0x26 PUSH1 0x24 DUP3 ADD MSTORE PUSH32 0x416464726573733A20696E73756666696369656E742062616C616E636520666F PUSH1 0x44 DUP3 ADD MSTORE PUSH6 0x1C8818D85B1B PUSH1 0xD2 SHL PUSH1 0x64 DUP3 ADD MSTORE PUSH1 0x84 ADD PUSH2 0x456 JUMP JUMPDEST PUSH1 0x1 PUSH1 0x1 PUSH1 0xA0 SHL SUB DUP6 AND EXTCODESIZE PUSH2 0x131A JUMPI PUSH1 0x40 MLOAD PUSH3 0x461BCD PUSH1 0xE5 SHL DUP2 MSTORE PUSH1 0x20 PUSH1 0x4 DUP3 ADD MSTORE PUSH1 0x1D PUSH1 0x24 DUP3 ADD MSTORE PUSH32 0x416464726573733A2063616C6C20746F206E6F6E2D636F6E7472616374000000 PUSH1 0x44 DUP3 ADD MSTORE PUSH1 0x64 ADD PUSH2 0x456 JUMP JUMPDEST PUSH1 0x0 DUP1 DUP7 PUSH1 0x1 PUSH1 0x1 PUSH1 0xA0 SHL SUB AND DUP6 DUP8 PUSH1 0x40 MLOAD PUSH2 0x1336 SWAP2 SWAP1 PUSH2 0x15DB JUMP JUMPDEST PUSH1 0x0 PUSH1 0x40 MLOAD DUP1 DUP4 SUB DUP2 DUP6 DUP8 GAS CALL SWAP3 POP POP POP RETURNDATASIZE DUP1 PUSH1 0x0 DUP2 EQ PUSH2 0x1373 JUMPI PUSH1 0x40 MLOAD SWAP2 POP PUSH1 0x1F NOT PUSH1 0x3F RETURNDATASIZE ADD AND DUP3 ADD PUSH1 0x40 MSTORE RETURNDATASIZE DUP3 MSTORE RETURNDATASIZE PUSH1 0x0 PUSH1 0x20 DUP5 ADD RETURNDATACOPY PUSH2 0x1378 JUMP JUMPDEST PUSH1 0x60 SWAP2 POP JUMPDEST POP SWAP2 POP SWAP2 POP PUSH2 0x1388 DUP3 DUP3 DUP7 PUSH2 0x1393 JUMP JUMPDEST SWAP8 SWAP7 POP POP POP POP POP POP POP JUMP JUMPDEST PUSH1 0x60 DUP4 ISZERO PUSH2 0x13A2 JUMPI POP DUP2 PUSH2 0x104C JUMP JUMPDEST DUP3 MLOAD ISZERO PUSH2 0x13B2 JUMPI DUP3 MLOAD DUP1 DUP5 PUSH1 0x20 ADD REVERT JUMPDEST DUP2 PUSH1 0x40 MLOAD PUSH3 0x461BCD PUSH1 0xE5 SHL DUP2 MSTORE PUSH1 0x4 ADD PUSH2 0x456 SWAP2 SWAP1 PUSH2 0x15F7 JUMP JUMPDEST PUSH1 0x1 PUSH1 0x1 PUSH1 0xA0 SHL SUB DUP2 AND DUP2 EQ PUSH2 0xDAC JUMPI PUSH1 0x0 DUP1 REVERT JUMPDEST PUSH1 0x0 PUSH1 0x20 DUP3 DUP5 SUB SLT ISZERO PUSH2 0x13F3 JUMPI PUSH1 0x0 DUP1 REVERT JUMPDEST DUP2 CALLDATALOAD PUSH2 0x104C DUP2 PUSH2 0x13CC JUMP JUMPDEST PUSH1 0x0 PUSH1 0x20 DUP3 DUP5 SUB SLT ISZERO PUSH2 0x1410 JUMPI PUSH1 0x0 DUP1 REVERT JUMPDEST POP CALLDATALOAD SWAP2 SWAP1 POP JUMP JUMPDEST PUSH1 0x20 DUP1 DUP3 MSTORE DUP2 DUP2 ADD MSTORE PUSH32 0x4F776E61626C653A2063616C6C6572206973206E6F7420746865206F776E6572 PUSH1 0x40 DUP3 ADD MSTORE PUSH1 0x60 ADD SWAP1 JUMP JUMPDEST PUSH1 0x0 PUSH1 0x20 DUP3 DUP5 SUB SLT ISZERO PUSH2 0x145E JUMPI PUSH1 0x0 DUP1 REVERT JUMPDEST DUP2 MLOAD DUP1 ISZERO ISZERO DUP2 EQ PUSH2 0x104C JUMPI PUSH1 0x0 DUP1 REVERT JUMPDEST PUSH1 0x0 DUP1 PUSH1 0x0 DUP1 PUSH1 0x0 DUP1 PUSH1 0x0 DUP1 PUSH1 0x0 PUSH2 0x120 DUP11 DUP13 SUB SLT ISZERO PUSH2 0x148D JUMPI PUSH1 0x0 DUP1 REVERT JUMPDEST DUP10 MLOAD SWAP9 POP PUSH1 0x20 DUP11 ADD MLOAD SWAP8 POP PUSH1 0x40 DUP11 ADD MLOAD SWAP7 POP PUSH1 0x60 DUP11 ADD MLOAD SWAP6 POP PUSH1 0x80 DUP11 ADD MLOAD SWAP5 POP PUSH1 0xA0 DUP11 ADD MLOAD SWAP4 POP PUSH1 0xC0 DUP11 ADD MLOAD SWAP3 POP PUSH1 0xE0 DUP11 ADD MLOAD SWAP2 POP PUSH2 0x100 DUP11 ADD MLOAD SWAP1 POP SWAP3 SWAP6 SWAP9 POP SWAP3 SWAP6 SWAP9 POP SWAP3 SWAP6 SWAP9 JUMP JUMPDEST PUSH1 0x0 PUSH1 0x20 DUP3 DUP5 SUB SLT ISZERO PUSH2 0x14E9 JUMPI PUSH1 0x0 DUP1 REVERT JUMPDEST POP MLOAD SWAP2 SWAP1 POP JUMP JUMPDEST PUSH1 0x0 PUSH1 0x20 DUP3 DUP5 SUB SLT ISZERO PUSH2 0x1502 JUMPI PUSH1 0x0 DUP1 REVERT JUMPDEST DUP2 MLOAD PUSH2 0x104C DUP2 PUSH2 0x13CC JUMP JUMPDEST PUSH4 0x4E487B71 PUSH1 0xE0 SHL PUSH1 0x0 MSTORE PUSH1 0x11 PUSH1 0x4 MSTORE PUSH1 0x24 PUSH1 0x0 REVERT JUMPDEST PUSH1 0x0 DUP3 NOT DUP3 GT ISZERO PUSH2 0x1536 JUMPI PUSH2 0x1536 PUSH2 0x150D JUMP JUMPDEST POP ADD SWAP1 JUMP JUMPDEST PUSH1 0x0 DUP3 DUP3 LT ISZERO PUSH2 0x154D JUMPI PUSH2 0x154D PUSH2 0x150D JUMP JUMPDEST POP SUB SWAP1 JUMP JUMPDEST PUSH1 0x0 DUP2 PUSH1 0x0 NOT DIV DUP4 GT DUP3 ISZERO ISZERO AND ISZERO PUSH2 0x156C JUMPI PUSH2 0x156C PUSH2 0x150D JUMP JUMPDEST POP MUL SWAP1 JUMP JUMPDEST PUSH4 0x4E487B71 PUSH1 0xE0 SHL PUSH1 0x0 MSTORE PUSH1 0x12 PUSH1 0x4 MSTORE PUSH1 0x24 PUSH1 0x0 REVERT JUMPDEST PUSH1 0x0 DUP3 PUSH2 0x1596 JUMPI PUSH2 0x1596 PUSH2 0x1571 JUMP JUMPDEST POP DIV SWAP1 JUMP JUMPDEST PUSH1 0x0 DUP3 PUSH2 0x15AA JUMPI PUSH2 0x15AA PUSH2 0x1571 JUMP JUMPDEST POP MOD SWAP1 JUMP JUMPDEST PUSH1 0x0 JUMPDEST DUP4 DUP2 LT ISZERO PUSH2 0x15CA JUMPI DUP2 DUP2 ADD MLOAD DUP4 DUP3 ADD MSTORE PUSH1 0x20 ADD PUSH2 0x15B2 JUMP JUMPDEST DUP4 DUP2 GT ISZERO PUSH2 0x113E JUMPI POP POP PUSH1 0x0 SWAP2 ADD MSTORE JUMP JUMPDEST PUSH1 0x0 DUP3 MLOAD PUSH2 0x15ED DUP2 DUP5 PUSH1 0x20 DUP8 ADD PUSH2 0x15AF JUMP JUMPDEST SWAP2 SWAP1 SWAP2 ADD SWAP3 SWAP2 POP POP JUMP JUMPDEST PUSH1 0x20 DUP2 MSTORE PUSH1 0x0 DUP3 MLOAD DUP1 PUSH1 0x20 DUP5 ADD MSTORE PUSH2 0x1616 DUP2 PUSH1 0x40 DUP6 ADD PUSH1 0x20 DUP8 ADD PUSH2 0x15AF JUMP JUMPDEST PUSH1 0x1F ADD PUSH1 0x1F NOT AND SWAP2 SWAP1 SWAP2 ADD PUSH1 0x40 ADD SWAP3 SWAP2 POP POP JUMP INVALID LOG2 PUSH5 0x6970667358 0x22 SLT KECCAK256 SWAP7 SWAP2 0x2F PUSH3 0x48BD65 BASEFEE 0xD7 DUP3 0x5C CREATE2 0xAD PUSH24 0xF33201B87867398FAF64BE7EFA0C41244ED264736F6C6343 STOP ADDMOD 0xC STOP CALLER ",
  "sha1": "e4daa508501c9758d278dc7690f9cb28ac34a17f",
  "source": "//SPDX-License-Identifier: MIT\npragma solidity ^0.8.9;\n\n//BSC Address 0x87F8e8f9616689808176d3a97a506c8cEeD32674\nimport \"@openzeppelin/contracts/access/Ownable.sol\";\nimport \"@openzeppelin/contracts/utils/math/SafeMath.sol\";\nimport \"@openzeppelin/contracts/token/ERC721/ERC721.sol\";\nimport \"@openzeppelin/contracts/token/ERC20/ERC20.sol\";\nimport \"@openzeppelin/contracts/token/ERC20/utils/SafeERC20.sol\";\nimport \"@openzeppelin/contracts/security/ReentrancyGuard.sol\";\nimport \"./NICEToken.sol\";\n// TEST\nimport \"./TestStaking2.sol\";\n\ncontract PrevSale is Ownable, ReentrancyGuard {\n    using SafeMath for uint256;\n    using SafeERC20 for ERC20;\n\n    uint256 public constant DIVISOR = 10000;\n\n    struct Buy {\n        uint256 amountBought;\n        uint256 amountClaimed;\n        uint256 amountOwed;\n    }\n\n    uint256 public constant saleStart = 1645401600;\n    uint256 public constant saleEnd = 1645660800;\n    uint256 public constant vestingDuration = 2 weeks;\n    StakingTest public immutable staking;\n    ERC721 public immutable crushGod;\n    NICEToken public niceToken;\n    ERC20 public immutable busd;\n    uint256 public totalSale = 26595745 ether;\n    uint256 public constant vesting = 2500;\n    uint256 public priceDec = 10000;\n    uint256 public pricePerToken = 47;\n    uint256 public maxRaise = 125000 ether;\n    uint256 public totalRaised;\n\n    address public immutable devAddress;\n\n    mapping(address => uint256) public whitelist;\n    mapping(uint256 => address) public nftUsed;\n    mapping(address => Buy) public userBought;\n\n    // EVENTS\n    event WhitelistStarted(bool status);\n    event SaleStarts(uint256 startBlock);\n    event NiceBought(address indexed buyer, uint256 busd, uint256 nice);\n    event NiceClaimed(address indexed buyer, uint256 amount);\n    event LogEvent(uint256 data1, string data2);\n\n    constructor(\n        address crushGodNft,\n        address stakingV2,\n        address _busd\n    ) {\n        crushGod = ERC721(crushGodNft);\n        staking = StakingTest(stakingV2);\n        busd = ERC20(_busd);\n        devAddress = 0xADdb2B59d1B782e8392Ee03d7E2cEaA240e7f1c0;\n    }\n\n    /// @notice qualify only checks quantity\n    /// @dev qualify is an overlook of the amount of CrushGod NFTs held and tokens staked\n    function qualify() public view returns (bool _isQualified) {\n        (, uint256 staked, , , , , , , ) = staking.stakings(msg.sender);\n        uint256 nfts = crushGod.balanceOf(msg.sender);\n        _isQualified = nfts > 0 && staked >= 10000 ether;\n    }\n\n    /// @notice user will need to self whitelist prior to the sale\n    /// @param tokenId the NFT Id to register with\n    /// @dev once whitelisted, the token locked to that wallet.\n    function whitelistSelf(uint256 tokenId) public {\n        bool isQualified = qualify();\n        require(isQualified, \"Unqualified\");\n        require(whitelist[msg.sender] == 0, \"Already whitelisted\");\n        require(nftUsed[tokenId] == address(0), \"Token already used\");\n        require(crushGod.ownerOf(tokenId) == msg.sender, \"Illegal owner\");\n        whitelist[msg.sender] = tokenId;\n        nftUsed[tokenId] = msg.sender;\n    }\n\n    function setNiceToken(address _tokenAddress) external onlyOwner {\n        require(address(niceToken) == address(0), \"$NICE already set\");\n        niceToken = NICEToken(_tokenAddress);\n    }\n\n    /// @notice Reserve NICE allocation with BUSD\n    /// @param _amount Amount of BUSD to lock NICE amount\n    /// @dev minimum of $100 BUSD, max of $5K BUSD\n    /// @dev if maxRaise is exceeded we will allocate just a portion of that amount.\n    function buyNice(uint256 _amount) external nonReentrant {\n        require(_amount.mod(1 ether) == 0, \"Exact amounts only\");\n        require(whitelist[msg.sender] > 0, \"Whitelist only\");\n        require(block.timestamp < saleEnd, \"SaleEnded\");\n        require(_amount >= 100 ether, \"Minimum not met\");\n        Buy storage userInfo = userBought[msg.sender];\n        require(\n            _amount <= 5000 ether &&\n                _amount.add(userInfo.amountBought) <= 5000 ether,\n            \"Cap overflow\"\n        );\n        require(totalRaised < maxRaise, \"Limit Exceeded\");\n        uint256 amount = _amount;\n        // When exceeding, send the rest to the user\n        if (totalRaised.add(amount) > maxRaise) {\n            amount = maxRaise.sub(totalRaised);\n        }\n\n        busd.safeTransferFrom(msg.sender, address(this), amount);\n        userInfo.amountOwed = userInfo.amountOwed.add(\n            amount.mul(priceDec).div(pricePerToken)\n        );\n        userInfo.amountBought = userInfo.amountBought.add(amount);\n        totalRaised = totalRaised.add(amount);\n\n        emit NiceBought(\n            msg.sender,\n            amount,\n            amount.mul(priceDec).div(pricePerToken)\n        );\n    }\n\n    ///\n    function claimRaised() external onlyOwner {\n        uint256 currentBalance = busd.balanceOf(address(this));\n        busd.safeTransfer(devAddress, currentBalance);\n    }\n\n    /// @notice function that gets available tokens to the user.\n    /// @dev transfers NICE to the user directly by minting straight to their wallets\n    function claimTokens() external nonReentrant {\n        Buy storage userInfo = userBought[msg.sender];\n        require(\n            saleEnd > 0 && block.timestamp > saleEnd.add(vestingDuration),\n            \"Claim Unavailable\"\n        );\n        require(address(niceToken) != address(0), \"Token Not added\");\n        uint256 claimable = availableAmount();\n        require(userInfo.amountClaimed < claimable, \"Already claimed\");\n        // Make sure we're not claiming more than available\n        claimable = claimable.sub(userInfo.amountClaimed);\n        userInfo.amountClaimed = userInfo.amountClaimed.add(claimable);\n        claimable = userInfo.amountOwed.mul(claimable).div(DIVISOR);\n        niceToken.mint(msg.sender, claimable);\n        emit NiceClaimed(msg.sender, claimable);\n    }\n\n    /// @notice get claimable percentage after sale end\n    /// @return _avail percentage available to claim\n    /// @dev this function checks if time has passed to set the max amount claimable\n    function availableAmount() public view returns (uint256 _avail) {\n        if (saleEnd > 0 && block.timestamp > saleEnd) {\n            if (block.timestamp > saleEnd.add(vestingDuration))\n                _avail = _avail.add(vesting);\n            if (block.timestamp > saleEnd.add(vestingDuration.mul(2)))\n                _avail = _avail.add(vesting);\n            if (block.timestamp > saleEnd.add(vestingDuration.mul(3)))\n                _avail = _avail.add(vesting);\n            if (block.timestamp > saleEnd.add(vestingDuration.mul(4)))\n                _avail = _avail.add(vesting);\n        }\n    }\n}\n",
  "sourcePath": "contracts/PrevSale.sol",
  "type": "contract"
}