{
  "abi": [
    {
      "inputs": [
        {
          "internalType": "contract CRUSHToken",
          "name": "_crush",
          "type": "address"
        },
        {
          "internalType": "uint256",
          "name": "_crushPerBlock",
          "type": "uint256"
        },
        {
          "internalType": "address",
          "name": "_reserveAddress",
          "type": "address"
        },
        {
          "internalType": "address",
          "name": "_withdrawFeeAddress",
          "type": "address"
        }
      ],
      "stateMutability": "nonpayable",
      "type": "constructor"
    },
    {
      "anonymous": false,
      "inputs": [
        {
          "indexed": true,
          "internalType": "uint256",
          "name": "_totalRewarded",
          "type": "uint256"
        }
      ],
      "name": "CompoundAll",
      "type": "event"
    },
    {
      "anonymous": false,
      "inputs": [
        {
          "indexed": true,
          "internalType": "address",
          "name": "previousOwner",
          "type": "address"
        },
        {
          "indexed": true,
          "internalType": "address",
          "name": "newOwner",
          "type": "address"
        }
      ],
      "name": "OwnershipTransferred",
      "type": "event"
    },
    {
      "anonymous": false,
      "inputs": [
        {
          "indexed": true,
          "internalType": "uint256",
          "name": "_totalPool",
          "type": "uint256"
        }
      ],
      "name": "RewardPoolUpdated",
      "type": "event"
    },
    {
      "anonymous": false,
      "inputs": [
        {
          "indexed": true,
          "internalType": "address",
          "name": "recipeint",
          "type": "address"
        },
        {
          "indexed": true,
          "internalType": "uint256",
          "name": "_amount",
          "type": "uint256"
        }
      ],
      "name": "StakeUpdated",
      "type": "event"
    },
    {
      "inputs": [
        {
          "internalType": "uint256",
          "name": "_amount",
          "type": "uint256"
        }
      ],
      "name": "addRewardToPool",
      "outputs": [],
      "stateMutability": "nonpayable",
      "type": "function"
    },
    {
      "inputs": [
        {
          "internalType": "uint256",
          "name": "",
          "type": "uint256"
        }
      ],
      "name": "addressIndexes",
      "outputs": [
        {
          "internalType": "address",
          "name": "",
          "type": "address"
        }
      ],
      "stateMutability": "view",
      "type": "function"
    },
    {
      "inputs": [],
      "name": "blockPerSecond",
      "outputs": [
        {
          "internalType": "uint256",
          "name": "",
          "type": "uint256"
        }
      ],
      "stateMutability": "view",
      "type": "function"
    },
    {
      "inputs": [],
      "name": "claim",
      "outputs": [],
      "stateMutability": "nonpayable",
      "type": "function"
    },
    {
      "inputs": [],
      "name": "compoundAll",
      "outputs": [],
      "stateMutability": "nonpayable",
      "type": "function"
    },
    {
      "inputs": [],
      "name": "crush",
      "outputs": [
        {
          "internalType": "contract CRUSHToken",
          "name": "",
          "type": "address"
        }
      ],
      "stateMutability": "view",
      "type": "function"
    },
    {
      "inputs": [],
      "name": "crushPerBlock",
      "outputs": [
        {
          "internalType": "uint256",
          "name": "",
          "type": "uint256"
        }
      ],
      "stateMutability": "view",
      "type": "function"
    },
    {
      "inputs": [],
      "name": "earlyWithdrawFee",
      "outputs": [
        {
          "internalType": "uint256",
          "name": "",
          "type": "uint256"
        }
      ],
      "stateMutability": "view",
      "type": "function"
    },
    {
      "inputs": [],
      "name": "earlyWithdrawFeeTime",
      "outputs": [
        {
          "internalType": "uint256",
          "name": "",
          "type": "uint256"
        }
      ],
      "stateMutability": "view",
      "type": "function"
    },
    {
      "inputs": [],
      "name": "emergencyTotalPoolWithdraw",
      "outputs": [],
      "stateMutability": "nonpayable",
      "type": "function"
    },
    {
      "inputs": [],
      "name": "emergencyWithdraw",
      "outputs": [],
      "stateMutability": "nonpayable",
      "type": "function"
    },
    {
      "inputs": [
        {
          "internalType": "uint256",
          "name": "_amount",
          "type": "uint256"
        }
      ],
      "name": "enterStaking",
      "outputs": [],
      "stateMutability": "nonpayable",
      "type": "function"
    },
    {
      "inputs": [],
      "name": "lastAutoCompoundBlock",
      "outputs": [
        {
          "internalType": "uint256",
          "name": "",
          "type": "uint256"
        }
      ],
      "stateMutability": "view",
      "type": "function"
    },
    {
      "inputs": [
        {
          "internalType": "uint256",
          "name": "_amount",
          "type": "uint256"
        }
      ],
      "name": "leaveStaking",
      "outputs": [],
      "stateMutability": "nonpayable",
      "type": "function"
    },
    {
      "inputs": [],
      "name": "leaveStakingCompletely",
      "outputs": [],
      "stateMutability": "nonpayable",
      "type": "function"
    },
    {
      "inputs": [],
      "name": "owner",
      "outputs": [
        {
          "internalType": "address",
          "name": "",
          "type": "address"
        }
      ],
      "stateMutability": "view",
      "type": "function"
    },
    {
      "inputs": [
        {
          "internalType": "address",
          "name": "_address",
          "type": "address"
        }
      ],
      "name": "pendingReward",
      "outputs": [
        {
          "internalType": "uint256",
          "name": "",
          "type": "uint256"
        }
      ],
      "stateMutability": "view",
      "type": "function"
    },
    {
      "inputs": [],
      "name": "performanceFeeBurn",
      "outputs": [
        {
          "internalType": "uint256",
          "name": "",
          "type": "uint256"
        }
      ],
      "stateMutability": "view",
      "type": "function"
    },
    {
      "inputs": [],
      "name": "performanceFeeCompounder",
      "outputs": [
        {
          "internalType": "uint256",
          "name": "",
          "type": "uint256"
        }
      ],
      "stateMutability": "view",
      "type": "function"
    },
    {
      "inputs": [],
      "name": "performanceFeeReserve",
      "outputs": [
        {
          "internalType": "uint256",
          "name": "",
          "type": "uint256"
        }
      ],
      "stateMutability": "view",
      "type": "function"
    },
    {
      "inputs": [],
      "name": "renounceOwnership",
      "outputs": [],
      "stateMutability": "nonpayable",
      "type": "function"
    },
    {
      "inputs": [],
      "name": "reserveAddress",
      "outputs": [
        {
          "internalType": "address",
          "name": "",
          "type": "address"
        }
      ],
      "stateMutability": "view",
      "type": "function"
    },
    {
      "inputs": [
        {
          "internalType": "uint256",
          "name": "_amount",
          "type": "uint256"
        }
      ],
      "name": "setCrushPerBlock",
      "outputs": [],
      "stateMutability": "nonpayable",
      "type": "function"
    },
    {
      "inputs": [
        {
          "internalType": "uint256",
          "name": "_fee",
          "type": "uint256"
        }
      ],
      "name": "setEarlyWithdrawFee",
      "outputs": [],
      "stateMutability": "nonpayable",
      "type": "function"
    },
    {
      "inputs": [
        {
          "internalType": "uint256",
          "name": "_time",
          "type": "uint256"
        }
      ],
      "name": "setEarlyWithdrawFeeTime",
      "outputs": [],
      "stateMutability": "nonpayable",
      "type": "function"
    },
    {
      "inputs": [
        {
          "internalType": "uint256",
          "name": "_fee",
          "type": "uint256"
        }
      ],
      "name": "setPerformanceFeeBurn",
      "outputs": [],
      "stateMutability": "nonpayable",
      "type": "function"
    },
    {
      "inputs": [
        {
          "internalType": "uint256",
          "name": "_fee",
          "type": "uint256"
        }
      ],
      "name": "setPerformanceFeeCompounder",
      "outputs": [],
      "stateMutability": "nonpayable",
      "type": "function"
    },
    {
      "inputs": [
        {
          "internalType": "uint256",
          "name": "_fee",
          "type": "uint256"
        }
      ],
      "name": "setPerformanceFeeReserve",
      "outputs": [],
      "stateMutability": "nonpayable",
      "type": "function"
    },
    {
      "inputs": [],
      "name": "singleCompound",
      "outputs": [],
      "stateMutability": "nonpayable",
      "type": "function"
    },
    {
      "inputs": [
        {
          "internalType": "address",
          "name": "",
          "type": "address"
        }
      ],
      "name": "stakings",
      "outputs": [
        {
          "internalType": "uint256",
          "name": "stakedAmount",
          "type": "uint256"
        },
        {
          "internalType": "uint256",
          "name": "claimedAmount",
          "type": "uint256"
        },
        {
          "internalType": "uint256",
          "name": "lastBlockCompounded",
          "type": "uint256"
        },
        {
          "internalType": "uint256",
          "name": "lastBlockStaked",
          "type": "uint256"
        },
        {
          "internalType": "uint256",
          "name": "index",
          "type": "uint256"
        }
      ],
      "stateMutability": "view",
      "type": "function"
    },
    {
      "inputs": [],
      "name": "totalClaimed",
      "outputs": [
        {
          "internalType": "uint256",
          "name": "",
          "type": "uint256"
        }
      ],
      "stateMutability": "view",
      "type": "function"
    },
    {
      "inputs": [],
      "name": "totalPendingRewards",
      "outputs": [
        {
          "internalType": "uint256",
          "name": "",
          "type": "uint256"
        }
      ],
      "stateMutability": "view",
      "type": "function"
    },
    {
      "inputs": [],
      "name": "totalPool",
      "outputs": [
        {
          "internalType": "uint256",
          "name": "",
          "type": "uint256"
        }
      ],
      "stateMutability": "view",
      "type": "function"
    },
    {
      "inputs": [],
      "name": "totalStaked",
      "outputs": [
        {
          "internalType": "uint256",
          "name": "",
          "type": "uint256"
        }
      ],
      "stateMutability": "view",
      "type": "function"
    },
    {
      "inputs": [
        {
          "internalType": "address",
          "name": "newOwner",
          "type": "address"
        }
      ],
      "name": "transferOwnership",
      "outputs": [],
      "stateMutability": "nonpayable",
      "type": "function"
    },
    {
      "inputs": [],
      "name": "withdrawFeeAddress",
      "outputs": [
        {
          "internalType": "address",
          "name": "",
          "type": "address"
        }
      ],
      "stateMutability": "view",
      "type": "function"
    }
  ],
  "bytecode": "6080604052600a6001556064600255603260035560be60045560036005556005546203f48062000030919062000111565b6006556005600c553480156200004557600080fd5b50604051620021b8380380620021b883398101604081905262000068916200014d565b6200007333620000c1565b600780546001600160a01b039586166001600160a01b031991821617909155600c93909355600d8054928516928416929092179091556000600b55600e8054919093169116179055620001a9565b600080546001600160a01b038381166001600160a01b0319831681178455604051919092169283917f8be0079c531659141344cd1fd0a4f28419497f9722a3daafe3b4186f6b6457e09190a35050565b6000826200012f57634e487b7160e01b600052601260045260246000fd5b500490565b6001600160a01b03811681146200014a57600080fd5b50565b600080600080608085870312156200016457600080fd5b8451620001718162000134565b6020860151604087015191955093506200018b8162000134565b60608601519092506200019e8162000134565b939692955090935050565b611fff80620001b96000396000f3fe608060405234801561001057600080fd5b506004361061021c5760003560e01c80638da5cb5b11610125578063d180fd88116100ad578063ec1371f21161007c578063ec1371f21461043a578063ecfb49a314610442578063f2fde38b1461044b578063f40f0f521461045e578063f79ed94b1461047157600080fd5b8063d180fd88146103bc578063d54ad2a1146103c4578063db2e21bc146103cd578063dc6e13e1146103d557600080fd5b8063b359a9f9116100f4578063b359a9f914610371578063bca5503d14610384578063c22982f41461038d578063c53f871f146103a0578063c61f1c0b146103b357600080fd5b80638da5cb5b1461033c5780639b05ddb31461034d578063a775573a14610355578063a80a78821461036857600080fd5b80635692f138116101a85780636e74d2e2116101775780636e74d2e2146102fc5780636f90e04614610305578063715018a614610318578063784def8c14610320578063817b1cd21461033357600080fd5b80635692f138146102ad5780635832d571146102b55780636535fc66146102e05780636903d0b6146102f357600080fd5b80633a53ed49116101ef5780633a53ed491461026d57806341441d3b146102805780634b37f006146102935780634bf211b81461029c5780634e71d92d146102a557600080fd5b80630a3960bc146102215780631058d2811461023d57806315eb082e1461025257806326cba3361461025a575b600080fd5b61022a60045481565b6040519081526020015b60405180910390f35b61025061024b366004611d5d565b610484565b005b610250610882565b610250610268366004611d5d565b610a49565b61025061027b366004611d5d565b610ab9565b61025061028e366004611d5d565b610bec565b61022a60055481565b61022a600b5481565b610250610ef6565b610250610fe5565b6102c86102c3366004611d5d565b6110f8565b6040516001600160a01b039091168152602001610234565b6102506102ee366004611d5d565b611122565b61022a60065481565b61022a60025481565b610250610313366004611d5d565b611193565b610250611212565b600e546102c8906001600160a01b031681565b61022a600f5481565b6000546001600160a01b03166102c8565b610250611248565b610250610363366004611d5d565b611684565b61022a60035481565b6007546102c8906001600160a01b031681565b61022a60015481565b61025061039b366004611d5d565b61171b565b6102506103ae366004611d5d565b61178b565b61022a600c5481565b6102506117fb565b61022a60105481565b610250611902565b6104126103e3366004611d76565b600860205260009081526040902080546001820154600283015460038401546004909401549293919290919085565b604080519586526020860194909452928401919091526060830152608082015260a001610234565b61022a611b00565b61022a600a5481565b610250610459366004611d76565b611b62565b61022a61046c366004611d76565b611bfd565b600d546102c8906001600160a01b031681565b600061048f33611c0e565b33600090815260086020526040902043600290910155600a549091506104b59082611cdd565b600a553360009081526008602052604090205482111561053a5760405162461bcd60e51b815260206004820152603560248201527f576974686472617720616d6f756e742063616e206e6f74206265206772656174604482015274195c881d1a185b881cdd185ad95908185b5bdd5b9d605a1b60648201526084015b60405180910390fd5b600f546105479083611cdd565b600f55336000908152600860205260409020546105649083611cdd565b33600090815260086020526040902090815560065460039091015461058891611ce9565b43101561063c5760006105b26127106105ac60035486611cf590919063ffffffff16565b90611d01565b90506105be8382611cdd565b600754600e5460405163a9059cbb60e01b81529295506001600160a01b039182169263a9059cbb926105f69216908590600401611d9f565b6020604051808303816000875af1158015610615573d6000803e3d6000fd5b505050506040513d601f19601f820116820180604052508101906106399190611db8565b50505b6106468282611ce9565b60075460405163a9059cbb60e01b81529193506001600160a01b03169063a9059cbb906106799033908690600401611d9f565b6020604051808303816000875af1158015610698573d6000803e3d6000fd5b505050506040513d601f19601f820116820180604052508101906106bc9190611db8565b5033600090815260086020526040902054610864573360009081526008602052604090206009546106ef90600190611df0565b81600401541461080457600980546000919061070d90600190611df0565b8154811061071d5761071d611e07565b9060005260206000200160009054906101000a90046001600160a01b0316905080600983600401548154811061075557610755611e07565b600091825260208083209190910180546001600160a01b0319166001600160a01b03948516179055600485810154858516845260089092526040808420820192909255600754915163095ea7b360e01b8152919093169263095ea7b3926107be92309201611d9f565b6020604051808303816000875af11580156107dd573d6000803e3d6000fd5b505050506040513d601f19601f820116820180604052508101906108019190611db8565b50505b600980548061081557610815611e1d565b60008281526020808220830160001990810180546001600160a01b0319169055909201909255338252600890526040812081815560018101829055600281018290556003810182905560040155505b600a54604051600080516020611faa83398151915290600090a25050565b600061088d33611c0e565b33600090815260086020526040902043600282015554600a54919250906108b49083611cdd565b600a556108c18183611ce9565b33600090815260086020526040902054600f549192506108e19190611cdd565b600f55600654336000908152600860205260409020600301546109049190611e33565b4310156109b25760006109286127106105ac60035485611cf590919063ffffffff16565b90506109348282611cdd565b600754600e5460405163a9059cbb60e01b81529294506001600160a01b039182169263a9059cbb9261096c9216908590600401611d9f565b6020604051808303816000875af115801561098b573d6000803e3d6000fd5b505050506040513d601f19601f820116820180604052508101906109af9190611db8565b50505b60075460405163a9059cbb60e01b81526001600160a01b039091169063a9059cbb906109e49033908590600401611d9f565b6020604051808303816000875af1158015610a03573d6000803e3d6000fd5b505050506040513d601f19601f82011682018060405250810190610a279190611db8565b503360009081526008602052604081209081556009546106ef90600190611df0565b6000546001600160a01b03163314610a735760405162461bcd60e51b815260040161053190611e4b565b60008111610a935760405162461bcd60e51b815260040161053190611e80565b6103e88110610ab45760405162461bcd60e51b815260040161053190611eb7565b600155565b6007546040516370a0823160e01b815233600482015282916001600160a01b0316906370a0823190602401602060405180830381865afa158015610b01573d6000803e3d6000fd5b505050506040513d601f19601f82011682018060405250810190610b259190611eee565b1015610b435760405162461bcd60e51b815260040161053190611f07565b600a54610b509082611ce9565b600a556007546040516323b872dd60e01b8152336004820152306024820152604481018390526001600160a01b03909116906323b872dd906064016020604051808303816000875af1158015610baa573d6000803e3d6000fd5b505050506040513d601f19601f82011682018060405250810190610bce9190611db8565b50600a54604051600080516020611faa83398151915290600090a250565b6007546040516370a0823160e01b815233600482015282916001600160a01b0316906370a0823190602401602060405180830381865afa158015610c34573d6000803e3d6000fd5b505050506040513d601f19601f82011682018060405250810190610c589190611eee565b1015610c765760405162461bcd60e51b815260040161053190611f07565b60008111610cbf5760405162461bcd60e51b8152602060048201526016602482015275125b9d985b1a59081cdd185ada5b99c8185b5bdd5b9d60521b6044820152606401610531565b6000600a5411610d095760405162461bcd60e51b815260206004820152601560248201527414995dd85c9908141bdbdb08115e1a185d5cdd1959605a1b6044820152606401610531565b6007546040516323b872dd60e01b8152336004820152306024820152604481018390526001600160a01b03909116906323b872dd906064016020604051808303816000875af1158015610d60573d6000803e3d6000fd5b505050506040513d601f19601f82011682018060405250810190610d849190611db8565b50600f54610d915743600b555b33600090815260086020526040902054610e1e57336000818152600860205260408120436002909101556009805460018181018355928290527f6e1540171b6c0c960b71a7020d9f60077f6af931a8bbf590da0223dacf75c7af0180546001600160a01b0319169093179092559054610e0a9190611df0565b336000908152600860205260409020600401555b33600090815260086020526040902054610e389082611ce9565b33600090815260086020526040902090815543600390910155600f54610e5e9082611ce9565b600f556007546001600160a01b031663a9059cbb33610e7c81611c0e565b6040518363ffffffff1660e01b8152600401610e99929190611d9f565b6020604051808303816000875af1158015610eb8573d6000803e3d6000fd5b505050506040513d601f19601f82011682018060405250810190610edc9190611db8565b505033600090815260086020526040902043600290910155565b6000610f0133611c0e565b33600090815260086020526040902060010154909150610f219082611ce9565b336000818152600860205260409081902060010192909255600754915163a9059cbb60e01b81526001600160a01b039092169163a9059cbb91610f68918590600401611d9f565b6020604051808303816000875af1158015610f87573d6000803e3d6000fd5b505050506040513d601f19601f82011682018060405250810190610fab9190611db8565b5033600090815260086020526040902043600290910155601054610fcf9082611ce9565b601055600a54610fdf9082611cdd565b600a5550565b336000908152600860205260409020546110415760405162461bcd60e51b815260206004820152601e60248201527f506c65617365205374616b6520437275736820746f20636f6d706f756e6400006044820152606401610531565b600061104c33611c0e565b336000908152600860205260409020549091506110699082611ce9565b33600090815260086020526040902055600f546110869082611ce9565b600f5533600090815260086020526040902043600290910155600a546110ac9082611cdd565b600a819055604051600080516020611faa83398151915290600090a2604051819033907fab0e25dc39626189cfb41155020ba89e726b10244275733e9d7c63cf33ffccdb90600090a350565b6009818154811061110857600080fd5b6000918252602090912001546001600160a01b0316905081565b6000546001600160a01b0316331461114c5760405162461bcd60e51b815260040161053190611e4b565b6000811161116c5760405162461bcd60e51b815260040161053190611e80565b6103e881111561118e5760405162461bcd60e51b815260040161053190611eb7565b600455565b6000546001600160a01b031633146111bd5760405162461bcd60e51b815260040161053190611e4b565b6000811161120d5760405162461bcd60e51b815260206004820152601b60248201527f54696d65206d7573742062652067726561746572207468616e203000000000006044820152606401610531565b600655565b6000546001600160a01b0316331461123c5760405162461bcd60e51b815260040161053190611e4b565b6112466000611d0d565b565b43600b54111561129a5760405162461bcd60e51b815260206004820181905260248201527f436f6d706f756e6420416c6c206e6f7420796574206170706c696361626c652e6044820152606401610531565b6000600f54116112ec5760405162461bcd60e51b815260206004820152601a60248201527f4e6f205374616b6564207265776172647320746f20636c61696d0000000000006044820152606401610531565b60008060008060005b6009548110156114e65760006113316009838154811061131757611317611e07565b6000918252602090912001546001600160a01b0316611c0e565b905061133d8482611ce9565b600a5490945061134d9082611cdd565b600a5560025460009061136990612710906105ac908590611cf5565b90506113758782611ce9565b965060006113946127106105ac60015486611cf590919063ffffffff16565b90506113a08582611ce9565b945060006113bf6127106105ac60045487611cf590919063ffffffff16565b90506113cb8882611ce9565b97506113d78484611cdd565b93506113e38483611cdd565b93506113ef8482611cdd565b600f549094506113ff9085611ce9565b600f8190555061144b84600860006009898154811061142057611420611e07565b60009182526020808320909101546001600160a01b0316835282019290925260400190205490611ce9565b600860006009888154811061146257611462611e07565b60009182526020808320909101546001600160a01b031683528201929092526040018120919091556009805443926008929091899081106114a5576114a5611e07565b60009182526020808320909101546001600160a01b03168352820192909252604001902060020155508392506114de9150829050611f4d565b9150506112f5565b5043600b55600754604051630852cd8d60e31b8152600481018690526001600160a01b03909116906342966c6890602401600060405180830381600087803b15801561153157600080fd5b505af1158015611545573d6000803e3d6000fd5b505060075460405163a9059cbb60e01b81526001600160a01b03909116925063a9059cbb915061157b9033908590600401611d9f565b6020604051808303816000875af115801561159a573d6000803e3d6000fd5b505050506040513d601f19601f820116820180604052508101906115be9190611db8565b50600754600d5460405163a9059cbb60e01b81526001600160a01b039283169263a9059cbb926115f5929116908790600401611d9f565b6020604051808303816000875af1158015611614573d6000803e3d6000fd5b505050506040513d601f19601f820116820180604052508101906116389190611db8565b5060405182907f7c45f13c5f74b8490171f97241162b875f904bc8c550e1f275f16072b93d91a690600090a2600a54604051600080516020611faa83398151915290600090a250505050565b6000546001600160a01b031633146116ae5760405162461bcd60e51b815260040161053190611e4b565b678ac7230489e800008111156117165760405162461bcd60e51b815260206004820152602760248201527f43727573682050657220426c6f636b2063616e206e6f74206265206d6f72652060448201526607468616e2031360cc1b6064820152608401610531565b600c55565b6000546001600160a01b031633146117455760405162461bcd60e51b815260040161053190611e4b565b600081116117655760405162461bcd60e51b815260040161053190611e80565b6103e881106117865760405162461bcd60e51b815260040161053190611eb7565b600355565b6000546001600160a01b031633146117b55760405162461bcd60e51b815260040161053190611e4b565b600081116117d55760405162461bcd60e51b815260040161053190611e80565b6103e881106117f65760405162461bcd60e51b815260040161053190611eb7565b600255565b6000546001600160a01b031633146118255760405162461bcd60e51b815260040161053190611e4b565b6000600a54116118835760405162461bcd60e51b8152602060048201526024808201527f546f74616c20506f6f6c206e65656420746f20626520677265617465722074686044820152630616e20360e41b6064820152608401610531565b600754600a5460405163a9059cbb60e01b81526001600160a01b039092169163a9059cbb916118b791339190600401611d9f565b6020604051808303816000875af11580156118d6573d6000803e3d6000fd5b505050506040513d601f19601f820116820180604052508101906118fa9190611db8565b506000600a55565b600754336000818152600860205260409081902054905163a9059cbb60e01b81526001600160a01b039093169263a9059cbb92611943929091600401611d9f565b6020604051808303816000875af1158015611962573d6000803e3d6000fd5b505050506040513d601f19601f820116820180604052508101906119869190611db8565b503360009081526008602052604081209081554360028201556009546119ae90600190611df0565b816004015414611a535760098054600091906119cc90600190611df0565b815481106119dc576119dc611e07565b9060005260206000200160009054906101000a90046001600160a01b03169050806009836004015481548110611a1457611a14611e07565b600091825260208083209190910180546001600160a01b0319166001600160a01b03948516179055600485810154949093168252600890526040902001555b6009805480611a6457611a64611e1d565b600082815260208120600019908301810180546001600160a01b031916905590910190915560075460405163095ea7b360e01b81526001600160a01b039091169163095ea7b391611ab9913091600401611d9f565b6020604051808303816000875af1158015611ad8573d6000803e3d6000fd5b505050506040513d601f19601f82011682018060405250810190611afc9190611db8565b5050565b6000600b544311611b115750600090565b600b54611b1e5750600090565b600a54611b2b5750600090565b6000611b42600b5443611cdd90919063ffffffff16565b90506000611b5b600c5483611cf590919063ffffffff16565b9392505050565b6000546001600160a01b03163314611b8c5760405162461bcd60e51b815260040161053190611e4b565b6001600160a01b038116611bf15760405162461bcd60e51b815260206004820152602660248201527f4f776e61626c653a206e6577206f776e657220697320746865207a65726f206160448201526564647265737360d01b6064820152608401610531565b611bfa81611d0d565b50565b6000611c0882611c0e565b92915050565b6001600160a01b0381166000908152600860205260408120600201544311611c3857506000919050565b600a541580611c475750600f54155b15611c5457506000919050565b6001600160a01b038216600090815260086020526040812060020154611c7b904390611cdd565b90506000611c94600c5483611cf590919063ffffffff16565b600f546001600160a01b03861660009081526008602052604081205492935091611cc491906105ac908590611cf5565b9050600a54811115611cd55750600a545b949350505050565b6000611b5b8284611df0565b6000611b5b8284611e33565b6000611b5b8284611f68565b6000611b5b8284611f87565b600080546001600160a01b038381166001600160a01b0319831681178455604051919092169283917f8be0079c531659141344cd1fd0a4f28419497f9722a3daafe3b4186f6b6457e09190a35050565b600060208284031215611d6f57600080fd5b5035919050565b600060208284031215611d8857600080fd5b81356001600160a01b0381168114611b5b57600080fd5b6001600160a01b03929092168252602082015260400190565b600060208284031215611dca57600080fd5b81518015158114611b5b57600080fd5b634e487b7160e01b600052601160045260246000fd5b600082821015611e0257611e02611dda565b500390565b634e487b7160e01b600052603260045260246000fd5b634e487b7160e01b600052603160045260246000fd5b60008219821115611e4657611e46611dda565b500190565b6020808252818101527f4f776e61626c653a2063616c6c6572206973206e6f7420746865206f776e6572604082015260600190565b6020808252601a908201527f466565206d7573742062652067726561746572207468616e2030000000000000604082015260600190565b60208082526019908201527f466565206d757374206265206c657373207468616e2031302500000000000000604082015260600190565b600060208284031215611f0057600080fd5b5051919050565b60208082526026908201527f496e73756666696369656e7420437275736820746f6b656e7320666f7220747260408201526530b739b332b960d11b606082015260800190565b6000600019821415611f6157611f61611dda565b5060010190565b6000816000190483118215151615611f8257611f82611dda565b500290565b600082611fa457634e487b7160e01b600052601260045260246000fd5b50049056fe1ef37ab665f7c977b577275d7a49e72cd18d1143eccd1112f1198e4a39d1428ca2646970667358221220747002130971490b277448dae9fd69c531981b05248e8035f4ea85791dd5b53564736f6c634300080c0033",
  "bytecodeSha1": "49c63134b9b4c99ae2afb715a94f64ee353e33fb",
  "compiler": {
    "evm_version": "istanbul",
    "optimizer": {
      "enabled": true,
      "runs": 200
    },
    "version": "0.8.12+commit.f00d7308"
  },
  "contractName": "singleAssetStaking",
  "language": "Solidity",
  "natspec": {
    "kind": "dev",
    "methods": {
      "addRewardToPool(uint256)": {
        "details": "adds the provided amount to `totalPool` state variable",
        "notice": "Adds the provided amount to the totalPool",
        "params": {
          "_amount": "the amount to add"
        }
      },
      "claim()": {
        "details": "calculates users rewards and transfers it out while deducting reward from totalPool",
        "notice": "transfers the rewards of a user to their address"
      },
      "compoundAll()": {
        "details": "compounds the rewards of all users in the pool add adds it into their staked amount while deducting fees",
        "notice": "compounds the rewards of all users in the pool"
      },
      "emergencyTotalPoolWithdraw()": {
        "details": "drains the total pool and sets the state variable `totalPool` to 0",
        "notice": "withdraws the total pool in case of emergency."
      },
      "emergencyWithdraw()": {
        "details": "drains the staked amount and sets the state variable `stakedAmount` of staking mapping to 0",
        "notice": "withdraws the staked amount of user in case of emergency."
      },
      "enterStaking(uint256)": {
        "details": "stakes the provided amount",
        "notice": "Stake the provided amount",
        "params": {
          "_amount": "the amount to stake"
        }
      },
      "leaveStaking(uint256)": {
        "details": "leaves staking and deducts total pool by the users reward. early withdrawal fee applied if withdraw is made before earlyWithdrawFeeTime",
        "notice": "Leaves staking for a user by the specified amount and transfering staked amount and reward to users address",
        "params": {
          "_amount": "the amount to unstake"
        }
      },
      "leaveStakingCompletely()": {
        "details": "leaves staking and deducts total pool by the users reward. early withdrawal fee applied if withdraw is made before earlyWithdrawFeeTime",
        "notice": "Leaves staking for a user while setting stakedAmount to 0 and transfering staked amount and reward to users address"
      },
      "owner()": {
        "details": "Returns the address of the current owner."
      },
      "pendingReward(address)": {
        "details": "calculates potential reward for the address provided based on crush per block",
        "notice": "Get pending rewards of a user",
        "params": {
          "_address": "the address to calculate the reward for"
        }
      },
      "renounceOwnership()": {
        "details": "Leaves the contract without owner. It will not be possible to call `onlyOwner` functions anymore. Can only be called by the current owner. NOTE: Renouncing ownership will leave the contract without an owner, thereby removing any functionality that is only available to the owner."
      },
      "setEarlyWithdrawFee(uint256)": {
        "details": "stores the fee in the state variable `earlyWithdrawFee`",
        "notice": "Store `_fee`.",
        "params": {
          "_fee": "the new value to store"
        }
      },
      "setEarlyWithdrawFeeTime(uint256)": {
        "details": "stores the time in the state variable `earlyWithdrawFeeTime`",
        "notice": "Store `_time`.",
        "params": {
          "_time": "the new value to store"
        }
      },
      "setPerformanceFeeBurn(uint256)": {
        "details": "stores the fee in the state variable `performanceFeeBurn`",
        "notice": "Store `_fee`.",
        "params": {
          "_fee": "the new value to store"
        }
      },
      "setPerformanceFeeCompounder(uint256)": {
        "details": "stores the fee in the state variable `performanceFeeCompounder`",
        "notice": "Store `_fee`.",
        "params": {
          "_fee": "the new value to store"
        }
      },
      "setPerformanceFeeReserve(uint256)": {
        "details": "stores the fee in the state variable `performanceFeeReserve`",
        "notice": "Store `_fee`.",
        "params": {
          "_fee": "the new value to store"
        }
      },
      "singleCompound()": {
        "details": "compounds the rewards of the caller add adds it into their staked amount",
        "notice": "compounds the rewards of the caller"
      },
      "totalPendingRewards()": {
        "details": "Calculates potential reward based on crush per block",
        "notice": "Calculates total potential pending rewards"
      },
      "transferOwnership(address)": {
        "details": "Transfers ownership of the contract to a new account (`newOwner`). Can only be called by the current owner."
      }
    },
    "version": 1
  },
  "opcodes": "PUSH1 0x80 PUSH1 0x40 MSTORE CALLVALUE DUP1 ISZERO PUSH2 0x10 JUMPI PUSH1 0x0 DUP1 REVERT JUMPDEST POP PUSH1 0x4 CALLDATASIZE LT PUSH2 0x21C JUMPI PUSH1 0x0 CALLDATALOAD PUSH1 0xE0 SHR DUP1 PUSH4 0x8DA5CB5B GT PUSH2 0x125 JUMPI DUP1 PUSH4 0xD180FD88 GT PUSH2 0xAD JUMPI DUP1 PUSH4 0xEC1371F2 GT PUSH2 0x7C JUMPI DUP1 PUSH4 0xEC1371F2 EQ PUSH2 0x43A JUMPI DUP1 PUSH4 0xECFB49A3 EQ PUSH2 0x442 JUMPI DUP1 PUSH4 0xF2FDE38B EQ PUSH2 0x44B JUMPI DUP1 PUSH4 0xF40F0F52 EQ PUSH2 0x45E JUMPI DUP1 PUSH4 0xF79ED94B EQ PUSH2 0x471 JUMPI PUSH1 0x0 DUP1 REVERT JUMPDEST DUP1 PUSH4 0xD180FD88 EQ PUSH2 0x3BC JUMPI DUP1 PUSH4 0xD54AD2A1 EQ PUSH2 0x3C4 JUMPI DUP1 PUSH4 0xDB2E21BC EQ PUSH2 0x3CD JUMPI DUP1 PUSH4 0xDC6E13E1 EQ PUSH2 0x3D5 JUMPI PUSH1 0x0 DUP1 REVERT JUMPDEST DUP1 PUSH4 0xB359A9F9 GT PUSH2 0xF4 JUMPI DUP1 PUSH4 0xB359A9F9 EQ PUSH2 0x371 JUMPI DUP1 PUSH4 0xBCA5503D EQ PUSH2 0x384 JUMPI DUP1 PUSH4 0xC22982F4 EQ PUSH2 0x38D JUMPI DUP1 PUSH4 0xC53F871F EQ PUSH2 0x3A0 JUMPI DUP1 PUSH4 0xC61F1C0B EQ PUSH2 0x3B3 JUMPI PUSH1 0x0 DUP1 REVERT JUMPDEST DUP1 PUSH4 0x8DA5CB5B EQ PUSH2 0x33C JUMPI DUP1 PUSH4 0x9B05DDB3 EQ PUSH2 0x34D JUMPI DUP1 PUSH4 0xA775573A EQ PUSH2 0x355 JUMPI DUP1 PUSH4 0xA80A7882 EQ PUSH2 0x368 JUMPI PUSH1 0x0 DUP1 REVERT JUMPDEST DUP1 PUSH4 0x5692F138 GT PUSH2 0x1A8 JUMPI DUP1 PUSH4 0x6E74D2E2 GT PUSH2 0x177 JUMPI DUP1 PUSH4 0x6E74D2E2 EQ PUSH2 0x2FC JUMPI DUP1 PUSH4 0x6F90E046 EQ PUSH2 0x305 JUMPI DUP1 PUSH4 0x715018A6 EQ PUSH2 0x318 JUMPI DUP1 PUSH4 0x784DEF8C EQ PUSH2 0x320 JUMPI DUP1 PUSH4 0x817B1CD2 EQ PUSH2 0x333 JUMPI PUSH1 0x0 DUP1 REVERT JUMPDEST DUP1 PUSH4 0x5692F138 EQ PUSH2 0x2AD JUMPI DUP1 PUSH4 0x5832D571 EQ PUSH2 0x2B5 JUMPI DUP1 PUSH4 0x6535FC66 EQ PUSH2 0x2E0 JUMPI DUP1 PUSH4 0x6903D0B6 EQ PUSH2 0x2F3 JUMPI PUSH1 0x0 DUP1 REVERT JUMPDEST DUP1 PUSH4 0x3A53ED49 GT PUSH2 0x1EF JUMPI DUP1 PUSH4 0x3A53ED49 EQ PUSH2 0x26D JUMPI DUP1 PUSH4 0x41441D3B EQ PUSH2 0x280 JUMPI DUP1 PUSH4 0x4B37F006 EQ PUSH2 0x293 JUMPI DUP1 PUSH4 0x4BF211B8 EQ PUSH2 0x29C JUMPI DUP1 PUSH4 0x4E71D92D EQ PUSH2 0x2A5 JUMPI PUSH1 0x0 DUP1 REVERT JUMPDEST DUP1 PUSH4 0xA3960BC EQ PUSH2 0x221 JUMPI DUP1 PUSH4 0x1058D281 EQ PUSH2 0x23D JUMPI DUP1 PUSH4 0x15EB082E EQ PUSH2 0x252 JUMPI DUP1 PUSH4 0x26CBA336 EQ PUSH2 0x25A JUMPI JUMPDEST PUSH1 0x0 DUP1 REVERT JUMPDEST PUSH2 0x22A PUSH1 0x4 SLOAD DUP2 JUMP JUMPDEST PUSH1 0x40 MLOAD SWAP1 DUP2 MSTORE PUSH1 0x20 ADD JUMPDEST PUSH1 0x40 MLOAD DUP1 SWAP2 SUB SWAP1 RETURN JUMPDEST PUSH2 0x250 PUSH2 0x24B CALLDATASIZE PUSH1 0x4 PUSH2 0x1D5D JUMP JUMPDEST PUSH2 0x484 JUMP JUMPDEST STOP JUMPDEST PUSH2 0x250 PUSH2 0x882 JUMP JUMPDEST PUSH2 0x250 PUSH2 0x268 CALLDATASIZE PUSH1 0x4 PUSH2 0x1D5D JUMP JUMPDEST PUSH2 0xA49 JUMP JUMPDEST PUSH2 0x250 PUSH2 0x27B CALLDATASIZE PUSH1 0x4 PUSH2 0x1D5D JUMP JUMPDEST PUSH2 0xAB9 JUMP JUMPDEST PUSH2 0x250 PUSH2 0x28E CALLDATASIZE PUSH1 0x4 PUSH2 0x1D5D JUMP JUMPDEST PUSH2 0xBEC JUMP JUMPDEST PUSH2 0x22A PUSH1 0x5 SLOAD DUP2 JUMP JUMPDEST PUSH2 0x22A PUSH1 0xB SLOAD DUP2 JUMP JUMPDEST PUSH2 0x250 PUSH2 0xEF6 JUMP JUMPDEST PUSH2 0x250 PUSH2 0xFE5 JUMP JUMPDEST PUSH2 0x2C8 PUSH2 0x2C3 CALLDATASIZE PUSH1 0x4 PUSH2 0x1D5D JUMP JUMPDEST PUSH2 0x10F8 JUMP JUMPDEST PUSH1 0x40 MLOAD PUSH1 0x1 PUSH1 0x1 PUSH1 0xA0 SHL SUB SWAP1 SWAP2 AND DUP2 MSTORE PUSH1 0x20 ADD PUSH2 0x234 JUMP JUMPDEST PUSH2 0x250 PUSH2 0x2EE CALLDATASIZE PUSH1 0x4 PUSH2 0x1D5D JUMP JUMPDEST PUSH2 0x1122 JUMP JUMPDEST PUSH2 0x22A PUSH1 0x6 SLOAD DUP2 JUMP JUMPDEST PUSH2 0x22A PUSH1 0x2 SLOAD DUP2 JUMP JUMPDEST PUSH2 0x250 PUSH2 0x313 CALLDATASIZE PUSH1 0x4 PUSH2 0x1D5D JUMP JUMPDEST PUSH2 0x1193 JUMP JUMPDEST PUSH2 0x250 PUSH2 0x1212 JUMP JUMPDEST PUSH1 0xE SLOAD PUSH2 0x2C8 SWAP1 PUSH1 0x1 PUSH1 0x1 PUSH1 0xA0 SHL SUB AND DUP2 JUMP JUMPDEST PUSH2 0x22A PUSH1 0xF SLOAD DUP2 JUMP JUMPDEST PUSH1 0x0 SLOAD PUSH1 0x1 PUSH1 0x1 PUSH1 0xA0 SHL SUB AND PUSH2 0x2C8 JUMP JUMPDEST PUSH2 0x250 PUSH2 0x1248 JUMP JUMPDEST PUSH2 0x250 PUSH2 0x363 CALLDATASIZE PUSH1 0x4 PUSH2 0x1D5D JUMP JUMPDEST PUSH2 0x1684 JUMP JUMPDEST PUSH2 0x22A PUSH1 0x3 SLOAD DUP2 JUMP JUMPDEST PUSH1 0x7 SLOAD PUSH2 0x2C8 SWAP1 PUSH1 0x1 PUSH1 0x1 PUSH1 0xA0 SHL SUB AND DUP2 JUMP JUMPDEST PUSH2 0x22A PUSH1 0x1 SLOAD DUP2 JUMP JUMPDEST PUSH2 0x250 PUSH2 0x39B CALLDATASIZE PUSH1 0x4 PUSH2 0x1D5D JUMP JUMPDEST PUSH2 0x171B JUMP JUMPDEST PUSH2 0x250 PUSH2 0x3AE CALLDATASIZE PUSH1 0x4 PUSH2 0x1D5D JUMP JUMPDEST PUSH2 0x178B JUMP JUMPDEST PUSH2 0x22A PUSH1 0xC SLOAD DUP2 JUMP JUMPDEST PUSH2 0x250 PUSH2 0x17FB JUMP JUMPDEST PUSH2 0x22A PUSH1 0x10 SLOAD DUP2 JUMP JUMPDEST PUSH2 0x250 PUSH2 0x1902 JUMP JUMPDEST PUSH2 0x412 PUSH2 0x3E3 CALLDATASIZE PUSH1 0x4 PUSH2 0x1D76 JUMP JUMPDEST PUSH1 0x8 PUSH1 0x20 MSTORE PUSH1 0x0 SWAP1 DUP2 MSTORE PUSH1 0x40 SWAP1 KECCAK256 DUP1 SLOAD PUSH1 0x1 DUP3 ADD SLOAD PUSH1 0x2 DUP4 ADD SLOAD PUSH1 0x3 DUP5 ADD SLOAD PUSH1 0x4 SWAP1 SWAP5 ADD SLOAD SWAP3 SWAP4 SWAP2 SWAP3 SWAP1 SWAP2 SWAP1 DUP6 JUMP JUMPDEST PUSH1 0x40 DUP1 MLOAD SWAP6 DUP7 MSTORE PUSH1 0x20 DUP7 ADD SWAP5 SWAP1 SWAP5 MSTORE SWAP3 DUP5 ADD SWAP2 SWAP1 SWAP2 MSTORE PUSH1 0x60 DUP4 ADD MSTORE PUSH1 0x80 DUP3 ADD MSTORE PUSH1 0xA0 ADD PUSH2 0x234 JUMP JUMPDEST PUSH2 0x22A PUSH2 0x1B00 JUMP JUMPDEST PUSH2 0x22A PUSH1 0xA SLOAD DUP2 JUMP JUMPDEST PUSH2 0x250 PUSH2 0x459 CALLDATASIZE PUSH1 0x4 PUSH2 0x1D76 JUMP JUMPDEST PUSH2 0x1B62 JUMP JUMPDEST PUSH2 0x22A PUSH2 0x46C CALLDATASIZE PUSH1 0x4 PUSH2 0x1D76 JUMP JUMPDEST PUSH2 0x1BFD JUMP JUMPDEST PUSH1 0xD SLOAD PUSH2 0x2C8 SWAP1 PUSH1 0x1 PUSH1 0x1 PUSH1 0xA0 SHL SUB AND DUP2 JUMP JUMPDEST PUSH1 0x0 PUSH2 0x48F CALLER PUSH2 0x1C0E JUMP JUMPDEST CALLER PUSH1 0x0 SWAP1 DUP2 MSTORE PUSH1 0x8 PUSH1 0x20 MSTORE PUSH1 0x40 SWAP1 KECCAK256 NUMBER PUSH1 0x2 SWAP1 SWAP2 ADD SSTORE PUSH1 0xA SLOAD SWAP1 SWAP2 POP PUSH2 0x4B5 SWAP1 DUP3 PUSH2 0x1CDD JUMP JUMPDEST PUSH1 0xA SSTORE CALLER PUSH1 0x0 SWAP1 DUP2 MSTORE PUSH1 0x8 PUSH1 0x20 MSTORE PUSH1 0x40 SWAP1 KECCAK256 SLOAD DUP3 GT ISZERO PUSH2 0x53A JUMPI PUSH1 0x40 MLOAD PUSH3 0x461BCD PUSH1 0xE5 SHL DUP2 MSTORE PUSH1 0x20 PUSH1 0x4 DUP3 ADD MSTORE PUSH1 0x35 PUSH1 0x24 DUP3 ADD MSTORE PUSH32 0x576974686472617720616D6F756E742063616E206E6F74206265206772656174 PUSH1 0x44 DUP3 ADD MSTORE PUSH21 0x195C881D1A185B881CDD185AD95908185B5BDD5B9D PUSH1 0x5A SHL PUSH1 0x64 DUP3 ADD MSTORE PUSH1 0x84 ADD JUMPDEST PUSH1 0x40 MLOAD DUP1 SWAP2 SUB SWAP1 REVERT JUMPDEST PUSH1 0xF SLOAD PUSH2 0x547 SWAP1 DUP4 PUSH2 0x1CDD JUMP JUMPDEST PUSH1 0xF SSTORE CALLER PUSH1 0x0 SWAP1 DUP2 MSTORE PUSH1 0x8 PUSH1 0x20 MSTORE PUSH1 0x40 SWAP1 KECCAK256 SLOAD PUSH2 0x564 SWAP1 DUP4 PUSH2 0x1CDD JUMP JUMPDEST CALLER PUSH1 0x0 SWAP1 DUP2 MSTORE PUSH1 0x8 PUSH1 0x20 MSTORE PUSH1 0x40 SWAP1 KECCAK256 SWAP1 DUP2 SSTORE PUSH1 0x6 SLOAD PUSH1 0x3 SWAP1 SWAP2 ADD SLOAD PUSH2 0x588 SWAP2 PUSH2 0x1CE9 JUMP JUMPDEST NUMBER LT ISZERO PUSH2 0x63C JUMPI PUSH1 0x0 PUSH2 0x5B2 PUSH2 0x2710 PUSH2 0x5AC PUSH1 0x3 SLOAD DUP7 PUSH2 0x1CF5 SWAP1 SWAP2 SWAP1 PUSH4 0xFFFFFFFF AND JUMP JUMPDEST SWAP1 PUSH2 0x1D01 JUMP JUMPDEST SWAP1 POP PUSH2 0x5BE DUP4 DUP3 PUSH2 0x1CDD JUMP JUMPDEST PUSH1 0x7 SLOAD PUSH1 0xE SLOAD PUSH1 0x40 MLOAD PUSH4 0xA9059CBB PUSH1 0xE0 SHL DUP2 MSTORE SWAP3 SWAP6 POP PUSH1 0x1 PUSH1 0x1 PUSH1 0xA0 SHL SUB SWAP2 DUP3 AND SWAP3 PUSH4 0xA9059CBB SWAP3 PUSH2 0x5F6 SWAP3 AND SWAP1 DUP6 SWAP1 PUSH1 0x4 ADD PUSH2 0x1D9F JUMP JUMPDEST PUSH1 0x20 PUSH1 0x40 MLOAD DUP1 DUP4 SUB DUP2 PUSH1 0x0 DUP8 GAS CALL ISZERO DUP1 ISZERO PUSH2 0x615 JUMPI RETURNDATASIZE PUSH1 0x0 DUP1 RETURNDATACOPY RETURNDATASIZE PUSH1 0x0 REVERT JUMPDEST POP POP POP POP PUSH1 0x40 MLOAD RETURNDATASIZE PUSH1 0x1F NOT PUSH1 0x1F DUP3 ADD AND DUP3 ADD DUP1 PUSH1 0x40 MSTORE POP DUP2 ADD SWAP1 PUSH2 0x639 SWAP2 SWAP1 PUSH2 0x1DB8 JUMP JUMPDEST POP POP JUMPDEST PUSH2 0x646 DUP3 DUP3 PUSH2 0x1CE9 JUMP JUMPDEST PUSH1 0x7 SLOAD PUSH1 0x40 MLOAD PUSH4 0xA9059CBB PUSH1 0xE0 SHL DUP2 MSTORE SWAP2 SWAP4 POP PUSH1 0x1 PUSH1 0x1 PUSH1 0xA0 SHL SUB AND SWAP1 PUSH4 0xA9059CBB SWAP1 PUSH2 0x679 SWAP1 CALLER SWAP1 DUP7 SWAP1 PUSH1 0x4 ADD PUSH2 0x1D9F JUMP JUMPDEST PUSH1 0x20 PUSH1 0x40 MLOAD DUP1 DUP4 SUB DUP2 PUSH1 0x0 DUP8 GAS CALL ISZERO DUP1 ISZERO PUSH2 0x698 JUMPI RETURNDATASIZE PUSH1 0x0 DUP1 RETURNDATACOPY RETURNDATASIZE PUSH1 0x0 REVERT JUMPDEST POP POP POP POP PUSH1 0x40 MLOAD RETURNDATASIZE PUSH1 0x1F NOT PUSH1 0x1F DUP3 ADD AND DUP3 ADD DUP1 PUSH1 0x40 MSTORE POP DUP2 ADD SWAP1 PUSH2 0x6BC SWAP2 SWAP1 PUSH2 0x1DB8 JUMP JUMPDEST POP CALLER PUSH1 0x0 SWAP1 DUP2 MSTORE PUSH1 0x8 PUSH1 0x20 MSTORE PUSH1 0x40 SWAP1 KECCAK256 SLOAD PUSH2 0x864 JUMPI CALLER PUSH1 0x0 SWAP1 DUP2 MSTORE PUSH1 0x8 PUSH1 0x20 MSTORE PUSH1 0x40 SWAP1 KECCAK256 PUSH1 0x9 SLOAD PUSH2 0x6EF SWAP1 PUSH1 0x1 SWAP1 PUSH2 0x1DF0 JUMP JUMPDEST DUP2 PUSH1 0x4 ADD SLOAD EQ PUSH2 0x804 JUMPI PUSH1 0x9 DUP1 SLOAD PUSH1 0x0 SWAP2 SWAP1 PUSH2 0x70D SWAP1 PUSH1 0x1 SWAP1 PUSH2 0x1DF0 JUMP JUMPDEST DUP2 SLOAD DUP2 LT PUSH2 0x71D JUMPI PUSH2 0x71D PUSH2 0x1E07 JUMP JUMPDEST SWAP1 PUSH1 0x0 MSTORE PUSH1 0x20 PUSH1 0x0 KECCAK256 ADD PUSH1 0x0 SWAP1 SLOAD SWAP1 PUSH2 0x100 EXP SWAP1 DIV PUSH1 0x1 PUSH1 0x1 PUSH1 0xA0 SHL SUB AND SWAP1 POP DUP1 PUSH1 0x9 DUP4 PUSH1 0x4 ADD SLOAD DUP2 SLOAD DUP2 LT PUSH2 0x755 JUMPI PUSH2 0x755 PUSH2 0x1E07 JUMP JUMPDEST PUSH1 0x0 SWAP2 DUP3 MSTORE PUSH1 0x20 DUP1 DUP4 KECCAK256 SWAP2 SWAP1 SWAP2 ADD DUP1 SLOAD PUSH1 0x1 PUSH1 0x1 PUSH1 0xA0 SHL SUB NOT AND PUSH1 0x1 PUSH1 0x1 PUSH1 0xA0 SHL SUB SWAP5 DUP6 AND OR SWAP1 SSTORE PUSH1 0x4 DUP6 DUP2 ADD SLOAD DUP6 DUP6 AND DUP5 MSTORE PUSH1 0x8 SWAP1 SWAP3 MSTORE PUSH1 0x40 DUP1 DUP5 KECCAK256 DUP3 ADD SWAP3 SWAP1 SWAP3 SSTORE PUSH1 0x7 SLOAD SWAP2 MLOAD PUSH4 0x95EA7B3 PUSH1 0xE0 SHL DUP2 MSTORE SWAP2 SWAP1 SWAP4 AND SWAP3 PUSH4 0x95EA7B3 SWAP3 PUSH2 0x7BE SWAP3 ADDRESS SWAP3 ADD PUSH2 0x1D9F JUMP JUMPDEST PUSH1 0x20 PUSH1 0x40 MLOAD DUP1 DUP4 SUB DUP2 PUSH1 0x0 DUP8 GAS CALL ISZERO DUP1 ISZERO PUSH2 0x7DD JUMPI RETURNDATASIZE PUSH1 0x0 DUP1 RETURNDATACOPY RETURNDATASIZE PUSH1 0x0 REVERT JUMPDEST POP POP POP POP PUSH1 0x40 MLOAD RETURNDATASIZE PUSH1 0x1F NOT PUSH1 0x1F DUP3 ADD AND DUP3 ADD DUP1 PUSH1 0x40 MSTORE POP DUP2 ADD SWAP1 PUSH2 0x801 SWAP2 SWAP1 PUSH2 0x1DB8 JUMP JUMPDEST POP POP JUMPDEST PUSH1 0x9 DUP1 SLOAD DUP1 PUSH2 0x815 JUMPI PUSH2 0x815 PUSH2 0x1E1D JUMP JUMPDEST PUSH1 0x0 DUP3 DUP2 MSTORE PUSH1 0x20 DUP1 DUP3 KECCAK256 DUP4 ADD PUSH1 0x0 NOT SWAP1 DUP2 ADD DUP1 SLOAD PUSH1 0x1 PUSH1 0x1 PUSH1 0xA0 SHL SUB NOT AND SWAP1 SSTORE SWAP1 SWAP3 ADD SWAP1 SWAP3 SSTORE CALLER DUP3 MSTORE PUSH1 0x8 SWAP1 MSTORE PUSH1 0x40 DUP2 KECCAK256 DUP2 DUP2 SSTORE PUSH1 0x1 DUP2 ADD DUP3 SWAP1 SSTORE PUSH1 0x2 DUP2 ADD DUP3 SWAP1 SSTORE PUSH1 0x3 DUP2 ADD DUP3 SWAP1 SSTORE PUSH1 0x4 ADD SSTORE POP JUMPDEST PUSH1 0xA SLOAD PUSH1 0x40 MLOAD PUSH1 0x0 DUP1 MLOAD PUSH1 0x20 PUSH2 0x1FAA DUP4 CODECOPY DUP2 MLOAD SWAP2 MSTORE SWAP1 PUSH1 0x0 SWAP1 LOG2 POP POP JUMP JUMPDEST PUSH1 0x0 PUSH2 0x88D CALLER PUSH2 0x1C0E JUMP JUMPDEST CALLER PUSH1 0x0 SWAP1 DUP2 MSTORE PUSH1 0x8 PUSH1 0x20 MSTORE PUSH1 0x40 SWAP1 KECCAK256 NUMBER PUSH1 0x2 DUP3 ADD SSTORE SLOAD PUSH1 0xA SLOAD SWAP2 SWAP3 POP SWAP1 PUSH2 0x8B4 SWAP1 DUP4 PUSH2 0x1CDD JUMP JUMPDEST PUSH1 0xA SSTORE PUSH2 0x8C1 DUP2 DUP4 PUSH2 0x1CE9 JUMP JUMPDEST CALLER PUSH1 0x0 SWAP1 DUP2 MSTORE PUSH1 0x8 PUSH1 0x20 MSTORE PUSH1 0x40 SWAP1 KECCAK256 SLOAD PUSH1 0xF SLOAD SWAP2 SWAP3 POP PUSH2 0x8E1 SWAP2 SWAP1 PUSH2 0x1CDD JUMP JUMPDEST PUSH1 0xF SSTORE PUSH1 0x6 SLOAD CALLER PUSH1 0x0 SWAP1 DUP2 MSTORE PUSH1 0x8 PUSH1 0x20 MSTORE PUSH1 0x40 SWAP1 KECCAK256 PUSH1 0x3 ADD SLOAD PUSH2 0x904 SWAP2 SWAP1 PUSH2 0x1E33 JUMP JUMPDEST NUMBER LT ISZERO PUSH2 0x9B2 JUMPI PUSH1 0x0 PUSH2 0x928 PUSH2 0x2710 PUSH2 0x5AC PUSH1 0x3 SLOAD DUP6 PUSH2 0x1CF5 SWAP1 SWAP2 SWAP1 PUSH4 0xFFFFFFFF AND JUMP JUMPDEST SWAP1 POP PUSH2 0x934 DUP3 DUP3 PUSH2 0x1CDD JUMP JUMPDEST PUSH1 0x7 SLOAD PUSH1 0xE SLOAD PUSH1 0x40 MLOAD PUSH4 0xA9059CBB PUSH1 0xE0 SHL DUP2 MSTORE SWAP3 SWAP5 POP PUSH1 0x1 PUSH1 0x1 PUSH1 0xA0 SHL SUB SWAP2 DUP3 AND SWAP3 PUSH4 0xA9059CBB SWAP3 PUSH2 0x96C SWAP3 AND SWAP1 DUP6 SWAP1 PUSH1 0x4 ADD PUSH2 0x1D9F JUMP JUMPDEST PUSH1 0x20 PUSH1 0x40 MLOAD DUP1 DUP4 SUB DUP2 PUSH1 0x0 DUP8 GAS CALL ISZERO DUP1 ISZERO PUSH2 0x98B JUMPI RETURNDATASIZE PUSH1 0x0 DUP1 RETURNDATACOPY RETURNDATASIZE PUSH1 0x0 REVERT JUMPDEST POP POP POP POP PUSH1 0x40 MLOAD RETURNDATASIZE PUSH1 0x1F NOT PUSH1 0x1F DUP3 ADD AND DUP3 ADD DUP1 PUSH1 0x40 MSTORE POP DUP2 ADD SWAP1 PUSH2 0x9AF SWAP2 SWAP1 PUSH2 0x1DB8 JUMP JUMPDEST POP POP JUMPDEST PUSH1 0x7 SLOAD PUSH1 0x40 MLOAD PUSH4 0xA9059CBB PUSH1 0xE0 SHL DUP2 MSTORE PUSH1 0x1 PUSH1 0x1 PUSH1 0xA0 SHL SUB SWAP1 SWAP2 AND SWAP1 PUSH4 0xA9059CBB SWAP1 PUSH2 0x9E4 SWAP1 CALLER SWAP1 DUP6 SWAP1 PUSH1 0x4 ADD PUSH2 0x1D9F JUMP JUMPDEST PUSH1 0x20 PUSH1 0x40 MLOAD DUP1 DUP4 SUB DUP2 PUSH1 0x0 DUP8 GAS CALL ISZERO DUP1 ISZERO PUSH2 0xA03 JUMPI RETURNDATASIZE PUSH1 0x0 DUP1 RETURNDATACOPY RETURNDATASIZE PUSH1 0x0 REVERT JUMPDEST POP POP POP POP PUSH1 0x40 MLOAD RETURNDATASIZE PUSH1 0x1F NOT PUSH1 0x1F DUP3 ADD AND DUP3 ADD DUP1 PUSH1 0x40 MSTORE POP DUP2 ADD SWAP1 PUSH2 0xA27 SWAP2 SWAP1 PUSH2 0x1DB8 JUMP JUMPDEST POP CALLER PUSH1 0x0 SWAP1 DUP2 MSTORE PUSH1 0x8 PUSH1 0x20 MSTORE PUSH1 0x40 DUP2 KECCAK256 SWAP1 DUP2 SSTORE PUSH1 0x9 SLOAD PUSH2 0x6EF SWAP1 PUSH1 0x1 SWAP1 PUSH2 0x1DF0 JUMP JUMPDEST PUSH1 0x0 SLOAD PUSH1 0x1 PUSH1 0x1 PUSH1 0xA0 SHL SUB AND CALLER EQ PUSH2 0xA73 JUMPI PUSH1 0x40 MLOAD PUSH3 0x461BCD PUSH1 0xE5 SHL DUP2 MSTORE PUSH1 0x4 ADD PUSH2 0x531 SWAP1 PUSH2 0x1E4B JUMP JUMPDEST PUSH1 0x0 DUP2 GT PUSH2 0xA93 JUMPI PUSH1 0x40 MLOAD PUSH3 0x461BCD PUSH1 0xE5 SHL DUP2 MSTORE PUSH1 0x4 ADD PUSH2 0x531 SWAP1 PUSH2 0x1E80 JUMP JUMPDEST PUSH2 0x3E8 DUP2 LT PUSH2 0xAB4 JUMPI PUSH1 0x40 MLOAD PUSH3 0x461BCD PUSH1 0xE5 SHL DUP2 MSTORE PUSH1 0x4 ADD PUSH2 0x531 SWAP1 PUSH2 0x1EB7 JUMP JUMPDEST PUSH1 0x1 SSTORE JUMP JUMPDEST PUSH1 0x7 SLOAD PUSH1 0x40 MLOAD PUSH4 0x70A08231 PUSH1 0xE0 SHL DUP2 MSTORE CALLER PUSH1 0x4 DUP3 ADD MSTORE DUP3 SWAP2 PUSH1 0x1 PUSH1 0x1 PUSH1 0xA0 SHL SUB AND SWAP1 PUSH4 0x70A08231 SWAP1 PUSH1 0x24 ADD PUSH1 0x20 PUSH1 0x40 MLOAD DUP1 DUP4 SUB DUP2 DUP7 GAS STATICCALL ISZERO DUP1 ISZERO PUSH2 0xB01 JUMPI RETURNDATASIZE PUSH1 0x0 DUP1 RETURNDATACOPY RETURNDATASIZE PUSH1 0x0 REVERT JUMPDEST POP POP POP POP PUSH1 0x40 MLOAD RETURNDATASIZE PUSH1 0x1F NOT PUSH1 0x1F DUP3 ADD AND DUP3 ADD DUP1 PUSH1 0x40 MSTORE POP DUP2 ADD SWAP1 PUSH2 0xB25 SWAP2 SWAP1 PUSH2 0x1EEE JUMP JUMPDEST LT ISZERO PUSH2 0xB43 JUMPI PUSH1 0x40 MLOAD PUSH3 0x461BCD PUSH1 0xE5 SHL DUP2 MSTORE PUSH1 0x4 ADD PUSH2 0x531 SWAP1 PUSH2 0x1F07 JUMP JUMPDEST PUSH1 0xA SLOAD PUSH2 0xB50 SWAP1 DUP3 PUSH2 0x1CE9 JUMP JUMPDEST PUSH1 0xA SSTORE PUSH1 0x7 SLOAD PUSH1 0x40 MLOAD PUSH4 0x23B872DD PUSH1 0xE0 SHL DUP2 MSTORE CALLER PUSH1 0x4 DUP3 ADD MSTORE ADDRESS PUSH1 0x24 DUP3 ADD MSTORE PUSH1 0x44 DUP2 ADD DUP4 SWAP1 MSTORE PUSH1 0x1 PUSH1 0x1 PUSH1 0xA0 SHL SUB SWAP1 SWAP2 AND SWAP1 PUSH4 0x23B872DD SWAP1 PUSH1 0x64 ADD PUSH1 0x20 PUSH1 0x40 MLOAD DUP1 DUP4 SUB DUP2 PUSH1 0x0 DUP8 GAS CALL ISZERO DUP1 ISZERO PUSH2 0xBAA JUMPI RETURNDATASIZE PUSH1 0x0 DUP1 RETURNDATACOPY RETURNDATASIZE PUSH1 0x0 REVERT JUMPDEST POP POP POP POP PUSH1 0x40 MLOAD RETURNDATASIZE PUSH1 0x1F NOT PUSH1 0x1F DUP3 ADD AND DUP3 ADD DUP1 PUSH1 0x40 MSTORE POP DUP2 ADD SWAP1 PUSH2 0xBCE SWAP2 SWAP1 PUSH2 0x1DB8 JUMP JUMPDEST POP PUSH1 0xA SLOAD PUSH1 0x40 MLOAD PUSH1 0x0 DUP1 MLOAD PUSH1 0x20 PUSH2 0x1FAA DUP4 CODECOPY DUP2 MLOAD SWAP2 MSTORE SWAP1 PUSH1 0x0 SWAP1 LOG2 POP JUMP JUMPDEST PUSH1 0x7 SLOAD PUSH1 0x40 MLOAD PUSH4 0x70A08231 PUSH1 0xE0 SHL DUP2 MSTORE CALLER PUSH1 0x4 DUP3 ADD MSTORE DUP3 SWAP2 PUSH1 0x1 PUSH1 0x1 PUSH1 0xA0 SHL SUB AND SWAP1 PUSH4 0x70A08231 SWAP1 PUSH1 0x24 ADD PUSH1 0x20 PUSH1 0x40 MLOAD DUP1 DUP4 SUB DUP2 DUP7 GAS STATICCALL ISZERO DUP1 ISZERO PUSH2 0xC34 JUMPI RETURNDATASIZE PUSH1 0x0 DUP1 RETURNDATACOPY RETURNDATASIZE PUSH1 0x0 REVERT JUMPDEST POP POP POP POP PUSH1 0x40 MLOAD RETURNDATASIZE PUSH1 0x1F NOT PUSH1 0x1F DUP3 ADD AND DUP3 ADD DUP1 PUSH1 0x40 MSTORE POP DUP2 ADD SWAP1 PUSH2 0xC58 SWAP2 SWAP1 PUSH2 0x1EEE JUMP JUMPDEST LT ISZERO PUSH2 0xC76 JUMPI PUSH1 0x40 MLOAD PUSH3 0x461BCD PUSH1 0xE5 SHL DUP2 MSTORE PUSH1 0x4 ADD PUSH2 0x531 SWAP1 PUSH2 0x1F07 JUMP JUMPDEST PUSH1 0x0 DUP2 GT PUSH2 0xCBF JUMPI PUSH1 0x40 MLOAD PUSH3 0x461BCD PUSH1 0xE5 SHL DUP2 MSTORE PUSH1 0x20 PUSH1 0x4 DUP3 ADD MSTORE PUSH1 0x16 PUSH1 0x24 DUP3 ADD MSTORE PUSH22 0x125B9D985B1A59081CDD185ADA5B99C8185B5BDD5B9D PUSH1 0x52 SHL PUSH1 0x44 DUP3 ADD MSTORE PUSH1 0x64 ADD PUSH2 0x531 JUMP JUMPDEST PUSH1 0x0 PUSH1 0xA SLOAD GT PUSH2 0xD09 JUMPI PUSH1 0x40 MLOAD PUSH3 0x461BCD PUSH1 0xE5 SHL DUP2 MSTORE PUSH1 0x20 PUSH1 0x4 DUP3 ADD MSTORE PUSH1 0x15 PUSH1 0x24 DUP3 ADD MSTORE PUSH21 0x14995DD85C9908141BDBDB08115E1A185D5CDD1959 PUSH1 0x5A SHL PUSH1 0x44 DUP3 ADD MSTORE PUSH1 0x64 ADD PUSH2 0x531 JUMP JUMPDEST PUSH1 0x7 SLOAD PUSH1 0x40 MLOAD PUSH4 0x23B872DD PUSH1 0xE0 SHL DUP2 MSTORE CALLER PUSH1 0x4 DUP3 ADD MSTORE ADDRESS PUSH1 0x24 DUP3 ADD MSTORE PUSH1 0x44 DUP2 ADD DUP4 SWAP1 MSTORE PUSH1 0x1 PUSH1 0x1 PUSH1 0xA0 SHL SUB SWAP1 SWAP2 AND SWAP1 PUSH4 0x23B872DD SWAP1 PUSH1 0x64 ADD PUSH1 0x20 PUSH1 0x40 MLOAD DUP1 DUP4 SUB DUP2 PUSH1 0x0 DUP8 GAS CALL ISZERO DUP1 ISZERO PUSH2 0xD60 JUMPI RETURNDATASIZE PUSH1 0x0 DUP1 RETURNDATACOPY RETURNDATASIZE PUSH1 0x0 REVERT JUMPDEST POP POP POP POP PUSH1 0x40 MLOAD RETURNDATASIZE PUSH1 0x1F NOT PUSH1 0x1F DUP3 ADD AND DUP3 ADD DUP1 PUSH1 0x40 MSTORE POP DUP2 ADD SWAP1 PUSH2 0xD84 SWAP2 SWAP1 PUSH2 0x1DB8 JUMP JUMPDEST POP PUSH1 0xF SLOAD PUSH2 0xD91 JUMPI NUMBER PUSH1 0xB SSTORE JUMPDEST CALLER PUSH1 0x0 SWAP1 DUP2 MSTORE PUSH1 0x8 PUSH1 0x20 MSTORE PUSH1 0x40 SWAP1 KECCAK256 SLOAD PUSH2 0xE1E JUMPI CALLER PUSH1 0x0 DUP2 DUP2 MSTORE PUSH1 0x8 PUSH1 0x20 MSTORE PUSH1 0x40 DUP2 KECCAK256 NUMBER PUSH1 0x2 SWAP1 SWAP2 ADD SSTORE PUSH1 0x9 DUP1 SLOAD PUSH1 0x1 DUP2 DUP2 ADD DUP4 SSTORE SWAP3 DUP3 SWAP1 MSTORE PUSH32 0x6E1540171B6C0C960B71A7020D9F60077F6AF931A8BBF590DA0223DACF75C7AF ADD DUP1 SLOAD PUSH1 0x1 PUSH1 0x1 PUSH1 0xA0 SHL SUB NOT AND SWAP1 SWAP4 OR SWAP1 SWAP3 SSTORE SWAP1 SLOAD PUSH2 0xE0A SWAP2 SWAP1 PUSH2 0x1DF0 JUMP JUMPDEST CALLER PUSH1 0x0 SWAP1 DUP2 MSTORE PUSH1 0x8 PUSH1 0x20 MSTORE PUSH1 0x40 SWAP1 KECCAK256 PUSH1 0x4 ADD SSTORE JUMPDEST CALLER PUSH1 0x0 SWAP1 DUP2 MSTORE PUSH1 0x8 PUSH1 0x20 MSTORE PUSH1 0x40 SWAP1 KECCAK256 SLOAD PUSH2 0xE38 SWAP1 DUP3 PUSH2 0x1CE9 JUMP JUMPDEST CALLER PUSH1 0x0 SWAP1 DUP2 MSTORE PUSH1 0x8 PUSH1 0x20 MSTORE PUSH1 0x40 SWAP1 KECCAK256 SWAP1 DUP2 SSTORE NUMBER PUSH1 0x3 SWAP1 SWAP2 ADD SSTORE PUSH1 0xF SLOAD PUSH2 0xE5E SWAP1 DUP3 PUSH2 0x1CE9 JUMP JUMPDEST PUSH1 0xF SSTORE PUSH1 0x7 SLOAD PUSH1 0x1 PUSH1 0x1 PUSH1 0xA0 SHL SUB AND PUSH4 0xA9059CBB CALLER PUSH2 0xE7C DUP2 PUSH2 0x1C0E JUMP JUMPDEST PUSH1 0x40 MLOAD DUP4 PUSH4 0xFFFFFFFF AND PUSH1 0xE0 SHL DUP2 MSTORE PUSH1 0x4 ADD PUSH2 0xE99 SWAP3 SWAP2 SWAP1 PUSH2 0x1D9F JUMP JUMPDEST PUSH1 0x20 PUSH1 0x40 MLOAD DUP1 DUP4 SUB DUP2 PUSH1 0x0 DUP8 GAS CALL ISZERO DUP1 ISZERO PUSH2 0xEB8 JUMPI RETURNDATASIZE PUSH1 0x0 DUP1 RETURNDATACOPY RETURNDATASIZE PUSH1 0x0 REVERT JUMPDEST POP POP POP POP PUSH1 0x40 MLOAD RETURNDATASIZE PUSH1 0x1F NOT PUSH1 0x1F DUP3 ADD AND DUP3 ADD DUP1 PUSH1 0x40 MSTORE POP DUP2 ADD SWAP1 PUSH2 0xEDC SWAP2 SWAP1 PUSH2 0x1DB8 JUMP JUMPDEST POP POP CALLER PUSH1 0x0 SWAP1 DUP2 MSTORE PUSH1 0x8 PUSH1 0x20 MSTORE PUSH1 0x40 SWAP1 KECCAK256 NUMBER PUSH1 0x2 SWAP1 SWAP2 ADD SSTORE JUMP JUMPDEST PUSH1 0x0 PUSH2 0xF01 CALLER PUSH2 0x1C0E JUMP JUMPDEST CALLER PUSH1 0x0 SWAP1 DUP2 MSTORE PUSH1 0x8 PUSH1 0x20 MSTORE PUSH1 0x40 SWAP1 KECCAK256 PUSH1 0x1 ADD SLOAD SWAP1 SWAP2 POP PUSH2 0xF21 SWAP1 DUP3 PUSH2 0x1CE9 JUMP JUMPDEST CALLER PUSH1 0x0 DUP2 DUP2 MSTORE PUSH1 0x8 PUSH1 0x20 MSTORE PUSH1 0x40 SWAP1 DUP2 SWAP1 KECCAK256 PUSH1 0x1 ADD SWAP3 SWAP1 SWAP3 SSTORE PUSH1 0x7 SLOAD SWAP2 MLOAD PUSH4 0xA9059CBB PUSH1 0xE0 SHL DUP2 MSTORE PUSH1 0x1 PUSH1 0x1 PUSH1 0xA0 SHL SUB SWAP1 SWAP3 AND SWAP2 PUSH4 0xA9059CBB SWAP2 PUSH2 0xF68 SWAP2 DUP6 SWAP1 PUSH1 0x4 ADD PUSH2 0x1D9F JUMP JUMPDEST PUSH1 0x20 PUSH1 0x40 MLOAD DUP1 DUP4 SUB DUP2 PUSH1 0x0 DUP8 GAS CALL ISZERO DUP1 ISZERO PUSH2 0xF87 JUMPI RETURNDATASIZE PUSH1 0x0 DUP1 RETURNDATACOPY RETURNDATASIZE PUSH1 0x0 REVERT JUMPDEST POP POP POP POP PUSH1 0x40 MLOAD RETURNDATASIZE PUSH1 0x1F NOT PUSH1 0x1F DUP3 ADD AND DUP3 ADD DUP1 PUSH1 0x40 MSTORE POP DUP2 ADD SWAP1 PUSH2 0xFAB SWAP2 SWAP1 PUSH2 0x1DB8 JUMP JUMPDEST POP CALLER PUSH1 0x0 SWAP1 DUP2 MSTORE PUSH1 0x8 PUSH1 0x20 MSTORE PUSH1 0x40 SWAP1 KECCAK256 NUMBER PUSH1 0x2 SWAP1 SWAP2 ADD SSTORE PUSH1 0x10 SLOAD PUSH2 0xFCF SWAP1 DUP3 PUSH2 0x1CE9 JUMP JUMPDEST PUSH1 0x10 SSTORE PUSH1 0xA SLOAD PUSH2 0xFDF SWAP1 DUP3 PUSH2 0x1CDD JUMP JUMPDEST PUSH1 0xA SSTORE POP JUMP JUMPDEST CALLER PUSH1 0x0 SWAP1 DUP2 MSTORE PUSH1 0x8 PUSH1 0x20 MSTORE PUSH1 0x40 SWAP1 KECCAK256 SLOAD PUSH2 0x1041 JUMPI PUSH1 0x40 MLOAD PUSH3 0x461BCD PUSH1 0xE5 SHL DUP2 MSTORE PUSH1 0x20 PUSH1 0x4 DUP3 ADD MSTORE PUSH1 0x1E PUSH1 0x24 DUP3 ADD MSTORE PUSH32 0x506C65617365205374616B6520437275736820746F20636F6D706F756E640000 PUSH1 0x44 DUP3 ADD MSTORE PUSH1 0x64 ADD PUSH2 0x531 JUMP JUMPDEST PUSH1 0x0 PUSH2 0x104C CALLER PUSH2 0x1C0E JUMP JUMPDEST CALLER PUSH1 0x0 SWAP1 DUP2 MSTORE PUSH1 0x8 PUSH1 0x20 MSTORE PUSH1 0x40 SWAP1 KECCAK256 SLOAD SWAP1 SWAP2 POP PUSH2 0x1069 SWAP1 DUP3 PUSH2 0x1CE9 JUMP JUMPDEST CALLER PUSH1 0x0 SWAP1 DUP2 MSTORE PUSH1 0x8 PUSH1 0x20 MSTORE PUSH1 0x40 SWAP1 KECCAK256 SSTORE PUSH1 0xF SLOAD PUSH2 0x1086 SWAP1 DUP3 PUSH2 0x1CE9 JUMP JUMPDEST PUSH1 0xF SSTORE CALLER PUSH1 0x0 SWAP1 DUP2 MSTORE PUSH1 0x8 PUSH1 0x20 MSTORE PUSH1 0x40 SWAP1 KECCAK256 NUMBER PUSH1 0x2 SWAP1 SWAP2 ADD SSTORE PUSH1 0xA SLOAD PUSH2 0x10AC SWAP1 DUP3 PUSH2 0x1CDD JUMP JUMPDEST PUSH1 0xA DUP2 SWAP1 SSTORE PUSH1 0x40 MLOAD PUSH1 0x0 DUP1 MLOAD PUSH1 0x20 PUSH2 0x1FAA DUP4 CODECOPY DUP2 MLOAD SWAP2 MSTORE SWAP1 PUSH1 0x0 SWAP1 LOG2 PUSH1 0x40 MLOAD DUP2 SWAP1 CALLER SWAP1 PUSH32 0xAB0E25DC39626189CFB41155020BA89E726B10244275733E9D7C63CF33FFCCDB SWAP1 PUSH1 0x0 SWAP1 LOG3 POP JUMP JUMPDEST PUSH1 0x9 DUP2 DUP2 SLOAD DUP2 LT PUSH2 0x1108 JUMPI PUSH1 0x0 DUP1 REVERT JUMPDEST PUSH1 0x0 SWAP2 DUP3 MSTORE PUSH1 0x20 SWAP1 SWAP2 KECCAK256 ADD SLOAD PUSH1 0x1 PUSH1 0x1 PUSH1 0xA0 SHL SUB AND SWAP1 POP DUP2 JUMP JUMPDEST PUSH1 0x0 SLOAD PUSH1 0x1 PUSH1 0x1 PUSH1 0xA0 SHL SUB AND CALLER EQ PUSH2 0x114C JUMPI PUSH1 0x40 MLOAD PUSH3 0x461BCD PUSH1 0xE5 SHL DUP2 MSTORE PUSH1 0x4 ADD PUSH2 0x531 SWAP1 PUSH2 0x1E4B JUMP JUMPDEST PUSH1 0x0 DUP2 GT PUSH2 0x116C JUMPI PUSH1 0x40 MLOAD PUSH3 0x461BCD PUSH1 0xE5 SHL DUP2 MSTORE PUSH1 0x4 ADD PUSH2 0x531 SWAP1 PUSH2 0x1E80 JUMP JUMPDEST PUSH2 0x3E8 DUP2 GT ISZERO PUSH2 0x118E JUMPI PUSH1 0x40 MLOAD PUSH3 0x461BCD PUSH1 0xE5 SHL DUP2 MSTORE PUSH1 0x4 ADD PUSH2 0x531 SWAP1 PUSH2 0x1EB7 JUMP JUMPDEST PUSH1 0x4 SSTORE JUMP JUMPDEST PUSH1 0x0 SLOAD PUSH1 0x1 PUSH1 0x1 PUSH1 0xA0 SHL SUB AND CALLER EQ PUSH2 0x11BD JUMPI PUSH1 0x40 MLOAD PUSH3 0x461BCD PUSH1 0xE5 SHL DUP2 MSTORE PUSH1 0x4 ADD PUSH2 0x531 SWAP1 PUSH2 0x1E4B JUMP JUMPDEST PUSH1 0x0 DUP2 GT PUSH2 0x120D JUMPI PUSH1 0x40 MLOAD PUSH3 0x461BCD PUSH1 0xE5 SHL DUP2 MSTORE PUSH1 0x20 PUSH1 0x4 DUP3 ADD MSTORE PUSH1 0x1B PUSH1 0x24 DUP3 ADD MSTORE PUSH32 0x54696D65206D7573742062652067726561746572207468616E20300000000000 PUSH1 0x44 DUP3 ADD MSTORE PUSH1 0x64 ADD PUSH2 0x531 JUMP JUMPDEST PUSH1 0x6 SSTORE JUMP JUMPDEST PUSH1 0x0 SLOAD PUSH1 0x1 PUSH1 0x1 PUSH1 0xA0 SHL SUB AND CALLER EQ PUSH2 0x123C JUMPI PUSH1 0x40 MLOAD PUSH3 0x461BCD PUSH1 0xE5 SHL DUP2 MSTORE PUSH1 0x4 ADD PUSH2 0x531 SWAP1 PUSH2 0x1E4B JUMP JUMPDEST PUSH2 0x1246 PUSH1 0x0 PUSH2 0x1D0D JUMP JUMPDEST JUMP JUMPDEST NUMBER PUSH1 0xB SLOAD GT ISZERO PUSH2 0x129A JUMPI PUSH1 0x40 MLOAD PUSH3 0x461BCD PUSH1 0xE5 SHL DUP2 MSTORE PUSH1 0x20 PUSH1 0x4 DUP3 ADD DUP2 SWAP1 MSTORE PUSH1 0x24 DUP3 ADD MSTORE PUSH32 0x436F6D706F756E6420416C6C206E6F7420796574206170706C696361626C652E PUSH1 0x44 DUP3 ADD MSTORE PUSH1 0x64 ADD PUSH2 0x531 JUMP JUMPDEST PUSH1 0x0 PUSH1 0xF SLOAD GT PUSH2 0x12EC JUMPI PUSH1 0x40 MLOAD PUSH3 0x461BCD PUSH1 0xE5 SHL DUP2 MSTORE PUSH1 0x20 PUSH1 0x4 DUP3 ADD MSTORE PUSH1 0x1A PUSH1 0x24 DUP3 ADD MSTORE PUSH32 0x4E6F205374616B6564207265776172647320746F20636C61696D000000000000 PUSH1 0x44 DUP3 ADD MSTORE PUSH1 0x64 ADD PUSH2 0x531 JUMP JUMPDEST PUSH1 0x0 DUP1 PUSH1 0x0 DUP1 PUSH1 0x0 JUMPDEST PUSH1 0x9 SLOAD DUP2 LT ISZERO PUSH2 0x14E6 JUMPI PUSH1 0x0 PUSH2 0x1331 PUSH1 0x9 DUP4 DUP2 SLOAD DUP2 LT PUSH2 0x1317 JUMPI PUSH2 0x1317 PUSH2 0x1E07 JUMP JUMPDEST PUSH1 0x0 SWAP2 DUP3 MSTORE PUSH1 0x20 SWAP1 SWAP2 KECCAK256 ADD SLOAD PUSH1 0x1 PUSH1 0x1 PUSH1 0xA0 SHL SUB AND PUSH2 0x1C0E JUMP JUMPDEST SWAP1 POP PUSH2 0x133D DUP5 DUP3 PUSH2 0x1CE9 JUMP JUMPDEST PUSH1 0xA SLOAD SWAP1 SWAP5 POP PUSH2 0x134D SWAP1 DUP3 PUSH2 0x1CDD JUMP JUMPDEST PUSH1 0xA SSTORE PUSH1 0x2 SLOAD PUSH1 0x0 SWAP1 PUSH2 0x1369 SWAP1 PUSH2 0x2710 SWAP1 PUSH2 0x5AC SWAP1 DUP6 SWAP1 PUSH2 0x1CF5 JUMP JUMPDEST SWAP1 POP PUSH2 0x1375 DUP8 DUP3 PUSH2 0x1CE9 JUMP JUMPDEST SWAP7 POP PUSH1 0x0 PUSH2 0x1394 PUSH2 0x2710 PUSH2 0x5AC PUSH1 0x1 SLOAD DUP7 PUSH2 0x1CF5 SWAP1 SWAP2 SWAP1 PUSH4 0xFFFFFFFF AND JUMP JUMPDEST SWAP1 POP PUSH2 0x13A0 DUP6 DUP3 PUSH2 0x1CE9 JUMP JUMPDEST SWAP5 POP PUSH1 0x0 PUSH2 0x13BF PUSH2 0x2710 PUSH2 0x5AC PUSH1 0x4 SLOAD DUP8 PUSH2 0x1CF5 SWAP1 SWAP2 SWAP1 PUSH4 0xFFFFFFFF AND JUMP JUMPDEST SWAP1 POP PUSH2 0x13CB DUP9 DUP3 PUSH2 0x1CE9 JUMP JUMPDEST SWAP8 POP PUSH2 0x13D7 DUP5 DUP5 PUSH2 0x1CDD JUMP JUMPDEST SWAP4 POP PUSH2 0x13E3 DUP5 DUP4 PUSH2 0x1CDD JUMP JUMPDEST SWAP4 POP PUSH2 0x13EF DUP5 DUP3 PUSH2 0x1CDD JUMP JUMPDEST PUSH1 0xF SLOAD SWAP1 SWAP5 POP PUSH2 0x13FF SWAP1 DUP6 PUSH2 0x1CE9 JUMP JUMPDEST PUSH1 0xF DUP2 SWAP1 SSTORE POP PUSH2 0x144B DUP5 PUSH1 0x8 PUSH1 0x0 PUSH1 0x9 DUP10 DUP2 SLOAD DUP2 LT PUSH2 0x1420 JUMPI PUSH2 0x1420 PUSH2 0x1E07 JUMP JUMPDEST PUSH1 0x0 SWAP2 DUP3 MSTORE PUSH1 0x20 DUP1 DUP4 KECCAK256 SWAP1 SWAP2 ADD SLOAD PUSH1 0x1 PUSH1 0x1 PUSH1 0xA0 SHL SUB AND DUP4 MSTORE DUP3 ADD SWAP3 SWAP1 SWAP3 MSTORE PUSH1 0x40 ADD SWAP1 KECCAK256 SLOAD SWAP1 PUSH2 0x1CE9 JUMP JUMPDEST PUSH1 0x8 PUSH1 0x0 PUSH1 0x9 DUP9 DUP2 SLOAD DUP2 LT PUSH2 0x1462 JUMPI PUSH2 0x1462 PUSH2 0x1E07 JUMP JUMPDEST PUSH1 0x0 SWAP2 DUP3 MSTORE PUSH1 0x20 DUP1 DUP4 KECCAK256 SWAP1 SWAP2 ADD SLOAD PUSH1 0x1 PUSH1 0x1 PUSH1 0xA0 SHL SUB AND DUP4 MSTORE DUP3 ADD SWAP3 SWAP1 SWAP3 MSTORE PUSH1 0x40 ADD DUP2 KECCAK256 SWAP2 SWAP1 SWAP2 SSTORE PUSH1 0x9 DUP1 SLOAD NUMBER SWAP3 PUSH1 0x8 SWAP3 SWAP1 SWAP2 DUP10 SWAP1 DUP2 LT PUSH2 0x14A5 JUMPI PUSH2 0x14A5 PUSH2 0x1E07 JUMP JUMPDEST PUSH1 0x0 SWAP2 DUP3 MSTORE PUSH1 0x20 DUP1 DUP4 KECCAK256 SWAP1 SWAP2 ADD SLOAD PUSH1 0x1 PUSH1 0x1 PUSH1 0xA0 SHL SUB AND DUP4 MSTORE DUP3 ADD SWAP3 SWAP1 SWAP3 MSTORE PUSH1 0x40 ADD SWAP1 KECCAK256 PUSH1 0x2 ADD SSTORE POP DUP4 SWAP3 POP PUSH2 0x14DE SWAP2 POP DUP3 SWAP1 POP PUSH2 0x1F4D JUMP JUMPDEST SWAP2 POP POP PUSH2 0x12F5 JUMP JUMPDEST POP NUMBER PUSH1 0xB SSTORE PUSH1 0x7 SLOAD PUSH1 0x40 MLOAD PUSH4 0x852CD8D PUSH1 0xE3 SHL DUP2 MSTORE PUSH1 0x4 DUP2 ADD DUP7 SWAP1 MSTORE PUSH1 0x1 PUSH1 0x1 PUSH1 0xA0 SHL SUB SWAP1 SWAP2 AND SWAP1 PUSH4 0x42966C68 SWAP1 PUSH1 0x24 ADD PUSH1 0x0 PUSH1 0x40 MLOAD DUP1 DUP4 SUB DUP2 PUSH1 0x0 DUP8 DUP1 EXTCODESIZE ISZERO DUP1 ISZERO PUSH2 0x1531 JUMPI PUSH1 0x0 DUP1 REVERT JUMPDEST POP GAS CALL ISZERO DUP1 ISZERO PUSH2 0x1545 JUMPI RETURNDATASIZE PUSH1 0x0 DUP1 RETURNDATACOPY RETURNDATASIZE PUSH1 0x0 REVERT JUMPDEST POP POP PUSH1 0x7 SLOAD PUSH1 0x40 MLOAD PUSH4 0xA9059CBB PUSH1 0xE0 SHL DUP2 MSTORE PUSH1 0x1 PUSH1 0x1 PUSH1 0xA0 SHL SUB SWAP1 SWAP2 AND SWAP3 POP PUSH4 0xA9059CBB SWAP2 POP PUSH2 0x157B SWAP1 CALLER SWAP1 DUP6 SWAP1 PUSH1 0x4 ADD PUSH2 0x1D9F JUMP JUMPDEST PUSH1 0x20 PUSH1 0x40 MLOAD DUP1 DUP4 SUB DUP2 PUSH1 0x0 DUP8 GAS CALL ISZERO DUP1 ISZERO PUSH2 0x159A JUMPI RETURNDATASIZE PUSH1 0x0 DUP1 RETURNDATACOPY RETURNDATASIZE PUSH1 0x0 REVERT JUMPDEST POP POP POP POP PUSH1 0x40 MLOAD RETURNDATASIZE PUSH1 0x1F NOT PUSH1 0x1F DUP3 ADD AND DUP3 ADD DUP1 PUSH1 0x40 MSTORE POP DUP2 ADD SWAP1 PUSH2 0x15BE SWAP2 SWAP1 PUSH2 0x1DB8 JUMP JUMPDEST POP PUSH1 0x7 SLOAD PUSH1 0xD SLOAD PUSH1 0x40 MLOAD PUSH4 0xA9059CBB PUSH1 0xE0 SHL DUP2 MSTORE PUSH1 0x1 PUSH1 0x1 PUSH1 0xA0 SHL SUB SWAP3 DUP4 AND SWAP3 PUSH4 0xA9059CBB SWAP3 PUSH2 0x15F5 SWAP3 SWAP2 AND SWAP1 DUP8 SWAP1 PUSH1 0x4 ADD PUSH2 0x1D9F JUMP JUMPDEST PUSH1 0x20 PUSH1 0x40 MLOAD DUP1 DUP4 SUB DUP2 PUSH1 0x0 DUP8 GAS CALL ISZERO DUP1 ISZERO PUSH2 0x1614 JUMPI RETURNDATASIZE PUSH1 0x0 DUP1 RETURNDATACOPY RETURNDATASIZE PUSH1 0x0 REVERT JUMPDEST POP POP POP POP PUSH1 0x40 MLOAD RETURNDATASIZE PUSH1 0x1F NOT PUSH1 0x1F DUP3 ADD AND DUP3 ADD DUP1 PUSH1 0x40 MSTORE POP DUP2 ADD SWAP1 PUSH2 0x1638 SWAP2 SWAP1 PUSH2 0x1DB8 JUMP JUMPDEST POP PUSH1 0x40 MLOAD DUP3 SWAP1 PUSH32 0x7C45F13C5F74B8490171F97241162B875F904BC8C550E1F275F16072B93D91A6 SWAP1 PUSH1 0x0 SWAP1 LOG2 PUSH1 0xA SLOAD PUSH1 0x40 MLOAD PUSH1 0x0 DUP1 MLOAD PUSH1 0x20 PUSH2 0x1FAA DUP4 CODECOPY DUP2 MLOAD SWAP2 MSTORE SWAP1 PUSH1 0x0 SWAP1 LOG2 POP POP POP POP JUMP JUMPDEST PUSH1 0x0 SLOAD PUSH1 0x1 PUSH1 0x1 PUSH1 0xA0 SHL SUB AND CALLER EQ PUSH2 0x16AE JUMPI PUSH1 0x40 MLOAD PUSH3 0x461BCD PUSH1 0xE5 SHL DUP2 MSTORE PUSH1 0x4 ADD PUSH2 0x531 SWAP1 PUSH2 0x1E4B JUMP JUMPDEST PUSH8 0x8AC7230489E80000 DUP2 GT ISZERO PUSH2 0x1716 JUMPI PUSH1 0x40 MLOAD PUSH3 0x461BCD PUSH1 0xE5 SHL DUP2 MSTORE PUSH1 0x20 PUSH1 0x4 DUP3 ADD MSTORE PUSH1 0x27 PUSH1 0x24 DUP3 ADD MSTORE PUSH32 0x43727573682050657220426C6F636B2063616E206E6F74206265206D6F726520 PUSH1 0x44 DUP3 ADD MSTORE PUSH7 0x7468616E20313 PUSH1 0xCC SHL PUSH1 0x64 DUP3 ADD MSTORE PUSH1 0x84 ADD PUSH2 0x531 JUMP JUMPDEST PUSH1 0xC SSTORE JUMP JUMPDEST PUSH1 0x0 SLOAD PUSH1 0x1 PUSH1 0x1 PUSH1 0xA0 SHL SUB AND CALLER EQ PUSH2 0x1745 JUMPI PUSH1 0x40 MLOAD PUSH3 0x461BCD PUSH1 0xE5 SHL DUP2 MSTORE PUSH1 0x4 ADD PUSH2 0x531 SWAP1 PUSH2 0x1E4B JUMP JUMPDEST PUSH1 0x0 DUP2 GT PUSH2 0x1765 JUMPI PUSH1 0x40 MLOAD PUSH3 0x461BCD PUSH1 0xE5 SHL DUP2 MSTORE PUSH1 0x4 ADD PUSH2 0x531 SWAP1 PUSH2 0x1E80 JUMP JUMPDEST PUSH2 0x3E8 DUP2 LT PUSH2 0x1786 JUMPI PUSH1 0x40 MLOAD PUSH3 0x461BCD PUSH1 0xE5 SHL DUP2 MSTORE PUSH1 0x4 ADD PUSH2 0x531 SWAP1 PUSH2 0x1EB7 JUMP JUMPDEST PUSH1 0x3 SSTORE JUMP JUMPDEST PUSH1 0x0 SLOAD PUSH1 0x1 PUSH1 0x1 PUSH1 0xA0 SHL SUB AND CALLER EQ PUSH2 0x17B5 JUMPI PUSH1 0x40 MLOAD PUSH3 0x461BCD PUSH1 0xE5 SHL DUP2 MSTORE PUSH1 0x4 ADD PUSH2 0x531 SWAP1 PUSH2 0x1E4B JUMP JUMPDEST PUSH1 0x0 DUP2 GT PUSH2 0x17D5 JUMPI PUSH1 0x40 MLOAD PUSH3 0x461BCD PUSH1 0xE5 SHL DUP2 MSTORE PUSH1 0x4 ADD PUSH2 0x531 SWAP1 PUSH2 0x1E80 JUMP JUMPDEST PUSH2 0x3E8 DUP2 LT PUSH2 0x17F6 JUMPI PUSH1 0x40 MLOAD PUSH3 0x461BCD PUSH1 0xE5 SHL DUP2 MSTORE PUSH1 0x4 ADD PUSH2 0x531 SWAP1 PUSH2 0x1EB7 JUMP JUMPDEST PUSH1 0x2 SSTORE JUMP JUMPDEST PUSH1 0x0 SLOAD PUSH1 0x1 PUSH1 0x1 PUSH1 0xA0 SHL SUB AND CALLER EQ PUSH2 0x1825 JUMPI PUSH1 0x40 MLOAD PUSH3 0x461BCD PUSH1 0xE5 SHL DUP2 MSTORE PUSH1 0x4 ADD PUSH2 0x531 SWAP1 PUSH2 0x1E4B JUMP JUMPDEST PUSH1 0x0 PUSH1 0xA SLOAD GT PUSH2 0x1883 JUMPI PUSH1 0x40 MLOAD PUSH3 0x461BCD PUSH1 0xE5 SHL DUP2 MSTORE PUSH1 0x20 PUSH1 0x4 DUP3 ADD MSTORE PUSH1 0x24 DUP1 DUP3 ADD MSTORE PUSH32 0x546F74616C20506F6F6C206E65656420746F2062652067726561746572207468 PUSH1 0x44 DUP3 ADD MSTORE PUSH4 0x616E203 PUSH1 0xE4 SHL PUSH1 0x64 DUP3 ADD MSTORE PUSH1 0x84 ADD PUSH2 0x531 JUMP JUMPDEST PUSH1 0x7 SLOAD PUSH1 0xA SLOAD PUSH1 0x40 MLOAD PUSH4 0xA9059CBB PUSH1 0xE0 SHL DUP2 MSTORE PUSH1 0x1 PUSH1 0x1 PUSH1 0xA0 SHL SUB SWAP1 SWAP3 AND SWAP2 PUSH4 0xA9059CBB SWAP2 PUSH2 0x18B7 SWAP2 CALLER SWAP2 SWAP1 PUSH1 0x4 ADD PUSH2 0x1D9F JUMP JUMPDEST PUSH1 0x20 PUSH1 0x40 MLOAD DUP1 DUP4 SUB DUP2 PUSH1 0x0 DUP8 GAS CALL ISZERO DUP1 ISZERO PUSH2 0x18D6 JUMPI RETURNDATASIZE PUSH1 0x0 DUP1 RETURNDATACOPY RETURNDATASIZE PUSH1 0x0 REVERT JUMPDEST POP POP POP POP PUSH1 0x40 MLOAD RETURNDATASIZE PUSH1 0x1F NOT PUSH1 0x1F DUP3 ADD AND DUP3 ADD DUP1 PUSH1 0x40 MSTORE POP DUP2 ADD SWAP1 PUSH2 0x18FA SWAP2 SWAP1 PUSH2 0x1DB8 JUMP JUMPDEST POP PUSH1 0x0 PUSH1 0xA SSTORE JUMP JUMPDEST PUSH1 0x7 SLOAD CALLER PUSH1 0x0 DUP2 DUP2 MSTORE PUSH1 0x8 PUSH1 0x20 MSTORE PUSH1 0x40 SWAP1 DUP2 SWAP1 KECCAK256 SLOAD SWAP1 MLOAD PUSH4 0xA9059CBB PUSH1 0xE0 SHL DUP2 MSTORE PUSH1 0x1 PUSH1 0x1 PUSH1 0xA0 SHL SUB SWAP1 SWAP4 AND SWAP3 PUSH4 0xA9059CBB SWAP3 PUSH2 0x1943 SWAP3 SWAP1 SWAP2 PUSH1 0x4 ADD PUSH2 0x1D9F JUMP JUMPDEST PUSH1 0x20 PUSH1 0x40 MLOAD DUP1 DUP4 SUB DUP2 PUSH1 0x0 DUP8 GAS CALL ISZERO DUP1 ISZERO PUSH2 0x1962 JUMPI RETURNDATASIZE PUSH1 0x0 DUP1 RETURNDATACOPY RETURNDATASIZE PUSH1 0x0 REVERT JUMPDEST POP POP POP POP PUSH1 0x40 MLOAD RETURNDATASIZE PUSH1 0x1F NOT PUSH1 0x1F DUP3 ADD AND DUP3 ADD DUP1 PUSH1 0x40 MSTORE POP DUP2 ADD SWAP1 PUSH2 0x1986 SWAP2 SWAP1 PUSH2 0x1DB8 JUMP JUMPDEST POP CALLER PUSH1 0x0 SWAP1 DUP2 MSTORE PUSH1 0x8 PUSH1 0x20 MSTORE PUSH1 0x40 DUP2 KECCAK256 SWAP1 DUP2 SSTORE NUMBER PUSH1 0x2 DUP3 ADD SSTORE PUSH1 0x9 SLOAD PUSH2 0x19AE SWAP1 PUSH1 0x1 SWAP1 PUSH2 0x1DF0 JUMP JUMPDEST DUP2 PUSH1 0x4 ADD SLOAD EQ PUSH2 0x1A53 JUMPI PUSH1 0x9 DUP1 SLOAD PUSH1 0x0 SWAP2 SWAP1 PUSH2 0x19CC SWAP1 PUSH1 0x1 SWAP1 PUSH2 0x1DF0 JUMP JUMPDEST DUP2 SLOAD DUP2 LT PUSH2 0x19DC JUMPI PUSH2 0x19DC PUSH2 0x1E07 JUMP JUMPDEST SWAP1 PUSH1 0x0 MSTORE PUSH1 0x20 PUSH1 0x0 KECCAK256 ADD PUSH1 0x0 SWAP1 SLOAD SWAP1 PUSH2 0x100 EXP SWAP1 DIV PUSH1 0x1 PUSH1 0x1 PUSH1 0xA0 SHL SUB AND SWAP1 POP DUP1 PUSH1 0x9 DUP4 PUSH1 0x4 ADD SLOAD DUP2 SLOAD DUP2 LT PUSH2 0x1A14 JUMPI PUSH2 0x1A14 PUSH2 0x1E07 JUMP JUMPDEST PUSH1 0x0 SWAP2 DUP3 MSTORE PUSH1 0x20 DUP1 DUP4 KECCAK256 SWAP2 SWAP1 SWAP2 ADD DUP1 SLOAD PUSH1 0x1 PUSH1 0x1 PUSH1 0xA0 SHL SUB NOT AND PUSH1 0x1 PUSH1 0x1 PUSH1 0xA0 SHL SUB SWAP5 DUP6 AND OR SWAP1 SSTORE PUSH1 0x4 DUP6 DUP2 ADD SLOAD SWAP5 SWAP1 SWAP4 AND DUP3 MSTORE PUSH1 0x8 SWAP1 MSTORE PUSH1 0x40 SWAP1 KECCAK256 ADD SSTORE JUMPDEST PUSH1 0x9 DUP1 SLOAD DUP1 PUSH2 0x1A64 JUMPI PUSH2 0x1A64 PUSH2 0x1E1D JUMP JUMPDEST PUSH1 0x0 DUP3 DUP2 MSTORE PUSH1 0x20 DUP2 KECCAK256 PUSH1 0x0 NOT SWAP1 DUP4 ADD DUP2 ADD DUP1 SLOAD PUSH1 0x1 PUSH1 0x1 PUSH1 0xA0 SHL SUB NOT AND SWAP1 SSTORE SWAP1 SWAP2 ADD SWAP1 SWAP2 SSTORE PUSH1 0x7 SLOAD PUSH1 0x40 MLOAD PUSH4 0x95EA7B3 PUSH1 0xE0 SHL DUP2 MSTORE PUSH1 0x1 PUSH1 0x1 PUSH1 0xA0 SHL SUB SWAP1 SWAP2 AND SWAP2 PUSH4 0x95EA7B3 SWAP2 PUSH2 0x1AB9 SWAP2 ADDRESS SWAP2 PUSH1 0x4 ADD PUSH2 0x1D9F JUMP JUMPDEST PUSH1 0x20 PUSH1 0x40 MLOAD DUP1 DUP4 SUB DUP2 PUSH1 0x0 DUP8 GAS CALL ISZERO DUP1 ISZERO PUSH2 0x1AD8 JUMPI RETURNDATASIZE PUSH1 0x0 DUP1 RETURNDATACOPY RETURNDATASIZE PUSH1 0x0 REVERT JUMPDEST POP POP POP POP PUSH1 0x40 MLOAD RETURNDATASIZE PUSH1 0x1F NOT PUSH1 0x1F DUP3 ADD AND DUP3 ADD DUP1 PUSH1 0x40 MSTORE POP DUP2 ADD SWAP1 PUSH2 0x1AFC SWAP2 SWAP1 PUSH2 0x1DB8 JUMP JUMPDEST POP POP JUMP JUMPDEST PUSH1 0x0 PUSH1 0xB SLOAD NUMBER GT PUSH2 0x1B11 JUMPI POP PUSH1 0x0 SWAP1 JUMP JUMPDEST PUSH1 0xB SLOAD PUSH2 0x1B1E JUMPI POP PUSH1 0x0 SWAP1 JUMP JUMPDEST PUSH1 0xA SLOAD PUSH2 0x1B2B JUMPI POP PUSH1 0x0 SWAP1 JUMP JUMPDEST PUSH1 0x0 PUSH2 0x1B42 PUSH1 0xB SLOAD NUMBER PUSH2 0x1CDD SWAP1 SWAP2 SWAP1 PUSH4 0xFFFFFFFF AND JUMP JUMPDEST SWAP1 POP PUSH1 0x0 PUSH2 0x1B5B PUSH1 0xC SLOAD DUP4 PUSH2 0x1CF5 SWAP1 SWAP2 SWAP1 PUSH4 0xFFFFFFFF AND JUMP JUMPDEST SWAP4 SWAP3 POP POP POP JUMP JUMPDEST PUSH1 0x0 SLOAD PUSH1 0x1 PUSH1 0x1 PUSH1 0xA0 SHL SUB AND CALLER EQ PUSH2 0x1B8C JUMPI PUSH1 0x40 MLOAD PUSH3 0x461BCD PUSH1 0xE5 SHL DUP2 MSTORE PUSH1 0x4 ADD PUSH2 0x531 SWAP1 PUSH2 0x1E4B JUMP JUMPDEST PUSH1 0x1 PUSH1 0x1 PUSH1 0xA0 SHL SUB DUP2 AND PUSH2 0x1BF1 JUMPI PUSH1 0x40 MLOAD PUSH3 0x461BCD PUSH1 0xE5 SHL DUP2 MSTORE PUSH1 0x20 PUSH1 0x4 DUP3 ADD MSTORE PUSH1 0x26 PUSH1 0x24 DUP3 ADD MSTORE PUSH32 0x4F776E61626C653A206E6577206F776E657220697320746865207A65726F2061 PUSH1 0x44 DUP3 ADD MSTORE PUSH6 0x646472657373 PUSH1 0xD0 SHL PUSH1 0x64 DUP3 ADD MSTORE PUSH1 0x84 ADD PUSH2 0x531 JUMP JUMPDEST PUSH2 0x1BFA DUP2 PUSH2 0x1D0D JUMP JUMPDEST POP JUMP JUMPDEST PUSH1 0x0 PUSH2 0x1C08 DUP3 PUSH2 0x1C0E JUMP JUMPDEST SWAP3 SWAP2 POP POP JUMP JUMPDEST PUSH1 0x1 PUSH1 0x1 PUSH1 0xA0 SHL SUB DUP2 AND PUSH1 0x0 SWAP1 DUP2 MSTORE PUSH1 0x8 PUSH1 0x20 MSTORE PUSH1 0x40 DUP2 KECCAK256 PUSH1 0x2 ADD SLOAD NUMBER GT PUSH2 0x1C38 JUMPI POP PUSH1 0x0 SWAP2 SWAP1 POP JUMP JUMPDEST PUSH1 0xA SLOAD ISZERO DUP1 PUSH2 0x1C47 JUMPI POP PUSH1 0xF SLOAD ISZERO JUMPDEST ISZERO PUSH2 0x1C54 JUMPI POP PUSH1 0x0 SWAP2 SWAP1 POP JUMP JUMPDEST PUSH1 0x1 PUSH1 0x1 PUSH1 0xA0 SHL SUB DUP3 AND PUSH1 0x0 SWAP1 DUP2 MSTORE PUSH1 0x8 PUSH1 0x20 MSTORE PUSH1 0x40 DUP2 KECCAK256 PUSH1 0x2 ADD SLOAD PUSH2 0x1C7B SWAP1 NUMBER SWAP1 PUSH2 0x1CDD JUMP JUMPDEST SWAP1 POP PUSH1 0x0 PUSH2 0x1C94 PUSH1 0xC SLOAD DUP4 PUSH2 0x1CF5 SWAP1 SWAP2 SWAP1 PUSH4 0xFFFFFFFF AND JUMP JUMPDEST PUSH1 0xF SLOAD PUSH1 0x1 PUSH1 0x1 PUSH1 0xA0 SHL SUB DUP7 AND PUSH1 0x0 SWAP1 DUP2 MSTORE PUSH1 0x8 PUSH1 0x20 MSTORE PUSH1 0x40 DUP2 KECCAK256 SLOAD SWAP3 SWAP4 POP SWAP2 PUSH2 0x1CC4 SWAP2 SWAP1 PUSH2 0x5AC SWAP1 DUP6 SWAP1 PUSH2 0x1CF5 JUMP JUMPDEST SWAP1 POP PUSH1 0xA SLOAD DUP2 GT ISZERO PUSH2 0x1CD5 JUMPI POP PUSH1 0xA SLOAD JUMPDEST SWAP5 SWAP4 POP POP POP POP JUMP JUMPDEST PUSH1 0x0 PUSH2 0x1B5B DUP3 DUP5 PUSH2 0x1DF0 JUMP JUMPDEST PUSH1 0x0 PUSH2 0x1B5B DUP3 DUP5 PUSH2 0x1E33 JUMP JUMPDEST PUSH1 0x0 PUSH2 0x1B5B DUP3 DUP5 PUSH2 0x1F68 JUMP JUMPDEST PUSH1 0x0 PUSH2 0x1B5B DUP3 DUP5 PUSH2 0x1F87 JUMP JUMPDEST PUSH1 0x0 DUP1 SLOAD PUSH1 0x1 PUSH1 0x1 PUSH1 0xA0 SHL SUB DUP4 DUP2 AND PUSH1 0x1 PUSH1 0x1 PUSH1 0xA0 SHL SUB NOT DUP4 AND DUP2 OR DUP5 SSTORE PUSH1 0x40 MLOAD SWAP2 SWAP1 SWAP3 AND SWAP3 DUP4 SWAP2 PUSH32 0x8BE0079C531659141344CD1FD0A4F28419497F9722A3DAAFE3B4186F6B6457E0 SWAP2 SWAP1 LOG3 POP POP JUMP JUMPDEST PUSH1 0x0 PUSH1 0x20 DUP3 DUP5 SUB SLT ISZERO PUSH2 0x1D6F JUMPI PUSH1 0x0 DUP1 REVERT JUMPDEST POP CALLDATALOAD SWAP2 SWAP1 POP JUMP JUMPDEST PUSH1 0x0 PUSH1 0x20 DUP3 DUP5 SUB SLT ISZERO PUSH2 0x1D88 JUMPI PUSH1 0x0 DUP1 REVERT JUMPDEST DUP2 CALLDATALOAD PUSH1 0x1 PUSH1 0x1 PUSH1 0xA0 SHL SUB DUP2 AND DUP2 EQ PUSH2 0x1B5B JUMPI PUSH1 0x0 DUP1 REVERT JUMPDEST PUSH1 0x1 PUSH1 0x1 PUSH1 0xA0 SHL SUB SWAP3 SWAP1 SWAP3 AND DUP3 MSTORE PUSH1 0x20 DUP3 ADD MSTORE PUSH1 0x40 ADD SWAP1 JUMP JUMPDEST PUSH1 0x0 PUSH1 0x20 DUP3 DUP5 SUB SLT ISZERO PUSH2 0x1DCA JUMPI PUSH1 0x0 DUP1 REVERT JUMPDEST DUP2 MLOAD DUP1 ISZERO ISZERO DUP2 EQ PUSH2 0x1B5B JUMPI PUSH1 0x0 DUP1 REVERT JUMPDEST PUSH4 0x4E487B71 PUSH1 0xE0 SHL PUSH1 0x0 MSTORE PUSH1 0x11 PUSH1 0x4 MSTORE PUSH1 0x24 PUSH1 0x0 REVERT JUMPDEST PUSH1 0x0 DUP3 DUP3 LT ISZERO PUSH2 0x1E02 JUMPI PUSH2 0x1E02 PUSH2 0x1DDA JUMP JUMPDEST POP SUB SWAP1 JUMP JUMPDEST PUSH4 0x4E487B71 PUSH1 0xE0 SHL PUSH1 0x0 MSTORE PUSH1 0x32 PUSH1 0x4 MSTORE PUSH1 0x24 PUSH1 0x0 REVERT JUMPDEST PUSH4 0x4E487B71 PUSH1 0xE0 SHL PUSH1 0x0 MSTORE PUSH1 0x31 PUSH1 0x4 MSTORE PUSH1 0x24 PUSH1 0x0 REVERT JUMPDEST PUSH1 0x0 DUP3 NOT DUP3 GT ISZERO PUSH2 0x1E46 JUMPI PUSH2 0x1E46 PUSH2 0x1DDA JUMP JUMPDEST POP ADD SWAP1 JUMP JUMPDEST PUSH1 0x20 DUP1 DUP3 MSTORE DUP2 DUP2 ADD MSTORE PUSH32 0x4F776E61626C653A2063616C6C6572206973206E6F7420746865206F776E6572 PUSH1 0x40 DUP3 ADD MSTORE PUSH1 0x60 ADD SWAP1 JUMP JUMPDEST PUSH1 0x20 DUP1 DUP3 MSTORE PUSH1 0x1A SWAP1 DUP3 ADD MSTORE PUSH32 0x466565206D7573742062652067726561746572207468616E2030000000000000 PUSH1 0x40 DUP3 ADD MSTORE PUSH1 0x60 ADD SWAP1 JUMP JUMPDEST PUSH1 0x20 DUP1 DUP3 MSTORE PUSH1 0x19 SWAP1 DUP3 ADD MSTORE PUSH32 0x466565206D757374206265206C657373207468616E2031302500000000000000 PUSH1 0x40 DUP3 ADD MSTORE PUSH1 0x60 ADD SWAP1 JUMP JUMPDEST PUSH1 0x0 PUSH1 0x20 DUP3 DUP5 SUB SLT ISZERO PUSH2 0x1F00 JUMPI PUSH1 0x0 DUP1 REVERT JUMPDEST POP MLOAD SWAP2 SWAP1 POP JUMP JUMPDEST PUSH1 0x20 DUP1 DUP3 MSTORE PUSH1 0x26 SWAP1 DUP3 ADD MSTORE PUSH32 0x496E73756666696369656E7420437275736820746F6B656E7320666F72207472 PUSH1 0x40 DUP3 ADD MSTORE PUSH6 0x30B739B332B9 PUSH1 0xD1 SHL PUSH1 0x60 DUP3 ADD MSTORE PUSH1 0x80 ADD SWAP1 JUMP JUMPDEST PUSH1 0x0 PUSH1 0x0 NOT DUP3 EQ ISZERO PUSH2 0x1F61 JUMPI PUSH2 0x1F61 PUSH2 0x1DDA JUMP JUMPDEST POP PUSH1 0x1 ADD SWAP1 JUMP JUMPDEST PUSH1 0x0 DUP2 PUSH1 0x0 NOT DIV DUP4 GT DUP3 ISZERO ISZERO AND ISZERO PUSH2 0x1F82 JUMPI PUSH2 0x1F82 PUSH2 0x1DDA JUMP JUMPDEST POP MUL SWAP1 JUMP JUMPDEST PUSH1 0x0 DUP3 PUSH2 0x1FA4 JUMPI PUSH4 0x4E487B71 PUSH1 0xE0 SHL PUSH1 0x0 MSTORE PUSH1 0x12 PUSH1 0x4 MSTORE PUSH1 0x24 PUSH1 0x0 REVERT JUMPDEST POP DIV SWAP1 JUMP INVALID 0x1E RETURN PUSH27 0xB665F7C977B577275D7A49E72CD18D1143ECCD1112F1198E4A39D1 TIMESTAMP DUP13 LOG2 PUSH5 0x6970667358 0x22 SLT KECCAK256 PUSH21 0x7002130971490B277448DAE9FD69C531981B05248E DUP1 CALLDATALOAD DELEGATECALL 0xEA DUP6 PUSH26 0x1DD5B53564736F6C634300080C00330000000000000000000000 ",
  "sha1": "74ab8be6996933abbacbbf317d3f7188c45766ed",
  "source": "//SPDX-License-Identifier: MIT\npragma solidity >=0.6.2;\n\n//Also called staking\n//BSC Address: 0x4Bc5dCbbF7bd30C301544279545D426886c89b4d\n//openzeppelin\nimport \"@openzeppelin/contracts/access/Ownable.sol\";\nimport \"@openzeppelin/contracts/utils/math/SafeMath.sol\";\n//bitcrush\nimport \"./CrushToken.sol\";\n\ncontract singleAssetStaking is Ownable {\n    using SafeMath for uint256;\n\n    uint256 constant MAX_CRUSH_PER_BLOCK = 10000000000000000000;\n    uint256 constant MAX_FEE = 1000; // 1000/10000 * 100 = 10%\n    uint256 public performanceFeeCompounder = 10; // 10/10000 * 100 = 0.1%\n    uint256 public performanceFeeBurn = 100; // 100/10000 * 100 = 1%\n    uint256 constant divisor = 10000;\n\n    uint256 public earlyWithdrawFee = 50; // 50/10000 * 100 = 0.5%\n    uint256 public performanceFeeReserve = 190; // 190/10000 * 100 = 1.9%\n\n    uint256 public blockPerSecond = 3;\n    uint256 public earlyWithdrawFeeTime = (72 * 60 * 60) / blockPerSecond;\n\n    //address of the crush token\n    CRUSHToken public crush;\n\n    struct staked {\n        uint256 stakedAmount;\n        uint256 claimedAmount;\n        uint256 lastBlockCompounded;\n        uint256 lastBlockStaked;\n        uint256 index;\n    }\n    mapping(address => staked) public stakings;\n    address[] public addressIndexes;\n\n    uint256 public totalPool;\n    uint256 public lastAutoCompoundBlock;\n    uint256 public crushPerBlock = 5;\n    address public reserveAddress;\n    address public withdrawFeeAddress;\n    uint256 public totalStaked;\n\n    uint256 public totalClaimed;\n\n    event RewardPoolUpdated(uint256 indexed _totalPool);\n    event CompoundAll(uint256 indexed _totalRewarded);\n    event StakeUpdated(address indexed recipeint, uint256 indexed _amount);\n\n    constructor(\n        CRUSHToken _crush,\n        uint256 _crushPerBlock,\n        address _reserveAddress,\n        address _withdrawFeeAddress\n    ) {\n        crush = _crush;\n        crushPerBlock = _crushPerBlock;\n        reserveAddress = _reserveAddress;\n        lastAutoCompoundBlock = 0;\n        withdrawFeeAddress = _withdrawFeeAddress;\n    }\n\n    /// Adds the provided amount to the totalPool\n    /// @param _amount the amount to add\n    /// @dev adds the provided amount to `totalPool` state variable\n    function addRewardToPool(uint256 _amount) public {\n        require(\n            crush.balanceOf(msg.sender) >= _amount,\n            \"Insufficient Crush tokens for transfer\"\n        );\n        totalPool = totalPool.add(_amount);\n        crush.transferFrom(msg.sender, address(this), _amount);\n        emit RewardPoolUpdated(totalPool);\n    }\n\n    function setCrushPerBlock(uint256 _amount) public onlyOwner {\n        require(_amount >= 0, \"Crush per Block can not be negative\");\n        require(\n            _amount <= MAX_CRUSH_PER_BLOCK,\n            \"Crush Per Block can not be more than 10\"\n        );\n        crushPerBlock = _amount;\n    }\n\n    /// Stake the provided amount\n    /// @param _amount the amount to stake\n    /// @dev stakes the provided amount\n    function enterStaking(uint256 _amount) public {\n        require(\n            crush.balanceOf(msg.sender) >= _amount,\n            \"Insufficient Crush tokens for transfer\"\n        );\n        require(_amount > 0, \"Invalid staking amount\");\n        require(totalPool > 0, \"Reward Pool Exhausted\");\n\n        crush.transferFrom(msg.sender, address(this), _amount);\n        if (totalStaked == 0) {\n            lastAutoCompoundBlock = block.number;\n        }\n        if (stakings[msg.sender].stakedAmount == 0) {\n            stakings[msg.sender].lastBlockCompounded = block.number;\n            addressIndexes.push(msg.sender);\n            stakings[msg.sender].index = addressIndexes.length - 1;\n        }\n        stakings[msg.sender].stakedAmount = stakings[msg.sender]\n            .stakedAmount\n            .add(_amount);\n        stakings[msg.sender].lastBlockStaked = block.number;\n        totalStaked = totalStaked.add(_amount);\n        crush.transfer(msg.sender, getReward(msg.sender));\n        stakings[msg.sender].lastBlockCompounded = block.number;\n    }\n\n    /// Leaves staking for a user by the specified amount and transfering staked amount and reward to users address\n    /// @param _amount the amount to unstake\n    /// @dev leaves staking and deducts total pool by the users reward. early withdrawal fee applied if withdraw is made before earlyWithdrawFeeTime\n    function leaveStaking(uint256 _amount) public {\n        uint256 reward = getReward(msg.sender);\n        stakings[msg.sender].lastBlockCompounded = block.number;\n        totalPool = totalPool.sub(reward);\n        require(\n            stakings[msg.sender].stakedAmount >= _amount,\n            \"Withdraw amount can not be greater than staked amount\"\n        );\n        totalStaked = totalStaked.sub(_amount);\n        stakings[msg.sender].stakedAmount = stakings[msg.sender]\n            .stakedAmount\n            .sub(_amount);\n        if (\n            block.number <\n            stakings[msg.sender].lastBlockStaked.add(earlyWithdrawFeeTime)\n        ) {\n            //apply fee\n            uint256 withdrawalFee = _amount.mul(earlyWithdrawFee).div(divisor);\n            _amount = _amount.sub(withdrawalFee);\n            crush.transfer(withdrawFeeAddress, withdrawalFee);\n        }\n        _amount = _amount.add(reward);\n        crush.transfer(msg.sender, _amount);\n        //remove from array\n        if (stakings[msg.sender].stakedAmount == 0) {\n            staked storage staking = stakings[msg.sender];\n            if (staking.index != addressIndexes.length - 1) {\n                address lastAddress = addressIndexes[addressIndexes.length - 1];\n                addressIndexes[staking.index] = lastAddress;\n                stakings[lastAddress].index = staking.index;\n                crush.approve(address(this), 0);\n            }\n            addressIndexes.pop();\n            delete stakings[msg.sender];\n        }\n        emit RewardPoolUpdated(totalPool);\n    }\n\n    /// Leaves staking for a user while setting stakedAmount to 0 and transfering staked amount and reward to users address\n    /// @dev leaves staking and deducts total pool by the users reward. early withdrawal fee applied if withdraw is made before earlyWithdrawFeeTime\n    function leaveStakingCompletely() public {\n        uint256 reward = getReward(msg.sender);\n        stakings[msg.sender].lastBlockCompounded = block.number;\n        uint256 stakedAmount = stakings[msg.sender].stakedAmount;\n        totalPool = totalPool.sub(reward);\n        stakedAmount = stakedAmount.add(reward);\n        totalStaked = totalStaked.sub(stakings[msg.sender].stakedAmount);\n\n        if (\n            block.number <\n            stakings[msg.sender].lastBlockStaked + earlyWithdrawFeeTime\n        ) {\n            uint256 withdrawalFee = stakedAmount.mul(earlyWithdrawFee).div(\n                divisor\n            );\n            stakedAmount = stakedAmount.sub(withdrawalFee);\n            crush.transfer(withdrawFeeAddress, withdrawalFee);\n        }\n        crush.transfer(msg.sender, stakedAmount);\n        stakings[msg.sender].stakedAmount = 0;\n        if (stakings[msg.sender].stakedAmount == 0) {\n            staked storage staking = stakings[msg.sender];\n            if (staking.index != addressIndexes.length - 1) {\n                address lastAddress = addressIndexes[addressIndexes.length - 1];\n                addressIndexes[staking.index] = lastAddress;\n                stakings[lastAddress].index = staking.index;\n                crush.approve(address(this), 0);\n            }\n            addressIndexes.pop();\n            delete stakings[msg.sender];\n        }\n        emit RewardPoolUpdated(totalPool);\n    }\n\n    function getReward(address _address) internal view returns (uint256) {\n        if (block.number <= stakings[_address].lastBlockCompounded) {\n            return 0;\n        } else {\n            if (totalPool == 0 || totalStaked == 0) {\n                return 0;\n            } else {\n                //if the staker reward is greater than total pool => set it to total pool\n                uint256 blocks = block.number.sub(\n                    stakings[_address].lastBlockCompounded\n                );\n                uint256 totalReward = blocks.mul(crushPerBlock);\n                uint256 stakerReward = totalReward\n                    .mul(stakings[_address].stakedAmount)\n                    .div(totalStaked);\n                if (stakerReward > totalPool) {\n                    stakerReward = totalPool;\n                }\n                return stakerReward;\n            }\n        }\n    }\n\n    /// Calculates total potential pending rewards\n    /// @dev Calculates potential reward based on crush per block\n    function totalPendingRewards() public view returns (uint256) {\n        if (block.number <= lastAutoCompoundBlock) {\n            return 0;\n        } else if (lastAutoCompoundBlock == 0) {\n            return 0;\n        } else if (totalPool == 0) {\n            return 0;\n        }\n\n        uint256 blocks = block.number.sub(lastAutoCompoundBlock);\n        uint256 totalReward = blocks.mul(crushPerBlock);\n\n        return totalReward;\n    }\n\n    /// Get pending rewards of a user\n    /// @param _address the address to calculate the reward for\n    /// @dev calculates potential reward for the address provided based on crush per block\n    function pendingReward(address _address) public view returns (uint256) {\n        return getReward(_address);\n    }\n\n    /// transfers the rewards of a user to their address\n    /// @dev calculates users rewards and transfers it out while deducting reward from totalPool\n    function claim() public {\n        uint256 reward = getReward(msg.sender);\n        stakings[msg.sender].claimedAmount = stakings[msg.sender]\n            .claimedAmount\n            .add(reward);\n        crush.transfer(msg.sender, reward);\n        stakings[msg.sender].lastBlockCompounded = block.number;\n        totalClaimed = totalClaimed.add(reward);\n        totalPool = totalPool.sub(reward);\n    }\n\n    /// compounds the rewards of the caller\n    /// @dev compounds the rewards of the caller add adds it into their staked amount\n    function singleCompound() public {\n        require(\n            stakings[msg.sender].stakedAmount > 0,\n            \"Please Stake Crush to compound\"\n        );\n        uint256 reward = getReward(msg.sender);\n\n        stakings[msg.sender].stakedAmount = stakings[msg.sender]\n            .stakedAmount\n            .add(reward);\n        totalStaked = totalStaked.add(reward);\n\n        stakings[msg.sender].lastBlockCompounded = block.number;\n\n        totalPool = totalPool.sub(reward);\n        emit RewardPoolUpdated(totalPool);\n        emit StakeUpdated(msg.sender, reward);\n    }\n\n    /// compounds the rewards of all users in the pool\n    /// @dev compounds the rewards of all users in the pool add adds it into their staked amount while deducting fees\n    function compoundAll() public {\n        require(\n            lastAutoCompoundBlock <= block.number,\n            \"Compound All not yet applicable.\"\n        );\n        require(totalStaked > 0, \"No Staked rewards to claim\");\n        uint256 crushToBurn = 0;\n        uint256 performanceFee = 0;\n        uint256 totalRewarded = 0;\n        uint256 compounderReward = 0;\n        for (uint256 i = 0; i < addressIndexes.length; i++) {\n            uint256 stakerReward = getReward(addressIndexes[i]);\n            totalRewarded = totalRewarded.add(stakerReward);\n            totalPool = totalPool.sub(stakerReward);\n            uint256 stakerBurn = stakerReward.mul(performanceFeeBurn).div(\n                divisor\n            );\n            crushToBurn = crushToBurn.add(stakerBurn);\n\n            uint256 cpAllReward = stakerReward\n                .mul(performanceFeeCompounder)\n                .div(divisor);\n            compounderReward = compounderReward.add(cpAllReward);\n\n            uint256 feeReserve = stakerReward.mul(performanceFeeReserve).div(\n                divisor\n            );\n            performanceFee = performanceFee.add(feeReserve);\n\n            stakerReward = stakerReward.sub(stakerBurn);\n            stakerReward = stakerReward.sub(cpAllReward);\n            stakerReward = stakerReward.sub(feeReserve);\n\n            totalStaked = totalStaked.add(stakerReward);\n            stakings[addressIndexes[i]].stakedAmount = stakings[\n                addressIndexes[i]\n            ].stakedAmount.add(stakerReward);\n            stakings[addressIndexes[i]].lastBlockCompounded = block.number;\n        }\n        lastAutoCompoundBlock = block.number;\n        crush.burn(crushToBurn);\n        crush.transfer(msg.sender, compounderReward);\n        crush.transfer(reserveAddress, performanceFee);\n        emit CompoundAll(totalRewarded);\n        emit RewardPoolUpdated(totalPool);\n    }\n\n    /// withdraws the staked amount of user in case of emergency.\n    /// @dev drains the staked amount and sets the state variable `stakedAmount` of staking mapping to 0\n    function emergencyWithdraw() public {\n        crush.transfer(msg.sender, stakings[msg.sender].stakedAmount);\n        stakings[msg.sender].stakedAmount = 0;\n\n        stakings[msg.sender].lastBlockCompounded = block.number;\n        staked storage staking = stakings[msg.sender];\n        if (staking.index != addressIndexes.length - 1) {\n            address lastAddress = addressIndexes[addressIndexes.length - 1];\n            addressIndexes[staking.index] = lastAddress;\n            stakings[lastAddress].index = staking.index;\n        }\n        addressIndexes.pop();\n        crush.approve(address(this), 0);\n    }\n\n    /// withdraws the total pool in case of emergency.\n    /// @dev drains the total pool and sets the state variable `totalPool` to 0\n    function emergencyTotalPoolWithdraw() public onlyOwner {\n        require(totalPool > 0, \"Total Pool need to be greater than 0\");\n        crush.transfer(msg.sender, totalPool);\n        totalPool = 0;\n    }\n\n    /// Store `_fee`.\n    /// @param _fee the new value to store\n    /// @dev stores the fee in the state variable `performanceFeeCompounder`\n    function setPerformanceFeeCompounder(uint256 _fee) public onlyOwner {\n        require(_fee > 0, \"Fee must be greater than 0\");\n        require(_fee < MAX_FEE, \"Fee must be less than 10%\");\n        performanceFeeCompounder = _fee;\n    }\n\n    /// Store `_fee`.\n    /// @param _fee the new value to store\n    /// @dev stores the fee in the state variable `performanceFeeBurn`\n    function setPerformanceFeeBurn(uint256 _fee) public onlyOwner {\n        require(_fee > 0, \"Fee must be greater than 0\");\n        require(_fee < MAX_FEE, \"Fee must be less than 10%\");\n        performanceFeeBurn = _fee;\n    }\n\n    /// Store `_fee`.\n    /// @param _fee the new value to store\n    /// @dev stores the fee in the state variable `earlyWithdrawFee`\n    function setEarlyWithdrawFee(uint256 _fee) public onlyOwner {\n        require(_fee > 0, \"Fee must be greater than 0\");\n        require(_fee < MAX_FEE, \"Fee must be less than 10%\");\n        earlyWithdrawFee = _fee;\n    }\n\n    /// Store `_fee`.\n    /// @param _fee the new value to store\n    /// @dev stores the fee in the state variable `performanceFeeReserve`\n    function setPerformanceFeeReserve(uint256 _fee) public onlyOwner {\n        require(_fee > 0, \"Fee must be greater than 0\");\n        require(_fee <= MAX_FEE, \"Fee must be less than 10%\");\n        performanceFeeReserve = _fee;\n    }\n\n    /// Store `_time`.\n    /// @param _time the new value to store\n    /// @dev stores the time in the state variable `earlyWithdrawFeeTime`\n    function setEarlyWithdrawFeeTime(uint256 _time) public onlyOwner {\n        require(_time > 0, \"Time must be greater than 0\");\n        earlyWithdrawFeeTime = _time;\n    }\n}\n",
  "sourcePath": "contracts/SingleAsset.sol",
  "type": "contract"
}